{
  "contractName": "ExpandedERC20",
  "abi": [
    {
      "inputs": [
        {
          "internalType": "string",
          "name": "_tokenName",
          "type": "string"
        },
        {
          "internalType": "string",
          "name": "_tokenSymbol",
          "type": "string"
        },
        {
          "internalType": "uint8",
          "name": "_tokenDecimals",
          "type": "uint8"
        }
      ],
      "stateMutability": "nonpayable",
      "type": "constructor"
    },
    {
      "anonymous": false,
      "inputs": [
        {
          "indexed": true,
          "internalType": "uint256",
          "name": "roleId",
          "type": "uint256"
        },
        {
          "indexed": true,
          "internalType": "address",
          "name": "newMember",
          "type": "address"
        },
        {
          "indexed": true,
          "internalType": "address",
          "name": "manager",
          "type": "address"
        }
      ],
      "name": "AddedSharedMember",
      "type": "event"
    },
    {
      "anonymous": false,
      "inputs": [
        {
          "indexed": true,
          "internalType": "address",
          "name": "owner",
          "type": "address"
        },
        {
          "indexed": true,
          "internalType": "address",
          "name": "spender",
          "type": "address"
        },
        {
          "indexed": false,
          "internalType": "uint256",
          "name": "value",
          "type": "uint256"
        }
      ],
      "name": "Approval",
      "type": "event"
    },
    {
      "anonymous": false,
      "inputs": [
        {
          "indexed": true,
          "internalType": "uint256",
          "name": "roleId",
          "type": "uint256"
        },
        {
          "indexed": true,
          "internalType": "address",
          "name": "oldMember",
          "type": "address"
        },
        {
          "indexed": true,
          "internalType": "address",
          "name": "manager",
          "type": "address"
        }
      ],
      "name": "RemovedSharedMember",
      "type": "event"
    },
    {
      "anonymous": false,
      "inputs": [
        {
          "indexed": true,
          "internalType": "uint256",
          "name": "roleId",
          "type": "uint256"
        },
        {
          "indexed": true,
          "internalType": "address",
          "name": "newMember",
          "type": "address"
        },
        {
          "indexed": true,
          "internalType": "address",
          "name": "manager",
          "type": "address"
        }
      ],
      "name": "ResetExclusiveMember",
      "type": "event"
    },
    {
      "anonymous": false,
      "inputs": [
        {
          "indexed": true,
          "internalType": "address",
          "name": "from",
          "type": "address"
        },
        {
          "indexed": true,
          "internalType": "address",
          "name": "to",
          "type": "address"
        },
        {
          "indexed": false,
          "internalType": "uint256",
          "name": "value",
          "type": "uint256"
        }
      ],
      "name": "Transfer",
      "type": "event"
    },
    {
      "inputs": [
        {
          "internalType": "uint256",
          "name": "roleId",
          "type": "uint256"
        },
        {
          "internalType": "address",
          "name": "newMember",
          "type": "address"
        }
      ],
      "name": "addMember",
      "outputs": [],
      "stateMutability": "nonpayable",
      "type": "function"
    },
    {
      "inputs": [
        {
          "internalType": "address",
          "name": "owner",
          "type": "address"
        },
        {
          "internalType": "address",
          "name": "spender",
          "type": "address"
        }
      ],
      "name": "allowance",
      "outputs": [
        {
          "internalType": "uint256",
          "name": "",
          "type": "uint256"
        }
      ],
      "stateMutability": "view",
      "type": "function"
    },
    {
      "inputs": [
        {
          "internalType": "address",
          "name": "spender",
          "type": "address"
        },
        {
          "internalType": "uint256",
          "name": "amount",
          "type": "uint256"
        }
      ],
      "name": "approve",
      "outputs": [
        {
          "internalType": "bool",
          "name": "",
          "type": "bool"
        }
      ],
      "stateMutability": "nonpayable",
      "type": "function"
    },
    {
      "inputs": [
        {
          "internalType": "address",
          "name": "account",
          "type": "address"
        }
      ],
      "name": "balanceOf",
      "outputs": [
        {
          "internalType": "uint256",
          "name": "",
          "type": "uint256"
        }
      ],
      "stateMutability": "view",
      "type": "function"
    },
    {
      "inputs": [],
      "name": "decimals",
      "outputs": [
        {
          "internalType": "uint8",
          "name": "",
          "type": "uint8"
        }
      ],
      "stateMutability": "view",
      "type": "function"
    },
    {
      "inputs": [
        {
          "internalType": "address",
          "name": "spender",
          "type": "address"
        },
        {
          "internalType": "uint256",
          "name": "subtractedValue",
          "type": "uint256"
        }
      ],
      "name": "decreaseAllowance",
      "outputs": [
        {
          "internalType": "bool",
          "name": "",
          "type": "bool"
        }
      ],
      "stateMutability": "nonpayable",
      "type": "function"
    },
    {
      "inputs": [
        {
          "internalType": "uint256",
          "name": "roleId",
          "type": "uint256"
        }
      ],
      "name": "getMember",
      "outputs": [
        {
          "internalType": "address",
          "name": "",
          "type": "address"
        }
      ],
      "stateMutability": "view",
      "type": "function"
    },
    {
      "inputs": [
        {
          "internalType": "uint256",
          "name": "roleId",
          "type": "uint256"
        },
        {
          "internalType": "address",
          "name": "memberToCheck",
          "type": "address"
        }
      ],
      "name": "holdsRole",
      "outputs": [
        {
          "internalType": "bool",
          "name": "",
          "type": "bool"
        }
      ],
      "stateMutability": "view",
      "type": "function"
    },
    {
      "inputs": [
        {
          "internalType": "address",
          "name": "spender",
          "type": "address"
        },
        {
          "internalType": "uint256",
          "name": "addedValue",
          "type": "uint256"
        }
      ],
      "name": "increaseAllowance",
      "outputs": [
        {
          "internalType": "bool",
          "name": "",
          "type": "bool"
        }
      ],
      "stateMutability": "nonpayable",
      "type": "function"
    },
    {
      "inputs": [],
      "name": "name",
      "outputs": [
        {
          "internalType": "string",
          "name": "",
          "type": "string"
        }
      ],
      "stateMutability": "view",
      "type": "function"
    },
    {
      "inputs": [
        {
          "internalType": "uint256",
          "name": "roleId",
          "type": "uint256"
        },
        {
          "internalType": "address",
          "name": "memberToRemove",
          "type": "address"
        }
      ],
      "name": "removeMember",
      "outputs": [],
      "stateMutability": "nonpayable",
      "type": "function"
    },
    {
      "inputs": [
        {
          "internalType": "uint256",
          "name": "roleId",
          "type": "uint256"
        }
      ],
      "name": "renounceMembership",
      "outputs": [],
      "stateMutability": "nonpayable",
      "type": "function"
    },
    {
      "inputs": [
        {
          "internalType": "uint256",
          "name": "roleId",
          "type": "uint256"
        },
        {
          "internalType": "address",
          "name": "newMember",
          "type": "address"
        }
      ],
      "name": "resetMember",
      "outputs": [],
      "stateMutability": "nonpayable",
      "type": "function"
    },
    {
      "inputs": [],
      "name": "symbol",
      "outputs": [
        {
          "internalType": "string",
          "name": "",
          "type": "string"
        }
      ],
      "stateMutability": "view",
      "type": "function"
    },
    {
      "inputs": [],
      "name": "totalSupply",
      "outputs": [
        {
          "internalType": "uint256",
          "name": "",
          "type": "uint256"
        }
      ],
      "stateMutability": "view",
      "type": "function"
    },
    {
      "inputs": [
        {
          "internalType": "address",
          "name": "recipient",
          "type": "address"
        },
        {
          "internalType": "uint256",
          "name": "amount",
          "type": "uint256"
        }
      ],
      "name": "transfer",
      "outputs": [
        {
          "internalType": "bool",
          "name": "",
          "type": "bool"
        }
      ],
      "stateMutability": "nonpayable",
      "type": "function"
    },
    {
      "inputs": [
        {
          "internalType": "address",
          "name": "sender",
          "type": "address"
        },
        {
          "internalType": "address",
          "name": "recipient",
          "type": "address"
        },
        {
          "internalType": "uint256",
          "name": "amount",
          "type": "uint256"
        }
      ],
      "name": "transferFrom",
      "outputs": [
        {
          "internalType": "bool",
          "name": "",
          "type": "bool"
        }
      ],
      "stateMutability": "nonpayable",
      "type": "function"
    },
    {
      "inputs": [
        {
          "internalType": "address",
          "name": "recipient",
          "type": "address"
        },
        {
          "internalType": "uint256",
          "name": "value",
          "type": "uint256"
        }
      ],
      "name": "mint",
      "outputs": [
        {
          "internalType": "bool",
          "name": "",
          "type": "bool"
        }
      ],
      "stateMutability": "nonpayable",
      "type": "function"
    },
    {
      "inputs": [
        {
          "internalType": "uint256",
          "name": "value",
          "type": "uint256"
        }
      ],
      "name": "burn",
      "outputs": [],
      "stateMutability": "nonpayable",
      "type": "function"
    }
  ],
  "bytecode": "0x60806040523480156200001157600080fd5b506040516200231b3803806200231b833981810160405260608110156200003757600080fd5b81019080805160405193929190846401000000008211156200005857600080fd5b9083019060208201858111156200006e57600080fd5b82516401000000008111828201881017156200008957600080fd5b82525081516020918201929091019080838360005b83811015620000b85781810151838201526020016200009e565b50505050905090810190601f168015620000e65780820380516001836020036101000a031916815260200191505b50604052602001805160405193929190846401000000008211156200010a57600080fd5b9083019060208201858111156200012057600080fd5b82516401000000008111828201881017156200013b57600080fd5b82525081516020918201929091019080838360005b838110156200016a57818101518382015260200162000150565b50505050905090810190601f168015620001985780820380516001836020036101000a031916815260200191505b5060405260209081015185519093508592508491620001bd91600391850190620005ce565b508051620001d3906004906020840190620005ce565b50506005805460ff1916601217905550620001f7816001600160e01b036200024916565b6200020e600080336001600160e01b036200025f16565b6200023460015b604080516000808252602082019092526001600160e01b036200037a16565b62000240600262000215565b50505062000673565b6005805460ff191660ff92909216919091179055565b826000808281526006602052604090206001015460ff1660028111156200028257fe5b14620002d5576040805162461bcd60e51b815260206004820152601e60248201527f43616e6e6f74207573652061207072652d6578697374696e6720726f6c650000604482015290519081900360640190fd5b60008481526006602052604090206001808201805460ff1916828002179055508381556200031360028201846200048f602090811b6200102f17901c565b60008481526006602052604081206001015460ff1660028111156200033457fe5b1415620003735760405162461bcd60e51b815260040180806020018281038252603c81526020018062002284603c913960400191505060405180910390fd5b5050505050565b826000808281526006602052604090206001015460ff1660028111156200039d57fe5b14620003f0576040805162461bcd60e51b815260206004820152601e60248201527f43616e6e6f74207573652061207072652d6578697374696e6720726f6c650000604482015290519081900360640190fd5b600084815260066020908152604090912060018101805460ff19166002179055848155906200042f906003830190859062001039620004a8821b17901c565b60008481526006602052604081206001015460ff1660028111156200045057fe5b1415620003735760405162461bcd60e51b8152600401808060200182810382526038815260200180620022e36038913960400191505060405180910390fd5b620004a482826001600160e01b03620004e916565b5050565b60005b8151811015620004e457620004db83838381518110620004c757fe5b60200260200101516200054d60201b60201c565b600101620004ab565b505050565b6001600160a01b038116620005305760405162461bcd60e51b8152600401808060200182810382526023815260200180620022c06023913960400191505060405180910390fd5b81546001600160a01b0319166001600160a01b0391909116179055565b6001600160a01b038116620005a9576040805162461bcd60e51b815260206004820152601f60248201527f43616e6e6f74206164642030783020746f20612073686172656420726f6c6500604482015290519081900360640190fd5b6001600160a01b0316600090815260209190915260409020805460ff19166001179055565b828054600181600116156101000203166002900490600052602060002090601f016020900481019282601f106200061157805160ff191683800117855562000641565b8280016001018555821562000641579182015b828111156200064157825182559160200191906001019062000624565b506200064f92915062000653565b5090565b6200067091905b808211156200064f57600081556001016200065a565b90565b611c0180620006836000396000f3fe608060405234801561001057600080fd5b50600436106101515760003560e01c806370a08231116100cd578063a9059cbb11610081578063ab3545e511610066578063ab3545e5146104a1578063d97c05be146104e7578063dd62ed3e1461052057610151565b8063a9059cbb1461044b578063aaa14ca31461048457610151565b80637cdc1cb9116100b25780637cdc1cb9146103d157806395d89b411461040a578063a457c2d71461041257610151565b806370a082311461036557806374d0a6761461039857610151565b8063313ce5671161012457806340c10f191161010957806340c10f19146102d457806342966c681461030d5780636be7658b1461032c57610151565b8063313ce5671461027d578063395093511461029b57610151565b806306fdde0314610156578063095ea7b3146101d357806318160ddd1461022057806323b872dd1461023a575b600080fd5b61015e61055b565b6040805160208082528351818301528351919283929083019185019080838360005b83811015610198578181015183820152602001610180565b50505050905090810190601f1680156101c55780820380516001836020036101000a031916815260200191505b509250505060405180910390f35b61020c600480360360408110156101e957600080fd5b5073ffffffffffffffffffffffffffffffffffffffff813516906020013561060f565b604080519115158252519081900360200190f35b61022861062d565b60408051918252519081900360200190f35b61020c6004803603606081101561025057600080fd5b5073ffffffffffffffffffffffffffffffffffffffff813581169160208101359091169060400135610633565b6102856106da565b6040805160ff9092168252519081900360200190f35b61020c600480360360408110156102b157600080fd5b5073ffffffffffffffffffffffffffffffffffffffff81351690602001356106e3565b61020c600480360360408110156102ea57600080fd5b5073ffffffffffffffffffffffffffffffffffffffff8135169060200135610744565b61032a6004803603602081101561032357600080fd5b50356107b1565b005b61032a6004803603604081101561034257600080fd5b508035906020013573ffffffffffffffffffffffffffffffffffffffff16610820565b6102286004803603602081101561037b57600080fd5b503573ffffffffffffffffffffffffffffffffffffffff16610975565b61032a600480360360408110156103ae57600080fd5b508035906020013573ffffffffffffffffffffffffffffffffffffffff1661099d565b61020c600480360360408110156103e757600080fd5b508035906020013573ffffffffffffffffffffffffffffffffffffffff16610af2565b61015e610bca565b61020c6004803603604081101561042857600080fd5b5073ffffffffffffffffffffffffffffffffffffffff8135169060200135610c49565b61020c6004803603604081101561046157600080fd5b5073ffffffffffffffffffffffffffffffffffffffff8135169060200135610cc4565b61032a6004803603602081101561049a57600080fd5b5035610cd8565b6104be600480360360208110156104b757600080fd5b5035610e06565b6040805173ffffffffffffffffffffffffffffffffffffffff9092168252519081900360200190f35b61032a600480360360408110156104fd57600080fd5b508035906020013573ffffffffffffffffffffffffffffffffffffffff16610ea2565b6102286004803603604081101561053657600080fd5b5073ffffffffffffffffffffffffffffffffffffffff81358116916020013516610ff7565b60038054604080516020601f60027fffffffffffffffffffffffffffffffffffffffffffffffffffffffffffffffff6101006001881615020190951694909404938401819004810282018101909252828152606093909290918301828280156106055780601f106105da57610100808354040283529160200191610605565b820191906000526020600020905b8154815290600101906020018083116105e857829003601f168201915b5050505050905090565b600061062361061c61106f565b8484611073565b5060015b92915050565b60025490565b60006106408484846111ba565b6106d08461064c61106f565b6106cb85604051806060016040528060288152602001611ace6028913973ffffffffffffffffffffffffffffffffffffffff8a1660009081526001602052604081209061069761106f565b73ffffffffffffffffffffffffffffffffffffffff168152602081019190915260400160002054919063ffffffff61139616565b611073565b5060019392505050565b60055460ff1690565b60006106236106f061106f565b846106cb856001600061070161106f565b73ffffffffffffffffffffffffffffffffffffffff908116825260208083019390935260409182016000908120918c16815292529020549063ffffffff61144716565b600060016107528133610af2565b6107a7576040517f08c379a0000000000000000000000000000000000000000000000000000000008152600401808060200182810382526022815260200180611aac6022913960400191505060405180910390fd5b6106d084846114bb565b60026107bd8133610af2565b610812576040517f08c379a0000000000000000000000000000000000000000000000000000000008152600401808060200182810382526022815260200180611aac6022913960400191505060405180910390fd5b61081c33836115f8565b5050565b81600260008281526006602052604090206001015460ff16600281111561084357fe5b14610899576040517f08c379a000000000000000000000000000000000000000000000000000000000815260040180806020018281038252602c815260200180611a80602c913960400191505060405180910390fd5b60008381526006602052604090205483906108b49033610af2565b610909576040517f08c379a0000000000000000000000000000000000000000000000000000000008152600401808060200182810382526024815260200180611b836024913960400191505060405180910390fd5b600084815260066020526040902061092a906003018463ffffffff61174e16565b604051339073ffffffffffffffffffffffffffffffffffffffff85169086907feb3e33034c392e69263b04ec0fa376dc12784a41b6676c7f31b936cbc0fbb5af90600090a450505050565b73ffffffffffffffffffffffffffffffffffffffff1660009081526020819052604090205490565b81600260008281526006602052604090206001015460ff1660028111156109c057fe5b14610a16576040517f08c379a000000000000000000000000000000000000000000000000000000000815260040180806020018281038252602c815260200180611a80602c913960400191505060405180910390fd5b6000838152600660205260409020548390610a319033610af2565b610a86576040517f08c379a0000000000000000000000000000000000000000000000000000000008152600401808060200182810382526024815260200180611b836024913960400191505060405180910390fd5b6000848152600660205260409020610aa7906003018463ffffffff61179b16565b604051339073ffffffffffffffffffffffffffffffffffffffff85169086907f63502af7324ff6db91ab38f8236a648727d9385ea6c782073dd4882d8a61a48f90600090a450505050565b600082815260066020526040812060018082015460ff166002811115610b1457fe5b1415610b3557610b2d600282018463ffffffff61186d16565b915050610627565b6002600182015460ff166002811115610b4a57fe5b1415610b6357610b2d600382018463ffffffff61188d16565b604080517f08c379a000000000000000000000000000000000000000000000000000000000815260206004820152600e60248201527f496e76616c696420726f6c654964000000000000000000000000000000000000604482015290519081900360640190fd5b60048054604080516020601f60027fffffffffffffffffffffffffffffffffffffffffffffffffffffffffffffffff6101006001881615020190951694909404938401819004810282018101909252828152606093909290918301828280156106055780601f106105da57610100808354040283529160200191610605565b6000610623610c5661106f565b846106cb85604051806060016040528060258152602001611ba76025913960016000610c8061106f565b73ffffffffffffffffffffffffffffffffffffffff908116825260208083019390935260409182016000908120918d1681529252902054919063ffffffff61139616565b6000610623610cd161106f565b84846111ba565b80600260008281526006602052604090206001015460ff166002811115610cfb57fe5b14610d51576040517f08c379a000000000000000000000000000000000000000000000000000000000815260040180806020018281038252602c815260200180611a80602c913960400191505060405180910390fd5b81610d5c8133610af2565b610db1576040517f08c379a0000000000000000000000000000000000000000000000000000000008152600401808060200182810382526022815260200180611aac6022913960400191505060405180910390fd5b6000838152600660205260409020610dd2906003013363ffffffff61174e16565b6040513390819085907feb3e33034c392e69263b04ec0fa376dc12784a41b6676c7f31b936cbc0fbb5af90600090a4505050565b600081600160008281526006602052604090206001015460ff166002811115610e2b57fe5b14610e81576040517f08c379a000000000000000000000000000000000000000000000000000000000815260040180806020018281038252602f815260200180611a51602f913960400191505060405180910390fd5b6000838152600660205260409020610e9b906002016118b9565b9392505050565b81600160008281526006602052604090206001015460ff166002811115610ec557fe5b14610f1b576040517f08c379a000000000000000000000000000000000000000000000000000000000815260040180806020018281038252602f815260200180611a51602f913960400191505060405180910390fd5b6000838152600660205260409020548390610f369033610af2565b610f8b576040517f08c379a0000000000000000000000000000000000000000000000000000000008152600401808060200182810382526024815260200180611b836024913960400191505060405180910390fd5b6000848152600660205260409020610fac906002018463ffffffff6118d316565b604051339073ffffffffffffffffffffffffffffffffffffffff85169086907f3b855c56b409b671c7112789d022675eb639d0bcb8896f1b6197c132f799e74690600090a450505050565b73ffffffffffffffffffffffffffffffffffffffff918216600090815260016020908152604080832093909416825291909152205490565b61081c82826118d3565b60005b815181101561106a576110628383838151811061105557fe5b602002602001015161179b565b60010161103c565b505050565b3390565b73ffffffffffffffffffffffffffffffffffffffff83166110df576040517f08c379a0000000000000000000000000000000000000000000000000000000008152600401808060200182810382526024815260200180611b5f6024913960400191505060405180910390fd5b73ffffffffffffffffffffffffffffffffffffffff821661114b576040517f08c379a0000000000000000000000000000000000000000000000000000000008152600401808060200182810382526022815260200180611a096022913960400191505060405180910390fd5b73ffffffffffffffffffffffffffffffffffffffff808416600081815260016020908152604080832094871680845294825291829020859055815185815291517f8c5be1e5ebec7d5bd14f71427d1e84f3dd0314c0f7b2291e5b200ac8c7c3b9259281900390910190a3505050565b73ffffffffffffffffffffffffffffffffffffffff8316611226576040517f08c379a0000000000000000000000000000000000000000000000000000000008152600401808060200182810382526025815260200180611b3a6025913960400191505060405180910390fd5b73ffffffffffffffffffffffffffffffffffffffff8216611292576040517f08c379a00000000000000000000000000000000000000000000000000000000081526004018080602001828103825260238152602001806119c46023913960400191505060405180910390fd5b61129d83838361106a565b6112ed81604051806060016040528060268152602001611a2b6026913973ffffffffffffffffffffffffffffffffffffffff8616600090815260208190526040902054919063ffffffff61139616565b73ffffffffffffffffffffffffffffffffffffffff808516600090815260208190526040808220939093559084168152205461132f908263ffffffff61144716565b73ffffffffffffffffffffffffffffffffffffffff8084166000818152602081815260409182902094909455805185815290519193928716927fddf252ad1be2c89b69c2b068fc378daa952ba7f163c4a11628f55a4df523b3ef92918290030190a3505050565b6000818484111561143f576040517f08c379a00000000000000000000000000000000000000000000000000000000081526004018080602001828103825283818151815260200191508051906020019080838360005b838110156114045781810151838201526020016113ec565b50505050905090810190601f1680156114315780820380516001836020036101000a031916815260200191505b509250505060405180910390fd5b505050900390565b600082820183811015610e9b57604080517f08c379a000000000000000000000000000000000000000000000000000000000815260206004820152601b60248201527f536166654d6174683a206164646974696f6e206f766572666c6f770000000000604482015290519081900360640190fd5b73ffffffffffffffffffffffffffffffffffffffff821661153d57604080517f08c379a000000000000000000000000000000000000000000000000000000000815260206004820152601f60248201527f45524332303a206d696e7420746f20746865207a65726f206164647265737300604482015290519081900360640190fd5b6115496000838361106a565b60025461155c908263ffffffff61144716565b60025573ffffffffffffffffffffffffffffffffffffffff8216600090815260208190526040902054611595908263ffffffff61144716565b73ffffffffffffffffffffffffffffffffffffffff83166000818152602081815260408083209490945583518581529351929391927fddf252ad1be2c89b69c2b068fc378daa952ba7f163c4a11628f55a4df523b3ef9281900390910190a35050565b73ffffffffffffffffffffffffffffffffffffffff8216611664576040517f08c379a0000000000000000000000000000000000000000000000000000000008152600401808060200182810382526021815260200180611af66021913960400191505060405180910390fd5b6116708260008361106a565b6116c0816040518060600160405280602281526020016119e76022913973ffffffffffffffffffffffffffffffffffffffff8516600090815260208190526040902054919063ffffffff61139616565b73ffffffffffffffffffffffffffffffffffffffff83166000908152602081905260409020556002546116f9908263ffffffff61198116565b60025560408051828152905160009173ffffffffffffffffffffffffffffffffffffffff8516917fddf252ad1be2c89b69c2b068fc378daa952ba7f163c4a11628f55a4df523b3ef9181900360200190a35050565b73ffffffffffffffffffffffffffffffffffffffff1660009081526020919091526040902080547fffffffffffffffffffffffffffffffffffffffffffffffffffffffffffffff00169055565b73ffffffffffffffffffffffffffffffffffffffff811661181d57604080517f08c379a000000000000000000000000000000000000000000000000000000000815260206004820152601f60248201527f43616e6e6f74206164642030783020746f20612073686172656420726f6c6500604482015290519081900360640190fd5b73ffffffffffffffffffffffffffffffffffffffff1660009081526020919091526040902080547fffffffffffffffffffffffffffffffffffffffffffffffffffffffffffffff00166001179055565b905473ffffffffffffffffffffffffffffffffffffffff91821691161490565b73ffffffffffffffffffffffffffffffffffffffff166000908152602091909152604090205460ff1690565b5473ffffffffffffffffffffffffffffffffffffffff1690565b73ffffffffffffffffffffffffffffffffffffffff811661193f576040517f08c379a0000000000000000000000000000000000000000000000000000000008152600401808060200182810382526023815260200180611b176023913960400191505060405180910390fd5b81547fffffffffffffffffffffffff00000000000000000000000000000000000000001673ffffffffffffffffffffffffffffffffffffffff91909116179055565b6000610e9b83836040518060400160405280601e81526020017f536166654d6174683a207375627472616374696f6e206f766572666c6f77000081525061139656fe45524332303a207472616e7366657220746f20746865207a65726f206164647265737345524332303a206275726e20616d6f756e7420657863656564732062616c616e636545524332303a20617070726f766520746f20746865207a65726f206164647265737345524332303a207472616e7366657220616d6f756e7420657863656564732062616c616e63654d7573742062652063616c6c6564206f6e20616e20696e697469616c697a6564204578636c757369766520726f6c654d7573742062652063616c6c6564206f6e20616e20696e697469616c697a65642053686172656420726f6c6553656e64657220646f6573206e6f7420686f6c6420726571756972656420726f6c6545524332303a207472616e7366657220616d6f756e74206578636565647320616c6c6f77616e636545524332303a206275726e2066726f6d20746865207a65726f206164647265737343616e6e6f742073657420616e206578636c757369766520726f6c6520746f2030783045524332303a207472616e736665722066726f6d20746865207a65726f206164647265737345524332303a20617070726f76652066726f6d20746865207a65726f206164647265737343616e206f6e6c792062652063616c6c6564206279206120726f6c65206d616e6167657245524332303a2064656372656173656420616c6c6f77616e63652062656c6f77207a65726fa2646970667358221220e7a232f94b897b246563b793126303f24c0389f0eb821f6fdb9d88c4147d4a4064736f6c634300060a0033417474656d7074656420746f2075736520616e20696e76616c696420726f6c6520746f206d616e61676520616e206578636c757369766520726f6c6543616e6e6f742073657420616e206578636c757369766520726f6c6520746f20307830417474656d7074656420746f2075736520616e20696e76616c696420726f6c6520746f206d616e61676520612073686172656420726f6c65",
  "immutableReferences": {},
  "source": "pragma solidity ^0.6.0;\n\nimport \"@openzeppelin/contracts/token/ERC20/ERC20.sol\";\nimport \"./MultiRole.sol\";\nimport \"../interfaces/ExpandedIERC20.sol\";\n\n\n/**\n * @title An ERC20 with permissioned burning and minting. The contract deployer will initially\n * be the owner who is capable of adding new roles.\n */\ncontract ExpandedERC20 is ExpandedIERC20, ERC20, MultiRole {\n    enum Roles {\n        // Can set the minter and burner.\n        Owner,\n        // Addresses that can mint new tokens.\n        Minter,\n        // Addresses that can burn tokens that address owns.\n        Burner\n    }\n\n    /**\n     * @notice Constructs the ExpandedERC20.\n     * @param _tokenName The name which describes the new token.\n     * @param _tokenSymbol The ticker abbreviation of the name. Ideally < 5 chars.\n     * @param _tokenDecimals The number of decimals to define token precision.\n     */\n    constructor(\n        string memory _tokenName,\n        string memory _tokenSymbol,\n        uint8 _tokenDecimals\n    ) public ERC20(_tokenName, _tokenSymbol) {\n        _setupDecimals(_tokenDecimals);\n        _createExclusiveRole(uint256(Roles.Owner), uint256(Roles.Owner), msg.sender);\n        _createSharedRole(uint256(Roles.Minter), uint256(Roles.Owner), new address[](0));\n        _createSharedRole(uint256(Roles.Burner), uint256(Roles.Owner), new address[](0));\n    }\n\n    /**\n     * @dev Mints `value` tokens to `recipient`, returning true on success.\n     * @param recipient address to mint to.\n     * @param value amount of tokens to mint.\n     * @return True if the mint succeeded, or False.\n     */\n    function mint(address recipient, uint256 value)\n        external\n        override\n        onlyRoleHolder(uint256(Roles.Minter))\n        returns (bool)\n    {\n        _mint(recipient, value);\n        return true;\n    }\n\n    /**\n     * @dev Burns `value` tokens owned by `msg.sender`.\n     * @param value amount of tokens to burn.\n     */\n    function burn(uint256 value) external override onlyRoleHolder(uint256(Roles.Burner)) {\n        _burn(msg.sender, value);\n    }\n}\n",
  "sourcePath": "/home/alessandrovm/JarvisLavoro/SynFiat/packages/contracts/contracts/uma-contracts/common/implementation/ExpandedERC20.sol",
  "compiler": {
    "name": "solc",
    "version": "0.6.10+commit.00c0fcaf.Emscripten.clang"
  },
  "schemaVersion": "3.2.5",
  "updatedAt": "2020-10-22T14:01:04.089Z",
  "devdoc": {
    "methods": {
      "addMember(uint256,address)": {
        "details": "Reverts if `roleId` does not represent an initialized, SharedRole or if the caller is not a member of the managing role for `roleId`.",
        "params": {
          "newMember": "the new SharedRole member.",
          "roleId": "the SharedRole membership to modify."
        }
      },
      "allowance(address,address)": {
        "details": "See {IERC20-allowance}."
      },
      "approve(address,uint256)": {
        "details": "See {IERC20-approve}. Requirements: - `spender` cannot be the zero address."
      },
      "balanceOf(address)": {
        "details": "See {IERC20-balanceOf}."
      },
      "burn(uint256)": {
        "details": "Burns `value` tokens owned by `msg.sender`.",
        "params": {
          "value": "amount of tokens to burn."
        }
      },
      "constructor": {
        "params": {
          "_tokenDecimals": "The number of decimals to define token precision.",
          "_tokenName": "The name which describes the new token.",
          "_tokenSymbol": "The ticker abbreviation of the name. Ideally < 5 chars."
        }
      },
      "decimals()": {
        "details": "Returns the number of decimals used to get its user representation. For example, if `decimals` equals `2`, a balance of `505` tokens should be displayed to a user as `5,05` (`505 / 10 ** 2`). Tokens usually opt for a value of 18, imitating the relationship between Ether and Wei. This is the value {ERC20} uses, unless {_setupDecimals} is called. NOTE: This information is only used for _display_ purposes: it in no way affects any of the arithmetic of the contract, including {IERC20-balanceOf} and {IERC20-transfer}."
      },
      "decreaseAllowance(address,uint256)": {
        "details": "Atomically decreases the allowance granted to `spender` by the caller. This is an alternative to {approve} that can be used as a mitigation for problems described in {IERC20-approve}. Emits an {Approval} event indicating the updated allowance. Requirements: - `spender` cannot be the zero address. - `spender` must have allowance for the caller of at least `subtractedValue`."
      },
      "getMember(uint256)": {
        "details": "Reverts if `roleId` does not represent an initialized, exclusive role.",
        "params": {
          "roleId": "the ExclusiveRole membership to check."
        },
        "returns": {
          "_0": "the address of the current ExclusiveRole member."
        }
      },
      "holdsRole(uint256,address)": {
        "details": "Reverts if roleId does not correspond to an initialized role.",
        "params": {
          "memberToCheck": "the address to check.",
          "roleId": "the Role to check."
        },
        "returns": {
          "_0": "True if `memberToCheck` is a member of `roleId`."
        }
      },
      "increaseAllowance(address,uint256)": {
        "details": "Atomically increases the allowance granted to `spender` by the caller. This is an alternative to {approve} that can be used as a mitigation for problems described in {IERC20-approve}. Emits an {Approval} event indicating the updated allowance. Requirements: - `spender` cannot be the zero address."
      },
      "mint(address,uint256)": {
        "details": "Mints `value` tokens to `recipient`, returning true on success.",
        "params": {
          "recipient": "address to mint to.",
          "value": "amount of tokens to mint."
        },
        "returns": {
          "_0": "True if the mint succeeded, or False."
        }
      },
      "name()": {
        "details": "Returns the name of the token."
      },
      "removeMember(uint256,address)": {
        "details": "Reverts if `roleId` does not represent an initialized, SharedRole or if the caller is not a member of the managing role for `roleId`.",
        "params": {
          "memberToRemove": "the current SharedRole member to remove.",
          "roleId": "the SharedRole membership to modify."
        }
      },
      "renounceMembership(uint256)": {
        "details": "Reverts if the caller is not a member of the role for `roleId` or if `roleId` is not an initialized, SharedRole.",
        "params": {
          "roleId": "the SharedRole membership to modify."
        }
      },
      "resetMember(uint256,address)": {
        "details": "Reverts if the caller is not a member of the managing role for `roleId` or if `roleId` is not an initialized, ExclusiveRole.",
        "params": {
          "newMember": "the new ExclusiveRole member.",
          "roleId": "the ExclusiveRole membership to modify."
        }
      },
      "symbol()": {
        "details": "Returns the symbol of the token, usually a shorter version of the name."
      },
      "totalSupply()": {
        "details": "See {IERC20-totalSupply}."
      },
      "transfer(address,uint256)": {
        "details": "See {IERC20-transfer}. Requirements: - `recipient` cannot be the zero address. - the caller must have a balance of at least `amount`."
      },
      "transferFrom(address,address,uint256)": {
        "details": "See {IERC20-transferFrom}. Emits an {Approval} event indicating the updated allowance. This is not required by the EIP. See the note at the beginning of {ERC20}; Requirements: - `sender` and `recipient` cannot be the zero address. - `sender` must have a balance of at least `amount`. - the caller must have allowance for ``sender``'s tokens of at least `amount`."
      }
    },
    "title": "An ERC20 with permissioned burning and minting. The contract deployer will initially be the owner who is capable of adding new roles."
  },
  "userdoc": {
    "methods": {
      "addMember(uint256,address)": {
        "notice": "Adds `newMember` to the shared role, `roleId`."
      },
      "constructor": "Constructs the ExpandedERC20.",
      "getMember(uint256)": {
        "notice": "Gets the current holder of the exclusive role, `roleId`."
      },
      "holdsRole(uint256,address)": {
        "notice": "Whether `memberToCheck` is a member of roleId."
      },
      "removeMember(uint256,address)": {
        "notice": "Removes `memberToRemove` from the shared role, `roleId`."
      },
      "renounceMembership(uint256)": {
        "notice": "Removes caller from the role, `roleId`."
      },
      "resetMember(uint256,address)": {
        "notice": "Changes the exclusive role holder of `roleId` to `newMember`."
      }
    }
  }
}