{
  "contractName": "IdentifierWhitelist",
  "abi": [
    {
      "anonymous": false,
      "inputs": [
        {
          "indexed": true,
          "internalType": "address",
          "name": "previousOwner",
          "type": "address"
        },
        {
          "indexed": true,
          "internalType": "address",
          "name": "newOwner",
          "type": "address"
        }
      ],
      "name": "OwnershipTransferred",
      "type": "event"
    },
    {
      "anonymous": false,
      "inputs": [
        {
          "indexed": true,
          "internalType": "bytes32",
          "name": "identifier",
          "type": "bytes32"
        }
      ],
      "name": "SupportedIdentifierAdded",
      "type": "event"
    },
    {
      "anonymous": false,
      "inputs": [
        {
          "indexed": true,
          "internalType": "bytes32",
          "name": "identifier",
          "type": "bytes32"
        }
      ],
      "name": "SupportedIdentifierRemoved",
      "type": "event"
    },
    {
      "inputs": [],
      "name": "owner",
      "outputs": [
        {
          "internalType": "address",
          "name": "",
          "type": "address"
        }
      ],
      "stateMutability": "view",
      "type": "function"
    },
    {
      "inputs": [],
      "name": "renounceOwnership",
      "outputs": [],
      "stateMutability": "nonpayable",
      "type": "function"
    },
    {
      "inputs": [
        {
          "internalType": "address",
          "name": "newOwner",
          "type": "address"
        }
      ],
      "name": "transferOwnership",
      "outputs": [],
      "stateMutability": "nonpayable",
      "type": "function"
    },
    {
      "inputs": [
        {
          "internalType": "bytes32",
          "name": "identifier",
          "type": "bytes32"
        }
      ],
      "name": "addSupportedIdentifier",
      "outputs": [],
      "stateMutability": "nonpayable",
      "type": "function"
    },
    {
      "inputs": [
        {
          "internalType": "bytes32",
          "name": "identifier",
          "type": "bytes32"
        }
      ],
      "name": "removeSupportedIdentifier",
      "outputs": [],
      "stateMutability": "nonpayable",
      "type": "function"
    },
    {
      "inputs": [
        {
          "internalType": "bytes32",
          "name": "identifier",
          "type": "bytes32"
        }
      ],
      "name": "isIdentifierSupported",
      "outputs": [
        {
          "internalType": "bool",
          "name": "",
          "type": "bool"
        }
      ],
      "stateMutability": "view",
      "type": "function"
    }
  ],
  "bytecode": "0x608060405234801561001057600080fd5b5060006100246001600160e01b0361007316565b600080546001600160a01b0319166001600160a01b0383169081178255604051929350917f8be0079c531659141344cd1fd0a4f28419497f9722a3daafe3b4186f6b6457e0908290a350610077565b3390565b61067d806100866000396000f3fe608060405234801561001057600080fd5b50600436106100725760003560e01c80638e0d3ca7116100505780638e0d3ca7146100cf57806390978d1b146100ec578063f2fde38b1461011d57610072565b806310a7e20114610077578063715018a6146100965780638da5cb5b1461009e575b600080fd5b6100946004803603602081101561008d57600080fd5b5035610150565b005b61009461025c565b6100a661035c565b6040805173ffffffffffffffffffffffffffffffffffffffff9092168252519081900360200190f35b610094600480360360208110156100e557600080fd5b5035610378565b6101096004803603602081101561010257600080fd5b503561047e565b604080519115158252519081900360200190f35b6100946004803603602081101561013357600080fd5b503573ffffffffffffffffffffffffffffffffffffffff16610493565b61015861061d565b60005473ffffffffffffffffffffffffffffffffffffffff9081169116146101e157604080517f08c379a000000000000000000000000000000000000000000000000000000000815260206004820181905260248201527f4f776e61626c653a2063616c6c6572206973206e6f7420746865206f776e6572604482015290519081900360640190fd5b60008181526001602052604090205460ff1661025957600081815260016020819052604080832080547fffffffffffffffffffffffffffffffffffffffffffffffffffffffffffffff00169092179091555182917fa0ca1076d765c13772089a90b5121cf6ddf63c9f7891c4e5031adbc85936b27691a25b50565b61026461061d565b60005473ffffffffffffffffffffffffffffffffffffffff9081169116146102ed57604080517f08c379a000000000000000000000000000000000000000000000000000000000815260206004820181905260248201527f4f776e61626c653a2063616c6c6572206973206e6f7420746865206f776e6572604482015290519081900360640190fd5b6000805460405173ffffffffffffffffffffffffffffffffffffffff909116907f8be0079c531659141344cd1fd0a4f28419497f9722a3daafe3b4186f6b6457e0908390a3600080547fffffffffffffffffffffffff0000000000000000000000000000000000000000169055565b60005473ffffffffffffffffffffffffffffffffffffffff1690565b61038061061d565b60005473ffffffffffffffffffffffffffffffffffffffff90811691161461040957604080517f08c379a000000000000000000000000000000000000000000000000000000000815260206004820181905260248201527f4f776e61626c653a2063616c6c6572206973206e6f7420746865206f776e6572604482015290519081900360640190fd5b60008181526001602052604090205460ff16156102595760008181526001602052604080822080547fffffffffffffffffffffffffffffffffffffffffffffffffffffffffffffff001690555182917fefdf15ca0f9402bd4e933b0edb0db65b23cc50d27cb010d8abcadaae4fa944e591a250565b60009081526001602052604090205460ff1690565b61049b61061d565b60005473ffffffffffffffffffffffffffffffffffffffff90811691161461052457604080517f08c379a000000000000000000000000000000000000000000000000000000000815260206004820181905260248201527f4f776e61626c653a2063616c6c6572206973206e6f7420746865206f776e6572604482015290519081900360640190fd5b73ffffffffffffffffffffffffffffffffffffffff8116610590576040517f08c379a00000000000000000000000000000000000000000000000000000000081526004018080602001828103825260268152602001806106226026913960400191505060405180910390fd5b6000805460405173ffffffffffffffffffffffffffffffffffffffff808516939216917f8be0079c531659141344cd1fd0a4f28419497f9722a3daafe3b4186f6b6457e091a3600080547fffffffffffffffffffffffff00000000000000000000000000000000000000001673ffffffffffffffffffffffffffffffffffffffff92909216919091179055565b339056fe4f776e61626c653a206e6577206f776e657220697320746865207a65726f2061646472657373a26469706673582212202756561f681d78f24bbcb4c2e6a75a9f172794aa0291e1b71ae36a19d780e0e564736f6c634300060a0033",
  "immutableReferences": {},
  "source": "pragma solidity ^0.6.0;\n\nimport \"../interfaces/IdentifierWhitelistInterface.sol\";\nimport \"@openzeppelin/contracts/access/Ownable.sol\";\n\n\n/**\n * @title Stores a whitelist of supported identifiers that the oracle can provide prices for.\n */\ncontract IdentifierWhitelist is IdentifierWhitelistInterface, Ownable {\n    /****************************************\n     *     INTERNAL VARIABLES AND STORAGE   *\n     ****************************************/\n\n    mapping(bytes32 => bool) private supportedIdentifiers;\n\n    /****************************************\n     *                EVENTS                *\n     ****************************************/\n\n    event SupportedIdentifierAdded(bytes32 indexed identifier);\n    event SupportedIdentifierRemoved(bytes32 indexed identifier);\n\n    /****************************************\n     *    ADMIN STATE MODIFYING FUNCTIONS   *\n     ****************************************/\n\n    /**\n     * @notice Adds the provided identifier as a supported identifier.\n     * @dev Price requests using this identifier will succeed after this call.\n     * @param identifier unique UTF-8 representation for the feed being added. Eg: BTC/USD.\n     */\n    function addSupportedIdentifier(bytes32 identifier) external override onlyOwner {\n        if (!supportedIdentifiers[identifier]) {\n            supportedIdentifiers[identifier] = true;\n            emit SupportedIdentifierAdded(identifier);\n        }\n    }\n\n    /**\n     * @notice Removes the identifier from the whitelist.\n     * @dev Price requests using this identifier will no longer succeed after this call.\n     * @param identifier unique UTF-8 representation for the feed being removed. Eg: BTC/USD.\n     */\n    function removeSupportedIdentifier(bytes32 identifier) external override onlyOwner {\n        if (supportedIdentifiers[identifier]) {\n            supportedIdentifiers[identifier] = false;\n            emit SupportedIdentifierRemoved(identifier);\n        }\n    }\n\n    /****************************************\n     *     WHITELIST GETTERS FUNCTIONS      *\n     ****************************************/\n\n    /**\n     * @notice Checks whether an identifier is on the whitelist.\n     * @param identifier unique UTF-8 representation for the feed being queried. Eg: BTC/USD.\n     * @return bool if the identifier is supported (or not).\n     */\n    function isIdentifierSupported(bytes32 identifier) external override view returns (bool) {\n        return supportedIdentifiers[identifier];\n    }\n}\n",
  "sourcePath": "/home/alessandrovm/JarvisLavoro/SynFiat/packages/contracts/contracts/uma-contracts/oracle/implementation/IdentifierWhitelist.sol",
  "compiler": {
    "name": "solc",
    "version": "0.6.10+commit.00c0fcaf.Emscripten.clang"
  },
  "schemaVersion": "3.2.5",
  "updatedAt": "2020-10-22T14:01:04.540Z",
  "devdoc": {
    "methods": {
      "addSupportedIdentifier(bytes32)": {
        "details": "Price requests using this identifier will succeed after this call.",
        "params": {
          "identifier": "unique UTF-8 representation for the feed being added. Eg: BTC/USD."
        }
      },
      "isIdentifierSupported(bytes32)": {
        "params": {
          "identifier": "unique UTF-8 representation for the feed being queried. Eg: BTC/USD."
        },
        "returns": {
          "_0": "bool if the identifier is supported (or not)."
        }
      },
      "owner()": {
        "details": "Returns the address of the current owner."
      },
      "removeSupportedIdentifier(bytes32)": {
        "details": "Price requests using this identifier will no longer succeed after this call.",
        "params": {
          "identifier": "unique UTF-8 representation for the feed being removed. Eg: BTC/USD."
        }
      },
      "renounceOwnership()": {
        "details": "Leaves the contract without owner. It will not be possible to call `onlyOwner` functions anymore. Can only be called by the current owner. NOTE: Renouncing ownership will leave the contract without an owner, thereby removing any functionality that is only available to the owner."
      },
      "transferOwnership(address)": {
        "details": "Transfers ownership of the contract to a new account (`newOwner`). Can only be called by the current owner."
      }
    },
    "title": "Stores a whitelist of supported identifiers that the oracle can provide prices for."
  },
  "userdoc": {
    "methods": {
      "addSupportedIdentifier(bytes32)": {
        "notice": "Adds the provided identifier as a supported identifier."
      },
      "isIdentifierSupported(bytes32)": {
        "notice": "Checks whether an identifier is on the whitelist."
      },
      "removeSupportedIdentifier(bytes32)": {
        "notice": "Removes the identifier from the whitelist."
      }
    }
  }
}