{
  "contractName": "IExpiringMultiParty",
  "abi": [
    {
      "inputs": [],
      "name": "collateralCurrency",
      "outputs": [
        {
          "internalType": "contract IERC20",
          "name": "",
          "type": "address"
        }
      ],
      "stateMutability": "view",
      "type": "function"
    },
    {
      "inputs": [],
      "name": "expiryPrice",
      "outputs": [
        {
          "internalType": "uint256",
          "name": "rawValue",
          "type": "uint256"
        }
      ],
      "stateMutability": "view",
      "type": "function"
    },
    {
      "inputs": [],
      "name": "tokenCurrency",
      "outputs": [
        {
          "internalType": "contract IERC20",
          "name": "",
          "type": "address"
        }
      ],
      "stateMutability": "view",
      "type": "function"
    },
    {
      "inputs": [],
      "name": "totalTokensOutstanding",
      "outputs": [
        {
          "internalType": "uint256",
          "name": "rawValue",
          "type": "uint256"
        }
      ],
      "stateMutability": "view",
      "type": "function"
    },
    {
      "inputs": [
        {
          "components": [
            {
              "internalType": "uint256",
              "name": "rawValue",
              "type": "uint256"
            }
          ],
          "internalType": "struct FixedPoint.Unsigned",
          "name": "collateralAmount",
          "type": "tuple"
        }
      ],
      "name": "deposit",
      "outputs": [],
      "stateMutability": "nonpayable",
      "type": "function"
    },
    {
      "inputs": [
        {
          "components": [
            {
              "internalType": "uint256",
              "name": "rawValue",
              "type": "uint256"
            }
          ],
          "internalType": "struct FixedPoint.Unsigned",
          "name": "collateralAmount",
          "type": "tuple"
        }
      ],
      "name": "requestWithdrawal",
      "outputs": [],
      "stateMutability": "nonpayable",
      "type": "function"
    },
    {
      "inputs": [],
      "name": "withdrawPassedRequest",
      "outputs": [],
      "stateMutability": "nonpayable",
      "type": "function"
    },
    {
      "inputs": [
        {
          "components": [
            {
              "internalType": "uint256",
              "name": "rawValue",
              "type": "uint256"
            }
          ],
          "internalType": "struct FixedPoint.Unsigned",
          "name": "collateralAmount",
          "type": "tuple"
        },
        {
          "components": [
            {
              "internalType": "uint256",
              "name": "rawValue",
              "type": "uint256"
            }
          ],
          "internalType": "struct FixedPoint.Unsigned",
          "name": "numTokens",
          "type": "tuple"
        }
      ],
      "name": "create",
      "outputs": [],
      "stateMutability": "nonpayable",
      "type": "function"
    },
    {
      "inputs": [
        {
          "components": [
            {
              "internalType": "uint256",
              "name": "rawValue",
              "type": "uint256"
            }
          ],
          "internalType": "struct FixedPoint.Unsigned",
          "name": "numTokens",
          "type": "tuple"
        }
      ],
      "name": "redeem",
      "outputs": [],
      "stateMutability": "nonpayable",
      "type": "function"
    },
    {
      "inputs": [],
      "name": "settleExpired",
      "outputs": [],
      "stateMutability": "nonpayable",
      "type": "function"
    },
    {
      "inputs": [],
      "name": "totalPositionCollateral",
      "outputs": [
        {
          "components": [
            {
              "internalType": "uint256",
              "name": "rawValue",
              "type": "uint256"
            }
          ],
          "internalType": "struct FixedPoint.Unsigned",
          "name": "",
          "type": "tuple"
        }
      ],
      "stateMutability": "view",
      "type": "function"
    }
  ],
  "bytecode": "0x608060405234801561001057600080fd5b506102be806100206000396000f3fe608060405234801561001057600080fd5b50600436106100c95760003560e01c80636ba2f99211610081578063d1e92c111161005b578063d1e92c1114610120578063edfa9a9b1461014e578063fcccedc714610101576100c9565b80636ba2f992146101335780637048594b14610146578063bc12163014610120576100c9565b806333a46ca2116100b257806333a46ca21461010157806343e4771b1461010b5780635f1af1ca14610120576100c9565b80630c9229ca146100ce5780630de15fd9146100ec575b600080fd5b6100d6610156565b6040516100e3919061027f565b60405180910390f35b6100f461015c565b6040516100e39190610254565b610109610178565b005b61011361017a565b6040516100e39190610275565b61010961012e3660046101fe565b610185565b610109610141366004610220565b610188565b6100f461018c565b6100d66101a8565b60005481565b60035473ffffffffffffffffffffffffffffffffffffffff1681565b565b6101826101ae565b90565b50565b5050565b60015473ffffffffffffffffffffffffffffffffffffffff1681565b60025481565b6040518060200160405280600081525090565b6000602082840312156101d2578081fd5b6040516020810181811067ffffffffffffffff821117156101f1578283fd5b6040529135825250919050565b60006020828403121561020f578081fd5b61021983836101c1565b9392505050565b60008060408385031215610232578081fd5b61023c84846101c1565b915061024b84602085016101c1565b90509250929050565b73ffffffffffffffffffffffffffffffffffffffff91909116815260200190565b9051815260200190565b9081526020019056fea264697066735822122057dc2b0cfa351a7a47f8128e3fea51683aef672f0a55a12af00bf482976c542764736f6c634300060a0033",
  "immutableReferences": {},
  "source": "pragma solidity ^0.6.0;\npragma experimental ABIEncoderV2;\n\nimport {FixedPoint} from './uma-contracts/common/implementation/FixedPoint.sol';\nimport {IERC20} from '@openzeppelin/contracts/token/ERC20/IERC20.sol';\n\ncontract IExpiringMultiParty {\n  using FixedPoint for FixedPoint.Unsigned;\n\n  FixedPoint.Unsigned public totalTokensOutstanding;\n  IERC20 public tokenCurrency;\n  FixedPoint.Unsigned public expiryPrice;\n\n  IERC20 public collateralCurrency;\n\n  function deposit(FixedPoint.Unsigned memory collateralAmount) public {}\n\n  function requestWithdrawal(FixedPoint.Unsigned memory collateralAmount)\n    public\n  {}\n\n  function withdrawPassedRequest() external {}\n\n  function create(\n    FixedPoint.Unsigned memory collateralAmount,\n    FixedPoint.Unsigned memory numTokens\n  ) public {}\n\n  function redeem(FixedPoint.Unsigned memory numTokens) public {}\n\n  function settleExpired() external {}\n\n  function totalPositionCollateral()\n    external\n    view\n    returns (FixedPoint.Unsigned memory)\n  {}\n}\n",
  "sourcePath": "/home/alessandrovm/JarvisLavoro/SynFiat/packages/contracts/contracts/IExpiringMultiParty.sol",
  "compiler": {
    "name": "solc",
    "version": "0.6.10+commit.00c0fcaf.Emscripten.clang"
  },
  "schemaVersion": "3.2.5",
  "updatedAt": "2020-10-22T14:01:03.825Z",
  "devdoc": {
    "methods": {}
  },
  "userdoc": {
    "methods": {}
  }
}