{
  "contractName": "Liquidatable",
  "abi": [
    {
      "inputs": [
        {
          "components": [
            {
              "internalType": "uint256",
              "name": "expirationTimestamp",
              "type": "uint256"
            },
            {
              "internalType": "uint256",
              "name": "withdrawalLiveness",
              "type": "uint256"
            },
            {
              "internalType": "address",
              "name": "collateralAddress",
              "type": "address"
            },
            {
              "internalType": "address",
              "name": "finderAddress",
              "type": "address"
            },
            {
              "internalType": "address",
              "name": "tokenFactoryAddress",
              "type": "address"
            },
            {
              "internalType": "address",
              "name": "timerAddress",
              "type": "address"
            },
            {
              "internalType": "address",
              "name": "excessTokenBeneficiary",
              "type": "address"
            },
            {
              "internalType": "bytes32",
              "name": "priceFeedIdentifier",
              "type": "bytes32"
            },
            {
              "internalType": "string",
              "name": "syntheticName",
              "type": "string"
            },
            {
              "internalType": "string",
              "name": "syntheticSymbol",
              "type": "string"
            },
            {
              "components": [
                {
                  "internalType": "uint256",
                  "name": "rawValue",
                  "type": "uint256"
                }
              ],
              "internalType": "struct FixedPoint.Unsigned",
              "name": "minSponsorTokens",
              "type": "tuple"
            },
            {
              "internalType": "uint256",
              "name": "liquidationLiveness",
              "type": "uint256"
            },
            {
              "components": [
                {
                  "internalType": "uint256",
                  "name": "rawValue",
                  "type": "uint256"
                }
              ],
              "internalType": "struct FixedPoint.Unsigned",
              "name": "collateralRequirement",
              "type": "tuple"
            },
            {
              "components": [
                {
                  "internalType": "uint256",
                  "name": "rawValue",
                  "type": "uint256"
                }
              ],
              "internalType": "struct FixedPoint.Unsigned",
              "name": "disputeBondPct",
              "type": "tuple"
            },
            {
              "components": [
                {
                  "internalType": "uint256",
                  "name": "rawValue",
                  "type": "uint256"
                }
              ],
              "internalType": "struct FixedPoint.Unsigned",
              "name": "sponsorDisputeRewardPct",
              "type": "tuple"
            },
            {
              "components": [
                {
                  "internalType": "uint256",
                  "name": "rawValue",
                  "type": "uint256"
                }
              ],
              "internalType": "struct FixedPoint.Unsigned",
              "name": "disputerDisputeRewardPct",
              "type": "tuple"
            }
          ],
          "internalType": "struct Liquidatable.ConstructorParams",
          "name": "params",
          "type": "tuple"
        }
      ],
      "stateMutability": "nonpayable",
      "type": "constructor"
    },
    {
      "anonymous": false,
      "inputs": [
        {
          "indexed": true,
          "internalType": "address",
          "name": "caller",
          "type": "address"
        }
      ],
      "name": "ContractExpired",
      "type": "event"
    },
    {
      "anonymous": false,
      "inputs": [
        {
          "indexed": true,
          "internalType": "address",
          "name": "sponsor",
          "type": "address"
        },
        {
          "indexed": true,
          "internalType": "uint256",
          "name": "collateralAmount",
          "type": "uint256"
        }
      ],
      "name": "Deposit",
      "type": "event"
    },
    {
      "anonymous": false,
      "inputs": [
        {
          "indexed": true,
          "internalType": "address",
          "name": "caller",
          "type": "address"
        },
        {
          "indexed": true,
          "internalType": "address",
          "name": "sponsor",
          "type": "address"
        },
        {
          "indexed": true,
          "internalType": "address",
          "name": "liquidator",
          "type": "address"
        },
        {
          "indexed": false,
          "internalType": "address",
          "name": "disputer",
          "type": "address"
        },
        {
          "indexed": false,
          "internalType": "uint256",
          "name": "liquidationId",
          "type": "uint256"
        },
        {
          "indexed": false,
          "internalType": "bool",
          "name": "disputeSucceeded",
          "type": "bool"
        }
      ],
      "name": "DisputeSettled",
      "type": "event"
    },
    {
      "anonymous": false,
      "inputs": [
        {
          "indexed": true,
          "internalType": "address",
          "name": "caller",
          "type": "address"
        },
        {
          "indexed": false,
          "internalType": "uint256",
          "name": "originalExpirationTimestamp",
          "type": "uint256"
        },
        {
          "indexed": false,
          "internalType": "uint256",
          "name": "shutdownTimestamp",
          "type": "uint256"
        }
      ],
      "name": "EmergencyShutdown",
      "type": "event"
    },
    {
      "anonymous": false,
      "inputs": [
        {
          "indexed": true,
          "internalType": "address",
          "name": "sponsor",
          "type": "address"
        }
      ],
      "name": "EndedSponsorPosition",
      "type": "event"
    },
    {
      "anonymous": false,
      "inputs": [
        {
          "indexed": true,
          "internalType": "uint256",
          "name": "amount",
          "type": "uint256"
        }
      ],
      "name": "FinalFeesPaid",
      "type": "event"
    },
    {
      "anonymous": false,
      "inputs": [
        {
          "indexed": true,
          "internalType": "address",
          "name": "sponsor",
          "type": "address"
        },
        {
          "indexed": true,
          "internalType": "address",
          "name": "liquidator",
          "type": "address"
        },
        {
          "indexed": true,
          "internalType": "uint256",
          "name": "liquidationId",
          "type": "uint256"
        },
        {
          "indexed": false,
          "internalType": "uint256",
          "name": "tokensOutstanding",
          "type": "uint256"
        },
        {
          "indexed": false,
          "internalType": "uint256",
          "name": "lockedCollateral",
          "type": "uint256"
        },
        {
          "indexed": false,
          "internalType": "uint256",
          "name": "liquidatedCollateral",
          "type": "uint256"
        },
        {
          "indexed": false,
          "internalType": "uint256",
          "name": "liquidationTime",
          "type": "uint256"
        }
      ],
      "name": "LiquidationCreated",
      "type": "event"
    },
    {
      "anonymous": false,
      "inputs": [
        {
          "indexed": true,
          "internalType": "address",
          "name": "sponsor",
          "type": "address"
        },
        {
          "indexed": true,
          "internalType": "address",
          "name": "liquidator",
          "type": "address"
        },
        {
          "indexed": true,
          "internalType": "address",
          "name": "disputer",
          "type": "address"
        },
        {
          "indexed": false,
          "internalType": "uint256",
          "name": "liquidationId",
          "type": "uint256"
        },
        {
          "indexed": false,
          "internalType": "uint256",
          "name": "disputeBondAmount",
          "type": "uint256"
        }
      ],
      "name": "LiquidationDisputed",
      "type": "event"
    },
    {
      "anonymous": false,
      "inputs": [
        {
          "indexed": true,
          "internalType": "address",
          "name": "caller",
          "type": "address"
        },
        {
          "indexed": false,
          "internalType": "uint256",
          "name": "withdrawalAmount",
          "type": "uint256"
        },
        {
          "indexed": true,
          "internalType": "enum Liquidatable.Status",
          "name": "liquidationStatus",
          "type": "uint8"
        },
        {
          "indexed": false,
          "internalType": "uint256",
          "name": "settlementPrice",
          "type": "uint256"
        }
      ],
      "name": "LiquidationWithdrawn",
      "type": "event"
    },
    {
      "anonymous": false,
      "inputs": [
        {
          "indexed": true,
          "internalType": "address",
          "name": "sponsor",
          "type": "address"
        }
      ],
      "name": "NewSponsor",
      "type": "event"
    },
    {
      "anonymous": false,
      "inputs": [
        {
          "indexed": true,
          "internalType": "address",
          "name": "sponsor",
          "type": "address"
        },
        {
          "indexed": true,
          "internalType": "uint256",
          "name": "collateralAmount",
          "type": "uint256"
        },
        {
          "indexed": true,
          "internalType": "uint256",
          "name": "tokenAmount",
          "type": "uint256"
        }
      ],
      "name": "PositionCreated",
      "type": "event"
    },
    {
      "anonymous": false,
      "inputs": [
        {
          "indexed": true,
          "internalType": "address",
          "name": "sponsor",
          "type": "address"
        },
        {
          "indexed": true,
          "internalType": "uint256",
          "name": "collateralAmount",
          "type": "uint256"
        },
        {
          "indexed": true,
          "internalType": "uint256",
          "name": "tokenAmount",
          "type": "uint256"
        }
      ],
      "name": "Redeem",
      "type": "event"
    },
    {
      "anonymous": false,
      "inputs": [
        {
          "indexed": true,
          "internalType": "uint256",
          "name": "regularFee",
          "type": "uint256"
        },
        {
          "indexed": true,
          "internalType": "uint256",
          "name": "lateFee",
          "type": "uint256"
        }
      ],
      "name": "RegularFeesPaid",
      "type": "event"
    },
    {
      "anonymous": false,
      "inputs": [
        {
          "indexed": true,
          "internalType": "address",
          "name": "oldSponsor",
          "type": "address"
        }
      ],
      "name": "RequestTransferPosition",
      "type": "event"
    },
    {
      "anonymous": false,
      "inputs": [
        {
          "indexed": true,
          "internalType": "address",
          "name": "oldSponsor",
          "type": "address"
        }
      ],
      "name": "RequestTransferPositionCanceled",
      "type": "event"
    },
    {
      "anonymous": false,
      "inputs": [
        {
          "indexed": true,
          "internalType": "address",
          "name": "oldSponsor",
          "type": "address"
        },
        {
          "indexed": true,
          "internalType": "address",
          "name": "newSponsor",
          "type": "address"
        }
      ],
      "name": "RequestTransferPositionExecuted",
      "type": "event"
    },
    {
      "anonymous": false,
      "inputs": [
        {
          "indexed": true,
          "internalType": "address",
          "name": "sponsor",
          "type": "address"
        },
        {
          "indexed": true,
          "internalType": "uint256",
          "name": "collateralAmount",
          "type": "uint256"
        }
      ],
      "name": "RequestWithdrawal",
      "type": "event"
    },
    {
      "anonymous": false,
      "inputs": [
        {
          "indexed": true,
          "internalType": "address",
          "name": "sponsor",
          "type": "address"
        },
        {
          "indexed": true,
          "internalType": "uint256",
          "name": "collateralAmount",
          "type": "uint256"
        }
      ],
      "name": "RequestWithdrawalCanceled",
      "type": "event"
    },
    {
      "anonymous": false,
      "inputs": [
        {
          "indexed": true,
          "internalType": "address",
          "name": "sponsor",
          "type": "address"
        },
        {
          "indexed": true,
          "internalType": "uint256",
          "name": "collateralAmount",
          "type": "uint256"
        }
      ],
      "name": "RequestWithdrawalExecuted",
      "type": "event"
    },
    {
      "anonymous": false,
      "inputs": [
        {
          "indexed": true,
          "internalType": "address",
          "name": "caller",
          "type": "address"
        },
        {
          "indexed": true,
          "internalType": "uint256",
          "name": "collateralReturned",
          "type": "uint256"
        },
        {
          "indexed": true,
          "internalType": "uint256",
          "name": "tokensBurned",
          "type": "uint256"
        }
      ],
      "name": "SettleExpiredPosition",
      "type": "event"
    },
    {
      "anonymous": false,
      "inputs": [
        {
          "indexed": true,
          "internalType": "address",
          "name": "sponsor",
          "type": "address"
        },
        {
          "indexed": true,
          "internalType": "uint256",
          "name": "collateralAmount",
          "type": "uint256"
        }
      ],
      "name": "Withdrawal",
      "type": "event"
    },
    {
      "inputs": [],
      "name": "cancelTransferPosition",
      "outputs": [],
      "stateMutability": "nonpayable",
      "type": "function"
    },
    {
      "inputs": [],
      "name": "cancelWithdrawal",
      "outputs": [],
      "stateMutability": "nonpayable",
      "type": "function"
    },
    {
      "inputs": [],
      "name": "collateralCurrency",
      "outputs": [
        {
          "internalType": "contract IERC20",
          "name": "",
          "type": "address"
        }
      ],
      "stateMutability": "view",
      "type": "function"
    },
    {
      "inputs": [],
      "name": "collateralRequirement",
      "outputs": [
        {
          "internalType": "uint256",
          "name": "rawValue",
          "type": "uint256"
        }
      ],
      "stateMutability": "view",
      "type": "function"
    },
    {
      "inputs": [],
      "name": "contractState",
      "outputs": [
        {
          "internalType": "enum PricelessPositionManager.ContractState",
          "name": "",
          "type": "uint8"
        }
      ],
      "stateMutability": "view",
      "type": "function"
    },
    {
      "inputs": [
        {
          "components": [
            {
              "internalType": "uint256",
              "name": "rawValue",
              "type": "uint256"
            }
          ],
          "internalType": "struct FixedPoint.Unsigned",
          "name": "collateralAmount",
          "type": "tuple"
        },
        {
          "components": [
            {
              "internalType": "uint256",
              "name": "rawValue",
              "type": "uint256"
            }
          ],
          "internalType": "struct FixedPoint.Unsigned",
          "name": "numTokens",
          "type": "tuple"
        }
      ],
      "name": "create",
      "outputs": [],
      "stateMutability": "nonpayable",
      "type": "function"
    },
    {
      "inputs": [],
      "name": "cumulativeFeeMultiplier",
      "outputs": [
        {
          "internalType": "uint256",
          "name": "rawValue",
          "type": "uint256"
        }
      ],
      "stateMutability": "view",
      "type": "function"
    },
    {
      "inputs": [
        {
          "components": [
            {
              "internalType": "uint256",
              "name": "rawValue",
              "type": "uint256"
            }
          ],
          "internalType": "struct FixedPoint.Unsigned",
          "name": "collateralAmount",
          "type": "tuple"
        }
      ],
      "name": "deposit",
      "outputs": [],
      "stateMutability": "nonpayable",
      "type": "function"
    },
    {
      "inputs": [
        {
          "internalType": "address",
          "name": "sponsor",
          "type": "address"
        },
        {
          "components": [
            {
              "internalType": "uint256",
              "name": "rawValue",
              "type": "uint256"
            }
          ],
          "internalType": "struct FixedPoint.Unsigned",
          "name": "collateralAmount",
          "type": "tuple"
        }
      ],
      "name": "depositTo",
      "outputs": [],
      "stateMutability": "nonpayable",
      "type": "function"
    },
    {
      "inputs": [],
      "name": "disputeBondPct",
      "outputs": [
        {
          "internalType": "uint256",
          "name": "rawValue",
          "type": "uint256"
        }
      ],
      "stateMutability": "view",
      "type": "function"
    },
    {
      "inputs": [],
      "name": "disputerDisputeRewardPct",
      "outputs": [
        {
          "internalType": "uint256",
          "name": "rawValue",
          "type": "uint256"
        }
      ],
      "stateMutability": "view",
      "type": "function"
    },
    {
      "inputs": [],
      "name": "emergencyShutdown",
      "outputs": [],
      "stateMutability": "nonpayable",
      "type": "function"
    },
    {
      "inputs": [],
      "name": "excessTokenBeneficiary",
      "outputs": [
        {
          "internalType": "address",
          "name": "",
          "type": "address"
        }
      ],
      "stateMutability": "view",
      "type": "function"
    },
    {
      "inputs": [],
      "name": "expirationTimestamp",
      "outputs": [
        {
          "internalType": "uint256",
          "name": "",
          "type": "uint256"
        }
      ],
      "stateMutability": "view",
      "type": "function"
    },
    {
      "inputs": [],
      "name": "expire",
      "outputs": [],
      "stateMutability": "nonpayable",
      "type": "function"
    },
    {
      "inputs": [],
      "name": "expiryPrice",
      "outputs": [
        {
          "internalType": "uint256",
          "name": "rawValue",
          "type": "uint256"
        }
      ],
      "stateMutability": "view",
      "type": "function"
    },
    {
      "inputs": [],
      "name": "finder",
      "outputs": [
        {
          "internalType": "contract FinderInterface",
          "name": "",
          "type": "address"
        }
      ],
      "stateMutability": "view",
      "type": "function"
    },
    {
      "inputs": [
        {
          "internalType": "address",
          "name": "sponsor",
          "type": "address"
        }
      ],
      "name": "getCollateral",
      "outputs": [
        {
          "components": [
            {
              "internalType": "uint256",
              "name": "rawValue",
              "type": "uint256"
            }
          ],
          "internalType": "struct FixedPoint.Unsigned",
          "name": "collateralAmount",
          "type": "tuple"
        }
      ],
      "stateMutability": "view",
      "type": "function"
    },
    {
      "inputs": [],
      "name": "getCurrentTime",
      "outputs": [
        {
          "internalType": "uint256",
          "name": "",
          "type": "uint256"
        }
      ],
      "stateMutability": "view",
      "type": "function"
    },
    {
      "inputs": [],
      "name": "liquidationLiveness",
      "outputs": [
        {
          "internalType": "uint256",
          "name": "",
          "type": "uint256"
        }
      ],
      "stateMutability": "view",
      "type": "function"
    },
    {
      "inputs": [
        {
          "internalType": "address",
          "name": "",
          "type": "address"
        },
        {
          "internalType": "uint256",
          "name": "",
          "type": "uint256"
        }
      ],
      "name": "liquidations",
      "outputs": [
        {
          "internalType": "address",
          "name": "sponsor",
          "type": "address"
        },
        {
          "internalType": "address",
          "name": "liquidator",
          "type": "address"
        },
        {
          "internalType": "enum Liquidatable.Status",
          "name": "state",
          "type": "uint8"
        },
        {
          "internalType": "uint256",
          "name": "liquidationTime",
          "type": "uint256"
        },
        {
          "components": [
            {
              "internalType": "uint256",
              "name": "rawValue",
              "type": "uint256"
            }
          ],
          "internalType": "struct FixedPoint.Unsigned",
          "name": "tokensOutstanding",
          "type": "tuple"
        },
        {
          "components": [
            {
              "internalType": "uint256",
              "name": "rawValue",
              "type": "uint256"
            }
          ],
          "internalType": "struct FixedPoint.Unsigned",
          "name": "lockedCollateral",
          "type": "tuple"
        },
        {
          "components": [
            {
              "internalType": "uint256",
              "name": "rawValue",
              "type": "uint256"
            }
          ],
          "internalType": "struct FixedPoint.Unsigned",
          "name": "liquidatedCollateral",
          "type": "tuple"
        },
        {
          "components": [
            {
              "internalType": "uint256",
              "name": "rawValue",
              "type": "uint256"
            }
          ],
          "internalType": "struct FixedPoint.Unsigned",
          "name": "rawUnitCollateral",
          "type": "tuple"
        },
        {
          "internalType": "address",
          "name": "disputer",
          "type": "address"
        },
        {
          "components": [
            {
              "internalType": "uint256",
              "name": "rawValue",
              "type": "uint256"
            }
          ],
          "internalType": "struct FixedPoint.Unsigned",
          "name": "settlementPrice",
          "type": "tuple"
        },
        {
          "components": [
            {
              "internalType": "uint256",
              "name": "rawValue",
              "type": "uint256"
            }
          ],
          "internalType": "struct FixedPoint.Unsigned",
          "name": "finalFee",
          "type": "tuple"
        }
      ],
      "stateMutability": "view",
      "type": "function"
    },
    {
      "inputs": [],
      "name": "minSponsorTokens",
      "outputs": [
        {
          "internalType": "uint256",
          "name": "rawValue",
          "type": "uint256"
        }
      ],
      "stateMutability": "view",
      "type": "function"
    },
    {
      "inputs": [],
      "name": "payRegularFees",
      "outputs": [
        {
          "components": [
            {
              "internalType": "uint256",
              "name": "rawValue",
              "type": "uint256"
            }
          ],
          "internalType": "struct FixedPoint.Unsigned",
          "name": "totalPaid",
          "type": "tuple"
        }
      ],
      "stateMutability": "nonpayable",
      "type": "function"
    },
    {
      "inputs": [],
      "name": "pfc",
      "outputs": [
        {
          "components": [
            {
              "internalType": "uint256",
              "name": "rawValue",
              "type": "uint256"
            }
          ],
          "internalType": "struct FixedPoint.Unsigned",
          "name": "",
          "type": "tuple"
        }
      ],
      "stateMutability": "view",
      "type": "function"
    },
    {
      "inputs": [
        {
          "internalType": "address",
          "name": "",
          "type": "address"
        }
      ],
      "name": "positions",
      "outputs": [
        {
          "components": [
            {
              "internalType": "uint256",
              "name": "rawValue",
              "type": "uint256"
            }
          ],
          "internalType": "struct FixedPoint.Unsigned",
          "name": "tokensOutstanding",
          "type": "tuple"
        },
        {
          "internalType": "uint256",
          "name": "withdrawalRequestPassTimestamp",
          "type": "uint256"
        },
        {
          "components": [
            {
              "internalType": "uint256",
              "name": "rawValue",
              "type": "uint256"
            }
          ],
          "internalType": "struct FixedPoint.Unsigned",
          "name": "withdrawalRequestAmount",
          "type": "tuple"
        },
        {
          "components": [
            {
              "internalType": "uint256",
              "name": "rawValue",
              "type": "uint256"
            }
          ],
          "internalType": "struct FixedPoint.Unsigned",
          "name": "rawCollateral",
          "type": "tuple"
        },
        {
          "internalType": "uint256",
          "name": "transferPositionRequestPassTimestamp",
          "type": "uint256"
        }
      ],
      "stateMutability": "view",
      "type": "function"
    },
    {
      "inputs": [],
      "name": "priceIdentifier",
      "outputs": [
        {
          "internalType": "bytes32",
          "name": "",
          "type": "bytes32"
        }
      ],
      "stateMutability": "view",
      "type": "function"
    },
    {
      "inputs": [],
      "name": "rawLiquidationCollateral",
      "outputs": [
        {
          "internalType": "uint256",
          "name": "rawValue",
          "type": "uint256"
        }
      ],
      "stateMutability": "view",
      "type": "function"
    },
    {
      "inputs": [],
      "name": "rawTotalPositionCollateral",
      "outputs": [
        {
          "internalType": "uint256",
          "name": "rawValue",
          "type": "uint256"
        }
      ],
      "stateMutability": "view",
      "type": "function"
    },
    {
      "inputs": [
        {
          "components": [
            {
              "internalType": "uint256",
              "name": "rawValue",
              "type": "uint256"
            }
          ],
          "internalType": "struct FixedPoint.Unsigned",
          "name": "numTokens",
          "type": "tuple"
        }
      ],
      "name": "redeem",
      "outputs": [
        {
          "components": [
            {
              "internalType": "uint256",
              "name": "rawValue",
              "type": "uint256"
            }
          ],
          "internalType": "struct FixedPoint.Unsigned",
          "name": "amountWithdrawn",
          "type": "tuple"
        }
      ],
      "stateMutability": "nonpayable",
      "type": "function"
    },
    {
      "inputs": [],
      "name": "remargin",
      "outputs": [],
      "stateMutability": "nonpayable",
      "type": "function"
    },
    {
      "inputs": [],
      "name": "requestTransferPosition",
      "outputs": [],
      "stateMutability": "nonpayable",
      "type": "function"
    },
    {
      "inputs": [
        {
          "components": [
            {
              "internalType": "uint256",
              "name": "rawValue",
              "type": "uint256"
            }
          ],
          "internalType": "struct FixedPoint.Unsigned",
          "name": "collateralAmount",
          "type": "tuple"
        }
      ],
      "name": "requestWithdrawal",
      "outputs": [],
      "stateMutability": "nonpayable",
      "type": "function"
    },
    {
      "inputs": [
        {
          "internalType": "uint256",
          "name": "time",
          "type": "uint256"
        }
      ],
      "name": "setCurrentTime",
      "outputs": [],
      "stateMutability": "nonpayable",
      "type": "function"
    },
    {
      "inputs": [],
      "name": "settleExpired",
      "outputs": [
        {
          "components": [
            {
              "internalType": "uint256",
              "name": "rawValue",
              "type": "uint256"
            }
          ],
          "internalType": "struct FixedPoint.Unsigned",
          "name": "amountWithdrawn",
          "type": "tuple"
        }
      ],
      "stateMutability": "nonpayable",
      "type": "function"
    },
    {
      "inputs": [],
      "name": "sponsorDisputeRewardPct",
      "outputs": [
        {
          "internalType": "uint256",
          "name": "rawValue",
          "type": "uint256"
        }
      ],
      "stateMutability": "view",
      "type": "function"
    },
    {
      "inputs": [],
      "name": "timerAddress",
      "outputs": [
        {
          "internalType": "address",
          "name": "",
          "type": "address"
        }
      ],
      "stateMutability": "view",
      "type": "function"
    },
    {
      "inputs": [],
      "name": "tokenCurrency",
      "outputs": [
        {
          "internalType": "contract ExpandedIERC20",
          "name": "",
          "type": "address"
        }
      ],
      "stateMutability": "view",
      "type": "function"
    },
    {
      "inputs": [],
      "name": "totalPositionCollateral",
      "outputs": [
        {
          "components": [
            {
              "internalType": "uint256",
              "name": "rawValue",
              "type": "uint256"
            }
          ],
          "internalType": "struct FixedPoint.Unsigned",
          "name": "totalCollateral",
          "type": "tuple"
        }
      ],
      "stateMutability": "view",
      "type": "function"
    },
    {
      "inputs": [],
      "name": "totalTokensOutstanding",
      "outputs": [
        {
          "internalType": "uint256",
          "name": "rawValue",
          "type": "uint256"
        }
      ],
      "stateMutability": "view",
      "type": "function"
    },
    {
      "inputs": [
        {
          "internalType": "address",
          "name": "newSponsorAddress",
          "type": "address"
        }
      ],
      "name": "transferPositionPassedRequest",
      "outputs": [],
      "stateMutability": "nonpayable",
      "type": "function"
    },
    {
      "inputs": [
        {
          "internalType": "contract IERC20",
          "name": "token",
          "type": "address"
        }
      ],
      "name": "trimExcess",
      "outputs": [
        {
          "components": [
            {
              "internalType": "uint256",
              "name": "rawValue",
              "type": "uint256"
            }
          ],
          "internalType": "struct FixedPoint.Unsigned",
          "name": "amount",
          "type": "tuple"
        }
      ],
      "stateMutability": "nonpayable",
      "type": "function"
    },
    {
      "inputs": [
        {
          "components": [
            {
              "internalType": "uint256",
              "name": "rawValue",
              "type": "uint256"
            }
          ],
          "internalType": "struct FixedPoint.Unsigned",
          "name": "collateralAmount",
          "type": "tuple"
        }
      ],
      "name": "withdraw",
      "outputs": [
        {
          "components": [
            {
              "internalType": "uint256",
              "name": "rawValue",
              "type": "uint256"
            }
          ],
          "internalType": "struct FixedPoint.Unsigned",
          "name": "amountWithdrawn",
          "type": "tuple"
        }
      ],
      "stateMutability": "nonpayable",
      "type": "function"
    },
    {
      "inputs": [],
      "name": "withdrawPassedRequest",
      "outputs": [
        {
          "components": [
            {
              "internalType": "uint256",
              "name": "rawValue",
              "type": "uint256"
            }
          ],
          "internalType": "struct FixedPoint.Unsigned",
          "name": "amountWithdrawn",
          "type": "tuple"
        }
      ],
      "stateMutability": "nonpayable",
      "type": "function"
    },
    {
      "inputs": [],
      "name": "withdrawalLiveness",
      "outputs": [
        {
          "internalType": "uint256",
          "name": "",
          "type": "uint256"
        }
      ],
      "stateMutability": "view",
      "type": "function"
    },
    {
      "inputs": [
        {
          "internalType": "address",
          "name": "sponsor",
          "type": "address"
        },
        {
          "components": [
            {
              "internalType": "uint256",
              "name": "rawValue",
              "type": "uint256"
            }
          ],
          "internalType": "struct FixedPoint.Unsigned",
          "name": "minCollateralPerToken",
          "type": "tuple"
        },
        {
          "components": [
            {
              "internalType": "uint256",
              "name": "rawValue",
              "type": "uint256"
            }
          ],
          "internalType": "struct FixedPoint.Unsigned",
          "name": "maxCollateralPerToken",
          "type": "tuple"
        },
        {
          "components": [
            {
              "internalType": "uint256",
              "name": "rawValue",
              "type": "uint256"
            }
          ],
          "internalType": "struct FixedPoint.Unsigned",
          "name": "maxTokensToLiquidate",
          "type": "tuple"
        },
        {
          "internalType": "uint256",
          "name": "deadline",
          "type": "uint256"
        }
      ],
      "name": "createLiquidation",
      "outputs": [
        {
          "internalType": "uint256",
          "name": "liquidationId",
          "type": "uint256"
        },
        {
          "components": [
            {
              "internalType": "uint256",
              "name": "rawValue",
              "type": "uint256"
            }
          ],
          "internalType": "struct FixedPoint.Unsigned",
          "name": "tokensLiquidated",
          "type": "tuple"
        },
        {
          "components": [
            {
              "internalType": "uint256",
              "name": "rawValue",
              "type": "uint256"
            }
          ],
          "internalType": "struct FixedPoint.Unsigned",
          "name": "finalFeeBond",
          "type": "tuple"
        }
      ],
      "stateMutability": "nonpayable",
      "type": "function"
    },
    {
      "inputs": [
        {
          "internalType": "uint256",
          "name": "liquidationId",
          "type": "uint256"
        },
        {
          "internalType": "address",
          "name": "sponsor",
          "type": "address"
        }
      ],
      "name": "dispute",
      "outputs": [
        {
          "components": [
            {
              "internalType": "uint256",
              "name": "rawValue",
              "type": "uint256"
            }
          ],
          "internalType": "struct FixedPoint.Unsigned",
          "name": "totalPaid",
          "type": "tuple"
        }
      ],
      "stateMutability": "nonpayable",
      "type": "function"
    },
    {
      "inputs": [
        {
          "internalType": "uint256",
          "name": "liquidationId",
          "type": "uint256"
        },
        {
          "internalType": "address",
          "name": "sponsor",
          "type": "address"
        }
      ],
      "name": "withdrawLiquidation",
      "outputs": [
        {
          "components": [
            {
              "internalType": "uint256",
              "name": "rawValue",
              "type": "uint256"
            }
          ],
          "internalType": "struct FixedPoint.Unsigned",
          "name": "amountWithdrawn",
          "type": "tuple"
        }
      ],
      "stateMutability": "nonpayable",
      "type": "function"
    },
    {
      "inputs": [
        {
          "internalType": "address",
          "name": "sponsor",
          "type": "address"
        }
      ],
      "name": "getLiquidations",
      "outputs": [
        {
          "components": [
            {
              "internalType": "address",
              "name": "sponsor",
              "type": "address"
            },
            {
              "internalType": "address",
              "name": "liquidator",
              "type": "address"
            },
            {
              "internalType": "enum Liquidatable.Status",
              "name": "state",
              "type": "uint8"
            },
            {
              "internalType": "uint256",
              "name": "liquidationTime",
              "type": "uint256"
            },
            {
              "components": [
                {
                  "internalType": "uint256",
                  "name": "rawValue",
                  "type": "uint256"
                }
              ],
              "internalType": "struct FixedPoint.Unsigned",
              "name": "tokensOutstanding",
              "type": "tuple"
            },
            {
              "components": [
                {
                  "internalType": "uint256",
                  "name": "rawValue",
                  "type": "uint256"
                }
              ],
              "internalType": "struct FixedPoint.Unsigned",
              "name": "lockedCollateral",
              "type": "tuple"
            },
            {
              "components": [
                {
                  "internalType": "uint256",
                  "name": "rawValue",
                  "type": "uint256"
                }
              ],
              "internalType": "struct FixedPoint.Unsigned",
              "name": "liquidatedCollateral",
              "type": "tuple"
            },
            {
              "components": [
                {
                  "internalType": "uint256",
                  "name": "rawValue",
                  "type": "uint256"
                }
              ],
              "internalType": "struct FixedPoint.Unsigned",
              "name": "rawUnitCollateral",
              "type": "tuple"
            },
            {
              "internalType": "address",
              "name": "disputer",
              "type": "address"
            },
            {
              "components": [
                {
                  "internalType": "uint256",
                  "name": "rawValue",
                  "type": "uint256"
                }
              ],
              "internalType": "struct FixedPoint.Unsigned",
              "name": "settlementPrice",
              "type": "tuple"
            },
            {
              "components": [
                {
                  "internalType": "uint256",
                  "name": "rawValue",
                  "type": "uint256"
                }
              ],
              "internalType": "struct FixedPoint.Unsigned",
              "name": "finalFee",
              "type": "tuple"
            }
          ],
          "internalType": "struct Liquidatable.LiquidationData[]",
          "name": "liquidationData",
          "type": "tuple[]"
        }
      ],
      "stateMutability": "view",
      "type": "function"
    }
  ],
  "bytecode": "0x60806040523480156200001157600080fd5b5060405162006cb438038062006cb4833981016040819052620000349162000806565b805160208201516040830151606084015160e0850151610100860151610120870151608088015161014089015160a08a015160c08b015160008054600160a01b6001600160a01b03199091166001600160a01b0385161760ff60a01b1916179055888883620000a262000434565b620000b56001600160e01b036200046216565b600180546001600160a01b038086166001600160a01b0319928316179092556002805492851692909116919091179055620000f86001600160e01b036200047116565b6003819055506200011560016200051b60201b620037421760201c565b516004556200012c6001600160e01b036200055a16565b50620001439150506001600160e01b036200043416565b620001566001600160e01b036200046216565b620001696001600160e01b036200047116565b8b11620001935760405162461bcd60e51b81526004016200018a9062000aa5565b60405180910390fd5b620001a66001600160e01b036200056f16565b6001600160a01b03166390978d1b886040518263ffffffff1660e01b8152600401620001d39190620009f1565b60206040518083038186803b158015620001ec57600080fd5b505afa15801562000201573d6000803e3d6000fd5b505050506040513d601f19601f82011682018060405250810190620002279190620007e4565b620002465760405162461bcd60e51b81526004016200018a9062000b54565b600b8b9055600c8a905560405163e8a0aed360e01b815284906001600160a01b0382169063e8a0aed39062000285908a908a90601290600401620009fa565b602060405180830381600087803b158015620002a057600080fd5b505af1158015620002b5573d6000803e3d6000fd5b505050506040513d601f19601f82011682018060405250810190620002db9190620007c5565b600980546001600160a01b03199081166001600160a01b03938416179091558551600d55600a8a9055600f8054909116918416919091179055506200031f6200055a565b50505050505050505050506200033a6200043460201b60201c565b6200034d6001600160e01b036200046216565b6200036d60018261018001516200061b60201b620037761790919060201c565b6200038c5760405162461bcd60e51b81526004016200018a9062000adc565b620003ca6001620003b6836101e00151846101c001516200063e60201b6200378d1790919060201c565b6200067e60201b620037bf1790919060201c565b620003e95760405162461bcd60e51b81526004016200018a9062000a6e565b610160810151601255610180810151516013556101a0810151516014556101c0810151516015556101e0810151516016556200042d6001600160e01b036200055a16565b5062000c35565b600054600160a01b900460ff16620004605760405162461bcd60e51b81526004016200018a9062000b8b565b565b6000805460ff60a01b19169055565b600080546001600160a01b03161562000515576000809054906101000a90046001600160a01b03166001600160a01b03166329cb924d6040518163ffffffff1660e01b815260040160206040518083038186803b158015620004d257600080fd5b505afa158015620004e7573d6000803e3d6000fd5b505050506040513d601f19601f820116820180604052508101906200050d9190620009aa565b905062000518565b50425b90565b620005256200070f565b604051806020016040528062000552670de0b6b3a764000085620006a060201b620037d61790919060201c565b905292915050565b6000805460ff60a01b1916600160a01b179055565b6002546040516302abf57960e61b81526000916001600160a01b03169063aafd5e4090620005c2907f4964656e74696669657257686974656c6973740000000000000000000000000090600401620009f1565b60206040518083038186803b158015620005db57600080fd5b505afa158015620005f0573d6000803e3d6000fd5b505050506040513d601f19601f82011682018060405250810190620006169190620007c5565b905090565b600062000631826001600160e01b036200051b16565b5183511190505b92915050565b620006486200070f565b60405180602001604052806200067584600001518660000151620006e760201b620038311790919060201c565b90529392505050565b600062000694826001600160e01b036200051b16565b51835110905092915050565b600082620006b15750600062000638565b82820282848281620006bf57fe5b0414620006e05760405162461bcd60e51b81526004016200018a9062000b13565b9392505050565b600082820183811015620006e05760405162461bcd60e51b81526004016200018a9062000a37565b6040518060200160405280600081525090565b8051620006388162000c1c565b600082601f83011262000740578081fd5b81516001600160401b0381111562000756578182fd5b6200076b601f8201601f191660200162000bc2565b91508082528360208285010111156200078357600080fd5b6200079681602084016020860162000be9565b5092915050565b600060208284031215620007af578081fd5b620007bb602062000bc2565b9151825250919050565b600060208284031215620007d7578081fd5b8151620006e08162000c1c565b600060208284031215620007f6578081fd5b81518015158114620006e0578182fd5b60006020828403121562000818578081fd5b81516001600160401b03808211156200082f578283fd5b61020091840180860383131562000844578384fd5b6200084f8362000bc2565b81518152602082015160208201526200086c876040840162000722565b604082015262000880876060840162000722565b606082015262000894876080840162000722565b6080820152620008a88760a0840162000722565b60a0820152620008bc8760c0840162000722565b60c082015260e082015160e082015261010093508382015183811115620008e1578586fd5b620008ef888285016200072f565b8583015250610120935083820151838111156200090a578586fd5b62000918888285016200072f565b8583015250610140935062000930878584016200079d565b8482015261016093508382015184820152610180935062000954878584016200079d565b848201526101a093506200096b878584016200079d565b848201526101c0935062000982878584016200079d565b848201526101e0935062000999878584016200079d565b848201528094505050505092915050565b600060208284031215620009bc578081fd5b5051919050565b60008151808452620009dd81602086016020860162000be9565b601f01601f19169290920160200192915050565b90815260200190565b60006060825262000a0f6060830186620009c3565b828103602084015262000a238186620009c3565b91505060ff83166040830152949350505050565b6020808252601b908201527f536166654d6174683a206164646974696f6e206f766572666c6f770000000000604082015260600190565b6020808252601a908201527f5265776172647320617265206d6f7265207468616e2031303025000000000000604082015260600190565b6020808252601c908201527f496e76616c69642065787069726174696f6e20696e2066757475726500000000604082015260600190565b60208082526014908201527f4352206973206d6f7265207468616e2031303025000000000000000000000000604082015260600190565b60208082526021908201527f536166654d6174683a206d756c7469706c69636174696f6e206f766572666c6f6040820152607760f81b606082015260800190565b6020808252601c908201527f556e737570706f72746564207072696365206964656e74696669657200000000604082015260600190565b6020808252601f908201527f5265656e7472616e637947756172643a207265656e7472616e742063616c6c00604082015260600190565b6040518181016001600160401b038111828210171562000be157600080fd5b604052919050565b60005b8381101562000c0657818101518382015260200162000bec565b8381111562000c16576000848401525b50505050565b6001600160a01b038116811462000c3257600080fd5b50565b61606f8062000c456000396000f3fe608060405234801561001057600080fd5b50600436106103205760003560e01c80635ee0fe32116101a75780639ff4dea8116100ee578063bda02e7711610097578063dd0eef3d11610071578063dd0eef3d146105c0578063edfa9a9b146105c8578063fcccedc7146105d057610320565b8063bda02e771461059d578063c13f62e1146105a5578063d1e92c11146105ad57610320565b8063b795f0d4116100c8578063b795f0d41461057a578063b9a3c84c14610582578063bc1216301461058a57610320565b80639ff4dea81461053f578063a1c4d1e714610547578063a765fbea1461056757610320565b806385209ee011610150578063975236611161012a578063975236611461051c5780639b56d6c9146105245780639f43ddd21461053757610320565b806385209ee0146104f75780638c382eb21461050c57806392120aec1461051457610320565b80637048594b116101815780637048594b146104df57806379599f96146104e757806381a10ae1146104ef57610320565b80635ee0fe32146104b15780635f1af1ca146104b95780636ba2f992146104cc57610320565b80633403c2fc1161026b57806343e4771b1161021457806350f49846116101ee57806350f498461461047257806355f575101461047a5780635617151c1461049e57610320565b806343e4771b1461043857806348e30c3f146104405780634f8c48471461044857610320565b8063391fe4e211610245578063391fe4e2146104155780633cb6ce831461041d5780633ee7a5ce1461042557610320565b80633403c2fc146103f2578063360598e1146103fa57806336980f581461040d57610320565b806322f8e566116102cd57806329cb924d116102a757806329cb924d146103da5780632d5436cf146103e257806333a46ca2146103ea57610320565b806322f8e5661461038557806324e8cb8d1461039857806325ed4dd8146103b857610320565b80631c39c38d116102fe5780631c39c38d1461036d5780631fd0006714610375578063226112801461037d57610320565b80630c9229ca146103255780630de15fd91461034357806318928a0c14610358575b600080fd5b61032d6105d8565b60405161033a91906156c2565b60405180910390f35b61034b6105de565b60405161033a919061543d565b61036b610366366004615299565b6105fa565b005b61034b61070f565b61034b61072b565b61036b610747565b61036b6103933660046153ae565b6107e7565b6103ab6103a6366004615201565b610894565b60405161033a9190615f44565b6103cb6103c6366004615239565b6109f0565b60405161033a93929190615f72565b61032d6110bf565b61032d61118a565b6103ab611190565b61036b611310565b6103ab6104083660046153c6565b611426565b61036b611c91565b61032d611d7d565b6103ab611d83565b6103ab610433366004615331565b6120d0565b6103ab6121d0565b61032d6121fe565b61045b6104563660046152ce565b612204565b60405161033a9b9a999897969594939291906154ab565b61032d6122e6565b61048d610488366004615201565b6122ec565b60405161033a959493929190615f4e565b61036b6104ac366004615201565b612339565b61032d61256e565b6103ab6104c7366004615331565b612574565b61036b6104da366004615367565b612872565b61034b612bb1565b61036b612bcd565b6103ab612c70565b6104ff612c88565b60405161033a91906156d9565b61032d612c91565b61032d612c97565b61032d612c9d565b6103ab610532366004615201565b612ca3565b61032d612cfb565b61032d612d01565b61055a610555366004615201565b612d07565b60405161033a91906155b3565b6103ab6105753660046153c6565b612e9d565b61036b613094565b61034b613133565b61036b610598366004615331565b61314f565b61036b61328a565b61032d6132aa565b61036b6105bb366004615331565b6132b0565b61032d6132bd565b61032d6132c3565b6103ab6132c9565b60075481565b60015473ffffffffffffffffffffffffffffffffffffffff1681565b610602613870565b8161060c816138b2565b610614611d83565b5061061d6138f6565b61062561394a565b61063682600063ffffffff61377616565b610675576040517f08c379a000000000000000000000000000000000000000000000000000000000815260040161066c906159d0565b60405180910390fd5b600061068084613974565b905061068c81846139a9565b50825160405173ffffffffffffffffffffffffffffffffffffffff8616907fe1fffcc4923d04b559f4d29a8bfc6cda04eb5b0d3c460751c2402c5c5cc9109c90600090a382516001546107019173ffffffffffffffffffffffffffffffffffffffff909116903390309063ffffffff6139ca16565b5061070a613a73565b505050565b60005473ffffffffffffffffffffffffffffffffffffffff1681565b600f5473ffffffffffffffffffffffffffffffffffffffff1681565b61074f6138f6565b61075761394a565b600061076233613974565b90508060010154600014156107a3576040517f08c379a000000000000000000000000000000000000000000000000000000000815260040161066c90615f0d565b600281015460405133907f74d8a3658feb89d1a5c335229bbbfc3bbcfaf492769feb7aa4cd2d92efeaf69190600090a36107dc81613ab4565b506107e5613a73565b565b60005473ffffffffffffffffffffffffffffffffffffffff1661080957600080fd5b6000546040517f22f8e56600000000000000000000000000000000000000000000000000000000815273ffffffffffffffffffffffffffffffffffffffff909116906322f8e5669061085f9084906004016156c2565b600060405180830381600087803b15801561087957600080fd5b505af115801561088d573d6000803e3d6000fd5b5050505050565b61089c615193565b6108a4611d83565b506108ad6138f6565b6108b561394a565b6108bd615193565b6040805160208101918290527f70a08231000000000000000000000000000000000000000000000000000000009091528073ffffffffffffffffffffffffffffffffffffffff85166370a08231610917306024850161543d565b60206040518083038186803b15801561092f57600080fd5b505afa158015610943573d6000803e3d6000fd5b505050506040513d601f19601f820116820180604052508101906109679190615319565b905260015490915073ffffffffffffffffffffffffffffffffffffffff848116911614156109ae576109a761099a613ace565b829063ffffffff613afb16565b91506109b2565b8091505b600f5482516109e29173ffffffffffffffffffffffffffffffffffffffff8681169291169063ffffffff613b2416565b506109eb613a73565b919050565b60006109fa615193565b610a02615193565b610a0a611d83565b50610a13613870565b610a1b6138f6565b610a2361394a565b83610a2c6110bf565b1115610a64576040517f08c379a000000000000000000000000000000000000000000000000000000000815260040161066c90615851565b6000610a6f89613974565b9050610a97610a8336889003880188615331565b604080516020810190915283548152613b43565b9250610aa1615193565b604080516020810190915260038301548152610abc90613b61565b9050610ac6615193565b610ad06000613742565b604080516020810190915260028501548152909150610af5908363ffffffff613b8a16565b15610b2057604080516020810190915260028401548152610b1d90839063ffffffff613afb16565b90505b610b28615193565b50604080516020810190915283548152610b6782610b5b83610b4f368f90038f018f615331565b9063ffffffff613b9216565b9063ffffffff613bd516565b610b9d576040517f08c379a000000000000000000000000000000000000000000000000000000000815260040161066c90615be5565b610bc282610bb6838e803603810190610b4f9190615331565b9063ffffffff613b8a16565b610bf8576040517f08c379a000000000000000000000000000000000000000000000000000000000815260040161066c90615d66565b50610c01613bdd565b9350610c0b615193565b610c13615193565b610c1b615193565b604080516020810190915286548152610c3b90899063ffffffff613c9e16565b9050610c4d858263ffffffff613b9216565b9250610c5f848263ffffffff613b9216565b9150610c69615193565b604080516020810190915260028801548152610c8b908363ffffffff613b9216565b9050610c998f8a8684613cdf565b50610cb690506011610cb1848963ffffffff61378d16565b613e2e565b5073ffffffffffffffffffffffffffffffffffffffff8d1660008181526010602090815260409182902080548351610160810185529485523392850192909252909a509190810160018152602001610d0c6110bf565b8152602001898152602001848152602001838152602001610d35610d306001613742565b613eb5565b8152602001600073ffffffffffffffffffffffffffffffffffffffff168152602001610d616000613742565b815260209081018990528254600180820185556000948552938290208351600a9092020180547fffffffffffffffffffffffff000000000000000000000000000000000000000090811673ffffffffffffffffffffffffffffffffffffffff9384161782559284015194810180549093169490911693909317808255604083015192939291907fffffffffffffffffffffff00ffffffffffffffffffffffffffffffffffffffff1674010000000000000000000000000000000000000000836004811115610e2b57fe5b021790555060608201516002820155608082015151600382015560a082015151600482015560c082015151600582015560e08201515160068201556101008201516007820180547fffffffffffffffffffffffff00000000000000000000000000000000000000001673ffffffffffffffffffffffffffffffffffffffff9092169190911790556101208201515160088201556101409091015151600990910155610ed4615193565b506040805160208101909152600d548152600186015415801590610f035750610efb6110bf565b866001015411155b8015610f1a5750610f1a888263ffffffff613bd516565b15610f3f57610f39601254610f2d6110bf565b9063ffffffff61383116565b60018701555b883373ffffffffffffffffffffffffffffffffffffffff168f73ffffffffffffffffffffffffffffffffffffffff167f39b4371645b4132767fd76a1aad3108ff95c20d7b687b24d171555f5459a75978b6000015187600001518760000151610fa66110bf565b604051610fb69493929190615f9f565b60405180910390a48751600954610fef9173ffffffffffffffffffffffffffffffffffffffff909116903390309063ffffffff6139ca16565b60095488516040517f42966c6800000000000000000000000000000000000000000000000000000000815273ffffffffffffffffffffffffffffffffffffffff909216916342966c6891611045916004016156c2565b600060405180830381600087803b15801561105f57600080fd5b505af1158015611073573d6000803e3d6000fd5b505088516001546110a6935073ffffffffffffffffffffffffffffffffffffffff1691503390309063ffffffff6139ca16565b5050505050506110b4613a73565b955095509592505050565b6000805473ffffffffffffffffffffffffffffffffffffffff1615611184576000809054906101000a900473ffffffffffffffffffffffffffffffffffffffff1673ffffffffffffffffffffffffffffffffffffffff166329cb924d6040518163ffffffff1660e01b815260040160206040518083038186803b15801561114557600080fd5b505afa158015611159573d6000803e3d6000fd5b505050506040513d601f19601f8201168201806040525081019061117d9190615319565b9050611187565b50425b90565b60125481565b611198615193565b6111a0613870565b6111a8611d83565b506111b16138f6565b6111b961394a565b60006111c433613974565b905080600101546000141580156111e657506111de6110bf565b816001015411155b61121c576040517f08c379a000000000000000000000000000000000000000000000000000000000815260040161066c90615b09565b611224615193565b50604080516020808201835260028401548252825190810190925260038301548252906112729061125490613b61565b6040805160208101909152600285015481529063ffffffff613ede16565b156112955760408051602081019091526003830154815261129290613b61565b90505b61129f8282613ee5565b92506112aa82613ab4565b82516001546112d99173ffffffffffffffffffffffffffffffffffffffff90911690339063ffffffff613b2416565b825160405133907fc86c3298cb79f486674dca87d9247e88b76146160e7d412cc59b26b14c358a6890600090a35050611187613a73565b611318613870565b611320613f06565b6113286138f6565b61133061394a565b611338613f50565b73ffffffffffffffffffffffffffffffffffffffff163373ffffffffffffffffffffffffffffffffffffffff161461139c576040517f08c379a000000000000000000000000000000000000000000000000000000000815260040161066c90615b77565b600580547fffffffffffffffffffffffffffffffffffffffffffffffffffffffffffffff00166001179055600b546113d26110bf565b600b8190556113e090614017565b600b5460405133917fd39eeb7157d9c446579a0893ecf9ecd87d1f466cdb270c6a189cf38ca1e30f48916114159185916156cb565b60405180910390a2506107e5613a73565b61142e615193565b828261143a82826140af565b611442611d83565b5061144b6138f6565b61145361394a565b600061145f8587614154565b600781015490915073ffffffffffffffffffffffffffffffffffffffff163314806114a35750600181015473ffffffffffffffffffffffffffffffffffffffff1633145b806114c45750805473ffffffffffffffffffffffffffffffffffffffff1633145b6114fa576040517f08c379a000000000000000000000000000000000000000000000000000000000815260040161066c906157ac565b6115048686614218565b61150c615193565b60408051602081019091526006830154815261152790613b61565b9050611531615193565b5060408051602081019091526008830154815261154c615193565b604080516020810190915260038501548152611574908490610b4f908563ffffffff613b9216565b905061157e615193565b6040805160208101909152600486015481526115a0908563ffffffff613b9216565b90506115aa615193565b604080516020810190915260165481526115ca908463ffffffff613b9216565b90506115d4615193565b604080516020810190915260155481526115f4908563ffffffff613b9216565b90506115fe615193565b6040805160208101909152601454815261161f90859063ffffffff613b9216565b9050611629615193565b604080516020810190915260098a0154815261164b908963ffffffff613b9216565b9050611655615193565b61165f6000613742565b9050600360018b015474010000000000000000000000000000000000000000900460ff16600481111561168e57fe5b14156119865760078a015473ffffffffffffffffffffffffffffffffffffffff1633141561171e576116be615193565b6116de836116d2888763ffffffff61378d16565b9063ffffffff61378d16565b90506116f0828263ffffffff61378d16565b60078c0180547fffffffffffffffffffffffff00000000000000000000000000000000000000001690559150505b895473ffffffffffffffffffffffffffffffffffffffff163314156117ac57611745615193565b611755878963ffffffff613afb16565b905061175f615193565b61176f868363ffffffff61378d16565b9050611781838263ffffffff61378d16565b8c547fffffffffffffffffffffffff0000000000000000000000000000000000000000168d55925050505b60018a015473ffffffffffffffffffffffffffffffffffffffff16331415611836576117d6615193565b6117f6866117ea8a8863ffffffff613afb16565b9063ffffffff613afb16565b9050611808828263ffffffff61378d16565b60018c0180547fffffffffffffffffffffffff00000000000000000000000000000000000000001690559150505b60078a015473ffffffffffffffffffffffffffffffffffffffff161580156118735750895473ffffffffffffffffffffffffffffffffffffffff16155b8015611897575060018a015473ffffffffffffffffffffffffffffffffffffffff16155b1561198157601060008f73ffffffffffffffffffffffffffffffffffffffff1673ffffffffffffffffffffffffffffffffffffffff1681526020019081526020016000208f815481106118e657fe5b600091825260208220600a9091020180547fffffffffffffffffffffffff000000000000000000000000000000000000000090811682556001820180547fffffffffffffffffffffff0000000000000000000000000000000000000000001690556002820183905560038201839055600482018390556005820183905560068201839055600782018054909116905560088101829055600901555b611b8c565b600460018b015474010000000000000000000000000000000000000000900460ff1660048111156119b357fe5b1480156119d9575060018a015473ffffffffffffffffffffffffffffffffffffffff1633145b15611a3e576119f2826116d2888663ffffffff61378d16565b9050601060008f73ffffffffffffffffffffffffffffffffffffffff1673ffffffffffffffffffffffffffffffffffffffff1681526020019081526020016000208f815481106118e657fe5b6001808b015474010000000000000000000000000000000000000000900460ff166004811115611a6a57fe5b148015611a90575060018a015473ffffffffffffffffffffffffffffffffffffffff1633145b15611b8c57611aa5868363ffffffff61378d16565b9050601060008f73ffffffffffffffffffffffffffffffffffffffff1673ffffffffffffffffffffffffffffffffffffffff1681526020019081526020016000208f81548110611af157fe5b600091825260208220600a9091020180547fffffffffffffffffffffffff000000000000000000000000000000000000000090811682556001820180547fffffffffffffffffffffff0000000000000000000000000000000000000000001690556002820183905560038201839055600482018390556005820183905560068201839055600782018054909116905560088101829055600901555b611b9d81600063ffffffff61377616565b611bd3576040517f08c379a000000000000000000000000000000000000000000000000000000000815260040161066c9061573e565b611bde6011826143ca565b60018b0154909d5074010000000000000000000000000000000000000000900460ff166004811115611c0c57fe5b8d51895160405133927f342d1375efc923bbfe4f5b6575b7d47f40247499113546f8689206d3fd1cf82f92611c40926156cb565b60405180910390a38c51600154611c779173ffffffffffffffffffffffffffffffffffffffff90911690339063ffffffff613b2416565b50505050505050505050611c89613a73565b505092915050565b611c99613870565b611ca16138f6565b611ca961394a565b6000611cb433613974565b90508060040154600014611cf4576040517f08c379a000000000000000000000000000000000000000000000000000000000815260040161066c90615e68565b6000611d04600c54610f2d6110bf565b9050600b548110611d41576040517f08c379a000000000000000000000000000000000000000000000000000000000815260040161066c90615d2f565b6004820181905560405133907fbf457c80c8bf299d5c48272c4c1168bf87b33d83b13f0ab9aac332ce1161ed1e90600090a250506107e5613a73565b60145481565b611d8b615193565b611d936138f6565b611d9b61394a565b6000611da5614453565b90506000611db16110bf565b9050611dbb615193565b611dc3613ace565b9050611dd681600063ffffffff6144ca16565b15611de457506120c8915050565b816003541415611df757506120c8915050565b611dff615193565b611e07615193565b6003546040517f74201feb00000000000000000000000000000000000000000000000000000000815273ffffffffffffffffffffffffffffffffffffffff8716916374201feb91611e5f919088908890600401615f88565b604080518083038186803b158015611e7657600080fd5b505afa158015611e8a573d6000803e3d6000fd5b505050506040513d601f19601f82011682018060405250810190611eae9190615383565b60038690559092509050611ec8828263ffffffff61378d16565b9550611edb86600063ffffffff6144ca16565b15611eeb57506120c89350505050565b611efb868463ffffffff613ede16565b15611f7457611f08615193565b611f18878563ffffffff613afb16565b9050611f22615193565b611f2c8383613b43565b9050611f3e838263ffffffff613afb16565b9250611f50828263ffffffff613afb16565b9150611f6c611f5f8584613b43565b859063ffffffff613afb16565b935084975050505b805182516040517f19b92e73d08d517d71ec46136266e4f5d526a8cd4f8501d73713cebfe4f335ef90600090a3611fab86846144e1565b611fbc82600063ffffffff61377616565b1561207d578151600154611ff09173ffffffffffffffffffffffffffffffffffffffff90911690879063ffffffff61453116565b6001546040517f8659d23200000000000000000000000000000000000000000000000000000000815273ffffffffffffffffffffffffffffffffffffffff87811692638659d2329261204a9290911690869060040161555c565b600060405180830381600087803b15801561206457600080fd5b505af1158015612078573d6000803e3d6000fd5b505050505b61208e81600063ffffffff61377616565b156120c25780516001546120c29173ffffffffffffffffffffffffffffffffffffffff90911690339063ffffffff613b2416565b50505050505b611187613a73565b6120d8615193565b6120e0613870565b336120ea816138b2565b6120f2611d83565b506120fb6138f6565b61210361394a565b600061210e33613974565b905061212184600063ffffffff61377616565b612157576040517f08c379a000000000000000000000000000000000000000000000000000000000815260040161066c906159d0565b61216181856145e3565b80516040519194509033907f7fcf532c15f0a6db0bd6d0e038bea71d30d808c7d98cb3bf7268a95bf5081b6590600090a382516001546121c19173ffffffffffffffffffffffffffffffffffffffff90911690339063ffffffff613b2416565b506121ca613a73565b50919050565b6121d8615193565b6121e06138f6565b604080516020810190915260085481526121f990613b61565b905090565b60135481565b6010602052816000526040600020818154811061221d57fe5b6000918252602091829020600a919091020180546001820154600283015460408051808701825260038601548152815180880183526004870154815282518089018452600588015481528351808a0185526006890154815260078901548551808c01875260088b0154815286519b8c019096526009909901548a5273ffffffffffffffffffffffffffffffffffffffff9788169b508787169a507401000000000000000000000000000000000000000090960460ff16989497929691959094909391909216918b565b60115481565b600660209081526000918252604091829020825180830184528154815260018201548451808501865260028401548152855194850190955260038301548452600490920154909391929085565b612341613870565b3361234b816138b2565b6123536138f6565b61235b61394a565b6123b66123686000613742565b73ffffffffffffffffffffffffffffffffffffffff8416600090815260066020908152604091829020825191820190925260039091015481526123aa90613b61565b9063ffffffff61464316565b6123ec576040517f08c379a000000000000000000000000000000000000000000000000000000000815260040161066c90615c8a565b60006123f733613974565b9050806004015460001415801561241957506124116110bf565b816004015411155b61244f576040517f08c379a000000000000000000000000000000000000000000000000000000000815260040161066c90615b40565b6000600480830182815573ffffffffffffffffffffffffffffffffffffffff8616808452600660205260408085208654815560018088015481830155600280890154818401556003808a01548185015595549287019290925533808852838820888155918201889055918101879055938401869055929093018490559151919290917ff1a2dcf23621f1a96185c79d39a5776b5ba3dadbea70c5aa86d84c17c7e9418e9190a360405173ffffffffffffffffffffffffffffffffffffffff8416907ff60993fa76f94c9e0a803526ee6e1314814ed4d2b0d223febf1436b36897fb3790600090a260405133907fcad20625296d189a6fc6e5b39d0d544e5bd99dbda0c8f2f0ecffef3e0fbcc28290600090a25061256a613a73565b5050565b60165481565b61257c615193565b33612586816138b2565b61258e611d83565b506125976138f6565b61259f61394a565b60006125aa33613974565b6040805160208101909152815481529091506125cd90859063ffffffff613ede16565b15612604576040517f08c379a000000000000000000000000000000000000000000000000000000000815260040161066c906158bd565b61260c615193565b60408051602081019091528254815261262c90869063ffffffff613c9e16565b9050612636615193565b6040805160208101909152600384015481526126629061265590613b61565b839063ffffffff613b9216565b604080516020810190915284548152909150612684908763ffffffff61464316565b15612699576126923361464a565b9450612750565b6126a38382613ee5565b94506126ad615193565b6040805160208101909152845481526126cc908863ffffffff613afb16565b6040805160208101909152600d5481529091506126f090829063ffffffff613bd516565b612726576040517f08c379a000000000000000000000000000000000000000000000000000000000815260040161066c90615962565b805184556040805160208101909152600754815261274a908863ffffffff613afb16565b51600755505b8551855160405133907fe5b754fb1abb7f01b499791d0b820ae3b6af3424ac1c59768edb53f4ec31a92990600090a484516001546127ae9173ffffffffffffffffffffffffffffffffffffffff90911690339063ffffffff613b2416565b85516009546127df9173ffffffffffffffffffffffffffffffffffffffff909116903390309063ffffffff6139ca16565b60095486516040517f42966c6800000000000000000000000000000000000000000000000000000000815273ffffffffffffffffffffffffffffffffffffffff909216916342966c6891612835916004016156c2565b600060405180830381600087803b15801561284f57600080fd5b505af1158015612863573d6000803e3d6000fd5b505050505050506121ca613a73565b61287a613870565b612882611d83565b5061288b6138f6565b61289361394a565b336000908152600660209081526040918290208251918201909252600382015481526128ec906128c89085906116d290613b61565b6040805160208101909152835481526128e7908563ffffffff61378d16565b614775565b806128fc57506128fc8383614775565b612932576040517f08c379a000000000000000000000000000000000000000000000000000000000815260040161066c90615c53565b60018101541561296e576040517f08c379a000000000000000000000000000000000000000000000000000000000815260040161066c90615ad2565b60408051602081019091528154815261298e90600063ffffffff6144ca16565b15612a16576040805160208101909152600d5481526129b490839063ffffffff613bd516565b6129ea576040517f08c379a000000000000000000000000000000000000000000000000000000000815260040161066c90615962565b60405133907ff60993fa76f94c9e0a803526ee6e1314814ed4d2b0d223febf1436b36897fb3790600090a25b612a2081846139a9565b50604080516020810190915281548152612a40908363ffffffff61378d16565b51815560408051602081019091526007548152612a63908363ffffffff61378d16565b516007558151835160405133907f4b82aa16e071a61de1a6b9aeec9edab0356331f8122c78683b469ac8e685dabc90600090a48251600154612ac79173ffffffffffffffffffffffffffffffffffffffff909116903390309063ffffffff6139ca16565b60095482516040517f40c10f1900000000000000000000000000000000000000000000000000000000815273ffffffffffffffffffffffffffffffffffffffff909216916340c10f1991612b209133919060040161545e565b602060405180830381600087803b158015612b3a57600080fd5b505af1158015612b4e573d6000803e3d6000fd5b505050506040513d601f19601f82011682018060405250810190612b7291906152f9565b612ba8576040517f08c379a000000000000000000000000000000000000000000000000000000000815260040161066c90615bae565b5061256a613a73565b60095473ffffffffffffffffffffffffffffffffffffffff1681565b612bd56147e1565b612bdd613f06565b612be5611d83565b50612bee6138f6565b612bf661394a565b600580547fffffffffffffffffffffffffffffffffffffffffffffffffffffffffffffff00166001179055612c3230612c2d613bdd565b614824565b612c3d600b54614017565b60405133907f18600820405d6cf356e3556301762ca32395e72d8c81494fa344835c9da3633d90600090a26107e5613a73565b612c78615193565b612c806138f6565b6121f9613ace565b60055460ff1681565b60085481565b600d5481565b600a5481565b612cab615193565b612cb36138f6565b73ffffffffffffffffffffffffffffffffffffffff821660009081526006602090815260409182902082519182019092526003909101548152612cf590613b61565b92915050565b600b5481565b600c5481565b6060612d116138f6565b73ffffffffffffffffffffffffffffffffffffffff8216600090815260106020908152604080832080548251818502810185019093528083529193909284015b82821015612e925760008481526020908190206040805161016081018252600a8602909201805473ffffffffffffffffffffffffffffffffffffffff908116845260018201549081169484019490945291929083019074010000000000000000000000000000000000000000900460ff166004811115612dcd57fe5b6004811115612dd857fe5b8152600282015460208083019190915260408051808301825260038501548152818401528051808301825260048501548152606084015280518083018252600585015481526080840152805180830182526006850154815260a0840152600784015473ffffffffffffffffffffffffffffffffffffffff1660c0840152805180830182526008850154815260e084015280518083019091526009909301548352610100909101919091529082526001929092019101612d51565b505050509050919050565b612ea5615193565b8282612eb182826149ec565b612eb9611d83565b50612ec26138f6565b612eca61394a565b6000612ed68587614154565b9050612ee0615193565b604080516020810190915260068301548152612f2e90612eff90613b61565b60408051602080820183526014548252825190810190925260048601548252610b4f919063ffffffff613b9216565b9050612f3b601182613e2e565b506001820180547fffffffffffffffffffffff00ffffffffffffffffffffffffffffffffffffffff16740200000000000000000000000000000000000000001790556007820180547fffffffffffffffffffffffff000000000000000000000000000000000000000016331790556002820154612fb790614017565b60018201548151604051339273ffffffffffffffffffffffffffffffffffffffff90811692908a16917fcaca181ccad7979cf36ed4fc921e496001ab5264608f0fac7007ae1b43d361029161300e918d91906156cb565b60405180910390a460408051602081019091526009830154815261303990829063ffffffff61378d16565b604080516020810190915260098401548152909550613059903390614824565b805160015461308a9173ffffffffffffffffffffffffffffffffffffffff909116903390309063ffffffff6139ca16565b5050611c89613a73565b61309c613870565b6130a46138f6565b6130ac61394a565b60006130b733613974565b90508060040154600014156130f8576040517f08c379a000000000000000000000000000000000000000000000000000000000815260040161066c9061581a565b60405133907f2e5702420c76e041698ad7ba57a9ff5cadccf647ea8d96e6007a40b5b2662f5690600090a260006004909101556107e5613a73565b60025473ffffffffffffffffffffffffffffffffffffffff1681565b613157613870565b33613161816138b2565b6131696138f6565b61317161394a565b600061317c33613974565b905061318f83600063ffffffff61377616565b80156131c257506040805160208101909152600382015481526131c2906131b590613b61565b849063ffffffff613b8a16565b6131f8576040517f08c379a000000000000000000000000000000000000000000000000000000000815260040161066c906159d0565b6000613208600c54610f2d6110bf565b9050600b548110613245576040517f08c379a000000000000000000000000000000000000000000000000000000000815260040161066c90615d2f565b6001820181905583516002830181905560405133907fd33b726e11d2c5d38e6702b16613df0160a07f7ba5185455ee3c45d0494fab1190600090a3505061256a613a73565b613292613870565b61329a6138f6565b6132a261394a565b6107e5613a73565b60155481565b6132ba33826105fa565b50565b60045481565b600e5481565b6132d1615193565b6132d96147e1565b6132e1611d83565b506132ea6138f6565b6132f261394a565b600060055460ff16600281111561330557fe5b141561333d576040517f08c379a000000000000000000000000000000000000000000000000000000000815260040161066c90615e31565b600260055460ff16600281111561335057fe5b1461339057613360600b54614a77565b51600e55600580547fffffffffffffffffffffffffffffffffffffffffffffffffffffffffffffff001660021790555b613398615193565b6040805160208101918290526009547f70a082310000000000000000000000000000000000000000000000000000000090925290819073ffffffffffffffffffffffffffffffffffffffff166370a082316133f6336024850161543d565b60206040518083038186803b15801561340e57600080fd5b505afa158015613422573d6000803e3d6000fd5b505050506040513d601f19601f820116820180604052508101906134469190615319565b90529050613452615193565b6040805160208101909152600e54815261347390839063ffffffff613b9216565b3360009081526006602090815260408083208151928301909152600381015482529293506134b191906134a590613b61565b9063ffffffff61377616565b156135c0576134be615193565b6040805160208082018352600e5482528251908101909252835482526134ea919063ffffffff613b9216565b90506134f4615193565b60408051602081019091526003840154815261350f90613b61565b9050613519615193565b613529838363ffffffff614c3316565b6135425760405180602001604052806000815250613552565b613552828463ffffffff613afb16565b9050613564858263ffffffff61378d16565b336000818152600660205260408082208281556001810183905560028101839055600381018390556004018290555192975090917fcad20625296d189a6fc6e5b39d0d544e5bd99dbda0c8f2f0ecffef3e0fbcc2829190a25050505b6135c8615193565b604080516020810190915260085481526135eb906135e590613b61565b84613b43565b90506135f86008826143ca565b6040805160208101909152600754815290955061361b908563ffffffff613afb16565b516007558351855160405133907f9d349c102bec959fb7f20f9a3621e015819d3ae4ed6e9afd1f56a69d5845600690600090a4845160015461367d9173ffffffffffffffffffffffffffffffffffffffff90911690339063ffffffff613b2416565b83516009546136ae9173ffffffffffffffffffffffffffffffffffffffff909116903390309063ffffffff6139ca16565b60095484516040517f42966c6800000000000000000000000000000000000000000000000000000000815273ffffffffffffffffffffffffffffffffffffffff909216916342966c6891613704916004016156c2565b600060405180830381600087803b15801561371e57600080fd5b505af1158015613732573d6000803e3d6000fd5b5050505050505050611187613a73565b61374a615193565b60408051602081019091528061376e84670de0b6b3a764000063ffffffff6137d616565b905292915050565b600061378182613742565b51835111905092915050565b613795615193565b60408051602081019091528251845182916137b6919063ffffffff61383116565b90529392505050565b60006137ca82613742565b51835110905092915050565b6000826137e557506000612cf5565b828202828482816137f257fe5b041461382a576040517f08c379a000000000000000000000000000000000000000000000000000000000815260040161066c90615a75565b9392505050565b60008282018381101561382a576040517f08c379a000000000000000000000000000000000000000000000000000000000815260040161066c906157e3565b600b5461387b6110bf565b106107e5576040517f08c379a000000000000000000000000000000000000000000000000000000000815260040161066c90615cc1565b6138bb81613974565b60010154156132ba576040517f08c379a000000000000000000000000000000000000000000000000000000000815260040161066c90615ad2565b60005474010000000000000000000000000000000000000000900460ff166107e5576040517f08c379a000000000000000000000000000000000000000000000000000000000815260040161066c90615dfa565b600080547fffffffffffffffffffffff00ffffffffffffffffffffffffffffffffffffffff169055565b60008161398081614c3a565b505073ffffffffffffffffffffffffffffffffffffffff16600090815260066020526040902090565b6139b1615193565b6139be8360030183613e2e565b5061382a600883613e2e565b613a6d846323b872dd60e01b8585856040516024016139eb9392919061552b565b604080517fffffffffffffffffffffffffffffffffffffffffffffffffffffffffffffffe08184030181529190526020810180517bffffffffffffffffffffffffffffffffffffffffffffffffffffffff167fffffffff0000000000000000000000000000000000000000000000000000000090931692909217909152614cb4565b50505050565b600080547fffffffffffffffffffffff00ffffffffffffffffffffffffffffffffffffffff1674010000000000000000000000000000000000000000179055565b613abe6000613742565b5160028201556000600190910155565b613ad6615193565b604080516020810190915260115481526121f990613af390613b61565b6116d2614e01565b613b03615193565b60408051602081019091528251845182916137b6919063ffffffff614e0916565b61070a8363a9059cbb60e01b84846040516024016139eb92919061545e565b613b4b615193565b8151835110613b5a578161382a565b5090919050565b613b69615193565b60408051602081019091526004548152612cf590839063ffffffff613b9216565b519051111590565b613b9a615193565b6040805160208101909152825184518291670de0b6b3a764000091613bc49163ffffffff6137d616565b81613bcb57fe5b0490529392505050565b519051101590565b613be5615193565b6000613bef614453565b6001546040517f5b97aadd00000000000000000000000000000000000000000000000000000000815291925073ffffffffffffffffffffffffffffffffffffffff80841692635b97aadd92613c4892169060040161543d565b60206040518083038186803b158015613c6057600080fd5b505afa158015613c74573d6000803e3d6000fd5b505050506040513d601f19601f82011682018060405250810190613c98919061534c565b91505090565b613ca6615193565b60408051602081019091528251845182916137b691613cd390670de0b6b3a764000063ffffffff6137d616565b9063ffffffff614e4b16565b6000613cea85613974565b604080516020810190915281548152909150613d0d90859063ffffffff61464316565b8015613d355750604080516020810190915260038201548152613d359084906123aa90613b61565b15613d4a57613d438561464a565b5050613a6d565b613d548184613ee5565b50613d5d615193565b604080516020810190915282548152613d7c908663ffffffff613afb16565b6040805160208101909152600d548152909150613da090829063ffffffff613bd516565b613dd6576040517f08c379a000000000000000000000000000000000000000000000000000000000815260040161066c90615962565b80518255604080516020810190915260028301548152613dfc908463ffffffff613afb16565b51600283015560408051602081019091526007548152613e22908663ffffffff613afb16565b51600755505050505050565b613e36615193565b613e3e615193565b604080516020810190915284548152613e5690613b61565b9050613e60615193565b613e6984613eb5565b604080516020810190915286548152909150613e8b908263ffffffff61378d16565b518086556040805160208101909152908152613eac9083906117ea90613b61565b95945050505050565b613ebd615193565b60408051602081019091526004548152612cf590839063ffffffff613c9e16565b5190511190565b613eed615193565b613efa83600301836143ca565b5061382a6008836143ca565b600060055460ff166002811115613f1957fe5b146107e5576040517f08c379a000000000000000000000000000000000000000000000000000000000815260040161066c906158f4565b6002546040517faafd5e4000000000000000000000000000000000000000000000000000000000815260009173ffffffffffffffffffffffffffffffffffffffff169063aafd5e4090613fc7907f46696e616e6369616c436f6e74726163747341646d696e000000000000000000906004016156c2565b60206040518083038186803b158015613fdf57600080fd5b505afa158015613ff3573d6000803e3d6000fd5b505050506040513d601f19601f820116820180604052508101906121f9919061521d565b6000614021614e8d565b600a546040517f68ad8ae300000000000000000000000000000000000000000000000000000000815291925073ffffffffffffffffffffffffffffffffffffffff8316916368ad8ae3916140799186906004016156cb565b600060405180830381600087803b15801561409357600080fd5b505af11580156140a7573d6000803e3d6000fd5b505050505050565b60006140bb8284614154565b6001818101549192507401000000000000000000000000000000000000000090910460ff16908160048111156140ed57fe5b118061411e57506140fc6110bf565b61410583614f04565b1115801561411e5750600181600481111561411c57fe5b145b613a6d576040517f08c379a000000000000000000000000000000000000000000000000000000000815260040161066c90615775565b73ffffffffffffffffffffffffffffffffffffffff821660009081526010602052604081208054831080156141bf5750600081848154811061419257fe5b90600052602060002090600a020160010160149054906101000a900460ff1660048111156141bc57fe5b14155b6141f5576040517f08c379a000000000000000000000000000000000000000000000000000000000815260040161066c90615999565b80838154811061420157fe5b90600052602060002090600a020191505092915050565b60006142248284614154565b90506002600182015474010000000000000000000000000000000000000000900460ff16600481111561425357fe5b1461425e575061256a565b61426b8160020154614a77565b516008820155614279615193565b6040805160208082018352600885015482528251908101909252600384015482526142aa919063ffffffff613b9216565b90506142b4615193565b604080516020810190915260135481526142d590839063ffffffff613b9216565b6040805160208101909152600585015481529091506000906142fd908363ffffffff613bd516565b90508061430b57600461430e565b60035b6001850180547fffffffffffffffffffffff00ffffffffffffffffffffffffffffffffffffffff167401000000000000000000000000000000000000000083600481111561435857fe5b02179055506001840154600785015460405173ffffffffffffffffffffffffffffffffffffffff928316928881169233927f6c5582199868fabbe697f9ea10abe481bacf53ac78c02a965b34dff82fd20e3b926143ba9216908c908890615583565b60405180910390a4505050505050565b6143d2615193565b6143da615193565b6040805160208101909152845481526143f290613b61565b90506143fc615193565b61440584613eb5565b604080516020810190915286548152909150614427908263ffffffff613afb16565b518086556040805160208101909152908152613eac9061444690613b61565b839063ffffffff613afb16565b6002546040517faafd5e4000000000000000000000000000000000000000000000000000000000815260009173ffffffffffffffffffffffffffffffffffffffff169063aafd5e4090613fc7907f53746f7265000000000000000000000000000000000000000000000000000000906004016156c2565b60006144d582613742565b51835114905092915050565b6144e9615193565b6144f9838363ffffffff614f1f16565b905061452861450c826117ea6001613742565b604080516020810190915260045481529063ffffffff613b9216565b51600455505050565b60006145c2828573ffffffffffffffffffffffffffffffffffffffff1663dd62ed3e30876040518363ffffffff1660e01b8152600401614572929190615484565b60206040518083038186803b15801561458a57600080fd5b505afa15801561459e573d6000803e3d6000fd5b505050506040513d601f19601f82011682018060405250810190610f2d9190615319565b9050613a6d8463095ea7b360e01b85846040516024016139eb92919061545e565b6145eb615193565b6145f883600301836143ca565b5061460283614fc1565b614638576040517f08c379a000000000000000000000000000000000000000000000000000000000815260040161066c90615c1c565b61382a6008836143ca565b5190511490565b614652615193565b600061465d83613974565b9050614667615193565b6040805160208101909152600854815261468090613b61565b905061468a615193565b5060408051602080820183526003850154825282519081019092526008548252906146bb908263ffffffff613afb16565b51600855604080516020808201835285548252825190810190925260075482526146eb919063ffffffff613afb16565b5160075573ffffffffffffffffffffffffffffffffffffffff8516600081815260066020526040808220828155600181018390556002810183905560038101839055600401829055517fcad20625296d189a6fc6e5b39d0d544e5bd99dbda0c8f2f0ecffef3e0fbcc2829190a260408051602081019091526008548152613eac9061444690613b61565b600061477f615193565b604080516020810190915260085481526147b19061479c90613b61565b60408051602081019091526007548152614ff7565b90506147bb615193565b6147c58585614ff7565b90506147d7828263ffffffff613ede16565b1595945050505050565b600b546147ec6110bf565b10156107e5576040517f08c379a000000000000000000000000000000000000000000000000000000000815260040161066c90615cf8565b61483581600063ffffffff6144ca16565b1561483f5761256a565b73ffffffffffffffffffffffffffffffffffffffff8216301461489257805160015461488d9173ffffffffffffffffffffffffffffffffffffffff909116908490309063ffffffff6139ca16565b6148f6565b61489a615193565b6148a2613ace565b90506148b4818363ffffffff613ede16565b6148ea576040517f08c379a000000000000000000000000000000000000000000000000000000000815260040161066c90615ed6565b6148f482826144e1565b505b80516040517f4f9bf7e8cd0f2456f9c43d2597bedcf1446c9c64544053f1ece6423ae9a07e5290600090a2600061492b614453565b825160015491925061495b9173ffffffffffffffffffffffffffffffffffffffff1690839063ffffffff61453116565b6001546040517f8659d23200000000000000000000000000000000000000000000000000000000815273ffffffffffffffffffffffffffffffffffffffff83811692638659d232926149b59290911690869060040161555c565b600060405180830381600087803b1580156149cf57600080fd5b505af11580156149e3573d6000803e3d6000fd5b50505050505050565b60006149f88284614154565b9050614a0381614f04565b614a0b6110bf565b108015614a41575060018082015474010000000000000000000000000000000000000000900460ff166004811115614a3f57fe5b145b61070a576040517f08c379a000000000000000000000000000000000000000000000000000000000815260040161066c90615a3e565b614a7f615193565b6000614a89614e8d565b600a546040517fa03e881a00000000000000000000000000000000000000000000000000000000815291925073ffffffffffffffffffffffffffffffffffffffff83169163a03e881a91614ae19187906004016156cb565b60206040518083038186803b158015614af957600080fd5b505afa158015614b0d573d6000803e3d6000fd5b505050506040513d601f19601f82011682018060405250810190614b3191906152f9565b614b67576040517f08c379a000000000000000000000000000000000000000000000000000000000815260040161066c9061592b565b600a546040517fc9280f0600000000000000000000000000000000000000000000000000000000815260009173ffffffffffffffffffffffffffffffffffffffff84169163c9280f0691614bbf9188906004016156cb565b60206040518083038186803b158015614bd757600080fd5b505afa158015614beb573d6000803e3d6000fd5b505050506040513d601f19601f82011682018060405250810190614c0f9190615319565b90506000811215614c1e575060005b60408051602081019091529081529392505050565b5190511090565b73ffffffffffffffffffffffffffffffffffffffff811660009081526006602090815260408083208151928301909152600301548152614c7e91906134a590613b61565b6132ba576040517f08c379a000000000000000000000000000000000000000000000000000000000815260040161066c90615a07565b614cd38273ffffffffffffffffffffffffffffffffffffffff16615035565b614d09576040517f08c379a000000000000000000000000000000000000000000000000000000000815260040161066c90615e9f565b600060608373ffffffffffffffffffffffffffffffffffffffff1683604051614d329190615421565b6000604051808303816000865af19150503d8060008114614d6f576040519150601f19603f3d011682016040523d82523d6000602084013e614d74565b606091505b509150915081614db0576040517f08c379a000000000000000000000000000000000000000000000000000000000815260040161066c90615888565b805115613a6d5780806020019051810190614dcb91906152f9565b613a6d576040517f08c379a000000000000000000000000000000000000000000000000000000000815260040161066c90615d9d565b6121e0615193565b600061382a83836040518060400160405280601e81526020017f536166654d6174683a207375627472616374696f6e206f766572666c6f770000815250615071565b600061382a83836040518060400160405280601a81526020017f536166654d6174683a206469766973696f6e206279207a65726f0000000000008152506150b7565b6002546040517faafd5e4000000000000000000000000000000000000000000000000000000000815260009173ffffffffffffffffffffffffffffffffffffffff169063aafd5e4090613fc7907f4f7261636c650000000000000000000000000000000000000000000000000000906004016156c2565b6000612cf5601254836002015461383190919063ffffffff16565b614f27615193565b8251600090614f4490670de0b6b3a764000063ffffffff6137d616565b8351909150600090614f5d90839063ffffffff614e4b16565b8451909150600090614f7690849063ffffffff61510816565b90508015614fa857604080516020810190915280614f9b84600163ffffffff61383116565b8152509350505050612cf5565b6040518060200160405280838152509350505050612cf5565b604080516020810190915260038201548152600090612cf590614fe390613b61565b604080516020810190915284548152614775565b614fff615193565b61501082600063ffffffff61377616565b6150255761501e6000613742565b9050612cf5565b61501e838363ffffffff613c9e16565b6000813f7fc5d2460186f7233c927e7db2dcc703c0e500b653ca82273b7bfad8045d85a47081811480159061506957508115155b949350505050565b600081848411156150af576040517f08c379a000000000000000000000000000000000000000000000000000000000815260040161066c91906156ed565b505050900390565b600081836150f2576040517f08c379a000000000000000000000000000000000000000000000000000000000815260040161066c91906156ed565b5060008385816150fe57fe5b0495945050505050565b600061382a83836040518060400160405280601881526020017f536166654d6174683a206d6f64756c6f206279207a65726f000000000000000081525060008183615180576040517f08c379a000000000000000000000000000000000000000000000000000000000815260040161066c91906156ed565b5082848161518a57fe5b06949350505050565b6040518060200160405280600081525090565b6000602082840312156121ca578081fd5b6000602082840312156151c8578081fd5b6151d26020615fba565b9135825250919050565b6000602082840312156151ed578081fd5b6151f76020615fba565b9151825250919050565b600060208284031215615212578081fd5b813561382a81616017565b60006020828403121561522e578081fd5b815161382a81616017565b600080600080600060a08688031215615250578081fd5b853561525b81616017565b945061526a87602088016151a6565b935061527987604088016151a6565b925061528887606088016151a6565b949793965091946080013592915050565b600080604083850312156152ab578182fd5b82356152b681616017565b91506152c584602085016151b7565b90509250929050565b600080604083850312156152e0578182fd5b82356152eb81616017565b946020939093013593505050565b60006020828403121561530a578081fd5b8151801515811461382a578182fd5b60006020828403121561532a578081fd5b5051919050565b600060208284031215615342578081fd5b61382a83836151b7565b60006020828403121561535d578081fd5b61382a83836151dc565b60008060408385031215615379578182fd5b6152b684846151b7565b60008060408385031215615395578182fd5b61539f84846151dc565b91506152c584602085016151dc565b6000602082840312156153bf578081fd5b5035919050565b600080604083850312156153d8578182fd5b8235915060208301356153ea81616017565b809150509250929050565b73ffffffffffffffffffffffffffffffffffffffff169052565b6154188161600d565b9052565b519052565b60008251615433818460208701615fe1565b9190910192915050565b73ffffffffffffffffffffffffffffffffffffffff91909116815260200190565b73ffffffffffffffffffffffffffffffffffffffff929092168252602082015260400190565b73ffffffffffffffffffffffffffffffffffffffff92831681529116602082015260400190565b73ffffffffffffffffffffffffffffffffffffffff8c811682528b811660208301526101608201906154dc8c61600d565b604083019b909b52606082019990995296516080880152945160a0870152925160c0860152905160e0850152909416610100830152925161012082015291516101409092019190915292915050565b73ffffffffffffffffffffffffffffffffffffffff9384168152919092166020820152604081019190915260600190565b73ffffffffffffffffffffffffffffffffffffffff92909216825251602082015260400190565b73ffffffffffffffffffffffffffffffffffffffff93909316835260208301919091521515604082015260600190565b602080825282518282018190526000919060409081850190868401855b828110156156b55781516155e58582516153f5565b868101516155f5888701826153f5565b50858101516156068787018261540f565b50606081810151908601526080808201516156238288018261541c565b505060a0808201516156378288018261541c565b505060c08082015161564b8288018261541c565b505060e08082015161565f8288018261541c565b505061010080820151615674828801826153f5565b5050610120808201516156898288018261541c565b50506101408082015161569e8288018261541c565b5050506101609390930192908501906001016155d0565b5091979650505050505050565b90815260200190565b918252602082015260400190565b60208101600383106156e757fe5b91905290565b600060208252825180602084015261570c816040850160208701615fe1565b601f017fffffffffffffffffffffffffffffffffffffffffffffffffffffffffffffffe0169190910160400192915050565b60208082526019908201527f496e76616c6964207769746864726177616c20616d6f756e7400000000000000604082015260600190565b6020808252601c908201527f4c69717569646174696f6e206e6f7420776974686472617761626c6500000000604082015260600190565b6020808252601e908201527f43616c6c65722063616e6e6f7420776974686472617720726577617264730000604082015260600190565b6020808252601b908201527f536166654d6174683a206164646974696f6e206f766572666c6f770000000000604082015260600190565b60208082526013908201527f4e6f2070656e64696e67207472616e7366657200000000000000000000000000604082015260600190565b60208082526014908201527f4d696e656420616674657220646561646c696e65000000000000000000000000604082015260600190565b6020808252818101527f5361666545524332303a206c6f772d6c6576656c2063616c6c206661696c6564604082015260600190565b60208082526014908201527f496e76616c696420746f6b656e20616d6f756e74000000000000000000000000604082015260600190565b6020808252601a908201527f436f6e7472616374207374617465206973206e6f74204f50454e000000000000604082015260600190565b60208082526017908201527f556e7265736f6c766564206f7261636c65207072696365000000000000000000604082015260600190565b6020808252601e908201527f42656c6f77206d696e696d756d2073706f6e736f7220706f736974696f6e0000604082015260600190565b60208082526016908201527f496e76616c6964206c69717569646174696f6e20494400000000000000000000604082015260600190565b60208082526019908201527f496e76616c696420636f6c6c61746572616c20616d6f756e7400000000000000604082015260600190565b6020808252601a908201527f506f736974696f6e20686173206e6f20636f6c6c61746572616c000000000000604082015260600190565b6020808252601a908201527f4c69717569646174696f6e206e6f742064697370757461626c65000000000000604082015260600190565b60208082526021908201527f536166654d6174683a206d756c7469706c69636174696f6e206f766572666c6f60408201527f7700000000000000000000000000000000000000000000000000000000000000606082015260800190565b60208082526012908201527f50656e64696e67207769746864726177616c0000000000000000000000000000604082015260600190565b60208082526018908201527f496e76616c696420776974686472617720726571756573740000000000000000604082015260600190565b60208082526018908201527f496e76616c6964207472616e7366657220726571756573740000000000000000604082015260600190565b60208082526013908201527f43616c6c6572206e6f7420476f7665726e6f7200000000000000000000000000604082015260600190565b6020808252601f908201527f4d696e74696e672073796e74686574696320746f6b656e73206661696c656400604082015260600190565b6020808252601e908201527f4352206973206d6f7265207468616e206d6178206c69712e2070726963650000604082015260600190565b6020808252600c908201527f43522062656c6f77204743520000000000000000000000000000000000000000604082015260600190565b60208082526017908201527f496e73756666696369656e7420636f6c6c61746572616c000000000000000000604082015260600190565b6020808252601c908201527f53706f6e736f7220616c72656164792068617320706f736974696f6e00000000604082015260600190565b60208082526018908201527f4f6e6c792063616c6c61626c65207072652d6578706972790000000000000000604082015260600190565b60208082526019908201527f4f6e6c792063616c6c61626c6520706f73742d65787069727900000000000000604082015260600190565b6020808252601b908201527f52657175657374206578706972657320706f73742d6578706972790000000000604082015260600190565b6020808252601e908201527f4352206973206c657373207468616e206d696e206c69712e2070726963650000604082015260600190565b6020808252602a908201527f5361666545524332303a204552433230206f7065726174696f6e20646964206e60408201527f6f74207375636365656400000000000000000000000000000000000000000000606082015260800190565b6020808252601f908201527f5265656e7472616e637947756172643a207265656e7472616e742063616c6c00604082015260600190565b60208082526012908201527f556e6578706972656420706f736974696f6e0000000000000000000000000000604082015260600190565b60208082526010908201527f50656e64696e67207472616e7366657200000000000000000000000000000000604082015260600190565b6020808252601f908201527f5361666545524332303a2063616c6c20746f206e6f6e2d636f6e747261637400604082015260600190565b6020808252601a908201527f46696e616c20666565206973206d6f7265207468616e20506643000000000000604082015260600190565b60208082526015908201527f4e6f2070656e64696e67207769746864726177616c0000000000000000000000604082015260600190565b9051815260200190565b94518552602085019390935290516040840152516060830152608082015260a00190565b9283529051602083015251604082015260600190565b928352602083019190915251604082015260600190565b93845260208401929092526040830152606082015260800190565b60405181810167ffffffffffffffff81118282101715615fd957600080fd5b604052919050565b60005b83811015615ffc578181015183820152602001615fe4565b83811115613a6d5750506000910152565b600581106132ba57fe5b73ffffffffffffffffffffffffffffffffffffffff811681146132ba57600080fdfea2646970667358221220fb7cbbdeadadfb56e24ed889bcb96ca56663ad8e1b544106610dd1240dbd9ae164736f6c634300060a0033",
  "immutableReferences": {},
  "source": "pragma solidity ^0.6.0;\npragma experimental ABIEncoderV2;\n\nimport \"@openzeppelin/contracts/math/SafeMath.sol\";\nimport \"@openzeppelin/contracts/token/ERC20/SafeERC20.sol\";\n\nimport \"./PricelessPositionManager.sol\";\n\nimport \"../../common/implementation/FixedPoint.sol\";\n\n\n/**\n * @title Liquidatable\n * @notice Adds logic to a position-managing contract that enables callers to liquidate an undercollateralized position.\n * @dev The liquidation has a liveness period before expiring successfully, during which someone can \"dispute\" the\n * liquidation, which sends a price request to the relevant Oracle to settle the final collateralization ratio based on\n * a DVM price. The contract enforces dispute rewards in order to incentivize disputers to correctly dispute false\n * liquidations and compensate position sponsors who had their position incorrectly liquidated. Importantly, a\n * prospective disputer must deposit a dispute bond that they can lose in the case of an unsuccessful dispute.\n */\ncontract Liquidatable is PricelessPositionManager {\n    using FixedPoint for FixedPoint.Unsigned;\n    using SafeMath for uint256;\n    using SafeERC20 for IERC20;\n\n    /****************************************\n     *     LIQUIDATION DATA STRUCTURES      *\n     ****************************************/\n\n    // Because of the check in withdrawable(), the order of these enum values should not change.\n    enum Status { Uninitialized, PreDispute, PendingDispute, DisputeSucceeded, DisputeFailed }\n\n    struct LiquidationData {\n        // Following variables set upon creation of liquidation:\n        address sponsor; // Address of the liquidated position's sponsor\n        address liquidator; // Address who created this liquidation\n        Status state; // Liquidated (and expired or not), Pending a Dispute, or Dispute has resolved\n        uint256 liquidationTime; // Time when liquidation is initiated, needed to get price from Oracle\n        // Following variables determined by the position that is being liquidated:\n        FixedPoint.Unsigned tokensOutstanding; // Synthetic tokens required to be burned by liquidator to initiate dispute\n        FixedPoint.Unsigned lockedCollateral; // Collateral locked by contract and released upon expiry or post-dispute\n        // Amount of collateral being liquidated, which could be different from\n        // lockedCollateral if there were pending withdrawals at the time of liquidation\n        FixedPoint.Unsigned liquidatedCollateral;\n        // Unit value (starts at 1) that is used to track the fees per unit of collateral over the course of the liquidation.\n        FixedPoint.Unsigned rawUnitCollateral;\n        // Following variable set upon initiation of a dispute:\n        address disputer; // Person who is disputing a liquidation\n        // Following variable set upon a resolution of a dispute:\n        FixedPoint.Unsigned settlementPrice; // Final price as determined by an Oracle following a dispute\n        FixedPoint.Unsigned finalFee;\n    }\n\n    // Define the contract's constructor parameters as a struct to enable more variables to be specified.\n    // This is required to enable more params, over and above Solidity's limits.\n    struct ConstructorParams {\n        // Params for PricelessPositionManager only.\n        uint256 expirationTimestamp;\n        uint256 withdrawalLiveness;\n        address collateralAddress;\n        address finderAddress;\n        address tokenFactoryAddress;\n        address timerAddress;\n        address excessTokenBeneficiary;\n        bytes32 priceFeedIdentifier;\n        string syntheticName;\n        string syntheticSymbol;\n        FixedPoint.Unsigned minSponsorTokens;\n        // Params specifically for Liquidatable.\n        uint256 liquidationLiveness;\n        FixedPoint.Unsigned collateralRequirement;\n        FixedPoint.Unsigned disputeBondPct;\n        FixedPoint.Unsigned sponsorDisputeRewardPct;\n        FixedPoint.Unsigned disputerDisputeRewardPct;\n    }\n\n    // Liquidations are unique by ID per sponsor\n    mapping(address => LiquidationData[]) public liquidations;\n\n    // Total collateral in liquidation.\n    FixedPoint.Unsigned public rawLiquidationCollateral;\n\n    // Immutable contract parameters:\n    // Amount of time for pending liquidation before expiry.\n    // !!Note: The lower the liquidation liveness value, the more risk incurred by sponsors.\n    //       Extremely low liveness values increase the chance that opportunistic invalid liquidations\n    //       expire without dispute, thereby decreasing the usability for sponsors and increasing the risk\n    //       for the contract as a whole. An insolvent contract is extremely risky for any sponsor or synthetic\n    //       token holder for the contract.\n    uint256 public liquidationLiveness;\n    // Required collateral:TRV ratio for a position to be considered sufficiently collateralized.\n    FixedPoint.Unsigned public collateralRequirement;\n    // Percent of a Liquidation/Position's lockedCollateral to be deposited by a potential disputer\n    // Represented as a multiplier, for example 1.5e18 = \"150%\" and 0.05e18 = \"5%\"\n    FixedPoint.Unsigned public disputeBondPct;\n    // Percent of oraclePrice paid to sponsor in the Disputed state (i.e. following a successful dispute)\n    // Represented as a multiplier, see above.\n    FixedPoint.Unsigned public sponsorDisputeRewardPct;\n    // Percent of oraclePrice paid to disputer in the Disputed state (i.e. following a successful dispute)\n    // Represented as a multiplier, see above.\n    FixedPoint.Unsigned public disputerDisputeRewardPct;\n\n    /****************************************\n     *                EVENTS                *\n     ****************************************/\n\n    event LiquidationCreated(\n        address indexed sponsor,\n        address indexed liquidator,\n        uint256 indexed liquidationId,\n        uint256 tokensOutstanding,\n        uint256 lockedCollateral,\n        uint256 liquidatedCollateral,\n        uint256 liquidationTime\n    );\n    event LiquidationDisputed(\n        address indexed sponsor,\n        address indexed liquidator,\n        address indexed disputer,\n        uint256 liquidationId,\n        uint256 disputeBondAmount\n    );\n    event DisputeSettled(\n        address indexed caller,\n        address indexed sponsor,\n        address indexed liquidator,\n        address disputer,\n        uint256 liquidationId,\n        bool disputeSucceeded\n    );\n    event LiquidationWithdrawn(\n        address indexed caller,\n        uint256 withdrawalAmount,\n        Status indexed liquidationStatus,\n        uint256 settlementPrice\n    );\n\n    /****************************************\n     *              MODIFIERS               *\n     ****************************************/\n\n    modifier disputable(uint256 liquidationId, address sponsor) {\n        _disputable(liquidationId, sponsor);\n        _;\n    }\n\n    modifier withdrawable(uint256 liquidationId, address sponsor) {\n        _withdrawable(liquidationId, sponsor);\n        _;\n    }\n\n    /**\n     * @notice Constructs the liquidatable contract.\n     * @param params struct to define input parameters for construction of Liquidatable. Some params\n     * are fed directly into the PricelessPositionManager's constructor within the inheritance tree.\n     */\n    constructor(ConstructorParams memory params)\n        public\n        PricelessPositionManager(\n            params.expirationTimestamp,\n            params.withdrawalLiveness,\n            params.collateralAddress,\n            params.finderAddress,\n            params.priceFeedIdentifier,\n            params.syntheticName,\n            params.syntheticSymbol,\n            params.tokenFactoryAddress,\n            params.minSponsorTokens,\n            params.timerAddress,\n            params.excessTokenBeneficiary\n        )\n        nonReentrant()\n    {\n        require(params.collateralRequirement.isGreaterThan(1), \"CR is more than 100%\");\n        require(\n            params.sponsorDisputeRewardPct.add(params.disputerDisputeRewardPct).isLessThan(1),\n            \"Rewards are more than 100%\"\n        );\n\n        // Set liquidatable specific variables.\n        liquidationLiveness = params.liquidationLiveness;\n        collateralRequirement = params.collateralRequirement;\n        disputeBondPct = params.disputeBondPct;\n        sponsorDisputeRewardPct = params.sponsorDisputeRewardPct;\n        disputerDisputeRewardPct = params.disputerDisputeRewardPct;\n    }\n\n    /****************************************\n     *        LIQUIDATION FUNCTIONS         *\n     ****************************************/\n\n    /**\n     * @notice Liquidates the sponsor's position if the caller has enough\n     * synthetic tokens to retire the position's outstanding tokens. Liquidations above\n     * a minimum size also reset an ongoing \"slow withdrawal\"'s liveness.\n     * @dev This method generates an ID that will uniquely identify liquidation for the sponsor. This contract must be\n     * approved to spend at least `tokensLiquidated` of `tokenCurrency` and at least `finalFeeBond` of `collateralCurrency`.\n     * @param sponsor address of the sponsor to liquidate.\n     * @param minCollateralPerToken abort the liquidation if the position's collateral per token is below this value.\n     * @param maxCollateralPerToken abort the liquidation if the position's collateral per token exceeds this value.\n     * @param maxTokensToLiquidate max number of tokens to liquidate.\n     * @param deadline abort the liquidation if the transaction is mined after this timestamp.\n     * @return liquidationId ID of the newly created liquidation.\n     * @return tokensLiquidated amount of synthetic tokens removed and liquidated from the `sponsor`'s position.\n     * @return finalFeeBond amount of collateral to be posted by liquidator and returned if not disputed successfully.\n     */\n    function createLiquidation(\n        address sponsor,\n        FixedPoint.Unsigned calldata minCollateralPerToken,\n        FixedPoint.Unsigned calldata maxCollateralPerToken,\n        FixedPoint.Unsigned calldata maxTokensToLiquidate,\n        uint256 deadline\n    )\n        external\n        fees()\n        onlyPreExpiration()\n        nonReentrant()\n        returns (\n            uint256 liquidationId,\n            FixedPoint.Unsigned memory tokensLiquidated,\n            FixedPoint.Unsigned memory finalFeeBond\n        )\n    {\n        // Check that this transaction was mined pre-deadline.\n        require(getCurrentTime() <= deadline, \"Mined after deadline\");\n\n        // Retrieve Position data for sponsor\n        PositionData storage positionToLiquidate = _getPositionData(sponsor);\n\n        tokensLiquidated = FixedPoint.min(maxTokensToLiquidate, positionToLiquidate.tokensOutstanding);\n\n        // Starting values for the Position being liquidated. If withdrawal request amount is > position's collateral,\n        // then set this to 0, otherwise set it to (startCollateral - withdrawal request amount).\n        FixedPoint.Unsigned memory startCollateral = _getFeeAdjustedCollateral(positionToLiquidate.rawCollateral);\n        FixedPoint.Unsigned memory startCollateralNetOfWithdrawal = FixedPoint.fromUnscaledUint(0);\n        if (positionToLiquidate.withdrawalRequestAmount.isLessThanOrEqual(startCollateral)) {\n            startCollateralNetOfWithdrawal = startCollateral.sub(positionToLiquidate.withdrawalRequestAmount);\n        }\n\n        // Scoping to get rid of a stack too deep error.\n        {\n            FixedPoint.Unsigned memory startTokens = positionToLiquidate.tokensOutstanding;\n\n            // The Position's collateralization ratio must be between [minCollateralPerToken, maxCollateralPerToken].\n            // maxCollateralPerToken >= startCollateralNetOfWithdrawal / startTokens.\n            require(\n                maxCollateralPerToken.mul(startTokens).isGreaterThanOrEqual(startCollateralNetOfWithdrawal),\n                \"CR is more than max liq. price\"\n            );\n            // minCollateralPerToken >= startCollateralNetOfWithdrawal / startTokens.\n            require(\n                minCollateralPerToken.mul(startTokens).isLessThanOrEqual(startCollateralNetOfWithdrawal),\n                \"CR is less than min liq. price\"\n            );\n        }\n\n        // Compute final fee at time of liquidation.\n        finalFeeBond = _computeFinalFees();\n\n        // These will be populated within the scope below.\n        FixedPoint.Unsigned memory lockedCollateral;\n        FixedPoint.Unsigned memory liquidatedCollateral;\n\n        // Scoping to get rid of a stack too deep error.\n        {\n            FixedPoint.Unsigned memory ratio = tokensLiquidated.div(positionToLiquidate.tokensOutstanding);\n\n            // The actual amount of collateral that gets moved to the liquidation.\n            lockedCollateral = startCollateral.mul(ratio);\n\n            // For purposes of disputes, it's actually this liquidatedCollateral value that's used. This value is net of\n            // withdrawal requests.\n            liquidatedCollateral = startCollateralNetOfWithdrawal.mul(ratio);\n\n            // Part of the withdrawal request is also removed. Ideally:\n            // liquidatedCollateral + withdrawalAmountToRemove = lockedCollateral.\n            FixedPoint.Unsigned memory withdrawalAmountToRemove = positionToLiquidate.withdrawalRequestAmount.mul(\n                ratio\n            );\n            _reduceSponsorPosition(sponsor, tokensLiquidated, lockedCollateral, withdrawalAmountToRemove);\n        }\n\n        // Add to the global liquidation collateral count.\n        _addCollateral(rawLiquidationCollateral, lockedCollateral.add(finalFeeBond));\n\n        // Construct liquidation object.\n        // Note: All dispute-related values are zeroed out until a dispute occurs. liquidationId is the index of the new\n        // LiquidationData that is pushed into the array, which is equal to the current length of the array pre-push.\n        liquidationId = liquidations[sponsor].length;\n        liquidations[sponsor].push(\n            LiquidationData({\n                sponsor: sponsor,\n                liquidator: msg.sender,\n                state: Status.PreDispute,\n                liquidationTime: getCurrentTime(),\n                tokensOutstanding: tokensLiquidated,\n                lockedCollateral: lockedCollateral,\n                liquidatedCollateral: liquidatedCollateral,\n                rawUnitCollateral: _convertToRawCollateral(FixedPoint.fromUnscaledUint(1)),\n                disputer: address(0),\n                settlementPrice: FixedPoint.fromUnscaledUint(0),\n                finalFee: finalFeeBond\n            })\n        );\n\n        // If this liquidation is a subsequent liquidation on the position, and the liquidation size is larger than\n        // some \"griefing threshold\", then re-set the liveness. This enables a liquidation against a withdraw request to be\n        // \"dragged out\" if the position is very large and liquidators need time to gather funds. The griefing threshold\n        // is enforced so that liquidations for trivially small # of tokens cannot drag out an honest sponsor's slow withdrawal.\n\n        // We arbitrarily set the \"griefing threshold\" to `minSponsorTokens` because it is the only parameter\n        // denominated in token currency units and we can avoid adding another parameter.\n        FixedPoint.Unsigned memory griefingThreshold = minSponsorTokens;\n        if (\n            positionToLiquidate.withdrawalRequestPassTimestamp > 0 && // The position is undergoing a slow withdrawal.\n            positionToLiquidate.withdrawalRequestPassTimestamp <= getCurrentTime() && // The slow withdrawal has not yet expired.\n            tokensLiquidated.isGreaterThanOrEqual(griefingThreshold) // The liquidated token count is above a \"griefing threshold\".\n        ) {\n            positionToLiquidate.withdrawalRequestPassTimestamp = getCurrentTime().add(liquidationLiveness);\n        }\n\n        emit LiquidationCreated(\n            sponsor,\n            msg.sender,\n            liquidationId,\n            tokensLiquidated.rawValue,\n            lockedCollateral.rawValue,\n            liquidatedCollateral.rawValue,\n            getCurrentTime()\n        );\n\n        // Destroy tokens\n        tokenCurrency.safeTransferFrom(msg.sender, address(this), tokensLiquidated.rawValue);\n        tokenCurrency.burn(tokensLiquidated.rawValue);\n\n        // Pull final fee from liquidator.\n        collateralCurrency.safeTransferFrom(msg.sender, address(this), finalFeeBond.rawValue);\n    }\n\n    /**\n     * @notice Disputes a liquidation, if the caller has enough collateral to post a dispute bond\n     * and pay a fixed final fee charged on each price request.\n     * @dev Can only dispute a liquidation before the liquidation expires and if there are no other pending disputes.\n     * This contract must be approved to spend at least the dispute bond amount of `collateralCurrency`. This dispute\n     * bond amount is calculated from `disputeBondPct` times the collateral in the liquidation.\n     * @param liquidationId of the disputed liquidation.\n     * @param sponsor the address of the sponsor whose liquidation is being disputed.\n     * @return totalPaid amount of collateral charged to disputer (i.e. final fee bond + dispute bond).\n     */\n    function dispute(uint256 liquidationId, address sponsor)\n        external\n        disputable(liquidationId, sponsor)\n        fees()\n        nonReentrant()\n        returns (FixedPoint.Unsigned memory totalPaid)\n    {\n        LiquidationData storage disputedLiquidation = _getLiquidationData(sponsor, liquidationId);\n\n        // Multiply by the unit collateral so the dispute bond is a percentage of the locked collateral after fees.\n        FixedPoint.Unsigned memory disputeBondAmount = disputedLiquidation.lockedCollateral.mul(disputeBondPct).mul(\n            _getFeeAdjustedCollateral(disputedLiquidation.rawUnitCollateral)\n        );\n        _addCollateral(rawLiquidationCollateral, disputeBondAmount);\n\n        // Request a price from DVM. Liquidation is pending dispute until DVM returns a price.\n        disputedLiquidation.state = Status.PendingDispute;\n        disputedLiquidation.disputer = msg.sender;\n\n        // Enqueue a request with the DVM.\n        _requestOraclePrice(disputedLiquidation.liquidationTime);\n\n        emit LiquidationDisputed(\n            sponsor,\n            disputedLiquidation.liquidator,\n            msg.sender,\n            liquidationId,\n            disputeBondAmount.rawValue\n        );\n        totalPaid = disputeBondAmount.add(disputedLiquidation.finalFee);\n\n        // Pay the final fee for requesting price from the DVM.\n        _payFinalFees(msg.sender, disputedLiquidation.finalFee);\n\n        // Transfer the dispute bond amount from the caller to this contract.\n        collateralCurrency.safeTransferFrom(msg.sender, address(this), disputeBondAmount.rawValue);\n    }\n\n    /**\n     * @notice After a dispute has settled or after a non-disputed liquidation has expired,\n     * the sponsor, liquidator, and/or disputer can call this method to receive payments.\n     * @dev If the dispute SUCCEEDED: the sponsor, liquidator, and disputer are eligible for payment.\n     * If the dispute FAILED: only the liquidator can receive payment.\n     * Once all collateral is withdrawn, delete the liquidation data.\n     * @param liquidationId uniquely identifies the sponsor's liquidation.\n     * @param sponsor address of the sponsor associated with the liquidation.\n     * @return amountWithdrawn the total amount of underlying returned from the liquidation.\n     */\n    function withdrawLiquidation(uint256 liquidationId, address sponsor)\n        public\n        withdrawable(liquidationId, sponsor)\n        fees()\n        nonReentrant()\n        returns (FixedPoint.Unsigned memory amountWithdrawn)\n    {\n        LiquidationData storage liquidation = _getLiquidationData(sponsor, liquidationId);\n        require(\n            (msg.sender == liquidation.disputer) ||\n                (msg.sender == liquidation.liquidator) ||\n                (msg.sender == liquidation.sponsor),\n            \"Caller cannot withdraw rewards\"\n        );\n\n        // Settles the liquidation if necessary. This call will revert if the price has not resolved yet.\n        _settle(liquidationId, sponsor);\n\n        // Calculate rewards as a function of the TRV.\n        // Note: all payouts are scaled by the unit collateral value so all payouts are charged the fees pro rata.\n        FixedPoint.Unsigned memory feeAttenuation = _getFeeAdjustedCollateral(liquidation.rawUnitCollateral);\n        FixedPoint.Unsigned memory settlementPrice = liquidation.settlementPrice;\n        FixedPoint.Unsigned memory tokenRedemptionValue = liquidation.tokensOutstanding.mul(settlementPrice).mul(\n            feeAttenuation\n        );\n        FixedPoint.Unsigned memory collateral = liquidation.lockedCollateral.mul(feeAttenuation);\n        FixedPoint.Unsigned memory disputerDisputeReward = disputerDisputeRewardPct.mul(tokenRedemptionValue);\n        FixedPoint.Unsigned memory sponsorDisputeReward = sponsorDisputeRewardPct.mul(tokenRedemptionValue);\n        FixedPoint.Unsigned memory disputeBondAmount = collateral.mul(disputeBondPct);\n        FixedPoint.Unsigned memory finalFee = liquidation.finalFee.mul(feeAttenuation);\n\n        // There are three main outcome states: either the dispute succeeded, failed or was not updated.\n        // Based on the state, different parties of a liquidation can withdraw different amounts.\n        // Once a caller has been paid their address deleted from the struct.\n        // This prevents them from being paid multiple from times the same liquidation.\n        FixedPoint.Unsigned memory withdrawalAmount = FixedPoint.fromUnscaledUint(0);\n        if (liquidation.state == Status.DisputeSucceeded) {\n            // If the dispute is successful then all three users can withdraw from the contract.\n            if (msg.sender == liquidation.disputer) {\n                // Pay DISPUTER: disputer reward + dispute bond + returned final fee\n                FixedPoint.Unsigned memory payToDisputer = disputerDisputeReward.add(disputeBondAmount).add(finalFee);\n                withdrawalAmount = withdrawalAmount.add(payToDisputer);\n                delete liquidation.disputer;\n            }\n\n            if (msg.sender == liquidation.sponsor) {\n                // Pay SPONSOR: remaining collateral (collateral - TRV) + sponsor reward\n                FixedPoint.Unsigned memory remainingCollateral = collateral.sub(tokenRedemptionValue);\n                FixedPoint.Unsigned memory payToSponsor = sponsorDisputeReward.add(remainingCollateral);\n                withdrawalAmount = withdrawalAmount.add(payToSponsor);\n                delete liquidation.sponsor;\n            }\n\n            if (msg.sender == liquidation.liquidator) {\n                // Pay LIQUIDATOR: TRV - dispute reward - sponsor reward\n                // If TRV > Collateral, then subtract rewards from collateral\n                // NOTE: This should never be below zero since we prevent (sponsorDisputePct+disputerDisputePct) >= 0 in\n                // the constructor when these params are set.\n                FixedPoint.Unsigned memory payToLiquidator = tokenRedemptionValue.sub(sponsorDisputeReward).sub(\n                    disputerDisputeReward\n                );\n                withdrawalAmount = withdrawalAmount.add(payToLiquidator);\n                delete liquidation.liquidator;\n            }\n\n            // Free up space once all collateral is withdrawn by removing the liquidation object from the array.\n            if (\n                liquidation.disputer == address(0) &&\n                liquidation.sponsor == address(0) &&\n                liquidation.liquidator == address(0)\n            ) {\n                delete liquidations[sponsor][liquidationId];\n            }\n            // In the case of a failed dispute only the liquidator can withdraw.\n        } else if (liquidation.state == Status.DisputeFailed && msg.sender == liquidation.liquidator) {\n            // Pay LIQUIDATOR: collateral + dispute bond + returned final fee\n            withdrawalAmount = collateral.add(disputeBondAmount).add(finalFee);\n            delete liquidations[sponsor][liquidationId];\n            // If the state is pre-dispute but time has passed liveness then there was no dispute. We represent this\n            // state as a dispute failed and the liquidator can withdraw.\n        } else if (liquidation.state == Status.PreDispute && msg.sender == liquidation.liquidator) {\n            // Pay LIQUIDATOR: collateral + returned final fee\n            withdrawalAmount = collateral.add(finalFee);\n            delete liquidations[sponsor][liquidationId];\n        }\n        require(withdrawalAmount.isGreaterThan(0), \"Invalid withdrawal amount\");\n\n        // Decrease the total collateral held in liquidatable by the amount withdrawn.\n        amountWithdrawn = _removeCollateral(rawLiquidationCollateral, withdrawalAmount);\n\n        emit LiquidationWithdrawn(msg.sender, amountWithdrawn.rawValue, liquidation.state, settlementPrice.rawValue);\n\n        // Transfer amount withdrawn from this contract to the caller.\n        collateralCurrency.safeTransfer(msg.sender, amountWithdrawn.rawValue);\n\n        return amountWithdrawn;\n    }\n\n    /**\n     * @notice Gets all liquidation information for a given sponsor address.\n     * @param sponsor address of the position sponsor.\n     * @return liquidationData array of all liquidation information for the given sponsor address.\n     */\n    function getLiquidations(address sponsor)\n        external\n        view\n        nonReentrantView()\n        returns (LiquidationData[] memory liquidationData)\n    {\n        return liquidations[sponsor];\n    }\n\n    /****************************************\n     *          INTERNAL FUNCTIONS          *\n     ****************************************/\n\n    // This settles a liquidation if it is in the PendingDispute state. If not, it will immediately return.\n    // If the liquidation is in the PendingDispute state, but a price is not available, this will revert.\n    function _settle(uint256 liquidationId, address sponsor) internal {\n        LiquidationData storage liquidation = _getLiquidationData(sponsor, liquidationId);\n\n        // Settlement only happens when state == PendingDispute and will only happen once per liquidation.\n        // If this liquidation is not ready to be settled, this method should return immediately.\n        if (liquidation.state != Status.PendingDispute) {\n            return;\n        }\n\n        // Get the returned price from the oracle. If this has not yet resolved will revert.\n        liquidation.settlementPrice = _getOraclePrice(liquidation.liquidationTime);\n\n        // Find the value of the tokens in the underlying collateral.\n        FixedPoint.Unsigned memory tokenRedemptionValue = liquidation.tokensOutstanding.mul(\n            liquidation.settlementPrice\n        );\n\n        // The required collateral is the value of the tokens in underlying * required collateral ratio.\n        FixedPoint.Unsigned memory requiredCollateral = tokenRedemptionValue.mul(collateralRequirement);\n\n        // If the position has more than the required collateral it is solvent and the dispute is valid(liquidation is invalid)\n        // Note that this check uses the liquidatedCollateral not the lockedCollateral as this considers withdrawals.\n        bool disputeSucceeded = liquidation.liquidatedCollateral.isGreaterThanOrEqual(requiredCollateral);\n        liquidation.state = disputeSucceeded ? Status.DisputeSucceeded : Status.DisputeFailed;\n\n        emit DisputeSettled(\n            msg.sender,\n            sponsor,\n            liquidation.liquidator,\n            liquidation.disputer,\n            liquidationId,\n            disputeSucceeded\n        );\n    }\n\n    function _pfc() internal override view returns (FixedPoint.Unsigned memory) {\n        return super._pfc().add(_getFeeAdjustedCollateral(rawLiquidationCollateral));\n    }\n\n    function _getLiquidationData(address sponsor, uint256 liquidationId)\n        internal\n        view\n        returns (LiquidationData storage liquidation)\n    {\n        LiquidationData[] storage liquidationArray = liquidations[sponsor];\n\n        // Revert if the caller is attempting to access an invalid liquidation\n        // (one that has never been created or one has never been initialized).\n        require(\n            liquidationId < liquidationArray.length && liquidationArray[liquidationId].state != Status.Uninitialized,\n            \"Invalid liquidation ID\"\n        );\n        return liquidationArray[liquidationId];\n    }\n\n    function _getLiquidationExpiry(LiquidationData storage liquidation) internal view returns (uint256) {\n        return liquidation.liquidationTime.add(liquidationLiveness);\n    }\n\n    // These internal functions are supposed to act identically to modifiers, but re-used modifiers\n    // unnecessarily increase contract bytecode size.\n    // source: https://blog.polymath.network/solidity-tips-and-tricks-to-save-gas-and-reduce-bytecode-size-c44580b218e6\n    function _disputable(uint256 liquidationId, address sponsor) internal view {\n        LiquidationData storage liquidation = _getLiquidationData(sponsor, liquidationId);\n        require(\n            (getCurrentTime() < _getLiquidationExpiry(liquidation)) && (liquidation.state == Status.PreDispute),\n            \"Liquidation not disputable\"\n        );\n    }\n\n    function _withdrawable(uint256 liquidationId, address sponsor) internal view {\n        LiquidationData storage liquidation = _getLiquidationData(sponsor, liquidationId);\n        Status state = liquidation.state;\n\n        // Must be disputed or the liquidation has passed expiry.\n        require(\n            (state > Status.PreDispute) ||\n                ((_getLiquidationExpiry(liquidation) <= getCurrentTime()) && (state == Status.PreDispute)),\n            \"Liquidation not withdrawable\"\n        );\n    }\n}\n",
  "sourcePath": "/home/alessandrovm/JarvisLavoro/SynFiat/packages/contracts/contracts/uma-contracts/financial-templates/expiring-multiparty/Liquidatable.sol",
  "compiler": {
    "name": "solc",
    "version": "0.6.10+commit.00c0fcaf.Emscripten.clang"
  },
  "schemaVersion": "3.2.5",
  "updatedAt": "2020-10-22T14:01:04.370Z",
  "devdoc": {
    "details": "The liquidation has a liveness period before expiring successfully, during which someone can \"dispute\" the liquidation, which sends a price request to the relevant Oracle to settle the final collateralization ratio based on a DVM price. The contract enforces dispute rewards in order to incentivize disputers to correctly dispute false liquidations and compensate position sponsors who had their position incorrectly liquidated. Importantly, a prospective disputer must deposit a dispute bond that they can lose in the case of an unsuccessful dispute.",
    "methods": {
      "constructor": {
        "params": {
          "params": "struct to define input parameters for construction of Liquidatable. Some params are fed directly into the PricelessPositionManager's constructor within the inheritance tree."
        }
      },
      "create((uint256),(uint256))": {
        "details": "Reverts if minting these tokens would put the position's collateralization ratio below the global collateralization ratio. This contract must be approved to spend at least `collateralAmount` of `collateralCurrency`.",
        "params": {
          "collateralAmount": "is the number of collateral tokens to collateralize the position with",
          "numTokens": "is the number of tokens to mint from the position."
        }
      },
      "createLiquidation(address,(uint256),(uint256),(uint256),uint256)": {
        "details": "This method generates an ID that will uniquely identify liquidation for the sponsor. This contract must be approved to spend at least `tokensLiquidated` of `tokenCurrency` and at least `finalFeeBond` of `collateralCurrency`.",
        "params": {
          "deadline": "abort the liquidation if the transaction is mined after this timestamp.",
          "maxCollateralPerToken": "abort the liquidation if the position's collateral per token exceeds this value.",
          "maxTokensToLiquidate": "max number of tokens to liquidate.",
          "minCollateralPerToken": "abort the liquidation if the position's collateral per token is below this value.",
          "sponsor": "address of the sponsor to liquidate."
        },
        "returns": {
          "finalFeeBond": "amount of collateral to be posted by liquidator and returned if not disputed successfully.",
          "liquidationId": "ID of the newly created liquidation.",
          "tokensLiquidated": "amount of synthetic tokens removed and liquidated from the `sponsor`'s position."
        }
      },
      "deposit((uint256))": {
        "details": "Increases the collateralization level of a position after creation. This contract must be approved to spend at least `collateralAmount` of `collateralCurrency`.",
        "params": {
          "collateralAmount": "total amount of collateral tokens to be sent to the sponsor's position."
        }
      },
      "depositTo(address,(uint256))": {
        "details": "Increases the collateralization level of a position after creation. This contract must be approved to spend at least `collateralAmount` of `collateralCurrency`.",
        "params": {
          "collateralAmount": "total amount of collateral tokens to be sent to the sponsor's position.",
          "sponsor": "the sponsor to credit the deposit to."
        }
      },
      "dispute(uint256,address)": {
        "details": "Can only dispute a liquidation before the liquidation expires and if there are no other pending disputes. This contract must be approved to spend at least the dispute bond amount of `collateralCurrency`. This dispute bond amount is calculated from `disputeBondPct` times the collateral in the liquidation.",
        "params": {
          "liquidationId": "of the disputed liquidation.",
          "sponsor": "the address of the sponsor whose liquidation is being disputed."
        },
        "returns": {
          "totalPaid": "amount of collateral charged to disputer (i.e. final fee bond + dispute bond)."
        }
      },
      "emergencyShutdown()": {
        "details": "Only the governor can call this function as they are permissioned within the `FinancialContractAdmin`. Upon emergency shutdown, the contract settlement time is set to the shutdown time. This enables withdrawal to occur via the standard `settleExpired` function. Contract state is set to `ExpiredPriceRequested` which prevents re-entry into this function or the `expire` function. No fees are paid when calling `emergencyShutdown` as the governor who would call the function would also receive the fees."
      },
      "expire()": {
        "details": "this function can only be called once the contract is expired and can't be re-called."
      },
      "getCollateral(address)": {
        "details": "This is necessary because the struct returned by the positions() method shows rawCollateral, which isn't a user-readable value.",
        "params": {
          "sponsor": "address whose collateral amount is retrieved."
        },
        "returns": {
          "collateralAmount": "amount of collateral within a sponsors position."
        }
      },
      "getCurrentTime()": {
        "returns": {
          "_0": "uint for the current Testable timestamp."
        }
      },
      "getLiquidations(address)": {
        "params": {
          "sponsor": "address of the position sponsor."
        },
        "returns": {
          "liquidationData": "array of all liquidation information for the given sponsor address."
        }
      },
      "payRegularFees()": {
        "details": "These must be paid periodically for the life of the contract. If the contract has not paid its regular fee in a week or more then a late penalty is applied which is sent to the caller. If the amount of fees owed are greater than the pfc, then this will pay as much as possible from the available collateral. An event is only fired if the fees charged are greater than 0.",
        "returns": {
          "totalPaid": "Amount of collateral that the contract paid (sum of the amount paid to the Store and caller). This returns 0 and exit early if there is no pfc, fees were already paid during the current block, or the fee rate is 0."
        }
      },
      "pfc()": {
        "details": "This is equivalent to the collateral pool available from which to pay fees. Therefore, derived contracts are expected to implement this so that pay-fee methods can correctly compute the owed fees as a % of PfC.",
        "returns": {
          "_0": "pfc value for equal to the current profit from corruption denominated in collateral currency."
        }
      },
      "redeem((uint256))": {
        "details": "Can only be called by a token sponsor. Might not redeem the full proportional amount of collateral in order to account for precision loss. This contract must be approved to spend at least `numTokens` of `tokenCurrency`.",
        "params": {
          "numTokens": "is the number of tokens to be burnt for a commensurate amount of collateral."
        },
        "returns": {
          "amountWithdrawn": "The actual amount of collateral withdrawn."
        }
      },
      "remargin()": {
        "details": "This is supposed to be implemented by any contract that inherits `AdministrateeInterface` and callable only by the Governor contract. This method is therefore minimally implemented in this contract and does nothing."
      },
      "requestTransferPosition()": {
        "details": "The liveness length is the same as the withdrawal liveness."
      },
      "requestWithdrawal((uint256))": {
        "details": "The request will be pending for `withdrawalLiveness`, during which the position can be liquidated.",
        "params": {
          "collateralAmount": "the amount of collateral requested to withdraw"
        }
      },
      "setCurrentTime(uint256)": {
        "details": "Will revert if not running in test mode.",
        "params": {
          "time": "timestamp to set current Testable time to."
        }
      },
      "settleExpired()": {
        "details": "This burns all tokens from the caller of `tokenCurrency` and sends back the proportional amount of `collateralCurrency`. Might not redeem the full proportional amount of collateral in order to account for precision loss. This contract must be approved to spend `tokenCurrency` at least up to the caller's full balance.",
        "returns": {
          "amountWithdrawn": "The actual amount of collateral withdrawn."
        }
      },
      "totalPositionCollateral()": {
        "returns": {
          "totalCollateral": "amount of all collateral within the Expiring Multi Party Contract."
        }
      },
      "transferPositionPassedRequest(address)": {
        "details": "Transferring positions can only occur if the recipient does not already have a position.",
        "params": {
          "newSponsorAddress": "is the address to which the position will be transferred."
        }
      },
      "trimExcess(address)": {
        "details": "This will drain down to the amount of tracked collateral and drain the full balance of any other token.",
        "params": {
          "token": "address of the ERC20 token whose excess balance should be drained."
        }
      },
      "withdraw((uint256))": {
        "details": "Reverts if the withdrawal puts this position's collateralization ratio below the global collateralization ratio. In that case, use `requestWithdrawal`. Might not withdraw the full requested amount to account for precision loss.",
        "params": {
          "collateralAmount": "is the amount of collateral to withdraw."
        },
        "returns": {
          "amountWithdrawn": "The actual amount of collateral withdrawn."
        }
      },
      "withdrawLiquidation(uint256,address)": {
        "details": "If the dispute SUCCEEDED: the sponsor, liquidator, and disputer are eligible for payment. If the dispute FAILED: only the liquidator can receive payment. Once all collateral is withdrawn, delete the liquidation data.",
        "params": {
          "liquidationId": "uniquely identifies the sponsor's liquidation.",
          "sponsor": "address of the sponsor associated with the liquidation."
        },
        "returns": {
          "amountWithdrawn": "the total amount of underlying returned from the liquidation."
        }
      },
      "withdrawPassedRequest()": {
        "details": "Might not withdraw the full requested amount in order to account for precision loss or if the full requested amount exceeds the collateral in the position (due to paying fees).",
        "returns": {
          "amountWithdrawn": "The actual amount of collateral withdrawn."
        }
      }
    },
    "title": "Liquidatable"
  },
  "userdoc": {
    "methods": {
      "cancelTransferPosition()": {
        "notice": "Cancels a pending transfer position request."
      },
      "cancelWithdrawal()": {
        "notice": "Cancels a pending withdrawal request."
      },
      "collateralCurrency()": {
        "notice": "**************************************      FEE PAYER DATA STRUCTURES       ****************************************"
      },
      "constructor": "Constructs the liquidatable contract.",
      "create((uint256),(uint256))": {
        "notice": "Creates tokens by creating a new position or by augmenting an existing position. Pulls `collateralAmount` into the sponsor's position and mints `numTokens` of `tokenCurrency`."
      },
      "createLiquidation(address,(uint256),(uint256),(uint256),uint256)": {
        "notice": "Liquidates the sponsor's position if the caller has enough synthetic tokens to retire the position's outstanding tokens. Liquidations above a minimum size also reset an ongoing \"slow withdrawal\"'s liveness."
      },
      "deposit((uint256))": {
        "notice": "Transfers `collateralAmount` of `collateralCurrency` into the caller's position."
      },
      "depositTo(address,(uint256))": {
        "notice": "Transfers `collateralAmount` of `collateralCurrency` into the specified sponsor's position."
      },
      "dispute(uint256,address)": {
        "notice": "Disputes a liquidation, if the caller has enough collateral to post a dispute bond and pay a fixed final fee charged on each price request."
      },
      "emergencyShutdown()": {
        "notice": "Premature contract settlement under emergency circumstances."
      },
      "expire()": {
        "notice": "Locks contract state in expired and requests oracle price."
      },
      "getCollateral(address)": {
        "notice": "Accessor method for a sponsor's collateral."
      },
      "getCurrentTime()": {
        "notice": "Gets the current time. Will return the last time set in `setCurrentTime` if running in test mode. Otherwise, it will return the block timestamp."
      },
      "getLiquidations(address)": {
        "notice": "Gets all liquidation information for a given sponsor address."
      },
      "payRegularFees()": {
        "notice": "Pays UMA DVM regular fees (as a % of the collateral pool) to the Store contract."
      },
      "pfc()": {
        "notice": "Gets the current profit from corruption for this contract in terms of the collateral currency."
      },
      "redeem((uint256))": {
        "notice": "Burns `numTokens` of `tokenCurrency` and sends back the proportional amount of `collateralCurrency`."
      },
      "remargin()": {
        "notice": "Theoretically supposed to pay fees and move money between margin accounts to make sure they reflect the NAV of the contract. However, this functionality doesn't apply to this contract."
      },
      "requestTransferPosition()": {
        "notice": "Requests to transfer ownership of the caller's current position to a new sponsor address. Once the request liveness is passed, the sponsor can execute the transfer and specify the new sponsor."
      },
      "requestWithdrawal((uint256))": {
        "notice": "Starts a withdrawal request that, if passed, allows the sponsor to withdraw` from their position."
      },
      "setCurrentTime(uint256)": {
        "notice": "Sets the current time."
      },
      "settleExpired()": {
        "notice": "After a contract has passed expiry all token holders can redeem their tokens for underlying at the prevailing price defined by the DVM from the `expire` function."
      },
      "totalPositionCollateral()": {
        "notice": "Accessor method for the total collateral stored within the PricelessPositionManager."
      },
      "transferPositionPassedRequest(address)": {
        "notice": "After a passed transfer position request (i.e., by a call to `requestTransferPosition` and waiting `withdrawalLiveness`), transfers ownership of the caller's current position to `newSponsorAddress`."
      },
      "trimExcess(address)": {
        "notice": "Drains any excess balance of the provided ERC20 token to a pre-selected beneficiary."
      },
      "withdraw((uint256))": {
        "notice": "Transfers `collateralAmount` of `collateralCurrency` from the sponsor's position to the sponsor."
      },
      "withdrawLiquidation(uint256,address)": {
        "notice": "After a dispute has settled or after a non-disputed liquidation has expired, the sponsor, liquidator, and/or disputer can call this method to receive payments."
      },
      "withdrawPassedRequest()": {
        "notice": "After a passed withdrawal request (i.e., by a call to `requestWithdrawal` and waiting `withdrawalLiveness`), withdraws `positionData.withdrawalRequestAmount` of collateral currency."
      }
    },
    "notice": "Adds logic to a position-managing contract that enables callers to liquidate an undercollateralized position."
  }
}