{
  "contractName": "MockFundingRateStore",
  "abi": [
    {
      "inputs": [
        {
          "internalType": "address",
          "name": "_timerAddress",
          "type": "address"
        }
      ],
      "stateMutability": "nonpayable",
      "type": "constructor"
    },
    {
      "inputs": [],
      "name": "getCurrentTime",
      "outputs": [
        {
          "internalType": "uint256",
          "name": "",
          "type": "uint256"
        }
      ],
      "stateMutability": "view",
      "type": "function"
    },
    {
      "inputs": [
        {
          "internalType": "uint256",
          "name": "time",
          "type": "uint256"
        }
      ],
      "name": "setCurrentTime",
      "outputs": [],
      "stateMutability": "nonpayable",
      "type": "function"
    },
    {
      "inputs": [],
      "name": "timerAddress",
      "outputs": [
        {
          "internalType": "address",
          "name": "",
          "type": "address"
        }
      ],
      "stateMutability": "view",
      "type": "function"
    },
    {
      "inputs": [
        {
          "internalType": "bytes32",
          "name": "identifier",
          "type": "bytes32"
        },
        {
          "internalType": "uint256",
          "name": "time",
          "type": "uint256"
        },
        {
          "components": [
            {
              "internalType": "uint256",
              "name": "rawValue",
              "type": "uint256"
            }
          ],
          "internalType": "struct FixedPoint.Unsigned",
          "name": "fundingRate",
          "type": "tuple"
        }
      ],
      "name": "setFundingRate",
      "outputs": [],
      "stateMutability": "nonpayable",
      "type": "function"
    },
    {
      "inputs": [
        {
          "internalType": "bytes32",
          "name": "identifier",
          "type": "bytes32"
        }
      ],
      "name": "getFundingRateForIdentifier",
      "outputs": [
        {
          "components": [
            {
              "internalType": "uint256",
              "name": "rawValue",
              "type": "uint256"
            }
          ],
          "internalType": "struct FixedPoint.Unsigned",
          "name": "",
          "type": "tuple"
        }
      ],
      "stateMutability": "view",
      "type": "function"
    }
  ],
  "bytecode": "0x608060405234801561001057600080fd5b5060405161060338038061060383398101604081905261002f91610054565b600080546001600160a01b0319166001600160a01b0392909216919091179055610082565b600060208284031215610065578081fd5b81516001600160a01b038116811461007b578182fd5b9392505050565b610572806100916000396000f3fe608060405234801561001057600080fd5b50600436106100675760003560e01c806329cb924d1161005057806329cb924d1461009f5780633933870d146100b457806381ee10d9146100d457610067565b80631c39c38d1461006c57806322f8e5661461008a575b600080fd5b6100746100e7565b60405161008191906104ab565b60405180910390f35b61009d6100983660046103f8565b610103565b005b6100a76101b0565b6040516100819190610533565b6100c76100c23660046103f8565b61027b565b6040516100819190610529565b61009d6100e2366004610410565b610308565b60005473ffffffffffffffffffffffffffffffffffffffff1681565b60005473ffffffffffffffffffffffffffffffffffffffff1661012557600080fd5b6000546040517f22f8e56600000000000000000000000000000000000000000000000000000000815273ffffffffffffffffffffffffffffffffffffffff909116906322f8e5669061017b908490600401610533565b600060405180830381600087803b15801561019557600080fd5b505af11580156101a9573d6000803e3d6000fd5b5050505050565b6000805473ffffffffffffffffffffffffffffffffffffffff1615610275576000809054906101000a900473ffffffffffffffffffffffffffffffffffffffff1673ffffffffffffffffffffffffffffffffffffffff166329cb924d6040518163ffffffff1660e01b815260040160206040518083038186803b15801561023657600080fd5b505afa15801561024a573d6000803e3d6000fd5b505050506040513d601f19601f8201168201806040525081019061026e9190610493565b9050610278565b50425b90565b6102836103e5565b6000828152600160205260409020546102a7576102a0600161034b565b9050610303565b600082815260016020526040902080547fffffffffffffffffffffffffffffffffffffffffffffffffffffffffffffffff81019081106102e357fe5b600091825260209182902060408051938401905260029091020154815290505b919050565b6000928352600160208181526040808620815180830190925293815280820194855283548084018555938652942093515160029092029093019081559051910155565b6103536103e5565b60408051602081019091528061037784670de0b6b3a764000063ffffffff61037f16565b905292915050565b60008261038e575060006103df565b8282028284828161039b57fe5b04146103dc576040517f08c379a00000000000000000000000000000000000000000000000000000000081526004016103d3906104cc565b60405180910390fd5b90505b92915050565b6040518060200160405280600081525090565b600060208284031215610409578081fd5b5035919050565b60008060008385036060811215610425578283fd5b843593506020850135925060207fffffffffffffffffffffffffffffffffffffffffffffffffffffffffffffffc08201121561045f578182fd5b506040516020810181811067ffffffffffffffff8211171561047f578283fd5b604090815294909401358452509093909250565b6000602082840312156104a4578081fd5b5051919050565b73ffffffffffffffffffffffffffffffffffffffff91909116815260200190565b60208082526021908201527f536166654d6174683a206d756c7469706c69636174696f6e206f766572666c6f60408201527f7700000000000000000000000000000000000000000000000000000000000000606082015260800190565b9051815260200190565b9081526020019056fea26469706673582212204335ceec7f69453d80d1d17827f36ddd0c56908df1db693912dcad62e1f68cab64736f6c634300060a0033",
  "immutableReferences": {},
  "source": "pragma solidity ^0.6.0;\n\npragma experimental ABIEncoderV2;\n\nimport \"../interfaces/FundingRateStoreInterface.sol\";\nimport \"../../../common/implementation/Testable.sol\";\nimport \"../../../common/implementation/FixedPoint.sol\";\nimport \"../../../oracle/interfaces/FinderInterface.sol\";\nimport \"../../../oracle/implementation/Constants.sol\";\nimport \"../../../oracle/interfaces/IdentifierWhitelistInterface.sol\";\n\n\n// A mock funding rate store used for testing.\ncontract MockFundingRateStore is FundingRateStoreInterface, Testable {\n    using FixedPoint for FixedPoint.Unsigned;\n\n    struct FundingRate {\n        // Represented in wei as a % of token amount charged per second.\n        // e.g. fundingRate = 1.01 means 1% of token amount charged per second.\n        FixedPoint.Unsigned fundingRate;\n        // int256 fundingRate;\n        uint256 timestamp; // Time the verified funding rate became available.\n    }\n\n    mapping(bytes32 => FundingRate[]) private fundingRates;\n\n    constructor(address _timerAddress) public Testable(_timerAddress) {}\n\n    // Sets the funding rate for a given identifier.\n    function setFundingRate(\n        bytes32 identifier,\n        uint256 time,\n        FixedPoint.Unsigned memory fundingRate\n    ) external {\n        fundingRates[identifier].push(FundingRate(fundingRate, time));\n    }\n\n    function getFundingRateForIdentifier(bytes32 identifier)\n        external\n        override\n        view\n        returns (FixedPoint.Unsigned memory)\n    {\n        if (fundingRates[identifier].length == 0) {\n            return FixedPoint.fromUnscaledUint(1);\n        }\n        return fundingRates[identifier][fundingRates[identifier].length - 1].fundingRate;\n    }\n}\n",
  "sourcePath": "/home/alessandrovm/JarvisLavoro/SynFiat/packages/contracts/contracts/uma-contracts/financial-templates/funding-rate-store/test/MockFundingRateStore.sol",
  "compiler": {
    "name": "solc",
    "version": "0.6.10+commit.00c0fcaf.Emscripten.clang"
  },
  "schemaVersion": "3.2.5",
  "updatedAt": "2020-10-22T14:01:04.436Z",
  "devdoc": {
    "methods": {
      "getCurrentTime()": {
        "returns": {
          "_0": "uint for the current Testable timestamp."
        }
      },
      "setCurrentTime(uint256)": {
        "details": "Will revert if not running in test mode.",
        "params": {
          "time": "timestamp to set current Testable time to."
        }
      }
    }
  },
  "userdoc": {
    "methods": {
      "getCurrentTime()": {
        "notice": "Gets the current time. Will return the last time set in `setCurrentTime` if running in test mode. Otherwise, it will return the block timestamp."
      },
      "setCurrentTime(uint256)": {
        "notice": "Sets the current time."
      }
    }
  }
}