{
  "contractName": "ReentrancyChecker",
  "abi": [
    {
      "stateMutability": "nonpayable",
      "type": "fallback"
    },
    {
      "inputs": [],
      "name": "txnData",
      "outputs": [
        {
          "internalType": "bytes",
          "name": "",
          "type": "bytes"
        }
      ],
      "stateMutability": "view",
      "type": "function"
    },
    {
      "inputs": [
        {
          "internalType": "bytes",
          "name": "_txnData",
          "type": "bytes"
        }
      ],
      "name": "setTransactionData",
      "outputs": [],
      "stateMutability": "nonpayable",
      "type": "function"
    }
  ],
  "bytecode": "0x608060405234801561001057600080fd5b50610498806100206000396000f3fe608060405234801561001057600080fd5b50600436106100365760003560e01c8063537e2eb8146101c65780635592da8714610243575b60015460ff1615610046576101c4565b600180547fffffffffffffffffffffffffffffffffffffffffffffffffffffffffffffff00168117815560008054604080516020600261010096851615969096027fffffffffffffffffffffffffffffffffffffffffffffffffffffffffffffffff0190931694909404601f8101839004830285018301909152808452919261012b92339285929183918301828280156101215780601f106100f657610100808354040283529160200191610121565b820191906000526020600020905b81548152906001019060200180831161010457829003601f168201915b50505050506102e9565b9050801561019a57604080517f08c379a000000000000000000000000000000000000000000000000000000000815260206004820152601a60248201527f52652d656e7472616e637920776173207375636365737366756c000000000000604482015290519081900360640190fd5b50600180547fffffffffffffffffffffffffffffffffffffffffffffffffffffffffffffff001690555b005b6101ce610304565b6040805160208082528351818301528351919283929083019185019080838360005b838110156102085781810151838201526020016101f0565b50505050905090810190601f1680156102355780820380516001836020036101000a031916815260200191505b509250505060405180910390f35b6101c46004803603602081101561025957600080fd5b81019060208101813564010000000081111561027457600080fd5b82018360208201111561028657600080fd5b803590602001918460018302840111640100000000831117156102a857600080fd5b91908080601f0160208091040260200160405190810160405280939291908181526020018383808284376000920191909152509295506103b0945050505050565b60006020820182516000808284888a5af19695505050505050565b6000805460408051602060026001851615610100027fffffffffffffffffffffffffffffffffffffffffffffffffffffffffffffffff0190941693909304601f810184900484028201840190925281815292918301828280156103a85780601f1061037d576101008083540402835291602001916103a8565b820191906000526020600020905b81548152906001019060200180831161038b57829003601f168201915b505050505081565b80516103c39060009060208401906103c7565b5050565b828054600181600116156101000203166002900490600052602060002090601f016020900481019282601f1061040857805160ff1916838001178555610435565b82800160010185558215610435579182015b8281111561043557825182559160200191906001019061041a565b50610441929150610445565b5090565b61045f91905b80821115610441576000815560010161044b565b9056fea26469706673582212204d4673eec713398b9abb95f2e72c2277329cca71bafe5bf6fc2e4628f4c1449a64736f6c634300060a0033",
  "immutableReferences": {},
  "source": "pragma solidity ^0.6.0;\n\n\n// The Reentrancy Checker causes failures if it is successfully able to re-enter a contract.\n// How to use:\n// 1. Call setTransactionData with the transaction data you want the Reentrancy Checker to reenter the calling\n//    contract with.\n// 2. Get the calling contract to call into the reentrancy checker with any call. The fallback function will receive\n//    this call and reenter the contract with the transaction data provided in 1. If that reentrancy call does not\n//    revert, then the reentrancy checker reverts the initial call, likely causeing the entire transaction to revert.\n//\n// Note: the reentrancy checker has a guard to prevent an infinite cycle of reentrancy. Inifinite cycles will run out\n// of gas in all cases, potentially causing a revert when the contract is adequately protected from reentrancy.\ncontract ReentrancyChecker {\n    bytes public txnData;\n    bool hasBeenCalled;\n\n    // Used to prevent infinite cycles where the reentrancy is cycled forever.\n    modifier skipIfReentered {\n        if (hasBeenCalled) {\n            return;\n        }\n        hasBeenCalled = true;\n        _;\n        hasBeenCalled = false;\n    }\n\n    function setTransactionData(bytes memory _txnData) public {\n        txnData = _txnData;\n    }\n\n    function _executeCall(\n        address to,\n        uint256 value,\n        bytes memory data\n    ) private returns (bool success) {\n        // Mostly copied from:\n        // solhint-disable-next-line max-line-length\n        // https://github.com/gnosis/safe-contracts/blob/59cfdaebcd8b87a0a32f87b50fead092c10d3a05/contracts/base/Executor.sol#L23-L31\n        // solhint-disable-next-line no-inline-assembly\n\n        assembly {\n            let inputData := add(data, 0x20)\n            let inputDataSize := mload(data)\n            success := call(gas(), to, value, inputData, inputDataSize, 0, 0)\n        }\n    }\n\n    fallback() external skipIfReentered {\n        // Attampt to re-enter with the set txnData.\n        bool success = _executeCall(msg.sender, 0, txnData);\n\n        // Fail if the call succeeds because that means the re-entrancy was successful.\n        require(!success, \"Re-entrancy was successful\");\n    }\n}\n",
  "sourcePath": "/home/alessandrovm/JarvisLavoro/SynFiat/packages/contracts/contracts/uma-contracts/common/test/ReentrancyChecker.sol",
  "compiler": {
    "name": "solc",
    "version": "0.6.10+commit.00c0fcaf.Emscripten.clang"
  },
  "schemaVersion": "3.2.5",
  "updatedAt": "2020-10-22T14:01:04.248Z",
  "devdoc": {
    "methods": {}
  },
  "userdoc": {
    "methods": {}
  }
}