{
  "contractName": "TestableTest",
  "abi": [
    {
      "inputs": [
        {
          "internalType": "address",
          "name": "_timerAddress",
          "type": "address"
        }
      ],
      "stateMutability": "nonpayable",
      "type": "constructor"
    },
    {
      "inputs": [],
      "name": "getCurrentTime",
      "outputs": [
        {
          "internalType": "uint256",
          "name": "",
          "type": "uint256"
        }
      ],
      "stateMutability": "view",
      "type": "function"
    },
    {
      "inputs": [
        {
          "internalType": "uint256",
          "name": "time",
          "type": "uint256"
        }
      ],
      "name": "setCurrentTime",
      "outputs": [],
      "stateMutability": "nonpayable",
      "type": "function"
    },
    {
      "inputs": [],
      "name": "timerAddress",
      "outputs": [
        {
          "internalType": "address",
          "name": "",
          "type": "address"
        }
      ],
      "stateMutability": "view",
      "type": "function"
    },
    {
      "inputs": [],
      "name": "getTestableTimeAndBlockTime",
      "outputs": [
        {
          "internalType": "uint256",
          "name": "testableTime",
          "type": "uint256"
        },
        {
          "internalType": "uint256",
          "name": "blockTime",
          "type": "uint256"
        }
      ],
      "stateMutability": "view",
      "type": "function"
    }
  ],
  "bytecode": "0x608060405234801561001057600080fd5b506040516103103803806103108339818101604052602081101561003357600080fd5b5051600080546001600160a01b039092166001600160a01b03199092169190911790556102ab806100656000396000f3fe608060405234801561001057600080fd5b506004361061004c5760003560e01c80631c39c38d1461005157806322f8e5661461008257806329cb924d146100a1578063dc6ff7bd146100bb575b600080fd5b6100596100dc565b6040805173ffffffffffffffffffffffffffffffffffffffff9092168252519081900360200190f35b61009f6004803603602081101561009857600080fd5b50356100f8565b005b6100a96101a3565b60408051918252519081900360200190f35b6100c3610262565b6040805192835260208301919091528051918290030190f35b60005473ffffffffffffffffffffffffffffffffffffffff1681565b60005473ffffffffffffffffffffffffffffffffffffffff1661011a57600080fd5b60008054604080517f22f8e56600000000000000000000000000000000000000000000000000000000815260048101859052905173ffffffffffffffffffffffffffffffffffffffff909216926322f8e5669260248084019382900301818387803b15801561018857600080fd5b505af115801561019c573d6000803e3d6000fd5b5050505050565b6000805473ffffffffffffffffffffffffffffffffffffffff161561025c576000809054906101000a900473ffffffffffffffffffffffffffffffffffffffff1673ffffffffffffffffffffffffffffffffffffffff166329cb924d6040518163ffffffff1660e01b815260040160206040518083038186803b15801561022957600080fd5b505afa15801561023d573d6000803e3d6000fd5b505050506040513d602081101561025357600080fd5b5051905061025f565b50425b90565b60008061026d6101a3565b92429250905056fea264697066735822122077ffed2fe9a09cefb7b3c743b446bbd112ecf0c0b593ee0f07072129b38765de64736f6c634300060a0033",
  "immutableReferences": {},
  "source": "pragma solidity ^0.6.0;\n\nimport \"../implementation/Testable.sol\";\n\n\n// TestableTest is derived from the abstract contract Testable for testing purposes.\ncontract TestableTest is Testable {\n    // solhint-disable-next-line no-empty-blocks\n    constructor(address _timerAddress) public Testable(_timerAddress) {}\n\n    function getTestableTimeAndBlockTime() external view returns (uint256 testableTime, uint256 blockTime) {\n        // solhint-disable-next-line not-rely-on-time\n        return (getCurrentTime(), now);\n    }\n}\n",
  "sourcePath": "/home/alessandrovm/JarvisLavoro/SynFiat/packages/contracts/contracts/uma-contracts/common/test/TestableTest.sol",
  "compiler": {
    "name": "solc",
    "version": "0.6.10+commit.00c0fcaf.Emscripten.clang"
  },
  "schemaVersion": "3.2.5",
  "updatedAt": "2020-10-22T14:01:04.256Z",
  "devdoc": {
    "methods": {
      "getCurrentTime()": {
        "returns": {
          "_0": "uint for the current Testable timestamp."
        }
      },
      "setCurrentTime(uint256)": {
        "details": "Will revert if not running in test mode.",
        "params": {
          "time": "timestamp to set current Testable time to."
        }
      }
    }
  },
  "userdoc": {
    "methods": {
      "getCurrentTime()": {
        "notice": "Gets the current time. Will return the last time set in `setCurrentTime` if running in test mode. Otherwise, it will return the block timestamp."
      },
      "setCurrentTime(uint256)": {
        "notice": "Sets the current time."
      }
    }
  }
}