{
  "contractName": "TICFactory",
  "abi": [
    {
      "inputs": [
        {
          "components": [
            {
              "internalType": "address",
              "name": "admin",
              "type": "address"
            },
            {
              "internalType": "address",
              "name": "maintainer",
              "type": "address"
            }
          ],
          "internalType": "struct TICFactory.Roles",
          "name": "_roles",
          "type": "tuple"
        },
        {
          "internalType": "contract ExpiringMultiPartyCreator",
          "name": "_derivativeCreator",
          "type": "address"
        }
      ],
      "stateMutability": "nonpayable",
      "type": "constructor"
    },
    {
      "anonymous": false,
      "inputs": [
        {
          "indexed": true,
          "internalType": "bytes32",
          "name": "role",
          "type": "bytes32"
        },
        {
          "indexed": true,
          "internalType": "address",
          "name": "account",
          "type": "address"
        },
        {
          "indexed": true,
          "internalType": "address",
          "name": "sender",
          "type": "address"
        }
      ],
      "name": "RoleGranted",
      "type": "event"
    },
    {
      "anonymous": false,
      "inputs": [
        {
          "indexed": true,
          "internalType": "bytes32",
          "name": "role",
          "type": "bytes32"
        },
        {
          "indexed": true,
          "internalType": "address",
          "name": "account",
          "type": "address"
        },
        {
          "indexed": true,
          "internalType": "address",
          "name": "sender",
          "type": "address"
        }
      ],
      "name": "RoleRevoked",
      "type": "event"
    },
    {
      "inputs": [],
      "name": "DEFAULT_ADMIN_ROLE",
      "outputs": [
        {
          "internalType": "bytes32",
          "name": "",
          "type": "bytes32"
        }
      ],
      "stateMutability": "view",
      "type": "function",
      "constant": true
    },
    {
      "inputs": [],
      "name": "MAINTAINER_ROLE",
      "outputs": [
        {
          "internalType": "bytes32",
          "name": "",
          "type": "bytes32"
        }
      ],
      "stateMutability": "view",
      "type": "function",
      "constant": true
    },
    {
      "inputs": [
        {
          "internalType": "bytes32",
          "name": "role",
          "type": "bytes32"
        }
      ],
      "name": "getRoleAdmin",
      "outputs": [
        {
          "internalType": "bytes32",
          "name": "",
          "type": "bytes32"
        }
      ],
      "stateMutability": "view",
      "type": "function",
      "constant": true
    },
    {
      "inputs": [
        {
          "internalType": "bytes32",
          "name": "role",
          "type": "bytes32"
        },
        {
          "internalType": "uint256",
          "name": "index",
          "type": "uint256"
        }
      ],
      "name": "getRoleMember",
      "outputs": [
        {
          "internalType": "address",
          "name": "",
          "type": "address"
        }
      ],
      "stateMutability": "view",
      "type": "function",
      "constant": true
    },
    {
      "inputs": [
        {
          "internalType": "bytes32",
          "name": "role",
          "type": "bytes32"
        }
      ],
      "name": "getRoleMemberCount",
      "outputs": [
        {
          "internalType": "uint256",
          "name": "",
          "type": "uint256"
        }
      ],
      "stateMutability": "view",
      "type": "function",
      "constant": true
    },
    {
      "inputs": [
        {
          "internalType": "bytes32",
          "name": "role",
          "type": "bytes32"
        },
        {
          "internalType": "address",
          "name": "account",
          "type": "address"
        }
      ],
      "name": "grantRole",
      "outputs": [],
      "stateMutability": "nonpayable",
      "type": "function"
    },
    {
      "inputs": [
        {
          "internalType": "bytes32",
          "name": "role",
          "type": "bytes32"
        },
        {
          "internalType": "address",
          "name": "account",
          "type": "address"
        }
      ],
      "name": "hasRole",
      "outputs": [
        {
          "internalType": "bool",
          "name": "",
          "type": "bool"
        }
      ],
      "stateMutability": "view",
      "type": "function",
      "constant": true
    },
    {
      "inputs": [
        {
          "internalType": "bytes32",
          "name": "role",
          "type": "bytes32"
        },
        {
          "internalType": "address",
          "name": "account",
          "type": "address"
        }
      ],
      "name": "renounceRole",
      "outputs": [],
      "stateMutability": "nonpayable",
      "type": "function"
    },
    {
      "inputs": [
        {
          "internalType": "bytes32",
          "name": "role",
          "type": "bytes32"
        },
        {
          "internalType": "address",
          "name": "account",
          "type": "address"
        }
      ],
      "name": "revokeRole",
      "outputs": [],
      "stateMutability": "nonpayable",
      "type": "function"
    },
    {
      "inputs": [
        {
          "internalType": "string",
          "name": "",
          "type": "string"
        }
      ],
      "name": "symbolToTIC",
      "outputs": [
        {
          "internalType": "contract TIC",
          "name": "",
          "type": "address"
        }
      ],
      "stateMutability": "view",
      "type": "function",
      "constant": true
    },
    {
      "inputs": [
        {
          "components": [
            {
              "internalType": "uint256",
              "name": "expirationTimestamp",
              "type": "uint256"
            },
            {
              "internalType": "address",
              "name": "collateralAddress",
              "type": "address"
            },
            {
              "internalType": "bytes32",
              "name": "priceFeedIdentifier",
              "type": "bytes32"
            },
            {
              "internalType": "string",
              "name": "syntheticName",
              "type": "string"
            },
            {
              "internalType": "string",
              "name": "syntheticSymbol",
              "type": "string"
            },
            {
              "components": [
                {
                  "internalType": "uint256",
                  "name": "rawValue",
                  "type": "uint256"
                }
              ],
              "internalType": "struct FixedPoint.Unsigned",
              "name": "collateralRequirement",
              "type": "tuple"
            },
            {
              "components": [
                {
                  "internalType": "uint256",
                  "name": "rawValue",
                  "type": "uint256"
                }
              ],
              "internalType": "struct FixedPoint.Unsigned",
              "name": "disputeBondPct",
              "type": "tuple"
            },
            {
              "components": [
                {
                  "internalType": "uint256",
                  "name": "rawValue",
                  "type": "uint256"
                }
              ],
              "internalType": "struct FixedPoint.Unsigned",
              "name": "sponsorDisputeRewardPct",
              "type": "tuple"
            },
            {
              "components": [
                {
                  "internalType": "uint256",
                  "name": "rawValue",
                  "type": "uint256"
                }
              ],
              "internalType": "struct FixedPoint.Unsigned",
              "name": "disputerDisputeRewardPct",
              "type": "tuple"
            },
            {
              "components": [
                {
                  "internalType": "uint256",
                  "name": "rawValue",
                  "type": "uint256"
                }
              ],
              "internalType": "struct FixedPoint.Unsigned",
              "name": "minSponsorTokens",
              "type": "tuple"
            },
            {
              "internalType": "uint256",
              "name": "withdrawalLiveness",
              "type": "uint256"
            },
            {
              "internalType": "uint256",
              "name": "liquidationLiveness",
              "type": "uint256"
            },
            {
              "internalType": "address",
              "name": "excessTokenBeneficiary",
              "type": "address"
            }
          ],
          "internalType": "struct ExpiringMultiPartyCreator.Params",
          "name": "params",
          "type": "tuple"
        },
        {
          "internalType": "uint256",
          "name": "startingCollateralization",
          "type": "uint256"
        },
        {
          "components": [
            {
              "internalType": "address",
              "name": "admin",
              "type": "address"
            },
            {
              "internalType": "address",
              "name": "maintainer",
              "type": "address"
            },
            {
              "internalType": "address",
              "name": "liquidityProvider",
              "type": "address"
            },
            {
              "internalType": "address",
              "name": "validator",
              "type": "address"
            }
          ],
          "internalType": "struct TICInterface.Roles",
          "name": "roles",
          "type": "tuple"
        },
        {
          "components": [
            {
              "components": [
                {
                  "internalType": "uint256",
                  "name": "rawValue",
                  "type": "uint256"
                }
              ],
              "internalType": "struct FixedPoint.Unsigned",
              "name": "feePercentage",
              "type": "tuple"
            },
            {
              "internalType": "address[]",
              "name": "feeRecipients",
              "type": "address[]"
            },
            {
              "internalType": "uint32[]",
              "name": "feeProportions",
              "type": "uint32[]"
            }
          ],
          "internalType": "struct TICInterface.Fee",
          "name": "fee",
          "type": "tuple"
        }
      ],
      "name": "createTIC",
      "outputs": [],
      "stateMutability": "nonpayable",
      "type": "function"
    }
  ],
  "bytecode": "0x60806040523480156200001157600080fd5b506040516200562538038062005625833981016040819052620000349162000244565b6001805460ff191681179055620000566000806001600160e01b03620000f716565b620000826040516200006890620002cb565b60405190819003902060006001600160e01b03620000f716565b81516200009b906000906001600160e01b036200010c16565b620000ca604051620000ad90620002cb565b60405190819003902060208401516001600160e01b036200010c16565b600180546001600160a01b0390921661010002610100600160a81b031990921691909117905550620002fa565b60009182526020829052604090912060020155565b6200012182826001600160e01b036200012516565b5050565b6000828152602081815260409091206200014a918390620006ed620001a7821b17901c565b156200012157620001636001600160e01b03620001d016565b6001600160a01b0316816001600160a01b0316837f2f8788117e7eff1d82e926ec794901d17c78024a50270940304540a733656f0d60405160405180910390a45050565b6000620001c7836001600160a01b0384166001600160e01b03620001d416565b90505b92915050565b3390565b6000620001eb83836001600160e01b036200022c16565b6200022357508154600181810184556000848152602080822090930184905584548482528286019093526040902091909155620001ca565b506000620001ca565b60009081526001919091016020526040902054151590565b600080828403606081121562000258578283fd5b604081121562000266578283fd5b50604080519081016001600160401b038111828210171562000286578384fd5b60405283516200029681620002e1565b81526020840151620002a881620002e1565b60208201526040840151909250620002c081620002e1565b809150509250929050565b6926b0b4b73a30b4b732b960b11b8152600a0190565b6001600160a01b0381168114620002f757600080fd5b50565b61531b806200030a6000396000f3fe60806040523480156200001157600080fd5b5060043610620000dc5760003560e01c806391d14854116200008d578063d547741f1162000063578063d547741f14620001c4578063eabf392214620001db578063f874225414620001f257620000dc565b806391d14854146200017d578063a217fddf14620001a3578063ca15c87314620001ad57620000dc565b80632f2ff15d11620000c35780632f2ff15d146200012957806336568abe14620001405780639010d07c146200015757620000dc565b80630dd68f0114620000e1578063248a9ca314620000fa575b600080fd5b620000f8620000f236600462000bd0565b620001fc565b005b620001116200010b36600462000aa2565b620004e4565b60405162000120919062000d7f565b60405180910390f35b620000f86200013a36600462000abb565b620004f9565b620000f86200015136600462000abb565b62000563565b6200016e6200016836600462000aed565b620005e0565b60405162000120919062000d53565b620001946200018e36600462000abb565b62000609565b60405162000120919062000d74565b6200011162000629565b62000111620001be36600462000aa2565b6200062e565b620000f8620001d536600462000abb565b62000647565b6200016e620001ec36600462000b0f565b620006a1565b62000111620006d4565b6200021d6040516200020e9062000d2a565b60405180910390203362000609565b6200025f576040517f08c379a0000000000000000000000000000000000000000000000000000000008152600401620002569062000fcf565b60405180910390fd5b60015460ff166200029e576040517f08c379a000000000000000000000000000000000000000000000000000000000815260040162000256906200109a565b600180547fffffffffffffffffffffffffffffffffffffffffffffffffffffffffffffff0016905560006002620002d960808701876200127e565b604051620002e992919062000d1a565b9081526040519081900360200190205473ffffffffffffffffffffffffffffffffffffffff161462000349576040517f08c379a0000000000000000000000000000000000000000000000000000000008152600401620002569062001063565b6001546040517fde467268000000000000000000000000000000000000000000000000000000008152600091610100900473ffffffffffffffffffffffffffffffffffffffff169063de46726890620003a79088906004016200112e565b602060405180830381600087803b158015620003c257600080fd5b505af1158015620003d7573d6000803e3d6000fd5b505050506040513d601f19601f82011682018060405250810190620003fd919062000a7c565b905080838584604051620004119062000a4c565b62000420949392919062000d88565b604051809103906000f0801580156200043d573d6000803e3d6000fd5b5060026200044f60808801886200127e565b6040516200045f92919062000d1a565b908152604051908190036020019020805473ffffffffffffffffffffffffffffffffffffffff929092167fffffffffffffffffffffffff00000000000000000000000000000000000000009092169190911790555050600180547fffffffffffffffffffffffffffffffffffffffffffffffffffffffffffffff001681179055505050565b60009081526020819052604090206002015490565b6000828152602081905260409020600201546200051a906200018e62000711565b62000553576040517f08c379a0000000000000000000000000000000000000000000000000000000008152600401620002569062000f72565b6200055f828262000715565b5050565b6200056d62000711565b73ffffffffffffffffffffffffffffffffffffffff168173ffffffffffffffffffffffffffffffffffffffff1614620005d4576040517f08c379a00000000000000000000000000000000000000000000000000000000081526004016200025690620010d1565b6200055f8282620007a3565b600082815260208190526040812062000600908363ffffffff6200083116565b90505b92915050565b600082815260208190526040812062000600908363ffffffff6200083f16565b600081565b6000818152602081905260408120620006039062000863565b60008281526020819052604090206002015462000668906200018e62000711565b620005d4576040517f08c379a0000000000000000000000000000000000000000000000000000000008152600401620002569062001006565b805160208183018101805160028252928201919093012091525473ffffffffffffffffffffffffffffffffffffffff1681565b604051620006e29062000d2a565b604051809103902081565b6000620006008373ffffffffffffffffffffffffffffffffffffffff841662000870565b3390565b600082815260208190526040902062000735908263ffffffff620006ed16565b156200055f576200074562000711565b73ffffffffffffffffffffffffffffffffffffffff168173ffffffffffffffffffffffffffffffffffffffff16837f2f8788117e7eff1d82e926ec794901d17c78024a50270940304540a733656f0d60405160405180910390a45050565b6000828152602081905260409020620007c3908263ffffffff620008bf16565b156200055f57620007d362000711565b73ffffffffffffffffffffffffffffffffffffffff168173ffffffffffffffffffffffffffffffffffffffff16837ff6391f5c32d9c69d2a47ea670b442974b53935d1edc7fd64eb21e047a839171b60405160405180910390a45050565b6000620006008383620008e3565b6000620006008373ffffffffffffffffffffffffffffffffffffffff841662000946565b600062000603826200095e565b60006200087e838362000946565b620008b65750815460018181018455600084815260208082209093018490558454848252828601909352604090209190915562000603565b50600062000603565b6000620006008373ffffffffffffffffffffffffffffffffffffffff841662000962565b8154600090821062000923576040517f08c379a0000000000000000000000000000000000000000000000000000000008152600401620002569062000f15565b8260000182815481106200093357fe5b9060005260206000200154905092915050565b60009081526001919091016020526040902054151590565b5490565b6000818152600183016020526040812054801562000a415783547fffffffffffffffffffffffffffffffffffffffffffffffffffffffffffffffff8083019190810190600090879083908110620009b557fe5b9060005260206000200154905080876000018481548110620009d357fe5b60009182526020808320909101929092558281526001898101909252604090209084019055865487908062000a0457fe5b6001900381819060005260206000200160009055905586600101600087815260200190815260200160002060009055600194505050505062000603565b600091505062000603565b613ee880620013fe83390190565b80356200060381620013d7565b803563ffffffff811681146200060357600080fd5b60006020828403121562000a8e578081fd5b815162000a9b81620013d7565b9392505050565b60006020828403121562000ab4578081fd5b5035919050565b6000806040838503121562000ace578081fd5b82359150602083013562000ae281620013d7565b809150509250929050565b6000806040838503121562000b00578182fd5b50508035926020909101359150565b60006020828403121562000b21578081fd5b813567ffffffffffffffff8082111562000b39578283fd5b81840185601f82011262000b4b578384fd5b803592508183111562000b5c578384fd5b60405160207fffffffffffffffffffffffffffffffffffffffffffffffffffffffffffffffe0601f860116820101818110848211171562000b9b578586fd5b60405283815281840160200187101562000bb3578485fd5b62000bc6846020830160208501620013cb565b9695505050505050565b60008060008084860360e081121562000be7578283fd5b853567ffffffffffffffff8082111562000bff578485fd5b8188016101a0818b03121562000c13578586fd5b96506020880135955060807fffffffffffffffffffffffffffffffffffffffffffffffffffffffffffffffc08401121562000c4c578485fd5b60408801945060c088013592508083111562000c66578384fd5b50508086016060818903121562000c7b578283fd5b94979396509194505050565b73ffffffffffffffffffffffffffffffffffffffff16815260200190565b63ffffffff16815260200190565b73ffffffffffffffffffffffffffffffffffffffff169052565b600082845282826020860137806020848601015260207fffffffffffffffffffffffffffffffffffffffffffffffffffffffffffffffe0601f85011685010190509392505050565b359052565b6000828483379101908152919050565b7f4d61696e7461696e6572000000000000000000000000000000000000000000008152600a0190565b73ffffffffffffffffffffffffffffffffffffffff91909116815260200190565b901515815260200190565b90815260200190565b600073ffffffffffffffffffffffffffffffffffffffff80871683526020863562000db381620013d7565b8216848201528681013562000dc881620013d7565b828116604086015250604087013562000de181620013d7565b828116606086015250606087013562000dfa81620013d7565b8281166080860152508560a085015260e060c085015261014084019150843560e085015262000e2c81860186620012fc565b60606101008701528362000e41828662000d7f565b929450859290505b8183101562000e7e5783850162000e6c8262000e66838962000a5a565b62000c87565b91508095505060018301925062000e49565b62000e8d6040890189620012fc565b955092507fffffffffffffffffffffffffffffffffffffffffffffffffffffffffffffff208782030161012088015280915062000ecb858262000d7f565b915050818592505b8483101562000f075783810162000ef68362000ef0838562000a67565b62000ca5565b600194909401939250905062000ed3565b509998505050505050505050565b60208082526022908201527f456e756d657261626c655365743a20696e646578206f7574206f6620626f756e60408201527f6473000000000000000000000000000000000000000000000000000000000000606082015260800190565b6020808252602f908201527f416363657373436f6e74726f6c3a2073656e646572206d75737420626520616e60408201527f2061646d696e20746f206772616e740000000000000000000000000000000000606082015260800190565b6020808252601d908201527f53656e646572206d75737420626520746865206d61696e7461696e6572000000604082015260600190565b60208082526030908201527f416363657373436f6e74726f6c3a2073656e646572206d75737420626520616e60408201527f2061646d696e20746f207265766f6b6500000000000000000000000000000000606082015260800190565b60208082526012908201527f54494320616c7265616479206578697374730000000000000000000000000000604082015260600190565b6020808252601f908201527f5265656e7472616e637947756172643a207265656e7472616e742063616c6c00604082015260600190565b6020808252602f908201527f416363657373436f6e74726f6c3a2063616e206f6e6c792072656e6f756e636560408201527f20726f6c657320666f722073656c660000000000000000000000000000000000606082015260800190565b600060208252823560208301526200114a6020840184620012ed565b62001159604084018262000cb3565b506040830135606083015262001173606084018462001365565b6101a08060808601526200118d6101c08601838562000ccd565b6200119c608088018862001365565b945092507fffffffffffffffffffffffffffffffffffffffffffffffffffffffffffffffe08682030160a0870152620011d781858562000ccd565b620011e960c0880160a08a0162000d15565b620011fb60e0880160c08a0162000d15565b61010094506200121185880160e08a0162000d15565b610120935062001226848801868a0162000d15565b61014094506200123b858801858a0162000d15565b61016093508488013584880152610180945083880135858801526200126385890189620012ed565b9350620012738388018562000cb3565b979650505050505050565b60008083357fffffffffffffffffffffffffffffffffffffffffffffffffffffffffffffffe1843603018112620012b3578283fd5b8084018035925067ffffffffffffffff831115620012cf578384fd5b60200192505036819003821315620012e657600080fd5b9250929050565b6000823562000a9b81620013d7565b60008083357fffffffffffffffffffffffffffffffffffffffffffffffffffffffffffffffe184360301811262001331578283fd5b830160208101925035905067ffffffffffffffff8111156200135257600080fd5b602081023603831315620012e657600080fd5b60008083357fffffffffffffffffffffffffffffffffffffffffffffffffffffffffffffffe18436030181126200139a578283fd5b830160208101925035905067ffffffffffffffff811115620013bb57600080fd5b803603831315620012e657600080fd5b82818337506000910152565b73ffffffffffffffffffffffffffffffffffffffff81168114620013fa57600080fd5b5056fe60806040523480156200001157600080fd5b5060405162003ee838038062003ee883398101604081905262000034916200069d565b6001805460ff191681179081905560ff166200006d5760405162461bcd60e51b8152600401620000649062000879565b60405180910390fd5b6001805460ff191690556200008d6000806001600160e01b036200024c16565b620000b96040516200009f9062000798565b60405190819003902060006001600160e01b036200024c16565b620000cb6040516200009f90620007c3565b620000dd6040516200009f90620007ae565b8251620000f6906000906001600160e01b036200026116565b62000125604051620001089062000798565b60405190819003902060208501516001600160e01b036200026116565b620001506040516200013790620007c3565b604051809103902084604001516200026160201b60201c565b6200017f6040516200016290620007ae565b60405190819003902060608501516001600160e01b036200026116565b60408084015160608501518251602081018452858152925163c6665fb760e01b815273__TICHelper_____________________________9363c6665fb793620001d1936002938b939060040162000955565b60006040518083038186803b158015620001ea57600080fd5b505af4158015620001ff573d6000803e3d6000fd5b50508251516200021b925090506001600160e01b036200027a16565b62000235816020015182604001516200032e60201b60201c565b50506001805460ff19168117905550620009fc9050565b60009182526020829052604090912060020155565b6200027682826001600160e01b03620003dd16565b5050565b604080516020810182528281529051630148e77760e71b815273__TICHelper_____________________________9163a473bb8091620002c09160029160040162000984565b60006040518083038186803b158015620002d957600080fd5b505af4158015620002ee573d6000803e3d6000fd5b505050507fcc8e0d099b6b6a1a4ae089dec1b2c29e7df166eb8f103f55064427f6e4596b098160405162000323919062000993565b60405180910390a150565b6040516313ef979560e31b815273__TICHelper_____________________________90639f7cbca8906200036c9060029086908690600401620008b0565b60006040518083038186803b1580156200038557600080fd5b505af41580156200039a573d6000803e3d6000fd5b505050507f4d057bb49ffe067b03cb2120171a7e6decac5c2dbb5d8c2735813a27941706ef8282604051620003d1929190620007e1565b60405180910390a15050565b60008281526020818152604090912062000402918390620022cd6200045f821b17901c565b1562000276576200041b6001600160e01b036200048816565b6001600160a01b0316816001600160a01b0316837f2f8788117e7eff1d82e926ec794901d17c78024a50270940304540a733656f0d60405160405180910390a45050565b60006200047f836001600160a01b0384166001600160e01b036200048c16565b90505b92915050565b3390565b6000620004a383836001600160e01b03620004e416565b620004db5750815460018181018455600084815260208082209093018490558454848252828601909352604090209190915562000482565b50600062000482565b60009081526001919091016020526040902054151590565b80516200048281620009e3565b600082601f8301126200051a578081fd5b8151620005316200052b82620009c3565b6200099c565b8181529150602080830190848101818402860182018710156200055357600080fd5b6000805b858110156200058757825163ffffffff8116811462000574578283fd5b8552938301939183019160010162000557565b50505050505092915050565b60008183036060811215620005a6578182fd5b620005b260606200099c565b9150602080821215620005c457600080fd5b620005cf816200099c565b8451815283528084015191506001600160401b0380831115620005f157600080fd5b82850186601f8201126200060457600080fd5b80519350620006176200052b85620009c3565b84815283810190828501858702840186018a10156200063557600080fd5b600093505b86841015620006655780516200065081620009e3565b8352600193909301929185019185016200063a565b5086850152505060408501519250808311156200068157600080fd5b5050620006918482850162000509565b60408301525092915050565b60008060008084860360e0811215620006b4578485fd5b8551620006c181620009e3565b94506080601f1982011215620006d5578384fd5b50620006e260806200099c565b620006f18760208801620004fc565b8152620007028760408801620004fc565b6020820152620007168760608801620004fc565b60408201526200072a8760808801620004fc565b606082015260a086015160c087015191945092506001600160401b0381111562000752578182fd5b620007608782880162000593565b91505092959194509250565b6001600160a01b0316815260200190565b63ffffffff16815260200190565b6001600160a01b03169052565b6926b0b4b73a30b4b732b960b11b8152600a0190565b682b30b634b230ba37b960b91b815260090190565b712634b8bab4b234ba3c90283937bb34b232b960711b815260120190565b604080825283519082018190526000906020906060840190828701845b828110156200082557620008148483516200078b565b9284019290840190600101620007fe565b505050838103828501528085516200083e818462000993565b91508387019250845b818110156200086c576200085d8385516200077d565b93850193925060010162000847565b5090979650505050505050565b6020808252601f908201527f5265656e7472616e637947756172643a207265656e7472616e742063616c6c00604082015260600190565b6000606082018583526020606081850152818651620008d0818562000993565b91508288019350845b81811015620008fe57620008ef8386516200076c565b948401949250600101620008d9565b50508481036040860152809250855162000919818362000993565b93508287019150845b818110156200094757620009388584516200077d565b94509183019160010162000922565b509298975050505050505050565b9485526001600160a01b0393841660208601529183166040850152909116606083015251608082015260a00190565b91825251602082015260400190565b90815260200190565b6040518181016001600160401b0381118282101715620009bb57600080fd5b604052919050565b60006001600160401b03821115620009d9578081fd5b5060209081020190565b6001600160a01b0381168114620009f957600080fd5b50565b6134dc8062000a0c6000396000f3fe608060405234801561001057600080fd5b50600436106102775760003560e01c80638be76e0111610160578063b5e40390116100d8578063cca3595a1161008c578063eb9ce16311610071578063eb9ce163146104eb578063f8742254146104f3578063fcccedc7146104fb57610277565b8063cca3595a146104c5578063d547741f146104d857610277565b8063b72d8ce9116100bd578063b72d8ce914610497578063c49baebe146104aa578063ca15c873146104b257610277565b8063b5e4039014610471578063b6b55f251461048457610277565b806399a5d7471161012f578063a217fddf11610114578063a217fddf1461044e578063ae06c1b714610456578063b2016bd41461046957610277565b806399a5d747146104285780639a8ca7df1461043b57610277565b80638be76e01146103cf5780639010d07c146103e257806391d14854146103f5578063998fccc51461041557610277565b806336568abe116101f357806354f50b11116101c257806374899a7e116101a757806374899a7e146103a15780637c3970f2146103b45780638230ecd6146103c757610277565b806354f50b111461037b5780637242b9fc1461038e57610277565b806336568abe1461032f57806336a99ebd1461034257806350539aa81461035557806353c34f021461036857610277565b806320037cdd1161024a5780632e1a7d4d1161022f5780632e1a7d4d146103015780632f2ff15d1461031457806333a46ca21461032757610277565b806320037cdd146102d9578063248a9ca3146102ee57610277565b80630e3e7ba71461027c57806311adda7b1461029a578063139d006c146102af5780631985a89f146102c4575b600080fd5b610284610503565b6040516102919190612f80565b60405180910390f35b6102ad6102a8366004612cba565b6105ce565b005b6102b76106da565b6040516102919190612ee0565b6102cc6107a0565b6040516102919190612e31565b6102e16107bc565b6040516102919190613004565b6102e16102fc366004612be4565b6107d3565b6102ad61030f366004612be4565b6107e8565b6102ad610322366004612c14565b61094c565b6102ad6109ae565b6102ad61033d366004612c14565b610b04565b6102ad610350366004612be4565b610b7a565b6102ad610363366004612be4565b610d4e565b6102ad610376366004612be4565b610eed565b6102ad610389366004612be4565b61108c565b6102ad61039c366004612be4565b611193565b6102ad6103af366004612be4565b611331565b6102ad6103c2366004612c43565b611435565b6102cc6115da565b6102ad6103dd366004612c43565b61167d565b6102cc6103f0366004612c43565b6117eb565b610408610403366004612c14565b611812565b6040516102919190612ff9565b6102ad610423366004612be4565b611830565b6102e1610436366004612be4565b6119cf565b6102ad610449366004612c80565b611a03565b6102e1611bba565b6102ad610464366004612be4565b611bbf565b6102cc611c72565b6102ad61047f366004612aa7565b611c8e565b6102ad610492366004612be4565b611d70565b6102ad6104a5366004612be4565b611e77565b6102e1612016565b6102e16104c0366004612be4565b612022565b6102ad6104d3366004612c43565b612039565b6102ad6104e6366004612c14565b612164565b6102846121b8565b6102e161220c565b6102ad612218565b6040517f77a7fa9e00000000000000000000000000000000000000000000000000000000815260609073__TICHelper_____________________________906377a7fa9e9061055790600290600401613004565b60006040518083038186803b15801561056f57600080fd5b505af4158015610583573d6000803e3d6000fd5b505050506040513d6000823e601f3d9081017fffffffffffffffffffffffffffffffffffffffffffffffffffffffffffffffe01682016040526105c99190810190612ba9565b905090565b60015460ff16610613576040517f08c379a000000000000000000000000000000000000000000000000000000000815260040161060a906132a0565b60405180910390fd5b600180547fffffffffffffffffffffffffffffffffffffffffffffffffffffffffffffff001690556040516106599061064b90612db6565b604051809103902033611812565b61068f576040517f08c379a000000000000000000000000000000000000000000000000000000000815260040161060a906131af565b80515161069b906122ef565b6106ad816020015182604001516123b6565b50600180547fffffffffffffffffffffffffffffffffffffffffffffffffffffffffffffff001681179055565b6040517f4da5bc7b00000000000000000000000000000000000000000000000000000000815260609073__TICHelper_____________________________90634da5bc7b9061072e90600290600401613004565b60006040518083038186803b15801561074657600080fd5b505af415801561075a573d6000803e3d6000fd5b505050506040513d6000823e601f3d9081017fffffffffffffffffffffffffffffffffffffffffffffffffffffffffffffffe01682016040526105c99190810190612b08565b60025473ffffffffffffffffffffffffffffffffffffffff1690565b6040516107c890612e08565b604051809103902081565b60009081526020819052604090206002015490565b60015460ff16610824576040517f08c379a000000000000000000000000000000000000000000000000000000000815260040161060a906132a0565b600180547fffffffffffffffffffffffffffffffffffffffffffffffffffffffffffffff0016905560405161085c9061064b90612e08565b610892576040517f08c379a000000000000000000000000000000000000000000000000000000000815260040161060a90613152565b6040805160208101825282815290517faa67b60900000000000000000000000000000000000000000000000000000000815273__TICHelper_____________________________9163aa67b609916108ef91600291600401613415565b60006040518083038186803b15801561090757600080fd5b505af415801561091b573d6000803e3d6000fd5b5050600180547fffffffffffffffffffffffffffffffffffffffffffffffffffffffffffffff001681179055505050565b60008281526020819052604090206002015461096a90610403612478565b6109a0576040517f08c379a000000000000000000000000000000000000000000000000000000000815260040161060a906130be565b6109aa828261247c565b5050565b6109bd60405161064b90612e08565b6109f3576040517f08c379a000000000000000000000000000000000000000000000000000000000815260040161060a90613152565b60015460ff16610a2f576040517f08c379a000000000000000000000000000000000000000000000000000000000815260040161060a906132a0565b600180547fffffffffffffffffffffffffffffffffffffffffffffffffffffffffffffff001690556040517f1c647abd00000000000000000000000000000000000000000000000000000000815273__TICHelper_____________________________90631c647abd90610aa890600290600401613004565b60006040518083038186803b158015610ac057600080fd5b505af4158015610ad4573d6000803e3d6000fd5b5050600180547fffffffffffffffffffffffffffffffffffffffffffffffffffffffffffffff0016811790555050565b610b0c612478565b73ffffffffffffffffffffffffffffffffffffffff168173ffffffffffffffffffffffffffffffffffffffff1614610b70576040517f08c379a000000000000000000000000000000000000000000000000000000000815260040161060a906132d7565b6109aa8282612505565b610b8960405161064b90612ddf565b610bbf576040517f08c379a000000000000000000000000000000000000000000000000000000000815260040161060a9061311b565b60015460ff16610bfb576040517f08c379a000000000000000000000000000000000000000000000000000000000815260040161060a906132a0565b600180547fffffffffffffffffffffffffffffffffffffffffffffffffffffffffffffff001690556000818152600f60205260409081902060029081015491517ff2b66f0900000000000000000000000000000000000000000000000000000000815273ffffffffffffffffffffffffffffffffffffffff9092169173__TICHelper_____________________________9163f2b66f0991610ca2919086906004016133cd565b60006040518083038186803b158015610cba57600080fd5b505af4158015610cce573d6000803e3d6000fd5b505050508073ffffffffffffffffffffffffffffffffffffffff167fcfa4c7018a3b09267833d13734668d7325e5e99a9607b892d417207b058f20d383604051610d189190613004565b60405180910390a25050600180547fffffffffffffffffffffffffffffffffffffffffffffffffffffffffffffff001681179055565b60015460ff16610d8a576040517f08c379a000000000000000000000000000000000000000000000000000000000815260040161060a906132a0565b600180547fffffffffffffffffffffffffffffffffffffffffffffffffffffffffffffff00169055604051610dc29061064b90612ddf565b610df8576040517f08c379a000000000000000000000000000000000000000000000000000000000815260040161060a9061311b565b6000818152601260205260409081902060029081015491517f2368045a00000000000000000000000000000000000000000000000000000000815273ffffffffffffffffffffffffffffffffffffffff9092169173__TICHelper_____________________________91632368045a91610e77919086906004016133cd565b60006040518083038186803b158015610e8f57600080fd5b505af4158015610ea3573d6000803e3d6000fd5b505050508073ffffffffffffffffffffffffffffffffffffffff167ff8eaec7c1b7b19060d1594532caca20fa4cb9d60c5f61244fa2487f341a29f0f83604051610d189190613004565b60015460ff16610f29576040517f08c379a000000000000000000000000000000000000000000000000000000000815260040161060a906132a0565b600180547fffffffffffffffffffffffffffffffffffffffffffffffffffffffffffffff00169055604051610f619061064b90612ddf565b610f97576040517f08c379a000000000000000000000000000000000000000000000000000000000815260040161060a9061311b565b6000818152601260205260409081902060029081015491517fa56a6d5200000000000000000000000000000000000000000000000000000000815273ffffffffffffffffffffffffffffffffffffffff9092169173__TICHelper_____________________________9163a56a6d5291611016919086906004016133cd565b60006040518083038186803b15801561102e57600080fd5b505af4158015611042573d6000803e3d6000fd5b505050508073ffffffffffffffffffffffffffffffffffffffff167f5cdff20fff2ad36b72ea16dd9b7027f3d53880d2aa7c7f3b66404e9c1a14249383604051610d189190613004565b60015460ff166110c8576040517f08c379a000000000000000000000000000000000000000000000000000000000815260040161060a906132a0565b600180547fffffffffffffffffffffffffffffffffffffffffffffffffffffffffffffff001690556040516111009061064b90612e08565b611136576040517f08c379a000000000000000000000000000000000000000000000000000000000815260040161060a90613152565b6040805160208101825282815290517fb1e0763000000000000000000000000000000000000000000000000000000000815273__TICHelper_____________________________9163b1e07630916108ef91600291600401613415565b6111a260405161064b90612ddf565b6111d8576040517f08c379a000000000000000000000000000000000000000000000000000000000815260040161060a9061311b565b60015460ff16611214576040517f08c379a000000000000000000000000000000000000000000000000000000000815260040161060a906132a0565b600180547fffffffffffffffffffffffffffffffffffffffffffffffffffffffffffffff001690556000818152600f60205260409081902060029081015491517fad0bdda100000000000000000000000000000000000000000000000000000000815273ffffffffffffffffffffffffffffffffffffffff9092169173__TICHelper_____________________________9163ad0bdda1916112bb919086906004016133cd565b60006040518083038186803b1580156112d357600080fd5b505af41580156112e7573d6000803e3d6000fd5b505050508073ffffffffffffffffffffffffffffffffffffffff167fc1257c3422a2d5dd3e6112d41b825533c33b8a91bc88cffb2d298c30f1828fe583604051610d189190613004565b61134060405161064b90612e08565b611376576040517f08c379a000000000000000000000000000000000000000000000000000000000815260040161060a90613152565b60015460ff166113b2576040517f08c379a000000000000000000000000000000000000000000000000000000000815260040161060a906132a0565b600180547fffffffffffffffffffffffffffffffffffffffffffffffffffffffffffffff001690556040805160208101825282815290517e12b1f800000000000000000000000000000000000000000000000000000000815273__TICHelper_____________________________916212b1f8916108ef91600291600401613415565b60015460ff16611471576040517f08c379a000000000000000000000000000000000000000000000000000000000815260040161060a906132a0565b600180547fffffffffffffffffffffffffffffffffffffffffffffffffffffffffffffff0016905560408051602080820183528482528251908101835283815291517fb85fa0c200000000000000000000000000000000000000000000000000000000815260009273__TICHelper_____________________________9263b85fa0c2926115059260029291600401613424565b60206040518083038186803b15801561151d57600080fd5b505af4158015611531573d6000803e3d6000fd5b505050506040513d601f19601f820116820180604052508101906115559190612bfc565b90503373ffffffffffffffffffffffffffffffffffffffff167f1f2447cc38f55ebf1671418d6998b2d2f7774152ab993d79154e01e29d9bf677824286866040516115a39493929190613046565b60405180910390a25050600180547fffffffffffffffffffffffffffffffffffffffffffffffffffffffffffffff00168117905550565b600254604080517f7048594b000000000000000000000000000000000000000000000000000000008152905160009273ffffffffffffffffffffffffffffffffffffffff1691637048594b916004808301926020929190829003018186803b15801561164557600080fd5b505afa158015611659573d6000803e3d6000fd5b505050506040513d601f19601f820116820180604052508101906105c99190612c64565b60015460ff166116b9576040517f08c379a000000000000000000000000000000000000000000000000000000000815260040161060a906132a0565b600180547fffffffffffffffffffffffffffffffffffffffffffffffffffffffffffffff0016905560408051602080820183528482528251908101835283815291517f99ecc8ee00000000000000000000000000000000000000000000000000000000815260009273__TICHelper_____________________________926399ecc8ee9261174d9260029291600401613424565b60206040518083038186803b15801561176557600080fd5b505af4158015611779573d6000803e3d6000fd5b505050506040513d601f19601f8201168201806040525081019061179d9190612bfc565b90503373ffffffffffffffffffffffffffffffffffffffff167f98ce4331847829c3cdcf95d2ae4100212878081b653a6df89e3a76ab14ac8811824286866040516115a39493929190613046565b6000828152602081905260408120611809908363ffffffff61258e16565b90505b92915050565b6000828152602081905260408120611809908363ffffffff61259a16565b60015460ff1661186c576040517f08c379a000000000000000000000000000000000000000000000000000000000815260040161060a906132a0565b600180547fffffffffffffffffffffffffffffffffffffffffffffffffffffffffffffff001690556040516118a49061064b90612ddf565b6118da576040517f08c379a000000000000000000000000000000000000000000000000000000000815260040161060a9061311b565b6000818152600c60205260409081902060029081015491517fa923bc1200000000000000000000000000000000000000000000000000000000815273ffffffffffffffffffffffffffffffffffffffff9092169173__TICHelper_____________________________9163a923bc1291611959919086906004016133cd565b60006040518083038186803b15801561197157600080fd5b505af4158015611985573d6000803e3d6000fd5b505050508073ffffffffffffffffffffffffffffffffffffffff167f704f76cbfb948e81f51428a4981f0bbf366d86936d14fff8a7e1e65d3de929cb83604051610d189190613004565b6040805160208082018352600854825282519081019092528282526000916119fc9163ffffffff6125bc16565b5192915050565b60015460ff16611a3f576040517f08c379a000000000000000000000000000000000000000000000000000000000815260040161060a906132a0565b600180547fffffffffffffffffffffffffffffffffffffffffffffffffffffffffffffff001690556040805160208082018352858252825180820184528581528351918201845284825292517f7b05a4a900000000000000000000000000000000000000000000000000000000815260009373__TICHelper_____________________________93637b05a4a993611ae1936002938c939290916004016133db565b60206040518083038186803b158015611af957600080fd5b505af4158015611b0d573d6000803e3d6000fd5b505050506040513d601f19601f82011682018060405250810190611b319190612bfc565b90503373ffffffffffffffffffffffffffffffffffffffff167f7b50f5a35a69c552289956f6d3d7b0b90dc9dba083ad33fa8db602c6ed57f4c98242888887604051611b8195949392919061300d565b60405180910390a25050600180547fffffffffffffffffffffffffffffffffffffffffffffffffffffffffffffff001681179055505050565b600081565b60015460ff16611bfb576040517f08c379a000000000000000000000000000000000000000000000000000000000815260040161060a906132a0565b600180547fffffffffffffffffffffffffffffffffffffffffffffffffffffffffffffff00169055604051611c339061064b90612db6565b611c69576040517f08c379a000000000000000000000000000000000000000000000000000000000815260040161060a906131af565b6106ad816122ef565b60065473ffffffffffffffffffffffffffffffffffffffff1690565b60015460ff16611cca576040517f08c379a000000000000000000000000000000000000000000000000000000000815260040161060a906132a0565b600180547fffffffffffffffffffffffffffffffffffffffffffffffffffffffffffffff00169055604051611d029061064b90612db6565b611d38576040517f08c379a000000000000000000000000000000000000000000000000000000000815260040161060a906131af565b611d4282826123b6565b5050600180547fffffffffffffffffffffffffffffffffffffffffffffffffffffffffffffff001681179055565b60015460ff16611dac576040517f08c379a000000000000000000000000000000000000000000000000000000000815260040161060a906132a0565b600180547fffffffffffffffffffffffffffffffffffffffffffffffffffffffffffffff00169055604051611de49061064b90612e08565b611e1a576040517f08c379a000000000000000000000000000000000000000000000000000000000815260040161060a90613152565b6040805160208101825282815290517fed3395da00000000000000000000000000000000000000000000000000000000815273__TICHelper_____________________________9163ed3395da916108ef91600291600401613415565b60015460ff16611eb3576040517f08c379a000000000000000000000000000000000000000000000000000000000815260040161060a906132a0565b600180547fffffffffffffffffffffffffffffffffffffffffffffffffffffffffffffff00169055604051611eeb9061064b90612ddf565b611f21576040517f08c379a000000000000000000000000000000000000000000000000000000000815260040161060a9061311b565b6000818152600c60205260409081902060029081015491517f3f63703d00000000000000000000000000000000000000000000000000000000815273ffffffffffffffffffffffffffffffffffffffff9092169173__TICHelper_____________________________91633f63703d91611fa0919086906004016133cd565b60006040518083038186803b158015611fb857600080fd5b505af4158015611fcc573d6000803e3d6000fd5b505050508073ffffffffffffffffffffffffffffffffffffffff167fe415bcfb927e3eafa5ab377de7ddccc55dedc71ba85c6cfbadea6bf317435c8d83604051610d189190613004565b6040516107c890612ddf565b600081815260208190526040812061180c906125ff565b60015460ff16612075576040517f08c379a000000000000000000000000000000000000000000000000000000000815260040161060a906132a0565b600180547fffffffffffffffffffffffffffffffffffffffffffffffffffffffffffffff0016905560408051602080820183528482528251908101835283815291517fe3411dbc00000000000000000000000000000000000000000000000000000000815273__TICHelper_____________________________9263e3411dbc926121069260029290600401613424565b60006040518083038186803b15801561211e57600080fd5b505af4158015612132573d6000803e3d6000fd5b5050600180547fffffffffffffffffffffffffffffffffffffffffffffffffffffffffffffff00168117905550505050565b60008281526020819052604090206002015461218290610403612478565b610b70576040517f08c379a000000000000000000000000000000000000000000000000000000000815260040161060a906131e6565b6040517ffdd3eeb200000000000000000000000000000000000000000000000000000000815260609073__TICHelper_____________________________9063fdd3eeb29061055790600290600401613004565b6040516107c890612db6565b60015460ff16612254576040517f08c379a000000000000000000000000000000000000000000000000000000000815260040161060a906132a0565b600180547fffffffffffffffffffffffffffffffffffffffffffffffffffffffffffffff001690556040517f0827cff500000000000000000000000000000000000000000000000000000000815273__TICHelper_____________________________90630827cff590610aa890600290600401613004565b60006118098373ffffffffffffffffffffffffffffffffffffffff841661260a565b6040805160208101825282815290517fa473bb8000000000000000000000000000000000000000000000000000000000815273__TICHelper_____________________________9163a473bb809161234c91600291600401613415565b60006040518083038186803b15801561236457600080fd5b505af4158015612378573d6000803e3d6000fd5b505050507fcc8e0d099b6b6a1a4ae089dec1b2c29e7df166eb8f103f55064427f6e4596b09816040516123ab9190613004565b60405180910390a150565b6040517f9f7cbca800000000000000000000000000000000000000000000000000000000815273__TICHelper_____________________________90639f7cbca89061240b9060029086908690600401613334565b60006040518083038186803b15801561242357600080fd5b505af4158015612437573d6000803e3d6000fd5b505050507f4d057bb49ffe067b03cb2120171a7e6decac5c2dbb5d8c2735813a27941706ef828260405161246c929190612e52565b60405180910390a15050565b3390565b600082815260208190526040902061249a908263ffffffff6122cd16565b156109aa576124a7612478565b73ffffffffffffffffffffffffffffffffffffffff168173ffffffffffffffffffffffffffffffffffffffff16837f2f8788117e7eff1d82e926ec794901d17c78024a50270940304540a733656f0d60405160405180910390a45050565b6000828152602081905260409020612523908263ffffffff61265416565b156109aa57612530612478565b73ffffffffffffffffffffffffffffffffffffffff168173ffffffffffffffffffffffffffffffffffffffff16837ff6391f5c32d9c69d2a47ea670b442974b53935d1edc7fd64eb21e047a839171b60405160405180910390a45050565b60006118098383612676565b60006118098373ffffffffffffffffffffffffffffffffffffffff84166126d5565b6125c4612829565b6040805160208101909152825184518291670de0b6b3a7640000916125ee9163ffffffff6126ed16565b816125f557fe5b0490529392505050565b600061180c82612741565b600061261683836126d5565b61264c5750815460018181018455600084815260208082209093018490558454848252828601909352604090209190915561180c565b50600061180c565b60006118098373ffffffffffffffffffffffffffffffffffffffff8416612745565b815460009082106126b3576040517f08c379a000000000000000000000000000000000000000000000000000000000815260040161060a90613061565b8260000182815481106126c257fe5b9060005260206000200154905092915050565b60009081526001919091016020526040902054151590565b6000826126fc5750600061180c565b8282028284828161270957fe5b0414611809576040517f08c379a000000000000000000000000000000000000000000000000000000000815260040161060a90613243565b5490565b6000818152600183016020526040812054801561281f5783547fffffffffffffffffffffffffffffffffffffffffffffffffffffffffffffffff808301919081019060009087908390811061279657fe5b90600052602060002001549050808760000184815481106127b357fe5b6000918252602080832090910192909255828152600189810190925260409020908401905586548790806127e357fe5b6001900381819060005260206000200160009055905586600101600087815260200190815260200160002060009055600194505050505061180c565b600091505061180c565b6040518060200160405280600081525090565b600082601f83011261284c578081fd5b813561285f61285a82613461565b61343a565b81815291506020808301908481018184028601820187101561288057600080fd5b60005b848110156128a857813561289681613481565b84529282019290820190600101612883565b505050505092915050565b600082601f8301126128c3578081fd5b81516128d161285a82613461565b818152915060208083019084810160a0808502870183018810156128f457600080fd5b6000805b8681101561296c5782848b03121561290e578182fd5b6129178361343a565b84518152858501518682015260408086015161293281613481565b9082015260606129448c878301612a82565b9082015260806129568c878301612a82565b90820152865294840194928201926001016128f8565b5050505050505092915050565b600082601f830112612989578081fd5b813561299761285a82613461565b8181529150602080830190848101818402860182018710156129b857600080fd5b6000805b858110156129e957823563ffffffff811681146129d7578283fd5b855293830193918301916001016129bc565b50505050505092915050565b600060e08284031215612a06578081fd5b612a1060e061343a565b905081518152602082015160208201526040820151612a2e81613481565b60408201526060820151612a4181613481565b6060820152612a538360808401612a82565b6080820152612a658360a08401612a82565b60a0820152612a778360c08401612a82565b60c082015292915050565b600060208284031215612a93578081fd5b612a9d602061343a565b9151825250919050565b60008060408385031215612ab9578182fd5b823567ffffffffffffffff80821115612ad0578384fd5b612adc8683870161283c565b93506020850135915080821115612af1578283fd5b50612afe85828601612979565b9150509250929050565b60006020808385031215612b1a578182fd5b825167ffffffffffffffff811115612b30578283fd5b80840185601f820112612b41578384fd5b80519150612b5161285a83613461565b8281528381019082850160e0808602850187018a1015612b6f578788fd5b8794505b85851015612b9b57612b858a836129f5565b8452600194909401939286019290810190612b73565b509098975050505050505050565b600060208284031215612bba578081fd5b815167ffffffffffffffff811115612bd0578182fd5b612bdc848285016128b3565b949350505050565b600060208284031215612bf5578081fd5b5035919050565b600060208284031215612c0d578081fd5b5051919050565b60008060408385031215612c26578182fd5b823591506020830135612c3881613481565b809150509250929050565b60008060408385031215612c55578182fd5b50508035926020909101359150565b600060208284031215612c75578081fd5b815161180981613481565b60008060008060808587031215612c95578182fd5b8435612ca081613481565b966020860135965060408601359560600135945092505050565b600060208284031215612ccb578081fd5b813567ffffffffffffffff80821115612ce2578283fd5b81840180860392506060831215612cf7578384fd5b612d01606061343a565b6020841215612d0e578485fd5b612d18602061343a565b8235815281526020820135935082841115612d31578485fd5b612d3d8785840161283c565b60208201526040820135935082841115612d55578485fd5b612d6187858401612979565b60408201529695505050505050565b73ffffffffffffffffffffffffffffffffffffffff16815260200190565b63ffffffff16815260200190565b73ffffffffffffffffffffffffffffffffffffffff169052565b7f4d61696e7461696e6572000000000000000000000000000000000000000000008152600a0190565b7f56616c696461746f720000000000000000000000000000000000000000000000815260090190565b7f4c69717569646974792050726f76696465720000000000000000000000000000815260120190565b73ffffffffffffffffffffffffffffffffffffffff91909116815260200190565b604080825283519082018190526000906020906060840190828701845b82811015612e9257612e82848351612d9c565b9284019290840190600101612e6f565b50505083810382850152808551612ea98184613004565b91508387019250845b81811015612ed357612ec5838551612d8e565b938501939250600101612eb2565b5090979650505050505050565b602080825282518282018190526000919060409081850190868401855b82811015612f735781518051855286810151878601528581015173ffffffffffffffffffffffffffffffffffffffff9081168787015260608083015190911690860152608080820151519086015260a080820151519086015260c090810151519085015260e09093019290850190600101612efd565b5091979650505050505050565b602080825282518282018190526000919060409081850190868401855b82811015612f735781518051855286810151878601528581015173ffffffffffffffffffffffffffffffffffffffff16868601526060808201515190860152608090810151519085015260a09093019290850190600101612f9d565b901515815260200190565b90815260200190565b948552602085019390935273ffffffffffffffffffffffffffffffffffffffff9190911660408401526060830152608082015260a00190565b93845260208401929092526040830152606082015260800190565b60208082526022908201527f456e756d657261626c655365743a20696e646578206f7574206f6620626f756e60408201527f6473000000000000000000000000000000000000000000000000000000000000606082015260800190565b6020808252602f908201527f416363657373436f6e74726f6c3a2073656e646572206d75737420626520616e60408201527f2061646d696e20746f206772616e740000000000000000000000000000000000606082015260800190565b6020808252601c908201527f53656e646572206d757374206265207468652076616c696461746f7200000000604082015260600190565b60208082526025908201527f53656e646572206d75737420626520746865206c69717569646974792070726f60408201527f7669646572000000000000000000000000000000000000000000000000000000606082015260800190565b6020808252601d908201527f53656e646572206d75737420626520746865206d61696e7461696e6572000000604082015260600190565b60208082526030908201527f416363657373436f6e74726f6c3a2073656e646572206d75737420626520616e60408201527f2061646d696e20746f207265766f6b6500000000000000000000000000000000606082015260800190565b60208082526021908201527f536166654d6174683a206d756c7469706c69636174696f6e206f766572666c6f60408201527f7700000000000000000000000000000000000000000000000000000000000000606082015260800190565b6020808252601f908201527f5265656e7472616e637947756172643a207265656e7472616e742063616c6c00604082015260600190565b6020808252602f908201527f416363657373436f6e74726f6c3a2063616e206f6e6c792072656e6f756e636560408201527f20726f6c657320666f722073656c660000000000000000000000000000000000606082015260800190565b60006060820185835260206060818501528186516133528185613004565b91508288019350845b8181101561337c5761336e838651612d70565b94840194925060010161335b565b5050848103604086015280925085516133958183613004565b93508287019150845b818110156133bf576133b1858451612d8e565b94509183019160010161339e565b509298975050505050505050565b918252602082015260400190565b94855273ffffffffffffffffffffffffffffffffffffffff9390931660208501529051604084015251606083015251608082015260a00190565b91825251602082015260400190565b9283529051602083015251604082015260600190565b60405181810167ffffffffffffffff8111828210171561345957600080fd5b604052919050565b600067ffffffffffffffff821115613477578081fd5b5060209081020190565b73ffffffffffffffffffffffffffffffffffffffff811681146134a357600080fd5b5056fea26469706673582212202b2f4355655332b6a77b022229cb3cb0583371c6b0a4183e6eeb65c244c788e264736f6c634300060a0033a2646970667358221220f1f5a402ef71d7d75b61ace35ce4a43cdba7f7f74a591ae3f907f66473eb632264736f6c634300060a0033",
  "immutableReferences": {},
  "source": "pragma solidity ^0.6.0;\npragma experimental ABIEncoderV2;\n\nimport {AccessControl} from '@openzeppelin/contracts/access/AccessControl.sol';\nimport {\n  ReentrancyGuard\n} from '@openzeppelin/contracts/utils/ReentrancyGuard.sol';\nimport {TIC} from './TIC.sol';\nimport {IExpiringMultiParty} from './IExpiringMultiParty.sol';\nimport {\n  ExpiringMultiPartyCreator\n} from './uma-contracts/financial-templates/expiring-multiparty/ExpiringMultiPartyCreator.sol';\n\ncontract TICFactory is AccessControl, ReentrancyGuard {\n  //----------------------------------------\n  // Constants\n  //----------------------------------------\n\n  bytes32 public constant MAINTAINER_ROLE = keccak256('Maintainer');\n\n  //----------------------------------------\n  // Struct\n  //----------------------------------------\n\n  struct Roles {\n    address admin;\n    address maintainer;\n  }\n\n  //----------------------------------------\n  // State variables\n  //----------------------------------------\n\n  ExpiringMultiPartyCreator private derivativeCreator;\n\n  // Get a TIC using its token symbol\n  mapping(string => TIC) public symbolToTIC;\n\n  //----------------------------------------\n  // Constructor\n  //----------------------------------------\n\n  constructor(\n    Roles memory _roles,\n    ExpiringMultiPartyCreator _derivativeCreator\n  ) public {\n    _setRoleAdmin(DEFAULT_ADMIN_ROLE, DEFAULT_ADMIN_ROLE);\n    _setRoleAdmin(MAINTAINER_ROLE, DEFAULT_ADMIN_ROLE);\n    _setupRole(DEFAULT_ADMIN_ROLE, _roles.admin);\n    _setupRole(MAINTAINER_ROLE, _roles.maintainer);\n    derivativeCreator = _derivativeCreator;\n  }\n\n  //----------------------------------------\n  // Modifiers\n  //----------------------------------------\n\n  modifier onlyMaintainer() {\n    require(\n      hasRole(MAINTAINER_ROLE, msg.sender),\n      'Sender must be the maintainer'\n    );\n    _;\n  }\n\n  //----------------------------------------\n  // External functions\n  //----------------------------------------\n\n  /**\n   * @notice Creates a new TIC\n   * @param params The parameters used to create the underlying derivative\n   * @param roles The addresses of admin, maintainer, liquidity provider and validator\n   * @param startingCollateralization Collateralization ratio to use before a global one is set\n   * @param fee The fee structure\n   */\n  function createTIC(\n    ExpiringMultiPartyCreator.Params calldata params,\n    uint256 startingCollateralization,\n    TIC.Roles calldata roles,\n    TIC.Fee calldata fee\n  ) external onlyMaintainer nonReentrant {\n    //Require TIC does not exist\n    require(\n      address(symbolToTIC[params.syntheticSymbol]) == address(0),\n      'TIC already exists'\n    );\n    // Create the derivative contract\n    // TODO: `ExpiringMultiPartyCreator` past commit b6dc123e11d7253cdbe0fcc40b7ab4a992c4e56d\n    //       requires `minSponsorTokens` param.\n    address derivative = derivativeCreator.createExpiringMultiParty(params);\n    // Create the TIC\n    symbolToTIC[params.syntheticSymbol] = new TIC(\n      IExpiringMultiParty(derivative),\n      roles,\n      startingCollateralization,\n      fee\n    );\n  }\n}\n",
  "sourcePath": "/home/alessandrovm/JarvisLavoro/SynFiat/packages/contracts/contracts/TICFactory.sol",
  "compiler": {
    "name": "solc",
    "version": "0.6.10+commit.00c0fcaf.Emscripten.clang"
  },
  "schemaVersion": "3.2.5",
  "updatedAt": "2020-10-22T17:14:40.707Z",
  "networkType": "ethereum",
  "devdoc": {
    "methods": {
      "createTIC((uint256,address,bytes32,string,string,(uint256),(uint256),(uint256),(uint256),(uint256),uint256,uint256,address),uint256,(address,address,address,address),((uint256),address[],uint32[]))": {
        "params": {
          "fee": "The fee structure",
          "params": "The parameters used to create the underlying derivative",
          "roles": "The addresses of admin, maintainer, liquidity provider and validator",
          "startingCollateralization": "Collateralization ratio to use before a global one is set"
        }
      },
      "getRoleAdmin(bytes32)": {
        "details": "Returns the admin role that controls `role`. See {grantRole} and {revokeRole}. To change a role's admin, use {_setRoleAdmin}."
      },
      "getRoleMember(bytes32,uint256)": {
        "details": "Returns one of the accounts that have `role`. `index` must be a value between 0 and {getRoleMemberCount}, non-inclusive. Role bearers are not sorted in any particular way, and their ordering may change at any point. WARNING: When using {getRoleMember} and {getRoleMemberCount}, make sure you perform all queries on the same block. See the following https://forum.openzeppelin.com/t/iterating-over-elements-on-enumerableset-in-openzeppelin-contracts/2296[forum post] for more information."
      },
      "getRoleMemberCount(bytes32)": {
        "details": "Returns the number of accounts that have `role`. Can be used together with {getRoleMember} to enumerate all bearers of a role."
      },
      "grantRole(bytes32,address)": {
        "details": "Grants `role` to `account`. If `account` had not been already granted `role`, emits a {RoleGranted} event. Requirements: - the caller must have ``role``'s admin role."
      },
      "hasRole(bytes32,address)": {
        "details": "Returns `true` if `account` has been granted `role`."
      },
      "renounceRole(bytes32,address)": {
        "details": "Revokes `role` from the calling account. Roles are often managed via {grantRole} and {revokeRole}: this function's purpose is to provide a mechanism for accounts to lose their privileges if they are compromised (such as when a trusted device is misplaced). If the calling account had been granted `role`, emits a {RoleRevoked} event. Requirements: - the caller must be `account`."
      },
      "revokeRole(bytes32,address)": {
        "details": "Revokes `role` from `account`. If `account` had been granted `role`, emits a {RoleRevoked} event. Requirements: - the caller must have ``role``'s admin role."
      }
    }
  },
  "userdoc": {
    "methods": {
      "createTIC((uint256,address,bytes32,string,string,(uint256),(uint256),(uint256),(uint256),(uint256),uint256,uint256,address),uint256,(address,address,address,address),((uint256),address[],uint32[]))": {
        "notice": "Creates a new TIC"
      }
    }
  }
}