{
  "contractName": "Umip3Upgrader",
  "abi": [
    {
      "inputs": [
        {
          "internalType": "address",
          "name": "_existingGovernor",
          "type": "address"
        },
        {
          "internalType": "address",
          "name": "_existingVoting",
          "type": "address"
        },
        {
          "internalType": "address",
          "name": "_finder",
          "type": "address"
        },
        {
          "internalType": "address",
          "name": "_voting",
          "type": "address"
        },
        {
          "internalType": "address",
          "name": "_identifierWhitelist",
          "type": "address"
        },
        {
          "internalType": "address",
          "name": "_store",
          "type": "address"
        },
        {
          "internalType": "address",
          "name": "_financialContractsAdmin",
          "type": "address"
        },
        {
          "internalType": "address",
          "name": "_registry",
          "type": "address"
        },
        {
          "internalType": "address",
          "name": "_newGovernor",
          "type": "address"
        }
      ],
      "stateMutability": "nonpayable",
      "type": "constructor"
    },
    {
      "inputs": [],
      "name": "existingGovernor",
      "outputs": [
        {
          "internalType": "address",
          "name": "",
          "type": "address"
        }
      ],
      "stateMutability": "view",
      "type": "function"
    },
    {
      "inputs": [],
      "name": "existingVoting",
      "outputs": [
        {
          "internalType": "contract Voting",
          "name": "",
          "type": "address"
        }
      ],
      "stateMutability": "view",
      "type": "function"
    },
    {
      "inputs": [],
      "name": "financialContractsAdmin",
      "outputs": [
        {
          "internalType": "address",
          "name": "",
          "type": "address"
        }
      ],
      "stateMutability": "view",
      "type": "function"
    },
    {
      "inputs": [],
      "name": "finder",
      "outputs": [
        {
          "internalType": "contract Finder",
          "name": "",
          "type": "address"
        }
      ],
      "stateMutability": "view",
      "type": "function"
    },
    {
      "inputs": [],
      "name": "identifierWhitelist",
      "outputs": [
        {
          "internalType": "address",
          "name": "",
          "type": "address"
        }
      ],
      "stateMutability": "view",
      "type": "function"
    },
    {
      "inputs": [],
      "name": "newGovernor",
      "outputs": [
        {
          "internalType": "address",
          "name": "",
          "type": "address"
        }
      ],
      "stateMutability": "view",
      "type": "function"
    },
    {
      "inputs": [],
      "name": "registry",
      "outputs": [
        {
          "internalType": "address",
          "name": "",
          "type": "address"
        }
      ],
      "stateMutability": "view",
      "type": "function"
    },
    {
      "inputs": [],
      "name": "store",
      "outputs": [
        {
          "internalType": "address",
          "name": "",
          "type": "address"
        }
      ],
      "stateMutability": "view",
      "type": "function"
    },
    {
      "inputs": [],
      "name": "voting",
      "outputs": [
        {
          "internalType": "address",
          "name": "",
          "type": "address"
        }
      ],
      "stateMutability": "view",
      "type": "function"
    },
    {
      "inputs": [],
      "name": "upgrade",
      "outputs": [],
      "stateMutability": "nonpayable",
      "type": "function"
    }
  ],
  "bytecode": "0x608060405234801561001057600080fd5b5060405161095f38038061095f833981810160405261012081101561003457600080fd5b508051602082015160408301516060840151608085015160a086015160c087015160e088015161010090980151600080546001600160a01b03199081166001600160a01b039a8b16178255600180548216998b1699909917909855600380548916978a1697909717909655600480548816958916959095179094556005805487169388169390931790925560068054861691871691909117905560078054851691861691909117905560088054841695851695909517909455600280549092169290931691909117905561085190819061010e90396000f3fe608060405234801561001057600080fd5b50600436106100be5760003560e01c8063b9a3c84c11610076578063e84bf00c1161005b578063e84bf00c14610126578063ebb4bfb01461012e578063fce1ccca14610136576100be565b8063b9a3c84c14610114578063d55ec6971461011c576100be565b80637b103999116100a75780637b103999146100fc5780638fd2057714610104578063975057e71461010c576100be565b8063679b721c146100c35780636a06d469146100f4575b600080fd5b6100cb61013e565b6040805173ffffffffffffffffffffffffffffffffffffffff9092168252519081900360200190f35b6100cb61015a565b6100cb610176565b6100cb610192565b6100cb6101ae565b6100cb6101ca565b6101246101e6565b005b6100cb610790565b6100cb6107ac565b6100cb6107c8565b60015473ffffffffffffffffffffffffffffffffffffffff1681565b60055473ffffffffffffffffffffffffffffffffffffffff1681565b60085473ffffffffffffffffffffffffffffffffffffffff1681565b60025473ffffffffffffffffffffffffffffffffffffffff1681565b60065473ffffffffffffffffffffffffffffffffffffffff1681565b60035473ffffffffffffffffffffffffffffffffffffffff1681565b60005473ffffffffffffffffffffffffffffffffffffffff163314610256576040517f08c379a00000000000000000000000000000000000000000000000000000000081526004018080602001828103825260378152602001806107e56037913960400191505060405180910390fd5b60035460048054604080517f31f9665e0000000000000000000000000000000000000000000000000000000081527f4f7261636c6500000000000000000000000000000000000000000000000000009381019390935273ffffffffffffffffffffffffffffffffffffffff9182166024840152519216916331f9665e9160448082019260009290919082900301818387803b1580156102f457600080fd5b505af1158015610308573d6000803e3d6000fd5b5050600354600554604080517f31f9665e0000000000000000000000000000000000000000000000000000000081527f4964656e74696669657257686974656c69737400000000000000000000000000600482015273ffffffffffffffffffffffffffffffffffffffff928316602482015290519190921693506331f9665e9250604480830192600092919082900301818387803b1580156103a957600080fd5b505af11580156103bd573d6000803e3d6000fd5b5050600354600654604080517f31f9665e0000000000000000000000000000000000000000000000000000000081527f53746f7265000000000000000000000000000000000000000000000000000000600482015273ffffffffffffffffffffffffffffffffffffffff928316602482015290519190921693506331f9665e9250604480830192600092919082900301818387803b15801561045e57600080fd5b505af1158015610472573d6000803e3d6000fd5b5050600354600754604080517f31f9665e0000000000000000000000000000000000000000000000000000000081527f46696e616e6369616c436f6e74726163747341646d696e000000000000000000600482015273ffffffffffffffffffffffffffffffffffffffff928316602482015290519190921693506331f9665e9250604480830192600092919082900301818387803b15801561051357600080fd5b505af1158015610527573d6000803e3d6000fd5b5050600354600854604080517f31f9665e0000000000000000000000000000000000000000000000000000000081527f5265676973747279000000000000000000000000000000000000000000000000600482015273ffffffffffffffffffffffffffffffffffffffff928316602482015290519190921693506331f9665e9250604480830192600092919082900301818387803b1580156105c857600080fd5b505af11580156105dc573d6000803e3d6000fd5b5050600354600254604080517ff2fde38b00000000000000000000000000000000000000000000000000000000815273ffffffffffffffffffffffffffffffffffffffff9283166004820152905191909216935063f2fde38b9250602480830192600092919082900301818387803b15801561065757600080fd5b505af115801561066b573d6000803e3d6000fd5b505060015460048054604080517f2960b5af00000000000000000000000000000000000000000000000000000000815273ffffffffffffffffffffffffffffffffffffffff928316938101939093525192169350632960b5af925060248082019260009290919082900301818387803b1580156106e757600080fd5b505af11580156106fb573d6000803e3d6000fd5b5050600154600254604080517ff2fde38b00000000000000000000000000000000000000000000000000000000815273ffffffffffffffffffffffffffffffffffffffff9283166004820152905191909216935063f2fde38b9250602480830192600092919082900301818387803b15801561077657600080fd5b505af115801561078a573d6000803e3d6000fd5b50505050565b60075473ffffffffffffffffffffffffffffffffffffffff1681565b60005473ffffffffffffffffffffffffffffffffffffffff1681565b60045473ffffffffffffffffffffffffffffffffffffffff168156fe557067726164652063616e206f6e6c7920626520696e6974696174656420627920746865206578697374696e6720676f7665726e6f722ea2646970667358221220afd7ffef497a8576bfa62d066f0d86d1ce5ea73937add504089ace60657da01764736f6c634300060a0033",
  "immutableReferences": {},
  "source": "pragma solidity ^0.6.0;\n\nimport \"../oracle/implementation/Finder.sol\";\nimport \"../oracle/implementation/Constants.sol\";\nimport \"../oracle/implementation/Voting.sol\";\n\n\n/**\n * @title A contract to track a whitelist of addresses.\n */\ncontract Umip3Upgrader {\n    // Existing governor is the only one who can initiate the upgrade.\n    address public existingGovernor;\n\n    // Existing Voting contract needs to be informed of the address of the new Voting contract.\n    Voting public existingVoting;\n\n    // New governor will be the new owner of the finder.\n    address public newGovernor;\n\n    // Finder contract to push upgrades to.\n    Finder public finder;\n\n    // Addresses to upgrade.\n    address public voting;\n    address public identifierWhitelist;\n    address public store;\n    address public financialContractsAdmin;\n    address public registry;\n\n    constructor(\n        address _existingGovernor,\n        address _existingVoting,\n        address _finder,\n        address _voting,\n        address _identifierWhitelist,\n        address _store,\n        address _financialContractsAdmin,\n        address _registry,\n        address _newGovernor\n    ) public {\n        existingGovernor = _existingGovernor;\n        existingVoting = Voting(_existingVoting);\n        finder = Finder(_finder);\n        voting = _voting;\n        identifierWhitelist = _identifierWhitelist;\n        store = _store;\n        financialContractsAdmin = _financialContractsAdmin;\n        registry = _registry;\n        newGovernor = _newGovernor;\n    }\n\n    function upgrade() external {\n        require(msg.sender == existingGovernor, \"Upgrade can only be initiated by the existing governor.\");\n\n        // Change the addresses in the Finder.\n        finder.changeImplementationAddress(OracleInterfaces.Oracle, voting);\n        finder.changeImplementationAddress(OracleInterfaces.IdentifierWhitelist, identifierWhitelist);\n        finder.changeImplementationAddress(OracleInterfaces.Store, store);\n        finder.changeImplementationAddress(OracleInterfaces.FinancialContractsAdmin, financialContractsAdmin);\n        finder.changeImplementationAddress(OracleInterfaces.Registry, registry);\n\n        // Transfer the ownership of the Finder to the new Governor now that all the addresses have been updated.\n        finder.transferOwnership(newGovernor);\n\n        // Inform the existing Voting contract of the address of the new Voting contract and transfer its\n        // ownership to the new governor to allow for any future changes to the migrated contract.\n        existingVoting.setMigrated(voting);\n        existingVoting.transferOwnership(newGovernor);\n    }\n}\n",
  "sourcePath": "/home/alessandrovm/JarvisLavoro/SynFiat/packages/contracts/contracts/uma-contracts/umips/Umip3Upgrader.sol",
  "compiler": {
    "name": "solc",
    "version": "0.6.10+commit.00c0fcaf.Emscripten.clang"
  },
  "schemaVersion": "3.2.5",
  "updatedAt": "2020-10-22T14:01:04.673Z",
  "devdoc": {
    "methods": {},
    "title": "A contract to track a whitelist of addresses."
  },
  "userdoc": {
    "methods": {}
  }
}