{
  "contractName": "VotingToken",
  "abi": [
    {
      "inputs": [],
      "stateMutability": "nonpayable",
      "type": "constructor"
    },
    {
      "anonymous": false,
      "inputs": [
        {
          "indexed": true,
          "internalType": "uint256",
          "name": "roleId",
          "type": "uint256"
        },
        {
          "indexed": true,
          "internalType": "address",
          "name": "newMember",
          "type": "address"
        },
        {
          "indexed": true,
          "internalType": "address",
          "name": "manager",
          "type": "address"
        }
      ],
      "name": "AddedSharedMember",
      "type": "event"
    },
    {
      "anonymous": false,
      "inputs": [
        {
          "indexed": true,
          "internalType": "address",
          "name": "owner",
          "type": "address"
        },
        {
          "indexed": true,
          "internalType": "address",
          "name": "spender",
          "type": "address"
        },
        {
          "indexed": false,
          "internalType": "uint256",
          "name": "value",
          "type": "uint256"
        }
      ],
      "name": "Approval",
      "type": "event"
    },
    {
      "anonymous": false,
      "inputs": [
        {
          "indexed": true,
          "internalType": "uint256",
          "name": "roleId",
          "type": "uint256"
        },
        {
          "indexed": true,
          "internalType": "address",
          "name": "oldMember",
          "type": "address"
        },
        {
          "indexed": true,
          "internalType": "address",
          "name": "manager",
          "type": "address"
        }
      ],
      "name": "RemovedSharedMember",
      "type": "event"
    },
    {
      "anonymous": false,
      "inputs": [
        {
          "indexed": true,
          "internalType": "uint256",
          "name": "roleId",
          "type": "uint256"
        },
        {
          "indexed": true,
          "internalType": "address",
          "name": "newMember",
          "type": "address"
        },
        {
          "indexed": true,
          "internalType": "address",
          "name": "manager",
          "type": "address"
        }
      ],
      "name": "ResetExclusiveMember",
      "type": "event"
    },
    {
      "anonymous": false,
      "inputs": [
        {
          "indexed": false,
          "internalType": "uint256",
          "name": "id",
          "type": "uint256"
        }
      ],
      "name": "Snapshot",
      "type": "event"
    },
    {
      "anonymous": false,
      "inputs": [
        {
          "indexed": true,
          "internalType": "address",
          "name": "from",
          "type": "address"
        },
        {
          "indexed": true,
          "internalType": "address",
          "name": "to",
          "type": "address"
        },
        {
          "indexed": false,
          "internalType": "uint256",
          "name": "value",
          "type": "uint256"
        }
      ],
      "name": "Transfer",
      "type": "event"
    },
    {
      "inputs": [
        {
          "internalType": "uint256",
          "name": "roleId",
          "type": "uint256"
        },
        {
          "internalType": "address",
          "name": "newMember",
          "type": "address"
        }
      ],
      "name": "addMember",
      "outputs": [],
      "stateMutability": "nonpayable",
      "type": "function"
    },
    {
      "inputs": [
        {
          "internalType": "address",
          "name": "owner",
          "type": "address"
        },
        {
          "internalType": "address",
          "name": "spender",
          "type": "address"
        }
      ],
      "name": "allowance",
      "outputs": [
        {
          "internalType": "uint256",
          "name": "",
          "type": "uint256"
        }
      ],
      "stateMutability": "view",
      "type": "function"
    },
    {
      "inputs": [
        {
          "internalType": "address",
          "name": "spender",
          "type": "address"
        },
        {
          "internalType": "uint256",
          "name": "amount",
          "type": "uint256"
        }
      ],
      "name": "approve",
      "outputs": [
        {
          "internalType": "bool",
          "name": "",
          "type": "bool"
        }
      ],
      "stateMutability": "nonpayable",
      "type": "function"
    },
    {
      "inputs": [
        {
          "internalType": "address",
          "name": "account",
          "type": "address"
        }
      ],
      "name": "balanceOf",
      "outputs": [
        {
          "internalType": "uint256",
          "name": "",
          "type": "uint256"
        }
      ],
      "stateMutability": "view",
      "type": "function"
    },
    {
      "inputs": [
        {
          "internalType": "address",
          "name": "account",
          "type": "address"
        },
        {
          "internalType": "uint256",
          "name": "snapshotId",
          "type": "uint256"
        }
      ],
      "name": "balanceOfAt",
      "outputs": [
        {
          "internalType": "uint256",
          "name": "",
          "type": "uint256"
        }
      ],
      "stateMutability": "view",
      "type": "function"
    },
    {
      "inputs": [
        {
          "internalType": "uint256",
          "name": "value",
          "type": "uint256"
        }
      ],
      "name": "burn",
      "outputs": [],
      "stateMutability": "nonpayable",
      "type": "function"
    },
    {
      "inputs": [],
      "name": "decimals",
      "outputs": [
        {
          "internalType": "uint8",
          "name": "",
          "type": "uint8"
        }
      ],
      "stateMutability": "view",
      "type": "function"
    },
    {
      "inputs": [
        {
          "internalType": "address",
          "name": "spender",
          "type": "address"
        },
        {
          "internalType": "uint256",
          "name": "subtractedValue",
          "type": "uint256"
        }
      ],
      "name": "decreaseAllowance",
      "outputs": [
        {
          "internalType": "bool",
          "name": "",
          "type": "bool"
        }
      ],
      "stateMutability": "nonpayable",
      "type": "function"
    },
    {
      "inputs": [
        {
          "internalType": "uint256",
          "name": "roleId",
          "type": "uint256"
        }
      ],
      "name": "getMember",
      "outputs": [
        {
          "internalType": "address",
          "name": "",
          "type": "address"
        }
      ],
      "stateMutability": "view",
      "type": "function"
    },
    {
      "inputs": [
        {
          "internalType": "uint256",
          "name": "roleId",
          "type": "uint256"
        },
        {
          "internalType": "address",
          "name": "memberToCheck",
          "type": "address"
        }
      ],
      "name": "holdsRole",
      "outputs": [
        {
          "internalType": "bool",
          "name": "",
          "type": "bool"
        }
      ],
      "stateMutability": "view",
      "type": "function"
    },
    {
      "inputs": [
        {
          "internalType": "address",
          "name": "spender",
          "type": "address"
        },
        {
          "internalType": "uint256",
          "name": "addedValue",
          "type": "uint256"
        }
      ],
      "name": "increaseAllowance",
      "outputs": [
        {
          "internalType": "bool",
          "name": "",
          "type": "bool"
        }
      ],
      "stateMutability": "nonpayable",
      "type": "function"
    },
    {
      "inputs": [
        {
          "internalType": "address",
          "name": "recipient",
          "type": "address"
        },
        {
          "internalType": "uint256",
          "name": "value",
          "type": "uint256"
        }
      ],
      "name": "mint",
      "outputs": [
        {
          "internalType": "bool",
          "name": "",
          "type": "bool"
        }
      ],
      "stateMutability": "nonpayable",
      "type": "function"
    },
    {
      "inputs": [],
      "name": "name",
      "outputs": [
        {
          "internalType": "string",
          "name": "",
          "type": "string"
        }
      ],
      "stateMutability": "view",
      "type": "function"
    },
    {
      "inputs": [
        {
          "internalType": "uint256",
          "name": "roleId",
          "type": "uint256"
        },
        {
          "internalType": "address",
          "name": "memberToRemove",
          "type": "address"
        }
      ],
      "name": "removeMember",
      "outputs": [],
      "stateMutability": "nonpayable",
      "type": "function"
    },
    {
      "inputs": [
        {
          "internalType": "uint256",
          "name": "roleId",
          "type": "uint256"
        }
      ],
      "name": "renounceMembership",
      "outputs": [],
      "stateMutability": "nonpayable",
      "type": "function"
    },
    {
      "inputs": [
        {
          "internalType": "uint256",
          "name": "roleId",
          "type": "uint256"
        },
        {
          "internalType": "address",
          "name": "newMember",
          "type": "address"
        }
      ],
      "name": "resetMember",
      "outputs": [],
      "stateMutability": "nonpayable",
      "type": "function"
    },
    {
      "inputs": [],
      "name": "symbol",
      "outputs": [
        {
          "internalType": "string",
          "name": "",
          "type": "string"
        }
      ],
      "stateMutability": "view",
      "type": "function"
    },
    {
      "inputs": [],
      "name": "totalSupply",
      "outputs": [
        {
          "internalType": "uint256",
          "name": "",
          "type": "uint256"
        }
      ],
      "stateMutability": "view",
      "type": "function"
    },
    {
      "inputs": [
        {
          "internalType": "uint256",
          "name": "snapshotId",
          "type": "uint256"
        }
      ],
      "name": "totalSupplyAt",
      "outputs": [
        {
          "internalType": "uint256",
          "name": "",
          "type": "uint256"
        }
      ],
      "stateMutability": "view",
      "type": "function"
    },
    {
      "inputs": [
        {
          "internalType": "address",
          "name": "recipient",
          "type": "address"
        },
        {
          "internalType": "uint256",
          "name": "amount",
          "type": "uint256"
        }
      ],
      "name": "transfer",
      "outputs": [
        {
          "internalType": "bool",
          "name": "",
          "type": "bool"
        }
      ],
      "stateMutability": "nonpayable",
      "type": "function"
    },
    {
      "inputs": [
        {
          "internalType": "address",
          "name": "sender",
          "type": "address"
        },
        {
          "internalType": "address",
          "name": "recipient",
          "type": "address"
        },
        {
          "internalType": "uint256",
          "name": "amount",
          "type": "uint256"
        }
      ],
      "name": "transferFrom",
      "outputs": [
        {
          "internalType": "bool",
          "name": "",
          "type": "bool"
        }
      ],
      "stateMutability": "nonpayable",
      "type": "function"
    },
    {
      "inputs": [],
      "name": "snapshot",
      "outputs": [
        {
          "internalType": "uint256",
          "name": "",
          "type": "uint256"
        }
      ],
      "stateMutability": "nonpayable",
      "type": "function"
    }
  ],
  "bytecode": "0x60806040523480156200001157600080fd5b506040518060400160405280601381526020017f554d4120566f74696e6720546f6b656e2076310000000000000000000000000081525060405180604001604052806003815260200162554d4160e81b8152506012828281600390805190602001906200008092919062000491565b5080516200009690600490602084019062000491565b50506005805460ff1916601217905550620000ba816001600160e01b036200010c16565b620000d1600080336001600160e01b036200012216565b620000f760015b604080516000808252602082019092526001600160e01b036200023d16565b620001036002620000d8565b50505062000536565b6005805460ff191660ff92909216919091179055565b826000808281526006602052604090206001015460ff1660028111156200014557fe5b1462000198576040805162461bcd60e51b815260206004820152601e60248201527f43616e6e6f74207573652061207072652d6578697374696e6720726f6c650000604482015290519081900360640190fd5b60008481526006602052604090206001808201805460ff191682800217905550838155620001d6600282018462000352602090811b6200115717901c565b60008481526006602052604081206001015460ff166002811115620001f757fe5b1415620002365760405162461bcd60e51b815260040180806020018281038252603c8152602001806200264c603c913960400191505060405180910390fd5b5050505050565b826000808281526006602052604090206001015460ff1660028111156200026057fe5b14620002b3576040805162461bcd60e51b815260206004820152601e60248201527f43616e6e6f74207573652061207072652d6578697374696e6720726f6c650000604482015290519081900360640190fd5b600084815260066020908152604090912060018101805460ff1916600217905584815590620002f29060038301908590620011616200036b821b17901c565b60008481526006602052604081206001015460ff1660028111156200031357fe5b1415620002365760405162461bcd60e51b8152600401808060200182810382526038815260200180620026ab6038913960400191505060405180910390fd5b6200036782826001600160e01b03620003ac16565b5050565b60005b8151811015620003a7576200039e838383815181106200038a57fe5b60200260200101516200041060201b60201c565b6001016200036e565b505050565b6001600160a01b038116620003f35760405162461bcd60e51b8152600401808060200182810382526023815260200180620026886023913960400191505060405180910390fd5b81546001600160a01b0319166001600160a01b0391909116179055565b6001600160a01b0381166200046c576040805162461bcd60e51b815260206004820152601f60248201527f43616e6e6f74206164642030783020746f20612073686172656420726f6c6500604482015290519081900360640190fd5b6001600160a01b0316600090815260209190915260409020805460ff19166001179055565b828054600181600116156101000203166002900490600052602060002090601f016020900481019282601f10620004d457805160ff191683800117855562000504565b8280016001018555821562000504579182015b8281111562000504578251825591602001919060010190620004e7565b506200051292915062000516565b5090565b6200053391905b808211156200051257600081556001016200051d565b90565b61210680620005466000396000f3fe608060405234801561001057600080fd5b50600436106101825760003560e01c806374d0a676116100d8578063a457c2d71161008c578063ab3545e511610066578063ab3545e514610530578063d97c05be14610576578063dd62ed3e146105af57610182565b8063a457c2d7146104a1578063a9059cbb146104da578063aaa14ca31461051357610182565b806395d89b41116100bd57806395d89b41146104745780639711715a1461047c578063981b24d01461048457610182565b806374d0a676146104025780637cdc1cb91461043b57610182565b8063395093511161013a5780634ee2cd7e116101145780634ee2cd7e1461035d5780636be7658b1461039657806370a08231146103cf57610182565b806339509351146102cc57806340c10f191461030557806342966c681461033e57610182565b806318160ddd1161016b57806318160ddd1461025157806323b872dd1461026b578063313ce567146102ae57610182565b806306fdde0314610187578063095ea7b314610204575b600080fd5b61018f6105ea565b6040805160208082528351818301528351919283929083019185019080838360005b838110156101c95781810151838201526020016101b1565b50505050905090810190601f1680156101f65780820380516001836020036101000a031916815260200191505b509250505060405180910390f35b61023d6004803603604081101561021a57600080fd5b5073ffffffffffffffffffffffffffffffffffffffff813516906020013561069e565b604080519115158252519081900360200190f35b6102596106bc565b60408051918252519081900360200190f35b61023d6004803603606081101561028157600080fd5b5073ffffffffffffffffffffffffffffffffffffffff8135811691602081013590911690604001356106c2565b6102b6610769565b6040805160ff9092168252519081900360200190f35b61023d600480360360408110156102e257600080fd5b5073ffffffffffffffffffffffffffffffffffffffff8135169060200135610772565b61023d6004803603604081101561031b57600080fd5b5073ffffffffffffffffffffffffffffffffffffffff81351690602001356107d3565b61035b6004803603602081101561035457600080fd5b5035610840565b005b6102596004803603604081101561037357600080fd5b5073ffffffffffffffffffffffffffffffffffffffff81351690602001356108af565b61035b600480360360408110156103ac57600080fd5b508035906020013573ffffffffffffffffffffffffffffffffffffffff16610905565b610259600480360360208110156103e557600080fd5b503573ffffffffffffffffffffffffffffffffffffffff16610a5a565b61035b6004803603604081101561041857600080fd5b508035906020013573ffffffffffffffffffffffffffffffffffffffff16610a86565b61023d6004803603604081101561045157600080fd5b508035906020013573ffffffffffffffffffffffffffffffffffffffff16610bdb565b61018f610cb3565b610259610d32565b6102596004803603602081101561049a57600080fd5b5035610d41565b61023d600480360360408110156104b757600080fd5b5073ffffffffffffffffffffffffffffffffffffffff8135169060200135610d71565b61023d600480360360408110156104f057600080fd5b5073ffffffffffffffffffffffffffffffffffffffff8135169060200135610dec565b61035b6004803603602081101561052957600080fd5b5035610e00565b61054d6004803603602081101561054657600080fd5b5035610f2e565b6040805173ffffffffffffffffffffffffffffffffffffffff9092168252519081900360200190f35b61035b6004803603604081101561058c57600080fd5b508035906020013573ffffffffffffffffffffffffffffffffffffffff16610fca565b610259600480360360408110156105c557600080fd5b5073ffffffffffffffffffffffffffffffffffffffff8135811691602001351661111f565b60038054604080516020601f60027fffffffffffffffffffffffffffffffffffffffffffffffffffffffffffffffff6101006001881615020190951694909404938401819004810282018101909252828152606093909290918301828280156106945780601f1061066957610100808354040283529160200191610694565b820191906000526020600020905b81548152906001019060200180831161067757829003601f168201915b5050505050905090565b60006106b26106ab611197565b848461119b565b5060015b92915050565b60025490565b60006106cf8484846112e2565b61075f846106db611197565b61075a85604051806060016040528060288152602001611fd36028913973ffffffffffffffffffffffffffffffffffffffff8a16600090815260016020526040812090610726611197565b73ffffffffffffffffffffffffffffffffffffffff168152602081019190915260400160002054919063ffffffff6112ed16565b61119b565b5060019392505050565b60055460ff1690565b60006106b261077f611197565b8461075a8560016000610790611197565b73ffffffffffffffffffffffffffffffffffffffff908116825260208083019390935260409182016000908120918c16815292529020549063ffffffff61139e16565b600060016107e18133610bdb565b610836576040517f08c379a0000000000000000000000000000000000000000000000000000000008152600401808060200182810382526022815260200180611fb16022913960400191505060405180910390fd5b61075f8484611412565b600261084c8133610bdb565b6108a1576040517f08c379a0000000000000000000000000000000000000000000000000000000008152600401808060200182810382526022815260200180611fb16022913960400191505060405180910390fd5b6108ab338361141c565b5050565b73ffffffffffffffffffffffffffffffffffffffff82166000908152600760205260408120819081906108e3908590611426565b91509150816108fa576108f585610a5a565b6108fc565b805b95945050505050565b81600260008281526006602052604090206001015460ff16600281111561092857fe5b1461097e576040517f08c379a000000000000000000000000000000000000000000000000000000000815260040180806020018281038252602c815260200180611f85602c913960400191505060405180910390fd5b60008381526006602052604090205483906109999033610bdb565b6109ee576040517f08c379a00000000000000000000000000000000000000000000000000000000081526004018080602001828103825260248152602001806120886024913960400191505060405180910390fd5b6000848152600660205260409020610a0f906003018463ffffffff61156416565b604051339073ffffffffffffffffffffffffffffffffffffffff85169086907feb3e33034c392e69263b04ec0fa376dc12784a41b6676c7f31b936cbc0fbb5af90600090a450505050565b73ffffffffffffffffffffffffffffffffffffffff81166000908152602081905260409020545b919050565b81600260008281526006602052604090206001015460ff166002811115610aa957fe5b14610aff576040517f08c379a000000000000000000000000000000000000000000000000000000000815260040180806020018281038252602c815260200180611f85602c913960400191505060405180910390fd5b6000838152600660205260409020548390610b1a9033610bdb565b610b6f576040517f08c379a00000000000000000000000000000000000000000000000000000000081526004018080602001828103825260248152602001806120886024913960400191505060405180910390fd5b6000848152600660205260409020610b90906003018463ffffffff6115b116565b604051339073ffffffffffffffffffffffffffffffffffffffff85169086907f63502af7324ff6db91ab38f8236a648727d9385ea6c782073dd4882d8a61a48f90600090a450505050565b600082815260066020526040812060018082015460ff166002811115610bfd57fe5b1415610c1e57610c16600282018463ffffffff61168316565b9150506106b6565b6002600182015460ff166002811115610c3357fe5b1415610c4c57610c16600382018463ffffffff6116a316565b604080517f08c379a000000000000000000000000000000000000000000000000000000000815260206004820152600e60248201527f496e76616c696420726f6c654964000000000000000000000000000000000000604482015290519081900360640190fd5b60048054604080516020601f60027fffffffffffffffffffffffffffffffffffffffffffffffffffffffffffffffff6101006001881615020190951694909404938401819004810282018101909252828152606093909290918301828280156106945780601f1061066957610100808354040283529160200191610694565b6000610d3c6116cf565b905090565b6000806000610d51846008611426565b9150915081610d6757610d626106bc565b610d69565b805b949350505050565b60006106b2610d7e611197565b8461075a856040518060600160405280602581526020016120ac6025913960016000610da8611197565b73ffffffffffffffffffffffffffffffffffffffff908116825260208083019390935260409182016000908120918d1681529252902054919063ffffffff6112ed16565b60006106b2610df9611197565b84846112e2565b80600260008281526006602052604090206001015460ff166002811115610e2357fe5b14610e79576040517f08c379a000000000000000000000000000000000000000000000000000000000815260040180806020018281038252602c815260200180611f85602c913960400191505060405180910390fd5b81610e848133610bdb565b610ed9576040517f08c379a0000000000000000000000000000000000000000000000000000000008152600401808060200182810382526022815260200180611fb16022913960400191505060405180910390fd5b6000838152600660205260409020610efa906003013363ffffffff61156416565b6040513390819085907feb3e33034c392e69263b04ec0fa376dc12784a41b6676c7f31b936cbc0fbb5af90600090a4505050565b600081600160008281526006602052604090206001015460ff166002811115610f5357fe5b14610fa9576040517f08c379a000000000000000000000000000000000000000000000000000000000815260040180806020018281038252602f815260200180611f56602f913960400191505060405180910390fd5b6000838152600660205260409020610fc390600201611723565b9392505050565b81600160008281526006602052604090206001015460ff166002811115610fed57fe5b14611043576040517f08c379a000000000000000000000000000000000000000000000000000000000815260040180806020018281038252602f815260200180611f56602f913960400191505060405180910390fd5b600083815260066020526040902054839061105e9033610bdb565b6110b3576040517f08c379a00000000000000000000000000000000000000000000000000000000081526004018080602001828103825260248152602001806120886024913960400191505060405180910390fd5b60008481526006602052604090206110d4906002018463ffffffff61173d16565b604051339073ffffffffffffffffffffffffffffffffffffffff85169086907f3b855c56b409b671c7112789d022675eb639d0bcb8896f1b6197c132f799e74690600090a450505050565b73ffffffffffffffffffffffffffffffffffffffff918216600090815260016020908152604080832093909416825291909152205490565b6108ab828261173d565b60005b81518110156111925761118a8383838151811061117d57fe5b60200260200101516115b1565b600101611164565b505050565b3390565b73ffffffffffffffffffffffffffffffffffffffff8316611207576040517f08c379a00000000000000000000000000000000000000000000000000000000081526004018080602001828103825260248152602001806120646024913960400191505060405180910390fd5b73ffffffffffffffffffffffffffffffffffffffff8216611273576040517f08c379a0000000000000000000000000000000000000000000000000000000008152600401808060200182810382526022815260200180611f0e6022913960400191505060405180910390fd5b73ffffffffffffffffffffffffffffffffffffffff808416600081815260016020908152604080832094871680845294825291829020859055815185815291517f8c5be1e5ebec7d5bd14f71427d1e84f3dd0314c0f7b2291e5b200ac8c7c3b9259281900390910190a3505050565b6111928383836117eb565b60008184841115611396576040517f08c379a00000000000000000000000000000000000000000000000000000000081526004018080602001828103825283818151815260200191508051906020019080838360005b8381101561135b578181015183820152602001611343565b50505050905090810190601f1680156113885780820380516001836020036101000a031916815260200191505b509250505060405180910390fd5b505050900390565b600082820183811015610fc357604080517f08c379a000000000000000000000000000000000000000000000000000000000815260206004820152601b60248201527f536166654d6174683a206164646974696f6e206f766572666c6f770000000000604482015290519081900360640190fd5b6108ab8282611808565b6108ab8282611823565b6000806000841161149857604080517f08c379a000000000000000000000000000000000000000000000000000000000815260206004820152601660248201527f4552433230536e617073686f743a206964206973203000000000000000000000604482015290519081900360640190fd5b6114a2600a61183e565b84111561151057604080517f08c379a000000000000000000000000000000000000000000000000000000000815260206004820152601d60248201527f4552433230536e617073686f743a206e6f6e6578697374656e74206964000000604482015290519081900360640190fd5b6000611522848663ffffffff61184216565b845490915081141561153b57506000915081905061155d565b600184600101828154811061154c57fe5b906000526020600020015492509250505b9250929050565b73ffffffffffffffffffffffffffffffffffffffff1660009081526020919091526040902080547fffffffffffffffffffffffffffffffffffffffffffffffffffffffffffffff00169055565b73ffffffffffffffffffffffffffffffffffffffff811661163357604080517f08c379a000000000000000000000000000000000000000000000000000000000815260206004820152601f60248201527f43616e6e6f74206164642030783020746f20612073686172656420726f6c6500604482015290519081900360640190fd5b73ffffffffffffffffffffffffffffffffffffffff1660009081526020919091526040902080547fffffffffffffffffffffffffffffffffffffffffffffffffffffffffffffff00166001179055565b905473ffffffffffffffffffffffffffffffffffffffff91821691161490565b73ffffffffffffffffffffffffffffffffffffffff166000908152602091909152604090205460ff1690565b60006116db600a611901565b60006116e7600a61183e565b6040805182815290519192507f8030e83b04d87bef53480e26263266d6ca66863aa8506aca6f2559d18aa1cb67919081900360200190a1905090565b5473ffffffffffffffffffffffffffffffffffffffff1690565b73ffffffffffffffffffffffffffffffffffffffff81166117a9576040517f08c379a000000000000000000000000000000000000000000000000000000000815260040180806020018281038252602381526020018061201c6023913960400191505060405180910390fd5b81547fffffffffffffffffffffffff00000000000000000000000000000000000000001673ffffffffffffffffffffffffffffffffffffffff91909116179055565b6117f48361190a565b6117fd8261190a565b611192838383611944565b6118118261190a565b611819611b20565b6108ab8282611b2f565b61182c8261190a565b611834611b20565b6108ab8282611c6c565b5490565b8154600090611853575060006106b6565b82546000905b808210156118a257600061186d8383611dc2565b90508486828154811061187c57fe5b906000526020600020015411156118955780915061189c565b8060010192505b50611859565b6000821180156118ca5750838560018403815481106118bd57fe5b9060005260206000200154145b156118f957507fffffffffffffffffffffffffffffffffffffffffffffffffffffffffffffffff0190506106b6565b5090506106b6565b80546001019055565b73ffffffffffffffffffffffffffffffffffffffff811660009081526007602052604090206119419061193c83610a5a565b611de7565b50565b73ffffffffffffffffffffffffffffffffffffffff83166119b0576040517f08c379a000000000000000000000000000000000000000000000000000000000815260040180806020018281038252602581526020018061203f6025913960400191505060405180910390fd5b73ffffffffffffffffffffffffffffffffffffffff8216611a1c576040517f08c379a0000000000000000000000000000000000000000000000000000000008152600401808060200182810382526023815260200180611ec96023913960400191505060405180910390fd5b611a27838383611192565b611a7781604051806060016040528060268152602001611f306026913973ffffffffffffffffffffffffffffffffffffffff8616600090815260208190526040902054919063ffffffff6112ed16565b73ffffffffffffffffffffffffffffffffffffffff8085166000908152602081905260408082209390935590841681522054611ab9908263ffffffff61139e16565b73ffffffffffffffffffffffffffffffffffffffff8084166000818152602081815260409182902094909455805185815290519193928716927fddf252ad1be2c89b69c2b068fc378daa952ba7f163c4a11628f55a4df523b3ef92918290030190a3505050565b611b2d600861193c6106bc565b565b73ffffffffffffffffffffffffffffffffffffffff8216611bb157604080517f08c379a000000000000000000000000000000000000000000000000000000000815260206004820152601f60248201527f45524332303a206d696e7420746f20746865207a65726f206164647265737300604482015290519081900360640190fd5b611bbd60008383611192565b600254611bd0908263ffffffff61139e16565b60025573ffffffffffffffffffffffffffffffffffffffff8216600090815260208190526040902054611c09908263ffffffff61139e16565b73ffffffffffffffffffffffffffffffffffffffff83166000818152602081815260408083209490945583518581529351929391927fddf252ad1be2c89b69c2b068fc378daa952ba7f163c4a11628f55a4df523b3ef9281900390910190a35050565b73ffffffffffffffffffffffffffffffffffffffff8216611cd8576040517f08c379a0000000000000000000000000000000000000000000000000000000008152600401808060200182810382526021815260200180611ffb6021913960400191505060405180910390fd5b611ce482600083611192565b611d3481604051806060016040528060228152602001611eec6022913973ffffffffffffffffffffffffffffffffffffffff8516600090815260208190526040902054919063ffffffff6112ed16565b73ffffffffffffffffffffffffffffffffffffffff8316600090815260208190526040902055600254611d6d908263ffffffff611e3316565b60025560408051828152905160009173ffffffffffffffffffffffffffffffffffffffff8516917fddf252ad1be2c89b69c2b068fc378daa952ba7f163c4a11628f55a4df523b3ef9181900360200190a35050565b60006002808306600285060181611dd557fe5b04600283046002850401019392505050565b6000611df3600a61183e565b905080611dff84611e75565b1015611192578254600180820185556000858152602080822090930193909355938401805494850181558252902090910155565b6000610fc383836040518060400160405280601e81526020017f536166654d6174683a207375627472616374696f6e206f766572666c6f7700008152506112ed565b8054600090611e8657506000610a81565b815482907fffffffffffffffffffffffffffffffffffffffffffffffffffffffffffffffff8101908110611eb657fe5b90600052602060002001549050610a8156fe45524332303a207472616e7366657220746f20746865207a65726f206164647265737345524332303a206275726e20616d6f756e7420657863656564732062616c616e636545524332303a20617070726f766520746f20746865207a65726f206164647265737345524332303a207472616e7366657220616d6f756e7420657863656564732062616c616e63654d7573742062652063616c6c6564206f6e20616e20696e697469616c697a6564204578636c757369766520726f6c654d7573742062652063616c6c6564206f6e20616e20696e697469616c697a65642053686172656420726f6c6553656e64657220646f6573206e6f7420686f6c6420726571756972656420726f6c6545524332303a207472616e7366657220616d6f756e74206578636565647320616c6c6f77616e636545524332303a206275726e2066726f6d20746865207a65726f206164647265737343616e6e6f742073657420616e206578636c757369766520726f6c6520746f2030783045524332303a207472616e736665722066726f6d20746865207a65726f206164647265737345524332303a20617070726f76652066726f6d20746865207a65726f206164647265737343616e206f6e6c792062652063616c6c6564206279206120726f6c65206d616e6167657245524332303a2064656372656173656420616c6c6f77616e63652062656c6f77207a65726fa2646970667358221220fd241f99b7b26862c82143f28e969f43a409b3d50bfff6af8e6f5d9359c270ed64736f6c634300060a0033417474656d7074656420746f2075736520616e20696e76616c696420726f6c6520746f206d616e61676520616e206578636c757369766520726f6c6543616e6e6f742073657420616e206578636c757369766520726f6c6520746f20307830417474656d7074656420746f2075736520616e20696e76616c696420726f6c6520746f206d616e61676520612073686172656420726f6c65",
  "immutableReferences": {},
  "source": "pragma solidity ^0.6.0;\n\nimport \"../../common/implementation/ExpandedERC20.sol\";\nimport \"@openzeppelin/contracts/token/ERC20/ERC20Snapshot.sol\";\n\n\n/**\n * @title Ownership of this token allows a voter to respond to price requests.\n * @dev Supports snapshotting and allows the Oracle to mint new tokens as rewards.\n */\ncontract VotingToken is ExpandedERC20, ERC20Snapshot {\n    /**\n     * @notice Constructs the VotingToken.\n     */\n    constructor() public ExpandedERC20(\"UMA Voting Token v1\", \"UMA\", 18) {}\n\n    /**\n     * @notice Creates a new snapshot ID.\n     * @return uint256 Thew new snapshot ID.\n     */\n    function snapshot() external returns (uint256) {\n        return _snapshot();\n    }\n\n    // _transfer, _mint and _burn are ERC20 internal methods that are overridden by ERC20Snapshot,\n    // therefore the compiler will complain that VotingToken must override these methods\n    // because the two base classes (ERC20 and ERC20Snapshot) both define the same functions\n\n    function _transfer(\n        address from,\n        address to,\n        uint256 value\n    ) internal override(ERC20, ERC20Snapshot) {\n        super._transfer(from, to, value);\n    }\n\n    function _mint(address account, uint256 value) internal override(ERC20, ERC20Snapshot) {\n        super._mint(account, value);\n    }\n\n    function _burn(address account, uint256 value) internal override(ERC20, ERC20Snapshot) {\n        super._burn(account, value);\n    }\n}\n",
  "sourcePath": "/home/alessandrovm/JarvisLavoro/SynFiat/packages/contracts/contracts/uma-contracts/oracle/implementation/VotingToken.sol",
  "compiler": {
    "name": "solc",
    "version": "0.6.10+commit.00c0fcaf.Emscripten.clang"
  },
  "schemaVersion": "3.2.5",
  "updatedAt": "2020-10-22T14:01:04.633Z",
  "devdoc": {
    "details": "Supports snapshotting and allows the Oracle to mint new tokens as rewards.",
    "methods": {
      "addMember(uint256,address)": {
        "details": "Reverts if `roleId` does not represent an initialized, SharedRole or if the caller is not a member of the managing role for `roleId`.",
        "params": {
          "newMember": "the new SharedRole member.",
          "roleId": "the SharedRole membership to modify."
        }
      },
      "allowance(address,address)": {
        "details": "See {IERC20-allowance}."
      },
      "approve(address,uint256)": {
        "details": "See {IERC20-approve}. Requirements: - `spender` cannot be the zero address."
      },
      "balanceOf(address)": {
        "details": "See {IERC20-balanceOf}."
      },
      "balanceOfAt(address,uint256)": {
        "details": "Retrieves the balance of `account` at the time `snapshotId` was created."
      },
      "burn(uint256)": {
        "details": "Burns `value` tokens owned by `msg.sender`.",
        "params": {
          "value": "amount of tokens to burn."
        }
      },
      "decimals()": {
        "details": "Returns the number of decimals used to get its user representation. For example, if `decimals` equals `2`, a balance of `505` tokens should be displayed to a user as `5,05` (`505 / 10 ** 2`). Tokens usually opt for a value of 18, imitating the relationship between Ether and Wei. This is the value {ERC20} uses, unless {_setupDecimals} is called. NOTE: This information is only used for _display_ purposes: it in no way affects any of the arithmetic of the contract, including {IERC20-balanceOf} and {IERC20-transfer}."
      },
      "decreaseAllowance(address,uint256)": {
        "details": "Atomically decreases the allowance granted to `spender` by the caller. This is an alternative to {approve} that can be used as a mitigation for problems described in {IERC20-approve}. Emits an {Approval} event indicating the updated allowance. Requirements: - `spender` cannot be the zero address. - `spender` must have allowance for the caller of at least `subtractedValue`."
      },
      "getMember(uint256)": {
        "details": "Reverts if `roleId` does not represent an initialized, exclusive role.",
        "params": {
          "roleId": "the ExclusiveRole membership to check."
        },
        "returns": {
          "_0": "the address of the current ExclusiveRole member."
        }
      },
      "holdsRole(uint256,address)": {
        "details": "Reverts if roleId does not correspond to an initialized role.",
        "params": {
          "memberToCheck": "the address to check.",
          "roleId": "the Role to check."
        },
        "returns": {
          "_0": "True if `memberToCheck` is a member of `roleId`."
        }
      },
      "increaseAllowance(address,uint256)": {
        "details": "Atomically increases the allowance granted to `spender` by the caller. This is an alternative to {approve} that can be used as a mitigation for problems described in {IERC20-approve}. Emits an {Approval} event indicating the updated allowance. Requirements: - `spender` cannot be the zero address."
      },
      "mint(address,uint256)": {
        "details": "Mints `value` tokens to `recipient`, returning true on success.",
        "params": {
          "recipient": "address to mint to.",
          "value": "amount of tokens to mint."
        },
        "returns": {
          "_0": "True if the mint succeeded, or False."
        }
      },
      "name()": {
        "details": "Returns the name of the token."
      },
      "removeMember(uint256,address)": {
        "details": "Reverts if `roleId` does not represent an initialized, SharedRole or if the caller is not a member of the managing role for `roleId`.",
        "params": {
          "memberToRemove": "the current SharedRole member to remove.",
          "roleId": "the SharedRole membership to modify."
        }
      },
      "renounceMembership(uint256)": {
        "details": "Reverts if the caller is not a member of the role for `roleId` or if `roleId` is not an initialized, SharedRole.",
        "params": {
          "roleId": "the SharedRole membership to modify."
        }
      },
      "resetMember(uint256,address)": {
        "details": "Reverts if the caller is not a member of the managing role for `roleId` or if `roleId` is not an initialized, ExclusiveRole.",
        "params": {
          "newMember": "the new ExclusiveRole member.",
          "roleId": "the ExclusiveRole membership to modify."
        }
      },
      "snapshot()": {
        "returns": {
          "_0": "uint256 Thew new snapshot ID."
        }
      },
      "symbol()": {
        "details": "Returns the symbol of the token, usually a shorter version of the name."
      },
      "totalSupply()": {
        "details": "See {IERC20-totalSupply}."
      },
      "totalSupplyAt(uint256)": {
        "details": "Retrieves the total supply at the time `snapshotId` was created."
      },
      "transfer(address,uint256)": {
        "details": "See {IERC20-transfer}. Requirements: - `recipient` cannot be the zero address. - the caller must have a balance of at least `amount`."
      },
      "transferFrom(address,address,uint256)": {
        "details": "See {IERC20-transferFrom}. Emits an {Approval} event indicating the updated allowance. This is not required by the EIP. See the note at the beginning of {ERC20}; Requirements: - `sender` and `recipient` cannot be the zero address. - `sender` must have a balance of at least `amount`. - the caller must have allowance for ``sender``'s tokens of at least `amount`."
      }
    },
    "title": "Ownership of this token allows a voter to respond to price requests."
  },
  "userdoc": {
    "methods": {
      "addMember(uint256,address)": {
        "notice": "Adds `newMember` to the shared role, `roleId`."
      },
      "constructor": "Constructs the VotingToken.",
      "getMember(uint256)": {
        "notice": "Gets the current holder of the exclusive role, `roleId`."
      },
      "holdsRole(uint256,address)": {
        "notice": "Whether `memberToCheck` is a member of roleId."
      },
      "removeMember(uint256,address)": {
        "notice": "Removes `memberToRemove` from the shared role, `roleId`."
      },
      "renounceMembership(uint256)": {
        "notice": "Removes caller from the role, `roleId`."
      },
      "resetMember(uint256,address)": {
        "notice": "Changes the exclusive role holder of `roleId` to `newMember`."
      },
      "snapshot()": {
        "notice": "Creates a new snapshot ID."
      }
    }
  }
}