{
  "contractName": "BalancerMock",
  "abi": [
    {
      "inputs": [
        {
          "internalType": "address",
          "name": "tokenIn",
          "type": "address"
        },
        {
          "internalType": "address",
          "name": "tokenOut",
          "type": "address"
        }
      ],
      "name": "getSpotPriceSansFee",
      "outputs": [
        {
          "internalType": "uint256",
          "name": "spotPrice",
          "type": "uint256"
        }
      ],
      "stateMutability": "view",
      "type": "function"
    },
    {
      "inputs": [
        {
          "internalType": "uint256",
          "name": "newPrice",
          "type": "uint256"
        }
      ],
      "name": "setPrice",
      "outputs": [],
      "stateMutability": "nonpayable",
      "type": "function"
    }
  ],
  "bytecode": "0x60806040526000805534801561001457600080fd5b5060e0806100236000396000f3fe6080604052348015600f57600080fd5b506004361060325760003560e01c80631446a7ff14603757806391b7f5ed146081575b600080fd5b606f60048036036040811015604b57600080fd5b5073ffffffffffffffffffffffffffffffffffffffff81358116916020013516609d565b60408051918252519081900360200190f35b609b60048036036020811015609557600080fd5b503560a5565b005b505060005490565b60005556fea2646970667358221220b8b779ee9a9afed04a1fb96cdb5227f455313789c200b69826cf6b854509a3bb64736f6c63430006040033",
  "source": "pragma solidity ^0.6.0;\n\nimport \"../interfaces/Balancer.sol\";\n\n\n/**\n * @title Balancer Mock\n */\ncontract BalancerMock is Balancer {\n    uint256 price = 0;\n\n    // these params arent used in the mock, but this is to maintain compatibility with balancer API\n    function getSpotPriceSansFee(address tokenIn, address tokenOut)\n        external\n        virtual\n        override\n        view\n        returns (uint256 spotPrice)\n    {\n        return price;\n    }\n\n    // this is not a balancer call, but for testing for changing price.\n    function setPrice(uint256 newPrice) external {\n        price = newPrice;\n    }\n}\n",
  "sourcePath": "/home/alessandrovm/JarvisLavoro/SynFiat/packages/contracts/contracts/uma-contracts/common/test/BalancerMock.sol",
  "compiler": {
    "name": "solc",
    "version": "0.6.4+commit.1dca32f3.Emscripten.clang"
  },
  "schemaVersion": "3.2.5",
  "updatedAt": "2020-09-18T09:03:22.651Z",
  "devdoc": {
    "methods": {},
    "title": "Balancer Mock"
  },
  "userdoc": {
    "methods": {}
  }
}