{
  "contractName": "DepositBox",
  "abi": [
    {
      "inputs": [
        {
          "internalType": "address",
          "name": "_collateralAddress",
          "type": "address"
        },
        {
          "internalType": "address",
          "name": "_finderAddress",
          "type": "address"
        },
        {
          "internalType": "bytes32",
          "name": "_priceIdentifier",
          "type": "bytes32"
        },
        {
          "internalType": "address",
          "name": "_timerAddress",
          "type": "address"
        }
      ],
      "stateMutability": "nonpayable",
      "type": "constructor"
    },
    {
      "anonymous": false,
      "inputs": [
        {
          "indexed": true,
          "internalType": "address",
          "name": "user",
          "type": "address"
        },
        {
          "indexed": true,
          "internalType": "uint256",
          "name": "collateralAmount",
          "type": "uint256"
        }
      ],
      "name": "Deposit",
      "type": "event"
    },
    {
      "anonymous": false,
      "inputs": [
        {
          "indexed": true,
          "internalType": "address",
          "name": "user",
          "type": "address"
        }
      ],
      "name": "EndedDepositBox",
      "type": "event"
    },
    {
      "anonymous": false,
      "inputs": [
        {
          "indexed": true,
          "internalType": "uint256",
          "name": "amount",
          "type": "uint256"
        }
      ],
      "name": "FinalFeesPaid",
      "type": "event"
    },
    {
      "anonymous": false,
      "inputs": [
        {
          "indexed": true,
          "internalType": "address",
          "name": "user",
          "type": "address"
        }
      ],
      "name": "NewDepositBox",
      "type": "event"
    },
    {
      "anonymous": false,
      "inputs": [
        {
          "indexed": true,
          "internalType": "uint256",
          "name": "regularFee",
          "type": "uint256"
        },
        {
          "indexed": true,
          "internalType": "uint256",
          "name": "lateFee",
          "type": "uint256"
        }
      ],
      "name": "RegularFeesPaid",
      "type": "event"
    },
    {
      "anonymous": false,
      "inputs": [
        {
          "indexed": true,
          "internalType": "address",
          "name": "user",
          "type": "address"
        },
        {
          "indexed": true,
          "internalType": "uint256",
          "name": "collateralAmount",
          "type": "uint256"
        },
        {
          "indexed": false,
          "internalType": "uint256",
          "name": "requestPassTimestamp",
          "type": "uint256"
        }
      ],
      "name": "RequestWithdrawal",
      "type": "event"
    },
    {
      "anonymous": false,
      "inputs": [
        {
          "indexed": true,
          "internalType": "address",
          "name": "user",
          "type": "address"
        },
        {
          "indexed": true,
          "internalType": "uint256",
          "name": "collateralAmount",
          "type": "uint256"
        },
        {
          "indexed": false,
          "internalType": "uint256",
          "name": "requestPassTimestamp",
          "type": "uint256"
        }
      ],
      "name": "RequestWithdrawalCanceled",
      "type": "event"
    },
    {
      "anonymous": false,
      "inputs": [
        {
          "indexed": true,
          "internalType": "address",
          "name": "user",
          "type": "address"
        },
        {
          "indexed": true,
          "internalType": "uint256",
          "name": "collateralAmount",
          "type": "uint256"
        },
        {
          "indexed": false,
          "internalType": "uint256",
          "name": "exchangeRate",
          "type": "uint256"
        },
        {
          "indexed": false,
          "internalType": "uint256",
          "name": "requestPassTimestamp",
          "type": "uint256"
        }
      ],
      "name": "RequestWithdrawalExecuted",
      "type": "event"
    },
    {
      "inputs": [],
      "name": "collateralCurrency",
      "outputs": [
        {
          "internalType": "contract IERC20",
          "name": "",
          "type": "address"
        }
      ],
      "stateMutability": "view",
      "type": "function"
    },
    {
      "inputs": [],
      "name": "cumulativeFeeMultiplier",
      "outputs": [
        {
          "internalType": "uint256",
          "name": "rawValue",
          "type": "uint256"
        }
      ],
      "stateMutability": "view",
      "type": "function"
    },
    {
      "inputs": [],
      "name": "finder",
      "outputs": [
        {
          "internalType": "contract FinderInterface",
          "name": "",
          "type": "address"
        }
      ],
      "stateMutability": "view",
      "type": "function"
    },
    {
      "inputs": [],
      "name": "getCurrentTime",
      "outputs": [
        {
          "internalType": "uint256",
          "name": "",
          "type": "uint256"
        }
      ],
      "stateMutability": "view",
      "type": "function"
    },
    {
      "inputs": [],
      "name": "payRegularFees",
      "outputs": [
        {
          "components": [
            {
              "internalType": "uint256",
              "name": "rawValue",
              "type": "uint256"
            }
          ],
          "internalType": "struct FixedPoint.Unsigned",
          "name": "totalPaid",
          "type": "tuple"
        }
      ],
      "stateMutability": "nonpayable",
      "type": "function"
    },
    {
      "inputs": [],
      "name": "pfc",
      "outputs": [
        {
          "components": [
            {
              "internalType": "uint256",
              "name": "rawValue",
              "type": "uint256"
            }
          ],
          "internalType": "struct FixedPoint.Unsigned",
          "name": "",
          "type": "tuple"
        }
      ],
      "stateMutability": "view",
      "type": "function"
    },
    {
      "inputs": [
        {
          "internalType": "uint256",
          "name": "time",
          "type": "uint256"
        }
      ],
      "name": "setCurrentTime",
      "outputs": [],
      "stateMutability": "nonpayable",
      "type": "function"
    },
    {
      "inputs": [],
      "name": "timerAddress",
      "outputs": [
        {
          "internalType": "address",
          "name": "",
          "type": "address"
        }
      ],
      "stateMutability": "view",
      "type": "function"
    },
    {
      "inputs": [],
      "name": "initialize",
      "outputs": [],
      "stateMutability": "nonpayable",
      "type": "function"
    },
    {
      "inputs": [
        {
          "components": [
            {
              "internalType": "uint256",
              "name": "rawValue",
              "type": "uint256"
            }
          ],
          "internalType": "struct FixedPoint.Unsigned",
          "name": "collateralAmount",
          "type": "tuple"
        }
      ],
      "name": "deposit",
      "outputs": [],
      "stateMutability": "nonpayable",
      "type": "function"
    },
    {
      "inputs": [
        {
          "components": [
            {
              "internalType": "uint256",
              "name": "rawValue",
              "type": "uint256"
            }
          ],
          "internalType": "struct FixedPoint.Unsigned",
          "name": "denominatedCollateralAmount",
          "type": "tuple"
        }
      ],
      "name": "requestWithdrawal",
      "outputs": [],
      "stateMutability": "nonpayable",
      "type": "function"
    },
    {
      "inputs": [],
      "name": "executeWithdrawal",
      "outputs": [
        {
          "components": [
            {
              "internalType": "uint256",
              "name": "rawValue",
              "type": "uint256"
            }
          ],
          "internalType": "struct FixedPoint.Unsigned",
          "name": "amountWithdrawn",
          "type": "tuple"
        }
      ],
      "stateMutability": "nonpayable",
      "type": "function"
    },
    {
      "inputs": [],
      "name": "cancelWithdrawal",
      "outputs": [],
      "stateMutability": "nonpayable",
      "type": "function"
    },
    {
      "inputs": [],
      "name": "emergencyShutdown",
      "outputs": [],
      "stateMutability": "nonpayable",
      "type": "function"
    },
    {
      "inputs": [],
      "name": "remargin",
      "outputs": [],
      "stateMutability": "nonpayable",
      "type": "function"
    },
    {
      "inputs": [
        {
          "internalType": "address",
          "name": "user",
          "type": "address"
        }
      ],
      "name": "getCollateral",
      "outputs": [
        {
          "components": [
            {
              "internalType": "uint256",
              "name": "rawValue",
              "type": "uint256"
            }
          ],
          "internalType": "struct FixedPoint.Unsigned",
          "name": "",
          "type": "tuple"
        }
      ],
      "stateMutability": "view",
      "type": "function"
    },
    {
      "inputs": [],
      "name": "totalDepositBoxCollateral",
      "outputs": [
        {
          "components": [
            {
              "internalType": "uint256",
              "name": "rawValue",
              "type": "uint256"
            }
          ],
          "internalType": "struct FixedPoint.Unsigned",
          "name": "",
          "type": "tuple"
        }
      ],
      "stateMutability": "view",
      "type": "function"
    }
  ],
  "bytecode": "0x60806040523480156200001157600080fd5b5060405162002cde38038062002cde833981016040819052620000349162000495565b60008054600160a01b6001600160a01b03199091166001600160a01b0384161760ff60a01b1916179055828481836200006c62000215565b6200007f6001600160e01b036200024316565b600180546001600160a01b038086166001600160a01b0319928316179092556002805492851692909116919091179055620000c26001600160e01b036200025216565b600381905550620000df6001620002fc60201b620019531760201c565b51600455620000f66001600160e01b036200033b16565b5050600580546001600160a01b0319166001600160a01b039390931692909217909155506200012462000215565b620001376001600160e01b036200024316565b6200014a6001600160e01b036200035016565b6001600160a01b03166390978d1b836040518263ffffffff1660e01b815260040162000177919062000526565b60206040518083038186803b1580156200019057600080fd5b505afa158015620001a5573d6000803e3d6000fd5b505050506040513d601f19601f82011682018060405250810190620001cb9190620004eb565b620001f35760405162461bcd60e51b8152600401620001ea9062000570565b60405180910390fd5b60078290556200020b6001600160e01b036200033b16565b50505050620005de565b600054600160a01b900460ff16620002415760405162461bcd60e51b8152600401620001ea90620005a7565b565b6000805460ff60a01b19169055565b600080546001600160a01b031615620002f6576000809054906101000a90046001600160a01b03166001600160a01b03166329cb924d6040518163ffffffff1660e01b815260040160206040518083038186803b158015620002b357600080fd5b505afa158015620002c8573d6000803e3d6000fd5b505050506040513d601f19601f82011682018060405250810190620002ee91906200050d565b9050620002f9565b50425b90565b6200030662000445565b604051806020016040528062000333670de0b6b3a764000085620003fc60201b62001d381790919060201c565b905292915050565b6000805460ff60a01b1916600160a01b179055565b6002546040516302abf57960e61b81526000916001600160a01b03169063aafd5e4090620003a3907f4964656e74696669657257686974656c697374000000000000000000000000009060040162000526565b60206040518083038186803b158015620003bc57600080fd5b505afa158015620003d1573d6000803e3d6000fd5b505050506040513d601f19601f82011682018060405250810190620003f7919062000470565b905090565b6000826200040d575060006200043f565b828202828482816200041b57fe5b04146200043c5760405162461bcd60e51b8152600401620001ea906200052f565b90505b92915050565b6040518060200160405280600081525090565b80516001600160a01b03811681146200043f57600080fd5b60006020828403121562000482578081fd5b6200048e838362000458565b9392505050565b60008060008060808587031215620004ab578283fd5b620004b7868662000458565b9350620004c8866020870162000458565b925060408501519150620004e0866060870162000458565b905092959194509250565b600060208284031215620004fd578081fd5b815180151581146200043c578182fd5b6000602082840312156200051f578081fd5b5051919050565b90815260200190565b60208082526021908201527f536166654d6174683a206d756c7469706c69636174696f6e206f766572666c6f6040820152607760f81b606082015260800190565b6020808252601c908201527f556e737570706f72746564207072696365206964656e74696669657200000000604082015260600190565b6020808252601f908201527f5265656e7472616e637947756172643a207265656e7472616e742063616c6c00604082015260600190565b6126f080620005ee6000396000f3fe608060405234801561001057600080fd5b506004361061011b5760003560e01c80638129fc1c116100b2578063bc12163011610081578063d1e92c1111610066578063d1e92c11146101db578063dd0eef3d146101ee578063fa45aa00146101f65761011b565b8063bc121630146101c8578063bda02e77146101785761011b565b80638129fc1c1461019d57806381a10ae1146101a55780639b56d6c9146101ad578063b9a3c84c146101c05761011b565b806329cb924d116100ee57806329cb924d146101635780633403c2fc146101785780633cb6ce83146101805780636b6cf9ae146101955761011b565b80630de15fd9146101205780631c39c38d1461013e578063226112801461014657806322f8e56614610150575b600080fd5b6101286101fe565b6040516101359190612133565b60405180910390f35b61012861021a565b61014e610236565b005b61014e61015e3660046120ff565b6102f5565b61016b6103a2565b6040516101359190612270565b61014e61046d565b61018861048d565b6040516101359190612624565b6101886107da565b61014e610808565b61018861085e565b6101886101bb36600461201b565b610876565b6101286108ce565b61014e6101d636600461208b565b6108ea565b61014e6101e936600461208b565b610a4d565b61016b610b96565b610188610b9c565b60015473ffffffffffffffffffffffffffffffffffffffff1681565b60005473ffffffffffffffffffffffffffffffffffffffff1681565b61023e610d90565b610246610dcc565b61024e610e20565b33600090815260066020526040902060018101546102a1576040517f08c379a0000000000000000000000000000000000000000000000000000000008152600401610298906125ed565b60405180910390fd5b8054600182015460405133917fb158ea6c33db5aec992a08be94850f984ed987f3d524e5ec7d0662b689093b14916102d99190612270565b60405180910390a36102ea81610e4a565b506102f3610e61565b565b60005473ffffffffffffffffffffffffffffffffffffffff1661031757600080fd5b6000546040517f22f8e56600000000000000000000000000000000000000000000000000000000815273ffffffffffffffffffffffffffffffffffffffff909116906322f8e5669061036d908490600401612270565b600060405180830381600087803b15801561038757600080fd5b505af115801561039b573d6000803e3d6000fd5b5050505050565b6000805473ffffffffffffffffffffffffffffffffffffffff1615610467576000809054906101000a900473ffffffffffffffffffffffffffffffffffffffff1673ffffffffffffffffffffffffffffffffffffffff166329cb924d6040518163ffffffff1660e01b815260040160206040518083038186803b15801561042857600080fd5b505afa15801561043c573d6000803e3d6000fd5b505050506040513d601f19601f820116820180604052508101906104609190612073565b905061046a565b50425b90565b610475610d90565b61047d610dcc565b610485610e20565b6102f3610e61565b610495611fe3565b61049d610dcc565b6104a5610e20565b60006104af610ea2565b905060006104bb6103a2565b90506104c5611fe3565b6104cd610f69565b90506104e081600063ffffffff610f7116565b156104ee57506107d2915050565b81600354141561050157506107d2915050565b610509611fe3565b610511611fe3565b6003546040517f74201feb00000000000000000000000000000000000000000000000000000000815273ffffffffffffffffffffffffffffffffffffffff8716916374201feb9161056991908890889060040161262e565b604080518083038186803b15801561058057600080fd5b505afa158015610594573d6000803e3d6000fd5b505050506040513d601f19601f820116820180604052508101906105b891906120cb565b600386905590925090506105d2828263ffffffff610f8816565b95506105e586600063ffffffff610f7116565b156105f557506107d29350505050565b610605868463ffffffff610fba16565b1561067e57610612611fe3565b610622878563ffffffff610fc116565b905061062c611fe3565b6106368383610fea565b9050610648838263ffffffff610fc116565b925061065a828263ffffffff610fc116565b91506106766106698584610fea565b859063ffffffff610fc116565b935084975050505b805182516040517f19b92e73d08d517d71ec46136266e4f5d526a8cd4f8501d73713cebfe4f335ef90600090a36106b5868461100a565b6106c682600063ffffffff61106616565b156107875781516001546106fa9173ffffffffffffffffffffffffffffffffffffffff90911690879063ffffffff61107d16565b6001546040517f8659d23200000000000000000000000000000000000000000000000000000000815273ffffffffffffffffffffffffffffffffffffffff87811692638659d23292610754929091169086906004016121ac565b600060405180830381600087803b15801561076e57600080fd5b505af1158015610782573d6000803e3d6000fd5b505050505b61079881600063ffffffff61106616565b156107cc5780516001546107cc9173ffffffffffffffffffffffffffffffffffffffff90911690339063ffffffff6111c316565b50505050505b61046a610e61565b6107e2611fe3565b6107ea610dcc565b60408051602081019091526008548152610803906111e7565b905090565b610810610dcc565b610818610e20565b600980547fffffffffffffffffffffffffffffffffffffffffffffffffffffffffffffff0016600117905560408051600080825260208201909252610485915030611210565b610866611fe3565b61086e610dcc565b610803610f69565b61087e611fe3565b610886610dcc565b73ffffffffffffffffffffffffffffffffffffffff8216600090815260066020908152604091829020825191820190925260029091015481526108c8906111e7565b92915050565b60025473ffffffffffffffffffffffffffffffffffffffff1681565b6108f2610d90565b336108fc8161136a565b610904610dcc565b61090c610e20565b3360009081526006602052604081209061092d90849063ffffffff61106616565b610963576040517f08c379a0000000000000000000000000000000000000000000000000000000008152600401610298906123e9565b8251815561096f6103a2565b600182018190558351604051909133917fadf0d81321571e1d83f52cfa9faf7add412d39431677ee21583f0d8998a9c838916109aa91612270565b60405180910390a36109ba611fe3565b6109c26113ca565b6040805160208101909152600284015481529091506109f29082906109e6906111e7565b9063ffffffff61148b16565b610a28576040517f08c379a0000000000000000000000000000000000000000000000000000000008152600401610298906122d8565b610a323082611493565b610a3f826001015461165b565b5050610a49610e61565b5050565b610a55610d90565b610a5d61048d565b50610a66610dcc565b610a6e610e20565b610a7f81600063ffffffff61106616565b610ab5576040517f08c379a0000000000000000000000000000000000000000000000000000000008152600401610298906123e9565b33600090815260066020908152604080832081519283019091526002810154825291610af091610ae4906111e7565b9063ffffffff610f7116565b15610b215760405133907fbde21ee6ad063c852c81c03b9742ffeb9366a51af89bc3f6ad9aef42068abc3b90600090a25b610b2b81836116f3565b50815160405133907fe1fffcc4923d04b559f4d29a8bfc6cda04eb5b0d3c460751c2402c5c5cc9109c90600090a38151600154610b8a9173ffffffffffffffffffffffffffffffffffffffff909116903390309063ffffffff61171416565b50610b93610e61565b50565b60045481565b610ba4611fe3565b610bac610d90565b610bb461048d565b50610bbd610dcc565b610bc5610e20565b336000908152600660205260409020600181015415801590610bf25750610bea6103a2565b816001015411155b610c28576040517f08c379a0000000000000000000000000000000000000000000000000000000008152600401610298906124b4565b610c30611fe3565b610c3d8260010154611735565b9050610c47611fe3565b604080516020810190915283548152610c66908363ffffffff6118f116565b604080516020810190915260028501548152909150610c9590610c88906111e7565b829063ffffffff610fba16565b15610ce457604080516020810190915260028401548152610cb5906111e7565b60405190915033907f01d32da79f1973ab64f1de861ae483d2e685bbdf62afb66a4e5f6a8db307b90790600090a25b610cee8382611932565b935083600001513373ffffffffffffffffffffffffffffffffffffffff167f1489278b1433363140f0068698af68fad66f0f617b6cabe5710540b57397de4284600001518660010154604051610d45929190612279565b60405180910390a3610d5683610e4a565b8351600154610d859173ffffffffffffffffffffffffffffffffffffffff90911690339063ffffffff6111c316565b50505061046a610e61565b60095460ff166102f3576040517f08c379a00000000000000000000000000000000000000000000000000000000081526004016102989061237b565b60005474010000000000000000000000000000000000000000900460ff166102f3576040517f08c379a000000000000000000000000000000000000000000000000000000000815260040161029890612548565b600080547fffffffffffffffffffffff00ffffffffffffffffffffffffffffffffffffffff169055565b610e546000611953565b5181556000600190910155565b600080547fffffffffffffffffffffff00ffffffffffffffffffffffffffffffffffffffff1674010000000000000000000000000000000000000000179055565b6002546040517faafd5e4000000000000000000000000000000000000000000000000000000000815260009173ffffffffffffffffffffffffffffffffffffffff169063aafd5e4090610f19907f53746f726500000000000000000000000000000000000000000000000000000090600401612270565b60206040518083038186803b158015610f3157600080fd5b505afa158015610f45573d6000803e3d6000fd5b505050506040513d601f19601f820116820180604052508101906108039190612037565b6107ea611fe3565b6000610f7c82611953565b51835114905092915050565b610f90611fe3565b6040805160208101909152825184518291610fb1919063ffffffff61198716565b90529392505050565b5190511190565b610fc9611fe3565b6040805160208101909152825184518291610fb1919063ffffffff6119c616565b610ff2611fe3565b81518351106110015781611003565b825b9392505050565b611012611fe3565b611022838363ffffffff611a0816565b905061105d611041826110356001611953565b9063ffffffff610fc116565b604080516020810190915260045481529063ffffffff611aaa16565b51600455505050565b600061107182611953565b51835111905092915050565b600061111a828573ffffffffffffffffffffffffffffffffffffffff1663dd62ed3e30876040518363ffffffff1660e01b81526004016110be929190612154565b60206040518083038186803b1580156110d657600080fd5b505afa1580156110ea573d6000803e3d6000fd5b505050506040513d601f19601f8201168201806040525081019061110e9190612073565b9063ffffffff61198716565b90506111bd8463095ea7b360e01b858460405160240161113b9291906121d3565b604080517fffffffffffffffffffffffffffffffffffffffffffffffffffffffffffffffe08184030181529190526020810180517bffffffffffffffffffffffffffffffffffffffffffffffffffffffff167fffffffff0000000000000000000000000000000000000000000000000000000090931692909217909152611aed565b50505050565b6111e28363a9059cbb60e01b848460405160240161113b9291906121d3565b505050565b6111ef611fe3565b604080516020810190915260045481526108c890839063ffffffff611aaa16565b6005546040517faafd5e4000000000000000000000000000000000000000000000000000000000815273ffffffffffffffffffffffffffffffffffffffff90911690600090829063aafd5e409061128b907f526567697374727900000000000000000000000000000000000000000000000090600401612270565b60206040518083038186803b1580156112a357600080fd5b505afa1580156112b7573d6000803e3d6000fd5b505050506040513d601f19601f820116820180604052508101906112db9190612037565b6040517f66c8c25000000000000000000000000000000000000000000000000000000000815290915073ffffffffffffffffffffffffffffffffffffffff8216906366c8c2509061133290879087906004016121f9565b600060405180830381600087803b15801561134c57600080fd5b505af1158015611360573d6000803e3d6000fd5b5050505050505050565b73ffffffffffffffffffffffffffffffffffffffff811660009081526006602052604090206001015415610b93576040517f08c379a00000000000000000000000000000000000000000000000000000000081526004016102989061247d565b6113d2611fe3565b60006113dc610ea2565b6001546040517f5b97aadd00000000000000000000000000000000000000000000000000000000815291925073ffffffffffffffffffffffffffffffffffffffff80841692635b97aadd92611435921690600401612133565b60206040518083038186803b15801561144d57600080fd5b505afa158015611461573d6000803e3d6000fd5b505050506040513d601f19601f8201168201806040525081019061148591906120b0565b91505090565b519051101590565b6114a481600063ffffffff610f7116565b156114ae57610a49565b73ffffffffffffffffffffffffffffffffffffffff821630146115015780516001546114fc9173ffffffffffffffffffffffffffffffffffffffff909116908490309063ffffffff61171416565b611565565b611509611fe3565b611511610f69565b9050611523818363ffffffff610fba16565b611559576040517f08c379a0000000000000000000000000000000000000000000000000000000008152600401610298906125b6565b611563828261100a565b505b80516040517f4f9bf7e8cd0f2456f9c43d2597bedcf1446c9c64544053f1ece6423ae9a07e5290600090a2600061159a610ea2565b82516001549192506115ca9173ffffffffffffffffffffffffffffffffffffffff1690839063ffffffff61107d16565b6001546040517f8659d23200000000000000000000000000000000000000000000000000000000815273ffffffffffffffffffffffffffffffffffffffff83811692638659d23292611624929091169086906004016121ac565b600060405180830381600087803b15801561163e57600080fd5b505af1158015611652573d6000803e3d6000fd5b50505050505050565b6000611665611c3a565b6007546040517f68ad8ae300000000000000000000000000000000000000000000000000000000815291925073ffffffffffffffffffffffffffffffffffffffff8316916368ad8ae3916116bd918690600401612279565b600060405180830381600087803b1580156116d757600080fd5b505af11580156116eb573d6000803e3d6000fd5b505050505050565b6116fb611fe3565b6117088360020183611cb1565b50611003600883611cb1565b6111bd846323b872dd60e01b85858560405160240161113b9392919061217b565b61173d611fe3565b6000611747611c3a565b6007546040517fa03e881a00000000000000000000000000000000000000000000000000000000815291925073ffffffffffffffffffffffffffffffffffffffff83169163a03e881a9161179f918790600401612279565b60206040518083038186803b1580156117b757600080fd5b505afa1580156117cb573d6000803e3d6000fd5b505050506040513d601f19601f820116820180604052508101906117ef9190612053565b611825576040517f08c379a0000000000000000000000000000000000000000000000000000000008152600401610298906123b2565b6007546040517fc9280f0600000000000000000000000000000000000000000000000000000000815260009173ffffffffffffffffffffffffffffffffffffffff84169163c9280f069161187d918890600401612279565b60206040518083038186803b15801561189557600080fd5b505afa1580156118a9573d6000803e3d6000fd5b505050506040513d601f19601f820116820180604052508101906118cd9190612073565b905060008112156118dc575060005b60408051602081019091529081529392505050565b6118f9611fe3565b6040805160208101909152825184518291610fb19161192690670de0b6b3a764000063ffffffff611d3816565b9063ffffffff611d8c16565b61193a611fe3565b6119478360020183611dce565b50611003600883611dce565b61195b611fe3565b60408051602081019091528061197f84670de0b6b3a764000063ffffffff611d3816565b905292915050565b600082820183811015611003576040517f08c379a00000000000000000000000000000000000000000000000000000000081526004016102989061230f565b600061100383836040518060400160405280601e81526020017f536166654d6174683a207375627472616374696f6e206f766572666c6f770000815250611e57565b611a10611fe3565b8251600090611a2d90670de0b6b3a764000063ffffffff611d3816565b8351909150600090611a4690839063ffffffff611d8c16565b8451909150600090611a5f90849063ffffffff611e9d16565b90508015611a9157604080516020810190915280611a8484600163ffffffff61198716565b81525093505050506108c8565b60405180602001604052808381525093505050506108c8565b611ab2611fe3565b6040805160208101909152825184518291670de0b6b3a764000091611adc9163ffffffff611d3816565b81611ae357fe5b0490529392505050565b611b0c8273ffffffffffffffffffffffffffffffffffffffff16611edf565b611b42576040517f08c379a00000000000000000000000000000000000000000000000000000000081526004016102989061257f565b600060608373ffffffffffffffffffffffffffffffffffffffff1683604051611b6b9190612117565b6000604051808303816000865af19150503d8060008114611ba8576040519150601f19603f3d011682016040523d82523d6000602084013e611bad565b606091505b509150915081611be9576040517f08c379a000000000000000000000000000000000000000000000000000000000815260040161029890612346565b8051156111bd5780806020019051810190611c049190612053565b6111bd576040517f08c379a0000000000000000000000000000000000000000000000000000000008152600401610298906124eb565b6002546040517faafd5e4000000000000000000000000000000000000000000000000000000000815260009173ffffffffffffffffffffffffffffffffffffffff169063aafd5e4090610f19907f4f7261636c65000000000000000000000000000000000000000000000000000090600401612270565b611cb9611fe3565b611cc1611fe3565b604080516020810190915284548152611cd9906111e7565b9050611ce3611fe3565b611cec84611f1b565b604080516020810190915286548152909150611d0e908263ffffffff610f8816565b518086556040805160208101909152908152611d2f908390611035906111e7565b95945050505050565b600082611d47575060006108c8565b82820282848281611d5457fe5b0414611003576040517f08c379a000000000000000000000000000000000000000000000000000000000815260040161029890612420565b600061100383836040518060400160405280601a81526020017f536166654d6174683a206469766973696f6e206279207a65726f000000000000815250611f44565b611dd6611fe3565b611dde611fe3565b604080516020810190915284548152611df6906111e7565b9050611e00611fe3565b611e0984611f1b565b604080516020810190915286548152909150611e2b908263ffffffff610fc116565b518086556040805160208101909152908152611d2f90611e4a906111e7565b839063ffffffff610fc116565b60008184841115611e95576040517f08c379a00000000000000000000000000000000000000000000000000000000081526004016102989190612287565b505050900390565b600061100383836040518060400160405280601881526020017f536166654d6174683a206d6f64756c6f206279207a65726f0000000000000000815250611f95565b6000813f7fc5d2460186f7233c927e7db2dcc703c0e500b653ca82273b7bfad8045d85a470818114801590611f1357508115155b949350505050565b611f23611fe3565b604080516020810190915260045481526108c890839063ffffffff6118f116565b60008183611f7f576040517f08c379a00000000000000000000000000000000000000000000000000000000081526004016102989190612287565b506000838581611f8b57fe5b0495945050505050565b60008183611fd0576040517f08c379a00000000000000000000000000000000000000000000000000000000081526004016102989190612287565b50828481611fda57fe5b06949350505050565b6040518060200160405280600081525090565b600060208284031215612007578081fd5b6120116020612645565b9151825250919050565b60006020828403121561202c578081fd5b813561100381612698565b600060208284031215612048578081fd5b815161100381612698565b600060208284031215612064578081fd5b81518015158114611003578182fd5b600060208284031215612084578081fd5b5051919050565b60006020828403121561209c578081fd5b6120a66020612645565b9135825250919050565b6000602082840312156120c1578081fd5b6110038383611ff6565b600080604083850312156120dd578081fd5b6120e78484611ff6565b91506120f68460208501611ff6565b90509250929050565b600060208284031215612110578081fd5b5035919050565b6000825161212981846020870161266c565b9190910192915050565b73ffffffffffffffffffffffffffffffffffffffff91909116815260200190565b73ffffffffffffffffffffffffffffffffffffffff92831681529116602082015260400190565b73ffffffffffffffffffffffffffffffffffffffff9384168152919092166020820152604081019190915260600190565b73ffffffffffffffffffffffffffffffffffffffff92909216825251602082015260400190565b73ffffffffffffffffffffffffffffffffffffffff929092168252602082015260400190565b604080825283519082018190526000906020906060840190828701845b8281101561224857815173ffffffffffffffffffffffffffffffffffffffff1684529284019290840190600101612216565b50505073ffffffffffffffffffffffffffffffffffffffff9490941692019190915250919050565b90815260200190565b918252602082015260400190565b60006020825282518060208401526122a681604085016020870161266c565b601f017fffffffffffffffffffffffffffffffffffffffffffffffffffffffffffffffe0169190910160400192915050565b60208082526014908201527f43616e6e6f74207061792066696e616c20666565000000000000000000000000604082015260600190565b6020808252601b908201527f536166654d6174683a206164646974696f6e206f766572666c6f770000000000604082015260600190565b6020808252818101527f5361666545524332303a206c6f772d6c6576656c2063616c6c206661696c6564604082015260600190565b60208082526016908201527f556e696e697469616c697a656420636f6e747261637400000000000000000000604082015260600190565b60208082526017908201527f556e7265736f6c766564206f7261636c65207072696365000000000000000000604082015260600190565b60208082526019908201527f496e76616c696420636f6c6c61746572616c20616d6f756e7400000000000000604082015260600190565b60208082526021908201527f536166654d6174683a206d756c7469706c69636174696f6e206f766572666c6f60408201527f7700000000000000000000000000000000000000000000000000000000000000606082015260800190565b60208082526012908201527f50656e64696e67207769746864726177616c0000000000000000000000000000604082015260600190565b60208082526018908201527f496e76616c696420776974686472617720726571756573740000000000000000604082015260600190565b6020808252602a908201527f5361666545524332303a204552433230206f7065726174696f6e20646964206e60408201527f6f74207375636365656400000000000000000000000000000000000000000000606082015260800190565b6020808252601f908201527f5265656e7472616e637947756172643a207265656e7472616e742063616c6c00604082015260600190565b6020808252601f908201527f5361666545524332303a2063616c6c20746f206e6f6e2d636f6e747261637400604082015260600190565b6020808252601a908201527f46696e616c20666565206973206d6f7265207468616e20506643000000000000604082015260600190565b60208082526015908201527f4e6f2070656e64696e67207769746864726177616c0000000000000000000000604082015260600190565b9051815260200190565b928352602083019190915251604082015260600190565b60405181810167ffffffffffffffff8111828210171561266457600080fd5b604052919050565b60005b8381101561268757818101518382015260200161266f565b838111156111bd5750506000910152565b73ffffffffffffffffffffffffffffffffffffffff81168114610b9357600080fdfea26469706673582212201d2af1d54629c22842a416dbed89b211fd76bfb240932f3922ae15174b8f1c6764736f6c63430006040033",
  "source": "pragma solidity ^0.6.0;\npragma experimental ABIEncoderV2;\n\nimport \"@openzeppelin/contracts/math/SafeMath.sol\";\nimport \"@openzeppelin/contracts/token/ERC20/IERC20.sol\";\nimport \"@openzeppelin/contracts/token/ERC20/SafeERC20.sol\";\n\nimport \"../common/FeePayer.sol\";\n\nimport \"../../common/implementation/FixedPoint.sol\";\n\nimport \"../../oracle/interfaces/IdentifierWhitelistInterface.sol\";\nimport \"../../oracle/interfaces/OracleInterface.sol\";\nimport \"../../oracle/interfaces/AdministrateeInterface.sol\";\nimport \"../../oracle/implementation/ContractCreator.sol\";\n\n\n/**\n * @title Token Deposit Box\n * @notice This is a minimal example of a financial template that depends on price requests from the DVM.\n * This contract should be thought of as a \"Deposit Box\" into which the user deposits some ERC20 collateral.\n * The main feature of this box is that the user can withdraw their ERC20 corresponding to a desired USD amount.\n * When the user wants to make a withdrawal, a price request is enqueued with the UMA DVM.\n * For simplicty, the user is constrained to have one outstanding withdrawal request at any given time.\n * Regular fees are charged on the collateral in the deposit box throughout the lifetime of the deposit box,\n * and final fees are charged on each price request.\n *\n * This example is intended to accompany a technical tutorial for how to integrate the DVM into a project.\n * The main feature this demo serves to showcase is how to build a financial product on-chain that \"pulls\" price\n * requests from the DVM on-demand, which is an implementation of the \"priceless\" oracle framework.\n *\n * The typical user flow would be:\n * - User sets up a deposit box for the (wETH - USD) price-identifier. The \"collateral currency\" in this deposit\n *   box is therefore wETH.\n *   The user can subsequently make withdrawal requests for USD-denominated amounts of wETH.\n * - User deposits 10 wETH into their deposit box.\n * - User later requests to withdraw $100 USD of wETH.\n * - DepositBox asks DVM for latest wETH/USD exchange rate.\n * - DVM resolves the exchange rate at: 1 wETH is worth 200 USD.\n * - DepositBox transfers 0.5 wETH to user.\n */\ncontract DepositBox is FeePayer, AdministrateeInterface, ContractCreator {\n    using SafeMath for uint256;\n    using FixedPoint for FixedPoint.Unsigned;\n    using SafeERC20 for IERC20;\n\n    // Represents a single caller's deposit box. All collateral is held by this contract.\n    struct DepositBoxData {\n        // Requested amount of collateral, denominated in quote asset of the price identifier.\n        // Example: If the price identifier is wETH-USD, and the `withdrawalRequestAmount = 100`, then\n        // this represents a withdrawal request for 100 USD worth of wETH.\n        FixedPoint.Unsigned withdrawalRequestAmount;\n        // Timestamp of the latest withdrawal request. A withdrawal request is pending if `requestPassTimestamp != 0`.\n        uint256 requestPassTimestamp;\n        // Raw collateral value. This value should never be accessed directly -- always use _getFeeAdjustedCollateral().\n        // To add or remove collateral, use _addCollateral() and _removeCollateral().\n        FixedPoint.Unsigned rawCollateral;\n    }\n\n    // Maps addresses to their deposit boxes. Each address can have only one position.\n    mapping(address => DepositBoxData) private depositBoxes;\n\n    // Unique identifier for DVM price feed ticker.\n    bytes32 private priceIdentifier;\n\n    // Similar to the rawCollateral in DepositBoxData, this value should not be used directly.\n    // _getFeeAdjustedCollateral(), _addCollateral() and _removeCollateral() must be used to access and adjust.\n    FixedPoint.Unsigned private rawTotalDepositBoxCollateral;\n\n    // This blocks every public state-modifying method until it flips to true, via the `initialize()` method.\n    bool private initialized;\n\n    /****************************************\n     *                EVENTS                *\n     ****************************************/\n\n    event NewDepositBox(address indexed user);\n    event EndedDepositBox(address indexed user);\n    event Deposit(address indexed user, uint256 indexed collateralAmount);\n    event RequestWithdrawal(address indexed user, uint256 indexed collateralAmount, uint256 requestPassTimestamp);\n    event RequestWithdrawalExecuted(\n        address indexed user,\n        uint256 indexed collateralAmount,\n        uint256 exchangeRate,\n        uint256 requestPassTimestamp\n    );\n    event RequestWithdrawalCanceled(\n        address indexed user,\n        uint256 indexed collateralAmount,\n        uint256 requestPassTimestamp\n    );\n\n    /****************************************\n     *               MODIFIERS              *\n     ****************************************/\n\n    modifier noPendingWithdrawal(address user) {\n        _depositBoxHasNoPendingWithdrawal(user);\n        _;\n    }\n\n    modifier isInitialized() {\n        _isInitialized();\n        _;\n    }\n\n    /****************************************\n     *           PUBLIC FUNCTIONS           *\n     ****************************************/\n\n    /**\n     * @notice Construct the DepositBox.\n     * @param _collateralAddress ERC20 token to be deposited.\n     * @param _finderAddress UMA protocol Finder used to discover other protocol contracts.\n     * @param _priceIdentifier registered in the DVM, used to price the ERC20 deposited.\n     * The price identifier consists of a \"base\" asset and a \"quote\" asset. The \"base\" asset corresponds to the collateral ERC20\n     * currency deposited into this account, and it is denominated in the \"quote\" asset on withdrawals.\n     * An example price identifier would be \"ETH-USD\" which will resolve and return the USD price of ETH.\n     * @param _timerAddress Contract that stores the current time in a testing environment.\n     * Must be set to 0x0 for production environments that use live time.\n     */\n    constructor(\n        address _collateralAddress,\n        address _finderAddress,\n        bytes32 _priceIdentifier,\n        address _timerAddress\n    )\n        public\n        ContractCreator(_finderAddress)\n        FeePayer(_collateralAddress, _finderAddress, _timerAddress)\n        nonReentrant()\n    {\n        require(_getIdentifierWhitelist().isIdentifierSupported(_priceIdentifier), \"Unsupported price identifier\");\n\n        priceIdentifier = _priceIdentifier;\n    }\n\n    /**\n     * @notice This should be called after construction of the DepositBox and handles registration with the Registry, which is required\n     * to make price requests in production environments.\n     * @dev This contract must hold the `ContractCreator` role with the Registry in order to register itself as a financial-template with the DVM.\n     * Note that `_registerContract` cannot be called from the constructor because this contract first needs to be given the `ContractCreator` role\n     * in order to register with the `Registry`. But, its address is not known until after deployment.\n     */\n    function initialize() public nonReentrant() {\n        initialized = true;\n        _registerContract(new address[](0), address(this));\n    }\n\n    /**\n     * @notice Transfers `collateralAmount` of `collateralCurrency` into caller's deposit box.\n     * @dev This contract must be approved to spend at least `collateralAmount` of `collateralCurrency`.\n     * @param collateralAmount total amount of collateral tokens to be sent to the sponsor's position.\n     */\n    function deposit(FixedPoint.Unsigned memory collateralAmount) public isInitialized() fees() nonReentrant() {\n        require(collateralAmount.isGreaterThan(0), \"Invalid collateral amount\");\n        DepositBoxData storage depositBoxData = depositBoxes[msg.sender];\n        if (_getFeeAdjustedCollateral(depositBoxData.rawCollateral).isEqual(0)) {\n            emit NewDepositBox(msg.sender);\n        }\n\n        // Increase the individual deposit box and global collateral balance by collateral amount.\n        _incrementCollateralBalances(depositBoxData, collateralAmount);\n\n        emit Deposit(msg.sender, collateralAmount.rawValue);\n\n        // Move collateral currency from sender to contract.\n        collateralCurrency.safeTransferFrom(msg.sender, address(this), collateralAmount.rawValue);\n    }\n\n    /**\n     * @notice Starts a withdrawal request that allows the sponsor to withdraw `denominatedCollateralAmount`\n     * from their position denominated in the quote asset of the price identifier, following a DVM price resolution.\n     * @dev The request will be pending for the duration of the DVM vote and can be cancelled at any time.\n     * Only one withdrawal request can exist for the user.\n     * @param denominatedCollateralAmount the quote-asset denominated amount of collateral requested to withdraw.\n     */\n    function requestWithdrawal(FixedPoint.Unsigned memory denominatedCollateralAmount)\n        public\n        isInitialized()\n        noPendingWithdrawal(msg.sender)\n        nonReentrant()\n    {\n        DepositBoxData storage depositBoxData = depositBoxes[msg.sender];\n        require(denominatedCollateralAmount.isGreaterThan(0), \"Invalid collateral amount\");\n\n        // Update the position object for the user.\n        depositBoxData.withdrawalRequestAmount = denominatedCollateralAmount;\n        depositBoxData.requestPassTimestamp = getCurrentTime();\n\n        emit RequestWithdrawal(msg.sender, denominatedCollateralAmount.rawValue, depositBoxData.requestPassTimestamp);\n\n        // Every price request costs a fixed fee. Check that this user has enough deposited to cover the final fee.\n        FixedPoint.Unsigned memory finalFee = _computeFinalFees();\n        require(\n            _getFeeAdjustedCollateral(depositBoxData.rawCollateral).isGreaterThanOrEqual(finalFee),\n            \"Cannot pay final fee\"\n        );\n        _payFinalFees(address(this), finalFee);\n        // A price request is sent for the current timestamp.\n        _requestOraclePrice(depositBoxData.requestPassTimestamp);\n    }\n\n    /**\n     * @notice After a passed withdrawal request (i.e., by a call to `requestWithdrawal` and subsequent DVM price resolution),\n     * withdraws `depositBoxData.withdrawalRequestAmount` of collateral currency denominated in the quote asset.\n     * @dev Might not withdraw the full requested amount in order to account for precision loss or if the full requested\n     * amount exceeds the collateral in the position (due to paying fees).\n     * @return amountWithdrawn The actual amount of collateral withdrawn.\n     */\n    function executeWithdrawal()\n        external\n        isInitialized()\n        fees()\n        nonReentrant()\n        returns (FixedPoint.Unsigned memory amountWithdrawn)\n    {\n        DepositBoxData storage depositBoxData = depositBoxes[msg.sender];\n        require(\n            depositBoxData.requestPassTimestamp != 0 && depositBoxData.requestPassTimestamp <= getCurrentTime(),\n            \"Invalid withdraw request\"\n        );\n\n        // Get the resolved price or revert.\n        FixedPoint.Unsigned memory exchangeRate = _getOraclePrice(depositBoxData.requestPassTimestamp);\n\n        // Calculate denomated amount of collateral based on resolved exchange rate.\n        // Example 1: User wants to withdraw $100 of ETH, exchange rate is $200/ETH, therefore user to receive 0.5 ETH.\n        // Example 2: User wants to withdraw $250 of ETH, exchange rate is $200/ETH, therefore user to receive 1.25 ETH.\n        FixedPoint.Unsigned memory denominatedAmountToWithdraw = depositBoxData.withdrawalRequestAmount.div(\n            exchangeRate\n        );\n\n        // If withdrawal request amount is > collateral, then withdraw the full collateral amount and delete the deposit box data.\n        if (denominatedAmountToWithdraw.isGreaterThan(_getFeeAdjustedCollateral(depositBoxData.rawCollateral))) {\n            denominatedAmountToWithdraw = _getFeeAdjustedCollateral(depositBoxData.rawCollateral);\n\n            // Reset the position state as all the value has been removed after settlement.\n            emit EndedDepositBox(msg.sender);\n        }\n\n        // Decrease the individual deposit box and global collateral balance.\n        amountWithdrawn = _decrementCollateralBalances(depositBoxData, denominatedAmountToWithdraw);\n\n        emit RequestWithdrawalExecuted(\n            msg.sender,\n            amountWithdrawn.rawValue,\n            exchangeRate.rawValue,\n            depositBoxData.requestPassTimestamp\n        );\n\n        // Reset withdrawal request by setting withdrawal request timestamp to 0.\n        _resetWithdrawalRequest(depositBoxData);\n\n        // Transfer approved withdrawal amount from the contract to the caller.\n        collateralCurrency.safeTransfer(msg.sender, amountWithdrawn.rawValue);\n    }\n\n    /**\n     * @notice Cancels a pending withdrawal request.\n     */\n    function cancelWithdrawal() external isInitialized() nonReentrant() {\n        DepositBoxData storage depositBoxData = depositBoxes[msg.sender];\n        require(depositBoxData.requestPassTimestamp != 0, \"No pending withdrawal\");\n\n        emit RequestWithdrawalCanceled(\n            msg.sender,\n            depositBoxData.withdrawalRequestAmount.rawValue,\n            depositBoxData.requestPassTimestamp\n        );\n\n        // Reset withdrawal request by setting withdrawal request timestamp to 0.\n        _resetWithdrawalRequest(depositBoxData);\n    }\n\n    /**\n     * @notice `emergencyShutdown` and `remargin` are required to be implemented by all financial contracts and exposed to the DVM, but\n     * because this is a minimal demo they will simply exit silently.\n     */\n    function emergencyShutdown() external override isInitialized() nonReentrant() {\n        return;\n    }\n\n    /**\n     * @notice Same comment as `emergencyShutdown`. For the sake of simplicity, this will simply exit silently.\n     */\n    function remargin() external override isInitialized() nonReentrant() {\n        return;\n    }\n\n    /**\n     * @notice Accessor method for a user's collateral.\n     * @dev This is necessary because the struct returned by the depositBoxes() method shows\n     * rawCollateral, which isn't a user-readable value.\n     * @param user address whose collateral amount is retrieved.\n     * @return the fee-adjusted collateral amount in the deposit box (i.e. available for withdrawal).\n     */\n    function getCollateral(address user) external view nonReentrantView() returns (FixedPoint.Unsigned memory) {\n        return _getFeeAdjustedCollateral(depositBoxes[user].rawCollateral);\n    }\n\n    /**\n     * @notice Accessor method for the total collateral stored within the entire contract.\n     * @return the total fee-adjusted collateral amount in the contract (i.e. across all users).\n     */\n    function totalDepositBoxCollateral() external view nonReentrantView() returns (FixedPoint.Unsigned memory) {\n        return _getFeeAdjustedCollateral(rawTotalDepositBoxCollateral);\n    }\n\n    /****************************************\n     *          INTERNAL FUNCTIONS          *\n     ****************************************/\n\n    // Requests a price for `priceIdentifier` at `requestedTime` from the Oracle.\n    function _requestOraclePrice(uint256 requestedTime) internal {\n        OracleInterface oracle = _getOracle();\n        oracle.requestPrice(priceIdentifier, requestedTime);\n    }\n\n    // Ensure individual and global consistency when increasing collateral balances. Returns the change to the position.\n    function _incrementCollateralBalances(\n        DepositBoxData storage depositBoxData,\n        FixedPoint.Unsigned memory collateralAmount\n    ) internal returns (FixedPoint.Unsigned memory) {\n        _addCollateral(depositBoxData.rawCollateral, collateralAmount);\n        return _addCollateral(rawTotalDepositBoxCollateral, collateralAmount);\n    }\n\n    // Ensure individual and global consistency when decrementing collateral balances. Returns the change to the\n    // position. We elect to return the amount that the global collateral is decreased by, rather than the individual\n    // position's collateral, because we need to maintain the invariant that the global collateral is always\n    // <= the collateral owned by the contract to avoid reverts on withdrawals. The amount returned = amount withdrawn.\n    function _decrementCollateralBalances(\n        DepositBoxData storage depositBoxData,\n        FixedPoint.Unsigned memory collateralAmount\n    ) internal returns (FixedPoint.Unsigned memory) {\n        _removeCollateral(depositBoxData.rawCollateral, collateralAmount);\n        return _removeCollateral(rawTotalDepositBoxCollateral, collateralAmount);\n    }\n\n    function _resetWithdrawalRequest(DepositBoxData storage depositBoxData) internal {\n        depositBoxData.withdrawalRequestAmount = FixedPoint.fromUnscaledUint(0);\n        depositBoxData.requestPassTimestamp = 0;\n    }\n\n    function _depositBoxHasNoPendingWithdrawal(address user) internal view {\n        require(depositBoxes[user].requestPassTimestamp == 0, \"Pending withdrawal\");\n    }\n\n    function _isInitialized() internal view {\n        require(initialized, \"Uninitialized contract\");\n    }\n\n    function _getIdentifierWhitelist() internal view returns (IdentifierWhitelistInterface) {\n        return IdentifierWhitelistInterface(finder.getImplementationAddress(OracleInterfaces.IdentifierWhitelist));\n    }\n\n    function _getOracle() internal view returns (OracleInterface) {\n        return OracleInterface(finder.getImplementationAddress(OracleInterfaces.Oracle));\n    }\n\n    // Fetches a resolved Oracle price from the Oracle. Reverts if the Oracle hasn't resolved for this request.\n    function _getOraclePrice(uint256 requestedTime) internal view returns (FixedPoint.Unsigned memory) {\n        OracleInterface oracle = _getOracle();\n        require(oracle.hasPrice(priceIdentifier, requestedTime), \"Unresolved oracle price\");\n        int256 oraclePrice = oracle.getPrice(priceIdentifier, requestedTime);\n\n        // For simplicity we don't want to deal with negative prices.\n        if (oraclePrice < 0) {\n            oraclePrice = 0;\n        }\n        return FixedPoint.Unsigned(uint256(oraclePrice));\n    }\n\n    // `_pfc()` is inherited from FeePayer and must be implemented to return the available pool of collateral from\n    // which fees can be charged. For this contract, the available fee pool is simply all of the collateral locked up in the\n    // contract.\n    function _pfc() internal virtual override view returns (FixedPoint.Unsigned memory) {\n        return _getFeeAdjustedCollateral(rawTotalDepositBoxCollateral);\n    }\n}\n",
  "sourcePath": "/home/alessandrovm/JarvisLavoro/SynFiat/packages/contracts/contracts/uma-contracts/financial-templates/demo/DepositBox.sol",
  "compiler": {
    "name": "solc",
    "version": "0.6.4+commit.1dca32f3.Emscripten.clang"
  },
  "schemaVersion": "3.2.5",
  "updatedAt": "2020-09-18T09:03:22.726Z",
  "devdoc": {
    "methods": {
      "constructor": {
        "params": {
          "_collateralAddress": "ERC20 token to be deposited.",
          "_finderAddress": "UMA protocol Finder used to discover other protocol contracts.",
          "_priceIdentifier": "registered in the DVM, used to price the ERC20 deposited. The price identifier consists of a \"base\" asset and a \"quote\" asset. The \"base\" asset corresponds to the collateral ERC20 currency deposited into this account, and it is denominated in the \"quote\" asset on withdrawals. An example price identifier would be \"ETH-USD\" which will resolve and return the USD price of ETH.",
          "_timerAddress": "Contract that stores the current time in a testing environment. Must be set to 0x0 for production environments that use live time."
        }
      },
      "deposit((uint256))": {
        "details": "This contract must be approved to spend at least `collateralAmount` of `collateralCurrency`.",
        "params": {
          "collateralAmount": "total amount of collateral tokens to be sent to the sponsor's position."
        }
      },
      "executeWithdrawal()": {
        "details": "Might not withdraw the full requested amount in order to account for precision loss or if the full requested amount exceeds the collateral in the position (due to paying fees).",
        "returns": {
          "amountWithdrawn": "The actual amount of collateral withdrawn."
        }
      },
      "getCollateral(address)": {
        "details": "This is necessary because the struct returned by the depositBoxes() method shows rawCollateral, which isn't a user-readable value.",
        "params": {
          "user": "address whose collateral amount is retrieved."
        },
        "returns": {
          "_0": "the fee-adjusted collateral amount in the deposit box (i.e. available for withdrawal)."
        }
      },
      "initialize()": {
        "details": "This contract must hold the `ContractCreator` role with the Registry in order to register itself as a financial-template with the DVM. Note that `_registerContract` cannot be called from the constructor because this contract first needs to be given the `ContractCreator` role in order to register with the `Registry`. But, its address is not known until after deployment."
      },
      "payRegularFees()": {
        "details": "These must be paid periodically for the life of the contract. If the contract has not paid its regular fee in a week or more then a late penalty is applied which is sent to the caller. If the amount of fees owed are greater than the pfc, then this will pay as much as possible from the available collateral. An event is only fired if the fees charged are greater than 0.",
        "returns": {
          "totalPaid": "Amount of collateral that the contract paid (sum of the amount paid to the Store and caller). This returns 0 and exit early if there is no pfc, fees were already paid during the current block, or the fee rate is 0."
        }
      },
      "pfc()": {
        "details": "This is equivalent to the collateral pool available from which to pay fees. Therefore, derived contracts are expected to implement this so that pay-fee methods can correctly compute the owed fees as a % of PfC.",
        "returns": {
          "_0": "pfc value for equal to the current profit from corrution denominated in collateral currency."
        }
      },
      "requestWithdrawal((uint256))": {
        "details": "The request will be pending for the duration of the DVM vote and can be cancelled at any time. Only one withdrawal request can exist for the user.",
        "params": {
          "denominatedCollateralAmount": "the quote-asset denominated amount of collateral requested to withdraw."
        }
      },
      "setCurrentTime(uint256)": {
        "details": "Will revert if not running in test mode.",
        "params": {
          "time": "timestamp to set current Testable time to."
        }
      }
    },
    "title": "Token Deposit Box"
  },
  "userdoc": {
    "methods": {
      "cancelWithdrawal()": {
        "notice": "Cancels a pending withdrawal request."
      },
      "constructor": "Construct the DepositBox.",
      "deposit((uint256))": {
        "notice": "Transfers `collateralAmount` of `collateralCurrency` into caller's deposit box."
      },
      "emergencyShutdown()": {
        "notice": "`emergencyShutdown` and `remargin` are required to be implemented by all financial contracts and exposed to the DVM, but because this is a minimal demo they will simply exit silently."
      },
      "executeWithdrawal()": {
        "notice": "After a passed withdrawal request (i.e., by a call to `requestWithdrawal` and subsequent DVM price resolution), withdraws `depositBoxData.withdrawalRequestAmount` of collateral currency denominated in the quote asset."
      },
      "getCollateral(address)": {
        "notice": "Accessor method for a user's collateral."
      },
      "getCurrentTime()": {
        "notice": "Gets the current time. Will return the last time set in `setCurrentTime` if running in test mode. Otherwise, it will return the block timestamp."
      },
      "initialize()": {
        "notice": "This should be called after construction of the DepositBox and handles registration with the Registry, which is required to make price requests in production environments."
      },
      "payRegularFees()": {
        "notice": "Pays UMA DVM regular fees (as a % of the collateral pool) to the Store contract."
      },
      "pfc()": {
        "notice": "Gets the current profit from corruption for this contract in terms of the collateral currency."
      },
      "remargin()": {
        "notice": "Same comment as `emergencyShutdown`. For the sake of simplicity, this will simply exit silently."
      },
      "requestWithdrawal((uint256))": {
        "notice": "Starts a withdrawal request that allows the sponsor to withdraw `denominatedCollateralAmount` from their position denominated in the quote asset of the price identifier, following a DVM price resolution."
      },
      "setCurrentTime(uint256)": {
        "notice": "Sets the current time."
      },
      "totalDepositBoxCollateral()": {
        "notice": "Accessor method for the total collateral stored within the entire contract."
      }
    },
    "notice": "This is a minimal example of a financial template that depends on price requests from the DVM. This contract should be thought of as a \"Deposit Box\" into which the user deposits some ERC20 collateral. The main feature of this box is that the user can withdraw their ERC20 corresponding to a desired USD amount. When the user wants to make a withdrawal, a price request is enqueued with the UMA DVM. For simplicty, the user is constrained to have one outstanding withdrawal request at any given time. Regular fees are charged on the collateral in the deposit box throughout the lifetime of the deposit box, and final fees are charged on each price request. * This example is intended to accompany a technical tutorial for how to integrate the DVM into a project. The main feature this demo serves to showcase is how to build a financial product on-chain that \"pulls\" price requests from the DVM on-demand, which is an implementation of the \"priceless\" oracle framework. * The typical user flow would be: - User sets up a deposit box for the (wETH - USD) price-identifier. The \"collateral currency\" in this deposit  box is therefore wETH.  The user can subsequently make withdrawal requests for USD-denominated amounts of wETH. - User deposits 10 wETH into their deposit box. - User later requests to withdraw $100 USD of wETH. - DepositBox asks DVM for latest wETH/USD exchange rate. - DVM resolves the exchange rate at: 1 wETH is worth 200 USD. - DepositBox transfers 0.5 wETH to user."
  }
}