{
  "contractName": "DesignatedVotingFactory",
  "abi": [
    {
      "inputs": [
        {
          "internalType": "address",
          "name": "finderAddress",
          "type": "address"
        }
      ],
      "stateMutability": "nonpayable",
      "type": "constructor"
    },
    {
      "anonymous": false,
      "inputs": [
        {
          "indexed": true,
          "internalType": "uint256",
          "name": "roleId",
          "type": "uint256"
        },
        {
          "indexed": true,
          "internalType": "address",
          "name": "newMember",
          "type": "address"
        },
        {
          "indexed": true,
          "internalType": "address",
          "name": "manager",
          "type": "address"
        }
      ],
      "name": "AddedSharedMember",
      "type": "event"
    },
    {
      "anonymous": false,
      "inputs": [
        {
          "indexed": true,
          "internalType": "uint256",
          "name": "roleId",
          "type": "uint256"
        },
        {
          "indexed": true,
          "internalType": "address",
          "name": "oldMember",
          "type": "address"
        },
        {
          "indexed": true,
          "internalType": "address",
          "name": "manager",
          "type": "address"
        }
      ],
      "name": "RemovedSharedMember",
      "type": "event"
    },
    {
      "anonymous": false,
      "inputs": [
        {
          "indexed": true,
          "internalType": "uint256",
          "name": "roleId",
          "type": "uint256"
        },
        {
          "indexed": true,
          "internalType": "address",
          "name": "newMember",
          "type": "address"
        },
        {
          "indexed": true,
          "internalType": "address",
          "name": "manager",
          "type": "address"
        }
      ],
      "name": "ResetExclusiveMember",
      "type": "event"
    },
    {
      "inputs": [
        {
          "internalType": "uint256",
          "name": "roleId",
          "type": "uint256"
        },
        {
          "internalType": "address",
          "name": "newMember",
          "type": "address"
        }
      ],
      "name": "addMember",
      "outputs": [],
      "stateMutability": "nonpayable",
      "type": "function"
    },
    {
      "inputs": [
        {
          "internalType": "address",
          "name": "",
          "type": "address"
        }
      ],
      "name": "designatedVotingContracts",
      "outputs": [
        {
          "internalType": "contract DesignatedVoting",
          "name": "",
          "type": "address"
        }
      ],
      "stateMutability": "view",
      "type": "function"
    },
    {
      "inputs": [
        {
          "internalType": "uint256",
          "name": "roleId",
          "type": "uint256"
        }
      ],
      "name": "getMember",
      "outputs": [
        {
          "internalType": "address",
          "name": "",
          "type": "address"
        }
      ],
      "stateMutability": "view",
      "type": "function"
    },
    {
      "inputs": [
        {
          "internalType": "uint256",
          "name": "roleId",
          "type": "uint256"
        },
        {
          "internalType": "address",
          "name": "memberToCheck",
          "type": "address"
        }
      ],
      "name": "holdsRole",
      "outputs": [
        {
          "internalType": "bool",
          "name": "",
          "type": "bool"
        }
      ],
      "stateMutability": "view",
      "type": "function"
    },
    {
      "inputs": [
        {
          "internalType": "uint256",
          "name": "roleId",
          "type": "uint256"
        },
        {
          "internalType": "address",
          "name": "memberToRemove",
          "type": "address"
        }
      ],
      "name": "removeMember",
      "outputs": [],
      "stateMutability": "nonpayable",
      "type": "function"
    },
    {
      "inputs": [
        {
          "internalType": "uint256",
          "name": "roleId",
          "type": "uint256"
        }
      ],
      "name": "renounceMembership",
      "outputs": [],
      "stateMutability": "nonpayable",
      "type": "function"
    },
    {
      "inputs": [
        {
          "internalType": "uint256",
          "name": "roleId",
          "type": "uint256"
        },
        {
          "internalType": "address",
          "name": "newMember",
          "type": "address"
        }
      ],
      "name": "resetMember",
      "outputs": [],
      "stateMutability": "nonpayable",
      "type": "function"
    },
    {
      "inputs": [
        {
          "internalType": "uint256",
          "name": "amount",
          "type": "uint256"
        }
      ],
      "name": "withdraw",
      "outputs": [],
      "stateMutability": "nonpayable",
      "type": "function"
    },
    {
      "inputs": [
        {
          "internalType": "address",
          "name": "erc20Address",
          "type": "address"
        },
        {
          "internalType": "uint256",
          "name": "amount",
          "type": "uint256"
        }
      ],
      "name": "withdrawErc20",
      "outputs": [],
      "stateMutability": "nonpayable",
      "type": "function"
    },
    {
      "inputs": [
        {
          "internalType": "address",
          "name": "ownerAddress",
          "type": "address"
        }
      ],
      "name": "newDesignatedVoting",
      "outputs": [
        {
          "internalType": "contract DesignatedVoting",
          "name": "",
          "type": "address"
        }
      ],
      "stateMutability": "nonpayable",
      "type": "function"
    },
    {
      "inputs": [
        {
          "internalType": "address",
          "name": "designatedVotingAddress",
          "type": "address"
        }
      ],
      "name": "setDesignatedVoting",
      "outputs": [],
      "stateMutability": "nonpayable",
      "type": "function"
    }
  ],
  "bytecode": "0x60806040523480156200001157600080fd5b50604051620037c2380380620037c28339810160408190526200003491620001bf565b600280546001600160a01b0319166001600160a01b03831617905562000066600080336001600160e01b036200006d16565b50620002c6565b6001839055620000888383836001600160e01b036200008d16565b505050565b826000808281526020819052604090206001015460ff166002811115620000b057fe5b14620000d95760405162461bcd60e51b8152600401620000d0906200024c565b60405180910390fd5b60008481526020819052604090206001808201805460ff19168280021790555083815562000117600282018462000160602090811b62000a6317901c565b60008481526020819052604081206001015460ff1660028111156200013857fe5b1415620001595760405162461bcd60e51b8152600401620000d090620001ef565b5050505050565b6200017582826001600160e01b036200017916565b5050565b6001600160a01b038116620001a25760405162461bcd60e51b8152600401620000d09062000283565b81546001600160a01b0319166001600160a01b0391909116179055565b600060208284031215620001d1578081fd5b81516001600160a01b0381168114620001e8578182fd5b9392505050565b6020808252603c908201527f417474656d7074656420746f2075736520616e20696e76616c696420726f6c6560408201527f20746f206d616e61676520616e206578636c757369766520726f6c6500000000606082015260800190565b6020808252601e908201527f43616e6e6f74207573652061207072652d6578697374696e6720726f6c650000604082015260600190565b60208082526023908201527f43616e6e6f742073657420616e206578636c757369766520726f6c6520746f2060408201526203078360ec1b606082015260800190565b6134ec80620002d66000396000f3fe60806040523480156200001157600080fd5b5060043610620000dc5760003560e01c80637cbf876b116200008d578063ab3545e51162000063578063ab3545e514620001c2578063bd1f4b5214620001d9578063d97c05be14620001f057620000dc565b80637cbf876b146200016e5780637cdc1cb91462000185578063aaa14ca314620001ab57620000dc565b80635e07dd5b11620000c35780635e07dd5b14620001295780636be7658b146200014057806374d0a676146200015757620000dc565b80632e1a7d4d14620000e157806349ed510f14620000fa575b600080fd5b620000f8620000f236600462001021565b62000207565b005b620001116200010b36600462000fb4565b62000268565b604051620001209190620010a8565b60405180910390f35b620001116200013a36600462000fb4565b62000290565b620000f8620001513660046200103a565b6200039f565b620000f8620001683660046200103a565b620004c1565b620000f86200017f36600462000fb4565b620005e3565b6200019c620001963660046200103a565b62000697565b6040516200012091906200111f565b620000f8620001bc36600462001021565b6200074b565b62000111620001d336600462001021565b62000846565b620000f8620001ea36600462000fd2565b620008c9565b620000f8620002013660046200103a565b62000941565b60015462000216813362000697565b62000258576040517f08c379a00000000000000000000000000000000000000000000000000000000081526004016200024f90620012e4565b60405180910390fd5b62000264338362000a6f565b5050565b60036020526000908152604090205473ffffffffffffffffffffffffffffffffffffffff1681565b3360009081526003602052604081205473ffffffffffffffffffffffffffffffffffffffff1615620002f0576040517f08c379a00000000000000000000000000000000000000000000000000000000081526004016200024f906200148f565b60025460405160009173ffffffffffffffffffffffffffffffffffffffff1690849033906200031f9062000f81565b6200032d93929190620010c9565b604051809103906000f0801580156200034a573d6000803e3d6000fd5b5033600090815260036020526040902080547fffffffffffffffffffffffff00000000000000000000000000000000000000001673ffffffffffffffffffffffffffffffffffffffff83161790559392505050565b81600260008281526020819052604090206001015460ff166002811115620003c357fe5b14620003fd576040517f08c379a00000000000000000000000000000000000000000000000000000000081526004016200024f9062001287565b60008381526020819052604090205483906200041a903362000697565b62000453576040517f08c379a00000000000000000000000000000000000000000000000000000000081526004016200024f906200139e565b600084815260208190526040902062000476906003018463ffffffff62000b5b16565b604051339073ffffffffffffffffffffffffffffffffffffffff85169086907feb3e33034c392e69263b04ec0fa376dc12784a41b6676c7f31b936cbc0fbb5af90600090a450505050565b81600260008281526020819052604090206001015460ff166002811115620004e557fe5b146200051f576040517f08c379a00000000000000000000000000000000000000000000000000000000081526004016200024f9062001287565b60008381526020819052604090205483906200053c903362000697565b62000575576040517f08c379a00000000000000000000000000000000000000000000000000000000081526004016200024f906200139e565b600084815260208190526040902062000598906003018463ffffffff62000ba816565b604051339073ffffffffffffffffffffffffffffffffffffffff85169086907f63502af7324ff6db91ab38f8236a648727d9385ea6c782073dd4882d8a61a48f90600090a450505050565b3360009081526003602052604090205473ffffffffffffffffffffffffffffffffffffffff161562000643576040517f08c379a00000000000000000000000000000000000000000000000000000000081526004016200024f906200148f565b33600090815260036020526040902080547fffffffffffffffffffffffff00000000000000000000000000000000000000001673ffffffffffffffffffffffffffffffffffffffff92909216919091179055565b600082815260208190526040812060018082015460ff166002811115620006ba57fe5b1415620006df57620006d6600282018463ffffffff62000c4816565b91505062000745565b6002600182015460ff166002811115620006f557fe5b14156200071157620006d6600382018463ffffffff62000c6816565b6040517f08c379a00000000000000000000000000000000000000000000000000000000081526004016200024f90620013fb565b92915050565b80600260008281526020819052604090206001015460ff1660028111156200076f57fe5b14620007a9576040517f08c379a00000000000000000000000000000000000000000000000000000000081526004016200024f9062001287565b81620007b6813362000697565b620007ef576040517f08c379a00000000000000000000000000000000000000000000000000000000081526004016200024f90620012e4565b600083815260208190526040902062000812906003013363ffffffff62000b5b16565b6040513390819085907feb3e33034c392e69263b04ec0fa376dc12784a41b6676c7f31b936cbc0fbb5af90600090a4505050565b600081600160008281526020819052604090206001015460ff1660028111156200086c57fe5b14620008a6576040517f08c379a00000000000000000000000000000000000000000000000000000000081526004016200024f9062001161565b6000838152602081905260409020620008c29060020162000c94565b9392505050565b600154620008d8813362000697565b62000911576040517f08c379a00000000000000000000000000000000000000000000000000000000081526004016200024f90620012e4565b826200093b73ffffffffffffffffffffffffffffffffffffffff8216338563ffffffff62000cae16565b50505050565b81600160008281526020819052604090206001015460ff1660028111156200096557fe5b146200099f576040517f08c379a00000000000000000000000000000000000000000000000000000000081526004016200024f9062001161565b6000838152602081905260409020548390620009bc903362000697565b620009f5576040517f08c379a00000000000000000000000000000000000000000000000000000000081526004016200024f906200139e565b600084815260208190526040902062000a18906002018463ffffffff62000d5316565b604051339073ffffffffffffffffffffffffffffffffffffffff85169086907f3b855c56b409b671c7112789d022675eb639d0bcb8896f1b6197c132f799e74690600090a450505050565b62000264828262000d53565b8047101562000aac576040517f08c379a00000000000000000000000000000000000000000000000000000000081526004016200024f9062001250565b60008273ffffffffffffffffffffffffffffffffffffffff168260405162000ad490620010a5565b60006040518083038185875af1925050503d806000811462000b13576040519150601f19603f3d011682016040523d82523d6000602084013e62000b18565b606091505b505090508062000b56576040517f08c379a00000000000000000000000000000000000000000000000000000000081526004016200024f90620011f3565b505050565b73ffffffffffffffffffffffffffffffffffffffff1660009081526020919091526040902080547fffffffffffffffffffffffffffffffffffffffffffffffffffffffffffffff00169055565b73ffffffffffffffffffffffffffffffffffffffff811662000bf8576040517f08c379a00000000000000000000000000000000000000000000000000000000081526004016200024f906200112a565b73ffffffffffffffffffffffffffffffffffffffff1660009081526020919091526040902080547fffffffffffffffffffffffffffffffffffffffffffffffffffffffffffffff00166001179055565b905473ffffffffffffffffffffffffffffffffffffffff91821691161490565b73ffffffffffffffffffffffffffffffffffffffff166000908152602091909152604090205460ff1690565b5473ffffffffffffffffffffffffffffffffffffffff1690565b62000b568363a9059cbb60e01b848460405160240162000cd0929190620010f9565b604080517fffffffffffffffffffffffffffffffffffffffffffffffffffffffffffffffe08184030181529190526020810180517bffffffffffffffffffffffffffffffffffffffffffffffffffffffff167fffffffff000000000000000000000000000000000000000000000000000000009093169290921790915262000de5565b73ffffffffffffffffffffffffffffffffffffffff811662000da3576040517f08c379a00000000000000000000000000000000000000000000000000000000081526004016200024f9062001341565b81547fffffffffffffffffffffffff00000000000000000000000000000000000000001673ffffffffffffffffffffffffffffffffffffffff91909116179055565b62000e068273ffffffffffffffffffffffffffffffffffffffff1662000f44565b62000e3f576040517f08c379a00000000000000000000000000000000000000000000000000000000081526004016200024f90620014c6565b600060608373ffffffffffffffffffffffffffffffffffffffff168360405162000e6a919062001069565b6000604051808303816000865af19150503d806000811462000ea9576040519150601f19603f3d011682016040523d82523d6000602084013e62000eae565b606091505b50915091508162000eed576040517f08c379a00000000000000000000000000000000000000000000000000000000081526004016200024f90620011be565b8051156200093b578080602001905181019062000f0b919062000fff565b6200093b576040517f08c379a00000000000000000000000000000000000000000000000000000000081526004016200024f9062001432565b6000813f7fc5d2460186f7233c927e7db2dcc703c0e500b653ca82273b7bfad8045d85a47081811480159062000f7957508115155b949350505050565b611fb980620014fe83390190565b803573ffffffffffffffffffffffffffffffffffffffff811681146200074557600080fd5b60006020828403121562000fc6578081fd5b620008c2838362000f8f565b6000806040838503121562000fe5578081fd5b62000ff1848462000f8f565b946020939093013593505050565b60006020828403121562001011578081fd5b81518015158114620008c2578182fd5b60006020828403121562001033578081fd5b5035919050565b600080604083850312156200104d578182fd5b8235915062001060846020850162000f8f565b90509250929050565b60008251815b818110156200108b57602081860181015185830152016200106f565b818111156200109a5782828501525b509190910192915050565b90565b73ffffffffffffffffffffffffffffffffffffffff91909116815260200190565b73ffffffffffffffffffffffffffffffffffffffff93841681529183166020830152909116604082015260600190565b73ffffffffffffffffffffffffffffffffffffffff929092168252602082015260400190565b901515815260200190565b6020808252601f908201527f43616e6e6f74206164642030783020746f20612073686172656420726f6c6500604082015260600190565b6020808252602f908201527f4d7573742062652063616c6c6564206f6e20616e20696e697469616c697a656460408201527f204578636c757369766520726f6c650000000000000000000000000000000000606082015260800190565b6020808252818101527f5361666545524332303a206c6f772d6c6576656c2063616c6c206661696c6564604082015260600190565b6020808252603a908201527f416464726573733a20756e61626c6520746f2073656e642076616c75652c207260408201527f6563697069656e74206d61792068617665207265766572746564000000000000606082015260800190565b6020808252601d908201527f416464726573733a20696e73756666696369656e742062616c616e6365000000604082015260600190565b6020808252602c908201527f4d7573742062652063616c6c6564206f6e20616e20696e697469616c697a656460408201527f2053686172656420726f6c650000000000000000000000000000000000000000606082015260800190565b60208082526022908201527f53656e64657220646f6573206e6f7420686f6c6420726571756972656420726f60408201527f6c65000000000000000000000000000000000000000000000000000000000000606082015260800190565b60208082526023908201527f43616e6e6f742073657420616e206578636c757369766520726f6c6520746f2060408201527f3078300000000000000000000000000000000000000000000000000000000000606082015260800190565b60208082526024908201527f43616e206f6e6c792062652063616c6c6564206279206120726f6c65206d616e60408201527f6167657200000000000000000000000000000000000000000000000000000000606082015260800190565b6020808252600e908201527f496e76616c696420726f6c654964000000000000000000000000000000000000604082015260600190565b6020808252602a908201527f5361666545524332303a204552433230206f7065726174696f6e20646964206e60408201527f6f74207375636365656400000000000000000000000000000000000000000000606082015260800190565b6020808252601f908201527f4475706c696361746520686f74206b6579206e6f74207065726d697474656400604082015260600190565b6020808252601f908201527f5361666545524332303a2063616c6c20746f206e6f6e2d636f6e74726163740060408201526060019056fe60806040523480156200001157600080fd5b5060405162001fb938038062001fb983398101604081905262000034916200021c565b6200004b600080846001600160e01b03620000a016565b6200006360016000836001600160e01b03620000a016565b6200007860006001600160e01b036200017316565b5050600280546001600160a01b0319166001600160a01b03929092169190911790556200037f565b826000808281526020819052604090206001015460ff166002811115620000c357fe5b14620000ec5760405162461bcd60e51b8152600401620000e390620002ec565b60405180910390fd5b60008481526020819052604090206001808201805460ff1916828002179055508381556200012a6002820184620001bd602090811b62000bd917901c565b60008481526020819052604081206001015460ff1660028111156200014b57fe5b14156200016c5760405162461bcd60e51b8152600401620000e390620002a0565b5050505050565b806000808281526020819052604090206001015460ff1660028111156200019657fe5b1415620001b75760405162461bcd60e51b8152600401620000e3906200026f565b50600155565b620001d282826001600160e01b03620001d616565b5050565b6001600160a01b038116620001ff5760405162461bcd60e51b8152600401620000e39062000323565b81546001600160a01b0319166001600160a01b0391909116179055565b60008060006060848603121562000231578283fd5b83516200023e8162000366565b6020850151909350620002518162000366565b6040850151909250620002648162000366565b809150509250925092565b602080825260229082015260008051602062001f99833981519152604082015261125960f21b606082015260800190565b6020808252603c9082015260008051602062001f9983398151915260408201527f20746f206d616e61676520616e206578636c757369766520726f6c6500000000606082015260800190565b6020808252601e908201527f43616e6e6f74207573652061207072652d6578697374696e6720726f6c650000604082015260600190565b60208082526023908201527f43616e6e6f742073657420616e206578636c757369766520726f6c6520746f2060408201526203078360ec1b606082015260800190565b6001600160a01b03811681146200037c57600080fd5b50565b611c0a806200038f6000396000f3fe608060405234801561001057600080fd5b50600436106100df5760003560e01c806374d0a6761161008c578063ab3545e511610066578063ab3545e5146101b4578063bd1f4b52146101d4578063d8651ad0146101e7578063d97c05be146101fa576100df565b806374d0a6761461016e5780637cdc1cb914610181578063aaa14ca3146101a1576100df565b80636852eea0116100bd5780636852eea0146101355780636be7658b1461014857806370a0cf2c1461015b576100df565b80632e1a7d4d146100e45780633756a796146100f95780634c7a260314610122575b600080fd5b6100f76100f236600461138d565b61020d565b005b61010c6101073660046113d4565b610267565b6040516101199190611af4565b60405180910390f35b6100f7610130366004611337565b61034f565b6100f761014336600461128e565b610410565b6100f76101563660046113a5565b6104cb565b6100f7610169366004611222565b6105e2565b6100f761017c3660046113a5565b610666565b61019461018f3660046113a5565b61077d565b6040516101199190611713565b6100f76101af36600461138d565b610826565b6101c76101c236600461138d565b610916565b604051610119919061150a565b6100f76101e23660046111f7565b610993565b6100f76101f536600461130c565b610a04565b6100f76102083660046113a5565b610ac2565b60015461021a813361077d565b610259576040517f08c379a000000000000000000000000000000000000000000000000000000000815260040161025090611912565b60405180910390fd5b6102633383610be3565b5050565b61026f611197565b600161027b813361077d565b6102b1576040517f08c379a000000000000000000000000000000000000000000000000000000000815260040161025090611912565b6102b9610cc5565b73ffffffffffffffffffffffffffffffffffffffff16630d434e7e3086866040518463ffffffff1660e01b81526004016102f593929190611551565b602060405180830381600087803b15801561030f57600080fd5b505af1158015610323573d6000803e3d6000fd5b505050506040513d601f19601f820116820180604052508101906103479190611368565b949350505050565b600161035b813361077d565b610391576040517f08c379a000000000000000000000000000000000000000000000000000000000815260040161025090611912565b610399610cc5565b73ffffffffffffffffffffffffffffffffffffffff16634c7a2603868686866040518563ffffffff1660e01b81526004016103d7949392919061173d565b600060405180830381600087803b1580156103f157600080fd5b505af1158015610405573d6000803e3d6000fd5b505050505050505050565b600161041c813361077d565b610452576040517f08c379a000000000000000000000000000000000000000000000000000000000815260040161025090611912565b61045a610cc5565b73ffffffffffffffffffffffffffffffffffffffff16636852eea084846040518363ffffffff1660e01b81526004016104949291906116b8565b600060405180830381600087803b1580156104ae57600080fd5b505af11580156104c2573d6000803e3d6000fd5b50505050505050565b81600260008281526020819052604090206001015460ff1660028111156104ee57fe5b14610525576040517f08c379a0000000000000000000000000000000000000000000000000000000008152600401610250906118b5565b6000838152602081905260409020548390610540903361077d565b610576576040517f08c379a0000000000000000000000000000000000000000000000000000000008152600401610250906119cc565b6000848152602081905260409020610597906003018463ffffffff610d9116565b604051339073ffffffffffffffffffffffffffffffffffffffff85169086907feb3e33034c392e69263b04ec0fa376dc12784a41b6676c7f31b936cbc0fbb5af90600090a450505050565b60016105ee813361077d565b610624576040517f08c379a000000000000000000000000000000000000000000000000000000000815260040161025090611912565b61062c610cc5565b73ffffffffffffffffffffffffffffffffffffffff166370a0cf2c84846040518363ffffffff1660e01b81526004016104949291906115c6565b81600260008281526020819052604090206001015460ff16600281111561068957fe5b146106c0576040517f08c379a0000000000000000000000000000000000000000000000000000000008152600401610250906118b5565b60008381526020819052604090205483906106db903361077d565b610711576040517f08c379a0000000000000000000000000000000000000000000000000000000008152600401610250906119cc565b6000848152602081905260409020610732906003018463ffffffff610dde16565b604051339073ffffffffffffffffffffffffffffffffffffffff85169086907f63502af7324ff6db91ab38f8236a648727d9385ea6c782073dd4882d8a61a48f90600090a450505050565b600082815260208190526040812060018082015460ff16600281111561079f57fe5b14156107c0576107b8600282018463ffffffff610e7b16565b915050610820565b6002600182015460ff1660028111156107d557fe5b14156107ee576107b8600382018463ffffffff610e9b16565b6040517f08c379a000000000000000000000000000000000000000000000000000000000815260040161025090611a29565b92915050565b80600260008281526020819052604090206001015460ff16600281111561084957fe5b14610880576040517f08c379a0000000000000000000000000000000000000000000000000000000008152600401610250906118b5565b8161088b813361077d565b6108c1576040517f08c379a000000000000000000000000000000000000000000000000000000000815260040161025090611912565b60008381526020819052604090206108e2906003013363ffffffff610d9116565b6040513390819085907feb3e33034c392e69263b04ec0fa376dc12784a41b6676c7f31b936cbc0fbb5af90600090a4505050565b600081600160008281526020819052604090206001015460ff16600281111561093b57fe5b14610972576040517f08c379a00000000000000000000000000000000000000000000000000000000081526004016102509061178f565b600083815260208190526040902061098c90600201610ec7565b9392505050565b6001546109a0813361077d565b6109d6576040517f08c379a000000000000000000000000000000000000000000000000000000000815260040161025090611912565b826109fe73ffffffffffffffffffffffffffffffffffffffff8216338563ffffffff610ee116565b50505050565b6001610a10813361077d565b610a46576040517f08c379a000000000000000000000000000000000000000000000000000000000815260040161025090611912565b610a4e610cc5565b73ffffffffffffffffffffffffffffffffffffffff1663d8651ad08585856040518463ffffffff1660e01b8152600401610a8a93929190611727565b600060405180830381600087803b158015610aa457600080fd5b505af1158015610ab8573d6000803e3d6000fd5b5050505050505050565b81600160008281526020819052604090206001015460ff166002811115610ae557fe5b14610b1c576040517f08c379a00000000000000000000000000000000000000000000000000000000081526004016102509061178f565b6000838152602081905260409020548390610b37903361077d565b610b6d576040517f08c379a0000000000000000000000000000000000000000000000000000000008152600401610250906119cc565b6000848152602081905260409020610b8e906002018463ffffffff610f8216565b604051339073ffffffffffffffffffffffffffffffffffffffff85169086907f3b855c56b409b671c7112789d022675eb639d0bcb8896f1b6197c132f799e74690600090a450505050565b6102638282610f82565b80471015610c1d576040517f08c379a00000000000000000000000000000000000000000000000000000000081526004016102509061187e565b60008273ffffffffffffffffffffffffffffffffffffffff1682604051610c4390611507565b60006040518083038185875af1925050503d8060008114610c80576040519150601f19603f3d011682016040523d82523d6000602084013e610c85565b606091505b5050905080610cc0576040517f08c379a000000000000000000000000000000000000000000000000000000000815260040161025090611821565b505050565b6002546040517faafd5e4000000000000000000000000000000000000000000000000000000000815260009173ffffffffffffffffffffffffffffffffffffffff169063aafd5e4090610d3c907f4f7261636c6500000000000000000000000000000000000000000000000000009060040161171e565b60206040518083038186803b158015610d5457600080fd5b505afa158015610d68573d6000803e3d6000fd5b505050506040513d601f19601f82011682018060405250810190610d8c91906111db565b905090565b73ffffffffffffffffffffffffffffffffffffffff1660009081526020919091526040902080547fffffffffffffffffffffffffffffffffffffffffffffffffffffffffffffff00169055565b73ffffffffffffffffffffffffffffffffffffffff8116610e2b576040517f08c379a000000000000000000000000000000000000000000000000000000000815260040161025090611758565b73ffffffffffffffffffffffffffffffffffffffff1660009081526020919091526040902080547fffffffffffffffffffffffffffffffffffffffffffffffffffffffffffffff00166001179055565b905473ffffffffffffffffffffffffffffffffffffffff91821691161490565b73ffffffffffffffffffffffffffffffffffffffff166000908152602091909152604090205460ff1690565b5473ffffffffffffffffffffffffffffffffffffffff1690565b610cc08363a9059cbb60e01b8484604051602401610f0092919061152b565b604080517fffffffffffffffffffffffffffffffffffffffffffffffffffffffffffffffe08184030181529190526020810180517bffffffffffffffffffffffffffffffffffffffffffffffffffffffff167fffffffff0000000000000000000000000000000000000000000000000000000090931692909217909152611011565b73ffffffffffffffffffffffffffffffffffffffff8116610fcf576040517f08c379a00000000000000000000000000000000000000000000000000000000081526004016102509061196f565b81547fffffffffffffffffffffffff00000000000000000000000000000000000000001673ffffffffffffffffffffffffffffffffffffffff91909116179055565b6110308273ffffffffffffffffffffffffffffffffffffffff1661115e565b611066576040517f08c379a000000000000000000000000000000000000000000000000000000000815260040161025090611abd565b600060608373ffffffffffffffffffffffffffffffffffffffff168360405161108f91906114ce565b6000604051808303816000865af19150503d80600081146110cc576040519150601f19603f3d011682016040523d82523d6000602084013e6110d1565b606091505b50915091508161110d576040517f08c379a0000000000000000000000000000000000000000000000000000000008152600401610250906117ec565b8051156109fe578080602001905181019061112891906112ec565b6109fe576040517f08c379a000000000000000000000000000000000000000000000000000000000815260040161025090611a60565b6000813f7fc5d2460186f7233c927e7db2dcc703c0e500b653ca82273b7bfad8045d85a470818114801590610347575050151592915050565b6040518060200160405280600081525090565b6000604082840312156111bb578081fd5b6111c56040611afe565b9050813581526020820135602082015292915050565b6000602082840312156111ec578081fd5b815161098c81611baf565b60008060408385031215611209578081fd5b823561121481611baf565b946020939093013593505050565b60008060208385031215611234578182fd5b823567ffffffffffffffff8082111561124b578384fd5b81850186601f82011261125c578485fd5b803592508183111561126c578485fd5b866020808502830101111561127f578485fd5b60200196919550909350505050565b600080602083850312156112a0578182fd5b823567ffffffffffffffff808211156112b7578384fd5b81850186601f8201126112c8578485fd5b80359250818311156112d8578485fd5b86602060808502830101111561127f578485fd5b6000602082840312156112fd578081fd5b8151801515811461098c578182fd5b600080600060608486031215611320578081fd5b505081359360208301359350604090920135919050565b6000806000806080858703121561134c578081fd5b5050823594602084013594506040840135936060013592509050565b600060208284031215611379578081fd5b6113836020611afe565b9151825250919050565b60006020828403121561139e578081fd5b5035919050565b600080604083850312156113b7578182fd5b8235915060208301356113c981611baf565b809150509250929050565b60008060408084860312156113e7578283fd5b8335925060208085013567ffffffffffffffff811115611405578384fd5b80860187601f820112611416578485fd5b8035915061142b61142683611b25565b611afe565b82815283810190828501868502840186018b1015611447578788fd5b8793505b848410156114715761145d8b826111aa565b83526001939093019291850191860161144b565b508096505050505050509250929050565b9052565b600082845282826020860137806020848601015260207fffffffffffffffffffffffffffffffffffffffffffffffffffffffffffffffe0601f85011685010190509392505050565b60008251815b818110156114ee57602081860181015185830152016114d4565b818111156114fc5782828501525b509190910192915050565b90565b73ffffffffffffffffffffffffffffffffffffffff91909116815260200190565b73ffffffffffffffffffffffffffffffffffffffff929092168252602082015260400190565b60006060820173ffffffffffffffffffffffffffffffffffffffff861683526020858185015260406060818601528286518085526080870191508388019450855b818110156115b757855180518452850151858401529484019491830191600101611592565b50909998505050505050505050565b602080825281810183905260009060408482028401810190840186845b878110156116ab577fffffffffffffffffffffffffffffffffffffffffffffffffffffffffffffffc087850301835281357fffffffffffffffffffffffffffffffffffffffffffffffffffffffffffffff818a3603018112611643578687fd5b6080908a01611653868235611482565b61166287870188830135611482565b604061167381880182840135611482565b50606061168281830183611b45565b84838a0152611694858a018284611486565b9850505094870194505050908401906001016115e3565b5091979650505050505050565b6020808252818101839052600090604080840186845b8781101561170657813583528482013585840152838201358484015260608083013590840152608092830192909101906001016116ce565b5090979650505050505050565b901515815260200190565b90815260200190565b9283526020830191909152604082015260600190565b93845260208401929092526040830152606082015260800190565b6020808252601f908201527f43616e6e6f74206164642030783020746f20612073686172656420726f6c6500604082015260600190565b6020808252602f908201527f4d7573742062652063616c6c6564206f6e20616e20696e697469616c697a656460408201527f204578636c757369766520726f6c650000000000000000000000000000000000606082015260800190565b6020808252818101527f5361666545524332303a206c6f772d6c6576656c2063616c6c206661696c6564604082015260600190565b6020808252603a908201527f416464726573733a20756e61626c6520746f2073656e642076616c75652c207260408201527f6563697069656e74206d61792068617665207265766572746564000000000000606082015260800190565b6020808252601d908201527f416464726573733a20696e73756666696369656e742062616c616e6365000000604082015260600190565b6020808252602c908201527f4d7573742062652063616c6c6564206f6e20616e20696e697469616c697a656460408201527f2053686172656420726f6c650000000000000000000000000000000000000000606082015260800190565b60208082526022908201527f53656e64657220646f6573206e6f7420686f6c6420726571756972656420726f60408201527f6c65000000000000000000000000000000000000000000000000000000000000606082015260800190565b60208082526023908201527f43616e6e6f742073657420616e206578636c757369766520726f6c6520746f2060408201527f3078300000000000000000000000000000000000000000000000000000000000606082015260800190565b60208082526024908201527f43616e206f6e6c792062652063616c6c6564206279206120726f6c65206d616e60408201527f6167657200000000000000000000000000000000000000000000000000000000606082015260800190565b6020808252600e908201527f496e76616c696420726f6c654964000000000000000000000000000000000000604082015260600190565b6020808252602a908201527f5361666545524332303a204552433230206f7065726174696f6e20646964206e60408201527f6f74207375636365656400000000000000000000000000000000000000000000606082015260800190565b6020808252601f908201527f5361666545524332303a2063616c6c20746f206e6f6e2d636f6e747261637400604082015260600190565b9051815260200190565b60405181810167ffffffffffffffff81118282101715611b1d57600080fd5b604052919050565b600067ffffffffffffffff821115611b3b578081fd5b5060209081020190565b60008083357fffffffffffffffffffffffffffffffffffffffffffffffffffffffffffffffe1843603018112611b79578283fd5b830160208101925035905067ffffffffffffffff811115611b9957600080fd5b803603831315611ba857600080fd5b9250929050565b73ffffffffffffffffffffffffffffffffffffffff81168114611bd157600080fd5b5056fea264697066735822122091ba98db943e8fe03dda61023ff0fa15bd6291ed073b912164e0bbe48529ddad64736f6c634300060a0033417474656d7074656420746f2075736520616e20696e76616c696420726f6c65a264697066735822122056b7b144593ccf0f5d09b2537f3992f2343cb2b4d0aed16b501b8d1237264e4264736f6c634300060a0033",
  "immutableReferences": {},
  "source": "pragma solidity ^0.6.0;\npragma experimental ABIEncoderV2;\n\nimport \"../../common/implementation/Withdrawable.sol\";\nimport \"./DesignatedVoting.sol\";\n\n\n/**\n * @title Factory to deploy new instances of DesignatedVoting and look up previously deployed instances.\n * @dev Allows off-chain infrastructure to look up a hot wallet's deployed DesignatedVoting contract.\n */\ncontract DesignatedVotingFactory is Withdrawable {\n    /****************************************\n     *    INTERNAL VARIABLES AND STORAGE    *\n     ****************************************/\n\n    enum Roles {\n        Withdrawer // Can withdraw any ETH or ERC20 sent accidentally to this contract.\n    }\n\n    address private finder;\n    mapping(address => DesignatedVoting) public designatedVotingContracts;\n\n    /**\n     * @notice Construct the DesignatedVotingFactory contract.\n     * @param finderAddress keeps track of all contracts within the system based on their interfaceName.\n     */\n    constructor(address finderAddress) public {\n        finder = finderAddress;\n\n        _createWithdrawRole(uint256(Roles.Withdrawer), uint256(Roles.Withdrawer), msg.sender);\n    }\n\n    /**\n     * @notice Deploys a new `DesignatedVoting` contract.\n     * @param ownerAddress defines who will own the deployed instance of the designatedVoting contract.\n     * @return designatedVoting a new DesignatedVoting contract.\n     */\n    function newDesignatedVoting(address ownerAddress) external returns (DesignatedVoting) {\n        require(address(designatedVotingContracts[msg.sender]) == address(0), \"Duplicate hot key not permitted\");\n\n        DesignatedVoting designatedVoting = new DesignatedVoting(finder, ownerAddress, msg.sender);\n        designatedVotingContracts[msg.sender] = designatedVoting;\n        return designatedVoting;\n    }\n\n    /**\n     * @notice Associates a `DesignatedVoting` instance with `msg.sender`.\n     * @param designatedVotingAddress address to designate voting to.\n     * @dev This is generally only used if the owner of a `DesignatedVoting` contract changes their `voter`\n     * address and wants that reflected here.\n     */\n    function setDesignatedVoting(address designatedVotingAddress) external {\n        require(address(designatedVotingContracts[msg.sender]) == address(0), \"Duplicate hot key not permitted\");\n        designatedVotingContracts[msg.sender] = DesignatedVoting(designatedVotingAddress);\n    }\n}\n",
  "sourcePath": "/home/alessandrovm/JarvisLavoro/SynFiat/packages/contracts/contracts/uma-contracts/oracle/implementation/DesignatedVotingFactory.sol",
  "compiler": {
    "name": "solc",
    "version": "0.6.10+commit.00c0fcaf.Emscripten.clang"
  },
  "schemaVersion": "3.2.5",
  "updatedAt": "2020-10-22T14:01:04.514Z",
  "devdoc": {
    "details": "Allows off-chain infrastructure to look up a hot wallet's deployed DesignatedVoting contract.",
    "methods": {
      "addMember(uint256,address)": {
        "details": "Reverts if `roleId` does not represent an initialized, SharedRole or if the caller is not a member of the managing role for `roleId`.",
        "params": {
          "newMember": "the new SharedRole member.",
          "roleId": "the SharedRole membership to modify."
        }
      },
      "constructor": {
        "params": {
          "finderAddress": "keeps track of all contracts within the system based on their interfaceName."
        }
      },
      "getMember(uint256)": {
        "details": "Reverts if `roleId` does not represent an initialized, exclusive role.",
        "params": {
          "roleId": "the ExclusiveRole membership to check."
        },
        "returns": {
          "_0": "the address of the current ExclusiveRole member."
        }
      },
      "holdsRole(uint256,address)": {
        "details": "Reverts if roleId does not correspond to an initialized role.",
        "params": {
          "memberToCheck": "the address to check.",
          "roleId": "the Role to check."
        },
        "returns": {
          "_0": "True if `memberToCheck` is a member of `roleId`."
        }
      },
      "newDesignatedVoting(address)": {
        "params": {
          "ownerAddress": "defines who will own the deployed instance of the designatedVoting contract."
        },
        "returns": {
          "_0": "designatedVoting a new DesignatedVoting contract."
        }
      },
      "removeMember(uint256,address)": {
        "details": "Reverts if `roleId` does not represent an initialized, SharedRole or if the caller is not a member of the managing role for `roleId`.",
        "params": {
          "memberToRemove": "the current SharedRole member to remove.",
          "roleId": "the SharedRole membership to modify."
        }
      },
      "renounceMembership(uint256)": {
        "details": "Reverts if the caller is not a member of the role for `roleId` or if `roleId` is not an initialized, SharedRole.",
        "params": {
          "roleId": "the SharedRole membership to modify."
        }
      },
      "resetMember(uint256,address)": {
        "details": "Reverts if the caller is not a member of the managing role for `roleId` or if `roleId` is not an initialized, ExclusiveRole.",
        "params": {
          "newMember": "the new ExclusiveRole member.",
          "roleId": "the ExclusiveRole membership to modify."
        }
      },
      "setDesignatedVoting(address)": {
        "details": "This is generally only used if the owner of a `DesignatedVoting` contract changes their `voter` address and wants that reflected here.",
        "params": {
          "designatedVotingAddress": "address to designate voting to."
        }
      },
      "withdrawErc20(address,uint256)": {
        "params": {
          "amount": "amount of tokens to withdraw.",
          "erc20Address": "ERC20 token to withdraw."
        }
      }
    },
    "title": "Factory to deploy new instances of DesignatedVoting and look up previously deployed instances."
  },
  "userdoc": {
    "methods": {
      "addMember(uint256,address)": {
        "notice": "Adds `newMember` to the shared role, `roleId`."
      },
      "constructor": "Construct the DesignatedVotingFactory contract.",
      "getMember(uint256)": {
        "notice": "Gets the current holder of the exclusive role, `roleId`."
      },
      "holdsRole(uint256,address)": {
        "notice": "Whether `memberToCheck` is a member of roleId."
      },
      "newDesignatedVoting(address)": {
        "notice": "Deploys a new `DesignatedVoting` contract."
      },
      "removeMember(uint256,address)": {
        "notice": "Removes `memberToRemove` from the shared role, `roleId`."
      },
      "renounceMembership(uint256)": {
        "notice": "Removes caller from the role, `roleId`."
      },
      "resetMember(uint256,address)": {
        "notice": "Changes the exclusive role holder of `roleId` to `newMember`."
      },
      "setDesignatedVoting(address)": {
        "notice": "Associates a `DesignatedVoting` instance with `msg.sender`."
      },
      "withdraw(uint256)": {
        "notice": "Withdraws ETH from the contract."
      },
      "withdrawErc20(address,uint256)": {
        "notice": "Withdraws ERC20 tokens from the contract."
      }
    }
  }
}