{
  "contractName": "DesignatedVoting",
  "abi": [
    {
      "inputs": [
        {
          "internalType": "address",
          "name": "finderAddress",
          "type": "address"
        },
        {
          "internalType": "address",
          "name": "ownerAddress",
          "type": "address"
        },
        {
          "internalType": "address",
          "name": "voterAddress",
          "type": "address"
        }
      ],
      "stateMutability": "nonpayable",
      "type": "constructor"
    },
    {
      "inputs": [
        {
          "internalType": "uint256",
          "name": "roleId",
          "type": "uint256"
        },
        {
          "internalType": "address",
          "name": "newMember",
          "type": "address"
        }
      ],
      "name": "addMember",
      "outputs": [],
      "stateMutability": "nonpayable",
      "type": "function"
    },
    {
      "inputs": [
        {
          "internalType": "uint256",
          "name": "roleId",
          "type": "uint256"
        }
      ],
      "name": "getMember",
      "outputs": [
        {
          "internalType": "address",
          "name": "",
          "type": "address"
        }
      ],
      "stateMutability": "view",
      "type": "function"
    },
    {
      "inputs": [
        {
          "internalType": "uint256",
          "name": "roleId",
          "type": "uint256"
        },
        {
          "internalType": "address",
          "name": "memberToCheck",
          "type": "address"
        }
      ],
      "name": "holdsRole",
      "outputs": [
        {
          "internalType": "bool",
          "name": "",
          "type": "bool"
        }
      ],
      "stateMutability": "view",
      "type": "function"
    },
    {
      "inputs": [
        {
          "internalType": "uint256",
          "name": "roleId",
          "type": "uint256"
        },
        {
          "internalType": "address",
          "name": "memberToRemove",
          "type": "address"
        }
      ],
      "name": "removeMember",
      "outputs": [],
      "stateMutability": "nonpayable",
      "type": "function"
    },
    {
      "inputs": [
        {
          "internalType": "uint256",
          "name": "roleId",
          "type": "uint256"
        },
        {
          "internalType": "address",
          "name": "newMember",
          "type": "address"
        }
      ],
      "name": "resetMember",
      "outputs": [],
      "stateMutability": "nonpayable",
      "type": "function"
    },
    {
      "inputs": [
        {
          "internalType": "uint256",
          "name": "amount",
          "type": "uint256"
        }
      ],
      "name": "withdraw",
      "outputs": [],
      "stateMutability": "nonpayable",
      "type": "function"
    },
    {
      "inputs": [
        {
          "internalType": "address",
          "name": "erc20Address",
          "type": "address"
        },
        {
          "internalType": "uint256",
          "name": "amount",
          "type": "uint256"
        }
      ],
      "name": "withdrawErc20",
      "outputs": [],
      "stateMutability": "nonpayable",
      "type": "function"
    },
    {
      "inputs": [
        {
          "internalType": "bytes32",
          "name": "identifier",
          "type": "bytes32"
        },
        {
          "internalType": "uint256",
          "name": "time",
          "type": "uint256"
        },
        {
          "internalType": "bytes32",
          "name": "hash",
          "type": "bytes32"
        }
      ],
      "name": "commitVote",
      "outputs": [],
      "stateMutability": "nonpayable",
      "type": "function"
    },
    {
      "inputs": [
        {
          "components": [
            {
              "internalType": "bytes32",
              "name": "identifier",
              "type": "bytes32"
            },
            {
              "internalType": "uint256",
              "name": "time",
              "type": "uint256"
            },
            {
              "internalType": "bytes32",
              "name": "hash",
              "type": "bytes32"
            },
            {
              "internalType": "bytes",
              "name": "encryptedVote",
              "type": "bytes"
            }
          ],
          "internalType": "struct VotingInterface.Commitment[]",
          "name": "commits",
          "type": "tuple[]"
        }
      ],
      "name": "batchCommit",
      "outputs": [],
      "stateMutability": "nonpayable",
      "type": "function"
    },
    {
      "inputs": [
        {
          "internalType": "bytes32",
          "name": "identifier",
          "type": "bytes32"
        },
        {
          "internalType": "uint256",
          "name": "time",
          "type": "uint256"
        },
        {
          "internalType": "int256",
          "name": "price",
          "type": "int256"
        },
        {
          "internalType": "int256",
          "name": "salt",
          "type": "int256"
        }
      ],
      "name": "revealVote",
      "outputs": [],
      "stateMutability": "nonpayable",
      "type": "function"
    },
    {
      "inputs": [
        {
          "components": [
            {
              "internalType": "bytes32",
              "name": "identifier",
              "type": "bytes32"
            },
            {
              "internalType": "uint256",
              "name": "time",
              "type": "uint256"
            },
            {
              "internalType": "int256",
              "name": "price",
              "type": "int256"
            },
            {
              "internalType": "int256",
              "name": "salt",
              "type": "int256"
            }
          ],
          "internalType": "struct VotingInterface.Reveal[]",
          "name": "reveals",
          "type": "tuple[]"
        }
      ],
      "name": "batchReveal",
      "outputs": [],
      "stateMutability": "nonpayable",
      "type": "function"
    },
    {
      "inputs": [
        {
          "internalType": "uint256",
          "name": "roundId",
          "type": "uint256"
        },
        {
          "components": [
            {
              "internalType": "bytes32",
              "name": "identifier",
              "type": "bytes32"
            },
            {
              "internalType": "uint256",
              "name": "time",
              "type": "uint256"
            }
          ],
          "internalType": "struct VotingInterface.PendingRequest[]",
          "name": "toRetrieve",
          "type": "tuple[]"
        }
      ],
      "name": "retrieveRewards",
      "outputs": [
        {
          "components": [
            {
              "internalType": "uint256",
              "name": "rawValue",
              "type": "uint256"
            }
          ],
          "internalType": "struct FixedPoint.Unsigned",
          "name": "rewardsIssued",
          "type": "tuple"
        }
      ],
      "stateMutability": "nonpayable",
      "type": "function"
    }
  ],
  "bytecode": "0x60806040523480156200001157600080fd5b5060405162001884380380620018848339810160408190526200003491620001d7565b6200004b600080846001600160e01b03620000a016565b6200006360016000836001600160e01b03620000a016565b6200007860006001600160e01b036200017316565b5050600280546001600160a01b0319166001600160a01b03929092169190911790556200031a565b826000808281526020819052604090206001015460ff166002811115620000c357fe5b14620000ec5760405162461bcd60e51b8152600401620000e39062000287565b60405180910390fd5b60008481526020819052604090206001808201805460ff1916828002179055508381556200012a600282018462000178602090811b6200151617901c565b60008481526020819052604081206001015460ff1660028111156200014b57fe5b14156200016c5760405162461bcd60e51b8152600401620000e3906200022a565b5050505050565b600155565b6200018d82826001600160e01b036200019116565b5050565b6001600160a01b038116620001ba5760405162461bcd60e51b8152600401620000e390620002be565b81546001600160a01b0319166001600160a01b0391909116179055565b600080600060608486031215620001ec578283fd5b8351620001f98162000301565b60208501519093506200020c8162000301565b60408501519092506200021f8162000301565b809150509250925092565b6020808252603c908201527f417474656d7074656420746f2075736520616e20696e76616c696420726f6c6560408201527f20746f206d616e61676520616e206578636c757369766520726f6c6500000000606082015260800190565b6020808252601e908201527f43616e6e6f74207573652061207072652d6578697374696e6720726f6c650000604082015260600190565b60208082526023908201527f43616e6e6f742073657420616e206578636c757369766520726f6c6520746f2060408201526203078360ec1b606082015260800190565b6001600160a01b03811681146200031757600080fd5b50565b61155a806200032a6000396000f3fe608060405234801561001057600080fd5b50600436106100d45760003560e01c806374d0a67611610081578063bd1f4b521161005b578063bd1f4b52146101b6578063d8651ad0146101c9578063d97c05be146101dc576100d4565b806374d0a676146101635780637cdc1cb914610176578063ab3545e514610196576100d4565b80636852eea0116100b25780636852eea01461012a5780636be7658b1461013d57806370a0cf2c14610150576100d4565b80632e1a7d4d146100d95780633756a796146100ee5780634c7a260314610117575b600080fd5b6100ec6100e7366004610ec9565b6101ef565b005b6101016100fc366004610f10565b61026d565b60405161010e91906114a0565b60405180910390f35b6100ec610125366004610e73565b610355565b6100ec610138366004610dca565b610416565b6100ec61014b366004610ee1565b6104d1565b6100ec61015e366004610d5e565b6105a3565b6100ec610171366004610ee1565b610627565b610189610184366004610ee1565b6106f3565b60405161010e9190611233565b6101a96101a4366004610ec9565b61079c565b60405161010e9190610fbe565b6100ec6101c4366004610d33565b610819565b6100ec6101d7366004610e48565b61090d565b6100ec6101ea366004610ee1565b6109cb565b6001546101fc81336106f3565b61023b576040517f08c379a000000000000000000000000000000000000000000000000000000000815260040161023290611352565b60405180910390fd5b604051339083156108fc029084906000818181858888f19350505050158015610268573d6000803e3d6000fd5b505050565b610275610cd3565b600161028181336106f3565b6102b7576040517f08c379a000000000000000000000000000000000000000000000000000000000815260040161023290611352565b6102bf610a97565b73ffffffffffffffffffffffffffffffffffffffff16630d434e7e3086866040518463ffffffff1660e01b81526004016102fb93929190611005565b602060405180830381600087803b15801561031557600080fd5b505af1158015610329573d6000803e3d6000fd5b505050506040513d601f19601f8201168201806040525081019061034d9190610ea4565b949350505050565b600161036181336106f3565b610397576040517f08c379a000000000000000000000000000000000000000000000000000000000815260040161023290611352565b61039f610a97565b73ffffffffffffffffffffffffffffffffffffffff16634c7a2603868686866040518563ffffffff1660e01b81526004016103dd9493929190611254565b600060405180830381600087803b1580156103f757600080fd5b505af115801561040b573d6000803e3d6000fd5b505050505050505050565b600161042281336106f3565b610458576040517f08c379a000000000000000000000000000000000000000000000000000000000815260040161023290611352565b610460610a97565b73ffffffffffffffffffffffffffffffffffffffff16636852eea084846040518363ffffffff1660e01b815260040161049a9291906111d8565b600060405180830381600087803b1580156104b457600080fd5b505af11580156104c8573d6000803e3d6000fd5b50505050505050565b81600260008281526020819052604090206001015460ff1660028111156104f457fe5b1461052b576040517f08c379a0000000000000000000000000000000000000000000000000000000008152600401610232906112f5565b600083815260208190526040902054839061054690336106f3565b61057c576040517f08c379a00000000000000000000000000000000000000000000000000000000081526004016102329061140c565b600084815260208190526040902061059d906003018463ffffffff610b4116565b50505050565b60016105af81336106f3565b6105e5576040517f08c379a000000000000000000000000000000000000000000000000000000000815260040161023290611352565b6105ed610a97565b73ffffffffffffffffffffffffffffffffffffffff166370a0cf2c84846040518363ffffffff1660e01b815260040161049a92919061107a565b81600260008281526020819052604090206001015460ff16600281111561064a57fe5b14610681576040517f08c379a0000000000000000000000000000000000000000000000000000000008152600401610232906112f5565b600083815260208190526040902054839061069c90336106f3565b6106d2576040517f08c379a00000000000000000000000000000000000000000000000000000000081526004016102329061140c565b600084815260208190526040902061059d906003018463ffffffff610b8e16565b600082815260208190526040812060018082015460ff16600281111561071557fe5b14156107365761072e600282018463ffffffff610bde16565b915050610796565b6002600182015460ff16600281111561074b57fe5b14156107645761072e600382018463ffffffff610bfe16565b6040517f08c379a000000000000000000000000000000000000000000000000000000000815260040161023290611469565b92915050565b600081600160008281526020819052604090206001015460ff1660028111156107c157fe5b146107f8576040517f08c379a000000000000000000000000000000000000000000000000000000000815260040161023290611298565b600083815260208190526040902061081290600201610c2a565b9392505050565b60015461082681336106f3565b61085c576040517f08c379a000000000000000000000000000000000000000000000000000000000815260040161023290611352565b6040517fa9059cbb000000000000000000000000000000000000000000000000000000008152839073ffffffffffffffffffffffffffffffffffffffff82169063a9059cbb906108b29033908790600401610fdf565b602060405180830381600087803b1580156108cc57600080fd5b505af11580156108e0573d6000803e3d6000fd5b505050506040513d601f19601f820116820180604052508101906109049190610e28565b61059d57600080fd5b600161091981336106f3565b61094f576040517f08c379a000000000000000000000000000000000000000000000000000000000815260040161023290611352565b610957610a97565b73ffffffffffffffffffffffffffffffffffffffff1663d8651ad08585856040518463ffffffff1660e01b81526004016109939392919061123e565b600060405180830381600087803b1580156109ad57600080fd5b505af11580156109c1573d6000803e3d6000fd5b5050505050505050565b81600160008281526020819052604090206001015460ff1660028111156109ee57fe5b14610a25576040517f08c379a000000000000000000000000000000000000000000000000000000000815260040161023290611298565b6000838152602081905260409020548390610a4090336106f3565b610a76576040517f08c379a00000000000000000000000000000000000000000000000000000000081526004016102329061140c565b600084815260208190526040902061059d906002018463ffffffff610c4416565b6002546040517faafd5e4000000000000000000000000000000000000000000000000000000000815260009173ffffffffffffffffffffffffffffffffffffffff169063aafd5e4090610aec9060040161126f565b60206040518083038186803b158015610b0457600080fd5b505afa158015610b18573d6000803e3d6000fd5b505050506040513d601f19601f82011682018060405250810190610b3c9190610d17565b905090565b73ffffffffffffffffffffffffffffffffffffffff1660009081526020919091526040902080547fffffffffffffffffffffffffffffffffffffffffffffffffffffffffffffff00169055565b73ffffffffffffffffffffffffffffffffffffffff1660009081526020919091526040902080547fffffffffffffffffffffffffffffffffffffffffffffffffffffffffffffff00166001179055565b905473ffffffffffffffffffffffffffffffffffffffff91821691161490565b73ffffffffffffffffffffffffffffffffffffffff166000908152602091909152604090205460ff1690565b5473ffffffffffffffffffffffffffffffffffffffff1690565b73ffffffffffffffffffffffffffffffffffffffff8116610c91576040517f08c379a0000000000000000000000000000000000000000000000000000000008152600401610232906113af565b81547fffffffffffffffffffffffff00000000000000000000000000000000000000001673ffffffffffffffffffffffffffffffffffffffff91909116179055565b6040518060200160405280600081525090565b600060408284031215610cf7578081fd5b610d0160406114aa565b9050813581526020820135602082015292915050565b600060208284031215610d28578081fd5b8151610812816114f1565b60008060408385031215610d45578081fd5b8235610d50816114f1565b946020939093013593505050565b60008060208385031215610d70578182fd5b823567ffffffffffffffff80821115610d87578384fd5b81850186601f820112610d98578485fd5b8035925081831115610da8578485fd5b8660208085028301011115610dbb578485fd5b60200196919550909350505050565b60008060208385031215610ddc578182fd5b823567ffffffffffffffff80821115610df3578384fd5b81850186601f820112610e04578485fd5b8035925081831115610e14578485fd5b866020608085028301011115610dbb578485fd5b600060208284031215610e39578081fd5b81518015158114610812578182fd5b600080600060608486031215610e5c578081fd5b505081359360208301359350604090920135919050565b60008060008060808587031215610e88578081fd5b5050823594602084013594506040840135936060013592509050565b600060208284031215610eb5578081fd5b610ebf60206114aa565b9151825250919050565b600060208284031215610eda578081fd5b5035919050565b60008060408385031215610ef3578182fd5b823591506020830135610f05816114f1565b809150509250929050565b6000806040808486031215610f23578283fd5b8335925060208085013567ffffffffffffffff811115610f41578384fd5b80860187601f820112610f52578485fd5b80359150610f67610f62836114d1565b6114aa565b82815283810190828501868502840186018b1015610f83578788fd5b8793505b84841015610fad57610f998b82610ce6565b835260019390930192918501918601610f87565b508096505050505050509250929050565b73ffffffffffffffffffffffffffffffffffffffff91909116815260200190565b73ffffffffffffffffffffffffffffffffffffffff929092168252602082015260400190565b60006060820173ffffffffffffffffffffffffffffffffffffffff861683526020858185015260406060818601528286518085526080870191508388019450855b8181101561106b57855180518452850151858401529484019491830191600101611046565b50909998505050505050505050565b602080825281810183905260009060408084018583028501820187855b888110156111ca577fffffffffffffffffffffffffffffffffffffffffffffffffffffffffffffffc088840301845281357fffffffffffffffffffffffffffffffffffffffffffffffffffffffffffffff818b36030181126110f7578788fd5b8a018035845286810135878501528581013586850152608090606080820135368390037fffffffffffffffffffffffffffffffffffffffffffffffffffffffffffffffe1018112611146578a8bfd5b820180359067ffffffffffffffff82111561115f578b8cfd5b81360384131561116d578b8cfd5b8483890152818589015260a09450818b8201868a01375086810184018b905296890196601f017fffffffffffffffffffffffffffffffffffffffffffffffffffffffffffffffe01690950190910193505090850190600101611097565b509098975050505050505050565b6020808252818101839052600090604080840186845b8781101561122657813583528482013585840152838201358484015260608083013590840152608092830192909101906001016111ee565b5090979650505050505050565b901515815260200190565b9283526020830191909152604082015260600190565b93845260208401929092526040830152606082015260800190565b7f4f7261636c650000000000000000000000000000000000000000000000000000815260200190565b6020808252602f908201527f4d7573742062652063616c6c6564206f6e20616e20696e697469616c697a656460408201527f204578636c757369766520726f6c650000000000000000000000000000000000606082015260800190565b6020808252602c908201527f4d7573742062652063616c6c6564206f6e20616e20696e697469616c697a656460408201527f2053686172656420726f6c650000000000000000000000000000000000000000606082015260800190565b60208082526022908201527f53656e64657220646f6573206e6f7420686f6c6420726571756972656420726f60408201527f6c65000000000000000000000000000000000000000000000000000000000000606082015260800190565b60208082526023908201527f43616e6e6f742073657420616e206578636c757369766520726f6c6520746f2060408201527f3078300000000000000000000000000000000000000000000000000000000000606082015260800190565b60208082526024908201527f43616e206f6e6c792062652063616c6c6564206279206120726f6c65206d616e60408201527f6167657200000000000000000000000000000000000000000000000000000000606082015260800190565b6020808252600e908201527f496e76616c696420726f6c654964000000000000000000000000000000000000604082015260600190565b9051815260200190565b60405181810167ffffffffffffffff811182821017156114c957600080fd5b604052919050565b600067ffffffffffffffff8211156114e7578081fd5b5060209081020190565b73ffffffffffffffffffffffffffffffffffffffff8116811461151357600080fd5b50565b6115208282610c44565b505056fea264697066735822122032f67dc325b5c6a51663dafe30e893d9d3273af6b61888d7ad4f95e8fe592e9e64736f6c63430006040033",
  "source": "pragma solidity ^0.6.0;\n\npragma experimental ABIEncoderV2;\n\nimport \"../../common/implementation/MultiRole.sol\";\nimport \"../../common/implementation/Withdrawable.sol\";\nimport \"../interfaces/VotingInterface.sol\";\nimport \"../interfaces/FinderInterface.sol\";\n\n\n/**\n * @title Proxy to allow voting from another address.\n * @dev Allows a UMA token holder to designate another address to vote on their behalf.\n * Each voter must deploy their own instance of this contract.\n */\ncontract DesignatedVoting is MultiRole, Withdrawable {\n    /****************************************\n     *    INTERNAL VARIABLES AND STORAGE    *\n     ****************************************/\n\n    enum Roles {\n        Owner, // Can set the Voter and Withdrawer roles.\n        Voter // Can vote through this contract.\n    }\n\n    // Reference to the UMA Finder contract, allowing Voting upgrades to be performed\n    // without requiring any calls to this contract.\n    FinderInterface private finder;\n\n    /**\n     * @notice Construct the DesignatedVoting contract.\n     * @param finderAddress keeps track of all contracts within the system based on their interfaceName.\n     * @param ownerAddress address of the owner of the DesignatedVoting contract.\n     * @param voterAddress address to which the owner has delegated their voting power.\n     */\n    constructor(address finderAddress, address ownerAddress, address voterAddress) public {\n        _createExclusiveRole(uint(Roles.Owner), uint(Roles.Owner), ownerAddress);\n        _createExclusiveRole(uint(Roles.Voter), uint(Roles.Owner), voterAddress);\n        setWithdrawRole(uint(Roles.Owner));\n\n        finder = FinderInterface(finderAddress);\n    }\n\n    /****************************************\n     *   VOTING AND REWARD FUNCTIONALITY    *\n     ****************************************/\n\n    /**\n     * @notice Forwards a commit to Voting.\n     * @param identifier uniquely identifies the feed for this vote. EG BTC/USD price pair.\n     * @param time specifies the unix timestamp of the price being voted on.\n     * @param hash the keccak256 hash of the price you want to vote for and a random integer salt value.\n     */\n    function commitVote(bytes32 identifier, uint time, bytes32 hash) external onlyRoleHolder(uint(Roles.Voter)) {\n        _getVotingAddress().commitVote(identifier, time, hash);\n    }\n\n    /**\n     * @notice Forwards a batch commit to Voting.\n     * @param commits struct to encapsulate an `identifier`, `time`, `hash` and optional `encryptedVote`.\n     */\n    function batchCommit(VotingInterface.Commitment[] calldata commits) external onlyRoleHolder(uint(Roles.Voter)) {\n        _getVotingAddress().batchCommit(commits);\n    }\n\n    /**\n     * @notice Forwards a reveal to Voting.\n     * @param identifier voted on in the commit phase. EG BTC/USD price pair.\n     * @param time specifies the unix timestamp of the price being voted on.\n     * @param price used along with the `salt` to produce the `hash` during the commit phase.\n     * @param salt used along with the `price` to produce the `hash` during the commit phase.\n     */\n    function revealVote(bytes32 identifier, uint time, int price, int salt) external onlyRoleHolder(uint(Roles.Voter)) {\n        _getVotingAddress().revealVote(identifier, time, price, salt);\n    }\n\n    /**\n     * @notice Forwards a batch reveal to Voting.\n     * @param reveals is an array of the Reveal struct which contains an identifier, time, price and salt.\n     */\n    function batchReveal(VotingInterface.Reveal[] calldata reveals) external onlyRoleHolder(uint(Roles.Voter)) {\n        _getVotingAddress().batchReveal(reveals);\n    }\n\n    /**\n     * @notice Forwards a reward retrieval to Voting.\n     * @dev rewards are added to the tokens already held by this contract.\n     * @param roundId defines the round from which voting rewards will be retrieved from.\n     * @param toRetrieve an array of PendingRequests which rewards are retrieved from.\n     */\n    function retrieveRewards(uint roundId, VotingInterface.PendingRequest[] memory toRetrieve)\n        public\n        onlyRoleHolder(uint(Roles.Voter))\n        returns (FixedPoint.Unsigned memory rewardsIssued)\n    {\n        return _getVotingAddress().retrieveRewards(address(this), roundId, toRetrieve);\n    }\n\n    function _getVotingAddress() private view returns (VotingInterface) {\n        return VotingInterface(finder.getImplementationAddress(\"Oracle\"));\n    }\n}\n",
  "sourcePath": "/home/opz/Projects/SynFiat-update/ui/contracts/uma-contracts/oracle/implementation/DesignatedVoting.sol",
  "compiler": {
    "name": "solc",
    "version": "0.6.4+commit.1dca32f3.Emscripten.clang"
  },
  "schemaVersion": "3.2.0",
  "updatedAt": "2020-06-29T17:20:03.140Z",
  "devdoc": {
    "details": "Allows a UMA token holder to designate another address to vote on their behalf. Each voter must deploy their own instance of this contract.",
    "methods": {
      "addMember(uint256,address)": {
        "details": "Reverts if `roleId` does not represent an initialized, shared role or if the caller is not a member of the managing role for `roleId`."
      },
      "batchCommit((bytes32,uint256,bytes32,bytes)[])": {
        "params": {
          "commits": "struct to encapsulate an `identifier`, `time`, `hash` and optional `encryptedVote`."
        }
      },
      "batchReveal((bytes32,uint256,int256,int256)[])": {
        "params": {
          "reveals": "is an array of the Reveal struct which contains an identifier, time, price and salt."
        }
      },
      "commitVote(bytes32,uint256,bytes32)": {
        "params": {
          "hash": "the keccak256 hash of the price you want to vote for and a random integer salt value.",
          "identifier": "uniquely identifies the feed for this vote. EG BTC/USD price pair.",
          "time": "specifies the unix timestamp of the price being voted on."
        }
      },
      "constructor": {
        "params": {
          "finderAddress": "keeps track of all contracts within the system based on their interfaceName.",
          "ownerAddress": "address of the owner of the DesignatedVoting contract.",
          "voterAddress": "address to which the owner has delegated their voting power."
        }
      },
      "getMember(uint256)": {
        "details": "Reverts if `roleId` does not represent an initialized, exclusive role."
      },
      "holdsRole(uint256,address)": {
        "details": "Reverts if roleId does not correspond to an initialized role."
      },
      "removeMember(uint256,address)": {
        "details": "Reverts if `roleId` does not represent an initialized, shared role or if the caller is not a member of the managing role for `roleId`."
      },
      "resetMember(uint256,address)": {
        "details": "Reverts if the caller is not a member of the managing role for `roleId` or if `roleId` is not an initialized, exclusive role."
      },
      "retrieveRewards(uint256,(bytes32,uint256)[])": {
        "details": "rewards are added to the tokens already held by this contract.",
        "params": {
          "roundId": "defines the round from which voting rewards will be retrieved from.",
          "toRetrieve": "an array of PendingRequests which rewards are retrieved from."
        }
      },
      "revealVote(bytes32,uint256,int256,int256)": {
        "params": {
          "identifier": "voted on in the commit phase. EG BTC/USD price pair.",
          "price": "used along with the `salt` to produce the `hash` during the commit phase.",
          "salt": "used along with the `price` to produce the `hash` during the commit phase.",
          "time": "specifies the unix timestamp of the price being voted on."
        }
      }
    },
    "title": "Proxy to allow voting from another address."
  },
  "userdoc": {
    "methods": {
      "addMember(uint256,address)": {
        "notice": "Adds `newMember` to the shared role, `roleId`."
      },
      "batchCommit((bytes32,uint256,bytes32,bytes)[])": {
        "notice": "Forwards a batch commit to Voting."
      },
      "batchReveal((bytes32,uint256,int256,int256)[])": {
        "notice": "Forwards a batch reveal to Voting."
      },
      "commitVote(bytes32,uint256,bytes32)": {
        "notice": "Forwards a commit to Voting."
      },
      "constructor": "Construct the DesignatedVoting contract.",
      "getMember(uint256)": {
        "notice": "Gets the current holder of the exclusive role, `roleId`."
      },
      "holdsRole(uint256,address)": {
        "notice": "Whether `memberToCheck` is a member of roleId."
      },
      "removeMember(uint256,address)": {
        "notice": "Removes `memberToRemove` from the shared role, `roleId`."
      },
      "resetMember(uint256,address)": {
        "notice": "Changes the exclusive role holder of `roleId` to `newMember`."
      },
      "retrieveRewards(uint256,(bytes32,uint256)[])": {
        "notice": "Forwards a reward retrieval to Voting."
      },
      "revealVote(bytes32,uint256,int256,int256)": {
        "notice": "Forwards a reveal to Voting."
      },
      "withdraw(uint256)": {
        "notice": "Withdraws ETH from the contract."
      },
      "withdrawErc20(address,uint256)": {
        "notice": "Withdraws ERC20 tokens from the contract."
      }
    }
  }
}