{
  "contractName": "DesignatedVoting",
  "abi": [
    {
      "inputs": [
        {
          "internalType": "address",
          "name": "finderAddress",
          "type": "address"
        },
        {
          "internalType": "address",
          "name": "ownerAddress",
          "type": "address"
        },
        {
          "internalType": "address",
          "name": "voterAddress",
          "type": "address"
        }
      ],
      "stateMutability": "nonpayable",
      "type": "constructor"
    },
    {
      "anonymous": false,
      "inputs": [
        {
          "indexed": true,
          "internalType": "uint256",
          "name": "roleId",
          "type": "uint256"
        },
        {
          "indexed": true,
          "internalType": "address",
          "name": "newMember",
          "type": "address"
        },
        {
          "indexed": true,
          "internalType": "address",
          "name": "manager",
          "type": "address"
        }
      ],
      "name": "AddedSharedMember",
      "type": "event"
    },
    {
      "anonymous": false,
      "inputs": [
        {
          "indexed": true,
          "internalType": "uint256",
          "name": "roleId",
          "type": "uint256"
        },
        {
          "indexed": true,
          "internalType": "address",
          "name": "oldMember",
          "type": "address"
        },
        {
          "indexed": true,
          "internalType": "address",
          "name": "manager",
          "type": "address"
        }
      ],
      "name": "RemovedSharedMember",
      "type": "event"
    },
    {
      "anonymous": false,
      "inputs": [
        {
          "indexed": true,
          "internalType": "uint256",
          "name": "roleId",
          "type": "uint256"
        },
        {
          "indexed": true,
          "internalType": "address",
          "name": "newMember",
          "type": "address"
        },
        {
          "indexed": true,
          "internalType": "address",
          "name": "manager",
          "type": "address"
        }
      ],
      "name": "ResetExclusiveMember",
      "type": "event"
    },
    {
      "inputs": [
        {
          "internalType": "uint256",
          "name": "roleId",
          "type": "uint256"
        },
        {
          "internalType": "address",
          "name": "newMember",
          "type": "address"
        }
      ],
      "name": "addMember",
      "outputs": [],
      "stateMutability": "nonpayable",
      "type": "function"
    },
    {
      "inputs": [
        {
          "internalType": "uint256",
          "name": "roleId",
          "type": "uint256"
        }
      ],
      "name": "getMember",
      "outputs": [
        {
          "internalType": "address",
          "name": "",
          "type": "address"
        }
      ],
      "stateMutability": "view",
      "type": "function"
    },
    {
      "inputs": [
        {
          "internalType": "uint256",
          "name": "roleId",
          "type": "uint256"
        },
        {
          "internalType": "address",
          "name": "memberToCheck",
          "type": "address"
        }
      ],
      "name": "holdsRole",
      "outputs": [
        {
          "internalType": "bool",
          "name": "",
          "type": "bool"
        }
      ],
      "stateMutability": "view",
      "type": "function"
    },
    {
      "inputs": [
        {
          "internalType": "uint256",
          "name": "roleId",
          "type": "uint256"
        },
        {
          "internalType": "address",
          "name": "memberToRemove",
          "type": "address"
        }
      ],
      "name": "removeMember",
      "outputs": [],
      "stateMutability": "nonpayable",
      "type": "function"
    },
    {
      "inputs": [
        {
          "internalType": "uint256",
          "name": "roleId",
          "type": "uint256"
        }
      ],
      "name": "renounceMembership",
      "outputs": [],
      "stateMutability": "nonpayable",
      "type": "function"
    },
    {
      "inputs": [
        {
          "internalType": "uint256",
          "name": "roleId",
          "type": "uint256"
        },
        {
          "internalType": "address",
          "name": "newMember",
          "type": "address"
        }
      ],
      "name": "resetMember",
      "outputs": [],
      "stateMutability": "nonpayable",
      "type": "function"
    },
    {
      "inputs": [
        {
          "internalType": "uint256",
          "name": "amount",
          "type": "uint256"
        }
      ],
      "name": "withdraw",
      "outputs": [],
      "stateMutability": "nonpayable",
      "type": "function"
    },
    {
      "inputs": [
        {
          "internalType": "address",
          "name": "erc20Address",
          "type": "address"
        },
        {
          "internalType": "uint256",
          "name": "amount",
          "type": "uint256"
        }
      ],
      "name": "withdrawErc20",
      "outputs": [],
      "stateMutability": "nonpayable",
      "type": "function"
    },
    {
      "inputs": [
        {
          "internalType": "bytes32",
          "name": "identifier",
          "type": "bytes32"
        },
        {
          "internalType": "uint256",
          "name": "time",
          "type": "uint256"
        },
        {
          "internalType": "bytes32",
          "name": "hash",
          "type": "bytes32"
        }
      ],
      "name": "commitVote",
      "outputs": [],
      "stateMutability": "nonpayable",
      "type": "function"
    },
    {
      "inputs": [
        {
          "components": [
            {
              "internalType": "bytes32",
              "name": "identifier",
              "type": "bytes32"
            },
            {
              "internalType": "uint256",
              "name": "time",
              "type": "uint256"
            },
            {
              "internalType": "bytes32",
              "name": "hash",
              "type": "bytes32"
            },
            {
              "internalType": "bytes",
              "name": "encryptedVote",
              "type": "bytes"
            }
          ],
          "internalType": "struct VotingInterface.Commitment[]",
          "name": "commits",
          "type": "tuple[]"
        }
      ],
      "name": "batchCommit",
      "outputs": [],
      "stateMutability": "nonpayable",
      "type": "function"
    },
    {
      "inputs": [
        {
          "internalType": "bytes32",
          "name": "identifier",
          "type": "bytes32"
        },
        {
          "internalType": "uint256",
          "name": "time",
          "type": "uint256"
        },
        {
          "internalType": "int256",
          "name": "price",
          "type": "int256"
        },
        {
          "internalType": "int256",
          "name": "salt",
          "type": "int256"
        }
      ],
      "name": "revealVote",
      "outputs": [],
      "stateMutability": "nonpayable",
      "type": "function"
    },
    {
      "inputs": [
        {
          "components": [
            {
              "internalType": "bytes32",
              "name": "identifier",
              "type": "bytes32"
            },
            {
              "internalType": "uint256",
              "name": "time",
              "type": "uint256"
            },
            {
              "internalType": "int256",
              "name": "price",
              "type": "int256"
            },
            {
              "internalType": "int256",
              "name": "salt",
              "type": "int256"
            }
          ],
          "internalType": "struct VotingInterface.Reveal[]",
          "name": "reveals",
          "type": "tuple[]"
        }
      ],
      "name": "batchReveal",
      "outputs": [],
      "stateMutability": "nonpayable",
      "type": "function"
    },
    {
      "inputs": [
        {
          "internalType": "uint256",
          "name": "roundId",
          "type": "uint256"
        },
        {
          "components": [
            {
              "internalType": "bytes32",
              "name": "identifier",
              "type": "bytes32"
            },
            {
              "internalType": "uint256",
              "name": "time",
              "type": "uint256"
            }
          ],
          "internalType": "struct VotingInterface.PendingRequest[]",
          "name": "toRetrieve",
          "type": "tuple[]"
        }
      ],
      "name": "retrieveRewards",
      "outputs": [
        {
          "components": [
            {
              "internalType": "uint256",
              "name": "rawValue",
              "type": "uint256"
            }
          ],
          "internalType": "struct FixedPoint.Unsigned",
          "name": "",
          "type": "tuple"
        }
      ],
      "stateMutability": "nonpayable",
      "type": "function"
    }
  ],
  "bytecode": "0x60806040523480156200001157600080fd5b5060405162001f8538038062001f8583398101604081905262000034916200021c565b6200004b600080846001600160e01b03620000a016565b6200006360016000836001600160e01b03620000a016565b6200007860006001600160e01b036200017316565b5050600280546001600160a01b0319166001600160a01b03929092169190911790556200037f565b826000808281526020819052604090206001015460ff166002811115620000c357fe5b14620000ec5760405162461bcd60e51b8152600401620000e390620002ec565b60405180910390fd5b60008481526020819052604090206001808201805460ff1916828002179055508381556200012a6002820184620001bd602090811b62000bd917901c565b60008481526020819052604081206001015460ff1660028111156200014b57fe5b14156200016c5760405162461bcd60e51b8152600401620000e390620002a0565b5050505050565b806000808281526020819052604090206001015460ff1660028111156200019657fe5b1415620001b75760405162461bcd60e51b8152600401620000e3906200026f565b50600155565b620001d282826001600160e01b03620001d616565b5050565b6001600160a01b038116620001ff5760405162461bcd60e51b8152600401620000e39062000323565b81546001600160a01b0319166001600160a01b0391909116179055565b60008060006060848603121562000231578283fd5b83516200023e8162000366565b6020850151909350620002518162000366565b6040850151909250620002648162000366565b809150509250925092565b602080825260229082015260008051602062001f65833981519152604082015261125960f21b606082015260800190565b6020808252603c9082015260008051602062001f6583398151915260408201527f20746f206d616e61676520616e206578636c757369766520726f6c6500000000606082015260800190565b6020808252601e908201527f43616e6e6f74207573652061207072652d6578697374696e6720726f6c650000604082015260600190565b60208082526023908201527f43616e6e6f742073657420616e206578636c757369766520726f6c6520746f2060408201526203078360ec1b606082015260800190565b6001600160a01b03811681146200037c57600080fd5b50565b611bd6806200038f6000396000f3fe608060405234801561001057600080fd5b50600436106100df5760003560e01c806374d0a6761161008c578063ab3545e511610066578063ab3545e5146101b4578063bd1f4b52146101d4578063d8651ad0146101e7578063d97c05be146101fa576100df565b806374d0a6761461016e5780637cdc1cb914610181578063aaa14ca3146101a1576100df565b80636852eea0116100bd5780636852eea0146101355780636be7658b1461014857806370a0cf2c1461015b576100df565b80632e1a7d4d146100e45780633756a796146100f95780634c7a260314610122575b600080fd5b6100f76100f236600461138d565b61020d565b005b61010c6101073660046113d4565b610267565b6040516101199190611b2a565b60405180910390f35b6100f7610130366004611337565b61034f565b6100f761014336600461128e565b610410565b6100f76101563660046113a5565b6104cb565b6100f7610169366004611222565b6105e2565b6100f761017c3660046113a5565b610666565b61019461018f3660046113a5565b61077d565b6040516101199190611749565b6100f76101af36600461138d565b610826565b6101c76101c236600461138d565b610916565b6040516101199190611506565b6100f76101e23660046111f7565b610993565b6100f76101f536600461130c565b610a04565b6100f76102083660046113a5565b610ac2565b60015461021a813361077d565b610259576040517f08c379a000000000000000000000000000000000000000000000000000000000815260040161025090611948565b60405180910390fd5b6102633383610be3565b5050565b61026f611197565b600161027b813361077d565b6102b1576040517f08c379a000000000000000000000000000000000000000000000000000000000815260040161025090611948565b6102b9610cc5565b73ffffffffffffffffffffffffffffffffffffffff16630d434e7e3086866040518463ffffffff1660e01b81526004016102f59392919061154d565b602060405180830381600087803b15801561030f57600080fd5b505af1158015610323573d6000803e3d6000fd5b505050506040513d601f19601f820116820180604052508101906103479190611368565b949350505050565b600161035b813361077d565b610391576040517f08c379a000000000000000000000000000000000000000000000000000000000815260040161025090611948565b610399610cc5565b73ffffffffffffffffffffffffffffffffffffffff16634c7a2603868686866040518563ffffffff1660e01b81526004016103d79493929190611773565b600060405180830381600087803b1580156103f157600080fd5b505af1158015610405573d6000803e3d6000fd5b505050505050505050565b600161041c813361077d565b610452576040517f08c379a000000000000000000000000000000000000000000000000000000000815260040161025090611948565b61045a610cc5565b73ffffffffffffffffffffffffffffffffffffffff16636852eea084846040518363ffffffff1660e01b81526004016104949291906116ee565b600060405180830381600087803b1580156104ae57600080fd5b505af11580156104c2573d6000803e3d6000fd5b50505050505050565b81600260008281526020819052604090206001015460ff1660028111156104ee57fe5b14610525576040517f08c379a0000000000000000000000000000000000000000000000000000000008152600401610250906118eb565b6000838152602081905260409020548390610540903361077d565b610576576040517f08c379a000000000000000000000000000000000000000000000000000000000815260040161025090611a02565b6000848152602081905260409020610597906003018463ffffffff610d9116565b604051339073ffffffffffffffffffffffffffffffffffffffff85169086907feb3e33034c392e69263b04ec0fa376dc12784a41b6676c7f31b936cbc0fbb5af90600090a450505050565b60016105ee813361077d565b610624576040517f08c379a000000000000000000000000000000000000000000000000000000000815260040161025090611948565b61062c610cc5565b73ffffffffffffffffffffffffffffffffffffffff166370a0cf2c84846040518363ffffffff1660e01b81526004016104949291906115c2565b81600260008281526020819052604090206001015460ff16600281111561068957fe5b146106c0576040517f08c379a0000000000000000000000000000000000000000000000000000000008152600401610250906118eb565b60008381526020819052604090205483906106db903361077d565b610711576040517f08c379a000000000000000000000000000000000000000000000000000000000815260040161025090611a02565b6000848152602081905260409020610732906003018463ffffffff610dde16565b604051339073ffffffffffffffffffffffffffffffffffffffff85169086907f63502af7324ff6db91ab38f8236a648727d9385ea6c782073dd4882d8a61a48f90600090a450505050565b600082815260208190526040812060018082015460ff16600281111561079f57fe5b14156107c0576107b8600282018463ffffffff610e7b16565b915050610820565b6002600182015460ff1660028111156107d557fe5b14156107ee576107b8600382018463ffffffff610e9b16565b6040517f08c379a000000000000000000000000000000000000000000000000000000000815260040161025090611a5f565b92915050565b80600260008281526020819052604090206001015460ff16600281111561084957fe5b14610880576040517f08c379a0000000000000000000000000000000000000000000000000000000008152600401610250906118eb565b8161088b813361077d565b6108c1576040517f08c379a000000000000000000000000000000000000000000000000000000000815260040161025090611948565b60008381526020819052604090206108e2906003013363ffffffff610d9116565b6040513390819085907feb3e33034c392e69263b04ec0fa376dc12784a41b6676c7f31b936cbc0fbb5af90600090a4505050565b600081600160008281526020819052604090206001015460ff16600281111561093b57fe5b14610972576040517f08c379a0000000000000000000000000000000000000000000000000000000008152600401610250906117c5565b600083815260208190526040902061098c90600201610ec7565b9392505050565b6001546109a0813361077d565b6109d6576040517f08c379a000000000000000000000000000000000000000000000000000000000815260040161025090611948565b826109fe73ffffffffffffffffffffffffffffffffffffffff8216338563ffffffff610ee116565b50505050565b6001610a10813361077d565b610a46576040517f08c379a000000000000000000000000000000000000000000000000000000000815260040161025090611948565b610a4e610cc5565b73ffffffffffffffffffffffffffffffffffffffff1663d8651ad08585856040518463ffffffff1660e01b8152600401610a8a9392919061175d565b600060405180830381600087803b158015610aa457600080fd5b505af1158015610ab8573d6000803e3d6000fd5b5050505050505050565b81600160008281526020819052604090206001015460ff166002811115610ae557fe5b14610b1c576040517f08c379a0000000000000000000000000000000000000000000000000000000008152600401610250906117c5565b6000838152602081905260409020548390610b37903361077d565b610b6d576040517f08c379a000000000000000000000000000000000000000000000000000000000815260040161025090611a02565b6000848152602081905260409020610b8e906002018463ffffffff610f8216565b604051339073ffffffffffffffffffffffffffffffffffffffff85169086907f3b855c56b409b671c7112789d022675eb639d0bcb8896f1b6197c132f799e74690600090a450505050565b6102638282610f82565b80471015610c1d576040517f08c379a0000000000000000000000000000000000000000000000000000000008152600401610250906118b4565b60008273ffffffffffffffffffffffffffffffffffffffff1682604051610c4390611503565b60006040518083038185875af1925050503d8060008114610c80576040519150601f19603f3d011682016040523d82523d6000602084013e610c85565b606091505b5050905080610cc0576040517f08c379a000000000000000000000000000000000000000000000000000000000815260040161025090611857565b505050565b6002546040517faafd5e4000000000000000000000000000000000000000000000000000000000815260009173ffffffffffffffffffffffffffffffffffffffff169063aafd5e4090610d3c907f4f7261636c65000000000000000000000000000000000000000000000000000090600401611754565b60206040518083038186803b158015610d5457600080fd5b505afa158015610d68573d6000803e3d6000fd5b505050506040513d601f19601f82011682018060405250810190610d8c91906111db565b905090565b73ffffffffffffffffffffffffffffffffffffffff1660009081526020919091526040902080547fffffffffffffffffffffffffffffffffffffffffffffffffffffffffffffff00169055565b73ffffffffffffffffffffffffffffffffffffffff8116610e2b576040517f08c379a00000000000000000000000000000000000000000000000000000000081526004016102509061178e565b73ffffffffffffffffffffffffffffffffffffffff1660009081526020919091526040902080547fffffffffffffffffffffffffffffffffffffffffffffffffffffffffffffff00166001179055565b905473ffffffffffffffffffffffffffffffffffffffff91821691161490565b73ffffffffffffffffffffffffffffffffffffffff166000908152602091909152604090205460ff1690565b5473ffffffffffffffffffffffffffffffffffffffff1690565b610cc08363a9059cbb60e01b8484604051602401610f00929190611527565b604080517fffffffffffffffffffffffffffffffffffffffffffffffffffffffffffffffe08184030181529190526020810180517bffffffffffffffffffffffffffffffffffffffffffffffffffffffff167fffffffff0000000000000000000000000000000000000000000000000000000090931692909217909152611011565b73ffffffffffffffffffffffffffffffffffffffff8116610fcf576040517f08c379a0000000000000000000000000000000000000000000000000000000008152600401610250906119a5565b81547fffffffffffffffffffffffff00000000000000000000000000000000000000001673ffffffffffffffffffffffffffffffffffffffff91909116179055565b6110308273ffffffffffffffffffffffffffffffffffffffff1661115e565b611066576040517f08c379a000000000000000000000000000000000000000000000000000000000815260040161025090611af3565b600060608373ffffffffffffffffffffffffffffffffffffffff168360405161108f91906114ca565b6000604051808303816000865af19150503d80600081146110cc576040519150601f19603f3d011682016040523d82523d6000602084013e6110d1565b606091505b50915091508161110d576040517f08c379a000000000000000000000000000000000000000000000000000000000815260040161025090611822565b8051156109fe578080602001905181019061112891906112ec565b6109fe576040517f08c379a000000000000000000000000000000000000000000000000000000000815260040161025090611a96565b6000813f7fc5d2460186f7233c927e7db2dcc703c0e500b653ca82273b7bfad8045d85a470818114801590610347575050151592915050565b6040518060200160405280600081525090565b6000604082840312156111bb578081fd5b6111c56040611b34565b9050813581526020820135602082015292915050565b6000602082840312156111ec578081fd5b815161098c81611b7b565b60008060408385031215611209578081fd5b823561121481611b7b565b946020939093013593505050565b60008060208385031215611234578182fd5b823567ffffffffffffffff8082111561124b578384fd5b81850186601f82011261125c578485fd5b803592508183111561126c578485fd5b866020808502830101111561127f578485fd5b60200196919550909350505050565b600080602083850312156112a0578182fd5b823567ffffffffffffffff808211156112b7578384fd5b81850186601f8201126112c8578485fd5b80359250818311156112d8578485fd5b86602060808502830101111561127f578485fd5b6000602082840312156112fd578081fd5b8151801515811461098c578182fd5b600080600060608486031215611320578081fd5b505081359360208301359350604090920135919050565b6000806000806080858703121561134c578081fd5b5050823594602084013594506040840135936060013592509050565b600060208284031215611379578081fd5b6113836020611b34565b9151825250919050565b60006020828403121561139e578081fd5b5035919050565b600080604083850312156113b7578182fd5b8235915060208301356113c981611b7b565b809150509250929050565b60008060408084860312156113e7578283fd5b8335925060208085013567ffffffffffffffff811115611405578384fd5b80860187601f820112611416578485fd5b8035915061142b61142683611b5b565b611b34565b82815283810190828501868502840186018b1015611447578788fd5b8793505b848410156114715761145d8b826111aa565b83526001939093019291850191860161144b565b508096505050505050509250929050565b600082845282826020860137806020848601015260207fffffffffffffffffffffffffffffffffffffffffffffffffffffffffffffffe0601f85011685010190509392505050565b60008251815b818110156114ea57602081860181015185830152016114d0565b818111156114f85782828501525b509190910192915050565b90565b73ffffffffffffffffffffffffffffffffffffffff91909116815260200190565b73ffffffffffffffffffffffffffffffffffffffff929092168252602082015260400190565b60006060820173ffffffffffffffffffffffffffffffffffffffff861683526020858185015260406060818601528286518085526080870191508388019450855b818110156115b35785518051845285015185840152948401949183019160010161158e565b50909998505050505050505050565b602080825281810183905260009060408084018583028501820187855b888110156116e0577fffffffffffffffffffffffffffffffffffffffffffffffffffffffffffffffc088840301845281357fffffffffffffffffffffffffffffffffffffffffffffffffffffffffffffff818b360301811261163f578788fd5b8a018035845286810135878501528581013586850152608090606080820135368390037fffffffffffffffffffffffffffffffffffffffffffffffffffffffffffffffe101811261168e578a8bfd5b820180359067ffffffffffffffff8211156116a7578b8cfd5b8136038413156116b5578b8cfd5b84838901526116c9858901838d8401611482565b988b019897505050938801935050506001016115df565b509098975050505050505050565b6020808252818101839052600090604080840186845b8781101561173c5781358352848201358584015283820135848401526060808301359084015260809283019290910190600101611704565b5090979650505050505050565b901515815260200190565b90815260200190565b9283526020830191909152604082015260600190565b93845260208401929092526040830152606082015260800190565b6020808252601f908201527f43616e6e6f74206164642030783020746f20612073686172656420726f6c6500604082015260600190565b6020808252602f908201527f4d7573742062652063616c6c6564206f6e20616e20696e697469616c697a656460408201527f204578636c757369766520726f6c650000000000000000000000000000000000606082015260800190565b6020808252818101527f5361666545524332303a206c6f772d6c6576656c2063616c6c206661696c6564604082015260600190565b6020808252603a908201527f416464726573733a20756e61626c6520746f2073656e642076616c75652c207260408201527f6563697069656e74206d61792068617665207265766572746564000000000000606082015260800190565b6020808252601d908201527f416464726573733a20696e73756666696369656e742062616c616e6365000000604082015260600190565b6020808252602c908201527f4d7573742062652063616c6c6564206f6e20616e20696e697469616c697a656460408201527f2053686172656420726f6c650000000000000000000000000000000000000000606082015260800190565b60208082526022908201527f53656e64657220646f6573206e6f7420686f6c6420726571756972656420726f60408201527f6c65000000000000000000000000000000000000000000000000000000000000606082015260800190565b60208082526023908201527f43616e6e6f742073657420616e206578636c757369766520726f6c6520746f2060408201527f3078300000000000000000000000000000000000000000000000000000000000606082015260800190565b60208082526024908201527f43616e206f6e6c792062652063616c6c6564206279206120726f6c65206d616e60408201527f6167657200000000000000000000000000000000000000000000000000000000606082015260800190565b6020808252600e908201527f496e76616c696420726f6c654964000000000000000000000000000000000000604082015260600190565b6020808252602a908201527f5361666545524332303a204552433230206f7065726174696f6e20646964206e60408201527f6f74207375636365656400000000000000000000000000000000000000000000606082015260800190565b6020808252601f908201527f5361666545524332303a2063616c6c20746f206e6f6e2d636f6e747261637400604082015260600190565b9051815260200190565b60405181810167ffffffffffffffff81118282101715611b5357600080fd5b604052919050565b600067ffffffffffffffff821115611b71578081fd5b5060209081020190565b73ffffffffffffffffffffffffffffffffffffffff81168114611b9d57600080fd5b5056fea264697066735822122091ba98db943e8fe03dda61023ff0fa15bd6291ed073b912164e0bbe48529ddad64736f6c634300060a0033417474656d7074656420746f2075736520616e20696e76616c696420726f6c65",
  "immutableReferences": {},
  "source": "pragma solidity ^0.6.0;\npragma experimental ABIEncoderV2;\n\nimport \"../../common/implementation/MultiRole.sol\";\nimport \"../../common/implementation/Withdrawable.sol\";\nimport \"../interfaces/VotingInterface.sol\";\nimport \"../interfaces/FinderInterface.sol\";\nimport \"./Constants.sol\";\n\n\n/**\n * @title Proxy to allow voting from another address.\n * @dev Allows a UMA token holder to designate another address to vote on their behalf.\n * Each voter must deploy their own instance of this contract.\n */\ncontract DesignatedVoting is Withdrawable {\n    /****************************************\n     *    INTERNAL VARIABLES AND STORAGE    *\n     ****************************************/\n\n    enum Roles {\n        Owner, // Can set the Voter role. Is also permanently permissioned as the minter role.\n        Voter // Can vote through this contract.\n    }\n\n    // Reference to the UMA Finder contract, allowing Voting upgrades to be performed\n    // without requiring any calls to this contract.\n    FinderInterface private finder;\n\n    /**\n     * @notice Construct the DesignatedVoting contract.\n     * @param finderAddress keeps track of all contracts within the system based on their interfaceName.\n     * @param ownerAddress address of the owner of the DesignatedVoting contract.\n     * @param voterAddress address to which the owner has delegated their voting power.\n     */\n    constructor(\n        address finderAddress,\n        address ownerAddress,\n        address voterAddress\n    ) public {\n        _createExclusiveRole(uint256(Roles.Owner), uint256(Roles.Owner), ownerAddress);\n        _createExclusiveRole(uint256(Roles.Voter), uint256(Roles.Owner), voterAddress);\n        _setWithdrawRole(uint256(Roles.Owner));\n\n        finder = FinderInterface(finderAddress);\n    }\n\n    /****************************************\n     *   VOTING AND REWARD FUNCTIONALITY    *\n     ****************************************/\n\n    /**\n     * @notice Forwards a commit to Voting.\n     * @param identifier uniquely identifies the feed for this vote. EG BTC/USD price pair.\n     * @param time specifies the unix timestamp of the price being voted on.\n     * @param hash the keccak256 hash of the price you want to vote for and a random integer salt value.\n     */\n    function commitVote(\n        bytes32 identifier,\n        uint256 time,\n        bytes32 hash\n    ) external onlyRoleHolder(uint256(Roles.Voter)) {\n        _getVotingAddress().commitVote(identifier, time, hash);\n    }\n\n    /**\n     * @notice Forwards a batch commit to Voting.\n     * @param commits struct to encapsulate an `identifier`, `time`, `hash` and optional `encryptedVote`.\n     */\n    function batchCommit(VotingInterface.Commitment[] calldata commits) external onlyRoleHolder(uint256(Roles.Voter)) {\n        _getVotingAddress().batchCommit(commits);\n    }\n\n    /**\n     * @notice Forwards a reveal to Voting.\n     * @param identifier voted on in the commit phase. EG BTC/USD price pair.\n     * @param time specifies the unix timestamp of the price being voted on.\n     * @param price used along with the `salt` to produce the `hash` during the commit phase.\n     * @param salt used along with the `price` to produce the `hash` during the commit phase.\n     */\n    function revealVote(\n        bytes32 identifier,\n        uint256 time,\n        int256 price,\n        int256 salt\n    ) external onlyRoleHolder(uint256(Roles.Voter)) {\n        _getVotingAddress().revealVote(identifier, time, price, salt);\n    }\n\n    /**\n     * @notice Forwards a batch reveal to Voting.\n     * @param reveals is an array of the Reveal struct which contains an identifier, time, price and salt.\n     */\n    function batchReveal(VotingInterface.Reveal[] calldata reveals) external onlyRoleHolder(uint256(Roles.Voter)) {\n        _getVotingAddress().batchReveal(reveals);\n    }\n\n    /**\n     * @notice Forwards a reward retrieval to Voting.\n     * @dev Rewards are added to the tokens already held by this contract.\n     * @param roundId defines the round from which voting rewards will be retrieved from.\n     * @param toRetrieve an array of PendingRequests which rewards are retrieved from.\n     * @return amount of rewards that the user should receive.\n     */\n    function retrieveRewards(uint256 roundId, VotingInterface.PendingRequest[] memory toRetrieve)\n        public\n        onlyRoleHolder(uint256(Roles.Voter))\n        returns (FixedPoint.Unsigned memory)\n    {\n        return _getVotingAddress().retrieveRewards(address(this), roundId, toRetrieve);\n    }\n\n    function _getVotingAddress() private view returns (VotingInterface) {\n        return VotingInterface(finder.getImplementationAddress(OracleInterfaces.Oracle));\n    }\n}\n",
  "sourcePath": "/home/alessandrovm/JarvisLavoro/SynFiat/packages/contracts/contracts/uma-contracts/oracle/implementation/DesignatedVoting.sol",
  "compiler": {
    "name": "solc",
    "version": "0.6.10+commit.00c0fcaf.Emscripten.clang"
  },
  "schemaVersion": "3.2.5",
  "updatedAt": "2020-10-19T18:33:22.374Z",
  "devdoc": {
    "details": "Allows a UMA token holder to designate another address to vote on their behalf. Each voter must deploy their own instance of this contract.",
    "methods": {
      "addMember(uint256,address)": {
        "details": "Reverts if `roleId` does not represent an initialized, SharedRole or if the caller is not a member of the managing role for `roleId`.",
        "params": {
          "newMember": "the new SharedRole member.",
          "roleId": "the SharedRole membership to modify."
        }
      },
      "batchCommit((bytes32,uint256,bytes32,bytes)[])": {
        "params": {
          "commits": "struct to encapsulate an `identifier`, `time`, `hash` and optional `encryptedVote`."
        }
      },
      "batchReveal((bytes32,uint256,int256,int256)[])": {
        "params": {
          "reveals": "is an array of the Reveal struct which contains an identifier, time, price and salt."
        }
      },
      "commitVote(bytes32,uint256,bytes32)": {
        "params": {
          "hash": "the keccak256 hash of the price you want to vote for and a random integer salt value.",
          "identifier": "uniquely identifies the feed for this vote. EG BTC/USD price pair.",
          "time": "specifies the unix timestamp of the price being voted on."
        }
      },
      "constructor": {
        "params": {
          "finderAddress": "keeps track of all contracts within the system based on their interfaceName.",
          "ownerAddress": "address of the owner of the DesignatedVoting contract.",
          "voterAddress": "address to which the owner has delegated their voting power."
        }
      },
      "getMember(uint256)": {
        "details": "Reverts if `roleId` does not represent an initialized, exclusive role.",
        "params": {
          "roleId": "the ExclusiveRole membership to check."
        },
        "returns": {
          "_0": "the address of the current ExclusiveRole member."
        }
      },
      "holdsRole(uint256,address)": {
        "details": "Reverts if roleId does not correspond to an initialized role.",
        "params": {
          "memberToCheck": "the address to check.",
          "roleId": "the Role to check."
        },
        "returns": {
          "_0": "True if `memberToCheck` is a member of `roleId`."
        }
      },
      "removeMember(uint256,address)": {
        "details": "Reverts if `roleId` does not represent an initialized, SharedRole or if the caller is not a member of the managing role for `roleId`.",
        "params": {
          "memberToRemove": "the current SharedRole member to remove.",
          "roleId": "the SharedRole membership to modify."
        }
      },
      "renounceMembership(uint256)": {
        "details": "Reverts if the caller is not a member of the role for `roleId` or if `roleId` is not an initialized, SharedRole.",
        "params": {
          "roleId": "the SharedRole membership to modify."
        }
      },
      "resetMember(uint256,address)": {
        "details": "Reverts if the caller is not a member of the managing role for `roleId` or if `roleId` is not an initialized, ExclusiveRole.",
        "params": {
          "newMember": "the new ExclusiveRole member.",
          "roleId": "the ExclusiveRole membership to modify."
        }
      },
      "retrieveRewards(uint256,(bytes32,uint256)[])": {
        "details": "Rewards are added to the tokens already held by this contract.",
        "params": {
          "roundId": "defines the round from which voting rewards will be retrieved from.",
          "toRetrieve": "an array of PendingRequests which rewards are retrieved from."
        },
        "returns": {
          "_0": "amount of rewards that the user should receive."
        }
      },
      "revealVote(bytes32,uint256,int256,int256)": {
        "params": {
          "identifier": "voted on in the commit phase. EG BTC/USD price pair.",
          "price": "used along with the `salt` to produce the `hash` during the commit phase.",
          "salt": "used along with the `price` to produce the `hash` during the commit phase.",
          "time": "specifies the unix timestamp of the price being voted on."
        }
      },
      "withdrawErc20(address,uint256)": {
        "params": {
          "amount": "amount of tokens to withdraw.",
          "erc20Address": "ERC20 token to withdraw."
        }
      }
    },
    "title": "Proxy to allow voting from another address."
  },
  "userdoc": {
    "methods": {
      "addMember(uint256,address)": {
        "notice": "Adds `newMember` to the shared role, `roleId`."
      },
      "batchCommit((bytes32,uint256,bytes32,bytes)[])": {
        "notice": "Forwards a batch commit to Voting."
      },
      "batchReveal((bytes32,uint256,int256,int256)[])": {
        "notice": "Forwards a batch reveal to Voting."
      },
      "commitVote(bytes32,uint256,bytes32)": {
        "notice": "Forwards a commit to Voting."
      },
      "constructor": "Construct the DesignatedVoting contract.",
      "getMember(uint256)": {
        "notice": "Gets the current holder of the exclusive role, `roleId`."
      },
      "holdsRole(uint256,address)": {
        "notice": "Whether `memberToCheck` is a member of roleId."
      },
      "removeMember(uint256,address)": {
        "notice": "Removes `memberToRemove` from the shared role, `roleId`."
      },
      "renounceMembership(uint256)": {
        "notice": "Removes caller from the role, `roleId`."
      },
      "resetMember(uint256,address)": {
        "notice": "Changes the exclusive role holder of `roleId` to `newMember`."
      },
      "retrieveRewards(uint256,(bytes32,uint256)[])": {
        "notice": "Forwards a reward retrieval to Voting."
      },
      "revealVote(bytes32,uint256,int256,int256)": {
        "notice": "Forwards a reveal to Voting."
      },
      "withdraw(uint256)": {
        "notice": "Withdraws ETH from the contract."
      },
      "withdrawErc20(address,uint256)": {
        "notice": "Withdraws ERC20 tokens from the contract."
      }
    }
  }
}