{
  "contractName": "DesignatedVotingFactory",
  "abi": [
    {
      "inputs": [
        {
          "internalType": "address",
          "name": "finderAddress",
          "type": "address"
        }
      ],
      "stateMutability": "nonpayable",
      "type": "constructor"
    },
    {
      "inputs": [
        {
          "internalType": "uint256",
          "name": "roleId",
          "type": "uint256"
        },
        {
          "internalType": "address",
          "name": "newMember",
          "type": "address"
        }
      ],
      "name": "addMember",
      "outputs": [],
      "stateMutability": "nonpayable",
      "type": "function"
    },
    {
      "inputs": [
        {
          "internalType": "address",
          "name": "",
          "type": "address"
        }
      ],
      "name": "designatedVotingContracts",
      "outputs": [
        {
          "internalType": "contract DesignatedVoting",
          "name": "",
          "type": "address"
        }
      ],
      "stateMutability": "view",
      "type": "function"
    },
    {
      "inputs": [
        {
          "internalType": "uint256",
          "name": "roleId",
          "type": "uint256"
        }
      ],
      "name": "getMember",
      "outputs": [
        {
          "internalType": "address",
          "name": "",
          "type": "address"
        }
      ],
      "stateMutability": "view",
      "type": "function"
    },
    {
      "inputs": [
        {
          "internalType": "uint256",
          "name": "roleId",
          "type": "uint256"
        },
        {
          "internalType": "address",
          "name": "memberToCheck",
          "type": "address"
        }
      ],
      "name": "holdsRole",
      "outputs": [
        {
          "internalType": "bool",
          "name": "",
          "type": "bool"
        }
      ],
      "stateMutability": "view",
      "type": "function"
    },
    {
      "inputs": [
        {
          "internalType": "uint256",
          "name": "roleId",
          "type": "uint256"
        },
        {
          "internalType": "address",
          "name": "memberToRemove",
          "type": "address"
        }
      ],
      "name": "removeMember",
      "outputs": [],
      "stateMutability": "nonpayable",
      "type": "function"
    },
    {
      "inputs": [
        {
          "internalType": "uint256",
          "name": "roleId",
          "type": "uint256"
        },
        {
          "internalType": "address",
          "name": "newMember",
          "type": "address"
        }
      ],
      "name": "resetMember",
      "outputs": [],
      "stateMutability": "nonpayable",
      "type": "function"
    },
    {
      "inputs": [
        {
          "internalType": "uint256",
          "name": "amount",
          "type": "uint256"
        }
      ],
      "name": "withdraw",
      "outputs": [],
      "stateMutability": "nonpayable",
      "type": "function"
    },
    {
      "inputs": [
        {
          "internalType": "address",
          "name": "erc20Address",
          "type": "address"
        },
        {
          "internalType": "uint256",
          "name": "amount",
          "type": "uint256"
        }
      ],
      "name": "withdrawErc20",
      "outputs": [],
      "stateMutability": "nonpayable",
      "type": "function"
    },
    {
      "inputs": [
        {
          "internalType": "address",
          "name": "ownerAddress",
          "type": "address"
        }
      ],
      "name": "newDesignatedVoting",
      "outputs": [
        {
          "internalType": "contract DesignatedVoting",
          "name": "designatedVoting",
          "type": "address"
        }
      ],
      "stateMutability": "nonpayable",
      "type": "function"
    },
    {
      "inputs": [
        {
          "internalType": "address",
          "name": "designatedVotingAddress",
          "type": "address"
        }
      ],
      "name": "setDesignatedVoting",
      "outputs": [],
      "stateMutability": "nonpayable",
      "type": "function"
    }
  ],
  "bytecode": "0x60806040523480156200001157600080fd5b50604051620029f1380380620029f18339810160408190526200003491620001bf565b600280546001600160a01b0319166001600160a01b03831617905562000066600080336001600160e01b036200006d16565b50620002c6565b6001839055620000888383836001600160e01b036200008d16565b505050565b826000808281526020819052604090206001015460ff166002811115620000b057fe5b14620000d95760405162461bcd60e51b8152600401620000d0906200024c565b60405180910390fd5b60008481526020819052604090206001808201805460ff19168280021790555083815562000117600282018462000160602090811b62000e5117901c565b60008481526020819052604081206001015460ff1660028111156200013857fe5b1415620001595760405162461bcd60e51b8152600401620000d090620001ef565b5050505050565b6200017582826001600160e01b036200017916565b5050565b6001600160a01b038116620001a25760405162461bcd60e51b8152600401620000d09062000283565b81546001600160a01b0319166001600160a01b0391909116179055565b600060208284031215620001d1578081fd5b81516001600160a01b0381168114620001e8578182fd5b9392505050565b6020808252603c908201527f417474656d7074656420746f2075736520616e20696e76616c696420726f6c6560408201527f20746f206d616e61676520616e206578636c757369766520726f6c6500000000606082015260800190565b6020808252601e908201527f43616e6e6f74207573652061207072652d6578697374696e6720726f6c650000604082015260600190565b60208082526023908201527f43616e6e6f742073657420616e206578636c757369766520726f6c6520746f2060408201526203078360ec1b606082015260800190565b61271b80620002d66000396000f3fe60806040523480156200001157600080fd5b5060043610620000d05760003560e01c80637cbf876b1162000081578063ab3545e51162000063578063ab3545e5146200019f578063bd1f4b5214620001b6578063d97c05be14620001cd57620000d0565b80637cbf876b14620001625780637cdc1cb9146200017957620000d0565b80635e07dd5b11620000b75780635e07dd5b146200011d5780636be7658b146200013457806374d0a676146200014b57620000d0565b80632e1a7d4d14620000d557806349ed510f14620000ee575b600080fd5b620000ec620000e636600462000b48565b620001e4565b005b62000105620000ff36600462000adb565b62000268565b60405162000114919062000b90565b60405180910390f35b620001056200012e36600462000adb565b62000290565b620000ec6200014536600462000b61565b6200039d565b620000ec6200015c36600462000b61565b6200047a565b620000ec6200017336600462000adb565b62000551565b620001906200018a36600462000b61565b62000605565b60405162000114919062000c07565b62000105620001b036600462000b48565b620006b9565b620000ec620001c736600462000af9565b6200073c565b620000ec620001de36600462000b61565b6200083c565b600154620001f3813362000605565b62000235576040517f08c379a00000000000000000000000000000000000000000000000000000000081526004016200022c9062000ccc565b60405180910390fd5b604051339083156108fc029084906000818181858888f1935050505015801562000263573d6000803e3d6000fd5b505050565b60036020526000908152604090205473ffffffffffffffffffffffffffffffffffffffff1681565b3360009081526003602052604081205473ffffffffffffffffffffffffffffffffffffffff1615620002f0576040517f08c379a00000000000000000000000000000000000000000000000000000000081526004016200022c9062000e1a565b60025460405173ffffffffffffffffffffffffffffffffffffffff90911690839033906200031e9062000aa8565b6200032c9392919062000bd7565b604051809103906000f08015801562000349573d6000803e3d6000fd5b5033600090815260036020526040902080547fffffffffffffffffffffffff00000000000000000000000000000000000000001673ffffffffffffffffffffffffffffffffffffffff831617905592915050565b81600260008281526020819052604090206001015460ff166002811115620003c157fe5b14620003fb576040517f08c379a00000000000000000000000000000000000000000000000000000000081526004016200022c9062000c6f565b600083815260208190526040902054839062000418903362000605565b62000451576040517f08c379a00000000000000000000000000000000000000000000000000000000081526004016200022c9062000d86565b600084815260208190526040902062000474906003018463ffffffff6200091316565b50505050565b81600260008281526020819052604090206001015460ff1660028111156200049e57fe5b14620004d8576040517f08c379a00000000000000000000000000000000000000000000000000000000081526004016200022c9062000c6f565b6000838152602081905260409020548390620004f5903362000605565b6200052e576040517f08c379a00000000000000000000000000000000000000000000000000000000081526004016200022c9062000d86565b600084815260208190526040902062000474906003018463ffffffff6200096016565b3360009081526003602052604090205473ffffffffffffffffffffffffffffffffffffffff1615620005b1576040517f08c379a00000000000000000000000000000000000000000000000000000000081526004016200022c9062000e1a565b33600090815260036020526040902080547fffffffffffffffffffffffff00000000000000000000000000000000000000001673ffffffffffffffffffffffffffffffffffffffff92909216919091179055565b600082815260208190526040812060018082015460ff1660028111156200062857fe5b14156200064d5762000644600282018463ffffffff620009b016565b915050620006b3565b6002600182015460ff1660028111156200066357fe5b14156200067f5762000644600382018463ffffffff620009d016565b6040517f08c379a00000000000000000000000000000000000000000000000000000000081526004016200022c9062000de3565b92915050565b600081600160008281526020819052604090206001015460ff166002811115620006df57fe5b1462000719576040517f08c379a00000000000000000000000000000000000000000000000000000000081526004016200022c9062000c12565b60008381526020819052604090206200073590600201620009fc565b9392505050565b6001546200074b813362000605565b62000784576040517f08c379a00000000000000000000000000000000000000000000000000000000081526004016200022c9062000ccc565b6040517fa9059cbb000000000000000000000000000000000000000000000000000000008152839073ffffffffffffffffffffffffffffffffffffffff82169063a9059cbb90620007dc903390879060040162000bb1565b602060405180830381600087803b158015620007f757600080fd5b505af11580156200080c573d6000803e3d6000fd5b505050506040513d601f19601f8201168201806040525081019062000832919062000b26565b6200047457600080fd5b81600160008281526020819052604090206001015460ff1660028111156200086057fe5b146200089a576040517f08c379a00000000000000000000000000000000000000000000000000000000081526004016200022c9062000c12565b6000838152602081905260409020548390620008b7903362000605565b620008f0576040517f08c379a00000000000000000000000000000000000000000000000000000000081526004016200022c9062000d86565b600084815260208190526040902062000474906002018463ffffffff62000a1616565b73ffffffffffffffffffffffffffffffffffffffff1660009081526020919091526040902080547fffffffffffffffffffffffffffffffffffffffffffffffffffffffffffffff00169055565b73ffffffffffffffffffffffffffffffffffffffff1660009081526020919091526040902080547fffffffffffffffffffffffffffffffffffffffffffffffffffffffffffffff00166001179055565b905473ffffffffffffffffffffffffffffffffffffffff91821691161490565b73ffffffffffffffffffffffffffffffffffffffff166000908152602091909152604090205460ff1690565b5473ffffffffffffffffffffffffffffffffffffffff1690565b73ffffffffffffffffffffffffffffffffffffffff811662000a66576040517f08c379a00000000000000000000000000000000000000000000000000000000081526004016200022c9062000d29565b81547fffffffffffffffffffffffff00000000000000000000000000000000000000001673ffffffffffffffffffffffffffffffffffffffff91909116179055565b6118848062000e6283390190565b803573ffffffffffffffffffffffffffffffffffffffff81168114620006b357600080fd5b60006020828403121562000aed578081fd5b62000735838362000ab6565b6000806040838503121562000b0c578081fd5b62000b18848462000ab6565b946020939093013593505050565b60006020828403121562000b38578081fd5b8151801515811462000735578182fd5b60006020828403121562000b5a578081fd5b5035919050565b6000806040838503121562000b74578182fd5b8235915062000b87846020850162000ab6565b90509250929050565b73ffffffffffffffffffffffffffffffffffffffff91909116815260200190565b73ffffffffffffffffffffffffffffffffffffffff929092168252602082015260400190565b73ffffffffffffffffffffffffffffffffffffffff93841681529183166020830152909116604082015260600190565b901515815260200190565b6020808252602f908201527f4d7573742062652063616c6c6564206f6e20616e20696e697469616c697a656460408201527f204578636c757369766520726f6c650000000000000000000000000000000000606082015260800190565b6020808252602c908201527f4d7573742062652063616c6c6564206f6e20616e20696e697469616c697a656460408201527f2053686172656420726f6c650000000000000000000000000000000000000000606082015260800190565b60208082526022908201527f53656e64657220646f6573206e6f7420686f6c6420726571756972656420726f60408201527f6c65000000000000000000000000000000000000000000000000000000000000606082015260800190565b60208082526023908201527f43616e6e6f742073657420616e206578636c757369766520726f6c6520746f2060408201527f3078300000000000000000000000000000000000000000000000000000000000606082015260800190565b60208082526024908201527f43616e206f6e6c792062652063616c6c6564206279206120726f6c65206d616e60408201527f6167657200000000000000000000000000000000000000000000000000000000606082015260800190565b6020808252600e908201527f496e76616c696420726f6c654964000000000000000000000000000000000000604082015260600190565b6020808252601f908201527f4475706c696361746520686f74206b6579206e6f74207065726d697474656400604082015260600190565b62000e5d828262000a16565b505056fe60806040523480156200001157600080fd5b5060405162001884380380620018848339810160408190526200003491620001d7565b6200004b600080846001600160e01b03620000a016565b6200006360016000836001600160e01b03620000a016565b6200007860006001600160e01b036200017316565b5050600280546001600160a01b0319166001600160a01b03929092169190911790556200031a565b826000808281526020819052604090206001015460ff166002811115620000c357fe5b14620000ec5760405162461bcd60e51b8152600401620000e39062000287565b60405180910390fd5b60008481526020819052604090206001808201805460ff1916828002179055508381556200012a600282018462000178602090811b6200151617901c565b60008481526020819052604081206001015460ff1660028111156200014b57fe5b14156200016c5760405162461bcd60e51b8152600401620000e3906200022a565b5050505050565b600155565b6200018d82826001600160e01b036200019116565b5050565b6001600160a01b038116620001ba5760405162461bcd60e51b8152600401620000e390620002be565b81546001600160a01b0319166001600160a01b0391909116179055565b600080600060608486031215620001ec578283fd5b8351620001f98162000301565b60208501519093506200020c8162000301565b60408501519092506200021f8162000301565b809150509250925092565b6020808252603c908201527f417474656d7074656420746f2075736520616e20696e76616c696420726f6c6560408201527f20746f206d616e61676520616e206578636c757369766520726f6c6500000000606082015260800190565b6020808252601e908201527f43616e6e6f74207573652061207072652d6578697374696e6720726f6c650000604082015260600190565b60208082526023908201527f43616e6e6f742073657420616e206578636c757369766520726f6c6520746f2060408201526203078360ec1b606082015260800190565b6001600160a01b03811681146200031757600080fd5b50565b61155a806200032a6000396000f3fe608060405234801561001057600080fd5b50600436106100d45760003560e01c806374d0a67611610081578063bd1f4b521161005b578063bd1f4b52146101b6578063d8651ad0146101c9578063d97c05be146101dc576100d4565b806374d0a676146101635780637cdc1cb914610176578063ab3545e514610196576100d4565b80636852eea0116100b25780636852eea01461012a5780636be7658b1461013d57806370a0cf2c14610150576100d4565b80632e1a7d4d146100d95780633756a796146100ee5780634c7a260314610117575b600080fd5b6100ec6100e7366004610ec9565b6101ef565b005b6101016100fc366004610f10565b61026d565b60405161010e91906114c0565b60405180910390f35b6100ec610125366004610e73565b610355565b6100ec610138366004610dca565b610416565b6100ec61014b366004610ee1565b6104d1565b6100ec61015e366004610d5e565b6105a3565b6100ec610171366004610ee1565b610627565b610189610184366004610ee1565b6106f3565b60405161010e9190611253565b6101a96101a4366004610ec9565b61079c565b60405161010e9190611010565b6100ec6101c4366004610d33565b610819565b6100ec6101d7366004610e48565b61090d565b6100ec6101ea366004610ee1565b6109cb565b6001546101fc81336106f3565b61023b576040517f08c379a000000000000000000000000000000000000000000000000000000000815260040161023290611372565b60405180910390fd5b604051339083156108fc029084906000818181858888f19350505050158015610268573d6000803e3d6000fd5b505050565b610275610cd3565b600161028181336106f3565b6102b7576040517f08c379a000000000000000000000000000000000000000000000000000000000815260040161023290611372565b6102bf610a97565b73ffffffffffffffffffffffffffffffffffffffff16630d434e7e3086866040518463ffffffff1660e01b81526004016102fb93929190611057565b602060405180830381600087803b15801561031557600080fd5b505af1158015610329573d6000803e3d6000fd5b505050506040513d601f19601f8201168201806040525081019061034d9190610ea4565b949350505050565b600161036181336106f3565b610397576040517f08c379a000000000000000000000000000000000000000000000000000000000815260040161023290611372565b61039f610a97565b73ffffffffffffffffffffffffffffffffffffffff16634c7a2603868686866040518563ffffffff1660e01b81526004016103dd9493929190611274565b600060405180830381600087803b1580156103f757600080fd5b505af115801561040b573d6000803e3d6000fd5b505050505050505050565b600161042281336106f3565b610458576040517f08c379a000000000000000000000000000000000000000000000000000000000815260040161023290611372565b610460610a97565b73ffffffffffffffffffffffffffffffffffffffff16636852eea084846040518363ffffffff1660e01b815260040161049a9291906111f8565b600060405180830381600087803b1580156104b457600080fd5b505af11580156104c8573d6000803e3d6000fd5b50505050505050565b81600260008281526020819052604090206001015460ff1660028111156104f457fe5b1461052b576040517f08c379a000000000000000000000000000000000000000000000000000000000815260040161023290611315565b600083815260208190526040902054839061054690336106f3565b61057c576040517f08c379a00000000000000000000000000000000000000000000000000000000081526004016102329061142c565b600084815260208190526040902061059d906003018463ffffffff610b4116565b50505050565b60016105af81336106f3565b6105e5576040517f08c379a000000000000000000000000000000000000000000000000000000000815260040161023290611372565b6105ed610a97565b73ffffffffffffffffffffffffffffffffffffffff166370a0cf2c84846040518363ffffffff1660e01b815260040161049a9291906110cc565b81600260008281526020819052604090206001015460ff16600281111561064a57fe5b14610681576040517f08c379a000000000000000000000000000000000000000000000000000000000815260040161023290611315565b600083815260208190526040902054839061069c90336106f3565b6106d2576040517f08c379a00000000000000000000000000000000000000000000000000000000081526004016102329061142c565b600084815260208190526040902061059d906003018463ffffffff610b8e16565b600082815260208190526040812060018082015460ff16600281111561071557fe5b14156107365761072e600282018463ffffffff610bde16565b915050610796565b6002600182015460ff16600281111561074b57fe5b14156107645761072e600382018463ffffffff610bfe16565b6040517f08c379a000000000000000000000000000000000000000000000000000000000815260040161023290611489565b92915050565b600081600160008281526020819052604090206001015460ff1660028111156107c157fe5b146107f8576040517f08c379a0000000000000000000000000000000000000000000000000000000008152600401610232906112b8565b600083815260208190526040902061081290600201610c2a565b9392505050565b60015461082681336106f3565b61085c576040517f08c379a000000000000000000000000000000000000000000000000000000000815260040161023290611372565b6040517fa9059cbb000000000000000000000000000000000000000000000000000000008152839073ffffffffffffffffffffffffffffffffffffffff82169063a9059cbb906108b29033908790600401611031565b602060405180830381600087803b1580156108cc57600080fd5b505af11580156108e0573d6000803e3d6000fd5b505050506040513d601f19601f820116820180604052508101906109049190610e28565b61059d57600080fd5b600161091981336106f3565b61094f576040517f08c379a000000000000000000000000000000000000000000000000000000000815260040161023290611372565b610957610a97565b73ffffffffffffffffffffffffffffffffffffffff1663d8651ad08585856040518463ffffffff1660e01b81526004016109939392919061125e565b600060405180830381600087803b1580156109ad57600080fd5b505af11580156109c1573d6000803e3d6000fd5b5050505050505050565b81600160008281526020819052604090206001015460ff1660028111156109ee57fe5b14610a25576040517f08c379a0000000000000000000000000000000000000000000000000000000008152600401610232906112b8565b6000838152602081905260409020548390610a4090336106f3565b610a76576040517f08c379a00000000000000000000000000000000000000000000000000000000081526004016102329061142c565b600084815260208190526040902061059d906002018463ffffffff610c4416565b6002546040517faafd5e4000000000000000000000000000000000000000000000000000000000815260009173ffffffffffffffffffffffffffffffffffffffff169063aafd5e4090610aec9060040161128f565b60206040518083038186803b158015610b0457600080fd5b505afa158015610b18573d6000803e3d6000fd5b505050506040513d601f19601f82011682018060405250810190610b3c9190610d17565b905090565b73ffffffffffffffffffffffffffffffffffffffff1660009081526020919091526040902080547fffffffffffffffffffffffffffffffffffffffffffffffffffffffffffffff00169055565b73ffffffffffffffffffffffffffffffffffffffff1660009081526020919091526040902080547fffffffffffffffffffffffffffffffffffffffffffffffffffffffffffffff00166001179055565b905473ffffffffffffffffffffffffffffffffffffffff91821691161490565b73ffffffffffffffffffffffffffffffffffffffff166000908152602091909152604090205460ff1690565b5473ffffffffffffffffffffffffffffffffffffffff1690565b73ffffffffffffffffffffffffffffffffffffffff8116610c91576040517f08c379a0000000000000000000000000000000000000000000000000000000008152600401610232906113cf565b81547fffffffffffffffffffffffff00000000000000000000000000000000000000001673ffffffffffffffffffffffffffffffffffffffff91909116179055565b6040518060200160405280600081525090565b600060408284031215610cf7578081fd5b610d0160406114ca565b9050813581526020820135602082015292915050565b600060208284031215610d28578081fd5b8151610812816114f1565b60008060408385031215610d45578081fd5b8235610d50816114f1565b946020939093013593505050565b60008060208385031215610d70578182fd5b823567ffffffffffffffff80821115610d87578384fd5b81850186601f820112610d98578485fd5b8035925081831115610da8578485fd5b8660208085028301011115610dbb578485fd5b60200196919550909350505050565b60008060208385031215610ddc578182fd5b823567ffffffffffffffff80821115610df3578384fd5b81850186601f820112610e04578485fd5b8035925081831115610e14578485fd5b866020608085028301011115610dbb578485fd5b600060208284031215610e39578081fd5b81518015158114610812578182fd5b600080600060608486031215610e5c578081fd5b505081359360208301359350604090920135919050565b60008060008060808587031215610e88578081fd5b5050823594602084013594506040840135936060013592509050565b600060208284031215610eb5578081fd5b610ebf60206114ca565b9151825250919050565b600060208284031215610eda578081fd5b5035919050565b60008060408385031215610ef3578182fd5b823591506020830135610f05816114f1565b809150509250929050565b6000806040808486031215610f23578283fd5b8335925060208085013567ffffffffffffffff80821115610f42578485fd5b81870188601f820112610f53578586fd5b8035925081831115610f63578586fd5b610f7084858502016114ca565b8381528481019250818501868502830186018b1015610f8d578788fd5b8792505b84831015610fb757610fa38b82610ce6565b845292850192600192909201918601610f91565b508096505050505050509250929050565b600082845282826020860137806020848601015260207fffffffffffffffffffffffffffffffffffffffffffffffffffffffffffffffe0601f85011685010190509392505050565b73ffffffffffffffffffffffffffffffffffffffff91909116815260200190565b73ffffffffffffffffffffffffffffffffffffffff929092168252602082015260400190565b60006060820173ffffffffffffffffffffffffffffffffffffffff861683526020858185015260406060818601528286518085526080870191508388019450855b818110156110bd57855180518452850151858401529484019491830191600101611098565b50909998505050505050505050565b602080825281810183905260009060408084018583028501820187855b888110156111ea577fffffffffffffffffffffffffffffffffffffffffffffffffffffffffffffffc088840301845281357fffffffffffffffffffffffffffffffffffffffffffffffffffffffffffffff818b3603018112611149578788fd5b8a018035845286810135878501528581013586850152608090606080820135368390037fffffffffffffffffffffffffffffffffffffffffffffffffffffffffffffffe1018112611198578a8bfd5b820180359067ffffffffffffffff8211156111b1578b8cfd5b8136038413156111bf578b8cfd5b84838901526111d3858901838d8401610fc8565b988b019897505050938801935050506001016110e9565b509098975050505050505050565b6020808252818101839052600090604080840186845b87811015611246578135835284820135858401528382013584840152606080830135908401526080928301929091019060010161120e565b5090979650505050505050565b901515815260200190565b9283526020830191909152604082015260600190565b93845260208401929092526040830152606082015260800190565b7f4f7261636c650000000000000000000000000000000000000000000000000000815260200190565b6020808252602f908201527f4d7573742062652063616c6c6564206f6e20616e20696e697469616c697a656460408201527f204578636c757369766520726f6c650000000000000000000000000000000000606082015260800190565b6020808252602c908201527f4d7573742062652063616c6c6564206f6e20616e20696e697469616c697a656460408201527f2053686172656420726f6c650000000000000000000000000000000000000000606082015260800190565b60208082526022908201527f53656e64657220646f6573206e6f7420686f6c6420726571756972656420726f60408201527f6c65000000000000000000000000000000000000000000000000000000000000606082015260800190565b60208082526023908201527f43616e6e6f742073657420616e206578636c757369766520726f6c6520746f2060408201527f3078300000000000000000000000000000000000000000000000000000000000606082015260800190565b60208082526024908201527f43616e206f6e6c792062652063616c6c6564206279206120726f6c65206d616e60408201527f6167657200000000000000000000000000000000000000000000000000000000606082015260800190565b6020808252600e908201527f496e76616c696420726f6c654964000000000000000000000000000000000000604082015260600190565b9051815260200190565b60405181810167ffffffffffffffff811182821017156114e957600080fd5b604052919050565b73ffffffffffffffffffffffffffffffffffffffff8116811461151357600080fd5b50565b6115208282610c44565b505056fea2646970667358221220050d33cf61f428af8fc58049f8d3ab6b3bdf4694aa49f4ca30d8c006191e682464736f6c63430006040033a264697066735822122007932257cc332c36bcf09189e5dd51525b7d78bebf0f09036638e8d3b72a955264736f6c63430006040033",
  "source": "pragma solidity ^0.6.0;\n\npragma experimental ABIEncoderV2;\n\nimport \"../../common/implementation/Withdrawable.sol\";\nimport \"./DesignatedVoting.sol\";\n\n\n/**\n * @title Factory to deploy new instances of DesignatedVoting and look up previously deployed instances.\n * @dev Allows off-chain infrastructure to look up a hot wallet's deployed DesignatedVoting contract.\n */\ncontract DesignatedVotingFactory is Withdrawable {\n    /****************************************\n     *    INTERNAL VARIABLES AND STORAGE    *\n     ****************************************/\n\n    enum Roles {\n        Withdrawer // Can withdraw any ETH or ERC20 sent accidentally to this contract.\n    }\n\n    address private finder;\n    mapping(address => DesignatedVoting) public designatedVotingContracts;\n\n    /**\n     * @notice Construct the DesignatedVotingFactory contract.\n     * @param finderAddress keeps track of all contracts within the system based on their interfaceName.\n     */\n    constructor(address finderAddress) public {\n        finder = finderAddress;\n\n        createWithdrawRole(uint(Roles.Withdrawer), uint(Roles.Withdrawer), msg.sender);\n    }\n\n    /**\n     * @notice Deploys a new `DesignatedVoting` contract.\n     * @param ownerAddress defines who will own the deployed instance of the designatedVoting contract.\n     * @return designatedVoting a new DesignatedVoting contract.\n     */\n    function newDesignatedVoting(address ownerAddress) external returns (DesignatedVoting designatedVoting) {\n        require(address(designatedVotingContracts[msg.sender]) == address(0), \"Duplicate hot key not permitted\");\n\n        designatedVoting = new DesignatedVoting(finder, ownerAddress, msg.sender);\n        designatedVotingContracts[msg.sender] = designatedVoting;\n    }\n\n    /**\n     * @notice Associates a `DesignatedVoting` instance with `msg.sender`.\n     * @param designatedVotingAddress address to designate voting to.\n     * @dev This is generally only used if the owner of a `DesignatedVoting` contract changes their `voter` address and\n     * wants that reflected here.\n     */\n    function setDesignatedVoting(address designatedVotingAddress) external {\n        require(address(designatedVotingContracts[msg.sender]) == address(0), \"Duplicate hot key not permitted\");\n        designatedVotingContracts[msg.sender] = DesignatedVoting(designatedVotingAddress);\n    }\n}\n",
  "sourcePath": "/home/alessandrovm/JarvisLavoro/SynFiat/packages/contracts/contracts/uma-contracts/oracle/implementation/DesignatedVotingFactory.sol",
  "compiler": {
    "name": "solc",
    "version": "0.6.4+commit.1dca32f3.Emscripten.clang"
  },
  "schemaVersion": "3.2.0",
  "updatedAt": "2020-08-14T09:32:05.602Z",
  "devdoc": {
    "details": "Allows off-chain infrastructure to look up a hot wallet's deployed DesignatedVoting contract.",
    "methods": {
      "addMember(uint256,address)": {
        "details": "Reverts if `roleId` does not represent an initialized, shared role or if the caller is not a member of the managing role for `roleId`."
      },
      "constructor": {
        "params": {
          "finderAddress": "keeps track of all contracts within the system based on their interfaceName."
        }
      },
      "getMember(uint256)": {
        "details": "Reverts if `roleId` does not represent an initialized, exclusive role."
      },
      "holdsRole(uint256,address)": {
        "details": "Reverts if roleId does not correspond to an initialized role."
      },
      "newDesignatedVoting(address)": {
        "params": {
          "ownerAddress": "defines who will own the deployed instance of the designatedVoting contract."
        },
        "returns": {
          "designatedVoting": "a new DesignatedVoting contract."
        }
      },
      "removeMember(uint256,address)": {
        "details": "Reverts if `roleId` does not represent an initialized, shared role or if the caller is not a member of the managing role for `roleId`."
      },
      "resetMember(uint256,address)": {
        "details": "Reverts if the caller is not a member of the managing role for `roleId` or if `roleId` is not an initialized, exclusive role."
      },
      "setDesignatedVoting(address)": {
        "details": "This is generally only used if the owner of a `DesignatedVoting` contract changes their `voter` address and wants that reflected here.",
        "params": {
          "designatedVotingAddress": "address to designate voting to."
        }
      }
    },
    "title": "Factory to deploy new instances of DesignatedVoting and look up previously deployed instances."
  },
  "userdoc": {
    "methods": {
      "addMember(uint256,address)": {
        "notice": "Adds `newMember` to the shared role, `roleId`."
      },
      "constructor": "Construct the DesignatedVotingFactory contract.",
      "getMember(uint256)": {
        "notice": "Gets the current holder of the exclusive role, `roleId`."
      },
      "holdsRole(uint256,address)": {
        "notice": "Whether `memberToCheck` is a member of roleId."
      },
      "newDesignatedVoting(address)": {
        "notice": "Deploys a new `DesignatedVoting` contract."
      },
      "removeMember(uint256,address)": {
        "notice": "Removes `memberToRemove` from the shared role, `roleId`."
      },
      "resetMember(uint256,address)": {
        "notice": "Changes the exclusive role holder of `roleId` to `newMember`."
      },
      "setDesignatedVoting(address)": {
        "notice": "Associates a `DesignatedVoting` instance with `msg.sender`."
      },
      "withdraw(uint256)": {
        "notice": "Withdraws ETH from the contract."
      },
      "withdrawErc20(address,uint256)": {
        "notice": "Withdraws ERC20 tokens from the contract."
      }
    }
  }
}