{
  "contractName": "DesignatedVotingFactory",
  "abi": [
    {
      "inputs": [
        {
          "internalType": "address",
          "name": "finderAddress",
          "type": "address"
        }
      ],
      "stateMutability": "nonpayable",
      "type": "constructor"
    },
    {
      "inputs": [
        {
          "internalType": "uint256",
          "name": "roleId",
          "type": "uint256"
        },
        {
          "internalType": "address",
          "name": "newMember",
          "type": "address"
        }
      ],
      "name": "addMember",
      "outputs": [],
      "stateMutability": "nonpayable",
      "type": "function"
    },
    {
      "inputs": [
        {
          "internalType": "address",
          "name": "",
          "type": "address"
        }
      ],
      "name": "designatedVotingContracts",
      "outputs": [
        {
          "internalType": "contract DesignatedVoting",
          "name": "",
          "type": "address"
        }
      ],
      "stateMutability": "view",
      "type": "function"
    },
    {
      "inputs": [
        {
          "internalType": "uint256",
          "name": "roleId",
          "type": "uint256"
        }
      ],
      "name": "getMember",
      "outputs": [
        {
          "internalType": "address",
          "name": "",
          "type": "address"
        }
      ],
      "stateMutability": "view",
      "type": "function"
    },
    {
      "inputs": [
        {
          "internalType": "uint256",
          "name": "roleId",
          "type": "uint256"
        },
        {
          "internalType": "address",
          "name": "memberToCheck",
          "type": "address"
        }
      ],
      "name": "holdsRole",
      "outputs": [
        {
          "internalType": "bool",
          "name": "",
          "type": "bool"
        }
      ],
      "stateMutability": "view",
      "type": "function"
    },
    {
      "inputs": [
        {
          "internalType": "uint256",
          "name": "roleId",
          "type": "uint256"
        },
        {
          "internalType": "address",
          "name": "memberToRemove",
          "type": "address"
        }
      ],
      "name": "removeMember",
      "outputs": [],
      "stateMutability": "nonpayable",
      "type": "function"
    },
    {
      "inputs": [
        {
          "internalType": "uint256",
          "name": "roleId",
          "type": "uint256"
        },
        {
          "internalType": "address",
          "name": "newMember",
          "type": "address"
        }
      ],
      "name": "resetMember",
      "outputs": [],
      "stateMutability": "nonpayable",
      "type": "function"
    },
    {
      "inputs": [
        {
          "internalType": "uint256",
          "name": "amount",
          "type": "uint256"
        }
      ],
      "name": "withdraw",
      "outputs": [],
      "stateMutability": "nonpayable",
      "type": "function"
    },
    {
      "inputs": [
        {
          "internalType": "address",
          "name": "erc20Address",
          "type": "address"
        },
        {
          "internalType": "uint256",
          "name": "amount",
          "type": "uint256"
        }
      ],
      "name": "withdrawErc20",
      "outputs": [],
      "stateMutability": "nonpayable",
      "type": "function"
    },
    {
      "inputs": [
        {
          "internalType": "address",
          "name": "ownerAddress",
          "type": "address"
        }
      ],
      "name": "newDesignatedVoting",
      "outputs": [
        {
          "internalType": "contract DesignatedVoting",
          "name": "designatedVoting",
          "type": "address"
        }
      ],
      "stateMutability": "nonpayable",
      "type": "function"
    },
    {
      "inputs": [
        {
          "internalType": "address",
          "name": "designatedVotingAddress",
          "type": "address"
        }
      ],
      "name": "setDesignatedVoting",
      "outputs": [],
      "stateMutability": "nonpayable",
      "type": "function"
    }
  ],
  "bytecode": "0x60806040523480156200001157600080fd5b50604051620022be380380620022be8339810160408190526200003491620001bf565b600280546001600160a01b0319166001600160a01b03831617905562000066600080336001600160e01b036200006d16565b50620002c6565b6001839055620000888383836001600160e01b036200008d16565b505050565b826000808281526020819052604090206001015460ff166002811115620000b057fe5b14620000d95760405162461bcd60e51b8152600401620000d0906200024c565b60405180910390fd5b60008481526020819052604090206001808201805460ff19168280021790555083815562000117600282018462000160602090811b62000af517901c565b60008481526020819052604081206001015460ff1660028111156200013857fe5b1415620001595760405162461bcd60e51b8152600401620000d090620001ef565b5050505050565b6200017582826001600160e01b036200017916565b5050565b6001600160a01b038116620001a25760405162461bcd60e51b8152600401620000d09062000283565b81546001600160a01b0319166001600160a01b0391909116179055565b600060208284031215620001d1578081fd5b81516001600160a01b0381168114620001e8578182fd5b9392505050565b6020808252603c908201527f417474656d7074656420746f2075736520616e20696e76616c696420726f6c6560408201527f20746f206d616e61676520616e206578636c757369766520726f6c6500000000606082015260800190565b6020808252601e908201527f43616e6e6f74207573652061207072652d6578697374696e6720726f6c650000604082015260600190565b60208082526023908201527f43616e6e6f742073657420616e206578636c757369766520726f6c6520746f2060408201526203078360ec1b606082015260800190565b611fe880620002d66000396000f3fe60806040523480156200001157600080fd5b5060043610620000ac5760003560e01c80637cbf876b116200006f5780637cbf876b146200013e5780637cdc1cb91462000155578063ab3545e5146200017b578063bd1f4b521462000192578063d97c05be14620001a957620000ac565b80632e1a7d4d14620000b157806349ed510f14620000ca5780635e07dd5b14620000f95780636be7658b146200011057806374d0a6761462000127575b600080fd5b620000c8620000c236600462000872565b620001c0565b005b620000e1620000db36600462000805565b6200022a565b604051620000f09190620008ba565b60405180910390f35b620000e16200010a36600462000805565b62000245565b620000c8620001213660046200088b565b620002f9565b620000c8620001383660046200088b565b620003a2565b620000c86200014f36600462000805565b62000445565b6200016c620001663660046200088b565b620004ad565b604051620000f091906200090a565b620000e16200018c36600462000872565b62000547565b620000c8620001a336600462000823565b620005b0565b620000c8620001ba3660046200088b565b62000670565b600154620001cf8133620004ad565b620001f75760405162461bcd60e51b8152600401620001ee90620009be565b60405180910390fd5b604051339083156108fc029084906000818181858888f1935050505015801562000225573d6000803e3d6000fd5b505050565b6003602052600090815260409020546001600160a01b031681565b336000908152600360205260408120546001600160a01b0316156200027e5760405162461bcd60e51b8152600401620001ee9062000abe565b6002546040516001600160a01b0390911690839033906200029f90620007df565b620002ad93929190620008e7565b604051809103906000f080158015620002ca573d6000803e3d6000fd5b5033600090815260036020526040902080546001600160a01b0319166001600160a01b03831617905592915050565b81600260008281526020819052604090206001015460ff1660028111156200031d57fe5b146200033d5760405162461bcd60e51b8152600401620001ee9062000972565b60008381526020819052604090205483906200035a9033620004ad565b620003795760405162461bcd60e51b8152600401620001ee9062000a43565b60008481526020819052604090206200039c906003018463ffffffff6200071316565b50505050565b81600260008281526020819052604090206001015460ff166002811115620003c657fe5b14620003e65760405162461bcd60e51b8152600401620001ee9062000972565b6000838152602081905260409020548390620004039033620004ad565b620004225760405162461bcd60e51b8152600401620001ee9062000a43565b60008481526020819052604090206200039c906003018463ffffffff6200073516565b336000908152600360205260409020546001600160a01b0316156200047e5760405162461bcd60e51b8152600401620001ee9062000abe565b33600090815260036020526040902080546001600160a01b0319166001600160a01b0392909216919091179055565b600082815260208190526040812060018082015460ff166002811115620004d057fe5b1415620004f557620004ec600282018463ffffffff6200075a16565b91505062000541565b6002600182015460ff1660028111156200050b57fe5b14156200052757620004ec600382018463ffffffff6200076d16565b60405162461bcd60e51b8152600401620001ee9062000a87565b92915050565b600081600160008281526020819052604090206001015460ff1660028111156200056d57fe5b146200058d5760405162461bcd60e51b8152600401620001ee9062000915565b6000838152602081905260409020620005a9906002016200078c565b9392505050565b600154620005bf8133620004ad565b620005de5760405162461bcd60e51b8152600401620001ee90620009be565b60405163a9059cbb60e01b815283906001600160a01b0382169063a9059cbb90620006109033908790600401620008ce565b602060405180830381600087803b1580156200062b57600080fd5b505af115801562000640573d6000803e3d6000fd5b505050506040513d601f19601f8201168201806040525081019062000666919062000850565b6200039c57600080fd5b81600160008281526020819052604090206001015460ff1660028111156200069457fe5b14620006b45760405162461bcd60e51b8152600401620001ee9062000915565b6000838152602081905260409020548390620006d19033620004ad565b620006f05760405162461bcd60e51b8152600401620001ee9062000a43565b60008481526020819052604090206200039c906002018463ffffffff6200079916565b6001600160a01b0316600090815260209190915260409020805460ff19169055565b6001600160a01b0316600090815260209190915260409020805460ff19166001179055565b90546001600160a01b0391821691161490565b6001600160a01b03166000908152602091909152604090205460ff1690565b546001600160a01b031690565b6001600160a01b038116620007c25760405162461bcd60e51b8152600401620001ee9062000a00565b81546001600160a01b0319166001600160a01b0391909116179055565b6114ad8062000b0683390190565b80356001600160a01b03811681146200054157600080fd5b60006020828403121562000817578081fd5b620005a98383620007ed565b6000806040838503121562000836578081fd5b620008428484620007ed565b946020939093013593505050565b60006020828403121562000862578081fd5b81518015158114620005a9578182fd5b60006020828403121562000884578081fd5b5035919050565b600080604083850312156200089e578182fd5b82359150620008b18460208501620007ed565b90509250929050565b6001600160a01b0391909116815260200190565b6001600160a01b03929092168252602082015260400190565b6001600160a01b0393841681529183166020830152909116604082015260600190565b901515815260200190565b6020808252602f908201527f4d7573742062652063616c6c6564206f6e20616e20696e697469616c697a656460408201527f204578636c757369766520726f6c650000000000000000000000000000000000606082015260800190565b6020808252602c908201527f4d7573742062652063616c6c6564206f6e20616e20696e697469616c697a656460408201526b2053686172656420726f6c6560a01b606082015260800190565b60208082526022908201527f53656e64657220646f6573206e6f7420686f6c6420726571756972656420726f6040820152616c6560f01b606082015260800190565b60208082526023908201527f43616e6e6f742073657420616e206578636c757369766520726f6c6520746f2060408201526203078360ec1b606082015260800190565b60208082526024908201527f43616e206f6e6c792062652063616c6c6564206279206120726f6c65206d616e60408201526330b3b2b960e11b606082015260800190565b6020808252600e908201527f496e76616c696420726f6c654964000000000000000000000000000000000000604082015260600190565b6020808252601f908201527f4475706c696361746520686f74206b6579206e6f74207065726d697474656400604082015260600190565b62000b01828262000799565b505056fe60806040523480156200001157600080fd5b50604051620014ad380380620014ad8339810160408190526200003491620001d7565b6200004b600080846001600160e01b03620000a016565b6200006360016000836001600160e01b03620000a016565b6200007860006001600160e01b036200017316565b5050600280546001600160a01b0319166001600160a01b03929092169190911790556200031a565b826000808281526020819052604090206001015460ff166002811115620000c357fe5b14620000ec5760405162461bcd60e51b8152600401620000e39062000287565b60405180910390fd5b60008481526020819052604090206001808201805460ff1916828002179055508381556200012a600282018462000178602090811b6200113f17901c565b60008481526020819052604081206001015460ff1660028111156200014b57fe5b14156200016c5760405162461bcd60e51b8152600401620000e3906200022a565b5050505050565b600155565b6200018d82826001600160e01b036200019116565b5050565b6001600160a01b038116620001ba5760405162461bcd60e51b8152600401620000e390620002be565b81546001600160a01b0319166001600160a01b0391909116179055565b600080600060608486031215620001ec578283fd5b8351620001f98162000301565b60208501519093506200020c8162000301565b60408501519092506200021f8162000301565b809150509250925092565b6020808252603c908201527f417474656d7074656420746f2075736520616e20696e76616c696420726f6c6560408201527f20746f206d616e61676520616e206578636c757369766520726f6c6500000000606082015260800190565b6020808252601e908201527f43616e6e6f74207573652061207072652d6578697374696e6720726f6c650000604082015260600190565b60208082526023908201527f43616e6e6f742073657420616e206578636c757369766520726f6c6520746f2060408201526203078360ec1b606082015260800190565b6001600160a01b03811681146200031757600080fd5b50565b611183806200032a6000396000f3fe608060405234801561001057600080fd5b50600436106100d45760003560e01c806374d0a67611610081578063bd1f4b521161005b578063bd1f4b52146101b6578063d8651ad0146101c9578063d97c05be146101dc576100d4565b806374d0a676146101635780637cdc1cb914610176578063ab3545e514610196576100d4565b80636852eea0116100b25780636852eea01461012a5780636be7658b1461013d57806370a0cf2c14610150576100d4565b80632e1a7d4d146100d95780633756a796146100ee5780634c7a260314610117575b600080fd5b6100ec6100e7366004610bfa565b6101ef565b005b6101016100fc366004610c41565b610253565b60405161010e91906110aa565b60405180910390f35b6100ec610125366004610ba4565b610314565b6100ec610138366004610afb565b6103ae565b6100ec61014b366004610c12565b610442565b6100ec61015e366004610a8f565b6104e0565b6100ec610171366004610c12565b61053d565b610189610184366004610c12565b6105d5565b60405161010e9190610eb3565b6101a96101a4366004610bfa565b610664565b60405161010e9190610d23565b6100ec6101c4366004610a64565b6106c7565b6100ec6101d7366004610b79565b61077b565b6100ec6101ea366004610c12565b610812565b6001546101fc81336105d5565b6102215760405162461bcd60e51b815260040161021890610faa565b60405180910390fd5b604051339083156108fc029084906000818181858888f1935050505015801561024e573d6000803e3d6000fd5b505050565b61025b610a04565b600161026781336105d5565b6102835760405162461bcd60e51b815260040161021890610faa565b61028b6108aa565b6001600160a01b0316630d434e7e3086866040518463ffffffff1660e01b81526004016102ba93929190610d50565b602060405180830381600087803b1580156102d457600080fd5b505af11580156102e8573d6000803e3d6000fd5b505050506040513d601f19601f8201168201806040525081019061030c9190610bd5565b949350505050565b600161032081336105d5565b61033c5760405162461bcd60e51b815260040161021890610faa565b6103446108aa565b6001600160a01b0316634c7a2603868686866040518563ffffffff1660e01b81526004016103759493929190610ed4565b600060405180830381600087803b15801561038f57600080fd5b505af11580156103a3573d6000803e3d6000fd5b505050505050505050565b60016103ba81336105d5565b6103d65760405162461bcd60e51b815260040161021890610faa565b6103de6108aa565b6001600160a01b0316636852eea084846040518363ffffffff1660e01b815260040161040b929190610e58565b600060405180830381600087803b15801561042557600080fd5b505af1158015610439573d6000803e3d6000fd5b50505050505050565b81600260008281526020819052604090206001015460ff16600281111561046557fe5b146104825760405162461bcd60e51b815260040161021890610f5e565b600083815260208190526040902054839061049d90336105d5565b6104b95760405162461bcd60e51b81526004016102189061102f565b60008481526020819052604090206104da906003018463ffffffff61092e16565b50505050565b60016104ec81336105d5565b6105085760405162461bcd60e51b815260040161021890610faa565b6105106108aa565b6001600160a01b03166370a0cf2c84846040518363ffffffff1660e01b815260040161040b929190610db8565b81600260008281526020819052604090206001015460ff16600281111561056057fe5b1461057d5760405162461bcd60e51b815260040161021890610f5e565b600083815260208190526040902054839061059890336105d5565b6105b45760405162461bcd60e51b81526004016102189061102f565b60008481526020819052604090206104da906003018463ffffffff61095016565b600082815260208190526040812060018082015460ff1660028111156105f757fe5b141561061857610610600282018463ffffffff61097516565b91505061065e565b6002600182015460ff16600281111561062d57fe5b141561064657610610600382018463ffffffff61098816565b60405162461bcd60e51b815260040161021890611073565b92915050565b600081600160008281526020819052604090206001015460ff16600281111561068957fe5b146106a65760405162461bcd60e51b815260040161021890610f01565b60008381526020819052604090206106c0906002016109a7565b9392505050565b6001546106d481336105d5565b6106f05760405162461bcd60e51b815260040161021890610faa565b60405163a9059cbb60e01b815283906001600160a01b0382169063a9059cbb906107209033908790600401610d37565b602060405180830381600087803b15801561073a57600080fd5b505af115801561074e573d6000803e3d6000fd5b505050506040513d601f19601f820116820180604052508101906107729190610b59565b6104da57600080fd5b600161078781336105d5565b6107a35760405162461bcd60e51b815260040161021890610faa565b6107ab6108aa565b6001600160a01b031663d8651ad08585856040518463ffffffff1660e01b81526004016107da93929190610ebe565b600060405180830381600087803b1580156107f457600080fd5b505af1158015610808573d6000803e3d6000fd5b5050505050505050565b81600160008281526020819052604090206001015460ff16600281111561083557fe5b146108525760405162461bcd60e51b815260040161021890610f01565b600083815260208190526040902054839061086d90336105d5565b6108895760405162461bcd60e51b81526004016102189061102f565b60008481526020819052604090206104da906002018463ffffffff6109b416565b6002546040516302abf57960e61b81526000916001600160a01b03169063aafd5e40906108d990600401610eef565b60206040518083038186803b1580156108f157600080fd5b505afa158015610905573d6000803e3d6000fd5b505050506040513d601f19601f820116820180604052508101906109299190610a48565b905090565b6001600160a01b0316600090815260209190915260409020805460ff19169055565b6001600160a01b0316600090815260209190915260409020805460ff19166001179055565b90546001600160a01b0391821691161490565b6001600160a01b03166000908152602091909152604090205460ff1690565b546001600160a01b031690565b6001600160a01b0381166109da5760405162461bcd60e51b815260040161021890610fec565b815473ffffffffffffffffffffffffffffffffffffffff19166001600160a01b0391909116179055565b6040518060200160405280600081525090565b600060408284031215610a28578081fd5b610a3260406110b4565b9050813581526020820135602082015292915050565b600060208284031215610a59578081fd5b81516106c081611127565b60008060408385031215610a76578081fd5b8235610a8181611127565b946020939093013593505050565b60008060208385031215610aa1578182fd5b823567ffffffffffffffff80821115610ab8578384fd5b81850186601f820112610ac9578485fd5b8035925081831115610ad9578485fd5b8660208085028301011115610aec578485fd5b60200196919550909350505050565b60008060208385031215610b0d578182fd5b823567ffffffffffffffff80821115610b24578384fd5b81850186601f820112610b35578485fd5b8035925081831115610b45578485fd5b866020608085028301011115610aec578485fd5b600060208284031215610b6a578081fd5b815180151581146106c0578182fd5b600080600060608486031215610b8d578081fd5b505081359360208301359350604090920135919050565b60008060008060808587031215610bb9578081fd5b5050823594602084013594506040840135936060013592509050565b600060208284031215610be6578081fd5b610bf060206110b4565b9151825250919050565b600060208284031215610c0b578081fd5b5035919050565b60008060408385031215610c24578182fd5b823591506020830135610c3681611127565b809150509250929050565b6000806040808486031215610c54578283fd5b8335925060208085013567ffffffffffffffff80821115610c73578485fd5b81870188601f820112610c84578586fd5b8035925081831115610c94578586fd5b610ca184858502016110b4565b8381528481019250818501868502830186018b1015610cbe578788fd5b8792505b84831015610ce857610cd48b82610a17565b845292850192600192909201918601610cc2565b508096505050505050509250929050565b60008284528282602086013780602084860101526020601f19601f85011685010190509392505050565b6001600160a01b0391909116815260200190565b6001600160a01b03929092168252602082015260400190565b6000606082016001600160a01b03861683526020858185015260406060818601528286518085526080870191508388019450855b81811015610da957855180518452850151858401529484019491830191600101610d84565b50909998505050505050505050565b602080825281810183905260009060408084018583028501820187855b88811015610e4a57878303603f190184528135368b9003607e19018112610dfa578788fd5b8a0180358452868101358785015285810135868501526080906060610e21818301836110db565b8483890152610e338589018284610cf9565b988b01989750505093880193505050600101610dd5565b509098975050505050505050565b6020808252818101839052600090604080840186845b87811015610ea65781358352848201358584015283820135848401526060808301359084015260809283019290910190600101610e6e565b5090979650505050505050565b901515815260200190565b9283526020830191909152604082015260600190565b93845260208401929092526040830152606082015260800190565b654f7261636c6560d01b815260200190565b6020808252602f908201527f4d7573742062652063616c6c6564206f6e20616e20696e697469616c697a656460408201527f204578636c757369766520726f6c650000000000000000000000000000000000606082015260800190565b6020808252602c908201527f4d7573742062652063616c6c6564206f6e20616e20696e697469616c697a656460408201526b2053686172656420726f6c6560a01b606082015260800190565b60208082526022908201527f53656e64657220646f6573206e6f7420686f6c6420726571756972656420726f6040820152616c6560f01b606082015260800190565b60208082526023908201527f43616e6e6f742073657420616e206578636c757369766520726f6c6520746f2060408201526203078360ec1b606082015260800190565b60208082526024908201527f43616e206f6e6c792062652063616c6c6564206279206120726f6c65206d616e60408201526330b3b2b960e11b606082015260800190565b6020808252600e908201527f496e76616c696420726f6c654964000000000000000000000000000000000000604082015260600190565b9051815260200190565b60405181810167ffffffffffffffff811182821017156110d357600080fd5b604052919050565b6000808335601e198436030181126110f1578283fd5b830160208101925035905067ffffffffffffffff81111561111157600080fd5b80360383131561112057600080fd5b9250929050565b6001600160a01b038116811461113c57600080fd5b50565b61114982826109b4565b505056fea264697066735822122036b2f5ee5501f81b85403464a3f1573cfcabefdfe67f8725caf3700bc52e4d7764736f6c63430006040033a2646970667358221220d941bc2085c2f48bdd8fb9df4b45dbb9b54e4f96c93f0192c737ceaeb06e542364736f6c63430006040033",
  "source": "pragma solidity ^0.6.0;\n\npragma experimental ABIEncoderV2;\n\nimport \"../../common/implementation/Withdrawable.sol\";\nimport \"./DesignatedVoting.sol\";\n\n\n/**\n * @title Factory to deploy new instances of DesignatedVoting and look up previously deployed instances.\n * @dev Allows off-chain infrastructure to look up a hot wallet's deployed DesignatedVoting contract.\n */\ncontract DesignatedVotingFactory is Withdrawable {\n    /****************************************\n     *    INTERNAL VARIABLES AND STORAGE    *\n     ****************************************/\n\n    enum Roles {\n        Withdrawer // Can withdraw any ETH or ERC20 sent accidentally to this contract.\n    }\n\n    address private finder;\n    mapping(address => DesignatedVoting) public designatedVotingContracts;\n\n    /**\n     * @notice Construct the DesignatedVotingFactory contract.\n     * @param finderAddress keeps track of all contracts within the system based on their interfaceName.\n     */\n    constructor(address finderAddress) public {\n        finder = finderAddress;\n\n        createWithdrawRole(uint(Roles.Withdrawer), uint(Roles.Withdrawer), msg.sender);\n    }\n\n    /**\n     * @notice Deploys a new `DesignatedVoting` contract.\n     * @param ownerAddress defines who will own the deployed instance of the designatedVoting contract.\n     * @return designatedVoting a new DesignatedVoting contract.\n     */\n    function newDesignatedVoting(address ownerAddress) external returns (DesignatedVoting designatedVoting) {\n        require(address(designatedVotingContracts[msg.sender]) == address(0), \"Duplicate hot key not permitted\");\n\n        designatedVoting = new DesignatedVoting(finder, ownerAddress, msg.sender);\n        designatedVotingContracts[msg.sender] = designatedVoting;\n    }\n\n    /**\n     * @notice Associates a `DesignatedVoting` instance with `msg.sender`.\n     * @param designatedVotingAddress address to designate voting to.\n     * @dev This is generally only used if the owner of a `DesignatedVoting` contract changes their `voter` address and\n     * wants that reflected here.\n     */\n    function setDesignatedVoting(address designatedVotingAddress) external {\n        require(address(designatedVotingContracts[msg.sender]) == address(0), \"Duplicate hot key not permitted\");\n        designatedVotingContracts[msg.sender] = DesignatedVoting(designatedVotingAddress);\n    }\n}\n",
  "sourcePath": "/home/opz/Projects/SynFiat/contracts/uma-contracts/oracle/implementation/DesignatedVotingFactory.sol",
  "compiler": {
    "name": "solc",
    "version": "0.6.4+commit.1dca32f3.Emscripten.clang"
  },
  "schemaVersion": "3.2.0",
  "updatedAt": "2020-06-01T04:24:41.836Z",
  "devdoc": {
    "details": "Allows off-chain infrastructure to look up a hot wallet's deployed DesignatedVoting contract.",
    "methods": {
      "addMember(uint256,address)": {
        "details": "Reverts if `roleId` does not represent an initialized, shared role or if the caller is not a member of the managing role for `roleId`."
      },
      "constructor": {
        "params": {
          "finderAddress": "keeps track of all contracts within the system based on their interfaceName."
        }
      },
      "getMember(uint256)": {
        "details": "Reverts if `roleId` does not represent an initialized, exclusive role."
      },
      "holdsRole(uint256,address)": {
        "details": "Reverts if roleId does not correspond to an initialized role."
      },
      "newDesignatedVoting(address)": {
        "params": {
          "ownerAddress": "defines who will own the deployed instance of the designatedVoting contract."
        },
        "returns": {
          "designatedVoting": "a new DesignatedVoting contract."
        }
      },
      "removeMember(uint256,address)": {
        "details": "Reverts if `roleId` does not represent an initialized, shared role or if the caller is not a member of the managing role for `roleId`."
      },
      "resetMember(uint256,address)": {
        "details": "Reverts if the caller is not a member of the managing role for `roleId` or if `roleId` is not an initialized, exclusive role."
      },
      "setDesignatedVoting(address)": {
        "details": "This is generally only used if the owner of a `DesignatedVoting` contract changes their `voter` address and wants that reflected here.",
        "params": {
          "designatedVotingAddress": "address to designate voting to."
        }
      }
    },
    "title": "Factory to deploy new instances of DesignatedVoting and look up previously deployed instances."
  },
  "userdoc": {
    "methods": {
      "addMember(uint256,address)": {
        "notice": "Adds `newMember` to the shared role, `roleId`."
      },
      "constructor": "Construct the DesignatedVotingFactory contract.",
      "getMember(uint256)": {
        "notice": "Gets the current holder of the exclusive role, `roleId`."
      },
      "holdsRole(uint256,address)": {
        "notice": "Whether `memberToCheck` is a member of roleId."
      },
      "newDesignatedVoting(address)": {
        "notice": "Deploys a new `DesignatedVoting` contract."
      },
      "removeMember(uint256,address)": {
        "notice": "Removes `memberToRemove` from the shared role, `roleId`."
      },
      "resetMember(uint256,address)": {
        "notice": "Changes the exclusive role holder of `roleId` to `newMember`."
      },
      "setDesignatedVoting(address)": {
        "notice": "Associates a `DesignatedVoting` instance with `msg.sender`."
      },
      "withdraw(uint256)": {
        "notice": "Withdraws ETH from the contract."
      },
      "withdrawErc20(address,uint256)": {
        "notice": "Withdraws ERC20 tokens from the contract."
      }
    }
  }
}