{
  "contractName": "EncryptedStore",
  "abi": [
    {
      "inputs": [
        {
          "internalType": "address",
          "name": "user",
          "type": "address"
        },
        {
          "internalType": "bytes32",
          "name": "topicHash",
          "type": "bytes32"
        }
      ],
      "name": "getMessage",
      "outputs": [
        {
          "internalType": "bytes",
          "name": "",
          "type": "bytes"
        }
      ],
      "stateMutability": "view",
      "type": "function"
    },
    {
      "inputs": [
        {
          "internalType": "bytes32",
          "name": "topicHash",
          "type": "bytes32"
        },
        {
          "internalType": "bytes",
          "name": "message",
          "type": "bytes"
        }
      ],
      "name": "storeMessage",
      "outputs": [],
      "stateMutability": "nonpayable",
      "type": "function"
    },
    {
      "inputs": [
        {
          "internalType": "bytes32",
          "name": "topicHash",
          "type": "bytes32"
        }
      ],
      "name": "removeMessage",
      "outputs": [],
      "stateMutability": "nonpayable",
      "type": "function"
    }
  ],
  "bytecode": "0x608060405234801561001057600080fd5b506103fd806100206000396000f3fe608060405234801561001057600080fd5b50600436106100415760003560e01c806309aa37ba1461004657806340dd4b22146100f5578063ef74e0ac14610112575b600080fd5b6100f36004803603604081101561005c57600080fd5b8135919081019060408101602082013564010000000081111561007e57600080fd5b82018360208201111561009057600080fd5b803590602001918460018302840111640100000000831117156100b257600080fd5b91908080601f0160208091040260200160405190810160405280939291908181526020018383808284376000920191909152509295506101c0945050505050565b005b6100f36004803603602081101561010b57600080fd5b50356101eb565b61014b6004803603604081101561012857600080fd5b5073ffffffffffffffffffffffffffffffffffffffff813516906020013561020f565b6040805160208082528351818301528351919283929083019185019080838360005b8381101561018557818101518382015260200161016d565b50505050905090810190601f1680156101b25780820380516001836020036101000a031916815260200191505b509250505060405180910390f35b33600090815260208181526040808320858452825290912082516101e6928401906102ec565b505050565b33600090815260208181526040808320848452909152812061020c9161036a565b50565b73ffffffffffffffffffffffffffffffffffffffff821660009081526020818152604080832084845282529182902080548351601f60027fffffffffffffffffffffffffffffffffffffffffffffffffffffffffffffffff6101006001861615020190931692909204918201849004840281018401909452808452606093928301828280156102df5780601f106102b4576101008083540402835291602001916102df565b820191906000526020600020905b8154815290600101906020018083116102c257829003601f168201915b5050505050905092915050565b828054600181600116156101000203166002900490600052602060002090601f016020900481019282601f1061032d57805160ff191683800117855561035a565b8280016001018555821561035a579182015b8281111561035a57825182559160200191906001019061033f565b506103669291506103aa565b5090565b50805460018160011615610100020316600290046000825580601f10610390575061020c565b601f01602090049060005260206000209081019061020c91905b6103c491905b8082111561036657600081556001016103b0565b9056fea2646970667358221220da01d30aa5243b5d7134f8a30352d3cc77e669ff2f3ad40b64bbf267bf7a291b64736f6c63430006040033",
  "source": "pragma solidity ^0.6.0;\n\n\n/**\n * @title Contract for storing keyed encrypted messages via the EVM.\n * @dev This contract uses topic hashes as keys and can store a single arbitrary encrypted message per topic at any\n * given time. Technically, topic hashes and messages do not need to be encrypted, but because\n * anyone can read stored messages, this contract is designed to store encrypted messages.\n * Only one message per topic is stored at any given time.\n */\ncontract EncryptedStore {\n    // Mapping from users to hashes, which act as keys for encrypted messages.\n    // Note: the hash is designed to be a hash of the \"subject\" or \"topic\" of the message.\n    mapping(address => mapping(bytes32 => bytes)) private stores;\n\n    /**\n     * @notice Gets the current stored message corresponding to `user` and `topicHash`.\n     * @dev To decrypt messages (this requires access to the owner's private keys), use the decryptMessage()\n     * function in common/Crypto.js.\n     * @param user address that stored this message.\n     * @param topicHash hash of the \"subject\" of the message.\n     * @return stored message.\n     */\n    function getMessage(address user, bytes32 topicHash) external view returns (bytes memory) {\n        return stores[user][topicHash];\n    }\n\n    /**\n     * @notice Stores a `message` categorized by a particular `topicHash`. This will overwrite the\n     * previous messages sent by this caller with this `topicHash`.\n     * @dev To construct an encrypted message, use the encryptMessage() in common/Crypto.js.\n     * @param topicHash hash of the \"subject\" or \"topic\" of the message.\n     * @param message the stored message.\n     */\n    function storeMessage(bytes32 topicHash, bytes memory message) public {\n        stores[msg.sender][topicHash] = message;\n    }\n\n    /**\n     * @notice Removes a stored message categorized by a particular `topicHash`.\n     * @param topicHash hash of the \"subject\" or \"topic\" of the message.\n     */\n    function removeMessage(bytes32 topicHash) public {\n        delete stores[msg.sender][topicHash];\n    }\n}\n",
  "sourcePath": "/home/alessandrovm/JarvisLavoro/SynFiat/packages/contracts/contracts/uma-contracts/oracle/implementation/EncryptedStore.sol",
  "compiler": {
    "name": "solc",
    "version": "0.6.4+commit.1dca32f3.Emscripten.clang"
  },
  "schemaVersion": "3.2.0",
  "updatedAt": "2020-06-19T21:38:31.536Z",
  "devdoc": {
    "details": "This contract uses topic hashes as keys and can store a single arbitrary encrypted message per topic at any given time. Technically, topic hashes and messages do not need to be encrypted, but because anyone can read stored messages, this contract is designed to store encrypted messages. Only one message per topic is stored at any given time.",
    "methods": {
      "getMessage(address,bytes32)": {
        "details": "To decrypt messages (this requires access to the owner's private keys), use the decryptMessage() function in common/Crypto.js.",
        "params": {
          "topicHash": "hash of the \"subject\" of the message.",
          "user": "address that stored this message."
        },
        "returns": {
          "_0": "stored message."
        }
      },
      "removeMessage(bytes32)": {
        "params": {
          "topicHash": "hash of the \"subject\" or \"topic\" of the message."
        }
      },
      "storeMessage(bytes32,bytes)": {
        "details": "To construct an encrypted message, use the encryptMessage() in common/Crypto.js.",
        "params": {
          "message": "the stored message.",
          "topicHash": "hash of the \"subject\" or \"topic\" of the message."
        }
      }
    },
    "title": "Contract for storing keyed encrypted messages via the EVM."
  },
  "userdoc": {
    "methods": {
      "getMessage(address,bytes32)": {
        "notice": "Gets the current stored message corresponding to `user` and `topicHash`."
      },
      "removeMessage(bytes32)": {
        "notice": "Removes a stored message categorized by a particular `topicHash`."
      },
      "storeMessage(bytes32,bytes)": {
        "notice": "Stores a `message` categorized by a particular `topicHash`. This will overwrite the previous messages sent by this caller with this `topicHash`."
      }
    }
  }
}