{
  "contractName": "ERC20Snapshot",
  "abi": [
    {
      "anonymous": false,
      "inputs": [
        {
          "indexed": true,
          "internalType": "address",
          "name": "owner",
          "type": "address"
        },
        {
          "indexed": true,
          "internalType": "address",
          "name": "spender",
          "type": "address"
        },
        {
          "indexed": false,
          "internalType": "uint256",
          "name": "value",
          "type": "uint256"
        }
      ],
      "name": "Approval",
      "type": "event"
    },
    {
      "anonymous": false,
      "inputs": [
        {
          "indexed": false,
          "internalType": "uint256",
          "name": "id",
          "type": "uint256"
        }
      ],
      "name": "Snapshot",
      "type": "event"
    },
    {
      "anonymous": false,
      "inputs": [
        {
          "indexed": true,
          "internalType": "address",
          "name": "from",
          "type": "address"
        },
        {
          "indexed": true,
          "internalType": "address",
          "name": "to",
          "type": "address"
        },
        {
          "indexed": false,
          "internalType": "uint256",
          "name": "value",
          "type": "uint256"
        }
      ],
      "name": "Transfer",
      "type": "event"
    },
    {
      "inputs": [
        {
          "internalType": "address",
          "name": "owner",
          "type": "address"
        },
        {
          "internalType": "address",
          "name": "spender",
          "type": "address"
        }
      ],
      "name": "allowance",
      "outputs": [
        {
          "internalType": "uint256",
          "name": "",
          "type": "uint256"
        }
      ],
      "stateMutability": "view",
      "type": "function"
    },
    {
      "inputs": [
        {
          "internalType": "address",
          "name": "spender",
          "type": "address"
        },
        {
          "internalType": "uint256",
          "name": "amount",
          "type": "uint256"
        }
      ],
      "name": "approve",
      "outputs": [
        {
          "internalType": "bool",
          "name": "",
          "type": "bool"
        }
      ],
      "stateMutability": "nonpayable",
      "type": "function"
    },
    {
      "inputs": [
        {
          "internalType": "address",
          "name": "account",
          "type": "address"
        }
      ],
      "name": "balanceOf",
      "outputs": [
        {
          "internalType": "uint256",
          "name": "",
          "type": "uint256"
        }
      ],
      "stateMutability": "view",
      "type": "function"
    },
    {
      "inputs": [
        {
          "internalType": "address",
          "name": "spender",
          "type": "address"
        },
        {
          "internalType": "uint256",
          "name": "subtractedValue",
          "type": "uint256"
        }
      ],
      "name": "decreaseAllowance",
      "outputs": [
        {
          "internalType": "bool",
          "name": "",
          "type": "bool"
        }
      ],
      "stateMutability": "nonpayable",
      "type": "function"
    },
    {
      "inputs": [
        {
          "internalType": "address",
          "name": "spender",
          "type": "address"
        },
        {
          "internalType": "uint256",
          "name": "addedValue",
          "type": "uint256"
        }
      ],
      "name": "increaseAllowance",
      "outputs": [
        {
          "internalType": "bool",
          "name": "",
          "type": "bool"
        }
      ],
      "stateMutability": "nonpayable",
      "type": "function"
    },
    {
      "inputs": [],
      "name": "totalSupply",
      "outputs": [
        {
          "internalType": "uint256",
          "name": "",
          "type": "uint256"
        }
      ],
      "stateMutability": "view",
      "type": "function"
    },
    {
      "inputs": [
        {
          "internalType": "address",
          "name": "recipient",
          "type": "address"
        },
        {
          "internalType": "uint256",
          "name": "amount",
          "type": "uint256"
        }
      ],
      "name": "transfer",
      "outputs": [
        {
          "internalType": "bool",
          "name": "",
          "type": "bool"
        }
      ],
      "stateMutability": "nonpayable",
      "type": "function"
    },
    {
      "inputs": [
        {
          "internalType": "address",
          "name": "sender",
          "type": "address"
        },
        {
          "internalType": "address",
          "name": "recipient",
          "type": "address"
        },
        {
          "internalType": "uint256",
          "name": "amount",
          "type": "uint256"
        }
      ],
      "name": "transferFrom",
      "outputs": [
        {
          "internalType": "bool",
          "name": "",
          "type": "bool"
        }
      ],
      "stateMutability": "nonpayable",
      "type": "function"
    },
    {
      "inputs": [],
      "name": "snapshot",
      "outputs": [
        {
          "internalType": "uint256",
          "name": "",
          "type": "uint256"
        }
      ],
      "stateMutability": "nonpayable",
      "type": "function"
    },
    {
      "inputs": [
        {
          "internalType": "address",
          "name": "account",
          "type": "address"
        },
        {
          "internalType": "uint256",
          "name": "snapshotId",
          "type": "uint256"
        }
      ],
      "name": "balanceOfAt",
      "outputs": [
        {
          "internalType": "uint256",
          "name": "",
          "type": "uint256"
        }
      ],
      "stateMutability": "view",
      "type": "function"
    },
    {
      "inputs": [
        {
          "internalType": "uint256",
          "name": "snapshotId",
          "type": "uint256"
        }
      ],
      "name": "totalSupplyAt",
      "outputs": [
        {
          "internalType": "uint256",
          "name": "",
          "type": "uint256"
        }
      ],
      "stateMutability": "view",
      "type": "function"
    }
  ],
  "bytecode": "0x6080604052610e9c806100136000396000f3fe608060405234801561001057600080fd5b50600436106100c95760003560e01c806370a0823111610081578063a457c2d71161005b578063a457c2d714610242578063a9059cbb1461027b578063dd62ed3e146102b4576100c9565b806370a08231146101ea5780639711715a1461021d578063981b24d014610225576100c9565b806323b872dd116100b257806323b872dd1461013557806339509351146101785780634ee2cd7e146101b1576100c9565b8063095ea7b3146100ce57806318160ddd1461011b575b600080fd5b610107600480360360408110156100e457600080fd5b5073ffffffffffffffffffffffffffffffffffffffff81351690602001356102ef565b604080519115158252519081900360200190f35b61012361030d565b60408051918252519081900360200190f35b6101076004803603606081101561014b57600080fd5b5073ffffffffffffffffffffffffffffffffffffffff813581169160208101359091169060400135610313565b6101076004803603604081101561018e57600080fd5b5073ffffffffffffffffffffffffffffffffffffffff81351690602001356103ba565b610123600480360360408110156101c757600080fd5b5073ffffffffffffffffffffffffffffffffffffffff813516906020013561041b565b6101236004803603602081101561020057600080fd5b503573ffffffffffffffffffffffffffffffffffffffff16610471565b61012361049d565b6101236004803603602081101561023b57600080fd5b50356104f1565b6101076004803603604081101561025857600080fd5b5073ffffffffffffffffffffffffffffffffffffffff8135169060200135610521565b6101076004803603604081101561029157600080fd5b5073ffffffffffffffffffffffffffffffffffffffff813516906020013561059c565b610123600480360360408110156102ca57600080fd5b5073ffffffffffffffffffffffffffffffffffffffff813581169160200135166105b0565b60006103036102fc6105e8565b84846105ec565b5060015b92915050565b60025490565b6000610320848484610733565b6103b08461032c6105e8565b6103ab85604051806060016040528060288152602001610dd16028913973ffffffffffffffffffffffffffffffffffffffff8a166000908152600160205260408120906103776105e8565b73ffffffffffffffffffffffffffffffffffffffff168152602081019190915260400160002054919063ffffffff61075516565b6105ec565b5060019392505050565b60006103036103c76105e8565b846103ab85600160006103d86105e8565b73ffffffffffffffffffffffffffffffffffffffff908116825260208083019390935260409182016000908120918c16815292529020549063ffffffff61080616565b73ffffffffffffffffffffffffffffffffffffffff821660009081526003602052604081208190819061044f908590610881565b91509150816104665761046185610471565b610468565b805b95945050505050565b73ffffffffffffffffffffffffffffffffffffffff81166000908152602081905260409020545b919050565b60006104a960066109bf565b60006104b560066109c8565b6040805182815290519192507f8030e83b04d87bef53480e26263266d6ca66863aa8506aca6f2559d18aa1cb67919081900360200190a1905090565b6000806000610501846004610881565b91509150816105175761051261030d565b610519565b805b949350505050565b600061030361052e6105e8565b846103ab85604051806060016040528060258152602001610e4260259139600160006105586105e8565b73ffffffffffffffffffffffffffffffffffffffff908116825260208083019390935260409182016000908120918d1681529252902054919063ffffffff61075516565b60006103036105a96105e8565b8484610733565b73ffffffffffffffffffffffffffffffffffffffff918216600090815260016020908152604080832093909416825291909152205490565b3390565b73ffffffffffffffffffffffffffffffffffffffff8316610658576040517f08c379a0000000000000000000000000000000000000000000000000000000008152600401808060200182810382526024815260200180610e1e6024913960400191505060405180910390fd5b73ffffffffffffffffffffffffffffffffffffffff82166106c4576040517f08c379a0000000000000000000000000000000000000000000000000000000008152600401808060200182810382526022815260200180610d896022913960400191505060405180910390fd5b73ffffffffffffffffffffffffffffffffffffffff808416600081815260016020908152604080832094871680845294825291829020859055815185815291517f8c5be1e5ebec7d5bd14f71427d1e84f3dd0314c0f7b2291e5b200ac8c7c3b9259281900390910190a3505050565b61073c836109cc565b610745826109cc565b610750838383610a06565b505050565b600081848411156107fe576040517f08c379a00000000000000000000000000000000000000000000000000000000081526004018080602001828103825283818151815260200191508051906020019080838360005b838110156107c35781810151838201526020016107ab565b50505050905090810190601f1680156107f05780820380516001836020036101000a031916815260200191505b509250505060405180910390fd5b505050900390565b60008282018381101561087a57604080517f08c379a000000000000000000000000000000000000000000000000000000000815260206004820152601b60248201527f536166654d6174683a206164646974696f6e206f766572666c6f770000000000604482015290519081900360640190fd5b9392505050565b600080600084116108f357604080517f08c379a000000000000000000000000000000000000000000000000000000000815260206004820152601660248201527f4552433230536e617073686f743a206964206973203000000000000000000000604482015290519081900360640190fd5b6108fd60066109c8565b84111561096b57604080517f08c379a000000000000000000000000000000000000000000000000000000000815260206004820152601d60248201527f4552433230536e617073686f743a206e6f6e6578697374656e74206964000000604482015290519081900360640190fd5b600061097d848663ffffffff610be216565b84549091508114156109965750600091508190506109b8565b60018460010182815481106109a757fe5b906000526020600020015492509250505b9250929050565b80546001019055565b5490565b73ffffffffffffffffffffffffffffffffffffffff81166000908152600360205260409020610a03906109fe83610471565b610ca1565b50565b73ffffffffffffffffffffffffffffffffffffffff8316610a72576040517f08c379a0000000000000000000000000000000000000000000000000000000008152600401808060200182810382526025815260200180610df96025913960400191505060405180910390fd5b73ffffffffffffffffffffffffffffffffffffffff8216610ade576040517f08c379a0000000000000000000000000000000000000000000000000000000008152600401808060200182810382526023815260200180610d666023913960400191505060405180910390fd5b610ae9838383610750565b610b3981604051806060016040528060268152602001610dab6026913973ffffffffffffffffffffffffffffffffffffffff8616600090815260208190526040902054919063ffffffff61075516565b73ffffffffffffffffffffffffffffffffffffffff8085166000908152602081905260408082209390935590841681522054610b7b908263ffffffff61080616565b73ffffffffffffffffffffffffffffffffffffffff8084166000818152602081815260409182902094909455805185815290519193928716927fddf252ad1be2c89b69c2b068fc378daa952ba7f163c4a11628f55a4df523b3ef92918290030190a3505050565b8154600090610bf357506000610307565b82546000905b80821015610c42576000610c0d8383610ced565b905084868281548110610c1c57fe5b90600052602060002001541115610c3557809150610c3c565b8060010192505b50610bf9565b600082118015610c6a575083856001840381548110610c5d57fe5b9060005260206000200154145b15610c9957507fffffffffffffffffffffffffffffffffffffffffffffffffffffffffffffffff019050610307565b509050610307565b6000610cad60066109c8565b905080610cb984610d12565b1015610750578254600180820185556000858152602080822090930193909355938401805494850181558252902090910155565b60006002808306600285060181610d0057fe5b04600283046002850401019392505050565b8054600090610d2357506000610498565b815482907fffffffffffffffffffffffffffffffffffffffffffffffffffffffffffffffff8101908110610d5357fe5b9060005260206000200154905061049856fe45524332303a207472616e7366657220746f20746865207a65726f206164647265737345524332303a20617070726f766520746f20746865207a65726f206164647265737345524332303a207472616e7366657220616d6f756e7420657863656564732062616c616e636545524332303a207472616e7366657220616d6f756e74206578636565647320616c6c6f77616e636545524332303a207472616e736665722066726f6d20746865207a65726f206164647265737345524332303a20617070726f76652066726f6d20746865207a65726f206164647265737345524332303a2064656372656173656420616c6c6f77616e63652062656c6f77207a65726fa2646970667358221220edb6d69c63468ffa37c045327000d39e9a1c6d300297c004797b5fcf167fddcc64736f6c63430006040033",
  "source": "pragma solidity ^0.6.0;\n\nimport \"../math/SafeMath.sol\";\nimport \"../utils/Arrays.sol\";\nimport \"../drafts/Counters.sol\";\nimport \"../token/ERC20/ERC20.sol\";\n\n/**\n * @title ERC20 token with snapshots.\n * @dev Inspired by Jordi Baylina's\n * https://github.com/Giveth/minimd/blob/ea04d950eea153a04c51fa510b068b9dded390cb/contracts/MiniMeToken.sol[MiniMeToken]\n * to record historical balances.\n *\n * When a snapshot is made, the balances and total supply at the time of the snapshot are recorded for later\n * access.\n *\n * To make a snapshot, call the {snapshot} function, which will emit the {Snapshot} event and return a snapshot id.\n * To get the total supply from a snapshot, call the function {totalSupplyAt} with the snapshot id.\n * To get the balance of an account from a snapshot, call the {balanceOfAt} function with the snapshot id and the\n * account address.\n * @author Validity Labs AG <info@validitylabs.org>\n */\ncontract ERC20Snapshot is ERC20 {\n    using SafeMath for uint256;\n    using Arrays for uint256[];\n    using Counters for Counters.Counter;\n\n    // Snapshotted values have arrays of ids and the value corresponding to that id. These could be an array of a\n    // Snapshot struct, but that would impede usage of functions that work on an array.\n    struct Snapshots {\n        uint256[] ids;\n        uint256[] values;\n    }\n\n    mapping (address => Snapshots) private _accountBalanceSnapshots;\n    Snapshots private _totalSupplySnapshots;\n\n    // Snapshot ids increase monotonically, with the first value being 1. An id of 0 is invalid.\n    Counters.Counter private _currentSnapshotId;\n\n    event Snapshot(uint256 id);\n\n    // Creates a new snapshot id. Balances are only stored in snapshots on demand: unless a snapshot was taken, a\n    // balance change will not be recorded. This means the extra added cost of storing snapshotted balances is only paid\n    // when required, but is also flexible enough that it allows for e.g. daily snapshots.\n    function snapshot() public virtual returns (uint256) {\n        _currentSnapshotId.increment();\n\n        uint256 currentId = _currentSnapshotId.current();\n        emit Snapshot(currentId);\n        return currentId;\n    }\n\n    function balanceOfAt(address account, uint256 snapshotId) public view returns (uint256) {\n        (bool snapshotted, uint256 value) = _valueAt(snapshotId, _accountBalanceSnapshots[account]);\n\n        return snapshotted ? value : balanceOf(account);\n    }\n\n    function totalSupplyAt(uint256 snapshotId) public view returns(uint256) {\n        (bool snapshotted, uint256 value) = _valueAt(snapshotId, _totalSupplySnapshots);\n\n        return snapshotted ? value : totalSupply();\n    }\n\n    // _transfer, _mint and _burn are the only functions where the balances are modified, so it is there that the\n    // snapshots are updated. Note that the update happens _before_ the balance change, with the pre-modified value.\n    // The same is true for the total supply and _mint and _burn.\n    function _transfer(address from, address to, uint256 value) internal virtual override {\n        _updateAccountSnapshot(from);\n        _updateAccountSnapshot(to);\n\n        super._transfer(from, to, value);\n    }\n\n    function _mint(address account, uint256 value) internal virtual override {\n        _updateAccountSnapshot(account);\n        _updateTotalSupplySnapshot();\n\n        super._mint(account, value);\n    }\n\n    function _burn(address account, uint256 value) internal virtual override {\n        _updateAccountSnapshot(account);\n        _updateTotalSupplySnapshot();\n\n        super._burn(account, value);\n    }\n\n    // When a valid snapshot is queried, there are three possibilities:\n    //  a) The queried value was not modified after the snapshot was taken. Therefore, a snapshot entry was never\n    //  created for this id, and all stored snapshot ids are smaller than the requested one. The value that corresponds\n    //  to this id is the current one.\n    //  b) The queried value was modified after the snapshot was taken. Therefore, there will be an entry with the\n    //  requested id, and its value is the one to return.\n    //  c) More snapshots were created after the requested one, and the queried value was later modified. There will be\n    //  no entry for the requested id: the value that corresponds to it is that of the smallest snapshot id that is\n    //  larger than the requested one.\n    //\n    // In summary, we need to find an element in an array, returning the index of the smallest value that is larger if\n    // it is not found, unless said value doesn't exist (e.g. when all values are smaller). Arrays.findUpperBound does\n    // exactly this.\n    function _valueAt(uint256 snapshotId, Snapshots storage snapshots)\n        private view returns (bool, uint256)\n    {\n        require(snapshotId > 0, \"ERC20Snapshot: id is 0\");\n        // solhint-disable-next-line max-line-length\n        require(snapshotId <= _currentSnapshotId.current(), \"ERC20Snapshot: nonexistent id\");\n\n        uint256 index = snapshots.ids.findUpperBound(snapshotId);\n\n        if (index == snapshots.ids.length) {\n            return (false, 0);\n        } else {\n            return (true, snapshots.values[index]);\n        }\n    }\n\n    function _updateAccountSnapshot(address account) private {\n        _updateSnapshot(_accountBalanceSnapshots[account], balanceOf(account));\n    }\n\n    function _updateTotalSupplySnapshot() private {\n        _updateSnapshot(_totalSupplySnapshots, totalSupply());\n    }\n\n    function _updateSnapshot(Snapshots storage snapshots, uint256 currentValue) private {\n        uint256 currentId = _currentSnapshotId.current();\n        if (_lastSnapshotId(snapshots.ids) < currentId) {\n            snapshots.ids.push(currentId);\n            snapshots.values.push(currentValue);\n        }\n    }\n\n    function _lastSnapshotId(uint256[] storage ids) private view returns (uint256) {\n        if (ids.length == 0) {\n            return 0;\n        } else {\n            return ids[ids.length - 1];\n        }\n    }\n}\n",
  "sourcePath": "@openzeppelin/contracts/drafts/ERC20Snapshot.sol",
  "compiler": {
    "name": "solc",
    "version": "0.6.4+commit.1dca32f3.Emscripten.clang"
  },
  "schemaVersion": "3.2.0",
  "updatedAt": "2020-06-29T17:18:31.801Z",
  "devdoc": {
    "author": "Validity Labs AG <info@validitylabs.org>",
    "details": "Inspired by Jordi Baylina's https://github.com/Giveth/minimd/blob/ea04d950eea153a04c51fa510b068b9dded390cb/contracts/MiniMeToken.sol[MiniMeToken] to record historical balances. * When a snapshot is made, the balances and total supply at the time of the snapshot are recorded for later access. * To make a snapshot, call the {snapshot} function, which will emit the {Snapshot} event and return a snapshot id. To get the total supply from a snapshot, call the function {totalSupplyAt} with the snapshot id. To get the balance of an account from a snapshot, call the {balanceOfAt} function with the snapshot id and the account address.",
    "methods": {
      "allowance(address,address)": {
        "details": "See {IERC20-allowance}."
      },
      "approve(address,uint256)": {
        "details": "See {IERC20-approve}.     * Requirements:     * - `spender` cannot be the zero address."
      },
      "balanceOf(address)": {
        "details": "See {IERC20-balanceOf}."
      },
      "decreaseAllowance(address,uint256)": {
        "details": "Atomically decreases the allowance granted to `spender` by the caller.     * This is an alternative to {approve} that can be used as a mitigation for problems described in {IERC20-approve}.     * Emits an {Approval} event indicating the updated allowance.     * Requirements:     * - `spender` cannot be the zero address. - `spender` must have allowance for the caller of at least `subtractedValue`."
      },
      "increaseAllowance(address,uint256)": {
        "details": "Atomically increases the allowance granted to `spender` by the caller.     * This is an alternative to {approve} that can be used as a mitigation for problems described in {IERC20-approve}.     * Emits an {Approval} event indicating the updated allowance.     * Requirements:     * - `spender` cannot be the zero address."
      },
      "totalSupply()": {
        "details": "See {IERC20-totalSupply}."
      },
      "transfer(address,uint256)": {
        "details": "See {IERC20-transfer}.     * Requirements:     * - `recipient` cannot be the zero address. - the caller must have a balance of at least `amount`."
      },
      "transferFrom(address,address,uint256)": {
        "details": "See {IERC20-transferFrom}.     * Emits an {Approval} event indicating the updated allowance. This is not required by the EIP. See the note at the beginning of {ERC20};     * Requirements: - `sender` and `recipient` cannot be the zero address. - `sender` must have a balance of at least `amount`. - the caller must have allowance for `sender`'s tokens of at least `amount`."
      }
    },
    "title": "ERC20 token with snapshots."
  },
  "userdoc": {
    "methods": {}
  }
}