{
  "contractName": "ERC721Metadata",
  "abi": [
    {
      "inputs": [
        {
          "internalType": "string",
          "name": "name",
          "type": "string"
        },
        {
          "internalType": "string",
          "name": "symbol",
          "type": "string"
        }
      ],
      "stateMutability": "nonpayable",
      "type": "constructor"
    },
    {
      "anonymous": false,
      "inputs": [
        {
          "indexed": true,
          "internalType": "address",
          "name": "owner",
          "type": "address"
        },
        {
          "indexed": true,
          "internalType": "address",
          "name": "approved",
          "type": "address"
        },
        {
          "indexed": true,
          "internalType": "uint256",
          "name": "tokenId",
          "type": "uint256"
        }
      ],
      "name": "Approval",
      "type": "event"
    },
    {
      "anonymous": false,
      "inputs": [
        {
          "indexed": true,
          "internalType": "address",
          "name": "owner",
          "type": "address"
        },
        {
          "indexed": true,
          "internalType": "address",
          "name": "operator",
          "type": "address"
        },
        {
          "indexed": false,
          "internalType": "bool",
          "name": "approved",
          "type": "bool"
        }
      ],
      "name": "ApprovalForAll",
      "type": "event"
    },
    {
      "anonymous": false,
      "inputs": [
        {
          "indexed": true,
          "internalType": "address",
          "name": "from",
          "type": "address"
        },
        {
          "indexed": true,
          "internalType": "address",
          "name": "to",
          "type": "address"
        },
        {
          "indexed": true,
          "internalType": "uint256",
          "name": "tokenId",
          "type": "uint256"
        }
      ],
      "name": "Transfer",
      "type": "event"
    },
    {
      "inputs": [
        {
          "internalType": "address",
          "name": "to",
          "type": "address"
        },
        {
          "internalType": "uint256",
          "name": "tokenId",
          "type": "uint256"
        }
      ],
      "name": "approve",
      "outputs": [],
      "stateMutability": "nonpayable",
      "type": "function"
    },
    {
      "inputs": [
        {
          "internalType": "address",
          "name": "owner",
          "type": "address"
        }
      ],
      "name": "balanceOf",
      "outputs": [
        {
          "internalType": "uint256",
          "name": "",
          "type": "uint256"
        }
      ],
      "stateMutability": "view",
      "type": "function"
    },
    {
      "inputs": [
        {
          "internalType": "uint256",
          "name": "tokenId",
          "type": "uint256"
        }
      ],
      "name": "getApproved",
      "outputs": [
        {
          "internalType": "address",
          "name": "",
          "type": "address"
        }
      ],
      "stateMutability": "view",
      "type": "function"
    },
    {
      "inputs": [
        {
          "internalType": "address",
          "name": "owner",
          "type": "address"
        },
        {
          "internalType": "address",
          "name": "operator",
          "type": "address"
        }
      ],
      "name": "isApprovedForAll",
      "outputs": [
        {
          "internalType": "bool",
          "name": "",
          "type": "bool"
        }
      ],
      "stateMutability": "view",
      "type": "function"
    },
    {
      "inputs": [
        {
          "internalType": "uint256",
          "name": "tokenId",
          "type": "uint256"
        }
      ],
      "name": "ownerOf",
      "outputs": [
        {
          "internalType": "address",
          "name": "",
          "type": "address"
        }
      ],
      "stateMutability": "view",
      "type": "function"
    },
    {
      "inputs": [
        {
          "internalType": "address",
          "name": "from",
          "type": "address"
        },
        {
          "internalType": "address",
          "name": "to",
          "type": "address"
        },
        {
          "internalType": "uint256",
          "name": "tokenId",
          "type": "uint256"
        }
      ],
      "name": "safeTransferFrom",
      "outputs": [],
      "stateMutability": "nonpayable",
      "type": "function"
    },
    {
      "inputs": [
        {
          "internalType": "address",
          "name": "from",
          "type": "address"
        },
        {
          "internalType": "address",
          "name": "to",
          "type": "address"
        },
        {
          "internalType": "uint256",
          "name": "tokenId",
          "type": "uint256"
        },
        {
          "internalType": "bytes",
          "name": "_data",
          "type": "bytes"
        }
      ],
      "name": "safeTransferFrom",
      "outputs": [],
      "stateMutability": "nonpayable",
      "type": "function"
    },
    {
      "inputs": [
        {
          "internalType": "address",
          "name": "operator",
          "type": "address"
        },
        {
          "internalType": "bool",
          "name": "approved",
          "type": "bool"
        }
      ],
      "name": "setApprovalForAll",
      "outputs": [],
      "stateMutability": "nonpayable",
      "type": "function"
    },
    {
      "inputs": [
        {
          "internalType": "bytes4",
          "name": "interfaceId",
          "type": "bytes4"
        }
      ],
      "name": "supportsInterface",
      "outputs": [
        {
          "internalType": "bool",
          "name": "",
          "type": "bool"
        }
      ],
      "stateMutability": "view",
      "type": "function"
    },
    {
      "inputs": [
        {
          "internalType": "address",
          "name": "from",
          "type": "address"
        },
        {
          "internalType": "address",
          "name": "to",
          "type": "address"
        },
        {
          "internalType": "uint256",
          "name": "tokenId",
          "type": "uint256"
        }
      ],
      "name": "transferFrom",
      "outputs": [],
      "stateMutability": "nonpayable",
      "type": "function"
    },
    {
      "inputs": [],
      "name": "name",
      "outputs": [
        {
          "internalType": "string",
          "name": "",
          "type": "string"
        }
      ],
      "stateMutability": "view",
      "type": "function"
    },
    {
      "inputs": [],
      "name": "symbol",
      "outputs": [
        {
          "internalType": "string",
          "name": "",
          "type": "string"
        }
      ],
      "stateMutability": "view",
      "type": "function"
    },
    {
      "inputs": [
        {
          "internalType": "uint256",
          "name": "tokenId",
          "type": "uint256"
        }
      ],
      "name": "tokenURI",
      "outputs": [
        {
          "internalType": "string",
          "name": "",
          "type": "string"
        }
      ],
      "stateMutability": "view",
      "type": "function"
    },
    {
      "inputs": [],
      "name": "baseURI",
      "outputs": [
        {
          "internalType": "string",
          "name": "",
          "type": "string"
        }
      ],
      "stateMutability": "view",
      "type": "function"
    }
  ],
  "bytecode": "0x60806040523480156200001157600080fd5b5060405162001d6b38038062001d6b833981810160405260408110156200003757600080fd5b81019080805160405193929190846401000000008211156200005857600080fd5b9083019060208201858111156200006e57600080fd5b82516401000000008111828201881017156200008957600080fd5b82525081516020918201929091019080838360005b83811015620000b85781810151838201526020016200009e565b50505050905090810190601f168015620000e65780820380516001836020036101000a031916815260200191505b50604052602001805160405193929190846401000000008211156200010a57600080fd5b9083019060208201858111156200012057600080fd5b82516401000000008111828201881017156200013b57600080fd5b82525081516020918201929091019080838360005b838110156200016a57818101518382015260200162000150565b50505050905090810190601f168015620001985780820380516001836020036101000a031916815260200191505b5060405250620001bc91506301ffc9a760e01b90506001600160e01b036200022616565b620001d76380ac58cd60e01b6001600160e01b036200022616565b8151620001ec906005906020850190620002ab565b50805162000202906006906020840190620002ab565b506200021e635b5e139f60e01b6001600160e01b036200022616565b505062000350565b6001600160e01b0319808216141562000286576040805162461bcd60e51b815260206004820152601c60248201527f4552433136353a20696e76616c696420696e7465726661636520696400000000604482015290519081900360640190fd5b6001600160e01b0319166000908152602081905260409020805460ff19166001179055565b828054600181600116156101000203166002900490600052602060002090601f016020900481019282601f10620002ee57805160ff19168380011785556200031e565b828001600101855582156200031e579182015b828111156200031e57825182559160200191906001019062000301565b506200032c92915062000330565b5090565b6200034d91905b808211156200032c576000815560010162000337565b90565b611a0b80620003606000396000f3fe608060405234801561001057600080fd5b50600436106100ea5760003560e01c80636c0360eb1161008c578063a22cb46511610066578063a22cb46514610338578063b88d4fde14610373578063c87b56dd14610446578063e985e9c514610463576100ea565b80636c0360eb146102e357806370a08231146102eb57806395d89b4114610330576100ea565b8063095ea7b3116100c8578063095ea7b31461020557806323b872dd1461024057806342842e0e146102835780636352211e146102c6576100ea565b806301ffc9a7146100ef57806306fdde0314610142578063081812fc146101bf575b600080fd5b61012e6004803603602081101561010557600080fd5b50357fffffffff000000000000000000000000000000000000000000000000000000001661049e565b604080519115158252519081900360200190f35b61014a6104d9565b6040805160208082528351818301528351919283929083019185019080838360005b8381101561018457818101518382015260200161016c565b50505050905090810190601f1680156101b15780820380516001836020036101000a031916815260200191505b509250505060405180910390f35b6101dc600480360360208110156101d557600080fd5b503561058e565b6040805173ffffffffffffffffffffffffffffffffffffffff9092168252519081900360200190f35b61023e6004803603604081101561021b57600080fd5b5073ffffffffffffffffffffffffffffffffffffffff8135169060200135610617565b005b61023e6004803603606081101561025657600080fd5b5073ffffffffffffffffffffffffffffffffffffffff81358116916020810135909116906040013561075a565b61023e6004803603606081101561029957600080fd5b5073ffffffffffffffffffffffffffffffffffffffff8135811691602081013590911690604001356107cb565b6101dc600480360360208110156102dc57600080fd5b50356107e6565b61014a610867565b61031e6004803603602081101561030157600080fd5b503573ffffffffffffffffffffffffffffffffffffffff166108e6565b60408051918252519081900360200190f35b61014a610982565b61023e6004803603604081101561034e57600080fd5b5073ffffffffffffffffffffffffffffffffffffffff81351690602001351515610a01565b61023e6004803603608081101561038957600080fd5b73ffffffffffffffffffffffffffffffffffffffff8235811692602081013590911691604082013591908101906080810160608201356401000000008111156103d157600080fd5b8201836020820111156103e357600080fd5b8035906020019184600183028401116401000000008311171561040557600080fd5b91908080601f016020809104026020016040519081016040528093929190818152602001838380828437600092019190915250929550610b72945050505050565b61014a6004803603602081101561045c57600080fd5b5035610bea565b61012e6004803603604081101561047957600080fd5b5073ffffffffffffffffffffffffffffffffffffffff81358116916020013516610e0c565b7fffffffff00000000000000000000000000000000000000000000000000000000811660009081526020819052604090205460ff165b919050565b60058054604080516020601f60027fffffffffffffffffffffffffffffffffffffffffffffffffffffffffffffffff6101006001881615020190951694909404938401819004810282018101909252828152606093909290918301828280156105835780601f1061055857610100808354040283529160200191610583565b820191906000526020600020905b81548152906001019060200180831161056657829003601f168201915b505050505090505b90565b600061059982610e47565b6105ee576040517f08c379a000000000000000000000000000000000000000000000000000000000815260040180806020018281038252602c815260200180611900602c913960400191505060405180910390fd5b5060009081526002602052604090205473ffffffffffffffffffffffffffffffffffffffff1690565b6000610622826107e6565b90508073ffffffffffffffffffffffffffffffffffffffff168373ffffffffffffffffffffffffffffffffffffffff1614156106a9576040517f08c379a00000000000000000000000000000000000000000000000000000000081526004018080602001828103825260218152602001806119846021913960400191505060405180910390fd5b8073ffffffffffffffffffffffffffffffffffffffff166106c8610e71565b73ffffffffffffffffffffffffffffffffffffffff1614806106f657506106f6816106f1610e71565b610e0c565b61074b576040517f08c379a00000000000000000000000000000000000000000000000000000000081526004018080602001828103825260388152602001806118756038913960400191505060405180910390fd5b6107558383610e75565b505050565b61076b610765610e71565b82610f15565b6107c0576040517f08c379a00000000000000000000000000000000000000000000000000000000081526004018080602001828103825260318152602001806119a56031913960400191505060405180910390fd5b610755838383611007565b61075583838360405180602001604052806000815250610b72565b60008181526001602052604081205473ffffffffffffffffffffffffffffffffffffffff1680610861576040517f08c379a00000000000000000000000000000000000000000000000000000000081526004018080602001828103825260298152602001806118d76029913960400191505060405180910390fd5b92915050565b60078054604080516020601f60027fffffffffffffffffffffffffffffffffffffffffffffffffffffffffffffffff6101006001881615020190951694909404938401819004810282018101909252828152606093909290918301828280156105835780601f1061055857610100808354040283529160200191610583565b600073ffffffffffffffffffffffffffffffffffffffff8216610954576040517f08c379a000000000000000000000000000000000000000000000000000000000815260040180806020018281038252602a8152602001806118ad602a913960400191505060405180910390fd5b73ffffffffffffffffffffffffffffffffffffffff82166000908152600360205260409020610861906111f2565b60068054604080516020601f60027fffffffffffffffffffffffffffffffffffffffffffffffffffffffffffffffff6101006001881615020190951694909404938401819004810282018101909252828152606093909290918301828280156105835780601f1061055857610100808354040283529160200191610583565b610a09610e71565b73ffffffffffffffffffffffffffffffffffffffff168273ffffffffffffffffffffffffffffffffffffffff161415610aa357604080517f08c379a000000000000000000000000000000000000000000000000000000000815260206004820152601960248201527f4552433732313a20617070726f766520746f2063616c6c657200000000000000604482015290519081900360640190fd5b8060046000610ab0610e71565b73ffffffffffffffffffffffffffffffffffffffff90811682526020808301939093526040918201600090812091871680825291909352912080547fffffffffffffffffffffffffffffffffffffffffffffffffffffffffffffff001692151592909217909155610b1f610e71565b604080518415158152905173ffffffffffffffffffffffffffffffffffffffff92909216917f17307eab39ab6107e8899845ad3d59bd9653f200f220920489ca2b5937696c319181900360200190a35050565b610b83610b7d610e71565b83610f15565b610bd8576040517f08c379a00000000000000000000000000000000000000000000000000000000081526004018080602001828103825260318152602001806119a56031913960400191505060405180910390fd5b610be4848484846111f6565b50505050565b6060610bf582610e47565b610c4a576040517f08c379a000000000000000000000000000000000000000000000000000000000815260040180806020018281038252602f815260200180611955602f913960400191505060405180910390fd5b60008281526008602090815260409182902080548351601f60027fffffffffffffffffffffffffffffffffffffffffffffffffffffffffffffffff610100600186161502019093169290920491820184900484028101840190945280845260609392830182828015610cfd5780601f10610cd257610100808354040283529160200191610cfd565b820191906000526020600020905b815481529060010190602001808311610ce057829003601f168201915b50505050509050805160001415610d245750506040805160208101909152600081526104d4565b6007816040516020018083805460018160011615610100020316600290048015610d855780601f10610d63576101008083540402835291820191610d85565b820191906000526020600020905b815481529060010190602001808311610d71575b5050825160208401908083835b60208310610dcf57805182527fffffffffffffffffffffffffffffffffffffffffffffffffffffffffffffffe09092019160209182019101610d92565b6001836020036101000a038019825116818451168082178552505050505050905001925050506040516020818303038152906040529150506104d4565b73ffffffffffffffffffffffffffffffffffffffff918216600090815260046020908152604080832093909416825291909152205460ff1690565b60009081526001602052604090205473ffffffffffffffffffffffffffffffffffffffff16151590565b3390565b600081815260026020526040902080547fffffffffffffffffffffffff00000000000000000000000000000000000000001673ffffffffffffffffffffffffffffffffffffffff84169081179091558190610ecf826107e6565b73ffffffffffffffffffffffffffffffffffffffff167f8c5be1e5ebec7d5bd14f71427d1e84f3dd0314c0f7b2291e5b200ac8c7c3b92560405160405180910390a45050565b6000610f2082610e47565b610f75576040517f08c379a000000000000000000000000000000000000000000000000000000000815260040180806020018281038252602c815260200180611849602c913960400191505060405180910390fd5b6000610f80836107e6565b90508073ffffffffffffffffffffffffffffffffffffffff168473ffffffffffffffffffffffffffffffffffffffff161480610fef57508373ffffffffffffffffffffffffffffffffffffffff16610fd78461058e565b73ffffffffffffffffffffffffffffffffffffffff16145b80610fff5750610fff8185610e0c565b949350505050565b8273ffffffffffffffffffffffffffffffffffffffff16611027826107e6565b73ffffffffffffffffffffffffffffffffffffffff1614611093576040517f08c379a000000000000000000000000000000000000000000000000000000000815260040180806020018281038252602981526020018061192c6029913960400191505060405180910390fd5b73ffffffffffffffffffffffffffffffffffffffff82166110ff576040517f08c379a00000000000000000000000000000000000000000000000000000000081526004018080602001828103825260248152602001806118256024913960400191505060405180910390fd5b61110a838383611262565b611115600082610e75565b73ffffffffffffffffffffffffffffffffffffffff83166000908152600360205260409020611143906112e4565b73ffffffffffffffffffffffffffffffffffffffff82166000908152600360205260409020611171906112fb565b60008181526001602052604080822080547fffffffffffffffffffffffff00000000000000000000000000000000000000001673ffffffffffffffffffffffffffffffffffffffff86811691821790925591518493918716917fddf252ad1be2c89b69c2b068fc378daa952ba7f163c4a11628f55a4df523b3ef91a4505050565b5490565b611201848484611007565b61120d84848484611304565b610be4576040517f08c379a00000000000000000000000000000000000000000000000000000000081526004018080602001828103825260328152602001806117f36032913960400191505060405180910390fd5b61126d838383610755565b73ffffffffffffffffffffffffffffffffffffffff82166107555760008181526008602052604090205460027fffffffffffffffffffffffffffffffffffffffffffffffffffffffffffffffff6101006001841615020190911604156107555760008181526008602052604081206107559161178d565b80546112f790600163ffffffff61165a16565b9055565b80546001019055565b60006113258473ffffffffffffffffffffffffffffffffffffffff166116a3565b61133157506001610fff565b6000606073ffffffffffffffffffffffffffffffffffffffff86167f150b7a0200000000000000000000000000000000000000000000000000000000611375610e71565b898888604051602401808573ffffffffffffffffffffffffffffffffffffffff1673ffffffffffffffffffffffffffffffffffffffff1681526020018473ffffffffffffffffffffffffffffffffffffffff1673ffffffffffffffffffffffffffffffffffffffff16815260200183815260200180602001828103825283818151815260200191508051906020019080838360005b8381101561142257818101518382015260200161140a565b50505050905090810190601f16801561144f5780820380516001836020036101000a031916815260200191505b50604080517fffffffffffffffffffffffffffffffffffffffffffffffffffffffffffffffe08184030181529181526020820180517bffffffffffffffffffffffffffffffffffffffffffffffffffffffff167fffffffff00000000000000000000000000000000000000000000000000000000909a16999099178952518151919890975087965094509250829150849050835b6020831061152057805182527fffffffffffffffffffffffffffffffffffffffffffffffffffffffffffffffe090920191602091820191016114e3565b6001836020036101000a0380198251168184511680821785525050505050509050019150506000604051808303816000865af19150503d8060008114611582576040519150601f19603f3d011682016040523d82523d6000602084013e611587565b606091505b5091509150816115f2578051156115a15780518082602001fd5b6040517f08c379a00000000000000000000000000000000000000000000000000000000081526004018080602001828103825260328152602001806117f36032913960400191505060405180910390fd5b600081806020019051602081101561160957600080fd5b50517fffffffff00000000000000000000000000000000000000000000000000000000167f150b7a0200000000000000000000000000000000000000000000000000000000149350610fff92505050565b600061169c83836040518060400160405280601e81526020017f536166654d6174683a207375627472616374696f6e206f766572666c6f7700008152506116dc565b9392505050565b6000813f7fc5d2460186f7233c927e7db2dcc703c0e500b653ca82273b7bfad8045d85a470818114801590610fff575050151592915050565b60008184841115611785576040517f08c379a00000000000000000000000000000000000000000000000000000000081526004018080602001828103825283818151815260200191508051906020019080838360005b8381101561174a578181015183820152602001611732565b50505050905090810190601f1680156117775780820380516001836020036101000a031916815260200191505b509250505060405180910390fd5b505050900390565b50805460018160011615610100020316600290046000825580601f106117b357506117d1565b601f0160209004906000526020600020908101906117d191906117d4565b50565b61058b91905b808211156117ee57600081556001016117da565b509056fe4552433732313a207472616e7366657220746f206e6f6e20455243373231526563656976657220696d706c656d656e7465724552433732313a207472616e7366657220746f20746865207a65726f20616464726573734552433732313a206f70657261746f7220717565727920666f72206e6f6e6578697374656e7420746f6b656e4552433732313a20617070726f76652063616c6c6572206973206e6f74206f776e6572206e6f7220617070726f76656420666f7220616c6c4552433732313a2062616c616e636520717565727920666f7220746865207a65726f20616464726573734552433732313a206f776e657220717565727920666f72206e6f6e6578697374656e7420746f6b656e4552433732313a20617070726f76656420717565727920666f72206e6f6e6578697374656e7420746f6b656e4552433732313a207472616e73666572206f6620746f6b656e2074686174206973206e6f74206f776e4552433732314d657461646174613a2055524920717565727920666f72206e6f6e6578697374656e7420746f6b656e4552433732313a20617070726f76616c20746f2063757272656e74206f776e65724552433732313a207472616e736665722063616c6c6572206973206e6f74206f776e6572206e6f7220617070726f766564a2646970667358221220209e673b620820f324b14a24143e562c62bc033e820dbcb351bc2c07ce33917b64736f6c63430006040033",
  "source": "pragma solidity ^0.6.0;\n\nimport \"../../GSN/Context.sol\";\nimport \"./ERC721.sol\";\nimport \"./IERC721Metadata.sol\";\nimport \"../../introspection/ERC165.sol\";\n\ncontract ERC721Metadata is Context, ERC165, ERC721, IERC721Metadata {\n    // Token name\n    string private _name;\n\n    // Token symbol\n    string private _symbol;\n\n    // Base URI\n    string private _baseURI;\n\n    // Optional mapping for token URIs\n    mapping(uint256 => string) private _tokenURIs;\n\n    /*\n     *     bytes4(keccak256('name()')) == 0x06fdde03\n     *     bytes4(keccak256('symbol()')) == 0x95d89b41\n     *     bytes4(keccak256('tokenURI(uint256)')) == 0xc87b56dd\n     *\n     *     => 0x06fdde03 ^ 0x95d89b41 ^ 0xc87b56dd == 0x5b5e139f\n     */\n    bytes4 private constant _INTERFACE_ID_ERC721_METADATA = 0x5b5e139f;\n\n    /**\n     * @dev Constructor function\n     */\n    constructor (string memory name, string memory symbol) public {\n        _name = name;\n        _symbol = symbol;\n\n        // register the supported interfaces to conform to ERC721 via ERC165\n        _registerInterface(_INTERFACE_ID_ERC721_METADATA);\n    }\n\n    /**\n     * @dev Gets the token name.\n     * @return string representing the token name\n     */\n    function name() external view override returns (string memory) {\n        return _name;\n    }\n\n    /**\n     * @dev Gets the token symbol.\n     * @return string representing the token symbol\n     */\n    function symbol() external view override returns (string memory) {\n        return _symbol;\n    }\n\n    /**\n     * @dev Returns the URI for a given token ID. May return an empty string.\n     *\n     * If the token's URI is non-empty and a base URI was set (via\n     * {_setBaseURI}), it will be added to the token ID's URI as a prefix.\n     *\n     * Reverts if the token ID does not exist.\n     */\n    function tokenURI(uint256 tokenId) external view override returns (string memory) {\n        require(_exists(tokenId), \"ERC721Metadata: URI query for nonexistent token\");\n\n        string memory _tokenURI = _tokenURIs[tokenId];\n\n        // Even if there is a base URI, it is only appended to non-empty token-specific URIs\n        if (bytes(_tokenURI).length == 0) {\n            return \"\";\n        } else {\n            // abi.encodePacked is being used to concatenate strings\n            return string(abi.encodePacked(_baseURI, _tokenURI));\n        }\n    }\n\n    /**\n     * @dev Internal function to set the token URI for a given token.\n     *\n     * Reverts if the token ID does not exist.\n     *\n     * TIP: if all token IDs share a prefix (e.g. if your URIs look like\n     * `http://api.myproject.com/token/<id>`), use {_setBaseURI} to store\n     * it and save gas.\n     */\n    function _setTokenURI(uint256 tokenId, string memory _tokenURI) internal virtual {\n        require(_exists(tokenId), \"ERC721Metadata: URI set of nonexistent token\");\n        _tokenURIs[tokenId] = _tokenURI;\n    }\n\n    /**\n     * @dev Internal function to set the base URI for all token IDs. It is\n     * automatically added as a prefix to the value returned in {tokenURI}.\n     *\n     * _Available since v2.5.0._\n     */\n    function _setBaseURI(string memory baseURI) internal virtual {\n        _baseURI = baseURI;\n    }\n\n    /**\n    * @dev Returns the base URI set via {_setBaseURI}. This will be\n    * automatically added as a preffix in {tokenURI} to each token's URI, when\n    * they are non-empty.\n    *\n    * _Available since v2.5.0._\n    */\n    function baseURI() external view returns (string memory) {\n        return _baseURI;\n    }\n\n\n    function _beforeTokenTransfer(address from, address to, uint256 tokenId) internal virtual override {\n        super._beforeTokenTransfer(from, to, tokenId);\n\n        if (to == address(0)) { // When burning tokens\n            // Clear metadata (if any)\n            if (bytes(_tokenURIs[tokenId]).length != 0) {\n                delete _tokenURIs[tokenId];\n            }\n        }\n    }\n}\n",
  "sourcePath": "/home/alessandrovm/JarvisLavoro/SynFiat/packages/contracts/contracts/@openzeppelin/contracts/token/ERC721/ERC721Metadata.sol",
  "compiler": {
    "name": "solc",
    "version": "0.6.4+commit.1dca32f3.Emscripten.clang"
  },
  "schemaVersion": "3.2.0",
  "updatedAt": "2020-06-09T12:52:48.840Z",
  "devdoc": {
    "methods": {
      "approve(address,uint256)": {
        "details": "Approves another address to transfer the given token ID The zero address indicates there is no approved address. There can only be one approved address per token at a given time. Can only be called by the token owner or an approved operator.",
        "params": {
          "to": "address to be approved for the given token ID",
          "tokenId": "uint256 ID of the token to be approved"
        }
      },
      "balanceOf(address)": {
        "details": "Gets the balance of the specified address.",
        "params": {
          "owner": "address to query the balance of"
        },
        "returns": {
          "_0": "uint256 representing the amount owned by the passed address"
        }
      },
      "baseURI()": {
        "details": "Returns the base URI set via {_setBaseURI}. This will be automatically added as a preffix in {tokenURI} to each token's URI, when they are non-empty.    * _Available since v2.5.0._"
      },
      "constructor": {
        "details": "Constructor function"
      },
      "getApproved(uint256)": {
        "details": "Gets the approved address for a token ID, or zero if no address set Reverts if the token ID does not exist.",
        "params": {
          "tokenId": "uint256 ID of the token to query the approval of"
        },
        "returns": {
          "_0": "address currently approved for the given token ID"
        }
      },
      "isApprovedForAll(address,address)": {
        "details": "Tells whether an operator is approved by a given owner.",
        "params": {
          "operator": "operator address which you want to query the approval of",
          "owner": "owner address which you want to query the approval of"
        },
        "returns": {
          "_0": "bool whether the given operator is approved by the given owner"
        }
      },
      "name()": {
        "details": "Gets the token name.",
        "returns": {
          "_0": "string representing the token name"
        }
      },
      "ownerOf(uint256)": {
        "details": "Gets the owner of the specified token ID.",
        "params": {
          "tokenId": "uint256 ID of the token to query the owner of"
        },
        "returns": {
          "_0": "address currently marked as the owner of the given token ID"
        }
      },
      "safeTransferFrom(address,address,uint256)": {
        "details": "Safely transfers the ownership of a given token ID to another address If the target address is a contract, it must implement {IERC721Receiver-onERC721Received}, which is called upon a safe transfer, and return the magic value `bytes4(keccak256(\"onERC721Received(address,address,uint256,bytes)\"))`; otherwise, the transfer is reverted. Requires the msg.sender to be the owner, approved, or operator",
        "params": {
          "from": "current owner of the token",
          "to": "address to receive the ownership of the given token ID",
          "tokenId": "uint256 ID of the token to be transferred"
        }
      },
      "safeTransferFrom(address,address,uint256,bytes)": {
        "details": "Safely transfers the ownership of a given token ID to another address If the target address is a contract, it must implement {IERC721Receiver-onERC721Received}, which is called upon a safe transfer, and return the magic value `bytes4(keccak256(\"onERC721Received(address,address,uint256,bytes)\"))`; otherwise, the transfer is reverted. Requires the _msgSender() to be the owner, approved, or operator",
        "params": {
          "_data": "bytes data to send along with a safe transfer check",
          "from": "current owner of the token",
          "to": "address to receive the ownership of the given token ID",
          "tokenId": "uint256 ID of the token to be transferred"
        }
      },
      "setApprovalForAll(address,bool)": {
        "details": "Sets or unsets the approval of a given operator An operator is allowed to transfer all tokens of the sender on their behalf.",
        "params": {
          "approved": "representing the status of the approval to be set",
          "operator": "operator address to set the approval"
        }
      },
      "supportsInterface(bytes4)": {
        "details": "See {IERC165-supportsInterface}.     * Time complexity O(1), guaranteed to always use less than 30 000 gas."
      },
      "symbol()": {
        "details": "Gets the token symbol.",
        "returns": {
          "_0": "string representing the token symbol"
        }
      },
      "tokenURI(uint256)": {
        "details": "Returns the URI for a given token ID. May return an empty string.     * If the token's URI is non-empty and a base URI was set (via {_setBaseURI}), it will be added to the token ID's URI as a prefix.     * Reverts if the token ID does not exist."
      },
      "transferFrom(address,address,uint256)": {
        "details": "Transfers the ownership of a given token ID to another address. Usage of this method is discouraged, use {safeTransferFrom} whenever possible. Requires the msg.sender to be the owner, approved, or operator.",
        "params": {
          "from": "current owner of the token",
          "to": "address to receive the ownership of the given token ID",
          "tokenId": "uint256 ID of the token to be transferred"
        }
      }
    }
  },
  "userdoc": {
    "methods": {}
  }
}