{
  "contractName": "ERC721Burnable",
  "abi": [
    {
      "anonymous": false,
      "inputs": [
        {
          "indexed": true,
          "internalType": "address",
          "name": "owner",
          "type": "address"
        },
        {
          "indexed": true,
          "internalType": "address",
          "name": "approved",
          "type": "address"
        },
        {
          "indexed": true,
          "internalType": "uint256",
          "name": "tokenId",
          "type": "uint256"
        }
      ],
      "name": "Approval",
      "type": "event"
    },
    {
      "anonymous": false,
      "inputs": [
        {
          "indexed": true,
          "internalType": "address",
          "name": "owner",
          "type": "address"
        },
        {
          "indexed": true,
          "internalType": "address",
          "name": "operator",
          "type": "address"
        },
        {
          "indexed": false,
          "internalType": "bool",
          "name": "approved",
          "type": "bool"
        }
      ],
      "name": "ApprovalForAll",
      "type": "event"
    },
    {
      "anonymous": false,
      "inputs": [
        {
          "indexed": true,
          "internalType": "address",
          "name": "from",
          "type": "address"
        },
        {
          "indexed": true,
          "internalType": "address",
          "name": "to",
          "type": "address"
        },
        {
          "indexed": true,
          "internalType": "uint256",
          "name": "tokenId",
          "type": "uint256"
        }
      ],
      "name": "Transfer",
      "type": "event"
    },
    {
      "inputs": [
        {
          "internalType": "address",
          "name": "to",
          "type": "address"
        },
        {
          "internalType": "uint256",
          "name": "tokenId",
          "type": "uint256"
        }
      ],
      "name": "approve",
      "outputs": [],
      "stateMutability": "nonpayable",
      "type": "function"
    },
    {
      "inputs": [
        {
          "internalType": "address",
          "name": "owner",
          "type": "address"
        }
      ],
      "name": "balanceOf",
      "outputs": [
        {
          "internalType": "uint256",
          "name": "",
          "type": "uint256"
        }
      ],
      "stateMutability": "view",
      "type": "function"
    },
    {
      "inputs": [
        {
          "internalType": "uint256",
          "name": "tokenId",
          "type": "uint256"
        }
      ],
      "name": "getApproved",
      "outputs": [
        {
          "internalType": "address",
          "name": "",
          "type": "address"
        }
      ],
      "stateMutability": "view",
      "type": "function"
    },
    {
      "inputs": [
        {
          "internalType": "address",
          "name": "owner",
          "type": "address"
        },
        {
          "internalType": "address",
          "name": "operator",
          "type": "address"
        }
      ],
      "name": "isApprovedForAll",
      "outputs": [
        {
          "internalType": "bool",
          "name": "",
          "type": "bool"
        }
      ],
      "stateMutability": "view",
      "type": "function"
    },
    {
      "inputs": [
        {
          "internalType": "uint256",
          "name": "tokenId",
          "type": "uint256"
        }
      ],
      "name": "ownerOf",
      "outputs": [
        {
          "internalType": "address",
          "name": "",
          "type": "address"
        }
      ],
      "stateMutability": "view",
      "type": "function"
    },
    {
      "inputs": [
        {
          "internalType": "address",
          "name": "from",
          "type": "address"
        },
        {
          "internalType": "address",
          "name": "to",
          "type": "address"
        },
        {
          "internalType": "uint256",
          "name": "tokenId",
          "type": "uint256"
        }
      ],
      "name": "safeTransferFrom",
      "outputs": [],
      "stateMutability": "nonpayable",
      "type": "function"
    },
    {
      "inputs": [
        {
          "internalType": "address",
          "name": "from",
          "type": "address"
        },
        {
          "internalType": "address",
          "name": "to",
          "type": "address"
        },
        {
          "internalType": "uint256",
          "name": "tokenId",
          "type": "uint256"
        },
        {
          "internalType": "bytes",
          "name": "_data",
          "type": "bytes"
        }
      ],
      "name": "safeTransferFrom",
      "outputs": [],
      "stateMutability": "nonpayable",
      "type": "function"
    },
    {
      "inputs": [
        {
          "internalType": "address",
          "name": "operator",
          "type": "address"
        },
        {
          "internalType": "bool",
          "name": "approved",
          "type": "bool"
        }
      ],
      "name": "setApprovalForAll",
      "outputs": [],
      "stateMutability": "nonpayable",
      "type": "function"
    },
    {
      "inputs": [
        {
          "internalType": "bytes4",
          "name": "interfaceId",
          "type": "bytes4"
        }
      ],
      "name": "supportsInterface",
      "outputs": [
        {
          "internalType": "bool",
          "name": "",
          "type": "bool"
        }
      ],
      "stateMutability": "view",
      "type": "function"
    },
    {
      "inputs": [
        {
          "internalType": "address",
          "name": "from",
          "type": "address"
        },
        {
          "internalType": "address",
          "name": "to",
          "type": "address"
        },
        {
          "internalType": "uint256",
          "name": "tokenId",
          "type": "uint256"
        }
      ],
      "name": "transferFrom",
      "outputs": [],
      "stateMutability": "nonpayable",
      "type": "function"
    },
    {
      "inputs": [
        {
          "internalType": "uint256",
          "name": "tokenId",
          "type": "uint256"
        }
      ],
      "name": "burn",
      "outputs": [],
      "stateMutability": "nonpayable",
      "type": "function"
    }
  ],
  "bytecode": "0x608060405261001d6301ffc9a760e01b6001600160e01b0361003b16565b6100366380ac58cd60e01b6001600160e01b0361003b16565b6100bf565b6001600160e01b0319808216141561009a576040805162461bcd60e51b815260206004820152601c60248201527f4552433136353a20696e76616c696420696e7465726661636520696400000000604482015290519081900360640190fd5b6001600160e01b0319166000908152602081905260409020805460ff19166001179055565b61168c806100ce6000396000f3fe608060405234801561001057600080fd5b50600436106100c95760003560e01c806342966c6811610081578063a22cb4651161005b578063a22cb465146102a7578063b88d4fde146102e2578063e985e9c5146103b5576100c9565b806342966c68146102285780636352211e1461024557806370a0823114610262576100c9565b8063095ea7b3116100b2578063095ea7b31461016757806323b872dd146101a257806342842e0e146101e5576100c9565b806301ffc9a7146100ce578063081812fc14610121575b600080fd5b61010d600480360360208110156100e457600080fd5b50357fffffffff00000000000000000000000000000000000000000000000000000000166103f0565b604080519115158252519081900360200190f35b61013e6004803603602081101561013757600080fd5b5035610427565b6040805173ffffffffffffffffffffffffffffffffffffffff9092168252519081900360200190f35b6101a06004803603604081101561017d57600080fd5b5073ffffffffffffffffffffffffffffffffffffffff81351690602001356104b0565b005b6101a0600480360360608110156101b857600080fd5b5073ffffffffffffffffffffffffffffffffffffffff8135811691602081013590911690604001356105f3565b6101a0600480360360608110156101fb57600080fd5b5073ffffffffffffffffffffffffffffffffffffffff813581169160208101359091169060400135610664565b6101a06004803603602081101561023e57600080fd5b503561067f565b61013e6004803603602081101561025b57600080fd5b50356106eb565b6102956004803603602081101561027857600080fd5b503573ffffffffffffffffffffffffffffffffffffffff1661076c565b60408051918252519081900360200190f35b6101a0600480360360408110156102bd57600080fd5b5073ffffffffffffffffffffffffffffffffffffffff81351690602001351515610808565b6101a0600480360360808110156102f857600080fd5b73ffffffffffffffffffffffffffffffffffffffff82358116926020810135909116916040820135919081019060808101606082013564010000000081111561034057600080fd5b82018360208201111561035257600080fd5b8035906020019184600183028401116401000000008311171561037457600080fd5b91908080601f016020809104026020016040519081016040528093929190818152602001838380828437600092019190915250929550610979945050505050565b61010d600480360360408110156103cb57600080fd5b5073ffffffffffffffffffffffffffffffffffffffff813581169160200135166109f1565b7fffffffff000000000000000000000000000000000000000000000000000000001660009081526020819052604090205460ff1690565b600061043282610a2c565b610487576040517f08c379a000000000000000000000000000000000000000000000000000000000815260040180806020018281038252602c81526020018061155b602c913960400191505060405180910390fd5b5060009081526002602052604090205473ffffffffffffffffffffffffffffffffffffffff1690565b60006104bb826106eb565b90508073ffffffffffffffffffffffffffffffffffffffff168373ffffffffffffffffffffffffffffffffffffffff161415610542576040517f08c379a00000000000000000000000000000000000000000000000000000000081526004018080602001828103825260218152602001806115b06021913960400191505060405180910390fd5b8073ffffffffffffffffffffffffffffffffffffffff16610561610a56565b73ffffffffffffffffffffffffffffffffffffffff16148061058f575061058f8161058a610a56565b6109f1565b6105e4576040517f08c379a00000000000000000000000000000000000000000000000000000000081526004018080602001828103825260388152602001806114d06038913960400191505060405180910390fd5b6105ee8383610a5a565b505050565b6106046105fe610a56565b82610afa565b610659576040517f08c379a00000000000000000000000000000000000000000000000000000000081526004018080602001828103825260318152602001806115d16031913960400191505060405180910390fd5b6105ee838383610bec565b6105ee83838360405180602001604052806000815250610979565b61068a6105fe610a56565b6106df576040517f08c379a00000000000000000000000000000000000000000000000000000000081526004018080602001828103825260308152602001806116276030913960400191505060405180910390fd5b6106e881610dd7565b50565b60008181526001602052604081205473ffffffffffffffffffffffffffffffffffffffff1680610766576040517f08c379a00000000000000000000000000000000000000000000000000000000081526004018080602001828103825260298152602001806115326029913960400191505060405180910390fd5b92915050565b600073ffffffffffffffffffffffffffffffffffffffff82166107da576040517f08c379a000000000000000000000000000000000000000000000000000000000815260040180806020018281038252602a815260200180611508602a913960400191505060405180910390fd5b73ffffffffffffffffffffffffffffffffffffffff8216600090815260036020526040902061076690610de9565b610810610a56565b73ffffffffffffffffffffffffffffffffffffffff168273ffffffffffffffffffffffffffffffffffffffff1614156108aa57604080517f08c379a000000000000000000000000000000000000000000000000000000000815260206004820152601960248201527f4552433732313a20617070726f766520746f2063616c6c657200000000000000604482015290519081900360640190fd5b80600460006108b7610a56565b73ffffffffffffffffffffffffffffffffffffffff90811682526020808301939093526040918201600090812091871680825291909352912080547fffffffffffffffffffffffffffffffffffffffffffffffffffffffffffffff001692151592909217909155610926610a56565b604080518415158152905173ffffffffffffffffffffffffffffffffffffffff92909216917f17307eab39ab6107e8899845ad3d59bd9653f200f220920489ca2b5937696c319181900360200190a35050565b61098a610984610a56565b83610afa565b6109df576040517f08c379a00000000000000000000000000000000000000000000000000000000081526004018080602001828103825260318152602001806115d16031913960400191505060405180910390fd5b6109eb84848484610ded565b50505050565b73ffffffffffffffffffffffffffffffffffffffff918216600090815260046020908152604080832093909416825291909152205460ff1690565b60009081526001602052604090205473ffffffffffffffffffffffffffffffffffffffff16151590565b3390565b600081815260026020526040902080547fffffffffffffffffffffffff00000000000000000000000000000000000000001673ffffffffffffffffffffffffffffffffffffffff84169081179091558190610ab4826106eb565b73ffffffffffffffffffffffffffffffffffffffff167f8c5be1e5ebec7d5bd14f71427d1e84f3dd0314c0f7b2291e5b200ac8c7c3b92560405160405180910390a45050565b6000610b0582610a2c565b610b5a576040517f08c379a000000000000000000000000000000000000000000000000000000000815260040180806020018281038252602c8152602001806114a4602c913960400191505060405180910390fd5b6000610b65836106eb565b90508073ffffffffffffffffffffffffffffffffffffffff168473ffffffffffffffffffffffffffffffffffffffff161480610bd457508373ffffffffffffffffffffffffffffffffffffffff16610bbc84610427565b73ffffffffffffffffffffffffffffffffffffffff16145b80610be45750610be481856109f1565b949350505050565b8273ffffffffffffffffffffffffffffffffffffffff16610c0c826106eb565b73ffffffffffffffffffffffffffffffffffffffff1614610c78576040517f08c379a00000000000000000000000000000000000000000000000000000000081526004018080602001828103825260298152602001806115876029913960400191505060405180910390fd5b73ffffffffffffffffffffffffffffffffffffffff8216610ce4576040517f08c379a00000000000000000000000000000000000000000000000000000000081526004018080602001828103825260248152602001806114806024913960400191505060405180910390fd5b610cef8383836105ee565b610cfa600082610a5a565b73ffffffffffffffffffffffffffffffffffffffff83166000908152600360205260409020610d2890610e59565b73ffffffffffffffffffffffffffffffffffffffff82166000908152600360205260409020610d5690610e70565b60008181526001602052604080822080547fffffffffffffffffffffffff00000000000000000000000000000000000000001673ffffffffffffffffffffffffffffffffffffffff86811691821790925591518493918716917fddf252ad1be2c89b69c2b068fc378daa952ba7f163c4a11628f55a4df523b3ef91a4505050565b6106e8610de3826106eb565b82610e79565b5490565b610df8848484610bec565b610e0484848484610fc4565b6109eb576040517f08c379a000000000000000000000000000000000000000000000000000000000815260040180806020018281038252603281526020018061144e6032913960400191505060405180910390fd5b8054610e6c90600163ffffffff61131a16565b9055565b80546001019055565b8173ffffffffffffffffffffffffffffffffffffffff16610e99826106eb565b73ffffffffffffffffffffffffffffffffffffffff1614610f05576040517f08c379a00000000000000000000000000000000000000000000000000000000081526004018080602001828103825260258152602001806116026025913960400191505060405180910390fd5b610f11826000836105ee565b610f1c600082610a5a565b73ffffffffffffffffffffffffffffffffffffffff82166000908152600360205260409020610f4a90610e59565b60008181526001602052604080822080547fffffffffffffffffffffffff00000000000000000000000000000000000000001690555182919073ffffffffffffffffffffffffffffffffffffffff8516907fddf252ad1be2c89b69c2b068fc378daa952ba7f163c4a11628f55a4df523b3ef908390a45050565b6000610fe58473ffffffffffffffffffffffffffffffffffffffff16611363565b610ff157506001610be4565b6000606073ffffffffffffffffffffffffffffffffffffffff86167f150b7a0200000000000000000000000000000000000000000000000000000000611035610a56565b898888604051602401808573ffffffffffffffffffffffffffffffffffffffff1673ffffffffffffffffffffffffffffffffffffffff1681526020018473ffffffffffffffffffffffffffffffffffffffff1673ffffffffffffffffffffffffffffffffffffffff16815260200183815260200180602001828103825283818151815260200191508051906020019080838360005b838110156110e25781810151838201526020016110ca565b50505050905090810190601f16801561110f5780820380516001836020036101000a031916815260200191505b50604080517fffffffffffffffffffffffffffffffffffffffffffffffffffffffffffffffe08184030181529181526020820180517bffffffffffffffffffffffffffffffffffffffffffffffffffffffff167fffffffff00000000000000000000000000000000000000000000000000000000909a16999099178952518151919890975087965094509250829150849050835b602083106111e057805182527fffffffffffffffffffffffffffffffffffffffffffffffffffffffffffffffe090920191602091820191016111a3565b6001836020036101000a0380198251168184511680821785525050505050509050019150506000604051808303816000865af19150503d8060008114611242576040519150601f19603f3d011682016040523d82523d6000602084013e611247565b606091505b5091509150816112b2578051156112615780518082602001fd5b6040517f08c379a000000000000000000000000000000000000000000000000000000000815260040180806020018281038252603281526020018061144e6032913960400191505060405180910390fd5b60008180602001905160208110156112c957600080fd5b50517fffffffff00000000000000000000000000000000000000000000000000000000167f150b7a0200000000000000000000000000000000000000000000000000000000149350610be492505050565b600061135c83836040518060400160405280601e81526020017f536166654d6174683a207375627472616374696f6e206f766572666c6f77000081525061139c565b9392505050565b6000813f7fc5d2460186f7233c927e7db2dcc703c0e500b653ca82273b7bfad8045d85a470818114801590610be4575050151592915050565b60008184841115611445576040517f08c379a00000000000000000000000000000000000000000000000000000000081526004018080602001828103825283818151815260200191508051906020019080838360005b8381101561140a5781810151838201526020016113f2565b50505050905090810190601f1680156114375780820380516001836020036101000a031916815260200191505b509250505060405180910390fd5b50505090039056fe4552433732313a207472616e7366657220746f206e6f6e20455243373231526563656976657220696d706c656d656e7465724552433732313a207472616e7366657220746f20746865207a65726f20616464726573734552433732313a206f70657261746f7220717565727920666f72206e6f6e6578697374656e7420746f6b656e4552433732313a20617070726f76652063616c6c6572206973206e6f74206f776e6572206e6f7220617070726f76656420666f7220616c6c4552433732313a2062616c616e636520717565727920666f7220746865207a65726f20616464726573734552433732313a206f776e657220717565727920666f72206e6f6e6578697374656e7420746f6b656e4552433732313a20617070726f76656420717565727920666f72206e6f6e6578697374656e7420746f6b656e4552433732313a207472616e73666572206f6620746f6b656e2074686174206973206e6f74206f776e4552433732313a20617070726f76616c20746f2063757272656e74206f776e65724552433732313a207472616e736665722063616c6c6572206973206e6f74206f776e6572206e6f7220617070726f7665644552433732313a206275726e206f6620746f6b656e2074686174206973206e6f74206f776e4552433732314275726e61626c653a2063616c6c6572206973206e6f74206f776e6572206e6f7220617070726f766564a2646970667358221220de6decd55ff128fce7d56b91f35bc364afd60c5886ca2348c7aa09415514384b64736f6c63430006040033",
  "source": "pragma solidity ^0.6.0;\n\nimport \"../../GSN/Context.sol\";\nimport \"./ERC721.sol\";\n\n/**\n * @title ERC721 Burnable Token\n * @dev ERC721 Token that can be irreversibly burned (destroyed).\n */\ncontract ERC721Burnable is Context, ERC721 {\n    /**\n     * @dev Burns a specific ERC721 token.\n     * @param tokenId uint256 id of the ERC721 token to be burned.\n     */\n    function burn(uint256 tokenId) public virtual {\n        //solhint-disable-next-line max-line-length\n        require(_isApprovedOrOwner(_msgSender(), tokenId), \"ERC721Burnable: caller is not owner nor approved\");\n        _burn(tokenId);\n    }\n}\n",
  "sourcePath": "/home/alessandrovm/JarvisLavoro/SynFiat/packages/contracts/contracts/@openzeppelin/contracts/token/ERC721/ERC721Burnable.sol",
  "compiler": {
    "name": "solc",
    "version": "0.6.4+commit.1dca32f3.Emscripten.clang"
  },
  "schemaVersion": "3.2.0",
  "updatedAt": "2020-06-09T12:52:48.793Z",
  "devdoc": {
    "details": "ERC721 Token that can be irreversibly burned (destroyed).",
    "methods": {
      "approve(address,uint256)": {
        "details": "Approves another address to transfer the given token ID The zero address indicates there is no approved address. There can only be one approved address per token at a given time. Can only be called by the token owner or an approved operator.",
        "params": {
          "to": "address to be approved for the given token ID",
          "tokenId": "uint256 ID of the token to be approved"
        }
      },
      "balanceOf(address)": {
        "details": "Gets the balance of the specified address.",
        "params": {
          "owner": "address to query the balance of"
        },
        "returns": {
          "_0": "uint256 representing the amount owned by the passed address"
        }
      },
      "burn(uint256)": {
        "details": "Burns a specific ERC721 token.",
        "params": {
          "tokenId": "uint256 id of the ERC721 token to be burned."
        }
      },
      "getApproved(uint256)": {
        "details": "Gets the approved address for a token ID, or zero if no address set Reverts if the token ID does not exist.",
        "params": {
          "tokenId": "uint256 ID of the token to query the approval of"
        },
        "returns": {
          "_0": "address currently approved for the given token ID"
        }
      },
      "isApprovedForAll(address,address)": {
        "details": "Tells whether an operator is approved by a given owner.",
        "params": {
          "operator": "operator address which you want to query the approval of",
          "owner": "owner address which you want to query the approval of"
        },
        "returns": {
          "_0": "bool whether the given operator is approved by the given owner"
        }
      },
      "ownerOf(uint256)": {
        "details": "Gets the owner of the specified token ID.",
        "params": {
          "tokenId": "uint256 ID of the token to query the owner of"
        },
        "returns": {
          "_0": "address currently marked as the owner of the given token ID"
        }
      },
      "safeTransferFrom(address,address,uint256)": {
        "details": "Safely transfers the ownership of a given token ID to another address If the target address is a contract, it must implement {IERC721Receiver-onERC721Received}, which is called upon a safe transfer, and return the magic value `bytes4(keccak256(\"onERC721Received(address,address,uint256,bytes)\"))`; otherwise, the transfer is reverted. Requires the msg.sender to be the owner, approved, or operator",
        "params": {
          "from": "current owner of the token",
          "to": "address to receive the ownership of the given token ID",
          "tokenId": "uint256 ID of the token to be transferred"
        }
      },
      "safeTransferFrom(address,address,uint256,bytes)": {
        "details": "Safely transfers the ownership of a given token ID to another address If the target address is a contract, it must implement {IERC721Receiver-onERC721Received}, which is called upon a safe transfer, and return the magic value `bytes4(keccak256(\"onERC721Received(address,address,uint256,bytes)\"))`; otherwise, the transfer is reverted. Requires the _msgSender() to be the owner, approved, or operator",
        "params": {
          "_data": "bytes data to send along with a safe transfer check",
          "from": "current owner of the token",
          "to": "address to receive the ownership of the given token ID",
          "tokenId": "uint256 ID of the token to be transferred"
        }
      },
      "setApprovalForAll(address,bool)": {
        "details": "Sets or unsets the approval of a given operator An operator is allowed to transfer all tokens of the sender on their behalf.",
        "params": {
          "approved": "representing the status of the approval to be set",
          "operator": "operator address to set the approval"
        }
      },
      "supportsInterface(bytes4)": {
        "details": "See {IERC165-supportsInterface}.     * Time complexity O(1), guaranteed to always use less than 30 000 gas."
      },
      "transferFrom(address,address,uint256)": {
        "details": "Transfers the ownership of a given token ID to another address. Usage of this method is discouraged, use {safeTransferFrom} whenever possible. Requires the msg.sender to be the owner, approved, or operator.",
        "params": {
          "from": "current owner of the token",
          "to": "address to receive the ownership of the given token ID",
          "tokenId": "uint256 ID of the token to be transferred"
        }
      }
    },
    "title": "ERC721 Burnable Token"
  },
  "userdoc": {
    "methods": {}
  }
}