{
  "contractName": "ExpandedERC20",
  "abi": [
    {
      "inputs": [],
      "stateMutability": "nonpayable",
      "type": "constructor"
    },
    {
      "anonymous": false,
      "inputs": [
        {
          "indexed": true,
          "internalType": "address",
          "name": "owner",
          "type": "address"
        },
        {
          "indexed": true,
          "internalType": "address",
          "name": "spender",
          "type": "address"
        },
        {
          "indexed": false,
          "internalType": "uint256",
          "name": "value",
          "type": "uint256"
        }
      ],
      "name": "Approval",
      "type": "event"
    },
    {
      "anonymous": false,
      "inputs": [
        {
          "indexed": true,
          "internalType": "address",
          "name": "from",
          "type": "address"
        },
        {
          "indexed": true,
          "internalType": "address",
          "name": "to",
          "type": "address"
        },
        {
          "indexed": false,
          "internalType": "uint256",
          "name": "value",
          "type": "uint256"
        }
      ],
      "name": "Transfer",
      "type": "event"
    },
    {
      "inputs": [
        {
          "internalType": "uint256",
          "name": "roleId",
          "type": "uint256"
        },
        {
          "internalType": "address",
          "name": "newMember",
          "type": "address"
        }
      ],
      "name": "addMember",
      "outputs": [],
      "stateMutability": "nonpayable",
      "type": "function"
    },
    {
      "inputs": [
        {
          "internalType": "address",
          "name": "owner",
          "type": "address"
        },
        {
          "internalType": "address",
          "name": "spender",
          "type": "address"
        }
      ],
      "name": "allowance",
      "outputs": [
        {
          "internalType": "uint256",
          "name": "",
          "type": "uint256"
        }
      ],
      "stateMutability": "view",
      "type": "function"
    },
    {
      "inputs": [
        {
          "internalType": "address",
          "name": "spender",
          "type": "address"
        },
        {
          "internalType": "uint256",
          "name": "amount",
          "type": "uint256"
        }
      ],
      "name": "approve",
      "outputs": [
        {
          "internalType": "bool",
          "name": "",
          "type": "bool"
        }
      ],
      "stateMutability": "nonpayable",
      "type": "function"
    },
    {
      "inputs": [
        {
          "internalType": "address",
          "name": "account",
          "type": "address"
        }
      ],
      "name": "balanceOf",
      "outputs": [
        {
          "internalType": "uint256",
          "name": "",
          "type": "uint256"
        }
      ],
      "stateMutability": "view",
      "type": "function"
    },
    {
      "inputs": [
        {
          "internalType": "address",
          "name": "spender",
          "type": "address"
        },
        {
          "internalType": "uint256",
          "name": "subtractedValue",
          "type": "uint256"
        }
      ],
      "name": "decreaseAllowance",
      "outputs": [
        {
          "internalType": "bool",
          "name": "",
          "type": "bool"
        }
      ],
      "stateMutability": "nonpayable",
      "type": "function"
    },
    {
      "inputs": [
        {
          "internalType": "uint256",
          "name": "roleId",
          "type": "uint256"
        }
      ],
      "name": "getMember",
      "outputs": [
        {
          "internalType": "address",
          "name": "",
          "type": "address"
        }
      ],
      "stateMutability": "view",
      "type": "function"
    },
    {
      "inputs": [
        {
          "internalType": "uint256",
          "name": "roleId",
          "type": "uint256"
        },
        {
          "internalType": "address",
          "name": "memberToCheck",
          "type": "address"
        }
      ],
      "name": "holdsRole",
      "outputs": [
        {
          "internalType": "bool",
          "name": "",
          "type": "bool"
        }
      ],
      "stateMutability": "view",
      "type": "function"
    },
    {
      "inputs": [
        {
          "internalType": "address",
          "name": "spender",
          "type": "address"
        },
        {
          "internalType": "uint256",
          "name": "addedValue",
          "type": "uint256"
        }
      ],
      "name": "increaseAllowance",
      "outputs": [
        {
          "internalType": "bool",
          "name": "",
          "type": "bool"
        }
      ],
      "stateMutability": "nonpayable",
      "type": "function"
    },
    {
      "inputs": [
        {
          "internalType": "uint256",
          "name": "roleId",
          "type": "uint256"
        },
        {
          "internalType": "address",
          "name": "memberToRemove",
          "type": "address"
        }
      ],
      "name": "removeMember",
      "outputs": [],
      "stateMutability": "nonpayable",
      "type": "function"
    },
    {
      "inputs": [
        {
          "internalType": "uint256",
          "name": "roleId",
          "type": "uint256"
        },
        {
          "internalType": "address",
          "name": "newMember",
          "type": "address"
        }
      ],
      "name": "resetMember",
      "outputs": [],
      "stateMutability": "nonpayable",
      "type": "function"
    },
    {
      "inputs": [],
      "name": "totalSupply",
      "outputs": [
        {
          "internalType": "uint256",
          "name": "",
          "type": "uint256"
        }
      ],
      "stateMutability": "view",
      "type": "function"
    },
    {
      "inputs": [
        {
          "internalType": "address",
          "name": "recipient",
          "type": "address"
        },
        {
          "internalType": "uint256",
          "name": "amount",
          "type": "uint256"
        }
      ],
      "name": "transfer",
      "outputs": [
        {
          "internalType": "bool",
          "name": "",
          "type": "bool"
        }
      ],
      "stateMutability": "nonpayable",
      "type": "function"
    },
    {
      "inputs": [
        {
          "internalType": "address",
          "name": "sender",
          "type": "address"
        },
        {
          "internalType": "address",
          "name": "recipient",
          "type": "address"
        },
        {
          "internalType": "uint256",
          "name": "amount",
          "type": "uint256"
        }
      ],
      "name": "transferFrom",
      "outputs": [
        {
          "internalType": "bool",
          "name": "",
          "type": "bool"
        }
      ],
      "stateMutability": "nonpayable",
      "type": "function"
    },
    {
      "inputs": [
        {
          "internalType": "address",
          "name": "recipient",
          "type": "address"
        },
        {
          "internalType": "uint256",
          "name": "value",
          "type": "uint256"
        }
      ],
      "name": "mint",
      "outputs": [
        {
          "internalType": "bool",
          "name": "",
          "type": "bool"
        }
      ],
      "stateMutability": "nonpayable",
      "type": "function"
    },
    {
      "inputs": [
        {
          "internalType": "uint256",
          "name": "value",
          "type": "uint256"
        }
      ],
      "name": "burn",
      "outputs": [],
      "stateMutability": "nonpayable",
      "type": "function"
    }
  ],
  "bytecode": "0x60806040523480156200001157600080fd5b5062000029600080336001600160e01b036200005816565b6200004660015b6040805160008082526020820190925262000173565b62000052600262000030565b62000369565b826000808281526003602052604090206001015460ff1660028111156200007b57fe5b14620000ce576040805162461bcd60e51b815260206004820152601e60248201527f43616e6e6f74207573652061207072652d6578697374696e6720726f6c650000604482015290519081900360640190fd5b60008481526003602052604090206001808201805460ff1916828002179055508381556200010c600282018462000286602090811b620014a717901c565b60008481526003602052604081206001015460ff1660028111156200012d57fe5b14156200016c5760405162461bcd60e51b815260040180806020018281038252603c81526020018062001a99603c913960400191505060405180910390fd5b5050505050565b826000808281526003602052604090206001015460ff1660028111156200019657fe5b14620001e9576040805162461bcd60e51b815260206004820152601e60248201527f43616e6e6f74207573652061207072652d6578697374696e6720726f6c650000604482015290519081900360640190fd5b600084815260036020818152604090922060018101805460ff191660021790558581559162000226918301908590620014b16200029f821b17901c565b60008481526003602052604081206001015460ff1660028111156200024757fe5b14156200016c5760405162461bcd60e51b815260040180806020018281038252603881526020018062001af86038913960400191505060405180910390fd5b6200029b82826001600160e01b03620002e016565b5050565b60005b8151811015620002db57620002d283838381518110620002be57fe5b60200260200101516200034460201b60201c565b600101620002a2565b505050565b6001600160a01b038116620003275760405162461bcd60e51b815260040180806020018281038252602381526020018062001ad56023913960400191505060405180910390fd5b81546001600160a01b0319166001600160a01b0391909116179055565b6001600160a01b0316600090815260209190915260409020805460ff19166001179055565b61172080620003796000396000f3fe608060405234801561001057600080fd5b50600436106100f55760003560e01c806370a0823111610097578063a9059cbb11610066578063a9059cbb1461034c578063ab3545e514610385578063d97c05be146103cb578063dd62ed3e14610404576100f5565b806370a082311461026e57806374d0a676146102a15780637cdc1cb9146102da578063a457c2d714610313576100f5565b806339509351116100d357806339509351146101a457806340c10f19146101dd57806342966c68146102165780636be7658b14610235576100f5565b8063095ea7b3146100fa57806318160ddd1461014757806323b872dd14610161575b600080fd5b6101336004803603604081101561011057600080fd5b5073ffffffffffffffffffffffffffffffffffffffff813516906020013561043f565b604080519115158252519081900360200190f35b61014f61045d565b60408051918252519081900360200190f35b6101336004803603606081101561017757600080fd5b5073ffffffffffffffffffffffffffffffffffffffff813581169160208101359091169060400135610463565b610133600480360360408110156101ba57600080fd5b5073ffffffffffffffffffffffffffffffffffffffff813516906020013561050a565b610133600480360360408110156101f357600080fd5b5073ffffffffffffffffffffffffffffffffffffffff813516906020013561056b565b6102336004803603602081101561022c57600080fd5b50356105d8565b005b6102336004803603604081101561024b57600080fd5b508035906020013573ffffffffffffffffffffffffffffffffffffffff16610647565b61014f6004803603602081101561028457600080fd5b503573ffffffffffffffffffffffffffffffffffffffff16610758565b610233600480360360408110156102b757600080fd5b508035906020013573ffffffffffffffffffffffffffffffffffffffff16610780565b610133600480360360408110156102f057600080fd5b508035906020013573ffffffffffffffffffffffffffffffffffffffff1661088b565b6101336004803603604081101561032957600080fd5b5073ffffffffffffffffffffffffffffffffffffffff8135169060200135610963565b6101336004803603604081101561036257600080fd5b5073ffffffffffffffffffffffffffffffffffffffff81351690602001356109de565b6103a26004803603602081101561039b57600080fd5b50356109f2565b6040805173ffffffffffffffffffffffffffffffffffffffff9092168252519081900360200190f35b610233600480360360408110156103e157600080fd5b508035906020013573ffffffffffffffffffffffffffffffffffffffff16610a8e565b61014f6004803603604081101561041a57600080fd5b5073ffffffffffffffffffffffffffffffffffffffff81358116916020013516610b98565b600061045361044c610bd0565b8484610bd4565b5060015b92915050565b60025490565b6000610470848484610d1b565b6105008461047c610bd0565b6104fb856040518060600160405280602881526020016115ed6028913973ffffffffffffffffffffffffffffffffffffffff8a166000908152600160205260408120906104c7610bd0565b73ffffffffffffffffffffffffffffffffffffffff168152602081019190915260400160002054919063ffffffff610ef716565b610bd4565b5060019392505050565b6000610453610517610bd0565b846104fb8560016000610528610bd0565b73ffffffffffffffffffffffffffffffffffffffff908116825260208083019390935260409182016000908120918c16815292529020549063ffffffff610fa816565b60006001610579813361088b565b6105ce576040517f08c379a00000000000000000000000000000000000000000000000000000000081526004018080602001828103825260228152602001806115cb6022913960400191505060405180910390fd5b610500848461101c565b60026105e4813361088b565b610639576040517f08c379a00000000000000000000000000000000000000000000000000000000081526004018080602001828103825260228152602001806115cb6022913960400191505060405180910390fd5b6106433383611159565b5050565b81600260008281526003602052604090206001015460ff16600281111561066a57fe5b146106c0576040517f08c379a000000000000000000000000000000000000000000000000000000000815260040180806020018281038252602c81526020018061159f602c913960400191505060405180910390fd5b60008381526003602052604090205483906106db903361088b565b610730576040517f08c379a00000000000000000000000000000000000000000000000000000000081526004018080602001828103825260248152602001806116a26024913960400191505060405180910390fd5b600084815260036020819052604090912061075291018463ffffffff6112af16565b50505050565b73ffffffffffffffffffffffffffffffffffffffff1660009081526020819052604090205490565b81600260008281526003602052604090206001015460ff1660028111156107a357fe5b146107f9576040517f08c379a000000000000000000000000000000000000000000000000000000000815260040180806020018281038252602c81526020018061159f602c913960400191505060405180910390fd5b6000838152600360205260409020548390610814903361088b565b610869576040517f08c379a00000000000000000000000000000000000000000000000000000000081526004018080602001828103825260248152602001806116a26024913960400191505060405180910390fd5b600084815260036020819052604090912061075291018463ffffffff6112fc16565b600082815260036020526040812060018082015460ff1660028111156108ad57fe5b14156108ce576108c6600282018463ffffffff61134c16565b915050610457565b6002600182015460ff1660028111156108e357fe5b14156108fc576108c6600382018463ffffffff61136c16565b604080517f08c379a000000000000000000000000000000000000000000000000000000000815260206004820152600e60248201527f496e76616c696420726f6c654964000000000000000000000000000000000000604482015290519081900360640190fd5b6000610453610970610bd0565b846104fb856040518060600160405280602581526020016116c6602591396001600061099a610bd0565b73ffffffffffffffffffffffffffffffffffffffff908116825260208083019390935260409182016000908120918d1681529252902054919063ffffffff610ef716565b60006104536109eb610bd0565b8484610d1b565b600081600160008281526003602052604090206001015460ff166002811115610a1757fe5b14610a6d576040517f08c379a000000000000000000000000000000000000000000000000000000000815260040180806020018281038252602f815260200180611570602f913960400191505060405180910390fd5b6000838152600360205260409020610a8790600201611398565b9392505050565b81600160008281526003602052604090206001015460ff166002811115610ab157fe5b14610b07576040517f08c379a000000000000000000000000000000000000000000000000000000000815260040180806020018281038252602f815260200180611570602f913960400191505060405180910390fd5b6000838152600360205260409020548390610b22903361088b565b610b77576040517f08c379a00000000000000000000000000000000000000000000000000000000081526004018080602001828103825260248152602001806116a26024913960400191505060405180910390fd5b6000848152600360205260409020610752906002018463ffffffff6113b216565b73ffffffffffffffffffffffffffffffffffffffff918216600090815260016020908152604080832093909416825291909152205490565b3390565b73ffffffffffffffffffffffffffffffffffffffff8316610c40576040517f08c379a000000000000000000000000000000000000000000000000000000000815260040180806020018281038252602481526020018061167e6024913960400191505060405180910390fd5b73ffffffffffffffffffffffffffffffffffffffff8216610cac576040517f08c379a00000000000000000000000000000000000000000000000000000000081526004018080602001828103825260228152602001806115286022913960400191505060405180910390fd5b73ffffffffffffffffffffffffffffffffffffffff808416600081815260016020908152604080832094871680845294825291829020859055815185815291517f8c5be1e5ebec7d5bd14f71427d1e84f3dd0314c0f7b2291e5b200ac8c7c3b9259281900390910190a3505050565b73ffffffffffffffffffffffffffffffffffffffff8316610d87576040517f08c379a00000000000000000000000000000000000000000000000000000000081526004018080602001828103825260258152602001806116596025913960400191505060405180910390fd5b73ffffffffffffffffffffffffffffffffffffffff8216610df3576040517f08c379a00000000000000000000000000000000000000000000000000000000081526004018080602001828103825260238152602001806114e36023913960400191505060405180910390fd5b610dfe838383611460565b610e4e8160405180606001604052806026815260200161154a6026913973ffffffffffffffffffffffffffffffffffffffff8616600090815260208190526040902054919063ffffffff610ef716565b73ffffffffffffffffffffffffffffffffffffffff8085166000908152602081905260408082209390935590841681522054610e90908263ffffffff610fa816565b73ffffffffffffffffffffffffffffffffffffffff8084166000818152602081815260409182902094909455805185815290519193928716927fddf252ad1be2c89b69c2b068fc378daa952ba7f163c4a11628f55a4df523b3ef92918290030190a3505050565b60008184841115610fa0576040517f08c379a00000000000000000000000000000000000000000000000000000000081526004018080602001828103825283818151815260200191508051906020019080838360005b83811015610f65578181015183820152602001610f4d565b50505050905090810190601f168015610f925780820380516001836020036101000a031916815260200191505b509250505060405180910390fd5b505050900390565b600082820183811015610a8757604080517f08c379a000000000000000000000000000000000000000000000000000000000815260206004820152601b60248201527f536166654d6174683a206164646974696f6e206f766572666c6f770000000000604482015290519081900360640190fd5b73ffffffffffffffffffffffffffffffffffffffff821661109e57604080517f08c379a000000000000000000000000000000000000000000000000000000000815260206004820152601f60248201527f45524332303a206d696e7420746f20746865207a65726f206164647265737300604482015290519081900360640190fd5b6110aa60008383611460565b6002546110bd908263ffffffff610fa816565b60025573ffffffffffffffffffffffffffffffffffffffff82166000908152602081905260409020546110f6908263ffffffff610fa816565b73ffffffffffffffffffffffffffffffffffffffff83166000818152602081815260408083209490945583518581529351929391927fddf252ad1be2c89b69c2b068fc378daa952ba7f163c4a11628f55a4df523b3ef9281900390910190a35050565b73ffffffffffffffffffffffffffffffffffffffff82166111c5576040517f08c379a00000000000000000000000000000000000000000000000000000000081526004018080602001828103825260218152602001806116156021913960400191505060405180910390fd5b6111d182600083611460565b611221816040518060600160405280602281526020016115066022913973ffffffffffffffffffffffffffffffffffffffff8516600090815260208190526040902054919063ffffffff610ef716565b73ffffffffffffffffffffffffffffffffffffffff831660009081526020819052604090205560025461125a908263ffffffff61146516565b60025560408051828152905160009173ffffffffffffffffffffffffffffffffffffffff8516917fddf252ad1be2c89b69c2b068fc378daa952ba7f163c4a11628f55a4df523b3ef9181900360200190a35050565b73ffffffffffffffffffffffffffffffffffffffff1660009081526020919091526040902080547fffffffffffffffffffffffffffffffffffffffffffffffffffffffffffffff00169055565b73ffffffffffffffffffffffffffffffffffffffff1660009081526020919091526040902080547fffffffffffffffffffffffffffffffffffffffffffffffffffffffffffffff00166001179055565b905473ffffffffffffffffffffffffffffffffffffffff91821691161490565b73ffffffffffffffffffffffffffffffffffffffff166000908152602091909152604090205460ff1690565b5473ffffffffffffffffffffffffffffffffffffffff1690565b73ffffffffffffffffffffffffffffffffffffffff811661141e576040517f08c379a00000000000000000000000000000000000000000000000000000000081526004018080602001828103825260238152602001806116366023913960400191505060405180910390fd5b81547fffffffffffffffffffffffff00000000000000000000000000000000000000001673ffffffffffffffffffffffffffffffffffffffff91909116179055565b505050565b6000610a8783836040518060400160405280601e81526020017f536166654d6174683a207375627472616374696f6e206f766572666c6f770000815250610ef7565b61064382826113b2565b60005b8151811015611460576114da838383815181106114cd57fe5b60200260200101516112fc565b6001016114b456fe45524332303a207472616e7366657220746f20746865207a65726f206164647265737345524332303a206275726e20616d6f756e7420657863656564732062616c616e636545524332303a20617070726f766520746f20746865207a65726f206164647265737345524332303a207472616e7366657220616d6f756e7420657863656564732062616c616e63654d7573742062652063616c6c6564206f6e20616e20696e697469616c697a6564204578636c757369766520726f6c654d7573742062652063616c6c6564206f6e20616e20696e697469616c697a65642053686172656420726f6c6553656e64657220646f6573206e6f7420686f6c6420726571756972656420726f6c6545524332303a207472616e7366657220616d6f756e74206578636565647320616c6c6f77616e636545524332303a206275726e2066726f6d20746865207a65726f206164647265737343616e6e6f742073657420616e206578636c757369766520726f6c6520746f2030783045524332303a207472616e736665722066726f6d20746865207a65726f206164647265737345524332303a20617070726f76652066726f6d20746865207a65726f206164647265737343616e206f6e6c792062652063616c6c6564206279206120726f6c65206d616e6167657245524332303a2064656372656173656420616c6c6f77616e63652062656c6f77207a65726fa264697066735822122077a96c21414175a388a9d729ff2f83d2a5f015a702dbe11979a22499ea79e19064736f6c63430006040033417474656d7074656420746f2075736520616e20696e76616c696420726f6c6520746f206d616e61676520616e206578636c757369766520726f6c6543616e6e6f742073657420616e206578636c757369766520726f6c6520746f20307830417474656d7074656420746f2075736520616e20696e76616c696420726f6c6520746f206d616e61676520612073686172656420726f6c65",
  "source": "pragma solidity ^0.6.0;\n\nimport \"@openzeppelin/contracts/token/ERC20/ERC20.sol\";\nimport \"./MultiRole.sol\";\nimport \"../interfaces/ExpandedIERC20.sol\";\n\n\n/**\n * @title An ERC20 with permissioned burning and minting. The contract deployer will initially\n * be the owner who is capable of adding new roles.\n */\ncontract ExpandedERC20 is ExpandedIERC20, ERC20, MultiRole {\n    enum Roles {\n        // Can set the minter and burner.\n        Owner,\n        // Addresses that can mint new tokens.\n        Minter,\n        // Addresses that can burn tokens that address owns.\n        Burner\n    }\n\n    constructor() public {\n        _createExclusiveRole(uint(Roles.Owner), uint(Roles.Owner), msg.sender);\n        _createSharedRole(uint(Roles.Minter), uint(Roles.Owner), new address[](0));\n        _createSharedRole(uint(Roles.Burner), uint(Roles.Owner), new address[](0));\n    }\n\n    /**\n     * @dev Mints `value` tokens to `recipient`, returning true on success.\n     */\n\n    // TODO(#969) Remove once prettier-plugin-solidity can handle the \"override\" keyword\n    // prettier-ignore\n    function mint(address recipient, uint value) external override onlyRoleHolder(uint(Roles.Minter)) returns (bool) {\n        _mint(recipient, value);\n        return true;\n    }\n\n    /**\n     * @dev Burns `value` tokens owned by `msg.sender`.\n     */\n\n    // TODO(#969) Remove once prettier-plugin-solidity can handle the \"override\" keyword\n    // prettier-ignore\n    function burn(uint value) external override onlyRoleHolder(uint(Roles.Burner)) {\n        _burn(msg.sender, value);\n    }\n}\n",
  "sourcePath": "/home/alessandrovm/JarvisLavoro/SynFiat/packages/contracts/contracts/uma-contracts/common/implementation/ExpandedERC20.sol",
  "compiler": {
    "name": "solc",
    "version": "0.6.4+commit.1dca32f3.Emscripten.clang"
  },
  "schemaVersion": "3.2.0",
  "updatedAt": "2020-08-14T09:32:05.457Z",
  "devdoc": {
    "methods": {
      "addMember(uint256,address)": {
        "details": "Reverts if `roleId` does not represent an initialized, shared role or if the caller is not a member of the managing role for `roleId`."
      },
      "allowance(address,address)": {
        "details": "See {IERC20-allowance}."
      },
      "approve(address,uint256)": {
        "details": "See {IERC20-approve}.     * Requirements:     * - `spender` cannot be the zero address."
      },
      "balanceOf(address)": {
        "details": "See {IERC20-balanceOf}."
      },
      "burn(uint256)": {
        "details": "Burns `value` tokens owned by `msg.sender`."
      },
      "decreaseAllowance(address,uint256)": {
        "details": "Atomically decreases the allowance granted to `spender` by the caller.     * This is an alternative to {approve} that can be used as a mitigation for problems described in {IERC20-approve}.     * Emits an {Approval} event indicating the updated allowance.     * Requirements:     * - `spender` cannot be the zero address. - `spender` must have allowance for the caller of at least `subtractedValue`."
      },
      "getMember(uint256)": {
        "details": "Reverts if `roleId` does not represent an initialized, exclusive role."
      },
      "holdsRole(uint256,address)": {
        "details": "Reverts if roleId does not correspond to an initialized role."
      },
      "increaseAllowance(address,uint256)": {
        "details": "Atomically increases the allowance granted to `spender` by the caller.     * This is an alternative to {approve} that can be used as a mitigation for problems described in {IERC20-approve}.     * Emits an {Approval} event indicating the updated allowance.     * Requirements:     * - `spender` cannot be the zero address."
      },
      "mint(address,uint256)": {
        "details": "Mints `value` tokens to `recipient`, returning true on success."
      },
      "removeMember(uint256,address)": {
        "details": "Reverts if `roleId` does not represent an initialized, shared role or if the caller is not a member of the managing role for `roleId`."
      },
      "resetMember(uint256,address)": {
        "details": "Reverts if the caller is not a member of the managing role for `roleId` or if `roleId` is not an initialized, exclusive role."
      },
      "totalSupply()": {
        "details": "See {IERC20-totalSupply}."
      },
      "transfer(address,uint256)": {
        "details": "See {IERC20-transfer}.     * Requirements:     * - `recipient` cannot be the zero address. - the caller must have a balance of at least `amount`."
      },
      "transferFrom(address,address,uint256)": {
        "details": "See {IERC20-transferFrom}.     * Emits an {Approval} event indicating the updated allowance. This is not required by the EIP. See the note at the beginning of {ERC20};     * Requirements: - `sender` and `recipient` cannot be the zero address. - `sender` must have a balance of at least `amount`. - the caller must have allowance for `sender`'s tokens of at least `amount`."
      }
    },
    "title": "An ERC20 with permissioned burning and minting. The contract deployer will initially be the owner who is capable of adding new roles."
  },
  "userdoc": {
    "methods": {
      "addMember(uint256,address)": {
        "notice": "Adds `newMember` to the shared role, `roleId`."
      },
      "getMember(uint256)": {
        "notice": "Gets the current holder of the exclusive role, `roleId`."
      },
      "holdsRole(uint256,address)": {
        "notice": "Whether `memberToCheck` is a member of roleId."
      },
      "removeMember(uint256,address)": {
        "notice": "Removes `memberToRemove` from the shared role, `roleId`."
      },
      "resetMember(uint256,address)": {
        "notice": "Changes the exclusive role holder of `roleId` to `newMember`."
      }
    }
  }
}