{
  "contractName": "ExpiringMultiParty",
  "abi": [
    {
      "inputs": [
        {
          "components": [
            {
              "internalType": "bool",
              "name": "isTest",
              "type": "bool"
            },
            {
              "internalType": "uint256",
              "name": "expirationTimestamp",
              "type": "uint256"
            },
            {
              "internalType": "uint256",
              "name": "withdrawalLiveness",
              "type": "uint256"
            },
            {
              "internalType": "address",
              "name": "collateralAddress",
              "type": "address"
            },
            {
              "internalType": "address",
              "name": "finderAddress",
              "type": "address"
            },
            {
              "internalType": "address",
              "name": "tokenFactoryAddress",
              "type": "address"
            },
            {
              "internalType": "bytes32",
              "name": "priceFeedIdentifier",
              "type": "bytes32"
            },
            {
              "internalType": "string",
              "name": "syntheticName",
              "type": "string"
            },
            {
              "internalType": "string",
              "name": "syntheticSymbol",
              "type": "string"
            },
            {
              "internalType": "uint256",
              "name": "liquidationLiveness",
              "type": "uint256"
            },
            {
              "components": [
                {
                  "internalType": "uint256",
                  "name": "rawValue",
                  "type": "uint256"
                }
              ],
              "internalType": "struct FixedPoint.Unsigned",
              "name": "collateralRequirement",
              "type": "tuple"
            },
            {
              "components": [
                {
                  "internalType": "uint256",
                  "name": "rawValue",
                  "type": "uint256"
                }
              ],
              "internalType": "struct FixedPoint.Unsigned",
              "name": "disputeBondPct",
              "type": "tuple"
            },
            {
              "components": [
                {
                  "internalType": "uint256",
                  "name": "rawValue",
                  "type": "uint256"
                }
              ],
              "internalType": "struct FixedPoint.Unsigned",
              "name": "sponsorDisputeRewardPct",
              "type": "tuple"
            },
            {
              "components": [
                {
                  "internalType": "uint256",
                  "name": "rawValue",
                  "type": "uint256"
                }
              ],
              "internalType": "struct FixedPoint.Unsigned",
              "name": "disputerDisputeRewardPct",
              "type": "tuple"
            }
          ],
          "internalType": "struct Liquidatable.ConstructorParams",
          "name": "params",
          "type": "tuple"
        }
      ],
      "stateMutability": "nonpayable",
      "type": "constructor"
    },
    {
      "anonymous": false,
      "inputs": [
        {
          "indexed": true,
          "internalType": "address",
          "name": "caller",
          "type": "address"
        }
      ],
      "name": "ContractExpired",
      "type": "event"
    },
    {
      "anonymous": false,
      "inputs": [
        {
          "indexed": true,
          "internalType": "address",
          "name": "sponsor",
          "type": "address"
        },
        {
          "indexed": true,
          "internalType": "uint256",
          "name": "collateralAmount",
          "type": "uint256"
        }
      ],
      "name": "Deposit",
      "type": "event"
    },
    {
      "anonymous": false,
      "inputs": [
        {
          "indexed": true,
          "internalType": "address",
          "name": "caller",
          "type": "address"
        },
        {
          "indexed": true,
          "internalType": "address",
          "name": "sponsor",
          "type": "address"
        },
        {
          "indexed": true,
          "internalType": "address",
          "name": "liquidator",
          "type": "address"
        },
        {
          "indexed": false,
          "internalType": "address",
          "name": "disputer",
          "type": "address"
        },
        {
          "indexed": false,
          "internalType": "uint256",
          "name": "liquidationId",
          "type": "uint256"
        },
        {
          "indexed": false,
          "internalType": "bool",
          "name": "DisputeSucceeded",
          "type": "bool"
        }
      ],
      "name": "DisputeSettled",
      "type": "event"
    },
    {
      "anonymous": false,
      "inputs": [
        {
          "indexed": true,
          "internalType": "address",
          "name": "caller",
          "type": "address"
        },
        {
          "indexed": false,
          "internalType": "uint256",
          "name": "originalExpirationTimestamp",
          "type": "uint256"
        },
        {
          "indexed": false,
          "internalType": "uint256",
          "name": "shutdownTimestamp",
          "type": "uint256"
        }
      ],
      "name": "EmergencyShutdown",
      "type": "event"
    },
    {
      "anonymous": false,
      "inputs": [
        {
          "indexed": true,
          "internalType": "address",
          "name": "sponsor",
          "type": "address"
        },
        {
          "indexed": true,
          "internalType": "address",
          "name": "liquidator",
          "type": "address"
        },
        {
          "indexed": true,
          "internalType": "uint256",
          "name": "liquidationId",
          "type": "uint256"
        },
        {
          "indexed": false,
          "internalType": "uint256",
          "name": "tokensOutstanding",
          "type": "uint256"
        },
        {
          "indexed": false,
          "internalType": "uint256",
          "name": "lockedCollateral",
          "type": "uint256"
        },
        {
          "indexed": false,
          "internalType": "uint256",
          "name": "liquidatedCollateral",
          "type": "uint256"
        }
      ],
      "name": "LiquidationCreated",
      "type": "event"
    },
    {
      "anonymous": false,
      "inputs": [
        {
          "indexed": true,
          "internalType": "address",
          "name": "sponsor",
          "type": "address"
        },
        {
          "indexed": true,
          "internalType": "address",
          "name": "liquidator",
          "type": "address"
        },
        {
          "indexed": true,
          "internalType": "address",
          "name": "disputer",
          "type": "address"
        },
        {
          "indexed": false,
          "internalType": "uint256",
          "name": "liquidationId",
          "type": "uint256"
        },
        {
          "indexed": false,
          "internalType": "uint256",
          "name": "disputeBondAmount",
          "type": "uint256"
        }
      ],
      "name": "LiquidationDisputed",
      "type": "event"
    },
    {
      "anonymous": false,
      "inputs": [
        {
          "indexed": false,
          "internalType": "address",
          "name": "caller",
          "type": "address"
        },
        {
          "indexed": false,
          "internalType": "uint256",
          "name": "withdrawalAmount",
          "type": "uint256"
        },
        {
          "indexed": false,
          "internalType": "enum Liquidatable.Status",
          "name": "liquidationStatus",
          "type": "uint8"
        }
      ],
      "name": "LiquidationWithdrawn",
      "type": "event"
    },
    {
      "anonymous": false,
      "inputs": [
        {
          "indexed": true,
          "internalType": "address",
          "name": "sponsor",
          "type": "address"
        }
      ],
      "name": "NewSponsor",
      "type": "event"
    },
    {
      "anonymous": false,
      "inputs": [
        {
          "indexed": true,
          "internalType": "address",
          "name": "sponsor",
          "type": "address"
        },
        {
          "indexed": true,
          "internalType": "uint256",
          "name": "collateralAmount",
          "type": "uint256"
        },
        {
          "indexed": true,
          "internalType": "uint256",
          "name": "tokenAmount",
          "type": "uint256"
        }
      ],
      "name": "PositionCreated",
      "type": "event"
    },
    {
      "anonymous": false,
      "inputs": [
        {
          "indexed": true,
          "internalType": "address",
          "name": "sponsor",
          "type": "address"
        },
        {
          "indexed": true,
          "internalType": "uint256",
          "name": "collateralAmount",
          "type": "uint256"
        },
        {
          "indexed": true,
          "internalType": "uint256",
          "name": "tokenAmount",
          "type": "uint256"
        }
      ],
      "name": "Redeem",
      "type": "event"
    },
    {
      "anonymous": false,
      "inputs": [
        {
          "indexed": true,
          "internalType": "address",
          "name": "sponsor",
          "type": "address"
        },
        {
          "indexed": true,
          "internalType": "uint256",
          "name": "collateralAmount",
          "type": "uint256"
        }
      ],
      "name": "RequestWithdrawal",
      "type": "event"
    },
    {
      "anonymous": false,
      "inputs": [
        {
          "indexed": true,
          "internalType": "address",
          "name": "sponsor",
          "type": "address"
        },
        {
          "indexed": true,
          "internalType": "uint256",
          "name": "collateralAmount",
          "type": "uint256"
        }
      ],
      "name": "RequestWithdrawalCanceled",
      "type": "event"
    },
    {
      "anonymous": false,
      "inputs": [
        {
          "indexed": true,
          "internalType": "address",
          "name": "sponsor",
          "type": "address"
        },
        {
          "indexed": true,
          "internalType": "uint256",
          "name": "collateralAmount",
          "type": "uint256"
        }
      ],
      "name": "RequestWithdrawalExecuted",
      "type": "event"
    },
    {
      "anonymous": false,
      "inputs": [
        {
          "indexed": true,
          "internalType": "address",
          "name": "caller",
          "type": "address"
        },
        {
          "indexed": true,
          "internalType": "uint256",
          "name": "collateralReturned",
          "type": "uint256"
        },
        {
          "indexed": true,
          "internalType": "uint256",
          "name": "tokensBurned",
          "type": "uint256"
        }
      ],
      "name": "SettleExpiredPosition",
      "type": "event"
    },
    {
      "anonymous": false,
      "inputs": [
        {
          "indexed": true,
          "internalType": "address",
          "name": "oldSponsor",
          "type": "address"
        },
        {
          "indexed": true,
          "internalType": "address",
          "name": "newSponsor",
          "type": "address"
        }
      ],
      "name": "Transfer",
      "type": "event"
    },
    {
      "anonymous": false,
      "inputs": [
        {
          "indexed": true,
          "internalType": "address",
          "name": "sponsor",
          "type": "address"
        },
        {
          "indexed": true,
          "internalType": "uint256",
          "name": "collateralAmount",
          "type": "uint256"
        }
      ],
      "name": "Withdrawal",
      "type": "event"
    },
    {
      "inputs": [],
      "name": "cancelWithdrawal",
      "outputs": [],
      "stateMutability": "nonpayable",
      "type": "function"
    },
    {
      "inputs": [],
      "name": "collateralCurrency",
      "outputs": [
        {
          "internalType": "contract IERC20",
          "name": "",
          "type": "address"
        }
      ],
      "stateMutability": "view",
      "type": "function"
    },
    {
      "inputs": [],
      "name": "collateralRequirement",
      "outputs": [
        {
          "internalType": "uint256",
          "name": "rawValue",
          "type": "uint256"
        }
      ],
      "stateMutability": "view",
      "type": "function"
    },
    {
      "inputs": [],
      "name": "contractState",
      "outputs": [
        {
          "internalType": "enum PricelessPositionManager.ContractState",
          "name": "",
          "type": "uint8"
        }
      ],
      "stateMutability": "view",
      "type": "function"
    },
    {
      "inputs": [
        {
          "components": [
            {
              "internalType": "uint256",
              "name": "rawValue",
              "type": "uint256"
            }
          ],
          "internalType": "struct FixedPoint.Unsigned",
          "name": "collateralAmount",
          "type": "tuple"
        },
        {
          "components": [
            {
              "internalType": "uint256",
              "name": "rawValue",
              "type": "uint256"
            }
          ],
          "internalType": "struct FixedPoint.Unsigned",
          "name": "numTokens",
          "type": "tuple"
        }
      ],
      "name": "create",
      "outputs": [],
      "stateMutability": "nonpayable",
      "type": "function"
    },
    {
      "inputs": [
        {
          "internalType": "address",
          "name": "sponsor",
          "type": "address"
        },
        {
          "components": [
            {
              "internalType": "uint256",
              "name": "rawValue",
              "type": "uint256"
            }
          ],
          "internalType": "struct FixedPoint.Unsigned",
          "name": "collateralPerToken",
          "type": "tuple"
        },
        {
          "components": [
            {
              "internalType": "uint256",
              "name": "rawValue",
              "type": "uint256"
            }
          ],
          "internalType": "struct FixedPoint.Unsigned",
          "name": "maxTokensToLiquidate",
          "type": "tuple"
        }
      ],
      "name": "createLiquidation",
      "outputs": [
        {
          "internalType": "uint256",
          "name": "liquidationId",
          "type": "uint256"
        }
      ],
      "stateMutability": "nonpayable",
      "type": "function"
    },
    {
      "inputs": [],
      "name": "cumulativeFeeMultiplier",
      "outputs": [
        {
          "internalType": "uint256",
          "name": "rawValue",
          "type": "uint256"
        }
      ],
      "stateMutability": "view",
      "type": "function"
    },
    {
      "inputs": [
        {
          "components": [
            {
              "internalType": "uint256",
              "name": "rawValue",
              "type": "uint256"
            }
          ],
          "internalType": "struct FixedPoint.Unsigned",
          "name": "collateralAmount",
          "type": "tuple"
        }
      ],
      "name": "deposit",
      "outputs": [],
      "stateMutability": "nonpayable",
      "type": "function"
    },
    {
      "inputs": [
        {
          "internalType": "uint256",
          "name": "liquidationId",
          "type": "uint256"
        },
        {
          "internalType": "address",
          "name": "sponsor",
          "type": "address"
        }
      ],
      "name": "dispute",
      "outputs": [],
      "stateMutability": "nonpayable",
      "type": "function"
    },
    {
      "inputs": [],
      "name": "disputeBondPct",
      "outputs": [
        {
          "internalType": "uint256",
          "name": "rawValue",
          "type": "uint256"
        }
      ],
      "stateMutability": "view",
      "type": "function"
    },
    {
      "inputs": [],
      "name": "disputerDisputeRewardPct",
      "outputs": [
        {
          "internalType": "uint256",
          "name": "rawValue",
          "type": "uint256"
        }
      ],
      "stateMutability": "view",
      "type": "function"
    },
    {
      "inputs": [],
      "name": "emergencyShutdown",
      "outputs": [],
      "stateMutability": "nonpayable",
      "type": "function"
    },
    {
      "inputs": [],
      "name": "expirationTimestamp",
      "outputs": [
        {
          "internalType": "uint256",
          "name": "",
          "type": "uint256"
        }
      ],
      "stateMutability": "view",
      "type": "function"
    },
    {
      "inputs": [],
      "name": "expire",
      "outputs": [],
      "stateMutability": "nonpayable",
      "type": "function"
    },
    {
      "inputs": [],
      "name": "expiryPrice",
      "outputs": [
        {
          "internalType": "uint256",
          "name": "rawValue",
          "type": "uint256"
        }
      ],
      "stateMutability": "view",
      "type": "function"
    },
    {
      "inputs": [],
      "name": "finder",
      "outputs": [
        {
          "internalType": "contract FinderInterface",
          "name": "",
          "type": "address"
        }
      ],
      "stateMutability": "view",
      "type": "function"
    },
    {
      "inputs": [
        {
          "internalType": "address",
          "name": "sponsor",
          "type": "address"
        }
      ],
      "name": "getCollateral",
      "outputs": [
        {
          "components": [
            {
              "internalType": "uint256",
              "name": "rawValue",
              "type": "uint256"
            }
          ],
          "internalType": "struct FixedPoint.Unsigned",
          "name": "",
          "type": "tuple"
        }
      ],
      "stateMutability": "view",
      "type": "function"
    },
    {
      "inputs": [],
      "name": "getCurrentTime",
      "outputs": [
        {
          "internalType": "uint256",
          "name": "",
          "type": "uint256"
        }
      ],
      "stateMutability": "view",
      "type": "function"
    },
    {
      "inputs": [
        {
          "internalType": "address",
          "name": "sponsor",
          "type": "address"
        }
      ],
      "name": "getLiquidations",
      "outputs": [
        {
          "components": [
            {
              "internalType": "address",
              "name": "sponsor",
              "type": "address"
            },
            {
              "internalType": "address",
              "name": "liquidator",
              "type": "address"
            },
            {
              "internalType": "enum Liquidatable.Status",
              "name": "state",
              "type": "uint8"
            },
            {
              "internalType": "uint256",
              "name": "liquidationTime",
              "type": "uint256"
            },
            {
              "components": [
                {
                  "internalType": "uint256",
                  "name": "rawValue",
                  "type": "uint256"
                }
              ],
              "internalType": "struct FixedPoint.Unsigned",
              "name": "tokensOutstanding",
              "type": "tuple"
            },
            {
              "components": [
                {
                  "internalType": "uint256",
                  "name": "rawValue",
                  "type": "uint256"
                }
              ],
              "internalType": "struct FixedPoint.Unsigned",
              "name": "lockedCollateral",
              "type": "tuple"
            },
            {
              "components": [
                {
                  "internalType": "uint256",
                  "name": "rawValue",
                  "type": "uint256"
                }
              ],
              "internalType": "struct FixedPoint.Unsigned",
              "name": "liquidatedCollateral",
              "type": "tuple"
            },
            {
              "components": [
                {
                  "internalType": "uint256",
                  "name": "rawValue",
                  "type": "uint256"
                }
              ],
              "internalType": "struct FixedPoint.Unsigned",
              "name": "rawUnitCollateral",
              "type": "tuple"
            },
            {
              "internalType": "address",
              "name": "disputer",
              "type": "address"
            },
            {
              "components": [
                {
                  "internalType": "uint256",
                  "name": "rawValue",
                  "type": "uint256"
                }
              ],
              "internalType": "struct FixedPoint.Unsigned",
              "name": "settlementPrice",
              "type": "tuple"
            },
            {
              "components": [
                {
                  "internalType": "uint256",
                  "name": "rawValue",
                  "type": "uint256"
                }
              ],
              "internalType": "struct FixedPoint.Unsigned",
              "name": "finalFee",
              "type": "tuple"
            }
          ],
          "internalType": "struct Liquidatable.LiquidationData[]",
          "name": "",
          "type": "tuple[]"
        }
      ],
      "stateMutability": "view",
      "type": "function"
    },
    {
      "inputs": [],
      "name": "isTest",
      "outputs": [
        {
          "internalType": "bool",
          "name": "",
          "type": "bool"
        }
      ],
      "stateMutability": "view",
      "type": "function"
    },
    {
      "inputs": [],
      "name": "lastPaymentTime",
      "outputs": [
        {
          "internalType": "uint256",
          "name": "",
          "type": "uint256"
        }
      ],
      "stateMutability": "view",
      "type": "function"
    },
    {
      "inputs": [],
      "name": "liquidationLiveness",
      "outputs": [
        {
          "internalType": "uint256",
          "name": "",
          "type": "uint256"
        }
      ],
      "stateMutability": "view",
      "type": "function"
    },
    {
      "inputs": [
        {
          "internalType": "address",
          "name": "",
          "type": "address"
        },
        {
          "internalType": "uint256",
          "name": "",
          "type": "uint256"
        }
      ],
      "name": "liquidations",
      "outputs": [
        {
          "internalType": "address",
          "name": "sponsor",
          "type": "address"
        },
        {
          "internalType": "address",
          "name": "liquidator",
          "type": "address"
        },
        {
          "internalType": "enum Liquidatable.Status",
          "name": "state",
          "type": "uint8"
        },
        {
          "internalType": "uint256",
          "name": "liquidationTime",
          "type": "uint256"
        },
        {
          "components": [
            {
              "internalType": "uint256",
              "name": "rawValue",
              "type": "uint256"
            }
          ],
          "internalType": "struct FixedPoint.Unsigned",
          "name": "tokensOutstanding",
          "type": "tuple"
        },
        {
          "components": [
            {
              "internalType": "uint256",
              "name": "rawValue",
              "type": "uint256"
            }
          ],
          "internalType": "struct FixedPoint.Unsigned",
          "name": "lockedCollateral",
          "type": "tuple"
        },
        {
          "components": [
            {
              "internalType": "uint256",
              "name": "rawValue",
              "type": "uint256"
            }
          ],
          "internalType": "struct FixedPoint.Unsigned",
          "name": "liquidatedCollateral",
          "type": "tuple"
        },
        {
          "components": [
            {
              "internalType": "uint256",
              "name": "rawValue",
              "type": "uint256"
            }
          ],
          "internalType": "struct FixedPoint.Unsigned",
          "name": "rawUnitCollateral",
          "type": "tuple"
        },
        {
          "internalType": "address",
          "name": "disputer",
          "type": "address"
        },
        {
          "components": [
            {
              "internalType": "uint256",
              "name": "rawValue",
              "type": "uint256"
            }
          ],
          "internalType": "struct FixedPoint.Unsigned",
          "name": "settlementPrice",
          "type": "tuple"
        },
        {
          "components": [
            {
              "internalType": "uint256",
              "name": "rawValue",
              "type": "uint256"
            }
          ],
          "internalType": "struct FixedPoint.Unsigned",
          "name": "finalFee",
          "type": "tuple"
        }
      ],
      "stateMutability": "view",
      "type": "function"
    },
    {
      "inputs": [],
      "name": "payFees",
      "outputs": [
        {
          "components": [
            {
              "internalType": "uint256",
              "name": "rawValue",
              "type": "uint256"
            }
          ],
          "internalType": "struct FixedPoint.Unsigned",
          "name": "totalPaid",
          "type": "tuple"
        }
      ],
      "stateMutability": "nonpayable",
      "type": "function"
    },
    {
      "inputs": [],
      "name": "pfc",
      "outputs": [
        {
          "components": [
            {
              "internalType": "uint256",
              "name": "rawValue",
              "type": "uint256"
            }
          ],
          "internalType": "struct FixedPoint.Unsigned",
          "name": "",
          "type": "tuple"
        }
      ],
      "stateMutability": "view",
      "type": "function"
    },
    {
      "inputs": [
        {
          "internalType": "address",
          "name": "",
          "type": "address"
        }
      ],
      "name": "positions",
      "outputs": [
        {
          "components": [
            {
              "internalType": "uint256",
              "name": "rawValue",
              "type": "uint256"
            }
          ],
          "internalType": "struct FixedPoint.Unsigned",
          "name": "tokensOutstanding",
          "type": "tuple"
        },
        {
          "internalType": "uint256",
          "name": "requestPassTimestamp",
          "type": "uint256"
        },
        {
          "components": [
            {
              "internalType": "uint256",
              "name": "rawValue",
              "type": "uint256"
            }
          ],
          "internalType": "struct FixedPoint.Unsigned",
          "name": "withdrawalRequestAmount",
          "type": "tuple"
        },
        {
          "components": [
            {
              "internalType": "uint256",
              "name": "rawValue",
              "type": "uint256"
            }
          ],
          "internalType": "struct FixedPoint.Unsigned",
          "name": "rawCollateral",
          "type": "tuple"
        }
      ],
      "stateMutability": "view",
      "type": "function"
    },
    {
      "inputs": [],
      "name": "priceIdentifer",
      "outputs": [
        {
          "internalType": "bytes32",
          "name": "",
          "type": "bytes32"
        }
      ],
      "stateMutability": "view",
      "type": "function"
    },
    {
      "inputs": [],
      "name": "rawLiquidationCollateral",
      "outputs": [
        {
          "internalType": "uint256",
          "name": "rawValue",
          "type": "uint256"
        }
      ],
      "stateMutability": "view",
      "type": "function"
    },
    {
      "inputs": [],
      "name": "rawTotalPositionCollateral",
      "outputs": [
        {
          "internalType": "uint256",
          "name": "rawValue",
          "type": "uint256"
        }
      ],
      "stateMutability": "view",
      "type": "function"
    },
    {
      "inputs": [
        {
          "components": [
            {
              "internalType": "uint256",
              "name": "rawValue",
              "type": "uint256"
            }
          ],
          "internalType": "struct FixedPoint.Unsigned",
          "name": "numTokens",
          "type": "tuple"
        }
      ],
      "name": "redeem",
      "outputs": [],
      "stateMutability": "nonpayable",
      "type": "function"
    },
    {
      "inputs": [],
      "name": "remargin",
      "outputs": [],
      "stateMutability": "nonpayable",
      "type": "function"
    },
    {
      "inputs": [
        {
          "components": [
            {
              "internalType": "uint256",
              "name": "rawValue",
              "type": "uint256"
            }
          ],
          "internalType": "struct FixedPoint.Unsigned",
          "name": "collateralAmount",
          "type": "tuple"
        }
      ],
      "name": "requestWithdrawal",
      "outputs": [],
      "stateMutability": "nonpayable",
      "type": "function"
    },
    {
      "inputs": [
        {
          "internalType": "uint256",
          "name": "_time",
          "type": "uint256"
        }
      ],
      "name": "setCurrentTime",
      "outputs": [],
      "stateMutability": "nonpayable",
      "type": "function"
    },
    {
      "inputs": [],
      "name": "settleExpired",
      "outputs": [],
      "stateMutability": "nonpayable",
      "type": "function"
    },
    {
      "inputs": [],
      "name": "sponsorDisputeRewardPct",
      "outputs": [
        {
          "internalType": "uint256",
          "name": "rawValue",
          "type": "uint256"
        }
      ],
      "stateMutability": "view",
      "type": "function"
    },
    {
      "inputs": [],
      "name": "tokenCurrency",
      "outputs": [
        {
          "internalType": "contract ExpandedIERC20",
          "name": "",
          "type": "address"
        }
      ],
      "stateMutability": "view",
      "type": "function"
    },
    {
      "inputs": [],
      "name": "totalPositionCollateral",
      "outputs": [
        {
          "components": [
            {
              "internalType": "uint256",
              "name": "rawValue",
              "type": "uint256"
            }
          ],
          "internalType": "struct FixedPoint.Unsigned",
          "name": "",
          "type": "tuple"
        }
      ],
      "stateMutability": "view",
      "type": "function"
    },
    {
      "inputs": [],
      "name": "totalTokensOutstanding",
      "outputs": [
        {
          "internalType": "uint256",
          "name": "rawValue",
          "type": "uint256"
        }
      ],
      "stateMutability": "view",
      "type": "function"
    },
    {
      "inputs": [
        {
          "internalType": "address",
          "name": "newSponsorAddress",
          "type": "address"
        }
      ],
      "name": "transfer",
      "outputs": [],
      "stateMutability": "nonpayable",
      "type": "function"
    },
    {
      "inputs": [
        {
          "components": [
            {
              "internalType": "uint256",
              "name": "rawValue",
              "type": "uint256"
            }
          ],
          "internalType": "struct FixedPoint.Unsigned",
          "name": "collateralAmount",
          "type": "tuple"
        }
      ],
      "name": "withdraw",
      "outputs": [],
      "stateMutability": "nonpayable",
      "type": "function"
    },
    {
      "inputs": [
        {
          "internalType": "uint256",
          "name": "liquidationId",
          "type": "uint256"
        },
        {
          "internalType": "address",
          "name": "sponsor",
          "type": "address"
        }
      ],
      "name": "withdrawLiquidation",
      "outputs": [
        {
          "components": [
            {
              "internalType": "uint256",
              "name": "rawValue",
              "type": "uint256"
            }
          ],
          "internalType": "struct FixedPoint.Unsigned",
          "name": "withdrawalAmount",
          "type": "tuple"
        }
      ],
      "stateMutability": "nonpayable",
      "type": "function"
    },
    {
      "inputs": [],
      "name": "withdrawPassedRequest",
      "outputs": [],
      "stateMutability": "nonpayable",
      "type": "function"
    },
    {
      "inputs": [],
      "name": "withdrawalLiveness",
      "outputs": [
        {
          "internalType": "uint256",
          "name": "",
          "type": "uint256"
        }
      ],
      "stateMutability": "view",
      "type": "function"
    }
  ],
  "bytecode": "0x60806040523480156200001157600080fd5b506040516200511f3803806200511f83398101604081905262000034916200060a565b80806000015181602001518260400151836060015184608001518560c001518660e001518761010001518860a0015185858a80806000806101000a81548160ff02191690831515021790555080156200008c57426001555b50600280546001600160a01b038086166001600160a01b0319928316179092556003805492851692909116919091179055620000d06001600160e01b03620002f816565b600481905550620000ed60016200031560201b620029ef1760201c565b51600555505050600c889055600d87905560405163e8a0aed360e01b815281906001600160a01b0382169063e8a0aed390620001339087908790601290600401620007b8565b602060405180830381600087803b1580156200014e57600080fd5b505af115801562000163573d6000803e3d6000fd5b505050506040513d601f19601f82011682018060405250810190620001899190620005c9565b600a80546001600160a01b0319166001600160a01b0392909216919091179055620001b362000354565b6001600160a01b03166390978d1b866040518263ffffffff1660e01b8152600401620001e09190620007af565b60206040518083038186803b158015620001f957600080fd5b505afa1580156200020e573d6000803e3d6000fd5b505050506040513d601f19601f82011682018060405250810190620002349190620005e8565b6200023e57600080fd5b84600b81905550505050505050505050506200026f60018261014001516200040560201b6200304f1790919060201c565b6200027957600080fd5b620002b76001620002a3836101a001518461018001516200042860201b62002ff41790919060201c565b6200046860201b620047e21790919060201c565b620002c157600080fd5b6101208101516011556101408101515160125561016081015151601355610180810151516014556101a001515160155550620008e0565b6000805460ff16156200030f575060015462000312565b50425b90565b6200031f62000502565b60405180602001604052806200034c670de0b6b3a7640000856200048a60201b62003a221790919060201c565b905292915050565b6003546040516302abf57960e61b81526000917f4964656e74696669657257686974656c69737400000000000000000000000000916001600160a01b039091169063aafd5e4090620003ab908490600401620007af565b60206040518083038186803b158015620003c457600080fd5b505afa158015620003d9573d6000803e3d6000fd5b505050506040513d601f19601f82011682018060405250810190620003ff9190620005c9565b91505090565b60006200041b826001600160e01b036200031516565b5183511190505b92915050565b6200043262000502565b60405180602001604052806200045f84600001518660000151620004da60201b62003ca91790919060201c565b90529392505050565b60006200047e826001600160e01b036200031516565b51835110905092915050565b6000826200049b5750600062000422565b82820282848281620004a957fe5b0414620004d35760405162461bcd60e51b8152600401620004ca906200082c565b60405180910390fd5b9392505050565b600082820183811015620004d35760405162461bcd60e51b8152600401620004ca90620007f5565b6040518060200160405280600081525090565b80516200042281620008c7565b805180151581146200042257600080fd5b600082601f83011262000544578081fd5b81516001600160401b038111156200055a578182fd5b6200056f601f8201601f19166020016200086d565b91508082528360208285010111156200058757600080fd5b6200059a81602084016020860162000894565b5092915050565b600060208284031215620005b3578081fd5b620005bf60206200086d565b9151825250919050565b600060208284031215620005db578081fd5b8151620004d381620008c7565b600060208284031215620005fa578081fd5b81518015158114620004d3578182fd5b6000602082840312156200061c578081fd5b81516001600160401b038082111562000633578283fd5b6101c091840180860383131562000648578384fd5b62000653836200086d565b6200065f878362000522565b8152602082015160208201526040820151604082015262000684876060840162000515565b606082015262000698876080840162000515565b6080820152620006ac8760a0840162000515565b60a082015260c082015160c082015260e0820151935082841115620006cf578485fd5b620006dd8785840162000533565b60e082015261010093508382015183811115620006f8578586fd5b620007068882850162000533565b85830152506101209350838201518482015261014093506200072b87858401620005a1565b8482015261016093506200074287858401620005a1565b8482015261018093506200075987858401620005a1565b848201526101a093506200077087858401620005a1565b848201528094505050505092915050565b600081518084526200079b81602086016020860162000894565b601f01601f19169290920160200192915050565b90815260200190565b600060608252620007cd606083018662000781565b8281036020840152620007e1818662000781565b91505060ff83166040830152949350505050565b6020808252601b908201527f536166654d6174683a206164646974696f6e206f766572666c6f770000000000604082015260600190565b60208082526021908201527f536166654d6174683a206d756c7469706c69636174696f6e206f766572666c6f6040820152607760f81b606082015260800190565b6040518181016001600160401b03811182821017156200088c57600080fd5b604052919050565b60005b83811015620008b157818101518382015260200162000897565b83811115620008c1576000848401525b50505050565b6001600160a01b0381168114620008dd57600080fd5b50565b61482f80620008f06000396000f3fe608060405234801561001057600080fd5b50600436106102e95760003560e01c80636ba2f99211610191578063a765fbea116100e3578063d1e92c1111610097578063edfa9a9b11610071578063edfa9a9b1461053d578063f4d2115314610545578063fcccedc714610558576102e9565b8063d1e92c111461051a578063dd0eef3d1461052d578063dfe607f914610535576102e9565b8063bc121630116100c8578063bc121630146104f7578063bda02e771461050a578063c13f62e114610512576102e9565b8063a765fbea146104dc578063b9a3c84c146104ef576102e9565b80638c382eb2116101455780639f43ddd21161011f5780639f43ddd2146104ac5780639ff4dea8146104b4578063a1c4d1e7146104bc576102e9565b80638c382eb21461047c5780639381a345146104845780639b56d6c914610499576102e9565b806379599f961161017657806379599f961461045757806381a10ae11461045f57806385209ee014610467576102e9565b80636ba2f9921461043c5780637048594b1461044f576102e9565b8063360598e11161024a5780634f8c4847116101fe5780635ee0fe32116101d85780635ee0fe32146104195780635f1af1ca1461042157806362779e1514610434576102e9565b80634f8c4847146103c457806350f49846146103ee57806355f57510146103f6576102e9565b80633ee7a5ce1161022f5780633ee7a5ce146103a157806343e4771b146103b457806348e30c3f146103bc576102e9565b8063360598e114610379578063391fe4e214610399576102e9565b806322f8e566116102a15780632d5436cf116102865780632d5436cf1461036157806333a46ca2146103695780633403c2fc14610371576102e9565b806322f8e5661461034657806329cb924d14610359576102e9565b8063175d9e7c116102d2578063175d9e7c146103215780631a69523014610329578063226112801461033e576102e9565b80630c9229ca146102ee5780630de15fd91461030c575b600080fd5b6102f6610560565b604051610303919061446a565b60405180910390f35b610314610566565b60405161030391906141c6565b6102f6610582565b61033c610337366004613fc1565b610588565b005b61033c6106e4565b61033c610354366004614137565b610756565b6102f661076a565b6102f6610785565b61033c61078b565b61033c6108c9565b61038c61038736600461414f565b61099c565b604051610303919061470e565b6102f661112a565b61033c6103af3660046140a2565b611130565b61038c6111e9565b6102f661120f565b6103d76103d236600461403f565b611215565b6040516103039b9a9998979695949392919061426f565b6102f66112f7565b610409610404366004613fc1565b6112fd565b6040516103039493929190614718565b6102f6611343565b61033c61042f3660046140a2565b611349565b61038c6115b4565b61033c61044a3660046140d8565b611841565b610314611a81565b61033c611a9d565b61038c611b2a565b61046f611b57565b6040516103039190614481565b6102f6611b60565b61048c611b66565b604051610303919061445f565b61038c6104a7366004613fc1565b611b6f565b6102f6611bbf565b6102f6611bc5565b6104cf6104ca366004613fc1565b611bcb565b6040516103039190614350565b61033c6104ea36600461414f565b611d5c565b610314611f12565b61033c6105053660046140a2565b611f2e565b61033c611fb3565b6102f6611fbd565b61033c6105283660046140a2565b611fc3565b6102f661206c565b6102f6612072565b6102f6612078565b6102f6610553366004613ff9565b61207e565b61033c6125de565b60085481565b60025473ffffffffffffffffffffffffffffffffffffffff1681565b600b5481565b6105906129da565b6105eb61059d60006129ef565b73ffffffffffffffffffffffffffffffffffffffff8316600090815260076020908152604091829020825191820190925260039091015481526105df90612a23565b9063ffffffff612a4c16565b6105f457600080fd5b60006105ff33612a53565b9050806001015460001461061257600080fd5b73ffffffffffffffffffffffffffffffffffffffff821660008181526007602052604080822084548155600180860154818301556002808701548184015560038088015493810193909355338086528486208681559283018690559082018590559101839055905190917f4853ae1b4d437c4255ac16cd3ceda3465975023f27cb141584cd9d44440fed8291a360405173ffffffffffffffffffffffffffffffffffffffff8316907ff60993fa76f94c9e0a803526ee6e1314814ed4d2b0d223febf1436b36897fb3790600090a25050565b6106ec6129da565b60006106f733612a53565b905080600101546000141561070b57600080fd5b600281015460405133907f74d8a3658feb89d1a5c335229bbbfc3bbcfaf492769feb7aa4cd2d92efeaf69190600090a360006001820181905561074d906129ef565b51600290910155565b60005460ff1661076557600080fd5b600155565b6000805460ff161561077f5750600154610782565b50425b90565b60115481565b6107936129da565b61079b6115b4565b5060006107a733612a53565b90506107b161076a565b816001015411156107c157600080fd5b6107c9613f4d565b5060408051602080820183526002840154825282519081019092526003830154825290610817906107f990612a23565b6040805160208101909152600285015481529063ffffffff612a8816565b1561083a5760408051602081019091526003830154815261083790612a23565b90505b6108478260030182612a8f565b610852600982612a8f565b80516002546108819173ffffffffffffffffffffffffffffffffffffffff90911690339063ffffffff612aca16565b805160405133907fc86c3298cb79f486674dca87d9247e88b76146160e7d412cc59b26b14c358a6890600090a36108b860006129ef565b516002830155506000600190910155565b6108d16129da565b6108d9612b70565b6108e1612b8d565b73ffffffffffffffffffffffffffffffffffffffff163373ffffffffffffffffffffffffffffffffffffffff161461091857600080fd5b600680547fffffffffffffffffffffffffffffffffffffffffffffffffffffffffffffff00166001179055600c5461094e61076a565b600c81905561095c90612c5e565b600c5460405133917fd39eeb7157d9c446579a0893ecf9ecd87d1f466cdb270c6a189cf38ca1e30f4891610991918591614473565b60405180910390a250565b6109a4613f4d565b82826109b08282612cf6565b6109b86115b4565b5060006109c58587612d74565b600781015490915073ffffffffffffffffffffffffffffffffffffffff16331480610a095750600181015473ffffffffffffffffffffffffffffffffffffffff1633145b80610a2a5750805473ffffffffffffffffffffffffffffffffffffffff1633145b610a3357600080fd5b610a3d8686612e0b565b610a45613f4d565b604080516020810190915260068301548152610a6090612a23565b9050610a6a613f4d565b604080516020808201835260088601548252825190810190925260038501548252610aad918491610aa1919063ffffffff612fb116565b9063ffffffff612fb116565b9050610ab7613f4d565b604080516020810190915260048501548152610ad9908463ffffffff612fb116565b9050610ae3613f4d565b60408051602081019091526015548152610b03908463ffffffff612fb116565b9050610b0d613f4d565b60408051602081019091526014548152610b2d908563ffffffff612fb116565b9050610b37613f4d565b60408051602081019091526013548152610b5890859063ffffffff612fb116565b9050610b62613f4d565b604080516020810190915260098901548152610b84908863ffffffff612fb116565b90506003600189015474010000000000000000000000000000000000000000900460ff166004811115610bb357fe5b1415610e9257600788015473ffffffffffffffffffffffffffffffffffffffff16331415610c4357610be3613f4d565b610c0382610bf7878663ffffffff612ff416565b9063ffffffff612ff416565b9050610c158c8263ffffffff612ff416565b60078a0180547fffffffffffffffffffffffff00000000000000000000000000000000000000001690559b50505b875473ffffffffffffffffffffffffffffffffffffffff16331415610cd157610c6a613f4d565b610c7a868863ffffffff61302616565b9050610c84613f4d565b610c94858363ffffffff612ff416565b9050610ca68d8263ffffffff612ff416565b8a547fffffffffffffffffffffffff0000000000000000000000000000000000000000168b559c5050505b600188015473ffffffffffffffffffffffffffffffffffffffff16331415610d5b57610cfb613f4d565b610d1b85610d0f898763ffffffff61302616565b9063ffffffff61302616565b9050610d2d8c8263ffffffff612ff416565b60018a0180547fffffffffffffffffffffffff00000000000000000000000000000000000000001690559b50505b600788015473ffffffffffffffffffffffffffffffffffffffff16158015610d985750875473ffffffffffffffffffffffffffffffffffffffff16155b8015610dbc5750600188015473ffffffffffffffffffffffffffffffffffffffff16155b15610e8d5773ffffffffffffffffffffffffffffffffffffffff8c166000908152600f6020526040902080548e908110610df257fe5b600091825260208220600a9091020180547fffffffffffffffffffffffff000000000000000000000000000000000000000090811682556001820180547fffffffffffffffffffffff0000000000000000000000000000000000000000001690556002820183905560038201839055600482018390556005820183905560068201839055600782018054909116905560088101829055600901555b61106a565b6004600189015474010000000000000000000000000000000000000000900460ff166004811115610ebf57fe5b148015610ee55750600188015473ffffffffffffffffffffffffffffffffffffffff1633145b15610f3357610efe81610bf7878563ffffffff612ff416565b73ffffffffffffffffffffffffffffffffffffffff8d166000908152600f602052604090208054919c50908e908110610df257fe5b60018089015474010000000000000000000000000000000000000000900460ff166004811115610f5f57fe5b148015610f855750600188015473ffffffffffffffffffffffffffffffffffffffff1633145b1561106a57610f9a858263ffffffff612ff416565b73ffffffffffffffffffffffffffffffffffffffff8d166000908152600f602052604090208054919c50908e908110610fcf57fe5b600091825260208220600a9091020180547fffffffffffffffffffffffff000000000000000000000000000000000000000090811682556001820180547fffffffffffffffffffffff0000000000000000000000000000000000000000001690556002820183905560038201839055600482018390556005820183905560068201839055600782018054909116905560088101829055600901555b61107b8b600063ffffffff61304f16565b61108457600080fd5b61108f60108c612a8f565b8a516002546110be9173ffffffffffffffffffffffffffffffffffffffff90911690339063ffffffff612aca16565b8a5160018901546040517f6b1dd0a2f9139859db0869429aa0d5042a624c6da84633f568767549a58937b0926111129233927401000000000000000000000000000000000000000090910460ff169061420d565b60405180910390a15050505050505050505092915050565b60135481565b6111386129da565b6111406115b4565b50600061114c33612a53565b9050806001015460001461115f57600080fd5b61116c8160030183612a8f565b61117581613066565b61117e57600080fd5b611189600983612a8f565b81516002546111b89173ffffffffffffffffffffffffffffffffffffffff90911690339063ffffffff612aca16565b815160405133907f7fcf532c15f0a6db0bd6d0e038bea71d30d808c7d98cb3bf7268a95bf5081b6590600090a35050565b6111f1613f4d565b6040805160208101909152600954815261120a90612a23565b905090565b60125481565b600f602052816000526040600020818154811061122e57fe5b6000918252602091829020600a919091020180546001820154600283015460408051808701825260038601548152815180880183526004870154815282518089018452600588015481528351808a0185526006890154815260078901548551808c01875260088b0154815286519b8c019096526009909901548a5273ffffffffffffffffffffffffffffffffffffffff9788169b508787169a507401000000000000000000000000000000000000000090960460ff16989497929691959094909391909216918b565b60105481565b6007602090815260009182526040918290208251808301845281548152600182015484518085018652600284015481528551948501909552600390920154835292909184565b60155481565b6113516129da565b6113596115b4565b50600061136533612a53565b9050806001015460001461137857600080fd5b60408051602081019091528154815261139890839063ffffffff612a8816565b156113a257600080fd5b6113aa613f4d565b6040805160208101909152825481526113ca90849063ffffffff61309c16565b90506113d4613f4d565b604080516020810190915260038401548152611400906113f390612a23565b839063ffffffff612fb116565b604080516020810190915284548152909150611422908563ffffffff612a4c16565b1561143557611430336130dd565b611494565b6114428360030182612a8f565b604080516020810190915283548152611461908563ffffffff61302616565b51835561146f600982612a8f565b6040805160208101909152600854815261148f908563ffffffff61302616565b516008555b80516002546114c39173ffffffffffffffffffffffffffffffffffffffff90911690339063ffffffff612aca16565b8351600a546114f49173ffffffffffffffffffffffffffffffffffffffff909116903390309063ffffffff61318916565b600a5484516040517f42966c6800000000000000000000000000000000000000000000000000000000815273ffffffffffffffffffffffffffffffffffffffff909216916342966c689161154a9160040161446a565b600060405180830381600087803b15801561156457600080fd5b505af1158015611578573d6000803e3d6000fd5b505085518351604051919350915033907fe5b754fb1abb7f01b499791d0b820ae3b6af3424ac1c59768edb53f4ec31a92990600090a450505050565b6115bc613f4d565b60006115c66131aa565b905060006115d261076a565b90506115dc613f4d565b6115e4611b2a565b90506115f781600063ffffffff61322516565b156116055750610782915050565b61160d613f4d565b611615613f4d565b600480546040517f74201feb00000000000000000000000000000000000000000000000000000000815273ffffffffffffffffffffffffffffffffffffffff8816926374201feb9261166d9290918991899101614736565b604080518083038186803b15801561168457600080fd5b505afa158015611698573d6000803e3d6000fd5b505050506040513d601f19601f820116820180604052508101906116bc919061410c565b600486905590925090506116d782600063ffffffff61304f16565b1561179657815160025461170b9173ffffffffffffffffffffffffffffffffffffffff90911690879063ffffffff61323c16565b6002546040517f4933a88700000000000000000000000000000000000000000000000000000000815273ffffffffffffffffffffffffffffffffffffffff87811692634933a8879261176392909116906004016141c6565b600060405180830381600087803b15801561177d57600080fd5b505af1158015611791573d6000803e3d6000fd5b505050505b6117a781600063ffffffff61304f16565b156117db5780516002546117db9173ffffffffffffffffffffffffffffffffffffffff90911690339063ffffffff612aca16565b6117eb828263ffffffff612ff416565b95506117f5613f4d565b611805878563ffffffff6132fa16565b905061183461181882610d0f60016129ef565b604080516020810190915260055481529063ffffffff612fb116565b5160055550505050505090565b6118496129da565b6118516115b4565b5061185c828261339c565b61186557600080fd5b33600090815260076020526040902060018101541561188357600080fd5b6040805160208101909152815481526118a390600063ffffffff61322516565b156118d45760405133907ff60993fa76f94c9e0a803526ee6e1314814ed4d2b0d223febf1436b36897fb3790600090a25b6118e18160030184613408565b604080516020810190915281548152611900908363ffffffff612ff416565b51815561190e600984613408565b6040805160208101909152600854815261192e908363ffffffff612ff416565b5160085582516002546119639173ffffffffffffffffffffffffffffffffffffffff909116903390309063ffffffff61318916565b600a5482516040517f40c10f1900000000000000000000000000000000000000000000000000000000815273ffffffffffffffffffffffffffffffffffffffff909216916340c10f19916119bc913391906004016141e7565b602060405180830381600087803b1580156119d657600080fd5b505af11580156119ea573d6000803e3d6000fd5b505050506040513d601f19601f82011682018060405250810190611a0e919061406a565b611a4d576040517f08c379a0000000000000000000000000000000000000000000000000000000008152600401611a4490614643565b60405180910390fd5b8151835160405133907f4b82aa16e071a61de1a6b9aeec9edab0356331f8122c78683b469ac8e685dabc90600090a4505050565b600a5473ffffffffffffffffffffffffffffffffffffffff1681565b611aa561343b565b611aad612b70565b611ab56115b4565b50600680547fffffffffffffffffffffffffffffffffffffffffffffffffffffffffffffff00166001179055611af230611aed613451565b61350c565b611afd600c54612c5e565b60405133907f18600820405d6cf356e3556301762ca32395e72d8c81494fa344835c9da3633d90600090a2565b611b32613f4d565b6040805160208101909152601054815261120a90611b4f90612a23565b610bf76111e9565b60065460ff1681565b60095481565b60005460ff1681565b611b77613f4d565b73ffffffffffffffffffffffffffffffffffffffff821660009081526007602090815260409182902082519182019092526003909101548152611bb990612a23565b92915050565b600c5481565b600d5481565b73ffffffffffffffffffffffffffffffffffffffff81166000908152600f60209081526040808320805482518185028101850190935280835260609492939192909184015b82821015611d515760008481526020908190206040805161016081018252600a8602909201805473ffffffffffffffffffffffffffffffffffffffff908116845260018201549081169484019490945291929083019074010000000000000000000000000000000000000000900460ff166004811115611c8c57fe5b6004811115611c9757fe5b8152600282015460208083019190915260408051808301825260038501548152818401528051808301825260048501548152606084015280518083018252600585015481526080840152805180830182526006850154815260a0840152600784015473ffffffffffffffffffffffffffffffffffffffff1660c0840152805180830182526008850154815260e084015280518083019091526009909301548352610100909101919091529082526001929092019101611c10565b505050509050919050565b8181611d6882826136a8565b611d706115b4565b506000611d7d8486612d74565b9050611d87613f4d565b604080516020810190915260068301548152611dd590611da690612a23565b60408051602080820183526013548252825190810190925260048601548252610aa1919063ffffffff612fb116565b9050611de2601082613408565b8051600254611e139173ffffffffffffffffffffffffffffffffffffffff909116903390309063ffffffff61318916565b6001820180547fffffffffffffffffffffff00ffffffffffffffffffffffffffffffffffffffff16740200000000000000000000000000000000000000001790556007820180547fffffffffffffffffffffffff000000000000000000000000000000000000000016331790556002820154611e8e90612c5e565b604080516020810190915260098301548152611eab90339061350c565b60018201548151604051339273ffffffffffffffffffffffffffffffffffffffff90811692908916917fcaca181ccad7979cf36ed4fc921e496001ab5264608f0fac7007ae1b43d3610291611f02918c9190614473565b60405180910390a4505050505050565b60035473ffffffffffffffffffffffffffffffffffffffff1681565b611f366129da565b6000611f4133612a53565b90508060010154600014611f5457600080fd5b6000600d54611f6161076a565b019050600c54811115611f7357600080fd5b6001820181905582516002830181905560405133907fd33b726e11d2c5d38e6702b16613df0160a07f7ba5185455ee3c45d0494fab1190600090a3505050565b611fbb6129da565b565b60145481565b611fcb6129da565b611fd36115b4565b506000611fdf33612a53565b90508060010154600014611ff257600080fd5b611fff8160030183613408565b61200a600983613408565b815160025461203b9173ffffffffffffffffffffffffffffffffffffffff909116903390309063ffffffff61318916565b815160405133907fe1fffcc4923d04b559f4d29a8bfc6cda04eb5b0d3c460751c2402c5c5cc9109c90600090a35050565b60055481565b60045481565b600e5481565b60006120886115b4565b506120916129da565b600061209c85612a53565b90506120a6613f4d565b6120cc6120b8368690038601866140a2565b604080516020810190915284548152613706565b90506120d6613f4d565b6040805160208101909152835481526120f690839063ffffffff61309c16565b9050612100613f4d565b60408051602081019091526003850154815261211b90612a23565b9050612125613f4d565b61212f60006129ef565b604080516020810190915260028701548152909150612154908363ffffffff61372616565b1561217f5760408051602081019091526002860154815261217c90839063ffffffff61302616565b90505b612187613f4d565b506040805160208101909152855481526121ba826121ae83610aa1368e90038e018e6140a2565b9063ffffffff61372e16565b6121c357600080fd5b506121cc613f4d565b6121dc838563ffffffff612fb116565b90506121e6613f4d565b6121f6838663ffffffff612fb116565b9050612200613f4d565b604080516020810190915260028901548152612222908763ffffffff612fb116565b905061222c613f4d565b612234613451565b73ffffffffffffffffffffffffffffffffffffffff8e166000818152600f602090815260409182902080548351610160810185529485523392850192909252909d5092935081016001815260200161228a61076a565b81526020018a81526020018681526020018581526020016122b36122ae60016129ef565b613736565b8152602001600073ffffffffffffffffffffffffffffffffffffffff1681526020016122df60006129ef565b815260209081018490528254600180820185556000948552938290208351600a9092020180547fffffffffffffffffffffffff000000000000000000000000000000000000000090811673ffffffffffffffffffffffffffffffffffffffff9384161782559284015194810180549093169490911693909317808255604083015192939291907fffffffffffffffffffffff00ffffffffffffffffffffffffffffffffffffffff16740100000000000000000000000000000000000000008360048111156123a957fe5b021790555060608201516002820155608082015151600382015560a082015151600482015560c082015151600582015560e08201515160068201556101008201516007820180547fffffffffffffffffffffffff00000000000000000000000000000000000000001673ffffffffffffffffffffffffffffffffffffffff90921691909117905561012082015151600882015561014090910151516009909101556124568d89868561375f565b612470601061246b868463ffffffff612ff416565b613408565b8751600a546124a19173ffffffffffffffffffffffffffffffffffffffff909116903390309063ffffffff61318916565b600a5488516040517f42966c6800000000000000000000000000000000000000000000000000000000815273ffffffffffffffffffffffffffffffffffffffff909216916342966c68916124f79160040161446a565b600060405180830381600087803b15801561251157600080fd5b505af1158015612525573d6000803e3d6000fd5b50508251600254612558935073ffffffffffffffffffffffffffffffffffffffff1691503390309063ffffffff61318916565b893373ffffffffffffffffffffffffffffffffffffffff168e73ffffffffffffffffffffffffffffffffffffffff167fb936121d607177b497d6d988b46eba92e61c4d475c0cf8e27fc7d1731e2365dc8b60000151886000015188600001516040516125c69392919061474d565b60405180910390a45050505050505050509392505050565b6125e661343b565b6125ee6115b4565b50600060065460ff16600281111561260257fe5b141561260d57600080fd5b600260065460ff16600281111561262057fe5b1461266057612630600c54613856565b51600e55600680547fffffffffffffffffffffffffffffffffffffffffffffffffffffffffffffff001660021790555b612668613f4d565b604080516020810191829052600a547f70a082310000000000000000000000000000000000000000000000000000000090925290819073ffffffffffffffffffffffffffffffffffffffff166370a082316126c633602485016141c6565b60206040518083038186803b1580156126de57600080fd5b505afa1580156126f2573d6000803e3d6000fd5b505050506040513d601f19601f82011682018060405250810190612716919061408a565b90529050612722613f4d565b6040805160208101909152600e54815261274390839063ffffffff612fb116565b336000908152600760209081526040808320815192830190915260038101548252929350612781919061277590612a23565b9063ffffffff61304f16565b1561285e5761278e613f4d565b6040805160208082018352600e5482528251908101909252835482526127ba919063ffffffff612fb116565b90506127c4613f4d565b6040805160208101909152600384015481526127df90612a23565b90506127e9613f4d565b6127f9838363ffffffff613a1b16565b6128125760405180602001604052806000815250612822565b612822828463ffffffff61302616565b9050612834858263ffffffff612ff416565b33600090815260076020526040812081815560018101829055600281018290556003015594505050505b612866613f4d565b604080516020810190915260095481526128899061288390612a23565b84613706565b9050612896600982612a8f565b604080516020810190915260085481526128b6908563ffffffff61302616565b5160085580516002546128e99173ffffffffffffffffffffffffffffffffffffffff90911690339063ffffffff612aca16565b8351600a5461291a9173ffffffffffffffffffffffffffffffffffffffff909116903390309063ffffffff61318916565b600a5484516040517f42966c6800000000000000000000000000000000000000000000000000000000815273ffffffffffffffffffffffffffffffffffffffff909216916342966c68916129709160040161446a565b600060405180830381600087803b15801561298a57600080fd5b505af115801561299e573d6000803e3d6000fd5b505085518351604051919350915033907f9d349c102bec959fb7f20f9a3621e015819d3ae4ed6e9afd1f56a69d5845600690600090a450505050565b600c546129e561076a565b10611fbb57600080fd5b6129f7613f4d565b604080516020810190915280612a1b84670de0b6b3a764000063ffffffff613a2216565b905292915050565b612a2b613f4d565b60408051602081019091526005548152611bb990839063ffffffff612fb116565b5190511490565b600081612a5f81613a76565b505073ffffffffffffffffffffffffffffffffffffffff16600090815260076020526040902090565b5190511190565b612a97613f4d565b612aa082613736565b604080516020810190915284548152909150612ac2908263ffffffff61302616565b519092555050565b612b6b8363a9059cbb60e01b8484604051602401612ae99291906141e7565b604080517fffffffffffffffffffffffffffffffffffffffffffffffffffffffffffffffe08184030181529190526020810180517bffffffffffffffffffffffffffffffffffffffffffffffffffffffff167fffffffff0000000000000000000000000000000000000000000000000000000090931692909217909152613ac6565b505050565b600060065460ff166002811115612b8357fe5b14611fbb57600080fd5b6003546040517faafd5e400000000000000000000000000000000000000000000000000000000081526000917f46696e616e6369616c436f6e74726163747341646d696e0000000000000000009173ffffffffffffffffffffffffffffffffffffffff9091169063aafd5e4090612c0890849060040161446a565b60206040518083038186803b158015612c2057600080fd5b505afa158015612c34573d6000803e3d6000fd5b505050506040513d601f19601f82011682018060405250810190612c589190613fdd565b91505090565b6000612c68613c13565b600b546040517f68ad8ae300000000000000000000000000000000000000000000000000000000815291925073ffffffffffffffffffffffffffffffffffffffff8316916368ad8ae391612cc0918690600401614473565b600060405180830381600087803b158015612cda57600080fd5b505af1158015612cee573d6000803e3d6000fd5b505050505050565b6000612d028284612d74565b6001818101549192507401000000000000000000000000000000000000000090910460ff1690816004811115612d3457fe5b1180612d655750612d4361076a565b612d4c83613c8e565b11158015612d6557506001816004811115612d6357fe5b145b612d6e57600080fd5b50505050565b73ffffffffffffffffffffffffffffffffffffffff82166000908152600f60205260408120805483108015612ddf57506000818481548110612db257fe5b90600052602060002090600a020160010160149054906101000a900460ff166004811115612ddc57fe5b14155b612de857600080fd5b808381548110612df457fe5b90600052602060002090600a020191505092915050565b6000612e178284612d74565b90506002600182015474010000000000000000000000000000000000000000900460ff166004811115612e4657fe5b14612e515750612fad565b612e5e8160020154613856565b516008820155612e6c613f4d565b604080516020808201835260088501548252825190810190925260038401548252612e9d919063ffffffff612fb116565b9050612ea7613f4d565b60408051602081019091526012548152612ec890839063ffffffff612fb116565b604080516020810190915260058501548152909150600090612ef0908363ffffffff61372e16565b905080612efe576004612f01565b60035b6001850180547fffffffffffffffffffffff00ffffffffffffffffffffffffffffffffffffffff1674010000000000000000000000000000000000000000836004811115612f4b57fe5b02179055506001840154600785015460405173ffffffffffffffffffffffffffffffffffffffff928316928881169233927f6c5582199868fabbe697f9ea10abe481bacf53ac78c02a965b34dff82fd20e3b92611f029216908c908890614320565b5050565b612fb9613f4d565b6040805160208101909152825184518291670de0b6b3a764000091612fe39163ffffffff613a2216565b81612fea57fe5b0490529392505050565b612ffc613f4d565b604080516020810190915282518451829161301d919063ffffffff613ca916565b90529392505050565b61302e613f4d565b604080516020810190915282518451829161301d919063ffffffff613ce816565b600061305a826129ef565b51835111905092915050565b604080516020810190915260038201548152600090611bb99061308890612a23565b60408051602081019091528454815261339c565b6130a4613f4d565b604080516020810190915282518451829161301d916130d190670de0b6b3a764000063ffffffff613a2216565b9063ffffffff613d2a16565b60006130e882612a53565b604080516020808201835260038401548252825190810190925260095482529192506131199163ffffffff61302616565b5160095560408051602080820183528354825282519081019092526008548252613149919063ffffffff61302616565b516008555073ffffffffffffffffffffffffffffffffffffffff166000908152600760205260408120818155600181018290556002810182905560030155565b612d6e846323b872dd60e01b858585604051602401612ae9939291906142ef565b6003546040517faafd5e400000000000000000000000000000000000000000000000000000000081526000917f53746f72650000000000000000000000000000000000000000000000000000009173ffffffffffffffffffffffffffffffffffffffff9091169063aafd5e4090612c0890849060040161446a565b6000613230826129ef565b51835114905092915050565b60006132d9828573ffffffffffffffffffffffffffffffffffffffff1663dd62ed3e30876040518363ffffffff1660e01b815260040161327d929190614248565b60206040518083038186803b15801561329557600080fd5b505afa1580156132a9573d6000803e3d6000fd5b505050506040513d601f19601f820116820180604052508101906132cd919061408a565b9063ffffffff613ca916565b9050612d6e8463095ea7b360e01b8584604051602401612ae99291906141e7565b613302613f4d565b825160009061331f90670de0b6b3a764000063ffffffff613a2216565b835190915060009061333890839063ffffffff613d2a16565b845190915060009061335190849063ffffffff613d6c16565b905080156133835760408051602081019091528061337684600163ffffffff613ca916565b8152509350505050611bb9565b6040518060200160405280838152509350505050611bb9565b60006133a6613f4d565b604080516020810190915260095481526133d8906133c390612a23565b60408051602081019091526008548152613dae565b90506133e2613f4d565b6133ec8585613dae565b90506133fe828263ffffffff612a8816565b1595945050505050565b613410613f4d565b61341982613736565b604080516020810190915284548152909150612ac2908263ffffffff612ff416565b600c5461344661076a565b1015611fbb57600080fd5b613459613f4d565b60006134636131aa565b6002546040517f5b97aadd00000000000000000000000000000000000000000000000000000000815291925073ffffffffffffffffffffffffffffffffffffffff80841692635b97aadd926134bc9216906004016141c6565b60206040518083038186803b1580156134d457600080fd5b505afa1580156134e8573d6000803e3d6000fd5b505050506040513d601f19601f82011682018060405250810190612c5891906140bd565b61351d81600063ffffffff61322516565b1561352757612fad565b73ffffffffffffffffffffffffffffffffffffffff8216301461357a5780516002546135759173ffffffffffffffffffffffffffffffffffffffff909116908490309063ffffffff61318916565b6135df565b613582613f4d565b61358a611b2a565b905061359c818363ffffffff612a8816565b6135a557600080fd5b6135ad613f4d565b6135c56135b8611b2a565b849063ffffffff6132fa16565b90506135d861181882610d0f60016129ef565b5160055550505b60006135e96131aa565b82516002549192506136199173ffffffffffffffffffffffffffffffffffffffff1690839063ffffffff61323c16565b6002546040517f4933a88700000000000000000000000000000000000000000000000000000000815273ffffffffffffffffffffffffffffffffffffffff83811692634933a8879261367192909116906004016141c6565b600060405180830381600087803b15801561368b57600080fd5b505af115801561369f573d6000803e3d6000fd5b50505050505050565b60006136b48284612d74565b90506136bf81613c8e565b6136c761076a565b1080156136fd575060018082015474010000000000000000000000000000000000000000900460ff1660048111156136fb57fe5b145b612b6b57600080fd5b61370e613f4d565b815183511061371d578161371f565b825b9392505050565b519051111590565b519051101590565b61373e613f4d565b60408051602081019091526005548152611bb990839063ffffffff61309c16565b600061376a85612a53565b60408051602081019091528154815290915061378d90859063ffffffff612a4c16565b80156137b557506040805160208101909152600382015481526137b59084906105df90612a23565b156137c9576137c3856130dd565b50612d6e565b6137d68160030184612a8f565b6040805160208101909152815481526137f5908563ffffffff61302616565b51815560408051602081019091526002820154815261381a908363ffffffff61302616565b51600282015561382b600984612a8f565b6040805160208101909152600854815261384b908563ffffffff61302616565b516008555050505050565b61385e613f4d565b6000613868613c13565b600b546040517fa03e881a00000000000000000000000000000000000000000000000000000000815291925073ffffffffffffffffffffffffffffffffffffffff83169163a03e881a916138c0918790600401614473565b60206040518083038186803b1580156138d857600080fd5b505afa1580156138ec573d6000803e3d6000fd5b505050506040513d601f19601f82011682018060405250810190613910919061406a565b613946576040517f08c379a0000000000000000000000000000000000000000000000000000000008152600401611a4490614589565b600b546040517fc9280f0600000000000000000000000000000000000000000000000000000000815260009173ffffffffffffffffffffffffffffffffffffffff84169163c9280f069161399e918890600401614473565b60206040518083038186803b1580156139b657600080fd5b505afa1580156139ca573d6000803e3d6000fd5b505050506040513d601f19601f820116820180604052508101906139ee919061408a565b905060008112156139fd575060005b6040518060200160405280613a1183613dec565b9052949350505050565b5190511090565b600082613a3157506000611bb9565b82820282848281613a3e57fe5b041461371f576040517f08c379a0000000000000000000000000000000000000000000000000000000008152600401611a44906145e6565b73ffffffffffffffffffffffffffffffffffffffff811660009081526007602090815260408083208151928301909152600301548152613aba919061277590612a23565b613ac357600080fd5b50565b613ae58273ffffffffffffffffffffffffffffffffffffffff16613e2c565b613b1b576040517f08c379a0000000000000000000000000000000000000000000000000000000008152600401611a44906146d7565b600060608373ffffffffffffffffffffffffffffffffffffffff1683604051613b4491906141aa565b6000604051808303816000865af19150503d8060008114613b81576040519150601f19603f3d011682016040523d82523d6000602084013e613b86565b606091505b509150915081613bc2576040517f08c379a0000000000000000000000000000000000000000000000000000000008152600401611a4490614554565b805115612d6e5780806020019051810190613bdd919061406a565b612d6e576040517f08c379a0000000000000000000000000000000000000000000000000000000008152600401611a449061467a565b6003546040517faafd5e400000000000000000000000000000000000000000000000000000000081526000917f4f7261636c6500000000000000000000000000000000000000000000000000009173ffffffffffffffffffffffffffffffffffffffff9091169063aafd5e4090612c0890849060040161446a565b6000611bb96011548360020154613ca990919063ffffffff16565b60008282018381101561371f576040517f08c379a0000000000000000000000000000000000000000000000000000000008152600401611a44906144e6565b600061371f83836040518060400160405280601e81526020017f536166654d6174683a207375627472616374696f6e206f766572666c6f770000815250613e68565b600061371f83836040518060400160405280601a81526020017f536166654d6174683a206469766973696f6e206279207a65726f000000000000815250613eae565b600061371f83836040518060400160405280601881526020017f536166654d6174683a206d6f64756c6f206279207a65726f0000000000000000815250613eff565b613db6613f4d565b613dc782600063ffffffff61304f16565b613ddc57613dd560006129ef565b9050611bb9565b613dd5838363ffffffff61309c16565b600080821215613e28576040517f08c379a0000000000000000000000000000000000000000000000000000000008152600401611a449061451d565b5090565b6000813f7fc5d2460186f7233c927e7db2dcc703c0e500b653ca82273b7bfad8045d85a470818114801590613e6057508115155b949350505050565b60008184841115613ea6576040517f08c379a0000000000000000000000000000000000000000000000000000000008152600401611a449190614495565b505050900390565b60008183613ee9576040517f08c379a0000000000000000000000000000000000000000000000000000000008152600401611a449190614495565b506000838581613ef557fe5b0495945050505050565b60008183613f3a576040517f08c379a0000000000000000000000000000000000000000000000000000000008152600401611a449190614495565b50828481613f4457fe5b06949350505050565b6040518060200160405280600081525090565b600060208284031215613f71578081fd5b50919050565b600060208284031215613f88578081fd5b613f926020614763565b9135825250919050565b600060208284031215613fad578081fd5b613fb76020614763565b9151825250919050565b600060208284031215613fd2578081fd5b813561371f816147c0565b600060208284031215613fee578081fd5b815161371f816147c0565b60008060006060848603121561400d578182fd5b8335614018816147c0565b92506140278560208601613f60565b91506140368560408601613f60565b90509250925092565b60008060408385031215614051578182fd5b823561405c816147c0565b946020939093013593505050565b60006020828403121561407b578081fd5b8151801515811461371f578182fd5b60006020828403121561409b578081fd5b5051919050565b6000602082840312156140b3578081fd5b61371f8383613f77565b6000602082840312156140ce578081fd5b61371f8383613f9c565b600080604083850312156140ea578182fd5b6140f48484613f77565b91506141038460208501613f77565b90509250929050565b6000806040838503121561411e578182fd5b6141288484613f9c565b91506141038460208501613f9c565b600060208284031215614148578081fd5b5035919050565b60008060408385031215614161578182fd5b823591506020830135614173816147c0565b809150509250929050565b73ffffffffffffffffffffffffffffffffffffffff169052565b6141a1816147b6565b9052565b519052565b600082516141bc81846020870161478a565b9190910192915050565b73ffffffffffffffffffffffffffffffffffffffff91909116815260200190565b73ffffffffffffffffffffffffffffffffffffffff929092168252602082015260400190565b73ffffffffffffffffffffffffffffffffffffffff84168152602081018390526060810161423a836147b6565b826040830152949350505050565b73ffffffffffffffffffffffffffffffffffffffff92831681529116602082015260400190565b73ffffffffffffffffffffffffffffffffffffffff8c811682528b811660208301526101608201906142a08c6147b6565b604083019b909b52606082019990995296516080880152945160a0870152925160c0860152905160e0850152909416610100830152925161012082015291516101409092019190915292915050565b73ffffffffffffffffffffffffffffffffffffffff9384168152919092166020820152604081019190915260600190565b73ffffffffffffffffffffffffffffffffffffffff93909316835260208301919091521515604082015260600190565b602080825282518282018190526000919060409081850190868401855b8281101561445257815161438285825161417e565b868101516143928887018261417e565b50858101516143a387870182614198565b50606081810151908601526080808201516143c0828801826141a5565b505060a0808201516143d4828801826141a5565b505060c0808201516143e8828801826141a5565b505060e0808201516143fc828801826141a5565b5050610100808201516144118288018261417e565b505061012080820151614426828801826141a5565b50506101408082015161443b828801826141a5565b50505061016093909301929085019060010161436d565b5091979650505050505050565b901515815260200190565b90815260200190565b918252602082015260400190565b602081016003831061448f57fe5b91905290565b60006020825282518060208401526144b481604085016020870161478a565b601f017fffffffffffffffffffffffffffffffffffffffffffffffffffffffffffffffe0169190910160400192915050565b6020808252601b908201527f536166654d6174683a206164646974696f6e206f766572666c6f770000000000604082015260600190565b6020808252600e908201527f55696e7420756e646572666c6f77000000000000000000000000000000000000604082015260600190565b6020808252818101527f5361666545524332303a206c6f772d6c6576656c2063616c6c206661696c6564604082015260600190565b6020808252602e908201527f43616e206f6e6c79206765742061207072696365206f6e63652074686520445660408201527f4d20686173207265736f6c766564000000000000000000000000000000000000606082015260800190565b60208082526021908201527f536166654d6174683a206d756c7469706c69636174696f6e206f766572666c6f60408201527f7700000000000000000000000000000000000000000000000000000000000000606082015260800190565b6020808252601f908201527f4d696e74696e672073796e74686574696320746f6b656e73206661696c656400604082015260600190565b6020808252602a908201527f5361666545524332303a204552433230206f7065726174696f6e20646964206e60408201527f6f74207375636365656400000000000000000000000000000000000000000000606082015260800190565b6020808252601f908201527f5361666545524332303a2063616c6c20746f206e6f6e2d636f6e747261637400604082015260600190565b9051815260200190565b93518452602084019290925251604083015251606082015260800190565b928352602083019190915251604082015260600190565b9283526020830191909152604082015260600190565b60405181810167ffffffffffffffff8111828210171561478257600080fd5b604052919050565b60005b838110156147a557818101518382015260200161478d565b83811115612d6e5750506000910152565b60058110613ac357fe5b73ffffffffffffffffffffffffffffffffffffffff81168114613ac357600080fd5b60006147ed826129ef565b5183511090509291505056fea2646970667358221220085c589ea498b9d3acfcc41a288a39de415c93cdd4f85897e9c88afc860906cc64736f6c63430006040033",
  "source": "pragma solidity ^0.6.0;\npragma experimental ABIEncoderV2;\n\nimport \"../../common/implementation/FixedPoint.sol\";\nimport \"./Liquidatable.sol\";\n\n\ncontract ExpiringMultiParty is Liquidatable {\n    constructor(ConstructorParams memory params) public Liquidatable(params) {}\n}\n",
  "sourcePath": "/home/opz/Projects/SynFiat-update/ui/contracts/uma-contracts/financial-templates/implementation/ExpiringMultiParty.sol",
  "compiler": {
    "name": "solc",
    "version": "0.6.4+commit.1dca32f3.Emscripten.clang"
  },
  "schemaVersion": "3.2.0",
  "updatedAt": "2020-06-29T17:20:03.088Z",
  "devdoc": {
    "methods": {
      "create((uint256),(uint256))": {
        "details": "Reverts if the minting these tokens would put the position's collateralization ratio below the global collateralization ratio.",
        "params": {
          "collateralAmount": "is the number of collateral tokens to collateralize the position with",
          "numTokens": "is the number of tokens to mint from the position."
        }
      },
      "createLiquidation(address,(uint256),(uint256))": {
        "details": "This method generates an ID that will uniquely identify liquidation for the sponsor.",
        "params": {
          "collateralPerToken": "abort the liquidation if the position's collateral per token exceeds this value.",
          "maxTokensToLiquidate": "max number of tokes to liquidate.",
          "sponsor": "address to liquidate."
        },
        "returns": {
          "liquidationId": "of the newly created liquidation."
        }
      },
      "deposit((uint256))": {
        "details": "Increases the collateralization level of a position after creation.",
        "params": {
          "collateralAmount": "total amount of collateral tokens to be sent to the sponsor's position."
        }
      },
      "dispute(uint256,address)": {
        "details": "Can only dispute a liquidation before the liquidation expires and if there are no other pending disputes.",
        "params": {
          "liquidationId": "of the disputed liquidation.",
          "sponsor": "the address of the sponsor who's liquidation is being disputed."
        }
      },
      "emergencyShutdown()": {
        "details": "Only the governor can call this function as they are permissioned within the `FinancialContractAdmin`. Upon emergency shutdown, the contract settlement time is set to the shutdown time. This enables withdrawal to occur via the standard `settleExpired` function. Contract state is set to `ExpiredPriceRequested` which prevents re-entry into this function or the `expire` function. No fees are paid when calling `emergencyShutdown` as the governor who would call the function would also receive the fees."
      },
      "expire()": {
        "details": "this function can only be called once the contract is expired and cant be re-called due to the state modifiers applied on it."
      },
      "getCollateral(address)": {
        "details": "This is necessary because the struct returned by the positions() method shows rawCollateral, which isn't a user-readable value.",
        "params": {
          "sponsor": "address whose collateral amount is retrieved."
        }
      },
      "payFees()": {
        "details": "These must be paid periodically for the life of the contract. If the contract has not paid its regular fee in a week or mre then a late penalty is applied which is sent to the caller.",
        "returns": {
          "totalPaid": "The amount of collateral that the contract paid (sum of the amount paid to the Store and the caller)."
        }
      },
      "pfc()": {
        "details": "This overrides pfc() so the Liquidatable contract can report its profit from corruption."
      },
      "redeem((uint256))": {
        "details": "Can only be called by a token sponsor.",
        "params": {
          "numTokens": "is the number of tokens to be burnt for a commensurate amount of collateral."
        }
      },
      "requestWithdrawal((uint256))": {
        "details": "The request will be pending for `withdrawalLiveness`, during which the position can be liquidated.",
        "params": {
          "collateralAmount": "the amount of collateral requested to withdraw"
        }
      },
      "setCurrentTime(uint256)": {
        "details": "Will revert if not running in test mode."
      },
      "settleExpired()": {
        "details": "This Burns all tokens from the caller of `tokenCurrency` and sends back the proportional amount of `collateralCurrency`."
      },
      "transfer(address)": {
        "details": "Transferring positions can only occur if the recipient does not already have a position.",
        "params": {
          "newSponsorAddress": "is the address to which the position will be transferred."
        }
      },
      "withdraw((uint256))": {
        "details": "Reverts if the withdrawal puts this position's collateralization ratio below the global collateralization ratio. In that case, use `requestWithdrawawal`.",
        "params": {
          "collateralAmount": "is the amount of collateral to withdraw"
        }
      },
      "withdrawLiquidation(uint256,address)": {
        "details": "If the dispute SUCCEEDED: the sponsor, liquidator, and disputer are eligible for payment If the dispute FAILED: only the liquidator can receive payment Once all collateral is withdrawn, delete the liquidation data.",
        "params": {
          "liquidationId": "uniquely identifies the sponsor's liquidation.",
          "sponsor": "address of the sponsor associated with the liquidation."
        },
        "returns": {
          "withdrawalAmount": "the total amount of underlying returned from the liquidation."
        }
      }
    }
  },
  "userdoc": {
    "methods": {
      "cancelWithdrawal()": {
        "notice": "Cancels a pending withdrawal request."
      },
      "create((uint256),(uint256))": {
        "notice": "Pulls `collateralAmount` into the sponsor's position and mints `numTokens` of `tokenCurrency`."
      },
      "createLiquidation(address,(uint256),(uint256))": {
        "notice": "Liquidates the sponsor's position if the caller has enough synthetic tokens to retire the position's outstanding tokens."
      },
      "deposit((uint256))": {
        "notice": "Transfers `collateralAmount` of `collateralCurrency` into the sponsor's position."
      },
      "dispute(uint256,address)": {
        "notice": "Disputes a liquidation, if the caller has enough collateral to post a dispute bond and pay a fixed final fee charged on each price request."
      },
      "emergencyShutdown()": {
        "notice": "Premature contract settlement under emergency circumstances."
      },
      "expire()": {
        "notice": "Locks contract state in expired and requests oracle price."
      },
      "getCollateral(address)": {
        "notice": "Accessor method for a sponsor's collateral."
      },
      "getCurrentTime()": {
        "notice": "Gets the current time. Will return the last time set in `setCurrentTime` if running in test mode. Otherwise, it will return the block timestamp."
      },
      "payFees()": {
        "notice": "Pays UMA DVM regular fees to the Store contract."
      },
      "redeem((uint256))": {
        "notice": "Burns `numTokens` of `tokenCurrency` and sends back the proportional amount of `collateralCurrency`."
      },
      "requestWithdrawal((uint256))": {
        "notice": "Starts a withdrawal request that, if passed, allows the sponsor to withdraw `collateralAmount` from their position."
      },
      "setCurrentTime(uint256)": {
        "notice": "Sets the current time."
      },
      "settleExpired()": {
        "notice": "After a contract has passed expiry all token holders can redeem their tokens for underlying at the prevailing price defined by the DVM from the `expire` function."
      },
      "totalPositionCollateral()": {
        "notice": "Accessor method for the total collateral stored within the PricelessPositionManager."
      },
      "transfer(address)": {
        "notice": "Transfers ownership of the caller's current position to `newSponsorAddress`."
      },
      "withdraw((uint256))": {
        "notice": "Transfers `collateralAmount` of `collateralCurrency` from the sponsor's position to the sponsor."
      },
      "withdrawLiquidation(uint256,address)": {
        "notice": "After a dispute has settled or after a non-disputed liquidation has expired, the sponsor, liquidator, and/or disputer can call this method to receive payments."
      },
      "withdrawPassedRequest()": {
        "notice": "After a passed withdrawal request (i.e., by a call to `requestWithdrawal` and waiting `withdrawalLiveness`), withdraws `positionData.withdrawalRequestAmount` of collateral currency."
      }
    }
  }
}