{
  "contractName": "ExpiringMultiPartyCreator",
  "abi": [
    {
      "inputs": [
        {
          "internalType": "bool",
          "name": "_isTest",
          "type": "bool"
        },
        {
          "internalType": "address",
          "name": "_finderAddress",
          "type": "address"
        },
        {
          "internalType": "address",
          "name": "_collateralTokenWhitelist",
          "type": "address"
        },
        {
          "internalType": "address",
          "name": "_tokenFactoryAddress",
          "type": "address"
        }
      ],
      "stateMutability": "nonpayable",
      "type": "constructor"
    },
    {
      "anonymous": false,
      "inputs": [
        {
          "indexed": false,
          "internalType": "address",
          "name": "expiringMultiPartyAddress",
          "type": "address"
        },
        {
          "indexed": false,
          "internalType": "address",
          "name": "partyMemberAddress",
          "type": "address"
        }
      ],
      "name": "CreatedExpiringMultiParty",
      "type": "event"
    },
    {
      "inputs": [],
      "name": "MIN_DISPUTE_BOND_PCT",
      "outputs": [
        {
          "internalType": "uint256",
          "name": "",
          "type": "uint256"
        }
      ],
      "stateMutability": "view",
      "type": "function"
    },
    {
      "inputs": [],
      "name": "STRICT_LIQUIDATION_LIVENESS",
      "outputs": [
        {
          "internalType": "uint256",
          "name": "",
          "type": "uint256"
        }
      ],
      "stateMutability": "view",
      "type": "function"
    },
    {
      "inputs": [],
      "name": "STRICT_WITHDRAWAL_LIVENESS",
      "outputs": [
        {
          "internalType": "uint256",
          "name": "",
          "type": "uint256"
        }
      ],
      "stateMutability": "view",
      "type": "function"
    },
    {
      "inputs": [
        {
          "internalType": "uint256",
          "name": "",
          "type": "uint256"
        }
      ],
      "name": "VALID_EXPIRATION_TIMESTAMPS",
      "outputs": [
        {
          "internalType": "uint256",
          "name": "",
          "type": "uint256"
        }
      ],
      "stateMutability": "view",
      "type": "function"
    },
    {
      "inputs": [],
      "name": "collateralTokenWhitelist",
      "outputs": [
        {
          "internalType": "contract AddressWhitelist",
          "name": "",
          "type": "address"
        }
      ],
      "stateMutability": "view",
      "type": "function"
    },
    {
      "inputs": [],
      "name": "getCurrentTime",
      "outputs": [
        {
          "internalType": "uint256",
          "name": "",
          "type": "uint256"
        }
      ],
      "stateMutability": "view",
      "type": "function"
    },
    {
      "inputs": [],
      "name": "isTest",
      "outputs": [
        {
          "internalType": "bool",
          "name": "",
          "type": "bool"
        }
      ],
      "stateMutability": "view",
      "type": "function"
    },
    {
      "inputs": [
        {
          "internalType": "uint256",
          "name": "_time",
          "type": "uint256"
        }
      ],
      "name": "setCurrentTime",
      "outputs": [],
      "stateMutability": "nonpayable",
      "type": "function"
    },
    {
      "inputs": [],
      "name": "tokenFactoryAddress",
      "outputs": [
        {
          "internalType": "address",
          "name": "",
          "type": "address"
        }
      ],
      "stateMutability": "view",
      "type": "function"
    },
    {
      "inputs": [
        {
          "components": [
            {
              "internalType": "uint256",
              "name": "expirationTimestamp",
              "type": "uint256"
            },
            {
              "internalType": "address",
              "name": "collateralAddress",
              "type": "address"
            },
            {
              "internalType": "bytes32",
              "name": "priceFeedIdentifier",
              "type": "bytes32"
            },
            {
              "internalType": "string",
              "name": "syntheticName",
              "type": "string"
            },
            {
              "internalType": "string",
              "name": "syntheticSymbol",
              "type": "string"
            },
            {
              "components": [
                {
                  "internalType": "uint256",
                  "name": "rawValue",
                  "type": "uint256"
                }
              ],
              "internalType": "struct FixedPoint.Unsigned",
              "name": "collateralRequirement",
              "type": "tuple"
            },
            {
              "components": [
                {
                  "internalType": "uint256",
                  "name": "rawValue",
                  "type": "uint256"
                }
              ],
              "internalType": "struct FixedPoint.Unsigned",
              "name": "disputeBondPct",
              "type": "tuple"
            },
            {
              "components": [
                {
                  "internalType": "uint256",
                  "name": "rawValue",
                  "type": "uint256"
                }
              ],
              "internalType": "struct FixedPoint.Unsigned",
              "name": "sponsorDisputeRewardPct",
              "type": "tuple"
            },
            {
              "components": [
                {
                  "internalType": "uint256",
                  "name": "rawValue",
                  "type": "uint256"
                }
              ],
              "internalType": "struct FixedPoint.Unsigned",
              "name": "disputerDisputeRewardPct",
              "type": "tuple"
            }
          ],
          "internalType": "struct ExpiringMultiPartyCreator.Params",
          "name": "params",
          "type": "tuple"
        }
      ],
      "name": "createExpiringMultiParty",
      "outputs": [
        {
          "internalType": "address",
          "name": "",
          "type": "address"
        }
      ],
      "stateMutability": "nonpayable",
      "type": "function"
    }
  ],
  "bytecode": "0x610280604052635e83d9806080908152635eab668060a052635ed4450060c052635efbd20060e052635f24b08061010052635f4d8f0061012052635f751c0061014052635f9dfa8061016052635fc5878061018052635fee66006101a05263601744806101c05263603c2e806101e0526360650d006102005263608c9a00610220526360b57880610240526360dd058061026052620000a39060049060106200014a565b50348015620000b157600080fd5b50604051620061f1380380620061f1833981016040819052620000d491620001d3565b600080546001600160a01b0319166001600160a01b0385161760ff60a01b1916600160a01b86158015919091029190911790915584906200011457426001555b50600280546001600160a01b039384166001600160a01b0319918216179091556003805492909316911617905550620002379050565b826011810192821562000183579160200282015b8281111562000183578251829063ffffffff169055916020019190600101906200015e565b506200019192915062000195565b5090565b620001b291905b808211156200019157600081556001016200019c565b90565b80516001600160a01b0381168114620001cd57600080fd5b92915050565b60008060008060808587031215620001e9578384fd5b84518015158114620001f9578485fd5b93506200020a8660208701620001b5565b92506200021b8660408701620001b5565b91506200022c8660608701620001b5565b905092959194509250565b615faa80620002476000396000f3fe60806040523480156200001157600080fd5b5060043610620000d05760003560e01c8063865414d51162000081578063be19f0a71162000063578063be19f0a71462000163578063c4517ef6146200016d578063fd24b848146200017757620000d0565b8063865414d514620001315780639381a345146200014a57620000d0565b8063359db91a11620000b7578063359db91a14620001105780635f8e19781462000110578063719e819a146200011a57620000d0565b806322f8e56614620000d557806329cb924d14620000ee575b600080fd5b620000ec620000e636600462000ade565b6200018e565b005b620000f8620001bb565b60405162000107919062000c54565b60405180910390f35b620000f8620001f0565b620000f86200012b36600462000ade565b620001f6565b6200013b6200020b565b60405162000107919062000b88565b6200015462000227565b60405162000107919062000c49565b6200013b62000248565b620000f862000264565b6200013b62000188366004620009c4565b62000269565b60005474010000000000000000000000000000000000000000900460ff16620001b657600080fd5b600155565b6000805474010000000000000000000000000000000000000000900460ff1615620001ea5750600154620001ed565b50425b90565b610e1081565b600481601181106200020457fe5b0154905081565b60025473ffffffffffffffffffffffffffffffffffffffff1681565b60005474010000000000000000000000000000000000000000900460ff1681565b60035473ffffffffffffffffffffffffffffffffffffffff1681565b600081565b60008062000277836200036e565b6040516200028590620007cc565b62000291919062000cba565b604051809103906000f080158015620002ae573d6000803e3d6000fd5b5060408051600180825281830190925291925060609190602080830190803683370190505090503381600081518110620002e457fe5b602002602001019073ffffffffffffffffffffffffffffffffffffffff16908173ffffffffffffffffffffffffffffffffffffffff16815250506200032a818362000568565b7ff360b00b309dfe6565667df6b06eab15d0e0958d5e82d89a399ae7dd417b4b0982336040516200035d92919062000ba9565b60405180910390a15090505b919050565b62000378620007da565b60005460ff740100000000000000000000000000000000000000008204161515825273ffffffffffffffffffffffffffffffffffffffff90811660808301526003541660a08201528151620003cd90620006cd565b620003d757600080fd5b60c0820151620003ef90600063ffffffff6200071016565b620003f957600080fd5b6060820151516200040957600080fd5b6080820151516200041957600080fd5b610e106040808301829052610120830191909152600254602084015191517f3a3ab67200000000000000000000000000000000000000000000000000000000815273ffffffffffffffffffffffffffffffffffffffff90911691633a3ab6729162000488919060040162000b88565b60206040518083038186803b158015620004a157600080fd5b505afa158015620004b6573d6000803e3d6000fd5b505050506040513d601f19601f82011682018060405250810190620004dc9190620009a2565b620004e657600080fd5b815160208083019190915282015173ffffffffffffffffffffffffffffffffffffffff16606080830191909152604083015160c0808401919091529083015160e08084019190915260808401516101008085019190915260a085015161014085015291840151610160840152830151610180830152909101516101a082015290565b600080546040517faafd5e4000000000000000000000000000000000000000000000000000000000815273ffffffffffffffffffffffffffffffffffffffff909116917f526567697374727900000000000000000000000000000000000000000000000091839063aafd5e4090620005e590859060040162000c54565b60206040518083038186803b158015620005fe57600080fd5b505afa15801562000613573d6000803e3d6000fd5b505050506040513d601f19601f8201168201806040525081019062000639919062000983565b6040517f66c8c25000000000000000000000000000000000000000000000000000000000815290915073ffffffffffffffffffffffffffffffffffffffff8216906366c8c2509062000692908890889060040162000bd0565b600060405180830381600087803b158015620006ad57600080fd5b505af1158015620006c2573d6000803e3d6000fd5b505050505050505050565b6000805b601181101562000707578260048260118110620006ea57fe5b01541415620006fe57600191505062000369565b600101620006d1565b50600092915050565b60006200071d826200072a565b5183511190505b92915050565b62000734620008af565b6040805160208101909152806200075a84670de0b6b3a764000063ffffffff6200076216565b905292915050565b600082620007735750600062000724565b828202828482816200078157fe5b0414620007c5576040517f08c379a0000000000000000000000000000000000000000000000000000000008152600401620007bc9062000c5d565b60405180910390fd5b9392505050565b6151258062000e5083390190565b604051806101c001604052806000151581526020016000815260200160008152602001600073ffffffffffffffffffffffffffffffffffffffff168152602001600073ffffffffffffffffffffffffffffffffffffffff168152602001600073ffffffffffffffffffffffffffffffffffffffff168152602001600080191681526020016060815260200160608152602001600081526020016200087d620008af565b81526020016200088c620008af565b81526020016200089b620008af565b8152602001620008aa620008af565b905290565b6040518060200160405280600081525090565b8035620007248162000e29565b600082601f830112620008e0578081fd5b813567ffffffffffffffff811115620008f7578182fd5b6200092a60207fffffffffffffffffffffffffffffffffffffffffffffffffffffffffffffffe0601f8401160162000e01565b91508082528360208285010111156200094257600080fd5b8060208401602084013760009082016020015292915050565b6000602082840312156200096d578081fd5b62000979602062000e01565b9135825250919050565b60006020828403121562000995578081fd5b8151620007c58162000e29565b600060208284031215620009b4578081fd5b81518015158114620007c5578182fd5b600060208284031215620009d6578081fd5b813567ffffffffffffffff80821115620009ee578283fd5b61012091840180860383131562000a03578384fd5b62000a0e8362000e01565b8135815262000a218760208401620008c2565b602082015260408201356040820152606082013593508284111562000a44578485fd5b62000a5287858401620008cf565b6060820152608082013593508284111562000a6b578485fd5b62000a7987858401620008cf565b608082015262000a8d8760a084016200095b565b60a082015262000aa18760c084016200095b565b60c082015262000ab58760e084016200095b565b60e0820152610100935062000acd878584016200095b565b848201528094505050505092915050565b60006020828403121562000af0578081fd5b5035919050565b73ffffffffffffffffffffffffffffffffffffffff169052565b15159052565b60008151808452815b8181101562000b3e5760208185018101518683018201520162000b20565b8181111562000b505782602083870101525b50601f017fffffffffffffffffffffffffffffffffffffffffffffffffffffffffffffffe0169290920160200192915050565b519052565b73ffffffffffffffffffffffffffffffffffffffff91909116815260200190565b73ffffffffffffffffffffffffffffffffffffffff92831681529116602082015260400190565b604080825283519082018190526000906020906060840190828701845b8281101562000c2157815173ffffffffffffffffffffffffffffffffffffffff168452928401929084019060010162000bed565b50505073ffffffffffffffffffffffffffffffffffffffff9490941692019190915250919050565b901515815260200190565b90815260200190565b60208082526021908201527f536166654d6174683a206d756c7469706c69636174696f6e206f766572666c6f60408201527f7700000000000000000000000000000000000000000000000000000000000000606082015260800190565b60006020825262000cd060208301845162000b11565b6020830151604083015260408301516060830152606083015162000cf8608084018262000af7565b50608083015162000d0d60a084018262000af7565b5060a083015162000d2260c084018262000af7565b5060c083015160e083015260e08301516101c0610100818186015262000d4d6101e086018462000b17565b81870151935061012091507fffffffffffffffffffffffffffffffffffffffffffffffffffffffffffffffe0868203018287015262000d8d818562000b17565b918701516101408781019190915287015193506101609162000db28388018662000b83565b9187015193506101809162000dca8784018662000b83565b9187015193506101a09162000de28784018662000b83565b82880151945062000df68488018662000b83565b979650505050505050565b60405181810167ffffffffffffffff8111828210171562000e2157600080fd5b604052919050565b73ffffffffffffffffffffffffffffffffffffffff8116811462000e4c57600080fd5b5056fe60806040523480156200001157600080fd5b50604051620051253803806200512583398101604081905262000034916200060a565b80806000015181602001518260400151836060015184608001518560c001518660e001518761010001518860a0015185858a80806000806101000a81548160ff02191690831515021790555080156200008c57426001555b50600280546001600160a01b038086166001600160a01b0319928316179092556003805492851692909116919091179055620000d06001600160e01b03620002f816565b600481905550620000ed60016200031560201b620029f11760201c565b51600555505050600c889055600d87905560405163e8a0aed360e01b815281906001600160a01b0382169063e8a0aed390620001339087908790601290600401620007b8565b602060405180830381600087803b1580156200014e57600080fd5b505af115801562000163573d6000803e3d6000fd5b505050506040513d601f19601f82011682018060405250810190620001899190620005c9565b600a80546001600160a01b0319166001600160a01b0392909216919091179055620001b362000354565b6001600160a01b03166390978d1b866040518263ffffffff1660e01b8152600401620001e09190620007af565b60206040518083038186803b158015620001f957600080fd5b505afa1580156200020e573d6000803e3d6000fd5b505050506040513d601f19601f82011682018060405250810190620002349190620005e8565b6200023e57600080fd5b84600b81905550505050505050505050506200026f60018261014001516200040560201b620030561790919060201c565b6200027957600080fd5b620002b76001620002a3836101a001518461018001516200042860201b62002ffb1790919060201c565b6200046860201b620047e81790919060201c565b620002c157600080fd5b6101208101516011556101408101515160125561016081015151601355610180810151516014556101a001515160155550620008e0565b6000805460ff16156200030f575060015462000312565b50425b90565b6200031f62000502565b60405180602001604052806200034c670de0b6b3a7640000856200048a60201b62003a291790919060201c565b905292915050565b6003546040516302abf57960e61b81526000917f4964656e74696669657257686974656c69737400000000000000000000000000916001600160a01b039091169063aafd5e4090620003ab908490600401620007af565b60206040518083038186803b158015620003c457600080fd5b505afa158015620003d9573d6000803e3d6000fd5b505050506040513d601f19601f82011682018060405250810190620003ff9190620005c9565b91505090565b60006200041b826001600160e01b036200031516565b5183511190505b92915050565b6200043262000502565b60405180602001604052806200045f84600001518660000151620004da60201b62003cb01790919060201c565b90529392505050565b60006200047e826001600160e01b036200031516565b51835110905092915050565b6000826200049b5750600062000422565b82820282848281620004a957fe5b0414620004d35760405162461bcd60e51b8152600401620004ca906200082c565b60405180910390fd5b9392505050565b600082820183811015620004d35760405162461bcd60e51b8152600401620004ca90620007f5565b6040518060200160405280600081525090565b80516200042281620008c7565b805180151581146200042257600080fd5b600082601f83011262000544578081fd5b81516001600160401b038111156200055a578182fd5b6200056f601f8201601f19166020016200086d565b91508082528360208285010111156200058757600080fd5b6200059a81602084016020860162000894565b5092915050565b600060208284031215620005b3578081fd5b620005bf60206200086d565b9151825250919050565b600060208284031215620005db578081fd5b8151620004d381620008c7565b600060208284031215620005fa578081fd5b81518015158114620004d3578182fd5b6000602082840312156200061c578081fd5b81516001600160401b038082111562000633578283fd5b6101c091840180860383131562000648578384fd5b62000653836200086d565b6200065f878362000522565b8152602082015160208201526040820151604082015262000684876060840162000515565b606082015262000698876080840162000515565b6080820152620006ac8760a0840162000515565b60a082015260c082015160c082015260e0820151935082841115620006cf578485fd5b620006dd8785840162000533565b60e082015261010093508382015183811115620006f8578586fd5b620007068882850162000533565b85830152506101209350838201518482015261014093506200072b87858401620005a1565b8482015261016093506200074287858401620005a1565b8482015261018093506200075987858401620005a1565b848201526101a093506200077087858401620005a1565b848201528094505050505092915050565b600081518084526200079b81602086016020860162000894565b601f01601f19169290920160200192915050565b90815260200190565b600060608252620007cd606083018662000781565b8281036020840152620007e1818662000781565b91505060ff83166040830152949350505050565b6020808252601b908201527f536166654d6174683a206164646974696f6e206f766572666c6f770000000000604082015260600190565b60208082526021908201527f536166654d6174683a206d756c7469706c69636174696f6e206f766572666c6f6040820152607760f81b606082015260800190565b6040518181016001600160401b03811182821017156200088c57600080fd5b604052919050565b60005b83811015620008b157818101518382015260200162000897565b83811115620008c1576000848401525b50505050565b6001600160a01b0381168114620008dd57600080fd5b50565b61483580620008f06000396000f3fe608060405234801561001057600080fd5b50600436106102e95760003560e01c80636ba2f99211610191578063a765fbea116100e3578063d1e92c1111610097578063edfa9a9b11610071578063edfa9a9b1461053d578063f4d2115314610545578063fcccedc714610558576102e9565b8063d1e92c111461051a578063dd0eef3d1461052d578063dfe607f914610535576102e9565b8063bc121630116100c8578063bc121630146104f7578063bda02e771461050a578063c13f62e114610512576102e9565b8063a765fbea146104dc578063b9a3c84c146104ef576102e9565b80638c382eb2116101455780639f43ddd21161011f5780639f43ddd2146104ac5780639ff4dea8146104b4578063a1c4d1e7146104bc576102e9565b80638c382eb21461047c5780639381a345146104845780639b56d6c914610499576102e9565b806379599f961161017657806379599f961461045757806381a10ae11461045f57806385209ee014610467576102e9565b80636ba2f9921461043c5780637048594b1461044f576102e9565b8063360598e11161024a5780634f8c4847116101fe5780635ee0fe32116101d85780635ee0fe32146104195780635f1af1ca1461042157806362779e1514610434576102e9565b80634f8c4847146103c457806350f49846146103ee57806355f57510146103f6576102e9565b80633ee7a5ce1161022f5780633ee7a5ce146103a157806343e4771b146103b457806348e30c3f146103bc576102e9565b8063360598e114610379578063391fe4e214610399576102e9565b806322f8e566116102a15780632d5436cf116102865780632d5436cf1461036157806333a46ca2146103695780633403c2fc14610371576102e9565b806322f8e5661461034657806329cb924d14610359576102e9565b8063175d9e7c116102d2578063175d9e7c146103215780631a69523014610329578063226112801461033e576102e9565b80630c9229ca146102ee5780630de15fd91461030c575b600080fd5b6102f6610560565b604051610303919061446f565b60405180910390f35b610314610566565b60405161030391906141ce565b6102f6610582565b61033c610337366004613fc8565b610588565b005b61033c6106e4565b61033c61035436600461413e565b610756565b6102f661076a565b6102f6610785565b61033c61078b565b61033c6108c9565b61038c610387366004614156565b61099c565b6040516103039190614713565b6102f661112a565b61033c6103af3660046140a9565b611130565b61038c6111e9565b6102f661120f565b6103d76103d2366004614046565b611215565b6040516103039b9a99989796959493929190614276565b6102f66112f7565b610409610404366004613fc8565b6112fd565b604051610303949392919061471d565b6102f6611343565b61033c61042f3660046140a9565b611349565b61038c6115b4565b61033c61044a3660046140df565b611841565b610314611a81565b61033c611a9d565b61038c611b2a565b61046f611b57565b6040516103039190614486565b6102f6611b60565b61048c611b66565b6040516103039190614464565b61038c6104a7366004613fc8565b611b6f565b6102f6611bc1565b6102f6611bc7565b6104cf6104ca366004613fc8565b611bcd565b6040516103039190614355565b61033c6104ea366004614156565b611d5e565b610314611f14565b61033c6105053660046140a9565b611f30565b61033c611fb5565b6102f6611fbf565b61033c6105283660046140a9565b611fc5565b6102f661206e565b6102f6612074565b6102f661207a565b6102f6610553366004614000565b612080565b61033c6125e0565b60085481565b60025473ffffffffffffffffffffffffffffffffffffffff1681565b600b5481565b6105906129dc565b6105eb61059d60006129f1565b73ffffffffffffffffffffffffffffffffffffffff8316600090815260076020908152604091829020825191820190925260039091015481526105df90612a25565b9063ffffffff612a4e16565b6105f457600080fd5b60006105ff33612a5a565b9050806001015460001461061257600080fd5b73ffffffffffffffffffffffffffffffffffffffff821660008181526007602052604080822084548155600180860154818301556002808701548184015560038088015493810193909355338086528486208681559283018690559082018590559101839055905190917f4853ae1b4d437c4255ac16cd3ceda3465975023f27cb141584cd9d44440fed8291a360405173ffffffffffffffffffffffffffffffffffffffff8316907ff60993fa76f94c9e0a803526ee6e1314814ed4d2b0d223febf1436b36897fb3790600090a25050565b6106ec6129dc565b60006106f733612a5a565b905080600101546000141561070b57600080fd5b600281015460405133907f74d8a3658feb89d1a5c335229bbbfc3bbcfaf492769feb7aa4cd2d92efeaf69190600090a360006001820181905561074d906129f1565b51600290910155565b60005460ff1661076557600080fd5b600155565b6000805460ff161561077f5750600154610782565b50425b90565b60115481565b6107936129dc565b61079b6115b4565b5060006107a733612a5a565b90506107b161076a565b816001015411156107c157600080fd5b6107c9613f54565b5060408051602080820183526002840154825282519081019092526003830154825290610817906107f990612a25565b6040805160208101909152600285015481529063ffffffff612a8f16565b1561083a5760408051602081019091526003830154815261083790612a25565b90505b6108478260030182612a96565b610852600982612a96565b80516002546108819173ffffffffffffffffffffffffffffffffffffffff90911690339063ffffffff612ad116565b805160405133907fc86c3298cb79f486674dca87d9247e88b76146160e7d412cc59b26b14c358a6890600090a36108b860006129f1565b516002830155506000600190910155565b6108d16129dc565b6108d9612b77565b6108e1612b94565b73ffffffffffffffffffffffffffffffffffffffff163373ffffffffffffffffffffffffffffffffffffffff161461091857600080fd5b600680547fffffffffffffffffffffffffffffffffffffffffffffffffffffffffffffff00166001179055600c5461094e61076a565b600c81905561095c90612c65565b600c5460405133917fd39eeb7157d9c446579a0893ecf9ecd87d1f466cdb270c6a189cf38ca1e30f4891610991918591614478565b60405180910390a250565b6109a4613f54565b82826109b08282612cfd565b6109b86115b4565b5060006109c58587612d7b565b600781015490915073ffffffffffffffffffffffffffffffffffffffff16331480610a095750600181015473ffffffffffffffffffffffffffffffffffffffff1633145b80610a2a5750805473ffffffffffffffffffffffffffffffffffffffff1633145b610a3357600080fd5b610a3d8686612e12565b610a45613f54565b604080516020810190915260068301548152610a6090612a25565b9050610a6a613f54565b604080516020808201835260088601548252825190810190925260038501548252610aad918491610aa1919063ffffffff612fb816565b9063ffffffff612fb816565b9050610ab7613f54565b604080516020810190915260048501548152610ad9908463ffffffff612fb816565b9050610ae3613f54565b60408051602081019091526015548152610b03908463ffffffff612fb816565b9050610b0d613f54565b60408051602081019091526014548152610b2d908563ffffffff612fb816565b9050610b37613f54565b60408051602081019091526013548152610b5890859063ffffffff612fb816565b9050610b62613f54565b604080516020810190915260098901548152610b84908863ffffffff612fb816565b90506003600189015474010000000000000000000000000000000000000000900460ff166004811115610bb357fe5b1415610e9257600788015473ffffffffffffffffffffffffffffffffffffffff16331415610c4357610be3613f54565b610c0382610bf7878663ffffffff612ffb16565b9063ffffffff612ffb16565b9050610c158c8263ffffffff612ffb16565b60078a0180547fffffffffffffffffffffffff00000000000000000000000000000000000000001690559b50505b875473ffffffffffffffffffffffffffffffffffffffff16331415610cd157610c6a613f54565b610c7a868863ffffffff61302d16565b9050610c84613f54565b610c94858363ffffffff612ffb16565b9050610ca68d8263ffffffff612ffb16565b8a547fffffffffffffffffffffffff0000000000000000000000000000000000000000168b559c5050505b600188015473ffffffffffffffffffffffffffffffffffffffff16331415610d5b57610cfb613f54565b610d1b85610d0f898763ffffffff61302d16565b9063ffffffff61302d16565b9050610d2d8c8263ffffffff612ffb16565b60018a0180547fffffffffffffffffffffffff00000000000000000000000000000000000000001690559b50505b600788015473ffffffffffffffffffffffffffffffffffffffff16158015610d985750875473ffffffffffffffffffffffffffffffffffffffff16155b8015610dbc5750600188015473ffffffffffffffffffffffffffffffffffffffff16155b15610e8d5773ffffffffffffffffffffffffffffffffffffffff8c166000908152600f6020526040902080548e908110610df257fe5b600091825260208220600a9091020180547fffffffffffffffffffffffff000000000000000000000000000000000000000090811682556001820180547fffffffffffffffffffffff0000000000000000000000000000000000000000001690556002820183905560038201839055600482018390556005820183905560068201839055600782018054909116905560088101829055600901555b61106a565b6004600189015474010000000000000000000000000000000000000000900460ff166004811115610ebf57fe5b148015610ee55750600188015473ffffffffffffffffffffffffffffffffffffffff1633145b15610f3357610efe81610bf7878563ffffffff612ffb16565b73ffffffffffffffffffffffffffffffffffffffff8d166000908152600f602052604090208054919c50908e908110610df257fe5b60018089015474010000000000000000000000000000000000000000900460ff166004811115610f5f57fe5b148015610f855750600188015473ffffffffffffffffffffffffffffffffffffffff1633145b1561106a57610f9a858263ffffffff612ffb16565b73ffffffffffffffffffffffffffffffffffffffff8d166000908152600f602052604090208054919c50908e908110610fcf57fe5b600091825260208220600a9091020180547fffffffffffffffffffffffff000000000000000000000000000000000000000090811682556001820180547fffffffffffffffffffffff0000000000000000000000000000000000000000001690556002820183905560038201839055600482018390556005820183905560068201839055600782018054909116905560088101829055600901555b61107b8b600063ffffffff61305616565b61108457600080fd5b61108f60108c612a96565b8a516002546110be9173ffffffffffffffffffffffffffffffffffffffff90911690339063ffffffff612ad116565b8a5160018901546040517f6b1dd0a2f9139859db0869429aa0d5042a624c6da84633f568767549a58937b0926111129233927401000000000000000000000000000000000000000090910460ff1690614215565b60405180910390a15050505050505050505092915050565b60135481565b6111386129dc565b6111406115b4565b50600061114c33612a5a565b9050806001015460001461115f57600080fd5b61116c8160030183612a96565b6111758161306d565b61117e57600080fd5b611189600983612a96565b81516002546111b89173ffffffffffffffffffffffffffffffffffffffff90911690339063ffffffff612ad116565b815160405133907f7fcf532c15f0a6db0bd6d0e038bea71d30d808c7d98cb3bf7268a95bf5081b6590600090a35050565b6111f1613f54565b6040805160208101909152600954815261120a90612a25565b905090565b60125481565b600f602052816000526040600020818154811061122e57fe5b6000918252602091829020600a919091020180546001820154600283015460408051808701825260038601548152815180880183526004870154815282518089018452600588015481528351808a0185526006890154815260078901548551808c01875260088b0154815286519b8c019096526009909901548a5273ffffffffffffffffffffffffffffffffffffffff9788169b508787169a507401000000000000000000000000000000000000000090960460ff16989497929691959094909391909216918b565b60105481565b6007602090815260009182526040918290208251808301845281548152600182015484518085018652600284015481528551948501909552600390920154835292909184565b60155481565b6113516129dc565b6113596115b4565b50600061136533612a5a565b9050806001015460001461137857600080fd5b60408051602081019091528154815261139890839063ffffffff612a8f16565b156113a257600080fd5b6113aa613f54565b6040805160208101909152825481526113ca90849063ffffffff6130a316565b90506113d4613f54565b604080516020810190915260038401548152611400906113f390612a25565b839063ffffffff612fb816565b604080516020810190915284548152909150611422908563ffffffff612a4e16565b1561143557611430336130e4565b611494565b6114428360030182612a96565b604080516020810190915283548152611461908563ffffffff61302d16565b51835561146f600982612a96565b6040805160208101909152600854815261148f908563ffffffff61302d16565b516008555b80516002546114c39173ffffffffffffffffffffffffffffffffffffffff90911690339063ffffffff612ad116565b8351600a546114f49173ffffffffffffffffffffffffffffffffffffffff909116903390309063ffffffff61319016565b600a5484516040517f42966c6800000000000000000000000000000000000000000000000000000000815273ffffffffffffffffffffffffffffffffffffffff909216916342966c689161154a9160040161446f565b600060405180830381600087803b15801561156457600080fd5b505af1158015611578573d6000803e3d6000fd5b505085518351604051919350915033907fe5b754fb1abb7f01b499791d0b820ae3b6af3424ac1c59768edb53f4ec31a92990600090a450505050565b6115bc613f54565b60006115c66131b1565b905060006115d261076a565b90506115dc613f54565b6115e4611b2a565b90506115f781600063ffffffff61322c16565b156116055750610782915050565b61160d613f54565b611615613f54565b600480546040517f74201feb00000000000000000000000000000000000000000000000000000000815273ffffffffffffffffffffffffffffffffffffffff8816926374201feb9261166d929091899189910161473b565b604080518083038186803b15801561168457600080fd5b505afa158015611698573d6000803e3d6000fd5b505050506040513d601f19601f820116820180604052508101906116bc9190614113565b600486905590925090506116d782600063ffffffff61305616565b1561179657815160025461170b9173ffffffffffffffffffffffffffffffffffffffff90911690879063ffffffff61324316565b6002546040517f4933a88700000000000000000000000000000000000000000000000000000000815273ffffffffffffffffffffffffffffffffffffffff87811692634933a8879261176392909116906004016141ce565b600060405180830381600087803b15801561177d57600080fd5b505af1158015611791573d6000803e3d6000fd5b505050505b6117a781600063ffffffff61305616565b156117db5780516002546117db9173ffffffffffffffffffffffffffffffffffffffff90911690339063ffffffff612ad116565b6117eb828263ffffffff612ffb16565b95506117f5613f54565b611805878563ffffffff61330116565b905061183461181882610d0f60016129f1565b604080516020810190915260055481529063ffffffff612fb816565b5160055550505050505090565b6118496129dc565b6118516115b4565b5061185c82826133a3565b61186557600080fd5b33600090815260076020526040902060018101541561188357600080fd5b6040805160208101909152815481526118a390600063ffffffff61322c16565b156118d45760405133907ff60993fa76f94c9e0a803526ee6e1314814ed4d2b0d223febf1436b36897fb3790600090a25b6118e1816003018461340f565b604080516020810190915281548152611900908363ffffffff612ffb16565b51815561190e60098461340f565b6040805160208101909152600854815261192e908363ffffffff612ffb16565b5160085582516002546119639173ffffffffffffffffffffffffffffffffffffffff909116903390309063ffffffff61319016565b600a5482516040517f40c10f1900000000000000000000000000000000000000000000000000000000815273ffffffffffffffffffffffffffffffffffffffff909216916340c10f19916119bc913391906004016141ef565b602060405180830381600087803b1580156119d657600080fd5b505af11580156119ea573d6000803e3d6000fd5b505050506040513d601f19601f82011682018060405250810190611a0e9190614071565b611a4d576040517f08c379a0000000000000000000000000000000000000000000000000000000008152600401611a4490614648565b60405180910390fd5b8151835160405133907f4b82aa16e071a61de1a6b9aeec9edab0356331f8122c78683b469ac8e685dabc90600090a4505050565b600a5473ffffffffffffffffffffffffffffffffffffffff1681565b611aa5613442565b611aad612b77565b611ab56115b4565b50600680547fffffffffffffffffffffffffffffffffffffffffffffffffffffffffffffff00166001179055611af230611aed613458565b613513565b611afd600c54612c65565b60405133907f18600820405d6cf356e3556301762ca32395e72d8c81494fa344835c9da3633d90600090a2565b611b32613f54565b6040805160208101909152601054815261120a90611b4f90612a25565b610bf76111e9565b60065460ff1681565b60095481565b60005460ff1681565b611b77613f54565b73ffffffffffffffffffffffffffffffffffffffff821660009081526007602090815260409182902082519182019092526003909101548152611bb990612a25565b90505b919050565b600c5481565b600d5481565b73ffffffffffffffffffffffffffffffffffffffff81166000908152600f60209081526040808320805482518185028101850190935280835260609492939192909184015b82821015611d535760008481526020908190206040805161016081018252600a8602909201805473ffffffffffffffffffffffffffffffffffffffff908116845260018201549081169484019490945291929083019074010000000000000000000000000000000000000000900460ff166004811115611c8e57fe5b6004811115611c9957fe5b8152600282015460208083019190915260408051808301825260038501548152818401528051808301825260048501548152606084015280518083018252600585015481526080840152805180830182526006850154815260a0840152600784015473ffffffffffffffffffffffffffffffffffffffff1660c0840152805180830182526008850154815260e084015280518083019091526009909301548352610100909101919091529082526001929092019101611c12565b505050509050919050565b8181611d6a82826136af565b611d726115b4565b506000611d7f8486612d7b565b9050611d89613f54565b604080516020810190915260068301548152611dd790611da890612a25565b60408051602080820183526013548252825190810190925260048601548252610aa1919063ffffffff612fb816565b9050611de460108261340f565b8051600254611e159173ffffffffffffffffffffffffffffffffffffffff909116903390309063ffffffff61319016565b6001820180547fffffffffffffffffffffff00ffffffffffffffffffffffffffffffffffffffff16740200000000000000000000000000000000000000001790556007820180547fffffffffffffffffffffffff000000000000000000000000000000000000000016331790556002820154611e9090612c65565b604080516020810190915260098301548152611ead903390613513565b60018201548151604051339273ffffffffffffffffffffffffffffffffffffffff90811692908916917fcaca181ccad7979cf36ed4fc921e496001ab5264608f0fac7007ae1b43d3610291611f04918c9190614478565b60405180910390a4505050505050565b60035473ffffffffffffffffffffffffffffffffffffffff1681565b611f386129dc565b6000611f4333612a5a565b90508060010154600014611f5657600080fd5b6000600d54611f6361076a565b019050600c54811115611f7557600080fd5b6001820181905582516002830181905560405133907fd33b726e11d2c5d38e6702b16613df0160a07f7ba5185455ee3c45d0494fab1190600090a3505050565b611fbd6129dc565b565b60145481565b611fcd6129dc565b611fd56115b4565b506000611fe133612a5a565b90508060010154600014611ff457600080fd5b612001816003018361340f565b61200c60098361340f565b815160025461203d9173ffffffffffffffffffffffffffffffffffffffff909116903390309063ffffffff61319016565b815160405133907fe1fffcc4923d04b559f4d29a8bfc6cda04eb5b0d3c460751c2402c5c5cc9109c90600090a35050565b60055481565b60045481565b600e5481565b600061208a6115b4565b506120936129dc565b600061209e85612a5a565b90506120a8613f54565b6120ce6120ba368690038601866140a9565b60408051602081019091528454815261370d565b90506120d8613f54565b6040805160208101909152835481526120f890839063ffffffff6130a316565b9050612102613f54565b60408051602081019091526003850154815261211d90612a25565b9050612127613f54565b61213160006129f1565b604080516020810190915260028701548152909150612156908363ffffffff61372d16565b156121815760408051602081019091526002860154815261217e90839063ffffffff61302d16565b90505b612189613f54565b506040805160208101909152855481526121bc826121b083610aa1368e90038e018e6140a9565b9063ffffffff61373516565b6121c557600080fd5b506121ce613f54565b6121de838563ffffffff612fb816565b90506121e8613f54565b6121f8838663ffffffff612fb816565b9050612202613f54565b604080516020810190915260028901548152612224908763ffffffff612fb816565b905061222e613f54565b612236613458565b73ffffffffffffffffffffffffffffffffffffffff8e166000818152600f602090815260409182902080548351610160810185529485523392850192909252909d5092935081016001815260200161228c61076a565b81526020018a81526020018681526020018581526020016122b56122b060016129f1565b61373d565b8152602001600073ffffffffffffffffffffffffffffffffffffffff1681526020016122e160006129f1565b815260209081018490528254600180820185556000948552938290208351600a9092020180547fffffffffffffffffffffffff000000000000000000000000000000000000000090811673ffffffffffffffffffffffffffffffffffffffff9384161782559284015194810180549093169490911693909317808255604083015192939291907fffffffffffffffffffffff00ffffffffffffffffffffffffffffffffffffffff16740100000000000000000000000000000000000000008360048111156123ab57fe5b021790555060608201516002820155608082015151600382015560a082015151600482015560c082015151600582015560e08201515160068201556101008201516007820180547fffffffffffffffffffffffff00000000000000000000000000000000000000001673ffffffffffffffffffffffffffffffffffffffff90921691909117905561012082015151600882015561014090910151516009909101556124588d898685613766565b612472601061246d868463ffffffff612ffb16565b61340f565b8751600a546124a39173ffffffffffffffffffffffffffffffffffffffff909116903390309063ffffffff61319016565b600a5488516040517f42966c6800000000000000000000000000000000000000000000000000000000815273ffffffffffffffffffffffffffffffffffffffff909216916342966c68916124f99160040161446f565b600060405180830381600087803b15801561251357600080fd5b505af1158015612527573d6000803e3d6000fd5b5050825160025461255a935073ffffffffffffffffffffffffffffffffffffffff1691503390309063ffffffff61319016565b893373ffffffffffffffffffffffffffffffffffffffff168e73ffffffffffffffffffffffffffffffffffffffff167fb936121d607177b497d6d988b46eba92e61c4d475c0cf8e27fc7d1731e2365dc8b60000151886000015188600001516040516125c893929190614752565b60405180910390a45050505050505050509392505050565b6125e8613442565b6125f06115b4565b50600060065460ff16600281111561260457fe5b141561260f57600080fd5b600260065460ff16600281111561262257fe5b1461266257612632600c5461385d565b51600e55600680547fffffffffffffffffffffffffffffffffffffffffffffffffffffffffffffff001660021790555b61266a613f54565b604080516020810191829052600a547f70a082310000000000000000000000000000000000000000000000000000000090925290819073ffffffffffffffffffffffffffffffffffffffff166370a082316126c833602485016141ce565b60206040518083038186803b1580156126e057600080fd5b505afa1580156126f4573d6000803e3d6000fd5b505050506040513d601f19601f820116820180604052508101906127189190614091565b90529050612724613f54565b6040805160208101909152600e54815261274590839063ffffffff612fb816565b336000908152600760209081526040808320815192830190915260038101548252929350612783919061277790612a25565b9063ffffffff61305616565b1561286057612790613f54565b6040805160208082018352600e5482528251908101909252835482526127bc919063ffffffff612fb816565b90506127c6613f54565b6040805160208101909152600384015481526127e190612a25565b90506127eb613f54565b6127fb838363ffffffff613a2216565b6128145760405180602001604052806000815250612824565b612824828463ffffffff61302d16565b9050612836858263ffffffff612ffb16565b33600090815260076020526040812081815560018101829055600281018290556003015594505050505b612868613f54565b6040805160208101909152600954815261288b9061288590612a25565b8461370d565b9050612898600982612a96565b604080516020810190915260085481526128b8908563ffffffff61302d16565b5160085580516002546128eb9173ffffffffffffffffffffffffffffffffffffffff90911690339063ffffffff612ad116565b8351600a5461291c9173ffffffffffffffffffffffffffffffffffffffff909116903390309063ffffffff61319016565b600a5484516040517f42966c6800000000000000000000000000000000000000000000000000000000815273ffffffffffffffffffffffffffffffffffffffff909216916342966c68916129729160040161446f565b600060405180830381600087803b15801561298c57600080fd5b505af11580156129a0573d6000803e3d6000fd5b505085518351604051919350915033907f9d349c102bec959fb7f20f9a3621e015819d3ae4ed6e9afd1f56a69d5845600690600090a450505050565b600c546129e761076a565b10611fbd57600080fd5b6129f9613f54565b604080516020810190915280612a1d84670de0b6b3a764000063ffffffff613a2916565b905292915050565b612a2d613f54565b60408051602081019091526005548152611bb990839063ffffffff612fb816565b80518251145b92915050565b600081612a6681613a7d565b505073ffffffffffffffffffffffffffffffffffffffff16600090815260076020526040902090565b5190511190565b612a9e613f54565b612aa78261373d565b604080516020810190915284548152909150612ac9908263ffffffff61302d16565b519092555050565b612b728363a9059cbb60e01b8484604051602401612af09291906141ef565b604080517fffffffffffffffffffffffffffffffffffffffffffffffffffffffffffffffe08184030181529190526020810180517bffffffffffffffffffffffffffffffffffffffffffffffffffffffff167fffffffff0000000000000000000000000000000000000000000000000000000090931692909217909152613acd565b505050565b600060065460ff166002811115612b8a57fe5b14611fbd57600080fd5b6003546040517faafd5e400000000000000000000000000000000000000000000000000000000081526000917f46696e616e6369616c436f6e74726163747341646d696e0000000000000000009173ffffffffffffffffffffffffffffffffffffffff9091169063aafd5e4090612c0f90849060040161446f565b60206040518083038186803b158015612c2757600080fd5b505afa158015612c3b573d6000803e3d6000fd5b505050506040513d601f19601f82011682018060405250810190612c5f9190613fe4565b91505090565b6000612c6f613c1a565b600b546040517f68ad8ae300000000000000000000000000000000000000000000000000000000815291925073ffffffffffffffffffffffffffffffffffffffff8316916368ad8ae391612cc7918690600401614478565b600060405180830381600087803b158015612ce157600080fd5b505af1158015612cf5573d6000803e3d6000fd5b505050505050565b6000612d098284612d7b565b6001818101549192507401000000000000000000000000000000000000000090910460ff1690816004811115612d3b57fe5b1180612d6c5750612d4a61076a565b612d5383613c95565b11158015612d6c57506001816004811115612d6a57fe5b145b612d7557600080fd5b50505050565b73ffffffffffffffffffffffffffffffffffffffff82166000908152600f60205260408120805483108015612de657506000818481548110612db957fe5b90600052602060002090600a020160010160149054906101000a900460ff166004811115612de357fe5b14155b612def57600080fd5b808381548110612dfb57fe5b90600052602060002090600a020191505092915050565b6000612e1e8284612d7b565b90506002600182015474010000000000000000000000000000000000000000900460ff166004811115612e4d57fe5b14612e585750612fb4565b612e65816002015461385d565b516008820155612e73613f54565b604080516020808201835260088501548252825190810190925260038401548252612ea4919063ffffffff612fb816565b9050612eae613f54565b60408051602081019091526012548152612ecf90839063ffffffff612fb816565b604080516020810190915260058501548152909150600090612ef7908363ffffffff61373516565b905080612f05576004612f08565b60035b6001850180547fffffffffffffffffffffff00ffffffffffffffffffffffffffffffffffffffff1674010000000000000000000000000000000000000000836004811115612f5257fe5b02179055506001840154600785015460405173ffffffffffffffffffffffffffffffffffffffff928316928881169233927f6c5582199868fabbe697f9ea10abe481bacf53ac78c02a965b34dff82fd20e3b92611f049216908c908890614325565b5050565b612fc0613f54565b6040805160208101909152825184518291670de0b6b3a764000091612fea9163ffffffff613a2916565b81612ff157fe5b0490529392505050565b613003613f54565b6040805160208101909152825184518291613024919063ffffffff613cb016565b90529392505050565b613035613f54565b6040805160208101909152825184518291613024919063ffffffff613cef16565b6000613061826129f1565b51835111905092915050565b604080516020810190915260038201548152600090611bb99061308f90612a25565b6040805160208101909152845481526133a3565b6130ab613f54565b6040805160208101909152825184518291613024916130d890670de0b6b3a764000063ffffffff613a2916565b9063ffffffff613d3116565b60006130ef82612a5a565b604080516020808201835260038401548252825190810190925260095482529192506131209163ffffffff61302d16565b5160095560408051602080820183528354825282519081019092526008548252613150919063ffffffff61302d16565b516008555073ffffffffffffffffffffffffffffffffffffffff166000908152600760205260408120818155600181018290556002810182905560030155565b612d75846323b872dd60e01b858585604051602401612af0939291906142f4565b6003546040517faafd5e400000000000000000000000000000000000000000000000000000000081526000917f53746f72650000000000000000000000000000000000000000000000000000009173ffffffffffffffffffffffffffffffffffffffff9091169063aafd5e4090612c0f90849060040161446f565b6000613237826129f1565b51835114905092915050565b60006132e0828573ffffffffffffffffffffffffffffffffffffffff1663dd62ed3e30876040518363ffffffff1660e01b815260040161328492919061424f565b60206040518083038186803b15801561329c57600080fd5b505afa1580156132b0573d6000803e3d6000fd5b505050506040513d601f19601f820116820180604052508101906132d49190614091565b9063ffffffff613cb016565b9050612d758463095ea7b360e01b8584604051602401612af09291906141ef565b613309613f54565b825160009061332690670de0b6b3a764000063ffffffff613a2916565b835190915060009061333f90839063ffffffff613d3116565b845190915060009061335890849063ffffffff613d7316565b9050801561338a5760408051602081019091528061337d84600163ffffffff613cb016565b8152509350505050612a54565b6040518060200160405280838152509350505050612a54565b60006133ad613f54565b604080516020810190915260095481526133df906133ca90612a25565b60408051602081019091526008548152613db5565b90506133e9613f54565b6133f38585613db5565b9050613405828263ffffffff612a8f16565b1595945050505050565b613417613f54565b6134208261373d565b604080516020810190915284548152909150612ac9908263ffffffff612ffb16565b600c5461344d61076a565b1015611fbd57600080fd5b613460613f54565b600061346a6131b1565b6002546040517f5b97aadd00000000000000000000000000000000000000000000000000000000815291925073ffffffffffffffffffffffffffffffffffffffff80841692635b97aadd926134c39216906004016141ce565b60206040518083038186803b1580156134db57600080fd5b505afa1580156134ef573d6000803e3d6000fd5b505050506040513d601f19601f82011682018060405250810190612c5f91906140c4565b61352481600063ffffffff61322c16565b1561352e57612fb4565b73ffffffffffffffffffffffffffffffffffffffff8216301461358157805160025461357c9173ffffffffffffffffffffffffffffffffffffffff909116908490309063ffffffff61319016565b6135e6565b613589613f54565b613591611b2a565b90506135a3818363ffffffff612a8f16565b6135ac57600080fd5b6135b4613f54565b6135cc6135bf611b2a565b849063ffffffff61330116565b90506135df61181882610d0f60016129f1565b5160055550505b60006135f06131b1565b82516002549192506136209173ffffffffffffffffffffffffffffffffffffffff1690839063ffffffff61324316565b6002546040517f4933a88700000000000000000000000000000000000000000000000000000000815273ffffffffffffffffffffffffffffffffffffffff83811692634933a8879261367892909116906004016141ce565b600060405180830381600087803b15801561369257600080fd5b505af11580156136a6573d6000803e3d6000fd5b50505050505050565b60006136bb8284612d7b565b90506136c681613c95565b6136ce61076a565b108015613704575060018082015474010000000000000000000000000000000000000000900460ff16600481111561370257fe5b145b612b7257600080fd5b613715613f54565b81518351106137245781613726565b825b9392505050565b519051111590565b519051101590565b613745613f54565b60408051602081019091526005548152611bb990839063ffffffff6130a316565b600061377185612a5a565b60408051602081019091528154815290915061379490859063ffffffff612a4e16565b80156137bc57506040805160208101909152600382015481526137bc9084906105df90612a25565b156137d0576137ca856130e4565b50612d75565b6137dd8160030184612a96565b6040805160208101909152815481526137fc908563ffffffff61302d16565b518155604080516020810190915260028201548152613821908363ffffffff61302d16565b516002820155613832600984612a96565b60408051602081019091526008548152613852908563ffffffff61302d16565b516008555050505050565b613865613f54565b600061386f613c1a565b600b546040517fa03e881a00000000000000000000000000000000000000000000000000000000815291925073ffffffffffffffffffffffffffffffffffffffff83169163a03e881a916138c7918790600401614478565b60206040518083038186803b1580156138df57600080fd5b505afa1580156138f3573d6000803e3d6000fd5b505050506040513d601f19601f820116820180604052508101906139179190614071565b61394d576040517f08c379a0000000000000000000000000000000000000000000000000000000008152600401611a449061458e565b600b546040517fc9280f0600000000000000000000000000000000000000000000000000000000815260009173ffffffffffffffffffffffffffffffffffffffff84169163c9280f06916139a5918890600401614478565b60206040518083038186803b1580156139bd57600080fd5b505afa1580156139d1573d6000803e3d6000fd5b505050506040513d601f19601f820116820180604052508101906139f59190614091565b90506000811215613a04575060005b6040518060200160405280613a1883613df3565b9052949350505050565b5190511090565b600082613a3857506000612a54565b82820282848281613a4557fe5b0414613726576040517f08c379a0000000000000000000000000000000000000000000000000000000008152600401611a44906145eb565b73ffffffffffffffffffffffffffffffffffffffff811660009081526007602090815260408083208151928301909152600301548152613ac1919061277790612a25565b613aca57600080fd5b50565b613aec8273ffffffffffffffffffffffffffffffffffffffff16613e33565b613b22576040517f08c379a0000000000000000000000000000000000000000000000000000000008152600401611a44906146dc565b600060608373ffffffffffffffffffffffffffffffffffffffff1683604051613b4b91906141b2565b6000604051808303816000865af19150503d8060008114613b88576040519150601f19603f3d011682016040523d82523d6000602084013e613b8d565b606091505b509150915081613bc9576040517f08c379a0000000000000000000000000000000000000000000000000000000008152600401611a4490614559565b805115612d755780806020019051810190613be49190614071565b612d75576040517f08c379a0000000000000000000000000000000000000000000000000000000008152600401611a449061467f565b6003546040517faafd5e400000000000000000000000000000000000000000000000000000000081526000917f4f7261636c6500000000000000000000000000000000000000000000000000009173ffffffffffffffffffffffffffffffffffffffff9091169063aafd5e4090612c0f90849060040161446f565b6000611bb96011548360020154613cb090919063ffffffff16565b600082820183811015613726576040517f08c379a0000000000000000000000000000000000000000000000000000000008152600401611a44906144eb565b600061372683836040518060400160405280601e81526020017f536166654d6174683a207375627472616374696f6e206f766572666c6f770000815250613e6f565b600061372683836040518060400160405280601a81526020017f536166654d6174683a206469766973696f6e206279207a65726f000000000000815250613eb5565b600061372683836040518060400160405280601881526020017f536166654d6174683a206d6f64756c6f206279207a65726f0000000000000000815250613f06565b613dbd613f54565b613dce82600063ffffffff61305616565b613de357613ddc60006129f1565b9050612a54565b613ddc838363ffffffff6130a316565b600080821215613e2f576040517f08c379a0000000000000000000000000000000000000000000000000000000008152600401611a4490614522565b5090565b6000813f7fc5d2460186f7233c927e7db2dcc703c0e500b653ca82273b7bfad8045d85a470818114801590613e6757508115155b949350505050565b60008184841115613ead576040517f08c379a0000000000000000000000000000000000000000000000000000000008152600401611a44919061449a565b505050900390565b60008183613ef0576040517f08c379a0000000000000000000000000000000000000000000000000000000008152600401611a44919061449a565b506000838581613efc57fe5b0495945050505050565b60008183613f41576040517f08c379a0000000000000000000000000000000000000000000000000000000008152600401611a44919061449a565b50828481613f4b57fe5b06949350505050565b6040518060200160405280600081525090565b600060208284031215613f78578081fd5b50919050565b600060208284031215613f8f578081fd5b613f996020614768565b9135825250919050565b600060208284031215613fb4578081fd5b613fbe6020614768565b9151825250919050565b600060208284031215613fd9578081fd5b8135613726816147c6565b600060208284031215613ff5578081fd5b8151613726816147c6565b600080600060608486031215614014578182fd5b833561401f816147c6565b925061402e8560208601613f67565b915061403d8560408601613f67565b90509250925092565b60008060408385031215614058578182fd5b8235614063816147c6565b946020939093013593505050565b600060208284031215614082578081fd5b81518015158114613726578182fd5b6000602082840312156140a2578081fd5b5051919050565b6000602082840312156140ba578081fd5b6137268383613f7e565b6000602082840312156140d5578081fd5b6137268383613fa3565b600080604083850312156140f1578182fd5b6140fb8484613f7e565b915061410a8460208501613f7e565b90509250929050565b60008060408385031215614125578182fd5b61412f8484613fa3565b915061410a8460208501613fa3565b60006020828403121561414f578081fd5b5035919050565b60008060408385031215614168578182fd5b82359150602083013561417a816147c6565b809150509250929050565b73ffffffffffffffffffffffffffffffffffffffff169052565b600581106141a957fe5b9052565b519052565b600082516141c481846020870161479a565b9190910192915050565b73ffffffffffffffffffffffffffffffffffffffff91909116815260200190565b73ffffffffffffffffffffffffffffffffffffffff929092168252602082015260400190565b73ffffffffffffffffffffffffffffffffffffffff8416815260208101839052606081016142428361478f565b6040830152949350505050565b73ffffffffffffffffffffffffffffffffffffffff92831681529116602082015260400190565b73ffffffffffffffffffffffffffffffffffffffff8c811682528b811660208301526101608201906142a78c61478f565b6040840152606083019a909a5297516080820152955160a0870152935160c0860152915160e085015290941661010083015292516101208201529151610140909201919091529392505050565b73ffffffffffffffffffffffffffffffffffffffff9384168152919092166020820152604081019190915260600190565b73ffffffffffffffffffffffffffffffffffffffff93909316835260208301919091521515604082015260600190565b602080825282518282018190526000919060409081850190868401855b82811015614457578151614387858251614185565b8681015161439788870182614185565b50858101516143a88787018261419f565b50606081810151908601526080808201516143c5828801826141ad565b505060a0808201516143d9828801826141ad565b505060c0808201516143ed828801826141ad565b505060e080820151614401828801826141ad565b50506101008082015161441682880182614185565b50506101208082015161442b828801826141ad565b505061014080820151614440828801826141ad565b505050610160939093019290850190600101614372565b5091979650505050505050565b901515815260200190565b90815260200190565b918252602082015260400190565b602081016003831061449457fe5b91905290565b60006020825282518060208401526144b981604085016020870161479a565b601f017fffffffffffffffffffffffffffffffffffffffffffffffffffffffffffffffe0169190910160400192915050565b6020808252601b908201527f536166654d6174683a206164646974696f6e206f766572666c6f770000000000604082015260600190565b6020808252600e908201527f55696e7420756e646572666c6f77000000000000000000000000000000000000604082015260600190565b6020808252818101527f5361666545524332303a206c6f772d6c6576656c2063616c6c206661696c6564604082015260600190565b6020808252602e908201527f43616e206f6e6c79206765742061207072696365206f6e63652074686520445660408201527f4d20686173207265736f6c766564000000000000000000000000000000000000606082015260800190565b60208082526021908201527f536166654d6174683a206d756c7469706c69636174696f6e206f766572666c6f60408201527f7700000000000000000000000000000000000000000000000000000000000000606082015260800190565b6020808252601f908201527f4d696e74696e672073796e74686574696320746f6b656e73206661696c656400604082015260600190565b6020808252602a908201527f5361666545524332303a204552433230206f7065726174696f6e20646964206e60408201527f6f74207375636365656400000000000000000000000000000000000000000000606082015260800190565b6020808252601f908201527f5361666545524332303a2063616c6c20746f206e6f6e2d636f6e747261637400604082015260600190565b9051815260200190565b93518452602084019290925251604083015251606082015260800190565b928352602083019190915251604082015260600190565b9283526020830191909152604082015260600190565b60405181810167ffffffffffffffff8111828210171561478757600080fd5b604052919050565b8060058110611bbc57fe5b60005b838110156147b557818101518382015260200161479d565b83811115612d755750506000910152565b73ffffffffffffffffffffffffffffffffffffffff81168114613aca57600080fd5b60006147f3826129f1565b5183511090509291505056fea264697066735822122050cf29950034769f50b5d7717f2bf0e6106b250ff2295874c2cddf85727e3f6b64736f6c63430006040033a2646970667358221220b64f4757f34f98dcc3d5b4fae4ad24f441f1534858d2b9be7b0ecbc372810a4764736f6c63430006040033",
  "source": "pragma solidity ^0.6.0;\npragma experimental ABIEncoderV2;\n\nimport \"../../oracle/implementation/ContractCreator.sol\";\nimport \"../../common/implementation/Testable.sol\";\nimport \"../../common/implementation/AddressWhitelist.sol\";\nimport \"./ExpiringMultiParty.sol\";\n\n\n/**\n * @title Expiring Multi Party Contract creator.\n * @notice Factory contract to create and register new instances of expiring multiparty contracts.\n * Responsible for constraining the parameters used to construct a new EMP.\n */\ncontract ExpiringMultiPartyCreator is ContractCreator, Testable {\n    using FixedPoint for FixedPoint.Unsigned;\n\n    /****************************************\n     *     EMP CREATOR DATA STRUCTURES      *\n     ****************************************/\n\n    struct Params {\n        uint expirationTimestamp;\n        address collateralAddress;\n        bytes32 priceFeedIdentifier;\n        string syntheticName;\n        string syntheticSymbol;\n        FixedPoint.Unsigned collateralRequirement;\n        FixedPoint.Unsigned disputeBondPct;\n        FixedPoint.Unsigned sponsorDisputeRewardPct;\n        FixedPoint.Unsigned disputerDisputeRewardPct;\n    }\n\n    /**\n     * @notice Deployment Configuration Constraints.\n     * @dev: These constraints can evolve over time and are initially constrained to conservative values\n     * in this first iteration of an EMP creator. Technically there is nothing in the ExpiringMultiParty\n     * contract requiring these constraints. However, because \"createExpiringMultiParty()\" is intended to\n     * be the only way to create valid financial contracts that are **registered** with the\n     * DVM (via \"_registerContract()\"), we can enforce deployment configurations here.\n     **/\n\n    // - Whitelist allowed collateral currencies.\n    AddressWhitelist public collateralTokenWhitelist;\n    // - Address of TokenFactory to pass into newly constructed ExpiringMultiParty contracts\n    address public tokenFactoryAddress;\n    // - Discretize expirations such that they must expire on the first of each month.\n    uint[17] public VALID_EXPIRATION_TIMESTAMPS = [\n        1585699200, // 2020-04-01T00:00:00.000Z\n        1588291200, // 2020-05-01T00:00:00.000Z\n        1590969600, // 2020-06-01T00:00:00.000Z\n        1593561600, // 2020-07-01T00:00:00.000Z\n        1596240000, // 2020-08-01T00:00:00.000Z\n        1598918400, // 2020-09-01T00:00:00.000Z\n        1601510400, // 2020-10-01T00:00:00.000Z\n        1604188800, // 2020-11-01T00:00:00.000Z\n        1606780800, // 2020-12-01T00:00:00.000Z\n        1609459200, // 2021-01-01T00:00:00.000Z\n        1612137600, // 2021-02-01T00:00:00.000Z\n        1614556800, // 2021-03-01T00:00:00.000Z\n        1617235200, // 2021-04-01T00:00:00.000Z\n        1619827200, // 2021-05-01T00:00:00.000Z\n        1622505600, // 2021-06-01T00:00:00.000Z\n        1625097600 // 2021-07-01T00:00:00.000Z\n    ];\n    // - Time for pending withdrawal to be disputed: 60 minutes. Lower liveness increases sponsor usability.\n    // However, this parameter is a reflection of how long we expect it to take for liquidators to identify\n    // that a sponsor is undercollateralized and acquire the tokens needed to liquidate them. This is also a\n    // reflection of how long a malicious sponsor would need to maintain a lower-price manipulation to get\n    // their withdrawal processed maliciously (if set too low, its quite easy for malicious sponsors to\n    // request a withdrawal and spend gas to prevent other transactions from processing until the withdrawal\n    //  gets approved). Ultimately, liveness is a friction to be minimized, but not critical to system function.\n    uint public constant STRICT_WITHDRAWAL_LIVENESS = 3600;\n    // - Time for liquidation to be disputed: 60 minutes. Similar reasoning to withdrawal liveness.\n    // Lower liveness is more usable for liquidators. However, the parameter is a reflection of how\n    // long we expect it to take disputers to notice bad liquidations. Malicious liquidators would\n    // also need to attack the base chain for this long to prevent dispute transactions from processing.\n    uint public constant STRICT_LIQUIDATION_LIVENESS = 3600;\n    // - Minimum dispute bond: 0%. We think this should be positive so that every dispute has some cost\n    // so that disputers are disincentivized from wrongly disputing sponsors.\n    uint public constant MIN_DISPUTE_BOND_PCT = 0;\n\n    event CreatedExpiringMultiParty(address expiringMultiPartyAddress, address partyMemberAddress);\n\n    /**\n     * @notice Constructs the ExpiringMultiPartyCreator contract.\n     * @param _isTest whether this contract is being constructed for the purpose of running tests.\n     * @param _finderAddress UMA protocol Finder used to discover other protocol contracts.\n     * @param _collateralTokenWhitelist UMA protocol contract to track whitelisted collateral.\n     * @param _tokenFactoryAddress ERC20 token factory used to deploy synthetic token instances.\n     */\n    constructor(bool _isTest, address _finderAddress, address _collateralTokenWhitelist, address _tokenFactoryAddress)\n        public\n        ContractCreator(_finderAddress)\n        Testable(_isTest)\n    {\n        collateralTokenWhitelist = AddressWhitelist(_collateralTokenWhitelist);\n        tokenFactoryAddress = _tokenFactoryAddress;\n    }\n\n    /**\n     * @notice Creates an instance of expiring multi party and registers it within the registry.\n     * @dev caller is automatically registered as the first (and only) party member.\n     * @param params is a `ConstructorParams` object from ExpiringMultiParty.\n     * @return address of the deployed ExpiringMultiParty contract\n     */\n    function createExpiringMultiParty(Params memory params) public returns (address) {\n        ExpiringMultiParty derivative = new ExpiringMultiParty(_convertParams(params));\n\n        address[] memory parties = new address[](1);\n        parties[0] = msg.sender;\n\n        _registerContract(parties, address(derivative));\n\n        emit CreatedExpiringMultiParty(address(derivative), msg.sender);\n\n        return address(derivative);\n    }\n\n    /****************************************\n     *          PRIVATE FUNCTIONS           *\n     ****************************************/\n\n    //  Returns if expiration timestamp is on hardcoded list.\n    function _isValidTimestamp(uint timestamp) private view returns (bool) {\n        for (uint i = 0; i < VALID_EXPIRATION_TIMESTAMPS.length; i++) {\n            if (VALID_EXPIRATION_TIMESTAMPS[i] == timestamp) {\n                return true;\n            }\n        }\n        return false;\n    }\n\n    // Converts createExpiringMultiParty params to ExpiringMultiParty constructor params.\n    function _convertParams(Params memory params)\n        private\n        view\n        returns (ExpiringMultiParty.ConstructorParams memory constructorParams)\n    {\n        // Known from creator deployment.\n        constructorParams.isTest = isTest;\n        constructorParams.finderAddress = finderAddress;\n        constructorParams.tokenFactoryAddress = tokenFactoryAddress;\n\n        // Enforce configuration constrainments.\n        require(_isValidTimestamp(params.expirationTimestamp));\n        require(params.disputeBondPct.isGreaterThan(MIN_DISPUTE_BOND_PCT));\n        require(bytes(params.syntheticName).length != 0);\n        require(bytes(params.syntheticSymbol).length != 0);\n        constructorParams.withdrawalLiveness = STRICT_WITHDRAWAL_LIVENESS;\n        constructorParams.liquidationLiveness = STRICT_LIQUIDATION_LIVENESS;\n        require(collateralTokenWhitelist.isOnWhitelist(params.collateralAddress));\n\n        // Input from function call.\n        constructorParams.expirationTimestamp = params.expirationTimestamp;\n        constructorParams.collateralAddress = params.collateralAddress;\n        constructorParams.priceFeedIdentifier = params.priceFeedIdentifier;\n        constructorParams.syntheticName = params.syntheticName;\n        constructorParams.syntheticSymbol = params.syntheticSymbol;\n        constructorParams.collateralRequirement = params.collateralRequirement;\n        constructorParams.disputeBondPct = params.disputeBondPct;\n        constructorParams.sponsorDisputeRewardPct = params.sponsorDisputeRewardPct;\n        constructorParams.disputerDisputeRewardPct = params.disputerDisputeRewardPct;\n    }\n}\n",
  "sourcePath": "/home/alessandrovm/JarvisLavoro/SynFiat/packages/contracts/contracts/uma-contracts/financial-templates/implementation/ExpiringMultiPartyCreator.sol",
  "compiler": {
    "name": "solc",
    "version": "0.6.4+commit.1dca32f3.Emscripten.clang"
  },
  "schemaVersion": "3.2.0",
  "updatedAt": "2020-08-14T09:32:05.523Z",
  "devdoc": {
    "methods": {
      "constructor": {
        "params": {
          "_collateralTokenWhitelist": "UMA protocol contract to track whitelisted collateral.",
          "_finderAddress": "UMA protocol Finder used to discover other protocol contracts.",
          "_isTest": "whether this contract is being constructed for the purpose of running tests.",
          "_tokenFactoryAddress": "ERC20 token factory used to deploy synthetic token instances."
        }
      },
      "createExpiringMultiParty((uint256,address,bytes32,string,string,(uint256),(uint256),(uint256),(uint256)))": {
        "details": "caller is automatically registered as the first (and only) party member.",
        "params": {
          "params": "is a `ConstructorParams` object from ExpiringMultiParty."
        },
        "returns": {
          "_0": "address of the deployed ExpiringMultiParty contract"
        }
      },
      "setCurrentTime(uint256)": {
        "details": "Will revert if not running in test mode."
      }
    },
    "title": "Expiring Multi Party Contract creator."
  },
  "userdoc": {
    "methods": {
      "constructor": "Constructs the ExpiringMultiPartyCreator contract.",
      "createExpiringMultiParty((uint256,address,bytes32,string,string,(uint256),(uint256),(uint256),(uint256)))": {
        "notice": "Creates an instance of expiring multi party and registers it within the registry."
      },
      "getCurrentTime()": {
        "notice": "Gets the current time. Will return the last time set in `setCurrentTime` if running in test mode. Otherwise, it will return the block timestamp."
      },
      "setCurrentTime(uint256)": {
        "notice": "Sets the current time."
      }
    },
    "notice": "Factory contract to create and register new instances of expiring multiparty contracts. Responsible for constraining the parameters used to construct a new EMP."
  }
}