{
  "contractName": "ExpiringMultiPartyCreator",
  "abi": [
    {
      "inputs": [
        {
          "internalType": "address",
          "name": "_finderAddress",
          "type": "address"
        },
        {
          "internalType": "address",
          "name": "_tokenFactoryAddress",
          "type": "address"
        },
        {
          "internalType": "address",
          "name": "_timerAddress",
          "type": "address"
        }
      ],
      "stateMutability": "nonpayable",
      "type": "constructor"
    },
    {
      "anonymous": false,
      "inputs": [
        {
          "indexed": true,
          "internalType": "address",
          "name": "expiringMultiPartyAddress",
          "type": "address"
        },
        {
          "indexed": true,
          "internalType": "address",
          "name": "deployerAddress",
          "type": "address"
        }
      ],
      "name": "CreatedExpiringMultiParty",
      "type": "event"
    },
    {
      "inputs": [],
      "name": "getCurrentTime",
      "outputs": [
        {
          "internalType": "uint256",
          "name": "",
          "type": "uint256"
        }
      ],
      "stateMutability": "view",
      "type": "function"
    },
    {
      "inputs": [
        {
          "internalType": "uint256",
          "name": "time",
          "type": "uint256"
        }
      ],
      "name": "setCurrentTime",
      "outputs": [],
      "stateMutability": "nonpayable",
      "type": "function"
    },
    {
      "inputs": [],
      "name": "timerAddress",
      "outputs": [
        {
          "internalType": "address",
          "name": "",
          "type": "address"
        }
      ],
      "stateMutability": "view",
      "type": "function"
    },
    {
      "inputs": [],
      "name": "tokenFactoryAddress",
      "outputs": [
        {
          "internalType": "address",
          "name": "",
          "type": "address"
        }
      ],
      "stateMutability": "view",
      "type": "function"
    },
    {
      "inputs": [
        {
          "components": [
            {
              "internalType": "uint256",
              "name": "expirationTimestamp",
              "type": "uint256"
            },
            {
              "internalType": "address",
              "name": "collateralAddress",
              "type": "address"
            },
            {
              "internalType": "bytes32",
              "name": "priceFeedIdentifier",
              "type": "bytes32"
            },
            {
              "internalType": "string",
              "name": "syntheticName",
              "type": "string"
            },
            {
              "internalType": "string",
              "name": "syntheticSymbol",
              "type": "string"
            },
            {
              "components": [
                {
                  "internalType": "uint256",
                  "name": "rawValue",
                  "type": "uint256"
                }
              ],
              "internalType": "struct FixedPoint.Unsigned",
              "name": "collateralRequirement",
              "type": "tuple"
            },
            {
              "components": [
                {
                  "internalType": "uint256",
                  "name": "rawValue",
                  "type": "uint256"
                }
              ],
              "internalType": "struct FixedPoint.Unsigned",
              "name": "disputeBondPct",
              "type": "tuple"
            },
            {
              "components": [
                {
                  "internalType": "uint256",
                  "name": "rawValue",
                  "type": "uint256"
                }
              ],
              "internalType": "struct FixedPoint.Unsigned",
              "name": "sponsorDisputeRewardPct",
              "type": "tuple"
            },
            {
              "components": [
                {
                  "internalType": "uint256",
                  "name": "rawValue",
                  "type": "uint256"
                }
              ],
              "internalType": "struct FixedPoint.Unsigned",
              "name": "disputerDisputeRewardPct",
              "type": "tuple"
            },
            {
              "components": [
                {
                  "internalType": "uint256",
                  "name": "rawValue",
                  "type": "uint256"
                }
              ],
              "internalType": "struct FixedPoint.Unsigned",
              "name": "minSponsorTokens",
              "type": "tuple"
            },
            {
              "internalType": "uint256",
              "name": "withdrawalLiveness",
              "type": "uint256"
            },
            {
              "internalType": "uint256",
              "name": "liquidationLiveness",
              "type": "uint256"
            }
          ],
          "internalType": "struct ExpiringMultiPartyCreator.Params",
          "name": "params",
          "type": "tuple"
        }
      ],
      "name": "createExpiringMultiParty",
      "outputs": [
        {
          "internalType": "address",
          "name": "",
          "type": "address"
        }
      ],
      "stateMutability": "nonpayable",
      "type": "function"
    }
  ],
  "bytecode": "0x60806040523480156200001157600080fd5b50604051620012b2380380620012b2833981016040819052620000349162000121565b600080546001600160a01b038086166001600160a01b0319928316179092556001805460ff60a01b1993851692169190911791909116600160a01b179055620000856001600160e01b03620000c616565b620000986001600160e01b03620000fd16565b600280546001600160a01b0319166001600160a01b038416179055620000bd6200010c565b505050620001c4565b600154600160a01b900460ff16620000fb5760405162461bcd60e51b8152600401620000f29062000174565b60405180910390fd5b565b6001805460ff60a01b19169055565b6001805460ff60a01b1916600160a01b179055565b60008060006060848603121562000136578283fd5b83516200014381620001ab565b60208501519093506200015681620001ab565b60408501519092506200016981620001ab565b809150509250925092565b6020808252601f908201527f5265656e7472616e637947756172643a207265656e7472616e742063616c6c00604082015260600190565b6001600160a01b0381168114620001c157600080fd5b50565b6110de80620001d46000396000f3fe608060405234801561001057600080fd5b50600436106100675760003560e01c806322f8e5661161005057806322f8e5661461009d57806329cb924d146100b2578063be19f0a7146100c757610067565b80630368965b1461006c5780631c39c38d14610095575b600080fd5b61007f61007a366004610b42565b6100cf565b60405161008c9190610d28565b60405180910390f35b61007f6101e0565b6100b06100ab366004610c70565b6101fc565b005b6100ba6102a9565b60405161008c9190610dc0565b61007f610377565b60006100d9610393565b6100e16103f2565b600073__ExpiringMultiPartyLib_________________63bdc3f2446101068561041c565b6040518263ffffffff1660e01b81526004016101229190610f11565b60206040518083038186803b15801561013a57600080fd5b505af415801561014e573d6000803e3d6000fd5b505050506040513d601f19601f820116820180604052508101906101729190610aff565b60408051600081526020810190915290915061018e90826105fd565b604051339073ffffffffffffffffffffffffffffffffffffffff8316907ff360b00b309dfe6565667df6b06eab15d0e0958d5e82d89a399ae7dd417b4b0990600090a390506101db610756565b919050565b60015473ffffffffffffffffffffffffffffffffffffffff1681565b60015473ffffffffffffffffffffffffffffffffffffffff1661021e57600080fd5b6001546040517f22f8e56600000000000000000000000000000000000000000000000000000000815273ffffffffffffffffffffffffffffffffffffffff909116906322f8e56690610274908490600401610dc0565b600060405180830381600087803b15801561028e57600080fd5b505af11580156102a2573d6000803e3d6000fd5b5050505050565b60015460009073ffffffffffffffffffffffffffffffffffffffff161561037157600160009054906101000a900473ffffffffffffffffffffffffffffffffffffffff1673ffffffffffffffffffffffffffffffffffffffff166329cb924d6040518163ffffffff1660e01b815260040160206040518083038186803b15801561033257600080fd5b505afa158015610346573d6000803e3d6000fd5b505050506040513d601f19601f8201168201806040525081019061036a9190610c88565b9050610374565b50425b90565b60025473ffffffffffffffffffffffffffffffffffffffff1681565b60015474010000000000000000000000000000000000000000900460ff166103f0576040517f08c379a00000000000000000000000000000000000000000000000000000000081526004016103e790610eda565b60405180910390fd5b565b600180547fffffffffffffffffffffff00ffffffffffffffffffffffffffffffffffffffff169055565b610424610941565b60005473ffffffffffffffffffffffffffffffffffffffff9081166060808401919091526002548216608084015260015490911660a083015282015151610497576040517f08c379a00000000000000000000000000000000000000000000000000000000081526004016103e790610ea3565b6080820151516104d3576040517f08c379a00000000000000000000000000000000000000000000000000000000081526004016103e790610e00565b61014082015161050f576040517f08c379a00000000000000000000000000000000000000000000000000000000081526004016103e790610e6c565b61016082015161054b576040517f08c379a00000000000000000000000000000000000000000000000000000000081526004016103e790610e37565b6105588260200151610797565b8151815260208083015173ffffffffffffffffffffffffffffffffffffffff1660408084019190915283015160c080840191909152606084015160e08085019190915260808501516101008086019190915260a08601516101608087019190915292860151610180860152908501516101a08501528401516101c084015261012080850151908401526101408085015192840192909252909201519181019190915290565b600080546040517faafd5e4000000000000000000000000000000000000000000000000000000000815273ffffffffffffffffffffffffffffffffffffffff9091169190829063aafd5e4090610677907f526567697374727900000000000000000000000000000000000000000000000090600401610dc0565b60206040518083038186803b15801561068f57600080fd5b505afa1580156106a3573d6000803e3d6000fd5b505050506040513d601f19601f820116820180604052508101906106c79190610aff565b6040517f66c8c25000000000000000000000000000000000000000000000000000000000815290915073ffffffffffffffffffffffffffffffffffffffff8216906366c8c2509061071e9087908790600401610d49565b600060405180830381600087803b15801561073857600080fd5b505af115801561074c573d6000803e3d6000fd5b5050505050505050565b600180547fffffffffffffffffffffff00ffffffffffffffffffffffffffffffffffffffff1674010000000000000000000000000000000000000000179055565b600080546040517faafd5e4000000000000000000000000000000000000000000000000000000000815273ffffffffffffffffffffffffffffffffffffffff9091169190829063aafd5e4090610811907f436f6c6c61746572616c57686974656c6973740000000000000000000000000090600401610dc0565b60206040518083038186803b15801561082957600080fd5b505afa15801561083d573d6000803e3d6000fd5b505050506040513d601f19601f820116820180604052508101906108619190610aff565b6040517f3a3ab67200000000000000000000000000000000000000000000000000000000815290915073ffffffffffffffffffffffffffffffffffffffff821690633a3ab672906108b6908690600401610d28565b60206040518083038186803b1580156108ce57600080fd5b505afa1580156108e2573d6000803e3d6000fd5b505050506040513d601f19601f820116820180604052508101906109069190610b22565b61093c576040517f08c379a00000000000000000000000000000000000000000000000000000000081526004016103e790610dc9565b505050565b604051806101e001604052806000815260200160008152602001600073ffffffffffffffffffffffffffffffffffffffff168152602001600073ffffffffffffffffffffffffffffffffffffffff168152602001600073ffffffffffffffffffffffffffffffffffffffff168152602001600073ffffffffffffffffffffffffffffffffffffffff1681526020016000801916815260200160608152602001606081526020016109ef610a2f565b815260200160008152602001610a03610a2f565b8152602001610a10610a2f565b8152602001610a1d610a2f565b8152602001610a2a610a2f565b905290565b6040518060200160405280600081525090565b8035610a4d81611083565b92915050565b600082601f830112610a63578081fd5b813567ffffffffffffffff811115610a79578182fd5b610aaa60207fffffffffffffffffffffffffffffffffffffffffffffffffffffffffffffffe0601f8401160161105c565b9150808252836020828501011115610ac157600080fd5b8060208401602084013760009082016020015292915050565b600060208284031215610aeb578081fd5b610af5602061105c565b9135825250919050565b600060208284031215610b10578081fd5b8151610b1b81611083565b9392505050565b600060208284031215610b33578081fd5b81518015158114610b1b578182fd5b600060208284031215610b53578081fd5b813567ffffffffffffffff80821115610b6a578283fd5b610180918401808603831315610b7e578384fd5b610b878361105c565b81358152610b988760208401610a42565b6020820152604082013560408201526060820135935082841115610bba578485fd5b610bc687858401610a53565b60608201526080820135935082841115610bde578485fd5b610bea87858401610a53565b6080820152610bfc8760a08401610ada565b60a0820152610c0e8760c08401610ada565b60c0820152610c208760e08401610ada565b60e08201526101009350610c3687858401610ada565b848201526101209350610c4b87858401610ada565b9381019390935261014081810135908401526101609081013590830152509392505050565b600060208284031215610c81578081fd5b5035919050565b600060208284031215610c99578081fd5b5051919050565b73ffffffffffffffffffffffffffffffffffffffff169052565b60008151808452815b81811015610cdf57602081850181015186830182015201610cc3565b81811115610cf05782602083870101525b50601f017fffffffffffffffffffffffffffffffffffffffffffffffffffffffffffffffe0169290920160200192915050565b519052565b73ffffffffffffffffffffffffffffffffffffffff91909116815260200190565b604080825283519082018190526000906020906060840190828701845b82811015610d9857815173ffffffffffffffffffffffffffffffffffffffff1684529284019290840190600101610d66565b50505073ffffffffffffffffffffffffffffffffffffffff9490941692019190915250919050565b90815260200190565b6020808252601a908201527f436f6c6c61746572616c206e6f742077686974656c6973746564000000000000604082015260600190565b60208082526018908201527f4d697373696e672073796e7468657469632073796d626f6c0000000000000000604082015260600190565b6020808252818101527f4c69717569646174696f6e206c6976656e6573732063616e6e6f742062652030604082015260600190565b6020808252601f908201527f5769746864726177616c206c6976656e6573732063616e6e6f74206265203000604082015260600190565b60208082526016908201527f4d697373696e672073796e746865746963206e616d6500000000000000000000604082015260600190565b6020808252601f908201527f5265656e7472616e637947756172643a207265656e7472616e742063616c6c00604082015260600190565b60006020825282516020830152602083015160408301526040830151610f3a6060840182610ca0565b506060830151610f4d6080840182610ca0565b506080830151610f6060a0840182610ca0565b5060a0830151610f7360c0840182610ca0565b5060c083015160e083015260e08301516101e06101008181860152610f9c610200860184610cba565b81870151935061012091507fffffffffffffffffffffffffffffffffffffffffffffffffffffffffffffffe08682030182870152610fda8185610cba565b91870151935061014091610ff087840186610d23565b918701516101608781019190915287015193506101809161101383880186610d23565b9187015193506101a09161102987840186610d23565b9187015193506101c09161103f87840186610d23565b82880151945061105184880186610d23565b979650505050505050565b60405181810167ffffffffffffffff8111828210171561107b57600080fd5b604052919050565b73ffffffffffffffffffffffffffffffffffffffff811681146110a557600080fd5b5056fea2646970667358221220c93fefc6b7608ffe73ddffc809d365e855a4e31a353641c87c504c4ad4877b1f64736f6c63430006040033",
  "source": "pragma solidity ^0.6.0;\npragma experimental ABIEncoderV2;\n\nimport \"../../oracle/implementation/ContractCreator.sol\";\nimport \"../../common/implementation/Testable.sol\";\nimport \"../../common/implementation/AddressWhitelist.sol\";\nimport \"../../common/implementation/Lockable.sol\";\nimport \"./ExpiringMultiPartyLib.sol\";\n\n\n/**\n * @title Expiring Multi Party Contract creator.\n * @notice Factory contract to create and register new instances of expiring multiparty contracts.\n * Responsible for constraining the parameters used to construct a new EMP. This creator contains a number of constraints\n * that are applied to newly created expiring multi party contract. These constraints can evolve over time and are\n * initially constrained to conservative values in this first iteration. Technically there is nothing in the\n * ExpiringMultiParty contract requiring these constraints. However, because `createExpiringMultiParty()` is intended\n * to be the only way to create valid financial contracts that are registered with the DVM (via _registerContract),\n  we can enforce deployment configurations here.\n */\ncontract ExpiringMultiPartyCreator is ContractCreator, Testable, Lockable {\n    using FixedPoint for FixedPoint.Unsigned;\n\n    /****************************************\n     *     EMP CREATOR DATA STRUCTURES      *\n     ****************************************/\n\n    struct Params {\n        uint256 expirationTimestamp;\n        address collateralAddress;\n        bytes32 priceFeedIdentifier;\n        string syntheticName;\n        string syntheticSymbol;\n        FixedPoint.Unsigned collateralRequirement;\n        FixedPoint.Unsigned disputeBondPct;\n        FixedPoint.Unsigned sponsorDisputeRewardPct;\n        FixedPoint.Unsigned disputerDisputeRewardPct;\n        FixedPoint.Unsigned minSponsorTokens;\n        uint256 withdrawalLiveness;\n        uint256 liquidationLiveness;\n    }\n    // - Address of TokenFactory to pass into newly constructed ExpiringMultiParty contracts\n    address public tokenFactoryAddress;\n\n    event CreatedExpiringMultiParty(address indexed expiringMultiPartyAddress, address indexed deployerAddress);\n\n    /**\n     * @notice Constructs the ExpiringMultiPartyCreator contract.\n     * @param _finderAddress UMA protocol Finder used to discover other protocol contracts.\n     * @param _tokenFactoryAddress ERC20 token factory used to deploy synthetic token instances.\n     * @param _timerAddress Contract that stores the current time in a testing environment.\n     */\n    constructor(\n        address _finderAddress,\n        address _tokenFactoryAddress,\n        address _timerAddress\n    ) public ContractCreator(_finderAddress) Testable(_timerAddress) nonReentrant() {\n        tokenFactoryAddress = _tokenFactoryAddress;\n    }\n\n    /**\n     * @notice Creates an instance of expiring multi party and registers it within the registry.\n     * @param params is a `ConstructorParams` object from ExpiringMultiParty.\n     * @return address of the deployed ExpiringMultiParty contract.\n     */\n    function createExpiringMultiParty(Params memory params) public nonReentrant() returns (address) {\n        address derivative = ExpiringMultiPartyLib.deploy(_convertParams(params));\n\n        _registerContract(new address[](0), address(derivative));\n\n        emit CreatedExpiringMultiParty(address(derivative), msg.sender);\n\n        return address(derivative);\n    }\n\n    /****************************************\n     *          PRIVATE FUNCTIONS           *\n     ****************************************/\n\n    // Converts createExpiringMultiParty params to ExpiringMultiParty constructor params.\n    function _convertParams(Params memory params)\n        private\n        view\n        returns (ExpiringMultiParty.ConstructorParams memory constructorParams)\n    {\n        // Known from creator deployment.\n        constructorParams.finderAddress = finderAddress;\n        constructorParams.tokenFactoryAddress = tokenFactoryAddress;\n        constructorParams.timerAddress = timerAddress;\n\n        // Enforce configuration constraints.\n        require(bytes(params.syntheticName).length != 0, \"Missing synthetic name\");\n        require(bytes(params.syntheticSymbol).length != 0, \"Missing synthetic symbol\");\n        require(params.withdrawalLiveness != 0, \"Withdrawal liveness cannot be 0\");\n        require(params.liquidationLiveness != 0, \"Liquidation liveness cannot be 0\");\n        _requireWhitelistedCollateral(params.collateralAddress);\n\n        // Input from function call.\n        constructorParams.expirationTimestamp = params.expirationTimestamp;\n        constructorParams.collateralAddress = params.collateralAddress;\n        constructorParams.priceFeedIdentifier = params.priceFeedIdentifier;\n        constructorParams.syntheticName = params.syntheticName;\n        constructorParams.syntheticSymbol = params.syntheticSymbol;\n        constructorParams.collateralRequirement = params.collateralRequirement;\n        constructorParams.disputeBondPct = params.disputeBondPct;\n        constructorParams.sponsorDisputeRewardPct = params.sponsorDisputeRewardPct;\n        constructorParams.disputerDisputeRewardPct = params.disputerDisputeRewardPct;\n        constructorParams.minSponsorTokens = params.minSponsorTokens;\n        constructorParams.withdrawalLiveness = params.withdrawalLiveness;\n        constructorParams.liquidationLiveness = params.liquidationLiveness;\n    }\n}\n",
  "sourcePath": "/home/alessandrovm/JarvisLavoro/SynFiat/packages/contracts/contracts/uma-contracts/financial-templates/expiring-multiparty/ExpiringMultiPartyCreator.sol",
  "compiler": {
    "name": "solc",
    "version": "0.6.4+commit.1dca32f3.Emscripten.clang"
  },
  "schemaVersion": "3.2.0",
  "updatedAt": "2020-09-17T18:56:01.984Z",
  "devdoc": {
    "methods": {
      "constructor": {
        "params": {
          "_finderAddress": "UMA protocol Finder used to discover other protocol contracts.",
          "_timerAddress": "Contract that stores the current time in a testing environment.",
          "_tokenFactoryAddress": "ERC20 token factory used to deploy synthetic token instances."
        }
      },
      "createExpiringMultiParty((uint256,address,bytes32,string,string,(uint256),(uint256),(uint256),(uint256),(uint256),uint256,uint256))": {
        "params": {
          "params": "is a `ConstructorParams` object from ExpiringMultiParty."
        },
        "returns": {
          "_0": "address of the deployed ExpiringMultiParty contract."
        }
      },
      "setCurrentTime(uint256)": {
        "details": "Will revert if not running in test mode.",
        "params": {
          "time": "timestamp to set current Testable time to."
        }
      }
    },
    "title": "Expiring Multi Party Contract creator."
  },
  "userdoc": {
    "methods": {
      "constructor": "Constructs the ExpiringMultiPartyCreator contract.",
      "createExpiringMultiParty((uint256,address,bytes32,string,string,(uint256),(uint256),(uint256),(uint256),(uint256),uint256,uint256))": {
        "notice": "Creates an instance of expiring multi party and registers it within the registry."
      },
      "getCurrentTime()": {
        "notice": "Gets the current time. Will return the last time set in `setCurrentTime` if running in test mode. Otherwise, it will return the block timestamp."
      },
      "setCurrentTime(uint256)": {
        "notice": "Sets the current time."
      }
    },
    "notice": "Factory contract to create and register new instances of expiring multiparty contracts. Responsible for constraining the parameters used to construct a new EMP. This creator contains a number of constraints that are applied to newly created expiring multi party contract. These constraints can evolve over time and are initially constrained to conservative values in this first iteration. Technically there is nothing in the ExpiringMultiParty contract requiring these constraints. However, because `createExpiringMultiParty()` is intended to be the only way to create valid financial contracts that are registered with the DVM (via _registerContract), we can enforce deployment configurations here."
  }
}