{
  "contractName": "FinancialContractsAdmin",
  "abi": [
    {
      "anonymous": false,
      "inputs": [
        {
          "indexed": true,
          "internalType": "address",
          "name": "previousOwner",
          "type": "address"
        },
        {
          "indexed": true,
          "internalType": "address",
          "name": "newOwner",
          "type": "address"
        }
      ],
      "name": "OwnershipTransferred",
      "type": "event"
    },
    {
      "inputs": [],
      "name": "isOwner",
      "outputs": [
        {
          "internalType": "bool",
          "name": "",
          "type": "bool"
        }
      ],
      "stateMutability": "view",
      "type": "function"
    },
    {
      "inputs": [],
      "name": "owner",
      "outputs": [
        {
          "internalType": "address",
          "name": "",
          "type": "address"
        }
      ],
      "stateMutability": "view",
      "type": "function"
    },
    {
      "inputs": [],
      "name": "renounceOwnership",
      "outputs": [],
      "stateMutability": "nonpayable",
      "type": "function"
    },
    {
      "inputs": [
        {
          "internalType": "address",
          "name": "newOwner",
          "type": "address"
        }
      ],
      "name": "transferOwnership",
      "outputs": [],
      "stateMutability": "nonpayable",
      "type": "function"
    },
    {
      "inputs": [
        {
          "internalType": "address",
          "name": "financialContract",
          "type": "address"
        }
      ],
      "name": "callEmergencyShutdown",
      "outputs": [],
      "stateMutability": "nonpayable",
      "type": "function"
    },
    {
      "inputs": [
        {
          "internalType": "address",
          "name": "financialContract",
          "type": "address"
        }
      ],
      "name": "callRemargin",
      "outputs": [],
      "stateMutability": "nonpayable",
      "type": "function"
    }
  ],
  "bytecode": "0x608060405260006100176001600160e01b0361006616565b600080546001600160a01b0319166001600160a01b0383169081178255604051929350917f8be0079c531659141344cd1fd0a4f28419497f9722a3daafe3b4186f6b6457e0908290a35061006a565b3390565b610617806100796000396000f3fe608060405234801561001057600080fd5b50600436106100725760003560e01c80638da5cb5b116100505780638da5cb5b146100e75780638f32d59b14610118578063f2fde38b1461013457610072565b80630caf412114610077578063547e1c40146100ac578063715018a6146100df575b600080fd5b6100aa6004803603602081101561008d57600080fd5b503573ffffffffffffffffffffffffffffffffffffffff16610167565b005b6100aa600480360360208110156100c257600080fd5b503573ffffffffffffffffffffffffffffffffffffffff16610243565b6100aa610303565b6100ef6103e5565b6040805173ffffffffffffffffffffffffffffffffffffffff9092168252519081900360200190f35b610120610401565b604080519115158252519081900360200190f35b6100aa6004803603602081101561014a57600080fd5b503573ffffffffffffffffffffffffffffffffffffffff1661043f565b61016f610401565b6101da57604080517f08c379a000000000000000000000000000000000000000000000000000000000815260206004820181905260248201527f4f776e61626c653a2063616c6c6572206973206e6f7420746865206f776e6572604482015290519081900360640190fd5b60008190508073ffffffffffffffffffffffffffffffffffffffff16633403c2fc6040518163ffffffff1660e01b8152600401600060405180830381600087803b15801561022757600080fd5b505af115801561023b573d6000803e3d6000fd5b505050505050565b61024b610401565b6102b657604080517f08c379a000000000000000000000000000000000000000000000000000000000815260206004820181905260248201527f4f776e61626c653a2063616c6c6572206973206e6f7420746865206f776e6572604482015290519081900360640190fd5b60008190508073ffffffffffffffffffffffffffffffffffffffff1663bda02e776040518163ffffffff1660e01b8152600401600060405180830381600087803b15801561022757600080fd5b61030b610401565b61037657604080517f08c379a000000000000000000000000000000000000000000000000000000000815260206004820181905260248201527f4f776e61626c653a2063616c6c6572206973206e6f7420746865206f776e6572604482015290519081900360640190fd5b6000805460405173ffffffffffffffffffffffffffffffffffffffff909116907f8be0079c531659141344cd1fd0a4f28419497f9722a3daafe3b4186f6b6457e0908390a3600080547fffffffffffffffffffffffff0000000000000000000000000000000000000000169055565b60005473ffffffffffffffffffffffffffffffffffffffff1690565b6000805473ffffffffffffffffffffffffffffffffffffffff166104236104be565b73ffffffffffffffffffffffffffffffffffffffff1614905090565b610447610401565b6104b257604080517f08c379a000000000000000000000000000000000000000000000000000000000815260206004820181905260248201527f4f776e61626c653a2063616c6c6572206973206e6f7420746865206f776e6572604482015290519081900360640190fd5b6104bb816104c2565b50565b3390565b73ffffffffffffffffffffffffffffffffffffffff811661052e576040517f08c379a00000000000000000000000000000000000000000000000000000000081526004018080602001828103825260268152602001806105bc6026913960400191505060405180910390fd5b6000805460405173ffffffffffffffffffffffffffffffffffffffff808516939216917f8be0079c531659141344cd1fd0a4f28419497f9722a3daafe3b4186f6b6457e091a3600080547fffffffffffffffffffffffff00000000000000000000000000000000000000001673ffffffffffffffffffffffffffffffffffffffff9290921691909117905556fe4f776e61626c653a206e6577206f776e657220697320746865207a65726f2061646472657373a2646970667358221220c33e760f9b4709307a4fe761ad0b09562c45f3ee531104a185970cc3716f81e364736f6c63430006040033",
  "source": "pragma solidity ^0.6.0;\n\nimport \"../interfaces/AdministrateeInterface.sol\";\nimport \"@openzeppelin/contracts/ownership/Ownable.sol\";\n\n\n/**\n * @title Admin for financial contracts in the UMA system.\n * @dev Allows appropriately permissioned admin roles to interact with financial contracts.\n */\ncontract FinancialContractsAdmin is Ownable {\n    /**\n     * @notice Calls emergency shutdown on the provided financial contract.\n     * @param financialContract address of the FinancialContract to be shut down.\n     */\n    function callEmergencyShutdown(address financialContract) external onlyOwner {\n        AdministrateeInterface administratee = AdministrateeInterface(financialContract);\n        administratee.emergencyShutdown();\n    }\n\n    /**\n     * @notice Calls remargin on the provided financial contract.\n     * @param financialContract address of the FinancialContract to be remargined.\n     */\n    function callRemargin(address financialContract) external onlyOwner {\n        AdministrateeInterface administratee = AdministrateeInterface(financialContract);\n        administratee.remargin();\n    }\n}\n",
  "sourcePath": "/home/alessandrovm/JarvisLavoro/SynFiat/packages/contracts/contracts/uma-contracts/oracle/implementation/FinancialContractsAdmin.sol",
  "compiler": {
    "name": "solc",
    "version": "0.6.4+commit.1dca32f3.Emscripten.clang"
  },
  "schemaVersion": "3.2.0",
  "updatedAt": "2020-08-14T09:32:05.608Z",
  "devdoc": {
    "details": "Allows appropriately permissioned admin roles to interact with financial contracts.",
    "methods": {
      "callEmergencyShutdown(address)": {
        "params": {
          "financialContract": "address of the FinancialContract to be shut down."
        }
      },
      "callRemargin(address)": {
        "params": {
          "financialContract": "address of the FinancialContract to be remargined."
        }
      },
      "isOwner()": {
        "details": "Returns true if the caller is the current owner."
      },
      "owner()": {
        "details": "Returns the address of the current owner."
      },
      "renounceOwnership()": {
        "details": "Leaves the contract without owner. It will not be possible to call `onlyOwner` functions anymore. Can only be called by the current owner.     * NOTE: Renouncing ownership will leave the contract without an owner, thereby removing any functionality that is only available to the owner."
      },
      "transferOwnership(address)": {
        "details": "Transfers ownership of the contract to a new account (`newOwner`). Can only be called by the current owner."
      }
    },
    "title": "Admin for financial contracts in the UMA system."
  },
  "userdoc": {
    "methods": {
      "callEmergencyShutdown(address)": {
        "notice": "Calls emergency shutdown on the provided financial contract."
      },
      "callRemargin(address)": {
        "notice": "Calls remargin on the provided financial contract."
      }
    }
  }
}