{
  "contractName": "Finder",
  "abi": [
    {
      "anonymous": false,
      "inputs": [
        {
          "indexed": true,
          "internalType": "bytes32",
          "name": "interfaceName",
          "type": "bytes32"
        },
        {
          "indexed": true,
          "internalType": "address",
          "name": "newImplementationAddress",
          "type": "address"
        }
      ],
      "name": "InterfaceImplementationChanged",
      "type": "event"
    },
    {
      "anonymous": false,
      "inputs": [
        {
          "indexed": true,
          "internalType": "address",
          "name": "previousOwner",
          "type": "address"
        },
        {
          "indexed": true,
          "internalType": "address",
          "name": "newOwner",
          "type": "address"
        }
      ],
      "name": "OwnershipTransferred",
      "type": "event"
    },
    {
      "inputs": [
        {
          "internalType": "bytes32",
          "name": "",
          "type": "bytes32"
        }
      ],
      "name": "interfacesImplemented",
      "outputs": [
        {
          "internalType": "address",
          "name": "",
          "type": "address"
        }
      ],
      "stateMutability": "view",
      "type": "function"
    },
    {
      "inputs": [],
      "name": "isOwner",
      "outputs": [
        {
          "internalType": "bool",
          "name": "",
          "type": "bool"
        }
      ],
      "stateMutability": "view",
      "type": "function"
    },
    {
      "inputs": [],
      "name": "owner",
      "outputs": [
        {
          "internalType": "address",
          "name": "",
          "type": "address"
        }
      ],
      "stateMutability": "view",
      "type": "function"
    },
    {
      "inputs": [],
      "name": "renounceOwnership",
      "outputs": [],
      "stateMutability": "nonpayable",
      "type": "function"
    },
    {
      "inputs": [
        {
          "internalType": "address",
          "name": "newOwner",
          "type": "address"
        }
      ],
      "name": "transferOwnership",
      "outputs": [],
      "stateMutability": "nonpayable",
      "type": "function"
    },
    {
      "inputs": [
        {
          "internalType": "bytes32",
          "name": "interfaceName",
          "type": "bytes32"
        },
        {
          "internalType": "address",
          "name": "implementationAddress",
          "type": "address"
        }
      ],
      "name": "changeImplementationAddress",
      "outputs": [],
      "stateMutability": "nonpayable",
      "type": "function"
    },
    {
      "inputs": [
        {
          "internalType": "bytes32",
          "name": "interfaceName",
          "type": "bytes32"
        }
      ],
      "name": "getImplementationAddress",
      "outputs": [
        {
          "internalType": "address",
          "name": "implementationAddress",
          "type": "address"
        }
      ],
      "stateMutability": "view",
      "type": "function"
    }
  ],
  "bytecode": "0x608060405260006100176001600160e01b0361006616565b600080546001600160a01b0319166001600160a01b0383169081178255604051929350917f8be0079c531659141344cd1fd0a4f28419497f9722a3daafe3b4186f6b6457e0908290a35061006a565b3390565b610651806100796000396000f3fe608060405234801561001057600080fd5b506004361061007d5760003560e01c80638f32d59b1161005b5780638f32d59b146100f6578063aafd5e4014610112578063cc48f4db1461012f578063f2fde38b1461014c5761007d565b806331f9665e14610082578063715018a6146100bd5780638da5cb5b146100c5575b600080fd5b6100bb6004803603604081101561009857600080fd5b508035906020013573ffffffffffffffffffffffffffffffffffffffff1661017f565b005b6100bb610270565b6100cd610352565b6040805173ffffffffffffffffffffffffffffffffffffffff9092168252519081900360200190f35b6100fe61036e565b604080519115158252519081900360200190f35b6100cd6004803603602081101561012857600080fd5b50356103ac565b6100cd6004803603602081101561014557600080fd5b503561042c565b6100bb6004803603602081101561016257600080fd5b503573ffffffffffffffffffffffffffffffffffffffff16610454565b61018761036e565b6101f257604080517f08c379a000000000000000000000000000000000000000000000000000000000815260206004820181905260248201527f4f776e61626c653a2063616c6c6572206973206e6f7420746865206f776e6572604482015290519081900360640190fd5b60008281526001602052604080822080547fffffffffffffffffffffffff00000000000000000000000000000000000000001673ffffffffffffffffffffffffffffffffffffffff85169081179091559051909184917fb29aa13e555039289e0513962835b00fcc6e4a265ae8f99e68e5b90d5406fe489190a35050565b61027861036e565b6102e357604080517f08c379a000000000000000000000000000000000000000000000000000000000815260206004820181905260248201527f4f776e61626c653a2063616c6c6572206973206e6f7420746865206f776e6572604482015290519081900360640190fd5b6000805460405173ffffffffffffffffffffffffffffffffffffffff909116907f8be0079c531659141344cd1fd0a4f28419497f9722a3daafe3b4186f6b6457e0908390a3600080547fffffffffffffffffffffffff0000000000000000000000000000000000000000169055565b60005473ffffffffffffffffffffffffffffffffffffffff1690565b6000805473ffffffffffffffffffffffffffffffffffffffff166103906104d3565b73ffffffffffffffffffffffffffffffffffffffff1614905090565b60008181526001602052604090205473ffffffffffffffffffffffffffffffffffffffff1680610427576040517f08c379a00000000000000000000000000000000000000000000000000000000081526004018080602001828103825260258152602001806105f76025913960400191505060405180910390fd5b919050565b60016020526000908152604090205473ffffffffffffffffffffffffffffffffffffffff1681565b61045c61036e565b6104c757604080517f08c379a000000000000000000000000000000000000000000000000000000000815260206004820181905260248201527f4f776e61626c653a2063616c6c6572206973206e6f7420746865206f776e6572604482015290519081900360640190fd5b6104d0816104d7565b50565b3390565b73ffffffffffffffffffffffffffffffffffffffff8116610543576040517f08c379a00000000000000000000000000000000000000000000000000000000081526004018080602001828103825260268152602001806105d16026913960400191505060405180910390fd5b6000805460405173ffffffffffffffffffffffffffffffffffffffff808516939216917f8be0079c531659141344cd1fd0a4f28419497f9722a3daafe3b4186f6b6457e091a3600080547fffffffffffffffffffffffff00000000000000000000000000000000000000001673ffffffffffffffffffffffffffffffffffffffff9290921691909117905556fe4f776e61626c653a206e6577206f776e657220697320746865207a65726f20616464726573734e6f20696d706c656d656e746174696f6e20666f7220696e7465726661636520666f756e64a2646970667358221220239b206a48da96f60aa81aa450be7f7b4e29882746104cd8c200d9e49c9e9e6e64736f6c63430006040033",
  "source": "pragma solidity ^0.6.0;\n\nimport \"@openzeppelin/contracts/ownership/Ownable.sol\";\n\nimport \"../interfaces/FinderInterface.sol\";\n\n\n/**\n * @title Provides addresses of the live contracts implementing certain interfaces.\n * @dev Examples of interfaces with implementations that Finder locates are the Oracle and Store interfaces.\n */\ncontract Finder is FinderInterface, Ownable {\n    mapping(bytes32 => address) public interfacesImplemented;\n\n    event InterfaceImplementationChanged(bytes32 indexed interfaceName, address indexed newImplementationAddress);\n\n    /**\n     * @notice Updates the address of the contract that implements `interfaceName`.\n     * @param interfaceName bytes32 of the interface name that is either changed or registered.\n     * @param implementationAddress address of the implementation contract.\n     */\n    // TODO(#969) Remove once prettier-plugin-solidity can handle the \"override\" keyword\n    // prettier-ignore\n    function changeImplementationAddress(bytes32 interfaceName, address implementationAddress) external override onlyOwner {\n        interfacesImplemented[interfaceName] = implementationAddress;\n\n        emit InterfaceImplementationChanged(interfaceName, implementationAddress);\n    }\n\n    /**\n     * @notice Gets the address of the contract that implements the given `interfaceName`.\n     * @param interfaceName queried interface.\n     * @return implementationAddress address of the defined interface.\n     */\n    // TODO(#969) Remove once prettier-plugin-solidity can handle the \"override\" keyword\n    // prettier-ignore\n    function getImplementationAddress(bytes32 interfaceName) external override view returns (address implementationAddress) {\n        implementationAddress = interfacesImplemented[interfaceName];\n        require(implementationAddress != address(0x0), \"No implementation for interface found\");\n    }\n}\n",
  "sourcePath": "/home/alessandrovm/JarvisLavoro/SynFiat/packages/contracts/contracts/uma-contracts/oracle/implementation/Finder.sol",
  "compiler": {
    "name": "solc",
    "version": "0.6.4+commit.1dca32f3.Emscripten.clang"
  },
  "schemaVersion": "3.2.0",
  "updatedAt": "2020-06-19T21:38:31.546Z",
  "devdoc": {
    "details": "Examples of interfaces with implementations that Finder locates are the Oracle and Store interfaces.",
    "methods": {
      "changeImplementationAddress(bytes32,address)": {
        "params": {
          "implementationAddress": "address of the implementation contract.",
          "interfaceName": "bytes32 of the interface name that is either changed or registered."
        }
      },
      "getImplementationAddress(bytes32)": {
        "params": {
          "interfaceName": "queried interface."
        },
        "returns": {
          "implementationAddress": "address of the defined interface."
        }
      },
      "isOwner()": {
        "details": "Returns true if the caller is the current owner."
      },
      "owner()": {
        "details": "Returns the address of the current owner."
      },
      "renounceOwnership()": {
        "details": "Leaves the contract without owner. It will not be possible to call `onlyOwner` functions anymore. Can only be called by the current owner.     * NOTE: Renouncing ownership will leave the contract without an owner, thereby removing any functionality that is only available to the owner."
      },
      "transferOwnership(address)": {
        "details": "Transfers ownership of the contract to a new account (`newOwner`). Can only be called by the current owner."
      }
    },
    "title": "Provides addresses of the live contracts implementing certain interfaces."
  },
  "userdoc": {
    "methods": {
      "changeImplementationAddress(bytes32,address)": {
        "notice": "Updates the address of the contract that implements `interfaceName`."
      },
      "getImplementationAddress(bytes32)": {
        "notice": "Gets the address of the contract that implements the given `interfaceName`."
      }
    }
  }
}