{
  "contractName": "FixedPointTest",
  "abi": [
    {
      "inputs": [
        {
          "internalType": "uint256",
          "name": "a",
          "type": "uint256"
        }
      ],
      "name": "wrapFromUnscaledUint",
      "outputs": [
        {
          "internalType": "uint256",
          "name": "",
          "type": "uint256"
        }
      ],
      "stateMutability": "pure",
      "type": "function"
    },
    {
      "inputs": [
        {
          "internalType": "uint256",
          "name": "a",
          "type": "uint256"
        },
        {
          "internalType": "uint256",
          "name": "b",
          "type": "uint256"
        }
      ],
      "name": "wrapIsEqual",
      "outputs": [
        {
          "internalType": "bool",
          "name": "",
          "type": "bool"
        }
      ],
      "stateMutability": "pure",
      "type": "function"
    },
    {
      "inputs": [
        {
          "internalType": "uint256",
          "name": "a",
          "type": "uint256"
        },
        {
          "internalType": "uint256",
          "name": "b",
          "type": "uint256"
        }
      ],
      "name": "wrapMixedIsEqual",
      "outputs": [
        {
          "internalType": "bool",
          "name": "",
          "type": "bool"
        }
      ],
      "stateMutability": "pure",
      "type": "function"
    },
    {
      "inputs": [
        {
          "internalType": "uint256",
          "name": "a",
          "type": "uint256"
        },
        {
          "internalType": "uint256",
          "name": "b",
          "type": "uint256"
        }
      ],
      "name": "wrapIsGreaterThan",
      "outputs": [
        {
          "internalType": "bool",
          "name": "",
          "type": "bool"
        }
      ],
      "stateMutability": "pure",
      "type": "function"
    },
    {
      "inputs": [
        {
          "internalType": "uint256",
          "name": "a",
          "type": "uint256"
        },
        {
          "internalType": "uint256",
          "name": "b",
          "type": "uint256"
        }
      ],
      "name": "wrapIsGreaterThanOrEqual",
      "outputs": [
        {
          "internalType": "bool",
          "name": "",
          "type": "bool"
        }
      ],
      "stateMutability": "pure",
      "type": "function"
    },
    {
      "inputs": [
        {
          "internalType": "uint256",
          "name": "a",
          "type": "uint256"
        },
        {
          "internalType": "uint256",
          "name": "b",
          "type": "uint256"
        }
      ],
      "name": "wrapMixedIsGreaterThan",
      "outputs": [
        {
          "internalType": "bool",
          "name": "",
          "type": "bool"
        }
      ],
      "stateMutability": "pure",
      "type": "function"
    },
    {
      "inputs": [
        {
          "internalType": "uint256",
          "name": "a",
          "type": "uint256"
        },
        {
          "internalType": "uint256",
          "name": "b",
          "type": "uint256"
        }
      ],
      "name": "wrapMixedIsGreaterThanOrEqual",
      "outputs": [
        {
          "internalType": "bool",
          "name": "",
          "type": "bool"
        }
      ],
      "stateMutability": "pure",
      "type": "function"
    },
    {
      "inputs": [
        {
          "internalType": "uint256",
          "name": "a",
          "type": "uint256"
        },
        {
          "internalType": "uint256",
          "name": "b",
          "type": "uint256"
        }
      ],
      "name": "wrapMixedIsGreaterThanOpposite",
      "outputs": [
        {
          "internalType": "bool",
          "name": "",
          "type": "bool"
        }
      ],
      "stateMutability": "pure",
      "type": "function"
    },
    {
      "inputs": [
        {
          "internalType": "uint256",
          "name": "a",
          "type": "uint256"
        },
        {
          "internalType": "uint256",
          "name": "b",
          "type": "uint256"
        }
      ],
      "name": "wrapMixedIsGreaterThanOrEqualOpposite",
      "outputs": [
        {
          "internalType": "bool",
          "name": "",
          "type": "bool"
        }
      ],
      "stateMutability": "pure",
      "type": "function"
    },
    {
      "inputs": [
        {
          "internalType": "uint256",
          "name": "a",
          "type": "uint256"
        },
        {
          "internalType": "uint256",
          "name": "b",
          "type": "uint256"
        }
      ],
      "name": "wrapIsLessThan",
      "outputs": [
        {
          "internalType": "bool",
          "name": "",
          "type": "bool"
        }
      ],
      "stateMutability": "pure",
      "type": "function"
    },
    {
      "inputs": [
        {
          "internalType": "uint256",
          "name": "a",
          "type": "uint256"
        },
        {
          "internalType": "uint256",
          "name": "b",
          "type": "uint256"
        }
      ],
      "name": "wrapIsLessThanOrEqual",
      "outputs": [
        {
          "internalType": "bool",
          "name": "",
          "type": "bool"
        }
      ],
      "stateMutability": "pure",
      "type": "function"
    },
    {
      "inputs": [
        {
          "internalType": "uint256",
          "name": "a",
          "type": "uint256"
        },
        {
          "internalType": "uint256",
          "name": "b",
          "type": "uint256"
        }
      ],
      "name": "wrapMixedIsLessThan",
      "outputs": [
        {
          "internalType": "bool",
          "name": "",
          "type": "bool"
        }
      ],
      "stateMutability": "pure",
      "type": "function"
    },
    {
      "inputs": [
        {
          "internalType": "uint256",
          "name": "a",
          "type": "uint256"
        },
        {
          "internalType": "uint256",
          "name": "b",
          "type": "uint256"
        }
      ],
      "name": "wrapMixedIsLessThanOrEqual",
      "outputs": [
        {
          "internalType": "bool",
          "name": "",
          "type": "bool"
        }
      ],
      "stateMutability": "pure",
      "type": "function"
    },
    {
      "inputs": [
        {
          "internalType": "uint256",
          "name": "a",
          "type": "uint256"
        },
        {
          "internalType": "uint256",
          "name": "b",
          "type": "uint256"
        }
      ],
      "name": "wrapMixedIsLessThanOpposite",
      "outputs": [
        {
          "internalType": "bool",
          "name": "",
          "type": "bool"
        }
      ],
      "stateMutability": "pure",
      "type": "function"
    },
    {
      "inputs": [
        {
          "internalType": "uint256",
          "name": "a",
          "type": "uint256"
        },
        {
          "internalType": "uint256",
          "name": "b",
          "type": "uint256"
        }
      ],
      "name": "wrapMixedIsLessThanOrEqualOpposite",
      "outputs": [
        {
          "internalType": "bool",
          "name": "",
          "type": "bool"
        }
      ],
      "stateMutability": "pure",
      "type": "function"
    },
    {
      "inputs": [
        {
          "internalType": "uint256",
          "name": "a",
          "type": "uint256"
        },
        {
          "internalType": "uint256",
          "name": "b",
          "type": "uint256"
        }
      ],
      "name": "wrapMin",
      "outputs": [
        {
          "internalType": "uint256",
          "name": "",
          "type": "uint256"
        }
      ],
      "stateMutability": "pure",
      "type": "function"
    },
    {
      "inputs": [
        {
          "internalType": "uint256",
          "name": "a",
          "type": "uint256"
        },
        {
          "internalType": "uint256",
          "name": "b",
          "type": "uint256"
        }
      ],
      "name": "wrapMax",
      "outputs": [
        {
          "internalType": "uint256",
          "name": "",
          "type": "uint256"
        }
      ],
      "stateMutability": "pure",
      "type": "function"
    },
    {
      "inputs": [
        {
          "internalType": "uint256",
          "name": "a",
          "type": "uint256"
        },
        {
          "internalType": "uint256",
          "name": "b",
          "type": "uint256"
        }
      ],
      "name": "wrapAdd",
      "outputs": [
        {
          "internalType": "uint256",
          "name": "",
          "type": "uint256"
        }
      ],
      "stateMutability": "pure",
      "type": "function"
    },
    {
      "inputs": [
        {
          "internalType": "uint256",
          "name": "a",
          "type": "uint256"
        },
        {
          "internalType": "uint256",
          "name": "b",
          "type": "uint256"
        }
      ],
      "name": "wrapMixedAdd",
      "outputs": [
        {
          "internalType": "uint256",
          "name": "",
          "type": "uint256"
        }
      ],
      "stateMutability": "pure",
      "type": "function"
    },
    {
      "inputs": [
        {
          "internalType": "uint256",
          "name": "a",
          "type": "uint256"
        },
        {
          "internalType": "uint256",
          "name": "b",
          "type": "uint256"
        }
      ],
      "name": "wrapSub",
      "outputs": [
        {
          "internalType": "uint256",
          "name": "",
          "type": "uint256"
        }
      ],
      "stateMutability": "pure",
      "type": "function"
    },
    {
      "inputs": [
        {
          "internalType": "uint256",
          "name": "a",
          "type": "uint256"
        },
        {
          "internalType": "uint256",
          "name": "b",
          "type": "uint256"
        }
      ],
      "name": "wrapMixedSub",
      "outputs": [
        {
          "internalType": "uint256",
          "name": "",
          "type": "uint256"
        }
      ],
      "stateMutability": "pure",
      "type": "function"
    },
    {
      "inputs": [
        {
          "internalType": "uint256",
          "name": "a",
          "type": "uint256"
        },
        {
          "internalType": "uint256",
          "name": "b",
          "type": "uint256"
        }
      ],
      "name": "wrapMixedSubOpposite",
      "outputs": [
        {
          "internalType": "uint256",
          "name": "",
          "type": "uint256"
        }
      ],
      "stateMutability": "pure",
      "type": "function"
    },
    {
      "inputs": [
        {
          "internalType": "uint256",
          "name": "a",
          "type": "uint256"
        },
        {
          "internalType": "uint256",
          "name": "b",
          "type": "uint256"
        }
      ],
      "name": "wrapMul",
      "outputs": [
        {
          "internalType": "uint256",
          "name": "",
          "type": "uint256"
        }
      ],
      "stateMutability": "pure",
      "type": "function"
    },
    {
      "inputs": [
        {
          "internalType": "uint256",
          "name": "a",
          "type": "uint256"
        },
        {
          "internalType": "uint256",
          "name": "b",
          "type": "uint256"
        }
      ],
      "name": "wrapMulCeil",
      "outputs": [
        {
          "internalType": "uint256",
          "name": "",
          "type": "uint256"
        }
      ],
      "stateMutability": "pure",
      "type": "function"
    },
    {
      "inputs": [
        {
          "internalType": "uint256",
          "name": "a",
          "type": "uint256"
        },
        {
          "internalType": "uint256",
          "name": "b",
          "type": "uint256"
        }
      ],
      "name": "wrapMixedMul",
      "outputs": [
        {
          "internalType": "uint256",
          "name": "",
          "type": "uint256"
        }
      ],
      "stateMutability": "pure",
      "type": "function"
    },
    {
      "inputs": [
        {
          "internalType": "uint256",
          "name": "a",
          "type": "uint256"
        },
        {
          "internalType": "uint256",
          "name": "b",
          "type": "uint256"
        }
      ],
      "name": "wrapMixedMulCeil",
      "outputs": [
        {
          "internalType": "uint256",
          "name": "",
          "type": "uint256"
        }
      ],
      "stateMutability": "pure",
      "type": "function"
    },
    {
      "inputs": [
        {
          "internalType": "uint256",
          "name": "a",
          "type": "uint256"
        },
        {
          "internalType": "uint256",
          "name": "b",
          "type": "uint256"
        }
      ],
      "name": "wrapDiv",
      "outputs": [
        {
          "internalType": "uint256",
          "name": "",
          "type": "uint256"
        }
      ],
      "stateMutability": "pure",
      "type": "function"
    },
    {
      "inputs": [
        {
          "internalType": "uint256",
          "name": "a",
          "type": "uint256"
        },
        {
          "internalType": "uint256",
          "name": "b",
          "type": "uint256"
        }
      ],
      "name": "wrapDivCeil",
      "outputs": [
        {
          "internalType": "uint256",
          "name": "",
          "type": "uint256"
        }
      ],
      "stateMutability": "pure",
      "type": "function"
    },
    {
      "inputs": [
        {
          "internalType": "uint256",
          "name": "a",
          "type": "uint256"
        },
        {
          "internalType": "uint256",
          "name": "b",
          "type": "uint256"
        }
      ],
      "name": "wrapMixedDiv",
      "outputs": [
        {
          "internalType": "uint256",
          "name": "",
          "type": "uint256"
        }
      ],
      "stateMutability": "pure",
      "type": "function"
    },
    {
      "inputs": [
        {
          "internalType": "uint256",
          "name": "a",
          "type": "uint256"
        },
        {
          "internalType": "uint256",
          "name": "b",
          "type": "uint256"
        }
      ],
      "name": "wrapMixedDivCeil",
      "outputs": [
        {
          "internalType": "uint256",
          "name": "",
          "type": "uint256"
        }
      ],
      "stateMutability": "pure",
      "type": "function"
    },
    {
      "inputs": [
        {
          "internalType": "uint256",
          "name": "a",
          "type": "uint256"
        },
        {
          "internalType": "uint256",
          "name": "b",
          "type": "uint256"
        }
      ],
      "name": "wrapMixedDivOpposite",
      "outputs": [
        {
          "internalType": "uint256",
          "name": "",
          "type": "uint256"
        }
      ],
      "stateMutability": "pure",
      "type": "function"
    },
    {
      "inputs": [
        {
          "internalType": "uint256",
          "name": "a",
          "type": "uint256"
        },
        {
          "internalType": "uint256",
          "name": "b",
          "type": "uint256"
        }
      ],
      "name": "wrapPow",
      "outputs": [
        {
          "internalType": "uint256",
          "name": "",
          "type": "uint256"
        }
      ],
      "stateMutability": "pure",
      "type": "function"
    }
  ],
  "bytecode": "0x608060405234801561001057600080fd5b506112e5806100206000396000f3fe608060405234801561001057600080fd5b50600436106101f05760003560e01c80636f486eee1161010f578063928d9cf4116100a2578063de24b20411610071578063de24b204146105c6578063de27b9ba146105e9578063e9f798ed1461060c578063fb1701cc1461062f576101f0565b8063928d9cf41461053a578063a9ad4e671461055d578063b097c2e114610580578063b0c66195146105a3576101f0565b806384ea8404116100de57806384ea8404146104ae57806385ec2dc1146104d15780638b257fde146104f45780638de1c54c14610517576101f0565b80636f486eee14610422578063778c752214610445578063785baba7146104685780637ec47fc61461048b576101f0565b80634038dc1c1161018757806355243e9b1161015657806355243e9b1461039c5780635f2d4b64146103bf5780636361b81b146103e25780636e1c91ac146103ff576101f0565b80634038dc1c146103335780634c72910c146103565780634e55787f1461022a5780635043b58a14610379576101f0565b8063305cc77d116101c3578063305cc77d146102a7578063308a1af8146102ca5780633210b59e146102ed5780633d5dbce214610310576101f0565b80630169cb43146101f5578063098967cd1461022a57806316f0a5fd1461024d578063303cc9a214610270575b600080fd5b6102186004803603604081101561020b57600080fd5b5080359060200135610652565b60408051918252519081900360200190f35b6102186004803603604081101561024057600080fd5b5080359060200135610687565b6102186004803603604081101561026357600080fd5b50803590602001356106a8565b6102936004803603604081101561028657600080fd5b50803590602001356106cb565b604080519115158252519081900360200190f35b610293600480360360408110156102bd57600080fd5b50803590602001356106f5565b610293600480360360408110156102e057600080fd5b5080359060200135610716565b6102936004803603604081101561030357600080fd5b5080359060200135610739565b6102186004803603604081101561032657600080fd5b508035906020013561075c565b6102186004803603604081101561034957600080fd5b5080359060200135610787565b6102186004803603604081101561036c57600080fd5b50803590602001356107a8565b6102936004803603604081101561038f57600080fd5b50803590602001356107d3565b610293600480360360408110156103b257600080fd5b50803590602001356107fe565b610293600480360360408110156103d557600080fd5b508035906020013561081f565b610218600480360360208110156103f857600080fd5b503561084a565b6102186004803603604081101561041557600080fd5b508035906020013561085c565b6102186004803603604081101561043857600080fd5b508035906020013561087d565b6102936004803603604081101561045b57600080fd5b50803590602001356108a8565b6102936004803603604081101561047e57600080fd5b50803590602001356108d3565b610218600480360360408110156104a157600080fd5b50803590602001356108f6565b610218600480360360408110156104c457600080fd5b5080359060200135610921565b610218600480360360408110156104e757600080fd5b5080359060200135610942565b6102186004803603604081101561050a57600080fd5b508035906020013561096d565b6102186004803603604081101561052d57600080fd5b508035906020013561098e565b6102186004803603604081101561055057600080fd5b50803590602001356109af565b6102186004803603604081101561057357600080fd5b50803590602001356109da565b6102936004803603604081101561059657600080fd5b50803590602001356109fd565b610293600480360360408110156105b957600080fd5b5080359060200135610a28565b610218600480360360408110156105dc57600080fd5b5080359060200135610a53565b610293600480360360408110156105ff57600080fd5b5080359060200135610a7e565b6102936004803603604081101561062257600080fd5b5080359060200135610a9f565b6102936004803603604081101561064557600080fd5b5080359060200135610ac0565b6040805160208082018352838252825190810190925283825260009161067d9163ffffffff610ae116565b5190505b92915050565b604080516020810190915282815260009061067d908363ffffffff610aff16565b600061067d60405180602001604052808481525084610b2f90919063ffffffff16565b60006106ee60405180602001604052808481525084610b4990919063ffffffff16565b9392505050565b60408051602081019091528281526000906106ee908363ffffffff610b6116565b60006106ee60405180602001604052808481525084610b7990919063ffffffff16565b60006106ee60405180602001604052808481525084610b9090919063ffffffff16565b6040805160208082018352838252825190810190925283825260009161067d9163ffffffff610ba816565b604080516020810190915282815260009061067d908363ffffffff610be916565b6040805160208082018352838252825190810190925283825260009161067d9163ffffffff610c3316565b604080516020808201835283825282519081019092528382526000916106ee9163ffffffff610c4a16565b60408051602081019091528281526000906106ee908363ffffffff610c5216565b604080516020808201835283825282519081019092528382526000916106ee9163ffffffff610c6916565b600061085582610c70565b5192915050565b604080516020810190915282815260009061067d908363ffffffff610ca416565b6040805160208082018352838252825190810190925283825260009161067d9163ffffffff610ccb16565b604080516020808201835283825282519081019092528382526000916106ee9163ffffffff610d0e16565b60006106ee60405180602001604052808481525084610d1690919063ffffffff16565b6040805160208082018352838252825190810190925283825260009161067d9163ffffffff610d2d16565b604080516020810190915282815260009061067d908363ffffffff610dc216565b6040805160208082018352838252825190810190925283825260009161067d9163ffffffff610dd716565b604080516020810190915282815260009061067d908363ffffffff610e0016565b604080516020810190915282815260009061067d908363ffffffff610e1a16565b6040805160208082018352838252825190810190925283825260009161067d9163ffffffff610e3416565b600061067d60405180602001604052808481525084610e5d90919063ffffffff16565b604080516020808201835283825282519081019092528382526000916106ee9163ffffffff610e7716565b604080516020808201835283825282519081019092528382526000916106ee9163ffffffff610e7e16565b6040805160208082018352838252825190810190925283825260009161067d9163ffffffff610e8516565b60408051602081019091528281526000906106ee908363ffffffff610edc16565b60408051602081019091528281526000906106ee908363ffffffff610ef316565b60408051602081019091528281526000906106ee908363ffffffff610f0a16565b610ae961127b565b8151835110610af857816106ee565b5090919050565b610b0761127b565b604080516020810190915283518190610b26908563ffffffff610f2216565b90529392505050565b610b3761127b565b6106ee610b4384610c70565b83610ba8565b8051600090610b5784610c70565b5110159392505050565b6000610b6c82610c70565b5183511115905092915050565b8051600090610b8784610c70565b51119392505050565b8051600090610b9e84610c70565b5111159392505050565b610bb061127b565b6040805160208101909152825184518291610b2691610bdd90670de0b6b3a764000063ffffffff610f2216565b9063ffffffff610f9516565b610bf161127b565b610bfb6001610c70565b905060005b82811015610c2c57610c128285610ccb565b9150610c2581600163ffffffff610fd716565b9050610c00565b5092915050565b610c3b61127b565b8151835111610af857816106ee565b519051101590565b6000610c5d82610c70565b51835114905092915050565b5190511090565b610c7861127b565b604080516020810190915280610c9c84670de0b6b3a764000063ffffffff610f2216565b905292915050565b610cac61127b565b604080516020810190915283518190610b26908563ffffffff610f9516565b610cd361127b565b6040805160208101909152825184518291670de0b6b3a764000091610cfd9163ffffffff610f2216565b81610d0457fe5b0490529392505050565b519051111590565b8051600090610d2484610c70565b51109392505050565b610d3561127b565b81518351600091610d4c919063ffffffff610f2216565b90506000670de0b6b3a7640000820490506000610d7783670de0b6b3a764000063ffffffff61104b16565b90508015610da957604080516020810190915280610d9c84600163ffffffff610fd716565b8152509350505050610681565b6040518060200160405280838152509350505050610681565b610dca61127b565b6106ee83610dd784610c70565b610ddf61127b565b6040805160208101909152825184518291610b26919063ffffffff610fd716565b610e0861127b565b6106ee83610e1584610c70565b610e34565b610e2261127b565b6106ee83610e2f84610c70565b610e85565b610e3c61127b565b6040805160208101909152825184518291610b26919063ffffffff61108d16565b610e6561127b565b6106ee610e7184610c70565b83610e34565b5190511490565b5190511190565b610e8d61127b565b8251600090610eaa90670de0b6b3a764000063ffffffff610f2216565b8351909150600090610ec390839063ffffffff610f9516565b8451909150600090610d7790849063ffffffff61104b16565b6000610ee782610c70565b51835111905092915050565b6000610efe82610c70565b51835110905092915050565b6000610f1582610c70565b5183511015905092915050565b600082610f3157506000610681565b82820282848281610f3e57fe5b04146106ee576040517f08c379a000000000000000000000000000000000000000000000000000000000815260040180806020018281038252602181526020018061128f6021913960400191505060405180910390fd5b60006106ee83836040518060400160405280601a81526020017f536166654d6174683a206469766973696f6e206279207a65726f0000000000008152506110cf565b6000828201838110156106ee57604080517f08c379a000000000000000000000000000000000000000000000000000000000815260206004820152601b60248201527f536166654d6174683a206164646974696f6e206f766572666c6f770000000000604482015290519081900360640190fd5b60006106ee83836040518060400160405280601881526020017f536166654d6174683a206d6f64756c6f206279207a65726f000000000000000081525061118b565b60006106ee83836040518060400160405280601e81526020017f536166654d6174683a207375627472616374696f6e206f766572666c6f770000815250611207565b60008183611175576040517f08c379a00000000000000000000000000000000000000000000000000000000081526004018080602001828103825283818151815260200191508051906020019080838360005b8381101561113a578181015183820152602001611122565b50505050905090810190601f1680156111675780820380516001836020036101000a031916815260200191505b509250505060405180910390fd5b50600083858161118157fe5b0495945050505050565b600081836111f4576040517f08c379a000000000000000000000000000000000000000000000000000000000815260206004820181815283516024840152835190928392604490910191908501908083836000831561113a578181015183820152602001611122565b508284816111fe57fe5b06949350505050565b60008184841115611273576040517f08c379a000000000000000000000000000000000000000000000000000000000815260206004820181815283516024840152835190928392604490910191908501908083836000831561113a578181015183820152602001611122565b505050900390565b604051806020016040528060008152509056fe536166654d6174683a206d756c7469706c69636174696f6e206f766572666c6f77a2646970667358221220740b12edd15a0830809f620fa0d9d7b852e7a2706938a5cbe9b8ccbfcb5e41fd64736f6c63430006040033",
  "source": "pragma solidity ^0.6.0;\n\nimport \"../implementation/FixedPoint.sol\";\n\n\n// Wraps the FixedPoint library for testing purposes.\ncontract FixedPointTest {\n    using FixedPoint for FixedPoint.Unsigned;\n    using FixedPoint for uint256;\n    using SafeMath for uint256;\n\n    function wrapFromUnscaledUint(uint256 a) external pure returns (uint256) {\n        return FixedPoint.fromUnscaledUint(a).rawValue;\n    }\n\n    function wrapIsEqual(uint256 a, uint256 b) external pure returns (bool) {\n        return FixedPoint.Unsigned(a).isEqual(FixedPoint.Unsigned(b));\n    }\n\n    function wrapMixedIsEqual(uint256 a, uint256 b) external pure returns (bool) {\n        return FixedPoint.Unsigned(a).isEqual(b);\n    }\n\n    function wrapIsGreaterThan(uint256 a, uint256 b) external pure returns (bool) {\n        return FixedPoint.Unsigned(a).isGreaterThan(FixedPoint.Unsigned(b));\n    }\n\n    function wrapIsGreaterThanOrEqual(uint256 a, uint256 b) external pure returns (bool) {\n        return FixedPoint.Unsigned(a).isGreaterThanOrEqual(FixedPoint.Unsigned(b));\n    }\n\n    function wrapMixedIsGreaterThan(uint256 a, uint256 b) external pure returns (bool) {\n        return FixedPoint.Unsigned(a).isGreaterThan(b);\n    }\n\n    function wrapMixedIsGreaterThanOrEqual(uint256 a, uint256 b) external pure returns (bool) {\n        return FixedPoint.Unsigned(a).isGreaterThanOrEqual(b);\n    }\n\n    function wrapMixedIsGreaterThanOpposite(uint256 a, uint256 b) external pure returns (bool) {\n        return a.isGreaterThan(FixedPoint.Unsigned(b));\n    }\n\n    function wrapMixedIsGreaterThanOrEqualOpposite(uint256 a, uint256 b) external pure returns (bool) {\n        return a.isGreaterThanOrEqual(FixedPoint.Unsigned(b));\n    }\n\n    function wrapIsLessThan(uint256 a, uint256 b) external pure returns (bool) {\n        return FixedPoint.Unsigned(a).isLessThan(FixedPoint.Unsigned(b));\n    }\n\n    function wrapIsLessThanOrEqual(uint256 a, uint256 b) external pure returns (bool) {\n        return FixedPoint.Unsigned(a).isLessThanOrEqual(FixedPoint.Unsigned(b));\n    }\n\n    function wrapMixedIsLessThan(uint256 a, uint256 b) external pure returns (bool) {\n        return FixedPoint.Unsigned(a).isLessThan(b);\n    }\n\n    function wrapMixedIsLessThanOrEqual(uint256 a, uint256 b) external pure returns (bool) {\n        return FixedPoint.Unsigned(a).isLessThanOrEqual(b);\n    }\n\n    function wrapMixedIsLessThanOpposite(uint256 a, uint256 b) external pure returns (bool) {\n        return a.isLessThan(FixedPoint.Unsigned(b));\n    }\n\n    function wrapMixedIsLessThanOrEqualOpposite(uint256 a, uint256 b) external pure returns (bool) {\n        return a.isLessThanOrEqual(FixedPoint.Unsigned(b));\n    }\n\n    function wrapMin(uint256 a, uint256 b) external pure returns (uint256) {\n        return FixedPoint.Unsigned(a).min(FixedPoint.Unsigned(b)).rawValue;\n    }\n\n    function wrapMax(uint256 a, uint256 b) external pure returns (uint256) {\n        return FixedPoint.Unsigned(a).max(FixedPoint.Unsigned(b)).rawValue;\n    }\n\n    function wrapAdd(uint256 a, uint256 b) external pure returns (uint256) {\n        return FixedPoint.Unsigned(a).add(FixedPoint.Unsigned(b)).rawValue;\n    }\n\n    // The first uint256 is interpreted with a scaling factor and is converted to an `Unsigned` directly.\n    function wrapMixedAdd(uint256 a, uint256 b) external pure returns (uint256) {\n        return FixedPoint.Unsigned(a).add(b).rawValue;\n    }\n\n    function wrapSub(uint256 a, uint256 b) external pure returns (uint256) {\n        return FixedPoint.Unsigned(a).sub(FixedPoint.Unsigned(b)).rawValue;\n    }\n\n    // The first uint256 is interpreted with a scaling factor and is converted to an `Unsigned` directly.\n    function wrapMixedSub(uint256 a, uint256 b) external pure returns (uint256) {\n        return FixedPoint.Unsigned(a).sub(b).rawValue;\n    }\n\n    // The second uint256 is interpreted with a scaling factor and is converted to an `Unsigned` directly.\n    function wrapMixedSubOpposite(uint256 a, uint256 b) external pure returns (uint256) {\n        return a.sub(FixedPoint.Unsigned(b)).rawValue;\n    }\n\n    function wrapMul(uint256 a, uint256 b) external pure returns (uint256) {\n        return FixedPoint.Unsigned(a).mul(FixedPoint.Unsigned(b)).rawValue;\n    }\n\n    function wrapMulCeil(uint256 a, uint256 b) external pure returns (uint256) {\n        return FixedPoint.Unsigned(a).mulCeil(FixedPoint.Unsigned(b)).rawValue;\n    }\n\n    // The first uint256 is interpreted with a scaling factor and is converted to an `Unsigned` directly.\n    function wrapMixedMul(uint256 a, uint256 b) external pure returns (uint256) {\n        return FixedPoint.Unsigned(a).mul(b).rawValue;\n    }\n\n    function wrapMixedMulCeil(uint256 a, uint256 b) external pure returns (uint256) {\n        return FixedPoint.Unsigned(a).mulCeil(b).rawValue;\n    }\n\n    function wrapDiv(uint256 a, uint256 b) external pure returns (uint256) {\n        return FixedPoint.Unsigned(a).div(FixedPoint.Unsigned(b)).rawValue;\n    }\n\n    function wrapDivCeil(uint256 a, uint256 b) external pure returns (uint256) {\n        return FixedPoint.Unsigned(a).divCeil(FixedPoint.Unsigned(b)).rawValue;\n    }\n\n    // The first uint256 is interpreted with a scaling factor and is converted to an `Unsigned` directly.\n    function wrapMixedDiv(uint256 a, uint256 b) external pure returns (uint256) {\n        return FixedPoint.Unsigned(a).div(b).rawValue;\n    }\n\n    function wrapMixedDivCeil(uint256 a, uint256 b) external pure returns (uint256) {\n        return FixedPoint.Unsigned(a).divCeil(b).rawValue;\n    }\n\n    // The second uint256 is interpreted with a scaling factor and is converted to an `Unsigned` directly.\n    function wrapMixedDivOpposite(uint256 a, uint256 b) external pure returns (uint256) {\n        return a.div(FixedPoint.Unsigned(b)).rawValue;\n    }\n\n    // The first uint256 is interpreted with a scaling factor and is converted to an `Unsigned` directly.\n    function wrapPow(uint256 a, uint256 b) external pure returns (uint256) {\n        return FixedPoint.Unsigned(a).pow(b).rawValue;\n    }\n}\n",
  "sourcePath": "/home/alessandrovm/JarvisLavoro/SynFiat/packages/contracts/contracts/uma-contracts/common/test/FixedPointTest.sol",
  "compiler": {
    "name": "solc",
    "version": "0.6.4+commit.1dca32f3.Emscripten.clang"
  },
  "schemaVersion": "3.2.0",
  "updatedAt": "2020-09-17T18:56:01.827Z",
  "devdoc": {
    "methods": {}
  },
  "userdoc": {
    "methods": {}
  }
}