{
  "contractName": "FundingRateApplier",
  "abi": [
    {
      "inputs": [
        {
          "internalType": "address",
          "name": "_finderAddress",
          "type": "address"
        },
        {
          "internalType": "bytes32",
          "name": "_fundingRateIdentifier",
          "type": "bytes32"
        },
        {
          "internalType": "address",
          "name": "_timerAddress",
          "type": "address"
        }
      ],
      "stateMutability": "nonpayable",
      "type": "constructor"
    },
    {
      "anonymous": false,
      "inputs": [
        {
          "indexed": true,
          "internalType": "uint256",
          "name": "newMultiplier",
          "type": "uint256"
        },
        {
          "indexed": false,
          "internalType": "uint256",
          "name": "lastUpdateTime",
          "type": "uint256"
        },
        {
          "indexed": false,
          "internalType": "uint256",
          "name": "updateTime",
          "type": "uint256"
        },
        {
          "indexed": true,
          "internalType": "uint256",
          "name": "paymentPeriod",
          "type": "uint256"
        },
        {
          "indexed": true,
          "internalType": "uint256",
          "name": "latestFundingRate",
          "type": "uint256"
        },
        {
          "indexed": false,
          "internalType": "uint256",
          "name": "effectiveFundingRateForPaymentPeriod",
          "type": "uint256"
        }
      ],
      "name": "NewFundingRate",
      "type": "event"
    },
    {
      "inputs": [],
      "name": "cumulativeFundingRateMultiplier",
      "outputs": [
        {
          "internalType": "uint256",
          "name": "rawValue",
          "type": "uint256"
        }
      ],
      "stateMutability": "view",
      "type": "function"
    },
    {
      "inputs": [],
      "name": "fpFinder",
      "outputs": [
        {
          "internalType": "contract FinderInterface",
          "name": "",
          "type": "address"
        }
      ],
      "stateMutability": "view",
      "type": "function"
    },
    {
      "inputs": [],
      "name": "fundingRateIdentifier",
      "outputs": [
        {
          "internalType": "bytes32",
          "name": "",
          "type": "bytes32"
        }
      ],
      "stateMutability": "view",
      "type": "function"
    },
    {
      "inputs": [],
      "name": "lastUpdateTime",
      "outputs": [
        {
          "internalType": "uint256",
          "name": "",
          "type": "uint256"
        }
      ],
      "stateMutability": "view",
      "type": "function"
    }
  ],
  "bytecode": "0x608060405234801561001057600080fd5b5060405161054a38038061054a83398101604081905261002f91610220565b6000805460ff1916600117905561004d6001600160e01b0361014816565b61005e6001600160e01b0361017516565b60008054610100600160a81b0319166101006001600160a01b0386811691909102919091179091556002839055600480546001600160a01b03191683831617808255604080516329cb924d60e01b8152905191909316926329cb924d9281810192602092909190829003018186803b1580156100d957600080fd5b505afa1580156100ed573d6000803e3d6000fd5b505050506040513d601f19601f820116820180604052508101906101119190610262565b60018190555061012b600161018160201b6100c71760201c565b516003556101406001600160e01b036101bb16565b50505061030a565b60005460ff166101735760405162461bcd60e51b815260040161016a906102bb565b60405180910390fd5b565b6000805460ff19169055565b61018961020d565b60405180602001604052806101b3670de0b6b3a7640000856101ca60201b6100fb1790919060201c565b905292915050565b6000805460ff19166001179055565b6000826101d957506000610207565b828202828482816101e657fe5b04146102045760405162461bcd60e51b815260040161016a9061027a565b90505b92915050565b6040518060200160405280600081525090565b600080600060608486031215610234578283fd5b835161023f816102f2565b602085015160408601519194509250610257816102f2565b809150509250925092565b600060208284031215610273578081fd5b5051919050565b60208082526021908201527f536166654d6174683a206d756c7469706c69636174696f6e206f766572666c6f6040820152607760f81b606082015260800190565b6020808252601f908201527f5265656e7472616e637947756172643a207265656e7472616e742063616c6c00604082015260600190565b6001600160a01b038116811461030757600080fd5b50565b610231806103196000396000f3fe608060405234801561001057600080fd5b506004361061004c5760003560e01c806321d40512146100515780637b4ff6731461006f578063c8f33c9114610077578063d7ba7fe71461007f575b600080fd5b610059610094565b6040516100669190610174565b60405180910390f35b61005961009a565b6100596100a0565b6100876100a6565b604051610066919061017d565b60025481565b60035481565b60015481565b600054610100900473ffffffffffffffffffffffffffffffffffffffff1681565b6100cf610161565b6040805160208101909152806100f384670de0b6b3a764000063ffffffff6100fb16565b905292915050565b60008261010a5750600061015b565b8282028284828161011757fe5b0414610158576040517f08c379a000000000000000000000000000000000000000000000000000000000815260040161014f9061019e565b60405180910390fd5b90505b92915050565b6040518060200160405280600081525090565b90815260200190565b73ffffffffffffffffffffffffffffffffffffffff91909116815260200190565b60208082526021908201527f536166654d6174683a206d756c7469706c69636174696f6e206f766572666c6f60408201527f770000000000000000000000000000000000000000000000000000000000000060608201526080019056fea2646970667358221220ef5e704cc5f2debe81040438d053cef54489fbed030d8ccc1f21f5f940fbdbf964736f6c634300060a0033",
  "immutableReferences": {},
  "source": "pragma solidity ^0.6.0;\npragma experimental ABIEncoderV2;\n\nimport \"@openzeppelin/contracts/token/ERC20/IERC20.sol\";\nimport \"@openzeppelin/contracts/token/ERC20/SafeERC20.sol\";\n\nimport \"../../common/implementation/Lockable.sol\";\nimport \"../../common/implementation/FixedPoint.sol\";\nimport \"../../common/implementation/Timer.sol\";\n\nimport \"../../oracle/interfaces/StoreInterface.sol\";\nimport \"../../oracle/interfaces/FinderInterface.sol\";\nimport \"../../oracle/implementation/Constants.sol\";\n\nimport \"../funding-rate-store/interfaces/FundingRateStoreInterface.sol\";\n\n\n/**\n * @title FundingRateApplier contract.\n * @notice Provides funding rate payment functionality for the Perpetual contract.\n */\n\ncontract FundingRateApplier is Lockable {\n    using SafeMath for int256;\n    using SafeMath for uint256;\n    using FixedPoint for FixedPoint.Unsigned;\n    using SafeERC20 for IERC20;\n\n    /****************************************\n     * FUNDING RATE APPLIER DATA STRUCTURES *\n     ****************************************/\n\n    // Points to financial product-related contracts like the funding rate store.\n    FinderInterface public fpFinder;\n\n    // Last time the `cumulativeFundingRateMultiplier` was updated.\n    uint256 public lastUpdateTime;\n\n    // Identifier in funding rate store to query for.\n    bytes32 public fundingRateIdentifier;\n\n    // Tracks the cumulative funding payments that have been paid to the sponsors.\n    // The multiplier starts at 1, and is updated by computing cumulativeFundingRateMultiplier * (1 + effectivePayment).\n    // Put another way, the cumulativeFeeMultiplier is (1 + effectivePayment1) * (1 + effectivePayment2) ...\n    // For example:\n    // The cumulativeFundingRateMultiplier should start at 1.\n    // If a 1% funding payment is paid to sponsors, the multiplier should update to 1.01.\n    // If another 1% fee is charged, the multiplier should be 1.01^2 (1.0201).\n    FixedPoint.Unsigned public cumulativeFundingRateMultiplier;\n\n    // FundingRateApplier and FeePayer are both at the same inheritance level within the PerpetualPositionManager. As a\n    // result, they cant both be instances of the Testable contract. to accommodate this the FundingRateApplier has an\n    // instance of timer which enables it to be tested in the same way it would be if it was an instance of Tesable.\n    Timer timer;\n\n    /****************************************\n     *                EVENTS                *\n     ****************************************/\n\n    event NewFundingRate(\n        uint256 indexed newMultiplier,\n        uint256 lastUpdateTime,\n        uint256 updateTime,\n        uint256 indexed paymentPeriod,\n        uint256 indexed latestFundingRate,\n        uint256 effectiveFundingRateForPaymentPeriod\n    );\n\n    /****************************************\n     *              MODIFIERS               *\n     ****************************************/\n\n    modifier updateFundingRate {\n        _applyEffectiveFundingRate();\n        _;\n    }\n\n    /**\n     * @notice Constructs the FundingRateApplier contract. Called by child contracts.\n     * @param _finderAddress Finder used to discover financial-product-related contracts.\n     * @param _fundingRateIdentifier Unique identifier for DVM price feed ticker for child financial contract.\n     * @param _timerAddress Contract that stores the current time in a testing environment.\n     * Must be set to 0x0 for production environments that use live time.\n     */\n    constructor(\n        address _finderAddress,\n        bytes32 _fundingRateIdentifier,\n        address _timerAddress\n    ) public nonReentrant() {\n        fpFinder = FinderInterface(_finderAddress);\n        fundingRateIdentifier = _fundingRateIdentifier;\n\n        timer = Timer(_timerAddress);\n        lastUpdateTime = timer.getCurrentTime();\n\n        // Seed the initial funding rate in the cumulativeFundingRateMultiplier 1.\n        cumulativeFundingRateMultiplier = FixedPoint.fromUnscaledUint(1);\n    }\n\n    // Returns a token amount scaled by the current funding rate multiplier.\n    // Note: if the contract has paid fees since it was deployed, the raw\n    // value should be larger than the returned value.\n    function _getFundingRateAppliedTokenDebt(FixedPoint.Unsigned memory rawTokenDebt)\n        internal\n        view\n        returns (FixedPoint.Unsigned memory tokenDebt)\n    {\n        return rawTokenDebt.mul(cumulativeFundingRateMultiplier);\n    }\n\n    function _getFundingRateStore() internal view returns (FundingRateStoreInterface) {\n        return FundingRateStoreInterface(fpFinder.getImplementationAddress(\"FundingRateStore\"));\n    }\n\n    function _getLatestFundingRate() internal view returns (FixedPoint.Unsigned memory) {\n        FundingRateStoreInterface fundingRateStore = _getFundingRateStore();\n        return fundingRateStore.getFundingRateForIdentifier(fundingRateIdentifier);\n    }\n\n    // Fetches a funding rate from the Store, determines the period over which to compute an effective fee,\n    // and multiplies the current multiplier by the effective fee.\n    // A funding rate < 1 will reduce the multiplier, and a funding rate of > 1 will increase the multiplier.\n    // Note: 1 is set as the neutral rate because there are no negative numbers in FixedPoint, so we decide to treat\n    // values < 1 as \"negative\".\n    function _applyEffectiveFundingRate() internal {\n        uint256 currentTime = timer.getCurrentTime();\n        uint256 paymentPeriod = currentTime.sub(lastUpdateTime);\n\n        FixedPoint.Unsigned memory _latestFundingRatePerSecond = _getLatestFundingRate();\n\n        FixedPoint.Unsigned memory effectiveFundingRateForPeriod;\n        (cumulativeFundingRateMultiplier, effectiveFundingRateForPeriod) = _calculateEffectiveFundingRate(\n            paymentPeriod,\n            _latestFundingRatePerSecond,\n            cumulativeFundingRateMultiplier\n        );\n\n        emit NewFundingRate(\n            cumulativeFundingRateMultiplier.rawValue,\n            lastUpdateTime,\n            currentTime,\n            paymentPeriod,\n            _latestFundingRatePerSecond.rawValue,\n            effectiveFundingRateForPeriod.rawValue\n        );\n\n        lastUpdateTime = currentTime;\n    }\n\n    function _calculateEffectiveFundingRate(\n        uint256 paymentPeriodSeconds,\n        FixedPoint.Unsigned memory fundingRatePerSecond,\n        FixedPoint.Unsigned memory feeMultiplier\n    ) internal pure returns (FixedPoint.Unsigned memory, FixedPoint.Unsigned memory) {\n        // Determine whether `fundingRatePerSecond` implies a negative or positive funding rate,\n        // and apply it over a pay period.\n        FixedPoint.Unsigned memory ONE = FixedPoint.fromUnscaledUint(1);\n        FixedPoint.Unsigned memory effectiveFundingRateForPeriod = ONE;\n\n        // If `fundingRatePerSecond` == 1, then maintain the current multiplier.\n        FixedPoint.Unsigned memory newFeeMultiplier = feeMultiplier;\n        if (fundingRatePerSecond.isGreaterThan(ONE)) {\n            // If `fundingRatePerSecond` > 1, then first scale the funding over the pay period:\n            // (`fundingRatePerSecond` - 1) * payPeriod = effectiveFundingRate.\n            // Next, multiply the current multipier by (1 + effectiveFundingRate).\n\n            effectiveFundingRateForPeriod = ONE.add(fundingRatePerSecond.sub(ONE).mul(paymentPeriodSeconds));\n            newFeeMultiplier = feeMultiplier.mul(effectiveFundingRateForPeriod);\n        } else if (fundingRatePerSecond.isLessThan(ONE)) {\n            // If `fundingRatePerSecond` < 1, then first scale the funding over the pay period:\n            // (1 - `fundingRatePerSecond`) * payPeriod = effectiveFundingRate.\n            // Next, multiply the current multipier by (1 - effectiveFundingRate).\n\n            effectiveFundingRateForPeriod = ONE.sub(ONE.sub(fundingRatePerSecond).mul(paymentPeriodSeconds));\n            newFeeMultiplier = feeMultiplier.mul(effectiveFundingRateForPeriod);\n        }\n\n        return (newFeeMultiplier, effectiveFundingRateForPeriod);\n    }\n}\n",
  "sourcePath": "/home/alessandrovm/JarvisLavoro/SynFiat/packages/contracts/contracts/uma-contracts/financial-templates/common/FundingRateApplier.sol",
  "compiler": {
    "name": "solc",
    "version": "0.6.10+commit.00c0fcaf.Emscripten.clang"
  },
  "schemaVersion": "3.2.5",
  "updatedAt": "2020-10-22T14:01:04.301Z",
  "devdoc": {
    "methods": {
      "constructor": {
        "params": {
          "_finderAddress": "Finder used to discover financial-product-related contracts.",
          "_fundingRateIdentifier": "Unique identifier for DVM price feed ticker for child financial contract.",
          "_timerAddress": "Contract that stores the current time in a testing environment. Must be set to 0x0 for production environments that use live time."
        }
      }
    },
    "title": "FundingRateApplier contract."
  },
  "userdoc": {
    "methods": {
      "constructor": "Constructs the FundingRateApplier contract. Called by child contracts.",
      "fpFinder()": {
        "notice": "************************************** FUNDING RATE APPLIER DATA STRUCTURES ****************************************"
      }
    },
    "notice": "Provides funding rate payment functionality for the Perpetual contract."
  }
}