{
  "contractName": "FundingRateApplierTest",
  "abi": [
    {
      "inputs": [
        {
          "internalType": "address",
          "name": "_fpFinderAddress",
          "type": "address"
        },
        {
          "internalType": "bytes32",
          "name": "_fundingRateIdentifier",
          "type": "bytes32"
        },
        {
          "internalType": "address",
          "name": "_timerAddress",
          "type": "address"
        }
      ],
      "stateMutability": "nonpayable",
      "type": "constructor"
    },
    {
      "anonymous": false,
      "inputs": [
        {
          "indexed": true,
          "internalType": "uint256",
          "name": "newMultiplier",
          "type": "uint256"
        },
        {
          "indexed": false,
          "internalType": "uint256",
          "name": "lastUpdateTime",
          "type": "uint256"
        },
        {
          "indexed": false,
          "internalType": "uint256",
          "name": "updateTime",
          "type": "uint256"
        },
        {
          "indexed": true,
          "internalType": "uint256",
          "name": "paymentPeriod",
          "type": "uint256"
        },
        {
          "indexed": true,
          "internalType": "uint256",
          "name": "latestFundingRate",
          "type": "uint256"
        },
        {
          "indexed": false,
          "internalType": "uint256",
          "name": "effectiveFundingRateForPaymentPeriod",
          "type": "uint256"
        }
      ],
      "name": "NewFundingRate",
      "type": "event"
    },
    {
      "inputs": [],
      "name": "cumulativeFundingRateMultiplier",
      "outputs": [
        {
          "internalType": "uint256",
          "name": "rawValue",
          "type": "uint256"
        }
      ],
      "stateMutability": "view",
      "type": "function"
    },
    {
      "inputs": [],
      "name": "fpFinder",
      "outputs": [
        {
          "internalType": "contract FinderInterface",
          "name": "",
          "type": "address"
        }
      ],
      "stateMutability": "view",
      "type": "function"
    },
    {
      "inputs": [],
      "name": "fundingRateIdentifier",
      "outputs": [
        {
          "internalType": "bytes32",
          "name": "",
          "type": "bytes32"
        }
      ],
      "stateMutability": "view",
      "type": "function"
    },
    {
      "inputs": [],
      "name": "lastUpdateTime",
      "outputs": [
        {
          "internalType": "uint256",
          "name": "",
          "type": "uint256"
        }
      ],
      "stateMutability": "view",
      "type": "function"
    },
    {
      "inputs": [],
      "name": "applyFundingRate",
      "outputs": [],
      "stateMutability": "nonpayable",
      "type": "function"
    },
    {
      "inputs": [
        {
          "internalType": "uint256",
          "name": "paymentPeriodSeconds",
          "type": "uint256"
        },
        {
          "components": [
            {
              "internalType": "uint256",
              "name": "rawValue",
              "type": "uint256"
            }
          ],
          "internalType": "struct FixedPoint.Unsigned",
          "name": "fundingRatePerSecond",
          "type": "tuple"
        },
        {
          "components": [
            {
              "internalType": "uint256",
              "name": "rawValue",
              "type": "uint256"
            }
          ],
          "internalType": "struct FixedPoint.Unsigned",
          "name": "feeMultiplier",
          "type": "tuple"
        }
      ],
      "name": "calculateEffectiveFundingRate",
      "outputs": [
        {
          "components": [
            {
              "internalType": "uint256",
              "name": "rawValue",
              "type": "uint256"
            }
          ],
          "internalType": "struct FixedPoint.Unsigned",
          "name": "",
          "type": "tuple"
        },
        {
          "components": [
            {
              "internalType": "uint256",
              "name": "rawValue",
              "type": "uint256"
            }
          ],
          "internalType": "struct FixedPoint.Unsigned",
          "name": "",
          "type": "tuple"
        }
      ],
      "stateMutability": "pure",
      "type": "function"
    }
  ],
  "bytecode": "0x60806040523480156200001157600080fd5b5060405162000d2e38038062000d2e833981016040819052620000349162000247565b6000805460ff19166001179055828282620000576001600160e01b036200016116565b6200006a6001600160e01b036200019116565b60008054610100600160a81b0319166101006001600160a01b0386811691909102919091179091556002839055600480546001600160a01b03191683831617808255604080516329cb924d60e01b8152905191909316926329cb924d9281810192602092909190829003018186803b158015620000e657600080fd5b505afa158015620000fb573d6000803e3d6000fd5b505050506040513d601f19601f820116820180604052508101906200012191906200028e565b6001819055506200013e60016200019d60201b620001491760201c565b51600355620001556001600160e01b03620001dc16565b50505050505062000338565b60005460ff166200018f5760405162461bcd60e51b81526004016200018690620002e8565b60405180910390fd5b565b6000805460ff19169055565b620001a762000234565b6040518060200160405280620001d4670de0b6b3a764000085620001eb60201b6200017d1790919060201c565b905292915050565b6000805460ff19166001179055565b600082620001fc575060006200022e565b828202828482816200020a57fe5b04146200022b5760405162461bcd60e51b81526004016200018690620002a7565b90505b92915050565b6040518060200160405280600081525090565b6000806000606084860312156200025c578283fd5b835162000269816200031f565b60208501516040860151919450925062000283816200031f565b809150509250925092565b600060208284031215620002a0578081fd5b5051919050565b60208082526021908201527f536166654d6174683a206d756c7469706c69636174696f6e206f766572666c6f6040820152607760f81b606082015260800190565b6020808252601f908201527f5265656e7472616e637947756172643a207265656e7472616e742063616c6c00604082015260600190565b6001600160a01b03811681146200033557600080fd5b50565b6109e680620003486000396000f3fe608060405234801561001057600080fd5b50600436106100725760003560e01c8063916108b211610050578063916108b2146100a7578063c8f33c91146100c8578063d7ba7fe7146100d057610072565b806321d405121461007757806371f3c1b7146100955780637b4ff6731461009f575b600080fd5b61007f6100e5565b60405161008c919061080b565b60405180910390f35b61009d6100eb565b005b61007f6100f5565b6100ba6100b53660046107ce565b6100fb565b60405161008c929190610963565b61007f610122565b6100d8610128565b60405161008c9190610814565b60025481565b6100f36101e3565b565b60035481565b610103610725565b61010b610725565b61011685858561032f565b91509150935093915050565b60015481565b600054610100900473ffffffffffffffffffffffffffffffffffffffff1681565b610151610725565b60408051602081019091528061017584670de0b6b3a764000063ffffffff61017d16565b905292915050565b60008261018c575060006101dd565b8282028284828161019957fe5b04146101da576040517f08c379a00000000000000000000000000000000000000000000000000000000081526004016101d190610906565b60405180910390fd5b90505b92915050565b6000600460009054906101000a900473ffffffffffffffffffffffffffffffffffffffff1673ffffffffffffffffffffffffffffffffffffffff166329cb924d6040518163ffffffff1660e01b815260040160206040518083038186803b15801561024d57600080fd5b505afa158015610261573d6000803e3d6000fd5b505050506040513d601f19601f8201168201806040525081019061028591906107b6565b9050600061029e6001548361041f90919063ffffffff16565b90506102a8610725565b6102b0610461565b90506102ba610725565b604080516020810190915260035481526102d7908490849061032f565b905160038190558351600154835160405194955091938793927f4b403d8f3c4695884ccd4a31e9507b4085f284f236a0d598098494cc1c8487999261031f9290918b91610973565b60405180910390a4505050600155565b610337610725565b61033f610725565b610347610725565b6103516001610149565b905061035b610725565b5080610365610725565b5084610377878463ffffffff61051f16565b156103c5576103ac61039f896103938a8763ffffffff61052616565b9063ffffffff61055816565b849063ffffffff61057f16565b91506103be868363ffffffff6105a816565b9050610413565b6103d5878463ffffffff6105eb16565b15610413576103fe6103f189610393868b63ffffffff61052616565b849063ffffffff61052616565b9150610410868363ffffffff6105a816565b90505b97909650945050505050565b60006101da83836040518060400160405280601e81526020017f536166654d6174683a207375627472616374696f6e206f766572666c6f7700008152506105f2565b610469610725565b6000610473610638565b6002546040517f3933870d00000000000000000000000000000000000000000000000000000000815291925073ffffffffffffffffffffffffffffffffffffffff831691633933870d916104c99160040161080b565b60206040518083038186803b1580156104e157600080fd5b505afa1580156104f5573d6000803e3d6000fd5b505050506040513d601f19601f820116820180604052508101906105199190610791565b91505090565b5190511190565b61052e610725565b604080516020810190915282518451829161054f919063ffffffff61041f16565b90529392505050565b610560610725565b60408051602081019091528351819061054f908563ffffffff61017d16565b610587610725565b604080516020810190915282518451829161054f919063ffffffff6106e616565b6105b0610725565b6040805160208101909152825184518291670de0b6b3a7640000916105da9163ffffffff61017d16565b816105e157fe5b0490529392505050565b5190511090565b60008184841115610630576040517f08c379a00000000000000000000000000000000000000000000000000000000081526004016101d19190610835565b505050900390565b600080546040517faafd5e4000000000000000000000000000000000000000000000000000000000815261010090910473ffffffffffffffffffffffffffffffffffffffff169063aafd5e4090610691906004016108a6565b60206040518083038186803b1580156106a957600080fd5b505afa1580156106bd573d6000803e3d6000fd5b505050506040513d601f19601f820116820180604052508101906106e1919061075d565b905090565b6000828201838110156101da576040517f08c379a00000000000000000000000000000000000000000000000000000000081526004016101d1906108cf565b6040518060200160405280600081525090565b600060208284031215610749578081fd5b6107536020610989565b9135825250919050565b60006020828403121561076e578081fd5b815173ffffffffffffffffffffffffffffffffffffffff811681146101da578182fd5b6000602082840312156107a2578081fd5b6107ac6020610989565b9151825250919050565b6000602082840312156107c7578081fd5b5051919050565b6000806000606084860312156107e2578182fd5b833592506107f38560208601610738565b91506108028560408601610738565b90509250925092565b90815260200190565b73ffffffffffffffffffffffffffffffffffffffff91909116815260200190565b6000602080835283518082850152825b8181101561086157858101830151858201604001528201610845565b818111156108725783604083870101525b50601f017fffffffffffffffffffffffffffffffffffffffffffffffffffffffffffffffe016929092016040019392505050565b7f46756e64696e675261746553746f726500000000000000000000000000000000815260200190565b6020808252601b908201527f536166654d6174683a206164646974696f6e206f766572666c6f770000000000604082015260600190565b60208082526021908201527f536166654d6174683a206d756c7469706c69636174696f6e206f766572666c6f60408201527f7700000000000000000000000000000000000000000000000000000000000000606082015260800190565b9151825251602082015260400190565b9283526020830191909152604082015260600190565b60405181810167ffffffffffffffff811182821017156109a857600080fd5b60405291905056fea2646970667358221220aae93334143a980f5dfb0b892353827545d4e0d61c20d8758b0c277be16a393064736f6c634300060a0033",
  "immutableReferences": {},
  "source": "pragma solidity ^0.6.0;\n\npragma experimental ABIEncoderV2;\n\nimport \"../common/FundingRateApplier.sol\";\n\n\n// Implements FundingRateApplier internal methods to enable unit testing.\ncontract FundingRateApplierTest is FundingRateApplier {\n    constructor(\n        address _fpFinderAddress,\n        bytes32 _fundingRateIdentifier,\n        address _timerAddress\n    ) public FundingRateApplier(_fpFinderAddress, _fundingRateIdentifier, _timerAddress) {}\n\n    function applyFundingRate() public {\n        _applyEffectiveFundingRate();\n    }\n\n    function calculateEffectiveFundingRate(\n        uint256 paymentPeriodSeconds,\n        FixedPoint.Unsigned memory fundingRatePerSecond,\n        FixedPoint.Unsigned memory feeMultiplier\n    ) public pure returns (FixedPoint.Unsigned memory, FixedPoint.Unsigned memory) {\n        return _calculateEffectiveFundingRate(paymentPeriodSeconds, fundingRatePerSecond, feeMultiplier);\n    }\n}\n",
  "sourcePath": "/home/alessandrovm/JarvisLavoro/SynFiat/packages/contracts/contracts/uma-contracts/financial-templates/test/FundingRateApplierTest.sol",
  "compiler": {
    "name": "solc",
    "version": "0.6.10+commit.00c0fcaf.Emscripten.clang"
  },
  "schemaVersion": "3.2.5",
  "updatedAt": "2020-10-22T14:01:04.499Z",
  "devdoc": {
    "methods": {}
  },
  "userdoc": {
    "methods": {
      "fpFinder()": {
        "notice": "************************************** FUNDING RATE APPLIER DATA STRUCTURES ****************************************"
      }
    }
  }
}