{
  "contractName": "Governor",
  "abi": [
    {
      "inputs": [
        {
          "internalType": "address",
          "name": "_finderAddress",
          "type": "address"
        },
        {
          "internalType": "bool",
          "name": "_isTest",
          "type": "bool"
        }
      ],
      "stateMutability": "nonpayable",
      "type": "constructor"
    },
    {
      "anonymous": false,
      "inputs": [
        {
          "indexed": true,
          "internalType": "uint256",
          "name": "id",
          "type": "uint256"
        },
        {
          "components": [
            {
              "internalType": "address",
              "name": "to",
              "type": "address"
            },
            {
              "internalType": "uint256",
              "name": "value",
              "type": "uint256"
            },
            {
              "internalType": "bytes",
              "name": "data",
              "type": "bytes"
            }
          ],
          "indexed": false,
          "internalType": "struct Governor.Transaction[]",
          "name": "transactions",
          "type": "tuple[]"
        }
      ],
      "name": "NewProposal",
      "type": "event"
    },
    {
      "anonymous": false,
      "inputs": [
        {
          "indexed": true,
          "internalType": "uint256",
          "name": "id",
          "type": "uint256"
        },
        {
          "indexed": false,
          "internalType": "uint256",
          "name": "transactionIndex",
          "type": "uint256"
        }
      ],
      "name": "ProposalExecuted",
      "type": "event"
    },
    {
      "inputs": [
        {
          "internalType": "uint256",
          "name": "roleId",
          "type": "uint256"
        },
        {
          "internalType": "address",
          "name": "newMember",
          "type": "address"
        }
      ],
      "name": "addMember",
      "outputs": [],
      "stateMutability": "nonpayable",
      "type": "function"
    },
    {
      "inputs": [],
      "name": "getCurrentTime",
      "outputs": [
        {
          "internalType": "uint256",
          "name": "",
          "type": "uint256"
        }
      ],
      "stateMutability": "view",
      "type": "function"
    },
    {
      "inputs": [
        {
          "internalType": "uint256",
          "name": "roleId",
          "type": "uint256"
        }
      ],
      "name": "getMember",
      "outputs": [
        {
          "internalType": "address",
          "name": "",
          "type": "address"
        }
      ],
      "stateMutability": "view",
      "type": "function"
    },
    {
      "inputs": [
        {
          "internalType": "uint256",
          "name": "roleId",
          "type": "uint256"
        },
        {
          "internalType": "address",
          "name": "memberToCheck",
          "type": "address"
        }
      ],
      "name": "holdsRole",
      "outputs": [
        {
          "internalType": "bool",
          "name": "",
          "type": "bool"
        }
      ],
      "stateMutability": "view",
      "type": "function"
    },
    {
      "inputs": [],
      "name": "isTest",
      "outputs": [
        {
          "internalType": "bool",
          "name": "",
          "type": "bool"
        }
      ],
      "stateMutability": "view",
      "type": "function"
    },
    {
      "inputs": [
        {
          "internalType": "uint256",
          "name": "",
          "type": "uint256"
        }
      ],
      "name": "proposals",
      "outputs": [
        {
          "internalType": "uint256",
          "name": "requestTime",
          "type": "uint256"
        }
      ],
      "stateMutability": "view",
      "type": "function"
    },
    {
      "inputs": [
        {
          "internalType": "uint256",
          "name": "roleId",
          "type": "uint256"
        },
        {
          "internalType": "address",
          "name": "memberToRemove",
          "type": "address"
        }
      ],
      "name": "removeMember",
      "outputs": [],
      "stateMutability": "nonpayable",
      "type": "function"
    },
    {
      "inputs": [
        {
          "internalType": "uint256",
          "name": "roleId",
          "type": "uint256"
        },
        {
          "internalType": "address",
          "name": "newMember",
          "type": "address"
        }
      ],
      "name": "resetMember",
      "outputs": [],
      "stateMutability": "nonpayable",
      "type": "function"
    },
    {
      "inputs": [
        {
          "internalType": "uint256",
          "name": "_time",
          "type": "uint256"
        }
      ],
      "name": "setCurrentTime",
      "outputs": [],
      "stateMutability": "nonpayable",
      "type": "function"
    },
    {
      "inputs": [
        {
          "components": [
            {
              "internalType": "address",
              "name": "to",
              "type": "address"
            },
            {
              "internalType": "uint256",
              "name": "value",
              "type": "uint256"
            },
            {
              "internalType": "bytes",
              "name": "data",
              "type": "bytes"
            }
          ],
          "internalType": "struct Governor.Transaction[]",
          "name": "transactions",
          "type": "tuple[]"
        }
      ],
      "name": "propose",
      "outputs": [],
      "stateMutability": "nonpayable",
      "type": "function"
    },
    {
      "inputs": [
        {
          "internalType": "uint256",
          "name": "id",
          "type": "uint256"
        },
        {
          "internalType": "uint256",
          "name": "transactionIndex",
          "type": "uint256"
        }
      ],
      "name": "executeProposal",
      "outputs": [],
      "stateMutability": "nonpayable",
      "type": "function"
    },
    {
      "inputs": [],
      "name": "numProposals",
      "outputs": [
        {
          "internalType": "uint256",
          "name": "",
          "type": "uint256"
        }
      ],
      "stateMutability": "view",
      "type": "function"
    },
    {
      "inputs": [
        {
          "internalType": "uint256",
          "name": "id",
          "type": "uint256"
        }
      ],
      "name": "getProposal",
      "outputs": [
        {
          "components": [
            {
              "components": [
                {
                  "internalType": "address",
                  "name": "to",
                  "type": "address"
                },
                {
                  "internalType": "uint256",
                  "name": "value",
                  "type": "uint256"
                },
                {
                  "internalType": "bytes",
                  "name": "data",
                  "type": "bytes"
                }
              ],
              "internalType": "struct Governor.Transaction[]",
              "name": "transactions",
              "type": "tuple[]"
            },
            {
              "internalType": "uint256",
              "name": "requestTime",
              "type": "uint256"
            }
          ],
          "internalType": "struct Governor.Proposal",
          "name": "proposal",
          "type": "tuple"
        }
      ],
      "stateMutability": "view",
      "type": "function"
    }
  ],
  "bytecode": "0x60806040523480156200001157600080fd5b50604051620019a0380380620019a08339810160408190526200003491620001ce565b6001805460ff1916821580159190911790915581906200005357426002555b50600380546001600160a01b0319166001600160a01b0384161790556200008860005b6000336001600160e01b036200009c16565b62000094600162000076565b5050620002f0565b826000808281526020819052604090206001015460ff166002811115620000bf57fe5b14620000e85760405162461bcd60e51b8152600401620000df9062000276565b60405180910390fd5b60008481526020819052604090206001808201805460ff1916828002179055508381556200012660028201846200016f602090811b6200165c17901c565b60008481526020819052604081206001015460ff1660028111156200014757fe5b1415620001685760405162461bcd60e51b8152600401620000df9062000219565b5050505050565b6200018482826001600160e01b036200018816565b5050565b6001600160a01b038116620001b15760405162461bcd60e51b8152600401620000df90620002ad565b81546001600160a01b0319166001600160a01b0391909116179055565b60008060408385031215620001e1578182fd5b82516001600160a01b0381168114620001f8578283fd5b602084015190925080151581146200020e578182fd5b809150509250929050565b6020808252603c908201527f417474656d7074656420746f2075736520616e20696e76616c696420726f6c6560408201527f20746f206d616e61676520616e206578636c757369766520726f6c6500000000606082015260800190565b6020808252601e908201527f43616e6e6f74207573652061207072652d6578697374696e6720726f6c650000604082015260600190565b60208082526023908201527f43616e6e6f742073657420616e206578636c757369766520726f6c6520746f2060408201526203078360ec1b606082015260800190565b6116a080620003006000396000f3fe608060405234801561001057600080fd5b50600436106100df5760003560e01c806374d0a6761161008c578063ab3545e511610066578063ab3545e514610193578063c62fdef7146101b3578063c7f758a8146101c6578063d97c05be146101e6576100df565b806374d0a676146101585780637cdc1cb91461016b5780639381a3451461018b576100df565b806329cb924d116100bd57806329cb924d14610135578063400e39491461013d5780636be7658b14610145576100df565b8063013cf08b146100e45780631ab767121461010d57806322f8e56614610122575b600080fd5b6100f76100f23660046110f0565b6101f9565b604051610104919061125c565b60405180910390f35b61012061011b366004611137565b61021f565b005b6101206101303660046110f0565b6104e7565b6100f76104fb565b6100f7610518565b610120610153366004611108565b61051e565b610120610166366004611108565b6105bc565b61017e610179366004611108565b610654565b6040516101049190611251565b61017e6106e3565b6101a66101a13660046110f0565b6106ec565b60405161010491906111dd565b6101206101c1366004610fee565b61074f565b6101d96101d43660046110f0565b610a17565b60405161010491906115ae565b6101206101f4366004611108565b610b63565b6004818154811061020657fe5b6000918252602090912060016002909202010154905081565b60006004838154811061022e57fe5b906000526020600020906002020190506000610248610bfb565b6001600160a01b031663c9280f0661025f86610c7f565b84600101546040518363ffffffff1660e01b8152600401610281929190611265565b60206040518083038186803b15801561029957600080fd5b505afa1580156102ad573d6000803e3d6000fd5b505050506040513d601f19601f820116820180604052508101906102d191906110d8565b905060008260000184815481106102e457fe5b906000526020600020906003020190508360001480610338575060008361031286600163ffffffff610ca216565b8154811061031c57fe5b60009182526020909120600390910201546001600160a01b0316145b61035d5760405162461bcd60e51b81526004016103549061142a565b60405180910390fd5b80546001600160a01b03166103845760405162461bcd60e51b8152600401610354906114ee565b816103a15760405162461bcd60e51b8152600401610354906113e3565b805460018083015460028085018054604080516020601f600019988516156101000298909801909316949094049586018290048202840182019052848352610449956001600160a01b0316949083018282801561043f5780601f106104145761010080835404028352916020019161043f565b820191906000526020600020905b81548152906001019060200180831161042257829003601f168201915b5050505050610ce4565b6104655760405162461bcd60e51b81526004016103549061131e565b82600001848154811061047457fe5b60009182526020822060039091020180546001600160a01b031916815560018101829055906104a66002830182610e65565b5050847ff758fc91e01b00ea6b4a6138756f7f28e021f9bf21db6dbf8c36c88eb737257a856040516104d8919061125c565b60405180910390a25050505050565b60015460ff166104f657600080fd5b600255565b60015460009060ff16156105125750600254610515565b50425b90565b60045490565b81600260008281526020819052604090206001015460ff16600281111561054157fe5b1461055e5760405162461bcd60e51b815260040161035490611355565b60008381526020819052604090205483906105799033610654565b6105955760405162461bcd60e51b815260040161035490611533565b60008481526020819052604090206105b6906003018463ffffffff610cff16565b50505050565b81600260008281526020819052604090206001015460ff1660028111156105df57fe5b146105fc5760405162461bcd60e51b815260040161035490611355565b60008381526020819052604090205483906106179033610654565b6106335760405162461bcd60e51b815260040161035490611533565b60008481526020819052604090206105b6906003018463ffffffff610d2116565b600082815260208190526040812060018082015460ff16600281111561067657fe5b14156106975761068f600282018463ffffffff610d4616565b9150506106dd565b6002600182015460ff1660028111156106ac57fe5b14156106c55761068f600382018463ffffffff610d5916565b60405162461bcd60e51b815260040161035490611577565b92915050565b60015460ff1681565b600081600160008281526020819052604090206001015460ff16600281111561071157fe5b1461072e5760405162461bcd60e51b8152600401610354906112c1565b600083815260208190526040902061074890600201610d78565b9392505050565b600161075b8133610654565b6107775760405162461bcd60e51b8152600401610354906113a1565b60045460006107846104fb565b600480546001018082556000828152929350849081106107a057fe5b600091825260208220600160029092020190810184905591505b85518110156108925760006001600160a01b03168682815181106107da57fe5b6020026020010151600001516001600160a01b0316141561080d5760405162461bcd60e51b8152600401610354906114b7565b8160000186828151811061081d57fe5b602090810291909101810151825460018082018555600094855293839020825160039092020180546001600160a01b0319166001600160a01b0390921691909117815581830151938101939093556040810151805191939261088792600285019290910190610eac565b5050506001016107ba565b50600061089e84610c7f565b905060006108aa610bfb565b905060006108b6610d85565b6040516310a7e20160e01b81529091506001600160a01b038216906310a7e201906108e590869060040161125c565b600060405180830381600087803b1580156108ff57600080fd5b505af1158015610913573d6000803e3d6000fd5b50506040516368ad8ae360e01b81526001600160a01b03851692506368ad8ae391506109459086908990600401611265565b600060405180830381600087803b15801561095f57600080fd5b505af1158015610973573d6000803e3d6000fd5b5050604051638e0d3ca760e01b81526001600160a01b0384169250638e0d3ca791506109a390869060040161125c565b600060405180830381600087803b1580156109bd57600080fd5b505af11580156109d1573d6000803e3d6000fd5b50505050857f082d2a29e61e3d0508e5617570bed4c7c58ae73d4719b31052d8638812bc4c0c89604051610a0591906111f1565b60405180910390a25050505050505050565b610a1f610f2a565b60048281548110610a2c57fe5b906000526020600020906002020160405180604001604052908160008201805480602002602001604051908101604052809291908181526020016000905b82821015610b4a576000848152602090819020604080516060810182526003860290920180546001600160a01b03168352600180820154848601526002808301805485516101009482161594909402600019011691909104601f8101879004870283018701855280835294959294938601939192909190830182828015610b325780601f10610b0757610100808354040283529160200191610b32565b820191906000526020600020905b815481529060010190602001808311610b1557829003601f168201915b50505050508152505081526020019060010190610a6a565b5050505081526020016001820154815250509050919050565b81600160008281526020819052604090206001015460ff166002811115610b8657fe5b14610ba35760405162461bcd60e51b8152600401610354906112c1565b6000838152602081905260409020548390610bbe9033610654565b610bda5760405162461bcd60e51b815260040161035490611533565b60008481526020819052604090206105b6906002018463ffffffff610db416565b6003546040516302abf57960e61b81526000916001600160a01b03169063aafd5e4090610c2a906004016112af565b60206040518083038186803b158015610c4257600080fd5b505afa158015610c56573d6000803e3d6000fd5b505050506040513d601f19601f82011682018060405250810190610c7a9190610fd2565b905090565b600080610c8b83610df7565b90506107488165020b236b4b7160d51b6006610e2e565b600061074883836040518060400160405280601e81526020017f536166654d6174683a207375627472616374696f6e206f766572666c6f770000815250610e39565b60006020820182516000808284888a5af19695505050505050565b6001600160a01b0316600090815260209190915260409020805460ff19169055565b6001600160a01b0316600090815260209190915260409020805460ff19166001179055565b90546001600160a01b0391821691161490565b6001600160a01b03166000908152602091909152604090205460ff1690565b546001600160a01b031690565b6003546040516302abf57960e61b81526000916001600160a01b03169063aafd5e4090610c2a90600401611286565b6001600160a01b038116610dda5760405162461bcd60e51b815260040161035490611474565b81546001600160a01b0319166001600160a01b0391909116179055565b600081610e095750600360fc1b610e29565b8115610e295760081c60f8600a8306603001901b17600a82049150610e09565b919050565b6008029190911c1790565b60008184841115610e5d5760405162461bcd60e51b81526004016103549190611273565b505050900390565b50805460018160011615610100020316600290046000825580601f10610e8b5750610ea9565b601f016020900490600052602060002090810190610ea99190610f44565b50565b828054600181600116156101000203166002900490600052602060002090601f016020900481019282601f10610eed57805160ff1916838001178555610f1a565b82800160010185558215610f1a579182015b82811115610f1a578251825591602001919060010190610eff565b50610f26929150610f44565b5090565b604051806040016040528060608152602001600081525090565b61051591905b80821115610f265760008155600101610f4a565b80356106dd81611647565b600082601f830112610f79578081fd5b813567ffffffffffffffff811115610f8f578182fd5b610fa2601f8201601f1916602001611620565b9150808252836020828501011115610fb957600080fd5b8060208401602084013760009082016020015292915050565b600060208284031215610fe3578081fd5b815161074881611647565b60006020808385031215611000578182fd5b823567ffffffffffffffff80821115611017578384fd5b81850186601f820112611028578485fd5b8035925081831115611038578485fd5b6110458485850201611620565b83815284810190828601875b868110156110c95781358501606080601f19838f03011215611071578a8bfd5b61107a81611620565b6110868e8c8501610f5e565b815260408301358b82015281830135898111156110a1578c8dfd5b6110af8f8d83870101610f69565b604083015250865250509287019290870190600101611051565b50909998505050505050505050565b6000602082840312156110e9578081fd5b5051919050565b600060208284031215611101578081fd5b5035919050565b6000806040838503121561111a578081fd5b82359150602083013561112c81611647565b809150509250929050565b60008060408385031215611149578182fd5b50508035926020909101359150565b60006001600160a01b0382511683526020820151602084015260408201516060604085015261118a6060850182611192565b949350505050565b60008151808452815b818110156111b75760208185018101518683018201520161119b565b818111156111c85782602083870101525b50601f01601f19169290920160200192915050565b6001600160a01b0391909116815260200190565b6000602080830181845280855180835260408601915060408482028701019250838701855b8281101561124457603f19888603018452611232858351611158565b94509285019290850190600101611216565b5092979650505050505050565b901515815260200190565b90815260200190565b918252602082015260400190565b6000602082526107486020830184611192565b7f4964656e74696669657257686974656c69737400000000000000000000000000815260200190565b654f7261636c6560d01b815260200190565b6020808252602f908201527f4d7573742062652063616c6c6564206f6e20616e20696e697469616c697a656460408201527f204578636c757369766520726f6c650000000000000000000000000000000000606082015260800190565b6020808252601c908201527f5472616e73616374696f6e20657865637574696f6e206661696c656400000000604082015260600190565b6020808252602c908201527f4d7573742062652063616c6c6564206f6e20616e20696e697469616c697a656460408201526b2053686172656420726f6c6560a01b606082015260800190565b60208082526022908201527f53656e64657220646f6573206e6f7420686f6c6420726571756972656420726f6040820152616c6560f01b606082015260800190565b60208082526027908201527f43616e6e6f7420657865637574652c2070726f706f73616c2077617320766f7460408201526632b2103237bbb760c91b606082015260800190565b6020808252602a908201527f50726576696f7573207472616e73616374696f6e20686173206e6f74206265656040820152691b88195e1958dd5d195960b21b606082015260800190565b60208082526023908201527f43616e6e6f742073657420616e206578636c757369766520726f6c6520746f2060408201526203078360ec1b606082015260800190565b6020808252601c908201527f54686520746f20616464726573732063616e6e6f742062652030783000000000604082015260600190565b60208082526025908201527f5472616e73616374696f6e2068617320616c7265616479206265656e2065786560408201526418dd5d195960da1b606082015260800190565b60208082526024908201527f43616e206f6e6c792062652063616c6c6564206279206120726f6c65206d616e60408201526330b3b2b960e11b606082015260800190565b6020808252600e908201527f496e76616c696420726f6c654964000000000000000000000000000000000000604082015260600190565b60208082528251604083830152805160608401819052600092916080828402860181019285929187019185015b8184101561160b57607f198886030183526115f7858251611158565b9450600193909301929185019185016115db565b50505050930151604092909201919091525090565b60405181810167ffffffffffffffff8111828210171561163f57600080fd5b604052919050565b6001600160a01b0381168114610ea957600080fd5b6116668282610db4565b505056fea264697066735822122022925a1f586cf300b95982c77b44c948d3c0169501dbdf52e30603bc4a1d779c64736f6c63430006040033",
  "source": "pragma solidity ^0.6.0;\n\npragma experimental ABIEncoderV2;\n\nimport \"../../common/implementation/MultiRole.sol\";\nimport \"../../common/implementation/FixedPoint.sol\";\nimport \"../../common/implementation/Testable.sol\";\nimport \"../interfaces/FinderInterface.sol\";\nimport \"../interfaces/IdentifierWhitelistInterface.sol\";\nimport \"../interfaces/OracleInterface.sol\";\n\nimport \"@openzeppelin/contracts/math/SafeMath.sol\";\n\n\n/**\n * @title Takes proposals for certain governance actions and allows UMA token holders to vote on them.\n */\ncontract Governor is MultiRole, Testable {\n    using SafeMath for uint;\n\n    /****************************************\n     *     INTERNAL VARIABLES AND STORAGE   *\n     ****************************************/\n\n    enum Roles {\n        Owner, // Can set the proposer.\n        Proposer // Address that can make proposals.\n    }\n\n    struct Transaction {\n        address to;\n        uint value;\n        bytes data;\n    }\n\n    struct Proposal {\n        Transaction[] transactions;\n        uint requestTime;\n    }\n\n    FinderInterface private finder;\n    Proposal[] public proposals;\n\n    /****************************************\n     *                EVENTS                *\n     ****************************************/\n\n    // Emitted when a new proposal is created.\n    event NewProposal(uint indexed id, Transaction[] transactions);\n\n    // Emitted when an existing proposal is executed.\n    event ProposalExecuted(uint indexed id, uint transactionIndex);\n\n    /**\n     * @notice Construct the Governor contract.\n     * @param _finderAddress keeps track of all contracts within the system based on their interfaceName.\n     * @param _isTest whether this contract is being constructed for the purpose of running automated tests.\n     */\n    constructor(address _finderAddress, bool _isTest) public Testable(_isTest) {\n        finder = FinderInterface(_finderAddress);\n        _createExclusiveRole(uint(Roles.Owner), uint(Roles.Owner), msg.sender);\n        _createExclusiveRole(uint(Roles.Proposer), uint(Roles.Owner), msg.sender);\n    }\n\n    /****************************************\n     *          PROPOSAL ACTIONS            *\n     ****************************************/\n\n    /**\n     * @notice Proposes a new governance action. Can only be called by the holder of the Proposer role.\n     * @param transactions the list of transactions that are being proposed.\n     * @dev You can create the data portion of each transaction by doing the following:\n     * ```\n     * const truffleContractInstance = await TruffleContract.deployed()\n     * const data = truffleContractInstance.methods.methodToCall(arg1, arg2).encodeABI()\n     * ```\n     * Note: this method must be public because of a solidity limitation that\n     * disallows structs arrays to be passed to external functions.\n     * @param transactions array of `Transaction` which can be voted on.\n     */\n    function propose(Transaction[] memory transactions) public onlyRoleHolder(uint(Roles.Proposer)) {\n        uint id = proposals.length;\n        uint time = getCurrentTime();\n\n        // Note: doing all of this array manipulation manually is necessary because directly setting an array of\n        // structs in storage to an an array of structs in memory is currently not implemented in solidity :/.\n\n        // Add a zero-initialized element to the proposals array.\n        proposals.push();\n\n        // Initialize the new proposal.\n        Proposal storage proposal = proposals[id];\n        proposal.requestTime = time;\n\n        // Initialize the transaction array.\n        for (uint i = 0; i < transactions.length; i++) {\n            require(transactions[i].to != address(0), \"The to address cannot be 0x0\");\n            proposal.transactions.push(transactions[i]);\n        }\n\n        bytes32 identifier = _constructIdentifier(id);\n\n        // Request a vote on this proposal in the DVM.\n        OracleInterface oracle = _getOracle();\n        IdentifierWhitelistInterface supportedIdentifiers = _getIdentifierWhitelist();\n        supportedIdentifiers.addSupportedIdentifier(identifier);\n\n        oracle.requestPrice(identifier, time);\n        supportedIdentifiers.removeSupportedIdentifier(identifier);\n\n        emit NewProposal(id, transactions);\n    }\n\n    /**\n     * @notice Executes a proposed governance action that has been approved by voters.\n     * @dev This can be called by any address.\n     * @param id unique id for the executed proposal.\n     * @param transactionIndex unique transaction index for the executed proposal.\n     */\n    function executeProposal(uint id, uint transactionIndex) external {\n        Proposal storage proposal = proposals[id];\n        int price = _getOracle().getPrice(_constructIdentifier(id), proposal.requestTime);\n\n        Transaction storage transaction = proposal.transactions[transactionIndex];\n\n        require(\n            transactionIndex == 0 || proposal.transactions[transactionIndex.sub(1)].to == address(0),\n            \"Previous transaction has not been executed\"\n        );\n        require(transaction.to != address(0), \"Transaction has already been executed\");\n        require(price != 0, \"Cannot execute, proposal was voted down\");\n        require(_executeCall(transaction.to, transaction.value, transaction.data), \"Transaction execution failed\");\n\n        // Delete the transaction.\n        delete proposal.transactions[transactionIndex];\n\n        emit ProposalExecuted(id, transactionIndex);\n    }\n\n    /***************************************\n     *       GOVERNOR STATE GETTERS         *\n     ****************************************/\n\n    /**\n     * @notice Gets the total number of proposals (includes executed and non-executed).\n     * @return uint representing the current number of proposals.\n     */\n    function numProposals() external view returns (uint) {\n        return proposals.length;\n    }\n\n    /**\n     * @notice Gets the proposal data for a particular id.\n     * @dev after a proposal is executed, its data will be zeroed out.\n     * @param id uniquely identify the identity of the proposal.\n     * @return proposal struct containing transactions[] and requestTime.\n     */\n    function getProposal(uint id) external view returns (Proposal memory proposal) {\n        return proposals[id];\n    }\n\n    /****************************************\n     *      PRIVATE GETTERS AND FUNCTIONS   *\n     ****************************************/\n\n    function _executeCall(address to, uint256 value, bytes memory data) private returns (bool success) {\n        // Mostly copied from:\n        // solhint-disable-next-line max-line-length\n        // https://github.com/gnosis/safe-contracts/blob/59cfdaebcd8b87a0a32f87b50fead092c10d3a05/contracts/base/Executor.sol#L23-L31\n        // solhint-disable-next-line no-inline-assembly\n\n        assembly {\n            let inputData := add(data, 0x20)\n            let inputDataSize := mload(data)\n            success := call(gas(), to, value, inputData, inputDataSize, 0, 0)\n        }\n    }\n\n    function _getOracle() private view returns (OracleInterface oracle) {\n        return OracleInterface(finder.getImplementationAddress(\"Oracle\"));\n    }\n\n    function _getIdentifierWhitelist() private view returns (IdentifierWhitelistInterface supportedIdentifiers) {\n        return IdentifierWhitelistInterface(finder.getImplementationAddress(\"IdentifierWhitelist\"));\n    }\n\n    function _constructIdentifier(uint id) private pure returns (bytes32 identifier) {\n        bytes32 bytesId = _uintToBytes(id);\n        return _addPrefix(bytesId, \"Admin \", 6);\n    }\n\n    // This method is based off of this code: https://ethereum.stackexchange.com/a/6613/47801.\n    function _uintToBytes(uint v) private pure returns (bytes32 ret) {\n        if (v == 0) {\n            ret = \"0\";\n        } else {\n            while (v > 0) {\n                ret = ret >> 8;\n                ret |= bytes32((v % 10) + 48) << (31 * 8);\n                v /= 10;\n            }\n        }\n        return ret;\n    }\n\n    function _addPrefix(bytes32 input, bytes32 prefix, uint prefixLength) private pure returns (bytes32 output) {\n        bytes32 shiftedInput = input >> (prefixLength * 8);\n        return shiftedInput | prefix;\n    }\n}\n",
  "sourcePath": "/home/opz/Projects/SynFiat/contracts/uma-contracts/oracle/implementation/Governor.sol",
  "compiler": {
    "name": "solc",
    "version": "0.6.4+commit.1dca32f3.Emscripten.clang"
  },
  "schemaVersion": "3.2.0",
  "updatedAt": "2020-06-01T04:24:41.843Z",
  "devdoc": {
    "methods": {
      "addMember(uint256,address)": {
        "details": "Reverts if `roleId` does not represent an initialized, shared role or if the caller is not a member of the managing role for `roleId`."
      },
      "constructor": {
        "params": {
          "_finderAddress": "keeps track of all contracts within the system based on their interfaceName.",
          "_isTest": "whether this contract is being constructed for the purpose of running automated tests."
        }
      },
      "executeProposal(uint256,uint256)": {
        "details": "This can be called by any address.",
        "params": {
          "id": "unique id for the executed proposal.",
          "transactionIndex": "unique transaction index for the executed proposal."
        }
      },
      "getMember(uint256)": {
        "details": "Reverts if `roleId` does not represent an initialized, exclusive role."
      },
      "getProposal(uint256)": {
        "details": "after a proposal is executed, its data will be zeroed out.",
        "params": {
          "id": "uniquely identify the identity of the proposal."
        },
        "returns": {
          "proposal": "struct containing transactions[] and requestTime."
        }
      },
      "holdsRole(uint256,address)": {
        "details": "Reverts if roleId does not correspond to an initialized role."
      },
      "propose((address,uint256,bytes)[])": {
        "details": "You can create the data portion of each transaction by doing the following: ``` const truffleContractInstance = await TruffleContract.deployed() const data = truffleContractInstance.methods.methodToCall(arg1, arg2).encodeABI() ``` Note: this method must be public because of a solidity limitation that disallows structs arrays to be passed to external functions.",
        "params": {
          "transactions": "array of `Transaction` which can be voted on."
        }
      },
      "removeMember(uint256,address)": {
        "details": "Reverts if `roleId` does not represent an initialized, shared role or if the caller is not a member of the managing role for `roleId`."
      },
      "resetMember(uint256,address)": {
        "details": "Reverts if the caller is not a member of the managing role for `roleId` or if `roleId` is not an initialized, exclusive role."
      },
      "setCurrentTime(uint256)": {
        "details": "Will revert if not running in test mode."
      }
    },
    "title": "Takes proposals for certain governance actions and allows UMA token holders to vote on them."
  },
  "userdoc": {
    "methods": {
      "addMember(uint256,address)": {
        "notice": "Adds `newMember` to the shared role, `roleId`."
      },
      "constructor": "Construct the Governor contract.",
      "executeProposal(uint256,uint256)": {
        "notice": "Executes a proposed governance action that has been approved by voters."
      },
      "getCurrentTime()": {
        "notice": "Gets the current time. Will return the last time set in `setCurrentTime` if running in test mode. Otherwise, it will return the block timestamp."
      },
      "getMember(uint256)": {
        "notice": "Gets the current holder of the exclusive role, `roleId`."
      },
      "getProposal(uint256)": {
        "notice": "Gets the proposal data for a particular id."
      },
      "holdsRole(uint256,address)": {
        "notice": "Whether `memberToCheck` is a member of roleId."
      },
      "numProposals()": {
        "notice": "Gets the total number of proposals (includes executed and non-executed)."
      },
      "propose((address,uint256,bytes)[])": {
        "notice": "Proposes a new governance action. Can only be called by the holder of the Proposer role."
      },
      "removeMember(uint256,address)": {
        "notice": "Removes `memberToRemove` from the shared role, `roleId`."
      },
      "resetMember(uint256,address)": {
        "notice": "Changes the exclusive role holder of `roleId` to `newMember`."
      },
      "setCurrentTime(uint256)": {
        "notice": "Sets the current time."
      }
    }
  }
}