{
  "contractName": "Governor",
  "abi": [
    {
      "inputs": [
        {
          "internalType": "address",
          "name": "_finderAddress",
          "type": "address"
        },
        {
          "internalType": "uint256",
          "name": "_startingId",
          "type": "uint256"
        },
        {
          "internalType": "address",
          "name": "_timerAddress",
          "type": "address"
        }
      ],
      "stateMutability": "nonpayable",
      "type": "constructor"
    },
    {
      "anonymous": false,
      "inputs": [
        {
          "indexed": true,
          "internalType": "uint256",
          "name": "roleId",
          "type": "uint256"
        },
        {
          "indexed": true,
          "internalType": "address",
          "name": "newMember",
          "type": "address"
        },
        {
          "indexed": true,
          "internalType": "address",
          "name": "manager",
          "type": "address"
        }
      ],
      "name": "AddedSharedMember",
      "type": "event"
    },
    {
      "anonymous": false,
      "inputs": [
        {
          "indexed": true,
          "internalType": "uint256",
          "name": "id",
          "type": "uint256"
        },
        {
          "components": [
            {
              "internalType": "address",
              "name": "to",
              "type": "address"
            },
            {
              "internalType": "uint256",
              "name": "value",
              "type": "uint256"
            },
            {
              "internalType": "bytes",
              "name": "data",
              "type": "bytes"
            }
          ],
          "indexed": false,
          "internalType": "struct Governor.Transaction[]",
          "name": "transactions",
          "type": "tuple[]"
        }
      ],
      "name": "NewProposal",
      "type": "event"
    },
    {
      "anonymous": false,
      "inputs": [
        {
          "indexed": true,
          "internalType": "uint256",
          "name": "id",
          "type": "uint256"
        },
        {
          "indexed": false,
          "internalType": "uint256",
          "name": "transactionIndex",
          "type": "uint256"
        }
      ],
      "name": "ProposalExecuted",
      "type": "event"
    },
    {
      "anonymous": false,
      "inputs": [
        {
          "indexed": true,
          "internalType": "uint256",
          "name": "roleId",
          "type": "uint256"
        },
        {
          "indexed": true,
          "internalType": "address",
          "name": "oldMember",
          "type": "address"
        },
        {
          "indexed": true,
          "internalType": "address",
          "name": "manager",
          "type": "address"
        }
      ],
      "name": "RemovedSharedMember",
      "type": "event"
    },
    {
      "anonymous": false,
      "inputs": [
        {
          "indexed": true,
          "internalType": "uint256",
          "name": "roleId",
          "type": "uint256"
        },
        {
          "indexed": true,
          "internalType": "address",
          "name": "newMember",
          "type": "address"
        },
        {
          "indexed": true,
          "internalType": "address",
          "name": "manager",
          "type": "address"
        }
      ],
      "name": "ResetExclusiveMember",
      "type": "event"
    },
    {
      "inputs": [
        {
          "internalType": "uint256",
          "name": "roleId",
          "type": "uint256"
        },
        {
          "internalType": "address",
          "name": "newMember",
          "type": "address"
        }
      ],
      "name": "addMember",
      "outputs": [],
      "stateMutability": "nonpayable",
      "type": "function"
    },
    {
      "inputs": [],
      "name": "getCurrentTime",
      "outputs": [
        {
          "internalType": "uint256",
          "name": "",
          "type": "uint256"
        }
      ],
      "stateMutability": "view",
      "type": "function"
    },
    {
      "inputs": [
        {
          "internalType": "uint256",
          "name": "roleId",
          "type": "uint256"
        }
      ],
      "name": "getMember",
      "outputs": [
        {
          "internalType": "address",
          "name": "",
          "type": "address"
        }
      ],
      "stateMutability": "view",
      "type": "function"
    },
    {
      "inputs": [
        {
          "internalType": "uint256",
          "name": "roleId",
          "type": "uint256"
        },
        {
          "internalType": "address",
          "name": "memberToCheck",
          "type": "address"
        }
      ],
      "name": "holdsRole",
      "outputs": [
        {
          "internalType": "bool",
          "name": "",
          "type": "bool"
        }
      ],
      "stateMutability": "view",
      "type": "function"
    },
    {
      "inputs": [
        {
          "internalType": "uint256",
          "name": "",
          "type": "uint256"
        }
      ],
      "name": "proposals",
      "outputs": [
        {
          "internalType": "uint256",
          "name": "requestTime",
          "type": "uint256"
        }
      ],
      "stateMutability": "view",
      "type": "function"
    },
    {
      "inputs": [
        {
          "internalType": "uint256",
          "name": "roleId",
          "type": "uint256"
        },
        {
          "internalType": "address",
          "name": "memberToRemove",
          "type": "address"
        }
      ],
      "name": "removeMember",
      "outputs": [],
      "stateMutability": "nonpayable",
      "type": "function"
    },
    {
      "inputs": [
        {
          "internalType": "uint256",
          "name": "roleId",
          "type": "uint256"
        }
      ],
      "name": "renounceMembership",
      "outputs": [],
      "stateMutability": "nonpayable",
      "type": "function"
    },
    {
      "inputs": [
        {
          "internalType": "uint256",
          "name": "roleId",
          "type": "uint256"
        },
        {
          "internalType": "address",
          "name": "newMember",
          "type": "address"
        }
      ],
      "name": "resetMember",
      "outputs": [],
      "stateMutability": "nonpayable",
      "type": "function"
    },
    {
      "inputs": [
        {
          "internalType": "uint256",
          "name": "time",
          "type": "uint256"
        }
      ],
      "name": "setCurrentTime",
      "outputs": [],
      "stateMutability": "nonpayable",
      "type": "function"
    },
    {
      "inputs": [],
      "name": "timerAddress",
      "outputs": [
        {
          "internalType": "address",
          "name": "",
          "type": "address"
        }
      ],
      "stateMutability": "view",
      "type": "function"
    },
    {
      "inputs": [
        {
          "components": [
            {
              "internalType": "address",
              "name": "to",
              "type": "address"
            },
            {
              "internalType": "uint256",
              "name": "value",
              "type": "uint256"
            },
            {
              "internalType": "bytes",
              "name": "data",
              "type": "bytes"
            }
          ],
          "internalType": "struct Governor.Transaction[]",
          "name": "transactions",
          "type": "tuple[]"
        }
      ],
      "name": "propose",
      "outputs": [],
      "stateMutability": "nonpayable",
      "type": "function"
    },
    {
      "inputs": [
        {
          "internalType": "uint256",
          "name": "id",
          "type": "uint256"
        },
        {
          "internalType": "uint256",
          "name": "transactionIndex",
          "type": "uint256"
        }
      ],
      "name": "executeProposal",
      "outputs": [],
      "stateMutability": "payable",
      "type": "function"
    },
    {
      "inputs": [],
      "name": "numProposals",
      "outputs": [
        {
          "internalType": "uint256",
          "name": "",
          "type": "uint256"
        }
      ],
      "stateMutability": "view",
      "type": "function"
    },
    {
      "inputs": [
        {
          "internalType": "uint256",
          "name": "id",
          "type": "uint256"
        }
      ],
      "name": "getProposal",
      "outputs": [
        {
          "components": [
            {
              "components": [
                {
                  "internalType": "address",
                  "name": "to",
                  "type": "address"
                },
                {
                  "internalType": "uint256",
                  "name": "value",
                  "type": "uint256"
                },
                {
                  "internalType": "bytes",
                  "name": "data",
                  "type": "bytes"
                }
              ],
              "internalType": "struct Governor.Transaction[]",
              "name": "transactions",
              "type": "tuple[]"
            },
            {
              "internalType": "uint256",
              "name": "requestTime",
              "type": "uint256"
            }
          ],
          "internalType": "struct Governor.Proposal",
          "name": "",
          "type": "tuple"
        }
      ],
      "stateMutability": "view",
      "type": "function"
    }
  ],
  "bytecode": "0x60806040523480156200001157600080fd5b506040516200258638038062002586833981016040819052620000349162000211565b600180546001600160a01b038084166001600160a01b03199283161790925560028054928616929091169190911790556200007d60005b6000336001600160e01b03620000ca16565b6200008960016200006b565b670de0b6b3a764000080831115620000be5760405162461bcd60e51b8152600401620000b59062000253565b60405180910390fd5b50506003555062000371565b826000808281526020819052604090206001015460ff166002811115620000ed57fe5b146200010d5760405162461bcd60e51b8152600401620000b590620002f7565b60008481526020819052604090206001808201805460ff1916828002179055508381556200014b600282018462000194602090811b6200138b17901c565b60008481526020819052604081206001015460ff1660028111156200016c57fe5b14156200018d5760405162461bcd60e51b8152600401620000b5906200029a565b5050505050565b620001a982826001600160e01b03620001ad16565b5050565b6001600160a01b038116620001d65760405162461bcd60e51b8152600401620000b5906200032e565b81546001600160a01b0319166001600160a01b0391909116179055565b80516001600160a01b03811681146200020b57600080fd5b92915050565b60008060006060848603121562000226578283fd5b620002328585620001f3565b9250602084015191506200024a8560408601620001f3565b90509250925092565b60208082526027908201527f43616e6e6f7420736574207374617274696e674964206c6172676572207468616040820152660dc406260bc62760cb1b606082015260800190565b6020808252603c908201527f417474656d7074656420746f2075736520616e20696e76616c696420726f6c6560408201527f20746f206d616e61676520616e206578636c757369766520726f6c6500000000606082015260800190565b6020808252601e908201527f43616e6e6f74207573652061207072652d6578697374696e6720726f6c650000604082015260600190565b60208082526023908201527f43616e6e6f742073657420616e206578636c757369766520726f6c6520746f2060408201526203078360ec1b606082015260800190565b61220580620003816000396000f3fe6080604052600436106100dd5760003560e01c806374d0a6761161007f578063ab3545e511610059578063ab3545e514610226578063c62fdef714610246578063c7f758a814610266578063d97c05be14610293576100dd565b806374d0a676146101b95780637cdc1cb9146101d9578063aaa14ca314610206576100dd565b806322f8e566116100bb57806322f8e5661461014f57806329cb924d1461016f578063400e3949146101845780636be7658b14610199576100dd565b8063013cf08b146100e25780631ab76712146101185780631c39c38d1461012d575b600080fd5b3480156100ee57600080fd5b506101026100fd366004611b04565b6102b3565b60405161010f9190611cbe565b60405180910390f35b61012b610126366004611b4b565b6102d9565b005b34801561013957600080fd5b506101426106e2565b60405161010f9190611c14565b34801561015b57600080fd5b5061012b61016a366004611b04565b6106fe565b34801561017b57600080fd5b506101026107ab565b34801561019057600080fd5b50610102610879565b3480156101a557600080fd5b5061012b6101b4366004611b1c565b61087f565b3480156101c557600080fd5b5061012b6101d4366004611b1c565b610996565b3480156101e557600080fd5b506101f96101f4366004611b1c565b610aad565b60405161010f9190611cb3565b34801561021257600080fd5b5061012b610221366004611b04565b610b56565b34801561023257600080fd5b50610142610241366004611b04565b610c46565b34801561025257600080fd5b5061012b6102613660046119a7565b610cc3565b34801561027257600080fd5b50610286610281366004611b04565b6110fd565b60405161010f91906120a8565b34801561029f57600080fd5b5061012b6102ae366004611b1c565b611274565b600381815481106102c057fe5b6000918252602090912060016002909202010154905081565b6000600383815481106102e857fe5b906000526020600020906002020190506000610302611399565b73ffffffffffffffffffffffffffffffffffffffff1663c9280f0661032686611465565b84600101546040518363ffffffff1660e01b8152600401610348929190611cc7565b60206040518083038186803b15801561036057600080fd5b505afa158015610374573d6000803e3d6000fd5b505050506040513d601f19601f820116820180604052508101906103989190611aec565b90506103a261185b565b8260000184815481106103b157fe5b600091825260209182902060408051606081018252600393909302909101805473ffffffffffffffffffffffffffffffffffffffff1683526001808201548486015260028083018054855161010094821615949094027fffffffffffffffffffffffffffffffffffffffffffffffffffffffffffffffff011691909104601f810187900487028301870185528083529495929493860193919290919083018282801561049e5780601f106104735761010080835404028352916020019161049e565b820191906000526020600020905b81548152906001019060200180831161048157829003601f168201915b505050505081525050905083600014806104fa57506000836104c786600163ffffffff61149f16565b815481106104d157fe5b600091825260209091206003909102015473ffffffffffffffffffffffffffffffffffffffff16145b610539576040517f08c379a000000000000000000000000000000000000000000000000000000000815260040161053090611f6f565b60405180910390fd5b805173ffffffffffffffffffffffffffffffffffffffff16610587576040517f08c379a000000000000000000000000000000000000000000000000000000000815260040161053090611d1f565b816105be576040517f08c379a000000000000000000000000000000000000000000000000000000000815260040161053090612071565b806020015134146105fb576040517f08c379a000000000000000000000000000000000000000000000000000000000815260040161053090611d8d565b82600001848154811061060a57fe5b60009182526020822060039091020180547fffffffffffffffffffffffff000000000000000000000000000000000000000016815560018101829055906106546002830182611892565b505061066d8160000151826020015183604001516114e1565b6106a3576040517f08c379a00000000000000000000000000000000000000000000000000000000081526004016105309061203a565b847ff758fc91e01b00ea6b4a6138756f7f28e021f9bf21db6dbf8c36c88eb737257a856040516106d39190611cbe565b60405180910390a25050505050565b60015473ffffffffffffffffffffffffffffffffffffffff1681565b60015473ffffffffffffffffffffffffffffffffffffffff1661072057600080fd5b6001546040517f22f8e56600000000000000000000000000000000000000000000000000000000815273ffffffffffffffffffffffffffffffffffffffff909116906322f8e56690610776908490600401611cbe565b600060405180830381600087803b15801561079057600080fd5b505af11580156107a4573d6000803e3d6000fd5b5050505050565b60015460009073ffffffffffffffffffffffffffffffffffffffff161561087357600160009054906101000a900473ffffffffffffffffffffffffffffffffffffffff1673ffffffffffffffffffffffffffffffffffffffff166329cb924d6040518163ffffffff1660e01b815260040160206040518083038186803b15801561083457600080fd5b505afa158015610848573d6000803e3d6000fd5b505050506040513d601f19601f8201168201806040525081019061086c9190611aec565b9050610876565b50425b90565b60035490565b81600260008281526020819052604090206001015460ff1660028111156108a257fe5b146108d9576040517f08c379a000000000000000000000000000000000000000000000000000000000815260040161053090611e58565b60008381526020819052604090205483906108f49033610aad565b61092a576040517f08c379a000000000000000000000000000000000000000000000000000000000815260040161053090611fa6565b600084815260208190526040902061094b906003018463ffffffff6114fe16565b604051339073ffffffffffffffffffffffffffffffffffffffff85169086907feb3e33034c392e69263b04ec0fa376dc12784a41b6676c7f31b936cbc0fbb5af90600090a450505050565b81600260008281526020819052604090206001015460ff1660028111156109b957fe5b146109f0576040517f08c379a000000000000000000000000000000000000000000000000000000000815260040161053090611e58565b6000838152602081905260409020548390610a0b9033610aad565b610a41576040517f08c379a000000000000000000000000000000000000000000000000000000000815260040161053090611fa6565b6000848152602081905260409020610a62906003018463ffffffff61154b16565b604051339073ffffffffffffffffffffffffffffffffffffffff85169086907f63502af7324ff6db91ab38f8236a648727d9385ea6c782073dd4882d8a61a48f90600090a450505050565b600082815260208190526040812060018082015460ff166002811115610acf57fe5b1415610af057610ae8600282018463ffffffff6115e816565b915050610b50565b6002600182015460ff166002811115610b0557fe5b1415610b1e57610ae8600382018463ffffffff61160816565b6040517f08c379a000000000000000000000000000000000000000000000000000000000815260040161053090612003565b92915050565b80600260008281526020819052604090206001015460ff166002811115610b7957fe5b14610bb0576040517f08c379a000000000000000000000000000000000000000000000000000000000815260040161053090611e58565b81610bbb8133610aad565b610bf1576040517f08c379a000000000000000000000000000000000000000000000000000000000815260040161053090611eb5565b6000838152602081905260409020610c12906003013363ffffffff6114fe16565b6040513390819085907feb3e33034c392e69263b04ec0fa376dc12784a41b6676c7f31b936cbc0fbb5af90600090a4505050565b600081600160008281526020819052604090206001015460ff166002811115610c6b57fe5b14610ca2576040517f08c379a000000000000000000000000000000000000000000000000000000000815260040161053090611dc4565b6000838152602081905260409020610cbc90600201611634565b9392505050565b6001610ccf8133610aad565b610d05576040517f08c379a000000000000000000000000000000000000000000000000000000000815260040161053090611eb5565b6003546000610d126107ab565b60038054600101808255600082815292935084908110610d2e57fe5b600091825260208220600160029092020190810184905591505b8551811015610f0657600073ffffffffffffffffffffffffffffffffffffffff16868281518110610d7557fe5b60200260200101516000015173ffffffffffffffffffffffffffffffffffffffff161415610dcf576040517f08c379a000000000000000000000000000000000000000000000000000000000815260040161053090611d56565b6000868281518110610ddd57fe5b602002602001015160400151511115610e5c57610e26868281518110610dff57fe5b60200260200101516000015173ffffffffffffffffffffffffffffffffffffffff1661164e565b610e5c576040517f08c379a000000000000000000000000000000000000000000000000000000000815260040161053090611e21565b81600001868281518110610e6c57fe5b602090810291909101810151825460018082018555600094855293839020825160039092020180547fffffffffffffffffffffffff00000000000000000000000000000000000000001673ffffffffffffffffffffffffffffffffffffffff909216919091178155818301519381019390935560408101518051919392610efb926002850192909101906118d9565b505050600101610d48565b506000610f1284611465565b90506000610f1e611399565b90506000610f2a61168a565b6040517f10a7e20100000000000000000000000000000000000000000000000000000000815290915073ffffffffffffffffffffffffffffffffffffffff8216906310a7e20190610f7f908690600401611cbe565b600060405180830381600087803b158015610f9957600080fd5b505af1158015610fad573d6000803e3d6000fd5b50506040517f68ad8ae300000000000000000000000000000000000000000000000000000000815273ffffffffffffffffffffffffffffffffffffffff851692506368ad8ae391506110059086908990600401611cc7565b600060405180830381600087803b15801561101f57600080fd5b505af1158015611033573d6000803e3d6000fd5b50506040517f8e0d3ca700000000000000000000000000000000000000000000000000000000815273ffffffffffffffffffffffffffffffffffffffff84169250638e0d3ca79150611089908690600401611cbe565b600060405180830381600087803b1580156110a357600080fd5b505af11580156110b7573d6000803e3d6000fd5b50505050857f082d2a29e61e3d0508e5617570bed4c7c58ae73d4719b31052d8638812bc4c0c896040516110eb9190611c35565b60405180910390a25050505050505050565b611105611957565b6003828154811061111257fe5b906000526020600020906002020160405180604001604052908160008201805480602002602001604051908101604052809291908181526020016000905b8282101561125b5760008481526020908190206040805160608101825260038602909201805473ffffffffffffffffffffffffffffffffffffffff1683526001808201548486015260028083018054855161010094821615949094027fffffffffffffffffffffffffffffffffffffffffffffffffffffffffffffffff011691909104601f81018790048702830187018552808352949592949386019391929091908301828280156112435780601f1061121857610100808354040283529160200191611243565b820191906000526020600020905b81548152906001019060200180831161122657829003601f168201915b50505050508152505081526020019060010190611150565b5050505081526020016001820154815250509050919050565b81600160008281526020819052604090206001015460ff16600281111561129757fe5b146112ce576040517f08c379a000000000000000000000000000000000000000000000000000000000815260040161053090611dc4565b60008381526020819052604090205483906112e99033610aad565b61131f576040517f08c379a000000000000000000000000000000000000000000000000000000000815260040161053090611fa6565b6000848152602081905260409020611340906002018463ffffffff61170116565b604051339073ffffffffffffffffffffffffffffffffffffffff85169086907f3b855c56b409b671c7112789d022675eb639d0bcb8896f1b6197c132f799e74690600090a450505050565b6113958282611701565b5050565b6002546040517faafd5e4000000000000000000000000000000000000000000000000000000000815260009173ffffffffffffffffffffffffffffffffffffffff169063aafd5e4090611410907f4f7261636c65000000000000000000000000000000000000000000000000000090600401611cbe565b60206040518083038186803b15801561142857600080fd5b505afa15801561143c573d6000803e3d6000fd5b505050506040513d601f19601f82011682018060405250810190611460919061198b565b905090565b60008061147183611790565b9050610cbc817f41646d696e200000000000000000000000000000000000000000000000000000600661180a565b6000610cbc83836040518060400160405280601e81526020017f536166654d6174683a207375627472616374696f6e206f766572666c6f770000815250611815565b6000806020830183516000808284898b5af1979650505050505050565b73ffffffffffffffffffffffffffffffffffffffff1660009081526020919091526040902080547fffffffffffffffffffffffffffffffffffffffffffffffffffffffffffffff00169055565b73ffffffffffffffffffffffffffffffffffffffff8116611598576040517f08c379a000000000000000000000000000000000000000000000000000000000815260040161053090611ce8565b73ffffffffffffffffffffffffffffffffffffffff1660009081526020919091526040902080547fffffffffffffffffffffffffffffffffffffffffffffffffffffffffffffff00166001179055565b905473ffffffffffffffffffffffffffffffffffffffff91821691161490565b73ffffffffffffffffffffffffffffffffffffffff166000908152602091909152604090205460ff1690565b5473ffffffffffffffffffffffffffffffffffffffff1690565b6000813f7fc5d2460186f7233c927e7db2dcc703c0e500b653ca82273b7bfad8045d85a47081811480159061168257508115155b949350505050565b6002546040517faafd5e4000000000000000000000000000000000000000000000000000000000815260009173ffffffffffffffffffffffffffffffffffffffff169063aafd5e4090611410907f4964656e74696669657257686974656c6973740000000000000000000000000090600401611cbe565b73ffffffffffffffffffffffffffffffffffffffff811661174e576040517f08c379a000000000000000000000000000000000000000000000000000000000815260040161053090611f12565b81547fffffffffffffffffffffffff00000000000000000000000000000000000000001673ffffffffffffffffffffffffffffffffffffffff91909116179055565b600080826117bf57507f3000000000000000000000000000000000000000000000000000000000000000610b50565b6008600a60305b85156118015792821c9260008287816117db57fe5b06828101601f860281901b96909617959091508388816117f757fe5b04975050506117c6565b50505092915050565b6008029190911c1790565b60008184841115611853576040517f08c379a00000000000000000000000000000000000000000000000000000000081526004016105309190611cd5565b505050900390565b6040518060600160405280600073ffffffffffffffffffffffffffffffffffffffff16815260200160008152602001606081525090565b50805460018160011615610100020316600290046000825580601f106118b857506118d6565b601f0160209004906000526020600020908101906118d69190611971565b50565b828054600181600116156101000203166002900490600052602060002090601f016020900481019282601f1061191a57805160ff1916838001178555611947565b82800160010185558215611947579182015b8281111561194757825182559160200191906001019061192c565b50611953929150611971565b5090565b604051806040016040528060608152602001600081525090565b61087691905b808211156119535760008155600101611977565b60006020828403121561199c578081fd5b8151610cbc816121ad565b600060208083850312156119b9578182fd5b823567ffffffffffffffff808211156119d0578384fd5b81850186601f8201126119e1578485fd5b80359250818311156119f1578485fd5b6119fe8485850201612138565b83815284810190828601875b86811015611add57813585016060807fffffffffffffffffffffffffffffffffffffffffffffffffffffffffffffffe0838f03011215611a48578a8bfd5b611a5181612138565b8a830135611a5e816121ad565b81526040838101358c830152828401358a811115611a7a578d8efd5b84019250603f83018f13611a8c578c8dfd5b8b8301359350611aa3611a9e8561215f565b612138565b8481528f82868601011115611ab6578d8efd5b611ac5858e83018487016121a1565b90820152865250509287019290870190600101611a0a565b50909998505050505050505050565b600060208284031215611afd578081fd5b5051919050565b600060208284031215611b15578081fd5b5035919050565b60008060408385031215611b2e578081fd5b823591506020830135611b40816121ad565b809150509250929050565b60008060408385031215611b5d578182fd5b50508035926020909101359150565b60008151808452815b81811015611b9157602081850181015186830182015201611b75565b81811115611ba25782602083870101525b50601f017fffffffffffffffffffffffffffffffffffffffffffffffffffffffffffffffe0169290920160200192915050565b600073ffffffffffffffffffffffffffffffffffffffff8251168352602082015160208401526040820151606060408501526116826060850182611b6c565b73ffffffffffffffffffffffffffffffffffffffff91909116815260200190565b6000602080830181845280855180835260408601915060408482028701019250838701855b82811015611ca6577fffffffffffffffffffffffffffffffffffffffffffffffffffffffffffffffc0888603018452611c94858351611bd5565b94509285019290850190600101611c5a565b5092979650505050505050565b901515815260200190565b90815260200190565b918252602082015260400190565b600060208252610cbc6020830184611b6c565b6020808252601f908201527f43616e6e6f74206164642030783020746f20612073686172656420726f6c6500604082015260600190565b60208082526013908201527f547820616c726561647920657865637574656400000000000000000000000000604082015260600190565b6020808252601e908201527f5468652060746f6020616464726573732063616e6e6f74206265203078300000604082015260600190565b6020808252601d908201527f4d7573742073656e6420657861637420616d6f756e74206f6620455448000000604082015260600190565b6020808252602f908201527f4d7573742062652063616c6c6564206f6e20616e20696e697469616c697a656460408201527f204578636c757369766520726f6c650000000000000000000000000000000000606082015260800190565b6020808252601d908201527f454f412063616e27742061636365707420747820776974682064617461000000604082015260600190565b6020808252602c908201527f4d7573742062652063616c6c6564206f6e20616e20696e697469616c697a656460408201527f2053686172656420726f6c650000000000000000000000000000000000000000606082015260800190565b60208082526022908201527f53656e64657220646f6573206e6f7420686f6c6420726571756972656420726f60408201527f6c65000000000000000000000000000000000000000000000000000000000000606082015260800190565b60208082526023908201527f43616e6e6f742073657420616e206578636c757369766520726f6c6520746f2060408201527f3078300000000000000000000000000000000000000000000000000000000000606082015260800190565b6020808252601c908201527f50726576696f7573207478206e6f742079657420657865637574656400000000604082015260600190565b60208082526024908201527f43616e206f6e6c792062652063616c6c6564206279206120726f6c65206d616e60408201527f6167657200000000000000000000000000000000000000000000000000000000606082015260800190565b6020808252600e908201527f496e76616c696420726f6c654964000000000000000000000000000000000000604082015260600190565b60208082526013908201527f547820657865637574696f6e206661696c656400000000000000000000000000604082015260600190565b60208082526015908201527f50726f706f73616c207761732072656a65637465640000000000000000000000604082015260600190565b60208082528251604083830152805160608401819052600092916080828402860181019285929187019185015b81841015612123577fffffffffffffffffffffffffffffffffffffffffffffffffffffffffffffff8088860301835261210f858251611bd5565b9450600193909301929185019185016120d5565b50505050930151604092909201919091525090565b60405181810167ffffffffffffffff8111828210171561215757600080fd5b604052919050565b600067ffffffffffffffff821115612175578081fd5b50601f017fffffffffffffffffffffffffffffffffffffffffffffffffffffffffffffffe01660200190565b82818337506000910152565b73ffffffffffffffffffffffffffffffffffffffff811681146118d657600080fdfea2646970667358221220d7cad6ec341aa8db3b128e5b40401a953145576d88006cb5cdfba362d3ae418c64736f6c634300060a0033",
  "immutableReferences": {},
  "source": "pragma solidity ^0.6.0;\npragma experimental ABIEncoderV2;\n\nimport \"../../common/implementation/MultiRole.sol\";\nimport \"../../common/implementation/FixedPoint.sol\";\nimport \"../../common/implementation/Testable.sol\";\nimport \"../interfaces/FinderInterface.sol\";\nimport \"../interfaces/IdentifierWhitelistInterface.sol\";\nimport \"../interfaces/OracleInterface.sol\";\nimport \"./Constants.sol\";\n\nimport \"@openzeppelin/contracts/math/SafeMath.sol\";\nimport \"@openzeppelin/contracts/utils/Address.sol\";\n\n\n/**\n * @title Takes proposals for certain governance actions and allows UMA token holders to vote on them.\n */\ncontract Governor is MultiRole, Testable {\n    using SafeMath for uint256;\n    using Address for address;\n\n    /****************************************\n     *     INTERNAL VARIABLES AND STORAGE   *\n     ****************************************/\n\n    enum Roles {\n        Owner, // Can set the proposer.\n        Proposer // Address that can make proposals.\n    }\n\n    struct Transaction {\n        address to;\n        uint256 value;\n        bytes data;\n    }\n\n    struct Proposal {\n        Transaction[] transactions;\n        uint256 requestTime;\n    }\n\n    FinderInterface private finder;\n    Proposal[] public proposals;\n\n    /****************************************\n     *                EVENTS                *\n     ****************************************/\n\n    // Emitted when a new proposal is created.\n    event NewProposal(uint256 indexed id, Transaction[] transactions);\n\n    // Emitted when an existing proposal is executed.\n    event ProposalExecuted(uint256 indexed id, uint256 transactionIndex);\n\n    /**\n     * @notice Construct the Governor contract.\n     * @param _finderAddress keeps track of all contracts within the system based on their interfaceName.\n     * @param _startingId the initial proposal id that the contract will begin incrementing from.\n     * @param _timerAddress Contract that stores the current time in a testing environment.\n     * Must be set to 0x0 for production environments that use live time.\n     */\n    constructor(\n        address _finderAddress,\n        uint256 _startingId,\n        address _timerAddress\n    ) public Testable(_timerAddress) {\n        finder = FinderInterface(_finderAddress);\n        _createExclusiveRole(uint256(Roles.Owner), uint256(Roles.Owner), msg.sender);\n        _createExclusiveRole(uint256(Roles.Proposer), uint256(Roles.Owner), msg.sender);\n\n        // Ensure the startingId is not set unreasonably high to avoid it being set such that new proposals overwrite\n        // other storage slots in the contract.\n        uint256 maxStartingId = 10**18;\n        require(_startingId <= maxStartingId, \"Cannot set startingId larger than 10^18\");\n\n        // This just sets the initial length of the array to the startingId since modifying length directly has been\n        // disallowed in solidity 0.6.\n        assembly {\n            sstore(proposals_slot, _startingId)\n        }\n    }\n\n    /****************************************\n     *          PROPOSAL ACTIONS            *\n     ****************************************/\n\n    /**\n     * @notice Proposes a new governance action. Can only be called by the holder of the Proposer role.\n     * @param transactions list of transactions that are being proposed.\n     * @dev You can create the data portion of each transaction by doing the following:\n     * ```\n     * const truffleContractInstance = await TruffleContract.deployed()\n     * const data = truffleContractInstance.methods.methodToCall(arg1, arg2).encodeABI()\n     * ```\n     * Note: this method must be public because of a solidity limitation that\n     * disallows structs arrays to be passed to external functions.\n     */\n    function propose(Transaction[] memory transactions) public onlyRoleHolder(uint256(Roles.Proposer)) {\n        uint256 id = proposals.length;\n        uint256 time = getCurrentTime();\n\n        // Note: doing all of this array manipulation manually is necessary because directly setting an array of\n        // structs in storage to an an array of structs in memory is currently not implemented in solidity :/.\n\n        // Add a zero-initialized element to the proposals array.\n        proposals.push();\n\n        // Initialize the new proposal.\n        Proposal storage proposal = proposals[id];\n        proposal.requestTime = time;\n\n        // Initialize the transaction array.\n        for (uint256 i = 0; i < transactions.length; i++) {\n            require(transactions[i].to != address(0), \"The `to` address cannot be 0x0\");\n            // If the transaction has any data with it the recipient must be a contract, not an EOA.\n            if (transactions[i].data.length > 0) {\n                require(transactions[i].to.isContract(), \"EOA can't accept tx with data\");\n            }\n            proposal.transactions.push(transactions[i]);\n        }\n\n        bytes32 identifier = _constructIdentifier(id);\n\n        // Request a vote on this proposal in the DVM.\n        OracleInterface oracle = _getOracle();\n        IdentifierWhitelistInterface supportedIdentifiers = _getIdentifierWhitelist();\n        supportedIdentifiers.addSupportedIdentifier(identifier);\n\n        oracle.requestPrice(identifier, time);\n        supportedIdentifiers.removeSupportedIdentifier(identifier);\n\n        emit NewProposal(id, transactions);\n    }\n\n    /**\n     * @notice Executes a proposed governance action that has been approved by voters.\n     * @dev This can be called by any address. Caller is expected to send enough ETH to execute payable transactions.\n     * @param id unique id for the executed proposal.\n     * @param transactionIndex unique transaction index for the executed proposal.\n     */\n    function executeProposal(uint256 id, uint256 transactionIndex) external payable {\n        Proposal storage proposal = proposals[id];\n        int256 price = _getOracle().getPrice(_constructIdentifier(id), proposal.requestTime);\n\n        Transaction memory transaction = proposal.transactions[transactionIndex];\n\n        require(\n            transactionIndex == 0 || proposal.transactions[transactionIndex.sub(1)].to == address(0),\n            \"Previous tx not yet executed\"\n        );\n        require(transaction.to != address(0), \"Tx already executed\");\n        require(price != 0, \"Proposal was rejected\");\n        require(msg.value == transaction.value, \"Must send exact amount of ETH\");\n\n        // Delete the transaction before execution to avoid any potential re-entrancy issues.\n        delete proposal.transactions[transactionIndex];\n\n        require(_executeCall(transaction.to, transaction.value, transaction.data), \"Tx execution failed\");\n\n        emit ProposalExecuted(id, transactionIndex);\n    }\n\n    /****************************************\n     *       GOVERNOR STATE GETTERS         *\n     ****************************************/\n\n    /**\n     * @notice Gets the total number of proposals (includes executed and non-executed).\n     * @return uint256 representing the current number of proposals.\n     */\n    function numProposals() external view returns (uint256) {\n        return proposals.length;\n    }\n\n    /**\n     * @notice Gets the proposal data for a particular id.\n     * @dev after a proposal is executed, its data will be zeroed out, except for the request time.\n     * @param id uniquely identify the identity of the proposal.\n     * @return proposal struct containing transactions[] and requestTime.\n     */\n    function getProposal(uint256 id) external view returns (Proposal memory) {\n        return proposals[id];\n    }\n\n    /****************************************\n     *      PRIVATE GETTERS AND FUNCTIONS   *\n     ****************************************/\n\n    function _executeCall(\n        address to,\n        uint256 value,\n        bytes memory data\n    ) private returns (bool) {\n        // Mostly copied from:\n        // solhint-disable-next-line max-line-length\n        // https://github.com/gnosis/safe-contracts/blob/59cfdaebcd8b87a0a32f87b50fead092c10d3a05/contracts/base/Executor.sol#L23-L31\n        // solhint-disable-next-line no-inline-assembly\n\n        bool success;\n        assembly {\n            let inputData := add(data, 0x20)\n            let inputDataSize := mload(data)\n            success := call(gas(), to, value, inputData, inputDataSize, 0, 0)\n        }\n        return success;\n    }\n\n    function _getOracle() private view returns (OracleInterface) {\n        return OracleInterface(finder.getImplementationAddress(OracleInterfaces.Oracle));\n    }\n\n    function _getIdentifierWhitelist() private view returns (IdentifierWhitelistInterface supportedIdentifiers) {\n        return IdentifierWhitelistInterface(finder.getImplementationAddress(OracleInterfaces.IdentifierWhitelist));\n    }\n\n    // Returns a UTF-8 identifier representing a particular admin proposal.\n    // The identifier is of the form \"Admin n\", where n is the proposal id provided.\n    function _constructIdentifier(uint256 id) internal pure returns (bytes32) {\n        bytes32 bytesId = _uintToUtf8(id);\n        return _addPrefix(bytesId, \"Admin \", 6);\n    }\n\n    // This method converts the integer `v` into a base-10, UTF-8 representation stored in a `bytes32` type.\n    // If the input cannot be represented by 32 base-10 digits, it returns only the highest 32 digits.\n    // This method is based off of this code: https://ethereum.stackexchange.com/a/6613/47801.\n    function _uintToUtf8(uint256 v) internal pure returns (bytes32) {\n        bytes32 ret;\n        if (v == 0) {\n            // Handle 0 case explicitly.\n            ret = \"0\";\n        } else {\n            // Constants.\n            uint256 bitsPerByte = 8;\n            uint256 base = 10; // Note: the output should be base-10. The below implementation will not work for bases > 10.\n            uint256 utf8NumberOffset = 48;\n            while (v > 0) {\n                // Downshift the entire bytes32 to allow the new digit to be added at the \"front\" of the bytes32, which\n                // translates to the beginning of the UTF-8 representation.\n                ret = ret >> bitsPerByte;\n\n                // Separate the last digit that remains in v by modding by the base of desired output representation.\n                uint256 leastSignificantDigit = v % base;\n\n                // Digits 0-9 are represented by 48-57 in UTF-8, so an offset must be added to create the character.\n                bytes32 utf8Digit = bytes32(leastSignificantDigit + utf8NumberOffset);\n\n                // The top byte of ret has already been cleared to make room for the new digit.\n                // Upshift by 31 bytes to put it in position, and OR it with ret to leave the other characters untouched.\n                ret |= utf8Digit << (31 * bitsPerByte);\n\n                // Divide v by the base to remove the digit that was just added.\n                v /= base;\n            }\n        }\n        return ret;\n    }\n\n    // This method takes two UTF-8 strings represented as bytes32 and outputs one as a prefixed by the other.\n    // `input` is the UTF-8 that should have the prefix prepended.\n    // `prefix` is the UTF-8 that should be prepended onto input.\n    // `prefixLength` is number of UTF-8 characters represented by `prefix`.\n    // Notes:\n    // 1. If the resulting UTF-8 is larger than 32 characters, then only the first 32 characters will be represented\n    //    by the bytes32 output.\n    // 2. If `prefix` has more characters than `prefixLength`, the function will produce an invalid result.\n    function _addPrefix(\n        bytes32 input,\n        bytes32 prefix,\n        uint256 prefixLength\n    ) internal pure returns (bytes32) {\n        // Downshift `input` to open space at the \"front\" of the bytes32\n        bytes32 shiftedInput = input >> (prefixLength * 8);\n        return shiftedInput | prefix;\n    }\n}\n",
  "sourcePath": "/home/alessandrovm/JarvisLavoro/SynFiat/packages/contracts/contracts/uma-contracts/oracle/implementation/Governor.sol",
  "compiler": {
    "name": "solc",
    "version": "0.6.10+commit.00c0fcaf.Emscripten.clang"
  },
  "schemaVersion": "3.2.0",
  "updatedAt": "2020-09-30T12:21:56.980Z",
  "devdoc": {
    "methods": {
      "addMember(uint256,address)": {
        "details": "Reverts if `roleId` does not represent an initialized, SharedRole or if the caller is not a member of the managing role for `roleId`.",
        "params": {
          "newMember": "the new SharedRole member.",
          "roleId": "the SharedRole membership to modify."
        }
      },
      "constructor": {
        "params": {
          "_finderAddress": "keeps track of all contracts within the system based on their interfaceName.",
          "_startingId": "the initial proposal id that the contract will begin incrementing from.",
          "_timerAddress": "Contract that stores the current time in a testing environment. Must be set to 0x0 for production environments that use live time."
        }
      },
      "executeProposal(uint256,uint256)": {
        "details": "This can be called by any address. Caller is expected to send enough ETH to execute payable transactions.",
        "params": {
          "id": "unique id for the executed proposal.",
          "transactionIndex": "unique transaction index for the executed proposal."
        }
      },
      "getCurrentTime()": {
        "returns": {
          "_0": "uint for the current Testable timestamp."
        }
      },
      "getMember(uint256)": {
        "details": "Reverts if `roleId` does not represent an initialized, exclusive role.",
        "params": {
          "roleId": "the ExclusiveRole membership to check."
        },
        "returns": {
          "_0": "the address of the current ExclusiveRole member."
        }
      },
      "getProposal(uint256)": {
        "details": "after a proposal is executed, its data will be zeroed out, except for the request time.",
        "params": {
          "id": "uniquely identify the identity of the proposal."
        },
        "returns": {
          "_0": "proposal struct containing transactions[] and requestTime."
        }
      },
      "holdsRole(uint256,address)": {
        "details": "Reverts if roleId does not correspond to an initialized role.",
        "params": {
          "memberToCheck": "the address to check.",
          "roleId": "the Role to check."
        },
        "returns": {
          "_0": "True if `memberToCheck` is a member of `roleId`."
        }
      },
      "numProposals()": {
        "returns": {
          "_0": "uint256 representing the current number of proposals."
        }
      },
      "propose((address,uint256,bytes)[])": {
        "details": "You can create the data portion of each transaction by doing the following: ``` const truffleContractInstance = await TruffleContract.deployed() const data = truffleContractInstance.methods.methodToCall(arg1, arg2).encodeABI() ``` Note: this method must be public because of a solidity limitation that disallows structs arrays to be passed to external functions.",
        "params": {
          "transactions": "list of transactions that are being proposed."
        }
      },
      "removeMember(uint256,address)": {
        "details": "Reverts if `roleId` does not represent an initialized, SharedRole or if the caller is not a member of the managing role for `roleId`.",
        "params": {
          "memberToRemove": "the current SharedRole member to remove.",
          "roleId": "the SharedRole membership to modify."
        }
      },
      "renounceMembership(uint256)": {
        "details": "Reverts if the caller is not a member of the role for `roleId` or if `roleId` is not an initialized, SharedRole.",
        "params": {
          "roleId": "the SharedRole membership to modify."
        }
      },
      "resetMember(uint256,address)": {
        "details": "Reverts if the caller is not a member of the managing role for `roleId` or if `roleId` is not an initialized, ExclusiveRole.",
        "params": {
          "newMember": "the new ExclusiveRole member.",
          "roleId": "the ExclusiveRole membership to modify."
        }
      },
      "setCurrentTime(uint256)": {
        "details": "Will revert if not running in test mode.",
        "params": {
          "time": "timestamp to set current Testable time to."
        }
      }
    },
    "title": "Takes proposals for certain governance actions and allows UMA token holders to vote on them."
  },
  "userdoc": {
    "methods": {
      "addMember(uint256,address)": {
        "notice": "Adds `newMember` to the shared role, `roleId`."
      },
      "constructor": "Construct the Governor contract.",
      "executeProposal(uint256,uint256)": {
        "notice": "Executes a proposed governance action that has been approved by voters."
      },
      "getCurrentTime()": {
        "notice": "Gets the current time. Will return the last time set in `setCurrentTime` if running in test mode. Otherwise, it will return the block timestamp."
      },
      "getMember(uint256)": {
        "notice": "Gets the current holder of the exclusive role, `roleId`."
      },
      "getProposal(uint256)": {
        "notice": "Gets the proposal data for a particular id."
      },
      "holdsRole(uint256,address)": {
        "notice": "Whether `memberToCheck` is a member of roleId."
      },
      "numProposals()": {
        "notice": "Gets the total number of proposals (includes executed and non-executed)."
      },
      "propose((address,uint256,bytes)[])": {
        "notice": "Proposes a new governance action. Can only be called by the holder of the Proposer role."
      },
      "removeMember(uint256,address)": {
        "notice": "Removes `memberToRemove` from the shared role, `roleId`."
      },
      "renounceMembership(uint256)": {
        "notice": "Removes caller from the role, `roleId`."
      },
      "resetMember(uint256,address)": {
        "notice": "Changes the exclusive role holder of `roleId` to `newMember`."
      },
      "setCurrentTime(uint256)": {
        "notice": "Sets the current time."
      }
    }
  }
}