{
  "contractName": "Governor",
  "abi": [
    {
      "inputs": [
        {
          "internalType": "address",
          "name": "_finderAddress",
          "type": "address"
        },
        {
          "internalType": "bool",
          "name": "_isTest",
          "type": "bool"
        }
      ],
      "stateMutability": "nonpayable",
      "type": "constructor"
    },
    {
      "anonymous": false,
      "inputs": [
        {
          "indexed": true,
          "internalType": "uint256",
          "name": "id",
          "type": "uint256"
        },
        {
          "components": [
            {
              "internalType": "address",
              "name": "to",
              "type": "address"
            },
            {
              "internalType": "uint256",
              "name": "value",
              "type": "uint256"
            },
            {
              "internalType": "bytes",
              "name": "data",
              "type": "bytes"
            }
          ],
          "indexed": false,
          "internalType": "struct Governor.Transaction[]",
          "name": "transactions",
          "type": "tuple[]"
        }
      ],
      "name": "NewProposal",
      "type": "event"
    },
    {
      "anonymous": false,
      "inputs": [
        {
          "indexed": true,
          "internalType": "uint256",
          "name": "id",
          "type": "uint256"
        },
        {
          "indexed": false,
          "internalType": "uint256",
          "name": "transactionIndex",
          "type": "uint256"
        }
      ],
      "name": "ProposalExecuted",
      "type": "event"
    },
    {
      "inputs": [
        {
          "internalType": "uint256",
          "name": "roleId",
          "type": "uint256"
        },
        {
          "internalType": "address",
          "name": "newMember",
          "type": "address"
        }
      ],
      "name": "addMember",
      "outputs": [],
      "stateMutability": "nonpayable",
      "type": "function"
    },
    {
      "inputs": [],
      "name": "getCurrentTime",
      "outputs": [
        {
          "internalType": "uint256",
          "name": "",
          "type": "uint256"
        }
      ],
      "stateMutability": "view",
      "type": "function"
    },
    {
      "inputs": [
        {
          "internalType": "uint256",
          "name": "roleId",
          "type": "uint256"
        }
      ],
      "name": "getMember",
      "outputs": [
        {
          "internalType": "address",
          "name": "",
          "type": "address"
        }
      ],
      "stateMutability": "view",
      "type": "function"
    },
    {
      "inputs": [
        {
          "internalType": "uint256",
          "name": "roleId",
          "type": "uint256"
        },
        {
          "internalType": "address",
          "name": "memberToCheck",
          "type": "address"
        }
      ],
      "name": "holdsRole",
      "outputs": [
        {
          "internalType": "bool",
          "name": "",
          "type": "bool"
        }
      ],
      "stateMutability": "view",
      "type": "function"
    },
    {
      "inputs": [],
      "name": "isTest",
      "outputs": [
        {
          "internalType": "bool",
          "name": "",
          "type": "bool"
        }
      ],
      "stateMutability": "view",
      "type": "function"
    },
    {
      "inputs": [
        {
          "internalType": "uint256",
          "name": "",
          "type": "uint256"
        }
      ],
      "name": "proposals",
      "outputs": [
        {
          "internalType": "uint256",
          "name": "requestTime",
          "type": "uint256"
        }
      ],
      "stateMutability": "view",
      "type": "function"
    },
    {
      "inputs": [
        {
          "internalType": "uint256",
          "name": "roleId",
          "type": "uint256"
        },
        {
          "internalType": "address",
          "name": "memberToRemove",
          "type": "address"
        }
      ],
      "name": "removeMember",
      "outputs": [],
      "stateMutability": "nonpayable",
      "type": "function"
    },
    {
      "inputs": [
        {
          "internalType": "uint256",
          "name": "roleId",
          "type": "uint256"
        },
        {
          "internalType": "address",
          "name": "newMember",
          "type": "address"
        }
      ],
      "name": "resetMember",
      "outputs": [],
      "stateMutability": "nonpayable",
      "type": "function"
    },
    {
      "inputs": [
        {
          "internalType": "uint256",
          "name": "_time",
          "type": "uint256"
        }
      ],
      "name": "setCurrentTime",
      "outputs": [],
      "stateMutability": "nonpayable",
      "type": "function"
    },
    {
      "inputs": [
        {
          "components": [
            {
              "internalType": "address",
              "name": "to",
              "type": "address"
            },
            {
              "internalType": "uint256",
              "name": "value",
              "type": "uint256"
            },
            {
              "internalType": "bytes",
              "name": "data",
              "type": "bytes"
            }
          ],
          "internalType": "struct Governor.Transaction[]",
          "name": "transactions",
          "type": "tuple[]"
        }
      ],
      "name": "propose",
      "outputs": [],
      "stateMutability": "nonpayable",
      "type": "function"
    },
    {
      "inputs": [
        {
          "internalType": "uint256",
          "name": "id",
          "type": "uint256"
        },
        {
          "internalType": "uint256",
          "name": "transactionIndex",
          "type": "uint256"
        }
      ],
      "name": "executeProposal",
      "outputs": [],
      "stateMutability": "nonpayable",
      "type": "function"
    },
    {
      "inputs": [],
      "name": "numProposals",
      "outputs": [
        {
          "internalType": "uint256",
          "name": "",
          "type": "uint256"
        }
      ],
      "stateMutability": "view",
      "type": "function"
    },
    {
      "inputs": [
        {
          "internalType": "uint256",
          "name": "id",
          "type": "uint256"
        }
      ],
      "name": "getProposal",
      "outputs": [
        {
          "components": [
            {
              "components": [
                {
                  "internalType": "address",
                  "name": "to",
                  "type": "address"
                },
                {
                  "internalType": "uint256",
                  "name": "value",
                  "type": "uint256"
                },
                {
                  "internalType": "bytes",
                  "name": "data",
                  "type": "bytes"
                }
              ],
              "internalType": "struct Governor.Transaction[]",
              "name": "transactions",
              "type": "tuple[]"
            },
            {
              "internalType": "uint256",
              "name": "requestTime",
              "type": "uint256"
            }
          ],
          "internalType": "struct Governor.Proposal",
          "name": "proposal",
          "type": "tuple"
        }
      ],
      "stateMutability": "view",
      "type": "function"
    }
  ],
  "bytecode": "0x60806040523480156200001157600080fd5b5060405162001f2038038062001f208339810160408190526200003491620001ce565b6001805460ff1916821580159190911790915581906200005357426002555b50600380546001600160a01b0319166001600160a01b0384161790556200008860005b6000336001600160e01b036200009c16565b62000094600162000076565b5050620002f0565b826000808281526020819052604090206001015460ff166002811115620000bf57fe5b14620000e85760405162461bcd60e51b8152600401620000df9062000276565b60405180910390fd5b60008481526020819052604090206001808201805460ff1916828002179055508381556200012660028201846200016f602090811b62001bdc17901c565b60008481526020819052604081206001015460ff1660028111156200014757fe5b1415620001685760405162461bcd60e51b8152600401620000df9062000219565b5050505050565b6200018482826001600160e01b036200018816565b5050565b6001600160a01b038116620001b15760405162461bcd60e51b8152600401620000df90620002ad565b81546001600160a01b0319166001600160a01b0391909116179055565b60008060408385031215620001e1578182fd5b82516001600160a01b0381168114620001f8578283fd5b602084015190925080151581146200020e578182fd5b809150509250929050565b6020808252603c908201527f417474656d7074656420746f2075736520616e20696e76616c696420726f6c6560408201527f20746f206d616e61676520616e206578636c757369766520726f6c6500000000606082015260800190565b6020808252601e908201527f43616e6e6f74207573652061207072652d6578697374696e6720726f6c650000604082015260600190565b60208082526023908201527f43616e6e6f742073657420616e206578636c757369766520726f6c6520746f2060408201526203078360ec1b606082015260800190565b611c2080620003006000396000f3fe608060405234801561001057600080fd5b50600436106100df5760003560e01c806374d0a6761161008c578063ab3545e511610066578063ab3545e514610193578063c62fdef7146101b3578063c7f758a8146101c6578063d97c05be146101e6576100df565b806374d0a676146101585780637cdc1cb91461016b5780639381a3451461018b576100df565b806329cb924d116100bd57806329cb924d14610135578063400e39491461013d5780636be7658b14610145576100df565b8063013cf08b146100e45780631ab767121461010d57806322f8e56614610122575b600080fd5b6100f76100f23660046114ea565b6101f9565b60405161010491906116ac565b60405180910390f35b61012061011b366004611531565b61021f565b005b6101206101303660046114ea565b6105b9565b6100f76105cd565b6100f76105ea565b610120610153366004611502565b6105f0565b610120610166366004611502565b6106c2565b61017e610179366004611502565b61078e565b60405161010491906116a1565b61017e610837565b6101a66101a13660046114ea565b610840565b6040516101049190611602565b6101206101c1366004611437565b6108bd565b6101d96101d43660046114ea565b610c6a565b6040516101049190611ab5565b6101206101f4366004611502565b610de1565b6004818154811061020657fe5b6000918252602090912060016002909202010154905081565b60006004838154811061022e57fe5b906000526020600020906002020190506000610248610ead565b73ffffffffffffffffffffffffffffffffffffffff1663c9280f0661026c86610f57565b84600101546040518363ffffffff1660e01b815260040161028e9291906116b5565b60206040518083038186803b1580156102a657600080fd5b505afa1580156102ba573d6000803e3d6000fd5b505050506040513d601f19601f820116820180604052508101906102de91906114d2565b905060008260000184815481106102f157fe5b906000526020600020906003020190508360001480610352575060008361031f86600163ffffffff610f9116565b8154811061032957fe5b600091825260209091206003909102015473ffffffffffffffffffffffffffffffffffffffff16145b610391576040517f08c379a0000000000000000000000000000000000000000000000000000000008152600401610388906118d3565b60405180910390fd5b805473ffffffffffffffffffffffffffffffffffffffff166103df576040517f08c379a0000000000000000000000000000000000000000000000000000000008152600401610388906119c4565b81610416576040517f08c379a000000000000000000000000000000000000000000000000000000000815260040161038890611876565b805460018083015460028085018054604080516020601f7fffffffffffffffffffffffffffffffffffffffffffffffffffffffffffffffff9885161561010002989098019093169490940495860182900482028401820190528483526104e99573ffffffffffffffffffffffffffffffffffffffff1694908301828280156104df5780601f106104b4576101008083540402835291602001916104df565b820191906000526020600020905b8154815290600101906020018083116104c257829003601f168201915b5050505050610fd3565b61051f576040517f08c379a000000000000000000000000000000000000000000000000000000000815260040161038890611785565b82600001848154811061052e57fe5b60009182526020822060039091020180547fffffffffffffffffffffffff000000000000000000000000000000000000000016815560018101829055906105786002830182611279565b5050847ff758fc91e01b00ea6b4a6138756f7f28e021f9bf21db6dbf8c36c88eb737257a856040516105aa91906116ac565b60405180910390a25050505050565b60015460ff166105c857600080fd5b600255565b60015460009060ff16156105e457506002546105e7565b50425b90565b60045490565b81600260008281526020819052604090206001015460ff16600281111561061357fe5b1461064a576040517f08c379a0000000000000000000000000000000000000000000000000000000008152600401610388906117bc565b6000838152602081905260409020548390610665903361078e565b61069b576040517f08c379a000000000000000000000000000000000000000000000000000000000815260040161038890611a21565b60008481526020819052604090206106bc906003018463ffffffff610fee16565b50505050565b81600260008281526020819052604090206001015460ff1660028111156106e557fe5b1461071c576040517f08c379a0000000000000000000000000000000000000000000000000000000008152600401610388906117bc565b6000838152602081905260409020548390610737903361078e565b61076d576040517f08c379a000000000000000000000000000000000000000000000000000000000815260040161038890611a21565b60008481526020819052604090206106bc906003018463ffffffff61103b16565b600082815260208190526040812060018082015460ff1660028111156107b057fe5b14156107d1576107c9600282018463ffffffff61108b16565b915050610831565b6002600182015460ff1660028111156107e657fe5b14156107ff576107c9600382018463ffffffff6110ab16565b6040517f08c379a000000000000000000000000000000000000000000000000000000000815260040161038890611a7e565b92915050565b60015460ff1681565b600081600160008281526020819052604090206001015460ff16600281111561086557fe5b1461089c576040517f08c379a000000000000000000000000000000000000000000000000000000000815260040161038890611728565b60008381526020819052604090206108b6906002016110d7565b9392505050565b60016108c9813361078e565b6108ff576040517f08c379a000000000000000000000000000000000000000000000000000000000815260040161038890611819565b600454600061090c6105cd565b6004805460010180825560008281529293508490811061092857fe5b600091825260208220600160029092020190810184905591505b8551811015610a7357600073ffffffffffffffffffffffffffffffffffffffff1686828151811061096f57fe5b60200260200101516000015173ffffffffffffffffffffffffffffffffffffffff1614156109c9576040517f08c379a00000000000000000000000000000000000000000000000000000000081526004016103889061198d565b816000018682815181106109d957fe5b602090810291909101810151825460018082018555600094855293839020825160039092020180547fffffffffffffffffffffffff00000000000000000000000000000000000000001673ffffffffffffffffffffffffffffffffffffffff909216919091178155818301519381019390935560408101518051919392610a68926002850192909101906112c0565b505050600101610942565b506000610a7f84610f57565b90506000610a8b610ead565b90506000610a976110f1565b6040517f10a7e20100000000000000000000000000000000000000000000000000000000815290915073ffffffffffffffffffffffffffffffffffffffff8216906310a7e20190610aec9086906004016116ac565b600060405180830381600087803b158015610b0657600080fd5b505af1158015610b1a573d6000803e3d6000fd5b50506040517f68ad8ae300000000000000000000000000000000000000000000000000000000815273ffffffffffffffffffffffffffffffffffffffff851692506368ad8ae39150610b7290869089906004016116b5565b600060405180830381600087803b158015610b8c57600080fd5b505af1158015610ba0573d6000803e3d6000fd5b50506040517f8e0d3ca700000000000000000000000000000000000000000000000000000000815273ffffffffffffffffffffffffffffffffffffffff84169250638e0d3ca79150610bf69086906004016116ac565b600060405180830381600087803b158015610c1057600080fd5b505af1158015610c24573d6000803e3d6000fd5b50505050857f082d2a29e61e3d0508e5617570bed4c7c58ae73d4719b31052d8638812bc4c0c89604051610c589190611623565b60405180910390a25050505050505050565b610c7261133e565b60048281548110610c7f57fe5b906000526020600020906002020160405180604001604052908160008201805480602002602001604051908101604052809291908181526020016000905b82821015610dc85760008481526020908190206040805160608101825260038602909201805473ffffffffffffffffffffffffffffffffffffffff1683526001808201548486015260028083018054855161010094821615949094027fffffffffffffffffffffffffffffffffffffffffffffffffffffffffffffffff011691909104601f8101879004870283018701855280835294959294938601939192909190830182828015610db05780601f10610d8557610100808354040283529160200191610db0565b820191906000526020600020905b815481529060010190602001808311610d9357829003601f168201915b50505050508152505081526020019060010190610cbd565b5050505081526020016001820154815250509050919050565b81600160008281526020819052604090206001015460ff166002811115610e0457fe5b14610e3b576040517f08c379a000000000000000000000000000000000000000000000000000000000815260040161038890611728565b6000838152602081905260409020548390610e56903361078e565b610e8c576040517f08c379a000000000000000000000000000000000000000000000000000000000815260040161038890611a21565b60008481526020819052604090206106bc906002018463ffffffff61114616565b6003546040517faafd5e4000000000000000000000000000000000000000000000000000000000815260009173ffffffffffffffffffffffffffffffffffffffff169063aafd5e4090610f02906004016116ff565b60206040518083038186803b158015610f1a57600080fd5b505afa158015610f2e573d6000803e3d6000fd5b505050506040513d601f19601f82011682018060405250810190610f52919061141b565b905090565b600080610f63836111d5565b90506108b6817f41646d696e2000000000000000000000000000000000000000000000000000006006611228565b60006108b683836040518060400160405280601e81526020017f536166654d6174683a207375627472616374696f6e206f766572666c6f770000815250611233565b60006020820182516000808284888a5af19695505050505050565b73ffffffffffffffffffffffffffffffffffffffff1660009081526020919091526040902080547fffffffffffffffffffffffffffffffffffffffffffffffffffffffffffffff00169055565b73ffffffffffffffffffffffffffffffffffffffff1660009081526020919091526040902080547fffffffffffffffffffffffffffffffffffffffffffffffffffffffffffffff00166001179055565b905473ffffffffffffffffffffffffffffffffffffffff91821691161490565b73ffffffffffffffffffffffffffffffffffffffff166000908152602091909152604090205460ff1690565b5473ffffffffffffffffffffffffffffffffffffffff1690565b6003546040517faafd5e4000000000000000000000000000000000000000000000000000000000815260009173ffffffffffffffffffffffffffffffffffffffff169063aafd5e4090610f02906004016116d6565b73ffffffffffffffffffffffffffffffffffffffff8116611193576040517f08c379a000000000000000000000000000000000000000000000000000000000815260040161038890611930565b81547fffffffffffffffffffffffff00000000000000000000000000000000000000001673ffffffffffffffffffffffffffffffffffffffff91909116179055565b60008161120357507f3000000000000000000000000000000000000000000000000000000000000000611223565b81156112235760081c60f8600a8306603001901b17600a82049150611203565b919050565b6008029190911c1790565b60008184841115611271576040517f08c379a000000000000000000000000000000000000000000000000000000000815260040161038891906116c3565b505050900390565b50805460018160011615610100020316600290046000825580601f1061129f57506112bd565b601f0160209004906000526020600020908101906112bd9190611358565b50565b828054600181600116156101000203166002900490600052602060002090601f016020900481019282601f1061130157805160ff191683800117855561132e565b8280016001018555821561132e579182015b8281111561132e578251825591602001919060010190611313565b5061133a929150611358565b5090565b604051806040016040528060608152602001600081525090565b6105e791905b8082111561133a576000815560010161135e565b600060608284031215611383578081fd5b61138d6060611b45565b9050813561139a81611bba565b815260208281013590820152604082013567ffffffffffffffff8111156113c057600080fd5b80830184601f8201126113d257600080fd5b803591506113e76113e283611b6c565b611b45565b8281528560208484010111156113fc57600080fd5b61140d836020830160208501611bae565b604084015250909392505050565b60006020828403121561142c578081fd5b81516108b681611bba565b60006020808385031215611449578182fd5b823567ffffffffffffffff80821115611460578384fd5b81850186601f820112611471578485fd5b8035925081831115611481578485fd5b61148e8485850201611b45565b8381528481019250818501865b858110156114c4576114b28a888435870101611372565b8552938601939086019060010161149b565b509098975050505050505050565b6000602082840312156114e3578081fd5b5051919050565b6000602082840312156114fb578081fd5b5035919050565b60008060408385031215611514578081fd5b82359150602083013561152681611bba565b809150509250929050565b60008060408385031215611543578182fd5b50508035926020909101359150565b600073ffffffffffffffffffffffffffffffffffffffff8251168352602082015160208401526040820151606060408501526115916060850182611599565b949350505050565b60008151808452815b818110156115be576020818501810151868301820152016115a2565b818111156115cf5782602083870101525b50601f017fffffffffffffffffffffffffffffffffffffffffffffffffffffffffffffffe0169290920160200192915050565b73ffffffffffffffffffffffffffffffffffffffff91909116815260200190565b6000602080830181845280855180835260408601915060408482028701019250838701855b82811015611694577fffffffffffffffffffffffffffffffffffffffffffffffffffffffffffffffc0888603018452611682858351611552565b94509285019290850190600101611648565b5092979650505050505050565b901515815260200190565b90815260200190565b918252602082015260400190565b6000602082526108b66020830184611599565b7f4964656e74696669657257686974656c69737400000000000000000000000000815260200190565b7f4f7261636c650000000000000000000000000000000000000000000000000000815260200190565b6020808252602f908201527f4d7573742062652063616c6c6564206f6e20616e20696e697469616c697a656460408201527f204578636c757369766520726f6c650000000000000000000000000000000000606082015260800190565b6020808252601c908201527f5472616e73616374696f6e20657865637574696f6e206661696c656400000000604082015260600190565b6020808252602c908201527f4d7573742062652063616c6c6564206f6e20616e20696e697469616c697a656460408201527f2053686172656420726f6c650000000000000000000000000000000000000000606082015260800190565b60208082526022908201527f53656e64657220646f6573206e6f7420686f6c6420726571756972656420726f60408201527f6c65000000000000000000000000000000000000000000000000000000000000606082015260800190565b60208082526027908201527f43616e6e6f7420657865637574652c2070726f706f73616c2077617320766f7460408201527f656420646f776e00000000000000000000000000000000000000000000000000606082015260800190565b6020808252602a908201527f50726576696f7573207472616e73616374696f6e20686173206e6f742062656560408201527f6e20657865637574656400000000000000000000000000000000000000000000606082015260800190565b60208082526023908201527f43616e6e6f742073657420616e206578636c757369766520726f6c6520746f2060408201527f3078300000000000000000000000000000000000000000000000000000000000606082015260800190565b6020808252601c908201527f54686520746f20616464726573732063616e6e6f742062652030783000000000604082015260600190565b60208082526025908201527f5472616e73616374696f6e2068617320616c7265616479206265656e2065786560408201527f6375746564000000000000000000000000000000000000000000000000000000606082015260800190565b60208082526024908201527f43616e206f6e6c792062652063616c6c6564206279206120726f6c65206d616e60408201527f6167657200000000000000000000000000000000000000000000000000000000606082015260800190565b6020808252600e908201527f496e76616c696420726f6c654964000000000000000000000000000000000000604082015260600190565b60208082528251604083830152805160608401819052600092916080828402860181019285929187019185015b81841015611b30577fffffffffffffffffffffffffffffffffffffffffffffffffffffffffffffff80888603018352611b1c858251611552565b945060019390930192918501918501611ae2565b50505050930151604092909201919091525090565b60405181810167ffffffffffffffff81118282101715611b6457600080fd5b604052919050565b600067ffffffffffffffff821115611b82578081fd5b50601f017fffffffffffffffffffffffffffffffffffffffffffffffffffffffffffffffe01660200190565b82818337506000910152565b73ffffffffffffffffffffffffffffffffffffffff811681146112bd57600080fd5b611be68282611146565b505056fea26469706673582212202c8fe81d0c08ecad989488eb73560ae116bbdc231efdb822de0b780873466e5a64736f6c63430006040033",
  "source": "pragma solidity ^0.6.0;\n\npragma experimental ABIEncoderV2;\n\nimport \"../../common/implementation/MultiRole.sol\";\nimport \"../../common/implementation/FixedPoint.sol\";\nimport \"../../common/implementation/Testable.sol\";\nimport \"../interfaces/FinderInterface.sol\";\nimport \"../interfaces/IdentifierWhitelistInterface.sol\";\nimport \"../interfaces/OracleInterface.sol\";\n\nimport \"@openzeppelin/contracts/math/SafeMath.sol\";\n\n\n/**\n * @title Takes proposals for certain governance actions and allows UMA token holders to vote on them.\n */\ncontract Governor is MultiRole, Testable {\n    using SafeMath for uint;\n\n    /****************************************\n     *     INTERNAL VARIABLES AND STORAGE   *\n     ****************************************/\n\n    enum Roles {\n        Owner, // Can set the proposer.\n        Proposer // Address that can make proposals.\n    }\n\n    struct Transaction {\n        address to;\n        uint value;\n        bytes data;\n    }\n\n    struct Proposal {\n        Transaction[] transactions;\n        uint requestTime;\n    }\n\n    FinderInterface private finder;\n    Proposal[] public proposals;\n\n    /****************************************\n     *                EVENTS                *\n     ****************************************/\n\n    // Emitted when a new proposal is created.\n    event NewProposal(uint indexed id, Transaction[] transactions);\n\n    // Emitted when an existing proposal is executed.\n    event ProposalExecuted(uint indexed id, uint transactionIndex);\n\n    /**\n     * @notice Construct the Governor contract.\n     * @param _finderAddress keeps track of all contracts within the system based on their interfaceName.\n     * @param _isTest whether this contract is being constructed for the purpose of running automated tests.\n     */\n    constructor(address _finderAddress, bool _isTest) public Testable(_isTest) {\n        finder = FinderInterface(_finderAddress);\n        _createExclusiveRole(uint(Roles.Owner), uint(Roles.Owner), msg.sender);\n        _createExclusiveRole(uint(Roles.Proposer), uint(Roles.Owner), msg.sender);\n    }\n\n    /****************************************\n     *          PROPOSAL ACTIONS            *\n     ****************************************/\n\n    /**\n     * @notice Proposes a new governance action. Can only be called by the holder of the Proposer role.\n     * @param transactions the list of transactions that are being proposed.\n     * @dev You can create the data portion of each transaction by doing the following:\n     * ```\n     * const truffleContractInstance = await TruffleContract.deployed()\n     * const data = truffleContractInstance.methods.methodToCall(arg1, arg2).encodeABI()\n     * ```\n     * Note: this method must be public because of a solidity limitation that\n     * disallows structs arrays to be passed to external functions.\n     * @param transactions array of `Transaction` which can be voted on.\n     */\n    function propose(Transaction[] memory transactions) public onlyRoleHolder(uint(Roles.Proposer)) {\n        uint id = proposals.length;\n        uint time = getCurrentTime();\n\n        // Note: doing all of this array manipulation manually is necessary because directly setting an array of\n        // structs in storage to an an array of structs in memory is currently not implemented in solidity :/.\n\n        // Add a zero-initialized element to the proposals array.\n        proposals.push();\n\n        // Initialize the new proposal.\n        Proposal storage proposal = proposals[id];\n        proposal.requestTime = time;\n\n        // Initialize the transaction array.\n        for (uint i = 0; i < transactions.length; i++) {\n            require(transactions[i].to != address(0), \"The to address cannot be 0x0\");\n            proposal.transactions.push(transactions[i]);\n        }\n\n        bytes32 identifier = _constructIdentifier(id);\n\n        // Request a vote on this proposal in the DVM.\n        OracleInterface oracle = _getOracle();\n        IdentifierWhitelistInterface supportedIdentifiers = _getIdentifierWhitelist();\n        supportedIdentifiers.addSupportedIdentifier(identifier);\n\n        oracle.requestPrice(identifier, time);\n        supportedIdentifiers.removeSupportedIdentifier(identifier);\n\n        emit NewProposal(id, transactions);\n    }\n\n    /**\n     * @notice Executes a proposed governance action that has been approved by voters.\n     * @dev This can be called by any address.\n     * @param id unique id for the executed proposal.\n     * @param transactionIndex unique transaction index for the executed proposal.\n     */\n    function executeProposal(uint id, uint transactionIndex) external {\n        Proposal storage proposal = proposals[id];\n        int price = _getOracle().getPrice(_constructIdentifier(id), proposal.requestTime);\n\n        Transaction storage transaction = proposal.transactions[transactionIndex];\n\n        require(\n            transactionIndex == 0 || proposal.transactions[transactionIndex.sub(1)].to == address(0),\n            \"Previous transaction has not been executed\"\n        );\n        require(transaction.to != address(0), \"Transaction has already been executed\");\n        require(price != 0, \"Cannot execute, proposal was voted down\");\n        require(_executeCall(transaction.to, transaction.value, transaction.data), \"Transaction execution failed\");\n\n        // Delete the transaction.\n        delete proposal.transactions[transactionIndex];\n\n        emit ProposalExecuted(id, transactionIndex);\n    }\n\n    /***************************************\n     *       GOVERNOR STATE GETTERS         *\n     ****************************************/\n\n    /**\n     * @notice Gets the total number of proposals (includes executed and non-executed).\n     * @return uint representing the current number of proposals.\n     */\n    function numProposals() external view returns (uint) {\n        return proposals.length;\n    }\n\n    /**\n     * @notice Gets the proposal data for a particular id.\n     * @dev after a proposal is executed, its data will be zeroed out.\n     * @param id uniquely identify the identity of the proposal.\n     * @return proposal struct containing transactions[] and requestTime.\n     */\n    function getProposal(uint id) external view returns (Proposal memory proposal) {\n        return proposals[id];\n    }\n\n    /****************************************\n     *      PRIVATE GETTERS AND FUNCTIONS   *\n     ****************************************/\n\n    function _executeCall(address to, uint256 value, bytes memory data) private returns (bool success) {\n        // Mostly copied from:\n        // solhint-disable-next-line max-line-length\n        // https://github.com/gnosis/safe-contracts/blob/59cfdaebcd8b87a0a32f87b50fead092c10d3a05/contracts/base/Executor.sol#L23-L31\n        // solhint-disable-next-line no-inline-assembly\n\n        assembly {\n            let inputData := add(data, 0x20)\n            let inputDataSize := mload(data)\n            success := call(gas(), to, value, inputData, inputDataSize, 0, 0)\n        }\n    }\n\n    function _getOracle() private view returns (OracleInterface oracle) {\n        return OracleInterface(finder.getImplementationAddress(\"Oracle\"));\n    }\n\n    function _getIdentifierWhitelist() private view returns (IdentifierWhitelistInterface supportedIdentifiers) {\n        return IdentifierWhitelistInterface(finder.getImplementationAddress(\"IdentifierWhitelist\"));\n    }\n\n    function _constructIdentifier(uint id) private pure returns (bytes32 identifier) {\n        bytes32 bytesId = _uintToBytes(id);\n        return _addPrefix(bytesId, \"Admin \", 6);\n    }\n\n    // This method is based off of this code: https://ethereum.stackexchange.com/a/6613/47801.\n    function _uintToBytes(uint v) private pure returns (bytes32 ret) {\n        if (v == 0) {\n            ret = \"0\";\n        } else {\n            while (v > 0) {\n                ret = ret >> 8;\n                ret |= bytes32((v % 10) + 48) << (31 * 8);\n                v /= 10;\n            }\n        }\n        return ret;\n    }\n\n    function _addPrefix(bytes32 input, bytes32 prefix, uint prefixLength) private pure returns (bytes32 output) {\n        bytes32 shiftedInput = input >> (prefixLength * 8);\n        return shiftedInput | prefix;\n    }\n}\n",
  "sourcePath": "/home/opz/Projects/SynFiat-update/ui/contracts/uma-contracts/oracle/implementation/Governor.sol",
  "compiler": {
    "name": "solc",
    "version": "0.6.4+commit.1dca32f3.Emscripten.clang"
  },
  "schemaVersion": "3.2.0",
  "updatedAt": "2020-06-29T17:20:03.147Z",
  "devdoc": {
    "methods": {
      "addMember(uint256,address)": {
        "details": "Reverts if `roleId` does not represent an initialized, shared role or if the caller is not a member of the managing role for `roleId`."
      },
      "constructor": {
        "params": {
          "_finderAddress": "keeps track of all contracts within the system based on their interfaceName.",
          "_isTest": "whether this contract is being constructed for the purpose of running automated tests."
        }
      },
      "executeProposal(uint256,uint256)": {
        "details": "This can be called by any address.",
        "params": {
          "id": "unique id for the executed proposal.",
          "transactionIndex": "unique transaction index for the executed proposal."
        }
      },
      "getMember(uint256)": {
        "details": "Reverts if `roleId` does not represent an initialized, exclusive role."
      },
      "getProposal(uint256)": {
        "details": "after a proposal is executed, its data will be zeroed out.",
        "params": {
          "id": "uniquely identify the identity of the proposal."
        },
        "returns": {
          "proposal": "struct containing transactions[] and requestTime."
        }
      },
      "holdsRole(uint256,address)": {
        "details": "Reverts if roleId does not correspond to an initialized role."
      },
      "propose((address,uint256,bytes)[])": {
        "details": "You can create the data portion of each transaction by doing the following: ``` const truffleContractInstance = await TruffleContract.deployed() const data = truffleContractInstance.methods.methodToCall(arg1, arg2).encodeABI() ``` Note: this method must be public because of a solidity limitation that disallows structs arrays to be passed to external functions.",
        "params": {
          "transactions": "array of `Transaction` which can be voted on."
        }
      },
      "removeMember(uint256,address)": {
        "details": "Reverts if `roleId` does not represent an initialized, shared role or if the caller is not a member of the managing role for `roleId`."
      },
      "resetMember(uint256,address)": {
        "details": "Reverts if the caller is not a member of the managing role for `roleId` or if `roleId` is not an initialized, exclusive role."
      },
      "setCurrentTime(uint256)": {
        "details": "Will revert if not running in test mode."
      }
    },
    "title": "Takes proposals for certain governance actions and allows UMA token holders to vote on them."
  },
  "userdoc": {
    "methods": {
      "addMember(uint256,address)": {
        "notice": "Adds `newMember` to the shared role, `roleId`."
      },
      "constructor": "Construct the Governor contract.",
      "executeProposal(uint256,uint256)": {
        "notice": "Executes a proposed governance action that has been approved by voters."
      },
      "getCurrentTime()": {
        "notice": "Gets the current time. Will return the last time set in `setCurrentTime` if running in test mode. Otherwise, it will return the block timestamp."
      },
      "getMember(uint256)": {
        "notice": "Gets the current holder of the exclusive role, `roleId`."
      },
      "getProposal(uint256)": {
        "notice": "Gets the proposal data for a particular id."
      },
      "holdsRole(uint256,address)": {
        "notice": "Whether `memberToCheck` is a member of roleId."
      },
      "numProposals()": {
        "notice": "Gets the total number of proposals (includes executed and non-executed)."
      },
      "propose((address,uint256,bytes)[])": {
        "notice": "Proposes a new governance action. Can only be called by the holder of the Proposer role."
      },
      "removeMember(uint256,address)": {
        "notice": "Removes `memberToRemove` from the shared role, `roleId`."
      },
      "resetMember(uint256,address)": {
        "notice": "Changes the exclusive role holder of `roleId` to `newMember`."
      },
      "setCurrentTime(uint256)": {
        "notice": "Sets the current time."
      }
    }
  }
}