{
  "contractName": "GovernorTest",
  "abi": [
    {
      "inputs": [
        {
          "internalType": "address",
          "name": "_timerAddress",
          "type": "address"
        }
      ],
      "stateMutability": "nonpayable",
      "type": "constructor"
    },
    {
      "anonymous": false,
      "inputs": [
        {
          "indexed": true,
          "internalType": "uint256",
          "name": "roleId",
          "type": "uint256"
        },
        {
          "indexed": true,
          "internalType": "address",
          "name": "newMember",
          "type": "address"
        },
        {
          "indexed": true,
          "internalType": "address",
          "name": "manager",
          "type": "address"
        }
      ],
      "name": "AddedSharedMember",
      "type": "event"
    },
    {
      "anonymous": false,
      "inputs": [
        {
          "indexed": true,
          "internalType": "uint256",
          "name": "id",
          "type": "uint256"
        },
        {
          "components": [
            {
              "internalType": "address",
              "name": "to",
              "type": "address"
            },
            {
              "internalType": "uint256",
              "name": "value",
              "type": "uint256"
            },
            {
              "internalType": "bytes",
              "name": "data",
              "type": "bytes"
            }
          ],
          "indexed": false,
          "internalType": "struct Governor.Transaction[]",
          "name": "transactions",
          "type": "tuple[]"
        }
      ],
      "name": "NewProposal",
      "type": "event"
    },
    {
      "anonymous": false,
      "inputs": [
        {
          "indexed": true,
          "internalType": "uint256",
          "name": "id",
          "type": "uint256"
        },
        {
          "indexed": false,
          "internalType": "uint256",
          "name": "transactionIndex",
          "type": "uint256"
        }
      ],
      "name": "ProposalExecuted",
      "type": "event"
    },
    {
      "anonymous": false,
      "inputs": [
        {
          "indexed": true,
          "internalType": "uint256",
          "name": "roleId",
          "type": "uint256"
        },
        {
          "indexed": true,
          "internalType": "address",
          "name": "oldMember",
          "type": "address"
        },
        {
          "indexed": true,
          "internalType": "address",
          "name": "manager",
          "type": "address"
        }
      ],
      "name": "RemovedSharedMember",
      "type": "event"
    },
    {
      "anonymous": false,
      "inputs": [
        {
          "indexed": true,
          "internalType": "uint256",
          "name": "roleId",
          "type": "uint256"
        },
        {
          "indexed": true,
          "internalType": "address",
          "name": "newMember",
          "type": "address"
        },
        {
          "indexed": true,
          "internalType": "address",
          "name": "manager",
          "type": "address"
        }
      ],
      "name": "ResetExclusiveMember",
      "type": "event"
    },
    {
      "inputs": [
        {
          "internalType": "uint256",
          "name": "roleId",
          "type": "uint256"
        },
        {
          "internalType": "address",
          "name": "newMember",
          "type": "address"
        }
      ],
      "name": "addMember",
      "outputs": [],
      "stateMutability": "nonpayable",
      "type": "function"
    },
    {
      "inputs": [
        {
          "internalType": "uint256",
          "name": "id",
          "type": "uint256"
        },
        {
          "internalType": "uint256",
          "name": "transactionIndex",
          "type": "uint256"
        }
      ],
      "name": "executeProposal",
      "outputs": [],
      "stateMutability": "payable",
      "type": "function"
    },
    {
      "inputs": [],
      "name": "getCurrentTime",
      "outputs": [
        {
          "internalType": "uint256",
          "name": "",
          "type": "uint256"
        }
      ],
      "stateMutability": "view",
      "type": "function"
    },
    {
      "inputs": [
        {
          "internalType": "uint256",
          "name": "roleId",
          "type": "uint256"
        }
      ],
      "name": "getMember",
      "outputs": [
        {
          "internalType": "address",
          "name": "",
          "type": "address"
        }
      ],
      "stateMutability": "view",
      "type": "function"
    },
    {
      "inputs": [
        {
          "internalType": "uint256",
          "name": "id",
          "type": "uint256"
        }
      ],
      "name": "getProposal",
      "outputs": [
        {
          "components": [
            {
              "components": [
                {
                  "internalType": "address",
                  "name": "to",
                  "type": "address"
                },
                {
                  "internalType": "uint256",
                  "name": "value",
                  "type": "uint256"
                },
                {
                  "internalType": "bytes",
                  "name": "data",
                  "type": "bytes"
                }
              ],
              "internalType": "struct Governor.Transaction[]",
              "name": "transactions",
              "type": "tuple[]"
            },
            {
              "internalType": "uint256",
              "name": "requestTime",
              "type": "uint256"
            }
          ],
          "internalType": "struct Governor.Proposal",
          "name": "",
          "type": "tuple"
        }
      ],
      "stateMutability": "view",
      "type": "function"
    },
    {
      "inputs": [
        {
          "internalType": "uint256",
          "name": "roleId",
          "type": "uint256"
        },
        {
          "internalType": "address",
          "name": "memberToCheck",
          "type": "address"
        }
      ],
      "name": "holdsRole",
      "outputs": [
        {
          "internalType": "bool",
          "name": "",
          "type": "bool"
        }
      ],
      "stateMutability": "view",
      "type": "function"
    },
    {
      "inputs": [],
      "name": "numProposals",
      "outputs": [
        {
          "internalType": "uint256",
          "name": "",
          "type": "uint256"
        }
      ],
      "stateMutability": "view",
      "type": "function"
    },
    {
      "inputs": [
        {
          "internalType": "uint256",
          "name": "",
          "type": "uint256"
        }
      ],
      "name": "proposals",
      "outputs": [
        {
          "internalType": "uint256",
          "name": "requestTime",
          "type": "uint256"
        }
      ],
      "stateMutability": "view",
      "type": "function"
    },
    {
      "inputs": [
        {
          "components": [
            {
              "internalType": "address",
              "name": "to",
              "type": "address"
            },
            {
              "internalType": "uint256",
              "name": "value",
              "type": "uint256"
            },
            {
              "internalType": "bytes",
              "name": "data",
              "type": "bytes"
            }
          ],
          "internalType": "struct Governor.Transaction[]",
          "name": "transactions",
          "type": "tuple[]"
        }
      ],
      "name": "propose",
      "outputs": [],
      "stateMutability": "nonpayable",
      "type": "function"
    },
    {
      "inputs": [
        {
          "internalType": "uint256",
          "name": "roleId",
          "type": "uint256"
        },
        {
          "internalType": "address",
          "name": "memberToRemove",
          "type": "address"
        }
      ],
      "name": "removeMember",
      "outputs": [],
      "stateMutability": "nonpayable",
      "type": "function"
    },
    {
      "inputs": [
        {
          "internalType": "uint256",
          "name": "roleId",
          "type": "uint256"
        }
      ],
      "name": "renounceMembership",
      "outputs": [],
      "stateMutability": "nonpayable",
      "type": "function"
    },
    {
      "inputs": [
        {
          "internalType": "uint256",
          "name": "roleId",
          "type": "uint256"
        },
        {
          "internalType": "address",
          "name": "newMember",
          "type": "address"
        }
      ],
      "name": "resetMember",
      "outputs": [],
      "stateMutability": "nonpayable",
      "type": "function"
    },
    {
      "inputs": [
        {
          "internalType": "uint256",
          "name": "time",
          "type": "uint256"
        }
      ],
      "name": "setCurrentTime",
      "outputs": [],
      "stateMutability": "nonpayable",
      "type": "function"
    },
    {
      "inputs": [],
      "name": "timerAddress",
      "outputs": [
        {
          "internalType": "address",
          "name": "",
          "type": "address"
        }
      ],
      "stateMutability": "view",
      "type": "function"
    },
    {
      "inputs": [
        {
          "internalType": "bytes32",
          "name": "input",
          "type": "bytes32"
        },
        {
          "internalType": "bytes32",
          "name": "prefix",
          "type": "bytes32"
        },
        {
          "internalType": "uint256",
          "name": "prefixLength",
          "type": "uint256"
        }
      ],
      "name": "addPrefix",
      "outputs": [
        {
          "internalType": "bytes32",
          "name": "",
          "type": "bytes32"
        }
      ],
      "stateMutability": "pure",
      "type": "function"
    },
    {
      "inputs": [
        {
          "internalType": "uint256",
          "name": "v",
          "type": "uint256"
        }
      ],
      "name": "uintToUtf8",
      "outputs": [
        {
          "internalType": "bytes32",
          "name": "ret",
          "type": "bytes32"
        }
      ],
      "stateMutability": "pure",
      "type": "function"
    },
    {
      "inputs": [
        {
          "internalType": "uint256",
          "name": "id",
          "type": "uint256"
        }
      ],
      "name": "constructIdentifier",
      "outputs": [
        {
          "internalType": "bytes32",
          "name": "identifier",
          "type": "bytes32"
        }
      ],
      "stateMutability": "pure",
      "type": "function"
    }
  ],
  "bytecode": "0x60806040523480156200001157600080fd5b506040516200263d3803806200263d8339810160408190526200003491620001ef565b600180546001600160a01b0383166001600160a01b0319918216179091556002805490911690556000808262000077825b6000336001600160e01b03620000c616565b62000083600162000065565b670de0b6b3a764000080831115620000b85760405162461bcd60e51b8152600401620000af906200021f565b60405180910390fd5b5050600355506200033d9050565b826000808281526020819052604090206001015460ff166002811115620000e957fe5b14620001095760405162461bcd60e51b8152600401620000af90620002c3565b60008481526020819052604090206001808201805460ff19168280021790555083815562000147600282018462000190602090811b620022ac17901c565b60008481526020819052604081206001015460ff1660028111156200016857fe5b1415620001895760405162461bcd60e51b8152600401620000af9062000266565b5050505050565b620001a582826001600160e01b03620001a916565b5050565b6001600160a01b038116620001d25760405162461bcd60e51b8152600401620000af90620002fa565b81546001600160a01b0319166001600160a01b0391909116179055565b60006020828403121562000201578081fd5b81516001600160a01b038116811462000218578182fd5b9392505050565b60208082526027908201527f43616e6e6f7420736574207374617274696e674964206c6172676572207468616040820152660dc406260bc62760cb1b606082015260800190565b6020808252603c908201527f417474656d7074656420746f2075736520616e20696e76616c696420726f6c6560408201527f20746f206d616e61676520616e206578636c757369766520726f6c6500000000606082015260800190565b6020808252601e908201527f43616e6e6f74207573652061207072652d6578697374696e6720726f6c650000604082015260600190565b60208082526023908201527f43616e6e6f742073657420616e206578636c757369766520726f6c6520746f2060408201526203078360ec1b606082015260800190565b6122f0806200034d6000396000f3fe60806040526004361061010e5760003560e01c806374d0a676116100a5578063aaa14ca311610074578063c62fdef711610059578063c62fdef7146102d7578063c7f758a8146102f7578063d97c05be146103245761010e565b8063aaa14ca314610297578063ab3545e5146102b75761010e565b806374d0a6761461020a5780637bc1f2061461022a5780637cdc1cb91461024a57806380b8ae8e146102775761010e565b806329cb924d116100e157806329cb924d146101a0578063400e3949146101b55780636a33cabe146101ca5780636be7658b146101ea5761010e565b8063013cf08b146101135780631ab76712146101495780631c39c38d1461015e57806322f8e56614610180575b600080fd5b34801561011f57600080fd5b5061013361012e366004611c2f565b610344565b6040516101409190611de9565b60405180910390f35b61015c610157366004611c76565b61036a565b005b34801561016a57600080fd5b50610173610773565b6040516101409190611d3f565b34801561018c57600080fd5b5061015c61019b366004611c2f565b61078f565b3480156101ac57600080fd5b5061013361083c565b3480156101c157600080fd5b5061013361090a565b3480156101d657600080fd5b506101336101e5366004611c2f565b610910565b3480156101f657600080fd5b5061015c610205366004611c47565b610921565b34801561021657600080fd5b5061015c610225366004611c47565b610a38565b34801561023657600080fd5b50610133610245366004611bec565b610b4f565b34801561025657600080fd5b5061026a610265366004611c47565b610b64565b6040516101409190611dde565b34801561028357600080fd5b50610133610292366004611c2f565b610c07565b3480156102a357600080fd5b5061015c6102b2366004611c2f565b610c12565b3480156102c357600080fd5b506101736102d2366004611c2f565b610d02565b3480156102e357600080fd5b5061015c6102f2366004611ae4565b610d7f565b34801561030357600080fd5b50610317610312366004611c2f565b6111b9565b60405161014091906121d3565b34801561033057600080fd5b5061015c61033f366004611c47565b611330565b6003818154811061035157fe5b6000918252602090912060016002909202010154905081565b60006003838154811061037957fe5b906000526020600020906002020190506000610393611447565b73ffffffffffffffffffffffffffffffffffffffff1663c9280f066103b786611513565b84600101546040518363ffffffff1660e01b81526004016103d9929190611df2565b60206040518083038186803b1580156103f157600080fd5b505afa158015610405573d6000803e3d6000fd5b505050506040513d601f19601f820116820180604052508101906104299190611c17565b9050610433611906565b82600001848154811061044257fe5b600091825260209182902060408051606081018252600393909302909101805473ffffffffffffffffffffffffffffffffffffffff1683526001808201548486015260028083018054855161010094821615949094027fffffffffffffffffffffffffffffffffffffffffffffffffffffffffffffffff011691909104601f810187900487028301870185528083529495929493860193919290919083018282801561052f5780601f106105045761010080835404028352916020019161052f565b820191906000526020600020905b81548152906001019060200180831161051257829003601f168201915b5050505050815250509050836000148061058b575060008361055886600163ffffffff61154d16565b8154811061056257fe5b600091825260209091206003909102015473ffffffffffffffffffffffffffffffffffffffff16145b6105ca576040517f08c379a00000000000000000000000000000000000000000000000000000000081526004016105c19061209a565b60405180910390fd5b805173ffffffffffffffffffffffffffffffffffffffff16610618576040517f08c379a00000000000000000000000000000000000000000000000000000000081526004016105c190611e4a565b8161064f576040517f08c379a00000000000000000000000000000000000000000000000000000000081526004016105c19061219c565b8060200151341461068c576040517f08c379a00000000000000000000000000000000000000000000000000000000081526004016105c190611eb8565b82600001848154811061069b57fe5b60009182526020822060039091020180547fffffffffffffffffffffffff000000000000000000000000000000000000000016815560018101829055906106e5600283018261193d565b50506106fe81600001518260200151836040015161158f565b610734576040517f08c379a00000000000000000000000000000000000000000000000000000000081526004016105c190612165565b847ff758fc91e01b00ea6b4a6138756f7f28e021f9bf21db6dbf8c36c88eb737257a856040516107649190611de9565b60405180910390a25050505050565b60015473ffffffffffffffffffffffffffffffffffffffff1681565b60015473ffffffffffffffffffffffffffffffffffffffff166107b157600080fd5b6001546040517f22f8e56600000000000000000000000000000000000000000000000000000000815273ffffffffffffffffffffffffffffffffffffffff909116906322f8e56690610807908490600401611de9565b600060405180830381600087803b15801561082157600080fd5b505af1158015610835573d6000803e3d6000fd5b5050505050565b60015460009073ffffffffffffffffffffffffffffffffffffffff161561090457600160009054906101000a900473ffffffffffffffffffffffffffffffffffffffff1673ffffffffffffffffffffffffffffffffffffffff166329cb924d6040518163ffffffff1660e01b815260040160206040518083038186803b1580156108c557600080fd5b505afa1580156108d9573d6000803e3d6000fd5b505050506040513d601f19601f820116820180604052508101906108fd9190611c17565b9050610907565b50425b90565b60035490565b600061091b826115ac565b92915050565b81600260008281526020819052604090206001015460ff16600281111561094457fe5b1461097b576040517f08c379a00000000000000000000000000000000000000000000000000000000081526004016105c190611f83565b60008381526020819052604090205483906109969033610b64565b6109cc576040517f08c379a00000000000000000000000000000000000000000000000000000000081526004016105c1906120d1565b60008481526020819052604090206109ed906003018463ffffffff61162616565b604051339073ffffffffffffffffffffffffffffffffffffffff85169086907feb3e33034c392e69263b04ec0fa376dc12784a41b6676c7f31b936cbc0fbb5af90600090a450505050565b81600260008281526020819052604090206001015460ff166002811115610a5b57fe5b14610a92576040517f08c379a00000000000000000000000000000000000000000000000000000000081526004016105c190611f83565b6000838152602081905260409020548390610aad9033610b64565b610ae3576040517f08c379a00000000000000000000000000000000000000000000000000000000081526004016105c1906120d1565b6000848152602081905260409020610b04906003018463ffffffff61167316565b604051339073ffffffffffffffffffffffffffffffffffffffff85169086907f63502af7324ff6db91ab38f8236a648727d9385ea6c782073dd4882d8a61a48f90600090a450505050565b6000610b5c848484611710565b949350505050565b600082815260208190526040812060018082015460ff166002811115610b8657fe5b1415610ba757610b9f600282018463ffffffff61171b16565b91505061091b565b6002600182015460ff166002811115610bbc57fe5b1415610bd557610b9f600382018463ffffffff61173b16565b6040517f08c379a00000000000000000000000000000000000000000000000000000000081526004016105c19061212e565b600061091b82611513565b80600260008281526020819052604090206001015460ff166002811115610c3557fe5b14610c6c576040517f08c379a00000000000000000000000000000000000000000000000000000000081526004016105c190611f83565b81610c778133610b64565b610cad576040517f08c379a00000000000000000000000000000000000000000000000000000000081526004016105c190611fe0565b6000838152602081905260409020610cce906003013363ffffffff61162616565b6040513390819085907feb3e33034c392e69263b04ec0fa376dc12784a41b6676c7f31b936cbc0fbb5af90600090a4505050565b600081600160008281526020819052604090206001015460ff166002811115610d2757fe5b14610d5e576040517f08c379a00000000000000000000000000000000000000000000000000000000081526004016105c190611eef565b6000838152602081905260409020610d7890600201611767565b9392505050565b6001610d8b8133610b64565b610dc1576040517f08c379a00000000000000000000000000000000000000000000000000000000081526004016105c190611fe0565b6003546000610dce61083c565b60038054600101808255600082815292935084908110610dea57fe5b600091825260208220600160029092020190810184905591505b8551811015610fc257600073ffffffffffffffffffffffffffffffffffffffff16868281518110610e3157fe5b60200260200101516000015173ffffffffffffffffffffffffffffffffffffffff161415610e8b576040517f08c379a00000000000000000000000000000000000000000000000000000000081526004016105c190611e81565b6000868281518110610e9957fe5b602002602001015160400151511115610f1857610ee2868281518110610ebb57fe5b60200260200101516000015173ffffffffffffffffffffffffffffffffffffffff16611781565b610f18576040517f08c379a00000000000000000000000000000000000000000000000000000000081526004016105c190611f4c565b81600001868281518110610f2857fe5b602090810291909101810151825460018082018555600094855293839020825160039092020180547fffffffffffffffffffffffff00000000000000000000000000000000000000001673ffffffffffffffffffffffffffffffffffffffff909216919091178155818301519381019390935560408101518051919392610fb792600285019290910190611984565b505050600101610e04565b506000610fce84611513565b90506000610fda611447565b90506000610fe66117ba565b6040517f10a7e20100000000000000000000000000000000000000000000000000000000815290915073ffffffffffffffffffffffffffffffffffffffff8216906310a7e2019061103b908690600401611de9565b600060405180830381600087803b15801561105557600080fd5b505af1158015611069573d6000803e3d6000fd5b50506040517f68ad8ae300000000000000000000000000000000000000000000000000000000815273ffffffffffffffffffffffffffffffffffffffff851692506368ad8ae391506110c19086908990600401611df2565b600060405180830381600087803b1580156110db57600080fd5b505af11580156110ef573d6000803e3d6000fd5b50506040517f8e0d3ca700000000000000000000000000000000000000000000000000000000815273ffffffffffffffffffffffffffffffffffffffff84169250638e0d3ca79150611145908690600401611de9565b600060405180830381600087803b15801561115f57600080fd5b505af1158015611173573d6000803e3d6000fd5b50505050857f082d2a29e61e3d0508e5617570bed4c7c58ae73d4719b31052d8638812bc4c0c896040516111a79190611d60565b60405180910390a25050505050505050565b6111c1611a02565b600382815481106111ce57fe5b906000526020600020906002020160405180604001604052908160008201805480602002602001604051908101604052809291908181526020016000905b828210156113175760008481526020908190206040805160608101825260038602909201805473ffffffffffffffffffffffffffffffffffffffff1683526001808201548486015260028083018054855161010094821615949094027fffffffffffffffffffffffffffffffffffffffffffffffffffffffffffffffff011691909104601f81018790048702830187018552808352949592949386019391929091908301828280156112ff5780601f106112d4576101008083540402835291602001916112ff565b820191906000526020600020905b8154815290600101906020018083116112e257829003601f168201915b5050505050815250508152602001906001019061120c565b5050505081526020016001820154815250509050919050565b81600160008281526020819052604090206001015460ff16600281111561135357fe5b1461138a576040517f08c379a00000000000000000000000000000000000000000000000000000000081526004016105c190611eef565b60008381526020819052604090205483906113a59033610b64565b6113db576040517f08c379a00000000000000000000000000000000000000000000000000000000081526004016105c1906120d1565b60008481526020819052604090206113fc906002018463ffffffff61183116565b604051339073ffffffffffffffffffffffffffffffffffffffff85169086907f3b855c56b409b671c7112789d022675eb639d0bcb8896f1b6197c132f799e74690600090a450505050565b6002546040517faafd5e4000000000000000000000000000000000000000000000000000000000815260009173ffffffffffffffffffffffffffffffffffffffff169063aafd5e40906114be907f4f7261636c65000000000000000000000000000000000000000000000000000090600401611de9565b60206040518083038186803b1580156114d657600080fd5b505afa1580156114ea573d6000803e3d6000fd5b505050506040513d601f19601f8201168201806040525081019061150e9190611ac8565b905090565b60008061151f836115ac565b9050610d78817f41646d696e2000000000000000000000000000000000000000000000000000006006611710565b6000610d7883836040518060400160405280601e81526020017f536166654d6174683a207375627472616374696f6e206f766572666c6f7700008152506118c0565b6000806020830183516000808284898b5af1979650505050505050565b600080826115db57507f300000000000000000000000000000000000000000000000000000000000000061091b565b6008600a60305b851561161d5792821c9260008287816115f757fe5b06828101601f860281901b969096179590915083888161161357fe5b04975050506115e2565b50505092915050565b73ffffffffffffffffffffffffffffffffffffffff1660009081526020919091526040902080547fffffffffffffffffffffffffffffffffffffffffffffffffffffffffffffff00169055565b73ffffffffffffffffffffffffffffffffffffffff81166116c0576040517f08c379a00000000000000000000000000000000000000000000000000000000081526004016105c190611e13565b73ffffffffffffffffffffffffffffffffffffffff1660009081526020919091526040902080547fffffffffffffffffffffffffffffffffffffffffffffffffffffffffffffff00166001179055565b6008029190911c1790565b905473ffffffffffffffffffffffffffffffffffffffff91821691161490565b73ffffffffffffffffffffffffffffffffffffffff166000908152602091909152604090205460ff1690565b5473ffffffffffffffffffffffffffffffffffffffff1690565b6000813f7fc5d2460186f7233c927e7db2dcc703c0e500b653ca82273b7bfad8045d85a470818114801590610b5c575050151592915050565b6002546040517faafd5e4000000000000000000000000000000000000000000000000000000000815260009173ffffffffffffffffffffffffffffffffffffffff169063aafd5e40906114be907f4964656e74696669657257686974656c6973740000000000000000000000000090600401611de9565b73ffffffffffffffffffffffffffffffffffffffff811661187e576040517f08c379a00000000000000000000000000000000000000000000000000000000081526004016105c19061203d565b81547fffffffffffffffffffffffff00000000000000000000000000000000000000001673ffffffffffffffffffffffffffffffffffffffff91909116179055565b600081848411156118fe576040517f08c379a00000000000000000000000000000000000000000000000000000000081526004016105c19190611e00565b505050900390565b6040518060600160405280600073ffffffffffffffffffffffffffffffffffffffff16815260200160008152602001606081525090565b50805460018160011615610100020316600290046000825580601f106119635750611981565b601f0160209004906000526020600020908101906119819190611a1c565b50565b828054600181600116156101000203166002900490600052602060002090601f016020900481019282601f106119c557805160ff19168380011785556119f2565b828001600101855582156119f2579182015b828111156119f25782518255916020019190600101906119d7565b506119fe929150611a1c565b5090565b604051806040016040528060608152602001600081525090565b61090791905b808211156119fe5760008155600101611a22565b803561091b8161228a565b600082601f830112611a51578081fd5b813567ffffffffffffffff811115611a67578182fd5b611a9860207fffffffffffffffffffffffffffffffffffffffffffffffffffffffffffffffe0601f84011601612263565b9150808252836020828501011115611aaf57600080fd5b8060208401602084013760009082016020015292915050565b600060208284031215611ad9578081fd5b8151610d788161228a565b60006020808385031215611af6578182fd5b823567ffffffffffffffff80821115611b0d578384fd5b81850186601f820112611b1e578485fd5b8035925081831115611b2e578485fd5b611b3b8485850201612263565b83815284810190828601875b86811015611bdd57813585016060807fffffffffffffffffffffffffffffffffffffffffffffffffffffffffffffffe0838f03011215611b85578a8bfd5b611b8e81612263565b611b9a8e8c8501611a36565b815260408301358b8201528183013589811115611bb5578c8dfd5b611bc38f8d83870101611a41565b604083015250865250509287019290870190600101611b47565b50909998505050505050505050565b600080600060608486031215611c00578182fd5b505081359360208301359350604090920135919050565b600060208284031215611c28578081fd5b5051919050565b600060208284031215611c40578081fd5b5035919050565b60008060408385031215611c59578182fd5b823591506020830135611c6b8161228a565b809150509250929050565b60008060408385031215611c88578182fd5b50508035926020909101359150565b60008151808452815b81811015611cbc57602081850181015186830182015201611ca0565b81811115611ccd5782602083870101525b50601f017fffffffffffffffffffffffffffffffffffffffffffffffffffffffffffffffe0169290920160200192915050565b600073ffffffffffffffffffffffffffffffffffffffff825116835260208201516020840152604082015160606040850152610b5c6060850182611c97565b73ffffffffffffffffffffffffffffffffffffffff91909116815260200190565b6000602080830181845280855180835260408601915060408482028701019250838701855b82811015611dd1577fffffffffffffffffffffffffffffffffffffffffffffffffffffffffffffffc0888603018452611dbf858351611d00565b94509285019290850190600101611d85565b5092979650505050505050565b901515815260200190565b90815260200190565b918252602082015260400190565b600060208252610d786020830184611c97565b6020808252601f908201527f43616e6e6f74206164642030783020746f20612073686172656420726f6c6500604082015260600190565b60208082526013908201527f547820616c726561647920657865637574656400000000000000000000000000604082015260600190565b6020808252601e908201527f5468652060746f6020616464726573732063616e6e6f74206265203078300000604082015260600190565b6020808252601d908201527f4d7573742073656e6420657861637420616d6f756e74206f6620455448000000604082015260600190565b6020808252602f908201527f4d7573742062652063616c6c6564206f6e20616e20696e697469616c697a656460408201527f204578636c757369766520726f6c650000000000000000000000000000000000606082015260800190565b6020808252601d908201527f454f412063616e27742061636365707420747820776974682064617461000000604082015260600190565b6020808252602c908201527f4d7573742062652063616c6c6564206f6e20616e20696e697469616c697a656460408201527f2053686172656420726f6c650000000000000000000000000000000000000000606082015260800190565b60208082526022908201527f53656e64657220646f6573206e6f7420686f6c6420726571756972656420726f60408201527f6c65000000000000000000000000000000000000000000000000000000000000606082015260800190565b60208082526023908201527f43616e6e6f742073657420616e206578636c757369766520726f6c6520746f2060408201527f3078300000000000000000000000000000000000000000000000000000000000606082015260800190565b6020808252601c908201527f50726576696f7573207478206e6f742079657420657865637574656400000000604082015260600190565b60208082526024908201527f43616e206f6e6c792062652063616c6c6564206279206120726f6c65206d616e60408201527f6167657200000000000000000000000000000000000000000000000000000000606082015260800190565b6020808252600e908201527f496e76616c696420726f6c654964000000000000000000000000000000000000604082015260600190565b60208082526013908201527f547820657865637574696f6e206661696c656400000000000000000000000000604082015260600190565b60208082526015908201527f50726f706f73616c207761732072656a65637465640000000000000000000000604082015260600190565b60208082528251604083830152805160608401819052600092916080828402860181019285929187019185015b8184101561224e577fffffffffffffffffffffffffffffffffffffffffffffffffffffffffffffff8088860301835261223a858251611d00565b945060019390930192918501918501612200565b50505050930151604092909201919091525090565b60405181810167ffffffffffffffff8111828210171561228257600080fd5b604052919050565b73ffffffffffffffffffffffffffffffffffffffff8116811461198157600080fd5b6122b68282611831565b505056fea264697066735822122045d65b8dc4f999c22f370a214ae0bbfb56ed452b7e409bdc70c3eb06b91b99f164736f6c63430006040033",
  "source": "pragma solidity ^0.6.0;\n\npragma experimental ABIEncoderV2;\n\nimport \"../Governor.sol\";\n\n\n// GovernorTest exposes internal methods in the Governor for testing.\ncontract GovernorTest is Governor {\n    constructor(address _timerAddress) public Governor(address(0), 0, _timerAddress) {}\n\n    function addPrefix(\n        bytes32 input,\n        bytes32 prefix,\n        uint256 prefixLength\n    ) external pure returns (bytes32) {\n        return _addPrefix(input, prefix, prefixLength);\n    }\n\n    function uintToUtf8(uint256 v) external pure returns (bytes32 ret) {\n        return _uintToUtf8(v);\n    }\n\n    function constructIdentifier(uint256 id) external pure returns (bytes32 identifier) {\n        return _constructIdentifier(id);\n    }\n}\n",
  "sourcePath": "/home/alessandrovm/JarvisLavoro/SynFiat/packages/contracts/contracts/uma-contracts/oracle/implementation/test/GovernorTest.sol",
  "compiler": {
    "name": "solc",
    "version": "0.6.4+commit.1dca32f3.Emscripten.clang"
  },
  "schemaVersion": "3.2.5",
  "updatedAt": "2020-09-18T09:03:22.917Z",
  "devdoc": {
    "methods": {
      "addMember(uint256,address)": {
        "details": "Reverts if `roleId` does not represent an initialized, SharedRole or if the caller is not a member of the managing role for `roleId`.",
        "params": {
          "newMember": "the new SharedRole member.",
          "roleId": "the SharedRole membership to modify."
        }
      },
      "executeProposal(uint256,uint256)": {
        "details": "This can be called by any address. Caller is expected to send enough ETH to execute payable transactions.",
        "params": {
          "id": "unique id for the executed proposal.",
          "transactionIndex": "unique transaction index for the executed proposal."
        }
      },
      "getMember(uint256)": {
        "details": "Reverts if `roleId` does not represent an initialized, exclusive role.",
        "params": {
          "roleId": "the ExclusiveRole membership to check."
        },
        "returns": {
          "_0": "the address of the current ExclusiveRole member."
        }
      },
      "getProposal(uint256)": {
        "details": "after a proposal is executed, its data will be zeroed out, except for the request time.",
        "params": {
          "id": "uniquely identify the identity of the proposal."
        },
        "returns": {
          "_0": "proposal struct containing transactions[] and requestTime."
        }
      },
      "holdsRole(uint256,address)": {
        "details": "Reverts if roleId does not correspond to an initialized role.",
        "params": {
          "memberToCheck": "the address to check.",
          "roleId": "the Role to check."
        },
        "returns": {
          "_0": "True if `memberToCheck` is a member of `roleId`."
        }
      },
      "propose((address,uint256,bytes)[])": {
        "details": "You can create the data portion of each transaction by doing the following: ``` const truffleContractInstance = await TruffleContract.deployed() const data = truffleContractInstance.methods.methodToCall(arg1, arg2).encodeABI() ``` Note: this method must be public because of a solidity limitation that disallows structs arrays to be passed to external functions.",
        "params": {
          "transactions": "list of transactions that are being proposed."
        }
      },
      "removeMember(uint256,address)": {
        "details": "Reverts if `roleId` does not represent an initialized, SharedRole or if the caller is not a member of the managing role for `roleId`.",
        "params": {
          "memberToRemove": "the current SharedRole member to remove.",
          "roleId": "the SharedRole membership to modify."
        }
      },
      "renounceMembership(uint256)": {
        "details": "Reverts if the caller is not a member of the role for `roleId` or if `roleId` is not an initialized, SharedRole.",
        "params": {
          "roleId": "the SharedRole membership to modify."
        }
      },
      "resetMember(uint256,address)": {
        "details": "Reverts if the caller is not a member of the managing role for `roleId` or if `roleId` is not an initialized, ExclusiveRole.",
        "params": {
          "newMember": "the new ExclusiveRole member.",
          "roleId": "the ExclusiveRole membership to modify."
        }
      },
      "setCurrentTime(uint256)": {
        "details": "Will revert if not running in test mode.",
        "params": {
          "time": "timestamp to set current Testable time to."
        }
      }
    }
  },
  "userdoc": {
    "methods": {
      "addMember(uint256,address)": {
        "notice": "Adds `newMember` to the shared role, `roleId`."
      },
      "executeProposal(uint256,uint256)": {
        "notice": "Executes a proposed governance action that has been approved by voters."
      },
      "getCurrentTime()": {
        "notice": "Gets the current time. Will return the last time set in `setCurrentTime` if running in test mode. Otherwise, it will return the block timestamp."
      },
      "getMember(uint256)": {
        "notice": "Gets the current holder of the exclusive role, `roleId`."
      },
      "getProposal(uint256)": {
        "notice": "Gets the proposal data for a particular id."
      },
      "holdsRole(uint256,address)": {
        "notice": "Whether `memberToCheck` is a member of roleId."
      },
      "numProposals()": {
        "notice": "Gets the total number of proposals (includes executed and non-executed)."
      },
      "propose((address,uint256,bytes)[])": {
        "notice": "Proposes a new governance action. Can only be called by the holder of the Proposer role."
      },
      "removeMember(uint256,address)": {
        "notice": "Removes `memberToRemove` from the shared role, `roleId`."
      },
      "renounceMembership(uint256)": {
        "notice": "Removes caller from the role, `roleId`."
      },
      "resetMember(uint256,address)": {
        "notice": "Changes the exclusive role holder of `roleId` to `newMember`."
      },
      "setCurrentTime(uint256)": {
        "notice": "Sets the current time."
      }
    }
  }
}