{
  "contractName": "IdentifierWhitelist",
  "abi": [
    {
      "anonymous": false,
      "inputs": [
        {
          "indexed": true,
          "internalType": "address",
          "name": "previousOwner",
          "type": "address"
        },
        {
          "indexed": true,
          "internalType": "address",
          "name": "newOwner",
          "type": "address"
        }
      ],
      "name": "OwnershipTransferred",
      "type": "event"
    },
    {
      "anonymous": false,
      "inputs": [
        {
          "indexed": true,
          "internalType": "bytes32",
          "name": "identifier",
          "type": "bytes32"
        }
      ],
      "name": "SupportedIdentifierAdded",
      "type": "event"
    },
    {
      "anonymous": false,
      "inputs": [
        {
          "indexed": true,
          "internalType": "bytes32",
          "name": "identifier",
          "type": "bytes32"
        }
      ],
      "name": "SupportedIdentifierRemoved",
      "type": "event"
    },
    {
      "inputs": [],
      "name": "isOwner",
      "outputs": [
        {
          "internalType": "bool",
          "name": "",
          "type": "bool"
        }
      ],
      "stateMutability": "view",
      "type": "function"
    },
    {
      "inputs": [],
      "name": "owner",
      "outputs": [
        {
          "internalType": "address",
          "name": "",
          "type": "address"
        }
      ],
      "stateMutability": "view",
      "type": "function"
    },
    {
      "inputs": [],
      "name": "renounceOwnership",
      "outputs": [],
      "stateMutability": "nonpayable",
      "type": "function"
    },
    {
      "inputs": [
        {
          "internalType": "address",
          "name": "newOwner",
          "type": "address"
        }
      ],
      "name": "transferOwnership",
      "outputs": [],
      "stateMutability": "nonpayable",
      "type": "function"
    },
    {
      "inputs": [
        {
          "internalType": "bytes32",
          "name": "identifier",
          "type": "bytes32"
        }
      ],
      "name": "addSupportedIdentifier",
      "outputs": [],
      "stateMutability": "nonpayable",
      "type": "function"
    },
    {
      "inputs": [
        {
          "internalType": "bytes32",
          "name": "identifier",
          "type": "bytes32"
        }
      ],
      "name": "removeSupportedIdentifier",
      "outputs": [],
      "stateMutability": "nonpayable",
      "type": "function"
    },
    {
      "inputs": [
        {
          "internalType": "bytes32",
          "name": "identifier",
          "type": "bytes32"
        }
      ],
      "name": "isIdentifierSupported",
      "outputs": [
        {
          "internalType": "bool",
          "name": "",
          "type": "bool"
        }
      ],
      "stateMutability": "view",
      "type": "function"
    }
  ],
  "bytecode": "0x608060405260006100176001600160e01b0361006616565b600080546001600160a01b0319166001600160a01b0383169081178255604051929350917f8be0079c531659141344cd1fd0a4f28419497f9722a3daafe3b4186f6b6457e0908290a35061006a565b3390565b61065f806100796000396000f3fe608060405234801561001057600080fd5b506004361061007d5760003560e01c80638e0d3ca71161005b5780638e0d3ca7146100da5780638f32d59b146100f757806390978d1b14610113578063f2fde38b146101305761007d565b806310a7e20114610082578063715018a6146100a15780638da5cb5b146100a9575b600080fd5b61009f6004803603602081101561009857600080fd5b5035610163565b005b61009f610251565b6100b1610333565b6040805173ffffffffffffffffffffffffffffffffffffffff9092168252519081900360200190f35b61009f600480360360208110156100f057600080fd5b503561034f565b6100ff610437565b604080519115158252519081900360200190f35b6100ff6004803603602081101561012957600080fd5b5035610475565b61009f6004803603602081101561014657600080fd5b503573ffffffffffffffffffffffffffffffffffffffff1661048a565b61016b610437565b6101d657604080517f08c379a000000000000000000000000000000000000000000000000000000000815260206004820181905260248201527f4f776e61626c653a2063616c6c6572206973206e6f7420746865206f776e6572604482015290519081900360640190fd5b60008181526001602052604090205460ff1661024e57600081815260016020819052604080832080547fffffffffffffffffffffffffffffffffffffffffffffffffffffffffffffff00169092179091555182917fa0ca1076d765c13772089a90b5121cf6ddf63c9f7891c4e5031adbc85936b27691a25b50565b610259610437565b6102c457604080517f08c379a000000000000000000000000000000000000000000000000000000000815260206004820181905260248201527f4f776e61626c653a2063616c6c6572206973206e6f7420746865206f776e6572604482015290519081900360640190fd5b6000805460405173ffffffffffffffffffffffffffffffffffffffff909116907f8be0079c531659141344cd1fd0a4f28419497f9722a3daafe3b4186f6b6457e0908390a3600080547fffffffffffffffffffffffff0000000000000000000000000000000000000000169055565b60005473ffffffffffffffffffffffffffffffffffffffff1690565b610357610437565b6103c257604080517f08c379a000000000000000000000000000000000000000000000000000000000815260206004820181905260248201527f4f776e61626c653a2063616c6c6572206973206e6f7420746865206f776e6572604482015290519081900360640190fd5b60008181526001602052604090205460ff161561024e5760008181526001602052604080822080547fffffffffffffffffffffffffffffffffffffffffffffffffffffffffffffff001690555182917fefdf15ca0f9402bd4e933b0edb0db65b23cc50d27cb010d8abcadaae4fa944e591a250565b6000805473ffffffffffffffffffffffffffffffffffffffff16610459610506565b73ffffffffffffffffffffffffffffffffffffffff1614905090565b60009081526001602052604090205460ff1690565b610492610437565b6104fd57604080517f08c379a000000000000000000000000000000000000000000000000000000000815260206004820181905260248201527f4f776e61626c653a2063616c6c6572206973206e6f7420746865206f776e6572604482015290519081900360640190fd5b61024e8161050a565b3390565b73ffffffffffffffffffffffffffffffffffffffff8116610576576040517f08c379a00000000000000000000000000000000000000000000000000000000081526004018080602001828103825260268152602001806106046026913960400191505060405180910390fd5b6000805460405173ffffffffffffffffffffffffffffffffffffffff808516939216917f8be0079c531659141344cd1fd0a4f28419497f9722a3daafe3b4186f6b6457e091a3600080547fffffffffffffffffffffffff00000000000000000000000000000000000000001673ffffffffffffffffffffffffffffffffffffffff9290921691909117905556fe4f776e61626c653a206e6577206f776e657220697320746865207a65726f2061646472657373a26469706673582212207c6858a9c914f1513fe37a28e652d03e4fd331885f9151c64b4dc2eeed254ba764736f6c63430006040033",
  "source": "pragma solidity ^0.6.0;\n\nimport \"../interfaces/IdentifierWhitelistInterface.sol\";\nimport \"@openzeppelin/contracts/ownership/Ownable.sol\";\n\n\n/**\n * @title Stores a whitelist of supported identifiers that the oracle can provide prices for.\n */\ncontract IdentifierWhitelist is IdentifierWhitelistInterface, Ownable {\n    /****************************************\n     *     INTERNAL VARIABLES AND STORAGE   *\n     ****************************************/\n\n    mapping(bytes32 => bool) private supportedIdentifiers;\n\n    /****************************************\n     *                EVENTS                *\n     ****************************************/\n\n    event SupportedIdentifierAdded(bytes32 indexed identifier);\n    event SupportedIdentifierRemoved(bytes32 indexed identifier);\n\n    /****************************************\n     *    ADMIN STATE MODIFYING FUNCTIONS   *\n     ****************************************/\n\n    /**\n     * @notice Adds the provided identifier as a supported identifier.\n     * @dev Price requests using this identifier will be succeed after this call.\n     * @param identifier uniquely identifies added the identifier. Eg: BTC/UCD.\n     */\n    // TODO(#969) Remove once prettier-plugin-solidity can handle the \"override\" keyword\n    // prettier-ignore\n    function addSupportedIdentifier(bytes32 identifier) external override onlyOwner {\n        if (!supportedIdentifiers[identifier]) {\n            supportedIdentifiers[identifier] = true;\n            emit SupportedIdentifierAdded(identifier);\n        }\n    }\n\n    /**\n     * @notice Removes the identifier from the whitelist.\n     * @dev Price requests using this identifier will no longer succeed after this call.\n     * @param identifier uniquely identifies added the identifier. Eg: BTC/UCD.\n     */\n    // TODO(#969) Remove once prettier-plugin-solidity can handle the \"override\" keyword\n    // prettier-ignore\n    function removeSupportedIdentifier(bytes32 identifier) external override onlyOwner {\n        if (supportedIdentifiers[identifier]) {\n            supportedIdentifiers[identifier] = false;\n            emit SupportedIdentifierRemoved(identifier);\n        }\n    }\n\n    /****************************************\n     *     WHITELIST GETTERS FUNCTIONS      *\n     ****************************************/\n\n    /**\n     * @notice Checks whether an identifier is on the whitelist.\n     * @param identifier uniquely identifies added the identifier. Eg: BTC/UCD.\n     * @return bool if the identifier is supported (or not).\n     */\n    // TODO(#969) Remove once prettier-plugin-solidity can handle the \"override\" keyword\n    // prettier-ignore\n    function isIdentifierSupported(bytes32 identifier) external override view returns (bool) {\n        return supportedIdentifiers[identifier];\n    }\n}\n",
  "sourcePath": "/home/alessandrovm/JarvisLavoro/SynFiat/packages/contracts/contracts/uma-contracts/oracle/implementation/IdentifierWhitelist.sol",
  "compiler": {
    "name": "solc",
    "version": "0.6.4+commit.1dca32f3.Emscripten.clang"
  },
  "schemaVersion": "3.2.0",
  "updatedAt": "2020-08-14T09:32:05.618Z",
  "devdoc": {
    "methods": {
      "addSupportedIdentifier(bytes32)": {
        "details": "Price requests using this identifier will be succeed after this call.",
        "params": {
          "identifier": "uniquely identifies added the identifier. Eg: BTC/UCD."
        }
      },
      "isIdentifierSupported(bytes32)": {
        "params": {
          "identifier": "uniquely identifies added the identifier. Eg: BTC/UCD."
        },
        "returns": {
          "_0": "bool if the identifier is supported (or not)."
        }
      },
      "isOwner()": {
        "details": "Returns true if the caller is the current owner."
      },
      "owner()": {
        "details": "Returns the address of the current owner."
      },
      "removeSupportedIdentifier(bytes32)": {
        "details": "Price requests using this identifier will no longer succeed after this call.",
        "params": {
          "identifier": "uniquely identifies added the identifier. Eg: BTC/UCD."
        }
      },
      "renounceOwnership()": {
        "details": "Leaves the contract without owner. It will not be possible to call `onlyOwner` functions anymore. Can only be called by the current owner.     * NOTE: Renouncing ownership will leave the contract without an owner, thereby removing any functionality that is only available to the owner."
      },
      "transferOwnership(address)": {
        "details": "Transfers ownership of the contract to a new account (`newOwner`). Can only be called by the current owner."
      }
    },
    "title": "Stores a whitelist of supported identifiers that the oracle can provide prices for."
  },
  "userdoc": {
    "methods": {
      "addSupportedIdentifier(bytes32)": {
        "notice": "Adds the provided identifier as a supported identifier."
      },
      "isIdentifierSupported(bytes32)": {
        "notice": "Checks whether an identifier is on the whitelist."
      },
      "removeSupportedIdentifier(bytes32)": {
        "notice": "Removes the identifier from the whitelist."
      }
    }
  }
}