{
  "contractName": "IExpiringMultiParty",
  "abi": [
    {
      "inputs": [],
      "name": "collateralCurrency",
      "outputs": [
        {
          "internalType": "contract IERC20",
          "name": "",
          "type": "address"
        }
      ],
      "stateMutability": "view",
      "type": "function"
    },
    {
      "inputs": [],
      "name": "expiryPrice",
      "outputs": [
        {
          "internalType": "uint256",
          "name": "rawValue",
          "type": "uint256"
        }
      ],
      "stateMutability": "view",
      "type": "function"
    },
    {
      "inputs": [],
      "name": "tokenCurrency",
      "outputs": [
        {
          "internalType": "contract IERC20",
          "name": "",
          "type": "address"
        }
      ],
      "stateMutability": "view",
      "type": "function"
    },
    {
      "inputs": [],
      "name": "totalTokensOutstanding",
      "outputs": [
        {
          "internalType": "uint256",
          "name": "rawValue",
          "type": "uint256"
        }
      ],
      "stateMutability": "view",
      "type": "function"
    },
    {
      "inputs": [
        {
          "components": [
            {
              "internalType": "uint256",
              "name": "rawValue",
              "type": "uint256"
            }
          ],
          "internalType": "struct FixedPoint.Unsigned",
          "name": "collateralAmount",
          "type": "tuple"
        }
      ],
      "name": "requestWithdrawal",
      "outputs": [],
      "stateMutability": "nonpayable",
      "type": "function"
    },
    {
      "inputs": [],
      "name": "withdrawPassedRequest",
      "outputs": [],
      "stateMutability": "nonpayable",
      "type": "function"
    },
    {
      "inputs": [
        {
          "components": [
            {
              "internalType": "uint256",
              "name": "rawValue",
              "type": "uint256"
            }
          ],
          "internalType": "struct FixedPoint.Unsigned",
          "name": "collateralAmount",
          "type": "tuple"
        },
        {
          "components": [
            {
              "internalType": "uint256",
              "name": "rawValue",
              "type": "uint256"
            }
          ],
          "internalType": "struct FixedPoint.Unsigned",
          "name": "numTokens",
          "type": "tuple"
        }
      ],
      "name": "create",
      "outputs": [],
      "stateMutability": "nonpayable",
      "type": "function"
    },
    {
      "inputs": [
        {
          "components": [
            {
              "internalType": "uint256",
              "name": "rawValue",
              "type": "uint256"
            }
          ],
          "internalType": "struct FixedPoint.Unsigned",
          "name": "numTokens",
          "type": "tuple"
        }
      ],
      "name": "redeem",
      "outputs": [],
      "stateMutability": "nonpayable",
      "type": "function"
    },
    {
      "inputs": [],
      "name": "settleExpired",
      "outputs": [],
      "stateMutability": "nonpayable",
      "type": "function"
    },
    {
      "inputs": [],
      "name": "totalPositionCollateral",
      "outputs": [
        {
          "components": [
            {
              "internalType": "uint256",
              "name": "rawValue",
              "type": "uint256"
            }
          ],
          "internalType": "struct FixedPoint.Unsigned",
          "name": "",
          "type": "tuple"
        }
      ],
      "stateMutability": "view",
      "type": "function"
    }
  ],
  "bytecode": "0x608060405234801561001057600080fd5b506102b3806100206000396000f3fe608060405234801561001057600080fd5b50600436106100be5760003560e01c80636ba2f99211610076578063bc1216301161005b578063bc12163014610115578063edfa9a9b14610143578063fcccedc7146100f6576100be565b80636ba2f992146101285780637048594b1461013b576100be565b806333a46ca2116100a757806333a46ca2146100f657806343e4771b146101005780635f1af1ca14610115576100be565b80630c9229ca146100c35780630de15fd9146100e1575b600080fd5b6100cb61014b565b6040516100d89190610274565b60405180910390f35b6100e9610151565b6040516100d89190610249565b6100fe61016d565b005b61010861016f565b6040516100d8919061026a565b6100fe6101233660046101f3565b61017a565b6100fe610136366004610215565b61017d565b6100e9610181565b6100cb61019d565b60005481565b60035473ffffffffffffffffffffffffffffffffffffffff1681565b565b6101776101a3565b90565b50565b5050565b60015473ffffffffffffffffffffffffffffffffffffffff1681565b60025481565b6040518060200160405280600081525090565b6000602082840312156101c7578081fd5b6040516020810181811067ffffffffffffffff821117156101e6578283fd5b6040529135825250919050565b600060208284031215610204578081fd5b61020e83836101b6565b9392505050565b60008060408385031215610227578081fd5b61023184846101b6565b915061024084602085016101b6565b90509250929050565b73ffffffffffffffffffffffffffffffffffffffff91909116815260200190565b9051815260200190565b9081526020019056fea2646970667358221220d467896d787586b1baf36f097bc77c63cbbcf464407db9443999176563c00a4364736f6c63430006040033",
  "source": "pragma solidity ^0.6.0;\npragma experimental ABIEncoderV2;\n\nimport {FixedPoint} from \"./uma-contracts/common/implementation/FixedPoint.sol\";\nimport {IERC20} from \"@openzeppelin/contracts/token/ERC20/IERC20.sol\";\n\ncontract IExpiringMultiParty {\n    using FixedPoint for FixedPoint.Unsigned;\n\n    FixedPoint.Unsigned public totalTokensOutstanding;\n    IERC20 public tokenCurrency;\n    FixedPoint.Unsigned public expiryPrice;\n\n    IERC20 public collateralCurrency;\n\n    function requestWithdrawal(FixedPoint.Unsigned memory collateralAmount) public {}\n    function withdrawPassedRequest() external {}\n    function create(FixedPoint.Unsigned memory collateralAmount, FixedPoint.Unsigned memory numTokens) public {}\n\n    function redeem(FixedPoint.Unsigned memory numTokens) public {}\n    function settleExpired() external {}\n    function totalPositionCollateral() external view returns (FixedPoint.Unsigned memory) {}\n}\n",
  "sourcePath": "/home/alessandrovm/JarvisLavoro/SynFiat/packages/contracts/contracts/IExpiringMultiParty.sol",
  "compiler": {
    "name": "solc",
    "version": "0.6.4+commit.1dca32f3.Emscripten.clang"
  },
  "schemaVersion": "3.2.0",
  "updatedAt": "2020-09-17T18:56:01.566Z",
  "devdoc": {
    "methods": {}
  },
  "userdoc": {
    "methods": {}
  }
}