{
  "contractName": "IExpiringMultiParty",
  "abi": [
    {
      "inputs": [],
      "name": "collateralCurrency",
      "outputs": [
        {
          "internalType": "contract IERC20",
          "name": "",
          "type": "address"
        }
      ],
      "stateMutability": "view",
      "type": "function"
    },
    {
      "inputs": [],
      "name": "expiryPrice",
      "outputs": [
        {
          "internalType": "uint256",
          "name": "rawValue",
          "type": "uint256"
        }
      ],
      "stateMutability": "view",
      "type": "function"
    },
    {
      "inputs": [],
      "name": "tokenCurrency",
      "outputs": [
        {
          "internalType": "contract IERC20",
          "name": "",
          "type": "address"
        }
      ],
      "stateMutability": "view",
      "type": "function"
    },
    {
      "inputs": [],
      "name": "totalTokensOutstanding",
      "outputs": [
        {
          "internalType": "uint256",
          "name": "rawValue",
          "type": "uint256"
        }
      ],
      "stateMutability": "view",
      "type": "function"
    },
    {
      "inputs": [
        {
          "components": [
            {
              "internalType": "uint256",
              "name": "rawValue",
              "type": "uint256"
            }
          ],
          "internalType": "struct FixedPoint.Unsigned",
          "name": "collateralAmount",
          "type": "tuple"
        }
      ],
      "name": "requestWithdrawal",
      "outputs": [],
      "stateMutability": "nonpayable",
      "type": "function"
    },
    {
      "inputs": [],
      "name": "withdrawPassedRequest",
      "outputs": [],
      "stateMutability": "nonpayable",
      "type": "function"
    },
    {
      "inputs": [
        {
          "components": [
            {
              "internalType": "uint256",
              "name": "rawValue",
              "type": "uint256"
            }
          ],
          "internalType": "struct FixedPoint.Unsigned",
          "name": "collateralAmount",
          "type": "tuple"
        },
        {
          "components": [
            {
              "internalType": "uint256",
              "name": "rawValue",
              "type": "uint256"
            }
          ],
          "internalType": "struct FixedPoint.Unsigned",
          "name": "numTokens",
          "type": "tuple"
        }
      ],
      "name": "create",
      "outputs": [],
      "stateMutability": "nonpayable",
      "type": "function"
    },
    {
      "inputs": [
        {
          "components": [
            {
              "internalType": "uint256",
              "name": "rawValue",
              "type": "uint256"
            }
          ],
          "internalType": "struct FixedPoint.Unsigned",
          "name": "numTokens",
          "type": "tuple"
        }
      ],
      "name": "redeem",
      "outputs": [],
      "stateMutability": "nonpayable",
      "type": "function"
    },
    {
      "inputs": [],
      "name": "settleExpired",
      "outputs": [],
      "stateMutability": "nonpayable",
      "type": "function"
    },
    {
      "inputs": [],
      "name": "totalPositionCollateral",
      "outputs": [
        {
          "components": [
            {
              "internalType": "uint256",
              "name": "rawValue",
              "type": "uint256"
            }
          ],
          "internalType": "struct FixedPoint.Unsigned",
          "name": "",
          "type": "tuple"
        }
      ],
      "stateMutability": "view",
      "type": "function"
    }
  ],
  "bytecode": "0x608060405234801561001057600080fd5b5061026c806100206000396000f3fe608060405234801561001057600080fd5b506004361061009e5760003560e01c80636ba2f992116100665780636ba2f992146101085780637048594b1461011b578063bc121630146100f5578063edfa9a9b14610123578063fcccedc7146100d65761009e565b80630c9229ca146100a35780630de15fd9146100c157806333a46ca2146100d657806343e4771b146100e05780635f1af1ca146100f5575b600080fd5b6100ab61012b565b6040516100b8919061022d565b60405180910390f35b6100c9610131565b6040516100b8919061020f565b6100de610140565b005b6100e8610142565b6040516100b89190610223565b6100de6101033660046101b9565b61014d565b6100de6101163660046101db565b610150565b6100c9610154565b6100ab610163565b60005481565b6003546001600160a01b031681565b565b61014a610169565b90565b50565b5050565b6001546001600160a01b031681565b60025481565b6040518060200160405280600081525090565b60006020828403121561018d578081fd5b6040516020810181811067ffffffffffffffff821117156101ac578283fd5b6040529135825250919050565b6000602082840312156101ca578081fd5b6101d4838361017c565b9392505050565b600080604083850312156101ed578081fd5b6101f7848461017c565b9150610206846020850161017c565b90509250929050565b6001600160a01b0391909116815260200190565b9051815260200190565b9081526020019056fea26469706673582212202c0afa00d25cd44972ea315bbe385fea43f5f6e93e5b206ef9724d1cf33c320b64736f6c63430006040033",
  "source": "pragma solidity ^0.6.0;\npragma experimental ABIEncoderV2;\n\nimport {FixedPoint} from \"./uma-contracts/common/implementation/FixedPoint.sol\";\nimport {IERC20} from \"@openzeppelin/contracts/token/ERC20/IERC20.sol\";\n\ncontract IExpiringMultiParty {\n    using FixedPoint for FixedPoint.Unsigned;\n\n    FixedPoint.Unsigned public totalTokensOutstanding;\n    IERC20 public tokenCurrency;\n    FixedPoint.Unsigned public expiryPrice;\n\n    IERC20 public collateralCurrency;\n\n    function requestWithdrawal(FixedPoint.Unsigned memory collateralAmount) public {}\n    function withdrawPassedRequest() external {}\n    function create(FixedPoint.Unsigned memory collateralAmount, FixedPoint.Unsigned memory numTokens) public {}\n\n    function redeem(FixedPoint.Unsigned memory numTokens) public {}\n    function settleExpired() external {}\n    function totalPositionCollateral() external view returns (FixedPoint.Unsigned memory) {}\n}\n",
  "sourcePath": "/home/opz/Projects/SynFiat/contracts/IExpiringMultiParty.sol",
  "compiler": {
    "name": "solc",
    "version": "0.6.4+commit.1dca32f3.Emscripten.clang"
  },
  "schemaVersion": "3.2.0",
  "updatedAt": "2020-06-01T04:24:41.721Z",
  "devdoc": {
    "methods": {}
  },
  "userdoc": {
    "methods": {}
  }
}