{
  "contractName": "LeveragedReturnCalculator",
  "abi": [
    {
      "inputs": [
        {
          "internalType": "int256",
          "name": "_leverageMultiplier",
          "type": "int256"
        }
      ],
      "stateMutability": "nonpayable",
      "type": "constructor"
    },
    {
      "inputs": [
        {
          "internalType": "uint256",
          "name": "roleId",
          "type": "uint256"
        },
        {
          "internalType": "address",
          "name": "newMember",
          "type": "address"
        }
      ],
      "name": "addMember",
      "outputs": [],
      "stateMutability": "nonpayable",
      "type": "function"
    },
    {
      "inputs": [
        {
          "internalType": "uint256",
          "name": "roleId",
          "type": "uint256"
        }
      ],
      "name": "getMember",
      "outputs": [
        {
          "internalType": "address",
          "name": "",
          "type": "address"
        }
      ],
      "stateMutability": "view",
      "type": "function"
    },
    {
      "inputs": [
        {
          "internalType": "uint256",
          "name": "roleId",
          "type": "uint256"
        },
        {
          "internalType": "address",
          "name": "memberToCheck",
          "type": "address"
        }
      ],
      "name": "holdsRole",
      "outputs": [
        {
          "internalType": "bool",
          "name": "",
          "type": "bool"
        }
      ],
      "stateMutability": "view",
      "type": "function"
    },
    {
      "inputs": [
        {
          "internalType": "uint256",
          "name": "roleId",
          "type": "uint256"
        },
        {
          "internalType": "address",
          "name": "memberToRemove",
          "type": "address"
        }
      ],
      "name": "removeMember",
      "outputs": [],
      "stateMutability": "nonpayable",
      "type": "function"
    },
    {
      "inputs": [
        {
          "internalType": "uint256",
          "name": "roleId",
          "type": "uint256"
        },
        {
          "internalType": "address",
          "name": "newMember",
          "type": "address"
        }
      ],
      "name": "resetMember",
      "outputs": [],
      "stateMutability": "nonpayable",
      "type": "function"
    },
    {
      "inputs": [
        {
          "internalType": "uint256",
          "name": "amount",
          "type": "uint256"
        }
      ],
      "name": "withdraw",
      "outputs": [],
      "stateMutability": "nonpayable",
      "type": "function"
    },
    {
      "inputs": [
        {
          "internalType": "address",
          "name": "erc20Address",
          "type": "address"
        },
        {
          "internalType": "uint256",
          "name": "amount",
          "type": "uint256"
        }
      ],
      "name": "withdrawErc20",
      "outputs": [],
      "stateMutability": "nonpayable",
      "type": "function"
    },
    {
      "inputs": [
        {
          "internalType": "int256",
          "name": "oldPrice",
          "type": "int256"
        },
        {
          "internalType": "int256",
          "name": "newPrice",
          "type": "int256"
        }
      ],
      "name": "computeReturn",
      "outputs": [
        {
          "internalType": "int256",
          "name": "assetReturn",
          "type": "int256"
        }
      ],
      "stateMutability": "view",
      "type": "function"
    },
    {
      "inputs": [],
      "name": "leverage",
      "outputs": [
        {
          "internalType": "int256",
          "name": "_leverage",
          "type": "int256"
        }
      ],
      "stateMutability": "view",
      "type": "function"
    }
  ],
  "bytecode": "0x60806040523480156200001157600080fd5b50604051620011f0380380620011f0833981810160405260208110156200003757600080fd5b5051806200004457600080fd5b600281905562000060600080336001600160e01b036200007f16565b6200007860016000336001600160e01b036200019a16565b5062000237565b826000808281526020819052604090206001015460ff166002811115620000a257fe5b14620000f5576040805162461bcd60e51b815260206004820152601e60248201527f43616e6e6f74207573652061207072652d6578697374696e6720726f6c650000604482015290519081900360640190fd5b60008481526020819052604090206001808201805460ff191682800217905550838155620001336002820184620001ba602090811b62000dd617901c565b60008481526020819052604081206001015460ff1660028111156200015457fe5b1415620001935760405162461bcd60e51b815260040180806020018281038252603c81526020018062001191603c913960400191505060405180910390fd5b5050505050565b6001839055620001b58383836001600160e01b036200007f16565b505050565b620001cf82826001600160e01b03620001d316565b5050565b6001600160a01b0381166200021a5760405162461bcd60e51b8152600401808060200182810382526023815260200180620011cd6023913960400191505060405180910390fd5b81546001600160a01b0319166001600160a01b0391909116179055565b610f4a80620002476000396000f3fe608060405234801561001057600080fd5b50600436106100a35760003560e01c806374d0a67611610076578063ab3545e51161005b578063ab3545e5146101c3578063bd1f4b5214610209578063d97c05be14610242576100a3565b806374d0a6761461013d5780637cdc1cb914610176576100a3565b80632c86d98e146100a85780632e1a7d4d146100c257806355e59682146100e15780636be7658b14610104575b600080fd5b6100b061027b565b60408051918252519081900360200190f35b6100df600480360360208110156100d857600080fd5b5035610281565b005b6100b0600480360360408110156100f757600080fd5b5080359060200135610315565b6100df6004803603604081101561011a57600080fd5b508035906020013573ffffffffffffffffffffffffffffffffffffffff166103c2565b6100df6004803603604081101561015357600080fd5b508035906020013573ffffffffffffffffffffffffffffffffffffffff166104d2565b6101af6004803603604081101561018c57600080fd5b508035906020013573ffffffffffffffffffffffffffffffffffffffff166105dc565b604080519115158252519081900360200190f35b6101e0600480360360208110156101d957600080fd5b50356106b4565b6040805173ffffffffffffffffffffffffffffffffffffffff9092168252519081900360200190f35b6100df6004803603604081101561021f57600080fd5b5073ffffffffffffffffffffffffffffffffffffffff8135169060200135610750565b6100df6004803603604081101561025857600080fd5b508035906020013573ffffffffffffffffffffffffffffffffffffffff1661085f565b60025490565b60015461028e81336105dc565b6102e3576040517f08c379a0000000000000000000000000000000000000000000000000000000008152600401808060200182810382526022815260200180610e616022913960400191505060405180910390fd5b604051339083156108fc029084906000818181858888f19350505050158015610310573d6000803e3d6000fd5b505050565b600082610324575060006103bc565b600061034e8461034285670de0b6b3a764000063ffffffff61096916565b9063ffffffff610a8016565b60025490915061037c9061037083670de0b6b3a764000063ffffffff610ba616565b9063ffffffff61096916565b915060008412156103ba576103b7827fffffffffffffffffffffffffffffffffffffffffffffffffffffffffffffffff63ffffffff61096916565b91505b505b92915050565b81600260008281526020819052604090206001015460ff1660028111156103e557fe5b1461043b576040517f08c379a000000000000000000000000000000000000000000000000000000000815260040180806020018281038252602c815260200180610e14602c913960400191505060405180910390fd5b600083815260208190526040902054839061045690336105dc565b6104ab576040517f08c379a0000000000000000000000000000000000000000000000000000000008152600401808060200182810382526024815260200180610ecd6024913960400191505060405180910390fd5b60008481526020819052604090206104cc906003018463ffffffff610c2516565b50505050565b81600260008281526020819052604090206001015460ff1660028111156104f557fe5b1461054b576040517f08c379a000000000000000000000000000000000000000000000000000000000815260040180806020018281038252602c815260200180610e14602c913960400191505060405180910390fd5b600083815260208190526040902054839061056690336105dc565b6105bb576040517f08c379a0000000000000000000000000000000000000000000000000000000008152600401808060200182810382526024815260200180610ecd6024913960400191505060405180910390fd5b60008481526020819052604090206104cc906003018463ffffffff610c7216565b600082815260208190526040812060018082015460ff1660028111156105fe57fe5b141561061f57610617600282018463ffffffff610cc216565b9150506103bc565b6002600182015460ff16600281111561063457fe5b141561064d57610617600382018463ffffffff610ce216565b604080517f08c379a000000000000000000000000000000000000000000000000000000000815260206004820152600e60248201527f496e76616c696420726f6c654964000000000000000000000000000000000000604482015290519081900360640190fd5b600081600160008281526020819052604090206001015460ff1660028111156106d957fe5b1461072f576040517f08c379a000000000000000000000000000000000000000000000000000000000815260040180806020018281038252602f815260200180610de5602f913960400191505060405180910390fd5b600083815260208190526040902061074990600201610d0e565b9392505050565b60015461075d81336105dc565b6107b2576040517f08c379a0000000000000000000000000000000000000000000000000000000008152600401808060200182810382526022815260200180610e616022913960400191505060405180910390fd5b604080517fa9059cbb000000000000000000000000000000000000000000000000000000008152336004820152602481018490529051849173ffffffffffffffffffffffffffffffffffffffff83169163a9059cbb916044808201926020929091908290030181600087803b15801561082a57600080fd5b505af115801561083e573d6000803e3d6000fd5b505050506040513d602081101561085457600080fd5b50516104cc57600080fd5b81600160008281526020819052604090206001015460ff16600281111561088257fe5b146108d8576040517f08c379a000000000000000000000000000000000000000000000000000000000815260040180806020018281038252602f815260200180610de5602f913960400191505060405180910390fd5b60008381526020819052604090205483906108f390336105dc565b610948576040517f08c379a0000000000000000000000000000000000000000000000000000000008152600401808060200182810382526024815260200180610ecd6024913960400191505060405180910390fd5b60008481526020819052604090206104cc906002018463ffffffff610d2816565b600082610978575060006103bc565b827fffffffffffffffffffffffffffffffffffffffffffffffffffffffffffffffff1480156109c657507f800000000000000000000000000000000000000000000000000000000000000082145b15610a1c576040517f08c379a0000000000000000000000000000000000000000000000000000000008152600401808060200182810382526027815260200180610e836027913960400191505060405180910390fd5b82820282848281610a2957fe5b0514610749576040517f08c379a0000000000000000000000000000000000000000000000000000000008152600401808060200182810382526027815260200180610e836027913960400191505060405180910390fd5b600081610aee57604080517f08c379a000000000000000000000000000000000000000000000000000000000815260206004820181905260248201527f5369676e6564536166654d6174683a206469766973696f6e206279207a65726f604482015290519081900360640190fd5b817fffffffffffffffffffffffffffffffffffffffffffffffffffffffffffffffff148015610b3c57507f800000000000000000000000000000000000000000000000000000000000000083145b15610b92576040517f08c379a0000000000000000000000000000000000000000000000000000000008152600401808060200182810382526021815260200180610e406021913960400191505060405180910390fd5b6000828481610b9d57fe5b05949350505050565b6000818303818312801590610bbb5750838113155b80610bd05750600083128015610bd057508381135b610749576040517f08c379a0000000000000000000000000000000000000000000000000000000008152600401808060200182810382526024815260200180610ef16024913960400191505060405180910390fd5b73ffffffffffffffffffffffffffffffffffffffff1660009081526020919091526040902080547fffffffffffffffffffffffffffffffffffffffffffffffffffffffffffffff00169055565b73ffffffffffffffffffffffffffffffffffffffff1660009081526020919091526040902080547fffffffffffffffffffffffffffffffffffffffffffffffffffffffffffffff00166001179055565b905473ffffffffffffffffffffffffffffffffffffffff91821691161490565b73ffffffffffffffffffffffffffffffffffffffff166000908152602091909152604090205460ff1690565b5473ffffffffffffffffffffffffffffffffffffffff1690565b73ffffffffffffffffffffffffffffffffffffffff8116610d94576040517f08c379a0000000000000000000000000000000000000000000000000000000008152600401808060200182810382526023815260200180610eaa6023913960400191505060405180910390fd5b81547fffffffffffffffffffffffff00000000000000000000000000000000000000001673ffffffffffffffffffffffffffffffffffffffff91909116179055565b610de08282610d28565b505056fe4d7573742062652063616c6c6564206f6e20616e20696e697469616c697a6564204578636c757369766520726f6c654d7573742062652063616c6c6564206f6e20616e20696e697469616c697a65642053686172656420726f6c655369676e6564536166654d6174683a206469766973696f6e206f766572666c6f7753656e64657220646f6573206e6f7420686f6c6420726571756972656420726f6c655369676e6564536166654d6174683a206d756c7469706c69636174696f6e206f766572666c6f7743616e6e6f742073657420616e206578636c757369766520726f6c6520746f2030783043616e206f6e6c792062652063616c6c6564206279206120726f6c65206d616e616765725369676e6564536166654d6174683a207375627472616374696f6e206f766572666c6f77a264697066735822122035bb634de1e85988b9a2498f8d91403a2f5961c832f4a669baa8fb9568d17f5d64736f6c63430006040033417474656d7074656420746f2075736520616e20696e76616c696420726f6c6520746f206d616e61676520616e206578636c757369766520726f6c6543616e6e6f742073657420616e206578636c757369766520726f6c6520746f20307830",
  "source": "pragma solidity ^0.6.0;\n\nimport \"./ReturnCalculatorInterface.sol\";\nimport \"../common/implementation/Withdrawable.sol\";\nimport \"@openzeppelin/contracts/drafts/SignedSafeMath.sol\";\n\n\n/**\n * @title Computes return values based on a fixed leverage.\n */\ncontract LeveragedReturnCalculator is ReturnCalculatorInterface, Withdrawable {\n    using SignedSafeMath for int;\n\n    // Leverage value. Negative values return the leveraged short return.\n    // Examples:\n    // 1 -> unlevered long\n    // 2 -> 2x levered long\n    // -1 -> unlevered short\n    // -2 -> 2x levered short\n    int internal leverageMultiplier;\n    int private constant FP_SCALING_FACTOR = 10**18;\n\n    enum Roles { Governance, Withdraw }\n\n    constructor(int _leverageMultiplier) public {\n        require(_leverageMultiplier != 0);\n        leverageMultiplier = _leverageMultiplier;\n        _createExclusiveRole(uint(Roles.Governance), uint(Roles.Governance), msg.sender);\n        createWithdrawRole(uint(Roles.Withdraw), uint(Roles.Governance), msg.sender);\n    }\n\n    // TODO(#969) Remove once prettier-plugin-solidity can handle the \"override\" keyword\n    // prettier-ignore\n    function computeReturn(int oldPrice, int newPrice) external override view returns (int assetReturn) {\n        if (oldPrice == 0) {\n            // To avoid a divide-by-zero, just return 0 instead of hitting an exception.\n            return 0;\n        }\n\n        // Compute the underlying asset return: +1% would be 1.01 (* 1 ether).\n        int underlyingAssetReturn = newPrice.mul(FP_SCALING_FACTOR).div(oldPrice);\n\n        // Compute the RoR of the underlying asset and multiply by leverageMultiplier to get the modified return.\n        assetReturn = underlyingAssetReturn.sub(FP_SCALING_FACTOR).mul(leverageMultiplier);\n\n        // If oldPrice is < 0, we need to flip the sign to keep returns positively correlated with\n        // leverageMultiplier * price diffs.\n        if (oldPrice < 0) {\n            assetReturn = assetReturn.mul(-1);\n        }\n    }\n\n    // TODO(#969) Remove once prettier-plugin-solidity can handle the \"override\" keyword\n    // prettier-ignore\n    function leverage() external override view returns (int _leverage) {\n        return leverageMultiplier;\n    }\n}\n",
  "sourcePath": "/home/alessandrovm/JarvisLavoro/SynFiat/packages/contracts/contracts/uma-contracts/tokenized-derivative/LeveragedReturnCalculator.sol",
  "compiler": {
    "name": "solc",
    "version": "0.6.4+commit.1dca32f3.Emscripten.clang"
  },
  "schemaVersion": "3.2.0",
  "updatedAt": "2020-08-14T09:32:05.680Z",
  "devdoc": {
    "methods": {
      "addMember(uint256,address)": {
        "details": "Reverts if `roleId` does not represent an initialized, shared role or if the caller is not a member of the managing role for `roleId`."
      },
      "getMember(uint256)": {
        "details": "Reverts if `roleId` does not represent an initialized, exclusive role."
      },
      "holdsRole(uint256,address)": {
        "details": "Reverts if roleId does not correspond to an initialized role."
      },
      "removeMember(uint256,address)": {
        "details": "Reverts if `roleId` does not represent an initialized, shared role or if the caller is not a member of the managing role for `roleId`."
      },
      "resetMember(uint256,address)": {
        "details": "Reverts if the caller is not a member of the managing role for `roleId` or if `roleId` is not an initialized, exclusive role."
      }
    },
    "title": "Computes return values based on a fixed leverage."
  },
  "userdoc": {
    "methods": {
      "addMember(uint256,address)": {
        "notice": "Adds `newMember` to the shared role, `roleId`."
      },
      "getMember(uint256)": {
        "notice": "Gets the current holder of the exclusive role, `roleId`."
      },
      "holdsRole(uint256,address)": {
        "notice": "Whether `memberToCheck` is a member of roleId."
      },
      "removeMember(uint256,address)": {
        "notice": "Removes `memberToRemove` from the shared role, `roleId`."
      },
      "resetMember(uint256,address)": {
        "notice": "Changes the exclusive role holder of `roleId` to `newMember`."
      },
      "withdraw(uint256)": {
        "notice": "Withdraws ETH from the contract."
      },
      "withdrawErc20(address,uint256)": {
        "notice": "Withdraws ERC20 tokens from the contract."
      }
    }
  }
}