{
  "contractName": "LeveragedReturnCalculator",
  "abi": [
    {
      "inputs": [
        {
          "internalType": "int256",
          "name": "_leverageMultiplier",
          "type": "int256"
        }
      ],
      "stateMutability": "nonpayable",
      "type": "constructor"
    },
    {
      "inputs": [
        {
          "internalType": "uint256",
          "name": "roleId",
          "type": "uint256"
        },
        {
          "internalType": "address",
          "name": "newMember",
          "type": "address"
        }
      ],
      "name": "addMember",
      "outputs": [],
      "stateMutability": "nonpayable",
      "type": "function"
    },
    {
      "inputs": [
        {
          "internalType": "uint256",
          "name": "roleId",
          "type": "uint256"
        }
      ],
      "name": "getMember",
      "outputs": [
        {
          "internalType": "address",
          "name": "",
          "type": "address"
        }
      ],
      "stateMutability": "view",
      "type": "function"
    },
    {
      "inputs": [
        {
          "internalType": "uint256",
          "name": "roleId",
          "type": "uint256"
        },
        {
          "internalType": "address",
          "name": "memberToCheck",
          "type": "address"
        }
      ],
      "name": "holdsRole",
      "outputs": [
        {
          "internalType": "bool",
          "name": "",
          "type": "bool"
        }
      ],
      "stateMutability": "view",
      "type": "function"
    },
    {
      "inputs": [
        {
          "internalType": "uint256",
          "name": "roleId",
          "type": "uint256"
        },
        {
          "internalType": "address",
          "name": "memberToRemove",
          "type": "address"
        }
      ],
      "name": "removeMember",
      "outputs": [],
      "stateMutability": "nonpayable",
      "type": "function"
    },
    {
      "inputs": [
        {
          "internalType": "uint256",
          "name": "roleId",
          "type": "uint256"
        },
        {
          "internalType": "address",
          "name": "newMember",
          "type": "address"
        }
      ],
      "name": "resetMember",
      "outputs": [],
      "stateMutability": "nonpayable",
      "type": "function"
    },
    {
      "inputs": [
        {
          "internalType": "uint256",
          "name": "amount",
          "type": "uint256"
        }
      ],
      "name": "withdraw",
      "outputs": [],
      "stateMutability": "nonpayable",
      "type": "function"
    },
    {
      "inputs": [
        {
          "internalType": "address",
          "name": "erc20Address",
          "type": "address"
        },
        {
          "internalType": "uint256",
          "name": "amount",
          "type": "uint256"
        }
      ],
      "name": "withdrawErc20",
      "outputs": [],
      "stateMutability": "nonpayable",
      "type": "function"
    },
    {
      "inputs": [
        {
          "internalType": "int256",
          "name": "oldPrice",
          "type": "int256"
        },
        {
          "internalType": "int256",
          "name": "newPrice",
          "type": "int256"
        }
      ],
      "name": "computeReturn",
      "outputs": [
        {
          "internalType": "int256",
          "name": "assetReturn",
          "type": "int256"
        }
      ],
      "stateMutability": "view",
      "type": "function"
    },
    {
      "inputs": [],
      "name": "leverage",
      "outputs": [
        {
          "internalType": "int256",
          "name": "_leverage",
          "type": "int256"
        }
      ],
      "stateMutability": "view",
      "type": "function"
    }
  ],
  "bytecode": "0x608060405234801561001057600080fd5b5060405162000e8438038062000e848339818101604052602081101561003557600080fd5b50518061004157600080fd5b600281905561005b600080336001600160e01b0361007716565b61007160016000336001600160e01b0361018b16565b50610223565b826000808281526020819052604090206001015460ff16600281111561009957fe5b146100eb576040805162461bcd60e51b815260206004820152601e60248201527f43616e6e6f74207573652061207072652d6578697374696e6720726f6c650000604482015290519081900360640190fd5b60008481526020819052604090206001808201805460ff19168280021790555083815561012660028201846101a9602090811b610a7e17901c565b60008481526020819052604081206001015460ff16600281111561014657fe5b14156101845760405162461bcd60e51b815260040180806020018281038252603c81526020018062000e25603c913960400191505060405180910390fd5b5050505050565b60018390556101a48383836001600160e01b0361007716565b505050565b6101bc82826001600160e01b036101c016565b5050565b6001600160a01b0381166102065760405162461bcd60e51b815260040180806020018281038252602381526020018062000e616023913960400191505060405180910390fd5b81546001600160a01b0319166001600160a01b0391909116179055565b610bf280620002336000396000f3fe608060405234801561001057600080fd5b50600436106100935760003560e01c806374d0a6761161006657806374d0a676146101205780637cdc1cb91461014c578063ab3545e51461018c578063bd1f4b52146101c5578063d97c05be146101f157610093565b80632c86d98e146100985780632e1a7d4d146100b257806355e59682146100d15780636be7658b146100f4575b600080fd5b6100a061021d565b60408051918252519081900360200190f35b6100cf600480360360208110156100c857600080fd5b5035610223565b005b6100a0600480360360408110156100e757600080fd5b508035906020013561029d565b6100cf6004803603604081101561010a57600080fd5b50803590602001356001600160a01b031661032c565b6100cf6004803603604081101561013657600080fd5b50803590602001356001600160a01b0316610408565b6101786004803603604081101561016257600080fd5b50803590602001356001600160a01b03166104de565b604080519115158252519081900360200190f35b6101a9600480360360208110156101a257600080fd5b503561059c565b604080516001600160a01b039092168252519081900360200190f35b6100cf600480360360408110156101db57600080fd5b506001600160a01b03813516906020013561061e565b6100cf6004803603604081101561020757600080fd5b50803590602001356001600160a01b03166106ed565b60025490565b60015461023081336104de565b61026b5760405162461bcd60e51b8152600401808060200182810382526022815260200180610b096022913960400191505060405180910390fd5b604051339083156108fc029084906000818181858888f19350505050158015610298573d6000803e3d6000fd5b505050565b6000826102ac57506000610326565b60006102d6846102ca85670de0b6b3a764000063ffffffff6107c316565b9063ffffffff61086c16565b600254909150610304906102f883670de0b6b3a764000063ffffffff61092416565b9063ffffffff6107c316565b91506000841215610324576103218260001963ffffffff6107c316565b91505b505b92915050565b81600260008281526020819052604090206001015460ff16600281111561034f57fe5b1461038b5760405162461bcd60e51b815260040180806020018281038252602c815260200180610abc602c913960400191505060405180910390fd5b60008381526020819052604090205483906103a690336104de565b6103e15760405162461bcd60e51b8152600401808060200182810382526024815260200180610b756024913960400191505060405180910390fd5b6000848152602081905260409020610402906003018463ffffffff61098916565b50505050565b81600260008281526020819052604090206001015460ff16600281111561042b57fe5b146104675760405162461bcd60e51b815260040180806020018281038252602c815260200180610abc602c913960400191505060405180910390fd5b600083815260208190526040902054839061048290336104de565b6104bd5760405162461bcd60e51b8152600401808060200182810382526024815260200180610b756024913960400191505060405180910390fd5b6000848152602081905260409020610402906003018463ffffffff6109ab16565b600082815260208190526040812060018082015460ff16600281111561050057fe5b141561052157610519600282018463ffffffff6109d016565b915050610326565b6002600182015460ff16600281111561053657fe5b141561054f57610519600382018463ffffffff6109e316565b6040805162461bcd60e51b815260206004820152600e60248201527f496e76616c696420726f6c654964000000000000000000000000000000000000604482015290519081900360640190fd5b600081600160008281526020819052604090206001015460ff1660028111156105c157fe5b146105fd5760405162461bcd60e51b815260040180806020018281038252602f815260200180610a8d602f913960400191505060405180910390fd5b600083815260208190526040902061061790600201610a02565b9392505050565b60015461062b81336104de565b6106665760405162461bcd60e51b8152600401808060200182810382526022815260200180610b096022913960400191505060405180910390fd5b6040805163a9059cbb60e01b815233600482015260248101849052905184916001600160a01b0383169163a9059cbb916044808201926020929091908290030181600087803b1580156106b857600080fd5b505af11580156106cc573d6000803e3d6000fd5b505050506040513d60208110156106e257600080fd5b505161040257600080fd5b81600160008281526020819052604090206001015460ff16600281111561071057fe5b1461074c5760405162461bcd60e51b815260040180806020018281038252602f815260200180610a8d602f913960400191505060405180910390fd5b600083815260208190526040902054839061076790336104de565b6107a25760405162461bcd60e51b8152600401808060200182810382526024815260200180610b756024913960400191505060405180910390fd5b6000848152602081905260409020610402906002018463ffffffff610a0f16565b6000826107d257506000610326565b826000191480156107e65750600160ff1b82145b156108225760405162461bcd60e51b8152600401808060200182810382526027815260200180610b2b6027913960400191505060405180910390fd5b8282028284828161082f57fe5b05146106175760405162461bcd60e51b8152600401808060200182810382526027815260200180610b2b6027913960400191505060405180910390fd5b6000816108c0576040805162461bcd60e51b815260206004820181905260248201527f5369676e6564536166654d6174683a206469766973696f6e206279207a65726f604482015290519081900360640190fd5b816000191480156108d45750600160ff1b83145b156109105760405162461bcd60e51b8152600401808060200182810382526021815260200180610ae86021913960400191505060405180910390fd5b600082848161091b57fe5b05949350505050565b60008183038183128015906109395750838113155b8061094e575060008312801561094e57508381135b6106175760405162461bcd60e51b8152600401808060200182810382526024815260200180610b996024913960400191505060405180910390fd5b6001600160a01b0316600090815260209190915260409020805460ff19169055565b6001600160a01b0316600090815260209190915260409020805460ff19166001179055565b90546001600160a01b0391821691161490565b6001600160a01b03166000908152602091909152604090205460ff1690565b546001600160a01b031690565b6001600160a01b038116610a545760405162461bcd60e51b8152600401808060200182810382526023815260200180610b526023913960400191505060405180910390fd5b815473ffffffffffffffffffffffffffffffffffffffff19166001600160a01b0391909116179055565b610a888282610a0f565b505056fe4d7573742062652063616c6c6564206f6e20616e20696e697469616c697a6564204578636c757369766520726f6c654d7573742062652063616c6c6564206f6e20616e20696e697469616c697a65642053686172656420726f6c655369676e6564536166654d6174683a206469766973696f6e206f766572666c6f7753656e64657220646f6573206e6f7420686f6c6420726571756972656420726f6c655369676e6564536166654d6174683a206d756c7469706c69636174696f6e206f766572666c6f7743616e6e6f742073657420616e206578636c757369766520726f6c6520746f2030783043616e206f6e6c792062652063616c6c6564206279206120726f6c65206d616e616765725369676e6564536166654d6174683a207375627472616374696f6e206f766572666c6f77a2646970667358221220376be330e4794511b5b7d8685954e794dc3896915825c7256fe87e2815661c6764736f6c63430006040033417474656d7074656420746f2075736520616e20696e76616c696420726f6c6520746f206d616e61676520616e206578636c757369766520726f6c6543616e6e6f742073657420616e206578636c757369766520726f6c6520746f20307830",
  "source": "pragma solidity ^0.6.0;\n\nimport \"./ReturnCalculatorInterface.sol\";\nimport \"../common/implementation/Withdrawable.sol\";\nimport \"@openzeppelin/contracts/drafts/SignedSafeMath.sol\";\n\n\n/**\n * @title Computes return values based on a fixed leverage.\n */\ncontract LeveragedReturnCalculator is ReturnCalculatorInterface, Withdrawable {\n    using SignedSafeMath for int;\n\n    // Leverage value. Negative values return the leveraged short return.\n    // Examples:\n    // 1 -> unlevered long\n    // 2 -> 2x levered long\n    // -1 -> unlevered short\n    // -2 -> 2x levered short\n    int internal leverageMultiplier;\n    int private constant FP_SCALING_FACTOR = 10**18;\n\n    enum Roles { Governance, Withdraw }\n\n    constructor(int _leverageMultiplier) public {\n        require(_leverageMultiplier != 0);\n        leverageMultiplier = _leverageMultiplier;\n        _createExclusiveRole(uint(Roles.Governance), uint(Roles.Governance), msg.sender);\n        createWithdrawRole(uint(Roles.Withdraw), uint(Roles.Governance), msg.sender);\n    }\n\n    // TODO(#969) Remove once prettier-plugin-solidity can handle the \"override\" keyword\n    // prettier-ignore\n    function computeReturn(int oldPrice, int newPrice) external override view returns (int assetReturn) {\n        if (oldPrice == 0) {\n            // To avoid a divide-by-zero, just return 0 instead of hitting an exception.\n            return 0;\n        }\n\n        // Compute the underlying asset return: +1% would be 1.01 (* 1 ether).\n        int underlyingAssetReturn = newPrice.mul(FP_SCALING_FACTOR).div(oldPrice);\n\n        // Compute the RoR of the underlying asset and multiply by leverageMultiplier to get the modified return.\n        assetReturn = underlyingAssetReturn.sub(FP_SCALING_FACTOR).mul(leverageMultiplier);\n\n        // If oldPrice is < 0, we need to flip the sign to keep returns positively correlated with\n        // leverageMultiplier * price diffs.\n        if (oldPrice < 0) {\n            assetReturn = assetReturn.mul(-1);\n        }\n    }\n\n    // TODO(#969) Remove once prettier-plugin-solidity can handle the \"override\" keyword\n    // prettier-ignore\n    function leverage() external override view returns (int _leverage) {\n        return leverageMultiplier;\n    }\n}\n",
  "sourcePath": "/home/opz/Projects/SynFiat/contracts/uma-contracts/tokenized-derivative/LeveragedReturnCalculator.sol",
  "compiler": {
    "name": "solc",
    "version": "0.6.4+commit.1dca32f3.Emscripten.clang"
  },
  "schemaVersion": "3.2.0",
  "updatedAt": "2020-06-01T04:24:41.889Z",
  "devdoc": {
    "methods": {
      "addMember(uint256,address)": {
        "details": "Reverts if `roleId` does not represent an initialized, shared role or if the caller is not a member of the managing role for `roleId`."
      },
      "getMember(uint256)": {
        "details": "Reverts if `roleId` does not represent an initialized, exclusive role."
      },
      "holdsRole(uint256,address)": {
        "details": "Reverts if roleId does not correspond to an initialized role."
      },
      "removeMember(uint256,address)": {
        "details": "Reverts if `roleId` does not represent an initialized, shared role or if the caller is not a member of the managing role for `roleId`."
      },
      "resetMember(uint256,address)": {
        "details": "Reverts if the caller is not a member of the managing role for `roleId` or if `roleId` is not an initialized, exclusive role."
      }
    },
    "title": "Computes return values based on a fixed leverage."
  },
  "userdoc": {
    "methods": {
      "addMember(uint256,address)": {
        "notice": "Adds `newMember` to the shared role, `roleId`."
      },
      "getMember(uint256)": {
        "notice": "Gets the current holder of the exclusive role, `roleId`."
      },
      "holdsRole(uint256,address)": {
        "notice": "Whether `memberToCheck` is a member of roleId."
      },
      "removeMember(uint256,address)": {
        "notice": "Removes `memberToRemove` from the shared role, `roleId`."
      },
      "resetMember(uint256,address)": {
        "notice": "Changes the exclusive role holder of `roleId` to `newMember`."
      },
      "withdraw(uint256)": {
        "notice": "Withdraws ETH from the contract."
      },
      "withdrawErc20(address,uint256)": {
        "notice": "Withdraws ERC20 tokens from the contract."
      }
    }
  }
}