{
  "contractName": "Liquidatable",
  "abi": [
    {
      "inputs": [
        {
          "components": [
            {
              "internalType": "bool",
              "name": "isTest",
              "type": "bool"
            },
            {
              "internalType": "uint256",
              "name": "expirationTimestamp",
              "type": "uint256"
            },
            {
              "internalType": "uint256",
              "name": "withdrawalLiveness",
              "type": "uint256"
            },
            {
              "internalType": "address",
              "name": "collateralAddress",
              "type": "address"
            },
            {
              "internalType": "address",
              "name": "finderAddress",
              "type": "address"
            },
            {
              "internalType": "address",
              "name": "tokenFactoryAddress",
              "type": "address"
            },
            {
              "internalType": "bytes32",
              "name": "priceFeedIdentifier",
              "type": "bytes32"
            },
            {
              "internalType": "string",
              "name": "syntheticName",
              "type": "string"
            },
            {
              "internalType": "string",
              "name": "syntheticSymbol",
              "type": "string"
            },
            {
              "internalType": "uint256",
              "name": "liquidationLiveness",
              "type": "uint256"
            },
            {
              "components": [
                {
                  "internalType": "uint256",
                  "name": "rawValue",
                  "type": "uint256"
                }
              ],
              "internalType": "struct FixedPoint.Unsigned",
              "name": "collateralRequirement",
              "type": "tuple"
            },
            {
              "components": [
                {
                  "internalType": "uint256",
                  "name": "rawValue",
                  "type": "uint256"
                }
              ],
              "internalType": "struct FixedPoint.Unsigned",
              "name": "disputeBondPct",
              "type": "tuple"
            },
            {
              "components": [
                {
                  "internalType": "uint256",
                  "name": "rawValue",
                  "type": "uint256"
                }
              ],
              "internalType": "struct FixedPoint.Unsigned",
              "name": "sponsorDisputeRewardPct",
              "type": "tuple"
            },
            {
              "components": [
                {
                  "internalType": "uint256",
                  "name": "rawValue",
                  "type": "uint256"
                }
              ],
              "internalType": "struct FixedPoint.Unsigned",
              "name": "disputerDisputeRewardPct",
              "type": "tuple"
            }
          ],
          "internalType": "struct Liquidatable.ConstructorParams",
          "name": "params",
          "type": "tuple"
        }
      ],
      "stateMutability": "nonpayable",
      "type": "constructor"
    },
    {
      "anonymous": false,
      "inputs": [
        {
          "indexed": true,
          "internalType": "address",
          "name": "caller",
          "type": "address"
        }
      ],
      "name": "ContractExpired",
      "type": "event"
    },
    {
      "anonymous": false,
      "inputs": [
        {
          "indexed": true,
          "internalType": "address",
          "name": "sponsor",
          "type": "address"
        },
        {
          "indexed": true,
          "internalType": "uint256",
          "name": "collateralAmount",
          "type": "uint256"
        }
      ],
      "name": "Deposit",
      "type": "event"
    },
    {
      "anonymous": false,
      "inputs": [
        {
          "indexed": true,
          "internalType": "address",
          "name": "caller",
          "type": "address"
        },
        {
          "indexed": true,
          "internalType": "address",
          "name": "sponsor",
          "type": "address"
        },
        {
          "indexed": true,
          "internalType": "address",
          "name": "liquidator",
          "type": "address"
        },
        {
          "indexed": false,
          "internalType": "address",
          "name": "disputer",
          "type": "address"
        },
        {
          "indexed": false,
          "internalType": "uint256",
          "name": "liquidationId",
          "type": "uint256"
        },
        {
          "indexed": false,
          "internalType": "bool",
          "name": "DisputeSucceeded",
          "type": "bool"
        }
      ],
      "name": "DisputeSettled",
      "type": "event"
    },
    {
      "anonymous": false,
      "inputs": [
        {
          "indexed": true,
          "internalType": "address",
          "name": "caller",
          "type": "address"
        },
        {
          "indexed": false,
          "internalType": "uint256",
          "name": "originalExpirationTimestamp",
          "type": "uint256"
        },
        {
          "indexed": false,
          "internalType": "uint256",
          "name": "shutdownTimestamp",
          "type": "uint256"
        }
      ],
      "name": "EmergencyShutdown",
      "type": "event"
    },
    {
      "anonymous": false,
      "inputs": [
        {
          "indexed": true,
          "internalType": "address",
          "name": "sponsor",
          "type": "address"
        },
        {
          "indexed": true,
          "internalType": "address",
          "name": "liquidator",
          "type": "address"
        },
        {
          "indexed": true,
          "internalType": "uint256",
          "name": "liquidationId",
          "type": "uint256"
        },
        {
          "indexed": false,
          "internalType": "uint256",
          "name": "tokensOutstanding",
          "type": "uint256"
        },
        {
          "indexed": false,
          "internalType": "uint256",
          "name": "lockedCollateral",
          "type": "uint256"
        },
        {
          "indexed": false,
          "internalType": "uint256",
          "name": "liquidatedCollateral",
          "type": "uint256"
        }
      ],
      "name": "LiquidationCreated",
      "type": "event"
    },
    {
      "anonymous": false,
      "inputs": [
        {
          "indexed": true,
          "internalType": "address",
          "name": "sponsor",
          "type": "address"
        },
        {
          "indexed": true,
          "internalType": "address",
          "name": "liquidator",
          "type": "address"
        },
        {
          "indexed": true,
          "internalType": "address",
          "name": "disputer",
          "type": "address"
        },
        {
          "indexed": false,
          "internalType": "uint256",
          "name": "liquidationId",
          "type": "uint256"
        },
        {
          "indexed": false,
          "internalType": "uint256",
          "name": "disputeBondAmount",
          "type": "uint256"
        }
      ],
      "name": "LiquidationDisputed",
      "type": "event"
    },
    {
      "anonymous": false,
      "inputs": [
        {
          "indexed": false,
          "internalType": "address",
          "name": "caller",
          "type": "address"
        },
        {
          "indexed": false,
          "internalType": "uint256",
          "name": "withdrawalAmount",
          "type": "uint256"
        },
        {
          "indexed": false,
          "internalType": "enum Liquidatable.Status",
          "name": "liquidationStatus",
          "type": "uint8"
        }
      ],
      "name": "LiquidationWithdrawn",
      "type": "event"
    },
    {
      "anonymous": false,
      "inputs": [
        {
          "indexed": true,
          "internalType": "address",
          "name": "sponsor",
          "type": "address"
        }
      ],
      "name": "NewSponsor",
      "type": "event"
    },
    {
      "anonymous": false,
      "inputs": [
        {
          "indexed": true,
          "internalType": "address",
          "name": "sponsor",
          "type": "address"
        },
        {
          "indexed": true,
          "internalType": "uint256",
          "name": "collateralAmount",
          "type": "uint256"
        },
        {
          "indexed": true,
          "internalType": "uint256",
          "name": "tokenAmount",
          "type": "uint256"
        }
      ],
      "name": "PositionCreated",
      "type": "event"
    },
    {
      "anonymous": false,
      "inputs": [
        {
          "indexed": true,
          "internalType": "address",
          "name": "sponsor",
          "type": "address"
        },
        {
          "indexed": true,
          "internalType": "uint256",
          "name": "collateralAmount",
          "type": "uint256"
        },
        {
          "indexed": true,
          "internalType": "uint256",
          "name": "tokenAmount",
          "type": "uint256"
        }
      ],
      "name": "Redeem",
      "type": "event"
    },
    {
      "anonymous": false,
      "inputs": [
        {
          "indexed": true,
          "internalType": "address",
          "name": "sponsor",
          "type": "address"
        },
        {
          "indexed": true,
          "internalType": "uint256",
          "name": "collateralAmount",
          "type": "uint256"
        }
      ],
      "name": "RequestWithdrawal",
      "type": "event"
    },
    {
      "anonymous": false,
      "inputs": [
        {
          "indexed": true,
          "internalType": "address",
          "name": "sponsor",
          "type": "address"
        },
        {
          "indexed": true,
          "internalType": "uint256",
          "name": "collateralAmount",
          "type": "uint256"
        }
      ],
      "name": "RequestWithdrawalCanceled",
      "type": "event"
    },
    {
      "anonymous": false,
      "inputs": [
        {
          "indexed": true,
          "internalType": "address",
          "name": "sponsor",
          "type": "address"
        },
        {
          "indexed": true,
          "internalType": "uint256",
          "name": "collateralAmount",
          "type": "uint256"
        }
      ],
      "name": "RequestWithdrawalExecuted",
      "type": "event"
    },
    {
      "anonymous": false,
      "inputs": [
        {
          "indexed": true,
          "internalType": "address",
          "name": "caller",
          "type": "address"
        },
        {
          "indexed": true,
          "internalType": "uint256",
          "name": "collateralReturned",
          "type": "uint256"
        },
        {
          "indexed": true,
          "internalType": "uint256",
          "name": "tokensBurned",
          "type": "uint256"
        }
      ],
      "name": "SettleExpiredPosition",
      "type": "event"
    },
    {
      "anonymous": false,
      "inputs": [
        {
          "indexed": true,
          "internalType": "address",
          "name": "oldSponsor",
          "type": "address"
        },
        {
          "indexed": true,
          "internalType": "address",
          "name": "newSponsor",
          "type": "address"
        }
      ],
      "name": "Transfer",
      "type": "event"
    },
    {
      "anonymous": false,
      "inputs": [
        {
          "indexed": true,
          "internalType": "address",
          "name": "sponsor",
          "type": "address"
        },
        {
          "indexed": true,
          "internalType": "uint256",
          "name": "collateralAmount",
          "type": "uint256"
        }
      ],
      "name": "Withdrawal",
      "type": "event"
    },
    {
      "inputs": [],
      "name": "cancelWithdrawal",
      "outputs": [],
      "stateMutability": "nonpayable",
      "type": "function"
    },
    {
      "inputs": [],
      "name": "collateralCurrency",
      "outputs": [
        {
          "internalType": "contract IERC20",
          "name": "",
          "type": "address"
        }
      ],
      "stateMutability": "view",
      "type": "function"
    },
    {
      "inputs": [],
      "name": "collateralRequirement",
      "outputs": [
        {
          "internalType": "uint256",
          "name": "rawValue",
          "type": "uint256"
        }
      ],
      "stateMutability": "view",
      "type": "function"
    },
    {
      "inputs": [],
      "name": "contractState",
      "outputs": [
        {
          "internalType": "enum PricelessPositionManager.ContractState",
          "name": "",
          "type": "uint8"
        }
      ],
      "stateMutability": "view",
      "type": "function"
    },
    {
      "inputs": [
        {
          "components": [
            {
              "internalType": "uint256",
              "name": "rawValue",
              "type": "uint256"
            }
          ],
          "internalType": "struct FixedPoint.Unsigned",
          "name": "collateralAmount",
          "type": "tuple"
        },
        {
          "components": [
            {
              "internalType": "uint256",
              "name": "rawValue",
              "type": "uint256"
            }
          ],
          "internalType": "struct FixedPoint.Unsigned",
          "name": "numTokens",
          "type": "tuple"
        }
      ],
      "name": "create",
      "outputs": [],
      "stateMutability": "nonpayable",
      "type": "function"
    },
    {
      "inputs": [],
      "name": "cumulativeFeeMultiplier",
      "outputs": [
        {
          "internalType": "uint256",
          "name": "rawValue",
          "type": "uint256"
        }
      ],
      "stateMutability": "view",
      "type": "function"
    },
    {
      "inputs": [
        {
          "components": [
            {
              "internalType": "uint256",
              "name": "rawValue",
              "type": "uint256"
            }
          ],
          "internalType": "struct FixedPoint.Unsigned",
          "name": "collateralAmount",
          "type": "tuple"
        }
      ],
      "name": "deposit",
      "outputs": [],
      "stateMutability": "nonpayable",
      "type": "function"
    },
    {
      "inputs": [],
      "name": "disputeBondPct",
      "outputs": [
        {
          "internalType": "uint256",
          "name": "rawValue",
          "type": "uint256"
        }
      ],
      "stateMutability": "view",
      "type": "function"
    },
    {
      "inputs": [],
      "name": "disputerDisputeRewardPct",
      "outputs": [
        {
          "internalType": "uint256",
          "name": "rawValue",
          "type": "uint256"
        }
      ],
      "stateMutability": "view",
      "type": "function"
    },
    {
      "inputs": [],
      "name": "emergencyShutdown",
      "outputs": [],
      "stateMutability": "nonpayable",
      "type": "function"
    },
    {
      "inputs": [],
      "name": "expirationTimestamp",
      "outputs": [
        {
          "internalType": "uint256",
          "name": "",
          "type": "uint256"
        }
      ],
      "stateMutability": "view",
      "type": "function"
    },
    {
      "inputs": [],
      "name": "expire",
      "outputs": [],
      "stateMutability": "nonpayable",
      "type": "function"
    },
    {
      "inputs": [],
      "name": "expiryPrice",
      "outputs": [
        {
          "internalType": "uint256",
          "name": "rawValue",
          "type": "uint256"
        }
      ],
      "stateMutability": "view",
      "type": "function"
    },
    {
      "inputs": [],
      "name": "finder",
      "outputs": [
        {
          "internalType": "contract FinderInterface",
          "name": "",
          "type": "address"
        }
      ],
      "stateMutability": "view",
      "type": "function"
    },
    {
      "inputs": [
        {
          "internalType": "address",
          "name": "sponsor",
          "type": "address"
        }
      ],
      "name": "getCollateral",
      "outputs": [
        {
          "components": [
            {
              "internalType": "uint256",
              "name": "rawValue",
              "type": "uint256"
            }
          ],
          "internalType": "struct FixedPoint.Unsigned",
          "name": "",
          "type": "tuple"
        }
      ],
      "stateMutability": "view",
      "type": "function"
    },
    {
      "inputs": [],
      "name": "getCurrentTime",
      "outputs": [
        {
          "internalType": "uint256",
          "name": "",
          "type": "uint256"
        }
      ],
      "stateMutability": "view",
      "type": "function"
    },
    {
      "inputs": [],
      "name": "isTest",
      "outputs": [
        {
          "internalType": "bool",
          "name": "",
          "type": "bool"
        }
      ],
      "stateMutability": "view",
      "type": "function"
    },
    {
      "inputs": [],
      "name": "lastPaymentTime",
      "outputs": [
        {
          "internalType": "uint256",
          "name": "",
          "type": "uint256"
        }
      ],
      "stateMutability": "view",
      "type": "function"
    },
    {
      "inputs": [],
      "name": "liquidationLiveness",
      "outputs": [
        {
          "internalType": "uint256",
          "name": "",
          "type": "uint256"
        }
      ],
      "stateMutability": "view",
      "type": "function"
    },
    {
      "inputs": [
        {
          "internalType": "address",
          "name": "",
          "type": "address"
        },
        {
          "internalType": "uint256",
          "name": "",
          "type": "uint256"
        }
      ],
      "name": "liquidations",
      "outputs": [
        {
          "internalType": "address",
          "name": "sponsor",
          "type": "address"
        },
        {
          "internalType": "address",
          "name": "liquidator",
          "type": "address"
        },
        {
          "internalType": "enum Liquidatable.Status",
          "name": "state",
          "type": "uint8"
        },
        {
          "internalType": "uint256",
          "name": "liquidationTime",
          "type": "uint256"
        },
        {
          "components": [
            {
              "internalType": "uint256",
              "name": "rawValue",
              "type": "uint256"
            }
          ],
          "internalType": "struct FixedPoint.Unsigned",
          "name": "tokensOutstanding",
          "type": "tuple"
        },
        {
          "components": [
            {
              "internalType": "uint256",
              "name": "rawValue",
              "type": "uint256"
            }
          ],
          "internalType": "struct FixedPoint.Unsigned",
          "name": "lockedCollateral",
          "type": "tuple"
        },
        {
          "components": [
            {
              "internalType": "uint256",
              "name": "rawValue",
              "type": "uint256"
            }
          ],
          "internalType": "struct FixedPoint.Unsigned",
          "name": "liquidatedCollateral",
          "type": "tuple"
        },
        {
          "components": [
            {
              "internalType": "uint256",
              "name": "rawValue",
              "type": "uint256"
            }
          ],
          "internalType": "struct FixedPoint.Unsigned",
          "name": "rawUnitCollateral",
          "type": "tuple"
        },
        {
          "internalType": "address",
          "name": "disputer",
          "type": "address"
        },
        {
          "components": [
            {
              "internalType": "uint256",
              "name": "rawValue",
              "type": "uint256"
            }
          ],
          "internalType": "struct FixedPoint.Unsigned",
          "name": "settlementPrice",
          "type": "tuple"
        },
        {
          "components": [
            {
              "internalType": "uint256",
              "name": "rawValue",
              "type": "uint256"
            }
          ],
          "internalType": "struct FixedPoint.Unsigned",
          "name": "finalFee",
          "type": "tuple"
        }
      ],
      "stateMutability": "view",
      "type": "function"
    },
    {
      "inputs": [],
      "name": "payFees",
      "outputs": [
        {
          "components": [
            {
              "internalType": "uint256",
              "name": "rawValue",
              "type": "uint256"
            }
          ],
          "internalType": "struct FixedPoint.Unsigned",
          "name": "totalPaid",
          "type": "tuple"
        }
      ],
      "stateMutability": "nonpayable",
      "type": "function"
    },
    {
      "inputs": [
        {
          "internalType": "address",
          "name": "",
          "type": "address"
        }
      ],
      "name": "positions",
      "outputs": [
        {
          "components": [
            {
              "internalType": "uint256",
              "name": "rawValue",
              "type": "uint256"
            }
          ],
          "internalType": "struct FixedPoint.Unsigned",
          "name": "tokensOutstanding",
          "type": "tuple"
        },
        {
          "internalType": "uint256",
          "name": "requestPassTimestamp",
          "type": "uint256"
        },
        {
          "components": [
            {
              "internalType": "uint256",
              "name": "rawValue",
              "type": "uint256"
            }
          ],
          "internalType": "struct FixedPoint.Unsigned",
          "name": "withdrawalRequestAmount",
          "type": "tuple"
        },
        {
          "components": [
            {
              "internalType": "uint256",
              "name": "rawValue",
              "type": "uint256"
            }
          ],
          "internalType": "struct FixedPoint.Unsigned",
          "name": "rawCollateral",
          "type": "tuple"
        }
      ],
      "stateMutability": "view",
      "type": "function"
    },
    {
      "inputs": [],
      "name": "priceIdentifer",
      "outputs": [
        {
          "internalType": "bytes32",
          "name": "",
          "type": "bytes32"
        }
      ],
      "stateMutability": "view",
      "type": "function"
    },
    {
      "inputs": [],
      "name": "rawLiquidationCollateral",
      "outputs": [
        {
          "internalType": "uint256",
          "name": "rawValue",
          "type": "uint256"
        }
      ],
      "stateMutability": "view",
      "type": "function"
    },
    {
      "inputs": [],
      "name": "rawTotalPositionCollateral",
      "outputs": [
        {
          "internalType": "uint256",
          "name": "rawValue",
          "type": "uint256"
        }
      ],
      "stateMutability": "view",
      "type": "function"
    },
    {
      "inputs": [
        {
          "components": [
            {
              "internalType": "uint256",
              "name": "rawValue",
              "type": "uint256"
            }
          ],
          "internalType": "struct FixedPoint.Unsigned",
          "name": "numTokens",
          "type": "tuple"
        }
      ],
      "name": "redeem",
      "outputs": [],
      "stateMutability": "nonpayable",
      "type": "function"
    },
    {
      "inputs": [],
      "name": "remargin",
      "outputs": [],
      "stateMutability": "nonpayable",
      "type": "function"
    },
    {
      "inputs": [
        {
          "components": [
            {
              "internalType": "uint256",
              "name": "rawValue",
              "type": "uint256"
            }
          ],
          "internalType": "struct FixedPoint.Unsigned",
          "name": "collateralAmount",
          "type": "tuple"
        }
      ],
      "name": "requestWithdrawal",
      "outputs": [],
      "stateMutability": "nonpayable",
      "type": "function"
    },
    {
      "inputs": [
        {
          "internalType": "uint256",
          "name": "_time",
          "type": "uint256"
        }
      ],
      "name": "setCurrentTime",
      "outputs": [],
      "stateMutability": "nonpayable",
      "type": "function"
    },
    {
      "inputs": [],
      "name": "settleExpired",
      "outputs": [],
      "stateMutability": "nonpayable",
      "type": "function"
    },
    {
      "inputs": [],
      "name": "sponsorDisputeRewardPct",
      "outputs": [
        {
          "internalType": "uint256",
          "name": "rawValue",
          "type": "uint256"
        }
      ],
      "stateMutability": "view",
      "type": "function"
    },
    {
      "inputs": [],
      "name": "tokenCurrency",
      "outputs": [
        {
          "internalType": "contract ExpandedIERC20",
          "name": "",
          "type": "address"
        }
      ],
      "stateMutability": "view",
      "type": "function"
    },
    {
      "inputs": [],
      "name": "totalPositionCollateral",
      "outputs": [
        {
          "components": [
            {
              "internalType": "uint256",
              "name": "rawValue",
              "type": "uint256"
            }
          ],
          "internalType": "struct FixedPoint.Unsigned",
          "name": "",
          "type": "tuple"
        }
      ],
      "stateMutability": "view",
      "type": "function"
    },
    {
      "inputs": [],
      "name": "totalTokensOutstanding",
      "outputs": [
        {
          "internalType": "uint256",
          "name": "rawValue",
          "type": "uint256"
        }
      ],
      "stateMutability": "view",
      "type": "function"
    },
    {
      "inputs": [
        {
          "internalType": "address",
          "name": "newSponsorAddress",
          "type": "address"
        }
      ],
      "name": "transfer",
      "outputs": [],
      "stateMutability": "nonpayable",
      "type": "function"
    },
    {
      "inputs": [
        {
          "components": [
            {
              "internalType": "uint256",
              "name": "rawValue",
              "type": "uint256"
            }
          ],
          "internalType": "struct FixedPoint.Unsigned",
          "name": "collateralAmount",
          "type": "tuple"
        }
      ],
      "name": "withdraw",
      "outputs": [],
      "stateMutability": "nonpayable",
      "type": "function"
    },
    {
      "inputs": [],
      "name": "withdrawPassedRequest",
      "outputs": [],
      "stateMutability": "nonpayable",
      "type": "function"
    },
    {
      "inputs": [],
      "name": "withdrawalLiveness",
      "outputs": [
        {
          "internalType": "uint256",
          "name": "",
          "type": "uint256"
        }
      ],
      "stateMutability": "view",
      "type": "function"
    },
    {
      "inputs": [
        {
          "internalType": "address",
          "name": "sponsor",
          "type": "address"
        },
        {
          "components": [
            {
              "internalType": "uint256",
              "name": "rawValue",
              "type": "uint256"
            }
          ],
          "internalType": "struct FixedPoint.Unsigned",
          "name": "collateralPerToken",
          "type": "tuple"
        },
        {
          "components": [
            {
              "internalType": "uint256",
              "name": "rawValue",
              "type": "uint256"
            }
          ],
          "internalType": "struct FixedPoint.Unsigned",
          "name": "maxTokensToLiquidate",
          "type": "tuple"
        }
      ],
      "name": "createLiquidation",
      "outputs": [
        {
          "internalType": "uint256",
          "name": "liquidationId",
          "type": "uint256"
        }
      ],
      "stateMutability": "nonpayable",
      "type": "function"
    },
    {
      "inputs": [
        {
          "internalType": "uint256",
          "name": "liquidationId",
          "type": "uint256"
        },
        {
          "internalType": "address",
          "name": "sponsor",
          "type": "address"
        }
      ],
      "name": "dispute",
      "outputs": [],
      "stateMutability": "nonpayable",
      "type": "function"
    },
    {
      "inputs": [
        {
          "internalType": "uint256",
          "name": "liquidationId",
          "type": "uint256"
        },
        {
          "internalType": "address",
          "name": "sponsor",
          "type": "address"
        }
      ],
      "name": "withdrawLiquidation",
      "outputs": [
        {
          "components": [
            {
              "internalType": "uint256",
              "name": "rawValue",
              "type": "uint256"
            }
          ],
          "internalType": "struct FixedPoint.Unsigned",
          "name": "withdrawalAmount",
          "type": "tuple"
        }
      ],
      "stateMutability": "nonpayable",
      "type": "function"
    },
    {
      "inputs": [],
      "name": "pfc",
      "outputs": [
        {
          "components": [
            {
              "internalType": "uint256",
              "name": "rawValue",
              "type": "uint256"
            }
          ],
          "internalType": "struct FixedPoint.Unsigned",
          "name": "",
          "type": "tuple"
        }
      ],
      "stateMutability": "view",
      "type": "function"
    },
    {
      "inputs": [
        {
          "internalType": "address",
          "name": "sponsor",
          "type": "address"
        }
      ],
      "name": "getLiquidations",
      "outputs": [
        {
          "components": [
            {
              "internalType": "address",
              "name": "sponsor",
              "type": "address"
            },
            {
              "internalType": "address",
              "name": "liquidator",
              "type": "address"
            },
            {
              "internalType": "enum Liquidatable.Status",
              "name": "state",
              "type": "uint8"
            },
            {
              "internalType": "uint256",
              "name": "liquidationTime",
              "type": "uint256"
            },
            {
              "components": [
                {
                  "internalType": "uint256",
                  "name": "rawValue",
                  "type": "uint256"
                }
              ],
              "internalType": "struct FixedPoint.Unsigned",
              "name": "tokensOutstanding",
              "type": "tuple"
            },
            {
              "components": [
                {
                  "internalType": "uint256",
                  "name": "rawValue",
                  "type": "uint256"
                }
              ],
              "internalType": "struct FixedPoint.Unsigned",
              "name": "lockedCollateral",
              "type": "tuple"
            },
            {
              "components": [
                {
                  "internalType": "uint256",
                  "name": "rawValue",
                  "type": "uint256"
                }
              ],
              "internalType": "struct FixedPoint.Unsigned",
              "name": "liquidatedCollateral",
              "type": "tuple"
            },
            {
              "components": [
                {
                  "internalType": "uint256",
                  "name": "rawValue",
                  "type": "uint256"
                }
              ],
              "internalType": "struct FixedPoint.Unsigned",
              "name": "rawUnitCollateral",
              "type": "tuple"
            },
            {
              "internalType": "address",
              "name": "disputer",
              "type": "address"
            },
            {
              "components": [
                {
                  "internalType": "uint256",
                  "name": "rawValue",
                  "type": "uint256"
                }
              ],
              "internalType": "struct FixedPoint.Unsigned",
              "name": "settlementPrice",
              "type": "tuple"
            },
            {
              "components": [
                {
                  "internalType": "uint256",
                  "name": "rawValue",
                  "type": "uint256"
                }
              ],
              "internalType": "struct FixedPoint.Unsigned",
              "name": "finalFee",
              "type": "tuple"
            }
          ],
          "internalType": "struct Liquidatable.LiquidationData[]",
          "name": "",
          "type": "tuple[]"
        }
      ],
      "stateMutability": "view",
      "type": "function"
    }
  ],
  "bytecode": "0x60806040523480156200001157600080fd5b506040516200471538038062004715833981016040819052620000349162000601565b8051602082015160408301516060840151608085015160c086015160e087015161010088015160a08901516000805460ff19168a15801591909117909155869086908b9081906200008457426001555b50600280546001600160a01b038086166001600160a01b0319928316179092556003805492851692909116919091179055620000c86001600160e01b03620002ef16565b600481905550620000e560016200030c60201b6200241f1760201c565b51600555505050600c889055600d87905560405163e8a0aed360e01b815281906001600160a01b0382169063e8a0aed3906200012b9087908790601290600401620007af565b602060405180830381600087803b1580156200014657600080fd5b505af11580156200015b573d6000803e3d6000fd5b505050506040513d601f19601f82011682018060405250810190620001819190620005c0565b600a80546001600160a01b0319166001600160a01b0392909216919091179055620001ab6200034b565b6001600160a01b03166390978d1b866040518263ffffffff1660e01b8152600401620001d89190620007a6565b60206040518083038186803b158015620001f157600080fd5b505afa15801562000206573d6000803e3d6000fd5b505050506040513d601f19601f820116820180604052508101906200022c9190620005df565b6200023657600080fd5b84600b8190555050505050505050505050620002676001826101400151620003fc60201b620029a01790919060201c565b6200027157600080fd5b620002af60016200029b836101a001518461018001516200041f60201b620029451790919060201c565b6200045f60201b62003de11790919060201c565b620002b957600080fd5b6101208101516011556101408101515160125561016081015151601355610180810151516014556101a0015151601555620008d7565b6000805460ff161562000306575060015462000309565b50425b90565b62000316620004f9565b604051806020016040528062000343670de0b6b3a7640000856200048160201b620032311790919060201c565b905292915050565b6003546040516302abf57960e61b81526000917f4964656e74696669657257686974656c69737400000000000000000000000000916001600160a01b039091169063aafd5e4090620003a2908490600401620007a6565b60206040518083038186803b158015620003bb57600080fd5b505afa158015620003d0573d6000803e3d6000fd5b505050506040513d601f19601f82011682018060405250810190620003f69190620005c0565b91505090565b600062000412826001600160e01b036200030c16565b5183511190505b92915050565b62000429620004f9565b60405180602001604052806200045684600001518660000151620004d160201b620033ec1790919060201c565b90529392505050565b600062000475826001600160e01b036200030c16565b51835110905092915050565b600082620004925750600062000419565b82820282848281620004a057fe5b0414620004ca5760405162461bcd60e51b8152600401620004c19062000823565b60405180910390fd5b9392505050565b600082820183811015620004ca5760405162461bcd60e51b8152600401620004c190620007ec565b6040518060200160405280600081525090565b80516200041981620008be565b805180151581146200041957600080fd5b600082601f8301126200053b578081fd5b81516001600160401b0381111562000551578182fd5b62000566601f8201601f191660200162000864565b91508082528360208285010111156200057e57600080fd5b620005918160208401602086016200088b565b5092915050565b600060208284031215620005aa578081fd5b620005b6602062000864565b9151825250919050565b600060208284031215620005d2578081fd5b8151620004ca81620008be565b600060208284031215620005f1578081fd5b81518015158114620004ca578182fd5b60006020828403121562000613578081fd5b81516001600160401b03808211156200062a578283fd5b6101c09184018086038313156200063f578384fd5b6200064a8362000864565b62000656878362000519565b815260208201516020820152604082015160408201526200067b87606084016200050c565b60608201526200068f87608084016200050c565b6080820152620006a38760a084016200050c565b60a082015260c082015160c082015260e0820151935082841115620006c6578485fd5b620006d4878584016200052a565b60e082015261010093508382015183811115620006ef578586fd5b620006fd888285016200052a565b8583015250610120935083820151848201526101409350620007228785840162000598565b848201526101609350620007398785840162000598565b848201526101809350620007508785840162000598565b848201526101a09350620007678785840162000598565b848201528094505050505092915050565b60008151808452620007928160208601602086016200088b565b601f01601f19169290920160200192915050565b90815260200190565b600060608252620007c4606083018662000778565b8281036020840152620007d8818662000778565b91505060ff83166040830152949350505050565b6020808252601b908201527f536166654d6174683a206164646974696f6e206f766572666c6f770000000000604082015260600190565b60208082526021908201527f536166654d6174683a206d756c7469706c69636174696f6e206f766572666c6f6040820152607760f81b606082015260800190565b6040518181016001600160401b03811182821017156200088357600080fd5b604052919050565b60005b83811015620008a85781810151838201526020016200088e565b83811115620008b8576000848401525b50505050565b6001600160a01b0381168114620008d457600080fd5b50565b613e2e80620008e76000396000f3fe608060405234801561001057600080fd5b50600436106102995760003560e01c80636ba2f99211610171578063a765fbea116100d3578063d1e92c1111610097578063edfa9a9b11610071578063edfa9a9b146104ed578063f4d21153146104f5578063fcccedc71461050857610299565b8063d1e92c11146104ca578063dd0eef3d146104dd578063dfe607f9146104e557610299565b8063a765fbea1461048c578063b9a3c84c1461049f578063bc121630146104a7578063bda02e77146104ba578063c13f62e1146104c257610299565b80638c382eb2116101355780639f43ddd21161010f5780639f43ddd21461045c5780639ff4dea814610464578063a1c4d1e71461046c57610299565b80638c382eb21461042c5780639381a345146104345780639b56d6c91461044957610299565b80636ba2f992146103ec5780637048594b146103ff57806379599f961461040757806381a10ae11461040f57806385209ee01461041757610299565b8063360598e11161021a5780634f8c4847116101de5780635ee0fe32116101b85780635ee0fe32146103c95780635f1af1ca146103d157806362779e15146103e457610299565b80634f8c48471461037457806350f498461461039e57806355f57510146103a657610299565b8063360598e114610329578063391fe4e2146103495780633ee7a5ce1461035157806343e4771b1461036457806348e30c3f1461036c57610299565b806322f8e5661161026157806322f8e566146102f657806329cb924d146103095780632d5436cf1461031157806333a46ca2146103195780633403c2fc1461032157610299565b80630c9229ca1461029e5780630de15fd9146102bc578063175d9e7c146102d15780631a695230146102d957806322611280146102ee575b600080fd5b6102a6610510565b6040516102b39190613ac3565b60405180910390f35b6102c4610516565b6040516102b3919061387a565b6102a6610525565b6102ec6102e7366004613682565b61052b565b005b6102ec610660565b6102ec6103043660046137f8565b6106d2565b6102a66106e6565b6102a6610701565b6102ec610707565b6102ec610838565b61033c610337366004613810565b6108d3565b6040516102b39190613d1a565b6102a6610ece565b6102ec61035f366004613763565b610ed4565b61033c610f80565b6102a6610fa6565b610387610382366004613700565b610fac565b6040516102b39b9a999897969594939291906138ef565b6102a6611070565b6103b96103b4366004613682565b611076565b6040516102b39493929190613d24565b6102a66110bc565b6102ec6103df366004613763565b6110c2565b61033c6112ed565b6102ec6103fa366004613799565b611514565b6102c4611707565b6102ec611716565b61033c611785565b61041f6117b2565b6040516102b39190613ada565b6102a66117bb565b61043c6117c1565b6040516102b39190613ab8565b61033c610457366004613682565b6117ca565b6102a661180d565b6102a6611813565b61047f61047a366004613682565b611819565b6040516102b391906139a9565b6102ec61049a366004613810565b611972565b6102c4611aca565b6102ec6104b5366004613763565b611ad9565b6102ec611b5e565b6102a6611b68565b6102ec6104d8366004613763565b611b6e565b6102a6611c0a565b6102a6611c10565b6102a6611c16565b6102a66105033660046136ba565b611c1c565b6102ec612092565b60085481565b6002546001600160a01b031681565b600b5481565b61053361240a565b610581610540600061241f565b6001600160a01b0383166000908152600760209081526040918290208251918201909252600390910154815261057590612453565b9063ffffffff61247c16565b61058a57600080fd5b600061059533612483565b905080600101546000146105a857600080fd5b6001600160a01b03821660008181526007602052604080822084548155600180860154818301556002808701548184015560038088015493810193909355338086528486208681559283018690559082018590559101839055905190917f4853ae1b4d437c4255ac16cd3ceda3465975023f27cb141584cd9d44440fed8291a36040516001600160a01b038316907ff60993fa76f94c9e0a803526ee6e1314814ed4d2b0d223febf1436b36897fb3790600090a25050565b61066861240a565b600061067333612483565b905080600101546000141561068757600080fd5b600281015460405133907f74d8a3658feb89d1a5c335229bbbfc3bbcfaf492769feb7aa4cd2d92efeaf69190600090a36000600182018190556106c99061241f565b51600290910155565b60005460ff166106e157600080fd5b600155565b6000805460ff16156106fb57506001546106fe565b50425b90565b60115481565b61070f61240a565b6107176112ed565b50600061072333612483565b905061072d6106e6565b8160010154111561073d57600080fd5b61074561360e565b50604080516020808201835260028401548252825190810190925260038301548252906107939061077590612453565b6040805160208101909152600285015481529063ffffffff6124ab16565b156107b6576040805160208101909152600383015481526107b390612453565b90505b6107c382600301826124b2565b6107ce6009826124b2565b80516002546107f0916001600160a01b0390911690339063ffffffff6124ed16565b805160405133907fc86c3298cb79f486674dca87d9247e88b76146160e7d412cc59b26b14c358a6890600090a3610827600061241f565b516002830155506000600190910155565b61084061240a565b610848612575565b610850612592565b6001600160a01b0316336001600160a01b03161461086d57600080fd5b6006805460ff19166001179055600c546108856106e6565b600c8190556108939061263d565b600c5460405133917fd39eeb7157d9c446579a0893ecf9ecd87d1f466cdb270c6a189cf38ca1e30f48916108c8918591613acc565b60405180910390a250565b6108db61360e565b82826108e782826126af565b6108ef6112ed565b5060006108fc858761271c565b60078101549091506001600160a01b0316331480610926575060018101546001600160a01b031633145b8061093a575080546001600160a01b031633145b61094357600080fd5b61094d86866127a6565b61095561360e565b60408051602081019091526006830154815261097090612453565b905061097a61360e565b6040805160208082018352600886015482528251908101909252600385015482526109bd9184916109b1919063ffffffff61290216565b9063ffffffff61290216565b90506109c761360e565b6040805160208101909152600485015481526109e9908463ffffffff61290216565b90506109f361360e565b60408051602081019091526015548152610a13908463ffffffff61290216565b9050610a1d61360e565b60408051602081019091526014548152610a3d908563ffffffff61290216565b9050610a4761360e565b60408051602081019091526013548152610a6890859063ffffffff61290216565b9050610a7261360e565b604080516020810190915260098901548152610a94908863ffffffff61290216565b905060036001890154600160a01b900460ff166004811115610ab257fe5b1415610ccc5760078801546001600160a01b0316331415610b1d57610ad561360e565b610af582610ae9878663ffffffff61294516565b9063ffffffff61294516565b9050610b078c8263ffffffff61294516565b60078a0180546001600160a01b03191690559b50505b87546001600160a01b0316331415610b8657610b3761360e565b610b47868863ffffffff61297716565b9050610b5161360e565b610b61858363ffffffff61294516565b9050610b738d8263ffffffff61294516565b8a546001600160a01b0319168b559c5050505b60018801546001600160a01b0316331415610beb57610ba361360e565b610bc385610bb7898763ffffffff61297716565b9063ffffffff61297716565b9050610bd58c8263ffffffff61294516565b60018a0180546001600160a01b03191690559b50505b60078801546001600160a01b0316158015610c0e575087546001600160a01b0316155b8015610c25575060018801546001600160a01b0316155b15610cc7576001600160a01b038c166000908152600f6020526040902080548e908110610c4e57fe5b600091825260208220600a9091020180546001600160a01b0319908116825560018201805474ffffffffffffffffffffffffffffffffffffffffff191690556002820183905560038201839055600482018390556005820183905560068201839055600782018054909116905560088101829055600901555b610e2c565b60046001890154600160a01b900460ff166004811115610ce857fe5b148015610d01575060018801546001600160a01b031633145b15610d4257610d1a81610ae9878563ffffffff61294516565b6001600160a01b038d166000908152600f602052604090208054919c50908e908110610c4e57fe5b600180890154600160a01b900460ff166004811115610d5d57fe5b148015610d76575060018801546001600160a01b031633145b15610e2c57610d8b858263ffffffff61294516565b6001600160a01b038d166000908152600f602052604090208054919c50908e908110610db357fe5b600091825260208220600a9091020180546001600160a01b0319908116825560018201805474ffffffffffffffffffffffffffffffffffffffffff191690556002820183905560038201839055600482018390556005820183905560068201839055600782018054909116905560088101829055600901555b610e3d8b600063ffffffff6129a016565b610e4657600080fd5b610e5160108c6124b2565b8a51600254610e73916001600160a01b0390911690339063ffffffff6124ed16565b8a5160018901546040517f6b1dd0a2f9139859db0869429aa0d5042a624c6da84633f568767549a58937b092610eb6923392600160a01b90910460ff16906138a7565b60405180910390a15050505050505050505092915050565b60135481565b610edc61240a565b610ee46112ed565b506000610ef033612483565b90508060010154600014610f0357600080fd5b610f1081600301836124b2565b610f19816129b7565b610f2257600080fd5b610f2d6009836124b2565b8151600254610f4f916001600160a01b0390911690339063ffffffff6124ed16565b815160405133907f7fcf532c15f0a6db0bd6d0e038bea71d30d808c7d98cb3bf7268a95bf5081b6590600090a35050565b610f8861360e565b60408051602081019091526009548152610fa190612453565b905090565b60125481565b600f6020528160005260406000208181548110610fc557fe5b6000918252602091829020600a919091020180546001820154600283015460408051808701825260038601548152815180880183526004870154815282518089018452600588015481528351808a0185526006890154815260078901548551808c01875260088b0154815286519b8c019096526009909901548a526001600160a01b039788169b508787169a50600160a01b90960460ff16989497929691959094909391909216918b565b60105481565b6007602090815260009182526040918290208251808301845281548152600182015484518085018652600284015481528551948501909552600390920154835292909184565b60155481565b6110ca61240a565b6110d26112ed565b5060006110de33612483565b905080600101546000146110f157600080fd5b60408051602081019091528154815261111190839063ffffffff6124ab16565b1561111b57600080fd5b61112361360e565b60408051602081019091528254815261114390849063ffffffff6129ed16565b905061114d61360e565b6040805160208101909152600384015481526111799061116c90612453565b839063ffffffff61290216565b60408051602081019091528454815290915061119b908563ffffffff61247c16565b156111ae576111a933612a2e565b61120d565b6111bb83600301826124b2565b6040805160208101909152835481526111da908563ffffffff61297716565b5183556111e86009826124b2565b60408051602081019091526008548152611208908563ffffffff61297716565b516008555b805160025461122f916001600160a01b0390911690339063ffffffff6124ed16565b8351600a54611253916001600160a01b03909116903390309063ffffffff612acd16565b600a548451604051630852cd8d60e31b81526001600160a01b03909216916342966c689161128391600401613ac3565b600060405180830381600087803b15801561129d57600080fd5b505af11580156112b1573d6000803e3d6000fd5b505085518351604051919350915033907fe5b754fb1abb7f01b499791d0b820ae3b6af3424ac1c59768edb53f4ec31a92990600090a450505050565b6112f561360e565b60006112ff612aee565b9050600061130b6106e6565b905061131561360e565b61131d611785565b905061133081600063ffffffff612b2b16565b1561133e57506106fe915050565b61134661360e565b61134e61360e565b600480546040516374201feb60e01b81526001600160a01b038816926374201feb926113809290918991899101613d42565b604080518083038186803b15801561139757600080fd5b505afa1580156113ab573d6000803e3d6000fd5b505050506040513d601f19601f820116820180604052508101906113cf91906137cd565b600486905590925090506113ea82600063ffffffff6129a016565b15611476578151600254611411916001600160a01b0390911690879063ffffffff612b4216565b600254604051634933a88760e01b81526001600160a01b0387811692634933a88792611443929091169060040161387a565b600060405180830381600087803b15801561145d57600080fd5b505af1158015611471573d6000803e3d6000fd5b505050505b61148781600063ffffffff6129a016565b156114ae5780516002546114ae916001600160a01b0390911690339063ffffffff6124ed16565b6114be828263ffffffff61294516565b95506114c861360e565b6114d8878563ffffffff612bf316565b90506115076114eb82610bb7600161241f565b604080516020810190915260055481529063ffffffff61290216565b5160055550505050505090565b61151c61240a565b6115246112ed565b5061152f8282612c95565b61153857600080fd5b33600090815260076020526040902060018101541561155657600080fd5b60408051602081019091528154815261157690600063ffffffff612b2b16565b156115a75760405133907ff60993fa76f94c9e0a803526ee6e1314814ed4d2b0d223febf1436b36897fb3790600090a25b6115b48160030184612d01565b6040805160208101909152815481526115d3908363ffffffff61294516565b5181556115e1600984612d01565b60408051602081019091526008548152611601908363ffffffff61294516565b516008558251600254611629916001600160a01b03909116903390309063ffffffff612acd16565b600a5482516040516340c10f1960e01b81526001600160a01b03909216916340c10f199161165c9133919060040161388e565b602060405180830381600087803b15801561167657600080fd5b505af115801561168a573d6000803e3d6000fd5b505050506040513d601f19601f820116820180604052508101906116ae919061372b565b6116d35760405162461bcd60e51b81526004016116ca90613c62565b60405180910390fd5b8151835160405133907f4b82aa16e071a61de1a6b9aeec9edab0356331f8122c78683b469ac8e685dabc90600090a4505050565b600a546001600160a01b031681565b61171e612d34565b611726612575565b61172e6112ed565b506006805460ff1916600117905561174d30611748612d4a565b612ddf565b611758600c5461263d565b60405133907f18600820405d6cf356e3556301762ca32395e72d8c81494fa344835c9da3633d90600090a2565b61178d61360e565b60408051602081019091526010548152610fa1906117aa90612453565b610ae9610f80565b60065460ff1681565b60095481565b60005460ff1681565b6117d261360e565b6001600160a01b0382166000908152600760209081526040918290208251918201909252600390910154815261180790612453565b92915050565b600c5481565b600d5481565b6001600160a01b0381166000908152600f60209081526040808320805482518185028101850190935280835260609492939192909184015b828210156119675760008481526020908190206040805161016081018252600a860290920180546001600160a01b039081168452600182015490811694840194909452919290830190600160a01b900460ff1660048111156118af57fe5b60048111156118ba57fe5b8152600282015460208083019190915260408051808301825260038501548152818401528051808301825260048501548152606084015280518083018252600585015481526080840152805180830182526006850154815260a084015260078401546001600160a01b031660c0840152805180830182526008850154815260e084015280518083019091526009909301548352610100909101919091529082526001929092019101611851565b505050509050919050565b818161197e8282612f2e565b6119866112ed565b506000611993848661271c565b905061199d61360e565b6040805160208101909152600683015481526119eb906119bc90612453565b604080516020808201835260135482528251908101909252600486015482526109b1919063ffffffff61290216565b90506119f8601082612d01565b8051600254611a1c916001600160a01b03909116903390309063ffffffff612acd16565b60018201805460ff60a01b1916600160a11b1790556007820180546001600160a01b031916331790556002820154611a539061263d565b604080516020810190915260098301548152611a70903390612ddf565b6001820154815160405133926001600160a01b0390811692908916917fcaca181ccad7979cf36ed4fc921e496001ab5264608f0fac7007ae1b43d3610291611aba918c9190613acc565b60405180910390a4505050505050565b6003546001600160a01b031681565b611ae161240a565b6000611aec33612483565b90508060010154600014611aff57600080fd5b6000600d54611b0c6106e6565b019050600c54811115611b1e57600080fd5b6001820181905582516002830181905560405133907fd33b726e11d2c5d38e6702b16613df0160a07f7ba5185455ee3c45d0494fab1190600090a3505050565b611b6661240a565b565b60145481565b611b7661240a565b611b7e6112ed565b506000611b8a33612483565b90508060010154600014611b9d57600080fd5b611baa8160030183612d01565b611bb5600983612d01565b8151600254611bd9916001600160a01b03909116903390309063ffffffff612acd16565b815160405133907fe1fffcc4923d04b559f4d29a8bfc6cda04eb5b0d3c460751c2402c5c5cc9109c90600090a35050565b60055481565b60045481565b600e5481565b6000611c266112ed565b50611c2f61240a565b6000611c3a85612483565b9050611c4461360e565b611c6a611c5636869003860186613763565b604080516020810190915284548152612f7b565b9050611c7461360e565b604080516020810190915283548152611c9490839063ffffffff6129ed16565b9050611c9e61360e565b604080516020810190915260038501548152611cb990612453565b9050611cc361360e565b611ccd600061241f565b604080516020810190915260028701548152909150611cf2908363ffffffff612f9b16565b15611d1d57604080516020810190915260028601548152611d1a90839063ffffffff61297716565b90505b611d2561360e565b50604080516020810190915285548152611d5882611d4c836109b1368e90038e018e613763565b9063ffffffff612fa316565b611d6157600080fd5b50611d6a61360e565b611d7a838563ffffffff61290216565b9050611d8461360e565b611d94838663ffffffff61290216565b9050611d9e61360e565b604080516020810190915260028901548152611dc0908763ffffffff61290216565b9050611dca61360e565b611dd2612d4a565b6001600160a01b038e166000818152600f602090815260409182902080548351610160810185529485523392850192909252909d50929350810160018152602001611e1b6106e6565b81526020018a8152602001868152602001858152602001611e44611e3f600161241f565b612fab565b815260200160006001600160a01b03168152602001611e63600061241f565b815260209081018490528254600180820185556000948552938290208351600a9092020180546001600160a01b03199081166001600160a01b0393841617825592840151948101805490931694909116939093178082556040830151929392919060ff60a01b1916600160a01b836004811115611edc57fe5b021790555060608201516002820155608082015151600382015560a082015151600482015560c082015151600582015560e08201515160068201556101008201516007820180546001600160a01b0319166001600160a01b039092169190911790556101208201515160088201556101409091015151600990910155611f648d898685612fd4565b611f7e6010611f79868463ffffffff61294516565b612d01565b8751600a54611fa2916001600160a01b03909116903390309063ffffffff612acd16565b600a548851604051630852cd8d60e31b81526001600160a01b03909216916342966c6891611fd291600401613ac3565b600060405180830381600087803b158015611fec57600080fd5b505af1158015612000573d6000803e3d6000fd5b5050825160025461202693506001600160a01b031691503390309063ffffffff612acd16565b89336001600160a01b03168e6001600160a01b03167fb936121d607177b497d6d988b46eba92e61c4d475c0cf8e27fc7d1731e2365dc8b600001518860000151886000015160405161207a93929190613d59565b60405180910390a45050505050505050509392505050565b61209a612d34565b6120a26112ed565b50600060065460ff1660028111156120b657fe5b14156120c157600080fd5b600260065460ff1660028111156120d457fe5b146120f6576120e4600c546130cb565b51600e556006805460ff191660021790555b6120fe61360e565b604080516020810191829052600a546370a0823160e01b9092529081906001600160a01b03166370a08231612136336024850161387a565b60206040518083038186803b15801561214e57600080fd5b505afa158015612162573d6000803e3d6000fd5b505050506040513d601f19601f82011682018060405250810190612186919061374b565b9052905061219261360e565b6040805160208101909152600e5481526121b390839063ffffffff61290216565b3360009081526007602090815260408083208151928301909152600381015482529293506121f191906121e590612453565b9063ffffffff6129a016565b156122ce576121fe61360e565b6040805160208082018352600e54825282519081019092528354825261222a919063ffffffff61290216565b905061223461360e565b60408051602081019091526003840154815261224f90612453565b905061225961360e565b612269838363ffffffff61322a16565b6122825760405180602001604052806000815250612292565b612292828463ffffffff61297716565b90506122a4858263ffffffff61294516565b33600090815260076020526040812081815560018101829055600281018290556003015594505050505b6122d661360e565b604080516020810190915260095481526122f9906122f390612453565b84612f7b565b90506123066009826124b2565b60408051602081019091526008548152612326908563ffffffff61297716565b51600855805160025461234c916001600160a01b0390911690339063ffffffff6124ed16565b8351600a54612370916001600160a01b03909116903390309063ffffffff612acd16565b600a548451604051630852cd8d60e31b81526001600160a01b03909216916342966c68916123a091600401613ac3565b600060405180830381600087803b1580156123ba57600080fd5b505af11580156123ce573d6000803e3d6000fd5b505085518351604051919350915033907f9d349c102bec959fb7f20f9a3621e015819d3ae4ed6e9afd1f56a69d5845600690600090a450505050565b600c546124156106e6565b10611b6657600080fd5b61242761360e565b60408051602081019091528061244b84670de0b6b3a764000063ffffffff61323116565b905292915050565b61245b61360e565b6040805160208101909152600554815261180790839063ffffffff61290216565b5190511490565b60008161248f8161326b565b50506001600160a01b0316600090815260076020526040902090565b5190511190565b6124ba61360e565b6124c382612fab565b6040805160208101909152845481529091506124e5908263ffffffff61297716565b519092555050565b6125708363a9059cbb60e01b848460405160240161250c92919061388e565b60408051601f198184030181529190526020810180517bffffffffffffffffffffffffffffffffffffffffffffffffffffffff167fffffffff00000000000000000000000000000000000000000000000000000000909316929092179091526132ae565b505050565b600060065460ff16600281111561258857fe5b14611b6657600080fd5b6003546040516302abf57960e61b81526000917f46696e616e6369616c436f6e74726163747341646d696e000000000000000000916001600160a01b039091169063aafd5e40906125e7908490600401613ac3565b60206040518083038186803b1580156125ff57600080fd5b505afa158015612613573d6000803e3d6000fd5b505050506040513d601f19601f82011682018060405250810190612637919061369e565b91505090565b6000612647613393565b600b546040516368ad8ae360e01b81529192506001600160a01b038316916368ad8ae391612679918690600401613acc565b600060405180830381600087803b15801561269357600080fd5b505af11580156126a7573d6000803e3d6000fd5b505050505050565b60006126bb828461271c565b600181810154919250600160a01b90910460ff16908160048111156126dc57fe5b118061270d57506126eb6106e6565b6126f4836133d1565b1115801561270d5750600181600481111561270b57fe5b145b61271657600080fd5b50505050565b6001600160a01b0382166000908152600f6020526040812080548310801561277a5750600081848154811061274d57fe5b90600052602060002090600a020160010160149054906101000a900460ff16600481111561277757fe5b14155b61278357600080fd5b80838154811061278f57fe5b90600052602060002090600a020191505092915050565b60006127b2828461271c565b905060026001820154600160a01b900460ff1660048111156127d057fe5b146127db57506128fe565b6127e881600201546130cb565b5160088201556127f661360e565b604080516020808201835260088501548252825190810190925260038401548252612827919063ffffffff61290216565b905061283161360e565b6040805160208101909152601254815261285290839063ffffffff61290216565b60408051602081019091526005850154815290915060009061287a908363ffffffff612fa316565b90508061288857600461288b565b60035b60018501805460ff60a01b1916600160a01b8360048111156128a957fe5b0217905550600184015460078501546040516001600160a01b03928316928881169233927f6c5582199868fabbe697f9ea10abe481bacf53ac78c02a965b34dff82fd20e3b92611aba9216908c908890613986565b5050565b61290a61360e565b6040805160208101909152825184518291670de0b6b3a7640000916129349163ffffffff61323116565b8161293b57fe5b0490529392505050565b61294d61360e565b604080516020810190915282518451829161296e919063ffffffff6133ec16565b90529392505050565b61297f61360e565b604080516020810190915282518451829161296e919063ffffffff61341116565b60006129ab8261241f565b51835111905092915050565b604080516020810190915260038201548152600090611807906129d990612453565b604080516020810190915284548152612c95565b6129f561360e565b604080516020810190915282518451829161296e91612a2290670de0b6b3a764000063ffffffff61323116565b9063ffffffff61345316565b6000612a3982612483565b60408051602080820183526003840154825282519081019092526009548252919250612a6a9163ffffffff61297716565b5160095560408051602080820183528354825282519081019092526008548252612a9a919063ffffffff61297716565b51600855506001600160a01b03166000908152600760205260408120818155600181018290556002810182905560030155565b612716846323b872dd60e01b85858560405160240161250c93929190613962565b6003546040516302abf57960e61b81526000916453746f726560d81b916001600160a01b039091169063aafd5e40906125e7908490600401613ac3565b6000612b368261241f565b51835114905092915050565b6000612bd282856001600160a01b031663dd62ed3e30876040518363ffffffff1660e01b8152600401612b769291906138d5565b60206040518083038186803b158015612b8e57600080fd5b505afa158015612ba2573d6000803e3d6000fd5b505050506040513d601f19601f82011682018060405250810190612bc6919061374b565b9063ffffffff6133ec16565b90506127168463095ea7b360e01b858460405160240161250c92919061388e565b612bfb61360e565b8251600090612c1890670de0b6b3a764000063ffffffff61323116565b8351909150600090612c3190839063ffffffff61345316565b8451909150600090612c4a90849063ffffffff61349516565b90508015612c7c57604080516020810190915280612c6f84600163ffffffff6133ec16565b8152509350505050611807565b6040518060200160405280838152509350505050611807565b6000612c9f61360e565b60408051602081019091526009548152612cd190612cbc90612453565b604080516020810190915260085481526134d7565b9050612cdb61360e565b612ce585856134d7565b9050612cf7828263ffffffff6124ab16565b1595945050505050565b612d0961360e565b612d1282612fab565b6040805160208101909152845481529091506124e5908263ffffffff61294516565b600c54612d3f6106e6565b1015611b6657600080fd5b612d5261360e565b6000612d5c612aee565b600254604051635b97aadd60e01b81529192506001600160a01b0380841692635b97aadd92612d8f92169060040161387a565b60206040518083038186803b158015612da757600080fd5b505afa158015612dbb573d6000803e3d6000fd5b505050506040513d601f19601f82011682018060405250810190612637919061377e565b612df081600063ffffffff612b2b16565b15612dfa576128fe565b6001600160a01b0382163014612e33578051600254612e2e916001600160a01b03909116908490309063ffffffff612acd16565b612e98565b612e3b61360e565b612e43611785565b9050612e55818363ffffffff6124ab16565b612e5e57600080fd5b612e6661360e565b612e7e612e71611785565b849063ffffffff612bf316565b9050612e916114eb82610bb7600161241f565b5160055550505b6000612ea2612aee565b8251600254919250612ec5916001600160a01b031690839063ffffffff612b4216565b600254604051634933a88760e01b81526001600160a01b0383811692634933a88792612ef7929091169060040161387a565b600060405180830381600087803b158015612f1157600080fd5b505af1158015612f25573d6000803e3d6000fd5b50505050505050565b6000612f3a828461271c565b9050612f45816133d1565b612f4d6106e6565b108015612f725750600180820154600160a01b900460ff166004811115612f7057fe5b145b61257057600080fd5b612f8361360e565b8151835110612f925781612f94565b825b9392505050565b519051111590565b519051101590565b612fb361360e565b6040805160208101909152600554815261180790839063ffffffff6129ed16565b6000612fdf85612483565b60408051602081019091528154815290915061300290859063ffffffff61247c16565b801561302a575060408051602081019091526003820154815261302a90849061057590612453565b1561303e5761303885612a2e565b50612716565b61304b81600301846124b2565b60408051602081019091528154815261306a908563ffffffff61297716565b51815560408051602081019091526002820154815261308f908363ffffffff61297716565b5160028201556130a06009846124b2565b604080516020810190915260085481526130c0908563ffffffff61297716565b516008555050505050565b6130d361360e565b60006130dd613393565b600b5460405163501f440d60e11b81529192506001600160a01b0383169163a03e881a9161310f918790600401613acc565b60206040518083038186803b15801561312757600080fd5b505afa15801561313b573d6000803e3d6000fd5b505050506040513d601f19601f8201168201806040525081019061315f919061372b565b61317b5760405162461bcd60e51b81526004016116ca90613bc4565b600b54604051636494078360e11b81526000916001600160a01b0384169163c9280f06916131ad918890600401613acc565b60206040518083038186803b1580156131c557600080fd5b505afa1580156131d9573d6000803e3d6000fd5b505050506040513d601f19601f820116820180604052508101906131fd919061374b565b9050600081121561320c575060005b604051806020016040528061322083613515565b9052949350505050565b5190511090565b60008261324057506000611807565b8282028284828161324d57fe5b0414612f945760405162461bcd60e51b81526004016116ca90613c21565b6001600160a01b038116600090815260076020908152604080832081519283019091526003015481526132a291906121e590612453565b6132ab57600080fd5b50565b6132c0826001600160a01b031661353b565b6132dc5760405162461bcd60e51b81526004016116ca90613ce3565b60006060836001600160a01b0316836040516132f8919061385e565b6000604051808303816000865af19150503d8060008114613335576040519150601f19603f3d011682016040523d82523d6000602084013e61333a565b606091505b50915091508161335c5760405162461bcd60e51b81526004016116ca90613b8f565b8051156127165780806020019051810190613377919061372b565b6127165760405162461bcd60e51b81526004016116ca90613c99565b6003546040516302abf57960e61b8152600091654f7261636c6560d01b916001600160a01b039091169063aafd5e40906125e7908490600401613ac3565b600061180760115483600201546133ec90919063ffffffff16565b600082820183811015612f945760405162461bcd60e51b81526004016116ca90613b21565b6000612f9483836040518060400160405280601e81526020017f536166654d6174683a207375627472616374696f6e206f766572666c6f770000815250613577565b6000612f9483836040518060400160405280601a81526020017f536166654d6174683a206469766973696f6e206279207a65726f0000000000008152506135a3565b6000612f9483836040518060400160405280601881526020017f536166654d6174683a206d6f64756c6f206279207a65726f00000000000000008152506135da565b6134df61360e565b6134f082600063ffffffff6129a016565b613505576134fe600061241f565b9050611807565b6134fe838363ffffffff6129ed16565b6000808212156135375760405162461bcd60e51b81526004016116ca90613b58565b5090565b6000813f7fc5d2460186f7233c927e7db2dcc703c0e500b653ca82273b7bfad8045d85a47081811480159061356f57508115155b949350505050565b6000818484111561359b5760405162461bcd60e51b81526004016116ca9190613aee565b505050900390565b600081836135c45760405162461bcd60e51b81526004016116ca9190613aee565b5060008385816135d057fe5b0495945050505050565b600081836135fb5760405162461bcd60e51b81526004016116ca9190613aee565b5082848161360557fe5b06949350505050565b6040518060200160405280600081525090565b600060208284031215613632578081fd5b50919050565b600060208284031215613649578081fd5b6136536020613d6f565b9135825250919050565b60006020828403121561366e578081fd5b6136786020613d6f565b9151825250919050565b600060208284031215613693578081fd5b8135612f9481613dcc565b6000602082840312156136af578081fd5b8151612f9481613dcc565b6000806000606084860312156136ce578182fd5b83356136d981613dcc565b92506136e88560208601613621565b91506136f78560408601613621565b90509250925092565b60008060408385031215613712578182fd5b823561371d81613dcc565b946020939093013593505050565b60006020828403121561373c578081fd5b81518015158114612f94578182fd5b60006020828403121561375c578081fd5b5051919050565b600060208284031215613774578081fd5b612f948383613638565b60006020828403121561378f578081fd5b612f94838361365d565b600080604083850312156137ab578182fd5b6137b58484613638565b91506137c48460208501613638565b90509250929050565b600080604083850312156137df578182fd5b6137e9848461365d565b91506137c4846020850161365d565b600060208284031215613809578081fd5b5035919050565b60008060408385031215613822578182fd5b82359150602083013561383481613dcc565b809150509250929050565b6001600160a01b03169052565b61385581613dc2565b9052565b519052565b60008251613870818460208701613d96565b9190910192915050565b6001600160a01b0391909116815260200190565b6001600160a01b03929092168252602082015260400190565b6001600160a01b038416815260208101839052606081016138c783613dc2565b826040830152949350505050565b6001600160a01b0392831681529116602082015260400190565b6001600160a01b038c811682528b811660208301526101608201906139138c613dc2565b604083019b909b52606082019990995296516080880152945160a0870152925160c0860152905160e0850152909416610100830152925161012082015291516101409092019190915292915050565b6001600160a01b039384168152919092166020820152604081019190915260600190565b6001600160a01b0393909316835260208301919091521515604082015260600190565b602080825282518282018190526000919060409081850190868401855b82811015613aab5781516139db85825161383f565b868101516139eb8887018261383f565b50858101516139fc8787018261384c565b5060608181015190860152608080820151613a1982880182613859565b505060a080820151613a2d82880182613859565b505060c080820151613a4182880182613859565b505060e080820151613a5582880182613859565b505061010080820151613a6a8288018261383f565b505061012080820151613a7f82880182613859565b505061014080820151613a9482880182613859565b5050506101609390930192908501906001016139c6565b5091979650505050505050565b901515815260200190565b90815260200190565b918252602082015260400190565b6020810160038310613ae857fe5b91905290565b6000602082528251806020840152613b0d816040850160208701613d96565b601f01601f19169190910160400192915050565b6020808252601b908201527f536166654d6174683a206164646974696f6e206f766572666c6f770000000000604082015260600190565b6020808252600e908201527f55696e7420756e646572666c6f77000000000000000000000000000000000000604082015260600190565b6020808252818101527f5361666545524332303a206c6f772d6c6576656c2063616c6c206661696c6564604082015260600190565b6020808252602e908201527f43616e206f6e6c79206765742061207072696365206f6e63652074686520445660408201527f4d20686173207265736f6c766564000000000000000000000000000000000000606082015260800190565b60208082526021908201527f536166654d6174683a206d756c7469706c69636174696f6e206f766572666c6f6040820152607760f81b606082015260800190565b6020808252601f908201527f4d696e74696e672073796e74686574696320746f6b656e73206661696c656400604082015260600190565b6020808252602a908201527f5361666545524332303a204552433230206f7065726174696f6e20646964206e6040820152691bdd081cdd58d8d9595960b21b606082015260800190565b6020808252601f908201527f5361666545524332303a2063616c6c20746f206e6f6e2d636f6e747261637400604082015260600190565b9051815260200190565b93518452602084019290925251604083015251606082015260800190565b928352602083019190915251604082015260600190565b9283526020830191909152604082015260600190565b60405181810167ffffffffffffffff81118282101715613d8e57600080fd5b604052919050565b60005b83811015613db1578181015183820152602001613d99565b838111156127165750506000910152565b600581106132ab57fe5b6001600160a01b03811681146132ab57600080fd5b6000613dec8261241f565b5183511090509291505056fea26469706673582212202bc8ca4bb7435c714b674319e4b0e961bbad8e4755486fa137aafb9d6677c29764736f6c63430006040033",
  "source": "pragma solidity ^0.6.0;\npragma experimental ABIEncoderV2;\n\nimport \"@openzeppelin/contracts/math/SafeMath.sol\";\nimport \"@openzeppelin/contracts/token/ERC20/SafeERC20.sol\";\n\nimport \"../../common/implementation/FixedPoint.sol\";\nimport \"../../common/implementation/Testable.sol\";\nimport \"./PricelessPositionManager.sol\";\n\n\n/**\n@title Liquidatable\n@notice Adds logic to a position-managing contract that enables callers to\nliquidate an undercollateralized position.\n@dev The liquidation has a liveness period before expiring successfully, during which\nsomeone can \"dispute\" the liquidation, which sends a price request to the relevant\nOracle to settle the final collateralization ratio based on a DVM price. The\ncontract enforces dispute rewards in order to incentivize disputers to correctly\ndispute false liquidations and compensate position sponsors who had their position\nincorrectly liquidated. Importantly, a prospective disputer must deposit a dispute\nbond that they can lose in the case of an unsuccessful dispute.\n*/\ncontract Liquidatable is PricelessPositionManager {\n    using FixedPoint for FixedPoint.Unsigned;\n    using SafeMath for uint;\n    using SafeERC20 for IERC20;\n\n    /****************************************\n     *     LIQUIDATION DATA STRUCTURES      *\n     ****************************************/\n\n    // Because of the check in withdrawable(), the order of these enum values should not change.\n    enum Status { Uninitialized, PreDispute, PendingDispute, DisputeSucceeded, DisputeFailed }\n\n    struct LiquidationData {\n        // Following variables set upon creation of liquidation:\n        address sponsor; // Address of the liquidated position's sponsor\n        address liquidator; // Address who created this liquidation\n        Status state; // Liquidated (and expired or not), Pending a Dispute, or Dispute has resolved\n        uint liquidationTime; // Time when liquidation is initiated, needed to get price from Oracle\n        // Following variables determined by the position that is being liquidated:\n        FixedPoint.Unsigned tokensOutstanding; // Synthetic Tokens required to be burned by liquidator to initiate dispute\n        FixedPoint.Unsigned lockedCollateral; // Collateral locked by contract and released upon expiry or post-dispute\n        // Amount of collateral being liquidated, which could be different from\n        // lockedCollateral if there were pending withdrawals at the time of liquidation\n        FixedPoint.Unsigned liquidatedCollateral;\n        // Unit value (starts at 1) that is used to track the fees per unit of collateral over the course of the liquidation.\n        FixedPoint.Unsigned rawUnitCollateral;\n        // Following variable set upon initiation of a dispute:\n        address disputer; // Person who is disputing a liquidation\n        // Following variable set upon a resolution of a dispute:\n        FixedPoint.Unsigned settlementPrice; // Final price as determined by an Oracle following a dispute\n        FixedPoint.Unsigned finalFee;\n    }\n\n    // Define the contract's constructor parameters as a struct to enable more variables to be specified.\n    // This is required to enable more params, over and above Solidity's limits.\n    struct ConstructorParams {\n        // Params for PricelessPositionManager only.\n        bool isTest;\n        uint expirationTimestamp;\n        uint withdrawalLiveness;\n        address collateralAddress;\n        address finderAddress;\n        address tokenFactoryAddress;\n        bytes32 priceFeedIdentifier;\n        string syntheticName;\n        string syntheticSymbol;\n        // Params specifically for Liquidatable.\n        uint liquidationLiveness;\n        FixedPoint.Unsigned collateralRequirement;\n        FixedPoint.Unsigned disputeBondPct;\n        FixedPoint.Unsigned sponsorDisputeRewardPct;\n        FixedPoint.Unsigned disputerDisputeRewardPct;\n    }\n\n    // Liquidations are unique by ID per sponsor\n    mapping(address => LiquidationData[]) public liquidations;\n\n    // Total collateral in liquidation.\n    FixedPoint.Unsigned public rawLiquidationCollateral;\n\n    // Immutable contract parameters.\n\n    // Amount of time for pending liquidation before expiry\n    uint public liquidationLiveness;\n    // Required collateral:TRV ratio for a position to be considered sufficiently collateralized.\n    FixedPoint.Unsigned public collateralRequirement;\n    // Percent of a Liquidation/Position's lockedCollateral to be deposited by a potential disputer\n    // Represented as a multiplier, for example 1.5e18 = \"150%\" and 0.05e18 = \"5%\"\n    FixedPoint.Unsigned public disputeBondPct;\n    // Percent of oraclePrice paid to sponsor in the Disputed state (i.e. following a successful dispute)\n    // Represented as a multipler, see above\n    FixedPoint.Unsigned public sponsorDisputeRewardPct;\n    // Percent of oraclePrice paid to disputer in the Disputed state (i.e. following a successful dispute)\n    // Represented as a multipler, see above\n    FixedPoint.Unsigned public disputerDisputeRewardPct;\n\n    /****************************************\n     *                EVENTS                *\n     ****************************************/\n\n    event LiquidationCreated(\n        address indexed sponsor,\n        address indexed liquidator,\n        uint indexed liquidationId,\n        uint tokensOutstanding,\n        uint lockedCollateral,\n        uint liquidatedCollateral\n    );\n    event LiquidationDisputed(\n        address indexed sponsor,\n        address indexed liquidator,\n        address indexed disputer,\n        uint liquidationId,\n        uint disputeBondAmount\n    );\n    event DisputeSettled(\n        address indexed caller,\n        address indexed sponsor,\n        address indexed liquidator,\n        address disputer,\n        uint liquidationId,\n        bool DisputeSucceeded\n    );\n    event LiquidationWithdrawn(address caller, uint256 withdrawalAmount, Status liquidationStatus);\n\n    /****************************************\n     *              MODIFIERS               *\n     ****************************************/\n\n    modifier disputable(uint liquidationId, address sponsor) {\n        _disputable(liquidationId, sponsor);\n        _;\n    }\n\n    modifier withdrawable(uint liquidationId, address sponsor) {\n        _withdrawable(liquidationId, sponsor);\n        _;\n    }\n\n    /**\n     * @notice Constructs the liquidatable contract.\n     * @param params struct to define input parameters for construction of Liquidatable. Some params\n     * are fed directly into the `PricelessPositionManager's constructor within the inheritance tree.\n     */\n    constructor(ConstructorParams memory params)\n        public\n        PricelessPositionManager(\n            params.isTest,\n            params.expirationTimestamp,\n            params.withdrawalLiveness,\n            params.collateralAddress,\n            params.finderAddress,\n            params.priceFeedIdentifier,\n            params.syntheticName,\n            params.syntheticSymbol,\n            params.tokenFactoryAddress\n        )\n    {\n        require(params.collateralRequirement.isGreaterThan(1));\n        require(params.sponsorDisputeRewardPct.add(params.disputerDisputeRewardPct).isLessThan(1));\n\n        // Set liquidatable specific variables.\n        liquidationLiveness = params.liquidationLiveness;\n        collateralRequirement = params.collateralRequirement;\n        disputeBondPct = params.disputeBondPct;\n        sponsorDisputeRewardPct = params.sponsorDisputeRewardPct;\n        disputerDisputeRewardPct = params.disputerDisputeRewardPct;\n    }\n\n    /****************************************\n     *        LIQUIDATION FUNCTIONS         *\n     ****************************************/\n\n    /**\n     * @notice Liquidates the sponsor's position if the caller has enough\n     * synthetic tokens to retire the position's outstanding tokens.\n     * @dev This method generates an ID that will uniquely identify liquidation for the sponsor.\n     * @param sponsor address to liquidate.\n     * @param collateralPerToken abort the liquidation if the position's collateral per token exceeds this value.\n     * @param maxTokensToLiquidate max number of tokes to liquidate.\n     * @return liquidationId of the newly created liquidation.\n     */\n    function createLiquidation(\n        address sponsor,\n        FixedPoint.Unsigned calldata collateralPerToken,\n        FixedPoint.Unsigned calldata maxTokensToLiquidate\n    ) external fees() onlyPreExpiration() returns (uint liquidationId) {\n        // Retrieve Position data for sponsor\n        PositionData storage positionToLiquidate = _getPositionData(sponsor);\n\n        FixedPoint.Unsigned memory tokensToLiquidate = FixedPoint.min(\n            maxTokensToLiquidate,\n            positionToLiquidate.tokensOutstanding\n        );\n        // TODO: Limit liquidations from being too small or very close to 100% without being exactly 100%.\n        FixedPoint.Unsigned memory ratio = tokensToLiquidate.div(positionToLiquidate.tokensOutstanding);\n\n        // Starting values for the Position being liquidated.\n        // If withdrawal request amount is > position's collateral, then set this to 0, otherwise set it to (startCollateral - withdrawal request amount).\n        FixedPoint.Unsigned memory startCollateral = _getCollateral(positionToLiquidate.rawCollateral);\n        FixedPoint.Unsigned memory startCollateralNetOfWithdrawal = FixedPoint.fromUnscaledUint(0);\n        if (positionToLiquidate.withdrawalRequestAmount.isLessThanOrEqual(startCollateral)) {\n            startCollateralNetOfWithdrawal = startCollateral.sub(positionToLiquidate.withdrawalRequestAmount);\n        }\n\n        // Scoping to get rid of a stack too deep error.\n        {\n            FixedPoint.Unsigned memory startTokens = positionToLiquidate.tokensOutstanding;\n\n            // Check the max price constraint to ensure that the Position's collateralization ratio hasn't increased beyond\n            // what the liquidator was willing to liquidate at.\n            // collateralPerToken >= startCollateralNetOfWithdrawal / startTokens.\n            require(collateralPerToken.mul(startTokens).isGreaterThanOrEqual(startCollateralNetOfWithdrawal));\n        }\n\n        // The actual amount of collateral that gets moved to the liquidation.\n        FixedPoint.Unsigned memory lockedCollateral = startCollateral.mul(ratio);\n        // For purposes of disputes, it's actually this liquidatedCollateral value that's used. This value is net of\n        // withdrawal requests.\n        FixedPoint.Unsigned memory liquidatedCollateral = startCollateralNetOfWithdrawal.mul(ratio);\n        // Part of the withdrawal request is also removed. Ideally:\n        // liquidatedCollateral + withdrawalAmountToRemove = lockedCollateral.\n        FixedPoint.Unsigned memory withdrawalAmountToRemove = positionToLiquidate.withdrawalRequestAmount.mul(ratio);\n\n        // Compute final fee at time of liquidation.\n        FixedPoint.Unsigned memory finalFee = _computeFinalFees();\n\n        // Construct liquidation object.\n        // Note: all dispute-related values are just zeroed out until a dispute occurs.\n        // liquidationId is the index of the new LiquidationData that we will push into the array,\n        // which is equal to the current length of the array pre-push.\n        liquidationId = liquidations[sponsor].length;\n        liquidations[sponsor].push(\n            LiquidationData({\n                sponsor: sponsor,\n                liquidator: msg.sender,\n                state: Status.PreDispute,\n                liquidationTime: getCurrentTime(),\n                tokensOutstanding: tokensToLiquidate,\n                lockedCollateral: lockedCollateral,\n                liquidatedCollateral: liquidatedCollateral,\n                rawUnitCollateral: _convertCollateral(FixedPoint.fromUnscaledUint(1)),\n                disputer: address(0),\n                settlementPrice: FixedPoint.fromUnscaledUint(0),\n                finalFee: finalFee\n            })\n        );\n\n        // Adjust the sponsor's remaining position.\n        _reduceSponsorPosition(sponsor, tokensToLiquidate, lockedCollateral, withdrawalAmountToRemove);\n\n        // Add to the global liquidation collateral count.\n        _addCollateral(rawLiquidationCollateral, lockedCollateral.add(finalFee));\n\n        // Destroy tokens\n        tokenCurrency.safeTransferFrom(msg.sender, address(this), tokensToLiquidate.rawValue);\n        tokenCurrency.burn(tokensToLiquidate.rawValue);\n\n        // Pull final fee from liquidator.\n        collateralCurrency.safeTransferFrom(msg.sender, address(this), finalFee.rawValue);\n\n        emit LiquidationCreated(\n            sponsor,\n            msg.sender,\n            liquidationId,\n            tokensToLiquidate.rawValue,\n            lockedCollateral.rawValue,\n            liquidatedCollateral.rawValue\n        );\n    }\n\n    /**\n     * @notice Disputes a liquidation, if the caller has enough collateral to post a dispute bond\n     * and pay a fixed final fee charged on each price request.\n     * @dev Can only dispute a liquidation before the liquidation expires and if there are no other pending disputes.\n     * @param liquidationId of the disputed liquidation.\n     * @param sponsor the address of the sponsor who's liquidation is being disputed.\n     */\n    function dispute(uint liquidationId, address sponsor) external disputable(liquidationId, sponsor) fees() {\n        LiquidationData storage disputedLiquidation = _getLiquidationData(sponsor, liquidationId);\n\n        // Multiply by the unit collateral so the dispute bond is a percentage of the locked collateral after fees.\n        FixedPoint.Unsigned memory disputeBondAmount = disputedLiquidation.lockedCollateral.mul(disputeBondPct).mul(\n            _getCollateral(disputedLiquidation.rawUnitCollateral)\n        );\n        _addCollateral(rawLiquidationCollateral, disputeBondAmount);\n\n        collateralCurrency.safeTransferFrom(msg.sender, address(this), disputeBondAmount.rawValue);\n\n        // Request a price from DVM,\n        // Liquidation is pending dispute until DVM returns a price\n        disputedLiquidation.state = Status.PendingDispute;\n        disputedLiquidation.disputer = msg.sender;\n\n        // Enqueue a request with the DVM.\n        _requestOraclePrice(disputedLiquidation.liquidationTime);\n\n        // Pay a final fee.\n        _payFinalFees(msg.sender, disputedLiquidation.finalFee);\n\n        emit LiquidationDisputed(\n            sponsor,\n            disputedLiquidation.liquidator,\n            msg.sender,\n            liquidationId,\n            disputeBondAmount.rawValue\n        );\n    }\n\n    /**\n     * @notice After a dispute has settled or after a non-disputed liquidation has expired,\n     * the sponsor, liquidator, and/or disputer can call this method to receive payments.\n     * @dev If the dispute SUCCEEDED: the sponsor, liquidator, and disputer are eligible for payment\n     * If the dispute FAILED: only the liquidator can receive payment\n     * Once all collateral is withdrawn, delete the liquidation data.\n     * @param liquidationId uniquely identifies the sponsor's liquidation.\n     * @param sponsor address of the sponsor associated with the liquidation.\n     * @return withdrawalAmount the total amount of underlying returned from the liquidation.\n     */\n    function withdrawLiquidation(uint liquidationId, address sponsor)\n        public\n        withdrawable(liquidationId, sponsor)\n        fees()\n        returns (FixedPoint.Unsigned memory withdrawalAmount)\n    {\n        LiquidationData storage liquidation = _getLiquidationData(sponsor, liquidationId);\n        require(\n            (msg.sender == liquidation.disputer) ||\n                (msg.sender == liquidation.liquidator) ||\n                (msg.sender == liquidation.sponsor)\n        );\n\n        // Settles the liquidation if necessary.\n        // Note: this will fail if the price has not resolved yet.\n        _settle(liquidationId, sponsor);\n\n        // Calculate rewards as a function of the TRV. Note: all payouts are scaled by the unit collateral value so\n        // all payouts are charged the fees pro rata.\n        FixedPoint.Unsigned memory feeAttenuation = _getCollateral(liquidation.rawUnitCollateral);\n        FixedPoint.Unsigned memory tokenRedemptionValue = liquidation\n            .tokensOutstanding\n            .mul(liquidation.settlementPrice)\n            .mul(feeAttenuation);\n        FixedPoint.Unsigned memory collateral = liquidation.lockedCollateral.mul(feeAttenuation);\n        FixedPoint.Unsigned memory disputerDisputeReward = disputerDisputeRewardPct.mul(tokenRedemptionValue);\n        FixedPoint.Unsigned memory sponsorDisputeReward = sponsorDisputeRewardPct.mul(tokenRedemptionValue);\n        FixedPoint.Unsigned memory disputeBondAmount = collateral.mul(disputeBondPct);\n        FixedPoint.Unsigned memory finalFee = liquidation.finalFee.mul(feeAttenuation);\n\n        // There are three main outcome states: either the dispute succeeded, failed or was not updated.\n        // Based on the state, different parties of a liquidation can withdraw different amounts.\n        // Once a caller has been paid their address deleted from the struct.\n        // This prevents them from being paid multiple from times the same liquidation.\n        if (liquidation.state == Status.DisputeSucceeded) {\n            // If the dispute is successful then all three users can withdraw from the contract.\n            if (msg.sender == liquidation.disputer) {\n                // Pay DISPUTER: disputer reward + dispute bond + returned final fee\n                FixedPoint.Unsigned memory payToDisputer = disputerDisputeReward.add(disputeBondAmount).add(finalFee);\n                withdrawalAmount = withdrawalAmount.add(payToDisputer);\n                delete liquidation.disputer;\n            }\n\n            if (msg.sender == liquidation.sponsor) {\n                // Pay SPONSOR: remaining collateral (collateral - TRV) + sponsor reward\n                FixedPoint.Unsigned memory remainingCollateral = collateral.sub(tokenRedemptionValue);\n                FixedPoint.Unsigned memory payToSponsor = sponsorDisputeReward.add(remainingCollateral);\n                withdrawalAmount = withdrawalAmount.add(payToSponsor);\n                delete liquidation.sponsor;\n            }\n\n            if (msg.sender == liquidation.liquidator) {\n                // Pay LIQUIDATOR: TRV - dispute reward - sponsor reward\n                // If TRV > Collateral, then subtract rewards from collateral\n                // NOTE: This should never be below zero since we prevent (sponsorDisputePct+disputerDisputePct) >= 0 in\n                // the constructor when these params are set\n                FixedPoint.Unsigned memory payToLiquidator = tokenRedemptionValue.sub(sponsorDisputeReward).sub(\n                    disputerDisputeReward\n                );\n                withdrawalAmount = withdrawalAmount.add(payToLiquidator);\n                delete liquidation.liquidator;\n            }\n\n            // Free up space once all collateral is withdrawn\n            if (\n                liquidation.disputer == address(0) &&\n                liquidation.sponsor == address(0) &&\n                liquidation.liquidator == address(0)\n            ) {\n                delete liquidations[sponsor][liquidationId];\n            }\n            // In the case of a failed dispute only the liquidator can withdraw.\n        } else if (liquidation.state == Status.DisputeFailed && msg.sender == liquidation.liquidator) {\n            // Pay LIQUIDATOR: collateral + dispute bond + returned final fee\n            withdrawalAmount = collateral.add(disputeBondAmount).add(finalFee);\n            delete liquidations[sponsor][liquidationId];\n            // If the state is pre-dispute but time has passed liveness then the dispute failed and the liquidator can withdraw\n        } else if (liquidation.state == Status.PreDispute && msg.sender == liquidation.liquidator) {\n            // Pay LIQUIDATOR: collateral + returned final fee\n            withdrawalAmount = collateral.add(finalFee);\n            delete liquidations[sponsor][liquidationId];\n        }\n\n        require(withdrawalAmount.isGreaterThan(0));\n        _removeCollateral(rawLiquidationCollateral, withdrawalAmount);\n        collateralCurrency.safeTransfer(msg.sender, withdrawalAmount.rawValue);\n\n        emit LiquidationWithdrawn(msg.sender, withdrawalAmount.rawValue, liquidation.state);\n    }\n\n    /**\n     * @dev This overrides pfc() so the Liquidatable contract can report its profit from corruption.\n     */\n    // TODO(#969) Remove once prettier-plugin-solidity can handle the \"override\" keyword\n    // prettier-ignore\n    function pfc() public override view returns (FixedPoint.Unsigned memory) {\n        return super.pfc().add(_getCollateral(rawLiquidationCollateral));\n    }\n\n    function getLiquidations(address sponsor) external view returns (LiquidationData[] memory) {\n        return liquidations[sponsor];\n    }\n\n    /****************************************\n     *          INTERNAL FUNCTIONS          *\n     ****************************************/\n\n    // This settles a liquidation if it is in the PendingDispute state. If not, it will immediately return.\n    // If the liquidation is in the PendingDispute state, but a price is not available, this will revert.\n    function _settle(uint liquidationId, address sponsor) internal {\n        LiquidationData storage liquidation = _getLiquidationData(sponsor, liquidationId);\n\n        // Settlement only happens when state == PendingDispute and will only happen once per liquidation.\n        // If this liquidation is not ready to be settled, this method should return immediately.\n        if (liquidation.state != Status.PendingDispute) {\n            return;\n        }\n\n        // Get the returned price from the oracle. If this has not yet resolved will revert.\n        liquidation.settlementPrice = _getOraclePrice(liquidation.liquidationTime);\n\n        // Find the value of the tokens in the underlying collateral.\n        FixedPoint.Unsigned memory tokenRedemptionValue = liquidation.tokensOutstanding.mul(\n            liquidation.settlementPrice\n        );\n\n        // The required collateral is the value of the tokens in underlying * required collateral ratio.\n        FixedPoint.Unsigned memory requiredCollateral = tokenRedemptionValue.mul(collateralRequirement);\n\n        // If the position has more than the required collateral it is solvent and the dispute is valid(liquidation is invalid)\n        // Note that this check uses the liquidatedCollateral not the lockedCollateral as this considers withdrawals.\n        bool disputeSucceeded = liquidation.liquidatedCollateral.isGreaterThanOrEqual(requiredCollateral);\n        liquidation.state = disputeSucceeded ? Status.DisputeSucceeded : Status.DisputeFailed;\n\n        emit DisputeSettled(\n            msg.sender,\n            sponsor,\n            liquidation.liquidator,\n            liquidation.disputer,\n            liquidationId,\n            disputeSucceeded\n        );\n    }\n\n    function _getLiquidationData(address sponsor, uint liquidationId)\n        internal\n        view\n        returns (LiquidationData storage liquidation)\n    {\n        LiquidationData[] storage liquidationArray = liquidations[sponsor];\n\n        // Revert if the caller is attempting to access an invalid liquidation (one that has never been created or one\n        // has never been initialized).\n        require(\n            liquidationId < liquidationArray.length && liquidationArray[liquidationId].state != Status.Uninitialized\n        );\n        return liquidationArray[liquidationId];\n    }\n\n    function _getLiquidationExpiry(LiquidationData storage liquidation) internal view returns (uint) {\n        return liquidation.liquidationTime.add(liquidationLiveness);\n    }\n\n    /**\n     * @dev These internal functions are supposed to act identically to modifiers, but re-used modifiers\n     * unnecessarily increase contract bytecode size.\n     * source: https://blog.polymath.network/solidity-tips-and-tricks-to-save-gas-and-reduce-bytecode-size-c44580b218e6\n     */\n    function _disputable(uint liquidationId, address sponsor) internal view {\n        LiquidationData storage liquidation = _getLiquidationData(sponsor, liquidationId);\n        require((getCurrentTime() < _getLiquidationExpiry(liquidation)) && (liquidation.state == Status.PreDispute));\n    }\n\n    function _withdrawable(uint liquidationId, address sponsor) internal view {\n        LiquidationData storage liquidation = _getLiquidationData(sponsor, liquidationId);\n        Status state = liquidation.state;\n\n        // Must be disputed or the liquidation has passed expiry.\n        require(\n            (state > Status.PreDispute) ||\n                ((_getLiquidationExpiry(liquidation) <= getCurrentTime()) && (state == Status.PreDispute))\n        );\n    }\n}\n",
  "sourcePath": "/home/opz/Projects/SynFiat/contracts/uma-contracts/financial-templates/implementation/Liquidatable.sol",
  "compiler": {
    "name": "solc",
    "version": "0.6.4+commit.1dca32f3.Emscripten.clang"
  },
  "schemaVersion": "3.2.0",
  "updatedAt": "2020-06-01T04:24:41.804Z",
  "devdoc": {
    "details": "The liquidation has a liveness period before expiring successfully, during which someone can \"dispute\" the liquidation, which sends a price request to the relevant Oracle to settle the final collateralization ratio based on a DVM price. The contract enforces dispute rewards in order to incentivize disputers to correctly dispute false liquidations and compensate position sponsors who had their position incorrectly liquidated. Importantly, a prospective disputer must deposit a dispute bond that they can lose in the case of an unsuccessful dispute.",
    "methods": {
      "constructor": {
        "params": {
          "params": "struct to define input parameters for construction of Liquidatable. Some params are fed directly into the `PricelessPositionManager's constructor within the inheritance tree."
        }
      },
      "create((uint256),(uint256))": {
        "details": "Reverts if the minting these tokens would put the position's collateralization ratio below the global collateralization ratio.",
        "params": {
          "collateralAmount": "is the number of collateral tokens to collateralize the position with",
          "numTokens": "is the number of tokens to mint from the position."
        }
      },
      "createLiquidation(address,(uint256),(uint256))": {
        "details": "This method generates an ID that will uniquely identify liquidation for the sponsor.",
        "params": {
          "collateralPerToken": "abort the liquidation if the position's collateral per token exceeds this value.",
          "maxTokensToLiquidate": "max number of tokes to liquidate.",
          "sponsor": "address to liquidate."
        },
        "returns": {
          "liquidationId": "of the newly created liquidation."
        }
      },
      "deposit((uint256))": {
        "details": "Increases the collateralization level of a position after creation.",
        "params": {
          "collateralAmount": "total amount of collateral tokens to be sent to the sponsor's position."
        }
      },
      "dispute(uint256,address)": {
        "details": "Can only dispute a liquidation before the liquidation expires and if there are no other pending disputes.",
        "params": {
          "liquidationId": "of the disputed liquidation.",
          "sponsor": "the address of the sponsor who's liquidation is being disputed."
        }
      },
      "emergencyShutdown()": {
        "details": "Only the governor can call this function as they are permissioned within the `FinancialContractAdmin`. Upon emergency shutdown, the contract settlement time is set to the shutdown time. This enables withdrawal to occur via the standard `settleExpired` function. Contract state is set to `ExpiredPriceRequested` which prevents re-entry into this function or the `expire` function. No fees are paid when calling `emergencyShutdown` as the governor who would call the function would also receive the fees."
      },
      "expire()": {
        "details": "this function can only be called once the contract is expired and cant be re-called due to the state modifiers applied on it."
      },
      "getCollateral(address)": {
        "details": "This is necessary because the struct returned by the positions() method shows rawCollateral, which isn't a user-readable value.",
        "params": {
          "sponsor": "address whose collateral amount is retrieved."
        }
      },
      "payFees()": {
        "details": "These must be paid periodically for the life of the contract. If the contract has not paid its regular fee in a week or mre then a late penalty is applied which is sent to the caller.",
        "returns": {
          "totalPaid": "The amount of collateral that the contract paid (sum of the amount paid to the Store and the caller)."
        }
      },
      "pfc()": {
        "details": "This overrides pfc() so the Liquidatable contract can report its profit from corruption."
      },
      "redeem((uint256))": {
        "details": "Can only be called by a token sponsor.",
        "params": {
          "numTokens": "is the number of tokens to be burnt for a commensurate amount of collateral."
        }
      },
      "requestWithdrawal((uint256))": {
        "details": "The request will be pending for `withdrawalLiveness`, during which the position can be liquidated.",
        "params": {
          "collateralAmount": "the amount of collateral requested to withdraw"
        }
      },
      "setCurrentTime(uint256)": {
        "details": "Will revert if not running in test mode."
      },
      "settleExpired()": {
        "details": "This Burns all tokens from the caller of `tokenCurrency` and sends back the proportional amount of `collateralCurrency`."
      },
      "transfer(address)": {
        "details": "Transferring positions can only occur if the recipient does not already have a position.",
        "params": {
          "newSponsorAddress": "is the address to which the position will be transferred."
        }
      },
      "withdraw((uint256))": {
        "details": "Reverts if the withdrawal puts this position's collateralization ratio below the global collateralization ratio. In that case, use `requestWithdrawawal`.",
        "params": {
          "collateralAmount": "is the amount of collateral to withdraw"
        }
      },
      "withdrawLiquidation(uint256,address)": {
        "details": "If the dispute SUCCEEDED: the sponsor, liquidator, and disputer are eligible for payment If the dispute FAILED: only the liquidator can receive payment Once all collateral is withdrawn, delete the liquidation data.",
        "params": {
          "liquidationId": "uniquely identifies the sponsor's liquidation.",
          "sponsor": "address of the sponsor associated with the liquidation."
        },
        "returns": {
          "withdrawalAmount": "the total amount of underlying returned from the liquidation."
        }
      }
    },
    "title": "Liquidatable"
  },
  "userdoc": {
    "methods": {
      "cancelWithdrawal()": {
        "notice": "Cancels a pending withdrawal request."
      },
      "constructor": "Constructs the liquidatable contract.",
      "create((uint256),(uint256))": {
        "notice": "Pulls `collateralAmount` into the sponsor's position and mints `numTokens` of `tokenCurrency`."
      },
      "createLiquidation(address,(uint256),(uint256))": {
        "notice": "Liquidates the sponsor's position if the caller has enough synthetic tokens to retire the position's outstanding tokens."
      },
      "deposit((uint256))": {
        "notice": "Transfers `collateralAmount` of `collateralCurrency` into the sponsor's position."
      },
      "dispute(uint256,address)": {
        "notice": "Disputes a liquidation, if the caller has enough collateral to post a dispute bond and pay a fixed final fee charged on each price request."
      },
      "emergencyShutdown()": {
        "notice": "Premature contract settlement under emergency circumstances."
      },
      "expire()": {
        "notice": "Locks contract state in expired and requests oracle price."
      },
      "getCollateral(address)": {
        "notice": "Accessor method for a sponsor's collateral."
      },
      "getCurrentTime()": {
        "notice": "Gets the current time. Will return the last time set in `setCurrentTime` if running in test mode. Otherwise, it will return the block timestamp."
      },
      "payFees()": {
        "notice": "Pays UMA DVM regular fees to the Store contract."
      },
      "redeem((uint256))": {
        "notice": "Burns `numTokens` of `tokenCurrency` and sends back the proportional amount of `collateralCurrency`."
      },
      "requestWithdrawal((uint256))": {
        "notice": "Starts a withdrawal request that, if passed, allows the sponsor to withdraw `collateralAmount` from their position."
      },
      "setCurrentTime(uint256)": {
        "notice": "Sets the current time."
      },
      "settleExpired()": {
        "notice": "After a contract has passed expiry all token holders can redeem their tokens for underlying at the prevailing price defined by the DVM from the `expire` function."
      },
      "totalPositionCollateral()": {
        "notice": "Accessor method for the total collateral stored within the PricelessPositionManager."
      },
      "transfer(address)": {
        "notice": "Transfers ownership of the caller's current position to `newSponsorAddress`."
      },
      "withdraw((uint256))": {
        "notice": "Transfers `collateralAmount` of `collateralCurrency` from the sponsor's position to the sponsor."
      },
      "withdrawLiquidation(uint256,address)": {
        "notice": "After a dispute has settled or after a non-disputed liquidation has expired, the sponsor, liquidator, and/or disputer can call this method to receive payments."
      },
      "withdrawPassedRequest()": {
        "notice": "After a passed withdrawal request (i.e., by a call to `requestWithdrawal` and waiting `withdrawalLiveness`), withdraws `positionData.withdrawalRequestAmount` of collateral currency."
      }
    },
    "notice": "Adds logic to a position-managing contract that enables callers to liquidate an undercollateralized position."
  }
}