{
  "contractName": "ManualPriceFeed",
  "abi": [
    {
      "inputs": [
        {
          "internalType": "bool",
          "name": "_isTest",
          "type": "bool"
        }
      ],
      "stateMutability": "nonpayable",
      "type": "constructor"
    },
    {
      "anonymous": false,
      "inputs": [
        {
          "indexed": true,
          "internalType": "bytes32",
          "name": "identifier",
          "type": "bytes32"
        },
        {
          "indexed": true,
          "internalType": "uint256",
          "name": "time",
          "type": "uint256"
        },
        {
          "indexed": false,
          "internalType": "int256",
          "name": "price",
          "type": "int256"
        }
      ],
      "name": "PriceUpdated",
      "type": "event"
    },
    {
      "inputs": [
        {
          "internalType": "uint256",
          "name": "roleId",
          "type": "uint256"
        },
        {
          "internalType": "address",
          "name": "newMember",
          "type": "address"
        }
      ],
      "name": "addMember",
      "outputs": [],
      "stateMutability": "nonpayable",
      "type": "function"
    },
    {
      "inputs": [],
      "name": "getCurrentTime",
      "outputs": [
        {
          "internalType": "uint256",
          "name": "",
          "type": "uint256"
        }
      ],
      "stateMutability": "view",
      "type": "function"
    },
    {
      "inputs": [
        {
          "internalType": "uint256",
          "name": "roleId",
          "type": "uint256"
        }
      ],
      "name": "getMember",
      "outputs": [
        {
          "internalType": "address",
          "name": "",
          "type": "address"
        }
      ],
      "stateMutability": "view",
      "type": "function"
    },
    {
      "inputs": [
        {
          "internalType": "uint256",
          "name": "roleId",
          "type": "uint256"
        },
        {
          "internalType": "address",
          "name": "memberToCheck",
          "type": "address"
        }
      ],
      "name": "holdsRole",
      "outputs": [
        {
          "internalType": "bool",
          "name": "",
          "type": "bool"
        }
      ],
      "stateMutability": "view",
      "type": "function"
    },
    {
      "inputs": [],
      "name": "isTest",
      "outputs": [
        {
          "internalType": "bool",
          "name": "",
          "type": "bool"
        }
      ],
      "stateMutability": "view",
      "type": "function"
    },
    {
      "inputs": [
        {
          "internalType": "uint256",
          "name": "roleId",
          "type": "uint256"
        },
        {
          "internalType": "address",
          "name": "memberToRemove",
          "type": "address"
        }
      ],
      "name": "removeMember",
      "outputs": [],
      "stateMutability": "nonpayable",
      "type": "function"
    },
    {
      "inputs": [
        {
          "internalType": "uint256",
          "name": "roleId",
          "type": "uint256"
        },
        {
          "internalType": "address",
          "name": "newMember",
          "type": "address"
        }
      ],
      "name": "resetMember",
      "outputs": [],
      "stateMutability": "nonpayable",
      "type": "function"
    },
    {
      "inputs": [
        {
          "internalType": "uint256",
          "name": "_time",
          "type": "uint256"
        }
      ],
      "name": "setCurrentTime",
      "outputs": [],
      "stateMutability": "nonpayable",
      "type": "function"
    },
    {
      "inputs": [
        {
          "internalType": "uint256",
          "name": "amount",
          "type": "uint256"
        }
      ],
      "name": "withdraw",
      "outputs": [],
      "stateMutability": "nonpayable",
      "type": "function"
    },
    {
      "inputs": [
        {
          "internalType": "address",
          "name": "erc20Address",
          "type": "address"
        },
        {
          "internalType": "uint256",
          "name": "amount",
          "type": "uint256"
        }
      ],
      "name": "withdrawErc20",
      "outputs": [],
      "stateMutability": "nonpayable",
      "type": "function"
    },
    {
      "inputs": [
        {
          "internalType": "bytes32",
          "name": "identifier",
          "type": "bytes32"
        },
        {
          "internalType": "uint256",
          "name": "publishTime",
          "type": "uint256"
        },
        {
          "internalType": "int256",
          "name": "newPrice",
          "type": "int256"
        }
      ],
      "name": "pushLatestPrice",
      "outputs": [],
      "stateMutability": "nonpayable",
      "type": "function"
    },
    {
      "inputs": [
        {
          "internalType": "bytes32",
          "name": "identifier",
          "type": "bytes32"
        }
      ],
      "name": "isIdentifierSupported",
      "outputs": [
        {
          "internalType": "bool",
          "name": "isSupported",
          "type": "bool"
        }
      ],
      "stateMutability": "view",
      "type": "function"
    },
    {
      "inputs": [
        {
          "internalType": "bytes32",
          "name": "identifier",
          "type": "bytes32"
        }
      ],
      "name": "latestPrice",
      "outputs": [
        {
          "internalType": "uint256",
          "name": "publishTime",
          "type": "uint256"
        },
        {
          "internalType": "int256",
          "name": "price",
          "type": "int256"
        }
      ],
      "stateMutability": "view",
      "type": "function"
    }
  ],
  "bytecode": "0x60806040523480156200001157600080fd5b50604051620010fa380380620010fa833981810160405260208110156200003757600080fd5b50516002805460ff1916821580159190911790915581906200005857426003555b506200007260005b6000336001600160e01b036200009d16565b6200007e600162000060565b6200009660026000336001600160e01b03620001b816565b5062000255565b826000808281526020819052604090206001015460ff166002811115620000c057fe5b1462000113576040805162461bcd60e51b815260206004820152601e60248201527f43616e6e6f74207573652061207072652d6578697374696e6720726f6c650000604482015290519081900360640190fd5b60008481526020819052604090206001808201805460ff191682800217905550838155620001516002820184620001d8602090811b62000d2e17901c565b60008481526020819052604081206001015460ff1660028111156200017257fe5b1415620001b15760405162461bcd60e51b815260040180806020018281038252603c8152602001806200109b603c913960400191505060405180910390fd5b5050505050565b6001839055620001d38383836001600160e01b036200009d16565b505050565b620001ed82826001600160e01b03620001f116565b5050565b6001600160a01b038116620002385760405162461bcd60e51b8152600401808060200182810382526023815260200180620010d76023913960400191505060405180910390fd5b81546001600160a01b0319166001600160a01b0391909116179055565b610e3680620002656000396000f3fe608060405234801561001057600080fd5b50600436106100df5760003560e01c80637cdc1cb91161008c5780639381a345116100665780639381a34514610275578063ab3545e51461027d578063bd1f4b52146102c3578063d97c05be146102fc576100df565b80637cdc1cb9146101e257806388be38ac1461022f57806390978d1b14610258576100df565b80634eec7c2b116100bd5780634eec7c2b1461013a5780636be7658b1461017057806374d0a676146101a9576100df565b806322f8e566146100e457806329cb924d146101035780632e1a7d4d1461011d575b600080fd5b610101600480360360208110156100fa57600080fd5b5035610335565b005b61010b610349565b60408051918252519081900360200190f35b6101016004803603602081101561013357600080fd5b5035610366565b6101576004803603602081101561015057600080fd5b50356103fa565b6040805192835260208301919091528051918290030190f35b6101016004803603604081101561018657600080fd5b508035906020013573ffffffffffffffffffffffffffffffffffffffff1661042b565b610101600480360360408110156101bf57600080fd5b508035906020013573ffffffffffffffffffffffffffffffffffffffff1661053b565b61021b600480360360408110156101f857600080fd5b508035906020013573ffffffffffffffffffffffffffffffffffffffff16610645565b604080519115158252519081900360200190f35b6101016004803603606081101561024557600080fd5b5080359060208101359060400135610723565b61021b6004803603602081101561026e57600080fd5b503561082c565b61021b610837565b61029a6004803603602081101561029357600080fd5b5035610840565b6040805173ffffffffffffffffffffffffffffffffffffffff9092168252519081900360200190f35b610101600480360360408110156102d957600080fd5b5073ffffffffffffffffffffffffffffffffffffffff81351690602001356108dc565b6101016004803603604081101561031257600080fd5b508035906020013573ffffffffffffffffffffffffffffffffffffffff166109eb565b60025460ff1661034457600080fd5b600355565b60025460009060ff16156103605750600354610363565b50425b90565b6001546103738133610645565b6103c8576040517f08c379a0000000000000000000000000000000000000000000000000000000008152600401808060200182810382526022815260200180610d986022913960400191505060405180910390fd5b604051339083156108fc029084906000818181858888f193505050501580156103f5573d6000803e3d6000fd5b505050565b60008061040683610af5565b61040f57600080fd5b5050600090815260046020526040902080546001909101549091565b81600260008281526020819052604090206001015460ff16600281111561044e57fe5b146104a4576040517f08c379a000000000000000000000000000000000000000000000000000000000815260040180806020018281038252602c815260200180610d6c602c913960400191505060405180910390fd5b60008381526020819052604090205483906104bf9033610645565b610514576040517f08c379a0000000000000000000000000000000000000000000000000000000008152600401808060200182810382526024815260200180610ddd6024913960400191505060405180910390fd5b6000848152602081905260409020610535906003018463ffffffff610b0916565b50505050565b81600260008281526020819052604090206001015460ff16600281111561055e57fe5b146105b4576040517f08c379a000000000000000000000000000000000000000000000000000000000815260040180806020018281038252602c815260200180610d6c602c913960400191505060405180910390fd5b60008381526020819052604090205483906105cf9033610645565b610624576040517f08c379a0000000000000000000000000000000000000000000000000000000008152600401808060200182810382526024815260200180610ddd6024913960400191505060405180910390fd5b6000848152602081905260409020610535906003018463ffffffff610b5616565b600082815260208190526040812060018082015460ff16600281111561066757fe5b141561068857610680600282018463ffffffff610ba616565b91505061071d565b6002600182015460ff16600281111561069d57fe5b14156106b657610680600382018463ffffffff610bc616565b604080517f08c379a000000000000000000000000000000000000000000000000000000000815260206004820152600e60248201527f496e76616c696420726f6c654964000000000000000000000000000000000000604482015290519081900360640190fd5b92915050565b600161072f8133610645565b610784576040517f08c379a0000000000000000000000000000000000000000000000000000000008152600401808060200182810382526022815260200180610d986022913960400191505060405180910390fd5b61079e610384610792610349565b9063ffffffff610bf216565b8311156107aa57600080fd5b60008481526004602052604090205483116107c457600080fd5b6040805180820182528481526020808201858152600088815260048352849020925183555160019092019190915581518481529151859287927f7b68a704e7137c4430422c835b46aecc2dd2d5e3eb0ec8fd92785c9e97648bd992918290030190a350505050565b600061071d82610af5565b60025460ff1681565b600081600160008281526020819052604090206001015460ff16600281111561086557fe5b146108bb576040517f08c379a000000000000000000000000000000000000000000000000000000000815260040180806020018281038252602f815260200180610d3d602f913960400191505060405180910390fd5b60008381526020819052604090206108d590600201610c66565b9392505050565b6001546108e98133610645565b61093e576040517f08c379a0000000000000000000000000000000000000000000000000000000008152600401808060200182810382526022815260200180610d986022913960400191505060405180910390fd5b604080517fa9059cbb000000000000000000000000000000000000000000000000000000008152336004820152602481018490529051849173ffffffffffffffffffffffffffffffffffffffff83169163a9059cbb916044808201926020929091908290030181600087803b1580156109b657600080fd5b505af11580156109ca573d6000803e3d6000fd5b505050506040513d60208110156109e057600080fd5b505161053557600080fd5b81600160008281526020819052604090206001015460ff166002811115610a0e57fe5b14610a64576040517f08c379a000000000000000000000000000000000000000000000000000000000815260040180806020018281038252602f815260200180610d3d602f913960400191505060405180910390fd5b6000838152602081905260409020548390610a7f9033610645565b610ad4576040517f08c379a0000000000000000000000000000000000000000000000000000000008152600401808060200182810382526024815260200180610ddd6024913960400191505060405180910390fd5b6000848152602081905260409020610535906002018463ffffffff610c8016565b600090815260046020526040902054151590565b73ffffffffffffffffffffffffffffffffffffffff1660009081526020919091526040902080547fffffffffffffffffffffffffffffffffffffffffffffffffffffffffffffff00169055565b73ffffffffffffffffffffffffffffffffffffffff1660009081526020919091526040902080547fffffffffffffffffffffffffffffffffffffffffffffffffffffffffffffff00166001179055565b905473ffffffffffffffffffffffffffffffffffffffff91821691161490565b73ffffffffffffffffffffffffffffffffffffffff166000908152602091909152604090205460ff1690565b6000828201838110156108d557604080517f08c379a000000000000000000000000000000000000000000000000000000000815260206004820152601b60248201527f536166654d6174683a206164646974696f6e206f766572666c6f770000000000604482015290519081900360640190fd5b5473ffffffffffffffffffffffffffffffffffffffff1690565b73ffffffffffffffffffffffffffffffffffffffff8116610cec576040517f08c379a0000000000000000000000000000000000000000000000000000000008152600401808060200182810382526023815260200180610dba6023913960400191505060405180910390fd5b81547fffffffffffffffffffffffff00000000000000000000000000000000000000001673ffffffffffffffffffffffffffffffffffffffff91909116179055565b610d388282610c80565b505056fe4d7573742062652063616c6c6564206f6e20616e20696e697469616c697a6564204578636c757369766520726f6c654d7573742062652063616c6c6564206f6e20616e20696e697469616c697a65642053686172656420726f6c6553656e64657220646f6573206e6f7420686f6c6420726571756972656420726f6c6543616e6e6f742073657420616e206578636c757369766520726f6c6520746f2030783043616e206f6e6c792062652063616c6c6564206279206120726f6c65206d616e61676572a2646970667358221220218836f0af37716ff1ddd9b748141f8644ee26a2aba7545cb88a7cd81ee4e78c64736f6c63430006040033417474656d7074656420746f2075736520616e20696e76616c696420726f6c6520746f206d616e61676520616e206578636c757369766520726f6c6543616e6e6f742073657420616e206578636c757369766520726f6c6520746f20307830",
  "source": "pragma solidity ^0.6.0;\n\nimport \"@openzeppelin/contracts/math/SafeMath.sol\";\nimport \"@openzeppelin/contracts/ownership/Ownable.sol\";\nimport \"../common/implementation/Testable.sol\";\nimport \"../common/implementation/Withdrawable.sol\";\nimport \"./PriceFeedInterface.sol\";\n\n\n/**\n * @title Implementation of PriceFeedInterface with the ability to manually push prices.\n */\ncontract ManualPriceFeed is PriceFeedInterface, Withdrawable, Testable {\n    using SafeMath for uint;\n\n    // A single price update.\n    struct PriceTick {\n        uint timestamp;\n        int price;\n    }\n\n    // Mapping from identifier to the latest price for that identifier.\n    mapping(bytes32 => PriceTick) private prices;\n\n    // Ethereum timestamp tolerance.\n    // Note: this is technically the amount of time that a block timestamp can be *ahead* of the current time. However,\n    // we are assuming that blocks will never get more than this amount *behind* the current time. The only requirement\n    // limiting how early the timestamp can be is that it must have a later timestamp than its parent. However,\n    // this bound will probably work reasonably well in both directions.\n    uint private constant BLOCK_TIMESTAMP_TOLERANCE = 900;\n\n    enum Roles { Governance, Writer, Withdraw }\n\n    constructor(bool _isTest) public Testable(_isTest) {\n        _createExclusiveRole(uint(Roles.Governance), uint(Roles.Governance), msg.sender);\n        _createExclusiveRole(uint(Roles.Writer), uint(Roles.Governance), msg.sender);\n        createWithdrawRole(uint(Roles.Withdraw), uint(Roles.Governance), msg.sender);\n    }\n\n    /**\n     * @notice Adds a new price to the series for a given identifier.\n     * @dev The pushed publishTime must be later than the last time pushed so far.\n     */\n    function pushLatestPrice(bytes32 identifier, uint publishTime, int newPrice)\n        external\n        onlyRoleHolder(uint(Roles.Writer))\n    {\n        require(publishTime <= getCurrentTime().add(BLOCK_TIMESTAMP_TOLERANCE));\n        require(publishTime > prices[identifier].timestamp);\n        prices[identifier] = PriceTick(publishTime, newPrice);\n        emit PriceUpdated(identifier, publishTime, newPrice);\n    }\n\n    /**\n     * @notice Whether this feed has ever published any prices for this identifier.\n     */\n    // TODO(#969) Remove once prettier-plugin-solidity can handle the \"override\" keyword\n    // prettier-ignore\n    function isIdentifierSupported(bytes32 identifier) external override view returns (bool isSupported) {\n        isSupported = _isIdentifierSupported(identifier);\n    }\n\n    // TODO(#969) Remove once prettier-plugin-solidity can handle the \"override\" keyword\n    // prettier-ignore\n    function latestPrice(bytes32 identifier) external override view returns (uint publishTime, int price) {\n        require(_isIdentifierSupported(identifier));\n        publishTime = prices[identifier].timestamp;\n        price = prices[identifier].price;\n    }\n\n    function _isIdentifierSupported(bytes32 identifier) private view returns (bool isSupported) {\n        isSupported = prices[identifier].timestamp > 0;\n    }\n}\n",
  "sourcePath": "/home/alessandrovm/JarvisLavoro/SynFiat/packages/contracts/contracts/uma-contracts/tokenized-derivative/ManualPriceFeed.sol",
  "compiler": {
    "name": "solc",
    "version": "0.6.4+commit.1dca32f3.Emscripten.clang"
  },
  "schemaVersion": "3.2.0",
  "updatedAt": "2020-08-14T09:32:05.683Z",
  "devdoc": {
    "methods": {
      "addMember(uint256,address)": {
        "details": "Reverts if `roleId` does not represent an initialized, shared role or if the caller is not a member of the managing role for `roleId`."
      },
      "getMember(uint256)": {
        "details": "Reverts if `roleId` does not represent an initialized, exclusive role."
      },
      "holdsRole(uint256,address)": {
        "details": "Reverts if roleId does not correspond to an initialized role."
      },
      "pushLatestPrice(bytes32,uint256,int256)": {
        "details": "The pushed publishTime must be later than the last time pushed so far."
      },
      "removeMember(uint256,address)": {
        "details": "Reverts if `roleId` does not represent an initialized, shared role or if the caller is not a member of the managing role for `roleId`."
      },
      "resetMember(uint256,address)": {
        "details": "Reverts if the caller is not a member of the managing role for `roleId` or if `roleId` is not an initialized, exclusive role."
      },
      "setCurrentTime(uint256)": {
        "details": "Will revert if not running in test mode."
      }
    },
    "title": "Implementation of PriceFeedInterface with the ability to manually push prices."
  },
  "userdoc": {
    "methods": {
      "addMember(uint256,address)": {
        "notice": "Adds `newMember` to the shared role, `roleId`."
      },
      "getCurrentTime()": {
        "notice": "Gets the current time. Will return the last time set in `setCurrentTime` if running in test mode. Otherwise, it will return the block timestamp."
      },
      "getMember(uint256)": {
        "notice": "Gets the current holder of the exclusive role, `roleId`."
      },
      "holdsRole(uint256,address)": {
        "notice": "Whether `memberToCheck` is a member of roleId."
      },
      "isIdentifierSupported(bytes32)": {
        "notice": "Whether this feed has ever published any prices for this identifier."
      },
      "pushLatestPrice(bytes32,uint256,int256)": {
        "notice": "Adds a new price to the series for a given identifier."
      },
      "removeMember(uint256,address)": {
        "notice": "Removes `memberToRemove` from the shared role, `roleId`."
      },
      "resetMember(uint256,address)": {
        "notice": "Changes the exclusive role holder of `roleId` to `newMember`."
      },
      "setCurrentTime(uint256)": {
        "notice": "Sets the current time."
      },
      "withdraw(uint256)": {
        "notice": "Withdraws ETH from the contract."
      },
      "withdrawErc20(address,uint256)": {
        "notice": "Withdraws ERC20 tokens from the contract."
      }
    }
  }
}