{
  "contractName": "MockAdministratee",
  "abi": [
    {
      "inputs": [],
      "name": "timesEmergencyShutdown",
      "outputs": [
        {
          "internalType": "uint256",
          "name": "",
          "type": "uint256"
        }
      ],
      "stateMutability": "view",
      "type": "function"
    },
    {
      "inputs": [],
      "name": "timesRemargined",
      "outputs": [
        {
          "internalType": "uint256",
          "name": "",
          "type": "uint256"
        }
      ],
      "stateMutability": "view",
      "type": "function"
    },
    {
      "inputs": [],
      "name": "remargin",
      "outputs": [],
      "stateMutability": "nonpayable",
      "type": "function"
    },
    {
      "inputs": [],
      "name": "emergencyShutdown",
      "outputs": [],
      "stateMutability": "nonpayable",
      "type": "function"
    }
  ],
  "bytecode": "0x608060405234801561001057600080fd5b5060ce8061001f6000396000f3fe6080604052348015600f57600080fd5b506004361060465760003560e01c80633403c2fc14604b5780635d21f153146053578063bda02e7714606b578063bea002bc146071575b600080fd5b60516077565b005b60596081565b60408051918252519081900360200190f35b60516087565b60596092565b6001805481019055565b60015481565b600080546001019055565b6000548156fea26469706673582212202e97717cfd33bd6f32fe392b61b265600b8e59840a1ecef97e7e5341e48c7d3b64736f6c63430006040033",
  "source": "pragma solidity ^0.6.0;\n\nimport \"../../interfaces/AdministrateeInterface.sol\";\n\n\n// A mock implementation of AdministrateeInterface, taking the place of a financial contract.\ncontract MockAdministratee is AdministrateeInterface {\n    uint public timesRemargined;\n    uint public timesEmergencyShutdown;\n\n    // TODO(#969) Remove once prettier-plugin-solidity can handle the \"override\" keyword\n    // prettier-ignore\n    function remargin() external override {\n        timesRemargined++;\n    }\n\n    // TODO(#969) Remove once prettier-plugin-solidity can handle the \"override\" keyword\n    // prettier-ignore\n    function emergencyShutdown() external override {\n        timesEmergencyShutdown++;\n    }\n}\n",
  "sourcePath": "/home/opz/Projects/SynFiat-update/gitlab/contracts/uma-contracts/oracle/implementation/test/MockAdministratee.sol",
  "compiler": {
    "name": "solc",
    "version": "0.6.4+commit.1dca32f3.Emscripten.clang"
  },
  "schemaVersion": "3.2.0",
  "updatedAt": "2020-07-20T06:15:50.133Z",
  "devdoc": {
    "methods": {}
  },
  "userdoc": {
    "methods": {}
  }
}