{
  "contractName": "MockAdministratee",
  "abi": [
    {
      "inputs": [],
      "name": "timesEmergencyShutdown",
      "outputs": [
        {
          "internalType": "uint256",
          "name": "",
          "type": "uint256"
        }
      ],
      "stateMutability": "view",
      "type": "function"
    },
    {
      "inputs": [],
      "name": "timesRemargined",
      "outputs": [
        {
          "internalType": "uint256",
          "name": "",
          "type": "uint256"
        }
      ],
      "stateMutability": "view",
      "type": "function"
    },
    {
      "inputs": [],
      "name": "remargin",
      "outputs": [],
      "stateMutability": "nonpayable",
      "type": "function"
    },
    {
      "inputs": [],
      "name": "emergencyShutdown",
      "outputs": [],
      "stateMutability": "nonpayable",
      "type": "function"
    }
  ],
  "bytecode": "0x608060405234801561001057600080fd5b5060ce8061001f6000396000f3fe6080604052348015600f57600080fd5b506004361060465760003560e01c80633403c2fc14604b5780635d21f153146053578063bda02e7714606b578063bea002bc146071575b600080fd5b60516077565b005b60596081565b60408051918252519081900360200190f35b60516087565b60596092565b6001805481019055565b60015481565b600080546001019055565b6000548156fea2646970667358221220a6571c54cccf44a5e025a659e86c59f4cad6a7fbed3d12417770e1c9bab6d09a64736f6c634300060a0033",
  "immutableReferences": {},
  "source": "pragma solidity ^0.6.0;\n\nimport \"../../interfaces/AdministrateeInterface.sol\";\n\n\n// A mock implementation of AdministrateeInterface, taking the place of a financial contract.\ncontract MockAdministratee is AdministrateeInterface {\n    uint256 public timesRemargined;\n    uint256 public timesEmergencyShutdown;\n\n    function remargin() external override {\n        timesRemargined++;\n    }\n\n    function emergencyShutdown() external override {\n        timesEmergencyShutdown++;\n    }\n}\n",
  "sourcePath": "/home/alessandrovm/JarvisLavoro/SynFiat/packages/contracts/contracts/uma-contracts/oracle/implementation/test/MockAdministratee.sol",
  "compiler": {
    "name": "solc",
    "version": "0.6.10+commit.00c0fcaf.Emscripten.clang"
  },
  "schemaVersion": "3.2.0",
  "updatedAt": "2020-09-30T12:21:57.087Z",
  "devdoc": {
    "methods": {}
  },
  "userdoc": {
    "methods": {}
  }
}