{
  "contractName": "MockOracle",
  "abi": [
    {
      "inputs": [
        {
          "internalType": "address",
          "name": "_finderAddress",
          "type": "address"
        },
        {
          "internalType": "address",
          "name": "_timerAddress",
          "type": "address"
        }
      ],
      "stateMutability": "nonpayable",
      "type": "constructor"
    },
    {
      "inputs": [],
      "name": "getCurrentTime",
      "outputs": [
        {
          "internalType": "uint256",
          "name": "",
          "type": "uint256"
        }
      ],
      "stateMutability": "view",
      "type": "function"
    },
    {
      "inputs": [
        {
          "internalType": "uint256",
          "name": "time",
          "type": "uint256"
        }
      ],
      "name": "setCurrentTime",
      "outputs": [],
      "stateMutability": "nonpayable",
      "type": "function"
    },
    {
      "inputs": [],
      "name": "timerAddress",
      "outputs": [
        {
          "internalType": "address",
          "name": "",
          "type": "address"
        }
      ],
      "stateMutability": "view",
      "type": "function"
    },
    {
      "inputs": [
        {
          "internalType": "bytes32",
          "name": "identifier",
          "type": "bytes32"
        },
        {
          "internalType": "uint256",
          "name": "time",
          "type": "uint256"
        }
      ],
      "name": "requestPrice",
      "outputs": [],
      "stateMutability": "nonpayable",
      "type": "function"
    },
    {
      "inputs": [
        {
          "internalType": "bytes32",
          "name": "identifier",
          "type": "bytes32"
        },
        {
          "internalType": "uint256",
          "name": "time",
          "type": "uint256"
        },
        {
          "internalType": "int256",
          "name": "price",
          "type": "int256"
        }
      ],
      "name": "pushPrice",
      "outputs": [],
      "stateMutability": "nonpayable",
      "type": "function"
    },
    {
      "inputs": [
        {
          "internalType": "bytes32",
          "name": "identifier",
          "type": "bytes32"
        },
        {
          "internalType": "uint256",
          "name": "time",
          "type": "uint256"
        }
      ],
      "name": "hasPrice",
      "outputs": [
        {
          "internalType": "bool",
          "name": "",
          "type": "bool"
        }
      ],
      "stateMutability": "view",
      "type": "function"
    },
    {
      "inputs": [
        {
          "internalType": "bytes32",
          "name": "identifier",
          "type": "bytes32"
        },
        {
          "internalType": "uint256",
          "name": "time",
          "type": "uint256"
        }
      ],
      "name": "getPrice",
      "outputs": [
        {
          "internalType": "int256",
          "name": "",
          "type": "int256"
        }
      ],
      "stateMutability": "view",
      "type": "function"
    },
    {
      "inputs": [],
      "name": "getPendingQueries",
      "outputs": [
        {
          "components": [
            {
              "internalType": "bytes32",
              "name": "identifier",
              "type": "bytes32"
            },
            {
              "internalType": "uint256",
              "name": "time",
              "type": "uint256"
            }
          ],
          "internalType": "struct MockOracle.QueryPoint[]",
          "name": "",
          "type": "tuple[]"
        }
      ],
      "stateMutability": "view",
      "type": "function"
    }
  ],
  "bytecode": "0x608060405234801561001057600080fd5b50604051610bcd380380610bcd83398101604081905261002f91610063565b600080546001600160a01b039283166001600160a01b031991821617909155600180549390921692169190911790556100b4565b60008060408385031215610075578182fd5b82516100808161009c565b60208401519092506100918161009c565b809150509250929050565b6001600160a01b03811681146100b157600080fd5b50565b610b0a806100c36000396000f3fe608060405234801561001057600080fd5b50600436106100885760003560e01c806368ad8ae31161005b57806368ad8ae3146100e8578063a03e881a146100fb578063b555d6081461011b578063c9280f061461013057610088565b8063051fd48c1461008d5780631c39c38d146100a257806322f8e566146100c057806329cb924d146100d3575b600080fd5b6100a061009b366004610998565b610143565b005b6100aa610308565b6040516100b791906109f3565b60405180910390f35b6100a06100ce3660046109c3565b610324565b6100db6103d1565b6040516100b79190610a6e565b6100a06100f6366004610977565b61049c565b61010e610109366004610977565b610654565b6040516100b79190610a63565b610123610710565b6040516100b79190610a14565b6100db61013e366004610977565b610783565b60405180606001604052806001151581526020018281526020016101656103d1565b905260008481526002602081815260408084208785528252808420855181547fffffffffffffffffffffffffffffffffffffffffffffffffffffffffffffff00169015151781558583015160018201559481015194909201939093558582526003835280822085835290925220805460ff16610216576040517f08c379a000000000000000000000000000000000000000000000000000000000815260040161020d90610a77565b60405180910390fd5b6001808201546000868152600360209081526040808320888452909152812080547fffffffffffffffffffffffffffffffffffffffffffffffffffffffffffffff00168155909201919091556004547fffffffffffffffffffffffffffffffffffffffffffffffffffffffffffffffff018082146103005760006004828154811061029d57fe5b600091825260208083206002909202909101805483526003825260408084206001808401548652935290922001849055600480549192508291859081106102e057fe5b600091825260209091208254600290920201908155600191820154910155505b505050505050565b60005473ffffffffffffffffffffffffffffffffffffffff1681565b60005473ffffffffffffffffffffffffffffffffffffffff1661034657600080fd5b6000546040517f22f8e56600000000000000000000000000000000000000000000000000000000815273ffffffffffffffffffffffffffffffffffffffff909116906322f8e5669061039c908490600401610a6e565b600060405180830381600087803b1580156103b657600080fd5b505af11580156103ca573d6000803e3d6000fd5b5050505050565b6000805473ffffffffffffffffffffffffffffffffffffffff1615610496576000809054906101000a900473ffffffffffffffffffffffffffffffffffffffff1673ffffffffffffffffffffffffffffffffffffffff166329cb924d6040518163ffffffff1660e01b815260040160206040518083038186803b15801561045757600080fd5b505afa15801561046b573d6000803e3d6000fd5b505050506040513d601f19601f8201168201806040525081019061048f91906109db565b9050610499565b50425b90565b6104a4610850565b73ffffffffffffffffffffffffffffffffffffffff166390978d1b836040518263ffffffff1660e01b81526004016104dc9190610a6e565b60206040518083038186803b1580156104f457600080fd5b505afa158015610508573d6000803e3d6000fd5b505050506040513d601f19601f8201168201806040525081019061052c9190610957565b61053557600080fd5b60008281526002602090815260408083208484529091529020805460ff1615801561057a5750600083815260036020908152604080832085845290915290205460ff16155b1561064f5760408051808201825260018082526004805460208085019182526000898152600382528681208982528252868120955186547fffffffffffffffffffffffffffffffffffffffffffffffffffffffffffffff0016901515178655915194840194909455845180860190955287855292840186815281549283018255925291517f8a35acfbc15ff81a39ae7d344fd709f28e8600b4aa8c65c6b64bfe7fe36bd19b600290930292830155517f8a35acfbc15ff81a39ae7d344fd709f28e8600b4aa8c65c6b64bfe7fe36bd19c909101555b505050565b600061065e610850565b73ffffffffffffffffffffffffffffffffffffffff166390978d1b846040518263ffffffff1660e01b81526004016106969190610a6e565b60206040518083038186803b1580156106ae57600080fd5b505afa1580156106c2573d6000803e3d6000fd5b505050506040513d601f19601f820116820180604052508101906106e69190610957565b6106ef57600080fd5b50600091825260026020908152604080842092845291905290205460ff1690565b60606004805480602002602001604051908101604052809291908181526020016000905b8282101561077a57838290600052602060002090600202016040518060400160405290816000820154815260200160018201548152505081526020019060010190610734565b50505050905090565b600061078d610850565b73ffffffffffffffffffffffffffffffffffffffff166390978d1b846040518263ffffffff1660e01b81526004016107c59190610a6e565b60206040518083038186803b1580156107dd57600080fd5b505afa1580156107f1573d6000803e3d6000fd5b505050506040513d601f19601f820116820180604052508101906108159190610957565b61081e57600080fd5b60008381526002602090815260408083208584529091529020805460ff1661084557600080fd5b600101549392505050565b6001546040517faafd5e4000000000000000000000000000000000000000000000000000000000815260009173ffffffffffffffffffffffffffffffffffffffff169063aafd5e40906108c7907f4964656e74696669657257686974656c6973740000000000000000000000000090600401610a6e565b60206040518083038186803b1580156108df57600080fd5b505afa1580156108f3573d6000803e3d6000fd5b505050506040513d601f19601f82011682018060405250810190610917919061091c565b905090565b60006020828403121561092d578081fd5b815173ffffffffffffffffffffffffffffffffffffffff81168114610950578182fd5b9392505050565b600060208284031215610968578081fd5b81518015158114610950578182fd5b60008060408385031215610989578081fd5b50508035926020909101359150565b6000806000606084860312156109ac578081fd5b505081359360208301359350604090920135919050565b6000602082840312156109d4578081fd5b5035919050565b6000602082840312156109ec578081fd5b5051919050565b73ffffffffffffffffffffffffffffffffffffffff91909116815260200190565b602080825282518282018190526000919060409081850190868401855b82811015610a5657815180518552860151868501529284019290850190600101610a31565b5091979650505050505050565b901515815260200190565b90815260200190565b6020808252602d908201527f43616e2774207075736820707269636573207468617420686176656e2774206260408201527f65656e207265717565737465640000000000000000000000000000000000000060608201526080019056fea2646970667358221220fe05de2ea4d49cb5eacb3dbace81d5642620d41db76843b066c257c1b7a5994c64736f6c634300060a0033",
  "immutableReferences": {},
  "source": "pragma solidity ^0.6.0;\n\npragma experimental ABIEncoderV2;\n\nimport \"../../common/implementation/Testable.sol\";\nimport \"../interfaces/OracleInterface.sol\";\nimport \"../interfaces/IdentifierWhitelistInterface.sol\";\nimport \"../interfaces/FinderInterface.sol\";\nimport \"../implementation/Constants.sol\";\n\n\n// A mock oracle used for testing.\ncontract MockOracle is OracleInterface, Testable {\n    // Represents an available price. Have to keep a separate bool to allow for price=0.\n    struct Price {\n        bool isAvailable;\n        int256 price;\n        // Time the verified price became available.\n        uint256 verifiedTime;\n    }\n\n    // The two structs below are used in an array and mapping to keep track of prices that have been requested but are\n    // not yet available.\n    struct QueryIndex {\n        bool isValid;\n        uint256 index;\n    }\n\n    // Represents a (identifier, time) point that has been queried.\n    struct QueryPoint {\n        bytes32 identifier;\n        uint256 time;\n    }\n\n    // Reference to the Finder.\n    FinderInterface private finder;\n\n    // Conceptually we want a (time, identifier) -> price map.\n    mapping(bytes32 => mapping(uint256 => Price)) private verifiedPrices;\n\n    // The mapping and array allow retrieving all the elements in a mapping and finding/deleting elements.\n    // Can we generalize this data structure?\n    mapping(bytes32 => mapping(uint256 => QueryIndex)) private queryIndices;\n    QueryPoint[] private requestedPrices;\n\n    constructor(address _finderAddress, address _timerAddress) public Testable(_timerAddress) {\n        finder = FinderInterface(_finderAddress);\n    }\n\n    // Enqueues a request (if a request isn't already present) for the given (identifier, time) pair.\n\n    function requestPrice(bytes32 identifier, uint256 time) external override {\n        require(_getIdentifierWhitelist().isIdentifierSupported(identifier));\n        Price storage lookup = verifiedPrices[identifier][time];\n        if (!lookup.isAvailable && !queryIndices[identifier][time].isValid) {\n            // New query, enqueue it for review.\n            queryIndices[identifier][time] = QueryIndex(true, requestedPrices.length);\n            requestedPrices.push(QueryPoint(identifier, time));\n        }\n    }\n\n    // Pushes the verified price for a requested query.\n    function pushPrice(\n        bytes32 identifier,\n        uint256 time,\n        int256 price\n    ) external {\n        verifiedPrices[identifier][time] = Price(true, price, getCurrentTime());\n\n        QueryIndex storage queryIndex = queryIndices[identifier][time];\n        require(queryIndex.isValid, \"Can't push prices that haven't been requested\");\n        // Delete from the array. Instead of shifting the queries over, replace the contents of `indexToReplace` with\n        // the contents of the last index (unless it is the last index).\n        uint256 indexToReplace = queryIndex.index;\n        delete queryIndices[identifier][time];\n        uint256 lastIndex = requestedPrices.length - 1;\n        if (lastIndex != indexToReplace) {\n            QueryPoint storage queryToCopy = requestedPrices[lastIndex];\n            queryIndices[queryToCopy.identifier][queryToCopy.time].index = indexToReplace;\n            requestedPrices[indexToReplace] = queryToCopy;\n        }\n    }\n\n    // Checks whether a price has been resolved.\n    function hasPrice(bytes32 identifier, uint256 time) external override view returns (bool) {\n        require(_getIdentifierWhitelist().isIdentifierSupported(identifier));\n        Price storage lookup = verifiedPrices[identifier][time];\n        return lookup.isAvailable;\n    }\n\n    // Gets a price that has already been resolved.\n    function getPrice(bytes32 identifier, uint256 time) external override view returns (int256) {\n        require(_getIdentifierWhitelist().isIdentifierSupported(identifier));\n        Price storage lookup = verifiedPrices[identifier][time];\n        require(lookup.isAvailable);\n        return lookup.price;\n    }\n\n    // Gets the queries that still need verified prices.\n    function getPendingQueries() external view returns (QueryPoint[] memory) {\n        return requestedPrices;\n    }\n\n    function _getIdentifierWhitelist() private view returns (IdentifierWhitelistInterface supportedIdentifiers) {\n        return IdentifierWhitelistInterface(finder.getImplementationAddress(OracleInterfaces.IdentifierWhitelist));\n    }\n}\n",
  "sourcePath": "/home/alessandrovm/JarvisLavoro/SynFiat/packages/contracts/contracts/uma-contracts/oracle/test/MockOracle.sol",
  "compiler": {
    "name": "solc",
    "version": "0.6.10+commit.00c0fcaf.Emscripten.clang"
  },
  "schemaVersion": "3.2.5",
  "updatedAt": "2020-10-19T18:33:22.449Z",
  "devdoc": {
    "methods": {
      "getCurrentTime()": {
        "returns": {
          "_0": "uint for the current Testable timestamp."
        }
      },
      "setCurrentTime(uint256)": {
        "details": "Will revert if not running in test mode.",
        "params": {
          "time": "timestamp to set current Testable time to."
        }
      }
    }
  },
  "userdoc": {
    "methods": {
      "getCurrentTime()": {
        "notice": "Gets the current time. Will return the last time set in `setCurrentTime` if running in test mode. Otherwise, it will return the block timestamp."
      },
      "setCurrentTime(uint256)": {
        "notice": "Sets the current time."
      }
    }
  }
}