{
  "contractName": "MockOracle",
  "abi": [
    {
      "inputs": [
        {
          "internalType": "address",
          "name": "_identifierWhitelist",
          "type": "address"
        }
      ],
      "stateMutability": "nonpayable",
      "type": "constructor"
    },
    {
      "inputs": [],
      "name": "getCurrentTime",
      "outputs": [
        {
          "internalType": "uint256",
          "name": "",
          "type": "uint256"
        }
      ],
      "stateMutability": "view",
      "type": "function"
    },
    {
      "inputs": [],
      "name": "identifierWhitelist",
      "outputs": [
        {
          "internalType": "contract IdentifierWhitelistInterface",
          "name": "",
          "type": "address"
        }
      ],
      "stateMutability": "view",
      "type": "function"
    },
    {
      "inputs": [],
      "name": "isTest",
      "outputs": [
        {
          "internalType": "bool",
          "name": "",
          "type": "bool"
        }
      ],
      "stateMutability": "view",
      "type": "function"
    },
    {
      "inputs": [
        {
          "internalType": "uint256",
          "name": "_time",
          "type": "uint256"
        }
      ],
      "name": "setCurrentTime",
      "outputs": [],
      "stateMutability": "nonpayable",
      "type": "function"
    },
    {
      "inputs": [
        {
          "internalType": "bytes32",
          "name": "identifier",
          "type": "bytes32"
        },
        {
          "internalType": "uint256",
          "name": "time",
          "type": "uint256"
        }
      ],
      "name": "requestPrice",
      "outputs": [],
      "stateMutability": "nonpayable",
      "type": "function"
    },
    {
      "inputs": [
        {
          "internalType": "bytes32",
          "name": "identifier",
          "type": "bytes32"
        },
        {
          "internalType": "uint256",
          "name": "time",
          "type": "uint256"
        },
        {
          "internalType": "int256",
          "name": "price",
          "type": "int256"
        }
      ],
      "name": "pushPrice",
      "outputs": [],
      "stateMutability": "nonpayable",
      "type": "function"
    },
    {
      "inputs": [
        {
          "internalType": "bytes32",
          "name": "identifier",
          "type": "bytes32"
        },
        {
          "internalType": "uint256",
          "name": "time",
          "type": "uint256"
        }
      ],
      "name": "hasPrice",
      "outputs": [
        {
          "internalType": "bool",
          "name": "hasPriceAvailable",
          "type": "bool"
        }
      ],
      "stateMutability": "view",
      "type": "function"
    },
    {
      "inputs": [
        {
          "internalType": "bytes32",
          "name": "identifier",
          "type": "bytes32"
        },
        {
          "internalType": "uint256",
          "name": "time",
          "type": "uint256"
        }
      ],
      "name": "getPrice",
      "outputs": [
        {
          "internalType": "int256",
          "name": "price",
          "type": "int256"
        }
      ],
      "stateMutability": "view",
      "type": "function"
    },
    {
      "inputs": [],
      "name": "getPendingQueries",
      "outputs": [
        {
          "components": [
            {
              "internalType": "bytes32",
              "name": "identifier",
              "type": "bytes32"
            },
            {
              "internalType": "uint256",
              "name": "time",
              "type": "uint256"
            }
          ],
          "internalType": "struct MockOracle.QueryPoint[]",
          "name": "queryPoints",
          "type": "tuple[]"
        }
      ],
      "stateMutability": "view",
      "type": "function"
    }
  ],
  "bytecode": "0x608060405234801561001057600080fd5b506040516109ba3803806109ba83398101604081905261002f91610068565b60008054600160ff199091168117909155429055600280546001600160a01b0319166001600160a01b0392909216919091179055610096565b600060208284031215610079578081fd5b81516001600160a01b038116811461008f578182fd5b9392505050565b610915806100a56000396000f3fe608060405234801561001057600080fd5b50600436106100a35760003560e01c80636a06d46911610076578063a03e881a1161005b578063a03e881a1461012b578063b555d6081461013e578063c9280f0614610153576100a3565b80636a06d469146101015780639381a34514610116576100a3565b8063051fd48c146100a857806322f8e566146100bd57806329cb924d146100d057806368ad8ae3146100ee575b600080fd5b6100bb6100b63660046107bb565b610166565b005b6100bb6100cb3660046107e6565b61032b565b6100d861033f565b6040516100e59190610858565b60405180910390f35b6100bb6100fc36600461079a565b61035a565b610109610528565b6040516100e59190610861565b61011e610544565b6040516100e5919061084d565b61011e61013936600461079a565b61054d565b61014661061e565b6040516100e591906107fe565b6100d861016136600461079a565b610691565b604051806060016040528060011515815260200182815260200161018861033f565b905260008481526003602090815260408083208684528252808320845181547fffffffffffffffffffffffffffffffffffffffffffffffffffffffffffffff00169015151781558483015160018201559381015160029094019390935585825260048152828220858352905220805460ff16610239576040517f08c379a000000000000000000000000000000000000000000000000000000000815260040161023090610882565b60405180910390fd5b6001808201546000868152600460209081526040808320888452909152812080547fffffffffffffffffffffffffffffffffffffffffffffffffffffffffffffff00168155909201919091556005547fffffffffffffffffffffffffffffffffffffffffffffffffffffffffffffffff01808214610323576000600582815481106102c057fe5b6000918252602080832060029092029091018054835260048252604080842060018084015486529352909220018490556005805491925082918590811061030357fe5b600091825260209091208254600290920201908155600191820154910155505b505050505050565b60005460ff1661033a57600080fd5b600155565b6000805460ff16156103545750600154610357565b50425b90565b6002546040517f90978d1b00000000000000000000000000000000000000000000000000000000815273ffffffffffffffffffffffffffffffffffffffff909116906390978d1b906103b0908590600401610858565b60206040518083038186803b1580156103c857600080fd5b505afa1580156103dc573d6000803e3d6000fd5b505050506040513d601f19601f820116820180604052508101906104009190610773565b61040957600080fd5b60008281526003602090815260408083208484529091529020805460ff1615801561044e5750600083815260046020908152604080832085845290915290205460ff16155b156105235760408051808201825260018082526005805460208085019182526000898152600482528681208982528252868120955186547fffffffffffffffffffffffffffffffffffffffffffffffffffffffffffffff0016901515178655915194840194909455845180860190955287855292840186815281549283018255925291517f036b6384b5eca791c62761152d0c79bb0604c104a5fb6f4eb0703f3154bb3db0600290930292830155517f036b6384b5eca791c62761152d0c79bb0604c104a5fb6f4eb0703f3154bb3db1909101555b505050565b60025473ffffffffffffffffffffffffffffffffffffffff1681565b60005460ff1681565b6002546040517f90978d1b00000000000000000000000000000000000000000000000000000000815260009173ffffffffffffffffffffffffffffffffffffffff16906390978d1b906105a4908690600401610858565b60206040518083038186803b1580156105bc57600080fd5b505afa1580156105d0573d6000803e3d6000fd5b505050506040513d601f19601f820116820180604052508101906105f49190610773565b6105fd57600080fd5b50600091825260036020908152604080842092845291905290205460ff1690565b60606005805480602002602001604051908101604052809291908181526020016000905b8282101561068857838290600052602060002090600202016040518060400160405290816000820154815260200160018201548152505081526020019060010190610642565b50505050905090565b6002546040517f90978d1b00000000000000000000000000000000000000000000000000000000815260009173ffffffffffffffffffffffffffffffffffffffff16906390978d1b906106e8908690600401610858565b60206040518083038186803b15801561070057600080fd5b505afa158015610714573d6000803e3d6000fd5b505050506040513d601f19601f820116820180604052508101906107389190610773565b61074157600080fd5b60008381526003602090815260408083208584529091529020805460ff1661076857600080fd5b600101549392505050565b600060208284031215610784578081fd5b81518015158114610793578182fd5b9392505050565b600080604083850312156107ac578081fd5b50508035926020909101359150565b6000806000606084860312156107cf578081fd5b505081359360208301359350604090920135919050565b6000602082840312156107f7578081fd5b5035919050565b602080825282518282018190526000919060409081850190868401855b828110156108405781518051855286015186850152928401929085019060010161081b565b5091979650505050505050565b901515815260200190565b90815260200190565b73ffffffffffffffffffffffffffffffffffffffff91909116815260200190565b6020808252602d908201527f43616e2774207075736820707269636573207468617420686176656e2774206260408201527f65656e207265717565737465640000000000000000000000000000000000000060608201526080019056fea2646970667358221220d8a58d851c92003acac01fa3a58725977f2776ac406c4f3dd0c8b74abb22004664736f6c63430006040033",
  "source": "pragma solidity ^0.6.0;\n\npragma experimental ABIEncoderV2;\n\nimport \"../../common/implementation/Testable.sol\";\nimport \"../interfaces/OracleInterface.sol\";\nimport \"../interfaces/IdentifierWhitelistInterface.sol\";\n\n\n// A mock oracle used for testing.\ncontract MockOracle is OracleInterface, Testable {\n    // Represents an available price. Have to keep a separate bool to allow for price=0.\n    struct Price {\n        bool isAvailable;\n        int price;\n        // Time the verified price became available.\n        uint verifiedTime;\n    }\n\n    // The two structs below are used in an array and mapping to keep track of prices that have been requested but are\n    // not yet available.\n    struct QueryIndex {\n        bool isValid;\n        uint index;\n    }\n\n    // Represents a (identifier, time) point that has been queried.\n    struct QueryPoint {\n        bytes32 identifier;\n        uint time;\n    }\n\n    IdentifierWhitelistInterface public identifierWhitelist;\n\n    // Conceptually we want a (time, identifier) -> price map.\n    mapping(bytes32 => mapping(uint => Price)) private verifiedPrices;\n\n    // The mapping and array allow retrieving all the elements in a mapping and finding/deleting elements.\n    // Can we generalize this data structure?\n    mapping(bytes32 => mapping(uint => QueryIndex)) private queryIndices;\n    QueryPoint[] private requestedPrices;\n\n    constructor(address _identifierWhitelist) public Testable(true) {\n        identifierWhitelist = IdentifierWhitelistInterface(_identifierWhitelist);\n    }\n\n    // Enqueues a request (if a request isn't already present) for the given (identifier, time) pair.\n\n    // TODO(#969) Remove once prettier-plugin-solidity can handle the \"override\" keyword\n    // prettier-ignore\n    function requestPrice(bytes32 identifier, uint time) external override {\n        require(identifierWhitelist.isIdentifierSupported(identifier));\n        Price storage lookup = verifiedPrices[identifier][time];\n        if (!lookup.isAvailable && !queryIndices[identifier][time].isValid) {\n            // New query, enqueue it for review.\n            queryIndices[identifier][time] = QueryIndex(true, requestedPrices.length);\n            requestedPrices.push(QueryPoint(identifier, time));\n        }\n    }\n\n    // Pushes the verified price for a requested query.\n    function pushPrice(bytes32 identifier, uint time, int price) external {\n        verifiedPrices[identifier][time] = Price(true, price, getCurrentTime());\n\n        QueryIndex storage queryIndex = queryIndices[identifier][time];\n        require(queryIndex.isValid, \"Can't push prices that haven't been requested\");\n        // Delete from the array. Instead of shifting the queries over, replace the contents of `indexToReplace` with\n        // the contents of the last index (unless it is the last index).\n        uint indexToReplace = queryIndex.index;\n        delete queryIndices[identifier][time];\n        uint lastIndex = requestedPrices.length - 1;\n        if (lastIndex != indexToReplace) {\n            QueryPoint storage queryToCopy = requestedPrices[lastIndex];\n            queryIndices[queryToCopy.identifier][queryToCopy.time].index = indexToReplace;\n            requestedPrices[indexToReplace] = queryToCopy;\n        }\n    }\n\n    // Checks whether a price has been resolved.\n    // TODO(#969) Remove once prettier-plugin-solidity can handle the \"override\" keyword\n    // prettier-ignore\n    function hasPrice(bytes32 identifier, uint time) external override view returns (bool hasPriceAvailable) {\n        require(identifierWhitelist.isIdentifierSupported(identifier));\n        Price storage lookup = verifiedPrices[identifier][time];\n        return lookup.isAvailable;\n    }\n\n    // Gets a price that has already been resolved.\n    // TODO(#969) Remove once prettier-plugin-solidity can handle the \"override\" keyword\n    // prettier-ignore\n    function getPrice(bytes32 identifier, uint time) external override view returns (int price) {\n        require(identifierWhitelist.isIdentifierSupported(identifier));\n        Price storage lookup = verifiedPrices[identifier][time];\n        require(lookup.isAvailable);\n        return lookup.price;\n    }\n\n    // Gets the queries that still need verified prices.\n    function getPendingQueries() external view returns (QueryPoint[] memory queryPoints) {\n        return requestedPrices;\n    }\n}\n",
  "sourcePath": "/home/alessandrovm/JarvisLavoro/SynFiat/packages/contracts/contracts/uma-contracts/oracle/test/MockOracle.sol",
  "compiler": {
    "name": "solc",
    "version": "0.6.4+commit.1dca32f3.Emscripten.clang"
  },
  "schemaVersion": "3.2.0",
  "updatedAt": "2020-06-19T21:38:31.712Z",
  "devdoc": {
    "methods": {
      "setCurrentTime(uint256)": {
        "details": "Will revert if not running in test mode."
      }
    }
  },
  "userdoc": {
    "methods": {
      "getCurrentTime()": {
        "notice": "Gets the current time. Will return the last time set in `setCurrentTime` if running in test mode. Otherwise, it will return the block timestamp."
      },
      "setCurrentTime(uint256)": {
        "notice": "Sets the current time."
      }
    }
  }
}