{
  "contractName": "MultiRoleTest",
  "abi": [
    {
      "anonymous": false,
      "inputs": [
        {
          "indexed": true,
          "internalType": "uint256",
          "name": "roleId",
          "type": "uint256"
        },
        {
          "indexed": true,
          "internalType": "address",
          "name": "newMember",
          "type": "address"
        },
        {
          "indexed": true,
          "internalType": "address",
          "name": "manager",
          "type": "address"
        }
      ],
      "name": "AddedSharedMember",
      "type": "event"
    },
    {
      "anonymous": false,
      "inputs": [
        {
          "indexed": true,
          "internalType": "uint256",
          "name": "roleId",
          "type": "uint256"
        },
        {
          "indexed": true,
          "internalType": "address",
          "name": "oldMember",
          "type": "address"
        },
        {
          "indexed": true,
          "internalType": "address",
          "name": "manager",
          "type": "address"
        }
      ],
      "name": "RemovedSharedMember",
      "type": "event"
    },
    {
      "anonymous": false,
      "inputs": [
        {
          "indexed": true,
          "internalType": "uint256",
          "name": "roleId",
          "type": "uint256"
        },
        {
          "indexed": true,
          "internalType": "address",
          "name": "newMember",
          "type": "address"
        },
        {
          "indexed": true,
          "internalType": "address",
          "name": "manager",
          "type": "address"
        }
      ],
      "name": "ResetExclusiveMember",
      "type": "event"
    },
    {
      "inputs": [
        {
          "internalType": "uint256",
          "name": "roleId",
          "type": "uint256"
        },
        {
          "internalType": "address",
          "name": "newMember",
          "type": "address"
        }
      ],
      "name": "addMember",
      "outputs": [],
      "stateMutability": "nonpayable",
      "type": "function"
    },
    {
      "inputs": [
        {
          "internalType": "uint256",
          "name": "roleId",
          "type": "uint256"
        }
      ],
      "name": "getMember",
      "outputs": [
        {
          "internalType": "address",
          "name": "",
          "type": "address"
        }
      ],
      "stateMutability": "view",
      "type": "function"
    },
    {
      "inputs": [
        {
          "internalType": "uint256",
          "name": "roleId",
          "type": "uint256"
        },
        {
          "internalType": "address",
          "name": "memberToCheck",
          "type": "address"
        }
      ],
      "name": "holdsRole",
      "outputs": [
        {
          "internalType": "bool",
          "name": "",
          "type": "bool"
        }
      ],
      "stateMutability": "view",
      "type": "function"
    },
    {
      "inputs": [
        {
          "internalType": "uint256",
          "name": "roleId",
          "type": "uint256"
        },
        {
          "internalType": "address",
          "name": "memberToRemove",
          "type": "address"
        }
      ],
      "name": "removeMember",
      "outputs": [],
      "stateMutability": "nonpayable",
      "type": "function"
    },
    {
      "inputs": [
        {
          "internalType": "uint256",
          "name": "roleId",
          "type": "uint256"
        }
      ],
      "name": "renounceMembership",
      "outputs": [],
      "stateMutability": "nonpayable",
      "type": "function"
    },
    {
      "inputs": [
        {
          "internalType": "uint256",
          "name": "roleId",
          "type": "uint256"
        },
        {
          "internalType": "address",
          "name": "newMember",
          "type": "address"
        }
      ],
      "name": "resetMember",
      "outputs": [],
      "stateMutability": "nonpayable",
      "type": "function"
    },
    {
      "inputs": [
        {
          "internalType": "uint256",
          "name": "roleId",
          "type": "uint256"
        },
        {
          "internalType": "uint256",
          "name": "managingRoleId",
          "type": "uint256"
        },
        {
          "internalType": "address[]",
          "name": "initialMembers",
          "type": "address[]"
        }
      ],
      "name": "createSharedRole",
      "outputs": [],
      "stateMutability": "nonpayable",
      "type": "function"
    },
    {
      "inputs": [
        {
          "internalType": "uint256",
          "name": "roleId",
          "type": "uint256"
        },
        {
          "internalType": "uint256",
          "name": "managingRoleId",
          "type": "uint256"
        },
        {
          "internalType": "address",
          "name": "initialMember",
          "type": "address"
        }
      ],
      "name": "createExclusiveRole",
      "outputs": [],
      "stateMutability": "nonpayable",
      "type": "function"
    },
    {
      "inputs": [
        {
          "internalType": "uint256",
          "name": "roleId",
          "type": "uint256"
        }
      ],
      "name": "revertIfNotHoldingRole",
      "outputs": [],
      "stateMutability": "view",
      "type": "function"
    }
  ],
  "bytecode": "0x608060405234801561001057600080fd5b506110c0806100206000396000f3fe608060405234801561001057600080fd5b50600436106100a35760003560e01c80637cdc1cb911610076578063ab3545e51161005b578063ab3545e51461021f578063d97c05be14610265578063e2ad8db91461029e576100a3565b80637cdc1cb9146101b5578063aaa14ca314610202576100a3565b806319fefdf0146100a857806352b34d49146101265780636be7658b1461014357806374d0a6761461017c575b600080fd5b610124600480360360608110156100be57600080fd5b8135916020810135918101906060810160408201356401000000008111156100e557600080fd5b8201836020820111156100f757600080fd5b8035906020019184602083028401116401000000008311171561011957600080fd5b5090925090506102dd565b005b6101246004803603602081101561013c57600080fd5b5035610321565b6101246004803603604081101561015957600080fd5b508035906020013573ffffffffffffffffffffffffffffffffffffffff16610385565b6101246004803603604081101561019257600080fd5b508035906020013573ffffffffffffffffffffffffffffffffffffffff166104da565b6101ee600480360360408110156101cb57600080fd5b508035906020013573ffffffffffffffffffffffffffffffffffffffff1661062f565b604080519115158252519081900360200190f35b6101246004803603602081101561021857600080fd5b503561070d565b61023c6004803603602081101561023557600080fd5b503561083b565b6040805173ffffffffffffffffffffffffffffffffffffffff9092168252519081900360200190f35b6101246004803603604081101561027b57600080fd5b508035906020013573ffffffffffffffffffffffffffffffffffffffff166108d7565b610124600480360360608110156102b457600080fd5b508035906020810135906040013573ffffffffffffffffffffffffffffffffffffffff16610a2c565b61031b8484848480806020026020016040519081016040528093929190818152602001838360200280828437600092019190915250610a3c92505050565b50505050565b8061032c813361062f565b610381576040517f08c379a0000000000000000000000000000000000000000000000000000000008152600401808060200182810382526022815260200180610fae6022913960400191505060405180910390fd5b5050565b81600260008281526020819052604090206001015460ff1660028111156103a857fe5b146103fe576040517f08c379a000000000000000000000000000000000000000000000000000000000815260040180806020018281038252602c815260200180610f82602c913960400191505060405180910390fd5b6000838152602081905260409020548390610419903361062f565b61046e576040517f08c379a000000000000000000000000000000000000000000000000000000000815260040180806020018281038252602481526020018061102f6024913960400191505060405180910390fd5b600084815260208190526040902061048f906003018463ffffffff610b9316565b604051339073ffffffffffffffffffffffffffffffffffffffff85169086907feb3e33034c392e69263b04ec0fa376dc12784a41b6676c7f31b936cbc0fbb5af90600090a450505050565b81600260008281526020819052604090206001015460ff1660028111156104fd57fe5b14610553576040517f08c379a000000000000000000000000000000000000000000000000000000000815260040180806020018281038252602c815260200180610f82602c913960400191505060405180910390fd5b600083815260208190526040902054839061056e903361062f565b6105c3576040517f08c379a000000000000000000000000000000000000000000000000000000000815260040180806020018281038252602481526020018061102f6024913960400191505060405180910390fd5b60008481526020819052604090206105e4906003018463ffffffff610be016565b604051339073ffffffffffffffffffffffffffffffffffffffff85169086907f63502af7324ff6db91ab38f8236a648727d9385ea6c782073dd4882d8a61a48f90600090a450505050565b600082815260208190526040812060018082015460ff16600281111561065157fe5b14156106725761066a600282018463ffffffff610cb216565b915050610707565b6002600182015460ff16600281111561068757fe5b14156106a05761066a600382018463ffffffff610cd216565b604080517f08c379a000000000000000000000000000000000000000000000000000000000815260206004820152600e60248201527f496e76616c696420726f6c654964000000000000000000000000000000000000604482015290519081900360640190fd5b92915050565b80600260008281526020819052604090206001015460ff16600281111561073057fe5b14610786576040517f08c379a000000000000000000000000000000000000000000000000000000000815260040180806020018281038252602c815260200180610f82602c913960400191505060405180910390fd5b81610791813361062f565b6107e6576040517f08c379a0000000000000000000000000000000000000000000000000000000008152600401808060200182810382526022815260200180610fae6022913960400191505060405180910390fd5b6000838152602081905260409020610807906003013363ffffffff610b9316565b6040513390819085907feb3e33034c392e69263b04ec0fa376dc12784a41b6676c7f31b936cbc0fbb5af90600090a4505050565b600081600160008281526020819052604090206001015460ff16600281111561086057fe5b146108b6576040517f08c379a000000000000000000000000000000000000000000000000000000000815260040180806020018281038252602f815260200180610f53602f913960400191505060405180910390fd5b60008381526020819052604090206108d090600201610cfe565b9392505050565b81600160008281526020819052604090206001015460ff1660028111156108fa57fe5b14610950576040517f08c379a000000000000000000000000000000000000000000000000000000000815260040180806020018281038252602f815260200180610f53602f913960400191505060405180910390fd5b600083815260208190526040902054839061096b903361062f565b6109c0576040517f08c379a000000000000000000000000000000000000000000000000000000000815260040180806020018281038252602481526020018061102f6024913960400191505060405180910390fd5b60008481526020819052604090206109e1906002018463ffffffff610d1816565b604051339073ffffffffffffffffffffffffffffffffffffffff85169086907f3b855c56b409b671c7112789d022675eb639d0bcb8896f1b6197c132f799e74690600090a450505050565b610a37838383610dc6565b505050565b826000808281526020819052604090206001015460ff166002811115610a5e57fe5b14610aca57604080517f08c379a000000000000000000000000000000000000000000000000000000000815260206004820152601e60248201527f43616e6e6f74207573652061207072652d6578697374696e6720726f6c650000604482015290519081900360640190fd5b60008481526020819052604090206001810180547fffffffffffffffffffffffffffffffffffffffffffffffffffffffffffffff00166002179055838155610b156003820184610f17565b60008481526020819052604081206001015460ff166002811115610b3557fe5b1415610b8c576040517f08c379a00000000000000000000000000000000000000000000000000000000081526004018080602001828103825260388152602001806110536038913960400191505060405180910390fd5b5050505050565b73ffffffffffffffffffffffffffffffffffffffff1660009081526020919091526040902080547fffffffffffffffffffffffffffffffffffffffffffffffffffffffffffffff00169055565b73ffffffffffffffffffffffffffffffffffffffff8116610c6257604080517f08c379a000000000000000000000000000000000000000000000000000000000815260206004820152601f60248201527f43616e6e6f74206164642030783020746f20612073686172656420726f6c6500604482015290519081900360640190fd5b73ffffffffffffffffffffffffffffffffffffffff1660009081526020919091526040902080547fffffffffffffffffffffffffffffffffffffffffffffffffffffffffffffff00166001179055565b905473ffffffffffffffffffffffffffffffffffffffff91821691161490565b73ffffffffffffffffffffffffffffffffffffffff166000908152602091909152604090205460ff1690565b5473ffffffffffffffffffffffffffffffffffffffff1690565b73ffffffffffffffffffffffffffffffffffffffff8116610d84576040517f08c379a000000000000000000000000000000000000000000000000000000000815260040180806020018281038252602381526020018061100c6023913960400191505060405180910390fd5b81547fffffffffffffffffffffffff00000000000000000000000000000000000000001673ffffffffffffffffffffffffffffffffffffffff91909116179055565b826000808281526020819052604090206001015460ff166002811115610de857fe5b14610e5457604080517f08c379a000000000000000000000000000000000000000000000000000000000815260206004820152601e60248201527f43616e6e6f74207573652061207072652d6578697374696e6720726f6c650000604482015290519081900360640190fd5b6000848152602081905260409020600180820180547fffffffffffffffffffffffffffffffffffffffffffffffffffffffffffffff00169091179055838155610ea06002820184610f48565b60008481526020819052604081206001015460ff166002811115610ec057fe5b1415610b8c576040517f08c379a000000000000000000000000000000000000000000000000000000000815260040180806020018281038252603c815260200180610fd0603c913960400191505060405180910390fd5b60005b8151811015610a3757610f4083838381518110610f3357fe5b6020026020010151610be0565b600101610f1a565b6103818282610d1856fe4d7573742062652063616c6c6564206f6e20616e20696e697469616c697a6564204578636c757369766520726f6c654d7573742062652063616c6c6564206f6e20616e20696e697469616c697a65642053686172656420726f6c6553656e64657220646f6573206e6f7420686f6c6420726571756972656420726f6c65417474656d7074656420746f2075736520616e20696e76616c696420726f6c6520746f206d616e61676520616e206578636c757369766520726f6c6543616e6e6f742073657420616e206578636c757369766520726f6c6520746f2030783043616e206f6e6c792062652063616c6c6564206279206120726f6c65206d616e61676572417474656d7074656420746f2075736520616e20696e76616c696420726f6c6520746f206d616e61676520612073686172656420726f6c65a2646970667358221220821b3048ee41554d74a32c20fc33f2f4093310dc89b15aa89423174502077b0664736f6c634300060a0033",
  "immutableReferences": {},
  "source": "/*\n  MultiRoleTest contract.\n*/\n\npragma solidity ^0.6.0;\n\nimport \"../implementation/MultiRole.sol\";\n\n\n// The purpose of this contract is to make the MultiRole creation methods externally callable for testing purposes.\ncontract MultiRoleTest is MultiRole {\n    function createSharedRole(\n        uint256 roleId,\n        uint256 managingRoleId,\n        address[] calldata initialMembers\n    ) external {\n        _createSharedRole(roleId, managingRoleId, initialMembers);\n    }\n\n    function createExclusiveRole(\n        uint256 roleId,\n        uint256 managingRoleId,\n        address initialMember\n    ) external {\n        _createExclusiveRole(roleId, managingRoleId, initialMember);\n    }\n\n    // solhint-disable-next-line no-empty-blocks\n    function revertIfNotHoldingRole(uint256 roleId) external view onlyRoleHolder(roleId) {}\n}\n",
  "sourcePath": "/home/alessandrovm/JarvisLavoro/SynFiat/packages/contracts/contracts/uma-contracts/common/test/MultiRoleTest.sol",
  "compiler": {
    "name": "solc",
    "version": "0.6.10+commit.00c0fcaf.Emscripten.clang"
  },
  "schemaVersion": "3.2.5",
  "updatedAt": "2020-10-19T18:33:22.284Z",
  "devdoc": {
    "methods": {
      "addMember(uint256,address)": {
        "details": "Reverts if `roleId` does not represent an initialized, SharedRole or if the caller is not a member of the managing role for `roleId`.",
        "params": {
          "newMember": "the new SharedRole member.",
          "roleId": "the SharedRole membership to modify."
        }
      },
      "getMember(uint256)": {
        "details": "Reverts if `roleId` does not represent an initialized, exclusive role.",
        "params": {
          "roleId": "the ExclusiveRole membership to check."
        },
        "returns": {
          "_0": "the address of the current ExclusiveRole member."
        }
      },
      "holdsRole(uint256,address)": {
        "details": "Reverts if roleId does not correspond to an initialized role.",
        "params": {
          "memberToCheck": "the address to check.",
          "roleId": "the Role to check."
        },
        "returns": {
          "_0": "True if `memberToCheck` is a member of `roleId`."
        }
      },
      "removeMember(uint256,address)": {
        "details": "Reverts if `roleId` does not represent an initialized, SharedRole or if the caller is not a member of the managing role for `roleId`.",
        "params": {
          "memberToRemove": "the current SharedRole member to remove.",
          "roleId": "the SharedRole membership to modify."
        }
      },
      "renounceMembership(uint256)": {
        "details": "Reverts if the caller is not a member of the role for `roleId` or if `roleId` is not an initialized, SharedRole.",
        "params": {
          "roleId": "the SharedRole membership to modify."
        }
      },
      "resetMember(uint256,address)": {
        "details": "Reverts if the caller is not a member of the managing role for `roleId` or if `roleId` is not an initialized, ExclusiveRole.",
        "params": {
          "newMember": "the new ExclusiveRole member.",
          "roleId": "the ExclusiveRole membership to modify."
        }
      }
    }
  },
  "userdoc": {
    "methods": {
      "addMember(uint256,address)": {
        "notice": "Adds `newMember` to the shared role, `roleId`."
      },
      "getMember(uint256)": {
        "notice": "Gets the current holder of the exclusive role, `roleId`."
      },
      "holdsRole(uint256,address)": {
        "notice": "Whether `memberToCheck` is a member of roleId."
      },
      "removeMember(uint256,address)": {
        "notice": "Removes `memberToRemove` from the shared role, `roleId`."
      },
      "renounceMembership(uint256)": {
        "notice": "Removes caller from the role, `roleId`."
      },
      "resetMember(uint256,address)": {
        "notice": "Changes the exclusive role holder of `roleId` to `newMember`."
      }
    }
  }
}