{
  "contractName": "MultiRoleTest",
  "abi": [
    {
      "inputs": [
        {
          "internalType": "uint256",
          "name": "roleId",
          "type": "uint256"
        },
        {
          "internalType": "address",
          "name": "newMember",
          "type": "address"
        }
      ],
      "name": "addMember",
      "outputs": [],
      "stateMutability": "nonpayable",
      "type": "function"
    },
    {
      "inputs": [
        {
          "internalType": "uint256",
          "name": "roleId",
          "type": "uint256"
        }
      ],
      "name": "getMember",
      "outputs": [
        {
          "internalType": "address",
          "name": "",
          "type": "address"
        }
      ],
      "stateMutability": "view",
      "type": "function"
    },
    {
      "inputs": [
        {
          "internalType": "uint256",
          "name": "roleId",
          "type": "uint256"
        },
        {
          "internalType": "address",
          "name": "memberToCheck",
          "type": "address"
        }
      ],
      "name": "holdsRole",
      "outputs": [
        {
          "internalType": "bool",
          "name": "",
          "type": "bool"
        }
      ],
      "stateMutability": "view",
      "type": "function"
    },
    {
      "inputs": [
        {
          "internalType": "uint256",
          "name": "roleId",
          "type": "uint256"
        },
        {
          "internalType": "address",
          "name": "memberToRemove",
          "type": "address"
        }
      ],
      "name": "removeMember",
      "outputs": [],
      "stateMutability": "nonpayable",
      "type": "function"
    },
    {
      "inputs": [
        {
          "internalType": "uint256",
          "name": "roleId",
          "type": "uint256"
        },
        {
          "internalType": "address",
          "name": "newMember",
          "type": "address"
        }
      ],
      "name": "resetMember",
      "outputs": [],
      "stateMutability": "nonpayable",
      "type": "function"
    },
    {
      "inputs": [
        {
          "internalType": "uint256",
          "name": "roleId",
          "type": "uint256"
        },
        {
          "internalType": "uint256",
          "name": "managingRoleId",
          "type": "uint256"
        },
        {
          "internalType": "address[]",
          "name": "initialMembers",
          "type": "address[]"
        }
      ],
      "name": "createSharedRole",
      "outputs": [],
      "stateMutability": "nonpayable",
      "type": "function"
    },
    {
      "inputs": [
        {
          "internalType": "uint256",
          "name": "roleId",
          "type": "uint256"
        },
        {
          "internalType": "uint256",
          "name": "managingRoleId",
          "type": "uint256"
        },
        {
          "internalType": "address",
          "name": "initialMember",
          "type": "address"
        }
      ],
      "name": "createExclusiveRole",
      "outputs": [],
      "stateMutability": "nonpayable",
      "type": "function"
    },
    {
      "inputs": [
        {
          "internalType": "uint256",
          "name": "roleId",
          "type": "uint256"
        }
      ],
      "name": "revertIfNotHoldingRole",
      "outputs": [],
      "stateMutability": "view",
      "type": "function"
    }
  ],
  "bytecode": "0x608060405234801561001057600080fd5b50610df7806100206000396000f3fe608060405234801561001057600080fd5b50600436106100885760003560e01c80637cdc1cb91161005b5780637cdc1cb91461019a578063ab3545e5146101e7578063d97c05be1461022d578063e2ad8db91461026657610088565b806319fefdf01461008d57806352b34d491461010b5780636be7658b1461012857806374d0a67614610161575b600080fd5b610109600480360360608110156100a357600080fd5b8135916020810135918101906060810160408201356401000000008111156100ca57600080fd5b8201836020820111156100dc57600080fd5b803590602001918460208302840111640100000000831117156100fe57600080fd5b5090925090506102a5565b005b6101096004803603602081101561012157600080fd5b50356102e9565b6101096004803603604081101561013e57600080fd5b508035906020013573ffffffffffffffffffffffffffffffffffffffff1661034d565b6101096004803603604081101561017757600080fd5b508035906020013573ffffffffffffffffffffffffffffffffffffffff16610457565b6101d3600480360360408110156101b057600080fd5b508035906020013573ffffffffffffffffffffffffffffffffffffffff16610561565b604080519115158252519081900360200190f35b610204600480360360208110156101fd57600080fd5b503561063f565b6040805173ffffffffffffffffffffffffffffffffffffffff9092168252519081900360200190f35b6101096004803603604081101561024357600080fd5b508035906020013573ffffffffffffffffffffffffffffffffffffffff166106db565b6101096004803603606081101561027c57600080fd5b508035906020810135906040013573ffffffffffffffffffffffffffffffffffffffff166107e5565b6102e384848484808060200260200160405190810160405280939291908181526020018383602002808284376000920191909152506107f592505050565b50505050565b806102f48133610561565b610349576040517f08c379a0000000000000000000000000000000000000000000000000000000008152600401808060200182810382526022815260200180610ce56022913960400191505060405180910390fd5b5050565b81600260008281526020819052604090206001015460ff16600281111561037057fe5b146103c6576040517f08c379a000000000000000000000000000000000000000000000000000000000815260040180806020018281038252602c815260200180610cb9602c913960400191505060405180910390fd5b60008381526020819052604090205483906103e19033610561565b610436576040517f08c379a0000000000000000000000000000000000000000000000000000000008152600401808060200182810382526024815260200180610d666024913960400191505060405180910390fd5b60008481526020819052604090206102e3906003018463ffffffff61094c16565b81600260008281526020819052604090206001015460ff16600281111561047a57fe5b146104d0576040517f08c379a000000000000000000000000000000000000000000000000000000000815260040180806020018281038252602c815260200180610cb9602c913960400191505060405180910390fd5b60008381526020819052604090205483906104eb9033610561565b610540576040517f08c379a0000000000000000000000000000000000000000000000000000000008152600401808060200182810382526024815260200180610d666024913960400191505060405180910390fd5b60008481526020819052604090206102e3906003018463ffffffff61099916565b600082815260208190526040812060018082015460ff16600281111561058357fe5b14156105a45761059c600282018463ffffffff6109e916565b915050610639565b6002600182015460ff1660028111156105b957fe5b14156105d25761059c600382018463ffffffff610a0916565b604080517f08c379a000000000000000000000000000000000000000000000000000000000815260206004820152600e60248201527f496e76616c696420726f6c654964000000000000000000000000000000000000604482015290519081900360640190fd5b92915050565b600081600160008281526020819052604090206001015460ff16600281111561066457fe5b146106ba576040517f08c379a000000000000000000000000000000000000000000000000000000000815260040180806020018281038252602f815260200180610c8a602f913960400191505060405180910390fd5b60008381526020819052604090206106d490600201610a35565b9392505050565b81600160008281526020819052604090206001015460ff1660028111156106fe57fe5b14610754576040517f08c379a000000000000000000000000000000000000000000000000000000000815260040180806020018281038252602f815260200180610c8a602f913960400191505060405180910390fd5b600083815260208190526040902054839061076f9033610561565b6107c4576040517f08c379a0000000000000000000000000000000000000000000000000000000008152600401808060200182810382526024815260200180610d666024913960400191505060405180910390fd5b60008481526020819052604090206102e3906002018463ffffffff610a4f16565b6107f0838383610afd565b505050565b826000808281526020819052604090206001015460ff16600281111561081757fe5b1461088357604080517f08c379a000000000000000000000000000000000000000000000000000000000815260206004820152601e60248201527f43616e6e6f74207573652061207072652d6578697374696e6720726f6c650000604482015290519081900360640190fd5b60008481526020819052604090206001810180547fffffffffffffffffffffffffffffffffffffffffffffffffffffffffffffff001660021790558381556108ce6003820184610c4e565b60008481526020819052604081206001015460ff1660028111156108ee57fe5b1415610945576040517f08c379a0000000000000000000000000000000000000000000000000000000008152600401808060200182810382526038815260200180610d8a6038913960400191505060405180910390fd5b5050505050565b73ffffffffffffffffffffffffffffffffffffffff1660009081526020919091526040902080547fffffffffffffffffffffffffffffffffffffffffffffffffffffffffffffff00169055565b73ffffffffffffffffffffffffffffffffffffffff1660009081526020919091526040902080547fffffffffffffffffffffffffffffffffffffffffffffffffffffffffffffff00166001179055565b905473ffffffffffffffffffffffffffffffffffffffff91821691161490565b73ffffffffffffffffffffffffffffffffffffffff166000908152602091909152604090205460ff1690565b5473ffffffffffffffffffffffffffffffffffffffff1690565b73ffffffffffffffffffffffffffffffffffffffff8116610abb576040517f08c379a0000000000000000000000000000000000000000000000000000000008152600401808060200182810382526023815260200180610d436023913960400191505060405180910390fd5b81547fffffffffffffffffffffffff00000000000000000000000000000000000000001673ffffffffffffffffffffffffffffffffffffffff91909116179055565b826000808281526020819052604090206001015460ff166002811115610b1f57fe5b14610b8b57604080517f08c379a000000000000000000000000000000000000000000000000000000000815260206004820152601e60248201527f43616e6e6f74207573652061207072652d6578697374696e6720726f6c650000604482015290519081900360640190fd5b6000848152602081905260409020600180820180547fffffffffffffffffffffffffffffffffffffffffffffffffffffffffffffff00169091179055838155610bd76002820184610c7f565b60008481526020819052604081206001015460ff166002811115610bf757fe5b1415610945576040517f08c379a000000000000000000000000000000000000000000000000000000000815260040180806020018281038252603c815260200180610d07603c913960400191505060405180910390fd5b60005b81518110156107f057610c7783838381518110610c6a57fe5b6020026020010151610999565b600101610c51565b6103498282610a4f56fe4d7573742062652063616c6c6564206f6e20616e20696e697469616c697a6564204578636c757369766520726f6c654d7573742062652063616c6c6564206f6e20616e20696e697469616c697a65642053686172656420726f6c6553656e64657220646f6573206e6f7420686f6c6420726571756972656420726f6c65417474656d7074656420746f2075736520616e20696e76616c696420726f6c6520746f206d616e61676520616e206578636c757369766520726f6c6543616e6e6f742073657420616e206578636c757369766520726f6c6520746f2030783043616e206f6e6c792062652063616c6c6564206279206120726f6c65206d616e61676572417474656d7074656420746f2075736520616e20696e76616c696420726f6c6520746f206d616e61676520612073686172656420726f6c65a26469706673582212203fbd836f4c62429a2582c48d64bb0791fdc2309e7fab120d75d4d748ff4924ee64736f6c63430006040033",
  "source": "/*\n  MultiRoleTest contract.\n*/\n\npragma solidity ^0.6.0;\n\nimport \"../implementation/MultiRole.sol\";\n\n\n// The purpose of this contract is to make the MultiRole creation methods externally callable for testing purposes.\ncontract MultiRoleTest is MultiRole {\n    function createSharedRole(uint roleId, uint managingRoleId, address[] calldata initialMembers) external {\n        _createSharedRole(roleId, managingRoleId, initialMembers);\n    }\n\n    function createExclusiveRole(uint roleId, uint managingRoleId, address initialMember) external {\n        _createExclusiveRole(roleId, managingRoleId, initialMember);\n    }\n\n    // solhint-disable-next-line no-empty-blocks\n    function revertIfNotHoldingRole(uint roleId) external view onlyRoleHolder(roleId) {}\n}\n",
  "sourcePath": "/home/opz/Projects/SynFiat-update/gitlab/contracts/uma-contracts/common/test/MultiRoleTest.sol",
  "compiler": {
    "name": "solc",
    "version": "0.6.4+commit.1dca32f3.Emscripten.clang"
  },
  "schemaVersion": "3.2.0",
  "updatedAt": "2020-07-20T06:15:50.063Z",
  "devdoc": {
    "methods": {
      "addMember(uint256,address)": {
        "details": "Reverts if `roleId` does not represent an initialized, shared role or if the caller is not a member of the managing role for `roleId`."
      },
      "getMember(uint256)": {
        "details": "Reverts if `roleId` does not represent an initialized, exclusive role."
      },
      "holdsRole(uint256,address)": {
        "details": "Reverts if roleId does not correspond to an initialized role."
      },
      "removeMember(uint256,address)": {
        "details": "Reverts if `roleId` does not represent an initialized, shared role or if the caller is not a member of the managing role for `roleId`."
      },
      "resetMember(uint256,address)": {
        "details": "Reverts if the caller is not a member of the managing role for `roleId` or if `roleId` is not an initialized, exclusive role."
      }
    }
  },
  "userdoc": {
    "methods": {
      "addMember(uint256,address)": {
        "notice": "Adds `newMember` to the shared role, `roleId`."
      },
      "getMember(uint256)": {
        "notice": "Gets the current holder of the exclusive role, `roleId`."
      },
      "holdsRole(uint256,address)": {
        "notice": "Whether `memberToCheck` is a member of roleId."
      },
      "removeMember(uint256,address)": {
        "notice": "Removes `memberToRemove` from the shared role, `roleId`."
      },
      "resetMember(uint256,address)": {
        "notice": "Changes the exclusive role holder of `roleId` to `newMember`."
      }
    }
  }
}