{
  "contractName": "MultiRole",
  "abi": [
    {
      "inputs": [
        {
          "internalType": "uint256",
          "name": "roleId",
          "type": "uint256"
        },
        {
          "internalType": "address",
          "name": "memberToCheck",
          "type": "address"
        }
      ],
      "name": "holdsRole",
      "outputs": [
        {
          "internalType": "bool",
          "name": "",
          "type": "bool"
        }
      ],
      "stateMutability": "view",
      "type": "function"
    },
    {
      "inputs": [
        {
          "internalType": "uint256",
          "name": "roleId",
          "type": "uint256"
        },
        {
          "internalType": "address",
          "name": "newMember",
          "type": "address"
        }
      ],
      "name": "resetMember",
      "outputs": [],
      "stateMutability": "nonpayable",
      "type": "function"
    },
    {
      "inputs": [
        {
          "internalType": "uint256",
          "name": "roleId",
          "type": "uint256"
        }
      ],
      "name": "getMember",
      "outputs": [
        {
          "internalType": "address",
          "name": "",
          "type": "address"
        }
      ],
      "stateMutability": "view",
      "type": "function"
    },
    {
      "inputs": [
        {
          "internalType": "uint256",
          "name": "roleId",
          "type": "uint256"
        },
        {
          "internalType": "address",
          "name": "newMember",
          "type": "address"
        }
      ],
      "name": "addMember",
      "outputs": [],
      "stateMutability": "nonpayable",
      "type": "function"
    },
    {
      "inputs": [
        {
          "internalType": "uint256",
          "name": "roleId",
          "type": "uint256"
        },
        {
          "internalType": "address",
          "name": "memberToRemove",
          "type": "address"
        }
      ],
      "name": "removeMember",
      "outputs": [],
      "stateMutability": "nonpayable",
      "type": "function"
    }
  ],
  "bytecode": "0x608060405234801561001057600080fd5b506106f6806100206000396000f3fe608060405234801561001057600080fd5b50600436106100575760003560e01c80636be7658b1461005c57806374d0a6761461008a5780637cdc1cb9146100b6578063ab3545e5146100f6578063d97c05be1461012f575b600080fd5b6100886004803603604081101561007257600080fd5b50803590602001356001600160a01b031661015b565b005b610088600480360360408110156100a057600080fd5b50803590602001356001600160a01b0316610237565b6100e2600480360360408110156100cc57600080fd5b50803590602001356001600160a01b031661030d565b604080519115158252519081900360200190f35b6101136004803603602081101561010c57600080fd5b50356103d1565b604080516001600160a01b039092168252519081900360200190f35b6100886004803603604081101561014557600080fd5b50803590602001356001600160a01b0316610453565b81600260008281526020819052604090206001015460ff16600281111561017e57fe5b146101ba5760405162461bcd60e51b815260040180806020018281038252602c81526020018061064e602c913960400191505060405180910390fd5b60008381526020819052604090205483906101d5903361030d565b6102105760405162461bcd60e51b815260040180806020018281038252602481526020018061069d6024913960400191505060405180910390fd5b6000848152602081905260409020610231906003018463ffffffff61052916565b50505050565b81600260008281526020819052604090206001015460ff16600281111561025a57fe5b146102965760405162461bcd60e51b815260040180806020018281038252602c81526020018061064e602c913960400191505060405180910390fd5b60008381526020819052604090205483906102b1903361030d565b6102ec5760405162461bcd60e51b815260040180806020018281038252602481526020018061069d6024913960400191505060405180910390fd5b6000848152602081905260409020610231906003018463ffffffff61054b16565b600082815260208190526040812060018082015460ff16600281111561032f57fe5b141561035057610348600282018463ffffffff61057016565b9150506103cb565b6002600182015460ff16600281111561036557fe5b141561037e57610348600382018463ffffffff61058316565b6040805162461bcd60e51b815260206004820152600e60248201527f496e76616c696420726f6c654964000000000000000000000000000000000000604482015290519081900360640190fd5b92915050565b600081600160008281526020819052604090206001015460ff1660028111156103f657fe5b146104325760405162461bcd60e51b815260040180806020018281038252602f81526020018061061f602f913960400191505060405180910390fd5b600083815260208190526040902061044c906002016105a2565b9392505050565b81600160008281526020819052604090206001015460ff16600281111561047657fe5b146104b25760405162461bcd60e51b815260040180806020018281038252602f81526020018061061f602f913960400191505060405180910390fd5b60008381526020819052604090205483906104cd903361030d565b6105085760405162461bcd60e51b815260040180806020018281038252602481526020018061069d6024913960400191505060405180910390fd5b6000848152602081905260409020610231906002018463ffffffff6105af16565b6001600160a01b0316600090815260209190915260409020805460ff19169055565b6001600160a01b0316600090815260209190915260409020805460ff19166001179055565b90546001600160a01b0391821691161490565b6001600160a01b03166000908152602091909152604090205460ff1690565b546001600160a01b031690565b6001600160a01b0381166105f45760405162461bcd60e51b815260040180806020018281038252602381526020018061067a6023913960400191505060405180910390fd5b815473ffffffffffffffffffffffffffffffffffffffff19166001600160a01b039190911617905556fe4d7573742062652063616c6c6564206f6e20616e20696e697469616c697a6564204578636c757369766520726f6c654d7573742062652063616c6c6564206f6e20616e20696e697469616c697a65642053686172656420726f6c6543616e6e6f742073657420616e206578636c757369766520726f6c6520746f2030783043616e206f6e6c792062652063616c6c6564206279206120726f6c65206d616e61676572a26469706673582212208e5558e0d70d8bc096fc68b5a41b4bd7026f7758aa085150c3ffebdd3e6db73a64736f6c63430006040033",
  "source": "pragma solidity ^0.6.0;\n\n\nlibrary Exclusive {\n    struct RoleMembership {\n        address member;\n    }\n\n    function isMember(RoleMembership storage roleMembership, address memberToCheck) internal view returns (bool) {\n        return roleMembership.member == memberToCheck;\n    }\n\n    function resetMember(RoleMembership storage roleMembership, address newMember) internal {\n        require(newMember != address(0x0), \"Cannot set an exclusive role to 0x0\");\n        roleMembership.member = newMember;\n    }\n\n    function getMember(RoleMembership storage roleMembership) internal view returns (address) {\n        return roleMembership.member;\n    }\n\n    function init(RoleMembership storage roleMembership, address initialMember) internal {\n        resetMember(roleMembership, initialMember);\n    }\n}\n\n\nlibrary Shared {\n    struct RoleMembership {\n        mapping(address => bool) members;\n    }\n\n    function isMember(RoleMembership storage roleMembership, address memberToCheck) internal view returns (bool) {\n        return roleMembership.members[memberToCheck];\n    }\n\n    function addMember(RoleMembership storage roleMembership, address memberToAdd) internal {\n        roleMembership.members[memberToAdd] = true;\n    }\n\n    function removeMember(RoleMembership storage roleMembership, address memberToRemove) internal {\n        roleMembership.members[memberToRemove] = false;\n    }\n\n    function init(RoleMembership storage roleMembership, address[] memory initialMembers) internal {\n        for (uint i = 0; i < initialMembers.length; i++) {\n            addMember(roleMembership, initialMembers[i]);\n        }\n    }\n}\n\n\n/**\n * @title Base class to manage permissions for the derived class.\n */\ncontract MultiRole {\n    using Exclusive for Exclusive.RoleMembership;\n    using Shared for Shared.RoleMembership;\n\n    enum RoleType { Invalid, Exclusive, Shared }\n\n    struct Role {\n        uint managingRole;\n        RoleType roleType;\n        Exclusive.RoleMembership exclusiveRoleMembership;\n        Shared.RoleMembership sharedRoleMembership;\n    }\n\n    mapping(uint => Role) private roles;\n\n    /**\n     * @notice Reverts unless the caller is a member of the specified roleId.\n     */\n    modifier onlyRoleHolder(uint roleId) {\n        require(holdsRole(roleId, msg.sender), \"Sender does not hold required role\");\n        _;\n    }\n\n    /**\n     * @notice Reverts unless the caller is a member of the manager role for the specified roleId.\n     */\n    modifier onlyRoleManager(uint roleId) {\n        require(holdsRole(roles[roleId].managingRole, msg.sender), \"Can only be called by a role manager\");\n        _;\n    }\n\n    /**\n     * @notice Reverts unless the roleId represents an initialized, exclusive roleId.\n     */\n    modifier onlyExclusive(uint roleId) {\n        require(roles[roleId].roleType == RoleType.Exclusive, \"Must be called on an initialized Exclusive role\");\n        _;\n    }\n\n    /**\n     * @notice Reverts unless the roleId represents an initialized, shared roleId.\n     */\n    modifier onlyShared(uint roleId) {\n        require(roles[roleId].roleType == RoleType.Shared, \"Must be called on an initialized Shared role\");\n        _;\n    }\n\n    /**\n     * @notice Whether `memberToCheck` is a member of roleId.\n     * @dev Reverts if roleId does not correspond to an initialized role.\n     */\n    function holdsRole(uint roleId, address memberToCheck) public view returns (bool) {\n        Role storage role = roles[roleId];\n        if (role.roleType == RoleType.Exclusive) {\n            return role.exclusiveRoleMembership.isMember(memberToCheck);\n        } else if (role.roleType == RoleType.Shared) {\n            return role.sharedRoleMembership.isMember(memberToCheck);\n        }\n        require(false, \"Invalid roleId\");\n    }\n\n    /**\n     * @notice Changes the exclusive role holder of `roleId` to `newMember`.\n     * @dev Reverts if the caller is not a member of the managing role for `roleId` or if `roleId` is not an\n     * initialized, exclusive role.\n     */\n    function resetMember(uint roleId, address newMember) public onlyExclusive(roleId) onlyRoleManager(roleId) {\n        roles[roleId].exclusiveRoleMembership.resetMember(newMember);\n    }\n\n    /**\n     * @notice Gets the current holder of the exclusive role, `roleId`.\n     * @dev Reverts if `roleId` does not represent an initialized, exclusive role.\n     */\n    function getMember(uint roleId) public view onlyExclusive(roleId) returns (address) {\n        return roles[roleId].exclusiveRoleMembership.getMember();\n    }\n\n    /**\n     * @notice Adds `newMember` to the shared role, `roleId`.\n     * @dev Reverts if `roleId` does not represent an initialized, shared role or if the caller is not a member of the\n     * managing role for `roleId`.\n     */\n    function addMember(uint roleId, address newMember) public onlyShared(roleId) onlyRoleManager(roleId) {\n        roles[roleId].sharedRoleMembership.addMember(newMember);\n    }\n\n    /**\n     * @notice Removes `memberToRemove` from the shared role, `roleId`.\n     * @dev Reverts if `roleId` does not represent an initialized, shared role or if the caller is not a member of the\n     * managing role for `roleId`.\n     */\n    function removeMember(uint roleId, address memberToRemove) public onlyShared(roleId) onlyRoleManager(roleId) {\n        roles[roleId].sharedRoleMembership.removeMember(memberToRemove);\n    }\n\n    /**\n     * @notice Reverts if `roleId` is not initialized.\n     */\n    modifier onlyValidRole(uint roleId) {\n        require(roles[roleId].roleType != RoleType.Invalid, \"Attempted to use an invalid roleId\");\n        _;\n    }\n\n    /**\n     * @notice Reverts if `roleId` is initialized.\n     */\n    modifier onlyInvalidRole(uint roleId) {\n        require(roles[roleId].roleType == RoleType.Invalid, \"Cannot use a pre-existing role\");\n        _;\n    }\n\n    /**\n     * @notice Internal method to initialize a shared role, `roleId`, which will be managed by `managingRoleId`.\n     * `initialMembers` will be immediately added to the role.\n     * @dev Should be called by derived contracts, usually at construction time. Will revert if the role is already\n     * initialized.\n     */\n    function _createSharedRole(uint roleId, uint managingRoleId, address[] memory initialMembers)\n        internal\n        onlyInvalidRole(roleId)\n    {\n        Role storage role = roles[roleId];\n        role.roleType = RoleType.Shared;\n        role.managingRole = managingRoleId;\n        role.sharedRoleMembership.init(initialMembers);\n        require(\n            roles[managingRoleId].roleType != RoleType.Invalid,\n            \"Attempted to use an invalid role to manage a shared role\"\n        );\n    }\n\n    /**\n     * @notice Internal method to initialize a exclusive role, `roleId`, which will be managed by `managingRoleId`.\n     * `initialMembers` will be immediately added to the role.\n     * @dev Should be called by derived contracts, usually at construction time. Will revert if the role is already\n     * initialized.\n     */\n    function _createExclusiveRole(uint roleId, uint managingRoleId, address initialMember)\n        internal\n        onlyInvalidRole(roleId)\n    {\n        Role storage role = roles[roleId];\n        role.roleType = RoleType.Exclusive;\n        role.managingRole = managingRoleId;\n        role.exclusiveRoleMembership.init(initialMember);\n        require(\n            roles[managingRoleId].roleType != RoleType.Invalid,\n            \"Attempted to use an invalid role to manage an exclusive role\"\n        );\n    }\n}\n",
  "sourcePath": "/home/opz/Projects/SynFiat/contracts/uma-contracts/common/implementation/MultiRole.sol",
  "compiler": {
    "name": "solc",
    "version": "0.6.4+commit.1dca32f3.Emscripten.clang"
  },
  "schemaVersion": "3.2.0",
  "updatedAt": "2020-06-01T04:24:41.767Z",
  "devdoc": {
    "methods": {
      "addMember(uint256,address)": {
        "details": "Reverts if `roleId` does not represent an initialized, shared role or if the caller is not a member of the managing role for `roleId`."
      },
      "getMember(uint256)": {
        "details": "Reverts if `roleId` does not represent an initialized, exclusive role."
      },
      "holdsRole(uint256,address)": {
        "details": "Reverts if roleId does not correspond to an initialized role."
      },
      "removeMember(uint256,address)": {
        "details": "Reverts if `roleId` does not represent an initialized, shared role or if the caller is not a member of the managing role for `roleId`."
      },
      "resetMember(uint256,address)": {
        "details": "Reverts if the caller is not a member of the managing role for `roleId` or if `roleId` is not an initialized, exclusive role."
      }
    },
    "title": "Base class to manage permissions for the derived class."
  },
  "userdoc": {
    "methods": {
      "addMember(uint256,address)": {
        "notice": "Adds `newMember` to the shared role, `roleId`."
      },
      "getMember(uint256)": {
        "notice": "Gets the current holder of the exclusive role, `roleId`."
      },
      "holdsRole(uint256,address)": {
        "notice": "Whether `memberToCheck` is a member of roleId."
      },
      "removeMember(uint256,address)": {
        "notice": "Removes `memberToRemove` from the shared role, `roleId`."
      },
      "resetMember(uint256,address)": {
        "notice": "Changes the exclusive role holder of `roleId` to `newMember`."
      }
    }
  }
}