{
  "contractName": "MultiRole",
  "abi": [
    {
      "inputs": [
        {
          "internalType": "uint256",
          "name": "roleId",
          "type": "uint256"
        },
        {
          "internalType": "address",
          "name": "memberToCheck",
          "type": "address"
        }
      ],
      "name": "holdsRole",
      "outputs": [
        {
          "internalType": "bool",
          "name": "",
          "type": "bool"
        }
      ],
      "stateMutability": "view",
      "type": "function"
    },
    {
      "inputs": [
        {
          "internalType": "uint256",
          "name": "roleId",
          "type": "uint256"
        },
        {
          "internalType": "address",
          "name": "newMember",
          "type": "address"
        }
      ],
      "name": "resetMember",
      "outputs": [],
      "stateMutability": "nonpayable",
      "type": "function"
    },
    {
      "inputs": [
        {
          "internalType": "uint256",
          "name": "roleId",
          "type": "uint256"
        }
      ],
      "name": "getMember",
      "outputs": [
        {
          "internalType": "address",
          "name": "",
          "type": "address"
        }
      ],
      "stateMutability": "view",
      "type": "function"
    },
    {
      "inputs": [
        {
          "internalType": "uint256",
          "name": "roleId",
          "type": "uint256"
        },
        {
          "internalType": "address",
          "name": "newMember",
          "type": "address"
        }
      ],
      "name": "addMember",
      "outputs": [],
      "stateMutability": "nonpayable",
      "type": "function"
    },
    {
      "inputs": [
        {
          "internalType": "uint256",
          "name": "roleId",
          "type": "uint256"
        },
        {
          "internalType": "address",
          "name": "memberToRemove",
          "type": "address"
        }
      ],
      "name": "removeMember",
      "outputs": [],
      "stateMutability": "nonpayable",
      "type": "function"
    }
  ],
  "bytecode": "0x608060405234801561001057600080fd5b506108d3806100206000396000f3fe608060405234801561001057600080fd5b50600436106100675760003560e01c80637cdc1cb9116100505780637cdc1cb9146100e0578063ab3545e51461012d578063d97c05be1461017357610067565b80636be7658b1461006c57806374d0a676146100a7575b600080fd5b6100a56004803603604081101561008257600080fd5b508035906020013573ffffffffffffffffffffffffffffffffffffffff166101ac565b005b6100a5600480360360408110156100bd57600080fd5b508035906020013573ffffffffffffffffffffffffffffffffffffffff166102bc565b610119600480360360408110156100f657600080fd5b508035906020013573ffffffffffffffffffffffffffffffffffffffff166103c6565b604080519115158252519081900360200190f35b61014a6004803603602081101561014357600080fd5b50356104a4565b6040805173ffffffffffffffffffffffffffffffffffffffff9092168252519081900360200190f35b6100a56004803603604081101561018957600080fd5b508035906020013573ffffffffffffffffffffffffffffffffffffffff16610540565b81600260008281526020819052604090206001015460ff1660028111156101cf57fe5b14610225576040517f08c379a000000000000000000000000000000000000000000000000000000000815260040180806020018281038252602c81526020018061082b602c913960400191505060405180910390fd5b600083815260208190526040902054839061024090336103c6565b610295576040517f08c379a000000000000000000000000000000000000000000000000000000000815260040180806020018281038252602481526020018061087a6024913960400191505060405180910390fd5b60008481526020819052604090206102b6906003018463ffffffff61064a16565b50505050565b81600260008281526020819052604090206001015460ff1660028111156102df57fe5b14610335576040517f08c379a000000000000000000000000000000000000000000000000000000000815260040180806020018281038252602c81526020018061082b602c913960400191505060405180910390fd5b600083815260208190526040902054839061035090336103c6565b6103a5576040517f08c379a000000000000000000000000000000000000000000000000000000000815260040180806020018281038252602481526020018061087a6024913960400191505060405180910390fd5b60008481526020819052604090206102b6906003018463ffffffff61069716565b600082815260208190526040812060018082015460ff1660028111156103e857fe5b141561040957610401600282018463ffffffff6106e716565b91505061049e565b6002600182015460ff16600281111561041e57fe5b141561043757610401600382018463ffffffff61070716565b604080517f08c379a000000000000000000000000000000000000000000000000000000000815260206004820152600e60248201527f496e76616c696420726f6c654964000000000000000000000000000000000000604482015290519081900360640190fd5b92915050565b600081600160008281526020819052604090206001015460ff1660028111156104c957fe5b1461051f576040517f08c379a000000000000000000000000000000000000000000000000000000000815260040180806020018281038252602f8152602001806107fc602f913960400191505060405180910390fd5b600083815260208190526040902061053990600201610733565b9392505050565b81600160008281526020819052604090206001015460ff16600281111561056357fe5b146105b9576040517f08c379a000000000000000000000000000000000000000000000000000000000815260040180806020018281038252602f8152602001806107fc602f913960400191505060405180910390fd5b60008381526020819052604090205483906105d490336103c6565b610629576040517f08c379a000000000000000000000000000000000000000000000000000000000815260040180806020018281038252602481526020018061087a6024913960400191505060405180910390fd5b60008481526020819052604090206102b6906002018463ffffffff61074d16565b73ffffffffffffffffffffffffffffffffffffffff1660009081526020919091526040902080547fffffffffffffffffffffffffffffffffffffffffffffffffffffffffffffff00169055565b73ffffffffffffffffffffffffffffffffffffffff1660009081526020919091526040902080547fffffffffffffffffffffffffffffffffffffffffffffffffffffffffffffff00166001179055565b905473ffffffffffffffffffffffffffffffffffffffff91821691161490565b73ffffffffffffffffffffffffffffffffffffffff166000908152602091909152604090205460ff1690565b5473ffffffffffffffffffffffffffffffffffffffff1690565b73ffffffffffffffffffffffffffffffffffffffff81166107b9576040517f08c379a00000000000000000000000000000000000000000000000000000000081526004018080602001828103825260238152602001806108576023913960400191505060405180910390fd5b81547fffffffffffffffffffffffff00000000000000000000000000000000000000001673ffffffffffffffffffffffffffffffffffffffff9190911617905556fe4d7573742062652063616c6c6564206f6e20616e20696e697469616c697a6564204578636c757369766520726f6c654d7573742062652063616c6c6564206f6e20616e20696e697469616c697a65642053686172656420726f6c6543616e6e6f742073657420616e206578636c757369766520726f6c6520746f2030783043616e206f6e6c792062652063616c6c6564206279206120726f6c65206d616e61676572a2646970667358221220b29bbd2152fd69f2859c705cea320fd03da8eec99b03546745f088282e1a71c964736f6c63430006040033",
  "source": "pragma solidity ^0.6.0;\n\n\nlibrary Exclusive {\n    struct RoleMembership {\n        address member;\n    }\n\n    function isMember(RoleMembership storage roleMembership, address memberToCheck) internal view returns (bool) {\n        return roleMembership.member == memberToCheck;\n    }\n\n    function resetMember(RoleMembership storage roleMembership, address newMember) internal {\n        require(newMember != address(0x0), \"Cannot set an exclusive role to 0x0\");\n        roleMembership.member = newMember;\n    }\n\n    function getMember(RoleMembership storage roleMembership) internal view returns (address) {\n        return roleMembership.member;\n    }\n\n    function init(RoleMembership storage roleMembership, address initialMember) internal {\n        resetMember(roleMembership, initialMember);\n    }\n}\n\n\nlibrary Shared {\n    struct RoleMembership {\n        mapping(address => bool) members;\n    }\n\n    function isMember(RoleMembership storage roleMembership, address memberToCheck) internal view returns (bool) {\n        return roleMembership.members[memberToCheck];\n    }\n\n    function addMember(RoleMembership storage roleMembership, address memberToAdd) internal {\n        roleMembership.members[memberToAdd] = true;\n    }\n\n    function removeMember(RoleMembership storage roleMembership, address memberToRemove) internal {\n        roleMembership.members[memberToRemove] = false;\n    }\n\n    function init(RoleMembership storage roleMembership, address[] memory initialMembers) internal {\n        for (uint i = 0; i < initialMembers.length; i++) {\n            addMember(roleMembership, initialMembers[i]);\n        }\n    }\n}\n\n\n/**\n * @title Base class to manage permissions for the derived class.\n */\ncontract MultiRole {\n    using Exclusive for Exclusive.RoleMembership;\n    using Shared for Shared.RoleMembership;\n\n    enum RoleType { Invalid, Exclusive, Shared }\n\n    struct Role {\n        uint managingRole;\n        RoleType roleType;\n        Exclusive.RoleMembership exclusiveRoleMembership;\n        Shared.RoleMembership sharedRoleMembership;\n    }\n\n    mapping(uint => Role) private roles;\n\n    /**\n     * @notice Reverts unless the caller is a member of the specified roleId.\n     */\n    modifier onlyRoleHolder(uint roleId) {\n        require(holdsRole(roleId, msg.sender), \"Sender does not hold required role\");\n        _;\n    }\n\n    /**\n     * @notice Reverts unless the caller is a member of the manager role for the specified roleId.\n     */\n    modifier onlyRoleManager(uint roleId) {\n        require(holdsRole(roles[roleId].managingRole, msg.sender), \"Can only be called by a role manager\");\n        _;\n    }\n\n    /**\n     * @notice Reverts unless the roleId represents an initialized, exclusive roleId.\n     */\n    modifier onlyExclusive(uint roleId) {\n        require(roles[roleId].roleType == RoleType.Exclusive, \"Must be called on an initialized Exclusive role\");\n        _;\n    }\n\n    /**\n     * @notice Reverts unless the roleId represents an initialized, shared roleId.\n     */\n    modifier onlyShared(uint roleId) {\n        require(roles[roleId].roleType == RoleType.Shared, \"Must be called on an initialized Shared role\");\n        _;\n    }\n\n    /**\n     * @notice Whether `memberToCheck` is a member of roleId.\n     * @dev Reverts if roleId does not correspond to an initialized role.\n     */\n    function holdsRole(uint roleId, address memberToCheck) public view returns (bool) {\n        Role storage role = roles[roleId];\n        if (role.roleType == RoleType.Exclusive) {\n            return role.exclusiveRoleMembership.isMember(memberToCheck);\n        } else if (role.roleType == RoleType.Shared) {\n            return role.sharedRoleMembership.isMember(memberToCheck);\n        }\n        require(false, \"Invalid roleId\");\n    }\n\n    /**\n     * @notice Changes the exclusive role holder of `roleId` to `newMember`.\n     * @dev Reverts if the caller is not a member of the managing role for `roleId` or if `roleId` is not an\n     * initialized, exclusive role.\n     */\n    function resetMember(uint roleId, address newMember) public onlyExclusive(roleId) onlyRoleManager(roleId) {\n        roles[roleId].exclusiveRoleMembership.resetMember(newMember);\n    }\n\n    /**\n     * @notice Gets the current holder of the exclusive role, `roleId`.\n     * @dev Reverts if `roleId` does not represent an initialized, exclusive role.\n     */\n    function getMember(uint roleId) public view onlyExclusive(roleId) returns (address) {\n        return roles[roleId].exclusiveRoleMembership.getMember();\n    }\n\n    /**\n     * @notice Adds `newMember` to the shared role, `roleId`.\n     * @dev Reverts if `roleId` does not represent an initialized, shared role or if the caller is not a member of the\n     * managing role for `roleId`.\n     */\n    function addMember(uint roleId, address newMember) public onlyShared(roleId) onlyRoleManager(roleId) {\n        roles[roleId].sharedRoleMembership.addMember(newMember);\n    }\n\n    /**\n     * @notice Removes `memberToRemove` from the shared role, `roleId`.\n     * @dev Reverts if `roleId` does not represent an initialized, shared role or if the caller is not a member of the\n     * managing role for `roleId`.\n     */\n    function removeMember(uint roleId, address memberToRemove) public onlyShared(roleId) onlyRoleManager(roleId) {\n        roles[roleId].sharedRoleMembership.removeMember(memberToRemove);\n    }\n\n    /**\n     * @notice Reverts if `roleId` is not initialized.\n     */\n    modifier onlyValidRole(uint roleId) {\n        require(roles[roleId].roleType != RoleType.Invalid, \"Attempted to use an invalid roleId\");\n        _;\n    }\n\n    /**\n     * @notice Reverts if `roleId` is initialized.\n     */\n    modifier onlyInvalidRole(uint roleId) {\n        require(roles[roleId].roleType == RoleType.Invalid, \"Cannot use a pre-existing role\");\n        _;\n    }\n\n    /**\n     * @notice Internal method to initialize a shared role, `roleId`, which will be managed by `managingRoleId`.\n     * `initialMembers` will be immediately added to the role.\n     * @dev Should be called by derived contracts, usually at construction time. Will revert if the role is already\n     * initialized.\n     */\n    function _createSharedRole(uint roleId, uint managingRoleId, address[] memory initialMembers)\n        internal\n        onlyInvalidRole(roleId)\n    {\n        Role storage role = roles[roleId];\n        role.roleType = RoleType.Shared;\n        role.managingRole = managingRoleId;\n        role.sharedRoleMembership.init(initialMembers);\n        require(\n            roles[managingRoleId].roleType != RoleType.Invalid,\n            \"Attempted to use an invalid role to manage a shared role\"\n        );\n    }\n\n    /**\n     * @notice Internal method to initialize a exclusive role, `roleId`, which will be managed by `managingRoleId`.\n     * `initialMembers` will be immediately added to the role.\n     * @dev Should be called by derived contracts, usually at construction time. Will revert if the role is already\n     * initialized.\n     */\n    function _createExclusiveRole(uint roleId, uint managingRoleId, address initialMember)\n        internal\n        onlyInvalidRole(roleId)\n    {\n        Role storage role = roles[roleId];\n        role.roleType = RoleType.Exclusive;\n        role.managingRole = managingRoleId;\n        role.exclusiveRoleMembership.init(initialMember);\n        require(\n            roles[managingRoleId].roleType != RoleType.Invalid,\n            \"Attempted to use an invalid role to manage an exclusive role\"\n        );\n    }\n}\n",
  "sourcePath": "/home/alessandrovm/JarvisLavoro/SynFiat/packages/contracts/contracts/uma-contracts/common/implementation/MultiRole.sol",
  "compiler": {
    "name": "solc",
    "version": "0.6.4+commit.1dca32f3.Emscripten.clang"
  },
  "schemaVersion": "3.2.0",
  "updatedAt": "2020-08-14T09:32:05.478Z",
  "devdoc": {
    "methods": {
      "addMember(uint256,address)": {
        "details": "Reverts if `roleId` does not represent an initialized, shared role or if the caller is not a member of the managing role for `roleId`."
      },
      "getMember(uint256)": {
        "details": "Reverts if `roleId` does not represent an initialized, exclusive role."
      },
      "holdsRole(uint256,address)": {
        "details": "Reverts if roleId does not correspond to an initialized role."
      },
      "removeMember(uint256,address)": {
        "details": "Reverts if `roleId` does not represent an initialized, shared role or if the caller is not a member of the managing role for `roleId`."
      },
      "resetMember(uint256,address)": {
        "details": "Reverts if the caller is not a member of the managing role for `roleId` or if `roleId` is not an initialized, exclusive role."
      }
    },
    "title": "Base class to manage permissions for the derived class."
  },
  "userdoc": {
    "methods": {
      "addMember(uint256,address)": {
        "notice": "Adds `newMember` to the shared role, `roleId`."
      },
      "getMember(uint256)": {
        "notice": "Gets the current holder of the exclusive role, `roleId`."
      },
      "holdsRole(uint256,address)": {
        "notice": "Whether `memberToCheck` is a member of roleId."
      },
      "removeMember(uint256,address)": {
        "notice": "Removes `memberToRemove` from the shared role, `roleId`."
      },
      "resetMember(uint256,address)": {
        "notice": "Changes the exclusive role holder of `roleId` to `newMember`."
      }
    }
  }
}