{
  "contractName": "MultiRoleTest",
  "abi": [
    {
      "inputs": [
        {
          "internalType": "uint256",
          "name": "roleId",
          "type": "uint256"
        },
        {
          "internalType": "address",
          "name": "newMember",
          "type": "address"
        }
      ],
      "name": "addMember",
      "outputs": [],
      "stateMutability": "nonpayable",
      "type": "function"
    },
    {
      "inputs": [
        {
          "internalType": "uint256",
          "name": "roleId",
          "type": "uint256"
        }
      ],
      "name": "getMember",
      "outputs": [
        {
          "internalType": "address",
          "name": "",
          "type": "address"
        }
      ],
      "stateMutability": "view",
      "type": "function"
    },
    {
      "inputs": [
        {
          "internalType": "uint256",
          "name": "roleId",
          "type": "uint256"
        },
        {
          "internalType": "address",
          "name": "memberToCheck",
          "type": "address"
        }
      ],
      "name": "holdsRole",
      "outputs": [
        {
          "internalType": "bool",
          "name": "",
          "type": "bool"
        }
      ],
      "stateMutability": "view",
      "type": "function"
    },
    {
      "inputs": [
        {
          "internalType": "uint256",
          "name": "roleId",
          "type": "uint256"
        },
        {
          "internalType": "address",
          "name": "memberToRemove",
          "type": "address"
        }
      ],
      "name": "removeMember",
      "outputs": [],
      "stateMutability": "nonpayable",
      "type": "function"
    },
    {
      "inputs": [
        {
          "internalType": "uint256",
          "name": "roleId",
          "type": "uint256"
        },
        {
          "internalType": "address",
          "name": "newMember",
          "type": "address"
        }
      ],
      "name": "resetMember",
      "outputs": [],
      "stateMutability": "nonpayable",
      "type": "function"
    },
    {
      "inputs": [
        {
          "internalType": "uint256",
          "name": "roleId",
          "type": "uint256"
        },
        {
          "internalType": "uint256",
          "name": "managingRoleId",
          "type": "uint256"
        },
        {
          "internalType": "address[]",
          "name": "initialMembers",
          "type": "address[]"
        }
      ],
      "name": "createSharedRole",
      "outputs": [],
      "stateMutability": "nonpayable",
      "type": "function"
    },
    {
      "inputs": [
        {
          "internalType": "uint256",
          "name": "roleId",
          "type": "uint256"
        },
        {
          "internalType": "uint256",
          "name": "managingRoleId",
          "type": "uint256"
        },
        {
          "internalType": "address",
          "name": "initialMember",
          "type": "address"
        }
      ],
      "name": "createExclusiveRole",
      "outputs": [],
      "stateMutability": "nonpayable",
      "type": "function"
    },
    {
      "inputs": [
        {
          "internalType": "uint256",
          "name": "roleId",
          "type": "uint256"
        }
      ],
      "name": "revertIfNotHoldingRole",
      "outputs": [],
      "stateMutability": "view",
      "type": "function"
    }
  ],
  "bytecode": "0x608060405234801561001057600080fd5b50610b5f806100206000396000f3fe608060405234801561001057600080fd5b50600436106100885760003560e01c80637cdc1cb91161005b5780637cdc1cb914610180578063ab3545e5146101c0578063d97c05be146101f9578063e2ad8db91461022557610088565b806319fefdf01461008d57806352b34d491461010b5780636be7658b1461012857806374d0a67614610154575b600080fd5b610109600480360360608110156100a357600080fd5b8135916020810135918101906060810160408201356401000000008111156100ca57600080fd5b8201836020820111156100dc57600080fd5b803590602001918460208302840111640100000000831117156100fe57600080fd5b509092509050610257565b005b6101096004803603602081101561012157600080fd5b503561029b565b6101096004803603604081101561013e57600080fd5b50803590602001356001600160a01b03166102e5565b6101096004803603604081101561016a57600080fd5b50803590602001356001600160a01b03166103bb565b6101ac6004803603604081101561019657600080fd5b50803590602001356001600160a01b0316610491565b604080519115158252519081900360200190f35b6101dd600480360360208110156101d657600080fd5b5035610555565b604080516001600160a01b039092168252519081900360200190f35b6101096004803603604081101561020f57600080fd5b50803590602001356001600160a01b03166105d7565b6101096004803603606081101561023b57600080fd5b50803590602081013590604001356001600160a01b03166106ad565b61029584848484808060200260200160405190810160405280939291908181526020018383602002808284376000920191909152506106bd92505050565b50505050565b806102a68133610491565b6102e15760405162461bcd60e51b8152600401808060200182810382526022815260200180610a4d6022913960400191505060405180910390fd5b5050565b81600260008281526020819052604090206001015460ff16600281111561030857fe5b146103445760405162461bcd60e51b815260040180806020018281038252602c815260200180610a21602c913960400191505060405180910390fd5b600083815260208190526040902054839061035f9033610491565b61039a5760405162461bcd60e51b8152600401808060200182810382526024815260200180610ace6024913960400191505060405180910390fd5b6000848152602081905260409020610295906003018463ffffffff6107c216565b81600260008281526020819052604090206001015460ff1660028111156103de57fe5b1461041a5760405162461bcd60e51b815260040180806020018281038252602c815260200180610a21602c913960400191505060405180910390fd5b60008381526020819052604090205483906104359033610491565b6104705760405162461bcd60e51b8152600401808060200182810382526024815260200180610ace6024913960400191505060405180910390fd5b6000848152602081905260409020610295906003018463ffffffff6107e416565b600082815260208190526040812060018082015460ff1660028111156104b357fe5b14156104d4576104cc600282018463ffffffff61080916565b91505061054f565b6002600182015460ff1660028111156104e957fe5b1415610502576104cc600382018463ffffffff61081c16565b6040805162461bcd60e51b815260206004820152600e60248201527f496e76616c696420726f6c654964000000000000000000000000000000000000604482015290519081900360640190fd5b92915050565b600081600160008281526020819052604090206001015460ff16600281111561057a57fe5b146105b65760405162461bcd60e51b815260040180806020018281038252602f8152602001806109f2602f913960400191505060405180910390fd5b60008381526020819052604090206105d09060020161083b565b9392505050565b81600160008281526020819052604090206001015460ff1660028111156105fa57fe5b146106365760405162461bcd60e51b815260040180806020018281038252602f8152602001806109f2602f913960400191505060405180910390fd5b60008381526020819052604090205483906106519033610491565b61068c5760405162461bcd60e51b8152600401808060200182810382526024815260200180610ace6024913960400191505060405180910390fd5b6000848152602081905260409020610295906002018463ffffffff61084816565b6106b88383836108b7565b505050565b826000808281526020819052604090206001015460ff1660028111156106df57fe5b14610731576040805162461bcd60e51b815260206004820152601e60248201527f43616e6e6f74207573652061207072652d6578697374696e6720726f6c650000604482015290519081900360640190fd5b600084815260208190526040902060018101805460ff1916600217905583815561075e60038201846109b6565b60008481526020819052604081206001015460ff16600281111561077e57fe5b14156107bb5760405162461bcd60e51b8152600401808060200182810382526038815260200180610af26038913960400191505060405180910390fd5b5050505050565b6001600160a01b0316600090815260209190915260409020805460ff19169055565b6001600160a01b0316600090815260209190915260409020805460ff19166001179055565b90546001600160a01b0391821691161490565b6001600160a01b03166000908152602091909152604090205460ff1690565b546001600160a01b031690565b6001600160a01b03811661088d5760405162461bcd60e51b8152600401808060200182810382526023815260200180610aab6023913960400191505060405180910390fd5b815473ffffffffffffffffffffffffffffffffffffffff19166001600160a01b0391909116179055565b826000808281526020819052604090206001015460ff1660028111156108d957fe5b1461092b576040805162461bcd60e51b815260206004820152601e60248201527f43616e6e6f74207573652061207072652d6578697374696e6720726f6c650000604482015290519081900360640190fd5b60008481526020819052604090206001808201805460ff1916909117905583815561095960028201846109e7565b60008481526020819052604081206001015460ff16600281111561097957fe5b14156107bb5760405162461bcd60e51b815260040180806020018281038252603c815260200180610a6f603c913960400191505060405180910390fd5b60005b81518110156106b8576109df838383815181106109d257fe5b60200260200101516107e4565b6001016109b9565b6102e1828261084856fe4d7573742062652063616c6c6564206f6e20616e20696e697469616c697a6564204578636c757369766520726f6c654d7573742062652063616c6c6564206f6e20616e20696e697469616c697a65642053686172656420726f6c6553656e64657220646f6573206e6f7420686f6c6420726571756972656420726f6c65417474656d7074656420746f2075736520616e20696e76616c696420726f6c6520746f206d616e61676520616e206578636c757369766520726f6c6543616e6e6f742073657420616e206578636c757369766520726f6c6520746f2030783043616e206f6e6c792062652063616c6c6564206279206120726f6c65206d616e61676572417474656d7074656420746f2075736520616e20696e76616c696420726f6c6520746f206d616e61676520612073686172656420726f6c65a2646970667358221220563838d807bdaf0e747b76e964a38d0a385cebfc328a5a54cd918016e148e99764736f6c63430006040033",
  "source": "/*\n  MultiRoleTest contract.\n*/\n\npragma solidity ^0.6.0;\n\nimport \"../implementation/MultiRole.sol\";\n\n\n// The purpose of this contract is to make the MultiRole creation methods externally callable for testing purposes.\ncontract MultiRoleTest is MultiRole {\n    function createSharedRole(uint roleId, uint managingRoleId, address[] calldata initialMembers) external {\n        _createSharedRole(roleId, managingRoleId, initialMembers);\n    }\n\n    function createExclusiveRole(uint roleId, uint managingRoleId, address initialMember) external {\n        _createExclusiveRole(roleId, managingRoleId, initialMember);\n    }\n\n    // solhint-disable-next-line no-empty-blocks\n    function revertIfNotHoldingRole(uint roleId) external view onlyRoleHolder(roleId) {}\n}\n",
  "sourcePath": "/home/opz/Projects/SynFiat/contracts/uma-contracts/common/test/MultiRoleTest.sol",
  "compiler": {
    "name": "solc",
    "version": "0.6.4+commit.1dca32f3.Emscripten.clang"
  },
  "schemaVersion": "3.2.0",
  "updatedAt": "2020-06-01T04:24:41.786Z",
  "devdoc": {
    "methods": {
      "addMember(uint256,address)": {
        "details": "Reverts if `roleId` does not represent an initialized, shared role or if the caller is not a member of the managing role for `roleId`."
      },
      "getMember(uint256)": {
        "details": "Reverts if `roleId` does not represent an initialized, exclusive role."
      },
      "holdsRole(uint256,address)": {
        "details": "Reverts if roleId does not correspond to an initialized role."
      },
      "removeMember(uint256,address)": {
        "details": "Reverts if `roleId` does not represent an initialized, shared role or if the caller is not a member of the managing role for `roleId`."
      },
      "resetMember(uint256,address)": {
        "details": "Reverts if the caller is not a member of the managing role for `roleId` or if `roleId` is not an initialized, exclusive role."
      }
    }
  },
  "userdoc": {
    "methods": {
      "addMember(uint256,address)": {
        "notice": "Adds `newMember` to the shared role, `roleId`."
      },
      "getMember(uint256)": {
        "notice": "Gets the current holder of the exclusive role, `roleId`."
      },
      "holdsRole(uint256,address)": {
        "notice": "Whether `memberToCheck` is a member of roleId."
      },
      "removeMember(uint256,address)": {
        "notice": "Removes `memberToRemove` from the shared role, `roleId`."
      },
      "resetMember(uint256,address)": {
        "notice": "Changes the exclusive role holder of `roleId` to `newMember`."
      }
    }
  }
}