{
  "contractName": "OneSplitMock",
  "abi": [
    {
      "stateMutability": "payable",
      "type": "receive"
    },
    {
      "inputs": [
        {
          "internalType": "address",
          "name": "from",
          "type": "address"
        },
        {
          "internalType": "address",
          "name": "to",
          "type": "address"
        },
        {
          "internalType": "uint256",
          "name": "price",
          "type": "uint256"
        }
      ],
      "name": "setPrice",
      "outputs": [],
      "stateMutability": "nonpayable",
      "type": "function"
    },
    {
      "inputs": [
        {
          "internalType": "address",
          "name": "fromToken",
          "type": "address"
        },
        {
          "internalType": "address",
          "name": "destToken",
          "type": "address"
        },
        {
          "internalType": "uint256",
          "name": "amount",
          "type": "uint256"
        },
        {
          "internalType": "uint256",
          "name": "parts",
          "type": "uint256"
        },
        {
          "internalType": "uint256",
          "name": "flags",
          "type": "uint256"
        }
      ],
      "name": "getExpectedReturn",
      "outputs": [
        {
          "internalType": "uint256",
          "name": "returnAmount",
          "type": "uint256"
        },
        {
          "internalType": "uint256[]",
          "name": "distribution",
          "type": "uint256[]"
        }
      ],
      "stateMutability": "view",
      "type": "function"
    },
    {
      "inputs": [
        {
          "internalType": "address",
          "name": "fromToken",
          "type": "address"
        },
        {
          "internalType": "address",
          "name": "destToken",
          "type": "address"
        },
        {
          "internalType": "uint256",
          "name": "amount",
          "type": "uint256"
        },
        {
          "internalType": "uint256",
          "name": "minReturn",
          "type": "uint256"
        },
        {
          "internalType": "uint256[]",
          "name": "distribution",
          "type": "uint256[]"
        },
        {
          "internalType": "uint256",
          "name": "flags",
          "type": "uint256"
        }
      ],
      "name": "swap",
      "outputs": [
        {
          "internalType": "uint256",
          "name": "returnAmount",
          "type": "uint256"
        }
      ],
      "stateMutability": "payable",
      "type": "function"
    }
  ],
  "bytecode": "0x608060405234801561001057600080fd5b50610592806100206000396000f3fe6080604052600436106100385760003560e01c8063085e2c5b14610044578063792eb791146100fb578063e2a7515e1461014d5761003f565b3661003f57005b600080fd5b34801561005057600080fd5b506100a0600480360360a081101561006757600080fd5b5073ffffffffffffffffffffffffffffffffffffffff813581169160208101359091169060408101359060608101359060800135610236565b6040518083815260200180602001828103825283818151815260200191508051906020019060200280838360005b838110156100e65781810151838201526020016100ce565b50505050905001935050505060405180910390f35b34801561010757600080fd5b5061014b6004803603606081101561011e57600080fd5b5073ffffffffffffffffffffffffffffffffffffffff81358116916020810135909116906040013561029e565b005b610224600480360360c081101561016357600080fd5b73ffffffffffffffffffffffffffffffffffffffff823581169260208101359091169160408201359160608101359181019060a0810160808201356401000000008111156101b057600080fd5b8201836020820111156101c257600080fd5b803590602001918460208302840111640100000000831117156101e457600080fd5b9190808060200260200160405190810160405280939291908181526020018383602002808284376000920191909152509295505091359250610308915050565b60408051918252519081900360200190f35b5050604080517fffffffffffffffffffffffffffffffffffffffff000000000000000000000000606095861b811660208084019190915294861b1660348201528151602881830301815260489091018252805190840120600090815292839052909120540291565b604080517fffffffffffffffffffffffffffffffffffffffff000000000000000000000000606095861b81166020808401919091529490951b9094166034850152805160288186030181526048909401815283519383019390932060009081529182905291902055565b60408051606088811b7fffffffffffffffffffffffffffffffffffffffff0000000000000000000000009081166020808501919091529189901b1660348301528251808303602801815260489092018352815191810191909120600090815290819052908120548502848110156103e057604080517f08c379a000000000000000000000000000000000000000000000000000000000815260206004820152601660248201527f4d696e20416d6f756e74206e6f74207265616368656400000000000000000000604482015290519081900360640190fd5b73ffffffffffffffffffffffffffffffffffffffff871673eeeeeeeeeeeeeeeeeeeeeeeeeeeeeeeeeeeeeeee141561044557604051339082156108fc029083906000818181858888f1935050505015801561043f573d6000803e3d6000fd5b50610551565b604080517fa9059cbb00000000000000000000000000000000000000000000000000000000815233600482015260248101839052905173ffffffffffffffffffffffffffffffffffffffff89169163a9059cbb9160448083019260209291908290030181600087803b1580156104ba57600080fd5b505af11580156104ce573d6000803e3d6000fd5b505050506040513d60208110156104e457600080fd5b505161055157604080517f08c379a000000000000000000000000000000000000000000000000000000000815260206004820152601160248201527f65726332302d73656e642d6661696c6564000000000000000000000000000000604482015290519081900360640190fd5b50969550505050505056fea2646970667358221220e9a505581c94b6f461065847da3f79600bc5719389a50e8d2721630a6538310864736f6c634300060a0033",
  "immutableReferences": {},
  "source": "pragma solidity ^0.6.0;\n\nimport \"../interfaces/OneSplit.sol\";\n\nimport \"@openzeppelin/contracts/token/ERC20/IERC20.sol\";\n\n\n/**\n * @title OneSplit Mock that allows manual price injection.\n */\ncontract OneSplitMock is OneSplit {\n    address constant ETH_ADDRESS = 0xEeeeeEeeeEeEeeEeEeEeeEEEeeeeEeeeeeeeEEeE;\n\n    mapping(bytes32 => uint256) prices;\n\n    receive() external payable {}\n\n    // Sets price of 1 FROM = <PRICE> TO\n    function setPrice(\n        address from,\n        address to,\n        uint256 price\n    ) external {\n        prices[keccak256(abi.encodePacked(from, to))] = price;\n    }\n\n    function getExpectedReturn(\n        address fromToken,\n        address destToken,\n        uint256 amount,\n        uint256 parts,\n        uint256 flags // See constants in IOneSplit.sol\n    ) public override view returns (uint256 returnAmount, uint256[] memory distribution) {\n        returnAmount = prices[keccak256(abi.encodePacked(fromToken, destToken))] * amount;\n\n        return (returnAmount, distribution);\n    }\n\n    function swap(\n        address fromToken,\n        address destToken,\n        uint256 amount,\n        uint256 minReturn,\n        uint256[] memory distribution,\n        uint256 flags\n    ) public override payable returns (uint256 returnAmount) {\n        uint256 amountReturn = prices[keccak256(abi.encodePacked(fromToken, destToken))] * amount;\n\n        require(amountReturn >= minReturn, \"Min Amount not reached\");\n\n        if (destToken == ETH_ADDRESS) {\n            msg.sender.transfer(amountReturn);\n        } else {\n            require(IERC20(destToken).transfer(msg.sender, amountReturn), \"erc20-send-failed\");\n        }\n    }\n}\n",
  "sourcePath": "/home/alessandrovm/JarvisLavoro/SynFiat/packages/contracts/contracts/uma-contracts/common/test/OneSplitMock.sol",
  "compiler": {
    "name": "solc",
    "version": "0.6.10+commit.00c0fcaf.Emscripten.clang"
  },
  "schemaVersion": "3.2.5",
  "updatedAt": "2020-10-22T14:01:04.242Z",
  "devdoc": {
    "methods": {},
    "title": "OneSplit Mock that allows manual price injection."
  },
  "userdoc": {
    "methods": {}
  }
}