{
  "contractName": "OracleInterfaces",
  "abi": [
    {
      "inputs": [],
      "name": "CollateralWhitelist",
      "outputs": [
        {
          "internalType": "bytes32",
          "name": "",
          "type": "bytes32"
        }
      ],
      "stateMutability": "view",
      "type": "function"
    },
    {
      "inputs": [],
      "name": "FinancialContractsAdmin",
      "outputs": [
        {
          "internalType": "bytes32",
          "name": "",
          "type": "bytes32"
        }
      ],
      "stateMutability": "view",
      "type": "function"
    },
    {
      "inputs": [],
      "name": "IdentifierWhitelist",
      "outputs": [
        {
          "internalType": "bytes32",
          "name": "",
          "type": "bytes32"
        }
      ],
      "stateMutability": "view",
      "type": "function"
    },
    {
      "inputs": [],
      "name": "Oracle",
      "outputs": [
        {
          "internalType": "bytes32",
          "name": "",
          "type": "bytes32"
        }
      ],
      "stateMutability": "view",
      "type": "function"
    },
    {
      "inputs": [],
      "name": "Registry",
      "outputs": [
        {
          "internalType": "bytes32",
          "name": "",
          "type": "bytes32"
        }
      ],
      "stateMutability": "view",
      "type": "function"
    },
    {
      "inputs": [],
      "name": "Store",
      "outputs": [
        {
          "internalType": "bytes32",
          "name": "",
          "type": "bytes32"
        }
      ],
      "stateMutability": "view",
      "type": "function"
    }
  ],
  "bytecode": "0x6101d1610026600b82828239805160001a60731461001957fe5b30600052607381538281f3fe730000000000000000000000000000000000000000301460806040526004361061007c5760003560e01c8063598dd0971161005a578063598dd097146100ab5780637db9743b146100b3578063f24a534e146100bb5761007c565b80632a71e5b31461008157806342e90c331461009b5780634f4a180b146100a3575b600080fd5b6100896100c3565b60408051918252519081900360200190f35b6100896100e7565b61008961010b565b61008961012f565b610089610153565b610089610177565b7f46696e616e6369616c436f6e74726163747341646d696e00000000000000000081565b7f53746f726500000000000000000000000000000000000000000000000000000081565b7f4964656e74696669657257686974656c6973740000000000000000000000000081565b7f436f6c6c61746572616c57686974656c6973740000000000000000000000000081565b7f526567697374727900000000000000000000000000000000000000000000000081565b7f4f7261636c6500000000000000000000000000000000000000000000000000008156fea2646970667358221220726f6239f60ad8de14b4e16993dae44f5e3ed3ea41c00c4aa52660ca9440ddc764736f6c63430006040033",
  "source": "pragma solidity ^0.6.0;\n\n\n/**\n * @title Stores common interface names used throughout the DVM by registration in the Finder.\n */\nlibrary OracleInterfaces {\n    bytes32 public constant Oracle = \"Oracle\";\n    bytes32 public constant IdentifierWhitelist = \"IdentifierWhitelist\";\n    bytes32 public constant Store = \"Store\";\n    bytes32 public constant FinancialContractsAdmin = \"FinancialContractsAdmin\";\n    bytes32 public constant Registry = \"Registry\";\n    bytes32 public constant CollateralWhitelist = \"CollateralWhitelist\";\n}\n",
  "sourcePath": "/home/alessandrovm/JarvisLavoro/SynFiat/packages/contracts/contracts/uma-contracts/oracle/implementation/Constants.sol",
  "compiler": {
    "name": "solc",
    "version": "0.6.4+commit.1dca32f3.Emscripten.clang"
  },
  "schemaVersion": "3.2.5",
  "updatedAt": "2020-09-18T09:03:22.817Z",
  "devdoc": {
    "methods": {},
    "title": "Stores common interface names used throughout the DVM by registration in the Finder."
  },
  "userdoc": {
    "methods": {}
  }
}