{
  "contractName": "PerpetualCreator",
  "abi": [
    {
      "inputs": [
        {
          "internalType": "address",
          "name": "_finderAddress",
          "type": "address"
        },
        {
          "internalType": "address",
          "name": "_tokenFactoryAddress",
          "type": "address"
        },
        {
          "internalType": "address",
          "name": "_timerAddress",
          "type": "address"
        }
      ],
      "stateMutability": "nonpayable",
      "type": "constructor"
    },
    {
      "anonymous": false,
      "inputs": [
        {
          "indexed": true,
          "internalType": "address",
          "name": "perpetualAddress",
          "type": "address"
        },
        {
          "indexed": true,
          "internalType": "address",
          "name": "deployerAddress",
          "type": "address"
        }
      ],
      "name": "CreatedPerpetual",
      "type": "event"
    },
    {
      "inputs": [],
      "name": "getCurrentTime",
      "outputs": [
        {
          "internalType": "uint256",
          "name": "",
          "type": "uint256"
        }
      ],
      "stateMutability": "view",
      "type": "function"
    },
    {
      "inputs": [
        {
          "internalType": "uint256",
          "name": "time",
          "type": "uint256"
        }
      ],
      "name": "setCurrentTime",
      "outputs": [],
      "stateMutability": "nonpayable",
      "type": "function"
    },
    {
      "inputs": [],
      "name": "timerAddress",
      "outputs": [
        {
          "internalType": "address",
          "name": "",
          "type": "address"
        }
      ],
      "stateMutability": "view",
      "type": "function"
    },
    {
      "inputs": [],
      "name": "tokenFactoryAddress",
      "outputs": [
        {
          "internalType": "address",
          "name": "",
          "type": "address"
        }
      ],
      "stateMutability": "view",
      "type": "function"
    },
    {
      "inputs": [
        {
          "components": [
            {
              "internalType": "address",
              "name": "collateralAddress",
              "type": "address"
            },
            {
              "internalType": "bytes32",
              "name": "priceFeedIdentifier",
              "type": "bytes32"
            },
            {
              "internalType": "bytes32",
              "name": "fundingRateIdentifier",
              "type": "bytes32"
            },
            {
              "internalType": "string",
              "name": "syntheticName",
              "type": "string"
            },
            {
              "internalType": "string",
              "name": "syntheticSymbol",
              "type": "string"
            },
            {
              "components": [
                {
                  "internalType": "uint256",
                  "name": "rawValue",
                  "type": "uint256"
                }
              ],
              "internalType": "struct FixedPoint.Unsigned",
              "name": "collateralRequirement",
              "type": "tuple"
            },
            {
              "components": [
                {
                  "internalType": "uint256",
                  "name": "rawValue",
                  "type": "uint256"
                }
              ],
              "internalType": "struct FixedPoint.Unsigned",
              "name": "disputeBondPct",
              "type": "tuple"
            },
            {
              "components": [
                {
                  "internalType": "uint256",
                  "name": "rawValue",
                  "type": "uint256"
                }
              ],
              "internalType": "struct FixedPoint.Unsigned",
              "name": "sponsorDisputeRewardPct",
              "type": "tuple"
            },
            {
              "components": [
                {
                  "internalType": "uint256",
                  "name": "rawValue",
                  "type": "uint256"
                }
              ],
              "internalType": "struct FixedPoint.Unsigned",
              "name": "disputerDisputeRewardPct",
              "type": "tuple"
            },
            {
              "components": [
                {
                  "internalType": "uint256",
                  "name": "rawValue",
                  "type": "uint256"
                }
              ],
              "internalType": "struct FixedPoint.Unsigned",
              "name": "minSponsorTokens",
              "type": "tuple"
            },
            {
              "internalType": "uint256",
              "name": "withdrawalLiveness",
              "type": "uint256"
            },
            {
              "internalType": "uint256",
              "name": "liquidationLiveness",
              "type": "uint256"
            },
            {
              "internalType": "address",
              "name": "excessTokenBeneficiary",
              "type": "address"
            }
          ],
          "internalType": "struct PerpetualCreator.Params",
          "name": "params",
          "type": "tuple"
        }
      ],
      "name": "createPerpetual",
      "outputs": [
        {
          "internalType": "address",
          "name": "",
          "type": "address"
        }
      ],
      "stateMutability": "nonpayable",
      "type": "function"
    }
  ],
  "bytecode": "0x60806040523480156200001157600080fd5b506040516200141d3803806200141d833981016040819052620000349162000121565b600080546001600160a01b038086166001600160a01b0319928316179092556001805460ff60a01b1993851692169190911791909116600160a01b179055620000856001600160e01b03620000c616565b620000986001600160e01b03620000fd16565b600280546001600160a01b0319166001600160a01b038416179055620000bd6200010c565b505050620001c4565b600154600160a01b900460ff16620000fb5760405162461bcd60e51b8152600401620000f29062000174565b60405180910390fd5b565b6001805460ff60a01b19169055565b6001805460ff60a01b1916600160a01b179055565b60008060006060848603121562000136578283fd5b83516200014381620001ab565b60208501519093506200015681620001ab565b60408501519092506200016981620001ab565b809150509250925092565b6020808252601f908201527f5265656e7472616e637947756172643a207265656e7472616e742063616c6c00604082015260600190565b6001600160a01b0381168114620001c157600080fd5b50565b61124980620001d46000396000f3fe608060405234801561001057600080fd5b50600436106100675760003560e01c806322f8e5661161005057806322f8e5661461009d57806329cb924d146100b2578063be19f0a7146100c757610067565b80630a40b21c1461006c5780631c39c38d14610095575b600080fd5b61007f61007a366004610bd7565b6100cf565b60405161008c9190610dd6565b60405180910390f35b61007f6101e0565b6100b06100ab366004610d1e565b6101fc565b005b6100ba6102a9565b60405161008c9190610e6e565b61007f610377565b60006100d9610393565b6100e16103f2565b600073__PerpetualLib__________________________634048d03b6101068561041c565b6040518263ffffffff1660e01b81526004016101229190611064565b60206040518083038186803b15801561013a57600080fd5b505af415801561014e573d6000803e3d6000fd5b505050506040513d601f19601f820116820180604052508101906101729190610b94565b60408051600081526020810190915290915061018e90826106e0565b604051339073ffffffffffffffffffffffffffffffffffffffff8316907f0973ec8400460054364cff2a05dda9a23216bde72cfcad508b1d5251f780d6dd90600090a390506101db610839565b919050565b60015473ffffffffffffffffffffffffffffffffffffffff1681565b60015473ffffffffffffffffffffffffffffffffffffffff1661021e57600080fd5b6001546040517f22f8e56600000000000000000000000000000000000000000000000000000000815273ffffffffffffffffffffffffffffffffffffffff909116906322f8e56690610274908490600401610e6e565b600060405180830381600087803b15801561028e57600080fd5b505af11580156102a2573d6000803e3d6000fd5b5050505050565b60015460009073ffffffffffffffffffffffffffffffffffffffff161561037157600160009054906101000a900473ffffffffffffffffffffffffffffffffffffffff1673ffffffffffffffffffffffffffffffffffffffff166329cb924d6040518163ffffffff1660e01b815260040160206040518083038186803b15801561033257600080fd5b505afa158015610346573d6000803e3d6000fd5b505050506040513d601f19601f8201168201806040525081019061036a9190610d36565b9050610374565b50425b90565b60025473ffffffffffffffffffffffffffffffffffffffff1681565b60015474010000000000000000000000000000000000000000900460ff166103f0576040517f08c379a00000000000000000000000000000000000000000000000000000000081526004016103e790610ff6565b60405180910390fd5b565b600180547fffffffffffffffffffffff00ffffffffffffffffffffffffffffffffffffffff169055565b610424610a24565b60005473ffffffffffffffffffffffffffffffffffffffff90811660408301526002548116606080840191909152600154909116608083015282015151610497576040517f08c379a00000000000000000000000000000000000000000000000000000000081526004016103e790610f88565b6080820151516104d3576040517f08c379a00000000000000000000000000000000000000000000000000000000081526004016103e790610ee5565b61014082015161050f576040517f08c379a00000000000000000000000000000000000000000000000000000000081526004016103e790610f51565b61016082015161054b576040517f08c379a00000000000000000000000000000000000000000000000000000000081526004016103e790610f1c565b61018082015173ffffffffffffffffffffffffffffffffffffffff1661059d576040517f08c379a00000000000000000000000000000000000000000000000000000000081526004016103e79061102d565b81516105a89061087a565b63bb744800826101400151106105ea576040517f08c379a00000000000000000000000000000000000000000000000000000000081526004016103e790610fbf565b63bb7448008261016001511061062c576040517f08c379a00000000000000000000000000000000000000000000000000000000081526004016103e790610eae565b815173ffffffffffffffffffffffffffffffffffffffff90811660208084019190915283015160c080840191909152604084015160e08085019190915260608501516101008086019190915260808601516101208087019190915260a08088015161018080890191909152948801516101a0880152928701516101c0870152908601516101e08601528501516101408086019190915285015184526101608086015190850152930151169181019190915290565b600080546040517faafd5e4000000000000000000000000000000000000000000000000000000000815273ffffffffffffffffffffffffffffffffffffffff9091169190829063aafd5e409061075a907f526567697374727900000000000000000000000000000000000000000000000090600401610e6e565b60206040518083038186803b15801561077257600080fd5b505afa158015610786573d6000803e3d6000fd5b505050506040513d601f19601f820116820180604052508101906107aa9190610b94565b6040517f66c8c25000000000000000000000000000000000000000000000000000000000815290915073ffffffffffffffffffffffffffffffffffffffff8216906366c8c250906108019087908790600401610df7565b600060405180830381600087803b15801561081b57600080fd5b505af115801561082f573d6000803e3d6000fd5b5050505050505050565b600180547fffffffffffffffffffffff00ffffffffffffffffffffffffffffffffffffffff1674010000000000000000000000000000000000000000179055565b600080546040517faafd5e4000000000000000000000000000000000000000000000000000000000815273ffffffffffffffffffffffffffffffffffffffff9091169190829063aafd5e40906108f4907f436f6c6c61746572616c57686974656c6973740000000000000000000000000090600401610e6e565b60206040518083038186803b15801561090c57600080fd5b505afa158015610920573d6000803e3d6000fd5b505050506040513d601f19601f820116820180604052508101906109449190610b94565b6040517f3a3ab67200000000000000000000000000000000000000000000000000000000815290915073ffffffffffffffffffffffffffffffffffffffff821690633a3ab67290610999908690600401610dd6565b60206040518083038186803b1580156109b157600080fd5b505afa1580156109c5573d6000803e3d6000fd5b505050506040513d601f19601f820116820180604052508101906109e99190610bb7565b610a1f576040517f08c379a00000000000000000000000000000000000000000000000000000000081526004016103e790610e77565b505050565b604080516102008101825260008082526020820181905291810182905260608082018390526080820183905260a0820183905260c0820183905260e082019290925261010081018290526101208101919091526101408101610a84610ac4565b815260200160008152602001610a98610ac4565b8152602001610aa5610ac4565b8152602001610ab2610ac4565b8152602001610abf610ac4565b905290565b6040518060200160405280600081525090565b8035610ae2816111ee565b92915050565b600082601f830112610af8578081fd5b813567ffffffffffffffff811115610b0e578182fd5b610b3f60207fffffffffffffffffffffffffffffffffffffffffffffffffffffffffffffffe0601f840116016111c7565b9150808252836020828501011115610b5657600080fd5b8060208401602084013760009082016020015292915050565b600060208284031215610b80578081fd5b610b8a60206111c7565b9135825250919050565b600060208284031215610ba5578081fd5b8151610bb0816111ee565b9392505050565b600060208284031215610bc8578081fd5b81518015158114610bb0578182fd5b600060208284031215610be8578081fd5b813567ffffffffffffffff80821115610bff578283fd5b6101a0918401808603831315610c13578384fd5b610c1c836111c7565b610c268783610ad7565b815260208201356020820152604082013560408201526060820135935082841115610c4f578485fd5b610c5b87858401610ae8565b60608201526080820135935082841115610c73578485fd5b610c7f87858401610ae8565b6080820152610c918760a08401610b6f565b60a0820152610ca38760c08401610b6f565b60c0820152610cb58760e08401610b6f565b60e08201526101009350610ccb87858401610b6f565b848201526101209350610ce087858401610b6f565b938101939093526101408181013590840152610160808201359084015261018092610d0d87858401610ad7565b848201528094505050505092915050565b600060208284031215610d2f578081fd5b5035919050565b600060208284031215610d47578081fd5b5051919050565b73ffffffffffffffffffffffffffffffffffffffff169052565b60008151808452815b81811015610d8d57602081850181015186830182015201610d71565b81811115610d9e5782602083870101525b50601f017fffffffffffffffffffffffffffffffffffffffffffffffffffffffffffffffe0169290920160200192915050565b519052565b73ffffffffffffffffffffffffffffffffffffffff91909116815260200190565b604080825283519082018190526000906020906060840190828701845b82811015610e4657815173ffffffffffffffffffffffffffffffffffffffff1684529284019290840190600101610e14565b50505073ffffffffffffffffffffffffffffffffffffffff9490941692019190915250919050565b90815260200190565b6020808252601a908201527f436f6c6c61746572616c206e6f742077686974656c6973746564000000000000604082015260600190565b6020808252601e908201527f4c69717569646174696f6e206c6976656e65737320746f6f206c617267650000604082015260600190565b60208082526018908201527f4d697373696e672073796e7468657469632073796d626f6c0000000000000000604082015260600190565b6020808252818101527f4c69717569646174696f6e206c6976656e6573732063616e6e6f742062652030604082015260600190565b6020808252601f908201527f5769746864726177616c206c6976656e6573732063616e6e6f74206265203000604082015260600190565b60208082526016908201527f4d697373696e672073796e746865746963206e616d6500000000000000000000604082015260600190565b6020808252601d908201527f5769746864726177616c206c6976656e65737320746f6f206c61726765000000604082015260600190565b6020808252601f908201527f5265656e7472616e637947756172643a207265656e7472616e742063616c6c00604082015260600190565b6020808252601f908201527f546f6b656e2042656e65666963696172792063616e6e6f742062652030783000604082015260600190565b6000602082528251602083015260208301516110836040840182610d4e565b5060408301516110966060840182610d4e565b5060608301516110a96080840182610d4e565b5060808301516110bc60a0840182610d4e565b5060a08301516110cf60c0840182610d4e565b5060c083015160e083015260e08301516101008181850152808501519150506102006101208181860152611107610220860184610d68565b81870151935061014091507fffffffffffffffffffffffffffffffffffffffffffffffffffffffffffffffe086820301828701526111458185610d68565b9187015193506101609161115b87840186610dd1565b918701516101808781019190915287015193506101a09161117e83880186610dd1565b9187015193506101c09161119487840186610dd1565b9187015193506101e0916111aa87840186610dd1565b8288015194506111bc84880186610dd1565b979650505050505050565b60405181810167ffffffffffffffff811182821017156111e657600080fd5b604052919050565b73ffffffffffffffffffffffffffffffffffffffff8116811461121057600080fd5b5056fea26469706673582212208c485d7681ac116e5352efab6b0754bcbce43c925bc8655de569611bde071a9964736f6c634300060a0033",
  "immutableReferences": {},
  "source": "pragma solidity ^0.6.0;\npragma experimental ABIEncoderV2;\n\nimport \"../../oracle/implementation/ContractCreator.sol\";\nimport \"../../common/implementation/Testable.sol\";\nimport \"../../common/implementation/AddressWhitelist.sol\";\nimport \"../../common/implementation/Lockable.sol\";\nimport \"./PerpetualLib.sol\";\n\n\n/**\n * @title Perpetual Contract creator.\n * @notice Factory contract to create and register new instances of perpetual contracts.\n * Responsible for constraining the parameters used to construct a new perpetual. This creator contains a number of constraints\n * that are applied to newly created  contract. These constraints can evolve over time and are\n * initially constrained to conservative values in this first iteration. Technically there is nothing in the\n * Perpetual contract requiring these constraints. However, because `createPerpetual()` is intended\n * to be the only way to create valid financial contracts that are registered with the DVM (via _registerContract),\n  we can enforce deployment configurations here.\n */\ncontract PerpetualCreator is ContractCreator, Testable, Lockable {\n    using FixedPoint for FixedPoint.Unsigned;\n\n    /****************************************\n     *     PERP CREATOR DATA STRUCTURES      *\n     ****************************************/\n\n    struct Params {\n        address collateralAddress;\n        bytes32 priceFeedIdentifier;\n        bytes32 fundingRateIdentifier;\n        string syntheticName;\n        string syntheticSymbol;\n        FixedPoint.Unsigned collateralRequirement;\n        FixedPoint.Unsigned disputeBondPct;\n        FixedPoint.Unsigned sponsorDisputeRewardPct;\n        FixedPoint.Unsigned disputerDisputeRewardPct;\n        FixedPoint.Unsigned minSponsorTokens;\n        uint256 withdrawalLiveness;\n        uint256 liquidationLiveness;\n        address excessTokenBeneficiary;\n    }\n    // - Address of TokenFactory to pass into newly constructed Perpetual contracts\n    address public tokenFactoryAddress;\n\n    event CreatedPerpetual(address indexed perpetualAddress, address indexed deployerAddress);\n\n    /**\n     * @notice Constructs the Perpetual contract.\n     * @param _finderAddress UMA protocol Finder used to discover other protocol contracts.\n     * @param _tokenFactoryAddress ERC20 token factory used to deploy synthetic token instances.\n     * @param _timerAddress Contract that stores the current time in a testing environment.\n     */\n    constructor(\n        address _finderAddress,\n        address _tokenFactoryAddress,\n        address _timerAddress\n    ) public ContractCreator(_finderAddress) Testable(_timerAddress) nonReentrant() {\n        tokenFactoryAddress = _tokenFactoryAddress;\n    }\n\n    /**\n     * @notice Creates an instance of perpetual and registers it within the registry.\n     * @param params is a `ConstructorParams` object from Perpetual.\n     * @return address of the deployed contract.\n     */\n    function createPerpetual(Params memory params) public nonReentrant() returns (address) {\n        address derivative = PerpetualLib.deploy(_convertParams(params));\n\n        _registerContract(new address[](0), address(derivative));\n\n        emit CreatedPerpetual(address(derivative), msg.sender);\n\n        return address(derivative);\n    }\n\n    /****************************************\n     *          PRIVATE FUNCTIONS           *\n     ****************************************/\n\n    // Converts createPerpetual params to Perpetual constructor params.\n    function _convertParams(Params memory params)\n        private\n        view\n        returns (Perpetual.ConstructorParams memory constructorParams)\n    {\n        // Known from creator deployment.\n        constructorParams.finderAddress = finderAddress;\n        constructorParams.tokenFactoryAddress = tokenFactoryAddress;\n        constructorParams.timerAddress = timerAddress;\n\n        // Enforce configuration constraints.\n        require(bytes(params.syntheticName).length != 0, \"Missing synthetic name\");\n        require(bytes(params.syntheticSymbol).length != 0, \"Missing synthetic symbol\");\n        require(params.withdrawalLiveness != 0, \"Withdrawal liveness cannot be 0\");\n        require(params.liquidationLiveness != 0, \"Liquidation liveness cannot be 0\");\n        require(params.excessTokenBeneficiary != address(0), \"Token Beneficiary cannot be 0x0\");\n        _requireWhitelistedCollateral(params.collateralAddress);\n\n        // We don't want perpetual deployers to be able to intentionally or unintentionally set\n        // liveness periods that could induce arithmetic overflow, but we also don't want\n        // to be opinionated about what livenesses are \"correct\", so we will somewhat\n        // arbitrarily set the liveness upper bound to 100 years (5200 weeks). In practice, liveness\n        // periods even greater than a few days would make the perpetual unusable for most users.\n        require(params.withdrawalLiveness < 5200 weeks, \"Withdrawal liveness too large\");\n        require(params.liquidationLiveness < 5200 weeks, \"Liquidation liveness too large\");\n\n        // Input from function call.\n        constructorParams.collateralAddress = params.collateralAddress;\n        constructorParams.priceFeedIdentifier = params.priceFeedIdentifier;\n        constructorParams.fundingRateIdentifier = params.fundingRateIdentifier;\n        constructorParams.syntheticName = params.syntheticName;\n        constructorParams.syntheticSymbol = params.syntheticSymbol;\n        constructorParams.collateralRequirement = params.collateralRequirement;\n        constructorParams.disputeBondPct = params.disputeBondPct;\n        constructorParams.sponsorDisputeRewardPct = params.sponsorDisputeRewardPct;\n        constructorParams.disputerDisputeRewardPct = params.disputerDisputeRewardPct;\n        constructorParams.minSponsorTokens = params.minSponsorTokens;\n        constructorParams.withdrawalLiveness = params.withdrawalLiveness;\n        constructorParams.liquidationLiveness = params.liquidationLiveness;\n        constructorParams.excessTokenBeneficiary = params.excessTokenBeneficiary;\n    }\n}\n",
  "sourcePath": "/home/alessandrovm/JarvisLavoro/SynFiat/packages/contracts/contracts/uma-contracts/financial-templates/perpetual-multiparty/PerpetualCreator.sol",
  "compiler": {
    "name": "solc",
    "version": "0.6.10+commit.00c0fcaf.Emscripten.clang"
  },
  "schemaVersion": "3.2.5",
  "updatedAt": "2020-10-22T14:01:04.441Z",
  "devdoc": {
    "methods": {
      "constructor": {
        "params": {
          "_finderAddress": "UMA protocol Finder used to discover other protocol contracts.",
          "_timerAddress": "Contract that stores the current time in a testing environment.",
          "_tokenFactoryAddress": "ERC20 token factory used to deploy synthetic token instances."
        }
      },
      "createPerpetual((address,bytes32,bytes32,string,string,(uint256),(uint256),(uint256),(uint256),(uint256),uint256,uint256,address))": {
        "params": {
          "params": "is a `ConstructorParams` object from Perpetual."
        },
        "returns": {
          "_0": "address of the deployed contract."
        }
      },
      "getCurrentTime()": {
        "returns": {
          "_0": "uint for the current Testable timestamp."
        }
      },
      "setCurrentTime(uint256)": {
        "details": "Will revert if not running in test mode.",
        "params": {
          "time": "timestamp to set current Testable time to."
        }
      }
    },
    "title": "Perpetual Contract creator."
  },
  "userdoc": {
    "methods": {
      "constructor": "Constructs the Perpetual contract.",
      "createPerpetual((address,bytes32,bytes32,string,string,(uint256),(uint256),(uint256),(uint256),(uint256),uint256,uint256,address))": {
        "notice": "Creates an instance of perpetual and registers it within the registry."
      },
      "getCurrentTime()": {
        "notice": "Gets the current time. Will return the last time set in `setCurrentTime` if running in test mode. Otherwise, it will return the block timestamp."
      },
      "setCurrentTime(uint256)": {
        "notice": "Sets the current time."
      }
    },
    "notice": "Factory contract to create and register new instances of perpetual contracts. Responsible for constraining the parameters used to construct a new perpetual. This creator contains a number of constraints that are applied to newly created  contract. These constraints can evolve over time and are initially constrained to conservative values in this first iteration. Technically there is nothing in the Perpetual contract requiring these constraints. However, because `createPerpetual()` is intended to be the only way to create valid financial contracts that are registered with the DVM (via _registerContract), we can enforce deployment configurations here."
  }
}