{
  "contractName": "PricelessPositionManager",
  "abi": [
    {
      "inputs": [
        {
          "internalType": "bool",
          "name": "_isTest",
          "type": "bool"
        },
        {
          "internalType": "uint256",
          "name": "_expirationTimestamp",
          "type": "uint256"
        },
        {
          "internalType": "uint256",
          "name": "_withdrawalLiveness",
          "type": "uint256"
        },
        {
          "internalType": "address",
          "name": "_collateralAddress",
          "type": "address"
        },
        {
          "internalType": "address",
          "name": "_finderAddress",
          "type": "address"
        },
        {
          "internalType": "bytes32",
          "name": "_priceIdentifier",
          "type": "bytes32"
        },
        {
          "internalType": "string",
          "name": "_syntheticName",
          "type": "string"
        },
        {
          "internalType": "string",
          "name": "_syntheticSymbol",
          "type": "string"
        },
        {
          "internalType": "address",
          "name": "_tokenFactoryAddress",
          "type": "address"
        }
      ],
      "stateMutability": "nonpayable",
      "type": "constructor"
    },
    {
      "anonymous": false,
      "inputs": [
        {
          "indexed": true,
          "internalType": "address",
          "name": "caller",
          "type": "address"
        }
      ],
      "name": "ContractExpired",
      "type": "event"
    },
    {
      "anonymous": false,
      "inputs": [
        {
          "indexed": true,
          "internalType": "address",
          "name": "sponsor",
          "type": "address"
        },
        {
          "indexed": true,
          "internalType": "uint256",
          "name": "collateralAmount",
          "type": "uint256"
        }
      ],
      "name": "Deposit",
      "type": "event"
    },
    {
      "anonymous": false,
      "inputs": [
        {
          "indexed": true,
          "internalType": "address",
          "name": "caller",
          "type": "address"
        },
        {
          "indexed": false,
          "internalType": "uint256",
          "name": "originalExpirationTimestamp",
          "type": "uint256"
        },
        {
          "indexed": false,
          "internalType": "uint256",
          "name": "shutdownTimestamp",
          "type": "uint256"
        }
      ],
      "name": "EmergencyShutdown",
      "type": "event"
    },
    {
      "anonymous": false,
      "inputs": [
        {
          "indexed": true,
          "internalType": "address",
          "name": "sponsor",
          "type": "address"
        }
      ],
      "name": "NewSponsor",
      "type": "event"
    },
    {
      "anonymous": false,
      "inputs": [
        {
          "indexed": true,
          "internalType": "address",
          "name": "sponsor",
          "type": "address"
        },
        {
          "indexed": true,
          "internalType": "uint256",
          "name": "collateralAmount",
          "type": "uint256"
        },
        {
          "indexed": true,
          "internalType": "uint256",
          "name": "tokenAmount",
          "type": "uint256"
        }
      ],
      "name": "PositionCreated",
      "type": "event"
    },
    {
      "anonymous": false,
      "inputs": [
        {
          "indexed": true,
          "internalType": "address",
          "name": "sponsor",
          "type": "address"
        },
        {
          "indexed": true,
          "internalType": "uint256",
          "name": "collateralAmount",
          "type": "uint256"
        },
        {
          "indexed": true,
          "internalType": "uint256",
          "name": "tokenAmount",
          "type": "uint256"
        }
      ],
      "name": "Redeem",
      "type": "event"
    },
    {
      "anonymous": false,
      "inputs": [
        {
          "indexed": true,
          "internalType": "address",
          "name": "sponsor",
          "type": "address"
        },
        {
          "indexed": true,
          "internalType": "uint256",
          "name": "collateralAmount",
          "type": "uint256"
        }
      ],
      "name": "RequestWithdrawal",
      "type": "event"
    },
    {
      "anonymous": false,
      "inputs": [
        {
          "indexed": true,
          "internalType": "address",
          "name": "sponsor",
          "type": "address"
        },
        {
          "indexed": true,
          "internalType": "uint256",
          "name": "collateralAmount",
          "type": "uint256"
        }
      ],
      "name": "RequestWithdrawalCanceled",
      "type": "event"
    },
    {
      "anonymous": false,
      "inputs": [
        {
          "indexed": true,
          "internalType": "address",
          "name": "sponsor",
          "type": "address"
        },
        {
          "indexed": true,
          "internalType": "uint256",
          "name": "collateralAmount",
          "type": "uint256"
        }
      ],
      "name": "RequestWithdrawalExecuted",
      "type": "event"
    },
    {
      "anonymous": false,
      "inputs": [
        {
          "indexed": true,
          "internalType": "address",
          "name": "caller",
          "type": "address"
        },
        {
          "indexed": true,
          "internalType": "uint256",
          "name": "collateralReturned",
          "type": "uint256"
        },
        {
          "indexed": true,
          "internalType": "uint256",
          "name": "tokensBurned",
          "type": "uint256"
        }
      ],
      "name": "SettleExpiredPosition",
      "type": "event"
    },
    {
      "anonymous": false,
      "inputs": [
        {
          "indexed": true,
          "internalType": "address",
          "name": "oldSponsor",
          "type": "address"
        },
        {
          "indexed": true,
          "internalType": "address",
          "name": "newSponsor",
          "type": "address"
        }
      ],
      "name": "Transfer",
      "type": "event"
    },
    {
      "anonymous": false,
      "inputs": [
        {
          "indexed": true,
          "internalType": "address",
          "name": "sponsor",
          "type": "address"
        },
        {
          "indexed": true,
          "internalType": "uint256",
          "name": "collateralAmount",
          "type": "uint256"
        }
      ],
      "name": "Withdrawal",
      "type": "event"
    },
    {
      "inputs": [],
      "name": "collateralCurrency",
      "outputs": [
        {
          "internalType": "contract IERC20",
          "name": "",
          "type": "address"
        }
      ],
      "stateMutability": "view",
      "type": "function"
    },
    {
      "inputs": [],
      "name": "contractState",
      "outputs": [
        {
          "internalType": "enum PricelessPositionManager.ContractState",
          "name": "",
          "type": "uint8"
        }
      ],
      "stateMutability": "view",
      "type": "function"
    },
    {
      "inputs": [],
      "name": "cumulativeFeeMultiplier",
      "outputs": [
        {
          "internalType": "uint256",
          "name": "rawValue",
          "type": "uint256"
        }
      ],
      "stateMutability": "view",
      "type": "function"
    },
    {
      "inputs": [],
      "name": "expirationTimestamp",
      "outputs": [
        {
          "internalType": "uint256",
          "name": "",
          "type": "uint256"
        }
      ],
      "stateMutability": "view",
      "type": "function"
    },
    {
      "inputs": [],
      "name": "expiryPrice",
      "outputs": [
        {
          "internalType": "uint256",
          "name": "rawValue",
          "type": "uint256"
        }
      ],
      "stateMutability": "view",
      "type": "function"
    },
    {
      "inputs": [],
      "name": "finder",
      "outputs": [
        {
          "internalType": "contract FinderInterface",
          "name": "",
          "type": "address"
        }
      ],
      "stateMutability": "view",
      "type": "function"
    },
    {
      "inputs": [],
      "name": "getCurrentTime",
      "outputs": [
        {
          "internalType": "uint256",
          "name": "",
          "type": "uint256"
        }
      ],
      "stateMutability": "view",
      "type": "function"
    },
    {
      "inputs": [],
      "name": "isTest",
      "outputs": [
        {
          "internalType": "bool",
          "name": "",
          "type": "bool"
        }
      ],
      "stateMutability": "view",
      "type": "function"
    },
    {
      "inputs": [],
      "name": "lastPaymentTime",
      "outputs": [
        {
          "internalType": "uint256",
          "name": "",
          "type": "uint256"
        }
      ],
      "stateMutability": "view",
      "type": "function"
    },
    {
      "inputs": [],
      "name": "payFees",
      "outputs": [
        {
          "components": [
            {
              "internalType": "uint256",
              "name": "rawValue",
              "type": "uint256"
            }
          ],
          "internalType": "struct FixedPoint.Unsigned",
          "name": "totalPaid",
          "type": "tuple"
        }
      ],
      "stateMutability": "nonpayable",
      "type": "function"
    },
    {
      "inputs": [
        {
          "internalType": "address",
          "name": "",
          "type": "address"
        }
      ],
      "name": "positions",
      "outputs": [
        {
          "components": [
            {
              "internalType": "uint256",
              "name": "rawValue",
              "type": "uint256"
            }
          ],
          "internalType": "struct FixedPoint.Unsigned",
          "name": "tokensOutstanding",
          "type": "tuple"
        },
        {
          "internalType": "uint256",
          "name": "requestPassTimestamp",
          "type": "uint256"
        },
        {
          "components": [
            {
              "internalType": "uint256",
              "name": "rawValue",
              "type": "uint256"
            }
          ],
          "internalType": "struct FixedPoint.Unsigned",
          "name": "withdrawalRequestAmount",
          "type": "tuple"
        },
        {
          "components": [
            {
              "internalType": "uint256",
              "name": "rawValue",
              "type": "uint256"
            }
          ],
          "internalType": "struct FixedPoint.Unsigned",
          "name": "rawCollateral",
          "type": "tuple"
        }
      ],
      "stateMutability": "view",
      "type": "function"
    },
    {
      "inputs": [],
      "name": "priceIdentifer",
      "outputs": [
        {
          "internalType": "bytes32",
          "name": "",
          "type": "bytes32"
        }
      ],
      "stateMutability": "view",
      "type": "function"
    },
    {
      "inputs": [],
      "name": "rawTotalPositionCollateral",
      "outputs": [
        {
          "internalType": "uint256",
          "name": "rawValue",
          "type": "uint256"
        }
      ],
      "stateMutability": "view",
      "type": "function"
    },
    {
      "inputs": [
        {
          "internalType": "uint256",
          "name": "_time",
          "type": "uint256"
        }
      ],
      "name": "setCurrentTime",
      "outputs": [],
      "stateMutability": "nonpayable",
      "type": "function"
    },
    {
      "inputs": [],
      "name": "tokenCurrency",
      "outputs": [
        {
          "internalType": "contract ExpandedIERC20",
          "name": "",
          "type": "address"
        }
      ],
      "stateMutability": "view",
      "type": "function"
    },
    {
      "inputs": [],
      "name": "totalTokensOutstanding",
      "outputs": [
        {
          "internalType": "uint256",
          "name": "rawValue",
          "type": "uint256"
        }
      ],
      "stateMutability": "view",
      "type": "function"
    },
    {
      "inputs": [],
      "name": "withdrawalLiveness",
      "outputs": [
        {
          "internalType": "uint256",
          "name": "",
          "type": "uint256"
        }
      ],
      "stateMutability": "view",
      "type": "function"
    },
    {
      "inputs": [
        {
          "internalType": "address",
          "name": "newSponsorAddress",
          "type": "address"
        }
      ],
      "name": "transfer",
      "outputs": [],
      "stateMutability": "nonpayable",
      "type": "function"
    },
    {
      "inputs": [
        {
          "components": [
            {
              "internalType": "uint256",
              "name": "rawValue",
              "type": "uint256"
            }
          ],
          "internalType": "struct FixedPoint.Unsigned",
          "name": "collateralAmount",
          "type": "tuple"
        }
      ],
      "name": "deposit",
      "outputs": [],
      "stateMutability": "nonpayable",
      "type": "function"
    },
    {
      "inputs": [
        {
          "components": [
            {
              "internalType": "uint256",
              "name": "rawValue",
              "type": "uint256"
            }
          ],
          "internalType": "struct FixedPoint.Unsigned",
          "name": "collateralAmount",
          "type": "tuple"
        }
      ],
      "name": "withdraw",
      "outputs": [],
      "stateMutability": "nonpayable",
      "type": "function"
    },
    {
      "inputs": [
        {
          "components": [
            {
              "internalType": "uint256",
              "name": "rawValue",
              "type": "uint256"
            }
          ],
          "internalType": "struct FixedPoint.Unsigned",
          "name": "collateralAmount",
          "type": "tuple"
        }
      ],
      "name": "requestWithdrawal",
      "outputs": [],
      "stateMutability": "nonpayable",
      "type": "function"
    },
    {
      "inputs": [],
      "name": "withdrawPassedRequest",
      "outputs": [],
      "stateMutability": "nonpayable",
      "type": "function"
    },
    {
      "inputs": [],
      "name": "cancelWithdrawal",
      "outputs": [],
      "stateMutability": "nonpayable",
      "type": "function"
    },
    {
      "inputs": [
        {
          "components": [
            {
              "internalType": "uint256",
              "name": "rawValue",
              "type": "uint256"
            }
          ],
          "internalType": "struct FixedPoint.Unsigned",
          "name": "collateralAmount",
          "type": "tuple"
        },
        {
          "components": [
            {
              "internalType": "uint256",
              "name": "rawValue",
              "type": "uint256"
            }
          ],
          "internalType": "struct FixedPoint.Unsigned",
          "name": "numTokens",
          "type": "tuple"
        }
      ],
      "name": "create",
      "outputs": [],
      "stateMutability": "nonpayable",
      "type": "function"
    },
    {
      "inputs": [
        {
          "components": [
            {
              "internalType": "uint256",
              "name": "rawValue",
              "type": "uint256"
            }
          ],
          "internalType": "struct FixedPoint.Unsigned",
          "name": "numTokens",
          "type": "tuple"
        }
      ],
      "name": "redeem",
      "outputs": [],
      "stateMutability": "nonpayable",
      "type": "function"
    },
    {
      "inputs": [],
      "name": "settleExpired",
      "outputs": [],
      "stateMutability": "nonpayable",
      "type": "function"
    },
    {
      "inputs": [],
      "name": "expire",
      "outputs": [],
      "stateMutability": "nonpayable",
      "type": "function"
    },
    {
      "inputs": [],
      "name": "emergencyShutdown",
      "outputs": [],
      "stateMutability": "nonpayable",
      "type": "function"
    },
    {
      "inputs": [],
      "name": "remargin",
      "outputs": [],
      "stateMutability": "nonpayable",
      "type": "function"
    },
    {
      "inputs": [
        {
          "internalType": "address",
          "name": "sponsor",
          "type": "address"
        }
      ],
      "name": "getCollateral",
      "outputs": [
        {
          "components": [
            {
              "internalType": "uint256",
              "name": "rawValue",
              "type": "uint256"
            }
          ],
          "internalType": "struct FixedPoint.Unsigned",
          "name": "",
          "type": "tuple"
        }
      ],
      "stateMutability": "view",
      "type": "function"
    },
    {
      "inputs": [],
      "name": "totalPositionCollateral",
      "outputs": [
        {
          "components": [
            {
              "internalType": "uint256",
              "name": "rawValue",
              "type": "uint256"
            }
          ],
          "internalType": "struct FixedPoint.Unsigned",
          "name": "",
          "type": "tuple"
        }
      ],
      "stateMutability": "view",
      "type": "function"
    },
    {
      "inputs": [],
      "name": "pfc",
      "outputs": [
        {
          "components": [
            {
              "internalType": "uint256",
              "name": "rawValue",
              "type": "uint256"
            }
          ],
          "internalType": "struct FixedPoint.Unsigned",
          "name": "",
          "type": "tuple"
        }
      ],
      "stateMutability": "view",
      "type": "function"
    }
  ],
  "bytecode": "0x60806040523480156200001157600080fd5b506040516200342e3803806200342e83398101604081905262000034916200045f565b6000805460ff19168a15801591909117909155869086908b9081906200005957426001555b50600280546001600160a01b038086166001600160a01b03199283161790925560038054928516929091169190911790556200009d6001600160e01b036200022116565b600481905550620000ba60016200023e60201b620016df1760201c565b51600555505050600c889055600d87905560405163e8a0aed360e01b815281906001600160a01b0382169063e8a0aed3906200010090879087906012906004016200056e565b602060405180830381600087803b1580156200011b57600080fd5b505af115801562000130573d6000803e3d6000fd5b505050506040513d601f19601f8201168201806040525081019062000156919062000421565b600a80546001600160a01b0319166001600160a01b0392909216919091179055620001806200027d565b6001600160a01b03166390978d1b866040518263ffffffff1660e01b8152600401620001ad919062000565565b60206040518083038186803b158015620001c657600080fd5b505afa158015620001db573d6000803e3d6000fd5b505050506040513d601f19601f8201168201806040525081019062000201919062000440565b6200020b57600080fd5b505050600b919091555062000647945050505050565b6000805460ff16156200023857506001546200023b565b50425b90565b6200024862000380565b604051806020016040528062000275670de0b6b3a7640000856200032e60201b620022d01790919060201c565b905292915050565b6003546040516302abf57960e61b81526000917f4964656e74696669657257686974656c69737400000000000000000000000000916001600160a01b039091169063aafd5e4090620002d490849060040162000565565b60206040518083038186803b158015620002ed57600080fd5b505afa15801562000302573d6000803e3d6000fd5b505050506040513d601f19601f8201168201806040525081019062000328919062000421565b91505090565b6000826200033f575060006200037a565b828202828482816200034d57fe5b0414620003775760405162461bcd60e51b81526004016200036e90620005ab565b60405180910390fd5b90505b92915050565b6040518060200160405280600081525090565b80516200037a816200061f565b600082601f830112620003b1578081fd5b81516001600160401b0380821115620003c8578283fd5b604051601f8301601f191681016020018281118282101715620003e9578485fd5b6040528281529250828483016020018610156200040557600080fd5b62000418836020830160208801620005ec565b50505092915050565b60006020828403121562000433578081fd5b815162000377816200061f565b60006020828403121562000452578081fd5b8151620003778162000638565b60008060008060008060008060006101208a8c0312156200047e578485fd5b89516200048b8162000638565b8099505060208a0151975060408a0151965060608a0151620004ad816200061f565b9550620004be8b60808c0162000393565b60a08b015160c08c015191965094506001600160401b0380821115620004e2578485fd5b620004f08d838e01620003a0565b945060e08c015191508082111562000506578384fd5b50620005158c828d01620003a0565b925050620005288b6101008c0162000393565b90509295985092959850929598565b6000815180845262000551816020860160208601620005ec565b601f01601f19169290920160200192915050565b90815260200190565b60006060825262000583606083018662000537565b828103602084015262000597818662000537565b91505060ff83166040830152949350505050565b60208082526021908201527f536166654d6174683a206d756c7469706c69636174696f6e206f766572666c6f6040820152607760f81b606082015260800190565b60005b8381101562000609578181015183820152602001620005ef565b8381111562000619576000848401525b50505050565b6001600160a01b03811681146200063557600080fd5b50565b80151581146200063557600080fd5b612dd780620006576000396000f3fe608060405234801561001057600080fd5b50600436106101f05760003560e01c806379599f961161010f578063b9a3c84c116100a2578063dd0eef3d11610071578063dd0eef3d1461038c578063dfe607f914610394578063edfa9a9b1461039c578063fcccedc7146103a4576101f0565b8063b9a3c84c14610356578063bc1216301461035e578063bda02e7714610371578063d1e92c1114610379576101f0565b80639381a345116100de5780639381a3451461031e5780639b56d6c9146103335780639f43ddd2146103465780639ff4dea81461034e576101f0565b806379599f96146102f957806381a10ae11461028b57806385209ee0146103015780638c382eb214610316576101f0565b80633403c2fc116101875780635f1af1ca116101565780635f1af1ca146102c357806362779e15146102d65780636ba2f992146102de5780637048594b146102f1576101f0565b80633403c2fc146102705780633ee7a5ce1461027857806343e4771b1461028b57806355f57510146102a0576101f0565b806322611280116101c3578063226112801461024557806322f8e5661461024d57806329cb924d1461026057806333a46ca214610268576101f0565b80630c9229ca146101f55780630de15fd914610213578063175d9e7c146102285780631a69523014610230575b600080fd5b6101fd6103ac565b60405161020a9190612a49565b60405180910390f35b61021b6103b2565b60405161020a919061299f565b6101fd6103ce565b61024361023e366004612866565b6103d4565b005b610243610530565b61024361025b36600461296b565b6105a2565b6101fd6105b6565b6102436105d1565b61024361070f565b6102436102863660046128d6565b6107e2565b61029361089b565b60405161020a9190612ced565b6102b36102ae366004612866565b6108c1565b60405161020a9493929190612cf7565b6102436102d13660046128d6565b610907565b610293610b72565b6102436102ec36600461290c565b610e0b565b61021b61104b565b610243611067565b6103096110f4565b60405161020a9190612a60565b6101fd6110fd565b610326611103565b60405161020a9190612a3e565b610293610341366004612866565b61110c565b6101fd61115c565b6101fd611162565b61021b611168565b61024361036c3660046128d6565b611184565b610243611209565b6102436103873660046128d6565b611213565b6101fd6112bc565b6101fd6112c2565b6101fd6112c8565b6102436112ce565b60085481565b60025473ffffffffffffffffffffffffffffffffffffffff1681565b600b5481565b6103dc6116ca565b6104376103e960006116df565b73ffffffffffffffffffffffffffffffffffffffff83166000908152600760209081526040918290208251918201909252600390910154815261042b90611713565b9063ffffffff61173c16565b61044057600080fd5b600061044b33611743565b9050806001015460001461045e57600080fd5b73ffffffffffffffffffffffffffffffffffffffff821660008181526007602052604080822084548155600180860154818301556002808701548184015560038088015493810193909355338086528486208681559283018690559082018590559101839055905190917f4853ae1b4d437c4255ac16cd3ceda3465975023f27cb141584cd9d44440fed8291a360405173ffffffffffffffffffffffffffffffffffffffff8316907ff60993fa76f94c9e0a803526ee6e1314814ed4d2b0d223febf1436b36897fb3790600090a25050565b6105386116ca565b600061054333611743565b905080600101546000141561055757600080fd5b600281015460405133907f74d8a3658feb89d1a5c335229bbbfc3bbcfaf492769feb7aa4cd2d92efeaf69190600090a3600060018201819055610599906116df565b51600290910155565b60005460ff166105b157600080fd5b600155565b6000805460ff16156105cb57506001546105ce565b50425b90565b6105d96116ca565b6105e1610b72565b5060006105ed33611743565b90506105f76105b6565b8160010154111561060757600080fd5b61060f612809565b506040805160208082018352600284015482528251908101909252600383015482529061065d9061063f90611713565b6040805160208101909152600285015481529063ffffffff61177816565b156106805760408051602081019091526003830154815261067d90611713565b90505b61068d826003018261177f565b61069860098261177f565b80516002546106c79173ffffffffffffffffffffffffffffffffffffffff90911690339063ffffffff6117ba16565b805160405133907fc86c3298cb79f486674dca87d9247e88b76146160e7d412cc59b26b14c358a6890600090a36106fe60006116df565b516002830155506000600190910155565b6107176116ca565b61071f611860565b61072761187d565b73ffffffffffffffffffffffffffffffffffffffff163373ffffffffffffffffffffffffffffffffffffffff161461075e57600080fd5b600680547fffffffffffffffffffffffffffffffffffffffffffffffffffffffffffffff00166001179055600c546107946105b6565b600c8190556107a29061194e565b600c5460405133917fd39eeb7157d9c446579a0893ecf9ecd87d1f466cdb270c6a189cf38ca1e30f48916107d7918591612a52565b60405180910390a250565b6107ea6116ca565b6107f2610b72565b5060006107fe33611743565b9050806001015460001461081157600080fd5b61081e816003018361177f565b610827816119e6565b61083057600080fd5b61083b60098361177f565b815160025461086a9173ffffffffffffffffffffffffffffffffffffffff90911690339063ffffffff6117ba16565b815160405133907f7fcf532c15f0a6db0bd6d0e038bea71d30d808c7d98cb3bf7268a95bf5081b6590600090a35050565b6108a3612809565b604080516020810190915260095481526108bc90611713565b905090565b6007602090815260009182526040918290208251808301845281548152600182015484518085018652600284015481528551948501909552600390920154835292909184565b61090f6116ca565b610917610b72565b50600061092333611743565b9050806001015460001461093657600080fd5b60408051602081019091528154815261095690839063ffffffff61177816565b1561096057600080fd5b610968612809565b60408051602081019091528254815261098890849063ffffffff611a1c16565b9050610992612809565b6040805160208101909152600384015481526109be906109b190611713565b839063ffffffff611a6616565b6040805160208101909152845481529091506109e0908563ffffffff61173c16565b156109f3576109ee33611aa9565b610a52565b610a00836003018261177f565b604080516020810190915283548152610a1f908563ffffffff611b5516565b518355610a2d60098261177f565b60408051602081019091526008548152610a4d908563ffffffff611b5516565b516008555b8051600254610a819173ffffffffffffffffffffffffffffffffffffffff90911690339063ffffffff6117ba16565b8351600a54610ab29173ffffffffffffffffffffffffffffffffffffffff909116903390309063ffffffff611b7e16565b600a5484516040517f42966c6800000000000000000000000000000000000000000000000000000000815273ffffffffffffffffffffffffffffffffffffffff909216916342966c6891610b0891600401612a49565b600060405180830381600087803b158015610b2257600080fd5b505af1158015610b36573d6000803e3d6000fd5b505085518351604051919350915033907fe5b754fb1abb7f01b499791d0b820ae3b6af3424ac1c59768edb53f4ec31a92990600090a450505050565b610b7a612809565b6000610b84611ba5565b90506000610b906105b6565b9050610b9a612809565b610ba261089b565b9050610bb581600063ffffffff611c2016565b15610bc357506105ce915050565b610bcb612809565b610bd3612809565b600480546040517f74201feb00000000000000000000000000000000000000000000000000000000815273ffffffffffffffffffffffffffffffffffffffff8816926374201feb92610c2b9290918991899101612d15565b604080518083038186803b158015610c4257600080fd5b505afa158015610c56573d6000803e3d6000fd5b505050506040513d601f19601f82011682018060405250810190610c7a9190612940565b60048690559092509050610c9582600063ffffffff611c3716565b15610d54578151600254610cc99173ffffffffffffffffffffffffffffffffffffffff90911690879063ffffffff611c4e16565b6002546040517f4933a88700000000000000000000000000000000000000000000000000000000815273ffffffffffffffffffffffffffffffffffffffff87811692634933a88792610d21929091169060040161299f565b600060405180830381600087803b158015610d3b57600080fd5b505af1158015610d4f573d6000803e3d6000fd5b505050505b610d6581600063ffffffff611c3716565b15610d99578051600254610d999173ffffffffffffffffffffffffffffffffffffffff90911690339063ffffffff6117ba16565b610da9828263ffffffff611d0c16565b9550610db3612809565b610dc3878563ffffffff611d3516565b9050610dfe610de282610dd660016116df565b9063ffffffff611b5516565b604080516020810190915260055481529063ffffffff611a6616565b5160055550505050505090565b610e136116ca565b610e1b610b72565b50610e268282611dd7565b610e2f57600080fd5b336000908152600760205260409020600181015415610e4d57600080fd5b604080516020810190915281548152610e6d90600063ffffffff611c2016565b15610e9e5760405133907ff60993fa76f94c9e0a803526ee6e1314814ed4d2b0d223febf1436b36897fb3790600090a25b610eab8160030184611e43565b604080516020810190915281548152610eca908363ffffffff611d0c16565b518155610ed8600984611e43565b60408051602081019091526008548152610ef8908363ffffffff611d0c16565b516008558251600254610f2d9173ffffffffffffffffffffffffffffffffffffffff909116903390309063ffffffff611b7e16565b600a5482516040517f40c10f1900000000000000000000000000000000000000000000000000000000815273ffffffffffffffffffffffffffffffffffffffff909216916340c10f1991610f86913391906004016129c0565b602060405180830381600087803b158015610fa057600080fd5b505af1158015610fb4573d6000803e3d6000fd5b505050506040513d601f19601f82011682018060405250810190610fd8919061289e565b611017576040517f08c379a000000000000000000000000000000000000000000000000000000000815260040161100e90612c22565b60405180910390fd5b8151835160405133907f4b82aa16e071a61de1a6b9aeec9edab0356331f8122c78683b469ac8e685dabc90600090a4505050565b600a5473ffffffffffffffffffffffffffffffffffffffff1681565b61106f611e76565b611077611860565b61107f610b72565b50600680547fffffffffffffffffffffffffffffffffffffffffffffffffffffffffffffff001660011790556110bc306110b7611e8c565b611f47565b6110c7600c5461194e565b60405133907f18600820405d6cf356e3556301762ca32395e72d8c81494fa344835c9da3633d90600090a2565b60065460ff1681565b60095481565b60005460ff1681565b611114612809565b73ffffffffffffffffffffffffffffffffffffffff82166000908152600760209081526040918290208251918201909252600390910154815261115690611713565b92915050565b600c5481565b600d5481565b60035473ffffffffffffffffffffffffffffffffffffffff1681565b61118c6116ca565b600061119733611743565b905080600101546000146111aa57600080fd5b6000600d546111b76105b6565b019050600c548111156111c957600080fd5b6001820181905582516002830181905560405133907fd33b726e11d2c5d38e6702b16613df0160a07f7ba5185455ee3c45d0494fab1190600090a3505050565b6112116116ca565b565b61121b6116ca565b611223610b72565b50600061122f33611743565b9050806001015460001461124257600080fd5b61124f8160030183611e43565b61125a600983611e43565b815160025461128b9173ffffffffffffffffffffffffffffffffffffffff909116903390309063ffffffff611b7e16565b815160405133907fe1fffcc4923d04b559f4d29a8bfc6cda04eb5b0d3c460751c2402c5c5cc9109c90600090a35050565b60055481565b60045481565b600e5481565b6112d6611e76565b6112de610b72565b50600060065460ff1660028111156112f257fe5b14156112fd57600080fd5b600260065460ff16600281111561131057fe5b1461135057611320600c546120e4565b51600e55600680547fffffffffffffffffffffffffffffffffffffffffffffffffffffffffffffff001660021790555b611358612809565b604080516020810191829052600a547f70a082310000000000000000000000000000000000000000000000000000000090925290819073ffffffffffffffffffffffffffffffffffffffff166370a082316113b6336024850161299f565b60206040518083038186803b1580156113ce57600080fd5b505afa1580156113e2573d6000803e3d6000fd5b505050506040513d601f19601f8201168201806040525081019061140691906128be565b90529050611412612809565b6040805160208101909152600e54815261143390839063ffffffff611a6616565b336000908152600760209081526040808320815192830190915260038101548252929350611471919061146590611713565b9063ffffffff611c3716565b1561154e5761147e612809565b6040805160208082018352600e5482528251908101909252835482526114aa919063ffffffff611a6616565b90506114b4612809565b6040805160208101909152600384015481526114cf90611713565b90506114d9612809565b6114e9838363ffffffff6122a916565b6115025760405180602001604052806000815250611512565b611512828463ffffffff611b5516565b9050611524858263ffffffff611d0c16565b33600090815260076020526040812081815560018101829055600281018290556003015594505050505b611556612809565b604080516020810190915260095481526115799061157390611713565b846122b0565b905061158660098261177f565b604080516020810190915260085481526115a6908563ffffffff611b5516565b5160085580516002546115d99173ffffffffffffffffffffffffffffffffffffffff90911690339063ffffffff6117ba16565b8351600a5461160a9173ffffffffffffffffffffffffffffffffffffffff909116903390309063ffffffff611b7e16565b600a5484516040517f42966c6800000000000000000000000000000000000000000000000000000000815273ffffffffffffffffffffffffffffffffffffffff909216916342966c689161166091600401612a49565b600060405180830381600087803b15801561167a57600080fd5b505af115801561168e573d6000803e3d6000fd5b505085518351604051919350915033907f9d349c102bec959fb7f20f9a3621e015819d3ae4ed6e9afd1f56a69d5845600690600090a450505050565b600c546116d56105b6565b1061121157600080fd5b6116e7612809565b60408051602081019091528061170b84670de0b6b3a764000063ffffffff6122d016565b905292915050565b61171b612809565b6040805160208101909152600554815261115690839063ffffffff611a6616565b5190511490565b60008161174f81612324565b505073ffffffffffffffffffffffffffffffffffffffff16600090815260076020526040902090565b5190511190565b611787612809565b61179082612374565b6040805160208101909152845481529091506117b2908263ffffffff611b5516565b519092555050565b61185b8363a9059cbb60e01b84846040516024016117d99291906129c0565b604080517fffffffffffffffffffffffffffffffffffffffffffffffffffffffffffffffe08184030181529190526020810180517bffffffffffffffffffffffffffffffffffffffffffffffffffffffff167fffffffff000000000000000000000000000000000000000000000000000000009093169290921790915261239d565b505050565b600060065460ff16600281111561187357fe5b1461121157600080fd5b6003546040517faafd5e400000000000000000000000000000000000000000000000000000000081526000917f46696e616e6369616c436f6e74726163747341646d696e0000000000000000009173ffffffffffffffffffffffffffffffffffffffff9091169063aafd5e40906118f8908490600401612a49565b60206040518083038186803b15801561191057600080fd5b505afa158015611924573d6000803e3d6000fd5b505050506040513d601f19601f820116820180604052508101906119489190612882565b91505090565b60006119586124ea565b600b546040517f68ad8ae300000000000000000000000000000000000000000000000000000000815291925073ffffffffffffffffffffffffffffffffffffffff8316916368ad8ae3916119b0918690600401612a52565b600060405180830381600087803b1580156119ca57600080fd5b505af11580156119de573d6000803e3d6000fd5b505050505050565b60408051602081019091526003820154815260009061115690611a0890611713565b604080516020810190915284548152611dd7565b611a24612809565b6040805160208101909152825184518291611a5d91611a5190670de0b6b3a764000063ffffffff6122d016565b9063ffffffff61256516565b90529392505050565b611a6e612809565b6040805160208101909152825184518291670de0b6b3a764000091611a989163ffffffff6122d016565b81611a9f57fe5b0490529392505050565b6000611ab482611743565b60408051602080820183526003840154825282519081019092526009548252919250611ae59163ffffffff611b5516565b5160095560408051602080820183528354825282519081019092526008548252611b15919063ffffffff611b5516565b516008555073ffffffffffffffffffffffffffffffffffffffff166000908152600760205260408120818155600181018290556002810182905560030155565b611b5d612809565b6040805160208101909152825184518291611a5d919063ffffffff6125a716565b611b9f846323b872dd60e01b8585856040516024016117d993929190612a0d565b50505050565b6003546040517faafd5e400000000000000000000000000000000000000000000000000000000081526000917f53746f72650000000000000000000000000000000000000000000000000000009173ffffffffffffffffffffffffffffffffffffffff9091169063aafd5e40906118f8908490600401612a49565b6000611c2b826116df565b51835114905092915050565b6000611c42826116df565b51835111905092915050565b6000611ceb828573ffffffffffffffffffffffffffffffffffffffff1663dd62ed3e30876040518363ffffffff1660e01b8152600401611c8f9291906129e6565b60206040518083038186803b158015611ca757600080fd5b505afa158015611cbb573d6000803e3d6000fd5b505050506040513d601f19601f82011682018060405250810190611cdf91906128be565b9063ffffffff6125e916565b9050611b9f8463095ea7b360e01b85846040516024016117d99291906129c0565b611d14612809565b6040805160208101909152825184518291611a5d919063ffffffff6125e916565b611d3d612809565b8251600090611d5a90670de0b6b3a764000063ffffffff6122d016565b8351909150600090611d7390839063ffffffff61256516565b8451909150600090611d8c90849063ffffffff61262816565b90508015611dbe57604080516020810190915280611db184600163ffffffff6125e916565b8152509350505050611156565b6040518060200160405280838152509350505050611156565b6000611de1612809565b60408051602081019091526009548152611e1390611dfe90611713565b6040805160208101909152600854815261266a565b9050611e1d612809565b611e27858561266a565b9050611e39828263ffffffff61177816565b1595945050505050565b611e4b612809565b611e5482612374565b6040805160208101909152845481529091506117b2908263ffffffff611d0c16565b600c54611e816105b6565b101561121157600080fd5b611e94612809565b6000611e9e611ba5565b6002546040517f5b97aadd00000000000000000000000000000000000000000000000000000000815291925073ffffffffffffffffffffffffffffffffffffffff80841692635b97aadd92611ef792169060040161299f565b60206040518083038186803b158015611f0f57600080fd5b505afa158015611f23573d6000803e3d6000fd5b505050506040513d601f19601f8201168201806040525081019061194891906128f1565b611f5881600063ffffffff611c2016565b15611f62576120e0565b73ffffffffffffffffffffffffffffffffffffffff82163014611fb5578051600254611fb09173ffffffffffffffffffffffffffffffffffffffff909116908490309063ffffffff611b7e16565b61201a565b611fbd612809565b611fc561089b565b9050611fd7818363ffffffff61177816565b611fe057600080fd5b611fe8612809565b612000611ff361089b565b849063ffffffff611d3516565b9050612013610de282610dd660016116df565b5160055550505b6000612024611ba5565b82516002549192506120549173ffffffffffffffffffffffffffffffffffffffff1690839063ffffffff611c4e16565b6002546040517f4933a88700000000000000000000000000000000000000000000000000000000815273ffffffffffffffffffffffffffffffffffffffff83811692634933a887926120ac929091169060040161299f565b600060405180830381600087803b1580156120c657600080fd5b505af11580156120da573d6000803e3d6000fd5b50505050505b5050565b6120ec612809565b60006120f66124ea565b600b546040517fa03e881a00000000000000000000000000000000000000000000000000000000815291925073ffffffffffffffffffffffffffffffffffffffff83169163a03e881a9161214e918790600401612a52565b60206040518083038186803b15801561216657600080fd5b505afa15801561217a573d6000803e3d6000fd5b505050506040513d601f19601f8201168201806040525081019061219e919061289e565b6121d4576040517f08c379a000000000000000000000000000000000000000000000000000000000815260040161100e90612b68565b600b546040517fc9280f0600000000000000000000000000000000000000000000000000000000815260009173ffffffffffffffffffffffffffffffffffffffff84169163c9280f069161222c918890600401612a52565b60206040518083038186803b15801561224457600080fd5b505afa158015612258573d6000803e3d6000fd5b505050506040513d601f19601f8201168201806040525081019061227c91906128be565b9050600081121561228b575060005b604051806020016040528061229f836126a8565b9052949350505050565b5190511090565b6122b8612809565b81518351106122c757816122c9565b825b9392505050565b6000826122df57506000611156565b828202828482816122ec57fe5b04146122c9576040517f08c379a000000000000000000000000000000000000000000000000000000000815260040161100e90612bc5565b73ffffffffffffffffffffffffffffffffffffffff811660009081526007602090815260408083208151928301909152600301548152612368919061146590611713565b61237157600080fd5b50565b61237c612809565b6040805160208101909152600554815261115690839063ffffffff611a1c16565b6123bc8273ffffffffffffffffffffffffffffffffffffffff166126e8565b6123f2576040517f08c379a000000000000000000000000000000000000000000000000000000000815260040161100e90612cb6565b600060608373ffffffffffffffffffffffffffffffffffffffff168360405161241b9190612983565b6000604051808303816000865af19150503d8060008114612458576040519150601f19603f3d011682016040523d82523d6000602084013e61245d565b606091505b509150915081612499576040517f08c379a000000000000000000000000000000000000000000000000000000000815260040161100e90612b33565b805115611b9f57808060200190518101906124b4919061289e565b611b9f576040517f08c379a000000000000000000000000000000000000000000000000000000000815260040161100e90612c59565b6003546040517faafd5e400000000000000000000000000000000000000000000000000000000081526000917f4f7261636c6500000000000000000000000000000000000000000000000000009173ffffffffffffffffffffffffffffffffffffffff9091169063aafd5e40906118f8908490600401612a49565b60006122c983836040518060400160405280601a81526020017f536166654d6174683a206469766973696f6e206279207a65726f000000000000815250612724565b60006122c983836040518060400160405280601e81526020017f536166654d6174683a207375627472616374696f6e206f766572666c6f770000815250612775565b6000828201838110156122c9576040517f08c379a000000000000000000000000000000000000000000000000000000000815260040161100e90612ac5565b60006122c983836040518060400160405280601881526020017f536166654d6174683a206d6f64756c6f206279207a65726f00000000000000008152506127bb565b612672612809565b61268382600063ffffffff611c3716565b6126985761269160006116df565b9050611156565b612691838363ffffffff611a1c16565b6000808212156126e4576040517f08c379a000000000000000000000000000000000000000000000000000000000815260040161100e90612afc565b5090565b6000813f7fc5d2460186f7233c927e7db2dcc703c0e500b653ca82273b7bfad8045d85a47081811480159061271c57508115155b949350505050565b6000818361275f576040517f08c379a000000000000000000000000000000000000000000000000000000000815260040161100e9190612a74565b50600083858161276b57fe5b0495945050505050565b600081848411156127b3576040517f08c379a000000000000000000000000000000000000000000000000000000000815260040161100e9190612a74565b505050900390565b600081836127f6576040517f08c379a000000000000000000000000000000000000000000000000000000000815260040161100e9190612a74565b5082848161280057fe5b06949350505050565b6040518060200160405280600081525090565b60006020828403121561282d578081fd5b6128376020612d2c565b9135825250919050565b600060208284031215612852578081fd5b61285c6020612d2c565b9151825250919050565b600060208284031215612877578081fd5b81356122c981612d7f565b600060208284031215612893578081fd5b81516122c981612d7f565b6000602082840312156128af578081fd5b815180151581146122c9578182fd5b6000602082840312156128cf578081fd5b5051919050565b6000602082840312156128e7578081fd5b6122c9838361281c565b600060208284031215612902578081fd5b6122c98383612841565b6000806040838503121561291e578081fd5b612928848461281c565b9150612937846020850161281c565b90509250929050565b60008060408385031215612952578182fd5b61295c8484612841565b91506129378460208501612841565b60006020828403121561297c578081fd5b5035919050565b60008251612995818460208701612d53565b9190910192915050565b73ffffffffffffffffffffffffffffffffffffffff91909116815260200190565b73ffffffffffffffffffffffffffffffffffffffff929092168252602082015260400190565b73ffffffffffffffffffffffffffffffffffffffff92831681529116602082015260400190565b73ffffffffffffffffffffffffffffffffffffffff9384168152919092166020820152604081019190915260600190565b901515815260200190565b90815260200190565b918252602082015260400190565b6020810160038310612a6e57fe5b91905290565b6000602082528251806020840152612a93816040850160208701612d53565b601f017fffffffffffffffffffffffffffffffffffffffffffffffffffffffffffffffe0169190910160400192915050565b6020808252601b908201527f536166654d6174683a206164646974696f6e206f766572666c6f770000000000604082015260600190565b6020808252600e908201527f55696e7420756e646572666c6f77000000000000000000000000000000000000604082015260600190565b6020808252818101527f5361666545524332303a206c6f772d6c6576656c2063616c6c206661696c6564604082015260600190565b6020808252602e908201527f43616e206f6e6c79206765742061207072696365206f6e63652074686520445660408201527f4d20686173207265736f6c766564000000000000000000000000000000000000606082015260800190565b60208082526021908201527f536166654d6174683a206d756c7469706c69636174696f6e206f766572666c6f60408201527f7700000000000000000000000000000000000000000000000000000000000000606082015260800190565b6020808252601f908201527f4d696e74696e672073796e74686574696320746f6b656e73206661696c656400604082015260600190565b6020808252602a908201527f5361666545524332303a204552433230206f7065726174696f6e20646964206e60408201527f6f74207375636365656400000000000000000000000000000000000000000000606082015260800190565b6020808252601f908201527f5361666545524332303a2063616c6c20746f206e6f6e2d636f6e747261637400604082015260600190565b9051815260200190565b93518452602084019290925251604083015251606082015260800190565b928352602083019190915251604082015260600190565b60405181810167ffffffffffffffff81118282101715612d4b57600080fd5b604052919050565b60005b83811015612d6e578181015183820152602001612d56565b83811115611b9f5750506000910152565b73ffffffffffffffffffffffffffffffffffffffff8116811461237157600080fdfea2646970667358221220a8d3c9b38aefde02f4acd1d74a7cb4973d7e4036e919f033e6afb86681eb907164736f6c63430006040033",
  "source": "pragma solidity ^0.6.0;\npragma experimental ABIEncoderV2;\n\nimport \"@openzeppelin/contracts/math/SafeMath.sol\";\nimport \"@openzeppelin/contracts/token/ERC20/IERC20.sol\";\nimport \"@openzeppelin/contracts/token/ERC20/SafeERC20.sol\";\n\nimport \"../../common/implementation/FixedPoint.sol\";\nimport \"../../common/implementation/Testable.sol\";\nimport \"../../common/interfaces/ExpandedIERC20.sol\";\nimport \"../../oracle/interfaces/OracleInterface.sol\";\nimport \"../../oracle/interfaces/IdentifierWhitelistInterface.sol\";\nimport \"../../oracle/interfaces/AdministrateeInterface.sol\";\nimport \"./TokenFactory.sol\";\nimport \"./FeePayer.sol\";\n\n\n/**\n * @title Financial contract with priceless position management.\n * @notice Handles positions for multiple sponsors in an optimistic (i.e., priceless) way without relying\n * on a price feed. On construction, deploys a new ERC20, managed by this contract, that is the synthetic token.\n */\n\ncontract PricelessPositionManager is FeePayer, AdministrateeInterface {\n    using SafeMath for uint;\n    using FixedPoint for FixedPoint.Unsigned;\n    using SafeERC20 for IERC20;\n    using SafeERC20 for ExpandedIERC20;\n\n    /****************************************\n     *  PRICELESS POSITION DATA STRUCTURES  *\n     ****************************************/\n\n    // Enum to store the state of the PricelessPositionManager. Set on expiration or emergency shutdown.\n    enum ContractState { Open, ExpiredPriceRequested, ExpiredPriceReceived }\n    ContractState public contractState;\n\n    // Represents a single sponsor's position. All collateral is held by this contract.\n    // This struct acts is bookkeeping for how much of that collateral is allocated to each sponsor.\n    struct PositionData {\n        FixedPoint.Unsigned tokensOutstanding;\n        // Tracks pending withdrawal requests. A withdrawal request is pending if `requestPassTimestamp != 0`.\n        uint requestPassTimestamp;\n        FixedPoint.Unsigned withdrawalRequestAmount;\n        // Raw collateral value. This value should never be accessed directly -- always use _getCollateral().\n        // To add or remove collateral, use _addCollateral() and _removeCollateral().\n        FixedPoint.Unsigned rawCollateral;\n    }\n\n    // Maps sponsor addresses to their positions. Each sponsor can have only one position.\n    mapping(address => PositionData) public positions;\n\n    // Keep track of the total collateral and tokens across all positions to enable calculating the\n    // global collateralization ratio without iterating over all positions.\n    FixedPoint.Unsigned public totalTokensOutstanding;\n\n    // Similar to the rawCollateral in PositionData, this value should not be used directly.\n    // _getCollateral(), _addCollateral() and _removeCollateral() must be used to access and adjust.\n    FixedPoint.Unsigned public rawTotalPositionCollateral;\n\n    // Synthetic token created by this contract.\n    ExpandedIERC20 public tokenCurrency;\n\n    // Unique identifier for DVM price feed ticker.\n    bytes32 public priceIdentifer;\n    // Time that this contract expires. Should not change post-construction unless a emergency shutdown occurs.\n    uint public expirationTimestamp;\n    // Time that has to elapse for a withdrawal request to be considered passed, if no liquidations occur.\n    uint public withdrawalLiveness;\n\n    // The expiry price pulled from the DVM.\n    FixedPoint.Unsigned public expiryPrice;\n\n    /****************************************\n     *                EVENTS                *\n     ****************************************/\n\n    event Transfer(address indexed oldSponsor, address indexed newSponsor);\n    event Deposit(address indexed sponsor, uint indexed collateralAmount);\n    event Withdrawal(address indexed sponsor, uint indexed collateralAmount);\n    event RequestWithdrawal(address indexed sponsor, uint indexed collateralAmount);\n    event RequestWithdrawalExecuted(address indexed sponsor, uint indexed collateralAmount);\n    event RequestWithdrawalCanceled(address indexed sponsor, uint indexed collateralAmount);\n    event PositionCreated(address indexed sponsor, uint indexed collateralAmount, uint indexed tokenAmount);\n    event NewSponsor(address indexed sponsor);\n    event Redeem(address indexed sponsor, uint indexed collateralAmount, uint indexed tokenAmount);\n    event ContractExpired(address indexed caller);\n    event SettleExpiredPosition(address indexed caller, uint indexed collateralReturned, uint indexed tokensBurned);\n    event EmergencyShutdown(address indexed caller, uint originalExpirationTimestamp, uint shutdownTimestamp);\n\n    /****************************************\n     *               MODIFIERS              *\n     ****************************************/\n\n    modifier onlyPreExpiration() {\n        _onlyPreExpiration();\n        _;\n    }\n\n    modifier onlyPostExpiration() {\n        _onlyPostExpiration();\n        _;\n    }\n\n    modifier onlyCollateralizedPosition(address sponsor) {\n        _onlyCollateralizedPosition(sponsor);\n        _;\n    }\n\n    // Check that the current state of the pricelessPositionManager is Open.\n    // This prevents multiple calls to `expire` and `EmergencyShutdown` post expiration.\n    modifier onlyOpenState() {\n        _onlyOpenState();\n        _;\n    }\n\n    /**\n     * @notice Construct the PricelessPositionManager\n     * @param _isTest whether this contract is being constructed for the purpose of running tests.\n     * @param _expirationTimestamp unix timestamp of when the contract will expire.\n     * @param _withdrawalLiveness liveness delay, in seconds, for pending withdrawals.\n     * @param _collateralAddress ERC20 token used as collateral for all positions.\n     * @param _finderAddress UMA protocol Finder used to discover other protocol contracts.\n     * @param _priceIdentifier registered in the DVM for the synthetic.\n     * @param _syntheticName name for the token contract that will be deployed.\n     * @param _syntheticSymbol symbol for the token contract that will be deployed.\n     * @param _tokenFactoryAddress deployed UMA token factory to create the synthetic token.\n     */\n    constructor(\n        bool _isTest,\n        uint _expirationTimestamp,\n        uint _withdrawalLiveness,\n        address _collateralAddress,\n        address _finderAddress,\n        bytes32 _priceIdentifier,\n        string memory _syntheticName,\n        string memory _syntheticSymbol,\n        address _tokenFactoryAddress\n    ) public FeePayer(_collateralAddress, _finderAddress, _isTest) {\n        expirationTimestamp = _expirationTimestamp;\n        withdrawalLiveness = _withdrawalLiveness;\n        TokenFactory tf = TokenFactory(_tokenFactoryAddress);\n        tokenCurrency = tf.createToken(_syntheticName, _syntheticSymbol, 18);\n\n        require(_getIdentifierWhitelist().isIdentifierSupported(_priceIdentifier));\n\n        priceIdentifer = _priceIdentifier;\n    }\n\n    /****************************************\n     *          POSITION FUNCTIONS          *\n     ****************************************/\n\n    /**\n     * @notice Transfers ownership of the caller's current position to `newSponsorAddress`.\n     * @dev Transferring positions can only occur if the recipient does not already have a position.\n     * @param newSponsorAddress is the address to which the position will be transferred.\n     */\n    function transfer(address newSponsorAddress) public onlyPreExpiration() {\n        require(_getCollateral(positions[newSponsorAddress].rawCollateral).isEqual(FixedPoint.fromUnscaledUint(0)));\n        PositionData storage positionData = _getPositionData(msg.sender);\n        require(positionData.requestPassTimestamp == 0);\n        positions[newSponsorAddress] = positionData;\n        delete positions[msg.sender];\n\n        emit Transfer(msg.sender, newSponsorAddress);\n        emit NewSponsor(newSponsorAddress);\n    }\n\n    /**\n     * @notice Transfers `collateralAmount` of `collateralCurrency` into the sponsor's position.\n     * @dev Increases the collateralization level of a position after creation.\n     * @param collateralAmount total amount of collateral tokens to be sent to the sponsor's position.\n     */\n    function deposit(FixedPoint.Unsigned memory collateralAmount) public onlyPreExpiration() fees() {\n        PositionData storage positionData = _getPositionData(msg.sender);\n        require(positionData.requestPassTimestamp == 0);\n        _addCollateral(positionData.rawCollateral, collateralAmount);\n        _addCollateral(rawTotalPositionCollateral, collateralAmount);\n\n        // Move collateral currency from sender to contract.\n        collateralCurrency.safeTransferFrom(msg.sender, address(this), collateralAmount.rawValue);\n\n        emit Deposit(msg.sender, collateralAmount.rawValue);\n    }\n\n    /**\n     * @notice Transfers `collateralAmount` of `collateralCurrency` from the sponsor's position to the sponsor.\n     * @dev Reverts if the withdrawal puts this position's collateralization ratio below the global\n     * collateralization ratio. In that case, use `requestWithdrawawal`.\n     * @param collateralAmount is the amount of collateral to withdraw\n     */\n    function withdraw(FixedPoint.Unsigned memory collateralAmount) public onlyPreExpiration() fees() {\n        PositionData storage positionData = _getPositionData(msg.sender);\n        require(positionData.requestPassTimestamp == 0);\n\n        _removeCollateral(positionData.rawCollateral, collateralAmount);\n        require(_checkPositionCollateralization(positionData));\n        _removeCollateral(rawTotalPositionCollateral, collateralAmount);\n\n        // Move collateral currency from contract to sender.\n        collateralCurrency.safeTransfer(msg.sender, collateralAmount.rawValue);\n\n        emit Withdrawal(msg.sender, collateralAmount.rawValue);\n    }\n\n    /**\n     * @notice Starts a withdrawal request that, if passed, allows the sponsor to withdraw\n     * `collateralAmount` from their position.\n     * @dev The request will be pending for `withdrawalLiveness`, during which the position can be liquidated.\n     * @param collateralAmount the amount of collateral requested to withdraw\n     */\n    function requestWithdrawal(FixedPoint.Unsigned memory collateralAmount) public onlyPreExpiration() {\n        PositionData storage positionData = _getPositionData(msg.sender);\n        require(positionData.requestPassTimestamp == 0);\n\n        // Make sure the proposed expiration of this request is not post-expiry.\n        uint requestPassTime = getCurrentTime() + withdrawalLiveness;\n        require(requestPassTime <= expirationTimestamp);\n\n        // Update the position object for the user.\n        positionData.requestPassTimestamp = requestPassTime;\n        positionData.withdrawalRequestAmount = collateralAmount;\n\n        emit RequestWithdrawal(msg.sender, collateralAmount.rawValue);\n    }\n\n    /**\n     * @notice After a passed withdrawal request (i.e., by a call to `requestWithdrawal` and waiting\n     * `withdrawalLiveness`), withdraws `positionData.withdrawalRequestAmount` of collateral currency.\n     */\n    // TODO: Decide whether to fold this functionality into withdraw() method above.\n    function withdrawPassedRequest() external onlyPreExpiration() fees() {\n        PositionData storage positionData = _getPositionData(msg.sender);\n        require(positionData.requestPassTimestamp <= getCurrentTime());\n\n        // If withdrawal request amount is > position collateral, then withdraw the full collateral amount.\n        FixedPoint.Unsigned memory amountToWithdraw = positionData.withdrawalRequestAmount;\n        if (positionData.withdrawalRequestAmount.isGreaterThan(_getCollateral(positionData.rawCollateral))) {\n            amountToWithdraw = _getCollateral(positionData.rawCollateral);\n        }\n\n        _removeCollateral(positionData.rawCollateral, amountToWithdraw);\n        _removeCollateral(rawTotalPositionCollateral, amountToWithdraw);\n\n        // Transfer approved withdrawal amount from the contract to the caller.\n        collateralCurrency.safeTransfer(msg.sender, amountToWithdraw.rawValue);\n\n        emit RequestWithdrawalExecuted(msg.sender, amountToWithdraw.rawValue);\n\n        // Reset withdrawal request\n        positionData.withdrawalRequestAmount = FixedPoint.fromUnscaledUint(0);\n        positionData.requestPassTimestamp = 0;\n    }\n\n    /**\n     * @notice Cancels a pending withdrawal request.\n     */\n    function cancelWithdrawal() external onlyPreExpiration() {\n        PositionData storage positionData = _getPositionData(msg.sender);\n        require(positionData.requestPassTimestamp != 0);\n\n        emit RequestWithdrawalCanceled(msg.sender, positionData.withdrawalRequestAmount.rawValue);\n\n        // Reset withdrawal request\n        positionData.requestPassTimestamp = 0;\n        positionData.withdrawalRequestAmount = FixedPoint.fromUnscaledUint(0);\n    }\n\n    /**\n     * @notice Pulls `collateralAmount` into the sponsor's position and mints `numTokens` of `tokenCurrency`.\n     * @dev Reverts if the minting these tokens would put the position's collateralization ratio below the\n     * global collateralization ratio.\n     * @param collateralAmount is the number of collateral tokens to collateralize the position with\n     * @param numTokens is the number of tokens to mint from the position.\n     */\n    function create(FixedPoint.Unsigned memory collateralAmount, FixedPoint.Unsigned memory numTokens)\n        public\n        onlyPreExpiration()\n        fees()\n    {\n        require(_checkCollateralization(collateralAmount, numTokens));\n\n        PositionData storage positionData = positions[msg.sender];\n        require(positionData.requestPassTimestamp == 0);\n        if (positionData.tokensOutstanding.isEqual(0)) {\n            emit NewSponsor(msg.sender);\n        }\n        _addCollateral(positionData.rawCollateral, collateralAmount);\n        positionData.tokensOutstanding = positionData.tokensOutstanding.add(numTokens);\n\n        _addCollateral(rawTotalPositionCollateral, collateralAmount);\n        totalTokensOutstanding = totalTokensOutstanding.add(numTokens);\n\n        // Transfer tokens into the contract from caller and mint the caller synthetic tokens.\n        collateralCurrency.safeTransferFrom(msg.sender, address(this), collateralAmount.rawValue);\n        require(tokenCurrency.mint(msg.sender, numTokens.rawValue), \"Minting synthetic tokens failed\");\n\n        emit PositionCreated(msg.sender, collateralAmount.rawValue, numTokens.rawValue);\n    }\n\n    /**\n     * @notice Burns `numTokens` of `tokenCurrency` and sends back the proportional amount of `collateralCurrency`.\n     * @dev Can only be called by a token sponsor.\n     * @param numTokens is the number of tokens to be burnt for a commensurate amount of collateral.\n     */\n    function redeem(FixedPoint.Unsigned memory numTokens) public onlyPreExpiration() fees() {\n        PositionData storage positionData = _getPositionData(msg.sender);\n        require(positionData.requestPassTimestamp == 0);\n        require(!numTokens.isGreaterThan(positionData.tokensOutstanding));\n\n        FixedPoint.Unsigned memory fractionRedeemed = numTokens.div(positionData.tokensOutstanding);\n        FixedPoint.Unsigned memory collateralRedeemed = fractionRedeemed.mul(\n            _getCollateral(positionData.rawCollateral)\n        );\n\n        // If redemption returns all tokens the sponsor has then we can delete their position. Else, downsize.\n        if (positionData.tokensOutstanding.isEqual(numTokens)) {\n            _deleteSponsorPosition(msg.sender);\n        } else {\n            // Decrease the sponsors position size of collateral and tokens.\n            _removeCollateral(positionData.rawCollateral, collateralRedeemed);\n            positionData.tokensOutstanding = positionData.tokensOutstanding.sub(numTokens);\n\n            // Decrease the contract's collateral and tokens.\n            _removeCollateral(rawTotalPositionCollateral, collateralRedeemed);\n            totalTokensOutstanding = totalTokensOutstanding.sub(numTokens);\n        }\n\n        // Transfer collateral from contract to caller and burn callers synthetic tokens.\n        collateralCurrency.safeTransfer(msg.sender, collateralRedeemed.rawValue);\n        tokenCurrency.safeTransferFrom(msg.sender, address(this), numTokens.rawValue);\n        tokenCurrency.burn(numTokens.rawValue);\n\n        emit Redeem(msg.sender, collateralRedeemed.rawValue, numTokens.rawValue);\n    }\n\n    /**\n     * @notice After a contract has passed expiry all token holders can redeem their tokens for\n     * underlying at the prevailing price defined by the DVM from the `expire` function.\n     * @dev This Burns all tokens from the caller of `tokenCurrency` and sends back the proportional\n     * amount of `collateralCurrency`.\n     */\n    function settleExpired() external onlyPostExpiration() fees() {\n        // If the contract state is open and onlyPostExpiration passed then `expire()` has not yet been called.\n        require(contractState != ContractState.Open);\n\n        // Get the current settlement price and store it. If it is not resolved will revert.\n        if (contractState != ContractState.ExpiredPriceReceived) {\n            expiryPrice = _getOraclePrice(expirationTimestamp);\n            contractState = ContractState.ExpiredPriceReceived;\n        }\n\n        // Get caller's tokens balance and calculate amount of underlying entitled to them.\n        FixedPoint.Unsigned memory tokensToRedeem = FixedPoint.Unsigned(tokenCurrency.balanceOf(msg.sender));\n        FixedPoint.Unsigned memory totalRedeemableCollateral = tokensToRedeem.mul(expiryPrice);\n\n        // If the caller is a sponsor with outstanding collateral they are also entitled to their excess collateral after their debt.\n        PositionData storage positionData = positions[msg.sender];\n        if (_getCollateral(positionData.rawCollateral).isGreaterThan(0)) {\n            // Calculate the underlying entitled to a token sponsor. This is collateral - debt in underlying.\n            FixedPoint.Unsigned memory tokenDebtValueInCollateral = positionData.tokensOutstanding.mul(expiryPrice);\n            FixedPoint.Unsigned memory positionCollateral = _getCollateral(positionData.rawCollateral);\n\n            // If the debt is greater than the remaining collateral, they cannot redeem anything.\n            FixedPoint.Unsigned memory positionRedeemableCollateral = tokenDebtValueInCollateral.isLessThan(\n                positionCollateral\n            )\n                ? positionCollateral.sub(tokenDebtValueInCollateral)\n                : FixedPoint.Unsigned(0);\n\n            // Add the number of redeemable tokens for the sponsor to their total redeemable collateral.\n            totalRedeemableCollateral = totalRedeemableCollateral.add(positionRedeemableCollateral);\n\n            // Reset the position state as all the value has been removed after settlement.\n            delete positions[msg.sender];\n        }\n\n        // Take the min of the remaining collateral and the collateral \"owed\". If the contract is undercapitalized,\n        // the caller will get as much collateral as the contract can pay out.\n        FixedPoint.Unsigned memory payout = FixedPoint.min(\n            _getCollateral(rawTotalPositionCollateral),\n            totalRedeemableCollateral\n        );\n\n        // Decrement total contract collateral and outstanding debt.\n        _removeCollateral(rawTotalPositionCollateral, payout);\n        totalTokensOutstanding = totalTokensOutstanding.sub(tokensToRedeem);\n\n        // Transfer tokens & collateral and burn the redeemed tokens.\n        collateralCurrency.safeTransfer(msg.sender, payout.rawValue);\n        tokenCurrency.safeTransferFrom(msg.sender, address(this), tokensToRedeem.rawValue);\n        tokenCurrency.burn(tokensToRedeem.rawValue);\n\n        emit SettleExpiredPosition(msg.sender, payout.rawValue, tokensToRedeem.rawValue);\n    }\n\n    /****************************************\n     *        GLOBAL STATE FUNCTIONS        *\n     ****************************************/\n\n    /**\n     * @notice Locks contract state in expired and requests oracle price.\n     * @dev this function can only be called once the contract is expired and cant be re-called\n     * due to the state modifiers applied on it.\n     */\n    function expire() external onlyPostExpiration() onlyOpenState() fees() {\n        contractState = ContractState.ExpiredPriceRequested;\n\n        // The final fee for this request is paid out of the contract rather than by the caller.\n        _payFinalFees(address(this), _computeFinalFees());\n        _requestOraclePrice(expirationTimestamp);\n\n        emit ContractExpired(msg.sender);\n    }\n\n    /**\n     * @notice Premature contract settlement under emergency circumstances.\n     * @dev Only the governor can call this function as they are permissioned within the `FinancialContractAdmin`.\n     * Upon emergency shutdown, the contract settlement time is set to the shutdown time. This enables withdrawal\n     * to occur via the standard `settleExpired` function. Contract state is set to `ExpiredPriceRequested`\n     * which prevents re-entry into this function or the `expire` function. No fees are paid when calling\n     * `emergencyShutdown` as the governor who would call the function would also receive the fees.\n     */\n    // TODO(#969) Remove once prettier-plugin-solidity can handle the \"override\" keyword\n    // prettier-ignore\n    function emergencyShutdown() external override onlyPreExpiration() onlyOpenState() {\n        require(msg.sender == _getFinancialContractsAdminAddress());\n\n        contractState = ContractState.ExpiredPriceRequested;\n        // Expiratory time now becomes the current time (emergency shutdown time).\n        // Price requested at this time stamp. `settleExpired` can now withdraw at this timestamp.\n        uint oldExpirationTimestamp = expirationTimestamp;\n        expirationTimestamp = getCurrentTime();\n        _requestOraclePrice(expirationTimestamp);\n\n        emit EmergencyShutdown(msg.sender, oldExpirationTimestamp, expirationTimestamp);\n    }\n\n    // TODO is this how we want this function to be implemented?\n    // TODO(#969) Remove once prettier-plugin-solidity can handle the \"override\" keyword\n    // prettier-ignore\n    function remargin() external override onlyPreExpiration() {\n        return;\n    }\n\n    /**\n     * @notice Accessor method for a sponsor's collateral.\n     * @dev This is necessary because the struct returned by the positions() method shows\n     * rawCollateral, which isn't a user-readable value.\n     * @param sponsor address whose collateral amount is retrieved.\n     */\n    function getCollateral(address sponsor) external view returns (FixedPoint.Unsigned memory) {\n        // Note: do a direct access to avoid the validity check.\n        return _getCollateral(positions[sponsor].rawCollateral);\n    }\n\n    /**\n     * @notice Accessor method for the total collateral stored within the PricelessPositionManager.\n     */\n    function totalPositionCollateral() external view returns (FixedPoint.Unsigned memory) {\n        return _getCollateral(rawTotalPositionCollateral);\n    }\n\n    /**\n     * @dev This overrides pfc() so the PricelessPositionManager can report its profit from corruption.\n     */\n    // TODO(#969) Remove once prettier-plugin-solidity can handle the \"override\" keyword\n    // prettier-ignore\n    function pfc() public virtual override view returns (FixedPoint.Unsigned memory) {\n        return _getCollateral(rawTotalPositionCollateral);\n    }\n\n    /****************************************\n     *          INTERNAL FUNCTIONS         *\n     ****************************************/\n\n    function _reduceSponsorPosition(\n        address sponsor,\n        FixedPoint.Unsigned memory tokensToRemove,\n        FixedPoint.Unsigned memory collateralToRemove,\n        FixedPoint.Unsigned memory withdrawalAmountToRemove\n    ) internal {\n        PositionData storage positionData = _getPositionData(sponsor);\n\n        // If the entire position is being removed, delete it instead.\n        if (\n            tokensToRemove.isEqual(positionData.tokensOutstanding) &&\n            _getCollateral(positionData.rawCollateral).isEqual(collateralToRemove)\n        ) {\n            _deleteSponsorPosition(sponsor);\n            return;\n        }\n\n        // Decrease the sponsor's collateral, tokens, and withdrawal request.\n        _removeCollateral(positionData.rawCollateral, collateralToRemove);\n        positionData.tokensOutstanding = positionData.tokensOutstanding.sub(tokensToRemove);\n        positionData.withdrawalRequestAmount = positionData.withdrawalRequestAmount.sub(withdrawalAmountToRemove);\n\n        // Decrease the contract's global counters of collateral and tokens.\n        _removeCollateral(rawTotalPositionCollateral, collateralToRemove);\n        totalTokensOutstanding = totalTokensOutstanding.sub(tokensToRemove);\n    }\n\n    function _deleteSponsorPosition(address sponsor) internal {\n        PositionData storage positionToLiquidate = _getPositionData(sponsor);\n\n        // Remove the collateral and outstanding from the overall total position.\n        rawTotalPositionCollateral = rawTotalPositionCollateral.sub(positionToLiquidate.rawCollateral);\n        totalTokensOutstanding = totalTokensOutstanding.sub(positionToLiquidate.tokensOutstanding);\n\n        // Reset the sponsors position to have zero outstanding and collateral.\n        delete positions[sponsor];\n    }\n\n    function _getPositionData(address sponsor)\n        internal\n        view\n        onlyCollateralizedPosition(sponsor)\n        returns (PositionData storage)\n    {\n        return positions[sponsor];\n    }\n\n    function _getIdentifierWhitelist() internal view returns (IdentifierWhitelistInterface) {\n        bytes32 identifierWhitelistInterface = \"IdentifierWhitelist\";\n        return IdentifierWhitelistInterface(finder.getImplementationAddress(identifierWhitelistInterface));\n    }\n\n    function _getOracle() internal view returns (OracleInterface) {\n        bytes32 oracleInterface = \"Oracle\";\n        return OracleInterface(finder.getImplementationAddress(oracleInterface));\n    }\n\n    function _getStoreAddress() internal view returns (address) {\n        bytes32 storeInterface = \"Store\";\n        return finder.getImplementationAddress(storeInterface);\n    }\n\n    function _getFinancialContractsAdminAddress() internal view returns (address) {\n        bytes32 financialContractsAdminInterface = \"FinancialContractsAdmin\";\n        return finder.getImplementationAddress(financialContractsAdminInterface);\n    }\n\n    function _requestOraclePrice(uint requestedTime) internal {\n        OracleInterface oracle = _getOracle();\n        oracle.requestPrice(priceIdentifer, requestedTime);\n    }\n\n    function _getOraclePrice(uint requestedTime) internal view returns (FixedPoint.Unsigned memory) {\n        // Create an instance of the oracle and get the price. If the price is not resolved revert.\n        OracleInterface oracle = _getOracle();\n        require(oracle.hasPrice(priceIdentifer, requestedTime), \"Can only get a price once the DVM has resolved\");\n        int oraclePrice = oracle.getPrice(priceIdentifer, requestedTime);\n\n        // For now we don't want to deal with negative prices in positions.\n        if (oraclePrice < 0) {\n            oraclePrice = 0;\n        }\n        return FixedPoint.Unsigned(_safeUintCast(oraclePrice));\n    }\n\n    function _checkPositionCollateralization(PositionData storage positionData) private view returns (bool) {\n        return _checkCollateralization(_getCollateral(positionData.rawCollateral), positionData.tokensOutstanding);\n    }\n\n    function _checkCollateralization(FixedPoint.Unsigned memory collateral, FixedPoint.Unsigned memory numTokens)\n        private\n        view\n        returns (bool)\n    {\n        FixedPoint.Unsigned memory global = _getCollateralizationRatio(\n            _getCollateral(rawTotalPositionCollateral),\n            totalTokensOutstanding\n        );\n        FixedPoint.Unsigned memory thisChange = _getCollateralizationRatio(collateral, numTokens);\n        return !global.isGreaterThan(thisChange);\n    }\n\n    function _getCollateralizationRatio(FixedPoint.Unsigned memory collateral, FixedPoint.Unsigned memory numTokens)\n        private\n        pure\n        returns (FixedPoint.Unsigned memory ratio)\n    {\n        if (!numTokens.isGreaterThan(0)) {\n            return FixedPoint.fromUnscaledUint(0);\n        } else {\n            return collateral.div(numTokens);\n        }\n    }\n\n    function _safeUintCast(int value) private pure returns (uint result) {\n        require(value >= 0, \"Uint underflow\");\n        return uint(value);\n    }\n\n    /**\n     * @dev These internal functions are supposed to act identically to modifiers, but re-used modifiers\n     * unnecessarily increase contract bytecode size.\n     * source: https://blog.polymath.network/solidity-tips-and-tricks-to-save-gas-and-reduce-bytecode-size-c44580b218e6\n     */\n    function _onlyOpenState() internal view {\n        require(contractState == ContractState.Open);\n    }\n\n    function _onlyPreExpiration() internal view {\n        require(getCurrentTime() < expirationTimestamp);\n    }\n\n    function _onlyPostExpiration() internal view {\n        require(getCurrentTime() >= expirationTimestamp);\n    }\n\n    function _onlyCollateralizedPosition(address sponsor) internal view {\n        require(_getCollateral(positions[sponsor].rawCollateral).isGreaterThan(0));\n    }\n}\n",
  "sourcePath": "/home/opz/Projects/SynFiat-update/ui/contracts/uma-contracts/financial-templates/implementation/PricelessPositionManager.sol",
  "compiler": {
    "name": "solc",
    "version": "0.6.4+commit.1dca32f3.Emscripten.clang"
  },
  "schemaVersion": "3.2.0",
  "updatedAt": "2020-06-29T17:20:03.126Z",
  "devdoc": {
    "methods": {
      "constructor": {
        "params": {
          "_collateralAddress": "ERC20 token used as collateral for all positions.",
          "_expirationTimestamp": "unix timestamp of when the contract will expire.",
          "_finderAddress": "UMA protocol Finder used to discover other protocol contracts.",
          "_isTest": "whether this contract is being constructed for the purpose of running tests.",
          "_priceIdentifier": "registered in the DVM for the synthetic.",
          "_syntheticName": "name for the token contract that will be deployed.",
          "_syntheticSymbol": "symbol for the token contract that will be deployed.",
          "_tokenFactoryAddress": "deployed UMA token factory to create the synthetic token.",
          "_withdrawalLiveness": "liveness delay, in seconds, for pending withdrawals."
        }
      },
      "create((uint256),(uint256))": {
        "details": "Reverts if the minting these tokens would put the position's collateralization ratio below the global collateralization ratio.",
        "params": {
          "collateralAmount": "is the number of collateral tokens to collateralize the position with",
          "numTokens": "is the number of tokens to mint from the position."
        }
      },
      "deposit((uint256))": {
        "details": "Increases the collateralization level of a position after creation.",
        "params": {
          "collateralAmount": "total amount of collateral tokens to be sent to the sponsor's position."
        }
      },
      "emergencyShutdown()": {
        "details": "Only the governor can call this function as they are permissioned within the `FinancialContractAdmin`. Upon emergency shutdown, the contract settlement time is set to the shutdown time. This enables withdrawal to occur via the standard `settleExpired` function. Contract state is set to `ExpiredPriceRequested` which prevents re-entry into this function or the `expire` function. No fees are paid when calling `emergencyShutdown` as the governor who would call the function would also receive the fees."
      },
      "expire()": {
        "details": "this function can only be called once the contract is expired and cant be re-called due to the state modifiers applied on it."
      },
      "getCollateral(address)": {
        "details": "This is necessary because the struct returned by the positions() method shows rawCollateral, which isn't a user-readable value.",
        "params": {
          "sponsor": "address whose collateral amount is retrieved."
        }
      },
      "payFees()": {
        "details": "These must be paid periodically for the life of the contract. If the contract has not paid its regular fee in a week or mre then a late penalty is applied which is sent to the caller.",
        "returns": {
          "totalPaid": "The amount of collateral that the contract paid (sum of the amount paid to the Store and the caller)."
        }
      },
      "pfc()": {
        "details": "This overrides pfc() so the PricelessPositionManager can report its profit from corruption."
      },
      "redeem((uint256))": {
        "details": "Can only be called by a token sponsor.",
        "params": {
          "numTokens": "is the number of tokens to be burnt for a commensurate amount of collateral."
        }
      },
      "requestWithdrawal((uint256))": {
        "details": "The request will be pending for `withdrawalLiveness`, during which the position can be liquidated.",
        "params": {
          "collateralAmount": "the amount of collateral requested to withdraw"
        }
      },
      "setCurrentTime(uint256)": {
        "details": "Will revert if not running in test mode."
      },
      "settleExpired()": {
        "details": "This Burns all tokens from the caller of `tokenCurrency` and sends back the proportional amount of `collateralCurrency`."
      },
      "transfer(address)": {
        "details": "Transferring positions can only occur if the recipient does not already have a position.",
        "params": {
          "newSponsorAddress": "is the address to which the position will be transferred."
        }
      },
      "withdraw((uint256))": {
        "details": "Reverts if the withdrawal puts this position's collateralization ratio below the global collateralization ratio. In that case, use `requestWithdrawawal`.",
        "params": {
          "collateralAmount": "is the amount of collateral to withdraw"
        }
      }
    },
    "title": "Financial contract with priceless position management."
  },
  "userdoc": {
    "methods": {
      "cancelWithdrawal()": {
        "notice": "Cancels a pending withdrawal request."
      },
      "constructor": "Construct the PricelessPositionManager",
      "create((uint256),(uint256))": {
        "notice": "Pulls `collateralAmount` into the sponsor's position and mints `numTokens` of `tokenCurrency`."
      },
      "deposit((uint256))": {
        "notice": "Transfers `collateralAmount` of `collateralCurrency` into the sponsor's position."
      },
      "emergencyShutdown()": {
        "notice": "Premature contract settlement under emergency circumstances."
      },
      "expire()": {
        "notice": "Locks contract state in expired and requests oracle price."
      },
      "getCollateral(address)": {
        "notice": "Accessor method for a sponsor's collateral."
      },
      "getCurrentTime()": {
        "notice": "Gets the current time. Will return the last time set in `setCurrentTime` if running in test mode. Otherwise, it will return the block timestamp."
      },
      "payFees()": {
        "notice": "Pays UMA DVM regular fees to the Store contract."
      },
      "redeem((uint256))": {
        "notice": "Burns `numTokens` of `tokenCurrency` and sends back the proportional amount of `collateralCurrency`."
      },
      "requestWithdrawal((uint256))": {
        "notice": "Starts a withdrawal request that, if passed, allows the sponsor to withdraw `collateralAmount` from their position."
      },
      "setCurrentTime(uint256)": {
        "notice": "Sets the current time."
      },
      "settleExpired()": {
        "notice": "After a contract has passed expiry all token holders can redeem their tokens for underlying at the prevailing price defined by the DVM from the `expire` function."
      },
      "totalPositionCollateral()": {
        "notice": "Accessor method for the total collateral stored within the PricelessPositionManager."
      },
      "transfer(address)": {
        "notice": "Transfers ownership of the caller's current position to `newSponsorAddress`."
      },
      "withdraw((uint256))": {
        "notice": "Transfers `collateralAmount` of `collateralCurrency` from the sponsor's position to the sponsor."
      },
      "withdrawPassedRequest()": {
        "notice": "After a passed withdrawal request (i.e., by a call to `requestWithdrawal` and waiting `withdrawalLiveness`), withdraws `positionData.withdrawalRequestAmount` of collateral currency."
      }
    },
    "notice": "Handles positions for multiple sponsors in an optimistic (i.e., priceless) way without relying on a price feed. On construction, deploys a new ERC20, managed by this contract, that is the synthetic token."
  }
}