{
  "contractName": "PricelessPositionManager",
  "abi": [
    {
      "inputs": [
        {
          "internalType": "uint256",
          "name": "_expirationTimestamp",
          "type": "uint256"
        },
        {
          "internalType": "uint256",
          "name": "_withdrawalLiveness",
          "type": "uint256"
        },
        {
          "internalType": "address",
          "name": "_collateralAddress",
          "type": "address"
        },
        {
          "internalType": "address",
          "name": "_finderAddress",
          "type": "address"
        },
        {
          "internalType": "bytes32",
          "name": "_priceIdentifier",
          "type": "bytes32"
        },
        {
          "internalType": "string",
          "name": "_syntheticName",
          "type": "string"
        },
        {
          "internalType": "string",
          "name": "_syntheticSymbol",
          "type": "string"
        },
        {
          "internalType": "address",
          "name": "_tokenFactoryAddress",
          "type": "address"
        },
        {
          "components": [
            {
              "internalType": "uint256",
              "name": "rawValue",
              "type": "uint256"
            }
          ],
          "internalType": "struct FixedPoint.Unsigned",
          "name": "_minSponsorTokens",
          "type": "tuple"
        },
        {
          "internalType": "address",
          "name": "_timerAddress",
          "type": "address"
        }
      ],
      "stateMutability": "nonpayable",
      "type": "constructor"
    },
    {
      "anonymous": false,
      "inputs": [
        {
          "indexed": true,
          "internalType": "address",
          "name": "caller",
          "type": "address"
        }
      ],
      "name": "ContractExpired",
      "type": "event"
    },
    {
      "anonymous": false,
      "inputs": [
        {
          "indexed": true,
          "internalType": "address",
          "name": "sponsor",
          "type": "address"
        },
        {
          "indexed": true,
          "internalType": "uint256",
          "name": "collateralAmount",
          "type": "uint256"
        }
      ],
      "name": "Deposit",
      "type": "event"
    },
    {
      "anonymous": false,
      "inputs": [
        {
          "indexed": true,
          "internalType": "address",
          "name": "caller",
          "type": "address"
        },
        {
          "indexed": false,
          "internalType": "uint256",
          "name": "originalExpirationTimestamp",
          "type": "uint256"
        },
        {
          "indexed": false,
          "internalType": "uint256",
          "name": "shutdownTimestamp",
          "type": "uint256"
        }
      ],
      "name": "EmergencyShutdown",
      "type": "event"
    },
    {
      "anonymous": false,
      "inputs": [
        {
          "indexed": true,
          "internalType": "address",
          "name": "sponsor",
          "type": "address"
        }
      ],
      "name": "EndedSponsorPosition",
      "type": "event"
    },
    {
      "anonymous": false,
      "inputs": [
        {
          "indexed": true,
          "internalType": "uint256",
          "name": "amount",
          "type": "uint256"
        }
      ],
      "name": "FinalFeesPaid",
      "type": "event"
    },
    {
      "anonymous": false,
      "inputs": [
        {
          "indexed": true,
          "internalType": "address",
          "name": "sponsor",
          "type": "address"
        }
      ],
      "name": "NewSponsor",
      "type": "event"
    },
    {
      "anonymous": false,
      "inputs": [
        {
          "indexed": true,
          "internalType": "address",
          "name": "sponsor",
          "type": "address"
        },
        {
          "indexed": true,
          "internalType": "uint256",
          "name": "collateralAmount",
          "type": "uint256"
        },
        {
          "indexed": true,
          "internalType": "uint256",
          "name": "tokenAmount",
          "type": "uint256"
        }
      ],
      "name": "PositionCreated",
      "type": "event"
    },
    {
      "anonymous": false,
      "inputs": [
        {
          "indexed": true,
          "internalType": "address",
          "name": "sponsor",
          "type": "address"
        },
        {
          "indexed": true,
          "internalType": "uint256",
          "name": "collateralAmount",
          "type": "uint256"
        },
        {
          "indexed": true,
          "internalType": "uint256",
          "name": "tokenAmount",
          "type": "uint256"
        }
      ],
      "name": "Redeem",
      "type": "event"
    },
    {
      "anonymous": false,
      "inputs": [
        {
          "indexed": true,
          "internalType": "uint256",
          "name": "regularFee",
          "type": "uint256"
        },
        {
          "indexed": true,
          "internalType": "uint256",
          "name": "lateFee",
          "type": "uint256"
        }
      ],
      "name": "RegularFeesPaid",
      "type": "event"
    },
    {
      "anonymous": false,
      "inputs": [
        {
          "indexed": true,
          "internalType": "address",
          "name": "oldSponsor",
          "type": "address"
        }
      ],
      "name": "RequestTransferPosition",
      "type": "event"
    },
    {
      "anonymous": false,
      "inputs": [
        {
          "indexed": true,
          "internalType": "address",
          "name": "oldSponsor",
          "type": "address"
        }
      ],
      "name": "RequestTransferPositionCanceled",
      "type": "event"
    },
    {
      "anonymous": false,
      "inputs": [
        {
          "indexed": true,
          "internalType": "address",
          "name": "oldSponsor",
          "type": "address"
        },
        {
          "indexed": true,
          "internalType": "address",
          "name": "newSponsor",
          "type": "address"
        }
      ],
      "name": "RequestTransferPositionExecuted",
      "type": "event"
    },
    {
      "anonymous": false,
      "inputs": [
        {
          "indexed": true,
          "internalType": "address",
          "name": "sponsor",
          "type": "address"
        },
        {
          "indexed": true,
          "internalType": "uint256",
          "name": "collateralAmount",
          "type": "uint256"
        }
      ],
      "name": "RequestWithdrawal",
      "type": "event"
    },
    {
      "anonymous": false,
      "inputs": [
        {
          "indexed": true,
          "internalType": "address",
          "name": "sponsor",
          "type": "address"
        },
        {
          "indexed": true,
          "internalType": "uint256",
          "name": "collateralAmount",
          "type": "uint256"
        }
      ],
      "name": "RequestWithdrawalCanceled",
      "type": "event"
    },
    {
      "anonymous": false,
      "inputs": [
        {
          "indexed": true,
          "internalType": "address",
          "name": "sponsor",
          "type": "address"
        },
        {
          "indexed": true,
          "internalType": "uint256",
          "name": "collateralAmount",
          "type": "uint256"
        }
      ],
      "name": "RequestWithdrawalExecuted",
      "type": "event"
    },
    {
      "anonymous": false,
      "inputs": [
        {
          "indexed": true,
          "internalType": "address",
          "name": "caller",
          "type": "address"
        },
        {
          "indexed": true,
          "internalType": "uint256",
          "name": "collateralReturned",
          "type": "uint256"
        },
        {
          "indexed": true,
          "internalType": "uint256",
          "name": "tokensBurned",
          "type": "uint256"
        }
      ],
      "name": "SettleExpiredPosition",
      "type": "event"
    },
    {
      "anonymous": false,
      "inputs": [
        {
          "indexed": true,
          "internalType": "address",
          "name": "sponsor",
          "type": "address"
        },
        {
          "indexed": true,
          "internalType": "uint256",
          "name": "collateralAmount",
          "type": "uint256"
        }
      ],
      "name": "Withdrawal",
      "type": "event"
    },
    {
      "inputs": [],
      "name": "collateralCurrency",
      "outputs": [
        {
          "internalType": "contract IERC20",
          "name": "",
          "type": "address"
        }
      ],
      "stateMutability": "view",
      "type": "function"
    },
    {
      "inputs": [],
      "name": "contractState",
      "outputs": [
        {
          "internalType": "enum PricelessPositionManager.ContractState",
          "name": "",
          "type": "uint8"
        }
      ],
      "stateMutability": "view",
      "type": "function"
    },
    {
      "inputs": [],
      "name": "cumulativeFeeMultiplier",
      "outputs": [
        {
          "internalType": "uint256",
          "name": "rawValue",
          "type": "uint256"
        }
      ],
      "stateMutability": "view",
      "type": "function"
    },
    {
      "inputs": [],
      "name": "expirationTimestamp",
      "outputs": [
        {
          "internalType": "uint256",
          "name": "",
          "type": "uint256"
        }
      ],
      "stateMutability": "view",
      "type": "function"
    },
    {
      "inputs": [],
      "name": "expiryPrice",
      "outputs": [
        {
          "internalType": "uint256",
          "name": "rawValue",
          "type": "uint256"
        }
      ],
      "stateMutability": "view",
      "type": "function"
    },
    {
      "inputs": [],
      "name": "finder",
      "outputs": [
        {
          "internalType": "contract FinderInterface",
          "name": "",
          "type": "address"
        }
      ],
      "stateMutability": "view",
      "type": "function"
    },
    {
      "inputs": [],
      "name": "getCurrentTime",
      "outputs": [
        {
          "internalType": "uint256",
          "name": "",
          "type": "uint256"
        }
      ],
      "stateMutability": "view",
      "type": "function"
    },
    {
      "inputs": [],
      "name": "minSponsorTokens",
      "outputs": [
        {
          "internalType": "uint256",
          "name": "rawValue",
          "type": "uint256"
        }
      ],
      "stateMutability": "view",
      "type": "function"
    },
    {
      "inputs": [],
      "name": "payRegularFees",
      "outputs": [
        {
          "components": [
            {
              "internalType": "uint256",
              "name": "rawValue",
              "type": "uint256"
            }
          ],
          "internalType": "struct FixedPoint.Unsigned",
          "name": "totalPaid",
          "type": "tuple"
        }
      ],
      "stateMutability": "nonpayable",
      "type": "function"
    },
    {
      "inputs": [],
      "name": "pfc",
      "outputs": [
        {
          "components": [
            {
              "internalType": "uint256",
              "name": "rawValue",
              "type": "uint256"
            }
          ],
          "internalType": "struct FixedPoint.Unsigned",
          "name": "",
          "type": "tuple"
        }
      ],
      "stateMutability": "view",
      "type": "function"
    },
    {
      "inputs": [
        {
          "internalType": "address",
          "name": "",
          "type": "address"
        }
      ],
      "name": "positions",
      "outputs": [
        {
          "components": [
            {
              "internalType": "uint256",
              "name": "rawValue",
              "type": "uint256"
            }
          ],
          "internalType": "struct FixedPoint.Unsigned",
          "name": "tokensOutstanding",
          "type": "tuple"
        },
        {
          "internalType": "uint256",
          "name": "withdrawalRequestPassTimestamp",
          "type": "uint256"
        },
        {
          "components": [
            {
              "internalType": "uint256",
              "name": "rawValue",
              "type": "uint256"
            }
          ],
          "internalType": "struct FixedPoint.Unsigned",
          "name": "withdrawalRequestAmount",
          "type": "tuple"
        },
        {
          "components": [
            {
              "internalType": "uint256",
              "name": "rawValue",
              "type": "uint256"
            }
          ],
          "internalType": "struct FixedPoint.Unsigned",
          "name": "rawCollateral",
          "type": "tuple"
        },
        {
          "internalType": "uint256",
          "name": "transferPositionRequestPassTimestamp",
          "type": "uint256"
        }
      ],
      "stateMutability": "view",
      "type": "function"
    },
    {
      "inputs": [],
      "name": "priceIdentifier",
      "outputs": [
        {
          "internalType": "bytes32",
          "name": "",
          "type": "bytes32"
        }
      ],
      "stateMutability": "view",
      "type": "function"
    },
    {
      "inputs": [],
      "name": "rawTotalPositionCollateral",
      "outputs": [
        {
          "internalType": "uint256",
          "name": "rawValue",
          "type": "uint256"
        }
      ],
      "stateMutability": "view",
      "type": "function"
    },
    {
      "inputs": [
        {
          "internalType": "uint256",
          "name": "time",
          "type": "uint256"
        }
      ],
      "name": "setCurrentTime",
      "outputs": [],
      "stateMutability": "nonpayable",
      "type": "function"
    },
    {
      "inputs": [],
      "name": "timerAddress",
      "outputs": [
        {
          "internalType": "address",
          "name": "",
          "type": "address"
        }
      ],
      "stateMutability": "view",
      "type": "function"
    },
    {
      "inputs": [],
      "name": "tokenCurrency",
      "outputs": [
        {
          "internalType": "contract ExpandedIERC20",
          "name": "",
          "type": "address"
        }
      ],
      "stateMutability": "view",
      "type": "function"
    },
    {
      "inputs": [],
      "name": "totalTokensOutstanding",
      "outputs": [
        {
          "internalType": "uint256",
          "name": "rawValue",
          "type": "uint256"
        }
      ],
      "stateMutability": "view",
      "type": "function"
    },
    {
      "inputs": [],
      "name": "withdrawalLiveness",
      "outputs": [
        {
          "internalType": "uint256",
          "name": "",
          "type": "uint256"
        }
      ],
      "stateMutability": "view",
      "type": "function"
    },
    {
      "inputs": [],
      "name": "requestTransferPosition",
      "outputs": [],
      "stateMutability": "nonpayable",
      "type": "function"
    },
    {
      "inputs": [
        {
          "internalType": "address",
          "name": "newSponsorAddress",
          "type": "address"
        }
      ],
      "name": "transferPositionPassedRequest",
      "outputs": [],
      "stateMutability": "nonpayable",
      "type": "function"
    },
    {
      "inputs": [],
      "name": "cancelTransferPosition",
      "outputs": [],
      "stateMutability": "nonpayable",
      "type": "function"
    },
    {
      "inputs": [
        {
          "internalType": "address",
          "name": "sponsor",
          "type": "address"
        },
        {
          "components": [
            {
              "internalType": "uint256",
              "name": "rawValue",
              "type": "uint256"
            }
          ],
          "internalType": "struct FixedPoint.Unsigned",
          "name": "collateralAmount",
          "type": "tuple"
        }
      ],
      "name": "depositTo",
      "outputs": [],
      "stateMutability": "nonpayable",
      "type": "function"
    },
    {
      "inputs": [
        {
          "components": [
            {
              "internalType": "uint256",
              "name": "rawValue",
              "type": "uint256"
            }
          ],
          "internalType": "struct FixedPoint.Unsigned",
          "name": "collateralAmount",
          "type": "tuple"
        }
      ],
      "name": "deposit",
      "outputs": [],
      "stateMutability": "nonpayable",
      "type": "function"
    },
    {
      "inputs": [
        {
          "components": [
            {
              "internalType": "uint256",
              "name": "rawValue",
              "type": "uint256"
            }
          ],
          "internalType": "struct FixedPoint.Unsigned",
          "name": "collateralAmount",
          "type": "tuple"
        }
      ],
      "name": "withdraw",
      "outputs": [
        {
          "components": [
            {
              "internalType": "uint256",
              "name": "rawValue",
              "type": "uint256"
            }
          ],
          "internalType": "struct FixedPoint.Unsigned",
          "name": "amountWithdrawn",
          "type": "tuple"
        }
      ],
      "stateMutability": "nonpayable",
      "type": "function"
    },
    {
      "inputs": [
        {
          "components": [
            {
              "internalType": "uint256",
              "name": "rawValue",
              "type": "uint256"
            }
          ],
          "internalType": "struct FixedPoint.Unsigned",
          "name": "collateralAmount",
          "type": "tuple"
        }
      ],
      "name": "requestWithdrawal",
      "outputs": [],
      "stateMutability": "nonpayable",
      "type": "function"
    },
    {
      "inputs": [],
      "name": "withdrawPassedRequest",
      "outputs": [
        {
          "components": [
            {
              "internalType": "uint256",
              "name": "rawValue",
              "type": "uint256"
            }
          ],
          "internalType": "struct FixedPoint.Unsigned",
          "name": "amountWithdrawn",
          "type": "tuple"
        }
      ],
      "stateMutability": "nonpayable",
      "type": "function"
    },
    {
      "inputs": [],
      "name": "cancelWithdrawal",
      "outputs": [],
      "stateMutability": "nonpayable",
      "type": "function"
    },
    {
      "inputs": [
        {
          "components": [
            {
              "internalType": "uint256",
              "name": "rawValue",
              "type": "uint256"
            }
          ],
          "internalType": "struct FixedPoint.Unsigned",
          "name": "collateralAmount",
          "type": "tuple"
        },
        {
          "components": [
            {
              "internalType": "uint256",
              "name": "rawValue",
              "type": "uint256"
            }
          ],
          "internalType": "struct FixedPoint.Unsigned",
          "name": "numTokens",
          "type": "tuple"
        }
      ],
      "name": "create",
      "outputs": [],
      "stateMutability": "nonpayable",
      "type": "function"
    },
    {
      "inputs": [
        {
          "components": [
            {
              "internalType": "uint256",
              "name": "rawValue",
              "type": "uint256"
            }
          ],
          "internalType": "struct FixedPoint.Unsigned",
          "name": "numTokens",
          "type": "tuple"
        }
      ],
      "name": "redeem",
      "outputs": [
        {
          "components": [
            {
              "internalType": "uint256",
              "name": "rawValue",
              "type": "uint256"
            }
          ],
          "internalType": "struct FixedPoint.Unsigned",
          "name": "amountWithdrawn",
          "type": "tuple"
        }
      ],
      "stateMutability": "nonpayable",
      "type": "function"
    },
    {
      "inputs": [],
      "name": "settleExpired",
      "outputs": [
        {
          "components": [
            {
              "internalType": "uint256",
              "name": "rawValue",
              "type": "uint256"
            }
          ],
          "internalType": "struct FixedPoint.Unsigned",
          "name": "amountWithdrawn",
          "type": "tuple"
        }
      ],
      "stateMutability": "nonpayable",
      "type": "function"
    },
    {
      "inputs": [],
      "name": "expire",
      "outputs": [],
      "stateMutability": "nonpayable",
      "type": "function"
    },
    {
      "inputs": [],
      "name": "emergencyShutdown",
      "outputs": [],
      "stateMutability": "nonpayable",
      "type": "function"
    },
    {
      "inputs": [],
      "name": "remargin",
      "outputs": [],
      "stateMutability": "nonpayable",
      "type": "function"
    },
    {
      "inputs": [
        {
          "internalType": "address",
          "name": "sponsor",
          "type": "address"
        }
      ],
      "name": "getCollateral",
      "outputs": [
        {
          "components": [
            {
              "internalType": "uint256",
              "name": "rawValue",
              "type": "uint256"
            }
          ],
          "internalType": "struct FixedPoint.Unsigned",
          "name": "collateralAmount",
          "type": "tuple"
        }
      ],
      "stateMutability": "view",
      "type": "function"
    },
    {
      "inputs": [],
      "name": "totalPositionCollateral",
      "outputs": [
        {
          "components": [
            {
              "internalType": "uint256",
              "name": "rawValue",
              "type": "uint256"
            }
          ],
          "internalType": "struct FixedPoint.Unsigned",
          "name": "totalCollateral",
          "type": "tuple"
        }
      ],
      "stateMutability": "view",
      "type": "function"
    }
  ],
  "bytecode": "0x60806040523480156200001157600080fd5b506040516200489938038062004899833981016040819052620000349162000629565b60008054600160a01b6001600160a01b03199091166001600160a01b0384161760ff60a01b19161790558787826200006b620002e9565b6200007e6001600160e01b036200031716565b600180546001600160a01b038086166001600160a01b0319928316179092556002805492851692909116919091179055620000c16001600160e01b036200032616565b600381905550620000de6001620003d060201b620027ba1760201c565b51600455620000f56001600160e01b036200040f16565b506200010c9150506001600160e01b03620002e916565b6200011f6001600160e01b036200031716565b620001326001600160e01b036200032616565b8a116200015c5760405162461bcd60e51b8152600401620001539062000786565b60405180910390fd5b6200016f6001600160e01b036200042416565b6001600160a01b03166390978d1b876040518263ffffffff1660e01b81526004016200019c919062000740565b60206040518083038186803b158015620001b557600080fd5b505afa158015620001ca573d6000803e3d6000fd5b505050506040513d601f19601f82011682018060405250810190620001f09190620005ee565b6200020f5760405162461bcd60e51b81526004016200015390620007fe565b600b8a9055600c89905560405163e8a0aed360e01b815283906001600160a01b0382169063e8a0aed3906200024e908990899060129060040162000749565b602060405180830381600087803b1580156200026957600080fd5b505af11580156200027e573d6000803e3d6000fd5b505050506040513d601f19601f82011682018060405250810190620002a49190620005cf565b600980546001600160a01b0319166001600160a01b0392909216919091179055508151600d55600a869055620002d96200040f565b50505050505050505050620008df565b600054600160a01b900460ff16620003155760405162461bcd60e51b8152600401620001539062000835565b565b6000805460ff60a01b19169055565b600080546001600160a01b031615620003ca576000809054906101000a90046001600160a01b03166001600160a01b03166329cb924d6040518163ffffffff1660e01b815260040160206040518083038186803b1580156200038757600080fd5b505afa1580156200039c573d6000803e3d6000fd5b505050506040513d601f19601f82011682018060405250810190620003c2919062000610565b9050620003cd565b50425b90565b620003da62000519565b604051806020016040528062000407670de0b6b3a764000085620004d060201b620033171790919060201c565b905292915050565b6000805460ff60a01b1916600160a01b179055565b6002546040516302abf57960e61b81526000916001600160a01b03169063aafd5e409062000477907f4964656e74696669657257686974656c697374000000000000000000000000009060040162000740565b60206040518083038186803b1580156200049057600080fd5b505afa158015620004a5573d6000803e3d6000fd5b505050506040513d601f19601f82011682018060405250810190620004cb9190620005cf565b905090565b600082620004e15750600062000513565b82820282848281620004ef57fe5b0414620005105760405162461bcd60e51b81526004016200015390620007bd565b90505b92915050565b6040518060200160405280600081525090565b80516200051381620008c6565b600082601f8301126200054a578081fd5b81516001600160401b0381111562000560578182fd5b62000575601f8201601f19166020016200086c565b91508082528360208285010111156200058d57600080fd5b620005a081602084016020860162000893565b5092915050565b600060208284031215620005b9578081fd5b620005c560206200086c565b9151825250919050565b600060208284031215620005e1578081fd5b81516200051081620008c6565b60006020828403121562000600578081fd5b8151801515811462000510578182fd5b60006020828403121562000622578081fd5b5051919050565b6000806000806000806000806000806101408b8d03121562000649578586fd5b8a51995060208b01519850620006638c60408d016200052c565b9750620006748c60608d016200052c565b60808c015160a08d015191985096506001600160401b038082111562000698578687fd5b620006a68e838f0162000539565b965060c08d0151915080821115620006bc578586fd5b50620006cb8d828e0162000539565b945050620006dd8c60e08d016200052c565b9250620006ef8c6101008d01620005a7565b9150620007018c6101208d016200052c565b90509295989b9194979a5092959850565b600081518084526200072c81602086016020860162000893565b601f01601f19169290920160200192915050565b90815260200190565b6000606082526200075e606083018662000712565b828103602084015262000772818662000712565b91505060ff83166040830152949350505050565b6020808252601c908201527f496e76616c69642065787069726174696f6e20696e2066757475726500000000604082015260600190565b60208082526021908201527f536166654d6174683a206d756c7469706c69636174696f6e206f766572666c6f6040820152607760f81b606082015260800190565b6020808252601c908201527f556e737570706f72746564207072696365206964656e74696669657200000000604082015260600190565b6020808252601f908201527f5265656e7472616e637947756172643a207265656e7472616e742063616c6c00604082015260600190565b6040518181016001600160401b03811182821017156200088b57600080fd5b604052919050565b60005b83811015620008b057818101518382015260200162000896565b83811115620008c0576000848401525b50505050565b6001600160a01b0381168114620008dc57600080fd5b50565b613faa80620008ef6000396000f3fe608060405234801561001057600080fd5b50600436106102415760003560e01c80637048594b116101455780639ff4dea8116100bd578063bda02e771161008c578063dd0eef3d11610071578063dd0eef3d14610404578063edfa9a9b1461040c578063fcccedc71461041457610241565b8063bda02e77146103e9578063d1e92c11146103f157610241565b80639ff4dea8146103be578063b795f0d4146103c6578063b9a3c84c146103ce578063bc121630146103d657610241565b80638c382eb21161011457806397523661116100f9578063975236611461039b5780639b56d6c9146103a35780639f43ddd2146103b657610241565b80638c382eb21461038b57806392120aec1461039357610241565b80637048594b1461035e57806379599f961461036657806381a10ae11461036e57806385209ee01461037657610241565b80633403c2fc116101d857806343e4771b116101a75780635617151c1161018c5780635617151c146103255780635f1af1ca146103385780636ba2f9921461034b57610241565b806343e4771b146102f957806355f575101461030157610241565b80633403c2fc146102ce57806336980f58146102d65780633cb6ce83146102de5780633ee7a5ce146102e657610241565b80632261128011610214578063226112801461029657806322f8e5661461029e57806329cb924d146102b157806333a46ca2146102b957610241565b80630c9229ca146102465780630de15fd91461026457806318928a0c146102795780631c39c38d1461028e575b600080fd5b61024e61041c565b60405161025b91906137f0565b60405180910390f35b61026c610422565b60405161025b919061372a565b61028c61028736600461360c565b61043e565b005b61026c610553565b61028c61056f565b61028c6102ac3660046136f6565b610617565b61024e6106c4565b6102c161078f565b60405161025b9190613eba565b61028c61090f565b61028c610a25565b6102c1610b1d565b6102c16102f4366004613679565b610e6a565b6102c1610f6a565b61031461030f3660046135d4565b610f98565b60405161025b959493929190613ec4565b61028c6103333660046135d4565b610fe5565b6102c1610346366004613679565b61121a565b61028c6103593660046136af565b611520565b61026c61186b565b61028c611887565b6102c161192a565b61037e611942565b60405161025b9190613807565b61024e61194b565b61024e611951565b61024e611957565b6102c16103b13660046135d4565b61195d565b61024e6119b5565b61024e6119bb565b61028c6119c1565b61026c611a60565b61028c6103e4366004613679565b611a7c565b61028c611bb7565b61028c6103ff366004613679565b611bd7565b61024e611be4565b61024e611bea565b6102c1611bf0565b60075481565b60015473ffffffffffffffffffffffffffffffffffffffff1681565b610446612069565b81610450816120ab565b610458610b1d565b506104616120ef565b610469612143565b61047a82600063ffffffff61216d16565b6104b9576040517f08c379a00000000000000000000000000000000000000000000000000000000081526004016104b0906139eb565b60405180910390fd5b60006104c484612184565b90506104d081846121b9565b50825160405173ffffffffffffffffffffffffffffffffffffffff8616907fe1fffcc4923d04b559f4d29a8bfc6cda04eb5b0d3c460751c2402c5c5cc9109c90600090a382516001546105459173ffffffffffffffffffffffffffffffffffffffff909116903390309063ffffffff6121e116565b5061054e61228a565b505050565b60005473ffffffffffffffffffffffffffffffffffffffff1681565b610577612069565b61057f6120ef565b610587612143565b600061059233612184565b90508060010154600014156105d3576040517f08c379a00000000000000000000000000000000000000000000000000000000081526004016104b090613e83565b600281015460405133907f74d8a3658feb89d1a5c335229bbbfc3bbcfaf492769feb7aa4cd2d92efeaf69190600090a361060c816122cb565b5061061561228a565b565b60005473ffffffffffffffffffffffffffffffffffffffff1661063957600080fd5b6000546040517f22f8e56600000000000000000000000000000000000000000000000000000000815273ffffffffffffffffffffffffffffffffffffffff909116906322f8e5669061068f9084906004016137f0565b600060405180830381600087803b1580156106a957600080fd5b505af11580156106bd573d6000803e3d6000fd5b5050505050565b6000805473ffffffffffffffffffffffffffffffffffffffff1615610789576000809054906101000a900473ffffffffffffffffffffffffffffffffffffffff1673ffffffffffffffffffffffffffffffffffffffff166329cb924d6040518163ffffffff1660e01b815260040160206040518083038186803b15801561074a57600080fd5b505afa15801561075e573d6000803e3d6000fd5b505050506040513d601f19601f820116820180604052508101906107829190613661565b905061078c565b50425b90565b610797613577565b61079f612069565b6107a7610b1d565b506107b06120ef565b6107b8612143565b60006107c333612184565b905080600101546000141580156107e557506107dd6106c4565b816001015411155b61081b576040517f08c379a00000000000000000000000000000000000000000000000000000000081526004016104b090613aed565b610823613577565b506040805160208082018352600284015482528251908101909252600383015482529061087190610853906122e5565b6040805160208101909152600285015481529063ffffffff61230e16565b1561089457604080516020810190915260038301548152610891906122e5565b90505b61089e8282612315565b92506108a9826122cb565b82516001546108d89173ffffffffffffffffffffffffffffffffffffffff90911690339063ffffffff61233616565b825160405133907fc86c3298cb79f486674dca87d9247e88b76146160e7d412cc59b26b14c358a6890600090a3505061078c61228a565b610917612069565b61091f612355565b6109276120ef565b61092f612143565b61093761239f565b73ffffffffffffffffffffffffffffffffffffffff163373ffffffffffffffffffffffffffffffffffffffff161461099b576040517f08c379a00000000000000000000000000000000000000000000000000000000081526004016104b090613b5b565b600580547fffffffffffffffffffffffffffffffffffffffffffffffffffffffffffffff00166001179055600b546109d16106c4565b600b8190556109df90612466565b600b5460405133917fd39eeb7157d9c446579a0893ecf9ecd87d1f466cdb270c6a189cf38ca1e30f4891610a149185916137f9565b60405180910390a25061061561228a565b610a2d612069565b610a356120ef565b610a3d612143565b6000610a4833612184565b90508060040154600014610a88576040517f08c379a00000000000000000000000000000000000000000000000000000000081526004016104b090613dde565b6000610aa4600c54610a986106c4565b9063ffffffff6124fe16565b9050600b548110610ae1576040517f08c379a00000000000000000000000000000000000000000000000000000000081526004016104b090613ca5565b6004820181905560405133907fbf457c80c8bf299d5c48272c4c1168bf87b33d83b13f0ab9aac332ce1161ed1e90600090a2505061061561228a565b610b25613577565b610b2d6120ef565b610b35612143565b6000610b3f61253d565b90506000610b4b6106c4565b9050610b55613577565b610b5d6125b4565b9050610b7081600063ffffffff6125bc16565b15610b7e5750610e62915050565b816003541415610b915750610e62915050565b610b99613577565b610ba1613577565b6003546040517f74201feb00000000000000000000000000000000000000000000000000000000815273ffffffffffffffffffffffffffffffffffffffff8716916374201feb91610bf9919088908890600401613ee8565b604080518083038186803b158015610c1057600080fd5b505afa158015610c24573d6000803e3d6000fd5b505050506040513d601f19601f82011682018060405250810190610c4891906136cb565b60038690559092509050610c62828263ffffffff6125d316565b9550610c7586600063ffffffff6125bc16565b15610c855750610e629350505050565b610c95868463ffffffff61230e16565b15610d0e57610ca2613577565b610cb2878563ffffffff61260516565b9050610cbc613577565b610cc6838361262e565b9050610cd8838263ffffffff61260516565b9250610cea828263ffffffff61260516565b9150610d06610cf9858461262e565b859063ffffffff61260516565b935084975050505b805182516040517f19b92e73d08d517d71ec46136266e4f5d526a8cd4f8501d73713cebfe4f335ef90600090a3610d45868461264c565b610d5682600063ffffffff61216d16565b15610e17578151600154610d8a9173ffffffffffffffffffffffffffffffffffffffff90911690879063ffffffff6126a816565b6001546040517f8659d23200000000000000000000000000000000000000000000000000000000815273ffffffffffffffffffffffffffffffffffffffff87811692638659d23292610de4929091169086906004016137c9565b600060405180830381600087803b158015610dfe57600080fd5b505af1158015610e12573d6000803e3d6000fd5b505050505b610e2881600063ffffffff61216d16565b15610e5c578051600154610e5c9173ffffffffffffffffffffffffffffffffffffffff90911690339063ffffffff61233616565b50505050505b61078c61228a565b610e72613577565b610e7a612069565b33610e84816120ab565b610e8c610b1d565b50610e956120ef565b610e9d612143565b6000610ea833612184565b9050610ebb84600063ffffffff61216d16565b610ef1576040517f08c379a00000000000000000000000000000000000000000000000000000000081526004016104b0906139eb565b610efb818561275a565b80516040519194509033907f7fcf532c15f0a6db0bd6d0e038bea71d30d808c7d98cb3bf7268a95bf5081b6590600090a38251600154610f5b9173ffffffffffffffffffffffffffffffffffffffff90911690339063ffffffff61233616565b50610f6461228a565b50919050565b610f72613577565b610f7a6120ef565b60408051602081019091526008548152610f93906122e5565b905090565b600660209081526000918252604091829020825180830184528154815260018201548451808501865260028401548152855194850190955260038301548452600490920154909391929085565b610fed612069565b33610ff7816120ab565b610fff6120ef565b611007612143565b61106261101460006127ba565b73ffffffffffffffffffffffffffffffffffffffff841660009081526006602090815260409182902082519182019092526003909101548152611056906122e5565b9063ffffffff6127ee16565b611098576040517f08c379a00000000000000000000000000000000000000000000000000000000081526004016104b090613c00565b60006110a333612184565b905080600401546000141580156110c557506110bd6106c4565b816004015411155b6110fb576040517f08c379a00000000000000000000000000000000000000000000000000000000081526004016104b090613b24565b6000600480830182815573ffffffffffffffffffffffffffffffffffffffff8616808452600660205260408085208654815560018088015481830155600280890154818401556003808a01548185015595549287019290925533808852838820888155918201889055918101879055938401869055929093018490559151919290917ff1a2dcf23621f1a96185c79d39a5776b5ba3dadbea70c5aa86d84c17c7e9418e9190a360405173ffffffffffffffffffffffffffffffffffffffff8416907ff60993fa76f94c9e0a803526ee6e1314814ed4d2b0d223febf1436b36897fb3790600090a260405133907fcad20625296d189a6fc6e5b39d0d544e5bd99dbda0c8f2f0ecffef3e0fbcc28290600090a25061121661228a565b5050565b611222613577565b61122a612069565b33611234816120ab565b61123c610b1d565b506112456120ef565b61124d612143565b600061125833612184565b60408051602081019091528154815290915061127b90859063ffffffff61230e16565b156112b2576040517f08c379a00000000000000000000000000000000000000000000000000000000081526004016104b09061390f565b6112ba613577565b6040805160208101909152825481526112da90869063ffffffff6127f516565b90506112e4613577565b60408051602081019091526003840154815261131090611303906122e5565b839063ffffffff61283616565b604080516020810190915284548152909150611332908763ffffffff6127ee16565b156113475761134033612879565b94506113fe565b6113518382612315565b945061135b613577565b60408051602081019091528454815261137a908863ffffffff61260516565b6040805160208101909152600d54815290915061139e90829063ffffffff6129ba16565b6113d4576040517f08c379a00000000000000000000000000000000000000000000000000000000081526004016104b0906139b4565b80518455604080516020810190915260075481526113f8908863ffffffff61260516565b51600755505b8551855160405133907fe5b754fb1abb7f01b499791d0b820ae3b6af3424ac1c59768edb53f4ec31a92990600090a4845160015461145c9173ffffffffffffffffffffffffffffffffffffffff90911690339063ffffffff61233616565b855160095461148d9173ffffffffffffffffffffffffffffffffffffffff909116903390309063ffffffff6121e116565b60095486516040517f42966c6800000000000000000000000000000000000000000000000000000000815273ffffffffffffffffffffffffffffffffffffffff909216916342966c68916114e3916004016137f0565b600060405180830381600087803b1580156114fd57600080fd5b505af1158015611511573d6000803e3d6000fd5b50505050505050610f6461228a565b611528612069565b611530610b1d565b506115396120ef565b611541612143565b336000908152600660209081526040918290208251918201909252600382015481526115a690611582908590611576906122e5565b9063ffffffff6125d316565b6040805160208101909152835481526115a1908563ffffffff6125d316565b6129c2565b806115b657506115b683836129c2565b6115ec576040517f08c379a00000000000000000000000000000000000000000000000000000000081526004016104b090613d70565b600181015415611628576040517f08c379a00000000000000000000000000000000000000000000000000000000081526004016104b090613ab6565b60408051602081019091528154815261164890600063ffffffff6125bc16565b156116d0576040805160208101909152600d54815261166e90839063ffffffff6129ba16565b6116a4576040517f08c379a00000000000000000000000000000000000000000000000000000000081526004016104b0906139b4565b60405133907ff60993fa76f94c9e0a803526ee6e1314814ed4d2b0d223febf1436b36897fb3790600090a25b6116da81846121b9565b506040805160208101909152815481526116fa908363ffffffff6125d316565b5181556040805160208101909152600754815261171d908363ffffffff6125d316565b516007558151835160405133907f4b82aa16e071a61de1a6b9aeec9edab0356331f8122c78683b469ac8e685dabc90600090a482516001546117819173ffffffffffffffffffffffffffffffffffffffff909116903390309063ffffffff6121e116565b60095482516040517f40c10f1900000000000000000000000000000000000000000000000000000000815273ffffffffffffffffffffffffffffffffffffffff909216916340c10f19916117da9133919060040161374b565b602060405180830381600087803b1580156117f457600080fd5b505af1158015611808573d6000803e3d6000fd5b505050506040513d601f19601f8201168201806040525081019061182c9190613641565b611862576040517f08c379a00000000000000000000000000000000000000000000000000000000081526004016104b090613b92565b5061121661228a565b60095473ffffffffffffffffffffffffffffffffffffffff1681565b61188f612a2e565b611897612355565b61189f610b1d565b506118a86120ef565b6118b0612143565b600580547fffffffffffffffffffffffffffffffffffffffffffffffffffffffffffffff001660011790556118ec306118e7612a71565b612b32565b6118f7600b54612466565b60405133907f18600820405d6cf356e3556301762ca32395e72d8c81494fa344835c9da3633d90600090a261061561228a565b611932613577565b61193a6120ef565b610f936125b4565b60055460ff1681565b60085481565b600d5481565b600a5481565b611965613577565b61196d6120ef565b73ffffffffffffffffffffffffffffffffffffffff8216600090815260066020908152604091829020825191820190925260039091015481526119af906122e5565b92915050565b600b5481565b600c5481565b6119c9612069565b6119d16120ef565b6119d9612143565b60006119e433612184565b9050806004015460001415611a25576040517f08c379a00000000000000000000000000000000000000000000000000000000081526004016104b0906138a3565b60405133907f2e5702420c76e041698ad7ba57a9ff5cadccf647ea8d96e6007a40b5b2662f5690600090a2600060049091015561061561228a565b60025473ffffffffffffffffffffffffffffffffffffffff1681565b611a84612069565b33611a8e816120ab565b611a966120ef565b611a9e612143565b6000611aa933612184565b9050611abc83600063ffffffff61216d16565b8015611aef5750604080516020810190915260038201548152611aef90611ae2906122e5565b849063ffffffff612cfa16565b611b25576040517f08c379a00000000000000000000000000000000000000000000000000000000081526004016104b0906139eb565b6000611b35600c54610a986106c4565b9050600b548110611b72576040517f08c379a00000000000000000000000000000000000000000000000000000000081526004016104b090613ca5565b6001820181905583516002830181905560405133907fd33b726e11d2c5d38e6702b16613df0160a07f7ba5185455ee3c45d0494fab1190600090a3505061121661228a565b611bbf612069565b611bc76120ef565b611bcf612143565b61061561228a565b611be1338261043e565b50565b60045481565b600e5481565b611bf8613577565b611c00612a2e565b611c08610b1d565b50611c116120ef565b611c19612143565b600060055460ff166002811115611c2c57fe5b1415611c64576040517f08c379a00000000000000000000000000000000000000000000000000000000081526004016104b090613da7565b600260055460ff166002811115611c7757fe5b14611cb757611c87600b54612d02565b51600e55600580547fffffffffffffffffffffffffffffffffffffffffffffffffffffffffffffff001660021790555b611cbf613577565b6040805160208101918290526009547f70a082310000000000000000000000000000000000000000000000000000000090925290819073ffffffffffffffffffffffffffffffffffffffff166370a08231611d1d336024850161372a565b60206040518083038186803b158015611d3557600080fd5b505afa158015611d49573d6000803e3d6000fd5b505050506040513d601f19601f82011682018060405250810190611d6d9190613661565b90529050611d79613577565b6040805160208101909152600e548152611d9a90839063ffffffff61283616565b336000908152600660209081526040808320815192830190915260038101548252929350611dd89190611dcc906122e5565b9063ffffffff61216d16565b15611ee757611de5613577565b6040805160208082018352600e548252825190810190925283548252611e11919063ffffffff61283616565b9050611e1b613577565b604080516020810190915260038401548152611e36906122e5565b9050611e40613577565b611e50838363ffffffff612ebe16565b611e695760405180602001604052806000815250611e79565b611e79828463ffffffff61260516565b9050611e8b858263ffffffff6125d316565b336000818152600660205260408082208281556001810183905560028101839055600381018390556004018290555192975090917fcad20625296d189a6fc6e5b39d0d544e5bd99dbda0c8f2f0ecffef3e0fbcc2829190a25050505b611eef613577565b60408051602081019091526008548152611f1290611f0c906122e5565b8461262e565b9050611f1f600882612ec5565b60408051602081019091526007548152909550611f42908563ffffffff61260516565b516007558351855160405133907f9d349c102bec959fb7f20f9a3621e015819d3ae4ed6e9afd1f56a69d5845600690600090a48451600154611fa49173ffffffffffffffffffffffffffffffffffffffff90911690339063ffffffff61233616565b8351600954611fd59173ffffffffffffffffffffffffffffffffffffffff909116903390309063ffffffff6121e116565b60095484516040517f42966c6800000000000000000000000000000000000000000000000000000000815273ffffffffffffffffffffffffffffffffffffffff909216916342966c689161202b916004016137f0565b600060405180830381600087803b15801561204557600080fd5b505af1158015612059573d6000803e3d6000fd5b505050505050505061078c61228a565b600b546120746106c4565b10610615576040517f08c379a00000000000000000000000000000000000000000000000000000000081526004016104b090613c37565b6120b481612184565b6001015415611be1576040517f08c379a00000000000000000000000000000000000000000000000000000000081526004016104b090613ab6565b60005474010000000000000000000000000000000000000000900460ff16610615576040517f08c379a00000000000000000000000000000000000000000000000000000000081526004016104b090613d39565b600080547fffffffffffffffffffffff00ffffffffffffffffffffffffffffffffffffffff169055565b6000612178826127ba565b51835111905092915050565b60008161219081612f41565b505073ffffffffffffffffffffffffffffffffffffffff16600090815260066020526040902090565b6121c1613577565b6121ce8360030183612fbb565b506121da600883612fbb565b9392505050565b612284846323b872dd60e01b85858560405160240161220293929190613798565b604080517fffffffffffffffffffffffffffffffffffffffffffffffffffffffffffffffe08184030181529190526020810180517bffffffffffffffffffffffffffffffffffffffffffffffffffffffff167fffffffff0000000000000000000000000000000000000000000000000000000090931692909217909152613039565b50505050565b600080547fffffffffffffffffffffff00ffffffffffffffffffffffffffffffffffffffff1674010000000000000000000000000000000000000000179055565b6122d560006127ba565b5160028201556000600190910155565b6122ed613577565b604080516020810190915260045481526119af90839063ffffffff61283616565b5190511190565b61231d613577565b61232a8360030183612ec5565b506121da600883612ec5565b61054e8363a9059cbb60e01b848460405160240161220292919061374b565b600060055460ff16600281111561236857fe5b14610615576040517f08c379a00000000000000000000000000000000000000000000000000000000081526004016104b090613946565b6002546040517faafd5e4000000000000000000000000000000000000000000000000000000000815260009173ffffffffffffffffffffffffffffffffffffffff169063aafd5e4090612416907f46696e616e6369616c436f6e74726163747341646d696e000000000000000000906004016137f0565b60206040518083038186803b15801561242e57600080fd5b505afa158015612442573d6000803e3d6000fd5b505050506040513d601f19601f82011682018060405250810190610f9391906135f0565b6000612470613186565b600a546040517f68ad8ae300000000000000000000000000000000000000000000000000000000815291925073ffffffffffffffffffffffffffffffffffffffff8316916368ad8ae3916124c89186906004016137f9565b600060405180830381600087803b1580156124e257600080fd5b505af11580156124f6573d6000803e3d6000fd5b505050505050565b6000828201838110156121da576040517f08c379a00000000000000000000000000000000000000000000000000000000081526004016104b09061386c565b6002546040517faafd5e4000000000000000000000000000000000000000000000000000000000815260009173ffffffffffffffffffffffffffffffffffffffff169063aafd5e4090612416907f53746f7265000000000000000000000000000000000000000000000000000000906004016137f0565b610f7a613577565b60006125c7826127ba565b51835114905092915050565b6125db613577565b60408051602081019091528251845182916125fc919063ffffffff6124fe16565b90529392505050565b61260d613577565b60408051602081019091528251845182916125fc919063ffffffff6131fd16565b612636613577565b815183511061264557816121da565b5090919050565b612654613577565b612664838363ffffffff61323f16565b905061269f6126838261267760016127ba565b9063ffffffff61260516565b604080516020810190915260045481529063ffffffff61283616565b51600455505050565b6000612739828573ffffffffffffffffffffffffffffffffffffffff1663dd62ed3e30876040518363ffffffff1660e01b81526004016126e9929190613771565b60206040518083038186803b15801561270157600080fd5b505afa158015612715573d6000803e3d6000fd5b505050506040513d601f19601f82011682018060405250810190610a989190613661565b90506122848463095ea7b360e01b858460405160240161220292919061374b565b612762613577565b61276f8360030183612ec5565b50612779836132e1565b6127af576040517f08c379a00000000000000000000000000000000000000000000000000000000081526004016104b090613bc9565b6121da600883612ec5565b6127c2613577565b6040805160208101909152806127e684670de0b6b3a764000063ffffffff61331716565b905292915050565b5190511490565b6127fd613577565b60408051602081019091528251845182916125fc9161282a90670de0b6b3a764000063ffffffff61331716565b9063ffffffff61336b16565b61283e613577565b6040805160208101909152825184518291670de0b6b3a7640000916128689163ffffffff61331716565b8161286f57fe5b0490529392505050565b612881613577565b600061288c83612184565b9050612896613577565b604080516020810190915260085481526128af906122e5565b90506128b9613577565b5060408051602080820183526003850154825282519081019092526008548252906128ea908263ffffffff61260516565b516008556040805160208082018352855482528251908101909252600754825261291a919063ffffffff61260516565b5160075573ffffffffffffffffffffffffffffffffffffffff8516600081815260066020526040808220828155600181018390556002810183905560038101839055600401829055517fcad20625296d189a6fc6e5b39d0d544e5bd99dbda0c8f2f0ecffef3e0fbcc2829190a2604080516020810190915260085481526129b1906129a4906122e5565b839063ffffffff61260516565b95945050505050565b519051101590565b60006129cc613577565b604080516020810190915260085481526129fe906129e9906122e5565b604080516020810190915260075481526133ad565b9050612a08613577565b612a1285856133ad565b9050612a24828263ffffffff61230e16565b1595945050505050565b600b54612a396106c4565b1015610615576040517f08c379a00000000000000000000000000000000000000000000000000000000081526004016104b090613c6e565b612a79613577565b6000612a8361253d565b6001546040517f5b97aadd00000000000000000000000000000000000000000000000000000000815291925073ffffffffffffffffffffffffffffffffffffffff80841692635b97aadd92612adc92169060040161372a565b60206040518083038186803b158015612af457600080fd5b505afa158015612b08573d6000803e3d6000fd5b505050506040513d601f19601f82011682018060405250810190612b2c9190613694565b91505090565b612b4381600063ffffffff6125bc16565b15612b4d57611216565b73ffffffffffffffffffffffffffffffffffffffff82163014612ba0578051600154612b9b9173ffffffffffffffffffffffffffffffffffffffff909116908490309063ffffffff6121e116565b612c04565b612ba8613577565b612bb06125b4565b9050612bc2818363ffffffff61230e16565b612bf8576040517f08c379a00000000000000000000000000000000000000000000000000000000081526004016104b090613e4c565b612c02828261264c565b505b80516040517f4f9bf7e8cd0f2456f9c43d2597bedcf1446c9c64544053f1ece6423ae9a07e5290600090a26000612c3961253d565b8251600154919250612c699173ffffffffffffffffffffffffffffffffffffffff1690839063ffffffff6126a816565b6001546040517f8659d23200000000000000000000000000000000000000000000000000000000815273ffffffffffffffffffffffffffffffffffffffff83811692638659d23292612cc3929091169086906004016137c9565b600060405180830381600087803b158015612cdd57600080fd5b505af1158015612cf1573d6000803e3d6000fd5b50505050505050565b519051111590565b612d0a613577565b6000612d14613186565b600a546040517fa03e881a00000000000000000000000000000000000000000000000000000000815291925073ffffffffffffffffffffffffffffffffffffffff83169163a03e881a91612d6c9187906004016137f9565b60206040518083038186803b158015612d8457600080fd5b505afa158015612d98573d6000803e3d6000fd5b505050506040513d601f19601f82011682018060405250810190612dbc9190613641565b612df2576040517f08c379a00000000000000000000000000000000000000000000000000000000081526004016104b09061397d565b600a546040517fc9280f0600000000000000000000000000000000000000000000000000000000815260009173ffffffffffffffffffffffffffffffffffffffff84169163c9280f0691612e4a9188906004016137f9565b60206040518083038186803b158015612e6257600080fd5b505afa158015612e76573d6000803e3d6000fd5b505050506040513d601f19601f82011682018060405250810190612e9a9190613661565b90506000811215612ea9575060005b60408051602081019091529081529392505050565b5190511090565b612ecd613577565b612ed5613577565b604080516020810190915284548152612eed906122e5565b9050612ef7613577565b612f00846133eb565b604080516020810190915286548152909150612f22908263ffffffff61260516565b5180865560408051602081019091529081526129b1906129a4906122e5565b73ffffffffffffffffffffffffffffffffffffffff811660009081526006602090815260408083208151928301909152600301548152612f859190611dcc906122e5565b611be1576040517f08c379a00000000000000000000000000000000000000000000000000000000081526004016104b090613a22565b612fc3613577565b612fcb613577565b604080516020810190915284548152612fe3906122e5565b9050612fed613577565b612ff6846133eb565b604080516020810190915286548152909150613018908263ffffffff6125d316565b5180865560408051602081019091529081526129b1908390612677906122e5565b6130588273ffffffffffffffffffffffffffffffffffffffff16613414565b61308e576040517f08c379a00000000000000000000000000000000000000000000000000000000081526004016104b090613e15565b600060608373ffffffffffffffffffffffffffffffffffffffff16836040516130b7919061370e565b6000604051808303816000865af19150503d80600081146130f4576040519150601f19603f3d011682016040523d82523d6000602084013e6130f9565b606091505b509150915081613135576040517f08c379a00000000000000000000000000000000000000000000000000000000081526004016104b0906138da565b80511561228457808060200190518101906131509190613641565b612284576040517f08c379a00000000000000000000000000000000000000000000000000000000081526004016104b090613cdc565b6002546040517faafd5e4000000000000000000000000000000000000000000000000000000000815260009173ffffffffffffffffffffffffffffffffffffffff169063aafd5e4090612416907f4f7261636c650000000000000000000000000000000000000000000000000000906004016137f0565b60006121da83836040518060400160405280601e81526020017f536166654d6174683a207375627472616374696f6e206f766572666c6f770000815250613450565b613247613577565b825160009061326490670de0b6b3a764000063ffffffff61331716565b835190915060009061327d90839063ffffffff61336b16565b845190915060009061329690849063ffffffff61349616565b905080156132c8576040805160208101909152806132bb84600163ffffffff6124fe16565b81525093505050506119af565b60405180602001604052808381525093505050506119af565b6040805160208101909152600382015481526000906119af90613303906122e5565b6040805160208101909152845481526129c2565b600082613326575060006119af565b8282028284828161333357fe5b04146121da576040517f08c379a00000000000000000000000000000000000000000000000000000000081526004016104b090613a59565b60006121da83836040518060400160405280601a81526020017f536166654d6174683a206469766973696f6e206279207a65726f0000000000008152506134d8565b6133b5613577565b6133c682600063ffffffff61216d16565b6133db576133d460006127ba565b90506119af565b6133d4838363ffffffff6127f516565b6133f3613577565b604080516020810190915260045481526119af90839063ffffffff6127f516565b6000813f7fc5d2460186f7233c927e7db2dcc703c0e500b653ca82273b7bfad8045d85a47081811480159061344857508115155b949350505050565b6000818484111561348e576040517f08c379a00000000000000000000000000000000000000000000000000000000081526004016104b0919061381b565b505050900390565b60006121da83836040518060400160405280601881526020017f536166654d6174683a206d6f64756c6f206279207a65726f0000000000000000815250613529565b60008183613513576040517f08c379a00000000000000000000000000000000000000000000000000000000081526004016104b0919061381b565b50600083858161351f57fe5b0495945050505050565b60008183613564576040517f08c379a00000000000000000000000000000000000000000000000000000000081526004016104b0919061381b565b5082848161356e57fe5b06949350505050565b6040518060200160405280600081525090565b60006020828403121561359b578081fd5b6135a56020613eff565b9135825250919050565b6000602082840312156135c0578081fd5b6135ca6020613eff565b9151825250919050565b6000602082840312156135e5578081fd5b81356121da81613f52565b600060208284031215613601578081fd5b81516121da81613f52565b6000806040838503121561361e578081fd5b823561362981613f52565b9150613638846020850161358a565b90509250929050565b600060208284031215613652578081fd5b815180151581146121da578182fd5b600060208284031215613672578081fd5b5051919050565b60006020828403121561368a578081fd5b6121da838361358a565b6000602082840312156136a5578081fd5b6121da83836135af565b600080604083850312156136c1578182fd5b613629848461358a565b600080604083850312156136dd578182fd5b6136e784846135af565b915061363884602085016135af565b600060208284031215613707578081fd5b5035919050565b60008251613720818460208701613f26565b9190910192915050565b73ffffffffffffffffffffffffffffffffffffffff91909116815260200190565b73ffffffffffffffffffffffffffffffffffffffff929092168252602082015260400190565b73ffffffffffffffffffffffffffffffffffffffff92831681529116602082015260400190565b73ffffffffffffffffffffffffffffffffffffffff9384168152919092166020820152604081019190915260600190565b73ffffffffffffffffffffffffffffffffffffffff92909216825251602082015260400190565b90815260200190565b918252602082015260400190565b602081016003831061381557fe5b91905290565b600060208252825180602084015261383a816040850160208701613f26565b601f017fffffffffffffffffffffffffffffffffffffffffffffffffffffffffffffffe0169190910160400192915050565b6020808252601b908201527f536166654d6174683a206164646974696f6e206f766572666c6f770000000000604082015260600190565b60208082526013908201527f4e6f2070656e64696e67207472616e7366657200000000000000000000000000604082015260600190565b6020808252818101527f5361666545524332303a206c6f772d6c6576656c2063616c6c206661696c6564604082015260600190565b60208082526014908201527f496e76616c696420746f6b656e20616d6f756e74000000000000000000000000604082015260600190565b6020808252601a908201527f436f6e7472616374207374617465206973206e6f74204f50454e000000000000604082015260600190565b60208082526017908201527f556e7265736f6c766564206f7261636c65207072696365000000000000000000604082015260600190565b6020808252601e908201527f42656c6f77206d696e696d756d2073706f6e736f7220706f736974696f6e0000604082015260600190565b60208082526019908201527f496e76616c696420636f6c6c61746572616c20616d6f756e7400000000000000604082015260600190565b6020808252601a908201527f506f736974696f6e20686173206e6f20636f6c6c61746572616c000000000000604082015260600190565b60208082526021908201527f536166654d6174683a206d756c7469706c69636174696f6e206f766572666c6f60408201527f7700000000000000000000000000000000000000000000000000000000000000606082015260800190565b60208082526012908201527f50656e64696e67207769746864726177616c0000000000000000000000000000604082015260600190565b60208082526018908201527f496e76616c696420776974686472617720726571756573740000000000000000604082015260600190565b60208082526018908201527f496e76616c6964207472616e7366657220726571756573740000000000000000604082015260600190565b60208082526013908201527f43616c6c6572206e6f7420476f7665726e6f7200000000000000000000000000604082015260600190565b6020808252601f908201527f4d696e74696e672073796e74686574696320746f6b656e73206661696c656400604082015260600190565b6020808252600c908201527f43522062656c6f77204743520000000000000000000000000000000000000000604082015260600190565b6020808252601c908201527f53706f6e736f7220616c72656164792068617320706f736974696f6e00000000604082015260600190565b60208082526018908201527f4f6e6c792063616c6c61626c65207072652d6578706972790000000000000000604082015260600190565b60208082526019908201527f4f6e6c792063616c6c61626c6520706f73742d65787069727900000000000000604082015260600190565b6020808252601b908201527f52657175657374206578706972657320706f73742d6578706972790000000000604082015260600190565b6020808252602a908201527f5361666545524332303a204552433230206f7065726174696f6e20646964206e60408201527f6f74207375636365656400000000000000000000000000000000000000000000606082015260800190565b6020808252601f908201527f5265656e7472616e637947756172643a207265656e7472616e742063616c6c00604082015260600190565b60208082526010908201527f4e65772043522062656c6f772047435200000000000000000000000000000000604082015260600190565b60208082526012908201527f556e6578706972656420706f736974696f6e0000000000000000000000000000604082015260600190565b60208082526010908201527f50656e64696e67207472616e7366657200000000000000000000000000000000604082015260600190565b6020808252601f908201527f5361666545524332303a2063616c6c20746f206e6f6e2d636f6e747261637400604082015260600190565b6020808252601a908201527f46696e616c20666565206973206d6f7265207468616e20506643000000000000604082015260600190565b60208082526015908201527f4e6f2070656e64696e67207769746864726177616c0000000000000000000000604082015260600190565b9051815260200190565b94518552602085019390935290516040840152516060830152608082015260a00190565b928352602083019190915251604082015260600190565b60405181810167ffffffffffffffff81118282101715613f1e57600080fd5b604052919050565b60005b83811015613f41578181015183820152602001613f29565b838111156122845750506000910152565b73ffffffffffffffffffffffffffffffffffffffff81168114611be157600080fdfea26469706673582212204b129daaf534bfbdf388f26d49c3f041aa7ae2bf8c211dc27daf59cb569a9cc164736f6c63430006040033",
  "source": "pragma solidity ^0.6.0;\npragma experimental ABIEncoderV2;\n\nimport \"@openzeppelin/contracts/math/SafeMath.sol\";\nimport \"@openzeppelin/contracts/token/ERC20/IERC20.sol\";\nimport \"@openzeppelin/contracts/token/ERC20/SafeERC20.sol\";\n\nimport \"../../common/implementation/FixedPoint.sol\";\nimport \"../../common/interfaces/ExpandedIERC20.sol\";\n\nimport \"../../oracle/interfaces/OracleInterface.sol\";\nimport \"../../oracle/interfaces/IdentifierWhitelistInterface.sol\";\nimport \"../../oracle/interfaces/AdministrateeInterface.sol\";\nimport \"../../oracle/implementation/Constants.sol\";\n\nimport \"../common/TokenFactory.sol\";\nimport \"../common/FeePayer.sol\";\n\n\n/**\n * @title Financial contract with priceless position management.\n * @notice Handles positions for multiple sponsors in an optimistic (i.e., priceless) way without relying\n * on a price feed. On construction, deploys a new ERC20, managed by this contract, that is the synthetic token.\n */\n\ncontract PricelessPositionManager is FeePayer, AdministrateeInterface {\n    using SafeMath for uint256;\n    using FixedPoint for FixedPoint.Unsigned;\n    using SafeERC20 for IERC20;\n    using SafeERC20 for ExpandedIERC20;\n\n    /****************************************\n     *  PRICELESS POSITION DATA STRUCTURES  *\n     ****************************************/\n\n    // Stores the state of the PricelessPositionManager. Set on expiration, emergency shutdown, or settlement.\n    enum ContractState { Open, ExpiredPriceRequested, ExpiredPriceReceived }\n    ContractState public contractState;\n\n    // Represents a single sponsor's position. All collateral is held by this contract.\n    // This struct acts as bookkeeping for how much of that collateral is allocated to each sponsor.\n    struct PositionData {\n        FixedPoint.Unsigned tokensOutstanding;\n        // Tracks pending withdrawal requests. A withdrawal request is pending if `withdrawalRequestPassTimestamp != 0`.\n        uint256 withdrawalRequestPassTimestamp;\n        FixedPoint.Unsigned withdrawalRequestAmount;\n        // Raw collateral value. This value should never be accessed directly -- always use _getFeeAdjustedCollateral().\n        // To add or remove collateral, use _addCollateral() and _removeCollateral().\n        FixedPoint.Unsigned rawCollateral;\n        // Tracks pending transfer position requests. A transfer position request is pending if `transferPositionRequestPassTimestamp != 0`.\n        uint256 transferPositionRequestPassTimestamp;\n    }\n\n    // Maps sponsor addresses to their positions. Each sponsor can have only one position.\n    mapping(address => PositionData) public positions;\n\n    // Keep track of the total collateral and tokens across all positions to enable calculating the\n    // global collateralization ratio without iterating over all positions.\n    FixedPoint.Unsigned public totalTokensOutstanding;\n\n    // Similar to the rawCollateral in PositionData, this value should not be used directly.\n    // _getFeeAdjustedCollateral(), _addCollateral() and _removeCollateral() must be used to access and adjust.\n    FixedPoint.Unsigned public rawTotalPositionCollateral;\n\n    // Synthetic token created by this contract.\n    ExpandedIERC20 public tokenCurrency;\n\n    // Unique identifier for DVM price feed ticker.\n    bytes32 public priceIdentifier;\n    // Time that this contract expires. Should not change post-construction unless an emergency shutdown occurs.\n    uint256 public expirationTimestamp;\n    // Time that has to elapse for a withdrawal request to be considered passed, if no liquidations occur.\n    uint256 public withdrawalLiveness;\n\n    // Minimum number of tokens in a sponsor's position.\n    FixedPoint.Unsigned public minSponsorTokens;\n\n    // The expiry price pulled from the DVM.\n    FixedPoint.Unsigned public expiryPrice;\n\n    /****************************************\n     *                EVENTS                *\n     ****************************************/\n\n    event RequestTransferPosition(address indexed oldSponsor);\n    event RequestTransferPositionExecuted(address indexed oldSponsor, address indexed newSponsor);\n    event RequestTransferPositionCanceled(address indexed oldSponsor);\n    event Deposit(address indexed sponsor, uint256 indexed collateralAmount);\n    event Withdrawal(address indexed sponsor, uint256 indexed collateralAmount);\n    event RequestWithdrawal(address indexed sponsor, uint256 indexed collateralAmount);\n    event RequestWithdrawalExecuted(address indexed sponsor, uint256 indexed collateralAmount);\n    event RequestWithdrawalCanceled(address indexed sponsor, uint256 indexed collateralAmount);\n    event PositionCreated(address indexed sponsor, uint256 indexed collateralAmount, uint256 indexed tokenAmount);\n    event NewSponsor(address indexed sponsor);\n    event EndedSponsorPosition(address indexed sponsor);\n    event Redeem(address indexed sponsor, uint256 indexed collateralAmount, uint256 indexed tokenAmount);\n    event ContractExpired(address indexed caller);\n    event SettleExpiredPosition(\n        address indexed caller,\n        uint256 indexed collateralReturned,\n        uint256 indexed tokensBurned\n    );\n    event EmergencyShutdown(address indexed caller, uint256 originalExpirationTimestamp, uint256 shutdownTimestamp);\n\n    /****************************************\n     *               MODIFIERS              *\n     ****************************************/\n\n    modifier onlyPreExpiration() {\n        _onlyPreExpiration();\n        _;\n    }\n\n    modifier onlyPostExpiration() {\n        _onlyPostExpiration();\n        _;\n    }\n\n    modifier onlyCollateralizedPosition(address sponsor) {\n        _onlyCollateralizedPosition(sponsor);\n        _;\n    }\n\n    // Check that the current state of the pricelessPositionManager is Open.\n    // This prevents multiple calls to `expire` and `EmergencyShutdown` post expiration.\n    modifier onlyOpenState() {\n        _onlyOpenState();\n        _;\n    }\n\n    modifier noPendingWithdrawal(address sponsor) {\n        _positionHasNoPendingWithdrawal(sponsor);\n        _;\n    }\n\n    /**\n     * @notice Construct the PricelessPositionManager\n     * @param _expirationTimestamp unix timestamp of when the contract will expire.\n     * @param _withdrawalLiveness liveness delay, in seconds, for pending withdrawals.\n     * @param _collateralAddress ERC20 token used as collateral for all positions.\n     * @param _finderAddress UMA protocol Finder used to discover other protocol contracts.\n     * @param _priceIdentifier registered in the DVM for the synthetic.\n     * @param _syntheticName name for the token contract that will be deployed.\n     * @param _syntheticSymbol symbol for the token contract that will be deployed.\n     * @param _tokenFactoryAddress deployed UMA token factory to create the synthetic token.\n     * @param _minSponsorTokens minimum amount of collateral that must exist at any time in a position.\n     * @param _timerAddress Contract that stores the current time in a testing environment.\n     * Must be set to 0x0 for production environments that use live time.\n     */\n    constructor(\n        uint256 _expirationTimestamp,\n        uint256 _withdrawalLiveness,\n        address _collateralAddress,\n        address _finderAddress,\n        bytes32 _priceIdentifier,\n        string memory _syntheticName,\n        string memory _syntheticSymbol,\n        address _tokenFactoryAddress,\n        FixedPoint.Unsigned memory _minSponsorTokens,\n        address _timerAddress\n    ) public FeePayer(_collateralAddress, _finderAddress, _timerAddress) nonReentrant() {\n        require(_expirationTimestamp > getCurrentTime(), \"Invalid expiration in future\");\n        require(_getIdentifierWhitelist().isIdentifierSupported(_priceIdentifier), \"Unsupported price identifier\");\n\n        expirationTimestamp = _expirationTimestamp;\n        withdrawalLiveness = _withdrawalLiveness;\n        TokenFactory tf = TokenFactory(_tokenFactoryAddress);\n        tokenCurrency = tf.createToken(_syntheticName, _syntheticSymbol, 18);\n        minSponsorTokens = _minSponsorTokens;\n        priceIdentifier = _priceIdentifier;\n    }\n\n    /****************************************\n     *          POSITION FUNCTIONS          *\n     ****************************************/\n\n    /**\n     * @notice Requests to transfer ownership of the caller's current position to a new sponsor address.\n     * Once the request liveness is passed, the sponsor can execute the transfer and specify the new sponsor.\n     * @dev The liveness length is the same as the withdrawal liveness.\n     */\n    function requestTransferPosition() public onlyPreExpiration() nonReentrant() {\n        PositionData storage positionData = _getPositionData(msg.sender);\n        require(positionData.transferPositionRequestPassTimestamp == 0, \"Pending transfer\");\n\n        // Make sure the proposed expiration of this request is not post-expiry.\n        uint256 requestPassTime = getCurrentTime().add(withdrawalLiveness);\n        require(requestPassTime < expirationTimestamp, \"Request expires post-expiry\");\n\n        // Update the position object for the user.\n        positionData.transferPositionRequestPassTimestamp = requestPassTime;\n\n        emit RequestTransferPosition(msg.sender);\n    }\n\n    /**\n     * @notice After a passed transfer position request (i.e., by a call to `requestTransferPosition` and waiting\n     * `withdrawalLiveness`), transfers ownership of the caller's current position to `newSponsorAddress`.\n     * @dev Transferring positions can only occur if the recipient does not already have a position.\n     * @param newSponsorAddress is the address to which the position will be transferred.\n     */\n    function transferPositionPassedRequest(address newSponsorAddress)\n        public\n        onlyPreExpiration()\n        noPendingWithdrawal(msg.sender)\n        nonReentrant()\n    {\n        require(\n            _getFeeAdjustedCollateral(positions[newSponsorAddress].rawCollateral).isEqual(\n                FixedPoint.fromUnscaledUint(0)\n            ),\n            \"Sponsor already has position\"\n        );\n        PositionData storage positionData = _getPositionData(msg.sender);\n        require(\n            positionData.transferPositionRequestPassTimestamp != 0 &&\n                positionData.transferPositionRequestPassTimestamp <= getCurrentTime(),\n            \"Invalid transfer request\"\n        );\n\n        // Reset transfer request.\n        positionData.transferPositionRequestPassTimestamp = 0;\n\n        positions[newSponsorAddress] = positionData;\n        delete positions[msg.sender];\n\n        emit RequestTransferPositionExecuted(msg.sender, newSponsorAddress);\n        emit NewSponsor(newSponsorAddress);\n        emit EndedSponsorPosition(msg.sender);\n    }\n\n    /**\n     * @notice Cancels a pending transfer position request.\n     */\n    function cancelTransferPosition() external onlyPreExpiration() nonReentrant() {\n        PositionData storage positionData = _getPositionData(msg.sender);\n        require(positionData.transferPositionRequestPassTimestamp != 0, \"No pending transfer\");\n\n        emit RequestTransferPositionCanceled(msg.sender);\n\n        // Reset withdrawal request.\n        positionData.transferPositionRequestPassTimestamp = 0;\n    }\n\n    /**\n     * @notice Transfers `collateralAmount` of `collateralCurrency` into the specified sponsor's position.\n     * @dev Increases the collateralization level of a position after creation. This contract must be approved to spend\n     * at least `collateralAmount` of `collateralCurrency`.\n     * @param sponsor the sponsor to credit the deposit to.\n     * @param collateralAmount total amount of collateral tokens to be sent to the sponsor's position.\n     */\n    function depositTo(address sponsor, FixedPoint.Unsigned memory collateralAmount)\n        public\n        onlyPreExpiration()\n        noPendingWithdrawal(sponsor)\n        fees()\n        nonReentrant()\n    {\n        require(collateralAmount.isGreaterThan(0), \"Invalid collateral amount\");\n        PositionData storage positionData = _getPositionData(sponsor);\n\n        // Increase the position and global collateral balance by collateral amount.\n        _incrementCollateralBalances(positionData, collateralAmount);\n\n        emit Deposit(sponsor, collateralAmount.rawValue);\n\n        // Move collateral currency from sender to contract.\n        collateralCurrency.safeTransferFrom(msg.sender, address(this), collateralAmount.rawValue);\n    }\n\n    /**\n     * @notice Transfers `collateralAmount` of `collateralCurrency` into the caller's position.\n     * @dev Increases the collateralization level of a position after creation. This contract must be approved to spend\n     * at least `collateralAmount` of `collateralCurrency`.\n     * @param collateralAmount total amount of collateral tokens to be sent to the sponsor's position.\n     */\n    function deposit(FixedPoint.Unsigned memory collateralAmount) public {\n        // This is just a thin wrapper over depositTo that specified the sender as the sponsor.\n        depositTo(msg.sender, collateralAmount);\n    }\n\n    /**\n     * @notice Transfers `collateralAmount` of `collateralCurrency` from the sponsor's position to the sponsor.\n     * @dev Reverts if the withdrawal puts this position's collateralization ratio below the global collateralization\n     * ratio. In that case, use `requestWithdrawal`. Might not withdraw the full requested amount to account for precision loss.\n     * @param collateralAmount is the amount of collateral to withdraw.\n     * @return amountWithdrawn The actual amount of collateral withdrawn.\n     */\n    function withdraw(FixedPoint.Unsigned memory collateralAmount)\n        public\n        onlyPreExpiration()\n        noPendingWithdrawal(msg.sender)\n        fees()\n        nonReentrant()\n        returns (FixedPoint.Unsigned memory amountWithdrawn)\n    {\n        PositionData storage positionData = _getPositionData(msg.sender);\n        require(collateralAmount.isGreaterThan(0), \"Invalid collateral amount\");\n\n        // Decrement the sponsor's collateral and global collateral amounts. Check the GCR between decrement to ensure\n        // position remains above the GCR within the witdrawl. If this is not the case the caller must submit a request.\n        amountWithdrawn = _decrementCollateralBalancesCheckGCR(positionData, collateralAmount);\n\n        emit Withdrawal(msg.sender, amountWithdrawn.rawValue);\n\n        // Move collateral currency from contract to sender.\n        // Note: that we move the amount of collateral that is decreased from rawCollateral (inclusive of fees)\n        // instead of the user requested amount. This eliminates precision loss that could occur\n        // where the user withdraws more collateral than rawCollateral is decremented by.\n        collateralCurrency.safeTransfer(msg.sender, amountWithdrawn.rawValue);\n    }\n\n    /**\n     * @notice Starts a withdrawal request that, if passed, allows the sponsor to withdraw` from their position.\n     * @dev The request will be pending for `withdrawalLiveness`, during which the position can be liquidated.\n     * @param collateralAmount the amount of collateral requested to withdraw\n     */\n    function requestWithdrawal(FixedPoint.Unsigned memory collateralAmount)\n        public\n        onlyPreExpiration()\n        noPendingWithdrawal(msg.sender)\n        nonReentrant()\n    {\n        PositionData storage positionData = _getPositionData(msg.sender);\n        require(\n            collateralAmount.isGreaterThan(0) &&\n                collateralAmount.isLessThanOrEqual(_getFeeAdjustedCollateral(positionData.rawCollateral)),\n            \"Invalid collateral amount\"\n        );\n\n        // Make sure the proposed expiration of this request is not post-expiry.\n        uint256 requestPassTime = getCurrentTime().add(withdrawalLiveness);\n        require(requestPassTime < expirationTimestamp, \"Request expires post-expiry\");\n\n        // Update the position object for the user.\n        positionData.withdrawalRequestPassTimestamp = requestPassTime;\n        positionData.withdrawalRequestAmount = collateralAmount;\n\n        emit RequestWithdrawal(msg.sender, collateralAmount.rawValue);\n    }\n\n    /**\n     * @notice After a passed withdrawal request (i.e., by a call to `requestWithdrawal` and waiting\n     * `withdrawalLiveness`), withdraws `positionData.withdrawalRequestAmount` of collateral currency.\n     * @dev Might not withdraw the full requested amount in order to account for precision loss or if the full requested\n     * amount exceeds the collateral in the position (due to paying fees).\n     * @return amountWithdrawn The actual amount of collateral withdrawn.\n     */\n    function withdrawPassedRequest()\n        external\n        onlyPreExpiration()\n        fees()\n        nonReentrant()\n        returns (FixedPoint.Unsigned memory amountWithdrawn)\n    {\n        PositionData storage positionData = _getPositionData(msg.sender);\n        require(\n            positionData.withdrawalRequestPassTimestamp != 0 &&\n                positionData.withdrawalRequestPassTimestamp <= getCurrentTime(),\n            \"Invalid withdraw request\"\n        );\n\n        // If withdrawal request amount is > position collateral, then withdraw the full collateral amount.\n        // This situation is possible due to fees charged since the withdrawal was originally requested.\n        FixedPoint.Unsigned memory amountToWithdraw = positionData.withdrawalRequestAmount;\n        if (positionData.withdrawalRequestAmount.isGreaterThan(_getFeeAdjustedCollateral(positionData.rawCollateral))) {\n            amountToWithdraw = _getFeeAdjustedCollateral(positionData.rawCollateral);\n        }\n\n        // Decrement the sponsor's collateral and global collateral amounts.\n        amountWithdrawn = _decrementCollateralBalances(positionData, amountToWithdraw);\n\n        // Reset withdrawal request by setting withdrawal amount and withdrawal timestamp to 0.\n        _resetWithdrawalRequest(positionData);\n\n        // Transfer approved withdrawal amount from the contract to the caller.\n        collateralCurrency.safeTransfer(msg.sender, amountWithdrawn.rawValue);\n\n        emit RequestWithdrawalExecuted(msg.sender, amountWithdrawn.rawValue);\n    }\n\n    /**\n     * @notice Cancels a pending withdrawal request.\n     */\n    function cancelWithdrawal() external onlyPreExpiration() nonReentrant() {\n        PositionData storage positionData = _getPositionData(msg.sender);\n        require(positionData.withdrawalRequestPassTimestamp != 0, \"No pending withdrawal\");\n\n        emit RequestWithdrawalCanceled(msg.sender, positionData.withdrawalRequestAmount.rawValue);\n\n        // Reset withdrawal request by setting withdrawal amount and withdrawal timestamp to 0.\n        _resetWithdrawalRequest(positionData);\n    }\n\n    /**\n     * @notice Creates tokens by creating a new position or by augmenting an existing position. Pulls `collateralAmount` into the sponsor's position and mints `numTokens` of `tokenCurrency`.\n     * @dev Reverts if minting these tokens would put the position's collateralization ratio below the\n     * global collateralization ratio. This contract must be approved to spend at least `collateralAmount` of\n     * `collateralCurrency`.\n     * @param collateralAmount is the number of collateral tokens to collateralize the position with\n     * @param numTokens is the number of tokens to mint from the position.\n     */\n    function create(FixedPoint.Unsigned memory collateralAmount, FixedPoint.Unsigned memory numTokens)\n        public\n        onlyPreExpiration()\n        fees()\n        nonReentrant()\n    {\n        PositionData storage positionData = positions[msg.sender];\n\n        // Either the new create ratio or the resultant position CR must be above the current GCR.\n        require(\n            (_checkCollateralization(\n                _getFeeAdjustedCollateral(positionData.rawCollateral).add(collateralAmount),\n                positionData.tokensOutstanding.add(numTokens)\n            ) || _checkCollateralization(collateralAmount, numTokens)),\n            \"New CR below GCR\"\n        );\n\n        require(positionData.withdrawalRequestPassTimestamp == 0, \"Pending withdrawal\");\n        if (positionData.tokensOutstanding.isEqual(0)) {\n            require(numTokens.isGreaterThanOrEqual(minSponsorTokens), \"Below minimum sponsor position\");\n            emit NewSponsor(msg.sender);\n        }\n\n        // Increase the position and global collateral balance by collateral amount.\n        _incrementCollateralBalances(positionData, collateralAmount);\n\n        // Add the number of tokens created to the position's outstanding tokens.\n        positionData.tokensOutstanding = positionData.tokensOutstanding.add(numTokens);\n\n        totalTokensOutstanding = totalTokensOutstanding.add(numTokens);\n\n        emit PositionCreated(msg.sender, collateralAmount.rawValue, numTokens.rawValue);\n\n        // Transfer tokens into the contract from caller and mint corresponding synthetic tokens to the caller's address.\n        collateralCurrency.safeTransferFrom(msg.sender, address(this), collateralAmount.rawValue);\n        require(tokenCurrency.mint(msg.sender, numTokens.rawValue), \"Minting synthetic tokens failed\");\n    }\n\n    /**\n     * @notice Burns `numTokens` of `tokenCurrency` and sends back the proportional amount of `collateralCurrency`.\n     * @dev Can only be called by a token sponsor. Might not redeem the full proportional amount of collateral\n     * in order to account for precision loss. This contract must be approved to spend at least `numTokens` of\n     * `tokenCurrency`.\n     * @param numTokens is the number of tokens to be burnt for a commensurate amount of collateral.\n     * @return amountWithdrawn The actual amount of collateral withdrawn.\n     */\n    function redeem(FixedPoint.Unsigned memory numTokens)\n        public\n        onlyPreExpiration()\n        noPendingWithdrawal(msg.sender)\n        fees()\n        nonReentrant()\n        returns (FixedPoint.Unsigned memory amountWithdrawn)\n    {\n        PositionData storage positionData = _getPositionData(msg.sender);\n        require(!numTokens.isGreaterThan(positionData.tokensOutstanding), \"Invalid token amount\");\n\n        FixedPoint.Unsigned memory fractionRedeemed = numTokens.div(positionData.tokensOutstanding);\n        FixedPoint.Unsigned memory collateralRedeemed = fractionRedeemed.mul(\n            _getFeeAdjustedCollateral(positionData.rawCollateral)\n        );\n\n        // If redemption returns all tokens the sponsor has then we can delete their position. Else, downsize.\n        if (positionData.tokensOutstanding.isEqual(numTokens)) {\n            amountWithdrawn = _deleteSponsorPosition(msg.sender);\n        } else {\n            // Decrement the sponsor's collateral and global collateral amounts.\n            amountWithdrawn = _decrementCollateralBalances(positionData, collateralRedeemed);\n\n            // Decrease the sponsors position tokens size. Ensure it is above the min sponsor size.\n            FixedPoint.Unsigned memory newTokenCount = positionData.tokensOutstanding.sub(numTokens);\n            require(newTokenCount.isGreaterThanOrEqual(minSponsorTokens), \"Below minimum sponsor position\");\n            positionData.tokensOutstanding = newTokenCount;\n\n            // Update the totalTokensOutstanding after redemption.\n            totalTokensOutstanding = totalTokensOutstanding.sub(numTokens);\n        }\n\n        emit Redeem(msg.sender, amountWithdrawn.rawValue, numTokens.rawValue);\n\n        // Transfer collateral from contract to caller and burn callers synthetic tokens.\n        collateralCurrency.safeTransfer(msg.sender, amountWithdrawn.rawValue);\n        tokenCurrency.safeTransferFrom(msg.sender, address(this), numTokens.rawValue);\n        tokenCurrency.burn(numTokens.rawValue);\n    }\n\n    /**\n     * @notice After a contract has passed expiry all token holders can redeem their tokens for underlying at the\n     * prevailing price defined by the DVM from the `expire` function.\n     * @dev This burns all tokens from the caller of `tokenCurrency` and sends back the proportional amount of\n     * `collateralCurrency`. Might not redeem the full proportional amount of collateral in order to account for\n     * precision loss. This contract must be approved to spend `tokenCurrency` at least up to the caller's full balance.\n     * @return amountWithdrawn The actual amount of collateral withdrawn.\n     */\n    function settleExpired()\n        external\n        onlyPostExpiration()\n        fees()\n        nonReentrant()\n        returns (FixedPoint.Unsigned memory amountWithdrawn)\n    {\n        // If the contract state is open and onlyPostExpiration passed then `expire()` has not yet been called.\n        require(contractState != ContractState.Open, \"Unexpired position\");\n\n        // Get the current settlement price and store it. If it is not resolved will revert.\n        if (contractState != ContractState.ExpiredPriceReceived) {\n            expiryPrice = _getOraclePrice(expirationTimestamp);\n            contractState = ContractState.ExpiredPriceReceived;\n        }\n\n        // Get caller's tokens balance and calculate amount of underlying entitled to them.\n        FixedPoint.Unsigned memory tokensToRedeem = FixedPoint.Unsigned(tokenCurrency.balanceOf(msg.sender));\n        FixedPoint.Unsigned memory totalRedeemableCollateral = tokensToRedeem.mul(expiryPrice);\n\n        // If the caller is a sponsor with outstanding collateral they are also entitled to their excess collateral after their debt.\n        PositionData storage positionData = positions[msg.sender];\n        if (_getFeeAdjustedCollateral(positionData.rawCollateral).isGreaterThan(0)) {\n            // Calculate the underlying entitled to a token sponsor. This is collateral - debt in underlying.\n            FixedPoint.Unsigned memory tokenDebtValueInCollateral = positionData.tokensOutstanding.mul(expiryPrice);\n            FixedPoint.Unsigned memory positionCollateral = _getFeeAdjustedCollateral(positionData.rawCollateral);\n\n            // If the debt is greater than the remaining collateral, they cannot redeem anything.\n            FixedPoint.Unsigned memory positionRedeemableCollateral = tokenDebtValueInCollateral.isLessThan(\n                positionCollateral\n            )\n                ? positionCollateral.sub(tokenDebtValueInCollateral)\n                : FixedPoint.Unsigned(0);\n\n            // Add the number of redeemable tokens for the sponsor to their total redeemable collateral.\n            totalRedeemableCollateral = totalRedeemableCollateral.add(positionRedeemableCollateral);\n\n            // Reset the position state as all the value has been removed after settlement.\n            delete positions[msg.sender];\n            emit EndedSponsorPosition(msg.sender);\n        }\n\n        // Take the min of the remaining collateral and the collateral \"owed\". If the contract is undercapitalized,\n        // the caller will get as much collateral as the contract can pay out.\n        FixedPoint.Unsigned memory payout = FixedPoint.min(\n            _getFeeAdjustedCollateral(rawTotalPositionCollateral),\n            totalRedeemableCollateral\n        );\n\n        // Decrement total contract collateral and outstanding debt.\n        amountWithdrawn = _removeCollateral(rawTotalPositionCollateral, payout);\n        totalTokensOutstanding = totalTokensOutstanding.sub(tokensToRedeem);\n\n        emit SettleExpiredPosition(msg.sender, amountWithdrawn.rawValue, tokensToRedeem.rawValue);\n\n        // Transfer tokens & collateral and burn the redeemed tokens.\n        collateralCurrency.safeTransfer(msg.sender, amountWithdrawn.rawValue);\n        tokenCurrency.safeTransferFrom(msg.sender, address(this), tokensToRedeem.rawValue);\n        tokenCurrency.burn(tokensToRedeem.rawValue);\n    }\n\n    /****************************************\n     *        GLOBAL STATE FUNCTIONS        *\n     ****************************************/\n\n    /**\n     * @notice Locks contract state in expired and requests oracle price.\n     * @dev this function can only be called once the contract is expired and can't be re-called.\n     */\n    function expire() external onlyPostExpiration() onlyOpenState() fees() nonReentrant() {\n        contractState = ContractState.ExpiredPriceRequested;\n\n        // The final fee for this request is paid out of the contract rather than by the caller.\n        _payFinalFees(address(this), _computeFinalFees());\n        _requestOraclePrice(expirationTimestamp);\n\n        emit ContractExpired(msg.sender);\n    }\n\n    /**\n     * @notice Premature contract settlement under emergency circumstances.\n     * @dev Only the governor can call this function as they are permissioned within the `FinancialContractAdmin`.\n     * Upon emergency shutdown, the contract settlement time is set to the shutdown time. This enables withdrawal\n     * to occur via the standard `settleExpired` function. Contract state is set to `ExpiredPriceRequested`\n     * which prevents re-entry into this function or the `expire` function. No fees are paid when calling\n     * `emergencyShutdown` as the governor who would call the function would also receive the fees.\n     */\n    function emergencyShutdown() external override onlyPreExpiration() onlyOpenState() nonReentrant() {\n        require(msg.sender == _getFinancialContractsAdminAddress(), \"Caller not Governor\");\n\n        contractState = ContractState.ExpiredPriceRequested;\n        // Expiratory time now becomes the current time (emergency shutdown time).\n        // Price requested at this time stamp. `settleExpired` can now withdraw at this timestamp.\n        uint256 oldExpirationTimestamp = expirationTimestamp;\n        expirationTimestamp = getCurrentTime();\n        _requestOraclePrice(expirationTimestamp);\n\n        emit EmergencyShutdown(msg.sender, oldExpirationTimestamp, expirationTimestamp);\n    }\n\n    /**\n     * @notice Theoretically supposed to pay fees and move money between margin accounts to make sure they\n     * reflect the NAV of the contract. However, this functionality doesn't apply to this contract.\n     * @dev This is supposed to be implemented by any contract that inherits `AdministrateeInterface` and callable\n     * only by the Governor contract. This method is therefore minimally implemented in this contract and does nothing.\n     */\n    function remargin() external override onlyPreExpiration() nonReentrant() {\n        return;\n    }\n\n    /**\n     * @notice Accessor method for a sponsor's collateral.\n     * @dev This is necessary because the struct returned by the positions() method shows\n     * rawCollateral, which isn't a user-readable value.\n     * @param sponsor address whose collateral amount is retrieved.\n     * @return collateralAmount amount of collateral within a sponsors position.\n     */\n    function getCollateral(address sponsor)\n        external\n        view\n        nonReentrantView()\n        returns (FixedPoint.Unsigned memory collateralAmount)\n    {\n        // Note: do a direct access to avoid the validity check.\n        return _getFeeAdjustedCollateral(positions[sponsor].rawCollateral);\n    }\n\n    /**\n     * @notice Accessor method for the total collateral stored within the PricelessPositionManager.\n     * @return totalCollateral amount of all collateral within the Expiring Multi Party Contract.\n     */\n    function totalPositionCollateral()\n        external\n        view\n        nonReentrantView()\n        returns (FixedPoint.Unsigned memory totalCollateral)\n    {\n        return _getFeeAdjustedCollateral(rawTotalPositionCollateral);\n    }\n\n    /****************************************\n     *          INTERNAL FUNCTIONS          *\n     ****************************************/\n\n    // Reduces a sponsor's position and global counters by the specified parameters. Handles deleting the entire\n    // position if the entire position is being removed. Does not make any external transfers.\n    function _reduceSponsorPosition(\n        address sponsor,\n        FixedPoint.Unsigned memory tokensToRemove,\n        FixedPoint.Unsigned memory collateralToRemove,\n        FixedPoint.Unsigned memory withdrawalAmountToRemove\n    ) internal {\n        PositionData storage positionData = _getPositionData(sponsor);\n\n        // If the entire position is being removed, delete it instead.\n        if (\n            tokensToRemove.isEqual(positionData.tokensOutstanding) &&\n            _getFeeAdjustedCollateral(positionData.rawCollateral).isEqual(collateralToRemove)\n        ) {\n            _deleteSponsorPosition(sponsor);\n            return;\n        }\n\n        // Decrement the sponsor's collateral and global collateral amounts.\n        _decrementCollateralBalances(positionData, collateralToRemove);\n\n        // Ensure that the sponsor will meet the min position size after the reduction.\n        FixedPoint.Unsigned memory newTokenCount = positionData.tokensOutstanding.sub(tokensToRemove);\n        require(newTokenCount.isGreaterThanOrEqual(minSponsorTokens), \"Below minimum sponsor position\");\n        positionData.tokensOutstanding = newTokenCount;\n\n        // Decrement the position's withdrawal amount.\n        positionData.withdrawalRequestAmount = positionData.withdrawalRequestAmount.sub(withdrawalAmountToRemove);\n\n        // Decrement the total outstanding tokens in the overall contract.\n        totalTokensOutstanding = totalTokensOutstanding.sub(tokensToRemove);\n    }\n\n    // Deletes a sponsor's position and updates global counters. Does not make any external transfers.\n    function _deleteSponsorPosition(address sponsor) internal returns (FixedPoint.Unsigned memory) {\n        PositionData storage positionToLiquidate = _getPositionData(sponsor);\n\n        FixedPoint.Unsigned memory startingGlobalCollateral = _getFeeAdjustedCollateral(rawTotalPositionCollateral);\n\n        // Remove the collateral and outstanding from the overall total position.\n        FixedPoint.Unsigned memory remainingRawCollateral = positionToLiquidate.rawCollateral;\n        rawTotalPositionCollateral = rawTotalPositionCollateral.sub(remainingRawCollateral);\n        totalTokensOutstanding = totalTokensOutstanding.sub(positionToLiquidate.tokensOutstanding);\n\n        // Reset the sponsors position to have zero outstanding and collateral.\n        delete positions[sponsor];\n\n        emit EndedSponsorPosition(sponsor);\n\n        // Return fee-adjusted amount of collateral deleted from position.\n        return startingGlobalCollateral.sub(_getFeeAdjustedCollateral(rawTotalPositionCollateral));\n    }\n\n    function _pfc() internal virtual override view returns (FixedPoint.Unsigned memory) {\n        return _getFeeAdjustedCollateral(rawTotalPositionCollateral);\n    }\n\n    function _getPositionData(address sponsor)\n        internal\n        view\n        onlyCollateralizedPosition(sponsor)\n        returns (PositionData storage)\n    {\n        return positions[sponsor];\n    }\n\n    function _getIdentifierWhitelist() internal view returns (IdentifierWhitelistInterface) {\n        return IdentifierWhitelistInterface(finder.getImplementationAddress(OracleInterfaces.IdentifierWhitelist));\n    }\n\n    function _getOracle() internal view returns (OracleInterface) {\n        return OracleInterface(finder.getImplementationAddress(OracleInterfaces.Oracle));\n    }\n\n    function _getFinancialContractsAdminAddress() internal view returns (address) {\n        return finder.getImplementationAddress(OracleInterfaces.FinancialContractsAdmin);\n    }\n\n    // Requests a price for `priceIdentifier` at `requestedTime` from the Oracle.\n    function _requestOraclePrice(uint256 requestedTime) internal {\n        OracleInterface oracle = _getOracle();\n        oracle.requestPrice(priceIdentifier, requestedTime);\n    }\n\n    // Fetches a resolved Oracle price from the Oracle. Reverts if the Oracle hasn't resolved for this request.\n    function _getOraclePrice(uint256 requestedTime) internal view returns (FixedPoint.Unsigned memory) {\n        // Create an instance of the oracle and get the price. If the price is not resolved revert.\n        OracleInterface oracle = _getOracle();\n        require(oracle.hasPrice(priceIdentifier, requestedTime), \"Unresolved oracle price\");\n        int256 oraclePrice = oracle.getPrice(priceIdentifier, requestedTime);\n\n        // For now we don't want to deal with negative prices in positions.\n        if (oraclePrice < 0) {\n            oraclePrice = 0;\n        }\n        return FixedPoint.Unsigned(uint256(oraclePrice));\n    }\n\n    // Reset withdrawal request by setting the withdrawal request and withdrawal timestamp to 0.\n    function _resetWithdrawalRequest(PositionData storage positionData) internal {\n        positionData.withdrawalRequestAmount = FixedPoint.fromUnscaledUint(0);\n        positionData.withdrawalRequestPassTimestamp = 0;\n    }\n\n    // Ensure individual and global consistency when increasing collateral balances. Returns the change to the position.\n    function _incrementCollateralBalances(\n        PositionData storage positionData,\n        FixedPoint.Unsigned memory collateralAmount\n    ) internal returns (FixedPoint.Unsigned memory) {\n        _addCollateral(positionData.rawCollateral, collateralAmount);\n        return _addCollateral(rawTotalPositionCollateral, collateralAmount);\n    }\n\n    // Ensure individual and global consistency when decrementing collateral balances. Returns the change to the\n    // position. We elect to return the amount that the global collateral is decreased by, rather than the individual\n    // position's collateral, because we need to maintain the invariant that the global collateral is always\n    // <= the collateral owned by the contract to avoid reverts on withdrawals. The amount returned = amount withdrawn.\n    function _decrementCollateralBalances(\n        PositionData storage positionData,\n        FixedPoint.Unsigned memory collateralAmount\n    ) internal returns (FixedPoint.Unsigned memory) {\n        _removeCollateral(positionData.rawCollateral, collateralAmount);\n        return _removeCollateral(rawTotalPositionCollateral, collateralAmount);\n    }\n\n    // Ensure individual and global consistency when decrementing collateral balances. Returns the change to the position.\n    // This function is similar to the _decrementCollateralBalances function except this function checks position GCR\n    // between the decrements. This ensures that collateral removal will not leave the position undercollateralized.\n    function _decrementCollateralBalancesCheckGCR(\n        PositionData storage positionData,\n        FixedPoint.Unsigned memory collateralAmount\n    ) internal returns (FixedPoint.Unsigned memory) {\n        _removeCollateral(positionData.rawCollateral, collateralAmount);\n        require(_checkPositionCollateralization(positionData), \"CR below GCR\");\n        return _removeCollateral(rawTotalPositionCollateral, collateralAmount);\n    }\n\n    // These internal functions are supposed to act identically to modifiers, but re-used modifiers\n    // unnecessarily increase contract bytecode size.\n    // source: https://blog.polymath.network/solidity-tips-and-tricks-to-save-gas-and-reduce-bytecode-size-c44580b218e6\n    function _onlyOpenState() internal view {\n        require(contractState == ContractState.Open, \"Contract state is not OPEN\");\n    }\n\n    function _onlyPreExpiration() internal view {\n        require(getCurrentTime() < expirationTimestamp, \"Only callable pre-expiry\");\n    }\n\n    function _onlyPostExpiration() internal view {\n        require(getCurrentTime() >= expirationTimestamp, \"Only callable post-expiry\");\n    }\n\n    function _onlyCollateralizedPosition(address sponsor) internal view {\n        require(\n            _getFeeAdjustedCollateral(positions[sponsor].rawCollateral).isGreaterThan(0),\n            \"Position has no collateral\"\n        );\n    }\n\n    // Note: This checks whether an already existing position has a pending withdrawal. This cannot be used on the\n    // `create` method because it is possible that `create` is called on a new position (i.e. one without any collateral\n    // or tokens outstanding) which would fail the `onlyCollateralizedPosition` modifier on `_getPositionData`.\n    function _positionHasNoPendingWithdrawal(address sponsor) internal view {\n        require(_getPositionData(sponsor).withdrawalRequestPassTimestamp == 0, \"Pending withdrawal\");\n    }\n\n    /****************************************\n     *          PRIVATE FUNCTIONS          *\n     ****************************************/\n\n    function _checkPositionCollateralization(PositionData storage positionData) private view returns (bool) {\n        return\n            _checkCollateralization(\n                _getFeeAdjustedCollateral(positionData.rawCollateral),\n                positionData.tokensOutstanding\n            );\n    }\n\n    // Checks whether the provided `collateral` and `numTokens` have a collateralization ratio above the global\n    // collateralization ratio.\n    function _checkCollateralization(FixedPoint.Unsigned memory collateral, FixedPoint.Unsigned memory numTokens)\n        private\n        view\n        returns (bool)\n    {\n        FixedPoint.Unsigned memory global = _getCollateralizationRatio(\n            _getFeeAdjustedCollateral(rawTotalPositionCollateral),\n            totalTokensOutstanding\n        );\n        FixedPoint.Unsigned memory thisChange = _getCollateralizationRatio(collateral, numTokens);\n        return !global.isGreaterThan(thisChange);\n    }\n\n    function _getCollateralizationRatio(FixedPoint.Unsigned memory collateral, FixedPoint.Unsigned memory numTokens)\n        private\n        pure\n        returns (FixedPoint.Unsigned memory ratio)\n    {\n        if (!numTokens.isGreaterThan(0)) {\n            return FixedPoint.fromUnscaledUint(0);\n        } else {\n            return collateral.div(numTokens);\n        }\n    }\n}\n",
  "sourcePath": "/home/alessandrovm/JarvisLavoro/SynFiat/packages/contracts/contracts/uma-contracts/financial-templates/expiring-multiparty/PricelessPositionManager.sol",
  "compiler": {
    "name": "solc",
    "version": "0.6.4+commit.1dca32f3.Emscripten.clang"
  },
  "schemaVersion": "3.2.5",
  "updatedAt": "2020-09-18T09:03:22.787Z",
  "devdoc": {
    "methods": {
      "constructor": {
        "params": {
          "_collateralAddress": "ERC20 token used as collateral for all positions.",
          "_expirationTimestamp": "unix timestamp of when the contract will expire.",
          "_finderAddress": "UMA protocol Finder used to discover other protocol contracts.",
          "_minSponsorTokens": "minimum amount of collateral that must exist at any time in a position.",
          "_priceIdentifier": "registered in the DVM for the synthetic.",
          "_syntheticName": "name for the token contract that will be deployed.",
          "_syntheticSymbol": "symbol for the token contract that will be deployed.",
          "_timerAddress": "Contract that stores the current time in a testing environment. Must be set to 0x0 for production environments that use live time.",
          "_tokenFactoryAddress": "deployed UMA token factory to create the synthetic token.",
          "_withdrawalLiveness": "liveness delay, in seconds, for pending withdrawals."
        }
      },
      "create((uint256),(uint256))": {
        "details": "Reverts if minting these tokens would put the position's collateralization ratio below the global collateralization ratio. This contract must be approved to spend at least `collateralAmount` of `collateralCurrency`.",
        "params": {
          "collateralAmount": "is the number of collateral tokens to collateralize the position with",
          "numTokens": "is the number of tokens to mint from the position."
        }
      },
      "deposit((uint256))": {
        "details": "Increases the collateralization level of a position after creation. This contract must be approved to spend at least `collateralAmount` of `collateralCurrency`.",
        "params": {
          "collateralAmount": "total amount of collateral tokens to be sent to the sponsor's position."
        }
      },
      "depositTo(address,(uint256))": {
        "details": "Increases the collateralization level of a position after creation. This contract must be approved to spend at least `collateralAmount` of `collateralCurrency`.",
        "params": {
          "collateralAmount": "total amount of collateral tokens to be sent to the sponsor's position.",
          "sponsor": "the sponsor to credit the deposit to."
        }
      },
      "emergencyShutdown()": {
        "details": "Only the governor can call this function as they are permissioned within the `FinancialContractAdmin`. Upon emergency shutdown, the contract settlement time is set to the shutdown time. This enables withdrawal to occur via the standard `settleExpired` function. Contract state is set to `ExpiredPriceRequested` which prevents re-entry into this function or the `expire` function. No fees are paid when calling `emergencyShutdown` as the governor who would call the function would also receive the fees."
      },
      "expire()": {
        "details": "this function can only be called once the contract is expired and can't be re-called."
      },
      "getCollateral(address)": {
        "details": "This is necessary because the struct returned by the positions() method shows rawCollateral, which isn't a user-readable value.",
        "params": {
          "sponsor": "address whose collateral amount is retrieved."
        },
        "returns": {
          "collateralAmount": "amount of collateral within a sponsors position."
        }
      },
      "payRegularFees()": {
        "details": "These must be paid periodically for the life of the contract. If the contract has not paid its regular fee in a week or more then a late penalty is applied which is sent to the caller. If the amount of fees owed are greater than the pfc, then this will pay as much as possible from the available collateral. An event is only fired if the fees charged are greater than 0.",
        "returns": {
          "totalPaid": "Amount of collateral that the contract paid (sum of the amount paid to the Store and caller). This returns 0 and exit early if there is no pfc, fees were already paid during the current block, or the fee rate is 0."
        }
      },
      "pfc()": {
        "details": "This is equivalent to the collateral pool available from which to pay fees. Therefore, derived contracts are expected to implement this so that pay-fee methods can correctly compute the owed fees as a % of PfC.",
        "returns": {
          "_0": "pfc value for equal to the current profit from corrution denominated in collateral currency."
        }
      },
      "redeem((uint256))": {
        "details": "Can only be called by a token sponsor. Might not redeem the full proportional amount of collateral in order to account for precision loss. This contract must be approved to spend at least `numTokens` of `tokenCurrency`.",
        "params": {
          "numTokens": "is the number of tokens to be burnt for a commensurate amount of collateral."
        },
        "returns": {
          "amountWithdrawn": "The actual amount of collateral withdrawn."
        }
      },
      "remargin()": {
        "details": "This is supposed to be implemented by any contract that inherits `AdministrateeInterface` and callable only by the Governor contract. This method is therefore minimally implemented in this contract and does nothing."
      },
      "requestTransferPosition()": {
        "details": "The liveness length is the same as the withdrawal liveness."
      },
      "requestWithdrawal((uint256))": {
        "details": "The request will be pending for `withdrawalLiveness`, during which the position can be liquidated.",
        "params": {
          "collateralAmount": "the amount of collateral requested to withdraw"
        }
      },
      "setCurrentTime(uint256)": {
        "details": "Will revert if not running in test mode.",
        "params": {
          "time": "timestamp to set current Testable time to."
        }
      },
      "settleExpired()": {
        "details": "This burns all tokens from the caller of `tokenCurrency` and sends back the proportional amount of `collateralCurrency`. Might not redeem the full proportional amount of collateral in order to account for precision loss. This contract must be approved to spend `tokenCurrency` at least up to the caller's full balance.",
        "returns": {
          "amountWithdrawn": "The actual amount of collateral withdrawn."
        }
      },
      "transferPositionPassedRequest(address)": {
        "details": "Transferring positions can only occur if the recipient does not already have a position.",
        "params": {
          "newSponsorAddress": "is the address to which the position will be transferred."
        }
      },
      "withdraw((uint256))": {
        "details": "Reverts if the withdrawal puts this position's collateralization ratio below the global collateralization ratio. In that case, use `requestWithdrawal`. Might not withdraw the full requested amount to account for precision loss.",
        "params": {
          "collateralAmount": "is the amount of collateral to withdraw."
        },
        "returns": {
          "amountWithdrawn": "The actual amount of collateral withdrawn."
        }
      },
      "withdrawPassedRequest()": {
        "details": "Might not withdraw the full requested amount in order to account for precision loss or if the full requested amount exceeds the collateral in the position (due to paying fees).",
        "returns": {
          "amountWithdrawn": "The actual amount of collateral withdrawn."
        }
      }
    },
    "title": "Financial contract with priceless position management."
  },
  "userdoc": {
    "methods": {
      "cancelTransferPosition()": {
        "notice": "Cancels a pending transfer position request."
      },
      "cancelWithdrawal()": {
        "notice": "Cancels a pending withdrawal request."
      },
      "constructor": "Construct the PricelessPositionManager",
      "create((uint256),(uint256))": {
        "notice": "Creates tokens by creating a new position or by augmenting an existing position. Pulls `collateralAmount` into the sponsor's position and mints `numTokens` of `tokenCurrency`."
      },
      "deposit((uint256))": {
        "notice": "Transfers `collateralAmount` of `collateralCurrency` into the caller's position."
      },
      "depositTo(address,(uint256))": {
        "notice": "Transfers `collateralAmount` of `collateralCurrency` into the specified sponsor's position."
      },
      "emergencyShutdown()": {
        "notice": "Premature contract settlement under emergency circumstances."
      },
      "expire()": {
        "notice": "Locks contract state in expired and requests oracle price."
      },
      "getCollateral(address)": {
        "notice": "Accessor method for a sponsor's collateral."
      },
      "getCurrentTime()": {
        "notice": "Gets the current time. Will return the last time set in `setCurrentTime` if running in test mode. Otherwise, it will return the block timestamp."
      },
      "payRegularFees()": {
        "notice": "Pays UMA DVM regular fees (as a % of the collateral pool) to the Store contract."
      },
      "pfc()": {
        "notice": "Gets the current profit from corruption for this contract in terms of the collateral currency."
      },
      "redeem((uint256))": {
        "notice": "Burns `numTokens` of `tokenCurrency` and sends back the proportional amount of `collateralCurrency`."
      },
      "remargin()": {
        "notice": "Theoretically supposed to pay fees and move money between margin accounts to make sure they reflect the NAV of the contract. However, this functionality doesn't apply to this contract."
      },
      "requestTransferPosition()": {
        "notice": "Requests to transfer ownership of the caller's current position to a new sponsor address. Once the request liveness is passed, the sponsor can execute the transfer and specify the new sponsor."
      },
      "requestWithdrawal((uint256))": {
        "notice": "Starts a withdrawal request that, if passed, allows the sponsor to withdraw` from their position."
      },
      "setCurrentTime(uint256)": {
        "notice": "Sets the current time."
      },
      "settleExpired()": {
        "notice": "After a contract has passed expiry all token holders can redeem their tokens for underlying at the prevailing price defined by the DVM from the `expire` function."
      },
      "totalPositionCollateral()": {
        "notice": "Accessor method for the total collateral stored within the PricelessPositionManager."
      },
      "transferPositionPassedRequest(address)": {
        "notice": "After a passed transfer position request (i.e., by a call to `requestTransferPosition` and waiting `withdrawalLiveness`), transfers ownership of the caller's current position to `newSponsorAddress`."
      },
      "withdraw((uint256))": {
        "notice": "Transfers `collateralAmount` of `collateralCurrency` from the sponsor's position to the sponsor."
      },
      "withdrawPassedRequest()": {
        "notice": "After a passed withdrawal request (i.e., by a call to `requestWithdrawal` and waiting `withdrawalLiveness`), withdraws `positionData.withdrawalRequestAmount` of collateral currency."
      }
    },
    "notice": "Handles positions for multiple sponsors in an optimistic (i.e., priceless) way without relying on a price feed. On construction, deploys a new ERC20, managed by this contract, that is the synthetic token."
  }
}