{
  "contractName": "ReentrancyMock",
  "abi": [
    {
      "inputs": [],
      "stateMutability": "nonpayable",
      "type": "constructor"
    },
    {
      "inputs": [],
      "name": "counter",
      "outputs": [
        {
          "internalType": "uint256",
          "name": "",
          "type": "uint256"
        }
      ],
      "stateMutability": "view",
      "type": "function"
    },
    {
      "inputs": [],
      "name": "callback",
      "outputs": [],
      "stateMutability": "nonpayable",
      "type": "function"
    },
    {
      "inputs": [
        {
          "internalType": "contract ReentrancyAttack",
          "name": "attacker",
          "type": "address"
        }
      ],
      "name": "countAndSend",
      "outputs": [],
      "stateMutability": "nonpayable",
      "type": "function"
    },
    {
      "inputs": [
        {
          "internalType": "contract ReentrancyAttack",
          "name": "attacker",
          "type": "address"
        }
      ],
      "name": "countAndCall",
      "outputs": [],
      "stateMutability": "nonpayable",
      "type": "function"
    },
    {
      "inputs": [
        {
          "internalType": "uint256",
          "name": "n",
          "type": "uint256"
        }
      ],
      "name": "countLocalRecursive",
      "outputs": [],
      "stateMutability": "nonpayable",
      "type": "function"
    },
    {
      "inputs": [
        {
          "internalType": "uint256",
          "name": "n",
          "type": "uint256"
        }
      ],
      "name": "countThisRecursive",
      "outputs": [],
      "stateMutability": "nonpayable",
      "type": "function"
    },
    {
      "inputs": [],
      "name": "countLocalCall",
      "outputs": [],
      "stateMutability": "nonpayable",
      "type": "function"
    },
    {
      "inputs": [],
      "name": "countThisCall",
      "outputs": [],
      "stateMutability": "nonpayable",
      "type": "function"
    },
    {
      "inputs": [],
      "name": "getCount",
      "outputs": [
        {
          "internalType": "uint256",
          "name": "",
          "type": "uint256"
        }
      ],
      "stateMutability": "view",
      "type": "function"
    }
  ],
  "bytecode": "0x608060405234801561001057600080fd5b506000805460ff19166001908117825555610841806100306000396000f3fe608060405234801561001057600080fd5b50600436106100a35760003560e01c806396ffa69011610076578063ad77de4a1161005b578063ad77de4a14610116578063af8aaee414610149578063b672ad8b14610151576100a3565b806396ffa690146100f1578063a87d942c1461010e576100a3565b8063083b2732146100a85780631352d005146100b257806361bc221a146100ba5780638c5344fa146100d4575b600080fd5b6100b0610184565b005b6100b06101a6565b6100c26101c7565b60408051918252519081900360200190f35b6100b0600480360360208110156100ea57600080fd5b50356101cd565b6100b06004803603602081101561010757600080fd5b50356103a7565b6100c26103d1565b6100b06004803603602081101561012c57600080fd5b503573ffffffffffffffffffffffffffffffffffffffff166103e2565b6100b06104d8565b6100b06004803603602081101561016757600080fd5b503573ffffffffffffffffffffffffffffffffffffffff16610664565b61018c610739565b6101946107aa565b61019c6107d4565b6101a46107de565b565b6101ae610739565b6101b66107aa565b6101be6103d1565b506101a46107de565b60015481565b6101d5610739565b6101dd6107aa565b801561039c576101eb6107d4565b604080517fffffffffffffffffffffffffffffffffffffffffffffffffffffffffffffffff830160248083019190915282518083039091018152604490910182526020810180517bffffffffffffffffffffffffffffffffffffffffffffffffffffffff167f8c5344fa0000000000000000000000000000000000000000000000000000000017815291518151600093309392918291908083835b602083106102c357805182527fffffffffffffffffffffffffffffffffffffffffffffffffffffffffffffffe09092019160209182019101610286565b6001836020036101000a0380198251168184511680821785525050505050509050019150506000604051808303816000865af19150503d8060008114610325576040519150601f19603f3d011682016040523d82523d6000602084013e61032a565b606091505b505090508061039a57604080517f08c379a000000000000000000000000000000000000000000000000000000000815260206004820152601b60248201527f5265656e7472616e63794d6f636b3a206661696c65642063616c6c0000000000604482015290519081900360640190fd5b505b6103a46107de565b50565b6103af610739565b6103b76107aa565b801561039c576103c56107d4565b61039c600182036103a7565b60006103db610739565b5060015490565b6103ea610739565b6103f26107aa565b6103fa6107d4565b604080517f63616c6c6261636b2829000000000000000000000000000000000000000000008152815190819003600a0181207f0a2df1ed0000000000000000000000000000000000000000000000000000000082527fffffffff0000000000000000000000000000000000000000000000000000000081166004830152915173ffffffffffffffffffffffffffffffffffffffff841691630a2df1ed91602480830192600092919082900301818387803b1580156104b757600080fd5b505af11580156104cb573d6000803e3d6000fd5b50505050506103a46107de565b6104e0610739565b6104e86107aa565b60408051600481526024810182526020810180517bffffffffffffffffffffffffffffffffffffffffffffffffffffffff167fa87d942c0000000000000000000000000000000000000000000000000000000017815291518151600093309392918291908083835b6020831061058d57805182527fffffffffffffffffffffffffffffffffffffffffffffffffffffffffffffffe09092019160209182019101610550565b6001836020036101000a0380198251168184511680821785525050505050509050019150506000604051808303816000865af19150503d80600081146105ef576040519150601f19603f3d011682016040523d82523d6000602084013e6105f4565b606091505b50509050806101be57604080517f08c379a000000000000000000000000000000000000000000000000000000000815260206004820152601b60248201527f5265656e7472616e63794d6f636b3a206661696c65642063616c6c0000000000604482015290519081900360640190fd5b61066c610739565b6106746107aa565b61067c6107d4565b604080517f676574436f756e742829000000000000000000000000000000000000000000008152815190819003600a0181207f0a2df1ed0000000000000000000000000000000000000000000000000000000082527fffffffff0000000000000000000000000000000000000000000000000000000081166004830152915173ffffffffffffffffffffffffffffffffffffffff841691630a2df1ed91602480830192600092919082900301818387803b1580156104b757600080fd5b60005460ff166101a457604080517f08c379a000000000000000000000000000000000000000000000000000000000815260206004820152601f60248201527f5265656e7472616e637947756172643a207265656e7472616e742063616c6c00604482015290519081900360640190fd5b600080547fffffffffffffffffffffffffffffffffffffffffffffffffffffffffffffff00169055565b6001805481019055565b600080547fffffffffffffffffffffffffffffffffffffffffffffffffffffffffffffff0016600117905556fea26469706673582212206c8c9b0bea3333f48ed868ad9f9e951a653d2d019200f7023827eed20e031df964736f6c63430006040033",
  "source": "pragma solidity ^0.6.0;\n\nimport \"../implementation/Lockable.sol\";\nimport \"./ReentrancyAttack.sol\";\n\n\n// Tests reentrancy guards defined in Lockable.sol.\n// Extends https://github.com/OpenZeppelin/openzeppelin-contracts/blob/v3.0.1/contracts/mocks/ReentrancyMock.sol.\ncontract ReentrancyMock is Lockable {\n    uint256 public counter;\n\n    constructor() public {\n        counter = 0;\n    }\n\n    function callback() external nonReentrant {\n        _count();\n    }\n\n    function countAndSend(ReentrancyAttack attacker) external nonReentrant {\n        _count();\n        bytes4 func = bytes4(keccak256(\"callback()\"));\n        attacker.callSender(func);\n    }\n\n    function countAndCall(ReentrancyAttack attacker) external nonReentrant {\n        _count();\n        bytes4 func = bytes4(keccak256(\"getCount()\"));\n        attacker.callSender(func);\n    }\n\n    function countLocalRecursive(uint256 n) public nonReentrant {\n        if (n > 0) {\n            _count();\n            countLocalRecursive(n - 1);\n        }\n    }\n\n    function countThisRecursive(uint256 n) public nonReentrant {\n        if (n > 0) {\n            _count();\n            // solhint-disable-next-line avoid-low-level-calls\n            (bool success, ) = address(this).call(abi.encodeWithSignature(\"countThisRecursive(uint256)\", n - 1));\n            require(success, \"ReentrancyMock: failed call\");\n        }\n    }\n\n    function countLocalCall() public nonReentrant {\n        getCount();\n    }\n\n    function countThisCall() public nonReentrant {\n        // solhint-disable-next-line avoid-low-level-calls\n        (bool success, ) = address(this).call(abi.encodeWithSignature(\"getCount()\"));\n        require(success, \"ReentrancyMock: failed call\");\n    }\n\n    function getCount() public view nonReentrantView returns (uint256) {\n        return counter;\n    }\n\n    function _count() private {\n        counter += 1;\n    }\n}\n",
  "sourcePath": "/home/alessandrovm/JarvisLavoro/SynFiat/packages/contracts/contracts/uma-contracts/common/test/ReentrancyMock.sol",
  "compiler": {
    "name": "solc",
    "version": "0.6.4+commit.1dca32f3.Emscripten.clang"
  },
  "schemaVersion": "3.2.5",
  "updatedAt": "2020-09-18T09:03:22.680Z",
  "devdoc": {
    "methods": {}
  },
  "userdoc": {
    "methods": {}
  }
}