{
  "contractName": "Registry",
  "abi": [
    {
      "inputs": [],
      "stateMutability": "nonpayable",
      "type": "constructor"
    },
    {
      "anonymous": false,
      "inputs": [
        {
          "indexed": true,
          "internalType": "address",
          "name": "contractAddress",
          "type": "address"
        },
        {
          "indexed": true,
          "internalType": "address",
          "name": "creator",
          "type": "address"
        },
        {
          "indexed": false,
          "internalType": "address[]",
          "name": "parties",
          "type": "address[]"
        }
      ],
      "name": "NewContractRegistered",
      "type": "event"
    },
    {
      "anonymous": false,
      "inputs": [
        {
          "indexed": true,
          "internalType": "address",
          "name": "contractAddress",
          "type": "address"
        },
        {
          "indexed": true,
          "internalType": "address",
          "name": "party",
          "type": "address"
        }
      ],
      "name": "PartyAdded",
      "type": "event"
    },
    {
      "anonymous": false,
      "inputs": [
        {
          "indexed": true,
          "internalType": "address",
          "name": "contractAddress",
          "type": "address"
        },
        {
          "indexed": true,
          "internalType": "address",
          "name": "party",
          "type": "address"
        }
      ],
      "name": "PartyRemoved",
      "type": "event"
    },
    {
      "inputs": [
        {
          "internalType": "uint256",
          "name": "roleId",
          "type": "uint256"
        },
        {
          "internalType": "address",
          "name": "newMember",
          "type": "address"
        }
      ],
      "name": "addMember",
      "outputs": [],
      "stateMutability": "nonpayable",
      "type": "function"
    },
    {
      "inputs": [
        {
          "internalType": "address",
          "name": "",
          "type": "address"
        }
      ],
      "name": "contractMap",
      "outputs": [
        {
          "internalType": "enum Registry.Validity",
          "name": "valid",
          "type": "uint8"
        },
        {
          "internalType": "uint128",
          "name": "index",
          "type": "uint128"
        }
      ],
      "stateMutability": "view",
      "type": "function"
    },
    {
      "inputs": [
        {
          "internalType": "uint256",
          "name": "roleId",
          "type": "uint256"
        }
      ],
      "name": "getMember",
      "outputs": [
        {
          "internalType": "address",
          "name": "",
          "type": "address"
        }
      ],
      "stateMutability": "view",
      "type": "function"
    },
    {
      "inputs": [
        {
          "internalType": "uint256",
          "name": "roleId",
          "type": "uint256"
        },
        {
          "internalType": "address",
          "name": "memberToCheck",
          "type": "address"
        }
      ],
      "name": "holdsRole",
      "outputs": [
        {
          "internalType": "bool",
          "name": "",
          "type": "bool"
        }
      ],
      "stateMutability": "view",
      "type": "function"
    },
    {
      "inputs": [
        {
          "internalType": "uint256",
          "name": "",
          "type": "uint256"
        }
      ],
      "name": "registeredContracts",
      "outputs": [
        {
          "internalType": "address",
          "name": "",
          "type": "address"
        }
      ],
      "stateMutability": "view",
      "type": "function"
    },
    {
      "inputs": [
        {
          "internalType": "uint256",
          "name": "roleId",
          "type": "uint256"
        },
        {
          "internalType": "address",
          "name": "memberToRemove",
          "type": "address"
        }
      ],
      "name": "removeMember",
      "outputs": [],
      "stateMutability": "nonpayable",
      "type": "function"
    },
    {
      "inputs": [
        {
          "internalType": "uint256",
          "name": "roleId",
          "type": "uint256"
        },
        {
          "internalType": "address",
          "name": "newMember",
          "type": "address"
        }
      ],
      "name": "resetMember",
      "outputs": [],
      "stateMutability": "nonpayable",
      "type": "function"
    },
    {
      "inputs": [
        {
          "internalType": "address[]",
          "name": "parties",
          "type": "address[]"
        },
        {
          "internalType": "address",
          "name": "contractAddress",
          "type": "address"
        }
      ],
      "name": "registerContract",
      "outputs": [],
      "stateMutability": "nonpayable",
      "type": "function"
    },
    {
      "inputs": [
        {
          "internalType": "address",
          "name": "party",
          "type": "address"
        }
      ],
      "name": "addPartyToContract",
      "outputs": [],
      "stateMutability": "nonpayable",
      "type": "function"
    },
    {
      "inputs": [
        {
          "internalType": "address",
          "name": "partyAddress",
          "type": "address"
        }
      ],
      "name": "removePartyFromContract",
      "outputs": [],
      "stateMutability": "nonpayable",
      "type": "function"
    },
    {
      "inputs": [
        {
          "internalType": "address",
          "name": "contractAddress",
          "type": "address"
        }
      ],
      "name": "isContractRegistered",
      "outputs": [
        {
          "internalType": "bool",
          "name": "",
          "type": "bool"
        }
      ],
      "stateMutability": "view",
      "type": "function"
    },
    {
      "inputs": [
        {
          "internalType": "address",
          "name": "party",
          "type": "address"
        }
      ],
      "name": "getRegisteredContracts",
      "outputs": [
        {
          "internalType": "address[]",
          "name": "",
          "type": "address[]"
        }
      ],
      "stateMutability": "view",
      "type": "function"
    },
    {
      "inputs": [],
      "name": "getAllRegisteredContracts",
      "outputs": [
        {
          "internalType": "address[]",
          "name": "",
          "type": "address[]"
        }
      ],
      "stateMutability": "view",
      "type": "function"
    },
    {
      "inputs": [
        {
          "internalType": "address",
          "name": "party",
          "type": "address"
        },
        {
          "internalType": "address",
          "name": "contractAddress",
          "type": "address"
        }
      ],
      "name": "isPartyMemberOfContract",
      "outputs": [
        {
          "internalType": "bool",
          "name": "",
          "type": "bool"
        }
      ],
      "stateMutability": "view",
      "type": "function"
    }
  ],
  "bytecode": "0x60806040523480156200001157600080fd5b5062000029600080336001600160e01b036200004d16565b60408051600080825260208201909252620000479160019162000120565b620003b9565b826000808281526020819052604090206001015460ff1660028111156200007057fe5b14620000995760405162461bcd60e51b81526004016200009090620002f3565b60405180910390fd5b60008481526020819052604090206001808201805460ff191682800217905550838155620000d76002820184620001e2602090811b620018ae17901c565b60008481526020819052604081206001015460ff166002811115620000f857fe5b1415620001195760405162461bcd60e51b81526004016200009090620002a7565b5050505050565b826000808281526020819052604090206001015460ff1660028111156200014357fe5b14620001635760405162461bcd60e51b81526004016200009090620002f3565b60008481526020818152604090912060018101805460ff1916600217905584815590620001a09060038301908590620018bc620001fb821b17901c565b60008481526020819052604081206001015460ff166002811115620001c157fe5b1415620001195760405162461bcd60e51b815260040162000090906200036d565b620001f782826001600160e01b036200023c16565b5050565b60005b815181101562000237576200022e838383815181106200021a57fe5b60200260200101516200028260201b60201c565b600101620001fe565b505050565b6001600160a01b038116620002655760405162461bcd60e51b815260040162000090906200032a565b81546001600160a01b0319166001600160a01b0391909116179055565b6001600160a01b0316600090815260209190915260409020805460ff19166001179055565b6020808252603c9082015260008051602062001cf183398151915260408201527f20746f206d616e61676520616e206578636c757369766520726f6c6500000000606082015260800190565b6020808252601e908201527f43616e6e6f74207573652061207072652d6578697374696e6720726f6c650000604082015260600190565b60208082526023908201527f43616e6e6f742073657420616e206578636c757369766520726f6c6520746f2060408201526203078360ec1b606082015260800190565b602080825260389082015260008051602062001cf183398151915260408201527f20746f206d616e61676520612073686172656420726f6c650000000000000000606082015260800190565b61192880620003c96000396000f3fe608060405234801561001057600080fd5b50600436106100ea5760003560e01c806374d0a6761161008c578063ab3545e511610066578063ab3545e5146101d5578063d97c05be146101f5578063e33c4cd214610208578063f9f6b49b1461021b576100ea565b806374d0a6761461018f5780637a3edab0146101a25780637cdc1cb9146101c2576100ea565b8063303118d0116100c8578063303118d0146101355780633c0af3441461014857806366c8c250146101695780636be7658b1461017c576100ea565b80631676ddc3146100ef578063167cdde71461010d578063188c6ff814610122575b600080fd5b6100f761022e565b60405161010491906113d4565b60405180910390f35b61012061011b36600461124d565b61029d565b005b6100f761013036600461124d565b6103df565b61012061014336600461124d565b61046f565b61015b61015636600461124d565b61072f565b604051610104929190611439565b61012061017736600461129c565b61075d565b61012061018a366004611335565b610b29565b61012061019d366004611335565b610bfb565b6101b56101b0366004611268565b610cc7565b604051610104919061142e565b6101b56101d0366004611335565b610d71565b6101e86101e336600461131d565b610e14565b6040516101049190611358565b610120610203366004611335565b610e91565b6101e861021636600461131d565b610f5d565b6101b561022936600461124d565b610f91565b6060600180548060200260200160405190810160405280929190818152602001828054801561029357602002820191906000526020600020905b815473ffffffffffffffffffffffffffffffffffffffff168152600190910190602001808311610268575b5050505050905090565b3360008181526002602052604090205460019060ff16818111156102bd57fe5b146102fd576040517f08c379a00000000000000000000000000000000000000000000000000000000081526004016102f4906115a4565b60405180910390fd5b6103078282610cc7565b1561033e576040517f08c379a00000000000000000000000000000000000000000000000000000000081526004016102f49061174f565b73ffffffffffffffffffffffffffffffffffffffff8281166000818152600360209081526040808320805460018082018355828652848620820180547fffffffffffffffffffffffff000000000000000000000000000000000000000016988a169889179055878652909101909252808320829055519093917f4b920dd33e12e37712086438f2afcecb921cefe83b717ca990222f53d7e2845491a3505050565b73ffffffffffffffffffffffffffffffffffffffff811660009081526003602090815260409182902080548351818402810184019094528084526060939283018282801561046357602002820191906000526020600020905b815473ffffffffffffffffffffffffffffffffffffffff168152600190910190602001808311610438575b50505050509050919050565b73ffffffffffffffffffffffffffffffffffffffff811660009081526003602052604090208054339190806104d0576040517f08c379a00000000000000000000000000000000000000000000000000000000081526004016102f4906116f2565b600173ffffffffffffffffffffffffffffffffffffffff841660009081526002602052604090205460ff16600181111561050657fe5b1461053d576040517f08c379a00000000000000000000000000000000000000000000000000000000081526004016102f4906114d9565b6105478484610cc7565b61057d576040517f08c379a00000000000000000000000000000000000000000000000000000000081526004016102f490611638565b73ffffffffffffffffffffffffffffffffffffffff83166000908152600183016020526040812054835490919084907fffffffffffffffffffffffffffffffffffffffffffffffffffffffffffffffff85019081106105d857fe5b600091825260209091200154845473ffffffffffffffffffffffffffffffffffffffff9091169150819085908490811061060e57fe5b600091825260208083209190910180547fffffffffffffffffffffffff00000000000000000000000000000000000000001673ffffffffffffffffffffffffffffffffffffffff94851617905591831681526001860190915260409020829055835484908061067957fe5b6000828152602080822083017fffffffffffffffffffffffffffffffffffffffffffffffffffffffffffffffff90810180547fffffffffffffffffffffffff000000000000000000000000000000000000000016905590920190925573ffffffffffffffffffffffffffffffffffffffff87811680845260018801909252604080842084905551908916927f8e0a870c3ff65bd1f2852048eb92d693833891a8c0ab0827347177544464c57091a3505050505050565b60026020526000908152604090205460ff81169061010090046fffffffffffffffffffffffffffffffff1682565b60016107698133610d71565b61079f576040517f08c379a00000000000000000000000000000000000000000000000000000000081526004016102f490611695565b73ffffffffffffffffffffffffffffffffffffffff82166000908152600260205260408120805490919060ff1660018111156107d757fe5b1461080e576040517f08c379a00000000000000000000000000000000000000000000000000000000081526004016102f490611840565b60018054808201825560008290527fb10e2d527612073b26eecdfd717e6a320cf44b4afac2b0732d9fcbe2b7fa0cf60180547fffffffffffffffffffffffff00000000000000000000000000000000000000001673ffffffffffffffffffffffffffffffffffffffff8616179055805461088791610fd0565b815460016fffffffffffffffffffffffffffffffff92909216610100027fffffffffffffffffffffffffffffff00000000000000000000000000000000ff909116177fffffffffffffffffffffffffffffffffffffffffffffffffffffffffffffff001617815560005b84811015610aba576003600087878481811061090957fe5b905060200201602081019061091e919061124d565b73ffffffffffffffffffffffffffffffffffffffff908116825260208083019390935260409091016000908120805460018101825590825292812090920180547fffffffffffffffffffffffff00000000000000000000000000000000000000001691871691909117905560038188888581811061099857fe5b90506020020160208101906109ad919061124d565b73ffffffffffffffffffffffffffffffffffffffff168152602081019190915260400160009081205491507fffffffffffffffffffffffffffffffffffffffffffffffffffffffffffffffff820190600390898986818110610a0b57fe5b9050602002016020810190610a20919061124d565b73ffffffffffffffffffffffffffffffffffffffff1673ffffffffffffffffffffffffffffffffffffffff16815260200190815260200160002060010160008773ffffffffffffffffffffffffffffffffffffffff1673ffffffffffffffffffffffffffffffffffffffff1681526020019081526020016000208190555050610ab360018261101290919063ffffffff16565b90506108f1565b503373ffffffffffffffffffffffffffffffffffffffff168373ffffffffffffffffffffffffffffffffffffffff167f1b0bc775e5162f873356bcc1733155bd2eb9509f1774770f54b4f938287bcf038787604051610b1a929190611379565b60405180910390a35050505050565b81600260008281526020819052604090206001015460ff166002811115610b4c57fe5b14610b83576040517f08c379a00000000000000000000000000000000000000000000000000000000081526004016102f4906115db565b6000838152602081905260409020548390610b9e9033610d71565b610bd4576040517f08c379a00000000000000000000000000000000000000000000000000000000081526004016102f4906117e3565b6000848152602081905260409020610bf5906003018463ffffffff61105116565b50505050565b81600260008281526020819052604090206001015460ff166002811115610c1e57fe5b14610c55576040517f08c379a00000000000000000000000000000000000000000000000000000000081526004016102f4906115db565b6000838152602081905260409020548390610c709033610d71565b610ca6576040517f08c379a00000000000000000000000000000000000000000000000000000000081526004016102f4906117e3565b6000848152602081905260409020610bf5906003018463ffffffff61109e16565b73ffffffffffffffffffffffffffffffffffffffff8083166000818152600360208181526040808420958716845260018601825283205493835252915481108015610d67575073ffffffffffffffffffffffffffffffffffffffff848116600090815260036020526040902080549185169183908110610d4357fe5b60009182526020909120015473ffffffffffffffffffffffffffffffffffffffff16145b9150505b92915050565b600082815260208190526040812060018082015460ff166002811115610d9357fe5b1415610db457610dac600282018463ffffffff6110ee16565b915050610d6b565b6002600182015460ff166002811115610dc957fe5b1415610de257610dac600382018463ffffffff61110e16565b6040517f08c379a00000000000000000000000000000000000000000000000000000000081526004016102f490611877565b600081600160008281526020819052604090206001015460ff166002811115610e3957fe5b14610e70576040517f08c379a00000000000000000000000000000000000000000000000000000000081526004016102f490611547565b6000838152602081905260409020610e8a9060020161113a565b9392505050565b81600160008281526020819052604090206001015460ff166002811115610eb457fe5b14610eeb576040517f08c379a00000000000000000000000000000000000000000000000000000000081526004016102f490611547565b6000838152602081905260409020548390610f069033610d71565b610f3c576040517f08c379a00000000000000000000000000000000000000000000000000000000081526004016102f4906117e3565b6000848152602081905260409020610bf5906002018463ffffffff61115416565b60018181548110610f6a57fe5b60009182526020909120015473ffffffffffffffffffffffffffffffffffffffff16905081565b6000600173ffffffffffffffffffffffffffffffffffffffff831660009081526002602052604090205460ff166001811115610fc957fe5b1492915050565b6000610e8a83836040518060400160405280601e81526020017f536166654d6174683a207375627472616374696f6e206f766572666c6f7700008152506111e3565b600082820183811015610e8a576040517f08c379a00000000000000000000000000000000000000000000000000000000081526004016102f490611510565b73ffffffffffffffffffffffffffffffffffffffff1660009081526020919091526040902080547fffffffffffffffffffffffffffffffffffffffffffffffffffffffffffffff00169055565b73ffffffffffffffffffffffffffffffffffffffff1660009081526020919091526040902080547fffffffffffffffffffffffffffffffffffffffffffffffffffffffffffffff00166001179055565b905473ffffffffffffffffffffffffffffffffffffffff91821691161490565b73ffffffffffffffffffffffffffffffffffffffff166000908152602091909152604090205460ff1690565b5473ffffffffffffffffffffffffffffffffffffffff1690565b73ffffffffffffffffffffffffffffffffffffffff81166111a1576040517f08c379a00000000000000000000000000000000000000000000000000000000081526004016102f490611786565b81547fffffffffffffffffffffffff00000000000000000000000000000000000000001673ffffffffffffffffffffffffffffffffffffffff91909116179055565b60008184841115611221576040517f08c379a00000000000000000000000000000000000000000000000000000000081526004016102f49190611468565b505050900390565b803573ffffffffffffffffffffffffffffffffffffffff81168114610d6b57600080fd5b60006020828403121561125e578081fd5b610e8a8383611229565b6000806040838503121561127a578081fd5b6112848484611229565b91506112938460208501611229565b90509250929050565b6000806000604084860312156112b0578081fd5b833567ffffffffffffffff808211156112c7578283fd5b81860187601f8201126112d8578384fd5b80359250818311156112e8578384fd5b87602080850283010111156112fb578384fd5b6020810195505050809250506113148560208601611229565b90509250925092565b60006020828403121561132e578081fd5b5035919050565b60008060408385031215611347578182fd5b823591506112938460208501611229565b73ffffffffffffffffffffffffffffffffffffffff91909116815260200190565b60208082528181018390526000908460408401835b868110156113c95783830173ffffffffffffffffffffffffffffffffffffffff6113b88286611229565b16835292509083019060010161138e565b509695505050505050565b6020808252825182820181905260009190848201906040850190845b8181101561142257835173ffffffffffffffffffffffffffffffffffffffff16835292840192918401916001016113f0565b50909695505050505050565b901515815260200190565b604081016002841061144757fe5b9281526fffffffffffffffffffffffffffffffff9190911660209091015290565b6000602080835283518082850152825b8181101561149457858101830151858201604001528201611478565b818111156114a55783604083870101525b50601f017fffffffffffffffffffffffffffffffffffffffffffffffffffffffffffffffe016929092016040019392505050565b6020808252601f908201527f52656d6f7665206f6e6c792066726f6d2076616c696420636f6e747261637400604082015260600190565b6020808252601b908201527f536166654d6174683a206164646974696f6e206f766572666c6f770000000000604082015260600190565b6020808252602f908201527f4d7573742062652063616c6c6564206f6e20616e20696e697469616c697a656460408201527f204578636c757369766520726f6c650000000000000000000000000000000000606082015260800190565b6020808252601e908201527f43616e206f6e6c792061646420746f2076616c696420636f6e74726163740000604082015260600190565b6020808252602c908201527f4d7573742062652063616c6c6564206f6e20616e20696e697469616c697a656460408201527f2053686172656420726f6c650000000000000000000000000000000000000000606082015260800190565b60208082526021908201527f43616e206f6e6c792072656d6f766520616e206578697374696e67207061727460408201527f7900000000000000000000000000000000000000000000000000000000000000606082015260800190565b60208082526022908201527f53656e64657220646f6573206e6f7420686f6c6420726571756972656420726f60408201527f6c65000000000000000000000000000000000000000000000000000000000000606082015260800190565b60208082526026908201527f43616e27742072656d6f766520696620706172747920686173206e6f20636f6e60408201527f7472616374730000000000000000000000000000000000000000000000000000606082015260800190565b6020808252601e908201527f43616e206f6e6c792072656769737465722061207061727479206f6e63650000604082015260600190565b60208082526023908201527f43616e6e6f742073657420616e206578636c757369766520726f6c6520746f2060408201527f3078300000000000000000000000000000000000000000000000000000000000606082015260800190565b60208082526024908201527f43616e206f6e6c792062652063616c6c6564206279206120726f6c65206d616e60408201527f6167657200000000000000000000000000000000000000000000000000000000606082015260800190565b60208082526016908201527f43616e206f6e6c79207265676973746572206f6e636500000000000000000000604082015260600190565b6020808252600e908201527f496e76616c696420726f6c654964000000000000000000000000000000000000604082015260600190565b6118b88282611154565b5050565b60005b81518110156118ed576118e5838383815181106118d857fe5b602002602001015161109e565b6001016118bf565b50505056fea26469706673582212203554427cbf591c669108852d9871c77753d12552eafb716a800c00f6917b2c1964736f6c63430006040033417474656d7074656420746f2075736520616e20696e76616c696420726f6c65",
  "source": "pragma solidity ^0.6.0;\npragma experimental ABIEncoderV2;\n\nimport \"../../common/implementation/MultiRole.sol\";\nimport \"../interfaces/RegistryInterface.sol\";\n\nimport \"@openzeppelin/contracts/math/SafeMath.sol\";\n\n\n/**\n * @title Registry for financial contracts and approved financial contract creators.\n * @dev Maintains a whitelist of financial contract creators that are allowed\n * to register new financial contracts and stores party members of a financial contract.\n */\ncontract Registry is RegistryInterface, MultiRole {\n    using SafeMath for uint;\n\n    /****************************************\n     *    INTERNAL VARIABLES AND STORAGE    *\n     ****************************************/\n\n    enum Roles {\n        Owner, // The owner manages the set of ContractCreators.\n        ContractCreator // Can register financial contracts.\n    }\n\n    // This enum is required because a WasValid state is required to ensure that financial contracts cannot be re-registered.\n    enum Validity { Invalid, Valid }\n\n    // Local information about a contract.\n    struct FinancialContract {\n        Validity valid;\n        uint128 index;\n    }\n\n    struct Party {\n        address[] contracts; // Each financial contract address is stored in this array.\n        // The index of each financial contract is mapped to it's address for constant time look up and deletion.\n        mapping(address => uint) contractIndex;\n    }\n\n    // Array of all contracts that are approved to use the UMA Oracle.\n    address[] public registeredContracts;\n\n    // Map of financial contract contracts to the associated FinancialContract struct.\n    mapping(address => FinancialContract) public contractMap;\n\n    // Map each party member to their associated FinancialContract struct.\n    mapping(address => Party) private partyMap;\n\n    /****************************************\n     *                EVENTS                *\n     ****************************************/\n\n    event NewContractRegistered(address indexed contractAddress, address indexed creator, address[] parties);\n    event PartyAdded(address indexed contractAddress, address indexed party);\n    event PartyRemoved(address indexed contractAddress, address indexed party);\n\n    /**\n     * @notice Construct the Registry contract.\n     */\n    constructor() public {\n        _createExclusiveRole(uint(Roles.Owner), uint(Roles.Owner), msg.sender);\n        // Start with no contract creators registered.\n        _createSharedRole(uint(Roles.ContractCreator), uint(Roles.Owner), new address[](0));\n    }\n\n    /****************************************\n     *        REGISTRATION FUNCTIONS        *\n     ****************************************/\n\n    /**\n     * @notice Registers a new financial contract.\n     * @dev Only authorized contract creators can call this method.\n     * @param parties an array of addresses who become parties in the contract.\n     * @param contractAddress defines the address of the deployed finan.\n     */\n    // TODO(#969) Remove once prettier-plugin-solidity can handle the \"override\" keyword\n    // prettier-ignore\n    function registerContract(address[] calldata parties, address contractAddress)\n        external\n        override\n        onlyRoleHolder(uint(Roles.ContractCreator))\n    {\n        FinancialContract storage financialContract = contractMap[contractAddress];\n        require(contractMap[contractAddress].valid == Validity.Invalid, \"Can only register once\");\n\n        // Store contract address as a registered contract.\n        registeredContracts.push(contractAddress);\n\n        // No length check necessary because we should never hit (2^127 - 1) contracts.\n        financialContract.index = uint128(registeredContracts.length.sub(1));\n\n        // For all parties in the array add them to the contract's parties.\n        financialContract.valid = Validity.Valid;\n        for (uint i = 0; i < parties.length; i = i.add(1)) {\n            partyMap[parties[i]].contracts.push(contractAddress);\n            uint newLength = partyMap[parties[i]].contracts.length;\n            partyMap[parties[i]].contractIndex[contractAddress] = newLength - 1;\n        }\n\n        emit NewContractRegistered(contractAddress, msg.sender, parties);\n    }\n\n    /**\n     * @notice Adds a party member to the calling contract.\n     * @dev msg.sender will be used to determine the contract that this party is added to.\n     * @param party new party for the calling contract.\n     */\n    // TODO(#969) Remove once prettier-plugin-solidity can handle the \"override\" keyword\n    // prettier-ignore\n    function addPartyToContract(address party) external override {\n        address contractAddress = msg.sender;\n\n        require(contractMap[contractAddress].valid == Validity.Valid, \"Can only add to valid contract\");\n        require(!isPartyMemberOfContract(party, contractAddress), \"Can only register a party once\");\n\n        // Push the contract address and store the index.\n        uint contractIndex = partyMap[party].contracts.length;\n        partyMap[party].contracts.push(contractAddress);\n        partyMap[party].contractIndex[contractAddress] = contractIndex;\n\n        emit PartyAdded(contractAddress, party);\n    }\n\n    /**\n     * @notice Removes a party member to the calling contract.\n     * @dev msg.sender will be used to determine the contract that this party is removed from.\n     * @param partyAddress address to be removed from the calling contract.\n     */\n    // TODO(#969) Remove once prettier-plugin-solidity can handle the \"override\" keyword\n    // prettier-ignore\n    function removePartyFromContract(address partyAddress) external override {\n        address contractAddress = msg.sender;\n        Party storage party = partyMap[partyAddress];\n        uint256 numberOfContracts = party.contracts.length;\n\n        require(numberOfContracts != 0, \"Can't remove if party has no contracts\");\n        require(contractMap[contractAddress].valid == Validity.Valid, \"Remove only from valid contract\");\n        require(isPartyMemberOfContract(partyAddress, contractAddress), \"Can only remove an existing party\");\n\n        // Index of the current location of the contract to remove.\n        uint deleteIndex = party.contractIndex[contractAddress];\n\n        // Store the last contract's address to update the lookup map.\n        address lastContractAddress = party.contracts[numberOfContracts - 1];\n\n        // Swap the contract to be removed with the last contract.\n        party.contracts[deleteIndex] = lastContractAddress;\n\n        // Update the lookup index with the new location.\n        party.contractIndex[lastContractAddress] = deleteIndex;\n\n        // Pop the last contract from the array and update the lookup map.\n        party.contracts.pop();\n        delete party.contractIndex[contractAddress];\n\n        emit PartyRemoved(contractAddress, partyAddress);\n    }\n\n    /****************************************\n     *         REGISTRY STATE GETTERS       *\n     ****************************************/\n\n    /**\n     * @notice Returns whether the contract has been registered with the registry.\n     * @dev If it is registered, it is an authorized participant in the UMA system.\n     * @param contractAddress address of the financial contract.\n     * @return bool indicates whether the contract is registered.\n     */\n    // TODO(#969) Remove once prettier-plugin-solidity can handle the \"override\" keyword\n    // prettier-ignore\n    function isContractRegistered(address contractAddress) external override view returns (bool) {\n        return contractMap[contractAddress].valid == Validity.Valid;\n    }\n\n    /**\n     * @notice Returns a list of all contracts that are associated with a particular party.\n     * @param party address of the party.\n     * @return an array of the contracts the party is registered to.\n     */\n    // TODO(#969) Remove once prettier-plugin-solidity can handle the \"override\" keyword\n    // prettier-ignore\n    function getRegisteredContracts(address party) external override view returns (address[] memory) {\n        return partyMap[party].contracts;\n    }\n\n    /**\n     * @notice Returns all registered contracts.\n     * @return all registered contract addresses within the system.\n     */\n    // TODO(#969) Remove once prettier-plugin-solidity can handle the \"override\" keyword\n    // prettier-ignore\n    function getAllRegisteredContracts() external override view returns (address[] memory) {\n        return registeredContracts;\n    }\n\n    /**\n     * @notice checks if an address is a party of a contract.\n     * @param party party to check.\n     * @param contractAddress address to check against the party.\n     * @return bool indicating if the address is a party of the contract.\n     */\n    // TODO(#969) Remove once prettier-plugin-solidity can handle the \"override\" keyword\n    // prettier-ignore\n    function isPartyMemberOfContract(address party, address contractAddress) public override view returns (bool) {\n        uint index = partyMap[party].contractIndex[contractAddress];\n        return partyMap[party].contracts.length > index && partyMap[party].contracts[index] == contractAddress;\n    }\n}\n",
  "sourcePath": "/home/opz/Projects/SynFiat-update/gitlab/contracts/uma-contracts/oracle/implementation/Registry.sol",
  "compiler": {
    "name": "solc",
    "version": "0.6.4+commit.1dca32f3.Emscripten.clang"
  },
  "schemaVersion": "3.2.0",
  "updatedAt": "2020-07-20T06:15:50.108Z",
  "devdoc": {
    "details": "Maintains a whitelist of financial contract creators that are allowed to register new financial contracts and stores party members of a financial contract.",
    "methods": {
      "addMember(uint256,address)": {
        "details": "Reverts if `roleId` does not represent an initialized, shared role or if the caller is not a member of the managing role for `roleId`."
      },
      "addPartyToContract(address)": {
        "details": "msg.sender will be used to determine the contract that this party is added to.",
        "params": {
          "party": "new party for the calling contract."
        }
      },
      "getMember(uint256)": {
        "details": "Reverts if `roleId` does not represent an initialized, exclusive role."
      },
      "getRegisteredContracts(address)": {
        "params": {
          "party": "address of the party."
        },
        "returns": {
          "_0": "an array of the contracts the party is registered to."
        }
      },
      "holdsRole(uint256,address)": {
        "details": "Reverts if roleId does not correspond to an initialized role."
      },
      "isContractRegistered(address)": {
        "details": "If it is registered, it is an authorized participant in the UMA system.",
        "params": {
          "contractAddress": "address of the financial contract."
        },
        "returns": {
          "_0": "bool indicates whether the contract is registered."
        }
      },
      "isPartyMemberOfContract(address,address)": {
        "params": {
          "contractAddress": "address to check against the party.",
          "party": "party to check."
        },
        "returns": {
          "_0": "bool indicating if the address is a party of the contract."
        }
      },
      "registerContract(address[],address)": {
        "details": "Only authorized contract creators can call this method.",
        "params": {
          "contractAddress": "defines the address of the deployed finan.",
          "parties": "an array of addresses who become parties in the contract."
        }
      },
      "removeMember(uint256,address)": {
        "details": "Reverts if `roleId` does not represent an initialized, shared role or if the caller is not a member of the managing role for `roleId`."
      },
      "removePartyFromContract(address)": {
        "details": "msg.sender will be used to determine the contract that this party is removed from.",
        "params": {
          "partyAddress": "address to be removed from the calling contract."
        }
      },
      "resetMember(uint256,address)": {
        "details": "Reverts if the caller is not a member of the managing role for `roleId` or if `roleId` is not an initialized, exclusive role."
      }
    },
    "title": "Registry for financial contracts and approved financial contract creators."
  },
  "userdoc": {
    "methods": {
      "addMember(uint256,address)": {
        "notice": "Adds `newMember` to the shared role, `roleId`."
      },
      "addPartyToContract(address)": {
        "notice": "Adds a party member to the calling contract."
      },
      "constructor": "Construct the Registry contract.",
      "getAllRegisteredContracts()": {
        "notice": "Returns all registered contracts."
      },
      "getMember(uint256)": {
        "notice": "Gets the current holder of the exclusive role, `roleId`."
      },
      "getRegisteredContracts(address)": {
        "notice": "Returns a list of all contracts that are associated with a particular party."
      },
      "holdsRole(uint256,address)": {
        "notice": "Whether `memberToCheck` is a member of roleId."
      },
      "isContractRegistered(address)": {
        "notice": "Returns whether the contract has been registered with the registry."
      },
      "isPartyMemberOfContract(address,address)": {
        "notice": "checks if an address is a party of a contract."
      },
      "registerContract(address[],address)": {
        "notice": "Registers a new financial contract."
      },
      "removeMember(uint256,address)": {
        "notice": "Removes `memberToRemove` from the shared role, `roleId`."
      },
      "removePartyFromContract(address)": {
        "notice": "Removes a party member to the calling contract."
      },
      "resetMember(uint256,address)": {
        "notice": "Changes the exclusive role holder of `roleId` to `newMember`."
      }
    }
  }
}