{
  "contractName": "Registry",
  "abi": [
    {
      "inputs": [],
      "stateMutability": "nonpayable",
      "type": "constructor"
    },
    {
      "anonymous": false,
      "inputs": [
        {
          "indexed": true,
          "internalType": "uint256",
          "name": "roleId",
          "type": "uint256"
        },
        {
          "indexed": true,
          "internalType": "address",
          "name": "newMember",
          "type": "address"
        },
        {
          "indexed": true,
          "internalType": "address",
          "name": "manager",
          "type": "address"
        }
      ],
      "name": "AddedSharedMember",
      "type": "event"
    },
    {
      "anonymous": false,
      "inputs": [
        {
          "indexed": true,
          "internalType": "address",
          "name": "contractAddress",
          "type": "address"
        },
        {
          "indexed": true,
          "internalType": "address",
          "name": "creator",
          "type": "address"
        },
        {
          "indexed": false,
          "internalType": "address[]",
          "name": "parties",
          "type": "address[]"
        }
      ],
      "name": "NewContractRegistered",
      "type": "event"
    },
    {
      "anonymous": false,
      "inputs": [
        {
          "indexed": true,
          "internalType": "address",
          "name": "contractAddress",
          "type": "address"
        },
        {
          "indexed": true,
          "internalType": "address",
          "name": "party",
          "type": "address"
        }
      ],
      "name": "PartyAdded",
      "type": "event"
    },
    {
      "anonymous": false,
      "inputs": [
        {
          "indexed": true,
          "internalType": "address",
          "name": "contractAddress",
          "type": "address"
        },
        {
          "indexed": true,
          "internalType": "address",
          "name": "party",
          "type": "address"
        }
      ],
      "name": "PartyRemoved",
      "type": "event"
    },
    {
      "anonymous": false,
      "inputs": [
        {
          "indexed": true,
          "internalType": "uint256",
          "name": "roleId",
          "type": "uint256"
        },
        {
          "indexed": true,
          "internalType": "address",
          "name": "oldMember",
          "type": "address"
        },
        {
          "indexed": true,
          "internalType": "address",
          "name": "manager",
          "type": "address"
        }
      ],
      "name": "RemovedSharedMember",
      "type": "event"
    },
    {
      "anonymous": false,
      "inputs": [
        {
          "indexed": true,
          "internalType": "uint256",
          "name": "roleId",
          "type": "uint256"
        },
        {
          "indexed": true,
          "internalType": "address",
          "name": "newMember",
          "type": "address"
        },
        {
          "indexed": true,
          "internalType": "address",
          "name": "manager",
          "type": "address"
        }
      ],
      "name": "ResetExclusiveMember",
      "type": "event"
    },
    {
      "inputs": [
        {
          "internalType": "uint256",
          "name": "roleId",
          "type": "uint256"
        },
        {
          "internalType": "address",
          "name": "newMember",
          "type": "address"
        }
      ],
      "name": "addMember",
      "outputs": [],
      "stateMutability": "nonpayable",
      "type": "function"
    },
    {
      "inputs": [
        {
          "internalType": "address",
          "name": "",
          "type": "address"
        }
      ],
      "name": "contractMap",
      "outputs": [
        {
          "internalType": "enum Registry.Validity",
          "name": "valid",
          "type": "uint8"
        },
        {
          "internalType": "uint128",
          "name": "index",
          "type": "uint128"
        }
      ],
      "stateMutability": "view",
      "type": "function"
    },
    {
      "inputs": [
        {
          "internalType": "uint256",
          "name": "roleId",
          "type": "uint256"
        }
      ],
      "name": "getMember",
      "outputs": [
        {
          "internalType": "address",
          "name": "",
          "type": "address"
        }
      ],
      "stateMutability": "view",
      "type": "function"
    },
    {
      "inputs": [
        {
          "internalType": "uint256",
          "name": "roleId",
          "type": "uint256"
        },
        {
          "internalType": "address",
          "name": "memberToCheck",
          "type": "address"
        }
      ],
      "name": "holdsRole",
      "outputs": [
        {
          "internalType": "bool",
          "name": "",
          "type": "bool"
        }
      ],
      "stateMutability": "view",
      "type": "function"
    },
    {
      "inputs": [
        {
          "internalType": "uint256",
          "name": "",
          "type": "uint256"
        }
      ],
      "name": "registeredContracts",
      "outputs": [
        {
          "internalType": "address",
          "name": "",
          "type": "address"
        }
      ],
      "stateMutability": "view",
      "type": "function"
    },
    {
      "inputs": [
        {
          "internalType": "uint256",
          "name": "roleId",
          "type": "uint256"
        },
        {
          "internalType": "address",
          "name": "memberToRemove",
          "type": "address"
        }
      ],
      "name": "removeMember",
      "outputs": [],
      "stateMutability": "nonpayable",
      "type": "function"
    },
    {
      "inputs": [
        {
          "internalType": "uint256",
          "name": "roleId",
          "type": "uint256"
        }
      ],
      "name": "renounceMembership",
      "outputs": [],
      "stateMutability": "nonpayable",
      "type": "function"
    },
    {
      "inputs": [
        {
          "internalType": "uint256",
          "name": "roleId",
          "type": "uint256"
        },
        {
          "internalType": "address",
          "name": "newMember",
          "type": "address"
        }
      ],
      "name": "resetMember",
      "outputs": [],
      "stateMutability": "nonpayable",
      "type": "function"
    },
    {
      "inputs": [
        {
          "internalType": "address[]",
          "name": "parties",
          "type": "address[]"
        },
        {
          "internalType": "address",
          "name": "contractAddress",
          "type": "address"
        }
      ],
      "name": "registerContract",
      "outputs": [],
      "stateMutability": "nonpayable",
      "type": "function"
    },
    {
      "inputs": [
        {
          "internalType": "address",
          "name": "party",
          "type": "address"
        }
      ],
      "name": "addPartyToContract",
      "outputs": [],
      "stateMutability": "nonpayable",
      "type": "function"
    },
    {
      "inputs": [
        {
          "internalType": "address",
          "name": "partyAddress",
          "type": "address"
        }
      ],
      "name": "removePartyFromContract",
      "outputs": [],
      "stateMutability": "nonpayable",
      "type": "function"
    },
    {
      "inputs": [
        {
          "internalType": "address",
          "name": "contractAddress",
          "type": "address"
        }
      ],
      "name": "isContractRegistered",
      "outputs": [
        {
          "internalType": "bool",
          "name": "",
          "type": "bool"
        }
      ],
      "stateMutability": "view",
      "type": "function"
    },
    {
      "inputs": [
        {
          "internalType": "address",
          "name": "party",
          "type": "address"
        }
      ],
      "name": "getRegisteredContracts",
      "outputs": [
        {
          "internalType": "address[]",
          "name": "",
          "type": "address[]"
        }
      ],
      "stateMutability": "view",
      "type": "function"
    },
    {
      "inputs": [],
      "name": "getAllRegisteredContracts",
      "outputs": [
        {
          "internalType": "address[]",
          "name": "",
          "type": "address[]"
        }
      ],
      "stateMutability": "view",
      "type": "function"
    },
    {
      "inputs": [
        {
          "internalType": "address",
          "name": "party",
          "type": "address"
        },
        {
          "internalType": "address",
          "name": "contractAddress",
          "type": "address"
        }
      ],
      "name": "isPartyMemberOfContract",
      "outputs": [
        {
          "internalType": "bool",
          "name": "",
          "type": "bool"
        }
      ],
      "stateMutability": "view",
      "type": "function"
    }
  ],
  "bytecode": "0x60806040523480156200001157600080fd5b5062000029600080336001600160e01b036200004d16565b60408051600080825260208201909252620000479160019162000120565b62000419565b826000808281526020819052604090206001015460ff1660028111156200007057fe5b14620000995760405162461bcd60e51b8152600401620000909062000353565b60405180910390fd5b60008481526020819052604090206001808201805460ff191682800217905550838155620000d76002820184620001e2602090811b6200195e17901c565b60008481526020819052604081206001015460ff166002811115620000f857fe5b1415620001195760405162461bcd60e51b8152600401620000909062000307565b5050505050565b826000808281526020819052604090206001015460ff1660028111156200014357fe5b14620001635760405162461bcd60e51b8152600401620000909062000353565b60008481526020818152604090912060018101805460ff1916600217905584815590620001a0906003830190859062001968620001fb821b17901c565b60008481526020819052604081206001015460ff166002811115620001c157fe5b1415620001195760405162461bcd60e51b81526004016200009090620003cd565b620001f782826001600160e01b036200023c16565b5050565b60005b815181101562000237576200022e838383815181106200021a57fe5b60200260200101516200028260201b60201c565b600101620001fe565b505050565b6001600160a01b038116620002655760405162461bcd60e51b815260040162000090906200038a565b81546001600160a01b0319166001600160a01b0391909116179055565b6001600160a01b038116620002ab5760405162461bcd60e51b81526004016200009090620002d0565b6001600160a01b0316600090815260209190915260409020805460ff19166001179055565b6020808252601f908201527f43616e6e6f74206164642030783020746f20612073686172656420726f6c6500604082015260600190565b6020808252603c9082015260008051602062001dfd83398151915260408201527f20746f206d616e61676520616e206578636c757369766520726f6c6500000000606082015260800190565b6020808252601e908201527f43616e6e6f74207573652061207072652d6578697374696e6720726f6c650000604082015260600190565b60208082526023908201527f43616e6e6f742073657420616e206578636c757369766520726f6c6520746f2060408201526203078360ec1b606082015260800190565b602080825260389082015260008051602062001dfd83398151915260408201527f20746f206d616e61676520612073686172656420726f6c650000000000000000606082015260800190565b6119d480620004296000396000f3fe608060405234801561001057600080fd5b50600436106100f55760003560e01c806374d0a67611610097578063ab3545e511610066578063ab3545e5146101f3578063d97c05be14610213578063e33c4cd214610226578063f9f6b49b14610239576100f5565b806374d0a6761461019a5780637a3edab0146101ad5780637cdc1cb9146101cd578063aaa14ca3146101e0576100f5565b8063303118d0116100d3578063303118d0146101405780633c0af3441461015357806366c8c250146101745780636be7658b14610187576100f5565b80631676ddc3146100fa578063167cdde714610118578063188c6ff81461012d575b600080fd5b61010261024c565b60405161010f9190611499565b60405180910390f35b61012b610126366004611312565b6102bb565b005b61010261013b366004611312565b610329565b61012b61014e366004611312565b6103b9565b610166610161366004611312565b610679565b60405161010f9291906114fe565b61012b610182366004611361565b6106a7565b61012b6101953660046113fa565b6108f4565b61012b6101a83660046113fa565b610a0b565b6101c06101bb36600461132d565b610b22565b60405161010f91906114f3565b6101c06101db3660046113fa565b610bcc565b61012b6101ee3660046113e2565b610c6f565b6102066102013660046113e2565b610d5f565b60405161010f919061141d565b61012b6102213660046113fa565b610ddc565b6102066102343660046113e2565b610ef3565b6101c0610247366004611312565b610f27565b606060018054806020026020016040519081016040528092919081815260200182805480156102b157602002820191906000526020600020905b815473ffffffffffffffffffffffffffffffffffffffff168152600190910190602001808311610286575b5050505050905090565b3360008181526002602052604090205460019060ff16818111156102db57fe5b1461031b576040517f08c379a0000000000000000000000000000000000000000000000000000000008152600401610312906116d7565b60405180910390fd5b6103258282610f66565b5050565b73ffffffffffffffffffffffffffffffffffffffff81166000908152600360209081526040918290208054835181840281018401909452808452606093928301828280156103ad57602002820191906000526020600020905b815473ffffffffffffffffffffffffffffffffffffffff168152600190910190602001808311610382575b50505050509050919050565b73ffffffffffffffffffffffffffffffffffffffff8116600090815260036020526040902080543391908061041a576040517f08c379a0000000000000000000000000000000000000000000000000000000008152600401610312906116a0565b600173ffffffffffffffffffffffffffffffffffffffff841660009081526002602052604090205460ff16600181111561045057fe5b14610487576040517f08c379a0000000000000000000000000000000000000000000000000000000008152600401610312906115d5565b6104918484610b22565b6104c7576040517f08c379a000000000000000000000000000000000000000000000000000000000815260040161031290611927565b73ffffffffffffffffffffffffffffffffffffffff83166000908152600183016020526040812054835490919084907fffffffffffffffffffffffffffffffffffffffffffffffffffffffffffffffff850190811061052257fe5b600091825260209091200154845473ffffffffffffffffffffffffffffffffffffffff9091169150819085908490811061055857fe5b600091825260208083209190910180547fffffffffffffffffffffffff00000000000000000000000000000000000000001673ffffffffffffffffffffffffffffffffffffffff9485161790559183168152600186019091526040902082905583548490806105c357fe5b6000828152602080822083017fffffffffffffffffffffffffffffffffffffffffffffffffffffffffffffffff90810180547fffffffffffffffffffffffff000000000000000000000000000000000000000016905590920190925573ffffffffffffffffffffffffffffffffffffffff87811680845260018801909252604080842084905551908916927f8e0a870c3ff65bd1f2852048eb92d693833891a8c0ab0827347177544464c57091a3505050505050565b60026020526000908152604090205460ff81169061010090046fffffffffffffffffffffffffffffffff1682565b60016106b38133610bcc565b6106e9576040517f08c379a00000000000000000000000000000000000000000000000000000000081526004016103129061176b565b73ffffffffffffffffffffffffffffffffffffffff82166000908152600260205260408120805490919060ff16600181111561072157fe5b14610758576040517f08c379a0000000000000000000000000000000000000000000000000000000008152600401610312906118b9565b60018054808201825560008290527fb10e2d527612073b26eecdfd717e6a320cf44b4afac2b0732d9fcbe2b7fa0cf60180547fffffffffffffffffffffffff00000000000000000000000000000000000000001673ffffffffffffffffffffffffffffffffffffffff861617905580546107d191611048565b815460016fffffffffffffffffffffffffffffffff92909216610100027fffffffffffffffffffffffffffffff00000000000000000000000000000000ff909116177fffffffffffffffffffffffffffffffffffffffffffffffffffffffffffffff001617815560005b848110156108855761086d86868381811061085257fe5b90506020020160208101906108679190611312565b85610f66565b61087e81600163ffffffff61108a16565b905061083b565b503373ffffffffffffffffffffffffffffffffffffffff168373ffffffffffffffffffffffffffffffffffffffff167f1b0bc775e5162f873356bcc1733155bd2eb9509f1774770f54b4f938287bcf0387876040516108e592919061143e565b60405180910390a35050505050565b81600260008281526020819052604090206001015460ff16600281111561091757fe5b1461094e576040517f08c379a00000000000000000000000000000000000000000000000000000000081526004016103129061170e565b60008381526020819052604090205483906109699033610bcc565b61099f576040517f08c379a00000000000000000000000000000000000000000000000000000000081526004016103129061185c565b60008481526020819052604090206109c0906003018463ffffffff6110c916565b604051339073ffffffffffffffffffffffffffffffffffffffff85169086907feb3e33034c392e69263b04ec0fa376dc12784a41b6676c7f31b936cbc0fbb5af90600090a450505050565b81600260008281526020819052604090206001015460ff166002811115610a2e57fe5b14610a65576040517f08c379a00000000000000000000000000000000000000000000000000000000081526004016103129061170e565b6000838152602081905260409020548390610a809033610bcc565b610ab6576040517f08c379a00000000000000000000000000000000000000000000000000000000081526004016103129061185c565b6000848152602081905260409020610ad7906003018463ffffffff61111616565b604051339073ffffffffffffffffffffffffffffffffffffffff85169086907f63502af7324ff6db91ab38f8236a648727d9385ea6c782073dd4882d8a61a48f90600090a450505050565b73ffffffffffffffffffffffffffffffffffffffff8083166000818152600360208181526040808420958716845260018601825283205493835252915481108015610bc2575073ffffffffffffffffffffffffffffffffffffffff848116600090815260036020526040902080549185169183908110610b9e57fe5b60009182526020909120015473ffffffffffffffffffffffffffffffffffffffff16145b9150505b92915050565b600082815260208190526040812060018082015460ff166002811115610bee57fe5b1415610c0f57610c07600282018463ffffffff6111b316565b915050610bc6565b6002600182015460ff166002811115610c2457fe5b1415610c3d57610c07600382018463ffffffff6111d316565b6040517f08c379a0000000000000000000000000000000000000000000000000000000008152600401610312906118f0565b80600260008281526020819052604090206001015460ff166002811115610c9257fe5b14610cc9576040517f08c379a00000000000000000000000000000000000000000000000000000000081526004016103129061170e565b81610cd48133610bcc565b610d0a576040517f08c379a00000000000000000000000000000000000000000000000000000000081526004016103129061176b565b6000838152602081905260409020610d2b906003013363ffffffff6110c916565b6040513390819085907feb3e33034c392e69263b04ec0fa376dc12784a41b6676c7f31b936cbc0fbb5af90600090a4505050565b600081600160008281526020819052604090206001015460ff166002811115610d8457fe5b14610dbb576040517f08c379a000000000000000000000000000000000000000000000000000000000815260040161031290611643565b6000838152602081905260409020610dd5906002016111ff565b9392505050565b81600160008281526020819052604090206001015460ff166002811115610dff57fe5b14610e36576040517f08c379a000000000000000000000000000000000000000000000000000000000815260040161031290611643565b6000838152602081905260409020548390610e519033610bcc565b610e87576040517f08c379a00000000000000000000000000000000000000000000000000000000081526004016103129061185c565b6000848152602081905260409020610ea8906002018463ffffffff61121916565b604051339073ffffffffffffffffffffffffffffffffffffffff85169086907f3b855c56b409b671c7112789d022675eb639d0bcb8896f1b6197c132f799e74690600090a450505050565b60018181548110610f0057fe5b60009182526020909120015473ffffffffffffffffffffffffffffffffffffffff16905081565b6000600173ffffffffffffffffffffffffffffffffffffffff831660009081526002602052604090205460ff166001811115610f5f57fe5b1492915050565b610f708282610b22565b15610fa7576040517f08c379a0000000000000000000000000000000000000000000000000000000008152600401610312906117c8565b73ffffffffffffffffffffffffffffffffffffffff8281166000818152600360209081526040808320805460018082018355828652848620820180547fffffffffffffffffffffffff000000000000000000000000000000000000000016988a169889179055878652909101909252808320829055519093917f4b920dd33e12e37712086438f2afcecb921cefe83b717ca990222f53d7e2845491a3505050565b6000610dd583836040518060400160405280601e81526020017f536166654d6174683a207375627472616374696f6e206f766572666c6f7700008152506112a8565b600082820183811015610dd5576040517f08c379a00000000000000000000000000000000000000000000000000000000081526004016103129061160c565b73ffffffffffffffffffffffffffffffffffffffff1660009081526020919091526040902080547fffffffffffffffffffffffffffffffffffffffffffffffffffffffffffffff00169055565b73ffffffffffffffffffffffffffffffffffffffff8116611163576040517f08c379a00000000000000000000000000000000000000000000000000000000081526004016103129061159e565b73ffffffffffffffffffffffffffffffffffffffff1660009081526020919091526040902080547fffffffffffffffffffffffffffffffffffffffffffffffffffffffffffffff00166001179055565b905473ffffffffffffffffffffffffffffffffffffffff91821691161490565b73ffffffffffffffffffffffffffffffffffffffff166000908152602091909152604090205460ff1690565b5473ffffffffffffffffffffffffffffffffffffffff1690565b73ffffffffffffffffffffffffffffffffffffffff8116611266576040517f08c379a0000000000000000000000000000000000000000000000000000000008152600401610312906117ff565b81547fffffffffffffffffffffffff00000000000000000000000000000000000000001673ffffffffffffffffffffffffffffffffffffffff91909116179055565b600081848411156112e6576040517f08c379a0000000000000000000000000000000000000000000000000000000008152600401610312919061152d565b505050900390565b803573ffffffffffffffffffffffffffffffffffffffff81168114610bc657600080fd5b600060208284031215611323578081fd5b610dd583836112ee565b6000806040838503121561133f578081fd5b61134984846112ee565b915061135884602085016112ee565b90509250929050565b600080600060408486031215611375578081fd5b833567ffffffffffffffff8082111561138c578283fd5b81860187601f82011261139d578384fd5b80359250818311156113ad578384fd5b87602080850283010111156113c0578384fd5b6020810195505050809250506113d985602086016112ee565b90509250925092565b6000602082840312156113f3578081fd5b5035919050565b6000806040838503121561140c578182fd5b8235915061135884602085016112ee565b73ffffffffffffffffffffffffffffffffffffffff91909116815260200190565b60208082528181018390526000908460408401835b8681101561148e5783830173ffffffffffffffffffffffffffffffffffffffff61147d82866112ee565b168352925090830190600101611453565b509695505050505050565b6020808252825182820181905260009190848201906040850190845b818110156114e757835173ffffffffffffffffffffffffffffffffffffffff16835292840192918401916001016114b5565b50909695505050505050565b901515815260200190565b604081016002841061150c57fe5b9281526fffffffffffffffffffffffffffffffff9190911660209091015290565b6000602080835283518082850152825b818110156115595785810183015185820160400152820161153d565b8181111561156a5783604083870101525b50601f017fffffffffffffffffffffffffffffffffffffffffffffffffffffffffffffffe016929092016040019392505050565b6020808252601f908201527f43616e6e6f74206164642030783020746f20612073686172656420726f6c6500604082015260600190565b6020808252601f908201527f52656d6f7665206f6e6c792066726f6d2076616c696420636f6e747261637400604082015260600190565b6020808252601b908201527f536166654d6174683a206164646974696f6e206f766572666c6f770000000000604082015260600190565b6020808252602f908201527f4d7573742062652063616c6c6564206f6e20616e20696e697469616c697a656460408201527f204578636c757369766520726f6c650000000000000000000000000000000000606082015260800190565b60208082526016908201527f506172747920686173206e6f20636f6e74726163747300000000000000000000604082015260600190565b6020808252601e908201527f43616e206f6e6c792061646420746f2076616c696420636f6e74726163740000604082015260600190565b6020808252602c908201527f4d7573742062652063616c6c6564206f6e20616e20696e697469616c697a656460408201527f2053686172656420726f6c650000000000000000000000000000000000000000606082015260800190565b60208082526022908201527f53656e64657220646f6573206e6f7420686f6c6420726571756972656420726f60408201527f6c65000000000000000000000000000000000000000000000000000000000000606082015260800190565b6020808252601e908201527f43616e206f6e6c792072656769737465722061207061727479206f6e63650000604082015260600190565b60208082526023908201527f43616e6e6f742073657420616e206578636c757369766520726f6c6520746f2060408201527f3078300000000000000000000000000000000000000000000000000000000000606082015260800190565b60208082526024908201527f43616e206f6e6c792062652063616c6c6564206279206120726f6c65206d616e60408201527f6167657200000000000000000000000000000000000000000000000000000000606082015260800190565b60208082526016908201527f43616e206f6e6c79207265676973746572206f6e636500000000000000000000604082015260600190565b6020808252600e908201527f496e76616c696420726f6c654964000000000000000000000000000000000000604082015260600190565b6020808252601e908201527f43616e206f6e6c792072656d6f7665206578697374696e672070617274790000604082015260600190565b6103258282611219565b60005b8151811015611999576119918383838151811061198457fe5b6020026020010151611116565b60010161196b565b50505056fea26469706673582212202f8eb1b1c337f767b56d424d8f17d292c9a210ca7a0dbcf13b92340aaa8390a164736f6c63430006040033417474656d7074656420746f2075736520616e20696e76616c696420726f6c65",
  "source": "pragma solidity ^0.6.0;\npragma experimental ABIEncoderV2;\n\nimport \"../../common/implementation/MultiRole.sol\";\nimport \"../interfaces/RegistryInterface.sol\";\n\nimport \"@openzeppelin/contracts/math/SafeMath.sol\";\n\n\n/**\n * @title Registry for financial contracts and approved financial contract creators.\n * @dev Maintains a whitelist of financial contract creators that are allowed\n * to register new financial contracts and stores party members of a financial contract.\n */\ncontract Registry is RegistryInterface, MultiRole {\n    using SafeMath for uint256;\n\n    /****************************************\n     *    INTERNAL VARIABLES AND STORAGE    *\n     ****************************************/\n\n    enum Roles {\n        Owner, // The owner manages the set of ContractCreators.\n        ContractCreator // Can register financial contracts.\n    }\n\n    // This enum is required because a `WasValid` state is required\n    // to ensure that financial contracts cannot be re-registered.\n    enum Validity { Invalid, Valid }\n\n    // Local information about a contract.\n    struct FinancialContract {\n        Validity valid;\n        uint128 index;\n    }\n\n    struct Party {\n        address[] contracts; // Each financial contract address is stored in this array.\n        // The address of each financial contract is mapped to its index for constant time look up and deletion.\n        mapping(address => uint256) contractIndex;\n    }\n\n    // Array of all contracts that are approved to use the UMA Oracle.\n    address[] public registeredContracts;\n\n    // Map of financial contract contracts to the associated FinancialContract struct.\n    mapping(address => FinancialContract) public contractMap;\n\n    // Map each party member to their their associated Party struct.\n    mapping(address => Party) private partyMap;\n\n    /****************************************\n     *                EVENTS                *\n     ****************************************/\n\n    event NewContractRegistered(address indexed contractAddress, address indexed creator, address[] parties);\n    event PartyAdded(address indexed contractAddress, address indexed party);\n    event PartyRemoved(address indexed contractAddress, address indexed party);\n\n    /**\n     * @notice Construct the Registry contract.\n     */\n    constructor() public {\n        _createExclusiveRole(uint256(Roles.Owner), uint256(Roles.Owner), msg.sender);\n        // Start with no contract creators registered.\n        _createSharedRole(uint256(Roles.ContractCreator), uint256(Roles.Owner), new address[](0));\n    }\n\n    /****************************************\n     *        REGISTRATION FUNCTIONS        *\n     ****************************************/\n\n    /**\n     * @notice Registers a new financial contract.\n     * @dev Only authorized contract creators can call this method.\n     * @param parties array of addresses who become parties in the contract.\n     * @param contractAddress address of the contract against which the parties are registered.\n     */\n    function registerContract(address[] calldata parties, address contractAddress)\n        external\n        override\n        onlyRoleHolder(uint256(Roles.ContractCreator))\n    {\n        FinancialContract storage financialContract = contractMap[contractAddress];\n        require(contractMap[contractAddress].valid == Validity.Invalid, \"Can only register once\");\n\n        // Store contract address as a registered contract.\n        registeredContracts.push(contractAddress);\n\n        // No length check necessary because we should never hit (2^127 - 1) contracts.\n        financialContract.index = uint128(registeredContracts.length.sub(1));\n\n        // For all parties in the array add them to the contract's parties.\n        financialContract.valid = Validity.Valid;\n        for (uint256 i = 0; i < parties.length; i = i.add(1)) {\n            _addPartyToContract(parties[i], contractAddress);\n        }\n\n        emit NewContractRegistered(contractAddress, msg.sender, parties);\n    }\n\n    /**\n     * @notice Adds a party member to the calling contract.\n     * @dev msg.sender will be used to determine the contract that this party is added to.\n     * @param party new party for the calling contract.\n     */\n    function addPartyToContract(address party) external override {\n        address contractAddress = msg.sender;\n        require(contractMap[contractAddress].valid == Validity.Valid, \"Can only add to valid contract\");\n\n        _addPartyToContract(party, contractAddress);\n    }\n\n    /**\n     * @notice Removes a party member from the calling contract.\n     * @dev msg.sender will be used to determine the contract that this party is removed from.\n     * @param partyAddress address to be removed from the calling contract.\n     */\n    function removePartyFromContract(address partyAddress) external override {\n        address contractAddress = msg.sender;\n        Party storage party = partyMap[partyAddress];\n        uint256 numberOfContracts = party.contracts.length;\n\n        require(numberOfContracts != 0, \"Party has no contracts\");\n        require(contractMap[contractAddress].valid == Validity.Valid, \"Remove only from valid contract\");\n        require(isPartyMemberOfContract(partyAddress, contractAddress), \"Can only remove existing party\");\n\n        // Index of the current location of the contract to remove.\n        uint256 deleteIndex = party.contractIndex[contractAddress];\n\n        // Store the last contract's address to update the lookup map.\n        address lastContractAddress = party.contracts[numberOfContracts - 1];\n\n        // Swap the contract to be removed with the last contract.\n        party.contracts[deleteIndex] = lastContractAddress;\n\n        // Update the lookup index with the new location.\n        party.contractIndex[lastContractAddress] = deleteIndex;\n\n        // Pop the last contract from the array and update the lookup map.\n        party.contracts.pop();\n        delete party.contractIndex[contractAddress];\n\n        emit PartyRemoved(contractAddress, partyAddress);\n    }\n\n    /****************************************\n     *         REGISTRY STATE GETTERS       *\n     ****************************************/\n\n    /**\n     * @notice Returns whether the contract has been registered with the registry.\n     * @dev If it is registered, it is an authorized participant in the UMA system.\n     * @param contractAddress address of the financial contract.\n     * @return bool indicates whether the contract is registered.\n     */\n    function isContractRegistered(address contractAddress) external override view returns (bool) {\n        return contractMap[contractAddress].valid == Validity.Valid;\n    }\n\n    /**\n     * @notice Returns a list of all contracts that are associated with a particular party.\n     * @param party address of the party.\n     * @return an array of the contracts the party is registered to.\n     */\n    function getRegisteredContracts(address party) external override view returns (address[] memory) {\n        return partyMap[party].contracts;\n    }\n\n    /**\n     * @notice Returns all registered contracts.\n     * @return all registered contract addresses within the system.\n     */\n    function getAllRegisteredContracts() external override view returns (address[] memory) {\n        return registeredContracts;\n    }\n\n    /**\n     * @notice checks if an address is a party of a contract.\n     * @param party party to check.\n     * @param contractAddress address to check against the party.\n     * @return bool indicating if the address is a party of the contract.\n     */\n    function isPartyMemberOfContract(address party, address contractAddress) public override view returns (bool) {\n        uint256 index = partyMap[party].contractIndex[contractAddress];\n        return partyMap[party].contracts.length > index && partyMap[party].contracts[index] == contractAddress;\n    }\n\n    /****************************************\n     *           INTERNAL FUNCTIONS         *\n     ****************************************/\n\n    function _addPartyToContract(address party, address contractAddress) internal {\n        require(!isPartyMemberOfContract(party, contractAddress), \"Can only register a party once\");\n        uint256 contractIndex = partyMap[party].contracts.length;\n        partyMap[party].contracts.push(contractAddress);\n        partyMap[party].contractIndex[contractAddress] = contractIndex;\n\n        emit PartyAdded(contractAddress, party);\n    }\n}\n",
  "sourcePath": "/home/alessandrovm/JarvisLavoro/SynFiat/packages/contracts/contracts/uma-contracts/oracle/implementation/Registry.sol",
  "compiler": {
    "name": "solc",
    "version": "0.6.4+commit.1dca32f3.Emscripten.clang"
  },
  "schemaVersion": "3.2.5",
  "updatedAt": "2020-09-18T09:03:22.856Z",
  "devdoc": {
    "details": "Maintains a whitelist of financial contract creators that are allowed to register new financial contracts and stores party members of a financial contract.",
    "methods": {
      "addMember(uint256,address)": {
        "details": "Reverts if `roleId` does not represent an initialized, SharedRole or if the caller is not a member of the managing role for `roleId`.",
        "params": {
          "newMember": "the new SharedRole member.",
          "roleId": "the SharedRole membership to modify."
        }
      },
      "addPartyToContract(address)": {
        "details": "msg.sender will be used to determine the contract that this party is added to.",
        "params": {
          "party": "new party for the calling contract."
        }
      },
      "getMember(uint256)": {
        "details": "Reverts if `roleId` does not represent an initialized, exclusive role.",
        "params": {
          "roleId": "the ExclusiveRole membership to check."
        },
        "returns": {
          "_0": "the address of the current ExclusiveRole member."
        }
      },
      "getRegisteredContracts(address)": {
        "params": {
          "party": "address of the party."
        },
        "returns": {
          "_0": "an array of the contracts the party is registered to."
        }
      },
      "holdsRole(uint256,address)": {
        "details": "Reverts if roleId does not correspond to an initialized role.",
        "params": {
          "memberToCheck": "the address to check.",
          "roleId": "the Role to check."
        },
        "returns": {
          "_0": "True if `memberToCheck` is a member of `roleId`."
        }
      },
      "isContractRegistered(address)": {
        "details": "If it is registered, it is an authorized participant in the UMA system.",
        "params": {
          "contractAddress": "address of the financial contract."
        },
        "returns": {
          "_0": "bool indicates whether the contract is registered."
        }
      },
      "isPartyMemberOfContract(address,address)": {
        "params": {
          "contractAddress": "address to check against the party.",
          "party": "party to check."
        },
        "returns": {
          "_0": "bool indicating if the address is a party of the contract."
        }
      },
      "registerContract(address[],address)": {
        "details": "Only authorized contract creators can call this method.",
        "params": {
          "contractAddress": "address of the contract against which the parties are registered.",
          "parties": "array of addresses who become parties in the contract."
        }
      },
      "removeMember(uint256,address)": {
        "details": "Reverts if `roleId` does not represent an initialized, SharedRole or if the caller is not a member of the managing role for `roleId`.",
        "params": {
          "memberToRemove": "the current SharedRole member to remove.",
          "roleId": "the SharedRole membership to modify."
        }
      },
      "removePartyFromContract(address)": {
        "details": "msg.sender will be used to determine the contract that this party is removed from.",
        "params": {
          "partyAddress": "address to be removed from the calling contract."
        }
      },
      "renounceMembership(uint256)": {
        "details": "Reverts if the caller is not a member of the role for `roleId` or if `roleId` is not an initialized, SharedRole.",
        "params": {
          "roleId": "the SharedRole membership to modify."
        }
      },
      "resetMember(uint256,address)": {
        "details": "Reverts if the caller is not a member of the managing role for `roleId` or if `roleId` is not an initialized, ExclusiveRole.",
        "params": {
          "newMember": "the new ExclusiveRole member.",
          "roleId": "the ExclusiveRole membership to modify."
        }
      }
    },
    "title": "Registry for financial contracts and approved financial contract creators."
  },
  "userdoc": {
    "methods": {
      "addMember(uint256,address)": {
        "notice": "Adds `newMember` to the shared role, `roleId`."
      },
      "addPartyToContract(address)": {
        "notice": "Adds a party member to the calling contract."
      },
      "constructor": "Construct the Registry contract.",
      "getAllRegisteredContracts()": {
        "notice": "Returns all registered contracts."
      },
      "getMember(uint256)": {
        "notice": "Gets the current holder of the exclusive role, `roleId`."
      },
      "getRegisteredContracts(address)": {
        "notice": "Returns a list of all contracts that are associated with a particular party."
      },
      "holdsRole(uint256,address)": {
        "notice": "Whether `memberToCheck` is a member of roleId."
      },
      "isContractRegistered(address)": {
        "notice": "Returns whether the contract has been registered with the registry."
      },
      "isPartyMemberOfContract(address,address)": {
        "notice": "checks if an address is a party of a contract."
      },
      "registerContract(address[],address)": {
        "notice": "Registers a new financial contract."
      },
      "removeMember(uint256,address)": {
        "notice": "Removes `memberToRemove` from the shared role, `roleId`."
      },
      "removePartyFromContract(address)": {
        "notice": "Removes a party member from the calling contract."
      },
      "renounceMembership(uint256)": {
        "notice": "Removes caller from the role, `roleId`."
      },
      "resetMember(uint256,address)": {
        "notice": "Changes the exclusive role holder of `roleId` to `newMember`."
      }
    }
  }
}