{
  "contractName": "Registry",
  "abi": [
    {
      "inputs": [],
      "stateMutability": "nonpayable",
      "type": "constructor"
    },
    {
      "anonymous": false,
      "inputs": [
        {
          "indexed": true,
          "internalType": "address",
          "name": "contractAddress",
          "type": "address"
        },
        {
          "indexed": true,
          "internalType": "address",
          "name": "creator",
          "type": "address"
        },
        {
          "indexed": false,
          "internalType": "address[]",
          "name": "parties",
          "type": "address[]"
        }
      ],
      "name": "NewContractRegistered",
      "type": "event"
    },
    {
      "anonymous": false,
      "inputs": [
        {
          "indexed": true,
          "internalType": "address",
          "name": "contractAddress",
          "type": "address"
        },
        {
          "indexed": true,
          "internalType": "address",
          "name": "party",
          "type": "address"
        }
      ],
      "name": "PartyAdded",
      "type": "event"
    },
    {
      "anonymous": false,
      "inputs": [
        {
          "indexed": true,
          "internalType": "address",
          "name": "contractAddress",
          "type": "address"
        },
        {
          "indexed": true,
          "internalType": "address",
          "name": "party",
          "type": "address"
        }
      ],
      "name": "PartyRemoved",
      "type": "event"
    },
    {
      "inputs": [
        {
          "internalType": "uint256",
          "name": "roleId",
          "type": "uint256"
        },
        {
          "internalType": "address",
          "name": "newMember",
          "type": "address"
        }
      ],
      "name": "addMember",
      "outputs": [],
      "stateMutability": "nonpayable",
      "type": "function"
    },
    {
      "inputs": [
        {
          "internalType": "address",
          "name": "",
          "type": "address"
        }
      ],
      "name": "contractMap",
      "outputs": [
        {
          "internalType": "enum Registry.Validity",
          "name": "valid",
          "type": "uint8"
        },
        {
          "internalType": "uint128",
          "name": "index",
          "type": "uint128"
        }
      ],
      "stateMutability": "view",
      "type": "function"
    },
    {
      "inputs": [
        {
          "internalType": "uint256",
          "name": "roleId",
          "type": "uint256"
        }
      ],
      "name": "getMember",
      "outputs": [
        {
          "internalType": "address",
          "name": "",
          "type": "address"
        }
      ],
      "stateMutability": "view",
      "type": "function"
    },
    {
      "inputs": [
        {
          "internalType": "uint256",
          "name": "roleId",
          "type": "uint256"
        },
        {
          "internalType": "address",
          "name": "memberToCheck",
          "type": "address"
        }
      ],
      "name": "holdsRole",
      "outputs": [
        {
          "internalType": "bool",
          "name": "",
          "type": "bool"
        }
      ],
      "stateMutability": "view",
      "type": "function"
    },
    {
      "inputs": [
        {
          "internalType": "uint256",
          "name": "",
          "type": "uint256"
        }
      ],
      "name": "registeredContracts",
      "outputs": [
        {
          "internalType": "address",
          "name": "",
          "type": "address"
        }
      ],
      "stateMutability": "view",
      "type": "function"
    },
    {
      "inputs": [
        {
          "internalType": "uint256",
          "name": "roleId",
          "type": "uint256"
        },
        {
          "internalType": "address",
          "name": "memberToRemove",
          "type": "address"
        }
      ],
      "name": "removeMember",
      "outputs": [],
      "stateMutability": "nonpayable",
      "type": "function"
    },
    {
      "inputs": [
        {
          "internalType": "uint256",
          "name": "roleId",
          "type": "uint256"
        },
        {
          "internalType": "address",
          "name": "newMember",
          "type": "address"
        }
      ],
      "name": "resetMember",
      "outputs": [],
      "stateMutability": "nonpayable",
      "type": "function"
    },
    {
      "inputs": [
        {
          "internalType": "address[]",
          "name": "parties",
          "type": "address[]"
        },
        {
          "internalType": "address",
          "name": "contractAddress",
          "type": "address"
        }
      ],
      "name": "registerContract",
      "outputs": [],
      "stateMutability": "nonpayable",
      "type": "function"
    },
    {
      "inputs": [
        {
          "internalType": "address",
          "name": "party",
          "type": "address"
        }
      ],
      "name": "addPartyToContract",
      "outputs": [],
      "stateMutability": "nonpayable",
      "type": "function"
    },
    {
      "inputs": [
        {
          "internalType": "address",
          "name": "partyAddress",
          "type": "address"
        }
      ],
      "name": "removePartyFromContract",
      "outputs": [],
      "stateMutability": "nonpayable",
      "type": "function"
    },
    {
      "inputs": [
        {
          "internalType": "address",
          "name": "contractAddress",
          "type": "address"
        }
      ],
      "name": "isContractRegistered",
      "outputs": [
        {
          "internalType": "bool",
          "name": "",
          "type": "bool"
        }
      ],
      "stateMutability": "view",
      "type": "function"
    },
    {
      "inputs": [
        {
          "internalType": "address",
          "name": "party",
          "type": "address"
        }
      ],
      "name": "getRegisteredContracts",
      "outputs": [
        {
          "internalType": "address[]",
          "name": "",
          "type": "address[]"
        }
      ],
      "stateMutability": "view",
      "type": "function"
    },
    {
      "inputs": [],
      "name": "getAllRegisteredContracts",
      "outputs": [
        {
          "internalType": "address[]",
          "name": "",
          "type": "address[]"
        }
      ],
      "stateMutability": "view",
      "type": "function"
    },
    {
      "inputs": [
        {
          "internalType": "address",
          "name": "party",
          "type": "address"
        },
        {
          "internalType": "address",
          "name": "contractAddress",
          "type": "address"
        }
      ],
      "name": "isPartyMemberOfContract",
      "outputs": [
        {
          "internalType": "bool",
          "name": "",
          "type": "bool"
        }
      ],
      "stateMutability": "view",
      "type": "function"
    }
  ],
  "bytecode": "0x60806040523480156200001157600080fd5b5062000029600080336001600160e01b036200004d16565b60408051600080825260208201909252620000479160019162000120565b620003b9565b826000808281526020819052604090206001015460ff1660028111156200007057fe5b14620000995760405162461bcd60e51b81526004016200009090620002f3565b60405180910390fd5b60008481526020819052604090206001808201805460ff191682800217905550838155620000d76002820184620001e2602090811b6200130417901c565b60008481526020819052604081206001015460ff166002811115620000f857fe5b1415620001195760405162461bcd60e51b81526004016200009090620002a7565b5050505050565b826000808281526020819052604090206001015460ff1660028111156200014357fe5b14620001635760405162461bcd60e51b81526004016200009090620002f3565b60008481526020818152604090912060018101805460ff1916600217905584815590620001a0906003830190859062001312620001fb821b17901c565b60008481526020819052604081206001015460ff166002811115620001c157fe5b1415620001195760405162461bcd60e51b815260040162000090906200036d565b620001f782826001600160e01b036200023c16565b5050565b60005b815181101562000237576200022e838383815181106200021a57fe5b60200260200101516200028260201b60201c565b600101620001fe565b505050565b6001600160a01b038116620002655760405162461bcd60e51b815260040162000090906200032a565b81546001600160a01b0319166001600160a01b0391909116179055565b6001600160a01b0316600090815260209190915260409020805460ff19166001179055565b6020808252603c908201526000805160206200174783398151915260408201527f20746f206d616e61676520616e206578636c757369766520726f6c6500000000606082015260800190565b6020808252601e908201527f43616e6e6f74207573652061207072652d6578697374696e6720726f6c650000604082015260600190565b60208082526023908201527f43616e6e6f742073657420616e206578636c757369766520726f6c6520746f2060408201526203078360ec1b606082015260800190565b60208082526038908201526000805160206200174783398151915260408201527f20746f206d616e61676520612073686172656420726f6c650000000000000000606082015260800190565b61137e80620003c96000396000f3fe608060405234801561001057600080fd5b50600436106100ea5760003560e01c806374d0a6761161008c578063ab3545e511610066578063ab3545e5146101d5578063d97c05be146101f5578063e33c4cd214610208578063f9f6b49b1461021b576100ea565b806374d0a6761461018f5780637a3edab0146101a25780637cdc1cb9146101c2576100ea565b8063303118d0116100c8578063303118d0146101355780633c0af3441461014857806366c8c250146101695780636be7658b1461017c576100ea565b80631676ddc3146100ef578063167cdde71461010d578063188c6ff814610122575b600080fd5b6100f761022e565b6040516101049190610ee7565b60405180910390f35b61012061011b366004610d7a565b610290565b005b6100f7610130366004610d7a565b610379565b610120610143366004610d7a565b6103ef565b61015b610156366004610d7a565b6105a7565b604051610104929190610f3f565b610120610177366004610dc9565b6105d5565b61012061018a366004610e62565b610871565b61012061019d366004610e62565b61090f565b6101b56101b0366004610d95565b6109a7565b6040516101049190610f34565b6101b56101d0366004610e62565b610a2a565b6101e86101e3366004610e4a565b610ab3565b6040516101049190610e85565b610120610203366004610e62565b610b16565b6101e8610216366004610e4a565b610bae565b6101b5610229366004610d7a565b610bd5565b6060600180548060200260200160405190810160405280929190818152602001828054801561028657602002820191906000526020600020905b81546001600160a01b03168152600190910190602001808311610268575b5050505050905090565b3360008181526002602052604090205460019060ff16818111156102b057fe5b146102d65760405162461bcd60e51b81526004016102cd9061108c565b60405180910390fd5b6102e082826109a7565b156102fd5760405162461bcd60e51b81526004016102cd906111d8565b6001600160a01b038281166000818152600360209081526040808320805460018082018355828652848620820180546001600160a01b031916988a169889179055878652909101909252808320829055519093917f4b920dd33e12e37712086438f2afcecb921cefe83b717ca990222f53d7e2845491a3505050565b6001600160a01b0381166000908152600360209081526040918290208054835181840281018401909452808452606093928301828280156103e357602002820191906000526020600020905b81546001600160a01b031681526001909101906020018083116103c5575b50505050509050919050565b6001600160a01b03811660009081526003602052604090208054339190806104295760405162461bcd60e51b81526004016102cd90611192565b60016001600160a01b03841660009081526002602052604090205460ff16600181111561045257fe5b1461046f5760405162461bcd60e51b81526004016102cd90610fc1565b61047984846109a7565b6104955760405162461bcd60e51b81526004016102cd9061110f565b6001600160a01b03831660009081526001830160205260408120548354909190849060001985019081106104c557fe5b60009182526020909120015484546001600160a01b03909116915081908590849081106104ee57fe5b600091825260208083209190910180546001600160a01b0319166001600160a01b0394851617905591831681526001860190915260409020829055835484908061053457fe5b60008281526020808220830160001990810180546001600160a01b03191690559092019092556001600160a01b0387811680845260018801909252604080842084905551908916927f8e0a870c3ff65bd1f2852048eb92d693833891a8c0ab0827347177544464c57091a3505050505050565b60026020526000908152604090205460ff81169061010090046fffffffffffffffffffffffffffffffff1682565b60016105e18133610a2a565b6105fd5760405162461bcd60e51b81526004016102cd90611150565b6001600160a01b0382166000908152600260205260408120805490919060ff16600181111561062857fe5b146106455760405162461bcd60e51b81526004016102cd90611296565b60018054808201825560008290527fb10e2d527612073b26eecdfd717e6a320cf44b4afac2b0732d9fcbe2b7fa0cf60180546001600160a01b0319166001600160a01b038616179055805461069991610c07565b815460016fffffffffffffffffffffffffffffffff929092166101000270ffffffffffffffffffffffffffffffff00199091161760ff191617815560005b8481101561081c57600360008787848181106106ef57fe5b90506020020160208101906107049190610d7a565b6001600160a01b03908116825260208083019390935260409091016000908120805460018101825590825292812090920180546001600160a01b03191691871691909117905560038188888581811061075957fe5b905060200201602081019061076e9190610d7a565b6001600160a01b03168152602081019190915260400160009081205491506000198201906003908989868181106107a157fe5b90506020020160208101906107b69190610d7a565b6001600160a01b03166001600160a01b031681526020019081526020016000206001016000876001600160a01b03166001600160a01b031681526020019081526020016000208190555050610815600182610c4990919063ffffffff16565b90506106d7565b50336001600160a01b0316836001600160a01b03167f1b0bc775e5162f873356bcc1733155bd2eb9509f1774770f54b4f938287bcf038787604051610862929190610e99565b60405180910390a35050505050565b81600260008281526020819052604090206001015460ff16600281111561089457fe5b146108b15760405162461bcd60e51b81526004016102cd906110c3565b60008381526020819052604090205483906108cc9033610a2a565b6108e85760405162461bcd60e51b81526004016102cd90611252565b6000848152602081905260409020610909906003018463ffffffff610c6e16565b50505050565b81600260008281526020819052604090206001015460ff16600281111561093257fe5b1461094f5760405162461bcd60e51b81526004016102cd906110c3565b600083815260208190526040902054839061096a9033610a2a565b6109865760405162461bcd60e51b81526004016102cd90611252565b6000848152602081905260409020610909906003018463ffffffff610c9016565b6001600160a01b038083166000818152600360208181526040808420958716845260018601825283205493835252915481108015610a2057506001600160a01b03848116600090815260036020526040902080549185169183908110610a0957fe5b6000918252602090912001546001600160a01b0316145b9150505b92915050565b600082815260208190526040812060018082015460ff166002811115610a4c57fe5b1415610a6d57610a65600282018463ffffffff610cb516565b915050610a24565b6002600182015460ff166002811115610a8257fe5b1415610a9b57610a65600382018463ffffffff610cc816565b60405162461bcd60e51b81526004016102cd906112cd565b600081600160008281526020819052604090206001015460ff166002811115610ad857fe5b14610af55760405162461bcd60e51b81526004016102cd9061102f565b6000838152602081905260409020610b0f90600201610ce7565b9392505050565b81600160008281526020819052604090206001015460ff166002811115610b3957fe5b14610b565760405162461bcd60e51b81526004016102cd9061102f565b6000838152602081905260409020548390610b719033610a2a565b610b8d5760405162461bcd60e51b81526004016102cd90611252565b6000848152602081905260409020610909906002018463ffffffff610cf416565b60018181548110610bbb57fe5b6000918252602090912001546001600160a01b0316905081565b600060016001600160a01b03831660009081526002602052604090205460ff166001811115610c0057fe5b1492915050565b6000610b0f83836040518060400160405280601e81526020017f536166654d6174683a207375627472616374696f6e206f766572666c6f770000815250610d37565b600082820183811015610b0f5760405162461bcd60e51b81526004016102cd90610ff8565b6001600160a01b0316600090815260209190915260409020805460ff19169055565b6001600160a01b0316600090815260209190915260409020805460ff19166001179055565b90546001600160a01b0391821691161490565b6001600160a01b03166000908152602091909152604090205460ff1690565b546001600160a01b031690565b6001600160a01b038116610d1a5760405162461bcd60e51b81526004016102cd9061120f565b81546001600160a01b0319166001600160a01b0391909116179055565b60008184841115610d5b5760405162461bcd60e51b81526004016102cd9190610f6e565b505050900390565b80356001600160a01b0381168114610a2457600080fd5b600060208284031215610d8b578081fd5b610b0f8383610d63565b60008060408385031215610da7578081fd5b610db18484610d63565b9150610dc08460208501610d63565b90509250929050565b600080600060408486031215610ddd578081fd5b833567ffffffffffffffff80821115610df4578283fd5b81860187601f820112610e05578384fd5b8035925081831115610e15578384fd5b8760208085028301011115610e28578384fd5b602081019550505080925050610e418560208601610d63565b90509250925092565b600060208284031215610e5b578081fd5b5035919050565b60008060408385031215610e74578182fd5b82359150610dc08460208501610d63565b6001600160a01b0391909116815260200190565b60208082528181018390526000908460408401835b86811015610edc578383016001600160a01b03610ecb8286610d63565b168352925090830190600101610eae565b509695505050505050565b6020808252825182820181905260009190848201906040850190845b81811015610f285783516001600160a01b031683529284019291840191600101610f03565b50909695505050505050565b901515815260200190565b6040810160028410610f4d57fe5b9281526fffffffffffffffffffffffffffffffff9190911660209091015290565b6000602080835283518082850152825b81811015610f9a57858101830151858201604001528201610f7e565b81811115610fab5783604083870101525b50601f01601f1916929092016040019392505050565b6020808252601f908201527f52656d6f7665206f6e6c792066726f6d2076616c696420636f6e747261637400604082015260600190565b6020808252601b908201527f536166654d6174683a206164646974696f6e206f766572666c6f770000000000604082015260600190565b6020808252602f908201527f4d7573742062652063616c6c6564206f6e20616e20696e697469616c697a656460408201527f204578636c757369766520726f6c650000000000000000000000000000000000606082015260800190565b6020808252601e908201527f43616e206f6e6c792061646420746f2076616c696420636f6e74726163740000604082015260600190565b6020808252602c908201527f4d7573742062652063616c6c6564206f6e20616e20696e697469616c697a656460408201526b2053686172656420726f6c6560a01b606082015260800190565b60208082526021908201527f43616e206f6e6c792072656d6f766520616e206578697374696e6720706172746040820152607960f81b606082015260800190565b60208082526022908201527f53656e64657220646f6573206e6f7420686f6c6420726571756972656420726f6040820152616c6560f01b606082015260800190565b60208082526026908201527f43616e27742072656d6f766520696620706172747920686173206e6f20636f6e60408201526574726163747360d01b606082015260800190565b6020808252601e908201527f43616e206f6e6c792072656769737465722061207061727479206f6e63650000604082015260600190565b60208082526023908201527f43616e6e6f742073657420616e206578636c757369766520726f6c6520746f2060408201526203078360ec1b606082015260800190565b60208082526024908201527f43616e206f6e6c792062652063616c6c6564206279206120726f6c65206d616e60408201526330b3b2b960e11b606082015260800190565b60208082526016908201527f43616e206f6e6c79207265676973746572206f6e636500000000000000000000604082015260600190565b6020808252600e908201527f496e76616c696420726f6c654964000000000000000000000000000000000000604082015260600190565b61130e8282610cf4565b5050565b60005b81518110156113435761133b8383838151811061132e57fe5b6020026020010151610c90565b600101611315565b50505056fea2646970667358221220b981bd68d21307b92d346242ecd174518482ab67761989582dd71135de276b6d64736f6c63430006040033417474656d7074656420746f2075736520616e20696e76616c696420726f6c65",
  "source": "pragma solidity ^0.6.0;\npragma experimental ABIEncoderV2;\n\nimport \"../../common/implementation/MultiRole.sol\";\nimport \"../interfaces/RegistryInterface.sol\";\n\nimport \"@openzeppelin/contracts/math/SafeMath.sol\";\n\n\n/**\n * @title Registry for financial contracts and approved financial contract creators.\n * @dev Maintains a whitelist of financial contract creators that are allowed\n * to register new financial contracts and stores party members of a financial contract.\n */\ncontract Registry is RegistryInterface, MultiRole {\n    using SafeMath for uint;\n\n    /****************************************\n     *    INTERNAL VARIABLES AND STORAGE    *\n     ****************************************/\n\n    enum Roles {\n        Owner, // The owner manages the set of ContractCreators.\n        ContractCreator // Can register financial contracts.\n    }\n\n    // This enum is required because a WasValid state is required to ensure that financial contracts cannot be re-registered.\n    enum Validity { Invalid, Valid }\n\n    // Local information about a contract.\n    struct FinancialContract {\n        Validity valid;\n        uint128 index;\n    }\n\n    struct Party {\n        address[] contracts; // Each financial contract address is stored in this array.\n        // The index of each financial contract is mapped to it's address for constant time look up and deletion.\n        mapping(address => uint) contractIndex;\n    }\n\n    // Array of all contracts that are approved to use the UMA Oracle.\n    address[] public registeredContracts;\n\n    // Map of financial contract contracts to the associated FinancialContract struct.\n    mapping(address => FinancialContract) public contractMap;\n\n    // Map each party member to their associated FinancialContract struct.\n    mapping(address => Party) private partyMap;\n\n    /****************************************\n     *                EVENTS                *\n     ****************************************/\n\n    event NewContractRegistered(address indexed contractAddress, address indexed creator, address[] parties);\n    event PartyAdded(address indexed contractAddress, address indexed party);\n    event PartyRemoved(address indexed contractAddress, address indexed party);\n\n    /**\n     * @notice Construct the Registry contract.\n     */\n    constructor() public {\n        _createExclusiveRole(uint(Roles.Owner), uint(Roles.Owner), msg.sender);\n        // Start with no contract creators registered.\n        _createSharedRole(uint(Roles.ContractCreator), uint(Roles.Owner), new address[](0));\n    }\n\n    /****************************************\n     *        REGISTRATION FUNCTIONS        *\n     ****************************************/\n\n    /**\n     * @notice Registers a new financial contract.\n     * @dev Only authorized contract creators can call this method.\n     * @param parties an array of addresses who become parties in the contract.\n     * @param contractAddress defines the address of the deployed finan.\n     */\n    // TODO(#969) Remove once prettier-plugin-solidity can handle the \"override\" keyword\n    // prettier-ignore\n    function registerContract(address[] calldata parties, address contractAddress)\n        external\n        override\n        onlyRoleHolder(uint(Roles.ContractCreator))\n    {\n        FinancialContract storage financialContract = contractMap[contractAddress];\n        require(contractMap[contractAddress].valid == Validity.Invalid, \"Can only register once\");\n\n        // Store contract address as a registered contract.\n        registeredContracts.push(contractAddress);\n\n        // No length check necessary because we should never hit (2^127 - 1) contracts.\n        financialContract.index = uint128(registeredContracts.length.sub(1));\n\n        // For all parties in the array add them to the contract's parties.\n        financialContract.valid = Validity.Valid;\n        for (uint i = 0; i < parties.length; i = i.add(1)) {\n            partyMap[parties[i]].contracts.push(contractAddress);\n            uint newLength = partyMap[parties[i]].contracts.length;\n            partyMap[parties[i]].contractIndex[contractAddress] = newLength - 1;\n        }\n\n        emit NewContractRegistered(contractAddress, msg.sender, parties);\n    }\n\n    /**\n     * @notice Adds a party member to the calling contract.\n     * @dev msg.sender will be used to determine the contract that this party is added to.\n     * @param party new party for the calling contract.\n     */\n    // TODO(#969) Remove once prettier-plugin-solidity can handle the \"override\" keyword\n    // prettier-ignore\n    function addPartyToContract(address party) external override {\n        address contractAddress = msg.sender;\n\n        require(contractMap[contractAddress].valid == Validity.Valid, \"Can only add to valid contract\");\n        require(!isPartyMemberOfContract(party, contractAddress), \"Can only register a party once\");\n\n        // Push the contract address and store the index.\n        uint contractIndex = partyMap[party].contracts.length;\n        partyMap[party].contracts.push(contractAddress);\n        partyMap[party].contractIndex[contractAddress] = contractIndex;\n\n        emit PartyAdded(contractAddress, party);\n    }\n\n    /**\n     * @notice Removes a party member to the calling contract.\n     * @dev msg.sender will be used to determine the contract that this party is removed from.\n     * @param partyAddress address to be removed from the calling contract.\n     */\n    // TODO(#969) Remove once prettier-plugin-solidity can handle the \"override\" keyword\n    // prettier-ignore\n    function removePartyFromContract(address partyAddress) external override {\n        address contractAddress = msg.sender;\n        Party storage party = partyMap[partyAddress];\n        uint256 numberOfContracts = party.contracts.length;\n\n        require(numberOfContracts != 0, \"Can't remove if party has no contracts\");\n        require(contractMap[contractAddress].valid == Validity.Valid, \"Remove only from valid contract\");\n        require(isPartyMemberOfContract(partyAddress, contractAddress), \"Can only remove an existing party\");\n\n        // Index of the current location of the contract to remove.\n        uint deleteIndex = party.contractIndex[contractAddress];\n\n        // Store the last contract's address to update the lookup map.\n        address lastContractAddress = party.contracts[numberOfContracts - 1];\n\n        // Swap the contract to be removed with the last contract.\n        party.contracts[deleteIndex] = lastContractAddress;\n\n        // Update the lookup index with the new location.\n        party.contractIndex[lastContractAddress] = deleteIndex;\n\n        // Pop the last contract from the array and update the lookup map.\n        party.contracts.pop();\n        delete party.contractIndex[contractAddress];\n\n        emit PartyRemoved(contractAddress, partyAddress);\n    }\n\n    /****************************************\n     *         REGISTRY STATE GETTERS       *\n     ****************************************/\n\n    /**\n     * @notice Returns whether the contract has been registered with the registry.\n     * @dev If it is registered, it is an authorized participant in the UMA system.\n     * @param contractAddress address of the financial contract.\n     * @return bool indicates whether the contract is registered.\n     */\n    // TODO(#969) Remove once prettier-plugin-solidity can handle the \"override\" keyword\n    // prettier-ignore\n    function isContractRegistered(address contractAddress) external override view returns (bool) {\n        return contractMap[contractAddress].valid == Validity.Valid;\n    }\n\n    /**\n     * @notice Returns a list of all contracts that are associated with a particular party.\n     * @param party address of the party.\n     * @return an array of the contracts the party is registered to.\n     */\n    // TODO(#969) Remove once prettier-plugin-solidity can handle the \"override\" keyword\n    // prettier-ignore\n    function getRegisteredContracts(address party) external override view returns (address[] memory) {\n        return partyMap[party].contracts;\n    }\n\n    /**\n     * @notice Returns all registered contracts.\n     * @return all registered contract addresses within the system.\n     */\n    // TODO(#969) Remove once prettier-plugin-solidity can handle the \"override\" keyword\n    // prettier-ignore\n    function getAllRegisteredContracts() external override view returns (address[] memory) {\n        return registeredContracts;\n    }\n\n    /**\n     * @notice checks if an address is a party of a contract.\n     * @param party party to check.\n     * @param contractAddress address to check against the party.\n     * @return bool indicating if the address is a party of the contract.\n     */\n    // TODO(#969) Remove once prettier-plugin-solidity can handle the \"override\" keyword\n    // prettier-ignore\n    function isPartyMemberOfContract(address party, address contractAddress) public override view returns (bool) {\n        uint index = partyMap[party].contractIndex[contractAddress];\n        return partyMap[party].contracts.length > index && partyMap[party].contracts[index] == contractAddress;\n    }\n}\n",
  "sourcePath": "/home/opz/Projects/SynFiat/contracts/uma-contracts/oracle/implementation/Registry.sol",
  "compiler": {
    "name": "solc",
    "version": "0.6.4+commit.1dca32f3.Emscripten.clang"
  },
  "schemaVersion": "3.2.0",
  "updatedAt": "2020-06-01T04:24:41.849Z",
  "devdoc": {
    "details": "Maintains a whitelist of financial contract creators that are allowed to register new financial contracts and stores party members of a financial contract.",
    "methods": {
      "addMember(uint256,address)": {
        "details": "Reverts if `roleId` does not represent an initialized, shared role or if the caller is not a member of the managing role for `roleId`."
      },
      "addPartyToContract(address)": {
        "details": "msg.sender will be used to determine the contract that this party is added to.",
        "params": {
          "party": "new party for the calling contract."
        }
      },
      "getMember(uint256)": {
        "details": "Reverts if `roleId` does not represent an initialized, exclusive role."
      },
      "getRegisteredContracts(address)": {
        "params": {
          "party": "address of the party."
        },
        "returns": {
          "_0": "an array of the contracts the party is registered to."
        }
      },
      "holdsRole(uint256,address)": {
        "details": "Reverts if roleId does not correspond to an initialized role."
      },
      "isContractRegistered(address)": {
        "details": "If it is registered, it is an authorized participant in the UMA system.",
        "params": {
          "contractAddress": "address of the financial contract."
        },
        "returns": {
          "_0": "bool indicates whether the contract is registered."
        }
      },
      "isPartyMemberOfContract(address,address)": {
        "params": {
          "contractAddress": "address to check against the party.",
          "party": "party to check."
        },
        "returns": {
          "_0": "bool indicating if the address is a party of the contract."
        }
      },
      "registerContract(address[],address)": {
        "details": "Only authorized contract creators can call this method.",
        "params": {
          "contractAddress": "defines the address of the deployed finan.",
          "parties": "an array of addresses who become parties in the contract."
        }
      },
      "removeMember(uint256,address)": {
        "details": "Reverts if `roleId` does not represent an initialized, shared role or if the caller is not a member of the managing role for `roleId`."
      },
      "removePartyFromContract(address)": {
        "details": "msg.sender will be used to determine the contract that this party is removed from.",
        "params": {
          "partyAddress": "address to be removed from the calling contract."
        }
      },
      "resetMember(uint256,address)": {
        "details": "Reverts if the caller is not a member of the managing role for `roleId` or if `roleId` is not an initialized, exclusive role."
      }
    },
    "title": "Registry for financial contracts and approved financial contract creators."
  },
  "userdoc": {
    "methods": {
      "addMember(uint256,address)": {
        "notice": "Adds `newMember` to the shared role, `roleId`."
      },
      "addPartyToContract(address)": {
        "notice": "Adds a party member to the calling contract."
      },
      "constructor": "Construct the Registry contract.",
      "getAllRegisteredContracts()": {
        "notice": "Returns all registered contracts."
      },
      "getMember(uint256)": {
        "notice": "Gets the current holder of the exclusive role, `roleId`."
      },
      "getRegisteredContracts(address)": {
        "notice": "Returns a list of all contracts that are associated with a particular party."
      },
      "holdsRole(uint256,address)": {
        "notice": "Whether `memberToCheck` is a member of roleId."
      },
      "isContractRegistered(address)": {
        "notice": "Returns whether the contract has been registered with the registry."
      },
      "isPartyMemberOfContract(address,address)": {
        "notice": "checks if an address is a party of a contract."
      },
      "registerContract(address[],address)": {
        "notice": "Registers a new financial contract."
      },
      "removeMember(uint256,address)": {
        "notice": "Removes `memberToRemove` from the shared role, `roleId`."
      },
      "removePartyFromContract(address)": {
        "notice": "Removes a party member to the calling contract."
      },
      "resetMember(uint256,address)": {
        "notice": "Changes the exclusive role holder of `roleId` to `newMember`."
      }
    }
  }
}