{
  "contractName": "ResultComputationTest",
  "abi": [
    {
      "inputs": [],
      "name": "data",
      "outputs": [
        {
          "components": [
            {
              "internalType": "uint256",
              "name": "rawValue",
              "type": "uint256"
            }
          ],
          "internalType": "struct FixedPoint.Unsigned",
          "name": "totalVotes",
          "type": "tuple"
        },
        {
          "internalType": "int256",
          "name": "currentMode",
          "type": "int256"
        }
      ],
      "stateMutability": "view",
      "type": "function"
    },
    {
      "inputs": [
        {
          "internalType": "int256",
          "name": "votePrice",
          "type": "int256"
        },
        {
          "internalType": "uint256",
          "name": "numberTokens",
          "type": "uint256"
        }
      ],
      "name": "wrapAddVote",
      "outputs": [],
      "stateMutability": "nonpayable",
      "type": "function"
    },
    {
      "inputs": [
        {
          "internalType": "uint256",
          "name": "minVoteThreshold",
          "type": "uint256"
        }
      ],
      "name": "wrapGetResolvedPrice",
      "outputs": [
        {
          "internalType": "bool",
          "name": "isResolved",
          "type": "bool"
        },
        {
          "internalType": "int256",
          "name": "price",
          "type": "int256"
        }
      ],
      "stateMutability": "view",
      "type": "function"
    },
    {
      "inputs": [
        {
          "internalType": "bytes32",
          "name": "revealHash",
          "type": "bytes32"
        }
      ],
      "name": "wrapWasVoteCorrect",
      "outputs": [
        {
          "internalType": "bool",
          "name": "",
          "type": "bool"
        }
      ],
      "stateMutability": "view",
      "type": "function"
    },
    {
      "inputs": [],
      "name": "wrapGetTotalCorrectlyVotedTokens",
      "outputs": [
        {
          "internalType": "uint256",
          "name": "",
          "type": "uint256"
        }
      ],
      "stateMutability": "view",
      "type": "function"
    }
  ],
  "bytecode": "0x608060405234801561001057600080fd5b5061073b806100206000396000f3fe608060405234801561001057600080fd5b50600436106100675760003560e01c8063abba025411610050578063abba0254146100a0578063cc15973f146100b5578063fb7da38c146100d657610067565b806373d4a13a1461006c578063a3c5fe481461008b575b600080fd5b6100746100f6565b6040516100829291906106f6565b60405180910390f35b61009361010c565b60405161008291906105e8565b6100b36100ae3660046105ac565b61011e565b005b6100c86100c3366004610594565b610144565b6040516100829291906105d8565b6100e96100e4366004610594565b610172565b60405161008291906105cd565b6040805160208101909152600154815260025482565b6000610118600061018a565b51905090565b604080516020810190915281815261014090600090849063ffffffff6101b616565b5050565b600080610169604051806020016040528085815250600061028090919063ffffffff16565b91509150915091565b6000610184818363ffffffff61034416565b92915050565b610192610581565b50600281015460009081526020918252604090819020815192830190915254815290565b6040805160208101909152600184015481526101d8908263ffffffff61037b16565b5160018401556000828152602084815260409182902082519182019092529054815261020a908263ffffffff61037b16565b6000838152602085905260409020905190556002830154821480159061026e57506002830154600090815260208481526040808320815180840183529054815285845286835292819020815192830190915254815261026e9163ffffffff6103ad16565b1561027b57600283018290555b505050565b60008061028b610581565b6102a6606461029a60326103b4565b9063ffffffff6103e816565b6040805160208101909152600187015481529091506102cb908563ffffffff6103ad16565b8015610322575060408051602080820183526001880154825260028801546000908152888252839020835191820190935291548252610322918391610316919063ffffffff61040f16565b9063ffffffff6103ad16565b1561033757600192508460020154915061033c565b600092505b509250929050565b6000826002015460405160200161035b91906105e8565b604051602081830303815290604052805190602001208214905092915050565b610383610581565b60408051602081019091528251845182916103a4919063ffffffff61045016565b90529392505050565b5190511190565b6103bc610581565b6040805160208101909152806103e084670de0b6b3a764000063ffffffff61049f16565b905292915050565b6103f0610581565b6040805160208101909152835181906103a4908563ffffffff6104f316565b610417610581565b60408051602081019091528251845182916103a49161044490670de0b6b3a764000063ffffffff61049f16565b9063ffffffff6104f316565b600082820183811015610498576040517f08c379a000000000000000000000000000000000000000000000000000000000815260040161048f90610662565b60405180910390fd5b9392505050565b6000826104ae57506000610184565b828202828482816104bb57fe5b0414610498576040517f08c379a000000000000000000000000000000000000000000000000000000000815260040161048f90610699565b600061049883836040518060400160405280601a81526020017f536166654d6174683a206469766973696f6e206279207a65726f0000000000008152506000818361056b576040517f08c379a000000000000000000000000000000000000000000000000000000000815260040161048f91906105f1565b50600083858161057757fe5b0495945050505050565b6040518060200160405280600081525090565b6000602082840312156105a5578081fd5b5035919050565b600080604083850312156105be578081fd5b50508035926020909101359150565b901515815260200190565b9115158252602082015260400190565b90815260200190565b6000602080835283518082850152825b8181101561061d57858101830151858201604001528201610601565b8181111561062e5783604083870101525b50601f017fffffffffffffffffffffffffffffffffffffffffffffffffffffffffffffffe016929092016040019392505050565b6020808252601b908201527f536166654d6174683a206164646974696f6e206f766572666c6f770000000000604082015260600190565b60208082526021908201527f536166654d6174683a206d756c7469706c69636174696f6e206f766572666c6f60408201527f7700000000000000000000000000000000000000000000000000000000000000606082015260800190565b9151825260208201526040019056fea264697066735822122013f2dd9ff95334cc87fa947c01e53571f762d330583a3f6e2ee933a3070ec8c664736f6c634300060a0033",
  "immutableReferences": {},
  "source": "pragma solidity ^0.6.0;\n\npragma experimental ABIEncoderV2;\n\nimport \"../ResultComputation.sol\";\nimport \"../../../common/implementation/FixedPoint.sol\";\n\n\n// Wraps the library ResultComputation for testing purposes.\ncontract ResultComputationTest {\n    using ResultComputation for ResultComputation.Data;\n\n    ResultComputation.Data public data;\n\n    function wrapAddVote(int256 votePrice, uint256 numberTokens) external {\n        data.addVote(votePrice, FixedPoint.Unsigned(numberTokens));\n    }\n\n    function wrapGetResolvedPrice(uint256 minVoteThreshold) external view returns (bool isResolved, int256 price) {\n        return data.getResolvedPrice(FixedPoint.Unsigned(minVoteThreshold));\n    }\n\n    function wrapWasVoteCorrect(bytes32 revealHash) external view returns (bool) {\n        return data.wasVoteCorrect(revealHash);\n    }\n\n    function wrapGetTotalCorrectlyVotedTokens() external view returns (uint256) {\n        return data.getTotalCorrectlyVotedTokens().rawValue;\n    }\n}\n",
  "sourcePath": "/home/alessandrovm/JarvisLavoro/SynFiat/packages/contracts/contracts/uma-contracts/oracle/implementation/test/ResultComputationTest.sol",
  "compiler": {
    "name": "solc",
    "version": "0.6.10+commit.00c0fcaf.Emscripten.clang"
  },
  "schemaVersion": "3.2.5",
  "updatedAt": "2020-10-19T18:33:22.439Z",
  "devdoc": {
    "methods": {}
  },
  "userdoc": {
    "methods": {}
  }
}