{
  "contractName": "ResultComputationTest",
  "abi": [
    {
      "inputs": [],
      "name": "data",
      "outputs": [
        {
          "components": [
            {
              "internalType": "uint256",
              "name": "rawValue",
              "type": "uint256"
            }
          ],
          "internalType": "struct FixedPoint.Unsigned",
          "name": "totalVotes",
          "type": "tuple"
        },
        {
          "internalType": "int256",
          "name": "currentMode",
          "type": "int256"
        }
      ],
      "stateMutability": "view",
      "type": "function"
    },
    {
      "inputs": [
        {
          "internalType": "int256",
          "name": "votePrice",
          "type": "int256"
        },
        {
          "internalType": "uint256",
          "name": "numberTokens",
          "type": "uint256"
        }
      ],
      "name": "wrapAddVote",
      "outputs": [],
      "stateMutability": "nonpayable",
      "type": "function"
    },
    {
      "inputs": [
        {
          "internalType": "uint256",
          "name": "minVoteThreshold",
          "type": "uint256"
        }
      ],
      "name": "wrapGetResolvedPrice",
      "outputs": [
        {
          "internalType": "bool",
          "name": "isResolved",
          "type": "bool"
        },
        {
          "internalType": "int256",
          "name": "price",
          "type": "int256"
        }
      ],
      "stateMutability": "view",
      "type": "function"
    },
    {
      "inputs": [
        {
          "internalType": "bytes32",
          "name": "revealHash",
          "type": "bytes32"
        }
      ],
      "name": "wrapWasVoteCorrect",
      "outputs": [
        {
          "internalType": "bool",
          "name": "",
          "type": "bool"
        }
      ],
      "stateMutability": "view",
      "type": "function"
    },
    {
      "inputs": [],
      "name": "wrapGetTotalCorrectlyVotedTokens",
      "outputs": [
        {
          "internalType": "uint256",
          "name": "",
          "type": "uint256"
        }
      ],
      "stateMutability": "view",
      "type": "function"
    }
  ],
  "bytecode": "0x608060405234801561001057600080fd5b506106a3806100206000396000f3fe608060405234801561001057600080fd5b50600436106100575760003560e01c806373d4a13a1461005c578063a3c5fe481461007b578063abba025414610090578063cc15973f146100a5578063fb7da38c146100c6575b600080fd5b6100646100e6565b60405161007292919061065e565b60405180910390f35b6100836100fc565b604051610072919061058a565b6100a361009e36600461054e565b61010e565b005b6100b86100b3366004610536565b610134565b60405161007292919061057a565b6100d96100d4366004610536565b610162565b604051610072919061056f565b6040805160208101909152600154815260025482565b6000610108600061017a565b51905090565b604080516020810190915281815261013090600090849063ffffffff6101a616565b5050565b600080610159604051806020016040528085815250600061027090919063ffffffff16565b91509150915091565b6000610174818363ffffffff61033416565b92915050565b610182610523565b50600281015460009081526020918252604090819020815192830190915254815290565b6040805160208101909152600184015481526101c8908263ffffffff61036b16565b516001840155600082815260208481526040918290208251918201909252905481526101fa908263ffffffff61036b16565b6000838152602085905260409020905190556002830154821480159061025e57506002830154600090815260208481526040808320815180840183529054815285845286835292819020815192830190915254815261025e9163ffffffff61039d16565b1561026b57600283018290555b505050565b60008061027b610523565b610296606461028a60326103a4565b9063ffffffff6103d816565b6040805160208101909152600187015481529091506102bb908563ffffffff61039d16565b8015610312575060408051602080820183526001880154825260028801546000908152888252839020835191820190935291548252610312918391610306919063ffffffff6103ff16565b9063ffffffff61039d16565b1561032757600192508460020154915061032c565b600092505b509250929050565b6000826002015460405160200161034b919061058a565b604051602081830303815290604052805190602001208214905092915050565b610373610523565b6040805160208101909152825184518291610394919063ffffffff61044016565b90529392505050565b5190511190565b6103ac610523565b6040805160208101909152806103d084670de0b6b3a764000063ffffffff61047516565b905292915050565b6103e0610523565b604080516020810190915283518190610394908563ffffffff6104af16565b610407610523565b60408051602081019091528251845182916103949161043490670de0b6b3a764000063ffffffff61047516565b9063ffffffff6104af16565b60008282018381101561046e5760405162461bcd60e51b8152600401610465906105e6565b60405180910390fd5b9392505050565b60008261048457506000610174565b8282028284828161049157fe5b041461046e5760405162461bcd60e51b81526004016104659061061d565b600061046e83836040518060400160405280601a81526020017f536166654d6174683a206469766973696f6e206279207a65726f0000000000008152506000818361050d5760405162461bcd60e51b81526004016104659190610593565b50600083858161051957fe5b0495945050505050565b6040518060200160405280600081525090565b600060208284031215610547578081fd5b5035919050565b60008060408385031215610560578081fd5b50508035926020909101359150565b901515815260200190565b9115158252602082015260400190565b90815260200190565b6000602080835283518082850152825b818110156105bf578581018301518582016040015282016105a3565b818111156105d05783604083870101525b50601f01601f1916929092016040019392505050565b6020808252601b908201527f536166654d6174683a206164646974696f6e206f766572666c6f770000000000604082015260600190565b60208082526021908201527f536166654d6174683a206d756c7469706c69636174696f6e206f766572666c6f6040820152607760f81b606082015260800190565b9151825260208201526040019056fea2646970667358221220fb4e4e91cbf438b880c98543fdd2fe923a071bf250a1246dc43b16ff37a3848864736f6c63430006040033",
  "source": "pragma solidity ^0.6.0;\n\npragma experimental ABIEncoderV2;\n\nimport \"../ResultComputation.sol\";\nimport \"../../../common/implementation/FixedPoint.sol\";\n\n\n// Wraps the library ResultComputation for testing purposes.\ncontract ResultComputationTest {\n    using ResultComputation for ResultComputation.Data;\n\n    ResultComputation.Data public data;\n\n    function wrapAddVote(int votePrice, uint numberTokens) external {\n        data.addVote(votePrice, FixedPoint.Unsigned(numberTokens));\n    }\n\n    function wrapGetResolvedPrice(uint minVoteThreshold) external view returns (bool isResolved, int price) {\n        return data.getResolvedPrice(FixedPoint.Unsigned(minVoteThreshold));\n    }\n\n    function wrapWasVoteCorrect(bytes32 revealHash) external view returns (bool) {\n        return data.wasVoteCorrect(revealHash);\n    }\n\n    function wrapGetTotalCorrectlyVotedTokens() external view returns (uint) {\n        return data.getTotalCorrectlyVotedTokens().rawValue;\n    }\n}\n",
  "sourcePath": "/home/opz/Projects/SynFiat/contracts/uma-contracts/oracle/implementation/test/ResultComputationTest.sol",
  "compiler": {
    "name": "solc",
    "version": "0.6.4+commit.1dca32f3.Emscripten.clang"
  },
  "schemaVersion": "3.2.0",
  "updatedAt": "2020-06-01T04:24:41.880Z",
  "devdoc": {
    "methods": {}
  },
  "userdoc": {
    "methods": {}
  }
}