{
  "contractName": "Store",
  "abi": [
    {
      "inputs": [],
      "stateMutability": "nonpayable",
      "type": "constructor"
    },
    {
      "anonymous": false,
      "inputs": [
        {
          "components": [
            {
              "internalType": "uint256",
              "name": "rawValue",
              "type": "uint256"
            }
          ],
          "indexed": false,
          "internalType": "struct FixedPoint.Unsigned",
          "name": "newOracleFee",
          "type": "tuple"
        }
      ],
      "name": "NewFixedOracleFeePerSecond",
      "type": "event"
    },
    {
      "inputs": [],
      "name": "SECONDS_PER_WEEK",
      "outputs": [
        {
          "internalType": "uint256",
          "name": "",
          "type": "uint256"
        }
      ],
      "stateMutability": "view",
      "type": "function"
    },
    {
      "inputs": [
        {
          "internalType": "uint256",
          "name": "roleId",
          "type": "uint256"
        },
        {
          "internalType": "address",
          "name": "newMember",
          "type": "address"
        }
      ],
      "name": "addMember",
      "outputs": [],
      "stateMutability": "nonpayable",
      "type": "function"
    },
    {
      "inputs": [
        {
          "internalType": "address",
          "name": "",
          "type": "address"
        }
      ],
      "name": "finalFees",
      "outputs": [
        {
          "internalType": "uint256",
          "name": "rawValue",
          "type": "uint256"
        }
      ],
      "stateMutability": "view",
      "type": "function"
    },
    {
      "inputs": [],
      "name": "fixedOracleFeePerSecond",
      "outputs": [
        {
          "internalType": "uint256",
          "name": "rawValue",
          "type": "uint256"
        }
      ],
      "stateMutability": "view",
      "type": "function"
    },
    {
      "inputs": [
        {
          "internalType": "uint256",
          "name": "roleId",
          "type": "uint256"
        }
      ],
      "name": "getMember",
      "outputs": [
        {
          "internalType": "address",
          "name": "",
          "type": "address"
        }
      ],
      "stateMutability": "view",
      "type": "function"
    },
    {
      "inputs": [
        {
          "internalType": "uint256",
          "name": "roleId",
          "type": "uint256"
        },
        {
          "internalType": "address",
          "name": "memberToCheck",
          "type": "address"
        }
      ],
      "name": "holdsRole",
      "outputs": [
        {
          "internalType": "bool",
          "name": "",
          "type": "bool"
        }
      ],
      "stateMutability": "view",
      "type": "function"
    },
    {
      "inputs": [
        {
          "internalType": "uint256",
          "name": "roleId",
          "type": "uint256"
        },
        {
          "internalType": "address",
          "name": "memberToRemove",
          "type": "address"
        }
      ],
      "name": "removeMember",
      "outputs": [],
      "stateMutability": "nonpayable",
      "type": "function"
    },
    {
      "inputs": [
        {
          "internalType": "uint256",
          "name": "roleId",
          "type": "uint256"
        },
        {
          "internalType": "address",
          "name": "newMember",
          "type": "address"
        }
      ],
      "name": "resetMember",
      "outputs": [],
      "stateMutability": "nonpayable",
      "type": "function"
    },
    {
      "inputs": [],
      "name": "weeklyDelayFee",
      "outputs": [
        {
          "internalType": "uint256",
          "name": "rawValue",
          "type": "uint256"
        }
      ],
      "stateMutability": "view",
      "type": "function"
    },
    {
      "inputs": [
        {
          "internalType": "uint256",
          "name": "amount",
          "type": "uint256"
        }
      ],
      "name": "withdraw",
      "outputs": [],
      "stateMutability": "nonpayable",
      "type": "function"
    },
    {
      "inputs": [
        {
          "internalType": "address",
          "name": "erc20Address",
          "type": "address"
        },
        {
          "internalType": "uint256",
          "name": "amount",
          "type": "uint256"
        }
      ],
      "name": "withdrawErc20",
      "outputs": [],
      "stateMutability": "nonpayable",
      "type": "function"
    },
    {
      "inputs": [],
      "name": "payOracleFees",
      "outputs": [],
      "stateMutability": "payable",
      "type": "function"
    },
    {
      "inputs": [
        {
          "internalType": "address",
          "name": "erc20Address",
          "type": "address"
        }
      ],
      "name": "payOracleFeesErc20",
      "outputs": [],
      "stateMutability": "nonpayable",
      "type": "function"
    },
    {
      "inputs": [
        {
          "internalType": "uint256",
          "name": "startTime",
          "type": "uint256"
        },
        {
          "internalType": "uint256",
          "name": "endTime",
          "type": "uint256"
        },
        {
          "components": [
            {
              "internalType": "uint256",
              "name": "rawValue",
              "type": "uint256"
            }
          ],
          "internalType": "struct FixedPoint.Unsigned",
          "name": "pfc",
          "type": "tuple"
        }
      ],
      "name": "computeRegularFee",
      "outputs": [
        {
          "components": [
            {
              "internalType": "uint256",
              "name": "rawValue",
              "type": "uint256"
            }
          ],
          "internalType": "struct FixedPoint.Unsigned",
          "name": "regularFee",
          "type": "tuple"
        },
        {
          "components": [
            {
              "internalType": "uint256",
              "name": "rawValue",
              "type": "uint256"
            }
          ],
          "internalType": "struct FixedPoint.Unsigned",
          "name": "latePenalty",
          "type": "tuple"
        }
      ],
      "stateMutability": "view",
      "type": "function"
    },
    {
      "inputs": [
        {
          "internalType": "address",
          "name": "currency",
          "type": "address"
        }
      ],
      "name": "computeFinalFee",
      "outputs": [
        {
          "components": [
            {
              "internalType": "uint256",
              "name": "rawValue",
              "type": "uint256"
            }
          ],
          "internalType": "struct FixedPoint.Unsigned",
          "name": "finalFee",
          "type": "tuple"
        }
      ],
      "stateMutability": "view",
      "type": "function"
    },
    {
      "inputs": [
        {
          "components": [
            {
              "internalType": "uint256",
              "name": "rawValue",
              "type": "uint256"
            }
          ],
          "internalType": "struct FixedPoint.Unsigned",
          "name": "newOracleFee",
          "type": "tuple"
        }
      ],
      "name": "setFixedOracleFeePerSecond",
      "outputs": [],
      "stateMutability": "nonpayable",
      "type": "function"
    },
    {
      "inputs": [
        {
          "components": [
            {
              "internalType": "uint256",
              "name": "rawValue",
              "type": "uint256"
            }
          ],
          "internalType": "struct FixedPoint.Unsigned",
          "name": "newWeeklyDelayFee",
          "type": "tuple"
        }
      ],
      "name": "setWeeklyDelayFee",
      "outputs": [],
      "stateMutability": "nonpayable",
      "type": "function"
    },
    {
      "inputs": [
        {
          "internalType": "address",
          "name": "currency",
          "type": "address"
        },
        {
          "components": [
            {
              "internalType": "uint256",
              "name": "rawValue",
              "type": "uint256"
            }
          ],
          "internalType": "struct FixedPoint.Unsigned",
          "name": "finalFee",
          "type": "tuple"
        }
      ],
      "name": "setFinalFee",
      "outputs": [],
      "stateMutability": "nonpayable",
      "type": "function"
    }
  ],
  "bytecode": "0x60806040523480156200001157600080fd5b5062000029600080336001600160e01b036200004716565b6200004160016000336001600160e01b036200011a16565b62000270565b826000808281526020819052604090206001015460ff1660028111156200006a57fe5b14620000935760405162461bcd60e51b81526004016200008a90620001f6565b60405180910390fd5b60008481526020819052604090206001808201805460ff191682800217905550838155620000d160028201846200013a602090811b620015be17901c565b60008481526020819052604081206001015460ff166002811115620000f257fe5b1415620001135760405162461bcd60e51b81526004016200008a9062000199565b5050505050565b6001839055620001358383836001600160e01b036200004716565b505050565b6200014f82826001600160e01b036200015316565b5050565b6001600160a01b0381166200017c5760405162461bcd60e51b81526004016200008a906200022d565b81546001600160a01b0319166001600160a01b0391909116179055565b6020808252603c908201527f417474656d7074656420746f2075736520616e20696e76616c696420726f6c6560408201527f20746f206d616e61676520616e206578636c757369766520726f6c6500000000606082015260800190565b6020808252601e908201527f43616e6e6f74207573652061207072652d6578697374696e6720726f6c650000604082015260600190565b60208082526023908201527f43616e6e6f742073657420616e206578636c757369766520726f6c6520746f2060408201526203078360ec1b606082015260800190565b61160280620002806000396000f3fe6080604052600436106101295760003560e01c80637cdc1cb9116100a5578063ab3545e511610074578063cd3a9b2411610059578063cd3a9b2414610345578063d288c1431461034d578063d97c05be1461036257610129565b8063ab3545e5146102f8578063bd1f4b521461032557610129565b80637cdc1cb9146102815780637e7e591d146102ae57806384ae2a74146102ce5780638500cdee146102e357610129565b80636be7658b116100fc57806374201feb116100e157806374201feb1461021357806374d0a676146102415780637684e0001461026157610129565b80636be7658b146101c65780636f356f4a146101e657610129565b80632e1a7d4d1461012e57806334a9eff4146101505780634933a887146101705780635b97aadd14610190575b600080fd5b34801561013a57600080fd5b5061014e61014936600461116b565b610382565b005b34801561015c57600080fd5b5061014e61016b366004611150565b610400565b34801561017c57600080fd5b5061014e61018b36600461109e565b610449565b34801561019c57600080fd5b506101b06101ab36600461109e565b6105b2565b6040516101bd919061159b565b60405180910390f35b3480156101d257600080fd5b5061014e6101e136600461119b565b6105f2565b3480156101f257600080fd5b5061020661020136600461109e565b6106c4565b6040516101bd91906115b5565b34801561021f57600080fd5b5061023361022e3660046111be565b6106d6565b6040516101bd9291906115a5565b34801561024d57600080fd5b5061014e61025c36600461119b565b61078b565b34801561026d57600080fd5b5061014e61027c366004611150565b610857565b34801561028d57600080fd5b506102a161029c36600461119b565b6108f4565b6040516101bd91906112ba565b3480156102ba57600080fd5b5061014e6102c93660046110b9565b61099d565b3480156102da57600080fd5b50610206610a0c565b3480156102ef57600080fd5b50610206610a13565b34801561030457600080fd5b5061031861031336600461116b565b610a19565b6040516101bd919061121b565b34801561033157600080fd5b5061014e610340366004611106565b610a96565b61014e610b8a565b34801561035957600080fd5b50610206610b99565b34801561036e57600080fd5b5061014e61037d36600461119b565b610b9f565b60015461038f81336108f4565b6103ce576040517f08c379a00000000000000000000000000000000000000000000000000000000081526004016103c5906113f0565b60405180910390fd5b604051339083156108fc029084906000818181858888f193505050501580156103fb573d6000803e3d6000fd5b505050565b600061040c81336108f4565b610442576040517f08c379a00000000000000000000000000000000000000000000000000000000081526004016103c5906113f0565b5051600355565b6040517fdd62ed3e000000000000000000000000000000000000000000000000000000008152819060009073ffffffffffffffffffffffffffffffffffffffff83169063dd62ed3e906104a2903390309060040161123c565b60206040518083038186803b1580156104ba57600080fd5b505afa1580156104ce573d6000803e3d6000fd5b505050506040513d601f19601f820116820180604052508101906104f29190611183565b90506000811161050157600080fd5b6040517f23b872dd00000000000000000000000000000000000000000000000000000000815273ffffffffffffffffffffffffffffffffffffffff8316906323b872dd9061055790339030908690600401611263565b602060405180830381600087803b15801561057157600080fd5b505af1158015610585573d6000803e3d6000fd5b505050506040513d601f19601f820116820180604052508101906105a99190611130565b6103fb57600080fd5b6105ba61102a565b5073ffffffffffffffffffffffffffffffffffffffff1660009081526004602090815260409182902082519182019092529054815290565b81600260008281526020819052604090206001015460ff16600281111561061557fe5b1461064c576040517f08c379a00000000000000000000000000000000000000000000000000000000081526004016103c590611393565b600083815260208190526040902054839061066790336108f4565b61069d576040517f08c379a00000000000000000000000000000000000000000000000000000000081526004016103c590611507565b60008481526020819052604090206106be906003018463ffffffff610c6b16565b50505050565b60046020526000908152604090205481565b6106de61102a565b6106e661102a565b60006106f8858763ffffffff610cb816565b6040805160208101909152600254815290915061073a9061072e8361072236899003890189611150565b9063ffffffff610cfa16565b9063ffffffff610d2a16565b92506107806107716107558362093a8063ffffffff610d6d16565b604080516020810190915260035481529063ffffffff610cfa16565b61072e36879003870187611150565b915050935093915050565b81600260008281526020819052604090206001015460ff1660028111156107ae57fe5b146107e5576040517f08c379a00000000000000000000000000000000000000000000000000000000081526004016103c590611393565b600083815260208190526040902054839061080090336108f4565b610836576040517f08c379a00000000000000000000000000000000000000000000000000000000081526004016103c590611507565b60008481526020819052604090206106be906003018463ffffffff610daf16565b600061086381336108f4565b610899576040517f08c379a00000000000000000000000000000000000000000000000000000000081526004016103c5906113f0565b6108aa82600163ffffffff610dff16565b6108b357600080fd5b81516002556040517fce0ae2865efa0c92fb74c1e33121795dc95cc78d86412a5b8f20be139857f386906108e890849061159b565b60405180910390a15050565b600082815260208190526040812060018082015460ff16600281111561091657fe5b14156109375761092f600282018463ffffffff610e1616565b915050610997565b6002600182015460ff16600281111561094c57fe5b14156109655761092f600382018463ffffffff610e3616565b6040517f08c379a00000000000000000000000000000000000000000000000000000000081526004016103c590611564565b92915050565b60006109a981336108f4565b6109df576040517f08c379a00000000000000000000000000000000000000000000000000000000081526004016103c5906113f0565b5073ffffffffffffffffffffffffffffffffffffffff909116600090815260046020526040902090519055565b62093a8081565b60025481565b600081600160008281526020819052604090206001015460ff166002811115610a3e57fe5b14610a75576040517f08c379a00000000000000000000000000000000000000000000000000000000081526004016103c590611336565b6000838152602081905260409020610a8f90600201610e62565b9392505050565b600154610aa381336108f4565b610ad9576040517f08c379a00000000000000000000000000000000000000000000000000000000081526004016103c5906113f0565b6040517fa9059cbb000000000000000000000000000000000000000000000000000000008152839073ffffffffffffffffffffffffffffffffffffffff82169063a9059cbb90610b2f9033908790600401611294565b602060405180830381600087803b158015610b4957600080fd5b505af1158015610b5d573d6000803e3d6000fd5b505050506040513d601f19601f82011682018060405250810190610b819190611130565b6106be57600080fd5b60003411610b9757600080fd5b565b60035481565b81600160008281526020819052604090206001015460ff166002811115610bc257fe5b14610bf9576040517f08c379a00000000000000000000000000000000000000000000000000000000081526004016103c590611336565b6000838152602081905260409020548390610c1490336108f4565b610c4a576040517f08c379a00000000000000000000000000000000000000000000000000000000081526004016103c590611507565b60008481526020819052604090206106be906002018463ffffffff610e7c16565b73ffffffffffffffffffffffffffffffffffffffff1660009081526020919091526040902080547fffffffffffffffffffffffffffffffffffffffffffffffffffffffffffffff00169055565b6000610a8f83836040518060400160405280601e81526020017f536166654d6174683a207375627472616374696f6e206f766572666c6f770000815250610f0b565b610d0261102a565b604080516020810190915283518190610d21908563ffffffff610f5116565b90529392505050565b610d3261102a565b6040805160208101909152825184518291670de0b6b3a764000091610d5c9163ffffffff610f5116565b81610d6357fe5b0490529392505050565b6000610a8f83836040518060400160405280601a81526020017f536166654d6174683a206469766973696f6e206279207a65726f000000000000815250610fa5565b73ffffffffffffffffffffffffffffffffffffffff1660009081526020919091526040902080547fffffffffffffffffffffffffffffffffffffffffffffffffffffffffffffff00166001179055565b6000610e0a82610ff6565b51835110905092915050565b905473ffffffffffffffffffffffffffffffffffffffff91821691161490565b73ffffffffffffffffffffffffffffffffffffffff166000908152602091909152604090205460ff1690565b5473ffffffffffffffffffffffffffffffffffffffff1690565b73ffffffffffffffffffffffffffffffffffffffff8116610ec9576040517f08c379a00000000000000000000000000000000000000000000000000000000081526004016103c5906114aa565b81547fffffffffffffffffffffffff00000000000000000000000000000000000000001673ffffffffffffffffffffffffffffffffffffffff91909116179055565b60008184841115610f49576040517f08c379a00000000000000000000000000000000000000000000000000000000081526004016103c591906112c5565b505050900390565b600082610f6057506000610997565b82820282848281610f6d57fe5b0414610a8f576040517f08c379a00000000000000000000000000000000000000000000000000000000081526004016103c59061144d565b60008183610fe0576040517f08c379a00000000000000000000000000000000000000000000000000000000081526004016103c591906112c5565b506000838581610fec57fe5b0495945050505050565b610ffe61102a565b60408051602081019091528061102284670de0b6b3a764000063ffffffff610f5116565b905292915050565b6040518060200160405280600081525090565b803573ffffffffffffffffffffffffffffffffffffffff8116811461099757600080fd5b600060208284031215611072578081fd5b6040516020810181811067ffffffffffffffff82111715611091578283fd5b6040529135825250919050565b6000602082840312156110af578081fd5b610a8f838361103d565b600080604083850312156110cb578081fd5b823573ffffffffffffffffffffffffffffffffffffffff811681146110ee578182fd5b91506110fd8460208501611061565b90509250929050565b60008060408385031215611118578182fd5b611122848461103d565b946020939093013593505050565b600060208284031215611141578081fd5b81518015158114610a8f578182fd5b600060208284031215611161578081fd5b610a8f8383611061565b60006020828403121561117c578081fd5b5035919050565b600060208284031215611194578081fd5b5051919050565b600080604083850312156111ad578182fd5b823591506110fd846020850161103d565b600080600083850360608112156111d3578182fd5b843593506020850135925060207fffffffffffffffffffffffffffffffffffffffffffffffffffffffffffffffc08201121561120d578182fd5b506040840190509250925092565b73ffffffffffffffffffffffffffffffffffffffff91909116815260200190565b73ffffffffffffffffffffffffffffffffffffffff92831681529116602082015260400190565b73ffffffffffffffffffffffffffffffffffffffff9384168152919092166020820152604081019190915260600190565b73ffffffffffffffffffffffffffffffffffffffff929092168252602082015260400190565b901515815260200190565b6000602080835283518082850152825b818110156112f1578581018301518582016040015282016112d5565b818111156113025783604083870101525b50601f017fffffffffffffffffffffffffffffffffffffffffffffffffffffffffffffffe016929092016040019392505050565b6020808252602f908201527f4d7573742062652063616c6c6564206f6e20616e20696e697469616c697a656460408201527f204578636c757369766520726f6c650000000000000000000000000000000000606082015260800190565b6020808252602c908201527f4d7573742062652063616c6c6564206f6e20616e20696e697469616c697a656460408201527f2053686172656420726f6c650000000000000000000000000000000000000000606082015260800190565b60208082526022908201527f53656e64657220646f6573206e6f7420686f6c6420726571756972656420726f60408201527f6c65000000000000000000000000000000000000000000000000000000000000606082015260800190565b60208082526021908201527f536166654d6174683a206d756c7469706c69636174696f6e206f766572666c6f60408201527f7700000000000000000000000000000000000000000000000000000000000000606082015260800190565b60208082526023908201527f43616e6e6f742073657420616e206578636c757369766520726f6c6520746f2060408201527f3078300000000000000000000000000000000000000000000000000000000000606082015260800190565b60208082526024908201527f43616e206f6e6c792062652063616c6c6564206279206120726f6c65206d616e60408201527f6167657200000000000000000000000000000000000000000000000000000000606082015260800190565b6020808252600e908201527f496e76616c696420726f6c654964000000000000000000000000000000000000604082015260600190565b9051815260200190565b9151825251602082015260400190565b90815260200190565b6115c88282610e7c565b505056fea26469706673582212204f685c6e90b55791bcb05707f14564e0c2f09d394c6e523da25a990c8237e5a664736f6c63430006040033",
  "source": "pragma solidity ^0.6.0;\npragma experimental ABIEncoderV2;\n\nimport \"@openzeppelin/contracts/math/SafeMath.sol\";\nimport \"../../common/implementation/FixedPoint.sol\";\nimport \"../../common/implementation/MultiRole.sol\";\nimport \"../../common/implementation/Withdrawable.sol\";\nimport \"../interfaces/StoreInterface.sol\";\n\n\n/**\n * @title An implementation of Store that can accept Oracle fees in ETH or any arbitrary ERC20 token.\n */\ncontract Store is StoreInterface, MultiRole, Withdrawable {\n    using SafeMath for uint;\n    using FixedPoint for FixedPoint.Unsigned;\n    using FixedPoint for uint;\n\n    /****************************************\n     *    INTERNAL VARIABLES AND STORAGE    *\n     ****************************************/\n\n    enum Roles { Owner, Withdrawer }\n\n    FixedPoint.Unsigned public fixedOracleFeePerSecond; // Percentage of 1 E.g., .1 is 10% Oracle fee.\n    FixedPoint.Unsigned public weeklyDelayFee; // Percentage of 1 E.g., .1 is 10% weekly delay fee.\n\n    mapping(address => FixedPoint.Unsigned) public finalFees;\n    uint public constant SECONDS_PER_WEEK = 604800;\n\n    /****************************************\n     *                EVENTS                *\n     ****************************************/\n\n    event NewFixedOracleFeePerSecond(FixedPoint.Unsigned newOracleFee);\n\n    /**\n     * @notice Construct the Store contract.\n     */\n    constructor() public {\n        _createExclusiveRole(uint(Roles.Owner), uint(Roles.Owner), msg.sender);\n        createWithdrawRole(uint(Roles.Withdrawer), uint(Roles.Owner), msg.sender);\n    }\n\n    /****************************************\n     *  ORACLE FEE CALCULATION AND PAYMENT  *\n     ****************************************/\n\n    /**\n     * @notice Pays Oracle fees in ETH to the store.\n     * @dev To be used by contracts whose margin currency is ETH.\n     */\n    // TODO(#969) Remove once prettier-plugin-solidity can handle the \"override\" keyword\n    // prettier-ignore\n    function payOracleFees() external override payable {\n        require(msg.value > 0);\n    }\n\n    /**\n     * @notice Pays oracle fees in the margin currency, erc20Address, to the store.\n     * @dev To be used if the margin currency is an ERC20 token rather than ETH.\n     * All approved tokens are transferred.\n     * @param erc20Address address of the ERC20 token used to pay the fee.\n     */\n    // TODO(#969) Remove once prettier-plugin-solidity can handle the \"override\" keyword\n    // prettier-ignore\n    function payOracleFeesErc20(address erc20Address) external override {\n        IERC20 erc20 = IERC20(erc20Address);\n        uint authorizedAmount = erc20.allowance(msg.sender, address(this));\n        require(authorizedAmount > 0);\n        require(erc20.transferFrom(msg.sender, address(this), authorizedAmount));\n    }\n\n    /**\n     * @notice Computes the regular oracle fees that a contract should pay for a period.\n     * @param startTime defines the beginning time from which the fee is paid.\n     * @param endTime end time until which the fee is paid.\n     * @param pfc \"profit from corruption\", or the maximum amount of margin currency that a\n     * token sponsor could extract from the contract through corrupting the price feed in their favor.\n     * @return regularFee amount owed for the duration from start to end time for the given pfc.\n     * @return latePenalty penalty percentage, if any, for paying the fee after the deadline.\n     */\n    // TODO(#969) Remove once prettier-plugin-solidity can handle the \"override\" keyword\n    // prettier-ignore\n    function computeRegularFee(uint startTime, uint endTime, FixedPoint.Unsigned calldata pfc)\n        external\n        override\n        view\n        returns (FixedPoint.Unsigned memory regularFee, FixedPoint.Unsigned memory latePenalty)\n    {\n        uint timeDiff = endTime.sub(startTime);\n\n        // Multiply by the unscaled `timeDiff` first, to get more accurate results.\n        regularFee = pfc.mul(timeDiff).mul(fixedOracleFeePerSecond);\n        // `weeklyDelayFee` is already scaled up.\n        latePenalty = pfc.mul(weeklyDelayFee.mul(timeDiff.div(SECONDS_PER_WEEK)));\n\n        return (regularFee, latePenalty);\n    }\n\n    /**\n     * @notice Computes the final oracle fees that a contract should pay at settlement.\n     * @param currency token used to pay the final fee.\n     * @return finalFee amount due denominated in units of `currency`.\n     */\n    // TODO(#969) Remove once prettier-plugin-solidity can handle the \"override\" keyword\n    // prettier-ignore\n    function computeFinalFee(address currency) external override view returns (FixedPoint.Unsigned memory finalFee) {\n        finalFee = finalFees[currency];\n    }\n\n    /****************************************\n     *   ADMIN STATE MODIFYING FUNCTIONS    *\n     ****************************************/\n\n    /**\n     * @notice Sets a new oracle fee per second.\n     * @param newOracleFee new fee per second charged to use the oracle.\n     */\n    function setFixedOracleFeePerSecond(FixedPoint.Unsigned memory newOracleFee)\n        public\n        onlyRoleHolder(uint(Roles.Owner))\n    {\n        // Oracle fees at or over 100% don't make sense.\n        require(newOracleFee.isLessThan(1));\n        fixedOracleFeePerSecond = newOracleFee;\n        emit NewFixedOracleFeePerSecond(newOracleFee);\n    }\n\n    /**\n     * @notice Sets a new weekly delay fee.\n     * @param newWeeklyDelayFee fee escalation per week of late fee payment.\n     */\n    function setWeeklyDelayFee(FixedPoint.Unsigned memory newWeeklyDelayFee) public onlyRoleHolder(uint(Roles.Owner)) {\n        weeklyDelayFee = newWeeklyDelayFee;\n    }\n\n    /**\n     * @notice Sets a new final fee for a particular currency.\n     * @param currency defines the token currency used to pay the final fee.\n     * @param finalFee final fee amount.\n     */\n    function setFinalFee(address currency, FixedPoint.Unsigned memory finalFee)\n        public\n        onlyRoleHolder(uint(Roles.Owner))\n    {\n        finalFees[currency] = finalFee;\n    }\n}\n",
  "sourcePath": "/home/opz/Projects/SynFiat-update/gitlab/contracts/uma-contracts/oracle/implementation/Store.sol",
  "compiler": {
    "name": "solc",
    "version": "0.6.4+commit.1dca32f3.Emscripten.clang"
  },
  "schemaVersion": "3.2.0",
  "updatedAt": "2020-07-20T06:15:50.113Z",
  "devdoc": {
    "methods": {
      "addMember(uint256,address)": {
        "details": "Reverts if `roleId` does not represent an initialized, shared role or if the caller is not a member of the managing role for `roleId`."
      },
      "computeFinalFee(address)": {
        "params": {
          "currency": "token used to pay the final fee."
        },
        "returns": {
          "finalFee": "amount due denominated in units of `currency`."
        }
      },
      "computeRegularFee(uint256,uint256,(uint256))": {
        "params": {
          "endTime": "end time until which the fee is paid.",
          "pfc": "\"profit from corruption\", or the maximum amount of margin currency that a token sponsor could extract from the contract through corrupting the price feed in their favor.",
          "startTime": "defines the beginning time from which the fee is paid."
        },
        "returns": {
          "latePenalty": "penalty percentage, if any, for paying the fee after the deadline.",
          "regularFee": "amount owed for the duration from start to end time for the given pfc."
        }
      },
      "getMember(uint256)": {
        "details": "Reverts if `roleId` does not represent an initialized, exclusive role."
      },
      "holdsRole(uint256,address)": {
        "details": "Reverts if roleId does not correspond to an initialized role."
      },
      "payOracleFees()": {
        "details": "To be used by contracts whose margin currency is ETH."
      },
      "payOracleFeesErc20(address)": {
        "details": "To be used if the margin currency is an ERC20 token rather than ETH. All approved tokens are transferred.",
        "params": {
          "erc20Address": "address of the ERC20 token used to pay the fee."
        }
      },
      "removeMember(uint256,address)": {
        "details": "Reverts if `roleId` does not represent an initialized, shared role or if the caller is not a member of the managing role for `roleId`."
      },
      "resetMember(uint256,address)": {
        "details": "Reverts if the caller is not a member of the managing role for `roleId` or if `roleId` is not an initialized, exclusive role."
      },
      "setFinalFee(address,(uint256))": {
        "params": {
          "currency": "defines the token currency used to pay the final fee.",
          "finalFee": "final fee amount."
        }
      },
      "setFixedOracleFeePerSecond((uint256))": {
        "params": {
          "newOracleFee": "new fee per second charged to use the oracle."
        }
      },
      "setWeeklyDelayFee((uint256))": {
        "params": {
          "newWeeklyDelayFee": "fee escalation per week of late fee payment."
        }
      }
    },
    "title": "An implementation of Store that can accept Oracle fees in ETH or any arbitrary ERC20 token."
  },
  "userdoc": {
    "methods": {
      "addMember(uint256,address)": {
        "notice": "Adds `newMember` to the shared role, `roleId`."
      },
      "computeFinalFee(address)": {
        "notice": "Computes the final oracle fees that a contract should pay at settlement."
      },
      "computeRegularFee(uint256,uint256,(uint256))": {
        "notice": "Computes the regular oracle fees that a contract should pay for a period."
      },
      "constructor": "Construct the Store contract.",
      "getMember(uint256)": {
        "notice": "Gets the current holder of the exclusive role, `roleId`."
      },
      "holdsRole(uint256,address)": {
        "notice": "Whether `memberToCheck` is a member of roleId."
      },
      "payOracleFees()": {
        "notice": "Pays Oracle fees in ETH to the store."
      },
      "payOracleFeesErc20(address)": {
        "notice": "Pays oracle fees in the margin currency, erc20Address, to the store."
      },
      "removeMember(uint256,address)": {
        "notice": "Removes `memberToRemove` from the shared role, `roleId`."
      },
      "resetMember(uint256,address)": {
        "notice": "Changes the exclusive role holder of `roleId` to `newMember`."
      },
      "setFinalFee(address,(uint256))": {
        "notice": "Sets a new final fee for a particular currency."
      },
      "setFixedOracleFeePerSecond((uint256))": {
        "notice": "Sets a new oracle fee per second."
      },
      "setWeeklyDelayFee((uint256))": {
        "notice": "Sets a new weekly delay fee."
      },
      "withdraw(uint256)": {
        "notice": "Withdraws ETH from the contract."
      },
      "withdrawErc20(address,uint256)": {
        "notice": "Withdraws ERC20 tokens from the contract."
      }
    }
  }
}