{
  "contractName": "Store",
  "abi": [
    {
      "inputs": [
        {
          "components": [
            {
              "internalType": "uint256",
              "name": "rawValue",
              "type": "uint256"
            }
          ],
          "internalType": "struct FixedPoint.Unsigned",
          "name": "_fixedOracleFeePerSecondPerPfc",
          "type": "tuple"
        },
        {
          "components": [
            {
              "internalType": "uint256",
              "name": "rawValue",
              "type": "uint256"
            }
          ],
          "internalType": "struct FixedPoint.Unsigned",
          "name": "_weeklyDelayFeePerSecondPerPfc",
          "type": "tuple"
        },
        {
          "internalType": "address",
          "name": "_timerAddress",
          "type": "address"
        }
      ],
      "stateMutability": "nonpayable",
      "type": "constructor"
    },
    {
      "anonymous": false,
      "inputs": [
        {
          "indexed": true,
          "internalType": "uint256",
          "name": "roleId",
          "type": "uint256"
        },
        {
          "indexed": true,
          "internalType": "address",
          "name": "newMember",
          "type": "address"
        },
        {
          "indexed": true,
          "internalType": "address",
          "name": "manager",
          "type": "address"
        }
      ],
      "name": "AddedSharedMember",
      "type": "event"
    },
    {
      "anonymous": false,
      "inputs": [
        {
          "components": [
            {
              "internalType": "uint256",
              "name": "rawValue",
              "type": "uint256"
            }
          ],
          "indexed": false,
          "internalType": "struct FixedPoint.Unsigned",
          "name": "newFinalFee",
          "type": "tuple"
        }
      ],
      "name": "NewFinalFee",
      "type": "event"
    },
    {
      "anonymous": false,
      "inputs": [
        {
          "components": [
            {
              "internalType": "uint256",
              "name": "rawValue",
              "type": "uint256"
            }
          ],
          "indexed": false,
          "internalType": "struct FixedPoint.Unsigned",
          "name": "newOracleFee",
          "type": "tuple"
        }
      ],
      "name": "NewFixedOracleFeePerSecondPerPfc",
      "type": "event"
    },
    {
      "anonymous": false,
      "inputs": [
        {
          "components": [
            {
              "internalType": "uint256",
              "name": "rawValue",
              "type": "uint256"
            }
          ],
          "indexed": false,
          "internalType": "struct FixedPoint.Unsigned",
          "name": "newWeeklyDelayFeePerSecondPerPfc",
          "type": "tuple"
        }
      ],
      "name": "NewWeeklyDelayFeePerSecondPerPfc",
      "type": "event"
    },
    {
      "anonymous": false,
      "inputs": [
        {
          "indexed": true,
          "internalType": "uint256",
          "name": "roleId",
          "type": "uint256"
        },
        {
          "indexed": true,
          "internalType": "address",
          "name": "oldMember",
          "type": "address"
        },
        {
          "indexed": true,
          "internalType": "address",
          "name": "manager",
          "type": "address"
        }
      ],
      "name": "RemovedSharedMember",
      "type": "event"
    },
    {
      "anonymous": false,
      "inputs": [
        {
          "indexed": true,
          "internalType": "uint256",
          "name": "roleId",
          "type": "uint256"
        },
        {
          "indexed": true,
          "internalType": "address",
          "name": "newMember",
          "type": "address"
        },
        {
          "indexed": true,
          "internalType": "address",
          "name": "manager",
          "type": "address"
        }
      ],
      "name": "ResetExclusiveMember",
      "type": "event"
    },
    {
      "inputs": [],
      "name": "SECONDS_PER_WEEK",
      "outputs": [
        {
          "internalType": "uint256",
          "name": "",
          "type": "uint256"
        }
      ],
      "stateMutability": "view",
      "type": "function"
    },
    {
      "inputs": [
        {
          "internalType": "uint256",
          "name": "roleId",
          "type": "uint256"
        },
        {
          "internalType": "address",
          "name": "newMember",
          "type": "address"
        }
      ],
      "name": "addMember",
      "outputs": [],
      "stateMutability": "nonpayable",
      "type": "function"
    },
    {
      "inputs": [
        {
          "internalType": "address",
          "name": "",
          "type": "address"
        }
      ],
      "name": "finalFees",
      "outputs": [
        {
          "internalType": "uint256",
          "name": "rawValue",
          "type": "uint256"
        }
      ],
      "stateMutability": "view",
      "type": "function"
    },
    {
      "inputs": [],
      "name": "fixedOracleFeePerSecondPerPfc",
      "outputs": [
        {
          "internalType": "uint256",
          "name": "rawValue",
          "type": "uint256"
        }
      ],
      "stateMutability": "view",
      "type": "function"
    },
    {
      "inputs": [],
      "name": "getCurrentTime",
      "outputs": [
        {
          "internalType": "uint256",
          "name": "",
          "type": "uint256"
        }
      ],
      "stateMutability": "view",
      "type": "function"
    },
    {
      "inputs": [
        {
          "internalType": "uint256",
          "name": "roleId",
          "type": "uint256"
        }
      ],
      "name": "getMember",
      "outputs": [
        {
          "internalType": "address",
          "name": "",
          "type": "address"
        }
      ],
      "stateMutability": "view",
      "type": "function"
    },
    {
      "inputs": [
        {
          "internalType": "uint256",
          "name": "roleId",
          "type": "uint256"
        },
        {
          "internalType": "address",
          "name": "memberToCheck",
          "type": "address"
        }
      ],
      "name": "holdsRole",
      "outputs": [
        {
          "internalType": "bool",
          "name": "",
          "type": "bool"
        }
      ],
      "stateMutability": "view",
      "type": "function"
    },
    {
      "inputs": [
        {
          "internalType": "uint256",
          "name": "roleId",
          "type": "uint256"
        },
        {
          "internalType": "address",
          "name": "memberToRemove",
          "type": "address"
        }
      ],
      "name": "removeMember",
      "outputs": [],
      "stateMutability": "nonpayable",
      "type": "function"
    },
    {
      "inputs": [
        {
          "internalType": "uint256",
          "name": "roleId",
          "type": "uint256"
        }
      ],
      "name": "renounceMembership",
      "outputs": [],
      "stateMutability": "nonpayable",
      "type": "function"
    },
    {
      "inputs": [
        {
          "internalType": "uint256",
          "name": "roleId",
          "type": "uint256"
        },
        {
          "internalType": "address",
          "name": "newMember",
          "type": "address"
        }
      ],
      "name": "resetMember",
      "outputs": [],
      "stateMutability": "nonpayable",
      "type": "function"
    },
    {
      "inputs": [
        {
          "internalType": "uint256",
          "name": "time",
          "type": "uint256"
        }
      ],
      "name": "setCurrentTime",
      "outputs": [],
      "stateMutability": "nonpayable",
      "type": "function"
    },
    {
      "inputs": [],
      "name": "timerAddress",
      "outputs": [
        {
          "internalType": "address",
          "name": "",
          "type": "address"
        }
      ],
      "stateMutability": "view",
      "type": "function"
    },
    {
      "inputs": [],
      "name": "weeklyDelayFeePerSecondPerPfc",
      "outputs": [
        {
          "internalType": "uint256",
          "name": "rawValue",
          "type": "uint256"
        }
      ],
      "stateMutability": "view",
      "type": "function"
    },
    {
      "inputs": [
        {
          "internalType": "uint256",
          "name": "amount",
          "type": "uint256"
        }
      ],
      "name": "withdraw",
      "outputs": [],
      "stateMutability": "nonpayable",
      "type": "function"
    },
    {
      "inputs": [
        {
          "internalType": "address",
          "name": "erc20Address",
          "type": "address"
        },
        {
          "internalType": "uint256",
          "name": "amount",
          "type": "uint256"
        }
      ],
      "name": "withdrawErc20",
      "outputs": [],
      "stateMutability": "nonpayable",
      "type": "function"
    },
    {
      "inputs": [],
      "name": "payOracleFees",
      "outputs": [],
      "stateMutability": "payable",
      "type": "function"
    },
    {
      "inputs": [
        {
          "internalType": "address",
          "name": "erc20Address",
          "type": "address"
        },
        {
          "components": [
            {
              "internalType": "uint256",
              "name": "rawValue",
              "type": "uint256"
            }
          ],
          "internalType": "struct FixedPoint.Unsigned",
          "name": "amount",
          "type": "tuple"
        }
      ],
      "name": "payOracleFeesErc20",
      "outputs": [],
      "stateMutability": "nonpayable",
      "type": "function"
    },
    {
      "inputs": [
        {
          "internalType": "uint256",
          "name": "startTime",
          "type": "uint256"
        },
        {
          "internalType": "uint256",
          "name": "endTime",
          "type": "uint256"
        },
        {
          "components": [
            {
              "internalType": "uint256",
              "name": "rawValue",
              "type": "uint256"
            }
          ],
          "internalType": "struct FixedPoint.Unsigned",
          "name": "pfc",
          "type": "tuple"
        }
      ],
      "name": "computeRegularFee",
      "outputs": [
        {
          "components": [
            {
              "internalType": "uint256",
              "name": "rawValue",
              "type": "uint256"
            }
          ],
          "internalType": "struct FixedPoint.Unsigned",
          "name": "regularFee",
          "type": "tuple"
        },
        {
          "components": [
            {
              "internalType": "uint256",
              "name": "rawValue",
              "type": "uint256"
            }
          ],
          "internalType": "struct FixedPoint.Unsigned",
          "name": "latePenalty",
          "type": "tuple"
        }
      ],
      "stateMutability": "view",
      "type": "function"
    },
    {
      "inputs": [
        {
          "internalType": "address",
          "name": "currency",
          "type": "address"
        }
      ],
      "name": "computeFinalFee",
      "outputs": [
        {
          "components": [
            {
              "internalType": "uint256",
              "name": "rawValue",
              "type": "uint256"
            }
          ],
          "internalType": "struct FixedPoint.Unsigned",
          "name": "",
          "type": "tuple"
        }
      ],
      "stateMutability": "view",
      "type": "function"
    },
    {
      "inputs": [
        {
          "components": [
            {
              "internalType": "uint256",
              "name": "rawValue",
              "type": "uint256"
            }
          ],
          "internalType": "struct FixedPoint.Unsigned",
          "name": "newFixedOracleFeePerSecondPerPfc",
          "type": "tuple"
        }
      ],
      "name": "setFixedOracleFeePerSecondPerPfc",
      "outputs": [],
      "stateMutability": "nonpayable",
      "type": "function"
    },
    {
      "inputs": [
        {
          "components": [
            {
              "internalType": "uint256",
              "name": "rawValue",
              "type": "uint256"
            }
          ],
          "internalType": "struct FixedPoint.Unsigned",
          "name": "newWeeklyDelayFeePerSecondPerPfc",
          "type": "tuple"
        }
      ],
      "name": "setWeeklyDelayFeePerSecondPerPfc",
      "outputs": [],
      "stateMutability": "nonpayable",
      "type": "function"
    },
    {
      "inputs": [
        {
          "internalType": "address",
          "name": "currency",
          "type": "address"
        },
        {
          "components": [
            {
              "internalType": "uint256",
              "name": "rawValue",
              "type": "uint256"
            }
          ],
          "internalType": "struct FixedPoint.Unsigned",
          "name": "newFinalFee",
          "type": "tuple"
        }
      ],
      "name": "setFinalFee",
      "outputs": [],
      "stateMutability": "nonpayable",
      "type": "function"
    }
  ],
  "bytecode": "0x60806040523480156200001157600080fd5b50604051620027693803806200276983398101604081905262000034916200052f565b600280546001600160a01b0319166001600160a01b03831617905562000066600080336001600160e01b03620000af16565b6200007e60016000336001600160e01b036200018216565b62000092836001600160e01b03620001a216565b620000a6826001600160e01b036200025416565b50505062000783565b826000808281526020819052604090206001015460ff166002811115620000d257fe5b14620000fb5760405162461bcd60e51b8152600401620000f290620006d7565b60405180910390fd5b60008481526020819052604090206001808201805460ff191682800217905550838155620001396002820184620002fb602090811b62001f9617901c565b60008481526020819052604081206001015460ff1660028111156200015a57fe5b14156200017b5760405162461bcd60e51b8152600401620000f29062000639565b5050505050565b60018390556200019d8383836001600160e01b03620000af16565b505050565b6000620001b981336001600160e01b036200031416565b620001d85760405162461bcd60e51b8152600401620000f290620005f7565b620001f3600183620003be60201b6200140a1790919060201c565b620002125760405162461bcd60e51b8152600401620000f29062000589565b81516003556040517e41cf46cedaae9927def5c0647b190fd958c8ab8cde4219dad74319bc05d3d9906200024890849062000779565b60405180910390a15050565b60006200026b81336001600160e01b036200031416565b6200028a5760405162461bcd60e51b8152600401620000f290620005f7565b620002a5600183620003be60201b6200140a1790919060201c565b620002c45760405162461bcd60e51b8152600401620000f290620005c0565b81516004556040517f2e6cd3e6f7808568620c647ac0e652b0e95bef2494692adbc118fbbd02a8e82e906200024890849062000779565b6200031082826001600160e01b03620003e016565b5050565b600082815260208190526040812060018082015460ff1660028111156200033757fe5b141562000364576200035b83826002016200042660201b620012ea1790919060201c565b915050620003b8565b6002600182015460ff1660028111156200037a57fe5b14156200039e576200035b83826003016200043960201b6200130a1790919060201c565b60405162461bcd60e51b8152600401620000f29062000751565b92915050565b6000620003d4826001600160e01b036200045816565b51835110905092915050565b6001600160a01b038116620004095760405162461bcd60e51b8152600401620000f2906200070e565b81546001600160a01b0319166001600160a01b0391909116179055565b90546001600160a01b0391821691161490565b6001600160a01b03166000908152602091909152604090205460ff1690565b62000462620004de565b60405180602001604052806200048f670de0b6b3a7640000856200049760201b620015151790919060201c565b905292915050565b600082620004a857506000620003b8565b82820282848281620004b657fe5b0414620004d75760405162461bcd60e51b8152600401620000f29062000696565b9392505050565b6040518060200160405280600081525090565b60006020828403121562000503578081fd5b604051602081016001600160401b038111828210171562000522578283fd5b6040529151825250919050565b60008060006060848603121562000544578283fd5b620005508585620004f1565b9250620005618560208601620004f1565b60408501519092506001600160a01b03811681146200057e578182fd5b809150509250925092565b6020808252601e908201527f466565206d757374206265203c203130302520706572207365636f6e642e0000604082015260600190565b6020808252601f908201527f7765656b6c792064656c617920666565206d757374206265203c203130302500604082015260600190565b60208082526022908201527f53656e64657220646f6573206e6f7420686f6c6420726571756972656420726f6040820152616c6560f01b606082015260800190565b6020808252603c908201527f417474656d7074656420746f2075736520616e20696e76616c696420726f6c6560408201527f20746f206d616e61676520616e206578636c757369766520726f6c6500000000606082015260800190565b60208082526021908201527f536166654d6174683a206d756c7469706c69636174696f6e206f766572666c6f6040820152607760f81b606082015260800190565b6020808252601e908201527f43616e6e6f74207573652061207072652d6578697374696e6720726f6c650000604082015260600190565b60208082526023908201527f43616e6e6f742073657420616e206578636c757369766520726f6c6520746f2060408201526203078360ec1b606082015260800190565b6020808252600e908201526d125b9d985b1a59081c9bdb19525960921b604082015260600190565b9051815260200190565b611fd680620007936000396000f3fe6080604052600436106101755760003560e01c80637d69dfdb116100cb578063ab3545e51161007f578063bd1f4b5211610059578063bd1f4b52146103f0578063cd3a9b2414610410578063d97c05be1461041857610175565b8063ab3545e514610390578063acb6f6cb146103b0578063b187487d146103d057610175565b806384ae2a74116100b057806384ae2a741461033b5780638659d23214610350578063aaa14ca31461037057610175565b80637d69dfdb146103065780637e7e591d1461031b57610175565b80635b97aadd1161012d57806374201feb1161010757806374201feb1461028b57806374d0a676146102b95780637cdc1cb9146102d957610175565b80635b97aadd1461021e5780636be7658b1461024b5780636f356f4a1461026b57610175565b806329cb924d1161015e57806329cb924d146101c75780632e1a7d4d146101e95780632fee20981461020957610175565b80631c39c38d1461017a57806322f8e566146101a5575b600080fd5b34801561018657600080fd5b5061018f610438565b60405161019c919061199e565b60405180910390f35b3480156101b157600080fd5b506101c56101c03660046118fa565b610454565b005b3480156101d357600080fd5b506101dc610501565b60405161019c9190611f61565b3480156101f557600080fd5b506101c56102043660046118fa565b6105cf565b34801561021557600080fd5b506101dc610629565b34801561022a57600080fd5b5061023e610239366004611802565b61062f565b60405161019c9190611f47565b34801561025757600080fd5b506101c561026636600461192a565b61066f565b34801561027757600080fd5b506101dc610286366004611802565b610786565b34801561029757600080fd5b506102ab6102a636600461194d565b610798565b60405161019c929190611f51565b3480156102c557600080fd5b506101c56102d436600461192a565b61087a565b3480156102e557600080fd5b506102f96102f436600461192a565b610991565b60405161019c9190611a16565b34801561031257600080fd5b506101dc610a3a565b34801561032757600080fd5b506101c561033636600461186a565b610a40565b34801561034757600080fd5b506101dc610ae8565b34801561035c57600080fd5b506101c561036b36600461181d565b610aef565b34801561037c57600080fd5b506101c561038b3660046118fa565b610b74565b34801561039c57600080fd5b5061018f6103ab3660046118fa565b610c64565b3480156103bc57600080fd5b506101c56103cb3660046118df565b610ce1565b3480156103dc57600080fd5b506101c56103eb3660046118df565b610daa565b3480156103fc57600080fd5b506101c561040b366004611895565b610e68565b6101c5610ed9565b34801561042457600080fd5b506101c561043336600461192a565b610f15565b60025473ffffffffffffffffffffffffffffffffffffffff1681565b60025473ffffffffffffffffffffffffffffffffffffffff1661047657600080fd5b6002546040517f22f8e56600000000000000000000000000000000000000000000000000000000815273ffffffffffffffffffffffffffffffffffffffff909116906322f8e566906104cc908490600401611f61565b600060405180830381600087803b1580156104e657600080fd5b505af11580156104fa573d6000803e3d6000fd5b5050505050565b60025460009073ffffffffffffffffffffffffffffffffffffffff16156105c957600260009054906101000a900473ffffffffffffffffffffffffffffffffffffffff1673ffffffffffffffffffffffffffffffffffffffff166329cb924d6040518163ffffffff1660e01b815260040160206040518083038186803b15801561058a57600080fd5b505afa15801561059e573d6000803e3d6000fd5b505050506040513d601f19601f820116820180604052508101906105c29190611912565b90506105cc565b50425b90565b6001546105dc8133610991565b61061b576040517f08c379a000000000000000000000000000000000000000000000000000000000815260040161061290611c9a565b60405180910390fd5b610625338361102c565b5050565b60035481565b610637611777565b5073ffffffffffffffffffffffffffffffffffffffff1660009081526005602090815260409182902082519182019092529054815290565b81600260008281526020819052604090206001015460ff16600281111561069257fe5b146106c9576040517f08c379a000000000000000000000000000000000000000000000000000000000815260040161061290611c3d565b60008381526020819052604090205483906106e49033610991565b61071a576040517f08c379a000000000000000000000000000000000000000000000000000000000815260040161061290611db1565b600084815260208190526040902061073b906003018463ffffffff61110916565b604051339073ffffffffffffffffffffffffffffffffffffffff85169086907feb3e33034c392e69263b04ec0fa376dc12784a41b6676c7f31b936cbc0fbb5af90600090a450505050565b60056020526000908152604090205481565b6107a0611777565b6107a8611777565b60006107ba858763ffffffff61115616565b604080516020810190915260035481529091506107fc906107f0836107e4368990038901896118df565b9063ffffffff61119816565b9063ffffffff6111c816565b925060006108188761080c610501565b9063ffffffff61115616565b9050610822611777565b6108546108388362093a8063ffffffff61120b16565b604080516020810190915260045481529063ffffffff61119816565b905061086d816107f0856107e4368b90038b018b6118df565b9350505050935093915050565b81600260008281526020819052604090206001015460ff16600281111561089d57fe5b146108d4576040517f08c379a000000000000000000000000000000000000000000000000000000000815260040161061290611c3d565b60008381526020819052604090205483906108ef9033610991565b610925576040517f08c379a000000000000000000000000000000000000000000000000000000000815260040161061290611db1565b6000848152602081905260409020610946906003018463ffffffff61124d16565b604051339073ffffffffffffffffffffffffffffffffffffffff85169086907f63502af7324ff6db91ab38f8236a648727d9385ea6c782073dd4882d8a61a48f90600090a450505050565b600082815260208190526040812060018082015460ff1660028111156109b357fe5b14156109d4576109cc600282018463ffffffff6112ea16565b915050610a34565b6002600182015460ff1660028111156109e957fe5b1415610a02576109cc600382018463ffffffff61130a16565b6040517f08c379a000000000000000000000000000000000000000000000000000000000815260040161061290611e0e565b92915050565b60045481565b6000610a4c8133610991565b610a82576040517f08c379a000000000000000000000000000000000000000000000000000000000815260040161061290611c9a565b73ffffffffffffffffffffffffffffffffffffffff83166000908152600560205260409081902083519055517f98c807f575ae6584ff8200eaf3205f3f20abf9c954fff030c152f5e7c5446d6e90610adb908490611f47565b60405180910390a1505050565b62093a8081565b81610b106000610b04368590038501856118df565b9063ffffffff61133616565b610b46576040517f08c379a000000000000000000000000000000000000000000000000000000000815260040161061290611ea2565b610b6f73ffffffffffffffffffffffffffffffffffffffff82163330853563ffffffff61134d16565b505050565b80600260008281526020819052604090206001015460ff166002811115610b9757fe5b14610bce576040517f08c379a000000000000000000000000000000000000000000000000000000000815260040161061290611c3d565b81610bd98133610991565b610c0f576040517f08c379a000000000000000000000000000000000000000000000000000000000815260040161061290611c9a565b6000838152602081905260409020610c30906003013363ffffffff61110916565b6040513390819085907feb3e33034c392e69263b04ec0fa376dc12784a41b6676c7f31b936cbc0fbb5af90600090a4505050565b600081600160008281526020819052604090206001015460ff166002811115610c8957fe5b14610cc0576040517f08c379a000000000000000000000000000000000000000000000000000000000815260040161061290611b17565b6000838152602081905260409020610cda906002016113f0565b9392505050565b6000610ced8133610991565b610d23576040517f08c379a000000000000000000000000000000000000000000000000000000000815260040161061290611c9a565b610d3482600163ffffffff61140a16565b610d6a576040517f08c379a000000000000000000000000000000000000000000000000000000000815260040161061290611aa9565b81516003556040517e41cf46cedaae9927def5c0647b190fd958c8ab8cde4219dad74319bc05d3d990610d9e908490611f47565b60405180910390a15050565b6000610db68133610991565b610dec576040517f08c379a000000000000000000000000000000000000000000000000000000000815260040161061290611c9a565b610dfd82600163ffffffff61140a16565b610e33576040517f08c379a000000000000000000000000000000000000000000000000000000000815260040161061290611ae0565b81516004556040517f2e6cd3e6f7808568620c647ac0e652b0e95bef2494692adbc118fbbd02a8e82e90610d9e908490611f47565b600154610e758133610991565b610eab576040517f08c379a000000000000000000000000000000000000000000000000000000000815260040161061290611c9a565b82610ed373ffffffffffffffffffffffffffffffffffffffff8216338563ffffffff61142116565b50505050565b60003411610f13576040517f08c379a000000000000000000000000000000000000000000000000000000000815260040161061290611f10565b565b81600160008281526020819052604090206001015460ff166002811115610f3857fe5b14610f6f576040517f08c379a000000000000000000000000000000000000000000000000000000000815260040161061290611b17565b6000838152602081905260409020548390610f8a9033610991565b610fc0576040517f08c379a000000000000000000000000000000000000000000000000000000000815260040161061290611db1565b6000848152602081905260409020610fe1906002018463ffffffff61144016565b604051339073ffffffffffffffffffffffffffffffffffffffff85169086907f3b855c56b409b671c7112789d022675eb639d0bcb8896f1b6197c132f799e74690600090a450505050565b80471015611066576040517f08c379a000000000000000000000000000000000000000000000000000000000815260040161061290611c06565b60008273ffffffffffffffffffffffffffffffffffffffff168260405161108c906105cc565b60006040518083038185875af1925050503d80600081146110c9576040519150601f19603f3d011682016040523d82523d6000602084013e6110ce565b606091505b5050905080610b6f576040517f08c379a000000000000000000000000000000000000000000000000000000000815260040161061290611ba9565b73ffffffffffffffffffffffffffffffffffffffff1660009081526020919091526040902080547fffffffffffffffffffffffffffffffffffffffffffffffffffffffffffffff00169055565b6000610cda83836040518060400160405280601e81526020017f536166654d6174683a207375627472616374696f6e206f766572666c6f7700008152506114cf565b6111a0611777565b6040805160208101909152835181906111bf908563ffffffff61151516565b90529392505050565b6111d0611777565b6040805160208101909152825184518291670de0b6b3a7640000916111fa9163ffffffff61151516565b8161120157fe5b0490529392505050565b6000610cda83836040518060400160405280601a81526020017f536166654d6174683a206469766973696f6e206279207a65726f000000000000815250611569565b73ffffffffffffffffffffffffffffffffffffffff811661129a576040517f08c379a000000000000000000000000000000000000000000000000000000000815260040161061290611a72565b73ffffffffffffffffffffffffffffffffffffffff1660009081526020919091526040902080547fffffffffffffffffffffffffffffffffffffffffffffffffffffffffffffff00166001179055565b905473ffffffffffffffffffffffffffffffffffffffff91821691161490565b73ffffffffffffffffffffffffffffffffffffffff166000908152602091909152604090205460ff1690565b6000611341826115ba565b51835111905092915050565b610ed3846323b872dd60e01b85858560405160240161136e939291906119bf565b604080517fffffffffffffffffffffffffffffffffffffffffffffffffffffffffffffffe08184030181529190526020810180517bffffffffffffffffffffffffffffffffffffffffffffffffffffffff167fffffffff00000000000000000000000000000000000000000000000000000000909316929092179091526115ee565b5473ffffffffffffffffffffffffffffffffffffffff1690565b6000611415826115ba565b51835110905092915050565b610b6f8363a9059cbb60e01b848460405160240161136e9291906119f0565b73ffffffffffffffffffffffffffffffffffffffff811661148d576040517f08c379a000000000000000000000000000000000000000000000000000000000815260040161061290611d54565b81547fffffffffffffffffffffffff00000000000000000000000000000000000000001673ffffffffffffffffffffffffffffffffffffffff91909116179055565b6000818484111561150d576040517f08c379a00000000000000000000000000000000000000000000000000000000081526004016106129190611a21565b505050900390565b60008261152457506000610a34565b8282028284828161153157fe5b0414610cda576040517f08c379a000000000000000000000000000000000000000000000000000000000815260040161061290611cf7565b600081836115a4576040517f08c379a00000000000000000000000000000000000000000000000000000000081526004016106129190611a21565b5060008385816115b057fe5b0495945050505050565b6115c2611777565b6040805160208101909152806115e684670de0b6b3a764000063ffffffff61151516565b905292915050565b61160d8273ffffffffffffffffffffffffffffffffffffffff1661173b565b611643576040517f08c379a000000000000000000000000000000000000000000000000000000000815260040161061290611ed9565b600060608373ffffffffffffffffffffffffffffffffffffffff168360405161166c9190611982565b6000604051808303816000865af19150503d80600081146116a9576040519150601f19603f3d011682016040523d82523d6000602084013e6116ae565b606091505b5091509150816116ea576040517f08c379a000000000000000000000000000000000000000000000000000000000815260040161061290611b74565b805115610ed3578080602001905181019061170591906118bf565b610ed3576040517f08c379a000000000000000000000000000000000000000000000000000000000815260040161061290611e45565b6000813f7fc5d2460186f7233c927e7db2dcc703c0e500b653ca82273b7bfad8045d85a47081811480159061176f57508115155b949350505050565b6040518060200160405280600081525090565b803573ffffffffffffffffffffffffffffffffffffffff81168114610a3457600080fd5b6000602082840312156117bf578081fd5b50919050565b6000602082840312156117d6578081fd5b6040516020810181811067ffffffffffffffff821117156117f5578283fd5b6040529135825250919050565b600060208284031215611813578081fd5b610cda838361178a565b6000806040838503121561182f578081fd5b823573ffffffffffffffffffffffffffffffffffffffff81168114611852578182fd5b915061186184602085016117ae565b90509250929050565b6000806040838503121561187c578182fd5b611886848461178a565b915061186184602085016117c5565b600080604083850312156118a7578182fd5b6118b1848461178a565b946020939093013593505050565b6000602082840312156118d0578081fd5b81518015158114610cda578182fd5b6000602082840312156118f0578081fd5b610cda83836117c5565b60006020828403121561190b578081fd5b5035919050565b600060208284031215611923578081fd5b5051919050565b6000806040838503121561193c578182fd5b82359150611861846020850161178a565b600080600060608486031215611961578081fd5b833592506020840135915061197985604086016117ae565b90509250925092565b60008251611994818460208701611f6a565b9190910192915050565b73ffffffffffffffffffffffffffffffffffffffff91909116815260200190565b73ffffffffffffffffffffffffffffffffffffffff9384168152919092166020820152604081019190915260600190565b73ffffffffffffffffffffffffffffffffffffffff929092168252602082015260400190565b901515815260200190565b6000602082528251806020840152611a40816040850160208701611f6a565b601f017fffffffffffffffffffffffffffffffffffffffffffffffffffffffffffffffe0169190910160400192915050565b6020808252601f908201527f43616e6e6f74206164642030783020746f20612073686172656420726f6c6500604082015260600190565b6020808252601e908201527f466565206d757374206265203c203130302520706572207365636f6e642e0000604082015260600190565b6020808252601f908201527f7765656b6c792064656c617920666565206d757374206265203c203130302500604082015260600190565b6020808252602f908201527f4d7573742062652063616c6c6564206f6e20616e20696e697469616c697a656460408201527f204578636c757369766520726f6c650000000000000000000000000000000000606082015260800190565b6020808252818101527f5361666545524332303a206c6f772d6c6576656c2063616c6c206661696c6564604082015260600190565b6020808252603a908201527f416464726573733a20756e61626c6520746f2073656e642076616c75652c207260408201527f6563697069656e74206d61792068617665207265766572746564000000000000606082015260800190565b6020808252601d908201527f416464726573733a20696e73756666696369656e742062616c616e6365000000604082015260600190565b6020808252602c908201527f4d7573742062652063616c6c6564206f6e20616e20696e697469616c697a656460408201527f2053686172656420726f6c650000000000000000000000000000000000000000606082015260800190565b60208082526022908201527f53656e64657220646f6573206e6f7420686f6c6420726571756972656420726f60408201527f6c65000000000000000000000000000000000000000000000000000000000000606082015260800190565b60208082526021908201527f536166654d6174683a206d756c7469706c69636174696f6e206f766572666c6f60408201527f7700000000000000000000000000000000000000000000000000000000000000606082015260800190565b60208082526023908201527f43616e6e6f742073657420616e206578636c757369766520726f6c6520746f2060408201527f3078300000000000000000000000000000000000000000000000000000000000606082015260800190565b60208082526024908201527f43616e206f6e6c792062652063616c6c6564206279206120726f6c65206d616e60408201527f6167657200000000000000000000000000000000000000000000000000000000606082015260800190565b6020808252600e908201527f496e76616c696420726f6c654964000000000000000000000000000000000000604082015260600190565b6020808252602a908201527f5361666545524332303a204552433230206f7065726174696f6e20646964206e60408201527f6f74207375636365656400000000000000000000000000000000000000000000606082015260800190565b60208082526019908201527f416d6f756e742073656e742063616e2774206265207a65726f00000000000000604082015260600190565b6020808252601f908201527f5361666545524332303a2063616c6c20746f206e6f6e2d636f6e747261637400604082015260600190565b60208082526018908201527f56616c75652073656e742063616e2774206265207a65726f0000000000000000604082015260600190565b9051815260200190565b9151825251602082015260400190565b90815260200190565b60005b83811015611f85578181015183820152602001611f6d565b83811115610ed35750506000910152565b610625828261144056fea2646970667358221220ae5b4e456589bf21e3aac5e0dd976fd62396ecea194aa71dfa998eaf89cb37de64736f6c63430006040033",
  "source": "pragma solidity ^0.6.0;\npragma experimental ABIEncoderV2;\n\nimport \"@openzeppelin/contracts/math/SafeMath.sol\";\nimport \"@openzeppelin/contracts/token/ERC20/IERC20.sol\";\nimport \"@openzeppelin/contracts/token/ERC20/SafeERC20.sol\";\nimport \"../../common/implementation/FixedPoint.sol\";\nimport \"../../common/implementation/MultiRole.sol\";\nimport \"../../common/implementation/Withdrawable.sol\";\nimport \"../../common/implementation/Testable.sol\";\nimport \"../interfaces/StoreInterface.sol\";\n\n\n/**\n * @title An implementation of Store that can accept Oracle fees in ETH or any arbitrary ERC20 token.\n */\ncontract Store is StoreInterface, Withdrawable, Testable {\n    using SafeMath for uint256;\n    using FixedPoint for FixedPoint.Unsigned;\n    using FixedPoint for uint256;\n    using SafeERC20 for IERC20;\n\n    /****************************************\n     *    INTERNAL VARIABLES AND STORAGE    *\n     ****************************************/\n\n    enum Roles { Owner, Withdrawer }\n\n    FixedPoint.Unsigned public fixedOracleFeePerSecondPerPfc; // Percentage of 1 E.g., .1 is 10% Oracle fee.\n    FixedPoint.Unsigned public weeklyDelayFeePerSecondPerPfc; // Percentage of 1 E.g., .1 is 10% weekly delay fee.\n\n    mapping(address => FixedPoint.Unsigned) public finalFees;\n    uint256 public constant SECONDS_PER_WEEK = 604800;\n\n    /****************************************\n     *                EVENTS                *\n     ****************************************/\n\n    event NewFixedOracleFeePerSecondPerPfc(FixedPoint.Unsigned newOracleFee);\n    event NewWeeklyDelayFeePerSecondPerPfc(FixedPoint.Unsigned newWeeklyDelayFeePerSecondPerPfc);\n    event NewFinalFee(FixedPoint.Unsigned newFinalFee);\n\n    /**\n     * @notice Construct the Store contract.\n     */\n    constructor(\n        FixedPoint.Unsigned memory _fixedOracleFeePerSecondPerPfc,\n        FixedPoint.Unsigned memory _weeklyDelayFeePerSecondPerPfc,\n        address _timerAddress\n    ) public Testable(_timerAddress) {\n        _createExclusiveRole(uint256(Roles.Owner), uint256(Roles.Owner), msg.sender);\n        _createWithdrawRole(uint256(Roles.Withdrawer), uint256(Roles.Owner), msg.sender);\n        setFixedOracleFeePerSecondPerPfc(_fixedOracleFeePerSecondPerPfc);\n        setWeeklyDelayFeePerSecondPerPfc(_weeklyDelayFeePerSecondPerPfc);\n    }\n\n    /****************************************\n     *  ORACLE FEE CALCULATION AND PAYMENT  *\n     ****************************************/\n\n    /**\n     * @notice Pays Oracle fees in ETH to the store.\n     * @dev To be used by contracts whose margin currency is ETH.\n     */\n    function payOracleFees() external override payable {\n        require(msg.value > 0, \"Value sent can't be zero\");\n    }\n\n    /**\n     * @notice Pays oracle fees in the margin currency, erc20Address, to the store.\n     * @dev To be used if the margin currency is an ERC20 token rather than ETH.\n     * @param erc20Address address of the ERC20 token used to pay the fee.\n     * @param amount number of tokens to transfer. An approval for at least this amount must exist.\n     */\n    function payOracleFeesErc20(address erc20Address, FixedPoint.Unsigned calldata amount) external override {\n        IERC20 erc20 = IERC20(erc20Address);\n        require(amount.isGreaterThan(0), \"Amount sent can't be zero\");\n        erc20.safeTransferFrom(msg.sender, address(this), amount.rawValue);\n    }\n\n    /**\n     * @notice Computes the regular oracle fees that a contract should pay for a period.\n     * @dev The late penalty is similar to the regular fee in that is is charged per second over the period between\n     * startTime and endTime.\n     *\n     * The late penalty percentage increases over time as follows:\n     *\n     * - 0-1 week since startTime: no late penalty\n     *\n     * - 1-2 weeks since startTime: 1x late penalty percentage is applied\n     *\n     * - 2-3 weeks since startTime: 2x late penalty percentage is applied\n     *\n     * - ...\n     *\n     * @param startTime defines the beginning time from which the fee is paid.\n     * @param endTime end time until which the fee is paid.\n     * @param pfc \"profit from corruption\", or the maximum amount of margin currency that a\n     * token sponsor could extract from the contract through corrupting the price feed in their favor.\n     * @return regularFee amount owed for the duration from start to end time for the given pfc.\n     * @return latePenalty penalty percentage, if any, for paying the fee after the deadline.\n     */\n    function computeRegularFee(\n        uint256 startTime,\n        uint256 endTime,\n        FixedPoint.Unsigned calldata pfc\n    ) external override view returns (FixedPoint.Unsigned memory regularFee, FixedPoint.Unsigned memory latePenalty) {\n        uint256 timeDiff = endTime.sub(startTime);\n\n        // Multiply by the unscaled `timeDiff` first, to get more accurate results.\n        regularFee = pfc.mul(timeDiff).mul(fixedOracleFeePerSecondPerPfc);\n\n        // Compute how long ago the start time was to compute the delay penalty.\n        uint256 paymentDelay = getCurrentTime().sub(startTime);\n\n        // Compute the additional percentage (per second) that will be charged because of the penalty.\n        // Note: if less than a week has gone by since the startTime, paymentDelay / SECONDS_PER_WEEK will truncate to\n        // 0, causing no penalty to be charged.\n        FixedPoint.Unsigned memory penaltyPercentagePerSecond = weeklyDelayFeePerSecondPerPfc.mul(\n            paymentDelay.div(SECONDS_PER_WEEK)\n        );\n\n        // Apply the penaltyPercentagePerSecond to the payment period.\n        latePenalty = pfc.mul(timeDiff).mul(penaltyPercentagePerSecond);\n    }\n\n    /**\n     * @notice Computes the final oracle fees that a contract should pay at settlement.\n     * @param currency token used to pay the final fee.\n     * @return finalFee amount due denominated in units of `currency`.\n     */\n    function computeFinalFee(address currency) external override view returns (FixedPoint.Unsigned memory) {\n        return finalFees[currency];\n    }\n\n    /****************************************\n     *   ADMIN STATE MODIFYING FUNCTIONS    *\n     ****************************************/\n\n    /**\n     * @notice Sets a new oracle fee per second.\n     * @param newFixedOracleFeePerSecondPerPfc new fee per second charged to use the oracle.\n     */\n    function setFixedOracleFeePerSecondPerPfc(FixedPoint.Unsigned memory newFixedOracleFeePerSecondPerPfc)\n        public\n        onlyRoleHolder(uint256(Roles.Owner))\n    {\n        // Oracle fees at or over 100% don't make sense.\n        require(newFixedOracleFeePerSecondPerPfc.isLessThan(1), \"Fee must be < 100% per second.\");\n        fixedOracleFeePerSecondPerPfc = newFixedOracleFeePerSecondPerPfc;\n        emit NewFixedOracleFeePerSecondPerPfc(newFixedOracleFeePerSecondPerPfc);\n    }\n\n    /**\n     * @notice Sets a new weekly delay fee.\n     * @param newWeeklyDelayFeePerSecondPerPfc fee escalation per week of late fee payment.\n     */\n    function setWeeklyDelayFeePerSecondPerPfc(FixedPoint.Unsigned memory newWeeklyDelayFeePerSecondPerPfc)\n        public\n        onlyRoleHolder(uint256(Roles.Owner))\n    {\n        require(newWeeklyDelayFeePerSecondPerPfc.isLessThan(1), \"weekly delay fee must be < 100%\");\n        weeklyDelayFeePerSecondPerPfc = newWeeklyDelayFeePerSecondPerPfc;\n        emit NewWeeklyDelayFeePerSecondPerPfc(newWeeklyDelayFeePerSecondPerPfc);\n    }\n\n    /**\n     * @notice Sets a new final fee for a particular currency.\n     * @param currency defines the token currency used to pay the final fee.\n     * @param newFinalFee final fee amount.\n     */\n    function setFinalFee(address currency, FixedPoint.Unsigned memory newFinalFee)\n        public\n        onlyRoleHolder(uint256(Roles.Owner))\n    {\n        finalFees[currency] = newFinalFee;\n        emit NewFinalFee(newFinalFee);\n    }\n}\n",
  "sourcePath": "/home/alessandrovm/JarvisLavoro/SynFiat/packages/contracts/contracts/uma-contracts/oracle/implementation/Store.sol",
  "compiler": {
    "name": "solc",
    "version": "0.6.4+commit.1dca32f3.Emscripten.clang"
  },
  "schemaVersion": "3.2.0",
  "updatedAt": "2020-09-17T18:56:02.169Z",
  "devdoc": {
    "methods": {
      "addMember(uint256,address)": {
        "details": "Reverts if `roleId` does not represent an initialized, SharedRole or if the caller is not a member of the managing role for `roleId`.",
        "params": {
          "newMember": "the new SharedRole member.",
          "roleId": "the SharedRole membership to modify."
        }
      },
      "computeFinalFee(address)": {
        "params": {
          "currency": "token used to pay the final fee."
        },
        "returns": {
          "_0": "finalFee amount due denominated in units of `currency`."
        }
      },
      "computeRegularFee(uint256,uint256,(uint256))": {
        "details": "The late penalty is similar to the regular fee in that is is charged per second over the period between startTime and endTime.     * The late penalty percentage increases over time as follows:     * - 0-1 week since startTime: no late penalty     * - 1-2 weeks since startTime: 1x late penalty percentage is applied     * - 2-3 weeks since startTime: 2x late penalty percentage is applied     * - ...",
        "params": {
          "endTime": "end time until which the fee is paid.",
          "pfc": "\"profit from corruption\", or the maximum amount of margin currency that a token sponsor could extract from the contract through corrupting the price feed in their favor.",
          "startTime": "defines the beginning time from which the fee is paid."
        },
        "returns": {
          "latePenalty": "penalty percentage, if any, for paying the fee after the deadline.",
          "regularFee": "amount owed for the duration from start to end time for the given pfc."
        }
      },
      "getMember(uint256)": {
        "details": "Reverts if `roleId` does not represent an initialized, exclusive role.",
        "params": {
          "roleId": "the ExclusiveRole membership to check."
        },
        "returns": {
          "_0": "the address of the current ExclusiveRole member."
        }
      },
      "holdsRole(uint256,address)": {
        "details": "Reverts if roleId does not correspond to an initialized role.",
        "params": {
          "memberToCheck": "the address to check.",
          "roleId": "the Role to check."
        },
        "returns": {
          "_0": "True if `memberToCheck` is a member of `roleId`."
        }
      },
      "payOracleFees()": {
        "details": "To be used by contracts whose margin currency is ETH."
      },
      "payOracleFeesErc20(address,(uint256))": {
        "details": "To be used if the margin currency is an ERC20 token rather than ETH.",
        "params": {
          "amount": "number of tokens to transfer. An approval for at least this amount must exist.",
          "erc20Address": "address of the ERC20 token used to pay the fee."
        }
      },
      "removeMember(uint256,address)": {
        "details": "Reverts if `roleId` does not represent an initialized, SharedRole or if the caller is not a member of the managing role for `roleId`.",
        "params": {
          "memberToRemove": "the current SharedRole member to remove.",
          "roleId": "the SharedRole membership to modify."
        }
      },
      "renounceMembership(uint256)": {
        "details": "Reverts if the caller is not a member of the role for `roleId` or if `roleId` is not an initialized, SharedRole.",
        "params": {
          "roleId": "the SharedRole membership to modify."
        }
      },
      "resetMember(uint256,address)": {
        "details": "Reverts if the caller is not a member of the managing role for `roleId` or if `roleId` is not an initialized, ExclusiveRole.",
        "params": {
          "newMember": "the new ExclusiveRole member.",
          "roleId": "the ExclusiveRole membership to modify."
        }
      },
      "setCurrentTime(uint256)": {
        "details": "Will revert if not running in test mode.",
        "params": {
          "time": "timestamp to set current Testable time to."
        }
      },
      "setFinalFee(address,(uint256))": {
        "params": {
          "currency": "defines the token currency used to pay the final fee.",
          "newFinalFee": "final fee amount."
        }
      },
      "setFixedOracleFeePerSecondPerPfc((uint256))": {
        "params": {
          "newFixedOracleFeePerSecondPerPfc": "new fee per second charged to use the oracle."
        }
      },
      "setWeeklyDelayFeePerSecondPerPfc((uint256))": {
        "params": {
          "newWeeklyDelayFeePerSecondPerPfc": "fee escalation per week of late fee payment."
        }
      },
      "withdrawErc20(address,uint256)": {
        "params": {
          "amount": "amount of tokens to withdraw.",
          "erc20Address": "ERC20 token to withdraw."
        }
      }
    },
    "title": "An implementation of Store that can accept Oracle fees in ETH or any arbitrary ERC20 token."
  },
  "userdoc": {
    "methods": {
      "addMember(uint256,address)": {
        "notice": "Adds `newMember` to the shared role, `roleId`."
      },
      "computeFinalFee(address)": {
        "notice": "Computes the final oracle fees that a contract should pay at settlement."
      },
      "computeRegularFee(uint256,uint256,(uint256))": {
        "notice": "Computes the regular oracle fees that a contract should pay for a period."
      },
      "constructor": "Construct the Store contract.",
      "getCurrentTime()": {
        "notice": "Gets the current time. Will return the last time set in `setCurrentTime` if running in test mode. Otherwise, it will return the block timestamp."
      },
      "getMember(uint256)": {
        "notice": "Gets the current holder of the exclusive role, `roleId`."
      },
      "holdsRole(uint256,address)": {
        "notice": "Whether `memberToCheck` is a member of roleId."
      },
      "payOracleFees()": {
        "notice": "Pays Oracle fees in ETH to the store."
      },
      "payOracleFeesErc20(address,(uint256))": {
        "notice": "Pays oracle fees in the margin currency, erc20Address, to the store."
      },
      "removeMember(uint256,address)": {
        "notice": "Removes `memberToRemove` from the shared role, `roleId`."
      },
      "renounceMembership(uint256)": {
        "notice": "Removes caller from the role, `roleId`."
      },
      "resetMember(uint256,address)": {
        "notice": "Changes the exclusive role holder of `roleId` to `newMember`."
      },
      "setCurrentTime(uint256)": {
        "notice": "Sets the current time."
      },
      "setFinalFee(address,(uint256))": {
        "notice": "Sets a new final fee for a particular currency."
      },
      "setFixedOracleFeePerSecondPerPfc((uint256))": {
        "notice": "Sets a new oracle fee per second."
      },
      "setWeeklyDelayFeePerSecondPerPfc((uint256))": {
        "notice": "Sets a new weekly delay fee."
      },
      "withdraw(uint256)": {
        "notice": "Withdraws ETH from the contract."
      },
      "withdrawErc20(address,uint256)": {
        "notice": "Withdraws ERC20 tokens from the contract."
      }
    }
  }
}