{
  "contractName": "SyntheticToken",
  "abi": [
    {
      "inputs": [
        {
          "internalType": "string",
          "name": "tokenName",
          "type": "string"
        },
        {
          "internalType": "string",
          "name": "tokenSymbol",
          "type": "string"
        },
        {
          "internalType": "uint8",
          "name": "tokenDecimals",
          "type": "uint8"
        }
      ],
      "stateMutability": "nonpayable",
      "type": "constructor"
    },
    {
      "anonymous": false,
      "inputs": [
        {
          "indexed": true,
          "internalType": "address",
          "name": "owner",
          "type": "address"
        },
        {
          "indexed": true,
          "internalType": "address",
          "name": "spender",
          "type": "address"
        },
        {
          "indexed": false,
          "internalType": "uint256",
          "name": "value",
          "type": "uint256"
        }
      ],
      "name": "Approval",
      "type": "event"
    },
    {
      "anonymous": false,
      "inputs": [
        {
          "indexed": true,
          "internalType": "address",
          "name": "from",
          "type": "address"
        },
        {
          "indexed": true,
          "internalType": "address",
          "name": "to",
          "type": "address"
        },
        {
          "indexed": false,
          "internalType": "uint256",
          "name": "value",
          "type": "uint256"
        }
      ],
      "name": "Transfer",
      "type": "event"
    },
    {
      "inputs": [
        {
          "internalType": "uint256",
          "name": "roleId",
          "type": "uint256"
        },
        {
          "internalType": "address",
          "name": "newMember",
          "type": "address"
        }
      ],
      "name": "addMember",
      "outputs": [],
      "stateMutability": "nonpayable",
      "type": "function"
    },
    {
      "inputs": [
        {
          "internalType": "address",
          "name": "owner",
          "type": "address"
        },
        {
          "internalType": "address",
          "name": "spender",
          "type": "address"
        }
      ],
      "name": "allowance",
      "outputs": [
        {
          "internalType": "uint256",
          "name": "",
          "type": "uint256"
        }
      ],
      "stateMutability": "view",
      "type": "function"
    },
    {
      "inputs": [
        {
          "internalType": "address",
          "name": "spender",
          "type": "address"
        },
        {
          "internalType": "uint256",
          "name": "amount",
          "type": "uint256"
        }
      ],
      "name": "approve",
      "outputs": [
        {
          "internalType": "bool",
          "name": "",
          "type": "bool"
        }
      ],
      "stateMutability": "nonpayable",
      "type": "function"
    },
    {
      "inputs": [
        {
          "internalType": "address",
          "name": "account",
          "type": "address"
        }
      ],
      "name": "balanceOf",
      "outputs": [
        {
          "internalType": "uint256",
          "name": "",
          "type": "uint256"
        }
      ],
      "stateMutability": "view",
      "type": "function"
    },
    {
      "inputs": [
        {
          "internalType": "uint256",
          "name": "value",
          "type": "uint256"
        }
      ],
      "name": "burn",
      "outputs": [],
      "stateMutability": "nonpayable",
      "type": "function"
    },
    {
      "inputs": [],
      "name": "decimals",
      "outputs": [
        {
          "internalType": "uint8",
          "name": "",
          "type": "uint8"
        }
      ],
      "stateMutability": "view",
      "type": "function"
    },
    {
      "inputs": [
        {
          "internalType": "address",
          "name": "spender",
          "type": "address"
        },
        {
          "internalType": "uint256",
          "name": "subtractedValue",
          "type": "uint256"
        }
      ],
      "name": "decreaseAllowance",
      "outputs": [
        {
          "internalType": "bool",
          "name": "",
          "type": "bool"
        }
      ],
      "stateMutability": "nonpayable",
      "type": "function"
    },
    {
      "inputs": [
        {
          "internalType": "uint256",
          "name": "roleId",
          "type": "uint256"
        }
      ],
      "name": "getMember",
      "outputs": [
        {
          "internalType": "address",
          "name": "",
          "type": "address"
        }
      ],
      "stateMutability": "view",
      "type": "function"
    },
    {
      "inputs": [
        {
          "internalType": "uint256",
          "name": "roleId",
          "type": "uint256"
        },
        {
          "internalType": "address",
          "name": "memberToCheck",
          "type": "address"
        }
      ],
      "name": "holdsRole",
      "outputs": [
        {
          "internalType": "bool",
          "name": "",
          "type": "bool"
        }
      ],
      "stateMutability": "view",
      "type": "function"
    },
    {
      "inputs": [
        {
          "internalType": "address",
          "name": "spender",
          "type": "address"
        },
        {
          "internalType": "uint256",
          "name": "addedValue",
          "type": "uint256"
        }
      ],
      "name": "increaseAllowance",
      "outputs": [
        {
          "internalType": "bool",
          "name": "",
          "type": "bool"
        }
      ],
      "stateMutability": "nonpayable",
      "type": "function"
    },
    {
      "inputs": [
        {
          "internalType": "address",
          "name": "recipient",
          "type": "address"
        },
        {
          "internalType": "uint256",
          "name": "value",
          "type": "uint256"
        }
      ],
      "name": "mint",
      "outputs": [
        {
          "internalType": "bool",
          "name": "",
          "type": "bool"
        }
      ],
      "stateMutability": "nonpayable",
      "type": "function"
    },
    {
      "inputs": [],
      "name": "name",
      "outputs": [
        {
          "internalType": "string",
          "name": "",
          "type": "string"
        }
      ],
      "stateMutability": "view",
      "type": "function"
    },
    {
      "inputs": [
        {
          "internalType": "uint256",
          "name": "roleId",
          "type": "uint256"
        },
        {
          "internalType": "address",
          "name": "memberToRemove",
          "type": "address"
        }
      ],
      "name": "removeMember",
      "outputs": [],
      "stateMutability": "nonpayable",
      "type": "function"
    },
    {
      "inputs": [
        {
          "internalType": "uint256",
          "name": "roleId",
          "type": "uint256"
        },
        {
          "internalType": "address",
          "name": "newMember",
          "type": "address"
        }
      ],
      "name": "resetMember",
      "outputs": [],
      "stateMutability": "nonpayable",
      "type": "function"
    },
    {
      "inputs": [],
      "name": "symbol",
      "outputs": [
        {
          "internalType": "string",
          "name": "",
          "type": "string"
        }
      ],
      "stateMutability": "view",
      "type": "function"
    },
    {
      "inputs": [],
      "name": "totalSupply",
      "outputs": [
        {
          "internalType": "uint256",
          "name": "",
          "type": "uint256"
        }
      ],
      "stateMutability": "view",
      "type": "function"
    },
    {
      "inputs": [
        {
          "internalType": "address",
          "name": "recipient",
          "type": "address"
        },
        {
          "internalType": "uint256",
          "name": "amount",
          "type": "uint256"
        }
      ],
      "name": "transfer",
      "outputs": [
        {
          "internalType": "bool",
          "name": "",
          "type": "bool"
        }
      ],
      "stateMutability": "nonpayable",
      "type": "function"
    },
    {
      "inputs": [
        {
          "internalType": "address",
          "name": "sender",
          "type": "address"
        },
        {
          "internalType": "address",
          "name": "recipient",
          "type": "address"
        },
        {
          "internalType": "uint256",
          "name": "amount",
          "type": "uint256"
        }
      ],
      "name": "transferFrom",
      "outputs": [
        {
          "internalType": "bool",
          "name": "",
          "type": "bool"
        }
      ],
      "stateMutability": "nonpayable",
      "type": "function"
    },
    {
      "inputs": [
        {
          "internalType": "address",
          "name": "account",
          "type": "address"
        }
      ],
      "name": "addMinter",
      "outputs": [],
      "stateMutability": "nonpayable",
      "type": "function"
    },
    {
      "inputs": [
        {
          "internalType": "address",
          "name": "account",
          "type": "address"
        }
      ],
      "name": "removeMinter",
      "outputs": [],
      "stateMutability": "nonpayable",
      "type": "function"
    },
    {
      "inputs": [
        {
          "internalType": "address",
          "name": "account",
          "type": "address"
        }
      ],
      "name": "addBurner",
      "outputs": [],
      "stateMutability": "nonpayable",
      "type": "function"
    },
    {
      "inputs": [
        {
          "internalType": "address",
          "name": "account",
          "type": "address"
        }
      ],
      "name": "removeBurner",
      "outputs": [],
      "stateMutability": "nonpayable",
      "type": "function"
    },
    {
      "inputs": [
        {
          "internalType": "address",
          "name": "account",
          "type": "address"
        }
      ],
      "name": "resetOwner",
      "outputs": [],
      "stateMutability": "nonpayable",
      "type": "function"
    },
    {
      "inputs": [
        {
          "internalType": "address",
          "name": "account",
          "type": "address"
        }
      ],
      "name": "isMinter",
      "outputs": [
        {
          "internalType": "bool",
          "name": "",
          "type": "bool"
        }
      ],
      "stateMutability": "view",
      "type": "function"
    },
    {
      "inputs": [
        {
          "internalType": "address",
          "name": "account",
          "type": "address"
        }
      ],
      "name": "isBurner",
      "outputs": [
        {
          "internalType": "bool",
          "name": "",
          "type": "bool"
        }
      ],
      "stateMutability": "view",
      "type": "function"
    }
  ],
  "bytecode": "0x60806040523480156200001157600080fd5b50604051620021f6380380620021f6833981810160405260608110156200003757600080fd5b81019080805160405193929190846401000000008211156200005857600080fd5b9083019060208201858111156200006e57600080fd5b82516401000000008111828201881017156200008957600080fd5b82525081516020918201929091019080838360005b83811015620000b85781810151838201526020016200009e565b50505050905090810190601f168015620000e65780820380516001836020036101000a031916815260200191505b50604052602001805160405193929190846401000000008211156200010a57600080fd5b9083019060208201858111156200012057600080fd5b82516401000000008111828201881017156200013b57600080fd5b82525081516020918201929091019080838360005b838110156200016a57818101518382015260200162000150565b50505050905090810190601f168015620001985780820380516001836020036101000a031916815260200191505b506040526020015191508390508282620001be600080336001600160e01b036200023316565b620001db60015b604080516000808252602082019092526200034e565b620001e76002620001c5565b8251620001fc90600490602086019062000544565b5081516200021290600590602085019062000544565b506006805460ff191660ff9290921691909117905550620005e99350505050565b826000808281526003602052604090206001015460ff1660028111156200025657fe5b14620002a9576040805162461bcd60e51b815260206004820152601e60248201527f43616e6e6f74207573652061207072652d6578697374696e6720726f6c650000604482015290519081900360640190fd5b60008481526003602052604090206001808201805460ff191682800217905550838155620002e7600282018462000461602090811b620018ed17901c565b60008481526003602052604081206001015460ff1660028111156200030857fe5b1415620003475760405162461bcd60e51b815260040180806020018281038252603c8152602001806200215f603c913960400191505060405180910390fd5b5050505050565b826000808281526003602052604090206001015460ff1660028111156200037157fe5b14620003c4576040805162461bcd60e51b815260206004820152601e60248201527f43616e6e6f74207573652061207072652d6578697374696e6720726f6c650000604482015290519081900360640190fd5b600084815260036020818152604090922060018101805460ff191660021790558581559162000401918301908590620018f76200047a821b17901c565b60008481526003602052604081206001015460ff1660028111156200042257fe5b1415620003475760405162461bcd60e51b8152600401808060200182810382526038815260200180620021be6038913960400191505060405180910390fd5b6200047682826001600160e01b03620004bb16565b5050565b60005b8151811015620004b657620004ad838383815181106200049957fe5b60200260200101516200051f60201b60201c565b6001016200047d565b505050565b6001600160a01b038116620005025760405162461bcd60e51b81526004018080602001828103825260238152602001806200219b6023913960400191505060405180910390fd5b81546001600160a01b0319166001600160a01b0391909116179055565b6001600160a01b0316600090815260209190915260409020805460ff19166001179055565b828054600181600116156101000203166002900490600052602060002090601f016020900481019282601f106200058757805160ff1916838001178555620005b7565b82800160010185558215620005b7579182015b82811115620005b75782518255916020019190600101906200059a565b50620005c5929150620005c9565b5090565b620005e691905b80821115620005c55760008155600101620005d0565b90565b611b6680620005f96000396000f3fe608060405234801561001057600080fd5b50600436106101a35760003560e01c806370a08231116100ee578063a457c2d711610097578063ab3545e511610071578063ab3545e514610608578063d97c05be1461064e578063dd62ed3e14610687578063f44637ba146106c2576101a3565b8063a457c2d714610563578063a9059cbb1461059c578063aa271e1a146105d5576101a3565b80637cdc1cb9116100c85780637cdc1cb9146104ef57806395d89b4114610528578063983b2d5614610530576101a3565b806370a082311461045057806373cc802a1461048357806374d0a676146104b6576101a3565b8063313ce5671161015057806342966c681161012a57806342966c68146103c75780634334614a146103e45780636be7658b14610417576101a3565b8063313ce56714610337578063395093511461035557806340c10f191461038e576101a3565b806318160ddd1161018157806318160ddd146102a757806323b872dd146102c15780633092afd514610304576101a3565b806302846858146101a857806306fdde03146101dd578063095ea7b31461025a575b600080fd5b6101db600480360360208110156101be57600080fd5b503573ffffffffffffffffffffffffffffffffffffffff166106f5565b005b6101e5610704565b6040805160208082528351818301528351919283929083019185019080838360005b8381101561021f578181015183820152602001610207565b50505050905090810190601f16801561024c5780820380516001836020036101000a031916815260200191505b509250505060405180910390f35b6102936004803603604081101561027057600080fd5b5073ffffffffffffffffffffffffffffffffffffffff81351690602001356107b8565b604080519115158252519081900360200190f35b6102af6107d6565b60408051918252519081900360200190f35b610293600480360360608110156102d757600080fd5b5073ffffffffffffffffffffffffffffffffffffffff8135811691602081013590911690604001356107dc565b6101db6004803603602081101561031a57600080fd5b503573ffffffffffffffffffffffffffffffffffffffff16610883565b61033f61088d565b6040805160ff9092168252519081900360200190f35b6102936004803603604081101561036b57600080fd5b5073ffffffffffffffffffffffffffffffffffffffff8135169060200135610896565b610293600480360360408110156103a457600080fd5b5073ffffffffffffffffffffffffffffffffffffffff81351690602001356108f7565b6101db600480360360208110156103dd57600080fd5b5035610964565b610293600480360360208110156103fa57600080fd5b503573ffffffffffffffffffffffffffffffffffffffff166109d3565b6101db6004803603604081101561042d57600080fd5b508035906020013573ffffffffffffffffffffffffffffffffffffffff166109e1565b6102af6004803603602081101561046657600080fd5b503573ffffffffffffffffffffffffffffffffffffffff16610af2565b6101db6004803603602081101561049957600080fd5b503573ffffffffffffffffffffffffffffffffffffffff16610b1a565b6101db600480360360408110156104cc57600080fd5b508035906020013573ffffffffffffffffffffffffffffffffffffffff16610b25565b6102936004803603604081101561050557600080fd5b508035906020013573ffffffffffffffffffffffffffffffffffffffff16610c30565b6101e5610d08565b6101db6004803603602081101561054657600080fd5b503573ffffffffffffffffffffffffffffffffffffffff16610d87565b6102936004803603604081101561057957600080fd5b5073ffffffffffffffffffffffffffffffffffffffff8135169060200135610d93565b610293600480360360408110156105b257600080fd5b5073ffffffffffffffffffffffffffffffffffffffff8135169060200135610e0e565b610293600480360360208110156105eb57600080fd5b503573ffffffffffffffffffffffffffffffffffffffff16610e22565b6106256004803603602081101561061e57600080fd5b5035610e2e565b6040805173ffffffffffffffffffffffffffffffffffffffff9092168252519081900360200190f35b6101db6004803603604081101561066457600080fd5b508035906020013573ffffffffffffffffffffffffffffffffffffffff16610eca565b6102af6004803603604081101561069d57600080fd5b5073ffffffffffffffffffffffffffffffffffffffff81358116916020013516610fd4565b6101db600480360360208110156106d857600080fd5b503573ffffffffffffffffffffffffffffffffffffffff1661100c565b61070160025b826109e1565b50565b60048054604080516020601f60027fffffffffffffffffffffffffffffffffffffffffffffffffffffffffffffffff6101006001881615020190951694909404938401819004810282018101909252828152606093909290918301828280156107ae5780601f10610783576101008083540402835291602001916107ae565b820191906000526020600020905b81548152906001019060200180831161079157829003601f168201915b5050505050905090565b60006107cc6107c5611016565b848461101a565b5060015b92915050565b60025490565b60006107e9848484611161565b610879846107f5611016565b61087485604051806060016040528060288152602001611a336028913973ffffffffffffffffffffffffffffffffffffffff8a16600090815260016020526040812090610840611016565b73ffffffffffffffffffffffffffffffffffffffff168152602081019190915260400160002054919063ffffffff61133d16565b61101a565b5060019392505050565b61070160016106fb565b60065460ff1690565b60006107cc6108a3611016565b8461087485600160006108b4611016565b73ffffffffffffffffffffffffffffffffffffffff908116825260208083019390935260409182016000908120918c16815292529020549063ffffffff6113ee16565b600060016109058133610c30565b61095a576040517f08c379a0000000000000000000000000000000000000000000000000000000008152600401808060200182810382526022815260200180611a116022913960400191505060405180910390fd5b6108798484611462565b60026109708133610c30565b6109c5576040517f08c379a0000000000000000000000000000000000000000000000000000000008152600401808060200182810382526022815260200180611a116022913960400191505060405180910390fd5b6109cf338361159f565b5050565b60006107d060025b83610c30565b81600260008281526003602052604090206001015460ff166002811115610a0457fe5b14610a5a576040517f08c379a000000000000000000000000000000000000000000000000000000000815260040180806020018281038252602c8152602001806119e5602c913960400191505060405180910390fd5b6000838152600360205260409020548390610a759033610c30565b610aca576040517f08c379a0000000000000000000000000000000000000000000000000000000008152600401808060200182810382526024815260200180611ae86024913960400191505060405180910390fd5b6000848152600360208190526040909120610aec91018463ffffffff6116f516565b50505050565b73ffffffffffffffffffffffffffffffffffffffff1660009081526020819052604090205490565b610701600082610eca565b81600260008281526003602052604090206001015460ff166002811115610b4857fe5b14610b9e576040517f08c379a000000000000000000000000000000000000000000000000000000000815260040180806020018281038252602c8152602001806119e5602c913960400191505060405180910390fd5b6000838152600360205260409020548390610bb99033610c30565b610c0e576040517f08c379a0000000000000000000000000000000000000000000000000000000008152600401808060200182810382526024815260200180611ae86024913960400191505060405180910390fd5b6000848152600360208190526040909120610aec91018463ffffffff61174216565b600082815260036020526040812060018082015460ff166002811115610c5257fe5b1415610c7357610c6b600282018463ffffffff61179216565b9150506107d0565b6002600182015460ff166002811115610c8857fe5b1415610ca157610c6b600382018463ffffffff6117b216565b604080517f08c379a000000000000000000000000000000000000000000000000000000000815260206004820152600e60248201527f496e76616c696420726f6c654964000000000000000000000000000000000000604482015290519081900360640190fd5b60058054604080516020601f60027fffffffffffffffffffffffffffffffffffffffffffffffffffffffffffffffff6101006001881615020190951694909404938401819004810282018101909252828152606093909290918301828280156107ae5780601f10610783576101008083540402835291602001916107ae565b61070160015b82610b25565b60006107cc610da0611016565b8461087485604051806060016040528060258152602001611b0c6025913960016000610dca611016565b73ffffffffffffffffffffffffffffffffffffffff908116825260208083019390935260409182016000908120918d1681529252902054919063ffffffff61133d16565b60006107cc610e1b611016565b8484611161565b60006107d060016109db565b600081600160008281526003602052604090206001015460ff166002811115610e5357fe5b14610ea9576040517f08c379a000000000000000000000000000000000000000000000000000000000815260040180806020018281038252602f8152602001806119b6602f913960400191505060405180910390fd5b6000838152600360205260409020610ec3906002016117de565b9392505050565b81600160008281526003602052604090206001015460ff166002811115610eed57fe5b14610f43576040517f08c379a000000000000000000000000000000000000000000000000000000000815260040180806020018281038252602f8152602001806119b6602f913960400191505060405180910390fd5b6000838152600360205260409020548390610f5e9033610c30565b610fb3576040517f08c379a0000000000000000000000000000000000000000000000000000000008152600401808060200182810382526024815260200180611ae86024913960400191505060405180910390fd5b6000848152600360205260409020610aec906002018463ffffffff6117f816565b73ffffffffffffffffffffffffffffffffffffffff918216600090815260016020908152604080832093909416825291909152205490565b6107016002610d8d565b3390565b73ffffffffffffffffffffffffffffffffffffffff8316611086576040517f08c379a0000000000000000000000000000000000000000000000000000000008152600401808060200182810382526024815260200180611ac46024913960400191505060405180910390fd5b73ffffffffffffffffffffffffffffffffffffffff82166110f2576040517f08c379a000000000000000000000000000000000000000000000000000000000815260040180806020018281038252602281526020018061196e6022913960400191505060405180910390fd5b73ffffffffffffffffffffffffffffffffffffffff808416600081815260016020908152604080832094871680845294825291829020859055815185815291517f8c5be1e5ebec7d5bd14f71427d1e84f3dd0314c0f7b2291e5b200ac8c7c3b9259281900390910190a3505050565b73ffffffffffffffffffffffffffffffffffffffff83166111cd576040517f08c379a0000000000000000000000000000000000000000000000000000000008152600401808060200182810382526025815260200180611a9f6025913960400191505060405180910390fd5b73ffffffffffffffffffffffffffffffffffffffff8216611239576040517f08c379a00000000000000000000000000000000000000000000000000000000081526004018080602001828103825260238152602001806119296023913960400191505060405180910390fd5b6112448383836118a6565b611294816040518060600160405280602681526020016119906026913973ffffffffffffffffffffffffffffffffffffffff8616600090815260208190526040902054919063ffffffff61133d16565b73ffffffffffffffffffffffffffffffffffffffff80851660009081526020819052604080822093909355908416815220546112d6908263ffffffff6113ee16565b73ffffffffffffffffffffffffffffffffffffffff8084166000818152602081815260409182902094909455805185815290519193928716927fddf252ad1be2c89b69c2b068fc378daa952ba7f163c4a11628f55a4df523b3ef92918290030190a3505050565b600081848411156113e6576040517f08c379a00000000000000000000000000000000000000000000000000000000081526004018080602001828103825283818151815260200191508051906020019080838360005b838110156113ab578181015183820152602001611393565b50505050905090810190601f1680156113d85780820380516001836020036101000a031916815260200191505b509250505060405180910390fd5b505050900390565b600082820183811015610ec357604080517f08c379a000000000000000000000000000000000000000000000000000000000815260206004820152601b60248201527f536166654d6174683a206164646974696f6e206f766572666c6f770000000000604482015290519081900360640190fd5b73ffffffffffffffffffffffffffffffffffffffff82166114e457604080517f08c379a000000000000000000000000000000000000000000000000000000000815260206004820152601f60248201527f45524332303a206d696e7420746f20746865207a65726f206164647265737300604482015290519081900360640190fd5b6114f0600083836118a6565b600254611503908263ffffffff6113ee16565b60025573ffffffffffffffffffffffffffffffffffffffff821660009081526020819052604090205461153c908263ffffffff6113ee16565b73ffffffffffffffffffffffffffffffffffffffff83166000818152602081815260408083209490945583518581529351929391927fddf252ad1be2c89b69c2b068fc378daa952ba7f163c4a11628f55a4df523b3ef9281900390910190a35050565b73ffffffffffffffffffffffffffffffffffffffff821661160b576040517f08c379a0000000000000000000000000000000000000000000000000000000008152600401808060200182810382526021815260200180611a5b6021913960400191505060405180910390fd5b611617826000836118a6565b6116678160405180606001604052806022815260200161194c6022913973ffffffffffffffffffffffffffffffffffffffff8516600090815260208190526040902054919063ffffffff61133d16565b73ffffffffffffffffffffffffffffffffffffffff83166000908152602081905260409020556002546116a0908263ffffffff6118ab16565b60025560408051828152905160009173ffffffffffffffffffffffffffffffffffffffff8516917fddf252ad1be2c89b69c2b068fc378daa952ba7f163c4a11628f55a4df523b3ef9181900360200190a35050565b73ffffffffffffffffffffffffffffffffffffffff1660009081526020919091526040902080547fffffffffffffffffffffffffffffffffffffffffffffffffffffffffffffff00169055565b73ffffffffffffffffffffffffffffffffffffffff1660009081526020919091526040902080547fffffffffffffffffffffffffffffffffffffffffffffffffffffffffffffff00166001179055565b905473ffffffffffffffffffffffffffffffffffffffff91821691161490565b73ffffffffffffffffffffffffffffffffffffffff166000908152602091909152604090205460ff1690565b5473ffffffffffffffffffffffffffffffffffffffff1690565b73ffffffffffffffffffffffffffffffffffffffff8116611864576040517f08c379a0000000000000000000000000000000000000000000000000000000008152600401808060200182810382526023815260200180611a7c6023913960400191505060405180910390fd5b81547fffffffffffffffffffffffff00000000000000000000000000000000000000001673ffffffffffffffffffffffffffffffffffffffff91909116179055565b505050565b6000610ec383836040518060400160405280601e81526020017f536166654d6174683a207375627472616374696f6e206f766572666c6f77000081525061133d565b6109cf82826117f8565b60005b81518110156118a6576119208383838151811061191357fe5b6020026020010151611742565b6001016118fa56fe45524332303a207472616e7366657220746f20746865207a65726f206164647265737345524332303a206275726e20616d6f756e7420657863656564732062616c616e636545524332303a20617070726f766520746f20746865207a65726f206164647265737345524332303a207472616e7366657220616d6f756e7420657863656564732062616c616e63654d7573742062652063616c6c6564206f6e20616e20696e697469616c697a6564204578636c757369766520726f6c654d7573742062652063616c6c6564206f6e20616e20696e697469616c697a65642053686172656420726f6c6553656e64657220646f6573206e6f7420686f6c6420726571756972656420726f6c6545524332303a207472616e7366657220616d6f756e74206578636565647320616c6c6f77616e636545524332303a206275726e2066726f6d20746865207a65726f206164647265737343616e6e6f742073657420616e206578636c757369766520726f6c6520746f2030783045524332303a207472616e736665722066726f6d20746865207a65726f206164647265737345524332303a20617070726f76652066726f6d20746865207a65726f206164647265737343616e206f6e6c792062652063616c6c6564206279206120726f6c65206d616e6167657245524332303a2064656372656173656420616c6c6f77616e63652062656c6f77207a65726fa2646970667358221220bfd05e4a93ddcc1aeb168a671ddfa2b8a744d0d9e8919f8669383007f74a629d64736f6c63430006040033417474656d7074656420746f2075736520616e20696e76616c696420726f6c6520746f206d616e61676520616e206578636c757369766520726f6c6543616e6e6f742073657420616e206578636c757369766520726f6c6520746f20307830417474656d7074656420746f2075736520616e20696e76616c696420726f6c6520746f206d616e61676520612073686172656420726f6c65",
  "source": "pragma solidity ^0.6.0;\nimport \"@openzeppelin/contracts/token/ERC20/ERC20Detailed.sol\";\nimport \"../../common/implementation/ExpandedERC20.sol\";\n\n\n/**\n * @title Burnable and mintable ERC20.\n * @dev The contract deployer will initially be the only minter and burner as well as the owner  who\n * is capable of adding new roles.\n */\n\ncontract SyntheticToken is ExpandedERC20, ERC20Detailed {\n    /**\n     * @notice Constructs the SyntheticToken.\n     * @param tokenName The name which describes the new token.\n     * @param tokenSymbol The ticker abbreviation of the name. Ideally < 5 chars.\n     * @param tokenDecimals The number of decimals to define token precision.\n     */\n    constructor(string memory tokenName, string memory tokenSymbol, uint8 tokenDecimals)\n        public\n        ERC20Detailed(tokenName, tokenSymbol, tokenDecimals)\n    {}\n\n    /**\n     * @notice Add Minter role to account.\n     * @dev The caller must have the Owner role.\n     * @param account The address to which the Minter role is added.\n     */\n    function addMinter(address account) external {\n        addMember(uint(Roles.Minter), account);\n    }\n\n    /**\n     * @notice Remove Minter role from account.\n     * @dev The caller must have the Owner role.\n     * @param account The address from which the Minter role is removed.\n     */\n    function removeMinter(address account) external {\n        removeMember(uint(Roles.Minter), account);\n    }\n\n    /**\n     * @notice Add Burner role to account.\n     * @dev The caller must have the Owner role.\n     * @param account The address to which the Burner role is added.\n     */\n    function addBurner(address account) external {\n        addMember(uint(Roles.Burner), account);\n    }\n\n    /**\n     * @notice Removes Burner role from account.\n     * @dev The caller must have the Owner role.\n     * @param account The address from which the Burner role is removed.\n     */\n    function removeBurner(address account) external {\n        removeMember(uint(Roles.Burner), account);\n    }\n\n    /**\n     * @notice Reset Owner role to account.\n     * @dev The caller must have the Owner role.\n     * @param account The new holder of the Owner role.\n     */\n    function resetOwner(address account) external {\n        resetMember(uint(Roles.Owner), account);\n    }\n\n    /**\n     * @notice Checks if a given account holds the Minter role.\n     * @param account The address which is checked for the Minter role.\n     * @return bool True if the provided account is a Minter.\n     */\n    function isMinter(address account) public view returns (bool) {\n        return holdsRole(uint(Roles.Minter), account);\n    }\n\n    /**\n     * @notice Checks if a given account holds the Burner role.\n     * @param account The address which is checked for the Burner role.\n     * @return bool True if the provided account is a Burner.\n     */\n    function isBurner(address account) public view returns (bool) {\n        return holdsRole(uint(Roles.Burner), account);\n    }\n}\n",
  "sourcePath": "/home/alessandrovm/JarvisLavoro/SynFiat/packages/contracts/contracts/uma-contracts/financial-templates/implementation/SyntheticToken.sol",
  "compiler": {
    "name": "solc",
    "version": "0.6.4+commit.1dca32f3.Emscripten.clang"
  },
  "schemaVersion": "3.2.0",
  "updatedAt": "2020-06-19T21:38:31.460Z",
  "devdoc": {
    "details": "The contract deployer will initially be the only minter and burner as well as the owner  who is capable of adding new roles.",
    "methods": {
      "addBurner(address)": {
        "details": "The caller must have the Owner role.",
        "params": {
          "account": "The address to which the Burner role is added."
        }
      },
      "addMember(uint256,address)": {
        "details": "Reverts if `roleId` does not represent an initialized, shared role or if the caller is not a member of the managing role for `roleId`."
      },
      "addMinter(address)": {
        "details": "The caller must have the Owner role.",
        "params": {
          "account": "The address to which the Minter role is added."
        }
      },
      "allowance(address,address)": {
        "details": "See {IERC20-allowance}."
      },
      "approve(address,uint256)": {
        "details": "See {IERC20-approve}.     * Requirements:     * - `spender` cannot be the zero address."
      },
      "balanceOf(address)": {
        "details": "See {IERC20-balanceOf}."
      },
      "burn(uint256)": {
        "details": "Burns `value` tokens owned by `msg.sender`."
      },
      "constructor": {
        "params": {
          "tokenDecimals": "The number of decimals to define token precision.",
          "tokenName": "The name which describes the new token.",
          "tokenSymbol": "The ticker abbreviation of the name. Ideally < 5 chars."
        }
      },
      "decimals()": {
        "details": "Returns the number of decimals used to get its user representation. For example, if `decimals` equals `2`, a balance of `505` tokens should be displayed to a user as `5,05` (`505 / 10 ** 2`).     * Tokens usually opt for a value of 18, imitating the relationship between Ether and Wei.     * NOTE: This information is only used for _display_ purposes: it in no way affects any of the arithmetic of the contract, including {IERC20-balanceOf} and {IERC20-transfer}."
      },
      "decreaseAllowance(address,uint256)": {
        "details": "Atomically decreases the allowance granted to `spender` by the caller.     * This is an alternative to {approve} that can be used as a mitigation for problems described in {IERC20-approve}.     * Emits an {Approval} event indicating the updated allowance.     * Requirements:     * - `spender` cannot be the zero address. - `spender` must have allowance for the caller of at least `subtractedValue`."
      },
      "getMember(uint256)": {
        "details": "Reverts if `roleId` does not represent an initialized, exclusive role."
      },
      "holdsRole(uint256,address)": {
        "details": "Reverts if roleId does not correspond to an initialized role."
      },
      "increaseAllowance(address,uint256)": {
        "details": "Atomically increases the allowance granted to `spender` by the caller.     * This is an alternative to {approve} that can be used as a mitigation for problems described in {IERC20-approve}.     * Emits an {Approval} event indicating the updated allowance.     * Requirements:     * - `spender` cannot be the zero address."
      },
      "isBurner(address)": {
        "params": {
          "account": "The address which is checked for the Burner role."
        },
        "returns": {
          "_0": "bool True if the provided account is a Burner."
        }
      },
      "isMinter(address)": {
        "params": {
          "account": "The address which is checked for the Minter role."
        },
        "returns": {
          "_0": "bool True if the provided account is a Minter."
        }
      },
      "mint(address,uint256)": {
        "details": "Mints `value` tokens to `recipient`, returning true on success."
      },
      "name()": {
        "details": "Returns the name of the token."
      },
      "removeBurner(address)": {
        "details": "The caller must have the Owner role.",
        "params": {
          "account": "The address from which the Burner role is removed."
        }
      },
      "removeMember(uint256,address)": {
        "details": "Reverts if `roleId` does not represent an initialized, shared role or if the caller is not a member of the managing role for `roleId`."
      },
      "removeMinter(address)": {
        "details": "The caller must have the Owner role.",
        "params": {
          "account": "The address from which the Minter role is removed."
        }
      },
      "resetMember(uint256,address)": {
        "details": "Reverts if the caller is not a member of the managing role for `roleId` or if `roleId` is not an initialized, exclusive role."
      },
      "resetOwner(address)": {
        "details": "The caller must have the Owner role.",
        "params": {
          "account": "The new holder of the Owner role."
        }
      },
      "symbol()": {
        "details": "Returns the symbol of the token, usually a shorter version of the name."
      },
      "totalSupply()": {
        "details": "See {IERC20-totalSupply}."
      },
      "transfer(address,uint256)": {
        "details": "See {IERC20-transfer}.     * Requirements:     * - `recipient` cannot be the zero address. - the caller must have a balance of at least `amount`."
      },
      "transferFrom(address,address,uint256)": {
        "details": "See {IERC20-transferFrom}.     * Emits an {Approval} event indicating the updated allowance. This is not required by the EIP. See the note at the beginning of {ERC20};     * Requirements: - `sender` and `recipient` cannot be the zero address. - `sender` must have a balance of at least `amount`. - the caller must have allowance for `sender`'s tokens of at least `amount`."
      }
    },
    "title": "Burnable and mintable ERC20."
  },
  "userdoc": {
    "methods": {
      "addBurner(address)": {
        "notice": "Add Burner role to account."
      },
      "addMember(uint256,address)": {
        "notice": "Adds `newMember` to the shared role, `roleId`."
      },
      "addMinter(address)": {
        "notice": "Add Minter role to account."
      },
      "constructor": "Constructs the SyntheticToken.",
      "getMember(uint256)": {
        "notice": "Gets the current holder of the exclusive role, `roleId`."
      },
      "holdsRole(uint256,address)": {
        "notice": "Whether `memberToCheck` is a member of roleId."
      },
      "isBurner(address)": {
        "notice": "Checks if a given account holds the Burner role."
      },
      "isMinter(address)": {
        "notice": "Checks if a given account holds the Minter role."
      },
      "removeBurner(address)": {
        "notice": "Removes Burner role from account."
      },
      "removeMember(uint256,address)": {
        "notice": "Removes `memberToRemove` from the shared role, `roleId`."
      },
      "removeMinter(address)": {
        "notice": "Remove Minter role from account."
      },
      "resetMember(uint256,address)": {
        "notice": "Changes the exclusive role holder of `roleId` to `newMember`."
      },
      "resetOwner(address)": {
        "notice": "Reset Owner role to account."
      }
    }
  }
}