{
  "contractName": "SyntheticToken",
  "abi": [
    {
      "inputs": [
        {
          "internalType": "string",
          "name": "tokenName",
          "type": "string"
        },
        {
          "internalType": "string",
          "name": "tokenSymbol",
          "type": "string"
        },
        {
          "internalType": "uint8",
          "name": "tokenDecimals",
          "type": "uint8"
        }
      ],
      "stateMutability": "nonpayable",
      "type": "constructor"
    },
    {
      "anonymous": false,
      "inputs": [
        {
          "indexed": true,
          "internalType": "uint256",
          "name": "roleId",
          "type": "uint256"
        },
        {
          "indexed": true,
          "internalType": "address",
          "name": "newMember",
          "type": "address"
        },
        {
          "indexed": true,
          "internalType": "address",
          "name": "manager",
          "type": "address"
        }
      ],
      "name": "AddedSharedMember",
      "type": "event"
    },
    {
      "anonymous": false,
      "inputs": [
        {
          "indexed": true,
          "internalType": "address",
          "name": "owner",
          "type": "address"
        },
        {
          "indexed": true,
          "internalType": "address",
          "name": "spender",
          "type": "address"
        },
        {
          "indexed": false,
          "internalType": "uint256",
          "name": "value",
          "type": "uint256"
        }
      ],
      "name": "Approval",
      "type": "event"
    },
    {
      "anonymous": false,
      "inputs": [
        {
          "indexed": true,
          "internalType": "uint256",
          "name": "roleId",
          "type": "uint256"
        },
        {
          "indexed": true,
          "internalType": "address",
          "name": "oldMember",
          "type": "address"
        },
        {
          "indexed": true,
          "internalType": "address",
          "name": "manager",
          "type": "address"
        }
      ],
      "name": "RemovedSharedMember",
      "type": "event"
    },
    {
      "anonymous": false,
      "inputs": [
        {
          "indexed": true,
          "internalType": "uint256",
          "name": "roleId",
          "type": "uint256"
        },
        {
          "indexed": true,
          "internalType": "address",
          "name": "newMember",
          "type": "address"
        },
        {
          "indexed": true,
          "internalType": "address",
          "name": "manager",
          "type": "address"
        }
      ],
      "name": "ResetExclusiveMember",
      "type": "event"
    },
    {
      "anonymous": false,
      "inputs": [
        {
          "indexed": true,
          "internalType": "address",
          "name": "from",
          "type": "address"
        },
        {
          "indexed": true,
          "internalType": "address",
          "name": "to",
          "type": "address"
        },
        {
          "indexed": false,
          "internalType": "uint256",
          "name": "value",
          "type": "uint256"
        }
      ],
      "name": "Transfer",
      "type": "event"
    },
    {
      "inputs": [
        {
          "internalType": "uint256",
          "name": "roleId",
          "type": "uint256"
        },
        {
          "internalType": "address",
          "name": "newMember",
          "type": "address"
        }
      ],
      "name": "addMember",
      "outputs": [],
      "stateMutability": "nonpayable",
      "type": "function"
    },
    {
      "inputs": [
        {
          "internalType": "address",
          "name": "owner",
          "type": "address"
        },
        {
          "internalType": "address",
          "name": "spender",
          "type": "address"
        }
      ],
      "name": "allowance",
      "outputs": [
        {
          "internalType": "uint256",
          "name": "",
          "type": "uint256"
        }
      ],
      "stateMutability": "view",
      "type": "function"
    },
    {
      "inputs": [
        {
          "internalType": "address",
          "name": "spender",
          "type": "address"
        },
        {
          "internalType": "uint256",
          "name": "amount",
          "type": "uint256"
        }
      ],
      "name": "approve",
      "outputs": [
        {
          "internalType": "bool",
          "name": "",
          "type": "bool"
        }
      ],
      "stateMutability": "nonpayable",
      "type": "function"
    },
    {
      "inputs": [
        {
          "internalType": "address",
          "name": "account",
          "type": "address"
        }
      ],
      "name": "balanceOf",
      "outputs": [
        {
          "internalType": "uint256",
          "name": "",
          "type": "uint256"
        }
      ],
      "stateMutability": "view",
      "type": "function"
    },
    {
      "inputs": [
        {
          "internalType": "uint256",
          "name": "value",
          "type": "uint256"
        }
      ],
      "name": "burn",
      "outputs": [],
      "stateMutability": "nonpayable",
      "type": "function"
    },
    {
      "inputs": [],
      "name": "decimals",
      "outputs": [
        {
          "internalType": "uint8",
          "name": "",
          "type": "uint8"
        }
      ],
      "stateMutability": "view",
      "type": "function"
    },
    {
      "inputs": [
        {
          "internalType": "address",
          "name": "spender",
          "type": "address"
        },
        {
          "internalType": "uint256",
          "name": "subtractedValue",
          "type": "uint256"
        }
      ],
      "name": "decreaseAllowance",
      "outputs": [
        {
          "internalType": "bool",
          "name": "",
          "type": "bool"
        }
      ],
      "stateMutability": "nonpayable",
      "type": "function"
    },
    {
      "inputs": [
        {
          "internalType": "uint256",
          "name": "roleId",
          "type": "uint256"
        }
      ],
      "name": "getMember",
      "outputs": [
        {
          "internalType": "address",
          "name": "",
          "type": "address"
        }
      ],
      "stateMutability": "view",
      "type": "function"
    },
    {
      "inputs": [
        {
          "internalType": "uint256",
          "name": "roleId",
          "type": "uint256"
        },
        {
          "internalType": "address",
          "name": "memberToCheck",
          "type": "address"
        }
      ],
      "name": "holdsRole",
      "outputs": [
        {
          "internalType": "bool",
          "name": "",
          "type": "bool"
        }
      ],
      "stateMutability": "view",
      "type": "function"
    },
    {
      "inputs": [
        {
          "internalType": "address",
          "name": "spender",
          "type": "address"
        },
        {
          "internalType": "uint256",
          "name": "addedValue",
          "type": "uint256"
        }
      ],
      "name": "increaseAllowance",
      "outputs": [
        {
          "internalType": "bool",
          "name": "",
          "type": "bool"
        }
      ],
      "stateMutability": "nonpayable",
      "type": "function"
    },
    {
      "inputs": [
        {
          "internalType": "address",
          "name": "recipient",
          "type": "address"
        },
        {
          "internalType": "uint256",
          "name": "value",
          "type": "uint256"
        }
      ],
      "name": "mint",
      "outputs": [
        {
          "internalType": "bool",
          "name": "",
          "type": "bool"
        }
      ],
      "stateMutability": "nonpayable",
      "type": "function"
    },
    {
      "inputs": [],
      "name": "name",
      "outputs": [
        {
          "internalType": "string",
          "name": "",
          "type": "string"
        }
      ],
      "stateMutability": "view",
      "type": "function"
    },
    {
      "inputs": [
        {
          "internalType": "uint256",
          "name": "roleId",
          "type": "uint256"
        },
        {
          "internalType": "address",
          "name": "memberToRemove",
          "type": "address"
        }
      ],
      "name": "removeMember",
      "outputs": [],
      "stateMutability": "nonpayable",
      "type": "function"
    },
    {
      "inputs": [
        {
          "internalType": "uint256",
          "name": "roleId",
          "type": "uint256"
        }
      ],
      "name": "renounceMembership",
      "outputs": [],
      "stateMutability": "nonpayable",
      "type": "function"
    },
    {
      "inputs": [
        {
          "internalType": "uint256",
          "name": "roleId",
          "type": "uint256"
        },
        {
          "internalType": "address",
          "name": "newMember",
          "type": "address"
        }
      ],
      "name": "resetMember",
      "outputs": [],
      "stateMutability": "nonpayable",
      "type": "function"
    },
    {
      "inputs": [],
      "name": "symbol",
      "outputs": [
        {
          "internalType": "string",
          "name": "",
          "type": "string"
        }
      ],
      "stateMutability": "view",
      "type": "function"
    },
    {
      "inputs": [],
      "name": "totalSupply",
      "outputs": [
        {
          "internalType": "uint256",
          "name": "",
          "type": "uint256"
        }
      ],
      "stateMutability": "view",
      "type": "function"
    },
    {
      "inputs": [
        {
          "internalType": "address",
          "name": "recipient",
          "type": "address"
        },
        {
          "internalType": "uint256",
          "name": "amount",
          "type": "uint256"
        }
      ],
      "name": "transfer",
      "outputs": [
        {
          "internalType": "bool",
          "name": "",
          "type": "bool"
        }
      ],
      "stateMutability": "nonpayable",
      "type": "function"
    },
    {
      "inputs": [
        {
          "internalType": "address",
          "name": "sender",
          "type": "address"
        },
        {
          "internalType": "address",
          "name": "recipient",
          "type": "address"
        },
        {
          "internalType": "uint256",
          "name": "amount",
          "type": "uint256"
        }
      ],
      "name": "transferFrom",
      "outputs": [
        {
          "internalType": "bool",
          "name": "",
          "type": "bool"
        }
      ],
      "stateMutability": "nonpayable",
      "type": "function"
    },
    {
      "inputs": [
        {
          "internalType": "address",
          "name": "account",
          "type": "address"
        }
      ],
      "name": "addMinter",
      "outputs": [],
      "stateMutability": "nonpayable",
      "type": "function"
    },
    {
      "inputs": [
        {
          "internalType": "address",
          "name": "account",
          "type": "address"
        }
      ],
      "name": "removeMinter",
      "outputs": [],
      "stateMutability": "nonpayable",
      "type": "function"
    },
    {
      "inputs": [
        {
          "internalType": "address",
          "name": "account",
          "type": "address"
        }
      ],
      "name": "addBurner",
      "outputs": [],
      "stateMutability": "nonpayable",
      "type": "function"
    },
    {
      "inputs": [
        {
          "internalType": "address",
          "name": "account",
          "type": "address"
        }
      ],
      "name": "removeBurner",
      "outputs": [],
      "stateMutability": "nonpayable",
      "type": "function"
    },
    {
      "inputs": [
        {
          "internalType": "address",
          "name": "account",
          "type": "address"
        }
      ],
      "name": "resetOwner",
      "outputs": [],
      "stateMutability": "nonpayable",
      "type": "function"
    },
    {
      "inputs": [
        {
          "internalType": "address",
          "name": "account",
          "type": "address"
        }
      ],
      "name": "isMinter",
      "outputs": [
        {
          "internalType": "bool",
          "name": "",
          "type": "bool"
        }
      ],
      "stateMutability": "view",
      "type": "function"
    },
    {
      "inputs": [
        {
          "internalType": "address",
          "name": "account",
          "type": "address"
        }
      ],
      "name": "isBurner",
      "outputs": [
        {
          "internalType": "bool",
          "name": "",
          "type": "bool"
        }
      ],
      "stateMutability": "view",
      "type": "function"
    }
  ],
  "bytecode": "0x60806040523480156200001157600080fd5b506040516200271f3803806200271f833981810160405260608110156200003757600080fd5b81019080805160405193929190846401000000008211156200005857600080fd5b9083019060208201858111156200006e57600080fd5b82516401000000008111828201881017156200008957600080fd5b82525081516020918201929091019080838360005b83811015620000b85781810151838201526020016200009e565b50505050905090810190601f168015620000e65780820380516001836020036101000a031916815260200191505b50604052602001805160405193929190846401000000008211156200010a57600080fd5b9083019060208201858111156200012057600080fd5b82516401000000008111828201881017156200013b57600080fd5b82525081516020918201929091019080838360005b838110156200016a57818101518382015260200162000150565b50505050905090810190601f168015620001985780820380516001836020036101000a031916815260200191505b5060405260209081015185519093508592508491849184918491620001c491600391908501906200068a565b508051620001da9060049060208401906200068a565b50506005805460ff1916601217905550620001fe816001600160e01b036200029016565b62000215600080336001600160e01b03620002a616565b6200023260015b60408051600080825260208201909252620003c1565b6200023e60026200021c565b50506007805460ff1916600117905550620002616001600160e01b03620004d616565b620002746001600160e01b036200053016565b620002876001600160e01b036200053c16565b5050506200072f565b6005805460ff191660ff92909216919091179055565b826000808281526006602052604090206001015460ff166002811115620002c957fe5b146200031c576040805162461bcd60e51b815260206004820152601e60248201527f43616e6e6f74207573652061207072652d6578697374696e6720726f6c650000604482015290519081900360640190fd5b60008481526006602052604090206001808201805460ff1916828002179055508381556200035a60028201846200054b602090811b62001cd017901c565b60008481526006602052604081206001015460ff1660028111156200037b57fe5b1415620003ba5760405162461bcd60e51b815260040180806020018281038252603c81526020018062002688603c913960400191505060405180910390fd5b5050505050565b826000808281526006602052604090206001015460ff166002811115620003e457fe5b1462000437576040805162461bcd60e51b815260206004820152601e60248201527f43616e6e6f74207573652061207072652d6578697374696e6720726f6c650000604482015290519081900360640190fd5b600084815260066020908152604090912060018101805460ff191660021790558481559062000476906003830190859062001cda62000564821b17901c565b60008481526006602052604081206001015460ff1660028111156200049757fe5b1415620003ba5760405162461bcd60e51b8152600401808060200182810382526038815260200180620026e76038913960400191505060405180910390fd5b60075460ff166200052e576040805162461bcd60e51b815260206004820152601f60248201527f5265656e7472616e637947756172643a207265656e7472616e742063616c6c00604482015290519081900360640190fd5b565b6007805460ff19169055565b6007805460ff19166001179055565b6200056082826001600160e01b03620005a516565b5050565b60005b8151811015620005a05762000597838383815181106200058357fe5b60200260200101516200060960201b60201c565b60010162000567565b505050565b6001600160a01b038116620005ec5760405162461bcd60e51b8152600401808060200182810382526023815260200180620026c46023913960400191505060405180910390fd5b81546001600160a01b0319166001600160a01b0391909116179055565b6001600160a01b03811662000665576040805162461bcd60e51b815260206004820152601f60248201527f43616e6e6f74206164642030783020746f20612073686172656420726f6c6500604482015290519081900360640190fd5b6001600160a01b0316600090815260209190915260409020805460ff19166001179055565b828054600181600116156101000203166002900490600052602060002090601f016020900481019282601f10620006cd57805160ff1916838001178555620006fd565b82800160010185558215620006fd579182015b82811115620006fd578251825591602001919060010190620006e0565b506200070b9291506200070f565b5090565b6200072c91905b808211156200070b576000815560010162000716565b90565b611f49806200073f6000396000f3fe608060405234801561001057600080fd5b50600436106101ae5760003560e01c806373cc802a116100ee578063a9059cbb11610097578063ab3545e511610071578063ab3545e514610630578063d97c05be14610676578063dd62ed3e146106af578063f44637ba146106ea576101ae565b8063a9059cbb146105a7578063aa271e1a146105e0578063aaa14ca314610613576101ae565b806395d89b41116100c857806395d89b4114610533578063983b2d561461053b578063a457c2d71461056e576101ae565b806373cc802a1461048e57806374d0a676146104c15780637cdc1cb9146104fa576101ae565b8063313ce5671161015b57806342966c681161013557806342966c68146103d25780634334614a146103ef5780636be7658b1461042257806370a082311461045b576101ae565b8063313ce56714610342578063395093511461036057806340c10f1914610399576101ae565b806318160ddd1161018c57806318160ddd146102b257806323b872dd146102cc5780633092afd51461030f576101ae565b806302846858146101b357806306fdde03146101e8578063095ea7b314610265575b600080fd5b6101e6600480360360208110156101c957600080fd5b503573ffffffffffffffffffffffffffffffffffffffff1661071d565b005b6101f0610744565b6040805160208082528351818301528351919283929083019185019080838360005b8381101561022a578181015183820152602001610212565b50505050905090810190601f1680156102575780820380516001836020036101000a031916815260200191505b509250505060405180910390f35b61029e6004803603604081101561027b57600080fd5b5073ffffffffffffffffffffffffffffffffffffffff81351690602001356107f8565b604080519115158252519081900360200190f35b6102ba610816565b60408051918252519081900360200190f35b61029e600480360360608110156102e257600080fd5b5073ffffffffffffffffffffffffffffffffffffffff81358116916020810135909116906040013561081c565b6101e66004803603602081101561032557600080fd5b503573ffffffffffffffffffffffffffffffffffffffff166108c3565b61034a6108dd565b6040805160ff9092168252519081900360200190f35b61029e6004803603604081101561037657600080fd5b5073ffffffffffffffffffffffffffffffffffffffff81351690602001356108e6565b61029e600480360360408110156103af57600080fd5b5073ffffffffffffffffffffffffffffffffffffffff8135169060200135610947565b6101e6600480360360208110156103e857600080fd5b50356109b4565b61029e6004803603602081101561040557600080fd5b503573ffffffffffffffffffffffffffffffffffffffff16610a23565b6101e66004803603604081101561043857600080fd5b508035906020013573ffffffffffffffffffffffffffffffffffffffff16610a39565b6102ba6004803603602081101561047157600080fd5b503573ffffffffffffffffffffffffffffffffffffffff16610b8e565b6101e6600480360360208110156104a457600080fd5b503573ffffffffffffffffffffffffffffffffffffffff16610bb6565b6101e6600480360360408110156104d757600080fd5b508035906020013573ffffffffffffffffffffffffffffffffffffffff16610bd1565b61029e6004803603604081101561051057600080fd5b508035906020013573ffffffffffffffffffffffffffffffffffffffff16610d26565b6101f0610dfe565b6101e66004803603602081101561055157600080fd5b503573ffffffffffffffffffffffffffffffffffffffff16610e7d565b61029e6004803603604081101561058457600080fd5b5073ffffffffffffffffffffffffffffffffffffffff8135169060200135610e99565b61029e600480360360408110156105bd57600080fd5b5073ffffffffffffffffffffffffffffffffffffffff8135169060200135610f14565b61029e600480360360208110156105f657600080fd5b503573ffffffffffffffffffffffffffffffffffffffff16610f28565b6101e66004803603602081101561062957600080fd5b5035610f3c565b61064d6004803603602081101561064657600080fd5b503561106a565b6040805173ffffffffffffffffffffffffffffffffffffffff9092168252519081900360200190f35b6101e66004803603604081101561068c57600080fd5b508035906020013573ffffffffffffffffffffffffffffffffffffffff16611106565b6102ba600480360360408110156106c557600080fd5b5073ffffffffffffffffffffffffffffffffffffffff8135811691602001351661125b565b6101e66004803603602081101561070057600080fd5b503573ffffffffffffffffffffffffffffffffffffffff16611293565b6107256112ad565b61072d611320565b61073960025b82610a39565b61074161134a565b50565b60038054604080516020601f60027fffffffffffffffffffffffffffffffffffffffffffffffffffffffffffffffff6101006001881615020190951694909404938401819004810282018101909252828152606093909290918301828280156107ee5780601f106107c3576101008083540402835291602001916107ee565b820191906000526020600020905b8154815290600101906020018083116107d157829003601f168201915b5050505050905090565b600061080c610805611377565b848461137b565b5060015b92915050565b60025490565b60006108298484846114c2565b6108b984610835611377565b6108b485604051806060016040528060288152602001611e166028913973ffffffffffffffffffffffffffffffffffffffff8a16600090815260016020526040812090610880611377565b73ffffffffffffffffffffffffffffffffffffffff168152602081019190915260400160002054919063ffffffff61169e16565b61137b565b5060019392505050565b6108cb6112ad565b6108d3611320565b6107396001610733565b60055460ff1690565b600061080c6108f3611377565b846108b48560016000610904611377565b73ffffffffffffffffffffffffffffffffffffffff908116825260208083019390935260409182016000908120918c16815292529020549063ffffffff61174f16565b600060016109558133610d26565b6109aa576040517f08c379a0000000000000000000000000000000000000000000000000000000008152600401808060200182810382526022815260200180611df46022913960400191505060405180910390fd5b6108b984846117c3565b60026109c08133610d26565b610a15576040517f08c379a0000000000000000000000000000000000000000000000000000000008152600401808060200182810382526022815260200180611df46022913960400191505060405180910390fd5b610a1f3383611900565b5050565b6000610a2d6112ad565b61081060025b83610d26565b81600260008281526006602052604090206001015460ff166002811115610a5c57fe5b14610ab2576040517f08c379a000000000000000000000000000000000000000000000000000000000815260040180806020018281038252602c815260200180611dc8602c913960400191505060405180910390fd5b6000838152600660205260409020548390610acd9033610d26565b610b22576040517f08c379a0000000000000000000000000000000000000000000000000000000008152600401808060200182810382526024815260200180611ecb6024913960400191505060405180910390fd5b6000848152600660205260409020610b43906003018463ffffffff611a5616565b604051339073ffffffffffffffffffffffffffffffffffffffff85169086907feb3e33034c392e69263b04ec0fa376dc12784a41b6676c7f31b936cbc0fbb5af90600090a450505050565b73ffffffffffffffffffffffffffffffffffffffff1660009081526020819052604090205490565b610bbe6112ad565b610bc6611320565b610739600082611106565b81600260008281526006602052604090206001015460ff166002811115610bf457fe5b14610c4a576040517f08c379a000000000000000000000000000000000000000000000000000000000815260040180806020018281038252602c815260200180611dc8602c913960400191505060405180910390fd5b6000838152600660205260409020548390610c659033610d26565b610cba576040517f08c379a0000000000000000000000000000000000000000000000000000000008152600401808060200182810382526024815260200180611ecb6024913960400191505060405180910390fd5b6000848152600660205260409020610cdb906003018463ffffffff611aa316565b604051339073ffffffffffffffffffffffffffffffffffffffff85169086907f63502af7324ff6db91ab38f8236a648727d9385ea6c782073dd4882d8a61a48f90600090a450505050565b600082815260066020526040812060018082015460ff166002811115610d4857fe5b1415610d6957610d61600282018463ffffffff611b7516565b915050610810565b6002600182015460ff166002811115610d7e57fe5b1415610d9757610d61600382018463ffffffff611b9516565b604080517f08c379a000000000000000000000000000000000000000000000000000000000815260206004820152600e60248201527f496e76616c696420726f6c654964000000000000000000000000000000000000604482015290519081900360640190fd5b60048054604080516020601f60027fffffffffffffffffffffffffffffffffffffffffffffffffffffffffffffffff6101006001881615020190951694909404938401819004810282018101909252828152606093909290918301828280156107ee5780601f106107c3576101008083540402835291602001916107ee565b610e856112ad565b610e8d611320565b61073960015b82610bd1565b600061080c610ea6611377565b846108b485604051806060016040528060258152602001611eef6025913960016000610ed0611377565b73ffffffffffffffffffffffffffffffffffffffff908116825260208083019390935260409182016000908120918d1681529252902054919063ffffffff61169e16565b600061080c610f21611377565b84846114c2565b6000610f326112ad565b6108106001610a33565b80600260008281526006602052604090206001015460ff166002811115610f5f57fe5b14610fb5576040517f08c379a000000000000000000000000000000000000000000000000000000000815260040180806020018281038252602c815260200180611dc8602c913960400191505060405180910390fd5b81610fc08133610d26565b611015576040517f08c379a0000000000000000000000000000000000000000000000000000000008152600401808060200182810382526022815260200180611df46022913960400191505060405180910390fd5b6000838152600660205260409020611036906003013363ffffffff611a5616565b6040513390819085907feb3e33034c392e69263b04ec0fa376dc12784a41b6676c7f31b936cbc0fbb5af90600090a4505050565b600081600160008281526006602052604090206001015460ff16600281111561108f57fe5b146110e5576040517f08c379a000000000000000000000000000000000000000000000000000000000815260040180806020018281038252602f815260200180611d99602f913960400191505060405180910390fd5b60008381526006602052604090206110ff90600201611bc1565b9392505050565b81600160008281526006602052604090206001015460ff16600281111561112957fe5b1461117f576040517f08c379a000000000000000000000000000000000000000000000000000000000815260040180806020018281038252602f815260200180611d99602f913960400191505060405180910390fd5b600083815260066020526040902054839061119a9033610d26565b6111ef576040517f08c379a0000000000000000000000000000000000000000000000000000000008152600401808060200182810382526024815260200180611ecb6024913960400191505060405180910390fd5b6000848152600660205260409020611210906002018463ffffffff611bdb16565b604051339073ffffffffffffffffffffffffffffffffffffffff85169086907f3b855c56b409b671c7112789d022675eb639d0bcb8896f1b6197c132f799e74690600090a450505050565b73ffffffffffffffffffffffffffffffffffffffff918216600090815260016020908152604080832093909416825291909152205490565b61129b6112ad565b6112a3611320565b6107396002610e93565b60075460ff1661131e57604080517f08c379a000000000000000000000000000000000000000000000000000000000815260206004820152601f60248201527f5265656e7472616e637947756172643a207265656e7472616e742063616c6c00604482015290519081900360640190fd5b565b600780547fffffffffffffffffffffffffffffffffffffffffffffffffffffffffffffff00169055565b600780547fffffffffffffffffffffffffffffffffffffffffffffffffffffffffffffff00166001179055565b3390565b73ffffffffffffffffffffffffffffffffffffffff83166113e7576040517f08c379a0000000000000000000000000000000000000000000000000000000008152600401808060200182810382526024815260200180611ea76024913960400191505060405180910390fd5b73ffffffffffffffffffffffffffffffffffffffff8216611453576040517f08c379a0000000000000000000000000000000000000000000000000000000008152600401808060200182810382526022815260200180611d516022913960400191505060405180910390fd5b73ffffffffffffffffffffffffffffffffffffffff808416600081815260016020908152604080832094871680845294825291829020859055815185815291517f8c5be1e5ebec7d5bd14f71427d1e84f3dd0314c0f7b2291e5b200ac8c7c3b9259281900390910190a3505050565b73ffffffffffffffffffffffffffffffffffffffff831661152e576040517f08c379a0000000000000000000000000000000000000000000000000000000008152600401808060200182810382526025815260200180611e826025913960400191505060405180910390fd5b73ffffffffffffffffffffffffffffffffffffffff821661159a576040517f08c379a0000000000000000000000000000000000000000000000000000000008152600401808060200182810382526023815260200180611d0c6023913960400191505060405180910390fd5b6115a5838383611c89565b6115f581604051806060016040528060268152602001611d736026913973ffffffffffffffffffffffffffffffffffffffff8616600090815260208190526040902054919063ffffffff61169e16565b73ffffffffffffffffffffffffffffffffffffffff8085166000908152602081905260408082209390935590841681522054611637908263ffffffff61174f16565b73ffffffffffffffffffffffffffffffffffffffff8084166000818152602081815260409182902094909455805185815290519193928716927fddf252ad1be2c89b69c2b068fc378daa952ba7f163c4a11628f55a4df523b3ef92918290030190a3505050565b60008184841115611747576040517f08c379a00000000000000000000000000000000000000000000000000000000081526004018080602001828103825283818151815260200191508051906020019080838360005b8381101561170c5781810151838201526020016116f4565b50505050905090810190601f1680156117395780820380516001836020036101000a031916815260200191505b509250505060405180910390fd5b505050900390565b6000828201838110156110ff57604080517f08c379a000000000000000000000000000000000000000000000000000000000815260206004820152601b60248201527f536166654d6174683a206164646974696f6e206f766572666c6f770000000000604482015290519081900360640190fd5b73ffffffffffffffffffffffffffffffffffffffff821661184557604080517f08c379a000000000000000000000000000000000000000000000000000000000815260206004820152601f60248201527f45524332303a206d696e7420746f20746865207a65726f206164647265737300604482015290519081900360640190fd5b61185160008383611c89565b600254611864908263ffffffff61174f16565b60025573ffffffffffffffffffffffffffffffffffffffff821660009081526020819052604090205461189d908263ffffffff61174f16565b73ffffffffffffffffffffffffffffffffffffffff83166000818152602081815260408083209490945583518581529351929391927fddf252ad1be2c89b69c2b068fc378daa952ba7f163c4a11628f55a4df523b3ef9281900390910190a35050565b73ffffffffffffffffffffffffffffffffffffffff821661196c576040517f08c379a0000000000000000000000000000000000000000000000000000000008152600401808060200182810382526021815260200180611e3e6021913960400191505060405180910390fd5b61197882600083611c89565b6119c881604051806060016040528060228152602001611d2f6022913973ffffffffffffffffffffffffffffffffffffffff8516600090815260208190526040902054919063ffffffff61169e16565b73ffffffffffffffffffffffffffffffffffffffff8316600090815260208190526040902055600254611a01908263ffffffff611c8e16565b60025560408051828152905160009173ffffffffffffffffffffffffffffffffffffffff8516917fddf252ad1be2c89b69c2b068fc378daa952ba7f163c4a11628f55a4df523b3ef9181900360200190a35050565b73ffffffffffffffffffffffffffffffffffffffff1660009081526020919091526040902080547fffffffffffffffffffffffffffffffffffffffffffffffffffffffffffffff00169055565b73ffffffffffffffffffffffffffffffffffffffff8116611b2557604080517f08c379a000000000000000000000000000000000000000000000000000000000815260206004820152601f60248201527f43616e6e6f74206164642030783020746f20612073686172656420726f6c6500604482015290519081900360640190fd5b73ffffffffffffffffffffffffffffffffffffffff1660009081526020919091526040902080547fffffffffffffffffffffffffffffffffffffffffffffffffffffffffffffff00166001179055565b905473ffffffffffffffffffffffffffffffffffffffff91821691161490565b73ffffffffffffffffffffffffffffffffffffffff166000908152602091909152604090205460ff1690565b5473ffffffffffffffffffffffffffffffffffffffff1690565b73ffffffffffffffffffffffffffffffffffffffff8116611c47576040517f08c379a0000000000000000000000000000000000000000000000000000000008152600401808060200182810382526023815260200180611e5f6023913960400191505060405180910390fd5b81547fffffffffffffffffffffffff00000000000000000000000000000000000000001673ffffffffffffffffffffffffffffffffffffffff91909116179055565b505050565b60006110ff83836040518060400160405280601e81526020017f536166654d6174683a207375627472616374696f6e206f766572666c6f77000081525061169e565b610a1f8282611bdb565b60005b8151811015611c8957611d0383838381518110611cf657fe5b6020026020010151611aa3565b600101611cdd56fe45524332303a207472616e7366657220746f20746865207a65726f206164647265737345524332303a206275726e20616d6f756e7420657863656564732062616c616e636545524332303a20617070726f766520746f20746865207a65726f206164647265737345524332303a207472616e7366657220616d6f756e7420657863656564732062616c616e63654d7573742062652063616c6c6564206f6e20616e20696e697469616c697a6564204578636c757369766520726f6c654d7573742062652063616c6c6564206f6e20616e20696e697469616c697a65642053686172656420726f6c6553656e64657220646f6573206e6f7420686f6c6420726571756972656420726f6c6545524332303a207472616e7366657220616d6f756e74206578636565647320616c6c6f77616e636545524332303a206275726e2066726f6d20746865207a65726f206164647265737343616e6e6f742073657420616e206578636c757369766520726f6c6520746f2030783045524332303a207472616e736665722066726f6d20746865207a65726f206164647265737345524332303a20617070726f76652066726f6d20746865207a65726f206164647265737343616e206f6e6c792062652063616c6c6564206279206120726f6c65206d616e6167657245524332303a2064656372656173656420616c6c6f77616e63652062656c6f77207a65726fa26469706673582212209ca084916bb7d6cda8198edf82712b2e20c1e5e2b5c21c5503662d407bc89fbf64736f6c63430006040033417474656d7074656420746f2075736520616e20696e76616c696420726f6c6520746f206d616e61676520616e206578636c757369766520726f6c6543616e6e6f742073657420616e206578636c757369766520726f6c6520746f20307830417474656d7074656420746f2075736520616e20696e76616c696420726f6c6520746f206d616e61676520612073686172656420726f6c65",
  "source": "pragma solidity ^0.6.0;\nimport \"../../common/implementation/ExpandedERC20.sol\";\nimport \"../../common/implementation/Lockable.sol\";\n\n\n/**\n * @title Burnable and mintable ERC20.\n * @dev The contract deployer will initially be the only minter, burner and owner capable of adding new roles.\n */\n\ncontract SyntheticToken is ExpandedERC20, Lockable {\n    /**\n     * @notice Constructs the SyntheticToken.\n     * @param tokenName The name which describes the new token.\n     * @param tokenSymbol The ticker abbreviation of the name. Ideally < 5 chars.\n     * @param tokenDecimals The number of decimals to define token precision.\n     */\n    constructor(\n        string memory tokenName,\n        string memory tokenSymbol,\n        uint8 tokenDecimals\n    ) public ExpandedERC20(tokenName, tokenSymbol, tokenDecimals) nonReentrant() {}\n\n    /**\n     * @notice Add Minter role to account.\n     * @dev The caller must have the Owner role.\n     * @param account The address to which the Minter role is added.\n     */\n    function addMinter(address account) external nonReentrant() {\n        addMember(uint256(Roles.Minter), account);\n    }\n\n    /**\n     * @notice Remove Minter role from account.\n     * @dev The caller must have the Owner role.\n     * @param account The address from which the Minter role is removed.\n     */\n    function removeMinter(address account) external nonReentrant() {\n        removeMember(uint256(Roles.Minter), account);\n    }\n\n    /**\n     * @notice Add Burner role to account.\n     * @dev The caller must have the Owner role.\n     * @param account The address to which the Burner role is added.\n     */\n    function addBurner(address account) external nonReentrant() {\n        addMember(uint256(Roles.Burner), account);\n    }\n\n    /**\n     * @notice Removes Burner role from account.\n     * @dev The caller must have the Owner role.\n     * @param account The address from which the Burner role is removed.\n     */\n    function removeBurner(address account) external nonReentrant() {\n        removeMember(uint256(Roles.Burner), account);\n    }\n\n    /**\n     * @notice Reset Owner role to account.\n     * @dev The caller must have the Owner role.\n     * @param account The new holder of the Owner role.\n     */\n    function resetOwner(address account) external nonReentrant() {\n        resetMember(uint256(Roles.Owner), account);\n    }\n\n    /**\n     * @notice Checks if a given account holds the Minter role.\n     * @param account The address which is checked for the Minter role.\n     * @return bool True if the provided account is a Minter.\n     */\n    function isMinter(address account) public view nonReentrantView() returns (bool) {\n        return holdsRole(uint256(Roles.Minter), account);\n    }\n\n    /**\n     * @notice Checks if a given account holds the Burner role.\n     * @param account The address which is checked for the Burner role.\n     * @return bool True if the provided account is a Burner.\n     */\n    function isBurner(address account) public view nonReentrantView() returns (bool) {\n        return holdsRole(uint256(Roles.Burner), account);\n    }\n}\n",
  "sourcePath": "/home/alessandrovm/JarvisLavoro/SynFiat/packages/contracts/contracts/uma-contracts/financial-templates/common/SyntheticToken.sol",
  "compiler": {
    "name": "solc",
    "version": "0.6.4+commit.1dca32f3.Emscripten.clang"
  },
  "schemaVersion": "3.2.0",
  "updatedAt": "2020-09-17T18:56:01.926Z",
  "devdoc": {
    "details": "The contract deployer will initially be the only minter, burner and owner capable of adding new roles.",
    "methods": {
      "addBurner(address)": {
        "details": "The caller must have the Owner role.",
        "params": {
          "account": "The address to which the Burner role is added."
        }
      },
      "addMember(uint256,address)": {
        "details": "Reverts if `roleId` does not represent an initialized, SharedRole or if the caller is not a member of the managing role for `roleId`.",
        "params": {
          "newMember": "the new SharedRole member.",
          "roleId": "the SharedRole membership to modify."
        }
      },
      "addMinter(address)": {
        "details": "The caller must have the Owner role.",
        "params": {
          "account": "The address to which the Minter role is added."
        }
      },
      "allowance(address,address)": {
        "details": "See {IERC20-allowance}."
      },
      "approve(address,uint256)": {
        "details": "See {IERC20-approve}.     * Requirements:     * - `spender` cannot be the zero address."
      },
      "balanceOf(address)": {
        "details": "See {IERC20-balanceOf}."
      },
      "burn(uint256)": {
        "details": "Burns `value` tokens owned by `msg.sender`.",
        "params": {
          "value": "amount of tokens to burn."
        }
      },
      "constructor": {
        "params": {
          "tokenDecimals": "The number of decimals to define token precision.",
          "tokenName": "The name which describes the new token.",
          "tokenSymbol": "The ticker abbreviation of the name. Ideally < 5 chars."
        }
      },
      "decimals()": {
        "details": "Returns the number of decimals used to get its user representation. For example, if `decimals` equals `2`, a balance of `505` tokens should be displayed to a user as `5,05` (`505 / 10 ** 2`).     * Tokens usually opt for a value of 18, imitating the relationship between Ether and Wei. This is the value {ERC20} uses, unless {_setupDecimals} is called.     * NOTE: This information is only used for _display_ purposes: it in no way affects any of the arithmetic of the contract, including {IERC20-balanceOf} and {IERC20-transfer}."
      },
      "decreaseAllowance(address,uint256)": {
        "details": "Atomically decreases the allowance granted to `spender` by the caller.     * This is an alternative to {approve} that can be used as a mitigation for problems described in {IERC20-approve}.     * Emits an {Approval} event indicating the updated allowance.     * Requirements:     * - `spender` cannot be the zero address. - `spender` must have allowance for the caller of at least `subtractedValue`."
      },
      "getMember(uint256)": {
        "details": "Reverts if `roleId` does not represent an initialized, exclusive role.",
        "params": {
          "roleId": "the ExclusiveRole membership to check."
        },
        "returns": {
          "_0": "the address of the current ExclusiveRole member."
        }
      },
      "holdsRole(uint256,address)": {
        "details": "Reverts if roleId does not correspond to an initialized role.",
        "params": {
          "memberToCheck": "the address to check.",
          "roleId": "the Role to check."
        },
        "returns": {
          "_0": "True if `memberToCheck` is a member of `roleId`."
        }
      },
      "increaseAllowance(address,uint256)": {
        "details": "Atomically increases the allowance granted to `spender` by the caller.     * This is an alternative to {approve} that can be used as a mitigation for problems described in {IERC20-approve}.     * Emits an {Approval} event indicating the updated allowance.     * Requirements:     * - `spender` cannot be the zero address."
      },
      "isBurner(address)": {
        "params": {
          "account": "The address which is checked for the Burner role."
        },
        "returns": {
          "_0": "bool True if the provided account is a Burner."
        }
      },
      "isMinter(address)": {
        "params": {
          "account": "The address which is checked for the Minter role."
        },
        "returns": {
          "_0": "bool True if the provided account is a Minter."
        }
      },
      "mint(address,uint256)": {
        "details": "Mints `value` tokens to `recipient`, returning true on success.",
        "params": {
          "recipient": "address to mint to.",
          "value": "amount of tokens to mint."
        },
        "returns": {
          "_0": "True if the mint succeeded, or False."
        }
      },
      "name()": {
        "details": "Returns the name of the token."
      },
      "removeBurner(address)": {
        "details": "The caller must have the Owner role.",
        "params": {
          "account": "The address from which the Burner role is removed."
        }
      },
      "removeMember(uint256,address)": {
        "details": "Reverts if `roleId` does not represent an initialized, SharedRole or if the caller is not a member of the managing role for `roleId`.",
        "params": {
          "memberToRemove": "the current SharedRole member to remove.",
          "roleId": "the SharedRole membership to modify."
        }
      },
      "removeMinter(address)": {
        "details": "The caller must have the Owner role.",
        "params": {
          "account": "The address from which the Minter role is removed."
        }
      },
      "renounceMembership(uint256)": {
        "details": "Reverts if the caller is not a member of the role for `roleId` or if `roleId` is not an initialized, SharedRole.",
        "params": {
          "roleId": "the SharedRole membership to modify."
        }
      },
      "resetMember(uint256,address)": {
        "details": "Reverts if the caller is not a member of the managing role for `roleId` or if `roleId` is not an initialized, ExclusiveRole.",
        "params": {
          "newMember": "the new ExclusiveRole member.",
          "roleId": "the ExclusiveRole membership to modify."
        }
      },
      "resetOwner(address)": {
        "details": "The caller must have the Owner role.",
        "params": {
          "account": "The new holder of the Owner role."
        }
      },
      "symbol()": {
        "details": "Returns the symbol of the token, usually a shorter version of the name."
      },
      "totalSupply()": {
        "details": "See {IERC20-totalSupply}."
      },
      "transfer(address,uint256)": {
        "details": "See {IERC20-transfer}.     * Requirements:     * - `recipient` cannot be the zero address. - the caller must have a balance of at least `amount`."
      },
      "transferFrom(address,address,uint256)": {
        "details": "See {IERC20-transferFrom}.     * Emits an {Approval} event indicating the updated allowance. This is not required by the EIP. See the note at the beginning of {ERC20};     * Requirements: - `sender` and `recipient` cannot be the zero address. - `sender` must have a balance of at least `amount`. - the caller must have allowance for ``sender``'s tokens of at least `amount`."
      }
    },
    "title": "Burnable and mintable ERC20."
  },
  "userdoc": {
    "methods": {
      "addBurner(address)": {
        "notice": "Add Burner role to account."
      },
      "addMember(uint256,address)": {
        "notice": "Adds `newMember` to the shared role, `roleId`."
      },
      "addMinter(address)": {
        "notice": "Add Minter role to account."
      },
      "constructor": "Constructs the SyntheticToken.",
      "getMember(uint256)": {
        "notice": "Gets the current holder of the exclusive role, `roleId`."
      },
      "holdsRole(uint256,address)": {
        "notice": "Whether `memberToCheck` is a member of roleId."
      },
      "isBurner(address)": {
        "notice": "Checks if a given account holds the Burner role."
      },
      "isMinter(address)": {
        "notice": "Checks if a given account holds the Minter role."
      },
      "removeBurner(address)": {
        "notice": "Removes Burner role from account."
      },
      "removeMember(uint256,address)": {
        "notice": "Removes `memberToRemove` from the shared role, `roleId`."
      },
      "removeMinter(address)": {
        "notice": "Remove Minter role from account."
      },
      "renounceMembership(uint256)": {
        "notice": "Removes caller from the role, `roleId`."
      },
      "resetMember(uint256,address)": {
        "notice": "Changes the exclusive role holder of `roleId` to `newMember`."
      },
      "resetOwner(address)": {
        "notice": "Reset Owner role to account."
      }
    }
  }
}