{
  "contractName": "TestableTest",
  "abi": [
    {
      "inputs": [
        {
          "internalType": "bool",
          "name": "_isTest",
          "type": "bool"
        }
      ],
      "stateMutability": "nonpayable",
      "type": "constructor"
    },
    {
      "inputs": [],
      "name": "getCurrentTime",
      "outputs": [
        {
          "internalType": "uint256",
          "name": "",
          "type": "uint256"
        }
      ],
      "stateMutability": "view",
      "type": "function"
    },
    {
      "inputs": [],
      "name": "isTest",
      "outputs": [
        {
          "internalType": "bool",
          "name": "",
          "type": "bool"
        }
      ],
      "stateMutability": "view",
      "type": "function"
    },
    {
      "inputs": [
        {
          "internalType": "uint256",
          "name": "_time",
          "type": "uint256"
        }
      ],
      "name": "setCurrentTime",
      "outputs": [],
      "stateMutability": "nonpayable",
      "type": "function"
    },
    {
      "inputs": [],
      "name": "getTestableTimeAndBlockTime",
      "outputs": [
        {
          "internalType": "uint256",
          "name": "testableTime",
          "type": "uint256"
        },
        {
          "internalType": "uint256",
          "name": "blockTime",
          "type": "uint256"
        }
      ],
      "stateMutability": "view",
      "type": "function"
    }
  ],
  "bytecode": "0x608060405234801561001057600080fd5b506040516101983803806101988339818101604052602081101561003357600080fd5b50516000805460ff19168215801591909117909155819061005357426001555b5050610134806100646000396000f3fe6080604052348015600f57600080fd5b506004361060465760003560e01c806322f8e56614604b57806329cb924d1460675780639381a34514607f578063dc6ff7bd146099575b600080fd5b606560048036036020811015605f57600080fd5b503560b8565b005b606d60cb565b60408051918252519081900360200190f35b608560e4565b604080519115158252519081900360200190f35b609f60ed565b6040805192835260208301919091528051918290030190f35b60005460ff1660c657600080fd5b600155565b6000805460ff161560de575060015460e1565b50425b90565b60005460ff1681565b60008060f660cb565b92429250905056fea26469706673582212203c00732ba728e58a9646fbe8421c7943a202917f1432e64df1ea658635bfb69164736f6c63430006040033",
  "source": "pragma solidity ^0.6.0;\n\nimport \"../implementation/Testable.sol\";\n\n\n// TestableTest is derived from the abstract contract Testable for testing purposes.\ncontract TestableTest is Testable {\n    // solhint-disable-next-line no-empty-blocks\n    constructor(bool _isTest) public Testable(_isTest) {}\n\n    function getTestableTimeAndBlockTime() external view returns (uint testableTime, uint blockTime) {\n        // solhint-disable-next-line not-rely-on-time\n        return (getCurrentTime(), now);\n    }\n}\n",
  "sourcePath": "/home/opz/Projects/SynFiat/contracts/uma-contracts/common/test/TestableTest.sol",
  "compiler": {
    "name": "solc",
    "version": "0.6.4+commit.1dca32f3.Emscripten.clang"
  },
  "schemaVersion": "3.2.0",
  "updatedAt": "2020-06-01T04:24:41.787Z",
  "devdoc": {
    "methods": {
      "setCurrentTime(uint256)": {
        "details": "Will revert if not running in test mode."
      }
    }
  },
  "userdoc": {
    "methods": {
      "getCurrentTime()": {
        "notice": "Gets the current time. Will return the last time set in `setCurrentTime` if running in test mode. Otherwise, it will return the block timestamp."
      },
      "setCurrentTime(uint256)": {
        "notice": "Sets the current time."
      }
    }
  }
}