{
  "contractName": "TIC",
  "abi": [
    {
      "inputs": [
        {
          "internalType": "contract IExpiringMultiParty",
          "name": "_derivative",
          "type": "address"
        },
        {
          "internalType": "address",
          "name": "_liquidityProvider",
          "type": "address"
        },
        {
          "internalType": "address",
          "name": "_validator",
          "type": "address"
        },
        {
          "internalType": "uint256",
          "name": "_startingCollateralization",
          "type": "uint256"
        },
        {
          "components": [
            {
              "components": [
                {
                  "internalType": "uint256",
                  "name": "rawValue",
                  "type": "uint256"
                }
              ],
              "internalType": "struct FixedPoint.Unsigned",
              "name": "feePercentage",
              "type": "tuple"
            },
            {
              "internalType": "address[]",
              "name": "feeRecipients",
              "type": "address[]"
            },
            {
              "internalType": "uint32[]",
              "name": "feeProportions",
              "type": "uint32[]"
            }
          ],
          "internalType": "struct TICInterface.Fee",
          "name": "_fee",
          "type": "tuple"
        }
      ],
      "stateMutability": "nonpayable",
      "type": "constructor"
    },
    {
      "anonymous": false,
      "inputs": [
        {
          "indexed": false,
          "internalType": "bytes32",
          "name": "exchangeID",
          "type": "bytes32"
        },
        {
          "indexed": true,
          "internalType": "address",
          "name": "sender",
          "type": "address"
        }
      ],
      "name": "ExchangeApproved",
      "type": "event"
    },
    {
      "anonymous": false,
      "inputs": [
        {
          "indexed": false,
          "internalType": "bytes32",
          "name": "exchangeID",
          "type": "bytes32"
        },
        {
          "indexed": true,
          "internalType": "address",
          "name": "sender",
          "type": "address"
        }
      ],
      "name": "ExchangeRejected",
      "type": "event"
    },
    {
      "anonymous": false,
      "inputs": [
        {
          "indexed": false,
          "internalType": "bytes32",
          "name": "exchangeID",
          "type": "bytes32"
        },
        {
          "indexed": false,
          "internalType": "uint256",
          "name": "timestamp",
          "type": "uint256"
        },
        {
          "indexed": true,
          "internalType": "address",
          "name": "sender",
          "type": "address"
        },
        {
          "indexed": false,
          "internalType": "address",
          "name": "destTIC",
          "type": "address"
        },
        {
          "indexed": false,
          "internalType": "uint256",
          "name": "numTokens",
          "type": "uint256"
        },
        {
          "indexed": false,
          "internalType": "uint256",
          "name": "destNumTokens",
          "type": "uint256"
        }
      ],
      "name": "ExchangeRequested",
      "type": "event"
    },
    {
      "anonymous": false,
      "inputs": [
        {
          "indexed": false,
          "internalType": "bytes32",
          "name": "mintID",
          "type": "bytes32"
        },
        {
          "indexed": true,
          "internalType": "address",
          "name": "sender",
          "type": "address"
        }
      ],
      "name": "MintApproved",
      "type": "event"
    },
    {
      "anonymous": false,
      "inputs": [
        {
          "indexed": false,
          "internalType": "bytes32",
          "name": "mintID",
          "type": "bytes32"
        },
        {
          "indexed": true,
          "internalType": "address",
          "name": "sender",
          "type": "address"
        }
      ],
      "name": "MintRejected",
      "type": "event"
    },
    {
      "anonymous": false,
      "inputs": [
        {
          "indexed": false,
          "internalType": "bytes32",
          "name": "mintID",
          "type": "bytes32"
        },
        {
          "indexed": false,
          "internalType": "uint256",
          "name": "timestamp",
          "type": "uint256"
        },
        {
          "indexed": true,
          "internalType": "address",
          "name": "sender",
          "type": "address"
        },
        {
          "indexed": false,
          "internalType": "uint256",
          "name": "collateralAmount",
          "type": "uint256"
        },
        {
          "indexed": false,
          "internalType": "uint256",
          "name": "numTokens",
          "type": "uint256"
        }
      ],
      "name": "MintRequested",
      "type": "event"
    },
    {
      "anonymous": false,
      "inputs": [
        {
          "indexed": false,
          "internalType": "bytes32",
          "name": "redeemID",
          "type": "bytes32"
        },
        {
          "indexed": true,
          "internalType": "address",
          "name": "sender",
          "type": "address"
        }
      ],
      "name": "RedeemApproved",
      "type": "event"
    },
    {
      "anonymous": false,
      "inputs": [
        {
          "indexed": false,
          "internalType": "bytes32",
          "name": "redeemID",
          "type": "bytes32"
        },
        {
          "indexed": true,
          "internalType": "address",
          "name": "sender",
          "type": "address"
        }
      ],
      "name": "RedeemRejected",
      "type": "event"
    },
    {
      "anonymous": false,
      "inputs": [
        {
          "indexed": false,
          "internalType": "bytes32",
          "name": "redeemID",
          "type": "bytes32"
        },
        {
          "indexed": false,
          "internalType": "uint256",
          "name": "timestamp",
          "type": "uint256"
        },
        {
          "indexed": true,
          "internalType": "address",
          "name": "sender",
          "type": "address"
        },
        {
          "indexed": false,
          "internalType": "uint256",
          "name": "collateralAmount",
          "type": "uint256"
        },
        {
          "indexed": false,
          "internalType": "uint256",
          "name": "numTokens",
          "type": "uint256"
        }
      ],
      "name": "RedeemRequested",
      "type": "event"
    },
    {
      "inputs": [
        {
          "internalType": "uint256",
          "name": "collateralAmount",
          "type": "uint256"
        },
        {
          "internalType": "uint256",
          "name": "numTokens",
          "type": "uint256"
        }
      ],
      "name": "mintRequest",
      "outputs": [],
      "stateMutability": "nonpayable",
      "type": "function"
    },
    {
      "inputs": [
        {
          "internalType": "bytes32",
          "name": "mintID",
          "type": "bytes32"
        }
      ],
      "name": "approveMint",
      "outputs": [],
      "stateMutability": "nonpayable",
      "type": "function"
    },
    {
      "inputs": [
        {
          "internalType": "bytes32",
          "name": "mintID",
          "type": "bytes32"
        }
      ],
      "name": "rejectMint",
      "outputs": [],
      "stateMutability": "nonpayable",
      "type": "function"
    },
    {
      "inputs": [
        {
          "internalType": "uint256",
          "name": "collateralAmount",
          "type": "uint256"
        }
      ],
      "name": "deposit",
      "outputs": [],
      "stateMutability": "nonpayable",
      "type": "function"
    },
    {
      "inputs": [
        {
          "internalType": "uint256",
          "name": "collateralAmount",
          "type": "uint256"
        }
      ],
      "name": "withdraw",
      "outputs": [],
      "stateMutability": "nonpayable",
      "type": "function"
    },
    {
      "inputs": [
        {
          "internalType": "uint256",
          "name": "collateralAmount",
          "type": "uint256"
        },
        {
          "internalType": "uint256",
          "name": "numTokens",
          "type": "uint256"
        }
      ],
      "name": "exchangeMint",
      "outputs": [],
      "stateMutability": "nonpayable",
      "type": "function"
    },
    {
      "inputs": [
        {
          "internalType": "uint256",
          "name": "collateralAmount",
          "type": "uint256"
        }
      ],
      "name": "withdrawRequest",
      "outputs": [],
      "stateMutability": "nonpayable",
      "type": "function"
    },
    {
      "inputs": [],
      "name": "withdrawPassedRequest",
      "outputs": [],
      "stateMutability": "nonpayable",
      "type": "function"
    },
    {
      "inputs": [
        {
          "internalType": "uint256",
          "name": "collateralAmount",
          "type": "uint256"
        },
        {
          "internalType": "uint256",
          "name": "numTokens",
          "type": "uint256"
        }
      ],
      "name": "redeemRequest",
      "outputs": [],
      "stateMutability": "nonpayable",
      "type": "function"
    },
    {
      "inputs": [
        {
          "internalType": "bytes32",
          "name": "redeemID",
          "type": "bytes32"
        }
      ],
      "name": "approveRedeem",
      "outputs": [],
      "stateMutability": "nonpayable",
      "type": "function"
    },
    {
      "inputs": [
        {
          "internalType": "bytes32",
          "name": "redeemID",
          "type": "bytes32"
        }
      ],
      "name": "rejectRedeem",
      "outputs": [],
      "stateMutability": "nonpayable",
      "type": "function"
    },
    {
      "inputs": [],
      "name": "settleExpired",
      "outputs": [],
      "stateMutability": "nonpayable",
      "type": "function"
    },
    {
      "inputs": [
        {
          "internalType": "contract TICInterface",
          "name": "destTIC",
          "type": "address"
        },
        {
          "internalType": "uint256",
          "name": "numTokens",
          "type": "uint256"
        },
        {
          "internalType": "uint256",
          "name": "collateralAmount",
          "type": "uint256"
        },
        {
          "internalType": "uint256",
          "name": "destNumTokens",
          "type": "uint256"
        }
      ],
      "name": "exchangeRequest",
      "outputs": [],
      "stateMutability": "nonpayable",
      "type": "function"
    },
    {
      "inputs": [
        {
          "internalType": "bytes32",
          "name": "exchangeID",
          "type": "bytes32"
        }
      ],
      "name": "approveExchange",
      "outputs": [],
      "stateMutability": "nonpayable",
      "type": "function"
    },
    {
      "inputs": [
        {
          "internalType": "bytes32",
          "name": "exchangeID",
          "type": "bytes32"
        }
      ],
      "name": "rejectExchange",
      "outputs": [],
      "stateMutability": "nonpayable",
      "type": "function"
    },
    {
      "inputs": [],
      "name": "derivative",
      "outputs": [
        {
          "internalType": "contract IExpiringMultiParty",
          "name": "",
          "type": "address"
        }
      ],
      "stateMutability": "view",
      "type": "function",
      "constant": true
    },
    {
      "inputs": [],
      "name": "collateralToken",
      "outputs": [
        {
          "internalType": "contract IERC20",
          "name": "",
          "type": "address"
        }
      ],
      "stateMutability": "view",
      "type": "function",
      "constant": true
    },
    {
      "inputs": [],
      "name": "syntheticToken",
      "outputs": [
        {
          "internalType": "contract IERC20",
          "name": "",
          "type": "address"
        }
      ],
      "stateMutability": "view",
      "type": "function",
      "constant": true
    },
    {
      "inputs": [
        {
          "internalType": "uint256",
          "name": "collateralAmount",
          "type": "uint256"
        }
      ],
      "name": "calculateFee",
      "outputs": [
        {
          "internalType": "uint256",
          "name": "",
          "type": "uint256"
        }
      ],
      "stateMutability": "view",
      "type": "function",
      "constant": true
    },
    {
      "inputs": [],
      "name": "getMintRequests",
      "outputs": [
        {
          "components": [
            {
              "internalType": "bytes32",
              "name": "mintID",
              "type": "bytes32"
            },
            {
              "internalType": "uint256",
              "name": "timestamp",
              "type": "uint256"
            },
            {
              "internalType": "address",
              "name": "sender",
              "type": "address"
            },
            {
              "components": [
                {
                  "internalType": "uint256",
                  "name": "rawValue",
                  "type": "uint256"
                }
              ],
              "internalType": "struct FixedPoint.Unsigned",
              "name": "collateralAmount",
              "type": "tuple"
            },
            {
              "components": [
                {
                  "internalType": "uint256",
                  "name": "rawValue",
                  "type": "uint256"
                }
              ],
              "internalType": "struct FixedPoint.Unsigned",
              "name": "numTokens",
              "type": "tuple"
            }
          ],
          "internalType": "struct TICInterface.MintRequest[]",
          "name": "",
          "type": "tuple[]"
        }
      ],
      "stateMutability": "view",
      "type": "function",
      "constant": true
    },
    {
      "inputs": [],
      "name": "getRedeemRequests",
      "outputs": [
        {
          "components": [
            {
              "internalType": "bytes32",
              "name": "redeemID",
              "type": "bytes32"
            },
            {
              "internalType": "uint256",
              "name": "timestamp",
              "type": "uint256"
            },
            {
              "internalType": "address",
              "name": "sender",
              "type": "address"
            },
            {
              "components": [
                {
                  "internalType": "uint256",
                  "name": "rawValue",
                  "type": "uint256"
                }
              ],
              "internalType": "struct FixedPoint.Unsigned",
              "name": "collateralAmount",
              "type": "tuple"
            },
            {
              "components": [
                {
                  "internalType": "uint256",
                  "name": "rawValue",
                  "type": "uint256"
                }
              ],
              "internalType": "struct FixedPoint.Unsigned",
              "name": "numTokens",
              "type": "tuple"
            }
          ],
          "internalType": "struct TICInterface.RedeemRequest[]",
          "name": "",
          "type": "tuple[]"
        }
      ],
      "stateMutability": "view",
      "type": "function",
      "constant": true
    },
    {
      "inputs": [],
      "name": "getExchangeRequests",
      "outputs": [
        {
          "components": [
            {
              "internalType": "bytes32",
              "name": "exchangeID",
              "type": "bytes32"
            },
            {
              "internalType": "uint256",
              "name": "timestamp",
              "type": "uint256"
            },
            {
              "internalType": "address",
              "name": "sender",
              "type": "address"
            },
            {
              "internalType": "contract TICInterface",
              "name": "destTIC",
              "type": "address"
            },
            {
              "components": [
                {
                  "internalType": "uint256",
                  "name": "rawValue",
                  "type": "uint256"
                }
              ],
              "internalType": "struct FixedPoint.Unsigned",
              "name": "numTokens",
              "type": "tuple"
            },
            {
              "components": [
                {
                  "internalType": "uint256",
                  "name": "rawValue",
                  "type": "uint256"
                }
              ],
              "internalType": "struct FixedPoint.Unsigned",
              "name": "collateralAmount",
              "type": "tuple"
            },
            {
              "components": [
                {
                  "internalType": "uint256",
                  "name": "rawValue",
                  "type": "uint256"
                }
              ],
              "internalType": "struct FixedPoint.Unsigned",
              "name": "destNumTokens",
              "type": "tuple"
            }
          ],
          "internalType": "struct TICInterface.ExchangeRequest[]",
          "name": "",
          "type": "tuple[]"
        }
      ],
      "stateMutability": "view",
      "type": "function",
      "constant": true
    }
  ],
  "bytecode": "0x60806040523480156200001157600080fd5b5060405162002996380380620029968339810160408190526200003491620001af565b6000805460ff19166001179081905560ff166200006e5760405162461bcd60e51b815260040162000065906200036a565b60405180910390fd5b6000805460ff1916905560408051602081018252838152905163de95134160e01b815273__TICHelper_____________________________9163de95134191620000c7916001918a918a918a91908990600401620003a1565b60006040518083038186803b158015620000e057600080fd5b505af4158015620000f5573d6000803e3d6000fd5b50506000805460ff1916600117905550620004b895505050505050565b80516200011f816200049f565b92915050565b600082601f83011262000136578081fd5b81516200014d62000147826200047f565b62000458565b8181529150602080830190848101818402860182018710156200016f57600080fd5b6000805b85811015620001a357825163ffffffff8116811462000190578283fd5b8552938301939183019160010162000173565b50505050505092915050565b600080600080600060a08688031215620001c7578081fd5b8551620001d4816200049f565b6020870151909550620001e7816200049f565b6040870151909450620001fa816200049f565b6060870151608088015191945092506001600160401b03808211156200021e578283fd5b8188016060818b03121562000231578384fd5b6200023d606062000458565b92506020818b0312156200024f578384fd5b6200025b602062000458565b81518152835260208101518281111562000273578485fd5b8082018b601f82011262000285578586fd5b805191506200029862000147836200047f565b80838252602082019150602083018e60208087028601011115620002ba578889fd5b8893505b84841015620002e957620002d38f8262000112565b83526001939093019260209283019201620002be565b50602087015250505060408101518281111562000304578485fd5b620003128b82840162000125565b6040850152505050809150509295509295909350565b6000815180845260208085019450808401835b838110156200035f57815163ffffffff16875295820195908201906001016200033b565b509495945050505050565b6020808252601f908201527f5265656e7472616e637947756172643a207265656e7472616e742063616c6c00604082015260600190565b6000878252602060018060a01b0380891682850152808816604085015280871660608501528551608085015260c060a0850152610120840185515160c086015282860151606060e08701528181518084526101408801915085830193508692505b80831015620004265783518516825292850192600192909201919085019062000402565b50604088015187820360bf1901610100890152945062000447818662000328565b9d9c50505050505050505050505050565b6040518181016001600160401b03811182821017156200047757600080fd5b604052919050565b60006001600160401b0382111562000495578081fd5b5060209081020190565b6001600160a01b0381168114620004b557600080fd5b50565b6124ce80620004c86000396000f3fe608060405234801561001057600080fd5b50600436106101825760003560e01c80638230ecd6116100d8578063b2016bd41161008c578063cca3595a11610066578063cca3595a146102ed578063eb9ce16314610300578063fcccedc71461031557610182565b8063b2016bd4146102bf578063b6b55f25146102c7578063b72d8ce9146102da57610182565b8063998fccc5116100bd578063998fccc51461027957806399a5d7471461028c5780639a8ca7df146102ac57610182565b80638230ecd61461025e5780638be76e011461026657610182565b806336a99ebd1161013a5780637242b9fc116101145780637242b9fc1461022557806374899a7e146102385780637c3970f21461024b57610182565b806336a99ebd146101ec57806350539aa8146101ff57806353c34f021461021257610182565b80631985a89f1161016b5780631985a89f146101ba5780632e1a7d4d146101cf57806333a46ca2146101e457610182565b80630e3e7ba714610187578063139d006c146101a5575b600080fd5b61018f61031d565b60405161019c91906121fd565b60405180910390f35b6101ad6103e8565b60405161019c91906120fa565b6101c26104ae565b60405161019c919061229c565b6101e26101dd366004611fec565b6104ca565b005b6101e2610643565b6101e26101fa366004611fec565b6107a6565b6101e261020d366004611fec565b610985565b6101e2610220366004611fec565b610b2f565b6101e2610233366004611fec565b610cd9565b6101e2610246366004611fec565b610e81565b6101e2610259366004612072565b610f91565b6101c2611134565b6101e2610274366004612072565b6111d7565b6101e2610287366004611fec565b611342565b61029f61029a366004611fec565b6114ec565b60405161019c919061223f565b6101e26102ba366004612038565b611520565b6101c26116d4565b6101e26102d5366004611fec565b6116f0565b6101e26102e8366004611fec565b611802565b6101e26102fb366004612072565b6119ac565b610308611ad8565b60405161019c91906121af565b6101e2611b9e565b6040517f77a7fa9e00000000000000000000000000000000000000000000000000000000815260609073__TICHelper_____________________________906377a7fa9e906103719060019060040161223f565b60006040518083038186803b15801561038957600080fd5b505af415801561039d573d6000803e3d6000fd5b505050506040513d6000823e601f3d9081017fffffffffffffffffffffffffffffffffffffffffffffffffffffffffffffffe01682016040526103e39190810190611f59565b905090565b6040517f4da5bc7b00000000000000000000000000000000000000000000000000000000815260609073__TICHelper_____________________________90634da5bc7b9061043c9060019060040161223f565b60006040518083038186803b15801561045457600080fd5b505af4158015610468573d6000803e3d6000fd5b505050506040513d6000823e601f3d9081017fffffffffffffffffffffffffffffffffffffffffffffffffffffffffffffffe01682016040526103e39190810190611e20565b60015473ffffffffffffffffffffffffffffffffffffffff1690565b60005460ff1661050f576040517f08c379a00000000000000000000000000000000000000000000000000000000081526004016105069061231a565b60405180910390fd5b600080547fffffffffffffffffffffffffffffffffffffffffffffffffffffffffffffff0016905560035473ffffffffffffffffffffffffffffffffffffffff163314610588576040517f08c379a000000000000000000000000000000000000000000000000000000000815260040161050690612351565b6040805160208101825282815290517faa67b60900000000000000000000000000000000000000000000000000000000815273__TICHelper_____________________________9163aa67b609916105e591600191600401612407565b60006040518083038186803b1580156105fd57600080fd5b505af4158015610611573d6000803e3d6000fd5b5050600080547fffffffffffffffffffffffffffffffffffffffffffffffffffffffffffffff00166001179055505050565b60035473ffffffffffffffffffffffffffffffffffffffff163314610694576040517f08c379a000000000000000000000000000000000000000000000000000000000815260040161050690612351565b60005460ff166106d0576040517f08c379a00000000000000000000000000000000000000000000000000000000081526004016105069061231a565b600080547fffffffffffffffffffffffffffffffffffffffffffffffffffffffffffffff001690556040517f1c647abd00000000000000000000000000000000000000000000000000000000815273__TICHelper_____________________________90631c647abd906107499060019060040161223f565b60006040518083038186803b15801561076157600080fd5b505af4158015610775573d6000803e3d6000fd5b5050600080547fffffffffffffffffffffffffffffffffffffffffffffffffffffffffffffff001660011790555050565b60045473ffffffffffffffffffffffffffffffffffffffff1633146107f7576040517f08c379a000000000000000000000000000000000000000000000000000000000815260040161050690612388565b60005460ff16610833576040517f08c379a00000000000000000000000000000000000000000000000000000000081526004016105069061231a565b600080547fffffffffffffffffffffffffffffffffffffffffffffffffffffffffffffff00168155818152600e6020526040908190206002015490517ff2b66f0900000000000000000000000000000000000000000000000000000000815273ffffffffffffffffffffffffffffffffffffffff9091169073__TICHelper_____________________________9063f2b66f09906108d89060019086906004016123bf565b60006040518083038186803b1580156108f057600080fd5b505af4158015610904573d6000803e3d6000fd5b505050508073ffffffffffffffffffffffffffffffffffffffff167fcfa4c7018a3b09267833d13734668d7325e5e99a9607b892d417207b058f20d38360405161094e919061223f565b60405180910390a25050600080547fffffffffffffffffffffffffffffffffffffffffffffffffffffffffffffff00166001179055565b60005460ff166109c1576040517f08c379a00000000000000000000000000000000000000000000000000000000081526004016105069061231a565b600080547fffffffffffffffffffffffffffffffffffffffffffffffffffffffffffffff0016905560045473ffffffffffffffffffffffffffffffffffffffff163314610a3a576040517f08c379a000000000000000000000000000000000000000000000000000000000815260040161050690612388565b600081815260116020526040908190206002015490517f2368045a00000000000000000000000000000000000000000000000000000000815273ffffffffffffffffffffffffffffffffffffffff9091169073__TICHelper_____________________________90632368045a90610ab99060019086906004016123bf565b60006040518083038186803b158015610ad157600080fd5b505af4158015610ae5573d6000803e3d6000fd5b505050508073ffffffffffffffffffffffffffffffffffffffff167ff8eaec7c1b7b19060d1594532caca20fa4cb9d60c5f61244fa2487f341a29f0f8360405161094e919061223f565b60005460ff16610b6b576040517f08c379a00000000000000000000000000000000000000000000000000000000081526004016105069061231a565b600080547fffffffffffffffffffffffffffffffffffffffffffffffffffffffffffffff0016905560045473ffffffffffffffffffffffffffffffffffffffff163314610be4576040517f08c379a000000000000000000000000000000000000000000000000000000000815260040161050690612388565b600081815260116020526040908190206002015490517fa56a6d5200000000000000000000000000000000000000000000000000000000815273ffffffffffffffffffffffffffffffffffffffff9091169073__TICHelper_____________________________9063a56a6d5290610c639060019086906004016123bf565b60006040518083038186803b158015610c7b57600080fd5b505af4158015610c8f573d6000803e3d6000fd5b505050508073ffffffffffffffffffffffffffffffffffffffff167f5cdff20fff2ad36b72ea16dd9b7027f3d53880d2aa7c7f3b66404e9c1a1424938360405161094e919061223f565b60045473ffffffffffffffffffffffffffffffffffffffff163314610d2a576040517f08c379a000000000000000000000000000000000000000000000000000000000815260040161050690612388565b60005460ff16610d66576040517f08c379a00000000000000000000000000000000000000000000000000000000081526004016105069061231a565b600080547fffffffffffffffffffffffffffffffffffffffffffffffffffffffffffffff00168155818152600e6020526040908190206002015490517fad0bdda100000000000000000000000000000000000000000000000000000000815273ffffffffffffffffffffffffffffffffffffffff9091169073__TICHelper_____________________________9063ad0bdda190610e0b9060019086906004016123bf565b60006040518083038186803b158015610e2357600080fd5b505af4158015610e37573d6000803e3d6000fd5b505050508073ffffffffffffffffffffffffffffffffffffffff167fc1257c3422a2d5dd3e6112d41b825533c33b8a91bc88cffb2d298c30f1828fe58360405161094e919061223f565b60035473ffffffffffffffffffffffffffffffffffffffff163314610ed2576040517f08c379a000000000000000000000000000000000000000000000000000000000815260040161050690612351565b60005460ff16610f0e576040517f08c379a00000000000000000000000000000000000000000000000000000000081526004016105069061231a565b600080547fffffffffffffffffffffffffffffffffffffffffffffffffffffffffffffff001690556040805160208101825282815290517e12b1f800000000000000000000000000000000000000000000000000000000815273__TICHelper_____________________________916212b1f8916105e591600191600401612407565b60005460ff16610fcd576040517f08c379a00000000000000000000000000000000000000000000000000000000081526004016105069061231a565b600080547fffffffffffffffffffffffffffffffffffffffffffffffffffffffffffffff0016815560408051602080820183528582528251908101835284815291517fb85fa0c200000000000000000000000000000000000000000000000000000000815273__TICHelper_____________________________9263b85fa0c29261105e9260019290600401612416565b60206040518083038186803b15801561107657600080fd5b505af415801561108a573d6000803e3d6000fd5b505050506040513d601f19601f820116820180604052508101906110ae9190612004565b90503373ffffffffffffffffffffffffffffffffffffffff167f1f2447cc38f55ebf1671418d6998b2d2f7774152ab993d79154e01e29d9bf677824286866040516110fc9493929190612281565b60405180910390a25050600080547fffffffffffffffffffffffffffffffffffffffffffffffffffffffffffffff0016600117905550565b600154604080517f7048594b000000000000000000000000000000000000000000000000000000008152905160009273ffffffffffffffffffffffffffffffffffffffff1691637048594b916004808301926020929190829003018186803b15801561119f57600080fd5b505afa1580156111b3573d6000803e3d6000fd5b505050506040513d601f19601f820116820180604052508101906103e3919061201c565b60005460ff16611213576040517f08c379a00000000000000000000000000000000000000000000000000000000081526004016105069061231a565b600080547fffffffffffffffffffffffffffffffffffffffffffffffffffffffffffffff0016815560408051602080820183528582528251908101835284815291517f99ecc8ee00000000000000000000000000000000000000000000000000000000815273__TICHelper_____________________________926399ecc8ee926112a49260019290600401612416565b60206040518083038186803b1580156112bc57600080fd5b505af41580156112d0573d6000803e3d6000fd5b505050506040513d601f19601f820116820180604052508101906112f49190612004565b90503373ffffffffffffffffffffffffffffffffffffffff167f98ce4331847829c3cdcf95d2ae4100212878081b653a6df89e3a76ab14ac8811824286866040516110fc9493929190612281565b60005460ff1661137e576040517f08c379a00000000000000000000000000000000000000000000000000000000081526004016105069061231a565b600080547fffffffffffffffffffffffffffffffffffffffffffffffffffffffffffffff0016905560045473ffffffffffffffffffffffffffffffffffffffff1633146113f7576040517f08c379a000000000000000000000000000000000000000000000000000000000815260040161050690612388565b6000818152600b6020526040908190206002015490517fa923bc1200000000000000000000000000000000000000000000000000000000815273ffffffffffffffffffffffffffffffffffffffff9091169073__TICHelper_____________________________9063a923bc12906114769060019086906004016123bf565b60006040518083038186803b15801561148e57600080fd5b505af41580156114a2573d6000803e3d6000fd5b505050508073ffffffffffffffffffffffffffffffffffffffff167f704f76cbfb948e81f51428a4981f0bbf366d86936d14fff8a7e1e65d3de929cb8360405161094e919061223f565b6040805160208082018352600754825282519081019092528282526000916115199163ffffffff611c5316565b5192915050565b60005460ff1661155c576040517f08c379a00000000000000000000000000000000000000000000000000000000081526004016105069061231a565b600080547fffffffffffffffffffffffffffffffffffffffffffffffffffffffffffffff001681556040805160208082018352868252825180820184528681528351918201845285825292517f7b05a4a900000000000000000000000000000000000000000000000000000000815273__TICHelper_____________________________93637b05a4a9936115fa936001938c9391906004016123cd565b60206040518083038186803b15801561161257600080fd5b505af4158015611626573d6000803e3d6000fd5b505050506040513d601f19601f8201168201806040525081019061164a9190612004565b90503373ffffffffffffffffffffffffffffffffffffffff167f7b50f5a35a69c552289956f6d3d7b0b90dc9dba083ad33fa8db602c6ed57f4c9824288888760405161169a959493929190612248565b60405180910390a25050600080547fffffffffffffffffffffffffffffffffffffffffffffffffffffffffffffff00166001179055505050565b60055473ffffffffffffffffffffffffffffffffffffffff1690565b60005460ff1661172c576040517f08c379a00000000000000000000000000000000000000000000000000000000081526004016105069061231a565b600080547fffffffffffffffffffffffffffffffffffffffffffffffffffffffffffffff0016905560035473ffffffffffffffffffffffffffffffffffffffff1633146117a5576040517f08c379a000000000000000000000000000000000000000000000000000000000815260040161050690612351565b6040805160208101825282815290517fed3395da00000000000000000000000000000000000000000000000000000000815273__TICHelper_____________________________9163ed3395da916105e591600191600401612407565b60005460ff1661183e576040517f08c379a00000000000000000000000000000000000000000000000000000000081526004016105069061231a565b600080547fffffffffffffffffffffffffffffffffffffffffffffffffffffffffffffff0016905560045473ffffffffffffffffffffffffffffffffffffffff1633146118b7576040517f08c379a000000000000000000000000000000000000000000000000000000000815260040161050690612388565b6000818152600b6020526040908190206002015490517f3f63703d00000000000000000000000000000000000000000000000000000000815273ffffffffffffffffffffffffffffffffffffffff9091169073__TICHelper_____________________________90633f63703d906119369060019086906004016123bf565b60006040518083038186803b15801561194e57600080fd5b505af4158015611962573d6000803e3d6000fd5b505050508073ffffffffffffffffffffffffffffffffffffffff167fe415bcfb927e3eafa5ab377de7ddccc55dedc71ba85c6cfbadea6bf317435c8d8360405161094e919061223f565b60005460ff166119e8576040517f08c379a00000000000000000000000000000000000000000000000000000000081526004016105069061231a565b600080547fffffffffffffffffffffffffffffffffffffffffffffffffffffffffffffff0016905560408051602080820183528482528251908101835283815291517fe3411dbc00000000000000000000000000000000000000000000000000000000815273__TICHelper_____________________________9263e3411dbc92611a799260019290600401612416565b60006040518083038186803b158015611a9157600080fd5b505af4158015611aa5573d6000803e3d6000fd5b5050600080547fffffffffffffffffffffffffffffffffffffffffffffffffffffffffffffff0016600117905550505050565b6040517ffdd3eeb200000000000000000000000000000000000000000000000000000000815260609073__TICHelper_____________________________9063fdd3eeb290611b2c9060019060040161223f565b60006040518083038186803b158015611b4457600080fd5b505af4158015611b58573d6000803e3d6000fd5b505050506040513d6000823e601f3d9081017fffffffffffffffffffffffffffffffffffffffffffffffffffffffffffffffe01682016040526103e39190810190611ec6565b60005460ff16611bda576040517f08c379a00000000000000000000000000000000000000000000000000000000081526004016105069061231a565b600080547fffffffffffffffffffffffffffffffffffffffffffffffffffffffffffffff001690556040517f0827cff500000000000000000000000000000000000000000000000000000000815273__TICHelper_____________________________90630827cff5906107499060019060040161223f565b611c5b611cf3565b6040805160208101909152825184518291670de0b6b3a764000091611c859163ffffffff611c9816565b81611c8c57fe5b04905290505b92915050565b600082611ca757506000611c92565b82820282848281611cb457fe5b0414611cec576040517f08c379a0000000000000000000000000000000000000000000000000000000008152600401610506906122bd565b9392505050565b6040518060200160405280600081525090565b600060e08284031215611d17578081fd5b611d2160e061242c565b905081518152602082015160208201526040820151611d3f81612473565b60408201526060820151611d5281612473565b6060820152611d648360808401611dfb565b6080820152611d768360a08401611dfb565b60a0820152611d888360c08401611dfb565b60c082015292915050565b600060a08284031215611da4578081fd5b611dae60a061242c565b905081518152602082015160208201526040820151611dcc81612473565b6040820152611dde8360608401611dfb565b6060820152611df08360808401611dfb565b608082015292915050565b600060208284031215611e0c578081fd5b611e16602061242c565b9151825250919050565b60006020808385031215611e32578182fd5b825167ffffffffffffffff811115611e48578283fd5b80840185601f820112611e59578384fd5b80519150611e6e611e6983612453565b61242c565b8281528381019082850160e0808602850187018a1015611e8c578788fd5b8794505b85851015611eb857611ea28a83611d06565b8452600194909401939286019290810190611e90565b509098975050505050505050565b60006020808385031215611ed8578182fd5b825167ffffffffffffffff811115611eee578283fd5b80840185601f820112611eff578384fd5b80519150611f0f611e6983612453565b8281528381019082850160a0808602850187018a1015611f2d578788fd5b8794505b85851015611eb857611f438a83611d93565b8452600194909401939286019290810190611f31565b60006020808385031215611f6b578182fd5b825167ffffffffffffffff811115611f81578283fd5b80840185601f820112611f92578384fd5b80519150611fa2611e6983612453565b8281528381019082850160a0808602850187018a1015611fc0578788fd5b8794505b85851015611eb857611fd68a83611d93565b8452600194909401939286019290810190611fc4565b600060208284031215611ffd578081fd5b5035919050565b600060208284031215612015578081fd5b5051919050565b60006020828403121561202d578081fd5b8151611cec81612473565b6000806000806080858703121561204d578283fd5b843561205881612473565b966020860135965060408601359560600135945092505050565b60008060408385031215612084578182fd5b50508035926020909101359150565b73ffffffffffffffffffffffffffffffffffffffff169052565b805182526020810151602083015273ffffffffffffffffffffffffffffffffffffffff6040820151166040830152606081015151606083015260808101515160808301525050565b519052565b602080825282518282018190526000919060409081850190868401855b828110156121a25781518051855286810151878601528581015161213d87870182612093565b5060608082015161215082880182612093565b5050608080820151612164828801826120f5565b505060a080820151612178828801826120f5565b505060c08082015161218c828801826120f5565b50505060e0939093019290850190600101612117565b5091979650505050505050565b6020808252825182820181905260009190848201906040850190845b818110156121f1576121de8385516120ad565b9284019260a092909201916001016121cb565b50909695505050505050565b6020808252825182820181905260009190848201906040850190845b818110156121f15761222c8385516120ad565b9284019260a09290920191600101612219565b90815260200190565b948552602085019390935273ffffffffffffffffffffffffffffffffffffffff9190911660408401526060830152608082015260a00190565b93845260208401929092526040830152606082015260800190565b73ffffffffffffffffffffffffffffffffffffffff91909116815260200190565b60208082526021908201527f536166654d6174683a206d756c7469706c69636174696f6e206f766572666c6f60408201527f7700000000000000000000000000000000000000000000000000000000000000606082015260800190565b6020808252601f908201527f5265656e7472616e637947756172643a207265656e7472616e742063616c6c00604082015260600190565b6020808252601a908201527f4d757374206265206c69717569646974792070726f7669646572000000000000604082015260600190565b60208082526011908201527f4d7573742062652076616c696461746f72000000000000000000000000000000604082015260600190565b918252602082015260400190565b94855273ffffffffffffffffffffffffffffffffffffffff9390931660208501529051604084015251606083015251608082015260a00190565b91825251602082015260400190565b9283529051602083015251604082015260600190565b60405181810167ffffffffffffffff8111828210171561244b57600080fd5b604052919050565b600067ffffffffffffffff821115612469578081fd5b5060209081020190565b73ffffffffffffffffffffffffffffffffffffffff8116811461249557600080fd5b5056fea26469706673582212207030d1d0cf06b37d066c601b61f65c8ac7243c1942e0d3eb14c3db83660cf26064736f6c634300060a0033",
  "immutableReferences": {},
  "source": "pragma solidity ^0.6.0;\npragma experimental ABIEncoderV2;\n\nimport {TICInterface} from './TICInterface.sol';\nimport {ReentrancyGuard} from '@openzeppelin/contracts/utils/ReentrancyGuard.sol';\n\nimport {SafeMath} from '@openzeppelin/contracts/math/SafeMath.sol';\nimport {FixedPoint} from './uma-contracts/common/implementation/FixedPoint.sol';\nimport {HitchensUnorderedKeySetLib} from './HitchensUnorderedKeySet.sol';\nimport {TICHelper} from './TICHelper.sol';\nimport {IERC20} from '@openzeppelin/contracts/token/ERC20/IERC20.sol';\nimport {IRToken} from './IRToken.sol';\nimport {IExpiringMultiParty} from './IExpiringMultiParty.sol';\n\n/**\n * @title Token Issuer Contract\n * @notice Collects margin, issues synthetic assets, and distributes accrued interest\n * @dev Collateral is wrapped by an `RToken` to accrue and distribute interest before being sent\n *      to the `ExpiringMultiParty` contract.\n */\ncontract TIC is TICInterface, ReentrancyGuard {\n  //----------------------------------------\n  // Type definitions\n  //----------------------------------------\n\n  using SafeMath for uint256;\n  using FixedPoint for FixedPoint.Unsigned;\n  using HitchensUnorderedKeySetLib for HitchensUnorderedKeySetLib.Set;\n  using TICHelper for Storage;\n\n  struct Storage {\n    IExpiringMultiParty derivative;\n    FixedPoint.Unsigned startingCollateralization;\n    address liquidityProvider;\n    address validator;\n    IERC20 collateralToken;\n    uint256 hatID;\n    Fee fee;\n    // Used with individual proportions to scale values\n    uint256 totalFeeProportions;\n    mapping(bytes32 => MintRequest) mintRequests;\n    HitchensUnorderedKeySetLib.Set mintRequestSet;\n    mapping(bytes32 => ExchangeRequest) exchangeRequests;\n    HitchensUnorderedKeySetLib.Set exchangeRequestSet;\n    mapping(bytes32 => RedeemRequest) redeemRequests;\n    HitchensUnorderedKeySetLib.Set redeemRequestSet;\n  }\n\n  event MintRequested(\n    bytes32 mintID,\n    uint256 timestamp,\n    address indexed sender,\n    uint256 collateralAmount,\n    uint256 numTokens\n  );\n  event MintApproved(bytes32 mintID, address indexed sender);\n  event MintRejected(bytes32 mintID, address indexed sender);\n\n  event ExchangeRequested(\n    bytes32 exchangeID,\n    uint256 timestamp,\n    address indexed sender,\n    address destTIC,\n    uint256 numTokens,\n    uint256 destNumTokens\n  );\n  event ExchangeApproved(bytes32 exchangeID, address indexed sender);\n  event ExchangeRejected(bytes32 exchangeID, address indexed sender);\n\n  event RedeemRequested(\n    bytes32 redeemID,\n    uint256 timestamp,\n    address indexed sender,\n    uint256 collateralAmount,\n    uint256 numTokens\n  );\n  event RedeemApproved(bytes32 redeemID, address indexed sender);\n  event RedeemRejected(bytes32 redeemID, address indexed sender);\n\n  //----------------------------------------\n  // State variables\n  //----------------------------------------\n\n  Storage private ticStorage;\n\n  //----------------------------------------\n  // Constructor\n  //----------------------------------------\n\n  /**\n   * @notice The derivative's margin currency must be a RToken\n   * @notice The validator will generally be an address owned by the LP\n   * @notice `_startingCollateralization should be greater than the expected asset price multiplied\n   *      by the collateral requirement. The degree to which it is greater should be based on\n   *      the expected asset volatility.\n   * @param _derivative The `ExpiringMultiParty`\n   * @param _liquidityProvider The liquidity provider\n   * @param _validator The address that validates mint and exchange requests\n   * @param _startingCollateralization Collateralization ratio to use before a global one is set\n   * @param _fee The fee structure\n   */\n  constructor(\n    IExpiringMultiParty _derivative,\n    address _liquidityProvider,\n    address _validator,\n    uint256 _startingCollateralization,\n    Fee memory _fee\n  ) public nonReentrant {\n    ticStorage.initialize(\n      _derivative,\n      _liquidityProvider,\n      _validator,\n      FixedPoint.Unsigned(_startingCollateralization),\n      _fee\n    );\n  }\n\n  //----------------------------------------\n  // Modifiers\n  //----------------------------------------\n\n  modifier onlyLiquidityProvider() {\n    require(\n      msg.sender == ticStorage.liquidityProvider,\n      'Must be liquidity provider'\n    );\n    _;\n  }\n\n  modifier onlyValidator() {\n    require(msg.sender == ticStorage.validator, 'Must be validator');\n    _;\n  }\n\n  //----------------------------------------\n  // External functions\n  //----------------------------------------\n\n  /**\n   * @notice Submit a request to mint tokens\n   * @notice The request needs to approved by the LP before tokens are created. This is\n   *         necessary to prevent users from abusing LPs by minting large amounts of tokens\n   *         with little collateral.\n   * @notice User must approve collateral transfer for the mint request to succeed\n   * @param collateralAmount The amount of collateral supplied\n   * @param numTokens The number of tokens the user wants to mint\n   */\n  function mintRequest(uint256 collateralAmount, uint256 numTokens)\n    external\n    override\n    nonReentrant\n  {\n    bytes32 mintID = ticStorage.mintRequest(\n      FixedPoint.Unsigned(collateralAmount),\n      FixedPoint.Unsigned(numTokens)\n    );\n\n    emit MintRequested(mintID, now, msg.sender, collateralAmount, numTokens);\n  }\n\n  /**\n   * @notice Approve a mint request as an LP\n   * @notice This will typically be done with a keeper bot\n   * @notice User needs to have approved the transfer of collateral tokens\n   * @param mintID The ID of the mint request\n   */\n  function approveMint(bytes32 mintID)\n    external\n    override\n    nonReentrant\n    onlyValidator\n  {\n    address sender = ticStorage.mintRequests[mintID].sender;\n\n    ticStorage.approveMint(mintID);\n\n    emit MintApproved(mintID, sender);\n  }\n\n  /**\n   * @notice Reject a mint request as an LP\n   * @notice This will typically be done with a keeper bot\n   * @param mintID The ID of the mint request\n   */\n  function rejectMint(bytes32 mintID)\n    external\n    override\n    nonReentrant\n    onlyValidator\n  {\n    address sender = ticStorage.mintRequests[mintID].sender;\n\n    ticStorage.rejectMint(mintID);\n\n    emit MintRejected(mintID, sender);\n  }\n\n  /**\n   * @notice Liquidity provider supplies margin to the TIC to collateralize user deposits\n   * @param collateralAmount The amount of margin supplied\n   */\n  function deposit(uint256 collateralAmount)\n    external\n    override\n    nonReentrant\n    onlyLiquidityProvider\n  {\n    ticStorage.deposit(FixedPoint.Unsigned(collateralAmount));\n  }\n\n  /**\n   * @notice Liquidity provider withdraw margin from the TIC\n   * @param collateralAmount The amount of margin to withdraw\n   */\n  function withdraw(uint256 collateralAmount)\n    external\n    override\n    nonReentrant\n    onlyLiquidityProvider\n  {\n    ticStorage.withdraw(FixedPoint.Unsigned(collateralAmount));\n  }\n\n  /**\n   * TODO: Potentially restrict this function to only TICs registered on a whitelist\n   * @notice Called by a source TIC's `exchange` function to mint destination tokens\n   * @dev This function could be called by any account to mint tokens, however they will lose\n   *      their excess collateral to the liquidity provider when they redeem the tokens.\n   * @param collateralAmount The amount of collateral to use from the source TIC\n   * @param numTokens The number of new tokens to mint\n   */\n  function exchangeMint(uint256 collateralAmount, uint256 numTokens)\n    external\n    override\n    nonReentrant\n  {\n    ticStorage.exchangeMint(\n      FixedPoint.Unsigned(collateralAmount),\n      FixedPoint.Unsigned(numTokens)\n    );\n  }\n\n  /**\n   * @notice Start a withdrawal request\n   * @notice Collateral can be withdrawn once the liveness period has elapsed\n   * @param collateralAmount The amount of short margin to withdraw\n   */\n  function withdrawRequest(uint256 collateralAmount)\n    external\n    override\n    onlyLiquidityProvider\n    nonReentrant\n  {\n    ticStorage.withdrawRequest(FixedPoint.Unsigned(collateralAmount));\n  }\n\n  /**\n   * @notice Withdraw collateral after a withdraw request has passed it's liveness period\n   */\n  function withdrawPassedRequest()\n    external\n    override\n    onlyLiquidityProvider\n    nonReentrant\n  {\n    ticStorage.withdrawPassedRequest();\n  }\n\n  /**\n   * @notice Submit a request to redeem tokens\n   * @notice The request needs to approved by the LP before tokens are created. This is\n   *         necessary to prevent users from abusing LPs by redeeming large amounts of collateral\n   *         from a small number of tokens.\n   * @notice User must approve synthetic token transfer for the redeem request to succeed\n   * @param collateralAmount The amount of collateral to redeem tokens for\n   * @param numTokens The number of tokens to redeem\n   */\n  function redeemRequest(uint256 collateralAmount, uint256 numTokens)\n    external\n    override\n    nonReentrant\n  {\n    bytes32 redeemID = ticStorage.redeemRequest(\n      FixedPoint.Unsigned(collateralAmount),\n      FixedPoint.Unsigned(numTokens)\n    );\n\n    emit RedeemRequested(\n      redeemID,\n      now,\n      msg.sender,\n      collateralAmount,\n      numTokens\n    );\n  }\n\n  /**\n   * @notice Approve a redeem request as an LP\n   * @notice This will typically be done with a keeper bot\n   * @notice User needs to have approved the transfer of synthetic tokens\n   * @param redeemID The ID of the redeem request\n   */\n  function approveRedeem(bytes32 redeemID)\n    external\n    override\n    nonReentrant\n    onlyValidator\n  {\n    address sender = ticStorage.redeemRequests[redeemID].sender;\n\n    ticStorage.approveRedeem(redeemID);\n\n    emit RedeemApproved(redeemID, sender);\n  }\n\n  /**\n   * @notice Reject a redeem request as an LP\n   * @notice This will typically be done with a keeper bot\n   * @param redeemID The ID of the redeem request\n   */\n  function rejectRedeem(bytes32 redeemID)\n    external\n    override\n    nonReentrant\n    onlyValidator\n  {\n    address sender = ticStorage.redeemRequests[redeemID].sender;\n\n    ticStorage.rejectRedeem(redeemID);\n\n    emit RedeemRejected(redeemID, sender);\n  }\n\n  /**\n   * @notice Redeem tokens after contract expiry\n   * @notice After derivative expiry, an LP should use this instead of `withdrawRequest` to\n   *         retrieve their collateral.\n   */\n  function settleExpired() external override nonReentrant {\n    ticStorage.settleExpired();\n  }\n\n  /**\n   * @notice Submit a request to perform an atomic of tokens between TICs\n   * @dev The number of destination tokens needs to be calculated relative to the value of the\n   *      source tokens and the destination's collateral ratio. If too many destination tokens\n   *      are requested the transaction will fail.\n   * @param destTIC The destination TIC\n   * @param numTokens The number of source tokens to swap\n   * @param collateralAmount Collateral amount equivalent to numTokens and destNumTokens\n   * @param destNumTokens The number of destination tokens the swap attempts to procure\n   */\n  function exchangeRequest(\n    TICInterface destTIC,\n    uint256 numTokens,\n    uint256 collateralAmount,\n    uint256 destNumTokens\n  ) external override nonReentrant {\n    bytes32 exchangeID = ticStorage.exchangeRequest(\n      destTIC,\n      FixedPoint.Unsigned(numTokens),\n      FixedPoint.Unsigned(collateralAmount),\n      FixedPoint.Unsigned(destNumTokens)\n    );\n\n    emit ExchangeRequested(\n      exchangeID,\n      now,\n      msg.sender,\n      address(destTIC),\n      numTokens,\n      destNumTokens\n    );\n  }\n\n  /**\n   * @notice Approve an exchange request\n   * @notice This will typically be done with a keeper bot\n   * @notice User needs to have approved the transfer of synthetic tokens\n   * @param exchangeID The ID of the exchange request\n   */\n  function approveExchange(bytes32 exchangeID)\n    external\n    override\n    onlyValidator\n    nonReentrant\n  {\n    address sender = ticStorage.exchangeRequests[exchangeID].sender;\n\n    ticStorage.approveExchange(exchangeID);\n\n    emit ExchangeApproved(exchangeID, sender);\n  }\n\n  /**\n   * @notice Reject an exchange request\n   * @notice This will typically be done with a keeper bot\n   * @param exchangeID The ID of the exchange request\n   */\n  function rejectExchange(bytes32 exchangeID)\n    external\n    override\n    onlyValidator\n    nonReentrant\n  {\n    address sender = ticStorage.exchangeRequests[exchangeID].sender;\n\n    ticStorage.rejectExchange(exchangeID);\n\n    emit ExchangeRejected(exchangeID, sender);\n  }\n\n  //----------------------------------------\n  // External views\n  //----------------------------------------\n\n  /**\n   * @notice Get the derivative contract\n   * @return The `ExpiringMultiParty` derivative contract\n   */\n  function derivative() external override view returns (IExpiringMultiParty) {\n    return ticStorage.derivative;\n  }\n\n  /**\n   * @notice Get the collateral token\n   * @return The ERC20 collateral token\n   */\n  function collateralToken() external override view returns (IERC20) {\n    return ticStorage.collateralToken;\n  }\n\n  /**\n   * @notice Get the synthetic token from the derivative contract\n   * @return The ERC20 synthetic token\n   */\n  function syntheticToken() external override view returns (IERC20) {\n    return ticStorage.derivative.tokenCurrency();\n  }\n\n  /**\n   * @notice Calculate the fees a user will have to pay to mint tokens with their collateral\n   * @return The fee structure\n   */\n  function calculateFee(uint256 collateralAmount)\n    external\n    override\n    view\n    returns (uint256)\n  {\n    return\n      FixedPoint\n        .Unsigned(collateralAmount)\n        .mul(ticStorage.fee.feePercentage)\n        .rawValue;\n  }\n\n  /**\n   * @notice Get all open mint requests\n   * @return An array of mint requests\n   */\n  function getMintRequests()\n    external\n    override\n    view\n    returns (MintRequest[] memory)\n  {\n    return ticStorage.getMintRequests();\n  }\n\n  /**\n   * @notice Get all open redeem requests\n   * @return An array of redeem requests\n   */\n  function getRedeemRequests()\n    external\n    override\n    view\n    returns (RedeemRequest[] memory)\n  {\n    return ticStorage.getRedeemRequests();\n  }\n\n  /**\n   * @notice Get all open exchange requests\n   * @return An array of exchange requests\n   */\n  function getExchangeRequests()\n    external\n    override\n    view\n    returns (ExchangeRequest[] memory)\n  {\n    return ticStorage.getExchangeRequests();\n  }\n}\n",
  "sourcePath": "/home/alessandrovm/JarvisLavoro/SynFiat/packages/contracts/contracts/TIC.sol",
  "compiler": {
    "name": "solc",
    "version": "0.6.10+commit.00c0fcaf.Emscripten.clang"
  },
  "schemaVersion": "3.2.5",
  "updatedAt": "2020-10-01T17:37:37.044Z",
  "networkType": "ethereum",
  "devdoc": {
    "details": "Collateral is wrapped by an `RToken` to accrue and distribute interest before being sent      to the `ExpiringMultiParty` contract.",
    "methods": {
      "approveExchange(bytes32)": {
        "params": {
          "exchangeID": "The ID of the exchange request"
        }
      },
      "approveMint(bytes32)": {
        "params": {
          "mintID": "The ID of the mint request"
        }
      },
      "approveRedeem(bytes32)": {
        "params": {
          "redeemID": "The ID of the redeem request"
        }
      },
      "calculateFee(uint256)": {
        "returns": {
          "_0": "The fee structure"
        }
      },
      "collateralToken()": {
        "returns": {
          "_0": "The ERC20 collateral token"
        }
      },
      "constructor": {
        "params": {
          "_derivative": "The `ExpiringMultiParty`",
          "_fee": "The fee structure",
          "_liquidityProvider": "The liquidity provider",
          "_startingCollateralization": "Collateralization ratio to use before a global one is set",
          "_validator": "The address that validates mint and exchange requests"
        }
      },
      "deposit(uint256)": {
        "params": {
          "collateralAmount": "The amount of margin supplied"
        }
      },
      "derivative()": {
        "returns": {
          "_0": "The `ExpiringMultiParty` derivative contract"
        }
      },
      "exchangeMint(uint256,uint256)": {
        "details": "This function could be called by any account to mint tokens, however they will lose      their excess collateral to the liquidity provider when they redeem the tokens.",
        "params": {
          "collateralAmount": "The amount of collateral to use from the source TIC",
          "numTokens": "The number of new tokens to mint"
        }
      },
      "exchangeRequest(address,uint256,uint256,uint256)": {
        "details": "The number of destination tokens needs to be calculated relative to the value of the      source tokens and the destination's collateral ratio. If too many destination tokens      are requested the transaction will fail.",
        "params": {
          "collateralAmount": "Collateral amount equivalent to numTokens and destNumTokens",
          "destNumTokens": "The number of destination tokens the swap attempts to procure",
          "destTIC": "The destination TIC",
          "numTokens": "The number of source tokens to swap"
        }
      },
      "getExchangeRequests()": {
        "returns": {
          "_0": "An array of exchange requests"
        }
      },
      "getMintRequests()": {
        "returns": {
          "_0": "An array of mint requests"
        }
      },
      "getRedeemRequests()": {
        "returns": {
          "_0": "An array of redeem requests"
        }
      },
      "mintRequest(uint256,uint256)": {
        "params": {
          "collateralAmount": "The amount of collateral supplied",
          "numTokens": "The number of tokens the user wants to mint"
        }
      },
      "redeemRequest(uint256,uint256)": {
        "params": {
          "collateralAmount": "The amount of collateral to redeem tokens for",
          "numTokens": "The number of tokens to redeem"
        }
      },
      "rejectExchange(bytes32)": {
        "params": {
          "exchangeID": "The ID of the exchange request"
        }
      },
      "rejectMint(bytes32)": {
        "params": {
          "mintID": "The ID of the mint request"
        }
      },
      "rejectRedeem(bytes32)": {
        "params": {
          "redeemID": "The ID of the redeem request"
        }
      },
      "syntheticToken()": {
        "returns": {
          "_0": "The ERC20 synthetic token"
        }
      },
      "withdraw(uint256)": {
        "params": {
          "collateralAmount": "The amount of margin to withdraw"
        }
      },
      "withdrawRequest(uint256)": {
        "params": {
          "collateralAmount": "The amount of short margin to withdraw"
        }
      }
    },
    "title": "Token Issuer Contract"
  },
  "userdoc": {
    "methods": {
      "approveExchange(bytes32)": {
        "notice": "Approve an exchange requestThis will typically be done with a keeper botUser needs to have approved the transfer of synthetic tokens"
      },
      "approveMint(bytes32)": {
        "notice": "Approve a mint request as an LPThis will typically be done with a keeper botUser needs to have approved the transfer of collateral tokens"
      },
      "approveRedeem(bytes32)": {
        "notice": "Approve a redeem request as an LPThis will typically be done with a keeper botUser needs to have approved the transfer of synthetic tokens"
      },
      "calculateFee(uint256)": {
        "notice": "Calculate the fees a user will have to pay to mint tokens with their collateral"
      },
      "collateralToken()": {
        "notice": "Get the collateral token"
      },
      "constructor": "The derivative's margin currency must be a RTokenThe validator will generally be an address owned by the LP`_startingCollateralization should be greater than the expected asset price multiplied      by the collateral requirement. The degree to which it is greater should be based on      the expected asset volatility.",
      "deposit(uint256)": {
        "notice": "Liquidity provider supplies margin to the TIC to collateralize user deposits"
      },
      "derivative()": {
        "notice": "Get the derivative contract"
      },
      "exchangeMint(uint256,uint256)": {
        "notice": "TODO: Potentially restrict this function to only TICs registered on a whitelistCalled by a source TIC's `exchange` function to mint destination tokens"
      },
      "exchangeRequest(address,uint256,uint256,uint256)": {
        "notice": "Submit a request to perform an atomic of tokens between TICs"
      },
      "getExchangeRequests()": {
        "notice": "Get all open exchange requests"
      },
      "getMintRequests()": {
        "notice": "Get all open mint requests"
      },
      "getRedeemRequests()": {
        "notice": "Get all open redeem requests"
      },
      "mintRequest(uint256,uint256)": {
        "notice": "Submit a request to mint tokensThe request needs to approved by the LP before tokens are created. This is         necessary to prevent users from abusing LPs by minting large amounts of tokens         with little collateral.User must approve collateral transfer for the mint request to succeed"
      },
      "redeemRequest(uint256,uint256)": {
        "notice": "Submit a request to redeem tokensThe request needs to approved by the LP before tokens are created. This is         necessary to prevent users from abusing LPs by redeeming large amounts of collateral         from a small number of tokens.User must approve synthetic token transfer for the redeem request to succeed"
      },
      "rejectExchange(bytes32)": {
        "notice": "Reject an exchange requestThis will typically be done with a keeper bot"
      },
      "rejectMint(bytes32)": {
        "notice": "Reject a mint request as an LPThis will typically be done with a keeper bot"
      },
      "rejectRedeem(bytes32)": {
        "notice": "Reject a redeem request as an LPThis will typically be done with a keeper bot"
      },
      "settleExpired()": {
        "notice": "Redeem tokens after contract expiryAfter derivative expiry, an LP should use this instead of `withdrawRequest` to         retrieve their collateral."
      },
      "syntheticToken()": {
        "notice": "Get the synthetic token from the derivative contract"
      },
      "withdraw(uint256)": {
        "notice": "Liquidity provider withdraw margin from the TIC"
      },
      "withdrawPassedRequest()": {
        "notice": "Withdraw collateral after a withdraw request has passed it's liveness period"
      },
      "withdrawRequest(uint256)": {
        "notice": "Start a withdrawal requestCollateral can be withdrawn once the liveness period has elapsed"
      }
    },
    "notice": "Collects margin, issues synthetic assets, and distributes accrued interest"
  }
}