{
  "contractName": "TIC",
  "abi": [
    {
      "inputs": [
        {
          "internalType": "contract IExpiringMultiParty",
          "name": "_derivative",
          "type": "address"
        },
        {
          "internalType": "address",
          "name": "_liquidityProvider",
          "type": "address"
        },
        {
          "internalType": "address",
          "name": "_validator",
          "type": "address"
        },
        {
          "internalType": "uint256",
          "name": "_startingCollateralization",
          "type": "uint256"
        },
        {
          "components": [
            {
              "components": [
                {
                  "internalType": "uint256",
                  "name": "rawValue",
                  "type": "uint256"
                }
              ],
              "internalType": "struct FixedPoint.Unsigned",
              "name": "mintFee",
              "type": "tuple"
            },
            {
              "internalType": "address[]",
              "name": "mintFeeRecipients",
              "type": "address[]"
            },
            {
              "internalType": "uint32[]",
              "name": "mintFeeProportions",
              "type": "uint32[]"
            },
            {
              "internalType": "address[]",
              "name": "interestFeeRecipients",
              "type": "address[]"
            },
            {
              "internalType": "uint32[]",
              "name": "interestFeeProportions",
              "type": "uint32[]"
            }
          ],
          "internalType": "struct TICInterface.Fee",
          "name": "_fee",
          "type": "tuple"
        }
      ],
      "stateMutability": "nonpayable",
      "type": "constructor"
    },
    {
      "inputs": [
        {
          "internalType": "uint256",
          "name": "collateralAmount",
          "type": "uint256"
        },
        {
          "internalType": "uint256",
          "name": "numTokens",
          "type": "uint256"
        }
      ],
      "name": "mintRequest",
      "outputs": [],
      "stateMutability": "nonpayable",
      "type": "function"
    },
    {
      "inputs": [
        {
          "internalType": "bytes32",
          "name": "mintID",
          "type": "bytes32"
        }
      ],
      "name": "approveMint",
      "outputs": [],
      "stateMutability": "nonpayable",
      "type": "function"
    },
    {
      "inputs": [
        {
          "internalType": "bytes32",
          "name": "mintID",
          "type": "bytes32"
        }
      ],
      "name": "rejectMint",
      "outputs": [],
      "stateMutability": "nonpayable",
      "type": "function"
    },
    {
      "inputs": [
        {
          "internalType": "uint256",
          "name": "collateralAmount",
          "type": "uint256"
        }
      ],
      "name": "deposit",
      "outputs": [],
      "stateMutability": "nonpayable",
      "type": "function"
    },
    {
      "inputs": [
        {
          "internalType": "uint256",
          "name": "collateralAmount",
          "type": "uint256"
        },
        {
          "internalType": "uint256",
          "name": "numTokens",
          "type": "uint256"
        }
      ],
      "name": "exchangeMint",
      "outputs": [],
      "stateMutability": "nonpayable",
      "type": "function"
    },
    {
      "inputs": [
        {
          "internalType": "uint256",
          "name": "collateralAmount",
          "type": "uint256"
        }
      ],
      "name": "withdrawRequest",
      "outputs": [],
      "stateMutability": "nonpayable",
      "type": "function"
    },
    {
      "inputs": [],
      "name": "withdrawPassedRequest",
      "outputs": [],
      "stateMutability": "nonpayable",
      "type": "function"
    },
    {
      "inputs": [
        {
          "internalType": "uint256",
          "name": "collateralAmount",
          "type": "uint256"
        },
        {
          "internalType": "uint256",
          "name": "numTokens",
          "type": "uint256"
        }
      ],
      "name": "redeemRequest",
      "outputs": [],
      "stateMutability": "nonpayable",
      "type": "function"
    },
    {
      "inputs": [
        {
          "internalType": "bytes32",
          "name": "redeemID",
          "type": "bytes32"
        }
      ],
      "name": "approveRedeem",
      "outputs": [],
      "stateMutability": "nonpayable",
      "type": "function"
    },
    {
      "inputs": [
        {
          "internalType": "bytes32",
          "name": "redeemID",
          "type": "bytes32"
        }
      ],
      "name": "rejectRedeem",
      "outputs": [],
      "stateMutability": "nonpayable",
      "type": "function"
    },
    {
      "inputs": [],
      "name": "settleExpired",
      "outputs": [],
      "stateMutability": "nonpayable",
      "type": "function"
    },
    {
      "inputs": [
        {
          "internalType": "contract TICInterface",
          "name": "destTIC",
          "type": "address"
        },
        {
          "internalType": "uint256",
          "name": "numTokens",
          "type": "uint256"
        },
        {
          "internalType": "uint256",
          "name": "destNumTokens",
          "type": "uint256"
        }
      ],
      "name": "exchangeRequest",
      "outputs": [],
      "stateMutability": "nonpayable",
      "type": "function"
    },
    {
      "inputs": [
        {
          "internalType": "bytes32",
          "name": "exchangeID",
          "type": "bytes32"
        }
      ],
      "name": "approveExchange",
      "outputs": [],
      "stateMutability": "nonpayable",
      "type": "function"
    },
    {
      "inputs": [
        {
          "internalType": "bytes32",
          "name": "exchangeID",
          "type": "bytes32"
        }
      ],
      "name": "rejectExchange",
      "outputs": [],
      "stateMutability": "nonpayable",
      "type": "function"
    },
    {
      "inputs": [],
      "name": "derivative",
      "outputs": [
        {
          "internalType": "contract IExpiringMultiParty",
          "name": "",
          "type": "address"
        }
      ],
      "stateMutability": "view",
      "type": "function"
    },
    {
      "inputs": [],
      "name": "collateralToken",
      "outputs": [
        {
          "internalType": "contract IERC20",
          "name": "",
          "type": "address"
        }
      ],
      "stateMutability": "view",
      "type": "function"
    },
    {
      "inputs": [],
      "name": "syntheticToken",
      "outputs": [
        {
          "internalType": "contract IERC20",
          "name": "",
          "type": "address"
        }
      ],
      "stateMutability": "view",
      "type": "function"
    },
    {
      "inputs": [
        {
          "internalType": "uint256",
          "name": "collateralAmount",
          "type": "uint256"
        }
      ],
      "name": "calculateMintFee",
      "outputs": [
        {
          "internalType": "uint256",
          "name": "",
          "type": "uint256"
        }
      ],
      "stateMutability": "view",
      "type": "function"
    },
    {
      "inputs": [],
      "name": "getMintRequests",
      "outputs": [
        {
          "components": [
            {
              "internalType": "bytes32",
              "name": "mintID",
              "type": "bytes32"
            },
            {
              "internalType": "uint256",
              "name": "timestamp",
              "type": "uint256"
            },
            {
              "internalType": "address",
              "name": "sender",
              "type": "address"
            },
            {
              "components": [
                {
                  "internalType": "uint256",
                  "name": "rawValue",
                  "type": "uint256"
                }
              ],
              "internalType": "struct FixedPoint.Unsigned",
              "name": "collateralAmount",
              "type": "tuple"
            },
            {
              "components": [
                {
                  "internalType": "uint256",
                  "name": "rawValue",
                  "type": "uint256"
                }
              ],
              "internalType": "struct FixedPoint.Unsigned",
              "name": "numTokens",
              "type": "tuple"
            }
          ],
          "internalType": "struct TICInterface.MintRequest[]",
          "name": "",
          "type": "tuple[]"
        }
      ],
      "stateMutability": "view",
      "type": "function"
    },
    {
      "inputs": [],
      "name": "getRedeemRequests",
      "outputs": [
        {
          "components": [
            {
              "internalType": "bytes32",
              "name": "redeemID",
              "type": "bytes32"
            },
            {
              "internalType": "uint256",
              "name": "timestamp",
              "type": "uint256"
            },
            {
              "internalType": "address",
              "name": "sender",
              "type": "address"
            },
            {
              "components": [
                {
                  "internalType": "uint256",
                  "name": "rawValue",
                  "type": "uint256"
                }
              ],
              "internalType": "struct FixedPoint.Unsigned",
              "name": "collateralAmount",
              "type": "tuple"
            },
            {
              "components": [
                {
                  "internalType": "uint256",
                  "name": "rawValue",
                  "type": "uint256"
                }
              ],
              "internalType": "struct FixedPoint.Unsigned",
              "name": "numTokens",
              "type": "tuple"
            }
          ],
          "internalType": "struct TICInterface.RedeemRequest[]",
          "name": "",
          "type": "tuple[]"
        }
      ],
      "stateMutability": "view",
      "type": "function"
    },
    {
      "inputs": [],
      "name": "getExchangeRequests",
      "outputs": [
        {
          "components": [
            {
              "internalType": "bytes32",
              "name": "exchangeID",
              "type": "bytes32"
            },
            {
              "internalType": "uint256",
              "name": "timestamp",
              "type": "uint256"
            },
            {
              "internalType": "address",
              "name": "sender",
              "type": "address"
            },
            {
              "internalType": "contract TICInterface",
              "name": "destTIC",
              "type": "address"
            },
            {
              "components": [
                {
                  "internalType": "uint256",
                  "name": "rawValue",
                  "type": "uint256"
                }
              ],
              "internalType": "struct FixedPoint.Unsigned",
              "name": "numTokens",
              "type": "tuple"
            },
            {
              "components": [
                {
                  "internalType": "uint256",
                  "name": "rawValue",
                  "type": "uint256"
                }
              ],
              "internalType": "struct FixedPoint.Unsigned",
              "name": "destNumTokens",
              "type": "tuple"
            }
          ],
          "internalType": "struct TICInterface.ExchangeRequest[]",
          "name": "",
          "type": "tuple[]"
        }
      ],
      "stateMutability": "view",
      "type": "function"
    }
  ],
  "bytecode": "0x60806040523480156200001157600080fd5b506040516200218b3803806200218b83398101604081905262000034916200023f565b6000805460ff19166001179081905560ff166200006e5760405162461bcd60e51b8152600401620000659062000401565b60405180910390fd5b6000805460ff1916905560408051602081018252838152905163de95134160e01b815273__TICHelper_____________________________9163de95134191620000c7916001918a918a918a9190899060040162000438565b60006040518083038186803b158015620000e057600080fd5b505af4158015620000f5573d6000803e3d6000fd5b50506000805460ff19166001179055506200055e95505050505050565b600082601f83011262000123578081fd5b81516200013a620001348262000525565b620004fe565b8181529150602080830190848101818402860182018710156200015c57600080fd5b60005b8481101562000188578151620001758162000545565b845292820192908201906001016200015f565b505050505092915050565b600082601f830112620001a4578081fd5b8151620001b5620001348262000525565b818152915060208083019084810181840286018201871015620001d757600080fd5b6000805b858110156200020b57825163ffffffff81168114620001f8578283fd5b85529383019391830191600101620001db565b50505050505092915050565b60006020828403121562000229578081fd5b620002356020620004fe565b9151825250919050565b600080600080600060a0868803121562000257578081fd5b8551620002648162000545565b6020870151909550620002778162000545565b60408701519094506200028a8162000545565b6060870151608088015191945092506001600160401b0380821115620002ae578283fd5b81880160a0818b031215620002c1578384fd5b620002cd60a0620004fe565b9250620002db8a8262000217565b8352602081015182811115620002ef578485fd5b620002fd8b82840162000112565b60208501525060408101518281111562000315578485fd5b620003238b82840162000193565b6040850152506060810151828111156200033b578485fd5b620003498b82840162000112565b60608501525060808101518281111562000361578485fd5b6200036f8b82840162000193565b6080850152505050809150509295509295909350565b6000815180845260208085019450808401835b83811015620003bf5781516001600160a01b03168752958201959082019060010162000398565b509495945050505050565b6000815180845260208085019450808401835b83811015620003bf57815163ffffffff1687529582019590820190600101620003dd565b6020808252601f908201527f5265656e7472616e637947756172643a207265656e7472616e742063616c6c00604082015260600190565b600087825260018060a01b03808816602084015280871660408401528086166060840152508351608083015260c060a083015282515160c0830152602083015160a060e08401526200048f61016084018262000385565b6040850151915060bf198085830301610100860152620004b08284620003ca565b606087015193508186820301610120870152620004ce818562000385565b92505060808601519250808583030161014086015250620004f08183620003ca565b9a9950505050505050505050565b6040518181016001600160401b03811182821017156200051d57600080fd5b604052919050565b60006001600160401b038211156200053b578081fd5b5060209081020190565b6001600160a01b03811681146200055b57600080fd5b50565b611c1d806200056e6000396000f3fe608060405234801561001057600080fd5b50600436106101775760003560e01c80637c3970f2116100d8578063b6b55f251161008c578063eb9ce16311610066578063eb9ce163146102cf578063f5ac2abe146102d7578063fcccedc7146102ea57610177565b8063b6b55f2514610296578063b72d8ce9146102a9578063cca3595a146102bc57610177565b80638be76e01116100bd5780638be76e0114610268578063998fccc51461027b578063b2016bd41461028e57610177565b80637c3970f21461024d5780638230ecd61461026057610177565b806350539aa81161012f5780635c095e54116101145780635c095e54146102075780637242b9fc1461022757806374899a7e1461023a57610177565b806350539aa8146101e157806353c34f02146101f457610177565b80631985a89f116101605780631985a89f146101af57806333a46ca2146101c457806336a99ebd146101ce57610177565b80630e3e7ba71461017c578063139d006c1461019a575b600080fd5b6101846102f2565b6040516101919190611970565b60405180910390f35b6101a26103bd565b60405161019191906118db565b6101b7610483565b60405161019191906119e9565b6101cc61049f565b005b6101cc6101dc366004611852565b61060b565b6101cc6101ef366004611852565b610771565b6101cc610202366004611852565b610828565b61021a610215366004611852565b6108df565b6040516101919190611b0c565b6101cc610235366004611852565b610913565b6101cc610248366004611852565b610a1b565b6101cc61025b3660046118ba565b610b2b565b6101b7610c57565b6101cc6102763660046118ba565b610cfa565b6101cc610289366004611852565b610dc7565b6101b7610ecf565b6101cc6102a4366004611852565b610f3a565b6101cc6102b7366004611852565b61104c565b6101cc6102ca3660046118ba565b611154565b610184611221565b6101cc6102e5366004611886565b6112e7565b6101cc611416565b6040517f77a7fa9e00000000000000000000000000000000000000000000000000000000815260609073__TICHelper_____________________________906377a7fa9e9061034690600190600401611b0c565b60006040518083038186803b15801561035e57600080fd5b505af4158015610372573d6000803e3d6000fd5b505050506040513d6000823e601f3d9081017fffffffffffffffffffffffffffffffffffffffffffffffffffffffffffffffe01682016040526103b891908101906117bf565b905090565b6040517f4da5bc7b00000000000000000000000000000000000000000000000000000000815260609073__TICHelper_____________________________90634da5bc7b9061041190600190600401611b0c565b60006040518083038186803b15801561042957600080fd5b505af415801561043d573d6000803e3d6000fd5b505050506040513d6000823e601f3d9081017fffffffffffffffffffffffffffffffffffffffffffffffffffffffffffffffe01682016040526103b89190810190611686565b60015473ffffffffffffffffffffffffffffffffffffffff1690565b60035473ffffffffffffffffffffffffffffffffffffffff1633146104f9576040517f08c379a00000000000000000000000000000000000000000000000000000000081526004016104f090611a9e565b60405180910390fd5b60005460ff16610535576040517f08c379a00000000000000000000000000000000000000000000000000000000081526004016104f090611a67565b600080547fffffffffffffffffffffffffffffffffffffffffffffffffffffffffffffff001690556040517f1c647abd00000000000000000000000000000000000000000000000000000000815273__TICHelper_____________________________90631c647abd906105ae90600190600401611b0c565b60006040518083038186803b1580156105c657600080fd5b505af41580156105da573d6000803e3d6000fd5b5050600080547fffffffffffffffffffffffffffffffffffffffffffffffffffffffffffffff001660011790555050565b60045473ffffffffffffffffffffffffffffffffffffffff16331461065c576040517f08c379a00000000000000000000000000000000000000000000000000000000081526004016104f090611ad5565b60005460ff16610698576040517f08c379a00000000000000000000000000000000000000000000000000000000081526004016104f090611a67565b600080547fffffffffffffffffffffffffffffffffffffffffffffffffffffffffffffff001690556040517ff2b66f0900000000000000000000000000000000000000000000000000000000815273__TICHelper_____________________________9063f2b66f0990610713906001908590600401611b15565b60006040518083038186803b15801561072b57600080fd5b505af415801561073f573d6000803e3d6000fd5b5050600080547fffffffffffffffffffffffffffffffffffffffffffffffffffffffffffffff00166001179055505050565b60005460ff166107ad576040517f08c379a00000000000000000000000000000000000000000000000000000000081526004016104f090611a67565b600080547fffffffffffffffffffffffffffffffffffffffffffffffffffffffffffffff001690556040517f2368045a00000000000000000000000000000000000000000000000000000000815273__TICHelper_____________________________90632368045a90610713906001908590600401611b15565b60005460ff16610864576040517f08c379a00000000000000000000000000000000000000000000000000000000081526004016104f090611a67565b600080547fffffffffffffffffffffffffffffffffffffffffffffffffffffffffffffff001690556040517fa56a6d5200000000000000000000000000000000000000000000000000000000815273__TICHelper_____________________________9063a56a6d5290610713906001908590600401611b15565b60408051602080820183526007548252825190810190925282825260009161090c9163ffffffff6114cb16565b5192915050565b60045473ffffffffffffffffffffffffffffffffffffffff163314610964576040517f08c379a00000000000000000000000000000000000000000000000000000000081526004016104f090611ad5565b60005460ff166109a0576040517f08c379a00000000000000000000000000000000000000000000000000000000081526004016104f090611a67565b600080547fffffffffffffffffffffffffffffffffffffffffffffffffffffffffffffff001690556040517fad0bdda100000000000000000000000000000000000000000000000000000000815273__TICHelper_____________________________9063ad0bdda190610713906001908590600401611b15565b60035473ffffffffffffffffffffffffffffffffffffffff163314610a6c576040517f08c379a00000000000000000000000000000000000000000000000000000000081526004016104f090611a9e565b60005460ff16610aa8576040517f08c379a00000000000000000000000000000000000000000000000000000000081526004016104f090611a67565b600080547fffffffffffffffffffffffffffffffffffffffffffffffffffffffffffffff001690556040805160208101825282815290517e12b1f800000000000000000000000000000000000000000000000000000000815273__TICHelper_____________________________916212b1f89161071391600191600401611b56565b60005460ff16610b67576040517f08c379a00000000000000000000000000000000000000000000000000000000081526004016104f090611a67565b600080547fffffffffffffffffffffffffffffffffffffffffffffffffffffffffffffff0016905560408051602080820183528482528251908101835283815291517fb85fa0c200000000000000000000000000000000000000000000000000000000815273__TICHelper_____________________________9263b85fa0c292610bf89260019290600401611b65565b60006040518083038186803b158015610c1057600080fd5b505af4158015610c24573d6000803e3d6000fd5b5050600080547fffffffffffffffffffffffffffffffffffffffffffffffffffffffffffffff0016600117905550505050565b600154604080517f7048594b000000000000000000000000000000000000000000000000000000008152905160009273ffffffffffffffffffffffffffffffffffffffff1691637048594b916004808301926020929190829003018186803b158015610cc257600080fd5b505afa158015610cd6573d6000803e3d6000fd5b505050506040513d601f19601f820116820180604052508101906103b8919061186a565b60005460ff16610d36576040517f08c379a00000000000000000000000000000000000000000000000000000000081526004016104f090611a67565b600080547fffffffffffffffffffffffffffffffffffffffffffffffffffffffffffffff0016905560408051602080820183528482528251908101835283815291517f99ecc8ee00000000000000000000000000000000000000000000000000000000815273__TICHelper_____________________________926399ecc8ee92610bf89260019290600401611b65565b60005460ff16610e03576040517f08c379a00000000000000000000000000000000000000000000000000000000081526004016104f090611a67565b600080547fffffffffffffffffffffffffffffffffffffffffffffffffffffffffffffff0016905560045473ffffffffffffffffffffffffffffffffffffffff163314610e7c576040517f08c379a00000000000000000000000000000000000000000000000000000000081526004016104f090611ad5565b6040517fa923bc1200000000000000000000000000000000000000000000000000000000815273__TICHelper_____________________________9063a923bc1290610713906001908590600401611b15565b600554604080517ffc0c546a000000000000000000000000000000000000000000000000000000008152905160009273ffffffffffffffffffffffffffffffffffffffff169163fc0c546a916004828101926020929190829003018186803b158015610cc257600080fd5b60005460ff16610f76576040517f08c379a00000000000000000000000000000000000000000000000000000000081526004016104f090611a67565b600080547fffffffffffffffffffffffffffffffffffffffffffffffffffffffffffffff0016905560035473ffffffffffffffffffffffffffffffffffffffff163314610fef576040517f08c379a00000000000000000000000000000000000000000000000000000000081526004016104f090611a9e565b6040805160208101825282815290517fed3395da00000000000000000000000000000000000000000000000000000000815273__TICHelper_____________________________9163ed3395da9161071391600191600401611b56565b60005460ff16611088576040517f08c379a00000000000000000000000000000000000000000000000000000000081526004016104f090611a67565b600080547fffffffffffffffffffffffffffffffffffffffffffffffffffffffffffffff0016905560045473ffffffffffffffffffffffffffffffffffffffff163314611101576040517f08c379a00000000000000000000000000000000000000000000000000000000081526004016104f090611ad5565b6040517f3f63703d00000000000000000000000000000000000000000000000000000000815273__TICHelper_____________________________90633f63703d90610713906001908590600401611b15565b60005460ff16611190576040517f08c379a00000000000000000000000000000000000000000000000000000000081526004016104f090611a67565b600080547fffffffffffffffffffffffffffffffffffffffffffffffffffffffffffffff0016905560408051602080820183528482528251908101835283815291517fe3411dbc00000000000000000000000000000000000000000000000000000000815273__TICHelper_____________________________9263e3411dbc92610bf89260019290600401611b65565b6040517ffdd3eeb200000000000000000000000000000000000000000000000000000000815260609073__TICHelper_____________________________9063fdd3eeb29061127590600190600401611b0c565b60006040518083038186803b15801561128d57600080fd5b505af41580156112a1573d6000803e3d6000fd5b505050506040513d6000823e601f3d9081017fffffffffffffffffffffffffffffffffffffffffffffffffffffffffffffffe01682016040526103b8919081019061172c565b60005460ff16611323576040517f08c379a00000000000000000000000000000000000000000000000000000000081526004016104f090611a67565b600080547fffffffffffffffffffffffffffffffffffffffffffffffffffffffffffffff0016905560408051602080820183528482528251908101835283815291517fd6f79d2200000000000000000000000000000000000000000000000000000000815273__TICHelper_____________________________9263d6f79d22926113b692600192899291600401611b23565b60006040518083038186803b1580156113ce57600080fd5b505af41580156113e2573d6000803e3d6000fd5b5050600080547fffffffffffffffffffffffffffffffffffffffffffffffffffffffffffffff001660011790555050505050565b60005460ff16611452576040517f08c379a00000000000000000000000000000000000000000000000000000000081526004016104f090611a67565b600080547fffffffffffffffffffffffffffffffffffffffffffffffffffffffffffffff001690556040517f0827cff500000000000000000000000000000000000000000000000000000000815273__TICHelper_____________________________90630827cff5906105ae90600190600401611b0c565b6114d361156b565b6040805160208101909152825184518291670de0b6b3a7640000916114fd9163ffffffff61151016565b8161150457fe5b04905290505b92915050565b60008261151f5750600061150a565b8282028284828161152c57fe5b0414611564576040517f08c379a00000000000000000000000000000000000000000000000000000000081526004016104f090611a0a565b9392505050565b6040518060200160405280600081525090565b600060c0828403121561158f578081fd5b61159960c0611b7b565b9050815181526020820151602082015260408201516115b781611bc2565b604082015260608201516115ca81611bc2565b60608201526115dc8360808401611661565b60808201526115ee8360a08401611661565b60a082015292915050565b600060a0828403121561160a578081fd5b61161460a0611b7b565b90508151815260208201516020820152604082015161163281611bc2565b60408201526116448360608401611661565b60608201526116568360808401611661565b608082015292915050565b600060208284031215611672578081fd5b61167c6020611b7b565b9151825250919050565b60006020808385031215611698578182fd5b825167ffffffffffffffff8111156116ae578283fd5b80840185601f8201126116bf578384fd5b805191506116d46116cf83611ba2565b611b7b565b8281528381019082850160c0808602850187018a10156116f2578788fd5b8794505b8585101561171e576117088a8361157e565b84526001949094019392860192908101906116f6565b509098975050505050505050565b6000602080838503121561173e578182fd5b825167ffffffffffffffff811115611754578283fd5b80840185601f820112611765578384fd5b805191506117756116cf83611ba2565b8281528381019082850160a0808602850187018a1015611793578788fd5b8794505b8585101561171e576117a98a836115f9565b8452600194909401939286019290810190611797565b600060208083850312156117d1578182fd5b825167ffffffffffffffff8111156117e7578283fd5b80840185601f8201126117f8578384fd5b805191506118086116cf83611ba2565b8281528381019082850160a0808602850187018a1015611826578788fd5b8794505b8585101561171e5761183c8a836115f9565b845260019490940193928601929081019061182a565b600060208284031215611863578081fd5b5035919050565b60006020828403121561187b578081fd5b815161156481611bc2565b60008060006060848603121561189a578182fd5b83356118a581611bc2565b95602085013595506040909401359392505050565b600080604083850312156118cc578182fd5b50508035926020909101359150565b602080825282518282018190526000919060409081850190868401855b828110156119635781518051855286810151878601528581015173ffffffffffffffffffffffffffffffffffffffff9081168787015260608083015190911690860152608080820151519086015260a090810151519085015260c090930192908501906001016118f8565b5091979650505050505050565b602080825282518282018190526000919060409081850190868401855b828110156119635781518051855286810151878601528581015173ffffffffffffffffffffffffffffffffffffffff16868601526060808201515190860152608090810151519085015260a0909301929085019060010161198d565b73ffffffffffffffffffffffffffffffffffffffff91909116815260200190565b60208082526021908201527f536166654d6174683a206d756c7469706c69636174696f6e206f766572666c6f60408201527f7700000000000000000000000000000000000000000000000000000000000000606082015260800190565b6020808252601f908201527f5265656e7472616e637947756172643a207265656e7472616e742063616c6c00604082015260600190565b6020808252601a908201527f4d757374206265206c69717569646974792070726f7669646572000000000000604082015260600190565b60208082526011908201527f4d7573742062652076616c696461746f72000000000000000000000000000000604082015260600190565b90815260200190565b918252602082015260400190565b93845273ffffffffffffffffffffffffffffffffffffffff92909216602084015251604083015251606082015260800190565b91825251602082015260400190565b9283529051602083015251604082015260600190565b60405181810167ffffffffffffffff81118282101715611b9a57600080fd5b604052919050565b600067ffffffffffffffff821115611bb8578081fd5b5060209081020190565b73ffffffffffffffffffffffffffffffffffffffff81168114611be457600080fd5b5056fea264697066735822122085d9d10f278ca5c752219950996e69a217696f3982ffbab7bc2927dce89a661364736f6c63430006040033",
  "source": "pragma solidity ^0.6.0;\npragma experimental ABIEncoderV2;\n\nimport {TICInterface} from \"./TICInterface.sol\";\nimport {ReentrancyGuard} from \"@openzeppelin/contracts/utils/ReentrancyGuard.sol\";\n\nimport {SafeMath} from \"@openzeppelin/contracts/math/SafeMath.sol\";\nimport {FixedPoint} from \"./uma-contracts/common/implementation/FixedPoint.sol\";\nimport {HitchensUnorderedKeySetLib} from \"./HitchensUnorderedKeySet.sol\";\nimport {TICHelper} from \"./TICHelper.sol\";\nimport {IERC20} from \"@openzeppelin/contracts/token/ERC20/IERC20.sol\";\nimport {IRToken} from \"./IRToken.sol\";\nimport {IExpiringMultiParty} from \"./IExpiringMultiParty.sol\";\n\n/**\n * @title Token Issuer Contract\n * @notice Collects margin, issues synthetic assets, and distributes accrued interest\n * @dev Collateral is wrapped by an `RToken` to accrue and distribute interest before being sent\n *      to the `ExpiringMultiParty` contract.\n */\ncontract TIC is TICInterface, ReentrancyGuard {\n    //----------------------------------------\n    // Type definitions\n    //----------------------------------------\n\n    using SafeMath for uint256;\n    using FixedPoint for FixedPoint.Unsigned;\n    using HitchensUnorderedKeySetLib for HitchensUnorderedKeySetLib.Set;\n    using TICHelper for Storage;\n\n    struct Storage {\n        IExpiringMultiParty derivative;\n        FixedPoint.Unsigned startingCollateralization;\n        address liquidityProvider;\n        address validator;\n        IRToken rtoken;\n        uint256 hatID;\n        Fee fee;\n\n        // Used with individual proportions to scale values\n        uint256 totalMintFeeProportions;\n\n        mapping(bytes32 => MintRequest) mintRequests;\n        HitchensUnorderedKeySetLib.Set mintRequestSet;\n\n        mapping(bytes32 => ExchangeRequest) exchangeRequests;\n        HitchensUnorderedKeySetLib.Set exchangeRequestSet;\n\n        mapping(bytes32 => RedeemRequest) redeemRequests;\n        HitchensUnorderedKeySetLib.Set redeemRequestSet;\n    }\n\n    //----------------------------------------\n    // State variables\n    //----------------------------------------\n\n    Storage private ticStorage;\n\n    //----------------------------------------\n    // Constructor\n    //----------------------------------------\n\n    /**\n     * @notice The derivative's margin currency must be a RToken\n     * @notice The validator will generally be an address owned by the LP\n     * @notice `_startingCollateralization should be greater than the expected asset price multiplied\n     *      by the collateral requirement. The degree to which it is greater should be based on\n     *      the expected asset volatility.\n     * @param _derivative The `ExpiringMultiParty`\n     * @param _liquidityProvider The liquidity provider\n     * @param _validator The address that validates mint and exchange requests\n     * @param _startingCollateralization Collateralization ratio to use before a global one is set\n     * @param _fee The fee structure\n     */\n    constructor (\n        IExpiringMultiParty _derivative,\n        address _liquidityProvider,\n        address _validator,\n        uint256 _startingCollateralization,\n        Fee memory _fee\n    ) public nonReentrant {\n        ticStorage.initialize(\n            _derivative,\n            _liquidityProvider,\n            _validator,\n            FixedPoint.Unsigned(_startingCollateralization),\n            _fee\n        );\n    }\n\n    //----------------------------------------\n    // Modifiers\n    //----------------------------------------\n\n    modifier onlyLiquidityProvider() {\n        require(msg.sender == ticStorage.liquidityProvider, 'Must be liquidity provider');\n        _;\n    }\n\n    modifier onlyValidator() {\n        require(msg.sender == ticStorage.validator, 'Must be validator');\n        _;\n    }\n\n    //----------------------------------------\n    // External functions\n    //----------------------------------------\n\n    /**\n     * @notice Submit a request to mint tokens\n     * @notice The request needs to approved by the LP before tokens are created. This is\n     *         necessary to prevent users from abusing LPs by minting large amounts of tokens\n     *         with little collateral.\n     * @notice User must approve collateral transfer for the mint request to succeed\n     * @param collateralAmount The amount of collateral supplied\n     * @param numTokens The number of tokens the user wants to mint\n     */\n    function mintRequest(uint256 collateralAmount, uint256 numTokens)\n        external\n        override\n        nonReentrant\n    {\n        ticStorage.mintRequest(\n            FixedPoint.Unsigned(collateralAmount),\n            FixedPoint.Unsigned(numTokens)\n        );\n    }\n\n    /**\n     * @notice Approve a mint request as an LP\n     * @notice This will typically be done with a keeper bot\n     * @notice User needs to have approved the transfer of collateral tokens\n     * @param mintID The ID of the mint request\n     */\n    function approveMint(bytes32 mintID) external override nonReentrant onlyValidator {\n        ticStorage.approveMint(mintID);\n    }\n\n\n    /**\n     * @notice Reject a mint request as an LP\n     * @notice This will typically be done with a keeper bot\n     * @param mintID The ID of the mint request\n     */\n    function rejectMint(bytes32 mintID) external override nonReentrant onlyValidator {\n        ticStorage.rejectMint(mintID);\n    }\n\n    /**\n     * @notice Liquidity provider supplies margin to the TIC to collateralize user deposits\n     * @param collateralAmount The amount of margin supplied\n     */\n    function deposit(uint256 collateralAmount)\n        external\n        override\n        nonReentrant\n        onlyLiquidityProvider\n    {\n        ticStorage.deposit(FixedPoint.Unsigned(collateralAmount));\n    }\n\n    /**\n     * TODO: Potentially restrict this function to only TICs registered on a whitelist\n     * @notice Called by a source TIC's `exchange` function to mint destination tokens\n     * @dev This function could be called by any account to mint tokens, however they will lose\n     *      their excess collateral to the liquidity provider when they redeem the tokens.\n     * @param collateralAmount The amount of collateral to use from the source TIC\n     * @param numTokens The number of new tokens to mint\n     */\n    function exchangeMint(uint256 collateralAmount, uint256 numTokens)\n        external\n        override\n        nonReentrant\n    {\n        ticStorage.exchangeMint(\n            FixedPoint.Unsigned(collateralAmount),\n            FixedPoint.Unsigned(numTokens)\n        );\n    }\n\n    /**\n     * @notice Start a withdrawal request\n     * @notice Collateral can be withdrawn once the liveness period has elapsed\n     * @param collateralAmount The amount of short margin to withdraw\n     */\n    function withdrawRequest(uint256 collateralAmount)\n        external\n        override\n        onlyLiquidityProvider\n        nonReentrant\n    {\n        ticStorage.withdrawRequest(FixedPoint.Unsigned(collateralAmount));\n    }\n\n    /**\n     * @notice Withdraw collateral after a withdraw request has passed it's liveness period\n     */\n    function withdrawPassedRequest() external override onlyLiquidityProvider nonReentrant {\n        ticStorage.withdrawPassedRequest();\n    }\n\n    /**\n     * @notice Submit a request to redeem tokens\n     * @notice The request needs to approved by the LP before tokens are created. This is\n     *         necessary to prevent users from abusing LPs by redeeming large amounts of collateral\n     *         from a small number of tokens.\n     * @notice User must approve synthetic token transfer for the redeem request to succeed\n     * @param collateralAmount The amount of collateral to redeem tokens for\n     * @param numTokens The number of tokens to redeem\n     */\n    function redeemRequest(uint256 collateralAmount, uint256 numTokens)\n        external\n        override\n        nonReentrant\n    {\n        ticStorage.redeemRequest(\n            FixedPoint.Unsigned(collateralAmount),\n            FixedPoint.Unsigned(numTokens)\n        );\n    }\n\n    /**\n     * @notice Approve a redeem request as an LP\n     * @notice This will typically be done with a keeper bot\n     * @notice User needs to have approved the transfer of synthetic tokens\n     * @param redeemID The ID of the redeem request\n     */\n    function approveRedeem(bytes32 redeemID) external override nonReentrant {\n        ticStorage.approveRedeem(redeemID);\n    }\n\n    /**\n     * @notice Reject a redeem request as an LP\n     * @notice This will typically be done with a keeper bot\n     * @param redeemID The ID of the redeem request\n     */\n    function rejectRedeem(bytes32 redeemID) external override nonReentrant {\n        ticStorage.rejectRedeem(redeemID);\n    }\n\n    /**\n     * @notice Redeem tokens after contract expiry\n     * @notice After derivative expiry, an LP should use this instead of `withdrawRequest` to\n     *         retrieve their collateral.\n     */\n    function settleExpired() external override nonReentrant {\n        ticStorage.settleExpired();\n    }\n\n    /**\n     * @notice Submit a request to perform an atomic of tokens between TICs\n     * @dev The number of destination tokens needs to be calculated relative to the value of the\n     *      source tokens and the destination's collateral ratio. If too many destination tokens\n     *      are requested the transaction will fail.\n     * @param destTIC The destination TIC\n     * @param numTokens The number of source tokens to swap\n     * @param destNumTokens The number of destination tokens the swap attempts to procure\n     */\n    function exchangeRequest(TICInterface destTIC, uint256 numTokens, uint256 destNumTokens)\n        external\n        override\n        nonReentrant\n    {\n        ticStorage.exchangeRequest(\n            destTIC,\n            FixedPoint.Unsigned(numTokens),\n            FixedPoint.Unsigned(destNumTokens)\n        );\n    }\n\n    /**\n     * @notice Approve an exchange request\n     * @notice This will typically be done with a keeper bot\n     * @notice User needs to have approved the transfer of synthetic tokens\n     * @param exchangeID The ID of the exchange request\n     */\n    function approveExchange(bytes32 exchangeID) external override onlyValidator nonReentrant {\n        ticStorage.approveExchange(exchangeID);\n    }\n\n\n    /**\n     * @notice Reject an exchange request\n     * @notice This will typically be done with a keeper bot\n     * @param exchangeID The ID of the exchange request\n     */\n    function rejectExchange(bytes32 exchangeID) external override onlyValidator nonReentrant {\n        ticStorage.rejectExchange(exchangeID);\n    }\n\n    //----------------------------------------\n    // External views\n    //----------------------------------------\n\n    /**\n     * @notice Get the derivative contract\n     * @return The `ExpiringMultiParty` derivative contract\n     */\n    function derivative() external view override returns (IExpiringMultiParty) {\n        return ticStorage.derivative;\n    }\n\n    /**\n     * @notice Get the collateral token\n     * @return The ERC20 collateral token\n     */\n    function collateralToken() external view override returns (IERC20) {\n        return ticStorage.rtoken.token();\n    }\n\n    /**\n     * @notice Get the synthetic token from the derivative contract\n     * @return The ERC20 synthetic token\n     */\n    function syntheticToken() external view override returns (IERC20) {\n        return ticStorage.derivative.tokenCurrency();\n    }\n\n    /**\n     * @notice Calculate the fees a user will have to pay to mint tokens with their collateral\n     * @return The fee structure\n     */\n    function calculateMintFee(uint256 collateralAmount) external view override returns (uint256) {\n        return FixedPoint.Unsigned(collateralAmount).mul(ticStorage.fee.mintFee).rawValue;\n    }\n\n    /**\n     * @notice Get all open mint requests\n     * @return An array of mint requests\n     */\n    function getMintRequests() external view override returns (MintRequest[] memory) {\n        return ticStorage.getMintRequests();\n    }\n\n    /**\n     * @notice Get all open redeem requests\n     * @return An array of redeem requests\n     */\n    function getRedeemRequests() external view override returns (RedeemRequest[] memory) {\n        return ticStorage.getRedeemRequests();\n    }\n\n    /**\n     * @notice Get all open exchange requests\n     * @return An array of exchange requests\n     */\n    function getExchangeRequests() external view override returns (ExchangeRequest[] memory) {\n        return ticStorage.getExchangeRequests();\n    }\n}\n",
  "sourcePath": "/home/opz/Projects/SynFiat/contracts/TIC.sol",
  "compiler": {
    "name": "solc",
    "version": "0.6.4+commit.1dca32f3.Emscripten.clang"
  },
  "schemaVersion": "3.2.0",
  "updatedAt": "2020-06-01T05:12:16.658Z",
  "networkType": "ethereum",
  "devdoc": {
    "details": "Collateral is wrapped by an `RToken` to accrue and distribute interest before being sent     to the `ExpiringMultiParty` contract.",
    "methods": {
      "approveExchange(bytes32)": {
        "params": {
          "exchangeID": "The ID of the exchange request"
        }
      },
      "approveMint(bytes32)": {
        "params": {
          "mintID": "The ID of the mint request"
        }
      },
      "approveRedeem(bytes32)": {
        "params": {
          "redeemID": "The ID of the redeem request"
        }
      },
      "constructor": {
        "params": {
          "_derivative": "The `ExpiringMultiParty`",
          "_fee": "The fee structure",
          "_liquidityProvider": "The liquidity provider",
          "_startingCollateralization": "Collateralization ratio to use before a global one is set",
          "_validator": "The address that validates mint and exchange requests"
        }
      },
      "deposit(uint256)": {
        "params": {
          "collateralAmount": "The amount of margin supplied"
        }
      },
      "exchangeMint(uint256,uint256)": {
        "details": "This function could be called by any account to mint tokens, however they will lose     their excess collateral to the liquidity provider when they redeem the tokens.",
        "params": {
          "collateralAmount": "The amount of collateral to use from the source TIC",
          "numTokens": "The number of new tokens to mint"
        }
      },
      "exchangeRequest(address,uint256,uint256)": {
        "details": "The number of destination tokens needs to be calculated relative to the value of the     source tokens and the destination's collateral ratio. If too many destination tokens     are requested the transaction will fail.",
        "params": {
          "destNumTokens": "The number of destination tokens the swap attempts to procure",
          "destTIC": "The destination TIC",
          "numTokens": "The number of source tokens to swap"
        }
      },
      "mintRequest(uint256,uint256)": {
        "params": {
          "collateralAmount": "The amount of collateral supplied",
          "numTokens": "The number of tokens the user wants to mint"
        }
      },
      "redeemRequest(uint256,uint256)": {
        "params": {
          "collateralAmount": "The amount of collateral to redeem tokens for",
          "numTokens": "The number of tokens to redeem"
        }
      },
      "rejectExchange(bytes32)": {
        "params": {
          "exchangeID": "The ID of the exchange request"
        }
      },
      "rejectMint(bytes32)": {
        "params": {
          "mintID": "The ID of the mint request"
        }
      },
      "rejectRedeem(bytes32)": {
        "params": {
          "redeemID": "The ID of the redeem request"
        }
      },
      "withdrawRequest(uint256)": {
        "params": {
          "collateralAmount": "The amount of short margin to withdraw"
        }
      }
    },
    "title": "Token Issuer Contract"
  },
  "userdoc": {
    "methods": {
      "approveExchange(bytes32)": {
        "notice": "Approve an exchange requestThis will typically be done with a keeper botUser needs to have approved the transfer of synthetic tokens"
      },
      "approveMint(bytes32)": {
        "notice": "Approve a mint request as an LPThis will typically be done with a keeper botUser needs to have approved the transfer of collateral tokens"
      },
      "approveRedeem(bytes32)": {
        "notice": "Approve a redeem request as an LPThis will typically be done with a keeper botUser needs to have approved the transfer of synthetic tokens"
      },
      "calculateMintFee(uint256)": {
        "notice": "Calculate the fees a user will have to pay to mint tokens with their collateral"
      },
      "collateralToken()": {
        "notice": "Get the collateral token"
      },
      "constructor": "The derivative's margin currency must be a RTokenThe validator will generally be an address owned by the LP`_startingCollateralization should be greater than the expected asset price multiplied     by the collateral requirement. The degree to which it is greater should be based on     the expected asset volatility.",
      "deposit(uint256)": {
        "notice": "Liquidity provider supplies margin to the TIC to collateralize user deposits"
      },
      "derivative()": {
        "notice": "Get the derivative contract"
      },
      "exchangeMint(uint256,uint256)": {
        "notice": "TODO: Potentially restrict this function to only TICs registered on a whitelistCalled by a source TIC's `exchange` function to mint destination tokens"
      },
      "exchangeRequest(address,uint256,uint256)": {
        "notice": "Submit a request to perform an atomic of tokens between TICs"
      },
      "getExchangeRequests()": {
        "notice": "Get all open exchange requests"
      },
      "getMintRequests()": {
        "notice": "Get all open mint requests"
      },
      "getRedeemRequests()": {
        "notice": "Get all open redeem requests"
      },
      "mintRequest(uint256,uint256)": {
        "notice": "Submit a request to mint tokensThe request needs to approved by the LP before tokens are created. This is        necessary to prevent users from abusing LPs by minting large amounts of tokens        with little collateral.User must approve collateral transfer for the mint request to succeed"
      },
      "redeemRequest(uint256,uint256)": {
        "notice": "Submit a request to redeem tokensThe request needs to approved by the LP before tokens are created. This is        necessary to prevent users from abusing LPs by redeeming large amounts of collateral        from a small number of tokens.User must approve synthetic token transfer for the redeem request to succeed"
      },
      "rejectExchange(bytes32)": {
        "notice": "Reject an exchange requestThis will typically be done with a keeper bot"
      },
      "rejectMint(bytes32)": {
        "notice": "Reject a mint request as an LPThis will typically be done with a keeper bot"
      },
      "rejectRedeem(bytes32)": {
        "notice": "Reject a redeem request as an LPThis will typically be done with a keeper bot"
      },
      "settleExpired()": {
        "notice": "Redeem tokens after contract expiryAfter derivative expiry, an LP should use this instead of `withdrawRequest` to        retrieve their collateral."
      },
      "syntheticToken()": {
        "notice": "Get the synthetic token from the derivative contract"
      },
      "withdrawPassedRequest()": {
        "notice": "Withdraw collateral after a withdraw request has passed it's liveness period"
      },
      "withdrawRequest(uint256)": {
        "notice": "Start a withdrawal requestCollateral can be withdrawn once the liveness period has elapsed"
      }
    },
    "notice": "Collects margin, issues synthetic assets, and distributes accrued interest"
  }
}