{
  "contractName": "TICFactory",
  "abi": [
    {
      "inputs": [
        {
          "internalType": "contract ExpiringMultiPartyCreator",
          "name": "_derivativeCreator",
          "type": "address"
        }
      ],
      "stateMutability": "nonpayable",
      "type": "constructor"
    },
    {
      "anonymous": false,
      "inputs": [
        {
          "indexed": true,
          "internalType": "address",
          "name": "previousOwner",
          "type": "address"
        },
        {
          "indexed": true,
          "internalType": "address",
          "name": "newOwner",
          "type": "address"
        }
      ],
      "name": "OwnershipTransferred",
      "type": "event"
    },
    {
      "inputs": [],
      "name": "isOwner",
      "outputs": [
        {
          "internalType": "bool",
          "name": "",
          "type": "bool"
        }
      ],
      "stateMutability": "view",
      "type": "function",
      "constant": true
    },
    {
      "inputs": [],
      "name": "owner",
      "outputs": [
        {
          "internalType": "address",
          "name": "",
          "type": "address"
        }
      ],
      "stateMutability": "view",
      "type": "function",
      "constant": true
    },
    {
      "inputs": [],
      "name": "renounceOwnership",
      "outputs": [],
      "stateMutability": "nonpayable",
      "type": "function"
    },
    {
      "inputs": [
        {
          "internalType": "string",
          "name": "",
          "type": "string"
        }
      ],
      "name": "symbolToTIC",
      "outputs": [
        {
          "internalType": "contract TIC",
          "name": "",
          "type": "address"
        }
      ],
      "stateMutability": "view",
      "type": "function",
      "constant": true
    },
    {
      "inputs": [
        {
          "internalType": "address",
          "name": "newOwner",
          "type": "address"
        }
      ],
      "name": "transferOwnership",
      "outputs": [],
      "stateMutability": "nonpayable",
      "type": "function"
    },
    {
      "inputs": [
        {
          "components": [
            {
              "internalType": "uint256",
              "name": "expirationTimestamp",
              "type": "uint256"
            },
            {
              "internalType": "address",
              "name": "collateralAddress",
              "type": "address"
            },
            {
              "internalType": "bytes32",
              "name": "priceFeedIdentifier",
              "type": "bytes32"
            },
            {
              "internalType": "string",
              "name": "syntheticName",
              "type": "string"
            },
            {
              "internalType": "string",
              "name": "syntheticSymbol",
              "type": "string"
            },
            {
              "components": [
                {
                  "internalType": "uint256",
                  "name": "rawValue",
                  "type": "uint256"
                }
              ],
              "internalType": "struct FixedPoint.Unsigned",
              "name": "collateralRequirement",
              "type": "tuple"
            },
            {
              "components": [
                {
                  "internalType": "uint256",
                  "name": "rawValue",
                  "type": "uint256"
                }
              ],
              "internalType": "struct FixedPoint.Unsigned",
              "name": "disputeBondPct",
              "type": "tuple"
            },
            {
              "components": [
                {
                  "internalType": "uint256",
                  "name": "rawValue",
                  "type": "uint256"
                }
              ],
              "internalType": "struct FixedPoint.Unsigned",
              "name": "sponsorDisputeRewardPct",
              "type": "tuple"
            },
            {
              "components": [
                {
                  "internalType": "uint256",
                  "name": "rawValue",
                  "type": "uint256"
                }
              ],
              "internalType": "struct FixedPoint.Unsigned",
              "name": "disputerDisputeRewardPct",
              "type": "tuple"
            }
          ],
          "internalType": "struct ExpiringMultiPartyCreator.Params",
          "name": "params",
          "type": "tuple"
        },
        {
          "internalType": "address",
          "name": "liquidityProvider",
          "type": "address"
        },
        {
          "internalType": "address",
          "name": "validator",
          "type": "address"
        },
        {
          "internalType": "uint256",
          "name": "startingCollateralization",
          "type": "uint256"
        },
        {
          "components": [
            {
              "components": [
                {
                  "internalType": "uint256",
                  "name": "rawValue",
                  "type": "uint256"
                }
              ],
              "internalType": "struct FixedPoint.Unsigned",
              "name": "mintFee",
              "type": "tuple"
            },
            {
              "internalType": "address[]",
              "name": "mintFeeRecipients",
              "type": "address[]"
            },
            {
              "internalType": "uint32[]",
              "name": "mintFeeProportions",
              "type": "uint32[]"
            },
            {
              "internalType": "address[]",
              "name": "interestFeeRecipients",
              "type": "address[]"
            },
            {
              "internalType": "uint32[]",
              "name": "interestFeeProportions",
              "type": "uint32[]"
            }
          ],
          "internalType": "struct TICInterface.Fee",
          "name": "fee",
          "type": "tuple"
        }
      ],
      "name": "createTIC",
      "outputs": [],
      "stateMutability": "nonpayable",
      "type": "function"
    }
  ],
  "bytecode": "0x608060405234801561001057600080fd5b506040516136e23803806136e283398101604081905261002f916100c9565b60006100426001600160e01b036100c516565b600080546001600160a01b0319166001600160a01b0383169081178255604051929350917f8be0079c531659141344cd1fd0a4f28419497f9722a3daafe3b4186f6b6457e0908290a3506000805460ff60a01b1916600160a01b179055600180546001600160a01b039092166001600160a01b03199092169190911790556100f7565b3390565b6000602082840312156100da578081fd5b81516001600160a01b03811681146100f0578182fd5b9392505050565b6135dc806101066000396000f3fe60806040523480156200001157600080fd5b50600436106200007c5760003560e01c8063a50bc50e1162000057578063a50bc50e14620000c8578063eabf392214620000df578063f2fde38b14620000f6576200007c565b8063715018a614620000815780638da5cb5b146200008d5780638f32d59b14620000af575b600080fd5b6200008b6200010d565b005b62000097620001c8565b604051620000a69190620008c9565b60405180910390f35b620000b9620001e4565b604051620000a69190620008ea565b6200008b620000d93660046200070c565b62000224565b62000097620000f03660046200064b565b62000493565b6200008b6200010736600462000606565b620004c6565b62000117620001e4565b62000159576040517f08c379a0000000000000000000000000000000000000000000000000000000008152600401620001509062000a75565b60405180910390fd5b6000805460405173ffffffffffffffffffffffffffffffffffffffff909116907f8be0079c531659141344cd1fd0a4f28419497f9722a3daafe3b4186f6b6457e0908390a3600080547fffffffffffffffffffffffff0000000000000000000000000000000000000000169055565b60005473ffffffffffffffffffffffffffffffffffffffff1690565b6000805473ffffffffffffffffffffffffffffffffffffffff166200020862000517565b73ffffffffffffffffffffffffffffffffffffffff1614905090565b6200022e620001e4565b62000267576040517f08c379a0000000000000000000000000000000000000000000000000000000008152600401620001509062000a75565b60005474010000000000000000000000000000000000000000900460ff16620002be576040517f08c379a0000000000000000000000000000000000000000000000000000000008152600401620001509062000aaa565b600080547fffffffffffffffffffffff00ffffffffffffffffffffffffffffffffffffffff1681556001546040517ffd24b84800000000000000000000000000000000000000000000000000000000815273ffffffffffffffffffffffffffffffffffffffff9091169063fd24b848906200033e90899060040162000ae1565b602060405180830381600087803b1580156200035957600080fd5b505af11580156200036e573d6000803e3d6000fd5b505050506040513d601f19601f820116820180604052508101906200039491906200062c565b90508085858585604051620003a990620005f8565b620003b9959493929190620008f5565b604051809103906000f080158015620003d6573d6000803e3d6000fd5b506002620003e8608089018962000bdf565b604051620003f8929190620008b9565b908152604051908190036020019020805473ffffffffffffffffffffffffffffffffffffffff929092167fffffffffffffffffffffffff00000000000000000000000000000000000000009092169190911790555050600080547fffffffffffffffffffffff00ffffffffffffffffffffffffffffffffffffffff167401000000000000000000000000000000000000000017905550505050565b805160208183018101805160028252928201919093012091525473ffffffffffffffffffffffffffffffffffffffff1681565b620004d0620001e4565b62000509576040517f08c379a0000000000000000000000000000000000000000000000000000000008152600401620001509062000a75565b62000514816200051b565b50565b3390565b73ffffffffffffffffffffffffffffffffffffffff81166200056b576040517f08c379a0000000000000000000000000000000000000000000000000000000008152600401620001509062000a18565b6000805460405173ffffffffffffffffffffffffffffffffffffffff808516939216917f8be0079c531659141344cd1fd0a4f28419497f9722a3daafe3b4186f6b6457e091a3600080547fffffffffffffffffffffffff00000000000000000000000000000000000000001673ffffffffffffffffffffffffffffffffffffffff92909216919091179055565b61284b8062000d5c83390190565b60006020828403121562000618578081fd5b8135620006258162000d38565b9392505050565b6000602082840312156200063e578081fd5b8151620006258162000d38565b6000602082840312156200065d578081fd5b813567ffffffffffffffff8082111562000675578283fd5b81840185601f82011262000687578384fd5b803592508183111562000698578384fd5b60405160207fffffffffffffffffffffffffffffffffffffffffffffffffffffffffffffffe0601f8601168201018181108482111715620006d7578586fd5b604052838152818401602001871015620006ef578485fd5b6200070284602083016020850162000d2c565b9695505050505050565b600080600080600060a0868803121562000724578081fd5b853567ffffffffffffffff808211156200073c578283fd5b818801610120818b03121562000750578384fd5b965060208801359150620007648262000d38565b909450604087013590620007788262000d38565b909350606087013592506080870135908082111562000795578283fd5b5080870160a0818a031215620007a9578283fd5b80925050509295509295909350565b73ffffffffffffffffffffffffffffffffffffffff169052565b60008284526020808501945082825b8581101562000820578135620007f78162000d38565b73ffffffffffffffffffffffffffffffffffffffff1687529582019590820190600101620007e1565b509495945050505050565b60008284526020808501945082825b858110156200082057813563ffffffff811680821462000858578586fd5b88525095820195908201906001016200083a565b600082845282826020860137806020848601015260207fffffffffffffffffffffffffffffffffffffffffffffffffffffffffffffffe0601f85011685010190509392505050565b359052565b6000828483379101908152919050565b73ffffffffffffffffffffffffffffffffffffffff91909116815260200190565b901515815260200190565b600073ffffffffffffffffffffffffffffffffffffffff8088168352808716602084015280861660408401525083606083015260a060808301526200093e60a0830184620008b4565b6200094d602084018462000c5d565b60a060c08501526200096561014085018284620007d2565b62000974604087018762000c5d565b935091507fffffffffffffffffffffffffffffffffffffffffffffffffffffffffffffff60808683030160e0870152620009b08285856200082b565b620009bf606089018962000c5d565b955093508187820301610100880152620009db818686620007d2565b925050620009ed608088018862000c5d565b9450925080868303016101208701525062000a0a8184846200082b565b9a9950505050505050505050565b60208082526026908201527f4f776e61626c653a206e6577206f776e657220697320746865207a65726f206160408201527f6464726573730000000000000000000000000000000000000000000000000000606082015260800190565b6020808252818101527f4f776e61626c653a2063616c6c6572206973206e6f7420746865206f776e6572604082015260600190565b6020808252601f908201527f5265656e7472616e637947756172643a207265656e7472616e742063616c6c00604082015260600190565b6000602082528235602083015262000afd602084018462000c4e565b62000b0c6040840182620007b8565b506040830135606083015262000b26606084018462000cc6565b61012080608086015262000b40610140860183856200086c565b62000b4f608088018862000cc6565b945092507fffffffffffffffffffffffffffffffffffffffffffffffffffffffffffffffe08682030160a087015262000b8a8185856200086c565b62000b9c60c0880160a08a01620008b4565b62000bae60e0880160c08a01620008b4565b610100945062000bc485880160e08a01620008b4565b62000bd4838801868a01620008b4565b979650505050505050565b60008083357fffffffffffffffffffffffffffffffffffffffffffffffffffffffffffffffe184360301811262000c14578283fd5b8084018035925067ffffffffffffffff83111562000c30578384fd5b6020019250503681900382131562000c4757600080fd5b9250929050565b60008235620006258162000d38565b60008083357fffffffffffffffffffffffffffffffffffffffffffffffffffffffffffffffe184360301811262000c92578283fd5b830160208101925035905067ffffffffffffffff81111562000cb357600080fd5b60208102360383131562000c4757600080fd5b60008083357fffffffffffffffffffffffffffffffffffffffffffffffffffffffffffffffe184360301811262000cfb578283fd5b830160208101925035905067ffffffffffffffff81111562000d1c57600080fd5b80360383131562000c4757600080fd5b82818337506000910152565b73ffffffffffffffffffffffffffffffffffffffff811681146200051457600080fdfe60806040523480156200001157600080fd5b506040516200284b3803806200284b83398101604081905262000034916200023f565b6000805460ff19166001179081905560ff166200006e5760405162461bcd60e51b8152600401620000659062000401565b60405180910390fd5b6000805460ff1916905560408051602081018252838152905163de95134160e01b815273__TICHelper_____________________________9163de95134191620000c7916001918a918a918a9190899060040162000438565b60006040518083038186803b158015620000e057600080fd5b505af4158015620000f5573d6000803e3d6000fd5b50506000805460ff19166001179055506200055e95505050505050565b600082601f83011262000123578081fd5b81516200013a620001348262000525565b620004fe565b8181529150602080830190848101818402860182018710156200015c57600080fd5b60005b8481101562000188578151620001758162000545565b845292820192908201906001016200015f565b505050505092915050565b600082601f830112620001a4578081fd5b8151620001b5620001348262000525565b818152915060208083019084810181840286018201871015620001d757600080fd5b6000805b858110156200020b57825163ffffffff81168114620001f8578283fd5b85529383019391830191600101620001db565b50505050505092915050565b60006020828403121562000229578081fd5b620002356020620004fe565b9151825250919050565b600080600080600060a0868803121562000257578081fd5b8551620002648162000545565b6020870151909550620002778162000545565b60408701519094506200028a8162000545565b6060870151608088015191945092506001600160401b0380821115620002ae578283fd5b81880160a0818b031215620002c1578384fd5b620002cd60a0620004fe565b9250620002db8a8262000217565b8352602081015182811115620002ef578485fd5b620002fd8b82840162000112565b60208501525060408101518281111562000315578485fd5b620003238b82840162000193565b6040850152506060810151828111156200033b578485fd5b620003498b82840162000112565b60608501525060808101518281111562000361578485fd5b6200036f8b82840162000193565b6080850152505050809150509295509295909350565b6000815180845260208085019450808401835b83811015620003bf5781516001600160a01b03168752958201959082019060010162000398565b509495945050505050565b6000815180845260208085019450808401835b83811015620003bf57815163ffffffff1687529582019590820190600101620003dd565b6020808252601f908201527f5265656e7472616e637947756172643a207265656e7472616e742063616c6c00604082015260600190565b600087825260018060a01b03808816602084015280871660408401528086166060840152508351608083015260c060a083015282515160c0830152602083015160a060e08401526200048f61016084018262000385565b6040850151915060bf198085830301610100860152620004b08284620003ca565b606087015193508186820301610120870152620004ce818562000385565b92505060808601519250808583030161014086015250620004f08183620003ca565b9a9950505050505050505050565b6040518181016001600160401b03811182821017156200051d57600080fd5b604052919050565b60006001600160401b038211156200053b578081fd5b5060209081020190565b6001600160a01b03811681146200055b57600080fd5b50565b6122dd806200056e6000396000f3fe608060405234801561001057600080fd5b50600436106101775760003560e01c80637c3970f2116100d8578063b6b55f251161008c578063eb9ce16311610066578063eb9ce163146102cf578063f5ac2abe146102e4578063fcccedc7146102f757610177565b8063b6b55f2514610296578063b72d8ce9146102a9578063cca3595a146102bc57610177565b80638be76e01116100bd5780638be76e0114610268578063998fccc51461027b578063b2016bd41461028e57610177565b80637c3970f21461024d5780638230ecd61461026057610177565b806350539aa81161012f5780635c095e54116101145780635c095e54146102075780637242b9fc1461022757806374899a7e1461023a57610177565b806350539aa8146101e157806353c34f02146101f457610177565b80631985a89f116101605780631985a89f146101af57806333a46ca2146101c457806336a99ebd146101ce57610177565b80630e3e7ba71461017c578063139d006c1461019a575b600080fd5b6101846102ff565b6040516101919190612013565b60405180910390f35b6101a26103ca565b6040516101919190611f30565b6101b7610490565b60405161019191906120b2565b6101cc6104ac565b005b6101cc6101dc366004611e47565b610618565b6101cc6101ef366004611e47565b6107f7565b6101cc610202366004611e47565b61094e565b61021a610215366004611e47565b610aa5565b6040516101919190612055565b6101cc610235366004611e47565b610ad9565b6101cc610248366004611e47565b610c81565b6101cc61025b366004611ec7565b610def565b6101b7610f92565b6101cc610276366004611ec7565b611035565b6101cc610289366004611e47565b6111a0565b6101b761134a565b6101cc6102a4366004611e47565b6113b5565b6101cc6102b7366004611e47565b6114c7565b6101cc6102ca366004611ec7565b611671565b6102d761179d565b6040516101919190611fc5565b6101cc6102f2366004611e93565b611863565b6101cc611a0b565b6040517f77a7fa9e00000000000000000000000000000000000000000000000000000000815260609073__TICHelper_____________________________906377a7fa9e9061035390600190600401612055565b60006040518083038186803b15801561036b57600080fd5b505af415801561037f573d6000803e3d6000fd5b505050506040513d6000823e601f3d9081017fffffffffffffffffffffffffffffffffffffffffffffffffffffffffffffffe01682016040526103c59190810190611db4565b905090565b6040517f4da5bc7b00000000000000000000000000000000000000000000000000000000815260609073__TICHelper_____________________________90634da5bc7b9061041e90600190600401612055565b60006040518083038186803b15801561043657600080fd5b505af415801561044a573d6000803e3d6000fd5b505050506040513d6000823e601f3d9081017fffffffffffffffffffffffffffffffffffffffffffffffffffffffffffffffe01682016040526103c59190810190611c7b565b60015473ffffffffffffffffffffffffffffffffffffffff1690565b60035473ffffffffffffffffffffffffffffffffffffffff163314610506576040517f08c379a00000000000000000000000000000000000000000000000000000000081526004016104fd90612167565b60405180910390fd5b60005460ff16610542576040517f08c379a00000000000000000000000000000000000000000000000000000000081526004016104fd90612130565b600080547fffffffffffffffffffffffffffffffffffffffffffffffffffffffffffffff001690556040517f1c647abd00000000000000000000000000000000000000000000000000000000815273__TICHelper_____________________________90631c647abd906105bb90600190600401612055565b60006040518083038186803b1580156105d357600080fd5b505af41580156105e7573d6000803e3d6000fd5b5050600080547fffffffffffffffffffffffffffffffffffffffffffffffffffffffffffffff001660011790555050565b60045473ffffffffffffffffffffffffffffffffffffffff163314610669576040517f08c379a00000000000000000000000000000000000000000000000000000000081526004016104fd9061219e565b60005460ff166106a5576040517f08c379a00000000000000000000000000000000000000000000000000000000081526004016104fd90612130565b600080547fffffffffffffffffffffffffffffffffffffffffffffffffffffffffffffff0016815581815260106020526040908190206002015490517ff2b66f0900000000000000000000000000000000000000000000000000000000815273ffffffffffffffffffffffffffffffffffffffff9091169073__TICHelper_____________________________9063f2b66f099061074a9060019086906004016121d5565b60006040518083038186803b15801561076257600080fd5b505af4158015610776573d6000803e3d6000fd5b505050508073ffffffffffffffffffffffffffffffffffffffff167fcfa4c7018a3b09267833d13734668d7325e5e99a9607b892d417207b058f20d3836040516107c09190612055565b60405180910390a25050600080547fffffffffffffffffffffffffffffffffffffffffffffffffffffffffffffff00166001179055565b60005460ff16610833576040517f08c379a00000000000000000000000000000000000000000000000000000000081526004016104fd90612130565b600080547fffffffffffffffffffffffffffffffffffffffffffffffffffffffffffffff0016815581815260136020526040908190206002015490517f2368045a00000000000000000000000000000000000000000000000000000000815273ffffffffffffffffffffffffffffffffffffffff9091169073__TICHelper_____________________________90632368045a906108d89060019086906004016121d5565b60006040518083038186803b1580156108f057600080fd5b505af4158015610904573d6000803e3d6000fd5b505050508073ffffffffffffffffffffffffffffffffffffffff167ff8eaec7c1b7b19060d1594532caca20fa4cb9d60c5f61244fa2487f341a29f0f836040516107c09190612055565b60005460ff1661098a576040517f08c379a00000000000000000000000000000000000000000000000000000000081526004016104fd90612130565b600080547fffffffffffffffffffffffffffffffffffffffffffffffffffffffffffffff0016815581815260136020526040908190206002015490517fa56a6d5200000000000000000000000000000000000000000000000000000000815273ffffffffffffffffffffffffffffffffffffffff9091169073__TICHelper_____________________________9063a56a6d5290610a2f9060019086906004016121d5565b60006040518083038186803b158015610a4757600080fd5b505af4158015610a5b573d6000803e3d6000fd5b505050508073ffffffffffffffffffffffffffffffffffffffff167f5cdff20fff2ad36b72ea16dd9b7027f3d53880d2aa7c7f3b66404e9c1a142493836040516107c09190612055565b604080516020808201835260075482528251908101909252828252600091610ad29163ffffffff611ac016565b5192915050565b60045473ffffffffffffffffffffffffffffffffffffffff163314610b2a576040517f08c379a00000000000000000000000000000000000000000000000000000000081526004016104fd9061219e565b60005460ff16610b66576040517f08c379a00000000000000000000000000000000000000000000000000000000081526004016104fd90612130565b600080547fffffffffffffffffffffffffffffffffffffffffffffffffffffffffffffff0016815581815260106020526040908190206002015490517fad0bdda100000000000000000000000000000000000000000000000000000000815273ffffffffffffffffffffffffffffffffffffffff9091169073__TICHelper_____________________________9063ad0bdda190610c0b9060019086906004016121d5565b60006040518083038186803b158015610c2357600080fd5b505af4158015610c37573d6000803e3d6000fd5b505050508073ffffffffffffffffffffffffffffffffffffffff167fc1257c3422a2d5dd3e6112d41b825533c33b8a91bc88cffb2d298c30f1828fe5836040516107c09190612055565b60035473ffffffffffffffffffffffffffffffffffffffff163314610cd2576040517f08c379a00000000000000000000000000000000000000000000000000000000081526004016104fd90612167565b60005460ff16610d0e576040517f08c379a00000000000000000000000000000000000000000000000000000000081526004016104fd90612130565b600080547fffffffffffffffffffffffffffffffffffffffffffffffffffffffffffffff001690556040805160208101825282815290517e12b1f800000000000000000000000000000000000000000000000000000000815273__TICHelper_____________________________916212b1f891610d9191600191600401612216565b60006040518083038186803b158015610da957600080fd5b505af4158015610dbd573d6000803e3d6000fd5b5050600080547fffffffffffffffffffffffffffffffffffffffffffffffffffffffffffffff00166001179055505050565b60005460ff16610e2b576040517f08c379a00000000000000000000000000000000000000000000000000000000081526004016104fd90612130565b600080547fffffffffffffffffffffffffffffffffffffffffffffffffffffffffffffff0016815560408051602080820183528582528251908101835284815291517fb85fa0c200000000000000000000000000000000000000000000000000000000815273__TICHelper_____________________________9263b85fa0c292610ebc9260019290600401612225565b60206040518083038186803b158015610ed457600080fd5b505af4158015610ee8573d6000803e3d6000fd5b505050506040513d601f19601f82011682018060405250810190610f0c9190611e5f565b90503373ffffffffffffffffffffffffffffffffffffffff167f1f2447cc38f55ebf1671418d6998b2d2f7774152ab993d79154e01e29d9bf67782428686604051610f5a9493929190612097565b60405180910390a25050600080547fffffffffffffffffffffffffffffffffffffffffffffffffffffffffffffff0016600117905550565b600154604080517f7048594b000000000000000000000000000000000000000000000000000000008152905160009273ffffffffffffffffffffffffffffffffffffffff1691637048594b916004808301926020929190829003018186803b158015610ffd57600080fd5b505afa158015611011573d6000803e3d6000fd5b505050506040513d601f19601f820116820180604052508101906103c59190611e77565b60005460ff16611071576040517f08c379a00000000000000000000000000000000000000000000000000000000081526004016104fd90612130565b600080547fffffffffffffffffffffffffffffffffffffffffffffffffffffffffffffff0016815560408051602080820183528582528251908101835284815291517f99ecc8ee00000000000000000000000000000000000000000000000000000000815273__TICHelper_____________________________926399ecc8ee926111029260019290600401612225565b60206040518083038186803b15801561111a57600080fd5b505af415801561112e573d6000803e3d6000fd5b505050506040513d601f19601f820116820180604052508101906111529190611e5f565b90503373ffffffffffffffffffffffffffffffffffffffff167f98ce4331847829c3cdcf95d2ae4100212878081b653a6df89e3a76ab14ac881182428686604051610f5a9493929190612097565b60005460ff166111dc576040517f08c379a00000000000000000000000000000000000000000000000000000000081526004016104fd90612130565b600080547fffffffffffffffffffffffffffffffffffffffffffffffffffffffffffffff0016905560045473ffffffffffffffffffffffffffffffffffffffff163314611255576040517f08c379a00000000000000000000000000000000000000000000000000000000081526004016104fd9061219e565b6000818152600d6020526040908190206002015490517fa923bc1200000000000000000000000000000000000000000000000000000000815273ffffffffffffffffffffffffffffffffffffffff9091169073__TICHelper_____________________________9063a923bc12906112d49060019086906004016121d5565b60006040518083038186803b1580156112ec57600080fd5b505af4158015611300573d6000803e3d6000fd5b505050508073ffffffffffffffffffffffffffffffffffffffff167f704f76cbfb948e81f51428a4981f0bbf366d86936d14fff8a7e1e65d3de929cb836040516107c09190612055565b600554604080517ffc0c546a000000000000000000000000000000000000000000000000000000008152905160009273ffffffffffffffffffffffffffffffffffffffff169163fc0c546a916004828101926020929190829003018186803b158015610ffd57600080fd5b60005460ff166113f1576040517f08c379a00000000000000000000000000000000000000000000000000000000081526004016104fd90612130565b600080547fffffffffffffffffffffffffffffffffffffffffffffffffffffffffffffff0016905560035473ffffffffffffffffffffffffffffffffffffffff16331461146a576040517f08c379a00000000000000000000000000000000000000000000000000000000081526004016104fd90612167565b6040805160208101825282815290517fed3395da00000000000000000000000000000000000000000000000000000000815273__TICHelper_____________________________9163ed3395da91610d9191600191600401612216565b60005460ff16611503576040517f08c379a00000000000000000000000000000000000000000000000000000000081526004016104fd90612130565b600080547fffffffffffffffffffffffffffffffffffffffffffffffffffffffffffffff0016905560045473ffffffffffffffffffffffffffffffffffffffff16331461157c576040517f08c379a00000000000000000000000000000000000000000000000000000000081526004016104fd9061219e565b6000818152600d6020526040908190206002015490517f3f63703d00000000000000000000000000000000000000000000000000000000815273ffffffffffffffffffffffffffffffffffffffff9091169073__TICHelper_____________________________90633f63703d906115fb9060019086906004016121d5565b60006040518083038186803b15801561161357600080fd5b505af4158015611627573d6000803e3d6000fd5b505050508073ffffffffffffffffffffffffffffffffffffffff167fe415bcfb927e3eafa5ab377de7ddccc55dedc71ba85c6cfbadea6bf317435c8d836040516107c09190612055565b60005460ff166116ad576040517f08c379a00000000000000000000000000000000000000000000000000000000081526004016104fd90612130565b600080547fffffffffffffffffffffffffffffffffffffffffffffffffffffffffffffff0016905560408051602080820183528482528251908101835283815291517fe3411dbc00000000000000000000000000000000000000000000000000000000815273__TICHelper_____________________________9263e3411dbc9261173e9260019290600401612225565b60006040518083038186803b15801561175657600080fd5b505af415801561176a573d6000803e3d6000fd5b5050600080547fffffffffffffffffffffffffffffffffffffffffffffffffffffffffffffff0016600117905550505050565b6040517ffdd3eeb200000000000000000000000000000000000000000000000000000000815260609073__TICHelper_____________________________9063fdd3eeb2906117f190600190600401612055565b60006040518083038186803b15801561180957600080fd5b505af415801561181d573d6000803e3d6000fd5b505050506040513d6000823e601f3d9081017fffffffffffffffffffffffffffffffffffffffffffffffffffffffffffffffe01682016040526103c59190810190611d21565b60005460ff1661189f576040517f08c379a00000000000000000000000000000000000000000000000000000000081526004016104fd90612130565b600080547fffffffffffffffffffffffffffffffffffffffffffffffffffffffffffffff0016815560408051602080820183528582528251908101835284815291517fd6f79d2200000000000000000000000000000000000000000000000000000000815273__TICHelper_____________________________9263d6f79d2292611932926001928a92916004016121e3565b60206040518083038186803b15801561194a57600080fd5b505af415801561195e573d6000803e3d6000fd5b505050506040513d601f19601f820116820180604052508101906119829190611e5f565b90503373ffffffffffffffffffffffffffffffffffffffff167f7b50f5a35a69c552289956f6d3d7b0b90dc9dba083ad33fa8db602c6ed57f4c982428787876040516119d295949392919061205e565b60405180910390a25050600080547fffffffffffffffffffffffffffffffffffffffffffffffffffffffffffffff001660011790555050565b60005460ff16611a47576040517f08c379a00000000000000000000000000000000000000000000000000000000081526004016104fd90612130565b600080547fffffffffffffffffffffffffffffffffffffffffffffffffffffffffffffff001690556040517f0827cff500000000000000000000000000000000000000000000000000000000815273__TICHelper_____________________________90630827cff5906105bb90600190600401612055565b611ac8611b60565b6040805160208101909152825184518291670de0b6b3a764000091611af29163ffffffff611b0516565b81611af957fe5b04905290505b92915050565b600082611b1457506000611aff565b82820282848281611b2157fe5b0414611b59576040517f08c379a00000000000000000000000000000000000000000000000000000000081526004016104fd906120d3565b9392505050565b6040518060200160405280600081525090565b600060c08284031215611b84578081fd5b611b8e60c061223b565b905081518152602082015160208201526040820151611bac81612282565b60408201526060820151611bbf81612282565b6060820152611bd18360808401611c56565b6080820152611be38360a08401611c56565b60a082015292915050565b600060a08284031215611bff578081fd5b611c0960a061223b565b905081518152602082015160208201526040820151611c2781612282565b6040820152611c398360608401611c56565b6060820152611c4b8360808401611c56565b608082015292915050565b600060208284031215611c67578081fd5b611c71602061223b565b9151825250919050565b60006020808385031215611c8d578182fd5b825167ffffffffffffffff811115611ca3578283fd5b80840185601f820112611cb4578384fd5b80519150611cc9611cc483612262565b61223b565b8281528381019082850160c0808602850187018a1015611ce7578788fd5b8794505b85851015611d1357611cfd8a83611b73565b8452600194909401939286019290810190611ceb565b509098975050505050505050565b60006020808385031215611d33578182fd5b825167ffffffffffffffff811115611d49578283fd5b80840185601f820112611d5a578384fd5b80519150611d6a611cc483612262565b8281528381019082850160a0808602850187018a1015611d88578788fd5b8794505b85851015611d1357611d9e8a83611bee565b8452600194909401939286019290810190611d8c565b60006020808385031215611dc6578182fd5b825167ffffffffffffffff811115611ddc578283fd5b80840185601f820112611ded578384fd5b80519150611dfd611cc483612262565b8281528381019082850160a0808602850187018a1015611e1b578788fd5b8794505b85851015611d1357611e318a83611bee565b8452600194909401939286019290810190611e1f565b600060208284031215611e58578081fd5b5035919050565b600060208284031215611e70578081fd5b5051919050565b600060208284031215611e88578081fd5b8151611b5981612282565b600080600060608486031215611ea7578182fd5b8335611eb281612282565b95602085013595506040909401359392505050565b60008060408385031215611ed9578182fd5b50508035926020909101359150565b805182526020810151602083015273ffffffffffffffffffffffffffffffffffffffff6040820151166040830152606081015151606083015260808101515160808301525050565b602080825282518282018190526000919060409081850190868401855b82811015611fb85781518051855286810151878601528581015173ffffffffffffffffffffffffffffffffffffffff9081168787015260608083015190911690860152608080820151519086015260a090810151519085015260c09093019290850190600101611f4d565b5091979650505050505050565b6020808252825182820181905260009190848201906040850190845b8181101561200757611ff4838551611ee8565b9284019260a09290920191600101611fe1565b50909695505050505050565b6020808252825182820181905260009190848201906040850190845b8181101561200757612042838551611ee8565b9284019260a0929092019160010161202f565b90815260200190565b948552602085019390935273ffffffffffffffffffffffffffffffffffffffff9190911660408401526060830152608082015260a00190565b93845260208401929092526040830152606082015260800190565b73ffffffffffffffffffffffffffffffffffffffff91909116815260200190565b60208082526021908201527f536166654d6174683a206d756c7469706c69636174696f6e206f766572666c6f60408201527f7700000000000000000000000000000000000000000000000000000000000000606082015260800190565b6020808252601f908201527f5265656e7472616e637947756172643a207265656e7472616e742063616c6c00604082015260600190565b6020808252601a908201527f4d757374206265206c69717569646974792070726f7669646572000000000000604082015260600190565b60208082526011908201527f4d7573742062652076616c696461746f72000000000000000000000000000000604082015260600190565b918252602082015260400190565b93845273ffffffffffffffffffffffffffffffffffffffff92909216602084015251604083015251606082015260800190565b91825251602082015260400190565b9283529051602083015251604082015260600190565b60405181810167ffffffffffffffff8111828210171561225a57600080fd5b604052919050565b600067ffffffffffffffff821115612278578081fd5b5060209081020190565b73ffffffffffffffffffffffffffffffffffffffff811681146122a457600080fd5b5056fea26469706673582212207e82eb8e673645c63afc0bd3f668b12ac1761380d79319977ddf6f731a138ec964736f6c63430006040033a26469706673582212202b664172b6500b76fb4f17dc7656ddd25ae224f25f4e7b07f98858555d37862564736f6c63430006040033",
  "source": "pragma solidity ^0.6.0;\npragma experimental ABIEncoderV2;\n\nimport {Ownable} from \"@openzeppelin/contracts/ownership/Ownable.sol\";\nimport {ReentrancyGuard} from \"@openzeppelin/contracts/utils/ReentrancyGuard.sol\";\nimport {TIC} from \"./TIC.sol\";\nimport {IExpiringMultiParty} from \"./IExpiringMultiParty.sol\";\nimport {ExpiringMultiPartyCreator} from \"./uma-contracts/financial-templates/implementation/ExpiringMultiPartyCreator.sol\";\n\ncontract TICFactory is Ownable, ReentrancyGuard {\n    //----------------------------------------\n    // State variables\n    //----------------------------------------\n\n    ExpiringMultiPartyCreator private derivativeCreator;\n\n    // Get a TIC using its token symbol\n    mapping(string => TIC) public symbolToTIC;\n\n    //----------------------------------------\n    // Constructor\n    //----------------------------------------\n\n    constructor(ExpiringMultiPartyCreator _derivativeCreator) public {\n        derivativeCreator = _derivativeCreator;\n    }\n\n    //----------------------------------------\n    // External functions\n    //----------------------------------------\n\n    /**\n     * @notice Creates a new TIC\n     * @param params The parameters used to create the underlying derivative\n     * @param liquidityProvider The liquidity provider\n     * @param validator The address that validates mint and exchange requests\n     * @param startingCollateralization Collateralization ratio to use before a global one is set\n     * @param fee The fee structure\n     */\n    function createTIC(\n        ExpiringMultiPartyCreator.Params calldata params,\n        address liquidityProvider,\n        address validator,\n        uint256 startingCollateralization,\n        TIC.Fee calldata fee\n    )\n        external\n        onlyOwner\n        nonReentrant\n    {\n        // Create the derivative contract\n        // TODO: `ExpiringMultiPartyCreator` past commit b6dc123e11d7253cdbe0fcc40b7ab4a992c4e56d\n        //       requires `minSponsorTokens` param.\n        address derivative = derivativeCreator.createExpiringMultiParty(params);\n\n        // Create the TIC\n        symbolToTIC[params.syntheticSymbol] = new TIC(\n            IExpiringMultiParty(derivative),\n            liquidityProvider,\n            validator,\n            startingCollateralization,\n            fee\n        );\n    }\n}\n",
  "sourcePath": "/home/alessandrovm/JarvisLavoro/SynFiat/packages/contracts/contracts/TICFactory.sol",
  "compiler": {
    "name": "solc",
    "version": "0.6.4+commit.1dca32f3.Emscripten.clang"
  },
  "schemaVersion": "3.2.0",
  "updatedAt": "2020-07-27T14:21:12.298Z",
  "networkType": "ethereum",
  "devdoc": {
    "methods": {
      "createTIC((uint256,address,bytes32,string,string,(uint256),(uint256),(uint256),(uint256)),address,address,uint256,((uint256),address[],uint32[],address[],uint32[]))": {
        "params": {
          "fee": "The fee structure",
          "liquidityProvider": "The liquidity provider",
          "params": "The parameters used to create the underlying derivative",
          "startingCollateralization": "Collateralization ratio to use before a global one is set",
          "validator": "The address that validates mint and exchange requests"
        }
      },
      "isOwner()": {
        "details": "Returns true if the caller is the current owner."
      },
      "owner()": {
        "details": "Returns the address of the current owner."
      },
      "renounceOwnership()": {
        "details": "Leaves the contract without owner. It will not be possible to call `onlyOwner` functions anymore. Can only be called by the current owner.     * NOTE: Renouncing ownership will leave the contract without an owner, thereby removing any functionality that is only available to the owner."
      },
      "transferOwnership(address)": {
        "details": "Transfers ownership of the contract to a new account (`newOwner`). Can only be called by the current owner."
      }
    }
  },
  "userdoc": {
    "methods": {
      "createTIC((uint256,address,bytes32,string,string,(uint256),(uint256),(uint256),(uint256)),address,address,uint256,((uint256),address[],uint32[],address[],uint32[]))": {
        "notice": "Creates a new TIC"
      }
    }
  }
}