{
  "contractName": "TICFactory",
  "abi": [
    {
      "inputs": [
        {
          "internalType": "contract ExpiringMultiPartyCreator",
          "name": "_derivativeCreator",
          "type": "address"
        }
      ],
      "stateMutability": "nonpayable",
      "type": "constructor"
    },
    {
      "anonymous": false,
      "inputs": [
        {
          "indexed": true,
          "internalType": "address",
          "name": "previousOwner",
          "type": "address"
        },
        {
          "indexed": true,
          "internalType": "address",
          "name": "newOwner",
          "type": "address"
        }
      ],
      "name": "OwnershipTransferred",
      "type": "event"
    },
    {
      "inputs": [],
      "name": "owner",
      "outputs": [
        {
          "internalType": "address",
          "name": "",
          "type": "address"
        }
      ],
      "stateMutability": "view",
      "type": "function",
      "constant": true
    },
    {
      "inputs": [],
      "name": "renounceOwnership",
      "outputs": [],
      "stateMutability": "nonpayable",
      "type": "function"
    },
    {
      "inputs": [
        {
          "internalType": "string",
          "name": "",
          "type": "string"
        }
      ],
      "name": "symbolToTIC",
      "outputs": [
        {
          "internalType": "contract TIC",
          "name": "",
          "type": "address"
        }
      ],
      "stateMutability": "view",
      "type": "function",
      "constant": true
    },
    {
      "inputs": [
        {
          "internalType": "address",
          "name": "newOwner",
          "type": "address"
        }
      ],
      "name": "transferOwnership",
      "outputs": [],
      "stateMutability": "nonpayable",
      "type": "function"
    },
    {
      "inputs": [
        {
          "components": [
            {
              "internalType": "uint256",
              "name": "expirationTimestamp",
              "type": "uint256"
            },
            {
              "internalType": "address",
              "name": "collateralAddress",
              "type": "address"
            },
            {
              "internalType": "bytes32",
              "name": "priceFeedIdentifier",
              "type": "bytes32"
            },
            {
              "internalType": "string",
              "name": "syntheticName",
              "type": "string"
            },
            {
              "internalType": "string",
              "name": "syntheticSymbol",
              "type": "string"
            },
            {
              "components": [
                {
                  "internalType": "uint256",
                  "name": "rawValue",
                  "type": "uint256"
                }
              ],
              "internalType": "struct FixedPoint.Unsigned",
              "name": "collateralRequirement",
              "type": "tuple"
            },
            {
              "components": [
                {
                  "internalType": "uint256",
                  "name": "rawValue",
                  "type": "uint256"
                }
              ],
              "internalType": "struct FixedPoint.Unsigned",
              "name": "disputeBondPct",
              "type": "tuple"
            },
            {
              "components": [
                {
                  "internalType": "uint256",
                  "name": "rawValue",
                  "type": "uint256"
                }
              ],
              "internalType": "struct FixedPoint.Unsigned",
              "name": "sponsorDisputeRewardPct",
              "type": "tuple"
            },
            {
              "components": [
                {
                  "internalType": "uint256",
                  "name": "rawValue",
                  "type": "uint256"
                }
              ],
              "internalType": "struct FixedPoint.Unsigned",
              "name": "disputerDisputeRewardPct",
              "type": "tuple"
            },
            {
              "components": [
                {
                  "internalType": "uint256",
                  "name": "rawValue",
                  "type": "uint256"
                }
              ],
              "internalType": "struct FixedPoint.Unsigned",
              "name": "minSponsorTokens",
              "type": "tuple"
            },
            {
              "internalType": "uint256",
              "name": "withdrawalLiveness",
              "type": "uint256"
            },
            {
              "internalType": "uint256",
              "name": "liquidationLiveness",
              "type": "uint256"
            }
          ],
          "internalType": "struct ExpiringMultiPartyCreator.Params",
          "name": "params",
          "type": "tuple"
        },
        {
          "internalType": "address",
          "name": "liquidityProvider",
          "type": "address"
        },
        {
          "internalType": "address",
          "name": "validator",
          "type": "address"
        },
        {
          "internalType": "uint256",
          "name": "startingCollateralization",
          "type": "uint256"
        },
        {
          "components": [
            {
              "components": [
                {
                  "internalType": "uint256",
                  "name": "rawValue",
                  "type": "uint256"
                }
              ],
              "internalType": "struct FixedPoint.Unsigned",
              "name": "mintFee",
              "type": "tuple"
            },
            {
              "internalType": "address[]",
              "name": "mintFeeRecipients",
              "type": "address[]"
            },
            {
              "internalType": "uint32[]",
              "name": "mintFeeProportions",
              "type": "uint32[]"
            },
            {
              "internalType": "address[]",
              "name": "interestFeeRecipients",
              "type": "address[]"
            },
            {
              "internalType": "uint32[]",
              "name": "interestFeeProportions",
              "type": "uint32[]"
            }
          ],
          "internalType": "struct TICInterface.Fee",
          "name": "fee",
          "type": "tuple"
        }
      ],
      "name": "createTIC",
      "outputs": [],
      "stateMutability": "nonpayable",
      "type": "function"
    }
  ],
  "bytecode": "0x608060405234801561001057600080fd5b5060405161396738038061396783398101604081905261002f916100c9565b60006100426001600160e01b036100c516565b600080546001600160a01b0319166001600160a01b0383169081178255604051929350917f8be0079c531659141344cd1fd0a4f28419497f9722a3daafe3b4186f6b6457e0908290a3506000805460ff60a01b1916600160a01b179055600180546001600160a01b039092166001600160a01b03199092169190911790556100f7565b3390565b6000602082840312156100da578081fd5b81516001600160a01b03811681146100f0578182fd5b9392505050565b613861806101066000396000f3fe60806040523480156200001157600080fd5b5060043610620000705760003560e01c80638da5cb5b11620000575780638da5cb5b1462000098578063eabf392214620000ba578063f2fde38b14620000d15762000070565b8063380c2f8b1462000075578063715018a6146200008e575b600080fd5b6200008c6200008636600462000776565b620000e8565b005b6200008c62000401565b620000a2620004d1565b604051620000b1919062000933565b60405180910390f35b620000a2620000cb366004620006b5565b620004ed565b6200008c620000e236600462000670565b62000520565b620000f26200065e565b60005473ffffffffffffffffffffffffffffffffffffffff90811691161462000152576040517f08c379a0000000000000000000000000000000000000000000000000000000008152600401620001499062000b0b565b60405180910390fd5b60005474010000000000000000000000000000000000000000900460ff16620001a9576040517f08c379a0000000000000000000000000000000000000000000000000000000008152600401620001499062000b40565b600080547fffffffffffffffffffffff00ffffffffffffffffffffffffffffffffffffffff1681556001546040517f0368965b00000000000000000000000000000000000000000000000000000000815273ffffffffffffffffffffffffffffffffffffffff90911690630368965b906200022990899060040162000b77565b602060405180830381600087803b1580156200024457600080fd5b505af115801562000259573d6000803e3d6000fd5b505050506040513d601f19601f820116820180604052508101906200027f919062000696565b90506000600262000294608089018962000ca3565b604051620002a492919062000923565b9081526040519081900360200190205473ffffffffffffffffffffffffffffffffffffffff161462000304576040517f08c379a0000000000000000000000000000000000000000000000000000000008152600401620001499062000ad4565b8085858585604051620003179062000662565b6200032795949392919062000954565b604051809103906000f08015801562000344573d6000803e3d6000fd5b50600262000356608089018962000ca3565b6040516200036692919062000923565b908152604051908190036020019020805473ffffffffffffffffffffffffffffffffffffffff929092167fffffffffffffffffffffffff00000000000000000000000000000000000000009092169190911790555050600080547fffffffffffffffffffffff00ffffffffffffffffffffffffffffffffffffffff167401000000000000000000000000000000000000000017905550505050565b6200040b6200065e565b60005473ffffffffffffffffffffffffffffffffffffffff90811691161462000462576040517f08c379a0000000000000000000000000000000000000000000000000000000008152600401620001499062000b0b565b6000805460405173ffffffffffffffffffffffffffffffffffffffff909116907f8be0079c531659141344cd1fd0a4f28419497f9722a3daafe3b4186f6b6457e0908390a3600080547fffffffffffffffffffffffff0000000000000000000000000000000000000000169055565b60005473ffffffffffffffffffffffffffffffffffffffff1690565b805160208183018101805160028252928201919093012091525473ffffffffffffffffffffffffffffffffffffffff1681565b6200052a6200065e565b60005473ffffffffffffffffffffffffffffffffffffffff90811691161462000581576040517f08c379a0000000000000000000000000000000000000000000000000000000008152600401620001499062000b0b565b73ffffffffffffffffffffffffffffffffffffffff8116620005d1576040517f08c379a0000000000000000000000000000000000000000000000000000000008152600401620001499062000a77565b6000805460405173ffffffffffffffffffffffffffffffffffffffff808516939216917f8be0079c531659141344cd1fd0a4f28419497f9722a3daafe3b4186f6b6457e091a3600080547fffffffffffffffffffffffff00000000000000000000000000000000000000001673ffffffffffffffffffffffffffffffffffffffff92909216919091179055565b3390565b612a098062000e2383390190565b60006020828403121562000682578081fd5b81356200068f8162000dfc565b9392505050565b600060208284031215620006a8578081fd5b81516200068f8162000dfc565b600060208284031215620006c7578081fd5b813567ffffffffffffffff80821115620006df578283fd5b81840185601f820112620006f1578384fd5b803592508183111562000702578384fd5b60405160207fffffffffffffffffffffffffffffffffffffffffffffffffffffffffffffffe0601f860116820101818110848211171562000741578586fd5b60405283815281840160200187101562000759578485fd5b6200076c84602083016020850162000df0565b9695505050505050565b600080600080600060a086880312156200078e578081fd5b853567ffffffffffffffff80821115620007a6578283fd5b818801610180818b031215620007ba578384fd5b965060208801359150620007ce8262000dfc565b909450604087013590620007e28262000dfc565b9093506060870135925060808701359080821115620007ff578283fd5b5080870160a0818a03121562000813578283fd5b80925050509295509295909350565b73ffffffffffffffffffffffffffffffffffffffff169052565b60008284526020808501945082825b858110156200088a578135620008618162000dfc565b73ffffffffffffffffffffffffffffffffffffffff16875295820195908201906001016200084b565b509495945050505050565b60008284526020808501945082825b858110156200088a57813563ffffffff8116808214620008c2578586fd5b8852509582019590820190600101620008a4565b600082845282826020860137806020848601015260207fffffffffffffffffffffffffffffffffffffffffffffffffffffffffffffffe0601f85011685010190509392505050565b359052565b6000828483379101908152919050565b73ffffffffffffffffffffffffffffffffffffffff91909116815260200190565b600073ffffffffffffffffffffffffffffffffffffffff8088168352808716602084015280861660408401525083606083015260a060808301526200099d60a08301846200091e565b620009ac602084018462000d21565b60a060c0850152620009c4610140850182846200083c565b620009d3604087018762000d21565b935091507fffffffffffffffffffffffffffffffffffffffffffffffffffffffffffffff60808683030160e087015262000a0f82858562000895565b62000a1e606089018962000d21565b95509350818782030161010088015262000a3a8186866200083c565b92505062000a4c608088018862000d21565b9450925080868303016101208701525062000a6981848462000895565b9a9950505050505050505050565b60208082526026908201527f4f776e61626c653a206e6577206f776e657220697320746865207a65726f206160408201527f6464726573730000000000000000000000000000000000000000000000000000606082015260800190565b60208082526012908201527f54494320616c7265616479206578697374730000000000000000000000000000604082015260600190565b6020808252818101527f4f776e61626c653a2063616c6c6572206973206e6f7420746865206f776e6572604082015260600190565b6020808252601f908201527f5265656e7472616e637947756172643a207265656e7472616e742063616c6c00604082015260600190565b6000602082528235602083015262000b93602084018462000d12565b62000ba2604084018262000822565b506040830135606083015262000bbc606084018462000d8a565b61018080608086015262000bd66101a086018385620008d6565b62000be5608088018862000d8a565b945092507fffffffffffffffffffffffffffffffffffffffffffffffffffffffffffffffe08682030160a087015262000c20818585620008d6565b62000c3260c0880160a08a016200091e565b62000c4460e0880160c08a016200091e565b610100945062000c5a85880160e08a016200091e565b610120935062000c6f848801868a016200091e565b610140945062000c84858801858a016200091e565b9387013561016087810191909152909601359401939093529392505050565b60008083357fffffffffffffffffffffffffffffffffffffffffffffffffffffffffffffffe184360301811262000cd8578283fd5b8084018035925067ffffffffffffffff83111562000cf4578384fd5b6020019250503681900382131562000d0b57600080fd5b9250929050565b600082356200068f8162000dfc565b60008083357fffffffffffffffffffffffffffffffffffffffffffffffffffffffffffffffe184360301811262000d56578283fd5b830160208101925035905067ffffffffffffffff81111562000d7757600080fd5b60208102360383131562000d0b57600080fd5b60008083357fffffffffffffffffffffffffffffffffffffffffffffffffffffffffffffffe184360301811262000dbf578283fd5b830160208101925035905067ffffffffffffffff81111562000de057600080fd5b80360383131562000d0b57600080fd5b82818337506000910152565b73ffffffffffffffffffffffffffffffffffffffff8116811462000e1f57600080fd5b5056fe60806040523480156200001157600080fd5b5060405162002a0938038062002a0983398101604081905262000034916200023f565b6000805460ff19166001179081905560ff166200006e5760405162461bcd60e51b8152600401620000659062000401565b60405180910390fd5b6000805460ff1916905560408051602081018252838152905163de95134160e01b815273__TICHelper_____________________________9163de95134191620000c7916001918a918a918a9190899060040162000438565b60006040518083038186803b158015620000e057600080fd5b505af4158015620000f5573d6000803e3d6000fd5b50506000805460ff19166001179055506200055e95505050505050565b600082601f83011262000123578081fd5b81516200013a620001348262000525565b620004fe565b8181529150602080830190848101818402860182018710156200015c57600080fd5b60005b8481101562000188578151620001758162000545565b845292820192908201906001016200015f565b505050505092915050565b600082601f830112620001a4578081fd5b8151620001b5620001348262000525565b818152915060208083019084810181840286018201871015620001d757600080fd5b6000805b858110156200020b57825163ffffffff81168114620001f8578283fd5b85529383019391830191600101620001db565b50505050505092915050565b60006020828403121562000229578081fd5b620002356020620004fe565b9151825250919050565b600080600080600060a0868803121562000257578081fd5b8551620002648162000545565b6020870151909550620002778162000545565b60408701519094506200028a8162000545565b6060870151608088015191945092506001600160401b0380821115620002ae578283fd5b81880160a0818b031215620002c1578384fd5b620002cd60a0620004fe565b9250620002db8a8262000217565b8352602081015182811115620002ef578485fd5b620002fd8b82840162000112565b60208501525060408101518281111562000315578485fd5b620003238b82840162000193565b6040850152506060810151828111156200033b578485fd5b620003498b82840162000112565b60608501525060808101518281111562000361578485fd5b6200036f8b82840162000193565b6080850152505050809150509295509295909350565b6000815180845260208085019450808401835b83811015620003bf5781516001600160a01b03168752958201959082019060010162000398565b509495945050505050565b6000815180845260208085019450808401835b83811015620003bf57815163ffffffff1687529582019590820190600101620003dd565b6020808252601f908201527f5265656e7472616e637947756172643a207265656e7472616e742063616c6c00604082015260600190565b600087825260018060a01b03808816602084015280871660408401528086166060840152508351608083015260c060a083015282515160c0830152602083015160a060e08401526200048f61016084018262000385565b6040850151915060bf198085830301610100860152620004b08284620003ca565b606087015193508186820301610120870152620004ce818562000385565b92505060808601519250808583030161014086015250620004f08183620003ca565b9a9950505050505050505050565b6040518181016001600160401b03811182821017156200051d57600080fd5b604052919050565b60006001600160401b038211156200053b578081fd5b5060209081020190565b6001600160a01b03811681146200055b57600080fd5b50565b61249b806200056e6000396000f3fe608060405234801561001057600080fd5b50600436106101825760003560e01c80637c3970f2116100d8578063b6b55f251161008c578063eb9ce16311610066578063eb9ce163146102ed578063f5ac2abe14610302578063fcccedc71461031557610182565b8063b6b55f25146102b4578063b72d8ce9146102c7578063cca3595a146102da57610182565b80638be76e01116100bd5780638be76e0114610286578063998fccc514610299578063b2016bd4146102ac57610182565b80637c3970f21461026b5780638230ecd61461027e57610182565b806336a99ebd1161013a5780635c095e54116101145780635c095e54146102255780637242b9fc1461024557806374899a7e1461025857610182565b806336a99ebd146101ec57806350539aa8146101ff57806353c34f021461021257610182565b80631985a89f1161016b5780631985a89f146101ba5780632e1a7d4d146101cf57806333a46ca2146101e457610182565b80630e3e7ba714610187578063139d006c146101a5575b600080fd5b61018f61031d565b60405161019c91906121d1565b60405180910390f35b6101ad6103e8565b60405161019c91906120ee565b6101c26104ae565b60405161019c9190612270565b6101e26101dd366004612005565b6104ca565b005b6101e2610643565b6101e26101fa366004612005565b6107a6565b6101e261020d366004612005565b610985565b6101e2610220366004612005565b610b2f565b610238610233366004612005565b610cd9565b60405161019c9190612213565b6101e2610253366004612005565b610d0d565b6101e2610266366004612005565b610eb5565b6101e2610279366004612085565b610fc5565b6101c2611168565b6101e2610294366004612085565b61120b565b6101e26102a7366004612005565b611376565b6101c2611520565b6101e26102c2366004612005565b61158b565b6101e26102d5366004612005565b61169d565b6101e26102e8366004612085565b611847565b6102f5611973565b60405161019c9190612183565b6101e2610310366004612051565b611a39565b6101e2611be1565b6040517f77a7fa9e00000000000000000000000000000000000000000000000000000000815260609073__TICHelper_____________________________906377a7fa9e9061037190600190600401612213565b60006040518083038186803b15801561038957600080fd5b505af415801561039d573d6000803e3d6000fd5b505050506040513d6000823e601f3d9081017fffffffffffffffffffffffffffffffffffffffffffffffffffffffffffffffe01682016040526103e39190810190611f72565b905090565b6040517f4da5bc7b00000000000000000000000000000000000000000000000000000000815260609073__TICHelper_____________________________90634da5bc7b9061043c90600190600401612213565b60006040518083038186803b15801561045457600080fd5b505af4158015610468573d6000803e3d6000fd5b505050506040513d6000823e601f3d9081017fffffffffffffffffffffffffffffffffffffffffffffffffffffffffffffffe01682016040526103e39190810190611dd6565b60015473ffffffffffffffffffffffffffffffffffffffff1690565b60005460ff1661050f576040517f08c379a0000000000000000000000000000000000000000000000000000000008152600401610506906122ee565b60405180910390fd5b600080547fffffffffffffffffffffffffffffffffffffffffffffffffffffffffffffff0016905560035473ffffffffffffffffffffffffffffffffffffffff163314610588576040517f08c379a000000000000000000000000000000000000000000000000000000000815260040161050690612325565b6040805160208101825282815290517faa67b60900000000000000000000000000000000000000000000000000000000815273__TICHelper_____________________________9163aa67b609916105e5916001916004016123d4565b60006040518083038186803b1580156105fd57600080fd5b505af4158015610611573d6000803e3d6000fd5b5050600080547fffffffffffffffffffffffffffffffffffffffffffffffffffffffffffffff00166001179055505050565b60035473ffffffffffffffffffffffffffffffffffffffff163314610694576040517f08c379a000000000000000000000000000000000000000000000000000000000815260040161050690612325565b60005460ff166106d0576040517f08c379a0000000000000000000000000000000000000000000000000000000008152600401610506906122ee565b600080547fffffffffffffffffffffffffffffffffffffffffffffffffffffffffffffff001690556040517f1c647abd00000000000000000000000000000000000000000000000000000000815273__TICHelper_____________________________90631c647abd9061074990600190600401612213565b60006040518083038186803b15801561076157600080fd5b505af4158015610775573d6000803e3d6000fd5b5050600080547fffffffffffffffffffffffffffffffffffffffffffffffffffffffffffffff001660011790555050565b60045473ffffffffffffffffffffffffffffffffffffffff1633146107f7576040517f08c379a00000000000000000000000000000000000000000000000000000000081526004016105069061235c565b60005460ff16610833576040517f08c379a0000000000000000000000000000000000000000000000000000000008152600401610506906122ee565b600080547fffffffffffffffffffffffffffffffffffffffffffffffffffffffffffffff0016815581815260106020526040908190206002015490517ff2b66f0900000000000000000000000000000000000000000000000000000000815273ffffffffffffffffffffffffffffffffffffffff9091169073__TICHelper_____________________________9063f2b66f09906108d8906001908690600401612393565b60006040518083038186803b1580156108f057600080fd5b505af4158015610904573d6000803e3d6000fd5b505050508073ffffffffffffffffffffffffffffffffffffffff167fcfa4c7018a3b09267833d13734668d7325e5e99a9607b892d417207b058f20d38360405161094e9190612213565b60405180910390a25050600080547fffffffffffffffffffffffffffffffffffffffffffffffffffffffffffffff00166001179055565b60005460ff166109c1576040517f08c379a0000000000000000000000000000000000000000000000000000000008152600401610506906122ee565b600080547fffffffffffffffffffffffffffffffffffffffffffffffffffffffffffffff0016905560045473ffffffffffffffffffffffffffffffffffffffff163314610a3a576040517f08c379a00000000000000000000000000000000000000000000000000000000081526004016105069061235c565b600081815260136020526040908190206002015490517f2368045a00000000000000000000000000000000000000000000000000000000815273ffffffffffffffffffffffffffffffffffffffff9091169073__TICHelper_____________________________90632368045a90610ab9906001908690600401612393565b60006040518083038186803b158015610ad157600080fd5b505af4158015610ae5573d6000803e3d6000fd5b505050508073ffffffffffffffffffffffffffffffffffffffff167ff8eaec7c1b7b19060d1594532caca20fa4cb9d60c5f61244fa2487f341a29f0f8360405161094e9190612213565b60005460ff16610b6b576040517f08c379a0000000000000000000000000000000000000000000000000000000008152600401610506906122ee565b600080547fffffffffffffffffffffffffffffffffffffffffffffffffffffffffffffff0016905560045473ffffffffffffffffffffffffffffffffffffffff163314610be4576040517f08c379a00000000000000000000000000000000000000000000000000000000081526004016105069061235c565b600081815260136020526040908190206002015490517fa56a6d5200000000000000000000000000000000000000000000000000000000815273ffffffffffffffffffffffffffffffffffffffff9091169073__TICHelper_____________________________9063a56a6d5290610c63906001908690600401612393565b60006040518083038186803b158015610c7b57600080fd5b505af4158015610c8f573d6000803e3d6000fd5b505050508073ffffffffffffffffffffffffffffffffffffffff167f5cdff20fff2ad36b72ea16dd9b7027f3d53880d2aa7c7f3b66404e9c1a1424938360405161094e9190612213565b604080516020808201835260075482528251908101909252828252600091610d069163ffffffff611c9616565b5192915050565b60045473ffffffffffffffffffffffffffffffffffffffff163314610d5e576040517f08c379a00000000000000000000000000000000000000000000000000000000081526004016105069061235c565b60005460ff16610d9a576040517f08c379a0000000000000000000000000000000000000000000000000000000008152600401610506906122ee565b600080547fffffffffffffffffffffffffffffffffffffffffffffffffffffffffffffff0016815581815260106020526040908190206002015490517fad0bdda100000000000000000000000000000000000000000000000000000000815273ffffffffffffffffffffffffffffffffffffffff9091169073__TICHelper_____________________________9063ad0bdda190610e3f906001908690600401612393565b60006040518083038186803b158015610e5757600080fd5b505af4158015610e6b573d6000803e3d6000fd5b505050508073ffffffffffffffffffffffffffffffffffffffff167fc1257c3422a2d5dd3e6112d41b825533c33b8a91bc88cffb2d298c30f1828fe58360405161094e9190612213565b60035473ffffffffffffffffffffffffffffffffffffffff163314610f06576040517f08c379a000000000000000000000000000000000000000000000000000000000815260040161050690612325565b60005460ff16610f42576040517f08c379a0000000000000000000000000000000000000000000000000000000008152600401610506906122ee565b600080547fffffffffffffffffffffffffffffffffffffffffffffffffffffffffffffff001690556040805160208101825282815290517e12b1f800000000000000000000000000000000000000000000000000000000815273__TICHelper_____________________________916212b1f8916105e5916001916004016123d4565b60005460ff16611001576040517f08c379a0000000000000000000000000000000000000000000000000000000008152600401610506906122ee565b600080547fffffffffffffffffffffffffffffffffffffffffffffffffffffffffffffff0016815560408051602080820183528582528251908101835284815291517fb85fa0c200000000000000000000000000000000000000000000000000000000815273__TICHelper_____________________________9263b85fa0c29261109292600192906004016123e3565b60206040518083038186803b1580156110aa57600080fd5b505af41580156110be573d6000803e3d6000fd5b505050506040513d601f19601f820116820180604052508101906110e2919061201d565b90503373ffffffffffffffffffffffffffffffffffffffff167f1f2447cc38f55ebf1671418d6998b2d2f7774152ab993d79154e01e29d9bf677824286866040516111309493929190612255565b60405180910390a25050600080547fffffffffffffffffffffffffffffffffffffffffffffffffffffffffffffff0016600117905550565b600154604080517f7048594b000000000000000000000000000000000000000000000000000000008152905160009273ffffffffffffffffffffffffffffffffffffffff1691637048594b916004808301926020929190829003018186803b1580156111d357600080fd5b505afa1580156111e7573d6000803e3d6000fd5b505050506040513d601f19601f820116820180604052508101906103e39190612035565b60005460ff16611247576040517f08c379a0000000000000000000000000000000000000000000000000000000008152600401610506906122ee565b600080547fffffffffffffffffffffffffffffffffffffffffffffffffffffffffffffff0016815560408051602080820183528582528251908101835284815291517f99ecc8ee00000000000000000000000000000000000000000000000000000000815273__TICHelper_____________________________926399ecc8ee926112d892600192906004016123e3565b60206040518083038186803b1580156112f057600080fd5b505af4158015611304573d6000803e3d6000fd5b505050506040513d601f19601f82011682018060405250810190611328919061201d565b90503373ffffffffffffffffffffffffffffffffffffffff167f98ce4331847829c3cdcf95d2ae4100212878081b653a6df89e3a76ab14ac8811824286866040516111309493929190612255565b60005460ff166113b2576040517f08c379a0000000000000000000000000000000000000000000000000000000008152600401610506906122ee565b600080547fffffffffffffffffffffffffffffffffffffffffffffffffffffffffffffff0016905560045473ffffffffffffffffffffffffffffffffffffffff16331461142b576040517f08c379a00000000000000000000000000000000000000000000000000000000081526004016105069061235c565b6000818152600d6020526040908190206002015490517fa923bc1200000000000000000000000000000000000000000000000000000000815273ffffffffffffffffffffffffffffffffffffffff9091169073__TICHelper_____________________________9063a923bc12906114aa906001908690600401612393565b60006040518083038186803b1580156114c257600080fd5b505af41580156114d6573d6000803e3d6000fd5b505050508073ffffffffffffffffffffffffffffffffffffffff167f704f76cbfb948e81f51428a4981f0bbf366d86936d14fff8a7e1e65d3de929cb8360405161094e9190612213565b600554604080517ffc0c546a000000000000000000000000000000000000000000000000000000008152905160009273ffffffffffffffffffffffffffffffffffffffff169163fc0c546a916004828101926020929190829003018186803b1580156111d357600080fd5b60005460ff166115c7576040517f08c379a0000000000000000000000000000000000000000000000000000000008152600401610506906122ee565b600080547fffffffffffffffffffffffffffffffffffffffffffffffffffffffffffffff0016905560035473ffffffffffffffffffffffffffffffffffffffff163314611640576040517f08c379a000000000000000000000000000000000000000000000000000000000815260040161050690612325565b6040805160208101825282815290517fed3395da00000000000000000000000000000000000000000000000000000000815273__TICHelper_____________________________9163ed3395da916105e5916001916004016123d4565b60005460ff166116d9576040517f08c379a0000000000000000000000000000000000000000000000000000000008152600401610506906122ee565b600080547fffffffffffffffffffffffffffffffffffffffffffffffffffffffffffffff0016905560045473ffffffffffffffffffffffffffffffffffffffff163314611752576040517f08c379a00000000000000000000000000000000000000000000000000000000081526004016105069061235c565b6000818152600d6020526040908190206002015490517f3f63703d00000000000000000000000000000000000000000000000000000000815273ffffffffffffffffffffffffffffffffffffffff9091169073__TICHelper_____________________________90633f63703d906117d1906001908690600401612393565b60006040518083038186803b1580156117e957600080fd5b505af41580156117fd573d6000803e3d6000fd5b505050508073ffffffffffffffffffffffffffffffffffffffff167fe415bcfb927e3eafa5ab377de7ddccc55dedc71ba85c6cfbadea6bf317435c8d8360405161094e9190612213565b60005460ff16611883576040517f08c379a0000000000000000000000000000000000000000000000000000000008152600401610506906122ee565b600080547fffffffffffffffffffffffffffffffffffffffffffffffffffffffffffffff0016905560408051602080820183528482528251908101835283815291517fe3411dbc00000000000000000000000000000000000000000000000000000000815273__TICHelper_____________________________9263e3411dbc9261191492600192906004016123e3565b60006040518083038186803b15801561192c57600080fd5b505af4158015611940573d6000803e3d6000fd5b5050600080547fffffffffffffffffffffffffffffffffffffffffffffffffffffffffffffff0016600117905550505050565b6040517ffdd3eeb200000000000000000000000000000000000000000000000000000000815260609073__TICHelper_____________________________9063fdd3eeb2906119c790600190600401612213565b60006040518083038186803b1580156119df57600080fd5b505af41580156119f3573d6000803e3d6000fd5b505050506040513d6000823e601f3d9081017fffffffffffffffffffffffffffffffffffffffffffffffffffffffffffffffe01682016040526103e39190810190611edf565b60005460ff16611a75576040517f08c379a0000000000000000000000000000000000000000000000000000000008152600401610506906122ee565b600080547fffffffffffffffffffffffffffffffffffffffffffffffffffffffffffffff0016815560408051602080820183528582528251908101835284815291517fd6f79d2200000000000000000000000000000000000000000000000000000000815273__TICHelper_____________________________9263d6f79d2292611b08926001928a92916004016123a1565b60206040518083038186803b158015611b2057600080fd5b505af4158015611b34573d6000803e3d6000fd5b505050506040513d601f19601f82011682018060405250810190611b58919061201d565b90503373ffffffffffffffffffffffffffffffffffffffff167f7b50f5a35a69c552289956f6d3d7b0b90dc9dba083ad33fa8db602c6ed57f4c98242878787604051611ba895949392919061221c565b60405180910390a25050600080547fffffffffffffffffffffffffffffffffffffffffffffffffffffffffffffff001660011790555050565b60005460ff16611c1d576040517f08c379a0000000000000000000000000000000000000000000000000000000008152600401610506906122ee565b600080547fffffffffffffffffffffffffffffffffffffffffffffffffffffffffffffff001690556040517f0827cff500000000000000000000000000000000000000000000000000000000815273__TICHelper_____________________________90630827cff59061074990600190600401612213565b611c9e611d36565b6040805160208101909152825184518291670de0b6b3a764000091611cc89163ffffffff611cdb16565b81611ccf57fe5b04905290505b92915050565b600082611cea57506000611cd5565b82820282848281611cf757fe5b0414611d2f576040517f08c379a000000000000000000000000000000000000000000000000000000000815260040161050690612291565b9392505050565b6040518060200160405280600081525090565b600060a08284031215611d5a578081fd5b611d6460a06123f9565b905081518152602082015160208201526040820151611d8281612440565b6040820152611d948360608401611db1565b6060820152611da68360808401611db1565b608082015292915050565b600060208284031215611dc2578081fd5b611dcc60206123f9565b9151825250919050565b60006020808385031215611de8578182fd5b825167ffffffffffffffff811115611dfe578283fd5b80840185601f820112611e0f578384fd5b80519150611e24611e1f83612420565b6123f9565b8281528381019082850160c0808602850187018a1015611e42578788fd5b8794505b85851015611ed15780828b031215611e5c578788fd5b611e65816123f9565b825181528783015188820152604080840151611e8081612440565b90820152606083810151611e9381612440565b908201526080611ea58c858301611db1565b9082015260a0611eb78c858301611db1565b908201528452600194909401939286019290810190611e46565b509098975050505050505050565b60006020808385031215611ef1578182fd5b825167ffffffffffffffff811115611f07578283fd5b80840185601f820112611f18578384fd5b80519150611f28611e1f83612420565b8281528381019082850160a0808602850187018a1015611f46578788fd5b8794505b85851015611ed157611f5c8a83611d49565b8452600194909401939286019290810190611f4a565b60006020808385031215611f84578182fd5b825167ffffffffffffffff811115611f9a578283fd5b80840185601f820112611fab578384fd5b80519150611fbb611e1f83612420565b8281528381019082850160a0808602850187018a1015611fd9578788fd5b8794505b85851015611ed157611fef8a83611d49565b8452600194909401939286019290810190611fdd565b600060208284031215612016578081fd5b5035919050565b60006020828403121561202e578081fd5b5051919050565b600060208284031215612046578081fd5b8151611d2f81612440565b600080600060608486031215612065578182fd5b833561207081612440565b95602085013595506040909401359392505050565b60008060408385031215612097578182fd5b50508035926020909101359150565b805182526020810151602083015273ffffffffffffffffffffffffffffffffffffffff6040820151166040830152606081015151606083015260808101515160808301525050565b602080825282518282018190526000919060409081850190868401855b828110156121765781518051855286810151878601528581015173ffffffffffffffffffffffffffffffffffffffff9081168787015260608083015190911690860152608080820151519086015260a090810151519085015260c0909301929085019060010161210b565b5091979650505050505050565b6020808252825182820181905260009190848201906040850190845b818110156121c5576121b28385516120a6565b9284019260a0929092019160010161219f565b50909695505050505050565b6020808252825182820181905260009190848201906040850190845b818110156121c5576122008385516120a6565b9284019260a092909201916001016121ed565b90815260200190565b948552602085019390935273ffffffffffffffffffffffffffffffffffffffff9190911660408401526060830152608082015260a00190565b93845260208401929092526040830152606082015260800190565b73ffffffffffffffffffffffffffffffffffffffff91909116815260200190565b60208082526021908201527f536166654d6174683a206d756c7469706c69636174696f6e206f766572666c6f60408201527f7700000000000000000000000000000000000000000000000000000000000000606082015260800190565b6020808252601f908201527f5265656e7472616e637947756172643a207265656e7472616e742063616c6c00604082015260600190565b6020808252601a908201527f4d757374206265206c69717569646974792070726f7669646572000000000000604082015260600190565b60208082526011908201527f4d7573742062652076616c696461746f72000000000000000000000000000000604082015260600190565b918252602082015260400190565b93845273ffffffffffffffffffffffffffffffffffffffff92909216602084015251604083015251606082015260800190565b91825251602082015260400190565b9283529051602083015251604082015260600190565b60405181810167ffffffffffffffff8111828210171561241857600080fd5b604052919050565b600067ffffffffffffffff821115612436578081fd5b5060209081020190565b73ffffffffffffffffffffffffffffffffffffffff8116811461246257600080fd5b5056fea2646970667358221220d0ac88c0fe6796cfe3b8ac867c3c3b7a40c02fd14b7fc4473253d9d6f76c21b064736f6c63430006040033a26469706673582212209d5e5e1c8f3514292e8b8eda9bde54381faa8ceeb46ceaa0120852230059d36664736f6c63430006040033",
  "source": "pragma solidity ^0.6.0;\npragma experimental ABIEncoderV2;\n\n\nimport {Ownable} from \"@openzeppelin/contracts/access/Ownable.sol\";\nimport {ReentrancyGuard} from \"@openzeppelin/contracts/utils/ReentrancyGuard.sol\";\nimport {TIC} from \"./TIC.sol\";\nimport {IExpiringMultiParty} from \"./IExpiringMultiParty.sol\";\nimport {ExpiringMultiPartyCreator} from \"./uma-contracts/financial-templates/expiring-multiparty/ExpiringMultiPartyCreator.sol\";\n\ncontract TICFactory is Ownable, ReentrancyGuard {\n    //----------------------------------------\n    // State variables\n    //----------------------------------------\n\n    ExpiringMultiPartyCreator private derivativeCreator;\n\n    // Get a TIC using its token symbol\n    mapping(string => TIC) public symbolToTIC;\n\n    //----------------------------------------\n    // Constructor\n    //----------------------------------------\n\n    constructor(ExpiringMultiPartyCreator _derivativeCreator) public {\n        derivativeCreator = _derivativeCreator;\n    }\n\n    //----------------------------------------\n    // External functions\n    //----------------------------------------\n\n    /**\n     * @notice Creates a new TIC\n     * @param params The parameters used to create the underlying derivative\n     * @param liquidityProvider The liquidity provider\n     * @param validator The address that validates mint and exchange requests\n     * @param startingCollateralization Collateralization ratio to use before a global one is set\n     * @param fee The fee structure\n     */\n    function createTIC(\n        ExpiringMultiPartyCreator.Params calldata params,\n        address liquidityProvider,\n        address validator,\n        uint256 startingCollateralization,\n        TIC.Fee calldata fee\n    )\n        external\n        onlyOwner\n        nonReentrant\n    {\n        // Create the derivative contract\n        // TODO: `ExpiringMultiPartyCreator` past commit b6dc123e11d7253cdbe0fcc40b7ab4a992c4e56d\n        //       requires `minSponsorTokens` param.\n        address derivative = derivativeCreator.createExpiringMultiParty(params);\n        //Require TIC does not exist\n        require(address(symbolToTIC[params.syntheticSymbol]) == address(0), 'TIC already exists');\n        // Create the TIC\n        symbolToTIC[params.syntheticSymbol] = new TIC(\n            IExpiringMultiParty(derivative),\n            liquidityProvider,\n            validator,\n            startingCollateralization,\n            fee\n        );\n    }\n}\n",
  "sourcePath": "/home/alessandrovm/JarvisLavoro/SynFiat/packages/contracts/contracts/TICFactory.sol",
  "compiler": {
    "name": "solc",
    "version": "0.6.4+commit.1dca32f3.Emscripten.clang"
  },
  "schemaVersion": "3.2.0",
  "updatedAt": "2020-09-17T18:57:47.874Z",
  "networkType": "ethereum",
  "devdoc": {
    "methods": {
      "createTIC((uint256,address,bytes32,string,string,(uint256),(uint256),(uint256),(uint256),(uint256),uint256,uint256),address,address,uint256,((uint256),address[],uint32[],address[],uint32[]))": {
        "params": {
          "fee": "The fee structure",
          "liquidityProvider": "The liquidity provider",
          "params": "The parameters used to create the underlying derivative",
          "startingCollateralization": "Collateralization ratio to use before a global one is set",
          "validator": "The address that validates mint and exchange requests"
        }
      },
      "owner()": {
        "details": "Returns the address of the current owner."
      },
      "renounceOwnership()": {
        "details": "Leaves the contract without owner. It will not be possible to call `onlyOwner` functions anymore. Can only be called by the current owner.     * NOTE: Renouncing ownership will leave the contract without an owner, thereby removing any functionality that is only available to the owner."
      },
      "transferOwnership(address)": {
        "details": "Transfers ownership of the contract to a new account (`newOwner`). Can only be called by the current owner."
      }
    }
  },
  "userdoc": {
    "methods": {
      "createTIC((uint256,address,bytes32,string,string,(uint256),(uint256),(uint256),(uint256),(uint256),uint256,uint256),address,address,uint256,((uint256),address[],uint32[],address[],uint32[]))": {
        "notice": "Creates a new TIC"
      }
    }
  }
}