{
  "contractName": "TICFactory",
  "abi": [
    {
      "inputs": [
        {
          "internalType": "address",
          "name": "_admin",
          "type": "address"
        },
        {
          "internalType": "address",
          "name": "_maintainer",
          "type": "address"
        },
        {
          "internalType": "contract ExpiringMultiPartyCreator",
          "name": "_derivativeCreator",
          "type": "address"
        }
      ],
      "stateMutability": "nonpayable",
      "type": "constructor"
    },
    {
      "anonymous": false,
      "inputs": [
        {
          "indexed": true,
          "internalType": "bytes32",
          "name": "role",
          "type": "bytes32"
        },
        {
          "indexed": true,
          "internalType": "address",
          "name": "account",
          "type": "address"
        },
        {
          "indexed": true,
          "internalType": "address",
          "name": "sender",
          "type": "address"
        }
      ],
      "name": "RoleGranted",
      "type": "event"
    },
    {
      "anonymous": false,
      "inputs": [
        {
          "indexed": true,
          "internalType": "bytes32",
          "name": "role",
          "type": "bytes32"
        },
        {
          "indexed": true,
          "internalType": "address",
          "name": "account",
          "type": "address"
        },
        {
          "indexed": true,
          "internalType": "address",
          "name": "sender",
          "type": "address"
        }
      ],
      "name": "RoleRevoked",
      "type": "event"
    },
    {
      "inputs": [],
      "name": "DEFAULT_ADMIN_ROLE",
      "outputs": [
        {
          "internalType": "bytes32",
          "name": "",
          "type": "bytes32"
        }
      ],
      "stateMutability": "view",
      "type": "function",
      "constant": true
    },
    {
      "inputs": [],
      "name": "MAINTAINER_ROLE",
      "outputs": [
        {
          "internalType": "bytes32",
          "name": "",
          "type": "bytes32"
        }
      ],
      "stateMutability": "view",
      "type": "function",
      "constant": true
    },
    {
      "inputs": [
        {
          "internalType": "bytes32",
          "name": "role",
          "type": "bytes32"
        }
      ],
      "name": "getRoleAdmin",
      "outputs": [
        {
          "internalType": "bytes32",
          "name": "",
          "type": "bytes32"
        }
      ],
      "stateMutability": "view",
      "type": "function",
      "constant": true
    },
    {
      "inputs": [
        {
          "internalType": "bytes32",
          "name": "role",
          "type": "bytes32"
        },
        {
          "internalType": "uint256",
          "name": "index",
          "type": "uint256"
        }
      ],
      "name": "getRoleMember",
      "outputs": [
        {
          "internalType": "address",
          "name": "",
          "type": "address"
        }
      ],
      "stateMutability": "view",
      "type": "function",
      "constant": true
    },
    {
      "inputs": [
        {
          "internalType": "bytes32",
          "name": "role",
          "type": "bytes32"
        }
      ],
      "name": "getRoleMemberCount",
      "outputs": [
        {
          "internalType": "uint256",
          "name": "",
          "type": "uint256"
        }
      ],
      "stateMutability": "view",
      "type": "function",
      "constant": true
    },
    {
      "inputs": [
        {
          "internalType": "bytes32",
          "name": "role",
          "type": "bytes32"
        },
        {
          "internalType": "address",
          "name": "account",
          "type": "address"
        }
      ],
      "name": "grantRole",
      "outputs": [],
      "stateMutability": "nonpayable",
      "type": "function"
    },
    {
      "inputs": [
        {
          "internalType": "bytes32",
          "name": "role",
          "type": "bytes32"
        },
        {
          "internalType": "address",
          "name": "account",
          "type": "address"
        }
      ],
      "name": "hasRole",
      "outputs": [
        {
          "internalType": "bool",
          "name": "",
          "type": "bool"
        }
      ],
      "stateMutability": "view",
      "type": "function",
      "constant": true
    },
    {
      "inputs": [
        {
          "internalType": "bytes32",
          "name": "role",
          "type": "bytes32"
        },
        {
          "internalType": "address",
          "name": "account",
          "type": "address"
        }
      ],
      "name": "renounceRole",
      "outputs": [],
      "stateMutability": "nonpayable",
      "type": "function"
    },
    {
      "inputs": [
        {
          "internalType": "bytes32",
          "name": "role",
          "type": "bytes32"
        },
        {
          "internalType": "address",
          "name": "account",
          "type": "address"
        }
      ],
      "name": "revokeRole",
      "outputs": [],
      "stateMutability": "nonpayable",
      "type": "function"
    },
    {
      "inputs": [
        {
          "internalType": "string",
          "name": "",
          "type": "string"
        }
      ],
      "name": "symbolToTIC",
      "outputs": [
        {
          "internalType": "contract TIC",
          "name": "",
          "type": "address"
        }
      ],
      "stateMutability": "view",
      "type": "function",
      "constant": true
    },
    {
      "inputs": [
        {
          "components": [
            {
              "internalType": "uint256",
              "name": "expirationTimestamp",
              "type": "uint256"
            },
            {
              "internalType": "address",
              "name": "collateralAddress",
              "type": "address"
            },
            {
              "internalType": "bytes32",
              "name": "priceFeedIdentifier",
              "type": "bytes32"
            },
            {
              "internalType": "string",
              "name": "syntheticName",
              "type": "string"
            },
            {
              "internalType": "string",
              "name": "syntheticSymbol",
              "type": "string"
            },
            {
              "components": [
                {
                  "internalType": "uint256",
                  "name": "rawValue",
                  "type": "uint256"
                }
              ],
              "internalType": "struct FixedPoint.Unsigned",
              "name": "collateralRequirement",
              "type": "tuple"
            },
            {
              "components": [
                {
                  "internalType": "uint256",
                  "name": "rawValue",
                  "type": "uint256"
                }
              ],
              "internalType": "struct FixedPoint.Unsigned",
              "name": "disputeBondPct",
              "type": "tuple"
            },
            {
              "components": [
                {
                  "internalType": "uint256",
                  "name": "rawValue",
                  "type": "uint256"
                }
              ],
              "internalType": "struct FixedPoint.Unsigned",
              "name": "sponsorDisputeRewardPct",
              "type": "tuple"
            },
            {
              "components": [
                {
                  "internalType": "uint256",
                  "name": "rawValue",
                  "type": "uint256"
                }
              ],
              "internalType": "struct FixedPoint.Unsigned",
              "name": "disputerDisputeRewardPct",
              "type": "tuple"
            },
            {
              "components": [
                {
                  "internalType": "uint256",
                  "name": "rawValue",
                  "type": "uint256"
                }
              ],
              "internalType": "struct FixedPoint.Unsigned",
              "name": "minSponsorTokens",
              "type": "tuple"
            },
            {
              "internalType": "uint256",
              "name": "withdrawalLiveness",
              "type": "uint256"
            },
            {
              "internalType": "uint256",
              "name": "liquidationLiveness",
              "type": "uint256"
            }
          ],
          "internalType": "struct ExpiringMultiPartyCreator.Params",
          "name": "params",
          "type": "tuple"
        },
        {
          "internalType": "uint256",
          "name": "startingCollateralization",
          "type": "uint256"
        },
        {
          "components": [
            {
              "internalType": "address",
              "name": "admin",
              "type": "address"
            },
            {
              "internalType": "address",
              "name": "maintainer",
              "type": "address"
            },
            {
              "internalType": "address",
              "name": "liquidityProvider",
              "type": "address"
            },
            {
              "internalType": "address",
              "name": "validator",
              "type": "address"
            }
          ],
          "internalType": "struct TICInterface.Roles",
          "name": "roles",
          "type": "tuple"
        },
        {
          "components": [
            {
              "components": [
                {
                  "internalType": "uint256",
                  "name": "rawValue",
                  "type": "uint256"
                }
              ],
              "internalType": "struct FixedPoint.Unsigned",
              "name": "feePercentage",
              "type": "tuple"
            },
            {
              "internalType": "address[]",
              "name": "feeRecipients",
              "type": "address[]"
            },
            {
              "internalType": "uint32[]",
              "name": "feeProportions",
              "type": "uint32[]"
            }
          ],
          "internalType": "struct TICInterface.Fee",
          "name": "fee",
          "type": "tuple"
        }
      ],
      "name": "createTIC",
      "outputs": [],
      "stateMutability": "nonpayable",
      "type": "function"
    }
  ],
  "bytecode": "0x60806040523480156200001157600080fd5b506040516200561c3803806200561c83398101604081905262000034916200023f565b6001805460ff191681179055620000566000806001600160e01b03620000f216565b62000082604051620000689062000292565b60405190819003902060006001600160e01b03620000f216565b620000986000846001600160e01b036200010716565b620000c3604051620000aa9062000292565b604051908190039020836001600160e01b036200010716565b600180546001600160a01b0390921661010002610100600160a81b031990921691909117905550620002c19050565b60009182526020829052604090912060020155565b6200011c82826001600160e01b036200012016565b5050565b60008281526020818152604090912062000145918390620006f0620001a2821b17901c565b156200011c576200015e6001600160e01b03620001cb16565b6001600160a01b0316816001600160a01b0316837f2f8788117e7eff1d82e926ec794901d17c78024a50270940304540a733656f0d60405160405180910390a45050565b6000620001c2836001600160a01b0384166001600160e01b03620001cf16565b90505b92915050565b3390565b6000620001e683836001600160e01b036200022716565b6200021e57508154600181810184556000848152602080822090930184905584548482528286019093526040902091909155620001c5565b506000620001c5565b60009081526001919091016020526040902054151590565b60008060006060848603121562000254578283fd5b83516200026181620002a8565b60208501519093506200027481620002a8565b60408501519092506200028781620002a8565b809150509250925092565b6926b0b4b73a30b4b732b960b11b8152600a0190565b6001600160a01b0381168114620002be57600080fd5b50565b61534b80620002d16000396000f3fe60806040523480156200001157600080fd5b5060043610620000dc5760003560e01c806391d14854116200008d578063d547741f1162000063578063d547741f14620001c4578063eabf392214620001db578063f874225414620001f257620000dc565b806391d14854146200017d578063a217fddf14620001a3578063ca15c87314620001ad57620000dc565b806336568abe11620000c357806336568abe14620001295780636d45daac14620001405780639010d07c146200015757620000dc565b8063248a9ca314620000e15780632f2ff15d1462000110575b600080fd5b620000f8620000f236600462000aa5565b620001fc565b60405162000107919062000d82565b60405180910390f35b620001276200012136600462000abe565b62000211565b005b620001276200013a36600462000abe565b62000284565b620001276200015136600462000bd3565b62000301565b6200016e6200016836600462000af0565b620005e3565b60405162000107919062000d56565b620001946200018e36600462000abe565b6200060c565b60405162000107919062000d77565b620000f86200062c565b620000f8620001be36600462000aa5565b62000631565b62000127620001d536600462000abe565b6200064a565b6200016e620001ec36600462000b12565b620006a4565b620000f8620006d7565b60009081526020819052604090206002015490565b60008281526020819052604090206002015462000232906200018e62000714565b62000274576040517f08c379a00000000000000000000000000000000000000000000000000000000081526004016200026b9062000f75565b60405180910390fd5b62000280828262000718565b5050565b6200028e62000714565b73ffffffffffffffffffffffffffffffffffffffff168173ffffffffffffffffffffffffffffffffffffffff1614620002f5576040517f08c379a00000000000000000000000000000000000000000000000000000000081526004016200026b90620010d4565b620002808282620007a6565b62000325604051620003139062000d2d565b60405180910390206200018e62000714565b6200035e576040517f08c379a00000000000000000000000000000000000000000000000000000000081526004016200026b9062000fd2565b60015460ff166200039d576040517f08c379a00000000000000000000000000000000000000000000000000000000081526004016200026b906200109d565b600180547fffffffffffffffffffffffffffffffffffffffffffffffffffffffffffffff0016905560006002620003d860808701876200125d565b604051620003e892919062000d1d565b9081526040519081900360200190205473ffffffffffffffffffffffffffffffffffffffff161462000448576040517f08c379a00000000000000000000000000000000000000000000000000000000081526004016200026b9062001066565b6001546040517f0368965b000000000000000000000000000000000000000000000000000000008152600091610100900473ffffffffffffffffffffffffffffffffffffffff1690630368965b90620004a690889060040162001131565b602060405180830381600087803b158015620004c157600080fd5b505af1158015620004d6573d6000803e3d6000fd5b505050506040513d601f19601f82011682018060405250810190620004fc919062000a7f565b905080838584604051620005109062000a4f565b6200051f949392919062000d8b565b604051809103906000f0801580156200053c573d6000803e3d6000fd5b5060026200054e60808801886200125d565b6040516200055e92919062000d1d565b908152604051908190036020019020805473ffffffffffffffffffffffffffffffffffffffff929092167fffffffffffffffffffffffff00000000000000000000000000000000000000009092169190911790555050600180547fffffffffffffffffffffffffffffffffffffffffffffffffffffffffffffff001681179055505050565b600082815260208190526040812062000603908363ffffffff6200083416565b90505b92915050565b600082815260208190526040812062000603908363ffffffff6200084216565b600081565b6000818152602081905260408120620006069062000866565b6000828152602081905260409020600201546200066b906200018e62000714565b620002f5576040517f08c379a00000000000000000000000000000000000000000000000000000000081526004016200026b9062001009565b805160208183018101805160028252928201919093012091525473ffffffffffffffffffffffffffffffffffffffff1681565b604051620006e59062000d2d565b604051809103902081565b6000620006038373ffffffffffffffffffffffffffffffffffffffff841662000873565b3390565b600082815260208190526040902062000738908263ffffffff620006f016565b1562000280576200074862000714565b73ffffffffffffffffffffffffffffffffffffffff168173ffffffffffffffffffffffffffffffffffffffff16837f2f8788117e7eff1d82e926ec794901d17c78024a50270940304540a733656f0d60405160405180910390a45050565b6000828152602081905260409020620007c6908263ffffffff620008c216565b156200028057620007d662000714565b73ffffffffffffffffffffffffffffffffffffffff168173ffffffffffffffffffffffffffffffffffffffff16837ff6391f5c32d9c69d2a47ea670b442974b53935d1edc7fd64eb21e047a839171b60405160405180910390a45050565b6000620006038383620008e6565b6000620006038373ffffffffffffffffffffffffffffffffffffffff841662000949565b6000620006068262000961565b600062000881838362000949565b620008b95750815460018181018455600084815260208082209093018490558454848252828601909352604090209190915562000606565b50600062000606565b6000620006038373ffffffffffffffffffffffffffffffffffffffff841662000965565b8154600090821062000926576040517f08c379a00000000000000000000000000000000000000000000000000000000081526004016200026b9062000f18565b8260000182815481106200093657fe5b9060005260206000200154905092915050565b60009081526001919091016020526040902054151590565b5490565b6000818152600183016020526040812054801562000a445783547fffffffffffffffffffffffffffffffffffffffffffffffffffffffffffffffff8083019190810190600090879083908110620009b857fe5b9060005260206000200154905080876000018481548110620009d657fe5b60009182526020808320909101929092558281526001898101909252604090209084019055865487908062000a0757fe5b6001900381819060005260206000200160009055905586600101600087815260200190815260200160002060009055600194505050505062000606565b600091505062000606565b613f3980620013dd83390190565b80356200060681620013b6565b803563ffffffff811681146200060657600080fd5b60006020828403121562000a91578081fd5b815162000a9e81620013b6565b9392505050565b60006020828403121562000ab7578081fd5b5035919050565b6000806040838503121562000ad1578081fd5b82359150602083013562000ae581620013b6565b809150509250929050565b6000806040838503121562000b03578182fd5b50508035926020909101359150565b60006020828403121562000b24578081fd5b813567ffffffffffffffff8082111562000b3c578283fd5b81840185601f82011262000b4e578384fd5b803592508183111562000b5f578384fd5b60405160207fffffffffffffffffffffffffffffffffffffffffffffffffffffffffffffffe0601f860116820101818110848211171562000b9e578586fd5b60405283815281840160200187101562000bb6578485fd5b62000bc9846020830160208501620013aa565b9695505050505050565b60008060008084860360e081121562000bea578283fd5b853567ffffffffffffffff8082111562000c02578485fd5b818801610180818b03121562000c16578586fd5b96506020880135955060807fffffffffffffffffffffffffffffffffffffffffffffffffffffffffffffffc08401121562000c4f578485fd5b60408801945060c088013592508083111562000c69578384fd5b50508086016060818903121562000c7e578283fd5b94979396509194505050565b73ffffffffffffffffffffffffffffffffffffffff16815260200190565b63ffffffff16815260200190565b73ffffffffffffffffffffffffffffffffffffffff169052565b600082845282826020860137806020848601015260207fffffffffffffffffffffffffffffffffffffffffffffffffffffffffffffffe0601f85011685010190509392505050565b359052565b6000828483379101908152919050565b7f4d61696e7461696e6572000000000000000000000000000000000000000000008152600a0190565b73ffffffffffffffffffffffffffffffffffffffff91909116815260200190565b901515815260200190565b90815260200190565b600073ffffffffffffffffffffffffffffffffffffffff80871683526020863562000db681620013b6565b8216848201528681013562000dcb81620013b6565b828116604086015250604087013562000de481620013b6565b828116606086015250606087013562000dfd81620013b6565b8281166080860152508560a085015260e060c085015261014084019150843560e085015262000e2f81860186620012db565b60606101008701528362000e44828662000d82565b929450859290505b8183101562000e815783850162000e6f8262000e69838962000a5d565b62000c8a565b91508095505060018301925062000e4c565b62000e906040890189620012db565b955092507fffffffffffffffffffffffffffffffffffffffffffffffffffffffffffffff208782030161012088015280915062000ece858262000d82565b915050818592505b8483101562000f0a5783810162000ef98362000ef3838562000a6a565b62000ca8565b600194909401939250905062000ed6565b509998505050505050505050565b60208082526022908201527f456e756d657261626c655365743a20696e646578206f7574206f6620626f756e60408201527f6473000000000000000000000000000000000000000000000000000000000000606082015260800190565b6020808252602f908201527f416363657373436f6e74726f6c3a2073656e646572206d75737420626520616e60408201527f2061646d696e20746f206772616e740000000000000000000000000000000000606082015260800190565b6020808252601d908201527f53656e646572206d75737420626520746865206d61696e7461696e6572000000604082015260600190565b60208082526030908201527f416363657373436f6e74726f6c3a2073656e646572206d75737420626520616e60408201527f2061646d696e20746f207265766f6b6500000000000000000000000000000000606082015260800190565b60208082526012908201527f54494320616c7265616479206578697374730000000000000000000000000000604082015260600190565b6020808252601f908201527f5265656e7472616e637947756172643a207265656e7472616e742063616c6c00604082015260600190565b6020808252602f908201527f416363657373436f6e74726f6c3a2063616e206f6e6c792072656e6f756e636560408201527f20726f6c657320666f722073656c660000000000000000000000000000000000606082015260800190565b600060208252823560208301526200114d6020840184620012cc565b6200115c604084018262000cb6565b506040830135606083015262001176606084018462001344565b610180806080860152620011906101a08601838562000cd0565b6200119f608088018862001344565b945092507fffffffffffffffffffffffffffffffffffffffffffffffffffffffffffffffe08682030160a0870152620011da81858562000cd0565b620011ec60c0880160a08a0162000d18565b620011fe60e0880160c08a0162000d18565b61010094506200121485880160e08a0162000d18565b610120935062001229848801868a0162000d18565b61014094506200123e858801858a0162000d18565b9387013561016087810191909152909601359401939093529392505050565b60008083357fffffffffffffffffffffffffffffffffffffffffffffffffffffffffffffffe184360301811262001292578283fd5b8084018035925067ffffffffffffffff831115620012ae578384fd5b60200192505036819003821315620012c557600080fd5b9250929050565b6000823562000a9e81620013b6565b60008083357fffffffffffffffffffffffffffffffffffffffffffffffffffffffffffffffe184360301811262001310578283fd5b830160208101925035905067ffffffffffffffff8111156200133157600080fd5b602081023603831315620012c557600080fd5b60008083357fffffffffffffffffffffffffffffffffffffffffffffffffffffffffffffffe184360301811262001379578283fd5b830160208101925035905067ffffffffffffffff8111156200139a57600080fd5b803603831315620012c557600080fd5b82818337506000910152565b73ffffffffffffffffffffffffffffffffffffffff81168114620013d957600080fd5b5056fe60806040523480156200001157600080fd5b5060405162003f3938038062003f39833981016040819052620000349162000690565b6001805460ff191681179081905560ff166200006d5760405162461bcd60e51b8152600401620000649062000870565b60405180910390fd5b6001805460ff191690556200008d6000806001600160e01b036200024c16565b620000b96040516200009f906200078f565b60405190819003902060006001600160e01b036200024c16565b620000cb6040516200009f90620007ba565b620000dd6040516200009f90620007a5565b8251620000f6906000906001600160e01b036200026116565b6200012560405162000108906200078f565b60405190819003902060208501516001600160e01b036200026116565b620001506040516200013790620007ba565b604051809103902084604001516200026160201b60201c565b6200017f6040516200016290620007a5565b60405190819003902060608501516001600160e01b036200026116565b60408084015160608501518251602081018452858152925163c6665fb760e01b815273__TICHelper_____________________________9363c6665fb793620001d1936002938b93906004016200093c565b60006040518083038186803b158015620001ea57600080fd5b505af4158015620001ff573d6000803e3d6000fd5b50508251516200021b925090506001600160e01b036200027a16565b62000235816020015182604001516200032e60201b60201c565b50506001805460ff19168117905550620009e39050565b60009182526020829052604090912060020155565b6200027682826001600160e01b03620003dd16565b5050565b604080516020810182528281529051630148e77760e71b815273__TICHelper_____________________________9163a473bb8091620002c0916002916004016200096b565b60006040518083038186803b158015620002d957600080fd5b505af4158015620002ee573d6000803e3d6000fd5b505050507fcc8e0d099b6b6a1a4ae089dec1b2c29e7df166eb8f103f55064427f6e4596b09816040516200032391906200097a565b60405180910390a150565b6040516313ef979560e31b815273__TICHelper_____________________________90639f7cbca8906200036c9060029086908690600401620008a7565b60006040518083038186803b1580156200038557600080fd5b505af41580156200039a573d6000803e3d6000fd5b505050507f4d057bb49ffe067b03cb2120171a7e6decac5c2dbb5d8c2735813a27941706ef8282604051620003d1929190620007d8565b60405180910390a15050565b60008281526020818152604090912062000402918390620022f16200045f821b17901c565b1562000276576200041b6001600160e01b036200048816565b6001600160a01b0316816001600160a01b0316837f2f8788117e7eff1d82e926ec794901d17c78024a50270940304540a733656f0d60405160405180910390a45050565b60006200047f836001600160a01b0384166001600160e01b036200048c16565b90505b92915050565b3390565b6000620004a383836001600160e01b03620004e416565b620004db5750815460018181018455600084815260208082209093018490558454848252828601909352604090209190915562000482565b50600062000482565b60009081526001919091016020526040902054151590565b600082601f8301126200050d578081fd5b8151620005246200051e82620009aa565b62000983565b8181529150602080830190848101818402860182018710156200054657600080fd5b6000805b858110156200057a57825163ffffffff8116811462000567578283fd5b855293830193918301916001016200054a565b50505050505092915050565b6000818303606081121562000599578182fd5b620005a5606062000983565b9150602080821215620005b757600080fd5b620005c28162000983565b8451815283528084015191506001600160401b0380831115620005e457600080fd5b82850186601f820112620005f757600080fd5b805193506200060a6200051e85620009aa565b84815283810190828501858702840186018a10156200062857600080fd5b600093505b86841015620006585780516200064381620009ca565b8352600193909301929185019185016200062d565b5086850152505060408501519250808311156200067457600080fd5b50506200068484828501620004fc565b60408301525092915050565b60008060008084860360e0811215620006a7578485fd5b8551620006b481620009ca565b94506080601f1982011215620006c8578384fd5b50620006d5608062000983565b6020860151620006e581620009ca565b81526040860151620006f781620009ca565b602082015260608601516200070c81620009ca565b604082015260808601516200072181620009ca565b606082015260a086015160c087015191945092506001600160401b0381111562000749578182fd5b620007578782880162000586565b91505092959194509250565b6001600160a01b0316815260200190565b63ffffffff16815260200190565b6001600160a01b03169052565b6926b0b4b73a30b4b732b960b11b8152600a0190565b682b30b634b230ba37b960b91b815260090190565b712634b8bab4b234ba3c90283937bb34b232b960711b815260120190565b604080825283519082018190526000906020906060840190828701845b828110156200081c576200080b84835162000782565b9284019290840190600101620007f5565b505050838103828501528085516200083581846200097a565b91508387019250845b8181101562000863576200085483855162000774565b9385019392506001016200083e565b5090979650505050505050565b6020808252601f908201527f5265656e7472616e637947756172643a207265656e7472616e742063616c6c00604082015260600190565b60006060820185835260206060818501528186518084526080860191508288019350845b81811015620008f057620008e183865162000763565b948401949250600101620008cb565b505084810360408601528551808252908201925081860190845b818110156200092e57825163ffffffff16855293830193918301916001016200090a565b509298975050505050505050565b9485526001600160a01b0393841660208601529183166040850152909116606083015251608082015260a00190565b91825251602082015260400190565b90815260200190565b6040518181016001600160401b0381118282101715620009a257600080fd5b604052919050565b60006001600160401b03821115620009c0578081fd5b5060209081020190565b6001600160a01b0381168114620009e057600080fd5b50565b61354680620009f36000396000f3fe608060405234801561001057600080fd5b50600436106102775760003560e01c80638be76e0111610160578063b5e40390116100d8578063cca3595a1161008c578063eb9ce16311610071578063eb9ce163146104eb578063f874225414610500578063fcccedc71461050857610277565b8063cca3595a146104c5578063d547741f146104d857610277565b8063b72d8ce9116100bd578063b72d8ce914610497578063c49baebe146104aa578063ca15c873146104b257610277565b8063b5e4039014610471578063b6b55f251461048457610277565b806399a5d7471161012f578063a217fddf11610114578063a217fddf1461044e578063ae06c1b714610456578063b2016bd41461046957610277565b806399a5d747146104285780639a8ca7df1461043b57610277565b80638be76e01146103cf5780639010d07c146103e257806391d14854146103f5578063998fccc51461041557610277565b806336568abe116101f357806354f50b11116101c257806374899a7e116101a757806374899a7e146103a15780637c3970f2146103b45780638230ecd6146103c757610277565b806354f50b111461037b5780637242b9fc1461038e57610277565b806336568abe1461032f57806336a99ebd1461034257806350539aa81461035557806353c34f021461036857610277565b806320037cdd1161024a5780632e1a7d4d1161022f5780632e1a7d4d146103015780632f2ff15d1461031457806333a46ca21461032757610277565b806320037cdd146102d9578063248a9ca3146102ee57610277565b80630e3e7ba71461027c57806311adda7b1461029a578063139d006c146102af5780631985a89f146102c4575b600080fd5b610284610510565b604051610291919061302b565b60405180910390f35b6102ad6102a8366004612ccf565b6105db565b005b6102b76106e9565b6040516102919190612f3d565b6102cc6107af565b6040516102919190612e8e565b6102e16107cb565b6040516102919190613078565b6102e16102fc366004612bf9565b6107e2565b6102ad61030f366004612bf9565b6107f7565b6102ad610322366004612c29565b61095b565b6102ad6109bd565b6102ad61033d366004612c29565b610b13565b6102ad610350366004612bf9565b610b89565b6102ad610363366004612bf9565b610d5d565b6102ad610376366004612bf9565b610efc565b6102ad610389366004612bf9565b61109b565b6102ad61039c366004612bf9565b6111a2565b6102ad6103af366004612bf9565b611340565b6102ad6103c2366004612c58565b611444565b6102cc6115f0565b6102ad6103dd366004612c58565b611693565b6102cc6103f0366004612c58565b611808565b610408610403366004612c29565b61182f565b604051610291919061306d565b6102ad610423366004612bf9565b61184d565b6102e1610436366004612bf9565b6119ec565b6102ad610449366004612c95565b611a20565b6102e1611bde565b6102ad610464366004612bf9565b611be3565b6102cc611c96565b6102ad61047f366004612a49565b611cb2565b6102ad610492366004612bf9565b611d94565b6102ad6104a5366004612bf9565b611e9b565b6102e161203a565b6102e16104c0366004612bf9565b612046565b6102ad6104d3366004612c58565b61205d565b6102ad6104e6366004612c29565b612188565b6104f36121dc565b6040516102919190612fdd565b6102e1612230565b6102ad61223c565b6040517f77a7fa9e00000000000000000000000000000000000000000000000000000000815260609073__TICHelper_____________________________906377a7fa9e9061056490600290600401613078565b60006040518083038186803b15801561057c57600080fd5b505af4158015610590573d6000803e3d6000fd5b505050506040513d6000823e601f3d9081017fffffffffffffffffffffffffffffffffffffffffffffffffffffffffffffffe01682016040526105d69190810190612bbe565b905090565b60015460ff16610620576040517f08c379a000000000000000000000000000000000000000000000000000000000815260040161061790613314565b60405180910390fd5b600180547fffffffffffffffffffffffffffffffffffffffffffffffffffffffffffffff001690556040516106689061065890612e13565b6040518091039020610403612313565b61069e576040517f08c379a000000000000000000000000000000000000000000000000000000000815260040161061790613223565b8051516106aa90612317565b6106bc816020015182604001516123de565b50600180547fffffffffffffffffffffffffffffffffffffffffffffffffffffffffffffff001681179055565b6040517f4da5bc7b00000000000000000000000000000000000000000000000000000000815260609073__TICHelper_____________________________90634da5bc7b9061073d90600290600401613078565b60006040518083038186803b15801561075557600080fd5b505af4158015610769573d6000803e3d6000fd5b505050506040513d6000823e601f3d9081017fffffffffffffffffffffffffffffffffffffffffffffffffffffffffffffffe01682016040526105d69190810190612aaa565b60025473ffffffffffffffffffffffffffffffffffffffff1690565b6040516107d790612e65565b604051809103902081565b60009081526020819052604090206002015490565b60015460ff16610833576040517f08c379a000000000000000000000000000000000000000000000000000000000815260040161061790613314565b600180547fffffffffffffffffffffffffffffffffffffffffffffffffffffffffffffff0016905560405161086b9061065890612e65565b6108a1576040517f08c379a0000000000000000000000000000000000000000000000000000000008152600401610617906131c6565b6040805160208101825282815290517faa67b60900000000000000000000000000000000000000000000000000000000815273__TICHelper_____________________________9163aa67b609916108fe9160029160040161347f565b60006040518083038186803b15801561091657600080fd5b505af415801561092a573d6000803e3d6000fd5b5050600180547fffffffffffffffffffffffffffffffffffffffffffffffffffffffffffffff001681179055505050565b60008281526020819052604090206002015461097990610403612313565b6109af576040517f08c379a000000000000000000000000000000000000000000000000000000000815260040161061790613132565b6109b982826124a0565b5050565b6109cc60405161065890612e65565b610a02576040517f08c379a0000000000000000000000000000000000000000000000000000000008152600401610617906131c6565b60015460ff16610a3e576040517f08c379a000000000000000000000000000000000000000000000000000000000815260040161061790613314565b600180547fffffffffffffffffffffffffffffffffffffffffffffffffffffffffffffff001690556040517f1c647abd00000000000000000000000000000000000000000000000000000000815273__TICHelper_____________________________90631c647abd90610ab790600290600401613078565b60006040518083038186803b158015610acf57600080fd5b505af4158015610ae3573d6000803e3d6000fd5b5050600180547fffffffffffffffffffffffffffffffffffffffffffffffffffffffffffffff0016811790555050565b610b1b612313565b73ffffffffffffffffffffffffffffffffffffffff168173ffffffffffffffffffffffffffffffffffffffff1614610b7f576040517f08c379a00000000000000000000000000000000000000000000000000000000081526004016106179061334b565b6109b98282612529565b610b9860405161065890612e3c565b610bce576040517f08c379a00000000000000000000000000000000000000000000000000000000081526004016106179061318f565b60015460ff16610c0a576040517f08c379a000000000000000000000000000000000000000000000000000000000815260040161061790613314565b600180547fffffffffffffffffffffffffffffffffffffffffffffffffffffffffffffff001690556000818152600f60205260409081902060029081015491517ff2b66f0900000000000000000000000000000000000000000000000000000000815273ffffffffffffffffffffffffffffffffffffffff9092169173__TICHelper_____________________________9163f2b66f0991610cb191908690600401613437565b60006040518083038186803b158015610cc957600080fd5b505af4158015610cdd573d6000803e3d6000fd5b505050508073ffffffffffffffffffffffffffffffffffffffff167fcfa4c7018a3b09267833d13734668d7325e5e99a9607b892d417207b058f20d383604051610d279190613078565b60405180910390a25050600180547fffffffffffffffffffffffffffffffffffffffffffffffffffffffffffffff001681179055565b60015460ff16610d99576040517f08c379a000000000000000000000000000000000000000000000000000000000815260040161061790613314565b600180547fffffffffffffffffffffffffffffffffffffffffffffffffffffffffffffff00169055604051610dd19061065890612e3c565b610e07576040517f08c379a00000000000000000000000000000000000000000000000000000000081526004016106179061318f565b6000818152601260205260409081902060029081015491517f2368045a00000000000000000000000000000000000000000000000000000000815273ffffffffffffffffffffffffffffffffffffffff9092169173__TICHelper_____________________________91632368045a91610e8691908690600401613437565b60006040518083038186803b158015610e9e57600080fd5b505af4158015610eb2573d6000803e3d6000fd5b505050508073ffffffffffffffffffffffffffffffffffffffff167ff8eaec7c1b7b19060d1594532caca20fa4cb9d60c5f61244fa2487f341a29f0f83604051610d279190613078565b60015460ff16610f38576040517f08c379a000000000000000000000000000000000000000000000000000000000815260040161061790613314565b600180547fffffffffffffffffffffffffffffffffffffffffffffffffffffffffffffff00169055604051610f709061065890612e3c565b610fa6576040517f08c379a00000000000000000000000000000000000000000000000000000000081526004016106179061318f565b6000818152601260205260409081902060029081015491517fa56a6d5200000000000000000000000000000000000000000000000000000000815273ffffffffffffffffffffffffffffffffffffffff9092169173__TICHelper_____________________________9163a56a6d529161102591908690600401613437565b60006040518083038186803b15801561103d57600080fd5b505af4158015611051573d6000803e3d6000fd5b505050508073ffffffffffffffffffffffffffffffffffffffff167f5cdff20fff2ad36b72ea16dd9b7027f3d53880d2aa7c7f3b66404e9c1a14249383604051610d279190613078565b60015460ff166110d7576040517f08c379a000000000000000000000000000000000000000000000000000000000815260040161061790613314565b600180547fffffffffffffffffffffffffffffffffffffffffffffffffffffffffffffff0016905560405161110f9061065890612e65565b611145576040517f08c379a0000000000000000000000000000000000000000000000000000000008152600401610617906131c6565b6040805160208101825282815290517fb1e0763000000000000000000000000000000000000000000000000000000000815273__TICHelper_____________________________9163b1e07630916108fe9160029160040161347f565b6111b160405161065890612e3c565b6111e7576040517f08c379a00000000000000000000000000000000000000000000000000000000081526004016106179061318f565b60015460ff16611223576040517f08c379a000000000000000000000000000000000000000000000000000000000815260040161061790613314565b600180547fffffffffffffffffffffffffffffffffffffffffffffffffffffffffffffff001690556000818152600f60205260409081902060029081015491517fad0bdda100000000000000000000000000000000000000000000000000000000815273ffffffffffffffffffffffffffffffffffffffff9092169173__TICHelper_____________________________9163ad0bdda1916112ca91908690600401613437565b60006040518083038186803b1580156112e257600080fd5b505af41580156112f6573d6000803e3d6000fd5b505050508073ffffffffffffffffffffffffffffffffffffffff167fc1257c3422a2d5dd3e6112d41b825533c33b8a91bc88cffb2d298c30f1828fe583604051610d279190613078565b61134f60405161065890612e65565b611385576040517f08c379a0000000000000000000000000000000000000000000000000000000008152600401610617906131c6565b60015460ff166113c1576040517f08c379a000000000000000000000000000000000000000000000000000000000815260040161061790613314565b600180547fffffffffffffffffffffffffffffffffffffffffffffffffffffffffffffff001690556040805160208101825282815290517e12b1f800000000000000000000000000000000000000000000000000000000815273__TICHelper_____________________________916212b1f8916108fe9160029160040161347f565b60015460ff16611480576040517f08c379a000000000000000000000000000000000000000000000000000000000815260040161061790613314565b600180547fffffffffffffffffffffffffffffffffffffffffffffffffffffffffffffff0016905560408051602080820183528482528251908101835283815291517fb85fa0c200000000000000000000000000000000000000000000000000000000815260009273__TICHelper_____________________________9263b85fa0c292611514926002929160040161348e565b60206040518083038186803b15801561152c57600080fd5b505af4158015611540573d6000803e3d6000fd5b505050506040513d601f19601f820116820180604052508101906115649190612c11565b905061156e612313565b73ffffffffffffffffffffffffffffffffffffffff167f1f2447cc38f55ebf1671418d6998b2d2f7774152ab993d79154e01e29d9bf677824286866040516115b994939291906130ba565b60405180910390a25050600180547fffffffffffffffffffffffffffffffffffffffffffffffffffffffffffffff00168117905550565b600254604080517f7048594b000000000000000000000000000000000000000000000000000000008152905160009273ffffffffffffffffffffffffffffffffffffffff1691637048594b916004808301926020929190829003018186803b15801561165b57600080fd5b505afa15801561166f573d6000803e3d6000fd5b505050506040513d601f19601f820116820180604052508101906105d69190612c79565b60015460ff166116cf576040517f08c379a000000000000000000000000000000000000000000000000000000000815260040161061790613314565b600180547fffffffffffffffffffffffffffffffffffffffffffffffffffffffffffffff0016905560408051602080820183528482528251908101835283815291517f99ecc8ee00000000000000000000000000000000000000000000000000000000815260009273__TICHelper_____________________________926399ecc8ee92611763926002929160040161348e565b60206040518083038186803b15801561177b57600080fd5b505af415801561178f573d6000803e3d6000fd5b505050506040513d601f19601f820116820180604052508101906117b39190612c11565b90506117bd612313565b73ffffffffffffffffffffffffffffffffffffffff167f98ce4331847829c3cdcf95d2ae4100212878081b653a6df89e3a76ab14ac8811824286866040516115b994939291906130ba565b6000828152602081905260408120611826908363ffffffff6125b216565b90505b92915050565b6000828152602081905260408120611826908363ffffffff6125be16565b60015460ff16611889576040517f08c379a000000000000000000000000000000000000000000000000000000000815260040161061790613314565b600180547fffffffffffffffffffffffffffffffffffffffffffffffffffffffffffffff001690556040516118c19061065890612e3c565b6118f7576040517f08c379a00000000000000000000000000000000000000000000000000000000081526004016106179061318f565b6000818152600c60205260409081902060029081015491517fa923bc1200000000000000000000000000000000000000000000000000000000815273ffffffffffffffffffffffffffffffffffffffff9092169173__TICHelper_____________________________9163a923bc129161197691908690600401613437565b60006040518083038186803b15801561198e57600080fd5b505af41580156119a2573d6000803e3d6000fd5b505050508073ffffffffffffffffffffffffffffffffffffffff167f704f76cbfb948e81f51428a4981f0bbf366d86936d14fff8a7e1e65d3de929cb83604051610d279190613078565b604080516020808201835260085482528251908101909252828252600091611a199163ffffffff6125e016565b5192915050565b60015460ff16611a5c576040517f08c379a000000000000000000000000000000000000000000000000000000000815260040161061790613314565b600180547fffffffffffffffffffffffffffffffffffffffffffffffffffffffffffffff001690556040805160208082018352858252825180820184528581528351918201845284825292517f7b05a4a900000000000000000000000000000000000000000000000000000000815260009373__TICHelper_____________________________93637b05a4a993611afe936002938c93929091600401613445565b60206040518083038186803b158015611b1657600080fd5b505af4158015611b2a573d6000803e3d6000fd5b505050506040513d601f19601f82011682018060405250810190611b4e9190612c11565b9050611b58612313565b73ffffffffffffffffffffffffffffffffffffffff167f7b50f5a35a69c552289956f6d3d7b0b90dc9dba083ad33fa8db602c6ed57f4c98242888887604051611ba5959493929190613081565b60405180910390a25050600180547fffffffffffffffffffffffffffffffffffffffffffffffffffffffffffffff001681179055505050565b600081565b60015460ff16611c1f576040517f08c379a000000000000000000000000000000000000000000000000000000000815260040161061790613314565b600180547fffffffffffffffffffffffffffffffffffffffffffffffffffffffffffffff00169055604051611c579061065890612e13565b611c8d576040517f08c379a000000000000000000000000000000000000000000000000000000000815260040161061790613223565b6106bc81612317565b60065473ffffffffffffffffffffffffffffffffffffffff1690565b60015460ff16611cee576040517f08c379a000000000000000000000000000000000000000000000000000000000815260040161061790613314565b600180547fffffffffffffffffffffffffffffffffffffffffffffffffffffffffffffff00169055604051611d269061065890612e13565b611d5c576040517f08c379a000000000000000000000000000000000000000000000000000000000815260040161061790613223565b611d6682826123de565b5050600180547fffffffffffffffffffffffffffffffffffffffffffffffffffffffffffffff001681179055565b60015460ff16611dd0576040517f08c379a000000000000000000000000000000000000000000000000000000000815260040161061790613314565b600180547fffffffffffffffffffffffffffffffffffffffffffffffffffffffffffffff00169055604051611e089061065890612e65565b611e3e576040517f08c379a0000000000000000000000000000000000000000000000000000000008152600401610617906131c6565b6040805160208101825282815290517fed3395da00000000000000000000000000000000000000000000000000000000815273__TICHelper_____________________________9163ed3395da916108fe9160029160040161347f565b60015460ff16611ed7576040517f08c379a000000000000000000000000000000000000000000000000000000000815260040161061790613314565b600180547fffffffffffffffffffffffffffffffffffffffffffffffffffffffffffffff00169055604051611f0f9061065890612e3c565b611f45576040517f08c379a00000000000000000000000000000000000000000000000000000000081526004016106179061318f565b6000818152600c60205260409081902060029081015491517f3f63703d00000000000000000000000000000000000000000000000000000000815273ffffffffffffffffffffffffffffffffffffffff9092169173__TICHelper_____________________________91633f63703d91611fc491908690600401613437565b60006040518083038186803b158015611fdc57600080fd5b505af4158015611ff0573d6000803e3d6000fd5b505050508073ffffffffffffffffffffffffffffffffffffffff167fe415bcfb927e3eafa5ab377de7ddccc55dedc71ba85c6cfbadea6bf317435c8d83604051610d279190613078565b6040516107d790612e3c565b600081815260208190526040812061182990612623565b60015460ff16612099576040517f08c379a000000000000000000000000000000000000000000000000000000000815260040161061790613314565b600180547fffffffffffffffffffffffffffffffffffffffffffffffffffffffffffffff0016905560408051602080820183528482528251908101835283815291517fe3411dbc00000000000000000000000000000000000000000000000000000000815273__TICHelper_____________________________9263e3411dbc9261212a926002929060040161348e565b60006040518083038186803b15801561214257600080fd5b505af4158015612156573d6000803e3d6000fd5b5050600180547fffffffffffffffffffffffffffffffffffffffffffffffffffffffffffffff00168117905550505050565b6000828152602081905260409020600201546121a690610403612313565b610b7f576040517f08c379a00000000000000000000000000000000000000000000000000000000081526004016106179061325a565b6040517ffdd3eeb200000000000000000000000000000000000000000000000000000000815260609073__TICHelper_____________________________9063fdd3eeb29061056490600290600401613078565b6040516107d790612e13565b60015460ff16612278576040517f08c379a000000000000000000000000000000000000000000000000000000000815260040161061790613314565b600180547fffffffffffffffffffffffffffffffffffffffffffffffffffffffffffffff001690556040517f0827cff500000000000000000000000000000000000000000000000000000000815273__TICHelper_____________________________90630827cff590610ab790600290600401613078565b60006118268373ffffffffffffffffffffffffffffffffffffffff841661262e565b3390565b6040805160208101825282815290517fa473bb8000000000000000000000000000000000000000000000000000000000815273__TICHelper_____________________________9163a473bb80916123749160029160040161347f565b60006040518083038186803b15801561238c57600080fd5b505af41580156123a0573d6000803e3d6000fd5b505050507fcc8e0d099b6b6a1a4ae089dec1b2c29e7df166eb8f103f55064427f6e4596b09816040516123d39190613078565b60405180910390a150565b6040517f9f7cbca800000000000000000000000000000000000000000000000000000000815273__TICHelper_____________________________90639f7cbca89061243390600290869086906004016133a8565b60006040518083038186803b15801561244b57600080fd5b505af415801561245f573d6000803e3d6000fd5b505050507f4d057bb49ffe067b03cb2120171a7e6decac5c2dbb5d8c2735813a27941706ef8282604051612494929190612eaf565b60405180910390a15050565b60008281526020819052604090206124be908263ffffffff6122f116565b156109b9576124cb612313565b73ffffffffffffffffffffffffffffffffffffffff168173ffffffffffffffffffffffffffffffffffffffff16837f2f8788117e7eff1d82e926ec794901d17c78024a50270940304540a733656f0d60405160405180910390a45050565b6000828152602081905260409020612547908263ffffffff61267816565b156109b957612554612313565b73ffffffffffffffffffffffffffffffffffffffff168173ffffffffffffffffffffffffffffffffffffffff16837ff6391f5c32d9c69d2a47ea670b442974b53935d1edc7fd64eb21e047a839171b60405160405180910390a45050565b6000611826838361269a565b60006118268373ffffffffffffffffffffffffffffffffffffffff84166126f9565b6125e861284d565b6040805160208101909152825184518291670de0b6b3a7640000916126129163ffffffff61271116565b8161261957fe5b0490529392505050565b600061182982612765565b600061263a83836126f9565b61267057508154600181810184556000848152602080822090930184905584548482528286019093526040902091909155611829565b506000611829565b60006118268373ffffffffffffffffffffffffffffffffffffffff8416612769565b815460009082106126d7576040517f08c379a0000000000000000000000000000000000000000000000000000000008152600401610617906130d5565b8260000182815481106126e657fe5b9060005260206000200154905092915050565b60009081526001919091016020526040902054151590565b60008261272057506000611829565b8282028284828161272d57fe5b0414611826576040517f08c379a0000000000000000000000000000000000000000000000000000000008152600401610617906132b7565b5490565b600081815260018301602052604081205480156128435783547fffffffffffffffffffffffffffffffffffffffffffffffffffffffffffffffff80830191908101906000908790839081106127ba57fe5b90600052602060002001549050808760000184815481106127d757fe5b60009182526020808320909101929092558281526001898101909252604090209084019055865487908061280757fe5b60019003818190600052602060002001600090559055866001016000878152602001908152602001600020600090556001945050505050611829565b6000915050611829565b6040518060200160405280600081525090565b8051611829816134eb565b600082601f83011261287b578081fd5b813561288e612889826134cb565b6134a4565b8181529150602080830190848101818402860182018710156128af57600080fd5b60005b848110156128d75781356128c5816134eb565b845292820192908201906001016128b2565b505050505092915050565b600082601f8301126128f2578081fd5b8151612900612889826134cb565b818152915060208083019084810160a08085028701830188101561292357600080fd5b6000805b8681101561299b5782848b03121561293d578182fd5b612946836134a4565b845181528585015186820152604080860151612961816134eb565b9082015260606129738c878301612a24565b9082015260806129858c878301612a24565b9082015286529484019492820192600101612927565b5050505050505092915050565b600082601f8301126129b8578081fd5b81356129c6612889826134cb565b8181529150602080830190848101818402860182018710156129e757600080fd5b6000805b85811015612a1857823563ffffffff81168114612a06578283fd5b855293830193918301916001016129eb565b50505050505092915050565b600060208284031215612a35578081fd5b612a3f60206134a4565b9151825250919050565b60008060408385031215612a5b578182fd5b823567ffffffffffffffff80821115612a72578384fd5b612a7e8683870161286b565b93506020850135915080821115612a93578283fd5b50612aa0858286016129a8565b9150509250929050565b60006020808385031215612abc578182fd5b825167ffffffffffffffff811115612ad2578283fd5b80840185601f820112612ae3578384fd5b80519150612af3612889836134cb565b8281528381019082850160e0808602850187018a1015612b11578788fd5b8794505b85851015612bb05780828b031215612b2b578788fd5b612b34816134a4565b8251815287830151888201526040612b4e8c828601612860565b908201526060612b608c858301612860565b908201526080612b728c858301612a24565b9082015260a0612b848c858301612a24565b9082015260c0612b968c858301612a24565b908201528452600194909401939286019290810190612b15565b509098975050505050505050565b600060208284031215612bcf578081fd5b815167ffffffffffffffff811115612be5578182fd5b612bf1848285016128e2565b949350505050565b600060208284031215612c0a578081fd5b5035919050565b600060208284031215612c22578081fd5b5051919050565b60008060408385031215612c3b578182fd5b823591506020830135612c4d816134eb565b809150509250929050565b60008060408385031215612c6a578182fd5b50508035926020909101359150565b600060208284031215612c8a578081fd5b8151611826816134eb565b60008060008060808587031215612caa578182fd5b8435612cb5816134eb565b966020860135965060408601359560600135945092505050565b600060208284031215612ce0578081fd5b813567ffffffffffffffff80821115612cf7578283fd5b81840180860392506060831215612d0c578384fd5b612d1660606134a4565b6020841215612d23578485fd5b612d2d60206134a4565b8235815281526020820135935082841115612d46578485fd5b612d528785840161286b565b60208201526040820135935082841115612d6a578485fd5b612d76878584016129a8565b60408201529695505050505050565b73ffffffffffffffffffffffffffffffffffffffff16815260200190565b63ffffffff16815260200190565b73ffffffffffffffffffffffffffffffffffffffff169052565b805182526020810151602083015273ffffffffffffffffffffffffffffffffffffffff6040820151166040830152606081015151606083015260808101515160808301525050565b7f4d61696e7461696e6572000000000000000000000000000000000000000000008152600a0190565b7f56616c696461746f720000000000000000000000000000000000000000000000815260090190565b7f4c69717569646974792050726f76696465720000000000000000000000000000815260120190565b73ffffffffffffffffffffffffffffffffffffffff91909116815260200190565b604080825283519082018190526000906020906060840190828701845b82811015612eef57612edf848351612db1565b9284019290840190600101612ecc565b50505083810382850152808551612f068184613078565b91508387019250845b81811015612f3057612f22838551612da3565b938501939250600101612f0f565b5090979650505050505050565b602080825282518282018190526000919060409081850190868401855b82811015612fd05781518051855286810151878601528581015173ffffffffffffffffffffffffffffffffffffffff9081168787015260608083015190911690860152608080820151519086015260a080820151519086015260c090810151519085015260e09093019290850190600101612f5a565b5091979650505050505050565b6020808252825182820181905260009190848201906040850190845b8181101561301f5761300c838551612dcb565b9284019260a09290920191600101612ff9565b50909695505050505050565b6020808252825182820181905260009190848201906040850190845b8181101561301f5761305a838551612dcb565b9284019260a09290920191600101613047565b901515815260200190565b90815260200190565b948552602085019390935273ffffffffffffffffffffffffffffffffffffffff9190911660408401526060830152608082015260a00190565b93845260208401929092526040830152606082015260800190565b60208082526022908201527f456e756d657261626c655365743a20696e646578206f7574206f6620626f756e60408201527f6473000000000000000000000000000000000000000000000000000000000000606082015260800190565b6020808252602f908201527f416363657373436f6e74726f6c3a2073656e646572206d75737420626520616e60408201527f2061646d696e20746f206772616e740000000000000000000000000000000000606082015260800190565b6020808252601c908201527f53656e646572206d757374206265207468652076616c696461746f7200000000604082015260600190565b60208082526025908201527f53656e646572206d75737420626520746865206c69717569646974792070726f60408201527f7669646572000000000000000000000000000000000000000000000000000000606082015260800190565b6020808252601d908201527f53656e646572206d75737420626520746865206d61696e7461696e6572000000604082015260600190565b60208082526030908201527f416363657373436f6e74726f6c3a2073656e646572206d75737420626520616e60408201527f2061646d696e20746f207265766f6b6500000000000000000000000000000000606082015260800190565b60208082526021908201527f536166654d6174683a206d756c7469706c69636174696f6e206f766572666c6f60408201527f7700000000000000000000000000000000000000000000000000000000000000606082015260800190565b6020808252601f908201527f5265656e7472616e637947756172643a207265656e7472616e742063616c6c00604082015260600190565b6020808252602f908201527f416363657373436f6e74726f6c3a2063616e206f6e6c792072656e6f756e636560408201527f20726f6c657320666f722073656c660000000000000000000000000000000000606082015260800190565b60006060820185835260206060818501528186518084526080860191508288019350845b818110156133ed576133df838651612d85565b9484019492506001016133cc565b505084810360408601528551808252908201925081860190845b8181101561342957825163ffffffff1685529383019391830191600101613407565b509298975050505050505050565b918252602082015260400190565b94855273ffffffffffffffffffffffffffffffffffffffff9390931660208501529051604084015251606083015251608082015260a00190565b91825251602082015260400190565b9283529051602083015251604082015260600190565b60405181810167ffffffffffffffff811182821017156134c357600080fd5b604052919050565b600067ffffffffffffffff8211156134e1578081fd5b5060209081020190565b73ffffffffffffffffffffffffffffffffffffffff8116811461350d57600080fd5b5056fea2646970667358221220e85725b26c749faa0c3d2b348702f7b1a2a9c0853e28cec4dae3979f45a9f15164736f6c634300060a0033a2646970667358221220c1704b30cf7252bff94b9809d003ecac46371e1a34ded2ffe7900917148d6e5564736f6c634300060a0033",
  "immutableReferences": {},
  "source": "pragma solidity ^0.6.0;\npragma experimental ABIEncoderV2;\n\nimport {AccessControl} from '@openzeppelin/contracts/access/AccessControl.sol';\nimport {\n  ReentrancyGuard\n} from '@openzeppelin/contracts/utils/ReentrancyGuard.sol';\nimport {TIC} from './TIC.sol';\nimport {IExpiringMultiParty} from './IExpiringMultiParty.sol';\nimport {\n  ExpiringMultiPartyCreator\n} from './uma-contracts/financial-templates/expiring-multiparty/ExpiringMultiPartyCreator.sol';\n\ncontract TICFactory is AccessControl, ReentrancyGuard {\n  //----------------------------------------\n  // Constants\n  //----------------------------------------\n\n  bytes32 public constant MAINTAINER_ROLE = keccak256('Maintainer');\n\n  //----------------------------------------\n  // State variables\n  //----------------------------------------\n\n  ExpiringMultiPartyCreator private derivativeCreator;\n\n  // Get a TIC using its token symbol\n  mapping(string => TIC) public symbolToTIC;\n\n  //----------------------------------------\n  // Constructor\n  //----------------------------------------\n\n  constructor(\n    address _admin,\n    address _maintainer,\n    ExpiringMultiPartyCreator _derivativeCreator\n  ) public {\n    _setRoleAdmin(DEFAULT_ADMIN_ROLE, DEFAULT_ADMIN_ROLE);\n    _setRoleAdmin(MAINTAINER_ROLE, DEFAULT_ADMIN_ROLE);\n    _setupRole(DEFAULT_ADMIN_ROLE, _admin);\n    _setupRole(MAINTAINER_ROLE, _maintainer);\n    derivativeCreator = _derivativeCreator;\n  }\n\n  //----------------------------------------\n  // Modifiers\n  //----------------------------------------\n\n  modifier onlyMaintainer() {\n    require(\n      hasRole(MAINTAINER_ROLE, _msgSender()),\n      'Sender must be the maintainer'\n    );\n    _;\n  }\n\n  //----------------------------------------\n  // External functions\n  //----------------------------------------\n\n  /**\n   * @notice Creates a new TIC\n   * @param params The parameters used to create the underlying derivative\n   * @param roles The addresses of admin, maintainer, liquidity provider and validator\n   * @param startingCollateralization Collateralization ratio to use before a global one is set\n   * @param fee The fee structure\n   */\n  function createTIC(\n    ExpiringMultiPartyCreator.Params calldata params,\n    uint256 startingCollateralization,\n    TIC.Roles calldata roles,\n    TIC.Fee calldata fee\n  ) external onlyMaintainer nonReentrant {\n    //Require TIC does not exist\n    require(\n      address(symbolToTIC[params.syntheticSymbol]) == address(0),\n      'TIC already exists'\n    );\n    // Create the derivative contract\n    // TODO: `ExpiringMultiPartyCreator` past commit b6dc123e11d7253cdbe0fcc40b7ab4a992c4e56d\n    //       requires `minSponsorTokens` param.\n    address derivative = derivativeCreator.createExpiringMultiParty(params);\n    // Create the TIC\n    symbolToTIC[params.syntheticSymbol] = new TIC(\n      IExpiringMultiParty(derivative),\n      roles,\n      startingCollateralization,\n      fee\n    );\n  }\n}\n",
  "sourcePath": "/home/alessandrovm/JarvisLavoro/SynFiat/packages/contracts/contracts/TICFactory.sol",
  "compiler": {
    "name": "solc",
    "version": "0.6.10+commit.00c0fcaf.Emscripten.clang"
  },
  "schemaVersion": "3.2.5",
  "updatedAt": "2020-10-19T19:24:32.416Z",
  "networkType": "ethereum",
  "devdoc": {
    "methods": {
      "createTIC((uint256,address,bytes32,string,string,(uint256),(uint256),(uint256),(uint256),(uint256),uint256,uint256),uint256,(address,address,address,address),((uint256),address[],uint32[]))": {
        "params": {
          "fee": "The fee structure",
          "params": "The parameters used to create the underlying derivative",
          "roles": "The addresses of admin, maintainer, liquidity provider and validator",
          "startingCollateralization": "Collateralization ratio to use before a global one is set"
        }
      },
      "getRoleAdmin(bytes32)": {
        "details": "Returns the admin role that controls `role`. See {grantRole} and {revokeRole}. To change a role's admin, use {_setRoleAdmin}."
      },
      "getRoleMember(bytes32,uint256)": {
        "details": "Returns one of the accounts that have `role`. `index` must be a value between 0 and {getRoleMemberCount}, non-inclusive. Role bearers are not sorted in any particular way, and their ordering may change at any point. WARNING: When using {getRoleMember} and {getRoleMemberCount}, make sure you perform all queries on the same block. See the following https://forum.openzeppelin.com/t/iterating-over-elements-on-enumerableset-in-openzeppelin-contracts/2296[forum post] for more information."
      },
      "getRoleMemberCount(bytes32)": {
        "details": "Returns the number of accounts that have `role`. Can be used together with {getRoleMember} to enumerate all bearers of a role."
      },
      "grantRole(bytes32,address)": {
        "details": "Grants `role` to `account`. If `account` had not been already granted `role`, emits a {RoleGranted} event. Requirements: - the caller must have ``role``'s admin role."
      },
      "hasRole(bytes32,address)": {
        "details": "Returns `true` if `account` has been granted `role`."
      },
      "renounceRole(bytes32,address)": {
        "details": "Revokes `role` from the calling account. Roles are often managed via {grantRole} and {revokeRole}: this function's purpose is to provide a mechanism for accounts to lose their privileges if they are compromised (such as when a trusted device is misplaced). If the calling account had been granted `role`, emits a {RoleRevoked} event. Requirements: - the caller must be `account`."
      },
      "revokeRole(bytes32,address)": {
        "details": "Revokes `role` from `account`. If `account` had been granted `role`, emits a {RoleRevoked} event. Requirements: - the caller must have ``role``'s admin role."
      }
    }
  },
  "userdoc": {
    "methods": {
      "createTIC((uint256,address,bytes32,string,string,(uint256),(uint256),(uint256),(uint256),(uint256),uint256,uint256),uint256,(address,address,address,address),((uint256),address[],uint32[]))": {
        "notice": "Creates a new TIC"
      }
    }
  }
}