{
  "contractName": "TICFactory",
  "abi": [
    {
      "inputs": [
        {
          "internalType": "contract ExpiringMultiPartyCreator",
          "name": "_derivativeCreator",
          "type": "address"
        }
      ],
      "stateMutability": "nonpayable",
      "type": "constructor"
    },
    {
      "anonymous": false,
      "inputs": [
        {
          "indexed": true,
          "internalType": "address",
          "name": "previousOwner",
          "type": "address"
        },
        {
          "indexed": true,
          "internalType": "address",
          "name": "newOwner",
          "type": "address"
        }
      ],
      "name": "OwnershipTransferred",
      "type": "event"
    },
    {
      "inputs": [],
      "name": "isOwner",
      "outputs": [
        {
          "internalType": "bool",
          "name": "",
          "type": "bool"
        }
      ],
      "stateMutability": "view",
      "type": "function",
      "constant": true
    },
    {
      "inputs": [],
      "name": "owner",
      "outputs": [
        {
          "internalType": "address",
          "name": "",
          "type": "address"
        }
      ],
      "stateMutability": "view",
      "type": "function",
      "constant": true
    },
    {
      "inputs": [],
      "name": "renounceOwnership",
      "outputs": [],
      "stateMutability": "nonpayable",
      "type": "function"
    },
    {
      "inputs": [
        {
          "internalType": "string",
          "name": "",
          "type": "string"
        }
      ],
      "name": "symbolToTIC",
      "outputs": [
        {
          "internalType": "contract TIC",
          "name": "",
          "type": "address"
        }
      ],
      "stateMutability": "view",
      "type": "function",
      "constant": true
    },
    {
      "inputs": [
        {
          "internalType": "address",
          "name": "newOwner",
          "type": "address"
        }
      ],
      "name": "transferOwnership",
      "outputs": [],
      "stateMutability": "nonpayable",
      "type": "function"
    },
    {
      "inputs": [
        {
          "components": [
            {
              "internalType": "uint256",
              "name": "expirationTimestamp",
              "type": "uint256"
            },
            {
              "internalType": "address",
              "name": "collateralAddress",
              "type": "address"
            },
            {
              "internalType": "bytes32",
              "name": "priceFeedIdentifier",
              "type": "bytes32"
            },
            {
              "internalType": "string",
              "name": "syntheticName",
              "type": "string"
            },
            {
              "internalType": "string",
              "name": "syntheticSymbol",
              "type": "string"
            },
            {
              "components": [
                {
                  "internalType": "uint256",
                  "name": "rawValue",
                  "type": "uint256"
                }
              ],
              "internalType": "struct FixedPoint.Unsigned",
              "name": "collateralRequirement",
              "type": "tuple"
            },
            {
              "components": [
                {
                  "internalType": "uint256",
                  "name": "rawValue",
                  "type": "uint256"
                }
              ],
              "internalType": "struct FixedPoint.Unsigned",
              "name": "disputeBondPct",
              "type": "tuple"
            },
            {
              "components": [
                {
                  "internalType": "uint256",
                  "name": "rawValue",
                  "type": "uint256"
                }
              ],
              "internalType": "struct FixedPoint.Unsigned",
              "name": "sponsorDisputeRewardPct",
              "type": "tuple"
            },
            {
              "components": [
                {
                  "internalType": "uint256",
                  "name": "rawValue",
                  "type": "uint256"
                }
              ],
              "internalType": "struct FixedPoint.Unsigned",
              "name": "disputerDisputeRewardPct",
              "type": "tuple"
            }
          ],
          "internalType": "struct ExpiringMultiPartyCreator.Params",
          "name": "params",
          "type": "tuple"
        },
        {
          "internalType": "address",
          "name": "liquidityProvider",
          "type": "address"
        },
        {
          "internalType": "address",
          "name": "validator",
          "type": "address"
        },
        {
          "internalType": "uint256",
          "name": "startingCollateralization",
          "type": "uint256"
        },
        {
          "components": [
            {
              "components": [
                {
                  "internalType": "uint256",
                  "name": "rawValue",
                  "type": "uint256"
                }
              ],
              "internalType": "struct FixedPoint.Unsigned",
              "name": "mintFee",
              "type": "tuple"
            },
            {
              "internalType": "address[]",
              "name": "mintFeeRecipients",
              "type": "address[]"
            },
            {
              "internalType": "uint32[]",
              "name": "mintFeeProportions",
              "type": "uint32[]"
            },
            {
              "internalType": "address[]",
              "name": "interestFeeRecipients",
              "type": "address[]"
            },
            {
              "internalType": "uint32[]",
              "name": "interestFeeProportions",
              "type": "uint32[]"
            }
          ],
          "internalType": "struct TICInterface.Fee",
          "name": "fee",
          "type": "tuple"
        }
      ],
      "name": "createTIC",
      "outputs": [],
      "stateMutability": "nonpayable",
      "type": "function"
    }
  ],
  "bytecode": "0x608060405234801561001057600080fd5b5060405161301a38038061301a83398101604081905261002f916100c9565b60006100426001600160e01b036100c516565b600080546001600160a01b0319166001600160a01b0383169081178255604051929350917f8be0079c531659141344cd1fd0a4f28419497f9722a3daafe3b4186f6b6457e0908290a3506000805460ff60a01b1916600160a01b179055600180546001600160a01b039092166001600160a01b03199092169190911790556100f7565b3390565b6000602082840312156100da578081fd5b81516001600160a01b03811681146100f0578182fd5b9392505050565b612f14806101066000396000f3fe60806040523480156200001157600080fd5b50600436106200007c5760003560e01c8063a50bc50e1162000057578063a50bc50e14620000c8578063eabf392214620000df578063f2fde38b14620000f6576200007c565b8063715018a614620000815780638da5cb5b146200008d5780638f32d59b14620000af575b600080fd5b6200008b6200010d565b005b62000097620001c8565b604051620000a69190620008c9565b60405180910390f35b620000b9620001e4565b604051620000a69190620008ea565b6200008b620000d93660046200070c565b62000224565b62000097620000f03660046200064b565b62000493565b6200008b6200010736600462000606565b620004c6565b62000117620001e4565b62000159576040517f08c379a0000000000000000000000000000000000000000000000000000000008152600401620001509062000a6d565b60405180910390fd5b6000805460405173ffffffffffffffffffffffffffffffffffffffff909116907f8be0079c531659141344cd1fd0a4f28419497f9722a3daafe3b4186f6b6457e0908390a3600080547fffffffffffffffffffffffff0000000000000000000000000000000000000000169055565b60005473ffffffffffffffffffffffffffffffffffffffff1690565b6000805473ffffffffffffffffffffffffffffffffffffffff166200020862000517565b73ffffffffffffffffffffffffffffffffffffffff1614905090565b6200022e620001e4565b62000267576040517f08c379a0000000000000000000000000000000000000000000000000000000008152600401620001509062000a6d565b60005474010000000000000000000000000000000000000000900460ff16620002be576040517f08c379a0000000000000000000000000000000000000000000000000000000008152600401620001509062000aa2565b600080547fffffffffffffffffffffff00ffffffffffffffffffffffffffffffffffffffff1681556001546040517ffd24b84800000000000000000000000000000000000000000000000000000000815273ffffffffffffffffffffffffffffffffffffffff9091169063fd24b848906200033e90899060040162000ad9565b602060405180830381600087803b1580156200035957600080fd5b505af11580156200036e573d6000803e3d6000fd5b505050506040513d601f19601f820116820180604052508101906200039491906200062c565b90508085858585604051620003a990620005f8565b620003b9959493929190620008f5565b604051809103906000f080158015620003d6573d6000803e3d6000fd5b506002620003e8608089018962000bd7565b604051620003f8929190620008b9565b908152604051908190036020019020805473ffffffffffffffffffffffffffffffffffffffff929092167fffffffffffffffffffffffff00000000000000000000000000000000000000009092169190911790555050600080547fffffffffffffffffffffff00ffffffffffffffffffffffffffffffffffffffff167401000000000000000000000000000000000000000017905550505050565b805160208183018101805160028252928201919093012091525473ffffffffffffffffffffffffffffffffffffffff1681565b620004d0620001e4565b62000509576040517f08c379a0000000000000000000000000000000000000000000000000000000008152600401620001509062000a6d565b62000514816200051b565b50565b3390565b73ffffffffffffffffffffffffffffffffffffffff81166200056b576040517f08c379a0000000000000000000000000000000000000000000000000000000008152600401620001509062000a10565b6000805460405173ffffffffffffffffffffffffffffffffffffffff808516939216917f8be0079c531659141344cd1fd0a4f28419497f9722a3daafe3b4186f6b6457e091a3600080547fffffffffffffffffffffffff00000000000000000000000000000000000000001673ffffffffffffffffffffffffffffffffffffffff92909216919091179055565b61218b8062000d5483390190565b60006020828403121562000618578081fd5b8135620006258162000d30565b9392505050565b6000602082840312156200063e578081fd5b8151620006258162000d30565b6000602082840312156200065d578081fd5b813567ffffffffffffffff8082111562000675578283fd5b81840185601f82011262000687578384fd5b803592508183111562000698578384fd5b60405160207fffffffffffffffffffffffffffffffffffffffffffffffffffffffffffffffe0601f8601168201018181108482111715620006d7578586fd5b604052838152818401602001871015620006ef578485fd5b6200070284602083016020850162000d24565b9695505050505050565b600080600080600060a0868803121562000724578081fd5b853567ffffffffffffffff808211156200073c578283fd5b818801610120818b03121562000750578384fd5b965060208801359150620007648262000d30565b909450604087013590620007788262000d30565b909350606087013592506080870135908082111562000795578283fd5b5080870160a0818a031215620007a9578283fd5b80925050509295509295909350565b73ffffffffffffffffffffffffffffffffffffffff169052565b60008284526020808501945082825b8581101562000820578135620007f78162000d30565b73ffffffffffffffffffffffffffffffffffffffff1687529582019590820190600101620007e1565b509495945050505050565b60008284526020808501945082825b858110156200082057813563ffffffff811680821462000858578586fd5b88525095820195908201906001016200083a565b600082845282826020860137806020848601015260207fffffffffffffffffffffffffffffffffffffffffffffffffffffffffffffffe0601f85011685010190509392505050565b359052565b6000828483379101908152919050565b73ffffffffffffffffffffffffffffffffffffffff91909116815260200190565b901515815260200190565b600073ffffffffffffffffffffffffffffffffffffffff8088168352808716602084015280861660408401525083606083015260a06080830152823560a083015262000945602084018462000c55565b60a060c08501526200095d61014085018284620007d2565b6200096c604087018762000c55565b935091507fffffffffffffffffffffffffffffffffffffffffffffffffffffffffffffff60808683030160e0870152620009a88285856200082b565b620009b7606089018962000c55565b955093508187820301610100880152620009d3818686620007d2565b925050620009e5608088018862000c55565b9450925080868303016101208701525062000a028184846200082b565b9a9950505050505050505050565b60208082526026908201527f4f776e61626c653a206e6577206f776e657220697320746865207a65726f206160408201527f6464726573730000000000000000000000000000000000000000000000000000606082015260800190565b6020808252818101527f4f776e61626c653a2063616c6c6572206973206e6f7420746865206f776e6572604082015260600190565b6020808252601f908201527f5265656e7472616e637947756172643a207265656e7472616e742063616c6c00604082015260600190565b6000602082528235602083015262000af5602084018462000c46565b62000b046040840182620007b8565b506040830135606083015262000b1e606084018462000cbe565b61012080608086015262000b38610140860183856200086c565b62000b47608088018862000cbe565b945092507fffffffffffffffffffffffffffffffffffffffffffffffffffffffffffffffe08682030160a087015262000b828185856200086c565b62000b9460c0880160a08a01620008b4565b62000ba660e0880160c08a01620008b4565b610100945062000bbc85880160e08a01620008b4565b62000bcc838801868a01620008b4565b979650505050505050565b60008083357fffffffffffffffffffffffffffffffffffffffffffffffffffffffffffffffe184360301811262000c0c578283fd5b8084018035925067ffffffffffffffff83111562000c28578384fd5b6020019250503681900382131562000c3f57600080fd5b9250929050565b60008235620006258162000d30565b60008083357fffffffffffffffffffffffffffffffffffffffffffffffffffffffffffffffe184360301811262000c8a578283fd5b830160208101925035905067ffffffffffffffff81111562000cab57600080fd5b60208102360383131562000c3f57600080fd5b60008083357fffffffffffffffffffffffffffffffffffffffffffffffffffffffffffffffe184360301811262000cf3578283fd5b830160208101925035905067ffffffffffffffff81111562000d1457600080fd5b80360383131562000c3f57600080fd5b82818337506000910152565b73ffffffffffffffffffffffffffffffffffffffff811681146200051457600080fdfe60806040523480156200001157600080fd5b506040516200218b3803806200218b83398101604081905262000034916200023f565b6000805460ff19166001179081905560ff166200006e5760405162461bcd60e51b8152600401620000659062000401565b60405180910390fd5b6000805460ff1916905560408051602081018252838152905163de95134160e01b815273__TICHelper_____________________________9163de95134191620000c7916001918a918a918a9190899060040162000438565b60006040518083038186803b158015620000e057600080fd5b505af4158015620000f5573d6000803e3d6000fd5b50506000805460ff19166001179055506200055e95505050505050565b600082601f83011262000123578081fd5b81516200013a620001348262000525565b620004fe565b8181529150602080830190848101818402860182018710156200015c57600080fd5b60005b8481101562000188578151620001758162000545565b845292820192908201906001016200015f565b505050505092915050565b600082601f830112620001a4578081fd5b8151620001b5620001348262000525565b818152915060208083019084810181840286018201871015620001d757600080fd5b6000805b858110156200020b57825163ffffffff81168114620001f8578283fd5b85529383019391830191600101620001db565b50505050505092915050565b60006020828403121562000229578081fd5b620002356020620004fe565b9151825250919050565b600080600080600060a0868803121562000257578081fd5b8551620002648162000545565b6020870151909550620002778162000545565b60408701519094506200028a8162000545565b6060870151608088015191945092506001600160401b0380821115620002ae578283fd5b81880160a0818b031215620002c1578384fd5b620002cd60a0620004fe565b9250620002db8a8262000217565b8352602081015182811115620002ef578485fd5b620002fd8b82840162000112565b60208501525060408101518281111562000315578485fd5b620003238b82840162000193565b6040850152506060810151828111156200033b578485fd5b620003498b82840162000112565b60608501525060808101518281111562000361578485fd5b6200036f8b82840162000193565b6080850152505050809150509295509295909350565b6000815180845260208085019450808401835b83811015620003bf5781516001600160a01b03168752958201959082019060010162000398565b509495945050505050565b6000815180845260208085019450808401835b83811015620003bf57815163ffffffff1687529582019590820190600101620003dd565b6020808252601f908201527f5265656e7472616e637947756172643a207265656e7472616e742063616c6c00604082015260600190565b600087825260018060a01b03808816602084015280871660408401528086166060840152508351608083015260c060a083015282515160c0830152602083015160a060e08401526200048f61016084018262000385565b6040850151915060bf198085830301610100860152620004b08284620003ca565b606087015193508186820301610120870152620004ce818562000385565b92505060808601519250808583030161014086015250620004f08183620003ca565b9a9950505050505050505050565b6040518181016001600160401b03811182821017156200051d57600080fd5b604052919050565b60006001600160401b038211156200053b578081fd5b5060209081020190565b6001600160a01b03811681146200055b57600080fd5b50565b611c1d806200056e6000396000f3fe608060405234801561001057600080fd5b50600436106101775760003560e01c80637c3970f2116100d8578063b6b55f251161008c578063eb9ce16311610066578063eb9ce163146102cf578063f5ac2abe146102d7578063fcccedc7146102ea57610177565b8063b6b55f2514610296578063b72d8ce9146102a9578063cca3595a146102bc57610177565b80638be76e01116100bd5780638be76e0114610268578063998fccc51461027b578063b2016bd41461028e57610177565b80637c3970f21461024d5780638230ecd61461026057610177565b806350539aa81161012f5780635c095e54116101145780635c095e54146102075780637242b9fc1461022757806374899a7e1461023a57610177565b806350539aa8146101e157806353c34f02146101f457610177565b80631985a89f116101605780631985a89f146101af57806333a46ca2146101c457806336a99ebd146101ce57610177565b80630e3e7ba71461017c578063139d006c1461019a575b600080fd5b6101846102f2565b6040516101919190611970565b60405180910390f35b6101a26103bd565b60405161019191906118db565b6101b7610483565b60405161019191906119e9565b6101cc61049f565b005b6101cc6101dc366004611852565b61060b565b6101cc6101ef366004611852565b610771565b6101cc610202366004611852565b610828565b61021a610215366004611852565b6108df565b6040516101919190611b0c565b6101cc610235366004611852565b610913565b6101cc610248366004611852565b610a1b565b6101cc61025b3660046118ba565b610b2b565b6101b7610c57565b6101cc6102763660046118ba565b610cfa565b6101cc610289366004611852565b610dc7565b6101b7610ecf565b6101cc6102a4366004611852565b610f3a565b6101cc6102b7366004611852565b61104c565b6101cc6102ca3660046118ba565b611154565b610184611221565b6101cc6102e5366004611886565b6112e7565b6101cc611416565b6040517f77a7fa9e00000000000000000000000000000000000000000000000000000000815260609073__TICHelper_____________________________906377a7fa9e9061034690600190600401611b0c565b60006040518083038186803b15801561035e57600080fd5b505af4158015610372573d6000803e3d6000fd5b505050506040513d6000823e601f3d9081017fffffffffffffffffffffffffffffffffffffffffffffffffffffffffffffffe01682016040526103b891908101906117bf565b905090565b6040517f4da5bc7b00000000000000000000000000000000000000000000000000000000815260609073__TICHelper_____________________________90634da5bc7b9061041190600190600401611b0c565b60006040518083038186803b15801561042957600080fd5b505af415801561043d573d6000803e3d6000fd5b505050506040513d6000823e601f3d9081017fffffffffffffffffffffffffffffffffffffffffffffffffffffffffffffffe01682016040526103b89190810190611686565b60015473ffffffffffffffffffffffffffffffffffffffff1690565b60035473ffffffffffffffffffffffffffffffffffffffff1633146104f9576040517f08c379a00000000000000000000000000000000000000000000000000000000081526004016104f090611a9e565b60405180910390fd5b60005460ff16610535576040517f08c379a00000000000000000000000000000000000000000000000000000000081526004016104f090611a67565b600080547fffffffffffffffffffffffffffffffffffffffffffffffffffffffffffffff001690556040517f1c647abd00000000000000000000000000000000000000000000000000000000815273__TICHelper_____________________________90631c647abd906105ae90600190600401611b0c565b60006040518083038186803b1580156105c657600080fd5b505af41580156105da573d6000803e3d6000fd5b5050600080547fffffffffffffffffffffffffffffffffffffffffffffffffffffffffffffff001660011790555050565b60045473ffffffffffffffffffffffffffffffffffffffff16331461065c576040517f08c379a00000000000000000000000000000000000000000000000000000000081526004016104f090611ad5565b60005460ff16610698576040517f08c379a00000000000000000000000000000000000000000000000000000000081526004016104f090611a67565b600080547fffffffffffffffffffffffffffffffffffffffffffffffffffffffffffffff001690556040517ff2b66f0900000000000000000000000000000000000000000000000000000000815273__TICHelper_____________________________9063f2b66f0990610713906001908590600401611b15565b60006040518083038186803b15801561072b57600080fd5b505af415801561073f573d6000803e3d6000fd5b5050600080547fffffffffffffffffffffffffffffffffffffffffffffffffffffffffffffff00166001179055505050565b60005460ff166107ad576040517f08c379a00000000000000000000000000000000000000000000000000000000081526004016104f090611a67565b600080547fffffffffffffffffffffffffffffffffffffffffffffffffffffffffffffff001690556040517f2368045a00000000000000000000000000000000000000000000000000000000815273__TICHelper_____________________________90632368045a90610713906001908590600401611b15565b60005460ff16610864576040517f08c379a00000000000000000000000000000000000000000000000000000000081526004016104f090611a67565b600080547fffffffffffffffffffffffffffffffffffffffffffffffffffffffffffffff001690556040517fa56a6d5200000000000000000000000000000000000000000000000000000000815273__TICHelper_____________________________9063a56a6d5290610713906001908590600401611b15565b60408051602080820183526007548252825190810190925282825260009161090c9163ffffffff6114cb16565b5192915050565b60045473ffffffffffffffffffffffffffffffffffffffff163314610964576040517f08c379a00000000000000000000000000000000000000000000000000000000081526004016104f090611ad5565b60005460ff166109a0576040517f08c379a00000000000000000000000000000000000000000000000000000000081526004016104f090611a67565b600080547fffffffffffffffffffffffffffffffffffffffffffffffffffffffffffffff001690556040517fad0bdda100000000000000000000000000000000000000000000000000000000815273__TICHelper_____________________________9063ad0bdda190610713906001908590600401611b15565b60035473ffffffffffffffffffffffffffffffffffffffff163314610a6c576040517f08c379a00000000000000000000000000000000000000000000000000000000081526004016104f090611a9e565b60005460ff16610aa8576040517f08c379a00000000000000000000000000000000000000000000000000000000081526004016104f090611a67565b600080547fffffffffffffffffffffffffffffffffffffffffffffffffffffffffffffff001690556040805160208101825282815290517e12b1f800000000000000000000000000000000000000000000000000000000815273__TICHelper_____________________________916212b1f89161071391600191600401611b56565b60005460ff16610b67576040517f08c379a00000000000000000000000000000000000000000000000000000000081526004016104f090611a67565b600080547fffffffffffffffffffffffffffffffffffffffffffffffffffffffffffffff0016905560408051602080820183528482528251908101835283815291517fb85fa0c200000000000000000000000000000000000000000000000000000000815273__TICHelper_____________________________9263b85fa0c292610bf89260019290600401611b65565b60006040518083038186803b158015610c1057600080fd5b505af4158015610c24573d6000803e3d6000fd5b5050600080547fffffffffffffffffffffffffffffffffffffffffffffffffffffffffffffff0016600117905550505050565b600154604080517f7048594b000000000000000000000000000000000000000000000000000000008152905160009273ffffffffffffffffffffffffffffffffffffffff1691637048594b916004808301926020929190829003018186803b158015610cc257600080fd5b505afa158015610cd6573d6000803e3d6000fd5b505050506040513d601f19601f820116820180604052508101906103b8919061186a565b60005460ff16610d36576040517f08c379a00000000000000000000000000000000000000000000000000000000081526004016104f090611a67565b600080547fffffffffffffffffffffffffffffffffffffffffffffffffffffffffffffff0016905560408051602080820183528482528251908101835283815291517f99ecc8ee00000000000000000000000000000000000000000000000000000000815273__TICHelper_____________________________926399ecc8ee92610bf89260019290600401611b65565b60005460ff16610e03576040517f08c379a00000000000000000000000000000000000000000000000000000000081526004016104f090611a67565b600080547fffffffffffffffffffffffffffffffffffffffffffffffffffffffffffffff0016905560045473ffffffffffffffffffffffffffffffffffffffff163314610e7c576040517f08c379a00000000000000000000000000000000000000000000000000000000081526004016104f090611ad5565b6040517fa923bc1200000000000000000000000000000000000000000000000000000000815273__TICHelper_____________________________9063a923bc1290610713906001908590600401611b15565b600554604080517ffc0c546a000000000000000000000000000000000000000000000000000000008152905160009273ffffffffffffffffffffffffffffffffffffffff169163fc0c546a916004828101926020929190829003018186803b158015610cc257600080fd5b60005460ff16610f76576040517f08c379a00000000000000000000000000000000000000000000000000000000081526004016104f090611a67565b600080547fffffffffffffffffffffffffffffffffffffffffffffffffffffffffffffff0016905560035473ffffffffffffffffffffffffffffffffffffffff163314610fef576040517f08c379a00000000000000000000000000000000000000000000000000000000081526004016104f090611a9e565b6040805160208101825282815290517fed3395da00000000000000000000000000000000000000000000000000000000815273__TICHelper_____________________________9163ed3395da9161071391600191600401611b56565b60005460ff16611088576040517f08c379a00000000000000000000000000000000000000000000000000000000081526004016104f090611a67565b600080547fffffffffffffffffffffffffffffffffffffffffffffffffffffffffffffff0016905560045473ffffffffffffffffffffffffffffffffffffffff163314611101576040517f08c379a00000000000000000000000000000000000000000000000000000000081526004016104f090611ad5565b6040517f3f63703d00000000000000000000000000000000000000000000000000000000815273__TICHelper_____________________________90633f63703d90610713906001908590600401611b15565b60005460ff16611190576040517f08c379a00000000000000000000000000000000000000000000000000000000081526004016104f090611a67565b600080547fffffffffffffffffffffffffffffffffffffffffffffffffffffffffffffff0016905560408051602080820183528482528251908101835283815291517fe3411dbc00000000000000000000000000000000000000000000000000000000815273__TICHelper_____________________________9263e3411dbc92610bf89260019290600401611b65565b6040517ffdd3eeb200000000000000000000000000000000000000000000000000000000815260609073__TICHelper_____________________________9063fdd3eeb29061127590600190600401611b0c565b60006040518083038186803b15801561128d57600080fd5b505af41580156112a1573d6000803e3d6000fd5b505050506040513d6000823e601f3d9081017fffffffffffffffffffffffffffffffffffffffffffffffffffffffffffffffe01682016040526103b8919081019061172c565b60005460ff16611323576040517f08c379a00000000000000000000000000000000000000000000000000000000081526004016104f090611a67565b600080547fffffffffffffffffffffffffffffffffffffffffffffffffffffffffffffff0016905560408051602080820183528482528251908101835283815291517fd6f79d2200000000000000000000000000000000000000000000000000000000815273__TICHelper_____________________________9263d6f79d22926113b692600192899291600401611b23565b60006040518083038186803b1580156113ce57600080fd5b505af41580156113e2573d6000803e3d6000fd5b5050600080547fffffffffffffffffffffffffffffffffffffffffffffffffffffffffffffff001660011790555050505050565b60005460ff16611452576040517f08c379a00000000000000000000000000000000000000000000000000000000081526004016104f090611a67565b600080547fffffffffffffffffffffffffffffffffffffffffffffffffffffffffffffff001690556040517f0827cff500000000000000000000000000000000000000000000000000000000815273__TICHelper_____________________________90630827cff5906105ae90600190600401611b0c565b6114d361156b565b6040805160208101909152825184518291670de0b6b3a7640000916114fd9163ffffffff61151016565b8161150457fe5b04905290505b92915050565b60008261151f5750600061150a565b8282028284828161152c57fe5b0414611564576040517f08c379a00000000000000000000000000000000000000000000000000000000081526004016104f090611a0a565b9392505050565b6040518060200160405280600081525090565b600060c0828403121561158f578081fd5b61159960c0611b7b565b9050815181526020820151602082015260408201516115b781611bc2565b604082015260608201516115ca81611bc2565b60608201526115dc8360808401611661565b60808201526115ee8360a08401611661565b60a082015292915050565b600060a0828403121561160a578081fd5b61161460a0611b7b565b90508151815260208201516020820152604082015161163281611bc2565b60408201526116448360608401611661565b60608201526116568360808401611661565b608082015292915050565b600060208284031215611672578081fd5b61167c6020611b7b565b9151825250919050565b60006020808385031215611698578182fd5b825167ffffffffffffffff8111156116ae578283fd5b80840185601f8201126116bf578384fd5b805191506116d46116cf83611ba2565b611b7b565b8281528381019082850160c0808602850187018a10156116f2578788fd5b8794505b8585101561171e576117088a8361157e565b84526001949094019392860192908101906116f6565b509098975050505050505050565b6000602080838503121561173e578182fd5b825167ffffffffffffffff811115611754578283fd5b80840185601f820112611765578384fd5b805191506117756116cf83611ba2565b8281528381019082850160a0808602850187018a1015611793578788fd5b8794505b8585101561171e576117a98a836115f9565b8452600194909401939286019290810190611797565b600060208083850312156117d1578182fd5b825167ffffffffffffffff8111156117e7578283fd5b80840185601f8201126117f8578384fd5b805191506118086116cf83611ba2565b8281528381019082850160a0808602850187018a1015611826578788fd5b8794505b8585101561171e5761183c8a836115f9565b845260019490940193928601929081019061182a565b600060208284031215611863578081fd5b5035919050565b60006020828403121561187b578081fd5b815161156481611bc2565b60008060006060848603121561189a578182fd5b83356118a581611bc2565b95602085013595506040909401359392505050565b600080604083850312156118cc578182fd5b50508035926020909101359150565b602080825282518282018190526000919060409081850190868401855b828110156119635781518051855286810151878601528581015173ffffffffffffffffffffffffffffffffffffffff9081168787015260608083015190911690860152608080820151519086015260a090810151519085015260c090930192908501906001016118f8565b5091979650505050505050565b602080825282518282018190526000919060409081850190868401855b828110156119635781518051855286810151878601528581015173ffffffffffffffffffffffffffffffffffffffff16868601526060808201515190860152608090810151519085015260a0909301929085019060010161198d565b73ffffffffffffffffffffffffffffffffffffffff91909116815260200190565b60208082526021908201527f536166654d6174683a206d756c7469706c69636174696f6e206f766572666c6f60408201527f7700000000000000000000000000000000000000000000000000000000000000606082015260800190565b6020808252601f908201527f5265656e7472616e637947756172643a207265656e7472616e742063616c6c00604082015260600190565b6020808252601a908201527f4d757374206265206c69717569646974792070726f7669646572000000000000604082015260600190565b60208082526011908201527f4d7573742062652076616c696461746f72000000000000000000000000000000604082015260600190565b90815260200190565b918252602082015260400190565b93845273ffffffffffffffffffffffffffffffffffffffff92909216602084015251604083015251606082015260800190565b91825251602082015260400190565b9283529051602083015251604082015260600190565b60405181810167ffffffffffffffff81118282101715611b9a57600080fd5b604052919050565b600067ffffffffffffffff821115611bb8578081fd5b5060209081020190565b73ffffffffffffffffffffffffffffffffffffffff81168114611be457600080fd5b5056fea264697066735822122085d9d10f278ca5c752219950996e69a217696f3982ffbab7bc2927dce89a661364736f6c63430006040033a2646970667358221220d1467f7684f7e19d75f312dbb0919b24b0c0314432b9b54da69c105703edf26464736f6c63430006040033",
  "source": "pragma solidity ^0.6.0;\npragma experimental ABIEncoderV2;\n\nimport {Ownable} from \"@openzeppelin/contracts/ownership/Ownable.sol\";\nimport {ReentrancyGuard} from \"@openzeppelin/contracts/utils/ReentrancyGuard.sol\";\nimport {TIC} from \"./TIC.sol\";\nimport {IExpiringMultiParty} from \"./IExpiringMultiParty.sol\";\nimport {ExpiringMultiPartyCreator} from \"./uma-contracts/financial-templates/implementation/ExpiringMultiPartyCreator.sol\";\n\ncontract TICFactory is Ownable, ReentrancyGuard {\n    //----------------------------------------\n    // State variables\n    //----------------------------------------\n\n    ExpiringMultiPartyCreator private derivativeCreator;\n\n    // Get a TIC using its token symbol\n    mapping(string => TIC) public symbolToTIC;\n\n    //----------------------------------------\n    // Constructor\n    //----------------------------------------\n\n    constructor(ExpiringMultiPartyCreator _derivativeCreator) public {\n        derivativeCreator = _derivativeCreator;\n    }\n\n    //----------------------------------------\n    // External functions\n    //----------------------------------------\n\n    /**\n     * @notice Creates a new TIC\n     * @param params The parameters used to create the underlying derivative\n     * @param liquidityProvider The liquidity provider\n     * @param validator The address that validates mint and exchange requests\n     * @param startingCollateralization Collateralization ratio to use before a global one is set\n     * @param fee The fee structure\n     */\n    function createTIC(\n        ExpiringMultiPartyCreator.Params calldata params,\n        address liquidityProvider,\n        address validator,\n        uint256 startingCollateralization,\n        TIC.Fee calldata fee\n    )\n        external\n        onlyOwner\n        nonReentrant\n    {\n        // Create the derivative contract\n        // TODO: `ExpiringMultiPartyCreator` past commit b6dc123e11d7253cdbe0fcc40b7ab4a992c4e56d\n        //       requires `minSponsorTokens` param.\n        address derivative = derivativeCreator.createExpiringMultiParty(params);\n\n        // Create the TIC\n        symbolToTIC[params.syntheticSymbol] = new TIC(\n            IExpiringMultiParty(derivative),\n            liquidityProvider,\n            validator,\n            startingCollateralization,\n            fee\n        );\n    }\n}\n",
  "sourcePath": "/home/opz/Projects/SynFiat/contracts/TICFactory.sol",
  "compiler": {
    "name": "solc",
    "version": "0.6.4+commit.1dca32f3.Emscripten.clang"
  },
  "schemaVersion": "3.2.0",
  "updatedAt": "2020-06-01T05:13:01.419Z",
  "networkType": "ethereum",
  "devdoc": {
    "methods": {
      "createTIC((uint256,address,bytes32,string,string,(uint256),(uint256),(uint256),(uint256)),address,address,uint256,((uint256),address[],uint32[],address[],uint32[]))": {
        "params": {
          "fee": "The fee structure",
          "liquidityProvider": "The liquidity provider",
          "params": "The parameters used to create the underlying derivative",
          "startingCollateralization": "Collateralization ratio to use before a global one is set",
          "validator": "The address that validates mint and exchange requests"
        }
      },
      "isOwner()": {
        "details": "Returns true if the caller is the current owner."
      },
      "owner()": {
        "details": "Returns the address of the current owner."
      },
      "renounceOwnership()": {
        "details": "Leaves the contract without owner. It will not be possible to call `onlyOwner` functions anymore. Can only be called by the current owner.     * NOTE: Renouncing ownership will leave the contract without an owner, thereby removing any functionality that is only available to the owner."
      },
      "transferOwnership(address)": {
        "details": "Transfers ownership of the contract to a new account (`newOwner`). Can only be called by the current owner."
      }
    }
  },
  "userdoc": {
    "methods": {
      "createTIC((uint256,address,bytes32,string,string,(uint256),(uint256),(uint256),(uint256)),address,address,uint256,((uint256),address[],uint32[],address[],uint32[]))": {
        "notice": "Creates a new TIC"
      }
    }
  }
}