{
  "contractName": "TICFactory",
  "abi": [
    {
      "inputs": [
        {
          "internalType": "contract ExpiringMultiPartyCreator",
          "name": "_derivativeCreator",
          "type": "address"
        }
      ],
      "stateMutability": "nonpayable",
      "type": "constructor"
    },
    {
      "anonymous": false,
      "inputs": [
        {
          "indexed": true,
          "internalType": "address",
          "name": "previousOwner",
          "type": "address"
        },
        {
          "indexed": true,
          "internalType": "address",
          "name": "newOwner",
          "type": "address"
        }
      ],
      "name": "OwnershipTransferred",
      "type": "event"
    },
    {
      "inputs": [],
      "name": "owner",
      "outputs": [
        {
          "internalType": "address",
          "name": "",
          "type": "address"
        }
      ],
      "stateMutability": "view",
      "type": "function",
      "constant": true
    },
    {
      "inputs": [],
      "name": "renounceOwnership",
      "outputs": [],
      "stateMutability": "nonpayable",
      "type": "function"
    },
    {
      "inputs": [
        {
          "internalType": "string",
          "name": "",
          "type": "string"
        }
      ],
      "name": "symbolToTIC",
      "outputs": [
        {
          "internalType": "contract TIC",
          "name": "",
          "type": "address"
        }
      ],
      "stateMutability": "view",
      "type": "function",
      "constant": true
    },
    {
      "inputs": [
        {
          "internalType": "address",
          "name": "newOwner",
          "type": "address"
        }
      ],
      "name": "transferOwnership",
      "outputs": [],
      "stateMutability": "nonpayable",
      "type": "function"
    },
    {
      "inputs": [
        {
          "components": [
            {
              "internalType": "uint256",
              "name": "expirationTimestamp",
              "type": "uint256"
            },
            {
              "internalType": "address",
              "name": "collateralAddress",
              "type": "address"
            },
            {
              "internalType": "bytes32",
              "name": "priceFeedIdentifier",
              "type": "bytes32"
            },
            {
              "internalType": "string",
              "name": "syntheticName",
              "type": "string"
            },
            {
              "internalType": "string",
              "name": "syntheticSymbol",
              "type": "string"
            },
            {
              "components": [
                {
                  "internalType": "uint256",
                  "name": "rawValue",
                  "type": "uint256"
                }
              ],
              "internalType": "struct FixedPoint.Unsigned",
              "name": "collateralRequirement",
              "type": "tuple"
            },
            {
              "components": [
                {
                  "internalType": "uint256",
                  "name": "rawValue",
                  "type": "uint256"
                }
              ],
              "internalType": "struct FixedPoint.Unsigned",
              "name": "disputeBondPct",
              "type": "tuple"
            },
            {
              "components": [
                {
                  "internalType": "uint256",
                  "name": "rawValue",
                  "type": "uint256"
                }
              ],
              "internalType": "struct FixedPoint.Unsigned",
              "name": "sponsorDisputeRewardPct",
              "type": "tuple"
            },
            {
              "components": [
                {
                  "internalType": "uint256",
                  "name": "rawValue",
                  "type": "uint256"
                }
              ],
              "internalType": "struct FixedPoint.Unsigned",
              "name": "disputerDisputeRewardPct",
              "type": "tuple"
            },
            {
              "components": [
                {
                  "internalType": "uint256",
                  "name": "rawValue",
                  "type": "uint256"
                }
              ],
              "internalType": "struct FixedPoint.Unsigned",
              "name": "minSponsorTokens",
              "type": "tuple"
            },
            {
              "internalType": "uint256",
              "name": "withdrawalLiveness",
              "type": "uint256"
            },
            {
              "internalType": "uint256",
              "name": "liquidationLiveness",
              "type": "uint256"
            }
          ],
          "internalType": "struct ExpiringMultiPartyCreator.Params",
          "name": "params",
          "type": "tuple"
        },
        {
          "internalType": "address",
          "name": "liquidityProvider",
          "type": "address"
        },
        {
          "internalType": "address",
          "name": "validator",
          "type": "address"
        },
        {
          "internalType": "uint256",
          "name": "startingCollateralization",
          "type": "uint256"
        },
        {
          "components": [
            {
              "components": [
                {
                  "internalType": "uint256",
                  "name": "rawValue",
                  "type": "uint256"
                }
              ],
              "internalType": "struct FixedPoint.Unsigned",
              "name": "feePercentage",
              "type": "tuple"
            },
            {
              "internalType": "address[]",
              "name": "feeRecipients",
              "type": "address[]"
            },
            {
              "internalType": "uint32[]",
              "name": "feeProportions",
              "type": "uint32[]"
            }
          ],
          "internalType": "struct TICInterface.Fee",
          "name": "fee",
          "type": "tuple"
        }
      ],
      "name": "createTIC",
      "outputs": [],
      "stateMutability": "nonpayable",
      "type": "function"
    }
  ],
  "bytecode": "0x608060405234801561001057600080fd5b5060405161387238038061387283398101604081905261002f916100c9565b60006100426001600160e01b036100c516565b600080546001600160a01b0319166001600160a01b0383169081178255604051929350917f8be0079c531659141344cd1fd0a4f28419497f9722a3daafe3b4186f6b6457e0908290a3506000805460ff60a01b1916600160a01b179055600180546001600160a01b039092166001600160a01b03199092169190911790556100f7565b3390565b6000602082840312156100da578081fd5b81516001600160a01b03811681146100f0578182fd5b9392505050565b61376c806101066000396000f3fe60806040523480156200001157600080fd5b5060043610620000705760003560e01c80638da5cb5b11620000575780638da5cb5b1462000098578063eabf392214620000ba578063f2fde38b14620000d15762000070565b80633fe4a12f1462000075578063715018a6146200008e575b600080fd5b6200008c6200008636600462000775565b620000e8565b005b6200008c62000400565b620000a2620004d0565b604051620000b19190620008e4565b60405180910390f35b620000a2620000cb366004620006b4565b620004ec565b6200008c620000e23660046200066f565b6200051f565b620000f26200065d565b60005473ffffffffffffffffffffffffffffffffffffffff90811691161462000152576040517f08c379a0000000000000000000000000000000000000000000000000000000008152600401620001499062000a89565b60405180910390fd5b60005474010000000000000000000000000000000000000000900460ff16620001a9576040517f08c379a0000000000000000000000000000000000000000000000000000000008152600401620001499062000abe565b600080547fffffffffffffffffffffff00ffffffffffffffffffffffffffffffffffffffff1681556002620001e2608088018862000c21565b604051620001f2929190620008d4565b9081526040519081900360200190205473ffffffffffffffffffffffffffffffffffffffff161462000252576040517f08c379a0000000000000000000000000000000000000000000000000000000008152600401620001499062000a52565b6001546040517f0368965b00000000000000000000000000000000000000000000000000000000815260009173ffffffffffffffffffffffffffffffffffffffff1690630368965b90620002ab90899060040162000af5565b602060405180830381600087803b158015620002c657600080fd5b505af1158015620002db573d6000803e3d6000fd5b505050506040513d601f19601f8201168201806040525081019062000301919062000695565b90508085858585604051620003169062000661565b6200032695949392919062000905565b604051809103906000f08015801562000343573d6000803e3d6000fd5b50600262000355608089018962000c21565b60405162000365929190620008d4565b908152604051908190036020019020805473ffffffffffffffffffffffffffffffffffffffff929092167fffffffffffffffffffffffff00000000000000000000000000000000000000009092169190911790555050600080547fffffffffffffffffffffff00ffffffffffffffffffffffffffffffffffffffff167401000000000000000000000000000000000000000017905550505050565b6200040a6200065d565b60005473ffffffffffffffffffffffffffffffffffffffff90811691161462000461576040517f08c379a0000000000000000000000000000000000000000000000000000000008152600401620001499062000a89565b6000805460405173ffffffffffffffffffffffffffffffffffffffff909116907f8be0079c531659141344cd1fd0a4f28419497f9722a3daafe3b4186f6b6457e0908390a3600080547fffffffffffffffffffffffff0000000000000000000000000000000000000000169055565b60005473ffffffffffffffffffffffffffffffffffffffff1690565b805160208183018101805160028252928201919093012091525473ffffffffffffffffffffffffffffffffffffffff1681565b620005296200065d565b60005473ffffffffffffffffffffffffffffffffffffffff90811691161462000580576040517f08c379a0000000000000000000000000000000000000000000000000000000008152600401620001499062000a89565b73ffffffffffffffffffffffffffffffffffffffff8116620005d0576040517f08c379a00000000000000000000000000000000000000000000000000000000081526004016200014990620009f5565b6000805460405173ffffffffffffffffffffffffffffffffffffffff808516939216917f8be0079c531659141344cd1fd0a4f28419497f9722a3daafe3b4186f6b6457e091a3600080547fffffffffffffffffffffffff00000000000000000000000000000000000000001673ffffffffffffffffffffffffffffffffffffffff92909216919091179055565b3390565b6129968062000da183390190565b60006020828403121562000681578081fd5b81356200068e8162000d7a565b9392505050565b600060208284031215620006a7578081fd5b81516200068e8162000d7a565b600060208284031215620006c6578081fd5b813567ffffffffffffffff80821115620006de578283fd5b81840185601f820112620006f0578384fd5b803592508183111562000701578384fd5b60405160207fffffffffffffffffffffffffffffffffffffffffffffffffffffffffffffffe0601f860116820101818110848211171562000740578586fd5b60405283815281840160200187101562000758578485fd5b6200076b84602083016020850162000d6e565b9695505050505050565b600080600080600060a086880312156200078d578081fd5b853567ffffffffffffffff80821115620007a5578283fd5b818801610180818b031215620007b9578384fd5b965060208801359150620007cd8262000d7a565b909450604087013590620007e18262000d7a565b9093506060870135925060808701359080821115620007fe578283fd5b508087016060818a03121562000812578283fd5b80925050509295509295909350565b73ffffffffffffffffffffffffffffffffffffffff169052565b60008284526020808501945082825b858110156200087c57813563ffffffff811680821462000868578586fd5b88525095820195908201906001016200084a565b509495945050505050565b600082845282826020860137806020848601015260207fffffffffffffffffffffffffffffffffffffffffffffffffffffffffffffffe0601f85011685010190509392505050565b359052565b6000828483379101908152919050565b73ffffffffffffffffffffffffffffffffffffffff91909116815260200190565b600073ffffffffffffffffffffffffffffffffffffffff8088168352602081881681850152818716604085015285606085015260a060808501526101008401853560a0860152620009598287018762000c9f565b606060c08801529182905290849061012087015b818310156200099a578335620009838162000d7a565b86168152928401926001929092019184016200096d565b620009a960408a018a62000c9f565b965094507fffffffffffffffffffffffffffffffffffffffffffffffffffffffffffffff608882030160e0890152620009e48187876200083b565b9d9c50505050505050505050505050565b60208082526026908201527f4f776e61626c653a206e6577206f776e657220697320746865207a65726f206160408201527f6464726573730000000000000000000000000000000000000000000000000000606082015260800190565b60208082526012908201527f54494320616c7265616479206578697374730000000000000000000000000000604082015260600190565b6020808252818101527f4f776e61626c653a2063616c6c6572206973206e6f7420746865206f776e6572604082015260600190565b6020808252601f908201527f5265656e7472616e637947756172643a207265656e7472616e742063616c6c00604082015260600190565b6000602082528235602083015262000b11602084018462000c90565b62000b20604084018262000821565b506040830135606083015262000b3a606084018462000d08565b61018080608086015262000b546101a08601838562000887565b62000b63608088018862000d08565b945092507fffffffffffffffffffffffffffffffffffffffffffffffffffffffffffffffe08682030160a087015262000b9e81858562000887565b62000bb060c0880160a08a01620008cf565b62000bc260e0880160c08a01620008cf565b610100945062000bd885880160e08a01620008cf565b610120935062000bed848801868a01620008cf565b610140945062000c02858801858a01620008cf565b9387013561016087810191909152909601359401939093529392505050565b60008083357fffffffffffffffffffffffffffffffffffffffffffffffffffffffffffffffe184360301811262000c56578283fd5b8084018035925067ffffffffffffffff83111562000c72578384fd5b6020019250503681900382131562000c8957600080fd5b9250929050565b600082356200068e8162000d7a565b60008083357fffffffffffffffffffffffffffffffffffffffffffffffffffffffffffffffe184360301811262000cd4578283fd5b830160208101925035905067ffffffffffffffff81111562000cf557600080fd5b60208102360383131562000c8957600080fd5b60008083357fffffffffffffffffffffffffffffffffffffffffffffffffffffffffffffffe184360301811262000d3d578283fd5b830160208101925035905067ffffffffffffffff81111562000d5e57600080fd5b80360383131562000c8957600080fd5b82818337506000910152565b73ffffffffffffffffffffffffffffffffffffffff8116811462000d9d57600080fd5b5056fe60806040523480156200001157600080fd5b5060405162002996380380620029968339810160408190526200003491620001af565b6000805460ff19166001179081905560ff166200006e5760405162461bcd60e51b815260040162000065906200036a565b60405180910390fd5b6000805460ff1916905560408051602081018252838152905163de95134160e01b815273__TICHelper_____________________________9163de95134191620000c7916001918a918a918a91908990600401620003a1565b60006040518083038186803b158015620000e057600080fd5b505af4158015620000f5573d6000803e3d6000fd5b50506000805460ff1916600117905550620004b895505050505050565b80516200011f816200049f565b92915050565b600082601f83011262000136578081fd5b81516200014d62000147826200047f565b62000458565b8181529150602080830190848101818402860182018710156200016f57600080fd5b6000805b85811015620001a357825163ffffffff8116811462000190578283fd5b8552938301939183019160010162000173565b50505050505092915050565b600080600080600060a08688031215620001c7578081fd5b8551620001d4816200049f565b6020870151909550620001e7816200049f565b6040870151909450620001fa816200049f565b6060870151608088015191945092506001600160401b03808211156200021e578283fd5b8188016060818b03121562000231578384fd5b6200023d606062000458565b92506020818b0312156200024f578384fd5b6200025b602062000458565b81518152835260208101518281111562000273578485fd5b8082018b601f82011262000285578586fd5b805191506200029862000147836200047f565b80838252602082019150602083018e60208087028601011115620002ba578889fd5b8893505b84841015620002e957620002d38f8262000112565b83526001939093019260209283019201620002be565b50602087015250505060408101518281111562000304578485fd5b620003128b82840162000125565b6040850152505050809150509295509295909350565b6000815180845260208085019450808401835b838110156200035f57815163ffffffff16875295820195908201906001016200033b565b509495945050505050565b6020808252601f908201527f5265656e7472616e637947756172643a207265656e7472616e742063616c6c00604082015260600190565b6000878252602060018060a01b0380891682850152808816604085015280871660608501528551608085015260c060a0850152610120840185515160c086015282860151606060e08701528181518084526101408801915085830193508692505b80831015620004265783518516825292850192600192909201919085019062000402565b50604088015187820360bf1901610100890152945062000447818662000328565b9d9c50505050505050505050505050565b6040518181016001600160401b03811182821017156200047757600080fd5b604052919050565b60006001600160401b0382111562000495578081fd5b5060209081020190565b6001600160a01b0381168114620004b557600080fd5b50565b6124ce80620004c86000396000f3fe608060405234801561001057600080fd5b50600436106101825760003560e01c80638230ecd6116100d8578063b2016bd41161008c578063cca3595a11610066578063cca3595a146102ed578063eb9ce16314610300578063fcccedc71461031557610182565b8063b2016bd4146102bf578063b6b55f25146102c7578063b72d8ce9146102da57610182565b8063998fccc5116100bd578063998fccc51461027957806399a5d7471461028c5780639a8ca7df146102ac57610182565b80638230ecd61461025e5780638be76e011461026657610182565b806336a99ebd1161013a5780637242b9fc116101145780637242b9fc1461022557806374899a7e146102385780637c3970f21461024b57610182565b806336a99ebd146101ec57806350539aa8146101ff57806353c34f021461021257610182565b80631985a89f1161016b5780631985a89f146101ba5780632e1a7d4d146101cf57806333a46ca2146101e457610182565b80630e3e7ba714610187578063139d006c146101a5575b600080fd5b61018f61031d565b60405161019c91906121fd565b60405180910390f35b6101ad6103e8565b60405161019c91906120fa565b6101c26104ae565b60405161019c919061229c565b6101e26101dd366004611fec565b6104ca565b005b6101e2610643565b6101e26101fa366004611fec565b6107a6565b6101e261020d366004611fec565b610985565b6101e2610220366004611fec565b610b2f565b6101e2610233366004611fec565b610cd9565b6101e2610246366004611fec565b610e81565b6101e2610259366004612072565b610f91565b6101c2611134565b6101e2610274366004612072565b6111d7565b6101e2610287366004611fec565b611342565b61029f61029a366004611fec565b6114ec565b60405161019c919061223f565b6101e26102ba366004612038565b611520565b6101c26116d4565b6101e26102d5366004611fec565b6116f0565b6101e26102e8366004611fec565b611802565b6101e26102fb366004612072565b6119ac565b610308611ad8565b60405161019c91906121af565b6101e2611b9e565b6040517f77a7fa9e00000000000000000000000000000000000000000000000000000000815260609073__TICHelper_____________________________906377a7fa9e906103719060019060040161223f565b60006040518083038186803b15801561038957600080fd5b505af415801561039d573d6000803e3d6000fd5b505050506040513d6000823e601f3d9081017fffffffffffffffffffffffffffffffffffffffffffffffffffffffffffffffe01682016040526103e39190810190611f59565b905090565b6040517f4da5bc7b00000000000000000000000000000000000000000000000000000000815260609073__TICHelper_____________________________90634da5bc7b9061043c9060019060040161223f565b60006040518083038186803b15801561045457600080fd5b505af4158015610468573d6000803e3d6000fd5b505050506040513d6000823e601f3d9081017fffffffffffffffffffffffffffffffffffffffffffffffffffffffffffffffe01682016040526103e39190810190611e20565b60015473ffffffffffffffffffffffffffffffffffffffff1690565b60005460ff1661050f576040517f08c379a00000000000000000000000000000000000000000000000000000000081526004016105069061231a565b60405180910390fd5b600080547fffffffffffffffffffffffffffffffffffffffffffffffffffffffffffffff0016905560035473ffffffffffffffffffffffffffffffffffffffff163314610588576040517f08c379a000000000000000000000000000000000000000000000000000000000815260040161050690612351565b6040805160208101825282815290517faa67b60900000000000000000000000000000000000000000000000000000000815273__TICHelper_____________________________9163aa67b609916105e591600191600401612407565b60006040518083038186803b1580156105fd57600080fd5b505af4158015610611573d6000803e3d6000fd5b5050600080547fffffffffffffffffffffffffffffffffffffffffffffffffffffffffffffff00166001179055505050565b60035473ffffffffffffffffffffffffffffffffffffffff163314610694576040517f08c379a000000000000000000000000000000000000000000000000000000000815260040161050690612351565b60005460ff166106d0576040517f08c379a00000000000000000000000000000000000000000000000000000000081526004016105069061231a565b600080547fffffffffffffffffffffffffffffffffffffffffffffffffffffffffffffff001690556040517f1c647abd00000000000000000000000000000000000000000000000000000000815273__TICHelper_____________________________90631c647abd906107499060019060040161223f565b60006040518083038186803b15801561076157600080fd5b505af4158015610775573d6000803e3d6000fd5b5050600080547fffffffffffffffffffffffffffffffffffffffffffffffffffffffffffffff001660011790555050565b60045473ffffffffffffffffffffffffffffffffffffffff1633146107f7576040517f08c379a000000000000000000000000000000000000000000000000000000000815260040161050690612388565b60005460ff16610833576040517f08c379a00000000000000000000000000000000000000000000000000000000081526004016105069061231a565b600080547fffffffffffffffffffffffffffffffffffffffffffffffffffffffffffffff00168155818152600e6020526040908190206002015490517ff2b66f0900000000000000000000000000000000000000000000000000000000815273ffffffffffffffffffffffffffffffffffffffff9091169073__TICHelper_____________________________9063f2b66f09906108d89060019086906004016123bf565b60006040518083038186803b1580156108f057600080fd5b505af4158015610904573d6000803e3d6000fd5b505050508073ffffffffffffffffffffffffffffffffffffffff167fcfa4c7018a3b09267833d13734668d7325e5e99a9607b892d417207b058f20d38360405161094e919061223f565b60405180910390a25050600080547fffffffffffffffffffffffffffffffffffffffffffffffffffffffffffffff00166001179055565b60005460ff166109c1576040517f08c379a00000000000000000000000000000000000000000000000000000000081526004016105069061231a565b600080547fffffffffffffffffffffffffffffffffffffffffffffffffffffffffffffff0016905560045473ffffffffffffffffffffffffffffffffffffffff163314610a3a576040517f08c379a000000000000000000000000000000000000000000000000000000000815260040161050690612388565b600081815260116020526040908190206002015490517f2368045a00000000000000000000000000000000000000000000000000000000815273ffffffffffffffffffffffffffffffffffffffff9091169073__TICHelper_____________________________90632368045a90610ab99060019086906004016123bf565b60006040518083038186803b158015610ad157600080fd5b505af4158015610ae5573d6000803e3d6000fd5b505050508073ffffffffffffffffffffffffffffffffffffffff167ff8eaec7c1b7b19060d1594532caca20fa4cb9d60c5f61244fa2487f341a29f0f8360405161094e919061223f565b60005460ff16610b6b576040517f08c379a00000000000000000000000000000000000000000000000000000000081526004016105069061231a565b600080547fffffffffffffffffffffffffffffffffffffffffffffffffffffffffffffff0016905560045473ffffffffffffffffffffffffffffffffffffffff163314610be4576040517f08c379a000000000000000000000000000000000000000000000000000000000815260040161050690612388565b600081815260116020526040908190206002015490517fa56a6d5200000000000000000000000000000000000000000000000000000000815273ffffffffffffffffffffffffffffffffffffffff9091169073__TICHelper_____________________________9063a56a6d5290610c639060019086906004016123bf565b60006040518083038186803b158015610c7b57600080fd5b505af4158015610c8f573d6000803e3d6000fd5b505050508073ffffffffffffffffffffffffffffffffffffffff167f5cdff20fff2ad36b72ea16dd9b7027f3d53880d2aa7c7f3b66404e9c1a1424938360405161094e919061223f565b60045473ffffffffffffffffffffffffffffffffffffffff163314610d2a576040517f08c379a000000000000000000000000000000000000000000000000000000000815260040161050690612388565b60005460ff16610d66576040517f08c379a00000000000000000000000000000000000000000000000000000000081526004016105069061231a565b600080547fffffffffffffffffffffffffffffffffffffffffffffffffffffffffffffff00168155818152600e6020526040908190206002015490517fad0bdda100000000000000000000000000000000000000000000000000000000815273ffffffffffffffffffffffffffffffffffffffff9091169073__TICHelper_____________________________9063ad0bdda190610e0b9060019086906004016123bf565b60006040518083038186803b158015610e2357600080fd5b505af4158015610e37573d6000803e3d6000fd5b505050508073ffffffffffffffffffffffffffffffffffffffff167fc1257c3422a2d5dd3e6112d41b825533c33b8a91bc88cffb2d298c30f1828fe58360405161094e919061223f565b60035473ffffffffffffffffffffffffffffffffffffffff163314610ed2576040517f08c379a000000000000000000000000000000000000000000000000000000000815260040161050690612351565b60005460ff16610f0e576040517f08c379a00000000000000000000000000000000000000000000000000000000081526004016105069061231a565b600080547fffffffffffffffffffffffffffffffffffffffffffffffffffffffffffffff001690556040805160208101825282815290517e12b1f800000000000000000000000000000000000000000000000000000000815273__TICHelper_____________________________916212b1f8916105e591600191600401612407565b60005460ff16610fcd576040517f08c379a00000000000000000000000000000000000000000000000000000000081526004016105069061231a565b600080547fffffffffffffffffffffffffffffffffffffffffffffffffffffffffffffff0016815560408051602080820183528582528251908101835284815291517fb85fa0c200000000000000000000000000000000000000000000000000000000815273__TICHelper_____________________________9263b85fa0c29261105e9260019290600401612416565b60206040518083038186803b15801561107657600080fd5b505af415801561108a573d6000803e3d6000fd5b505050506040513d601f19601f820116820180604052508101906110ae9190612004565b90503373ffffffffffffffffffffffffffffffffffffffff167f1f2447cc38f55ebf1671418d6998b2d2f7774152ab993d79154e01e29d9bf677824286866040516110fc9493929190612281565b60405180910390a25050600080547fffffffffffffffffffffffffffffffffffffffffffffffffffffffffffffff0016600117905550565b600154604080517f7048594b000000000000000000000000000000000000000000000000000000008152905160009273ffffffffffffffffffffffffffffffffffffffff1691637048594b916004808301926020929190829003018186803b15801561119f57600080fd5b505afa1580156111b3573d6000803e3d6000fd5b505050506040513d601f19601f820116820180604052508101906103e3919061201c565b60005460ff16611213576040517f08c379a00000000000000000000000000000000000000000000000000000000081526004016105069061231a565b600080547fffffffffffffffffffffffffffffffffffffffffffffffffffffffffffffff0016815560408051602080820183528582528251908101835284815291517f99ecc8ee00000000000000000000000000000000000000000000000000000000815273__TICHelper_____________________________926399ecc8ee926112a49260019290600401612416565b60206040518083038186803b1580156112bc57600080fd5b505af41580156112d0573d6000803e3d6000fd5b505050506040513d601f19601f820116820180604052508101906112f49190612004565b90503373ffffffffffffffffffffffffffffffffffffffff167f98ce4331847829c3cdcf95d2ae4100212878081b653a6df89e3a76ab14ac8811824286866040516110fc9493929190612281565b60005460ff1661137e576040517f08c379a00000000000000000000000000000000000000000000000000000000081526004016105069061231a565b600080547fffffffffffffffffffffffffffffffffffffffffffffffffffffffffffffff0016905560045473ffffffffffffffffffffffffffffffffffffffff1633146113f7576040517f08c379a000000000000000000000000000000000000000000000000000000000815260040161050690612388565b6000818152600b6020526040908190206002015490517fa923bc1200000000000000000000000000000000000000000000000000000000815273ffffffffffffffffffffffffffffffffffffffff9091169073__TICHelper_____________________________9063a923bc12906114769060019086906004016123bf565b60006040518083038186803b15801561148e57600080fd5b505af41580156114a2573d6000803e3d6000fd5b505050508073ffffffffffffffffffffffffffffffffffffffff167f704f76cbfb948e81f51428a4981f0bbf366d86936d14fff8a7e1e65d3de929cb8360405161094e919061223f565b6040805160208082018352600754825282519081019092528282526000916115199163ffffffff611c5316565b5192915050565b60005460ff1661155c576040517f08c379a00000000000000000000000000000000000000000000000000000000081526004016105069061231a565b600080547fffffffffffffffffffffffffffffffffffffffffffffffffffffffffffffff001681556040805160208082018352868252825180820184528681528351918201845285825292517f7b05a4a900000000000000000000000000000000000000000000000000000000815273__TICHelper_____________________________93637b05a4a9936115fa936001938c9391906004016123cd565b60206040518083038186803b15801561161257600080fd5b505af4158015611626573d6000803e3d6000fd5b505050506040513d601f19601f8201168201806040525081019061164a9190612004565b90503373ffffffffffffffffffffffffffffffffffffffff167f7b50f5a35a69c552289956f6d3d7b0b90dc9dba083ad33fa8db602c6ed57f4c9824288888760405161169a959493929190612248565b60405180910390a25050600080547fffffffffffffffffffffffffffffffffffffffffffffffffffffffffffffff00166001179055505050565b60055473ffffffffffffffffffffffffffffffffffffffff1690565b60005460ff1661172c576040517f08c379a00000000000000000000000000000000000000000000000000000000081526004016105069061231a565b600080547fffffffffffffffffffffffffffffffffffffffffffffffffffffffffffffff0016905560035473ffffffffffffffffffffffffffffffffffffffff1633146117a5576040517f08c379a000000000000000000000000000000000000000000000000000000000815260040161050690612351565b6040805160208101825282815290517fed3395da00000000000000000000000000000000000000000000000000000000815273__TICHelper_____________________________9163ed3395da916105e591600191600401612407565b60005460ff1661183e576040517f08c379a00000000000000000000000000000000000000000000000000000000081526004016105069061231a565b600080547fffffffffffffffffffffffffffffffffffffffffffffffffffffffffffffff0016905560045473ffffffffffffffffffffffffffffffffffffffff1633146118b7576040517f08c379a000000000000000000000000000000000000000000000000000000000815260040161050690612388565b6000818152600b6020526040908190206002015490517f3f63703d00000000000000000000000000000000000000000000000000000000815273ffffffffffffffffffffffffffffffffffffffff9091169073__TICHelper_____________________________90633f63703d906119369060019086906004016123bf565b60006040518083038186803b15801561194e57600080fd5b505af4158015611962573d6000803e3d6000fd5b505050508073ffffffffffffffffffffffffffffffffffffffff167fe415bcfb927e3eafa5ab377de7ddccc55dedc71ba85c6cfbadea6bf317435c8d8360405161094e919061223f565b60005460ff166119e8576040517f08c379a00000000000000000000000000000000000000000000000000000000081526004016105069061231a565b600080547fffffffffffffffffffffffffffffffffffffffffffffffffffffffffffffff0016905560408051602080820183528482528251908101835283815291517fe3411dbc00000000000000000000000000000000000000000000000000000000815273__TICHelper_____________________________9263e3411dbc92611a799260019290600401612416565b60006040518083038186803b158015611a9157600080fd5b505af4158015611aa5573d6000803e3d6000fd5b5050600080547fffffffffffffffffffffffffffffffffffffffffffffffffffffffffffffff0016600117905550505050565b6040517ffdd3eeb200000000000000000000000000000000000000000000000000000000815260609073__TICHelper_____________________________9063fdd3eeb290611b2c9060019060040161223f565b60006040518083038186803b158015611b4457600080fd5b505af4158015611b58573d6000803e3d6000fd5b505050506040513d6000823e601f3d9081017fffffffffffffffffffffffffffffffffffffffffffffffffffffffffffffffe01682016040526103e39190810190611ec6565b60005460ff16611bda576040517f08c379a00000000000000000000000000000000000000000000000000000000081526004016105069061231a565b600080547fffffffffffffffffffffffffffffffffffffffffffffffffffffffffffffff001690556040517f0827cff500000000000000000000000000000000000000000000000000000000815273__TICHelper_____________________________90630827cff5906107499060019060040161223f565b611c5b611cf3565b6040805160208101909152825184518291670de0b6b3a764000091611c859163ffffffff611c9816565b81611c8c57fe5b04905290505b92915050565b600082611ca757506000611c92565b82820282848281611cb457fe5b0414611cec576040517f08c379a0000000000000000000000000000000000000000000000000000000008152600401610506906122bd565b9392505050565b6040518060200160405280600081525090565b600060e08284031215611d17578081fd5b611d2160e061242c565b905081518152602082015160208201526040820151611d3f81612473565b60408201526060820151611d5281612473565b6060820152611d648360808401611dfb565b6080820152611d768360a08401611dfb565b60a0820152611d888360c08401611dfb565b60c082015292915050565b600060a08284031215611da4578081fd5b611dae60a061242c565b905081518152602082015160208201526040820151611dcc81612473565b6040820152611dde8360608401611dfb565b6060820152611df08360808401611dfb565b608082015292915050565b600060208284031215611e0c578081fd5b611e16602061242c565b9151825250919050565b60006020808385031215611e32578182fd5b825167ffffffffffffffff811115611e48578283fd5b80840185601f820112611e59578384fd5b80519150611e6e611e6983612453565b61242c565b8281528381019082850160e0808602850187018a1015611e8c578788fd5b8794505b85851015611eb857611ea28a83611d06565b8452600194909401939286019290810190611e90565b509098975050505050505050565b60006020808385031215611ed8578182fd5b825167ffffffffffffffff811115611eee578283fd5b80840185601f820112611eff578384fd5b80519150611f0f611e6983612453565b8281528381019082850160a0808602850187018a1015611f2d578788fd5b8794505b85851015611eb857611f438a83611d93565b8452600194909401939286019290810190611f31565b60006020808385031215611f6b578182fd5b825167ffffffffffffffff811115611f81578283fd5b80840185601f820112611f92578384fd5b80519150611fa2611e6983612453565b8281528381019082850160a0808602850187018a1015611fc0578788fd5b8794505b85851015611eb857611fd68a83611d93565b8452600194909401939286019290810190611fc4565b600060208284031215611ffd578081fd5b5035919050565b600060208284031215612015578081fd5b5051919050565b60006020828403121561202d578081fd5b8151611cec81612473565b6000806000806080858703121561204d578283fd5b843561205881612473565b966020860135965060408601359560600135945092505050565b60008060408385031215612084578182fd5b50508035926020909101359150565b73ffffffffffffffffffffffffffffffffffffffff169052565b805182526020810151602083015273ffffffffffffffffffffffffffffffffffffffff6040820151166040830152606081015151606083015260808101515160808301525050565b519052565b602080825282518282018190526000919060409081850190868401855b828110156121a25781518051855286810151878601528581015161213d87870182612093565b5060608082015161215082880182612093565b5050608080820151612164828801826120f5565b505060a080820151612178828801826120f5565b505060c08082015161218c828801826120f5565b50505060e0939093019290850190600101612117565b5091979650505050505050565b6020808252825182820181905260009190848201906040850190845b818110156121f1576121de8385516120ad565b9284019260a092909201916001016121cb565b50909695505050505050565b6020808252825182820181905260009190848201906040850190845b818110156121f15761222c8385516120ad565b9284019260a09290920191600101612219565b90815260200190565b948552602085019390935273ffffffffffffffffffffffffffffffffffffffff9190911660408401526060830152608082015260a00190565b93845260208401929092526040830152606082015260800190565b73ffffffffffffffffffffffffffffffffffffffff91909116815260200190565b60208082526021908201527f536166654d6174683a206d756c7469706c69636174696f6e206f766572666c6f60408201527f7700000000000000000000000000000000000000000000000000000000000000606082015260800190565b6020808252601f908201527f5265656e7472616e637947756172643a207265656e7472616e742063616c6c00604082015260600190565b6020808252601a908201527f4d757374206265206c69717569646974792070726f7669646572000000000000604082015260600190565b60208082526011908201527f4d7573742062652076616c696461746f72000000000000000000000000000000604082015260600190565b918252602082015260400190565b94855273ffffffffffffffffffffffffffffffffffffffff9390931660208501529051604084015251606083015251608082015260a00190565b91825251602082015260400190565b9283529051602083015251604082015260600190565b60405181810167ffffffffffffffff8111828210171561244b57600080fd5b604052919050565b600067ffffffffffffffff821115612469578081fd5b5060209081020190565b73ffffffffffffffffffffffffffffffffffffffff8116811461249557600080fd5b5056fea26469706673582212207030d1d0cf06b37d066c601b61f65c8ac7243c1942e0d3eb14c3db83660cf26064736f6c634300060a0033a2646970667358221220baa4b0f98b4e4d1ead2ca6cf2aabfc3787c03c0aff1b90921aa18700fc8d9e9c64736f6c634300060a0033",
  "immutableReferences": {},
  "source": "pragma solidity ^0.6.0;\npragma experimental ABIEncoderV2;\n\nimport {Ownable} from '@openzeppelin/contracts/access/Ownable.sol';\nimport { ReentrancyGuard} from '@openzeppelin/contracts/utils/ReentrancyGuard.sol';\nimport {TIC} from './TIC.sol';\nimport {IExpiringMultiParty} from './IExpiringMultiParty.sol';\nimport {\n  ExpiringMultiPartyCreator\n} from './uma-contracts/financial-templates/expiring-multiparty/ExpiringMultiPartyCreator.sol';\n\ncontract TICFactory is Ownable, ReentrancyGuard {\n  //----------------------------------------\n  // State variables\n  //----------------------------------------\n\n  ExpiringMultiPartyCreator private derivativeCreator;\n\n  // Get a TIC using its token symbol\n  mapping(string => TIC) public symbolToTIC;\n\n  //----------------------------------------\n  // Constructor\n  //----------------------------------------\n\n  constructor(ExpiringMultiPartyCreator _derivativeCreator) public {\n    derivativeCreator = _derivativeCreator;\n  }\n\n  //----------------------------------------\n  // External functions\n  //----------------------------------------\n\n  /**\n   * @notice Creates a new TIC\n   * @param params The parameters used to create the underlying derivative\n   * @param liquidityProvider The liquidity provider\n   * @param validator The address that validates mint and exchange requests\n   * @param startingCollateralization Collateralization ratio to use before a global one is set\n   * @param fee The fee structure\n   */\n  function createTIC(\n    ExpiringMultiPartyCreator.Params calldata params,\n    address liquidityProvider,\n    address validator,\n    uint256 startingCollateralization,\n    TIC.Fee calldata fee\n  ) external onlyOwner nonReentrant {\n    //Require TIC does not exist\n    require(\n      address(symbolToTIC[params.syntheticSymbol]) == address(0),\n      'TIC already exists'\n    );\n    // Create the derivative contract\n    // TODO: `ExpiringMultiPartyCreator` past commit b6dc123e11d7253cdbe0fcc40b7ab4a992c4e56d\n    //       requires `minSponsorTokens` param.\n    address derivative = derivativeCreator.createExpiringMultiParty(params);\n    // Create the TIC\n    symbolToTIC[params.syntheticSymbol] = new TIC(\n      IExpiringMultiParty(derivative),\n      liquidityProvider,\n      validator,\n      startingCollateralization,\n      fee\n    );\n  }\n}\n",
  "sourcePath": "/home/alessandrovm/JarvisLavoro/SynFiat/packages/contracts/contracts/TICFactory.sol",
  "compiler": {
    "name": "solc",
    "version": "0.6.10+commit.00c0fcaf.Emscripten.clang"
  },
  "schemaVersion": "3.2.5",
  "updatedAt": "2020-10-01T17:37:37.119Z",
  "networkType": "ethereum",
  "devdoc": {
    "methods": {
      "createTIC((uint256,address,bytes32,string,string,(uint256),(uint256),(uint256),(uint256),(uint256),uint256,uint256),address,address,uint256,((uint256),address[],uint32[]))": {
        "params": {
          "fee": "The fee structure",
          "liquidityProvider": "The liquidity provider",
          "params": "The parameters used to create the underlying derivative",
          "startingCollateralization": "Collateralization ratio to use before a global one is set",
          "validator": "The address that validates mint and exchange requests"
        }
      },
      "owner()": {
        "details": "Returns the address of the current owner."
      },
      "renounceOwnership()": {
        "details": "Leaves the contract without owner. It will not be possible to call `onlyOwner` functions anymore. Can only be called by the current owner. NOTE: Renouncing ownership will leave the contract without an owner, thereby removing any functionality that is only available to the owner."
      },
      "transferOwnership(address)": {
        "details": "Transfers ownership of the contract to a new account (`newOwner`). Can only be called by the current owner."
      }
    }
  },
  "userdoc": {
    "methods": {
      "createTIC((uint256,address,bytes32,string,string,(uint256),(uint256),(uint256),(uint256),(uint256),uint256,uint256),address,address,uint256,((uint256),address[],uint32[]))": {
        "notice": "Creates a new TIC"
      }
    }
  }
}