{
  "contractName": "Timer",
  "abi": [
    {
      "inputs": [],
      "stateMutability": "nonpayable",
      "type": "constructor"
    },
    {
      "inputs": [
        {
          "internalType": "uint256",
          "name": "time",
          "type": "uint256"
        }
      ],
      "name": "setCurrentTime",
      "outputs": [],
      "stateMutability": "nonpayable",
      "type": "function"
    },
    {
      "inputs": [],
      "name": "getCurrentTime",
      "outputs": [
        {
          "internalType": "uint256",
          "name": "",
          "type": "uint256"
        }
      ],
      "stateMutability": "view",
      "type": "function"
    }
  ],
  "bytecode": "0x608060405234801561001057600080fd5b504260005560ac806100236000396000f3fe6080604052348015600f57600080fd5b506004361060325760003560e01c806322f8e56614603757806329cb924d146053575b600080fd5b605160048036036020811015604b57600080fd5b5035606b565b005b60596070565b60408051918252519081900360200190f35b600055565b6000549056fea2646970667358221220dc5bee911a6feb1cb61545d662a6cb2448d7d38fb9cd790fb2efd3f84110a80f64736f6c63430006040033",
  "source": "pragma solidity ^0.6.0;\n\n\n/**\n * @title Universal store of current contract time for testing environments.\n */\ncontract Timer {\n    uint256 private currentTime;\n\n    constructor() public {\n        currentTime = now; // solhint-disable-line not-rely-on-time\n    }\n\n    /**\n     * @notice Sets the current time.\n     * @dev Will revert if not running in test mode.\n     * @param time timestamp to set `currentTime` to.\n     */\n    function setCurrentTime(uint256 time) external {\n        currentTime = time;\n    }\n\n    /**\n     * @notice Gets the current time. Will return the last time set in `setCurrentTime` if running in test mode.\n     * Otherwise, it will return the block timestamp.\n     * @return uint256 for the current Testable timestamp.\n     */\n    function getCurrentTime() public view returns (uint256) {\n        return currentTime;\n    }\n}\n",
  "sourcePath": "/home/alessandrovm/JarvisLavoro/SynFiat/packages/contracts/contracts/uma-contracts/common/implementation/Timer.sol",
  "compiler": {
    "name": "solc",
    "version": "0.6.4+commit.1dca32f3.Emscripten.clang"
  },
  "schemaVersion": "3.2.0",
  "updatedAt": "2020-09-17T18:56:01.809Z",
  "devdoc": {
    "methods": {
      "setCurrentTime(uint256)": {
        "details": "Will revert if not running in test mode.",
        "params": {
          "time": "timestamp to set `currentTime` to."
        }
      }
    },
    "title": "Universal store of current contract time for testing environments."
  },
  "userdoc": {
    "methods": {
      "getCurrentTime()": {
        "notice": "Gets the current time. Will return the last time set in `setCurrentTime` if running in test mode. Otherwise, it will return the block timestamp."
      },
      "setCurrentTime(uint256)": {
        "notice": "Sets the current time."
      }
    }
  }
}