{
  "contractName": "TokenizedDerivativeCreator",
  "abi": [
    {
      "inputs": [
        {
          "internalType": "address",
          "name": "_finderAddress",
          "type": "address"
        },
        {
          "internalType": "address",
          "name": "_returnCalculatorWhitelist",
          "type": "address"
        },
        {
          "internalType": "address",
          "name": "_marginCurrencyWhitelist",
          "type": "address"
        },
        {
          "internalType": "bool",
          "name": "_isTest",
          "type": "bool"
        }
      ],
      "stateMutability": "nonpayable",
      "type": "constructor"
    },
    {
      "anonymous": false,
      "inputs": [
        {
          "indexed": false,
          "internalType": "address",
          "name": "contractAddress",
          "type": "address"
        }
      ],
      "name": "CreatedTokenizedDerivative",
      "type": "event"
    },
    {
      "inputs": [],
      "name": "getCurrentTime",
      "outputs": [
        {
          "internalType": "uint256",
          "name": "",
          "type": "uint256"
        }
      ],
      "stateMutability": "view",
      "type": "function"
    },
    {
      "inputs": [],
      "name": "isTest",
      "outputs": [
        {
          "internalType": "bool",
          "name": "",
          "type": "bool"
        }
      ],
      "stateMutability": "view",
      "type": "function"
    },
    {
      "inputs": [],
      "name": "marginCurrencyWhitelist",
      "outputs": [
        {
          "internalType": "contract AddressWhitelist",
          "name": "",
          "type": "address"
        }
      ],
      "stateMutability": "view",
      "type": "function"
    },
    {
      "inputs": [],
      "name": "returnCalculatorWhitelist",
      "outputs": [
        {
          "internalType": "contract AddressWhitelist",
          "name": "",
          "type": "address"
        }
      ],
      "stateMutability": "view",
      "type": "function"
    },
    {
      "inputs": [
        {
          "internalType": "uint256",
          "name": "_time",
          "type": "uint256"
        }
      ],
      "name": "setCurrentTime",
      "outputs": [],
      "stateMutability": "nonpayable",
      "type": "function"
    },
    {
      "inputs": [
        {
          "components": [
            {
              "internalType": "address",
              "name": "priceFeedAddress",
              "type": "address"
            },
            {
              "internalType": "uint256",
              "name": "defaultPenalty",
              "type": "uint256"
            },
            {
              "internalType": "uint256",
              "name": "supportedMove",
              "type": "uint256"
            },
            {
              "internalType": "bytes32",
              "name": "product",
              "type": "bytes32"
            },
            {
              "internalType": "uint256",
              "name": "fixedYearlyFee",
              "type": "uint256"
            },
            {
              "internalType": "uint256",
              "name": "disputeDeposit",
              "type": "uint256"
            },
            {
              "internalType": "address",
              "name": "returnCalculator",
              "type": "address"
            },
            {
              "internalType": "uint256",
              "name": "startingTokenPrice",
              "type": "uint256"
            },
            {
              "internalType": "uint256",
              "name": "expiry",
              "type": "uint256"
            },
            {
              "internalType": "address",
              "name": "marginCurrency",
              "type": "address"
            },
            {
              "internalType": "uint256",
              "name": "withdrawLimit",
              "type": "uint256"
            },
            {
              "internalType": "enum TokenizedDerivativeParams.ReturnType",
              "name": "returnType",
              "type": "uint8"
            },
            {
              "internalType": "uint256",
              "name": "startingUnderlyingPrice",
              "type": "uint256"
            },
            {
              "internalType": "string",
              "name": "name",
              "type": "string"
            },
            {
              "internalType": "string",
              "name": "symbol",
              "type": "string"
            }
          ],
          "internalType": "struct TokenizedDerivativeCreator.Params",
          "name": "params",
          "type": "tuple"
        }
      ],
      "name": "createTokenizedDerivative",
      "outputs": [
        {
          "internalType": "address",
          "name": "derivativeAddress",
          "type": "address"
        }
      ],
      "stateMutability": "nonpayable",
      "type": "function"
    }
  ],
  "bytecode": "0x608060405234801561001057600080fd5b50604051612cb9380380612cb983398101604081905261002f916100bf565b600080546001600160a01b0319166001600160a01b0386161760ff60a01b1916600160a01b831580159190910291909117909155819061006e57426001555b5050600280546001600160a01b039384166001600160a01b031991821617909155600380549290931691161790555061011b565b80516001600160a01b03811681146100b957600080fd5b92915050565b600080600080608085870312156100d4578384fd5b6100de86866100a2565b93506100ed86602087016100a2565b92506100fc86604087016100a2565b915060608501518015158114610110578182fd5b939692955090935050565b612b8f8061012a6000396000f3fe60806040523480156200001157600080fd5b50600436106200007c5760003560e01c80639381a34511620000575780639381a34514620000d5578063966a67dd14620000ee578063aec2384914620000f8576200007c565b806322f8e566146200008157806329cb924d146200009a578063415b725114620000bc575b600080fd5b62000098620000923660046200085f565b6200010f565b005b620000a46200012b565b604051620000b3919062000960565b60405180910390f35b620000c66200014f565b604051620000b39190620008e2565b620000df6200015e565b604051620000b3919062000955565b620000c66200016e565b620000c66200010936600462000706565b6200017d565b600054600160a01b900460ff166200012657600080fd5b600155565b60008054600160a01b900460ff16156200014957506001546200014c565b50425b90565b6003546001600160a01b031681565b600054600160a01b900460ff1681565b6002546001600160a01b031681565b6000806200018b8362000272565b836101a00151846101c00151604051620001a5906200059c565b620001b39392919062000969565b604051809103906000f080158015620001d0573d6000803e3d6000fd5b50604080516001808252818301909252919250606091906020808301908036833701905050905033816000815181106200020657fe5b60200260200101906001600160a01b031690816001600160a01b03168152505062000232818362000498565b7ff662f8b1426e949f451eda394771fcd3d09da20372cd77bfc715e2dc6affbf9282604051620002639190620008e2565b60405180910390a15092915050565b6200027c620005aa565b33815260025460c0830151604051631d1d5b3960e11b81526001600160a01b0390921691633a3ab67291620002b491600401620008e2565b60206040518083038186803b158015620002cd57600080fd5b505afa158015620002e2573d6000803e3d6000fd5b505050506040513d601f19601f82011682018060405250810190620003089190620006e4565b6200031257600080fd5b60c08201516001600160a01b03908116610100830152600354610120840151604051631d1d5b3960e11b81529190921691633a3ab67291620003589190600401620008e2565b60206040518083038186803b1580156200037157600080fd5b505afa15801562000386573d6000803e3d6000fd5b505050506040513d601f19601f82011682018060405250810190620003ac9190620006e4565b620003b657600080fd5b610120808301516001600160a01b039081166101608085019190915284519091166040808501919091526020850151606080860191909152908501516080808601919091529085015160a0808601919091529085015160c085015284015160e08085019190915284015191830191909152610100830151610140808401919091528301516101808301528201516101a082019060018111156200045557fe5b908160018111156200046357fe5b9052506101808201516101c08201526000546001600160a01b031660208201526200048d6200012b565b6101e0820152919050565b600080546040516302abf57960e61b81526001600160a01b039091169167526567697374727960c01b91839063aafd5e4090620004da90859060040162000960565b60206040518083038186803b158015620004f357600080fd5b505afa15801562000508573d6000803e3d6000fd5b505050506040513d601f19601f820116820180604052508101906200052e9190620006be565b60405163066c8c2560e41b81529091506001600160a01b038216906366c8c25090620005619088908890600401620008f6565b600060405180830381600087803b1580156200057c57600080fd5b505af115801562000591573d6000803e3d6000fd5b505050505050505050565b61208f8062000acb83390190565b6040805161020081018252600080825260208201819052918101829052606081018290526080810182905260a0810182905260c0810182905260e0810182905261010081018290526101208101829052610140810182905261016081018290526101808101829052906101a0820190815260200160008152602001600081525090565b80356200063a8162000ab1565b92915050565b8035600281106200063a57600080fd5b600082601f83011262000661578081fd5b813567ffffffffffffffff81111562000678578182fd5b6200068d601f8201601f191660200162000a89565b9150808252836020828501011115620006a557600080fd5b8060208401602084013760009082016020015292915050565b600060208284031215620006d0578081fd5b8151620006dd8162000ab1565b9392505050565b600060208284031215620006f6578081fd5b81518015158114620006dd578182fd5b60006020828403121562000718578081fd5b813567ffffffffffffffff8082111562000730578283fd5b6101e091840180860383131562000745578384fd5b620007508362000a89565b6200075c87836200062d565b81526020820135602082015260408201356040820152606082013560608201526080820135608082015260a082013560a08201526200079f8760c084016200062d565b60c082015260e0828101359082015261010080830135908201526101209350620007cc878584016200062d565b84820152610140935083820135848201526101609350620007f08785840162000640565b84820152610180935083820135848201526101a09350838201358381111562000817578586fd5b620008258882850162000650565b85830152506101c09350838201358381111562000840578586fd5b6200084e8882850162000650565b948201949094529695505050505050565b60006020828403121562000871578081fd5b5035919050565b6001600160a01b03169052565b600281106200089057fe5b9052565b60008151808452815b81811015620008bb576020818501810151868301820152016200089d565b81811115620008cd5782602083870101525b50601f01601f19169290920160200192915050565b6001600160a01b0391909116815260200190565b604080825283519082018190526000906020906060840190828701845b828110156200093a5781516001600160a01b03168452928401929084019060010162000913565b5050506001600160a01b039490941692019190915250919050565b901515815260200190565b90815260200190565b60006102406200097b83875162000878565b60208601516200098f602085018262000878565b506040860151620009a4604085018262000878565b50606086015160608401526080860151608084015260a086015160a084015260c086015160c084015260e086015160e084015261010080870151620009ec8286018262000878565b5050610120868101519084015261014080870151908401526101608087015162000a198286018262000878565b505061018086810151908401526101a08087015162000a3b8286018262000885565b50506101c086810151908401526101e08087015190840152610200830181905262000a698184018662000894565b83810361022085015262000a7e818662000894565b979650505050505050565b60405181810167ffffffffffffffff8111828210171562000aa957600080fd5b604052919050565b6001600160a01b038116811462000ac757600080fd5b5056fe60806040523480156200001157600080fd5b506040516200208f3803806200208f83398101604081905262000034916200021a565b815162000049906003906020850190620000d9565b5080516200005f906004906020840190620000d9565b506040516318b9f5ad60e31b815273__TokenizedDerivativeUtils______________9063c5cfad68906200009e9060059087908690600401620003cf565b60006040518083038186803b158015620000b757600080fd5b505af4158015620000cc573d6000803e3d6000fd5b5050505050505062000542565b828054600181600116156101000203166002900490600052602060002090601f016020900481019282601f106200011c57805160ff19168380011785556200014c565b828001600101855582156200014c579182015b828111156200014c5782518255916020019190600101906200012f565b506200015a9291506200015e565b5090565b6200017b91905b808211156200015a576000815560010162000165565b90565b80516001600160a01b03811681146200019657600080fd5b92915050565b8051600281106200019657600080fd5b600082601f830112620001bd578081fd5b81516001600160401b03811115620001d3578182fd5b620001e8601f8201601f1916602001620004e8565b91508082528360208285010111156200020057600080fd5b620002138160208401602086016200050f565b5092915050565b600080600083850361024081121562000231578384fd5b6102008082121562000241578485fd5b6200024c81620004e8565b91506200025a87876200017e565b82526200026b87602088016200017e565b60208301526200027f87604088016200017e565b6040830152606086015160608301526080860151608083015260a086015160a083015260c086015160c083015260e086015160e0830152610100620002c7888289016200017e565b9083015261012086810151908301526101408087015190830152610160620002f2888289016200017e565b9083015261018086810151908301526101a062000312888289016200019c565b908301526101c086810151908301526101e080870151908301528501519093506001600160401b038082111562000347578384fd5b6200035587838801620001ac565b93506102208601519150808211156200036c578283fd5b506200037b86828701620001ac565b9150509250925092565b6001600160a01b03169052565b600281106200039d57fe5b9052565b60008151808452620003bb8160208601602086016200050f565b601f01601f19169290920160200192915050565b6000610240858352620003e760208401865162000385565b6020850151620003fb604085018262000385565b50604085015162000410606085018262000385565b5060608501516080840152608085015160a084015260a085015160c084015260c085015160e084015260e08501516101008181860152808701519150506101206200045e8186018362000385565b860151610140858101919091528601516101608086019190915286015190506101806200048e8186018362000385565b8601516101a08581019190915286015190506101c0620004b18186018362000392565b8601516101e085810191909152860151610200850152506102208301819052620004de81840185620003a1565b9695505050505050565b6040518181016001600160401b03811182821017156200050757600080fd5b604052919050565b60005b838110156200052c57818101518382015260200162000512565b838111156200053c576000848401525b50505050565b611b3d80620005526000396000f3fe6080604052600436106101ee5760003560e01c806342966c681161010d578063b6b55f25116100a0578063c7af29a91161006f578063c7af29a914610512578063dd62ed3e14610527578063e14e42da14610547578063e39dd93a1461056a578063f3f75c061461057f576101ee565b8063b6b55f25146104b7578063b82b9ff6146104ca578063bda02e77146104dd578063c5964817146104f2576101ee565b806395d89b41116100dc57806395d89b4114610442578063a457c2d714610457578063a6e158f814610477578063a9059cbb14610497576101ee565b806342966c68146103da5780636074785a146103fa57806370a082311461040f57806386d6282c1461042f576101ee565b80632e1a7d4d116101855780633950935111610154578063395093511461035a5780633c6ee3921461037a5780633e1700a71461038d57806340c10f19146103ba576101ee565b80632e1a7d4d146102ee578063313ce5671461030e5780633327570b146103305780633403c2fc14610345576101ee565b806318160ddd116101c157806318160ddd146102775780631c93cd7514610299578063211339f8146102b957806323b872dd146102ce576101ee565b806306fdde03146101f3578063095ea7b31461021e57806311da60b41461024b578063156c87fb14610262575b600080fd5b3480156101ff57600080fd5b50610208610594565b604051610215919061171c565b60405180910390f35b34801561022a57600080fd5b5061023e610239366004611562565b610622565b60405161021591906116fa565b34801561025757600080fd5b50610260610640565b005b34801561026e57600080fd5b506102606106aa565b34801561028357600080fd5b5061028c6106e2565b6040516102159190611705565b3480156102a557600080fd5b506102606102b43660046114d3565b6106e8565b3480156102c557600080fd5b5061028c610755565b3480156102da57600080fd5b5061023e6102e9366004611522565b6107e5565b3480156102fa57600080fd5b506102606103093660046115e7565b610872565b34801561031a57600080fd5b506103236108ac565b6040516102159190611a4f565b34801561033c57600080fd5b5061028c6108b1565b34801561035157600080fd5b506102606108ec565b34801561036657600080fd5b5061023e610375366004611562565b610924565b6102606103883660046115ff565b610978565b34801561039957600080fd5b506103a26109e8565b6040516102159c9b9a999897969594939291906118ec565b3480156103c657600080fd5b5061023e6103d5366004611562565b610c0b565b3480156103e657600080fd5b506102606103f53660046115e7565b610c23565b34801561040657600080fd5b5061028c610c3c565b34801561041b57600080fd5b5061028c61042a3660046114d3565b610c77565b61026061043d3660046115e7565b610c92565b34801561044e57600080fd5b50610208610ccc565b34801561046357600080fd5b5061023e610472366004611562565b610d27565b34801561048357600080fd5b506102606104923660046115e7565b610d95565b3480156104a357600080fd5b5061023e6104b2366004611562565b610dcf565b6102606104c53660046115e7565b610de3565b6102606104d83660046115ff565b610e1d565b3480156104e957600080fd5b50610260610e59565b3480156104fe57600080fd5b5061026061050d366004611562565b610e91565b34801561051e57600080fd5b5061028c610ecd565b34801561053357600080fd5b5061028c6105423660046114ee565b610f08565b34801561055357600080fd5b5061055c610f33565b60405161021592919061170e565b34801561057657600080fd5b5061028c610fc7565b34801561058b57600080fd5b5061023e611002565b6003805460408051602060026001851615610100026000190190941693909304601f8101849004840282018401909252818152929183018282801561061a5780601f106105ef5761010080835404028352916020019161061a565b820191906000526020600020905b8154815290600101906020018083116105fd57829003601f168201915b505050505081565b600061063661062f61108d565b8484611091565b5060015b92915050565b604051634f9f8def60e11b815273__TokenizedDerivativeUtils______________90639f3f1bde9061067890600590600401611705565b60006040518083038186803b15801561069057600080fd5b505af41580156106a4573d6000803e3d6000fd5b50505050565b604051636b2c6bf560e11b815273__TokenizedDerivativeUtils______________9063d658d7ea9061067890600590600401611705565b60025490565b60405163e11e625760e01b815273__TokenizedDerivativeUtils______________9063e11e625790610722906005908590600401611a03565b60006040518083038186803b15801561073a57600080fd5b505af415801561074e573d6000803e3d6000fd5b5050505050565b60405163259375a360e11b815260009073__TokenizedDerivativeUtils______________90634b26eb469061079090600590600401611705565b60206040518083038186803b1580156107a857600080fd5b505af41580156107bc573d6000803e3d6000fd5b505050506040513d601f19601f820116820180604052508101906107e091906115ac565b905090565b60006107f284848461114e565b610868846107fe61108d565b61086385604051806060016040528060288152602001611abb602891396001600160a01b038a1660009081526001602052604081209061083c61108d565b6001600160a01b03168152602081019190915260400160002054919063ffffffff61126f16565b611091565b5060019392505050565b604051633602157960e01b815273__TokenizedDerivativeUtils______________9063360215799061072290600590859060040161170e565b601281565b604051633331ef4b60e11b815260009073__TokenizedDerivativeUtils______________90636663de969061079090600590600401611705565b604051630488ef7d60e31b815273__TokenizedDerivativeUtils______________906324477be89061067890600590600401611705565b600061063661093161108d565b84610863856001600061094261108d565b6001600160a01b03908116825260208083019390935260409182016000908120918c16815292529020549063ffffffff61129b16565b6040516305252dbb60e11b815273__TokenizedDerivativeUtils______________90630a4a5b76906109b49060059086908690600401611a39565b60006040518083038186803b1580156109cc57600080fd5b505af41580156109e0573d6000803e3d6000fd5b505050505050565b604080516101408101825260058054825260065460208301526007549282019290925260085460608201526009546080820152600a5460a0820152600b54829060c083019060ff166001811115610a3b57fe5b6001811115610a4657fe5b81526020016007820154815260200160088201548152602001600982018054600181600116156101000203166002900480601f016020809104026020016040519081016040528092919081815260200182805460018160011615610100020316600290048015610af75780601f10610acc57610100808354040283529160200191610af7565b820191906000526020600020905b815481529060010190602001808311610ada57829003601f168201915b5050509190925250506040805160c081018252600a8501546001600160a01b039081168252600b8601548116602080840191909152600c870154821683850152600d8701548216606080850191909152600e88015483166080850152600f88015490921660a084015260108701546011880154601289015460138a01548751808701895260148c0154815260158c01548187015260168c0154818a01528851968701895260178c0154875260188c01548787015260198c0154878a0152601a8c01548951808b018b52601b8e01548152601c8e015481890152601d8e01548b51808d01909c52601e8f01548c52601f909e0154978b01979097529a9b979a949950929760ff9092169690959294929392918c565b6000333014610c1957600080fd5b61063683836112c7565b333014610c2f57600080fd5b610c393382611393565b50565b604051634aa2d1bf60e11b815260009073__TokenizedDerivativeUtils______________90639545a37e9061079090600590600401611705565b6001600160a01b031660009081526020819052604090205490565b604051630806c19360e01b815273__TokenizedDerivativeUtils______________90630806c1939061072290600590859060040161170e565b6004805460408051602060026001851615610100026000190190941693909304601f8101849004840282018401909252818152929183018282801561061a5780601f106105ef5761010080835404028352916020019161061a565b6000610636610d3461108d565b8461086385604051806060016040528060258152602001611ae36025913960016000610d5e61108d565b6001600160a01b03908116825260208083019390935260409182016000908120918d1681529252902054919063ffffffff61126f16565b604051630a5c470960e01b815273__TokenizedDerivativeUtils______________90630a5c47099061072290600590859060040161170e565b6000610636610ddc61108d565b848461114e565b6040516336cbe90960e21b815273__TokenizedDerivativeUtils______________9063db2fa4249061072290600590859060040161170e565b60405163c31671ff60e01b815273__TokenizedDerivativeUtils______________9063c31671ff906109b49060059086908690600401611a39565b604051633cd450dd60e01b815273__TokenizedDerivativeUtils______________90633cd450dd9061067890600590600401611705565b60405163190cddbd60e31b815273__TokenizedDerivativeUtils______________9063c866ede8906109b49060059086908690600401611a1a565b604051632a88460160e11b815260009073__TokenizedDerivativeUtils______________906355108c029061079090600590600401611705565b6001600160a01b03918216600090815260016020908152604080832093909416825291909152205490565b604051638ce27c3f60e01b8152600090819073__TokenizedDerivativeUtils______________90638ce27c3f90610f7090600590600401611705565b604080518083038186803b158015610f8757600080fd5b505af4158015610f9b573d6000803e3d6000fd5b505050506040513d601f19601f82011682018060405250810190610fbf91906115c4565b915091509091565b604051637dfedadb60e01b815260009073__TokenizedDerivativeUtils______________90637dfedadb9061079090600590600401611705565b604051630afd842560e21b815260009073__TokenizedDerivativeUtils______________90632bf610949061103d90600590600401611705565b60206040518083038186803b15801561105557600080fd5b505af4158015611069573d6000803e3d6000fd5b505050506040513d601f19601f820116820180604052508101906107e0919061158c565b3390565b6001600160a01b0383166110c05760405162461bcd60e51b81526004016110b790611871565b60405180910390fd5b6001600160a01b0382166110e65760405162461bcd60e51b81526004016110b790611772565b6001600160a01b0380841660008181526001602090815260408083209487168084529490915290819020849055517f8c5be1e5ebec7d5bd14f71427d1e84f3dd0314c0f7b2291e5b200ac8c7c3b92590611141908590611705565b60405180910390a3505050565b6001600160a01b0383166111745760405162461bcd60e51b81526004016110b79061182c565b6001600160a01b03821661119a5760405162461bcd60e51b81526004016110b79061172f565b6111a5838383611475565b6111e881604051806060016040528060268152602001611a95602691396001600160a01b038616600090815260208190526040902054919063ffffffff61126f16565b6001600160a01b03808516600090815260208190526040808220939093559084168152205461121d908263ffffffff61129b16565b6001600160a01b0380841660008181526020819052604090819020939093559151908516907fddf252ad1be2c89b69c2b068fc378daa952ba7f163c4a11628f55a4df523b3ef90611141908590611705565b600081848411156112935760405162461bcd60e51b81526004016110b7919061171c565b505050900390565b6000828201838110156112c05760405162461bcd60e51b81526004016110b7906117b4565b9392505050565b6001600160a01b0382166112ed5760405162461bcd60e51b81526004016110b7906118b5565b6112f960008383611475565b60025461130c908263ffffffff61129b16565b6002556001600160a01b038216600090815260208190526040902054611338908263ffffffff61129b16565b6001600160a01b0383166000818152602081905260408082209390935591519091907fddf252ad1be2c89b69c2b068fc378daa952ba7f163c4a11628f55a4df523b3ef90611387908590611705565b60405180910390a35050565b6001600160a01b0382166113b95760405162461bcd60e51b81526004016110b7906117eb565b6113c582600083611475565b61140881604051806060016040528060228152602001611a73602291396001600160a01b038516600090815260208190526040902054919063ffffffff61126f16565b6001600160a01b038316600090815260208190526040902055600254611434908263ffffffff61147a16565b6002556040516000906001600160a01b038416907fddf252ad1be2c89b69c2b068fc378daa952ba7f163c4a11628f55a4df523b3ef90611387908590611705565b505050565b60006112c083836040518060400160405280601e81526020017f536166654d6174683a207375627472616374696f6e206f766572666c6f77000081525061126f565b80356001600160a01b038116811461063a57600080fd5b6000602082840312156114e4578081fd5b6112c083836114bc565b60008060408385031215611500578081fd5b61150a84846114bc565b915061151984602085016114bc565b90509250929050565b600080600060608486031215611536578081fd5b833561154181611a5d565b9250602084013561155181611a5d565b929592945050506040919091013590565b60008060408385031215611574578182fd5b61157e84846114bc565b946020939093013593505050565b60006020828403121561159d578081fd5b815180151581146112c0578182fd5b6000602082840312156115bd578081fd5b5051919050565b600080604083850312156115d6578182fd5b505080516020909101519092909150565b6000602082840312156115f8578081fd5b5035919050565b60008060408385031215611611578182fd5b50508035926020909101359150565b6002811061162a57fe5b9052565b6006811061162a57fe5b60008151808452815b8181101561165d57602081850181015186830182015201611641565b8181111561166e5782602083870101525b50601f01601f19169290920160200192915050565b80518252602090810151910152565b6001600160a01b038082511683528060208301511660208401528060408301511660408401528060608301511660608401528060808301511660808401528060a08301511660a0840152505050565b8051825260208082015190830152604090810151910152565b901515815260200190565b90815260200190565b918252602082015260400190565b6000602082526112c06020830184611638565b60208082526023908201527f45524332303a207472616e7366657220746f20746865207a65726f206164647260408201526265737360e81b606082015260800190565b60208082526022908201527f45524332303a20617070726f766520746f20746865207a65726f206164647265604082015261737360f01b606082015260800190565b6020808252601b908201527f536166654d6174683a206164646974696f6e206f766572666c6f770000000000604082015260600190565b60208082526021908201527f45524332303a206275726e2066726f6d20746865207a65726f206164647265736040820152607360f81b606082015260800190565b60208082526025908201527f45524332303a207472616e736665722066726f6d20746865207a65726f206164604082015264647265737360d81b606082015260800190565b60208082526024908201527f45524332303a20617070726f76652066726f6d20746865207a65726f206164646040820152637265737360e01b606082015260800190565b6020808252601f908201527f45524332303a206d696e7420746f20746865207a65726f206164647265737300604082015260600190565b60006102e08083528e51818401525060208e015161030083015260408e015161032083015260608e015161034083015260808e015161036083015260a08e015161038083015260c08e01516119456103a0840182611620565b5060e08e01516103c0830152610100808f01516103e08401526101208f015161014061040085015261197b610420850182611638565b92505061198b602084018f611692565b8c60e08401528b81840152506119a561012083018b61162e565b886101408301526119ba6101608301896116e1565b6119c86101c08301886116e1565b856102208301526119dd610240830186611683565b836102808301526119f26102a0830184611683565b9d9c50505050505050505050505050565b9182526001600160a01b0316602082015260400190565b9283526001600160a01b03919091166020830152604082015260600190565b9283526020830191909152604082015260600190565b60ff91909116815260200190565b6001600160a01b0381168114610c3957600080fdfe45524332303a206275726e20616d6f756e7420657863656564732062616c616e636545524332303a207472616e7366657220616d6f756e7420657863656564732062616c616e636545524332303a207472616e7366657220616d6f756e74206578636565647320616c6c6f77616e636545524332303a2064656372656173656420616c6c6f77616e63652062656c6f77207a65726fa264697066735822122070575d239c83f9fd06c5931c51399ae07d96d4271d41589662db8318775653fe64736f6c63430006040033a264697066735822122094611fc1e34f3123576fe6d33c3c65ca57d36b0bfd14f95db61f4cfe30a7315864736f6c63430006040033",
  "source": "pragma solidity ^0.6.0;\n\npragma experimental ABIEncoderV2;\n\nimport \"../common/implementation/Testable.sol\";\nimport \"../common/implementation/AddressWhitelist.sol\";\nimport \"../oracle/implementation/ContractCreator.sol\";\nimport \"./TokenizedDerivative.sol\";\n\n\n/**\n * @title Contract creator for TokenizedDerivative.\n */\ncontract TokenizedDerivativeCreator is ContractCreator, Testable {\n    struct Params {\n        address priceFeedAddress;\n        uint defaultPenalty; // Percentage of mergin requirement * 10^18\n        uint supportedMove; // Expected percentage move in the underlying that the long is protected against.\n        bytes32 product;\n        uint fixedYearlyFee; // Percentage of nav * 10^18\n        uint disputeDeposit; // Percentage of mergin requirement * 10^18\n        address returnCalculator;\n        uint startingTokenPrice;\n        uint expiry;\n        address marginCurrency;\n        uint withdrawLimit; // Percentage of shortBalance * 10^18\n        TokenizedDerivativeParams.ReturnType returnType;\n        uint startingUnderlyingPrice;\n        string name;\n        string symbol;\n    }\n\n    AddressWhitelist public returnCalculatorWhitelist;\n    AddressWhitelist public marginCurrencyWhitelist;\n\n    event CreatedTokenizedDerivative(address contractAddress);\n\n    constructor(\n        address _finderAddress,\n        address _returnCalculatorWhitelist,\n        address _marginCurrencyWhitelist,\n        bool _isTest\n    ) public ContractCreator(_finderAddress) Testable(_isTest) {\n        returnCalculatorWhitelist = AddressWhitelist(_returnCalculatorWhitelist);\n        marginCurrencyWhitelist = AddressWhitelist(_marginCurrencyWhitelist);\n    }\n\n    /**\n     * @notice Creates a new instance of `TokenizedDerivative` with the provided `params`.\n     */\n    function createTokenizedDerivative(Params memory params) public returns (address derivativeAddress) {\n        TokenizedDerivative derivative = new TokenizedDerivative(_convertParams(params), params.name, params.symbol);\n\n        address[] memory parties = new address[](1);\n        parties[0] = msg.sender;\n\n        _registerContract(parties, address(derivative));\n\n        emit CreatedTokenizedDerivative(address(derivative));\n\n        return address(derivative);\n    }\n\n    // Converts createTokenizedDerivative params to TokenizedDerivative constructor params.\n    function _convertParams(Params memory params)\n        private\n        view\n        returns (TokenizedDerivativeParams.ConstructorParams memory constructorParams)\n    {\n        // Copy and verify externally provided variables.\n        constructorParams.sponsor = msg.sender;\n\n        require(returnCalculatorWhitelist.isOnWhitelist(params.returnCalculator));\n        constructorParams.returnCalculator = params.returnCalculator;\n\n        require(marginCurrencyWhitelist.isOnWhitelist(params.marginCurrency));\n        constructorParams.marginCurrency = params.marginCurrency;\n\n        constructorParams.priceFeedAddress = params.priceFeedAddress;\n        constructorParams.defaultPenalty = params.defaultPenalty;\n        constructorParams.supportedMove = params.supportedMove;\n        constructorParams.product = params.product;\n        constructorParams.fixedYearlyFee = params.fixedYearlyFee;\n        constructorParams.disputeDeposit = params.disputeDeposit;\n        constructorParams.startingTokenPrice = params.startingTokenPrice;\n        constructorParams.expiry = params.expiry;\n        constructorParams.withdrawLimit = params.withdrawLimit;\n        constructorParams.returnType = params.returnType;\n        constructorParams.startingUnderlyingPrice = params.startingUnderlyingPrice;\n\n        // Copy internal variables.\n        constructorParams.finderAddress = finderAddress;\n        constructorParams.creationTime = getCurrentTime();\n    }\n}\n",
  "sourcePath": "/home/opz/Projects/SynFiat/contracts/uma-contracts/tokenized-derivative/TokenizedDerivativeCreator.sol",
  "compiler": {
    "name": "solc",
    "version": "0.6.4+commit.1dca32f3.Emscripten.clang"
  },
  "schemaVersion": "3.2.0",
  "updatedAt": "2020-06-01T04:24:42.050Z",
  "devdoc": {
    "methods": {
      "setCurrentTime(uint256)": {
        "details": "Will revert if not running in test mode."
      }
    },
    "title": "Contract creator for TokenizedDerivative."
  },
  "userdoc": {
    "methods": {
      "createTokenizedDerivative((address,uint256,uint256,bytes32,uint256,uint256,address,uint256,uint256,address,uint256,uint8,uint256,string,string))": {
        "notice": "Creates a new instance of `TokenizedDerivative` with the provided `params`."
      },
      "getCurrentTime()": {
        "notice": "Gets the current time. Will return the last time set in `setCurrentTime` if running in test mode. Otherwise, it will return the block timestamp."
      },
      "setCurrentTime(uint256)": {
        "notice": "Sets the current time."
      }
    }
  }
}