{
  "contractName": "TokenMigrator",
  "abi": [
    {
      "inputs": [
        {
          "components": [
            {
              "internalType": "uint256",
              "name": "rawValue",
              "type": "uint256"
            }
          ],
          "internalType": "struct FixedPoint.Unsigned",
          "name": "_rate",
          "type": "tuple"
        },
        {
          "internalType": "address",
          "name": "_oldToken",
          "type": "address"
        },
        {
          "internalType": "address",
          "name": "_newToken",
          "type": "address"
        }
      ],
      "stateMutability": "nonpayable",
      "type": "constructor"
    },
    {
      "inputs": [
        {
          "internalType": "address",
          "name": "",
          "type": "address"
        }
      ],
      "name": "hasMigrated",
      "outputs": [
        {
          "internalType": "bool",
          "name": "",
          "type": "bool"
        }
      ],
      "stateMutability": "view",
      "type": "function"
    },
    {
      "inputs": [],
      "name": "newToken",
      "outputs": [
        {
          "internalType": "contract ExpandedIERC20",
          "name": "",
          "type": "address"
        }
      ],
      "stateMutability": "view",
      "type": "function"
    },
    {
      "inputs": [],
      "name": "oldToken",
      "outputs": [
        {
          "internalType": "contract ERC20Snapshot",
          "name": "",
          "type": "address"
        }
      ],
      "stateMutability": "view",
      "type": "function"
    },
    {
      "inputs": [],
      "name": "rate",
      "outputs": [
        {
          "internalType": "uint256",
          "name": "rawValue",
          "type": "uint256"
        }
      ],
      "stateMutability": "view",
      "type": "function"
    },
    {
      "inputs": [],
      "name": "snapshotId",
      "outputs": [
        {
          "internalType": "uint256",
          "name": "",
          "type": "uint256"
        }
      ],
      "stateMutability": "view",
      "type": "function"
    },
    {
      "inputs": [
        {
          "internalType": "address",
          "name": "tokenHolder",
          "type": "address"
        }
      ],
      "name": "migrateTokens",
      "outputs": [],
      "stateMutability": "nonpayable",
      "type": "function"
    }
  ],
  "bytecode": "0x608060405234801561001057600080fd5b506040516108ee3803806108ee83398101604081905261002f916101d6565b61004760008461010760201b61031d1790919060201c565b61005057600080fd5b8251600355600180546001600160a01b038084166001600160a01b0319928316179092556000805485841692169190911780825560408051634b88b8ad60e11b815290519190931692639711715a9260048083019360209390929083900390910190829087803b1580156100c357600080fd5b505af11580156100d7573d6000803e3d6000fd5b505050506040513d601f19601f820116820180604052508101906100fb9190610245565b6002555061029e915050565b600061011b826001600160e01b0361012816565b5183511190505b92915050565b6101306101ac565b604051806020016040528061015a670de0b6b3a76400008561016260201b6103b31790919060201c565b905292915050565b60008261017157506000610122565b8282028284828161017e57fe5b04146101a55760405162461bcd60e51b815260040161019c9061025d565b60405180910390fd5b9392505050565b6040518060200160405280600081525090565b80516001600160a01b038116811461012257600080fd5b600080600083850360608112156101eb578384fd5b60208112156101f8578384fd5b50604051602081016001600160401b0381118282101715610217578485fd5b60405284518152925061022d85602086016101bf565b915061023c85604086016101bf565b90509250925092565b600060208284031215610256578081fd5b5051919050565b60208082526021908201527f536166654d6174683a206d756c7469706c69636174696f6e206f766572666c6f6040820152607760f81b606082015260800190565b610641806102ad6000396000f3fe608060405234801561001057600080fd5b50600436106100725760003560e01c8063c168471111610050578063c1684711146100b2578063c42bd05a146100c7578063d7625c88146100cf57610072565b80632c4e722e146100775780632ddc79b714610095578063b31c710a1461009d575b600080fd5b61007f6100ef565b60405161008c9190610602565b60405180910390f35b61007f6100f5565b6100a56100fb565b60405161008c91906104fe565b6100c56100c036600461047b565b61010a565b005b6100a56102f9565b6100e26100dd36600461047b565b610308565b60405161008c91906104f3565b60035481565b60025481565b6000546001600160a01b031681565b6001600160a01b03811660009081526004602052604090205460ff161561014c5760405162461bcd60e51b8152600401610143906105cb565b60405180910390fd5b6001600160a01b0381166000908152600460205260409020805460ff19166001179055610177610468565b60408051602081019182905260005460025463277166bf60e11b909352909182916001600160a01b031690634ee2cd7e906101b7908790602486016104da565b60206040518083038186803b1580156101cf57600080fd5b505afa1580156101e3573d6000803e3d6000fd5b505050506040513d601f19601f8201168201806040525081019061020791906104c2565b9052905061021c81600063ffffffff61031d16565b61022657506102f6565b61022e610468565b6040805160208101909152600354815261024f90839063ffffffff61033516565b60015481516040516340c10f1960e01b81529293506001600160a01b03909116916340c10f1991610285918791906004016104da565b602060405180830381600087803b15801561029f57600080fd5b505af11580156102b3573d6000803e3d6000fd5b505050506040513d601f19601f820116820180604052508101906102d791906104a2565b6102f35760405162461bcd60e51b815260040161014390610565565b50505b50565b6001546001600160a01b031681565b60046020526000908152604090205460ff1681565b60006103288261037f565b5183511190505b92915050565b61033d610468565b60408051602081019091528251845182916103769161036a90670de0b6b3a764000063ffffffff6103b316565b9063ffffffff6103f416565b90529392505050565b610387610468565b6040805160208101909152806103ab84670de0b6b3a764000063ffffffff6103b316565b905292915050565b6000826103c25750600061032f565b828202828482816103cf57fe5b04146103ed5760405162461bcd60e51b81526004016101439061058a565b9392505050565b60006103ed83836040518060400160405280601a81526020017f536166654d6174683a206469766973696f6e206279207a65726f000000000000815250600081836104525760405162461bcd60e51b81526004016101439190610512565b50600083858161045e57fe5b0495945050505050565b6040518060200160405280600081525090565b60006020828403121561048c578081fd5b81356001600160a01b03811681146103ed578182fd5b6000602082840312156104b3578081fd5b815180151581146103ed578182fd5b6000602082840312156104d3578081fd5b5051919050565b6001600160a01b03929092168252602082015260400190565b901515815260200190565b6001600160a01b0391909116815260200190565b6000602080835283518082850152825b8181101561053e57858101830151858201604001528201610522565b8181111561054f5783604083870101525b50601f01601f1916929092016040019392505050565b6020808252600b908201526a135a5b9d0819985a5b195960aa1b604082015260600190565b60208082526021908201527f536166654d6174683a206d756c7469706c69636174696f6e206f766572666c6f6040820152607760f81b606082015260800190565b60208082526017908201527f416c7265616479206d6967726174656420746f6b656e73000000000000000000604082015260600190565b9081526020019056fea26469706673582212207e99a757b8fbf8320c19f88d413698210946e9bd1c085668e027c7ff93bdeebb64736f6c63430006040033",
  "source": "pragma solidity ^0.6.0;\n\npragma experimental ABIEncoderV2;\n\nimport \"../../common/implementation/FixedPoint.sol\";\nimport \"../../common/interfaces/ExpandedIERC20.sol\";\nimport \"@openzeppelin/contracts/drafts/ERC20Snapshot.sol\";\n\n\n/**\n * @title Migration contract for VotingTokens.\n * @dev Handles migrating token holders from one token to the next.\n */\ncontract TokenMigrator {\n    using FixedPoint for FixedPoint.Unsigned;\n\n    /****************************************\n     *    INTERNAL VARIABLES AND STORAGE    *\n     ****************************************/\n\n    ERC20Snapshot public oldToken;\n    ExpandedIERC20 public newToken;\n\n    uint public snapshotId;\n    FixedPoint.Unsigned public rate;\n\n    mapping(address => bool) public hasMigrated;\n\n    /**\n     * @notice Construct the TokenMigrator contract.\n     * @dev This function triggers the snapshot upon which all migrations will be based.\n     * @param _rate the number of old tokens it takes to generate one new token.\n     * @param _oldToken address of the token being migrated from.\n     * @param _newToken address of the token being migrated to.\n     */\n    constructor(FixedPoint.Unsigned memory _rate, address _oldToken, address _newToken) public {\n        // Prevents division by 0 in migrateTokens().\n        // Also it doesn’t make sense to have “0 old tokens equate to 1 new token”.\n        require(_rate.isGreaterThan(0));\n        rate = _rate;\n        newToken = ExpandedIERC20(_newToken);\n        oldToken = ERC20Snapshot(_oldToken);\n        snapshotId = oldToken.snapshot();\n    }\n\n    /**\n     * @notice Migrates the tokenHolder's old tokens to new tokens.\n     * @dev This function can only be called once per `tokenHolder`. Anyone can call this method\n     * on behalf of any other token holder since there is no disadvantage to receiving the tokens earlier.\n     * @param tokenHolder address of the token holder to migrate.\n     */\n    function migrateTokens(address tokenHolder) external {\n        require(!hasMigrated[tokenHolder], \"Already migrated tokens\");\n        hasMigrated[tokenHolder] = true;\n\n        FixedPoint.Unsigned memory oldBalance = FixedPoint.Unsigned(oldToken.balanceOfAt(tokenHolder, snapshotId));\n\n        if (!oldBalance.isGreaterThan(0)) {\n            return;\n        }\n\n        FixedPoint.Unsigned memory newBalance = oldBalance.div(rate);\n        require(newToken.mint(tokenHolder, newBalance.rawValue), \"Mint failed\");\n    }\n}\n",
  "sourcePath": "/home/opz/Projects/SynFiat/contracts/uma-contracts/oracle/implementation/TokenMigrator.sol",
  "compiler": {
    "name": "solc",
    "version": "0.6.4+commit.1dca32f3.Emscripten.clang"
  },
  "schemaVersion": "3.2.0",
  "updatedAt": "2020-06-01T04:24:41.859Z",
  "devdoc": {
    "details": "Handles migrating token holders from one token to the next.",
    "methods": {
      "constructor": {
        "details": "This function triggers the snapshot upon which all migrations will be based.",
        "params": {
          "_newToken": "address of the token being migrated to.",
          "_oldToken": "address of the token being migrated from.",
          "_rate": "the number of old tokens it takes to generate one new token."
        }
      },
      "migrateTokens(address)": {
        "details": "This function can only be called once per `tokenHolder`. Anyone can call this method on behalf of any other token holder since there is no disadvantage to receiving the tokens earlier.",
        "params": {
          "tokenHolder": "address of the token holder to migrate."
        }
      }
    },
    "title": "Migration contract for VotingTokens."
  },
  "userdoc": {
    "methods": {
      "constructor": "Construct the TokenMigrator contract.",
      "migrateTokens(address)": {
        "notice": "Migrates the tokenHolder's old tokens to new tokens."
      }
    }
  }
}