{
  "contractName": "TokenFactory",
  "abi": [
    {
      "inputs": [
        {
          "internalType": "string",
          "name": "tokenName",
          "type": "string"
        },
        {
          "internalType": "string",
          "name": "tokenSymbol",
          "type": "string"
        },
        {
          "internalType": "uint8",
          "name": "tokenDecimals",
          "type": "uint8"
        }
      ],
      "name": "createToken",
      "outputs": [
        {
          "internalType": "contract ExpandedIERC20",
          "name": "newToken",
          "type": "address"
        }
      ],
      "stateMutability": "nonpayable",
      "type": "function"
    }
  ],
  "bytecode": "0x608060405234801561001057600080fd5b50612029806100206000396000f3fe608060405234801561001057600080fd5b506004361061002b5760003560e01c8063e8a0aed314610030575b600080fd5b6100f56004803603606081101561004657600080fd5b81019060208101813564010000000081111561006157600080fd5b82018360208201111561007357600080fd5b8035906020019184600183028401116401000000008311171561009557600080fd5b9193909290916020810190356401000000008111156100b357600080fd5b8201836020820111156100c557600080fd5b803590602001918460018302840111640100000000831117156100e757600080fd5b91935091503560ff16610111565b604080516001600160a01b039092168252519081900360200190f35b6000808686868686604051610125906102d1565b60ff8216604082015260608082528101859052806020810160808201888880828437600083820152601f01601f1916909101848103835286815260200190508686808284376000838201819052604051601f909201601f19169093018190039a509850909650505050505050f0801580156101a4573d6000803e3d6000fd5b5060408051634c1d96ab60e11b815233600482015290519192506001600160a01b0383169163983b2d569160248082019260009290919082900301818387803b1580156101f057600080fd5b505af1158015610204573d6000803e3d6000fd5b505060408051637a231bdd60e11b815233600482015290516001600160a01b038516935063f44637ba9250602480830192600092919082900301818387803b15801561024f57600080fd5b505af1158015610263573d6000803e3d6000fd5b5050604080516339e6401560e11b815233600482015290516001600160a01b03851693506373cc802a9250602480830192600092919082900301818387803b1580156102ae57600080fd5b505af11580156102c2573d6000803e3d6000fd5b50929998505050505050505050565b611d15806102df8339019056fe60806040523480156200001157600080fd5b5060405162001d1538038062001d15833981810160405260608110156200003757600080fd5b81019080805160405193929190846401000000008211156200005857600080fd5b9083019060208201858111156200006e57600080fd5b82516401000000008111828201881017156200008957600080fd5b82525081516020918201929091019080838360005b83811015620000b85781810151838201526020016200009e565b50505050905090810190601f168015620000e65780820380516001836020036101000a031916815260200191505b50604052602001805160405193929190846401000000008211156200010a57600080fd5b9083019060208201858111156200012057600080fd5b82516401000000008111828201881017156200013b57600080fd5b82525081516020918201929091019080838360005b838110156200016a57818101518382015260200162000150565b50505050905090810190601f168015620001985780820380516001836020036101000a031916815260200191505b506040526020015191508390508282620001be600080336001600160e01b036200023316565b620001db60015b604080516000808252602082019092526200034e565b620001e76002620001c5565b8251620001fc90600490602086019062000544565b5081516200021290600590602085019062000544565b506006805460ff191660ff9290921691909117905550620005e99350505050565b826000808281526003602052604090206001015460ff1660028111156200025657fe5b14620002a9576040805162461bcd60e51b815260206004820152601e60248201527f43616e6e6f74207573652061207072652d6578697374696e6720726f6c650000604482015290519081900360640190fd5b60008481526003602052604090206001808201805460ff191682800217905550838155620002e7600282018462000461602090811b6200140c17901c565b60008481526003602052604081206001015460ff1660028111156200030857fe5b1415620003475760405162461bcd60e51b815260040180806020018281038252603c81526020018062001c7e603c913960400191505060405180910390fd5b5050505050565b826000808281526003602052604090206001015460ff1660028111156200037157fe5b14620003c4576040805162461bcd60e51b815260206004820152601e60248201527f43616e6e6f74207573652061207072652d6578697374696e6720726f6c650000604482015290519081900360640190fd5b600084815260036020818152604090922060018101805460ff191660021790558581559162000401918301908590620014166200047a821b17901c565b60008481526003602052604081206001015460ff1660028111156200042257fe5b1415620003475760405162461bcd60e51b815260040180806020018281038252603881526020018062001cdd6038913960400191505060405180910390fd5b6200047682826001600160e01b03620004bb16565b5050565b60005b8151811015620004b657620004ad838383815181106200049957fe5b60200260200101516200051f60201b60201c565b6001016200047d565b505050565b6001600160a01b038116620005025760405162461bcd60e51b815260040180806020018281038252602381526020018062001cba6023913960400191505060405180910390fd5b81546001600160a01b0319166001600160a01b0391909116179055565b6001600160a01b0316600090815260209190915260409020805460ff19166001179055565b828054600181600116156101000203166002900490600052602060002090601f016020900481019282601f106200058757805160ff1916838001178555620005b7565b82800160010185558215620005b7579182015b82811115620005b75782518255916020019190600101906200059a565b50620005c5929150620005c9565b5090565b620005e691905b80821115620005c55760008155600101620005d0565b90565b61168580620005f96000396000f3fe608060405234801561001057600080fd5b50600436106101a35760003560e01c806370a08231116100ee578063a457c2d711610097578063ab3545e511610071578063ab3545e514610538578063d97c05be14610571578063dd62ed3e1461059d578063f44637ba146105cb576101a3565b8063a457c2d7146104ba578063a9059cbb146104e6578063aa271e1a14610512576101a3565b80637cdc1cb9116100c85780637cdc1cb91461046057806395d89b411461048c578063983b2d5614610494576101a3565b806370a08231146103e857806373cc802a1461040e57806374d0a67614610434576101a3565b8063313ce5671161015057806342966c681161012a57806342966c68146103795780634334614a146103965780636be7658b146103bc576101a3565b8063313ce56714610303578063395093511461032157806340c10f191461034d576101a3565b806318160ddd1161018157806318160ddd1461028d57806323b872dd146102a75780633092afd5146102dd576101a3565b806302846858146101a857806306fdde03146101d0578063095ea7b31461024d575b600080fd5b6101ce600480360360208110156101be57600080fd5b50356001600160a01b03166105f1565b005b6101d8610600565b6040805160208082528351818301528351919283929083019185019080838360005b838110156102125781810151838201526020016101fa565b50505050905090810190601f16801561023f5780820380516001836020036101000a031916815260200191505b509250505060405180910390f35b6102796004803603604081101561026357600080fd5b506001600160a01b038135169060200135610696565b604080519115158252519081900360200190f35b6102956106b4565b60408051918252519081900360200190f35b610279600480360360608110156102bd57600080fd5b506001600160a01b038135811691602081013590911690604001356106ba565b6101ce600480360360208110156102f357600080fd5b50356001600160a01b0316610747565b61030b610751565b6040805160ff9092168252519081900360200190f35b6102796004803603604081101561033757600080fd5b506001600160a01b03813516906020013561075a565b6102796004803603604081101561036357600080fd5b506001600160a01b0381351690602001356107ae565b6101ce6004803603602081101561038f57600080fd5b5035610801565b610279600480360360208110156103ac57600080fd5b50356001600160a01b0316610856565b6101ce600480360360408110156103d257600080fd5b50803590602001356001600160a01b0316610864565b610295600480360360208110156103fe57600080fd5b50356001600160a01b0316610941565b6101ce6004803603602081101561042457600080fd5b50356001600160a01b031661095c565b6101ce6004803603604081101561044a57600080fd5b50803590602001356001600160a01b0316610967565b6102796004803603604081101561047657600080fd5b50803590602001356001600160a01b0316610a3e565b6101d8610afc565b6101ce600480360360208110156104aa57600080fd5b50356001600160a01b0316610b5d565b610279600480360360408110156104d057600080fd5b506001600160a01b038135169060200135610b69565b610279600480360360408110156104fc57600080fd5b506001600160a01b038135169060200135610bd7565b6102796004803603602081101561052857600080fd5b50356001600160a01b0316610beb565b6105556004803603602081101561054e57600080fd5b5035610bf7565b604080516001600160a01b039092168252519081900360200190f35b6101ce6004803603604081101561058757600080fd5b50803590602001356001600160a01b0316610c79565b610295600480360360408110156105b357600080fd5b506001600160a01b0381358116916020013516610d4f565b6101ce600480360360208110156105e157600080fd5b50356001600160a01b0316610d7a565b6105fd60025b82610864565b50565b60048054604080516020601f600260001961010060018816150201909516949094049384018190048102820181019092528281526060939092909183018282801561068c5780601f106106615761010080835404028352916020019161068c565b820191906000526020600020905b81548152906001019060200180831161066f57829003601f168201915b5050505050905090565b60006106aa6106a3610d84565b8484610d88565b5060015b92915050565b60025490565b60006106c7848484610e74565b61073d846106d3610d84565b61073885604051806060016040528060288152602001611552602891396001600160a01b038a16600090815260016020526040812090610711610d84565b6001600160a01b03168152602081019190915260400160002054919063ffffffff610fdb16565b610d88565b5060019392505050565b6105fd60016105f7565b60065460ff1690565b60006106aa610767610d84565b846107388560016000610778610d84565b6001600160a01b03908116825260208083019390935260409182016000908120918c16815292529020549063ffffffff61107216565b600060016107bc8133610a3e565b6107f75760405162461bcd60e51b81526004018080602001828103825260228152602001806115306022913960400191505060405180910390fd5b61073d84846110cc565b600261080d8133610a3e565b6108485760405162461bcd60e51b81526004018080602001828103825260228152602001806115306022913960400191505060405180910390fd5b61085233836111c8565b5050565b60006106ae60025b83610a3e565b81600260008281526003602052604090206001015460ff16600281111561088757fe5b146108c35760405162461bcd60e51b815260040180806020018281038252602c815260200180611504602c913960400191505060405180910390fd5b60008381526003602052604090205483906108de9033610a3e565b6109195760405162461bcd60e51b81526004018080602001828103825260248152602001806116076024913960400191505060405180910390fd5b600084815260036020819052604090912061093b91018463ffffffff6112d016565b50505050565b6001600160a01b031660009081526020819052604090205490565b6105fd600082610c79565b81600260008281526003602052604090206001015460ff16600281111561098a57fe5b146109c65760405162461bcd60e51b815260040180806020018281038252602c815260200180611504602c913960400191505060405180910390fd5b60008381526003602052604090205483906109e19033610a3e565b610a1c5760405162461bcd60e51b81526004018080602001828103825260248152602001806116076024913960400191505060405180910390fd5b600084815260036020819052604090912061093b91018463ffffffff6112f216565b600082815260036020526040812060018082015460ff166002811115610a6057fe5b1415610a8157610a79600282018463ffffffff61131716565b9150506106ae565b6002600182015460ff166002811115610a9657fe5b1415610aaf57610a79600382018463ffffffff61132a16565b6040805162461bcd60e51b815260206004820152600e60248201527f496e76616c696420726f6c654964000000000000000000000000000000000000604482015290519081900360640190fd5b60058054604080516020601f600260001961010060018816150201909516949094049384018190048102820181019092528281526060939092909183018282801561068c5780601f106106615761010080835404028352916020019161068c565b6105fd60015b82610967565b60006106aa610b76610d84565b846107388560405180606001604052806025815260200161162b6025913960016000610ba0610d84565b6001600160a01b03908116825260208083019390935260409182016000908120918d1681529252902054919063ffffffff610fdb16565b60006106aa610be4610d84565b8484610e74565b60006106ae600161085e565b600081600160008281526003602052604090206001015460ff166002811115610c1c57fe5b14610c585760405162461bcd60e51b815260040180806020018281038252602f8152602001806114d5602f913960400191505060405180910390fd5b6000838152600360205260409020610c7290600201611349565b9392505050565b81600160008281526003602052604090206001015460ff166002811115610c9c57fe5b14610cd85760405162461bcd60e51b815260040180806020018281038252602f8152602001806114d5602f913960400191505060405180910390fd5b6000838152600360205260409020548390610cf39033610a3e565b610d2e5760405162461bcd60e51b81526004018080602001828103825260248152602001806116076024913960400191505060405180910390fd5b600084815260036020526040902061093b906002018463ffffffff61135616565b6001600160a01b03918216600090815260016020908152604080832093909416825291909152205490565b6105fd6002610b63565b3390565b6001600160a01b038316610dcd5760405162461bcd60e51b81526004018080602001828103825260248152602001806115e36024913960400191505060405180910390fd5b6001600160a01b038216610e125760405162461bcd60e51b815260040180806020018281038252602281526020018061148d6022913960400191505060405180910390fd5b6001600160a01b03808416600081815260016020908152604080832094871680845294825291829020859055815185815291517f8c5be1e5ebec7d5bd14f71427d1e84f3dd0314c0f7b2291e5b200ac8c7c3b9259281900390910190a3505050565b6001600160a01b038316610eb95760405162461bcd60e51b81526004018080602001828103825260258152602001806115be6025913960400191505060405180910390fd5b6001600160a01b038216610efe5760405162461bcd60e51b81526004018080602001828103825260238152602001806114486023913960400191505060405180910390fd5b610f098383836113c5565b610f4c816040518060600160405280602681526020016114af602691396001600160a01b038616600090815260208190526040902054919063ffffffff610fdb16565b6001600160a01b038085166000908152602081905260408082209390935590841681522054610f81908263ffffffff61107216565b6001600160a01b038084166000818152602081815260409182902094909455805185815290519193928716927fddf252ad1be2c89b69c2b068fc378daa952ba7f163c4a11628f55a4df523b3ef92918290030190a3505050565b6000818484111561106a5760405162461bcd60e51b81526004018080602001828103825283818151815260200191508051906020019080838360005b8381101561102f578181015183820152602001611017565b50505050905090810190601f16801561105c5780820380516001836020036101000a031916815260200191505b509250505060405180910390fd5b505050900390565b600082820183811015610c72576040805162461bcd60e51b815260206004820152601b60248201527f536166654d6174683a206164646974696f6e206f766572666c6f770000000000604482015290519081900360640190fd5b6001600160a01b038216611127576040805162461bcd60e51b815260206004820152601f60248201527f45524332303a206d696e7420746f20746865207a65726f206164647265737300604482015290519081900360640190fd5b611133600083836113c5565b600254611146908263ffffffff61107216565b6002556001600160a01b038216600090815260208190526040902054611172908263ffffffff61107216565b6001600160a01b0383166000818152602081815260408083209490945583518581529351929391927fddf252ad1be2c89b69c2b068fc378daa952ba7f163c4a11628f55a4df523b3ef9281900390910190a35050565b6001600160a01b03821661120d5760405162461bcd60e51b815260040180806020018281038252602181526020018061157a6021913960400191505060405180910390fd5b611219826000836113c5565b61125c8160405180606001604052806022815260200161146b602291396001600160a01b038516600090815260208190526040902054919063ffffffff610fdb16565b6001600160a01b038316600090815260208190526040902055600254611288908263ffffffff6113ca16565b6002556040805182815290516000916001600160a01b038516917fddf252ad1be2c89b69c2b068fc378daa952ba7f163c4a11628f55a4df523b3ef9181900360200190a35050565b6001600160a01b0316600090815260209190915260409020805460ff19169055565b6001600160a01b0316600090815260209190915260409020805460ff19166001179055565b90546001600160a01b0391821691161490565b6001600160a01b03166000908152602091909152604090205460ff1690565b546001600160a01b031690565b6001600160a01b03811661139b5760405162461bcd60e51b815260040180806020018281038252602381526020018061159b6023913960400191505060405180910390fd5b815473ffffffffffffffffffffffffffffffffffffffff19166001600160a01b0391909116179055565b505050565b6000610c7283836040518060400160405280601e81526020017f536166654d6174683a207375627472616374696f6e206f766572666c6f770000815250610fdb565b6108528282611356565b60005b81518110156113c55761143f8383838151811061143257fe5b60200260200101516112f2565b60010161141956fe45524332303a207472616e7366657220746f20746865207a65726f206164647265737345524332303a206275726e20616d6f756e7420657863656564732062616c616e636545524332303a20617070726f766520746f20746865207a65726f206164647265737345524332303a207472616e7366657220616d6f756e7420657863656564732062616c616e63654d7573742062652063616c6c6564206f6e20616e20696e697469616c697a6564204578636c757369766520726f6c654d7573742062652063616c6c6564206f6e20616e20696e697469616c697a65642053686172656420726f6c6553656e64657220646f6573206e6f7420686f6c6420726571756972656420726f6c6545524332303a207472616e7366657220616d6f756e74206578636565647320616c6c6f77616e636545524332303a206275726e2066726f6d20746865207a65726f206164647265737343616e6e6f742073657420616e206578636c757369766520726f6c6520746f2030783045524332303a207472616e736665722066726f6d20746865207a65726f206164647265737345524332303a20617070726f76652066726f6d20746865207a65726f206164647265737343616e206f6e6c792062652063616c6c6564206279206120726f6c65206d616e6167657245524332303a2064656372656173656420616c6c6f77616e63652062656c6f77207a65726fa26469706673582212208b56d49d7f8bbe3a99ded0a6b4a36fb564ce010de3ef389af6c87c45d8b8905c64736f6c63430006040033417474656d7074656420746f2075736520616e20696e76616c696420726f6c6520746f206d616e61676520616e206578636c757369766520726f6c6543616e6e6f742073657420616e206578636c757369766520726f6c6520746f20307830417474656d7074656420746f2075736520616e20696e76616c696420726f6c6520746f206d616e61676520612073686172656420726f6c65a26469706673582212201a5904e91abe145facf16268aa656a9dec3b3d83713f55a2fd0ad3025992644564736f6c63430006040033",
  "source": "pragma solidity ^0.6.0;\nimport \"./SyntheticToken.sol\";\nimport \"../../common/interfaces/ExpandedIERC20.sol\";\n\n\n/**\n * @title Factory for creating new mintable and burnable tokens.\n */\n\ncontract TokenFactory {\n    /**\n     * @notice Create a new token and return to the caller.\n     * @dev The caller will become the only minter and burner and the new owner capable of adding new roles.\n     * @param tokenName used to describe the new token.\n     * @param tokenSymbol short ticker abbreviation of the name. Ideally < 5 chars.\n     * @param tokenDecimals used to define the precision used in the tokens numerical representation.\n     * @return newToken an instance of the newly created token interface.\n     */\n    function createToken(string calldata tokenName, string calldata tokenSymbol, uint8 tokenDecimals)\n        external\n        returns (ExpandedIERC20 newToken)\n    {\n        SyntheticToken mintableToken = new SyntheticToken(tokenName, tokenSymbol, tokenDecimals);\n        mintableToken.addMinter(msg.sender);\n        mintableToken.addBurner(msg.sender);\n        mintableToken.resetOwner(msg.sender);\n        newToken = ExpandedIERC20(address(mintableToken));\n    }\n}\n",
  "sourcePath": "/home/opz/Projects/SynFiat/contracts/uma-contracts/financial-templates/implementation/TokenFactory.sol",
  "compiler": {
    "name": "solc",
    "version": "0.6.4+commit.1dca32f3.Emscripten.clang"
  },
  "schemaVersion": "3.2.0",
  "updatedAt": "2020-06-01T04:24:41.827Z",
  "devdoc": {
    "methods": {
      "createToken(string,string,uint8)": {
        "details": "The caller will become the only minter and burner and the new owner capable of adding new roles.",
        "params": {
          "tokenDecimals": "used to define the precision used in the tokens numerical representation.",
          "tokenName": "used to describe the new token.",
          "tokenSymbol": "short ticker abbreviation of the name. Ideally < 5 chars."
        },
        "returns": {
          "newToken": "an instance of the newly created token interface."
        }
      }
    },
    "title": "Factory for creating new mintable and burnable tokens."
  },
  "userdoc": {
    "methods": {
      "createToken(string,string,uint8)": {
        "notice": "Create a new token and return to the caller."
      }
    }
  }
}