{
  "contractName": "TokenMigrator",
  "abi": [
    {
      "inputs": [
        {
          "components": [
            {
              "internalType": "uint256",
              "name": "rawValue",
              "type": "uint256"
            }
          ],
          "internalType": "struct FixedPoint.Unsigned",
          "name": "_rate",
          "type": "tuple"
        },
        {
          "internalType": "address",
          "name": "_oldToken",
          "type": "address"
        },
        {
          "internalType": "address",
          "name": "_newToken",
          "type": "address"
        }
      ],
      "stateMutability": "nonpayable",
      "type": "constructor"
    },
    {
      "inputs": [
        {
          "internalType": "address",
          "name": "",
          "type": "address"
        }
      ],
      "name": "hasMigrated",
      "outputs": [
        {
          "internalType": "bool",
          "name": "",
          "type": "bool"
        }
      ],
      "stateMutability": "view",
      "type": "function"
    },
    {
      "inputs": [],
      "name": "newToken",
      "outputs": [
        {
          "internalType": "contract ExpandedIERC20",
          "name": "",
          "type": "address"
        }
      ],
      "stateMutability": "view",
      "type": "function"
    },
    {
      "inputs": [],
      "name": "oldToken",
      "outputs": [
        {
          "internalType": "contract VotingToken",
          "name": "",
          "type": "address"
        }
      ],
      "stateMutability": "view",
      "type": "function"
    },
    {
      "inputs": [],
      "name": "rate",
      "outputs": [
        {
          "internalType": "uint256",
          "name": "rawValue",
          "type": "uint256"
        }
      ],
      "stateMutability": "view",
      "type": "function"
    },
    {
      "inputs": [],
      "name": "snapshotId",
      "outputs": [
        {
          "internalType": "uint256",
          "name": "",
          "type": "uint256"
        }
      ],
      "stateMutability": "view",
      "type": "function"
    },
    {
      "inputs": [
        {
          "internalType": "address",
          "name": "tokenHolder",
          "type": "address"
        }
      ],
      "name": "migrateTokens",
      "outputs": [],
      "stateMutability": "nonpayable",
      "type": "function"
    }
  ],
  "bytecode": "0x60806040523480156200001157600080fd5b5060405162000aca38038062000aca833981016040819052620000349162000207565b6200004f6000846200013360201b620003ef1790919060201c565b620000775760405162461bcd60e51b81526004016200006e9062000296565b60405180910390fd5b8251600355600180546001600160a01b038084166001600160a01b0319928316179092556000805485841692169190911780825560408051634b88b8ad60e11b815290519190931692639711715a9260048083019360209390929083900390910190829087803b158015620000eb57600080fd5b505af115801562000100573d6000803e3d6000fd5b505050506040513d601f19601f820116820180604052508101906200012691906200027d565b6002555062000300915050565b600062000149826001600160e01b036200015616565b5183511190505b92915050565b62000160620001dc565b60405180602001604052806200018d670de0b6b3a7640000856200019560201b620004071790919060201c565b905292915050565b600082620001a65750600062000150565b82820282848281620001b457fe5b0414620001d55760405162461bcd60e51b81526004016200006e90620002bf565b9392505050565b6040518060200160405280600081525090565b80516001600160a01b03811681146200015057600080fd5b600080600083850360608112156200021d578384fd5b60208112156200022b578384fd5b50604051602081016001600160401b03811182821017156200024b578485fd5b604052845181529250620002638560208601620001ef565b9150620002748560408601620001ef565b90509250925092565b6000602082840312156200028f578081fd5b5051919050565b6020808252600f908201526e0526174652063616e2774206265203608c1b604082015260600190565b60208082526021908201527f536166654d6174683a206d756c7469706c69636174696f6e206f766572666c6f6040820152607760f81b606082015260800190565b6107ba80620003106000396000f3fe608060405234801561001057600080fd5b50600436106100725760003560e01c8063c168471111610050578063c1684711146100b2578063c42bd05a146100c7578063d7625c88146100cf57610072565b80632c4e722e146100775780632ddc79b714610095578063b31c710a1461009d575b600080fd5b61007f6100ef565b60405161008c919061077b565b60405180910390f35b61007f6100f5565b6100a56100fb565b60405161008c919061061e565b6100c56100c0366004610581565b610117565b005b6100a56103be565b6100e26100dd366004610581565b6103da565b60405161008c9190610613565b60035481565b60025481565b60005473ffffffffffffffffffffffffffffffffffffffff1681565b73ffffffffffffffffffffffffffffffffffffffff811660009081526004602052604090205460ff1615610180576040517f08c379a000000000000000000000000000000000000000000000000000000000815260040161017790610744565b60405180910390fd5b73ffffffffffffffffffffffffffffffffffffffff8116600090815260046020526040902080547fffffffffffffffffffffffffffffffffffffffffffffffffffffffffffffff001660011790556101d661056e565b6040805160208101918290526000546002547f4ee2cd7e000000000000000000000000000000000000000000000000000000009093529091829173ffffffffffffffffffffffffffffffffffffffff1690634ee2cd7e9061023c908790602486016105ed565b60206040518083038186803b15801561025457600080fd5b505afa158015610268573d6000803e3d6000fd5b505050506040513d601f19601f8201168201806040525081019061028c91906105d5565b905290506102a181600063ffffffff6103ef16565b6102ab57506103bb565b6102b361056e565b604080516020810190915260035481526102d490839063ffffffff61046216565b60015481516040517f40c10f1900000000000000000000000000000000000000000000000000000000815292935073ffffffffffffffffffffffffffffffffffffffff909116916340c10f1991610330918791906004016105ed565b602060405180830381600087803b15801561034a57600080fd5b505af115801561035e573d6000803e3d6000fd5b505050506040513d601f19601f8201168201806040525081019061038291906105b5565b6103b8576040517f08c379a0000000000000000000000000000000000000000000000000000000008152600401610177906106b0565b50505b50565b60015473ffffffffffffffffffffffffffffffffffffffff1681565b60046020526000908152604090205460ff1681565b60006103fa826104ac565b5183511190505b92915050565b60008261041657506000610401565b8282028284828161042357fe5b041461045b576040517f08c379a0000000000000000000000000000000000000000000000000000000008152600401610177906106e7565b9392505050565b61046a61056e565b60408051602081019091528251845182916104a39161049790670de0b6b3a764000063ffffffff61040716565b9063ffffffff6104e016565b90529392505050565b6104b461056e565b6040805160208101909152806104d884670de0b6b3a764000063ffffffff61040716565b905292915050565b600061045b83836040518060400160405280601a81526020017f536166654d6174683a206469766973696f6e206279207a65726f00000000000081525060008183610558576040517f08c379a0000000000000000000000000000000000000000000000000000000008152600401610177919061063f565b50600083858161056457fe5b0495945050505050565b6040518060200160405280600081525090565b600060208284031215610592578081fd5b813573ffffffffffffffffffffffffffffffffffffffff8116811461045b578182fd5b6000602082840312156105c6578081fd5b8151801515811461045b578182fd5b6000602082840312156105e6578081fd5b5051919050565b73ffffffffffffffffffffffffffffffffffffffff929092168252602082015260400190565b901515815260200190565b73ffffffffffffffffffffffffffffffffffffffff91909116815260200190565b6000602080835283518082850152825b8181101561066b5785810183015185820160400152820161064f565b8181111561067c5783604083870101525b50601f017fffffffffffffffffffffffffffffffffffffffffffffffffffffffffffffffe016929092016040019392505050565b6020808252600b908201527f4d696e74206661696c6564000000000000000000000000000000000000000000604082015260600190565b60208082526021908201527f536166654d6174683a206d756c7469706c69636174696f6e206f766572666c6f60408201527f7700000000000000000000000000000000000000000000000000000000000000606082015260800190565b60208082526017908201527f416c7265616479206d6967726174656420746f6b656e73000000000000000000604082015260600190565b9081526020019056fea2646970667358221220859f7475a3816d25b6828afd52a4f19ce6168c03ad2510df3551da951823dfaa64736f6c634300060a0033",
  "immutableReferences": {},
  "source": "pragma solidity ^0.6.0;\n\npragma experimental ABIEncoderV2;\n\nimport \"../../common/implementation/FixedPoint.sol\";\nimport \"../../common/interfaces/ExpandedIERC20.sol\";\nimport \"./VotingToken.sol\";\n\n\n/**\n * @title Migration contract for VotingTokens.\n * @dev Handles migrating token holders from one token to the next.\n */\ncontract TokenMigrator {\n    using FixedPoint for FixedPoint.Unsigned;\n\n    /****************************************\n     *    INTERNAL VARIABLES AND STORAGE    *\n     ****************************************/\n\n    VotingToken public oldToken;\n    ExpandedIERC20 public newToken;\n\n    uint256 public snapshotId;\n    FixedPoint.Unsigned public rate;\n\n    mapping(address => bool) public hasMigrated;\n\n    /**\n     * @notice Construct the TokenMigrator contract.\n     * @dev This function triggers the snapshot upon which all migrations will be based.\n     * @param _rate the number of old tokens it takes to generate one new token.\n     * @param _oldToken address of the token being migrated from.\n     * @param _newToken address of the token being migrated to.\n     */\n    constructor(\n        FixedPoint.Unsigned memory _rate,\n        address _oldToken,\n        address _newToken\n    ) public {\n        // Prevents division by 0 in migrateTokens().\n        // Also it doesn’t make sense to have “0 old tokens equate to 1 new token”.\n        require(_rate.isGreaterThan(0), \"Rate can't be 0\");\n        rate = _rate;\n        newToken = ExpandedIERC20(_newToken);\n        oldToken = VotingToken(_oldToken);\n        snapshotId = oldToken.snapshot();\n    }\n\n    /**\n     * @notice Migrates the tokenHolder's old tokens to new tokens.\n     * @dev This function can only be called once per `tokenHolder`. Anyone can call this method\n     * on behalf of any other token holder since there is no disadvantage to receiving the tokens earlier.\n     * @param tokenHolder address of the token holder to migrate.\n     */\n    function migrateTokens(address tokenHolder) external {\n        require(!hasMigrated[tokenHolder], \"Already migrated tokens\");\n        hasMigrated[tokenHolder] = true;\n\n        FixedPoint.Unsigned memory oldBalance = FixedPoint.Unsigned(oldToken.balanceOfAt(tokenHolder, snapshotId));\n\n        if (!oldBalance.isGreaterThan(0)) {\n            return;\n        }\n\n        FixedPoint.Unsigned memory newBalance = oldBalance.div(rate);\n        require(newToken.mint(tokenHolder, newBalance.rawValue), \"Mint failed\");\n    }\n}\n",
  "sourcePath": "/home/alessandrovm/JarvisLavoro/SynFiat/packages/contracts/contracts/uma-contracts/oracle/implementation/TokenMigrator.sol",
  "compiler": {
    "name": "solc",
    "version": "0.6.10+commit.00c0fcaf.Emscripten.clang"
  },
  "schemaVersion": "3.2.5",
  "updatedAt": "2020-10-19T18:33:22.409Z",
  "devdoc": {
    "details": "Handles migrating token holders from one token to the next.",
    "methods": {
      "constructor": {
        "details": "This function triggers the snapshot upon which all migrations will be based.",
        "params": {
          "_newToken": "address of the token being migrated to.",
          "_oldToken": "address of the token being migrated from.",
          "_rate": "the number of old tokens it takes to generate one new token."
        }
      },
      "migrateTokens(address)": {
        "details": "This function can only be called once per `tokenHolder`. Anyone can call this method on behalf of any other token holder since there is no disadvantage to receiving the tokens earlier.",
        "params": {
          "tokenHolder": "address of the token holder to migrate."
        }
      }
    },
    "title": "Migration contract for VotingTokens."
  },
  "userdoc": {
    "methods": {
      "constructor": "Construct the TokenMigrator contract.",
      "migrateTokens(address)": {
        "notice": "Migrates the tokenHolder's old tokens to new tokens."
      },
      "oldToken()": {
        "notice": "**************************************    INTERNAL VARIABLES AND STORAGE    ****************************************"
      }
    }
  }
}