{
  "contractName": "TokenizedDerivativeCreator",
  "abi": [
    {
      "inputs": [
        {
          "internalType": "address",
          "name": "_finderAddress",
          "type": "address"
        },
        {
          "internalType": "address",
          "name": "_returnCalculatorWhitelist",
          "type": "address"
        },
        {
          "internalType": "address",
          "name": "_marginCurrencyWhitelist",
          "type": "address"
        },
        {
          "internalType": "bool",
          "name": "_isTest",
          "type": "bool"
        }
      ],
      "stateMutability": "nonpayable",
      "type": "constructor"
    },
    {
      "anonymous": false,
      "inputs": [
        {
          "indexed": false,
          "internalType": "address",
          "name": "contractAddress",
          "type": "address"
        }
      ],
      "name": "CreatedTokenizedDerivative",
      "type": "event"
    },
    {
      "inputs": [],
      "name": "getCurrentTime",
      "outputs": [
        {
          "internalType": "uint256",
          "name": "",
          "type": "uint256"
        }
      ],
      "stateMutability": "view",
      "type": "function"
    },
    {
      "inputs": [],
      "name": "isTest",
      "outputs": [
        {
          "internalType": "bool",
          "name": "",
          "type": "bool"
        }
      ],
      "stateMutability": "view",
      "type": "function"
    },
    {
      "inputs": [],
      "name": "marginCurrencyWhitelist",
      "outputs": [
        {
          "internalType": "contract AddressWhitelist",
          "name": "",
          "type": "address"
        }
      ],
      "stateMutability": "view",
      "type": "function"
    },
    {
      "inputs": [],
      "name": "returnCalculatorWhitelist",
      "outputs": [
        {
          "internalType": "contract AddressWhitelist",
          "name": "",
          "type": "address"
        }
      ],
      "stateMutability": "view",
      "type": "function"
    },
    {
      "inputs": [
        {
          "internalType": "uint256",
          "name": "_time",
          "type": "uint256"
        }
      ],
      "name": "setCurrentTime",
      "outputs": [],
      "stateMutability": "nonpayable",
      "type": "function"
    },
    {
      "inputs": [
        {
          "components": [
            {
              "internalType": "address",
              "name": "priceFeedAddress",
              "type": "address"
            },
            {
              "internalType": "uint256",
              "name": "defaultPenalty",
              "type": "uint256"
            },
            {
              "internalType": "uint256",
              "name": "supportedMove",
              "type": "uint256"
            },
            {
              "internalType": "bytes32",
              "name": "product",
              "type": "bytes32"
            },
            {
              "internalType": "uint256",
              "name": "fixedYearlyFee",
              "type": "uint256"
            },
            {
              "internalType": "uint256",
              "name": "disputeDeposit",
              "type": "uint256"
            },
            {
              "internalType": "address",
              "name": "returnCalculator",
              "type": "address"
            },
            {
              "internalType": "uint256",
              "name": "startingTokenPrice",
              "type": "uint256"
            },
            {
              "internalType": "uint256",
              "name": "expiry",
              "type": "uint256"
            },
            {
              "internalType": "address",
              "name": "marginCurrency",
              "type": "address"
            },
            {
              "internalType": "uint256",
              "name": "withdrawLimit",
              "type": "uint256"
            },
            {
              "internalType": "enum TokenizedDerivativeParams.ReturnType",
              "name": "returnType",
              "type": "uint8"
            },
            {
              "internalType": "uint256",
              "name": "startingUnderlyingPrice",
              "type": "uint256"
            },
            {
              "internalType": "string",
              "name": "name",
              "type": "string"
            },
            {
              "internalType": "string",
              "name": "symbol",
              "type": "string"
            }
          ],
          "internalType": "struct TokenizedDerivativeCreator.Params",
          "name": "params",
          "type": "tuple"
        }
      ],
      "name": "createTokenizedDerivative",
      "outputs": [
        {
          "internalType": "address",
          "name": "derivativeAddress",
          "type": "address"
        }
      ],
      "stateMutability": "nonpayable",
      "type": "function"
    }
  ],
  "bytecode": "0x608060405234801561001057600080fd5b5060405161335a38038061335a83398101604081905261002f916100bf565b600080546001600160a01b0319166001600160a01b0386161760ff60a01b1916600160a01b831580159190910291909117909155819061006e57426001555b5050600280546001600160a01b039384166001600160a01b031991821617909155600380549290931691161790555061011b565b80516001600160a01b03811681146100b957600080fd5b92915050565b600080600080608085870312156100d4578384fd5b6100de86866100a2565b93506100ed86602087016100a2565b92506100fc86604087016100a2565b915060608501518015158114610110578182fd5b939692955090935050565b6132308061012a6000396000f3fe60806040523480156200001157600080fd5b50600436106200007c5760003560e01c80639381a34511620000575780639381a34514620000d5578063966a67dd14620000ee578063aec2384914620000f8576200007c565b806322f8e566146200008157806329cb924d146200009a578063415b725114620000bc575b600080fd5b6200009862000092366004620009ab565b6200010f565b005b620000a46200013c565b604051620000b3919062000afe565b60405180910390f35b620000c662000171565b604051620000b3919062000a59565b620000df6200018d565b604051620000b3919062000af3565b620000c6620001ae565b620000c66200010936600462000852565b620001ca565b60005474010000000000000000000000000000000000000000900460ff166200013757600080fd5b600155565b6000805474010000000000000000000000000000000000000000900460ff16156200016b57506001546200016e565b50425b90565b60035473ffffffffffffffffffffffffffffffffffffffff1681565b60005474010000000000000000000000000000000000000000900460ff1681565b60025473ffffffffffffffffffffffffffffffffffffffff1681565b600080620001d883620002d9565b836101a00151846101c00151604051620001f290620006ca565b620002009392919062000b07565b604051809103906000f0801580156200021d573d6000803e3d6000fd5b50604080516001808252818301909252919250606091906020808301908036833701905050905033816000815181106200025357fe5b602002602001019073ffffffffffffffffffffffffffffffffffffffff16908173ffffffffffffffffffffffffffffffffffffffff168152505062000299818362000565565b7ff662f8b1426e949f451eda394771fcd3d09da20372cd77bfc715e2dc6affbf9282604051620002ca919062000a59565b60405180910390a15092915050565b620002e3620006d8565b33815260025460c08301516040517f3a3ab67200000000000000000000000000000000000000000000000000000000815273ffffffffffffffffffffffffffffffffffffffff90921691633a3ab67291620003419160040162000a59565b60206040518083038186803b1580156200035a57600080fd5b505afa1580156200036f573d6000803e3d6000fd5b505050506040513d601f19601f8201168201806040525081019062000395919062000830565b6200039f57600080fd5b60c082015173ffffffffffffffffffffffffffffffffffffffff9081166101008301526003546101208401516040517f3a3ab6720000000000000000000000000000000000000000000000000000000081529190921691633a3ab672916200040b919060040162000a59565b60206040518083038186803b1580156200042457600080fd5b505afa15801562000439573d6000803e3d6000fd5b505050506040513d601f19601f820116820180604052508101906200045f919062000830565b6200046957600080fd5b6101208083015173ffffffffffffffffffffffffffffffffffffffff9081166101608085019190915284519091166040808501919091526020850151606080860191909152908501516080808601919091529085015160a0808601919091529085015160c085015284015160e08085019190915284015191830191909152610100830151610140808401919091528301516101808301528201516101a082019060018111156200051557fe5b908160018111156200052357fe5b9052506101808201516101c082015260005473ffffffffffffffffffffffffffffffffffffffff1660208201526200055a6200013c565b6101e0820152919050565b600080546040517faafd5e4000000000000000000000000000000000000000000000000000000000815273ffffffffffffffffffffffffffffffffffffffff909116917f526567697374727900000000000000000000000000000000000000000000000091839063aafd5e4090620005e290859060040162000afe565b60206040518083038186803b158015620005fb57600080fd5b505afa15801562000610573d6000803e3d6000fd5b505050506040513d601f19601f820116820180604052508101906200063691906200080a565b6040517f66c8c25000000000000000000000000000000000000000000000000000000000815290915073ffffffffffffffffffffffffffffffffffffffff8216906366c8c250906200068f908890889060040162000a7a565b600060405180830381600087803b158015620006aa57600080fd5b505af1158015620006bf573d6000803e3d6000fd5b505050505050505050565b6125858062000c7683390190565b6040805161020081018252600080825260208201819052918101829052606081018290526080810182905260a0810182905260c0810182905260e0810182905261010081018290526101208101829052610140810182905261016081018290526101808101829052906101a0820190815260200160008152602001600081525090565b8035620007688162000c4f565b92915050565b8035600281106200076857600080fd5b600082601f8301126200078f578081fd5b813567ffffffffffffffff811115620007a6578182fd5b620007d960207fffffffffffffffffffffffffffffffffffffffffffffffffffffffffffffffe0601f8401160162000c27565b9150808252836020828501011115620007f157600080fd5b8060208401602084013760009082016020015292915050565b6000602082840312156200081c578081fd5b8151620008298162000c4f565b9392505050565b60006020828403121562000842578081fd5b8151801515811462000829578182fd5b60006020828403121562000864578081fd5b813567ffffffffffffffff808211156200087c578283fd5b6101e091840180860383131562000891578384fd5b6200089c8362000c27565b620008a887836200075b565b81526020820135602082015260408201356040820152606082013560608201526080820135608082015260a082013560a0820152620008eb8760c084016200075b565b60c082015260e082810135908201526101008083013590820152610120935062000918878584016200075b565b848201526101409350838201358482015261016093506200093c878584016200076e565b84820152610180935083820135848201526101a09350838201358381111562000963578586fd5b62000971888285016200077e565b85830152506101c0935083820135838111156200098c578586fd5b6200099a888285016200077e565b948201949094529695505050505050565b600060208284031215620009bd578081fd5b5035919050565b73ffffffffffffffffffffffffffffffffffffffff169052565b60028110620009e957fe5b9052565b60008151808452815b8181101562000a1457602081850181015186830182015201620009f6565b8181111562000a265782602083870101525b50601f017fffffffffffffffffffffffffffffffffffffffffffffffffffffffffffffffe0169290920160200192915050565b73ffffffffffffffffffffffffffffffffffffffff91909116815260200190565b604080825283519082018190526000906020906060840190828701845b8281101562000acb57815173ffffffffffffffffffffffffffffffffffffffff168452928401929084019060010162000a97565b50505073ffffffffffffffffffffffffffffffffffffffff9490941692019190915250919050565b901515815260200190565b90815260200190565b600061024062000b19838751620009c4565b602086015162000b2d6020850182620009c4565b50604086015162000b426040850182620009c4565b50606086015160608401526080860151608084015260a086015160a084015260c086015160c084015260e086015160e08401526101008087015162000b8a82860182620009c4565b5050610120868101519084015261014080870151908401526101608087015162000bb782860182620009c4565b505061018086810151908401526101a08087015162000bd982860182620009de565b50506101c086810151908401526101e08087015190840152610200830181905262000c0781840186620009ed565b83810361022085015262000c1c8186620009ed565b979650505050505050565b60405181810167ffffffffffffffff8111828210171562000c4757600080fd5b604052919050565b73ffffffffffffffffffffffffffffffffffffffff8116811462000c7257600080fd5b5056fe60806040523480156200001157600080fd5b50604051620025853803806200258583398101604081905262000034916200021a565b815162000049906003906020850190620000d9565b5080516200005f906004906020840190620000d9565b506040516318b9f5ad60e31b815273__TokenizedDerivativeUtils______________9063c5cfad68906200009e9060059087908690600401620003cf565b60006040518083038186803b158015620000b757600080fd5b505af4158015620000cc573d6000803e3d6000fd5b5050505050505062000542565b828054600181600116156101000203166002900490600052602060002090601f016020900481019282601f106200011c57805160ff19168380011785556200014c565b828001600101855582156200014c579182015b828111156200014c5782518255916020019190600101906200012f565b506200015a9291506200015e565b5090565b6200017b91905b808211156200015a576000815560010162000165565b90565b80516001600160a01b03811681146200019657600080fd5b92915050565b8051600281106200019657600080fd5b600082601f830112620001bd578081fd5b81516001600160401b03811115620001d3578182fd5b620001e8601f8201601f1916602001620004e8565b91508082528360208285010111156200020057600080fd5b620002138160208401602086016200050f565b5092915050565b600080600083850361024081121562000231578384fd5b6102008082121562000241578485fd5b6200024c81620004e8565b91506200025a87876200017e565b82526200026b87602088016200017e565b60208301526200027f87604088016200017e565b6040830152606086015160608301526080860151608083015260a086015160a083015260c086015160c083015260e086015160e0830152610100620002c7888289016200017e565b9083015261012086810151908301526101408087015190830152610160620002f2888289016200017e565b9083015261018086810151908301526101a062000312888289016200019c565b908301526101c086810151908301526101e080870151908301528501519093506001600160401b038082111562000347578384fd5b6200035587838801620001ac565b93506102208601519150808211156200036c578283fd5b506200037b86828701620001ac565b9150509250925092565b6001600160a01b03169052565b600281106200039d57fe5b9052565b60008151808452620003bb8160208601602086016200050f565b601f01601f19169290920160200192915050565b6000610240858352620003e760208401865162000385565b6020850151620003fb604085018262000385565b50604085015162000410606085018262000385565b5060608501516080840152608085015160a084015260a085015160c084015260c085015160e084015260e08501516101008181860152808701519150506101206200045e8186018362000385565b860151610140858101919091528601516101608086019190915286015190506101806200048e8186018362000385565b8601516101a08581019190915286015190506101c0620004b18186018362000392565b8601516101e085810191909152860151610200850152506102208301819052620004de81840185620003a1565b9695505050505050565b6040518181016001600160401b03811182821017156200050757600080fd5b604052919050565b60005b838110156200052c57818101518382015260200162000512565b838111156200053c576000848401525b50505050565b61203380620005526000396000f3fe6080604052600436106101fe5760003560e01c806342966c681161011d578063b6b55f25116100b0578063c7af29a91161007f578063e14e42da11610064578063e14e42da14610557578063e39dd93a1461057a578063f3f75c061461058f576101fe565b8063c7af29a914610522578063dd62ed3e14610537576101fe565b8063b6b55f25146104c7578063b82b9ff6146104da578063bda02e77146104ed578063c596481714610502576101fe565b806395d89b41116100ec57806395d89b4114610452578063a457c2d714610467578063a6e158f814610487578063a9059cbb146104a7576101fe565b806342966c68146103ea5780636074785a1461040a57806370a082311461041f57806386d6282c1461043f576101fe565b80632e1a7d4d116101955780633950935111610164578063395093511461036a5780633c6ee3921461038a5780633e1700a71461039d57806340c10f19146103ca576101fe565b80632e1a7d4d146102fe578063313ce5671461031e5780633327570b146103405780633403c2fc14610355576101fe565b806318160ddd116101d157806318160ddd146102875780631c93cd75146102a9578063211339f8146102c957806323b872dd146102de576101fe565b806306fdde0314610203578063095ea7b31461022e57806311da60b41461025b578063156c87fb14610272575b600080fd5b34801561020f57600080fd5b506102186105a4565b6040516102259190611b69565b60405180910390f35b34801561023a57600080fd5b5061024e610249366004611984565b610650565b6040516102259190611b47565b34801561026757600080fd5b5061027061066e565b005b34801561027e57600080fd5b506102706106f1565b34801561029357600080fd5b5061029c610742565b6040516102259190611b52565b3480156102b557600080fd5b506102706102c43660046118f5565b610748565b3480156102d557600080fd5b5061029c6107ce565b3480156102ea57600080fd5b5061024e6102f9366004611944565b610877565b34801561030a57600080fd5b50610270610319366004611a09565b61091e565b34801561032a57600080fd5b50610333610971565b6040516102259190611f38565b34801561034c57600080fd5b5061029c610976565b34801561036157600080fd5b506102706109ca565b34801561037657600080fd5b5061024e610385366004611984565b610a1b565b610270610398366004611a21565b610a7c565b3480156103a957600080fd5b506103b2610b05565b6040516102259c9b9a99989796959493929190611dbb565b3480156103d657600080fd5b5061024e6103e5366004611984565b610d35565b3480156103f657600080fd5b50610270610405366004611a09565b610d4d565b34801561041657600080fd5b5061029c610d66565b34801561042b57600080fd5b5061029c61043a3660046118f5565b610dba565b61027061044d366004611a09565b610de2565b34801561045e57600080fd5b50610218610e35565b34801561047357600080fd5b5061024e610482366004611984565b610eae565b34801561049357600080fd5b506102706104a2366004611a09565b610f29565b3480156104b357600080fd5b5061024e6104c2366004611984565b610f7c565b6102706104d5366004611a09565b610f90565b6102706104e8366004611a21565b610fe3565b3480156104f957600080fd5b50610270611038565b34801561050e57600080fd5b5061027061051d366004611984565b611089565b34801561052e57600080fd5b5061029c6110de565b34801561054357600080fd5b5061029c610552366004611910565b611132565b34801561056357600080fd5b5061056c61116a565b604051610225929190611b5b565b34801561058657600080fd5b5061029c611217565b34801561059b57600080fd5b5061024e61126b565b6003805460408051602060026001851615610100027fffffffffffffffffffffffffffffffffffffffffffffffffffffffffffffffff0190941693909304601f810184900484028201840190925281815292918301828280156106485780601f1061061d57610100808354040283529160200191610648565b820191906000526020600020905b81548152906001019060200180831161062b57829003601f168201915b505050505081565b600061066461065d61130f565b8484611313565b5060015b92915050565b6040517f9f3f1bde00000000000000000000000000000000000000000000000000000000815273__TokenizedDerivativeUtils______________90639f3f1bde906106bf90600590600401611b52565b60006040518083038186803b1580156106d757600080fd5b505af41580156106eb573d6000803e3d6000fd5b50505050565b6040517fd658d7ea00000000000000000000000000000000000000000000000000000000815273__TokenizedDerivativeUtils______________9063d658d7ea906106bf90600590600401611b52565b60025490565b6040517fe11e625700000000000000000000000000000000000000000000000000000000815273__TokenizedDerivativeUtils______________9063e11e62579061079b906005908590600401611ed2565b60006040518083038186803b1580156107b357600080fd5b505af41580156107c7573d6000803e3d6000fd5b5050505050565b6040517f4b26eb4600000000000000000000000000000000000000000000000000000000815260009073__TokenizedDerivativeUtils______________90634b26eb469061082290600590600401611b52565b60206040518083038186803b15801561083a57600080fd5b505af415801561084e573d6000803e3d6000fd5b505050506040513d601f19601f8201168201806040525081019061087291906119ce565b905090565b600061088484848461142b565b6109148461089061130f565b61090f85604051806060016040528060288152602001611fb16028913973ffffffffffffffffffffffffffffffffffffffff8a166000908152600160205260408120906108db61130f565b73ffffffffffffffffffffffffffffffffffffffff168152602081019190915260400160002054919063ffffffff6115c116565b611313565b5060019392505050565b6040517f3602157900000000000000000000000000000000000000000000000000000000815273__TokenizedDerivativeUtils______________9063360215799061079b906005908590600401611b5b565b601281565b6040517f6663de9600000000000000000000000000000000000000000000000000000000815260009073__TokenizedDerivativeUtils______________90636663de969061082290600590600401611b52565b6040517f24477be800000000000000000000000000000000000000000000000000000000815273__TokenizedDerivativeUtils______________906324477be8906106bf90600590600401611b52565b6000610664610a2861130f565b8461090f8560016000610a3961130f565b73ffffffffffffffffffffffffffffffffffffffff908116825260208083019390935260409182016000908120918c16815292529020549063ffffffff61160716565b6040517f0a4a5b7600000000000000000000000000000000000000000000000000000000815273__TokenizedDerivativeUtils______________90630a4a5b7690610ad19060059086908690600401611f22565b60006040518083038186803b158015610ae957600080fd5b505af4158015610afd573d6000803e3d6000fd5b505050505050565b604080516101408101825260058054825260065460208301526007549282019290925260085460608201526009546080820152600a5460a0820152600b54829060c083019060ff166001811115610b5857fe5b6001811115610b6357fe5b81526020016007820154815260200160088201548152602001600982018054600181600116156101000203166002900480601f016020809104026020016040519081016040528092919081815260200182805460018160011615610100020316600290048015610c145780601f10610be957610100808354040283529160200191610c14565b820191906000526020600020905b815481529060010190602001808311610bf757829003601f168201915b5050509190925250506040805160c081018252600a85015473ffffffffffffffffffffffffffffffffffffffff9081168252600b8601548116602080840191909152600c870154821683850152600d8701548216606080850191909152600e88015483166080850152600f88015490921660a084015260108701546011880154601289015460138a01548751808701895260148c0154815260158c01548187015260168c0154818a01528851968701895260178c0154875260188c01548787015260198c0154878a0152601a8c01548951808b018b52601b8e01548152601c8e015481890152601d8e01548b51808d01909c52601e8f01548c52601f909e0154978b01979097529a9b979a949950929760ff9092169690959294929392918c565b6000333014610d4357600080fd5b610664838361164d565b333014610d5957600080fd5b610d63338261175a565b50565b6040517f9545a37e00000000000000000000000000000000000000000000000000000000815260009073__TokenizedDerivativeUtils______________90639545a37e9061082290600590600401611b52565b73ffffffffffffffffffffffffffffffffffffffff1660009081526020819052604090205490565b6040517f0806c19300000000000000000000000000000000000000000000000000000000815273__TokenizedDerivativeUtils______________90630806c1939061079b906005908590600401611b5b565b6004805460408051602060026001851615610100027fffffffffffffffffffffffffffffffffffffffffffffffffffffffffffffffff0190941693909304601f810184900484028201840190925281815292918301828280156106485780601f1061061d57610100808354040283529160200191610648565b6000610664610ebb61130f565b8461090f85604051806060016040528060258152602001611fd96025913960016000610ee561130f565b73ffffffffffffffffffffffffffffffffffffffff908116825260208083019390935260409182016000908120918d1681529252902054919063ffffffff6115c116565b6040517f0a5c470900000000000000000000000000000000000000000000000000000000815273__TokenizedDerivativeUtils______________90630a5c47099061079b906005908590600401611b5b565b6000610664610f8961130f565b848461142b565b6040517fdb2fa42400000000000000000000000000000000000000000000000000000000815273__TokenizedDerivativeUtils______________9063db2fa4249061079b906005908590600401611b5b565b6040517fc31671ff00000000000000000000000000000000000000000000000000000000815273__TokenizedDerivativeUtils______________9063c31671ff90610ad19060059086908690600401611f22565b6040517f3cd450dd00000000000000000000000000000000000000000000000000000000815273__TokenizedDerivativeUtils______________90633cd450dd906106bf90600590600401611b52565b6040517fc866ede800000000000000000000000000000000000000000000000000000000815273__TokenizedDerivativeUtils______________9063c866ede890610ad19060059086908690600401611ef6565b6040517f55108c0200000000000000000000000000000000000000000000000000000000815260009073__TokenizedDerivativeUtils______________906355108c029061082290600590600401611b52565b73ffffffffffffffffffffffffffffffffffffffff918216600090815260016020908152604080832093909416825291909152205490565b6040517f8ce27c3f000000000000000000000000000000000000000000000000000000008152600090819073__TokenizedDerivativeUtils______________90638ce27c3f906111c090600590600401611b52565b604080518083038186803b1580156111d757600080fd5b505af41580156111eb573d6000803e3d6000fd5b505050506040513d601f19601f8201168201806040525081019061120f91906119e6565b915091509091565b6040517f7dfedadb00000000000000000000000000000000000000000000000000000000815260009073__TokenizedDerivativeUtils______________90637dfedadb9061082290600590600401611b52565b6040517f2bf6109400000000000000000000000000000000000000000000000000000000815260009073__TokenizedDerivativeUtils______________90632bf61094906112bf90600590600401611b52565b60206040518083038186803b1580156112d757600080fd5b505af41580156112eb573d6000803e3d6000fd5b505050506040513d601f19601f8201168201806040525081019061087291906119ae565b3390565b73ffffffffffffffffffffffffffffffffffffffff8316611369576040517f08c379a000000000000000000000000000000000000000000000000000000000815260040161136090611d27565b60405180910390fd5b73ffffffffffffffffffffffffffffffffffffffff82166113b6576040517f08c379a000000000000000000000000000000000000000000000000000000000815260040161136090611bd9565b73ffffffffffffffffffffffffffffffffffffffff80841660008181526001602090815260408083209487168084529490915290819020849055517f8c5be1e5ebec7d5bd14f71427d1e84f3dd0314c0f7b2291e5b200ac8c7c3b9259061141e908590611b52565b60405180910390a3505050565b73ffffffffffffffffffffffffffffffffffffffff8316611478576040517f08c379a000000000000000000000000000000000000000000000000000000000815260040161136090611cca565b73ffffffffffffffffffffffffffffffffffffffff82166114c5576040517f08c379a000000000000000000000000000000000000000000000000000000000815260040161136090611b7c565b6114d083838361188a565b61152081604051806060016040528060268152602001611f8b6026913973ffffffffffffffffffffffffffffffffffffffff8616600090815260208190526040902054919063ffffffff6115c116565b73ffffffffffffffffffffffffffffffffffffffff8085166000908152602081905260408082209390935590841681522054611562908263ffffffff61160716565b73ffffffffffffffffffffffffffffffffffffffff80841660008181526020819052604090819020939093559151908516907fddf252ad1be2c89b69c2b068fc378daa952ba7f163c4a11628f55a4df523b3ef9061141e908590611b52565b600081848411156115ff576040517f08c379a00000000000000000000000000000000000000000000000000000000081526004016113609190611b69565b505050900390565b600082820183811015611646576040517f08c379a000000000000000000000000000000000000000000000000000000000815260040161136090611c36565b9392505050565b73ffffffffffffffffffffffffffffffffffffffff821661169a576040517f08c379a000000000000000000000000000000000000000000000000000000000815260040161136090611d84565b6116a66000838361188a565b6002546116b9908263ffffffff61160716565b60025573ffffffffffffffffffffffffffffffffffffffff82166000908152602081905260409020546116f2908263ffffffff61160716565b73ffffffffffffffffffffffffffffffffffffffff83166000818152602081905260408082209390935591519091907fddf252ad1be2c89b69c2b068fc378daa952ba7f163c4a11628f55a4df523b3ef9061174e908590611b52565b60405180910390a35050565b73ffffffffffffffffffffffffffffffffffffffff82166117a7576040517f08c379a000000000000000000000000000000000000000000000000000000000815260040161136090611c6d565b6117b38260008361188a565b61180381604051806060016040528060228152602001611f696022913973ffffffffffffffffffffffffffffffffffffffff8516600090815260208190526040902054919063ffffffff6115c116565b73ffffffffffffffffffffffffffffffffffffffff831660009081526020819052604090205560025461183c908263ffffffff61188f16565b60025560405160009073ffffffffffffffffffffffffffffffffffffffff8416907fddf252ad1be2c89b69c2b068fc378daa952ba7f163c4a11628f55a4df523b3ef9061174e908590611b52565b505050565b600061164683836040518060400160405280601e81526020017f536166654d6174683a207375627472616374696f6e206f766572666c6f7700008152506115c1565b803573ffffffffffffffffffffffffffffffffffffffff8116811461066857600080fd5b600060208284031215611906578081fd5b61164683836118d1565b60008060408385031215611922578081fd5b61192c84846118d1565b915061193b84602085016118d1565b90509250929050565b600080600060608486031215611958578081fd5b833561196381611f46565b9250602084013561197381611f46565b929592945050506040919091013590565b60008060408385031215611996578182fd5b6119a084846118d1565b946020939093013593505050565b6000602082840312156119bf578081fd5b81518015158114611646578182fd5b6000602082840312156119df578081fd5b5051919050565b600080604083850312156119f8578182fd5b505080516020909101519092909150565b600060208284031215611a1a578081fd5b5035919050565b60008060408385031215611a33578182fd5b50508035926020909101359150565b60028110611a4c57fe5b9052565b60068110611a4c57fe5b60008151808452815b81811015611a7f57602081850181015186830182015201611a63565b81811115611a905782602083870101525b50601f017fffffffffffffffffffffffffffffffffffffffffffffffffffffffffffffffe0169290920160200192915050565b80518252602090810151910152565b73ffffffffffffffffffffffffffffffffffffffff8082511683528060208301511660208401528060408301511660408401528060608301511660608401528060808301511660808401528060a08301511660a0840152505050565b8051825260208082015190830152604090810151910152565b901515815260200190565b90815260200190565b918252602082015260400190565b6000602082526116466020830184611a5a565b60208082526023908201527f45524332303a207472616e7366657220746f20746865207a65726f206164647260408201527f6573730000000000000000000000000000000000000000000000000000000000606082015260800190565b60208082526022908201527f45524332303a20617070726f766520746f20746865207a65726f20616464726560408201527f7373000000000000000000000000000000000000000000000000000000000000606082015260800190565b6020808252601b908201527f536166654d6174683a206164646974696f6e206f766572666c6f770000000000604082015260600190565b60208082526021908201527f45524332303a206275726e2066726f6d20746865207a65726f2061646472657360408201527f7300000000000000000000000000000000000000000000000000000000000000606082015260800190565b60208082526025908201527f45524332303a207472616e736665722066726f6d20746865207a65726f20616460408201527f6472657373000000000000000000000000000000000000000000000000000000606082015260800190565b60208082526024908201527f45524332303a20617070726f76652066726f6d20746865207a65726f2061646460408201527f7265737300000000000000000000000000000000000000000000000000000000606082015260800190565b6020808252601f908201527f45524332303a206d696e7420746f20746865207a65726f206164647265737300604082015260600190565b60006102e082528d516102e083015260208e015161030083015260408e015161032083015260608e015161034083015260808e015161036083015260a08e015161038083015260c08e0151611e146103a0840182611a42565b5060e08e01516103c08301526101008e01516103e08301526101208e0151610140610400840152611e49610420840182611a5a565b915050611e59602083018e611ad2565b8b60e08301528a610100830152611e7461012083018b611a50565b88610140830152611e89610160830189611b2e565b611e976101c0830188611b2e565b85610220830152611eac610240830186611ac3565b83610280830152611ec16102a0830184611ac3565b9d9c50505050505050505050505050565b91825273ffffffffffffffffffffffffffffffffffffffff16602082015260400190565b92835273ffffffffffffffffffffffffffffffffffffffff919091166020830152604082015260600190565b9283526020830191909152604082015260600190565b60ff91909116815260200190565b73ffffffffffffffffffffffffffffffffffffffff81168114610d6357600080fdfe45524332303a206275726e20616d6f756e7420657863656564732062616c616e636545524332303a207472616e7366657220616d6f756e7420657863656564732062616c616e636545524332303a207472616e7366657220616d6f756e74206578636565647320616c6c6f77616e636545524332303a2064656372656173656420616c6c6f77616e63652062656c6f77207a65726fa2646970667358221220368e01053cba441c61777e0eeac7191fcae9cc79f4e739643df7e52beecc779b64736f6c63430006040033a2646970667358221220432ed9e95bd4bcb6989a0a36eeed2671ec1920c8850f35b7d0ab07c138ba958464736f6c63430006040033",
  "source": "pragma solidity ^0.6.0;\n\npragma experimental ABIEncoderV2;\n\nimport \"../common/implementation/Testable.sol\";\nimport \"../common/implementation/AddressWhitelist.sol\";\nimport \"../oracle/implementation/ContractCreator.sol\";\nimport \"./TokenizedDerivative.sol\";\n\n\n/**\n * @title Contract creator for TokenizedDerivative.\n */\ncontract TokenizedDerivativeCreator is ContractCreator, Testable {\n    struct Params {\n        address priceFeedAddress;\n        uint defaultPenalty; // Percentage of mergin requirement * 10^18\n        uint supportedMove; // Expected percentage move in the underlying that the long is protected against.\n        bytes32 product;\n        uint fixedYearlyFee; // Percentage of nav * 10^18\n        uint disputeDeposit; // Percentage of mergin requirement * 10^18\n        address returnCalculator;\n        uint startingTokenPrice;\n        uint expiry;\n        address marginCurrency;\n        uint withdrawLimit; // Percentage of shortBalance * 10^18\n        TokenizedDerivativeParams.ReturnType returnType;\n        uint startingUnderlyingPrice;\n        string name;\n        string symbol;\n    }\n\n    AddressWhitelist public returnCalculatorWhitelist;\n    AddressWhitelist public marginCurrencyWhitelist;\n\n    event CreatedTokenizedDerivative(address contractAddress);\n\n    constructor(\n        address _finderAddress,\n        address _returnCalculatorWhitelist,\n        address _marginCurrencyWhitelist,\n        bool _isTest\n    ) public ContractCreator(_finderAddress) Testable(_isTest) {\n        returnCalculatorWhitelist = AddressWhitelist(_returnCalculatorWhitelist);\n        marginCurrencyWhitelist = AddressWhitelist(_marginCurrencyWhitelist);\n    }\n\n    /**\n     * @notice Creates a new instance of `TokenizedDerivative` with the provided `params`.\n     */\n    function createTokenizedDerivative(Params memory params) public returns (address derivativeAddress) {\n        TokenizedDerivative derivative = new TokenizedDerivative(_convertParams(params), params.name, params.symbol);\n\n        address[] memory parties = new address[](1);\n        parties[0] = msg.sender;\n\n        _registerContract(parties, address(derivative));\n\n        emit CreatedTokenizedDerivative(address(derivative));\n\n        return address(derivative);\n    }\n\n    // Converts createTokenizedDerivative params to TokenizedDerivative constructor params.\n    function _convertParams(Params memory params)\n        private\n        view\n        returns (TokenizedDerivativeParams.ConstructorParams memory constructorParams)\n    {\n        // Copy and verify externally provided variables.\n        constructorParams.sponsor = msg.sender;\n\n        require(returnCalculatorWhitelist.isOnWhitelist(params.returnCalculator));\n        constructorParams.returnCalculator = params.returnCalculator;\n\n        require(marginCurrencyWhitelist.isOnWhitelist(params.marginCurrency));\n        constructorParams.marginCurrency = params.marginCurrency;\n\n        constructorParams.priceFeedAddress = params.priceFeedAddress;\n        constructorParams.defaultPenalty = params.defaultPenalty;\n        constructorParams.supportedMove = params.supportedMove;\n        constructorParams.product = params.product;\n        constructorParams.fixedYearlyFee = params.fixedYearlyFee;\n        constructorParams.disputeDeposit = params.disputeDeposit;\n        constructorParams.startingTokenPrice = params.startingTokenPrice;\n        constructorParams.expiry = params.expiry;\n        constructorParams.withdrawLimit = params.withdrawLimit;\n        constructorParams.returnType = params.returnType;\n        constructorParams.startingUnderlyingPrice = params.startingUnderlyingPrice;\n\n        // Copy internal variables.\n        constructorParams.finderAddress = finderAddress;\n        constructorParams.creationTime = getCurrentTime();\n    }\n}\n",
  "sourcePath": "/home/opz/Projects/SynFiat-update/ui/contracts/uma-contracts/tokenized-derivative/TokenizedDerivativeCreator.sol",
  "compiler": {
    "name": "solc",
    "version": "0.6.4+commit.1dca32f3.Emscripten.clang"
  },
  "schemaVersion": "3.2.0",
  "updatedAt": "2020-06-29T17:20:03.402Z",
  "devdoc": {
    "methods": {
      "setCurrentTime(uint256)": {
        "details": "Will revert if not running in test mode."
      }
    },
    "title": "Contract creator for TokenizedDerivative."
  },
  "userdoc": {
    "methods": {
      "createTokenizedDerivative((address,uint256,uint256,bytes32,uint256,uint256,address,uint256,uint256,address,uint256,uint8,uint256,string,string))": {
        "notice": "Creates a new instance of `TokenizedDerivative` with the provided `params`."
      },
      "getCurrentTime()": {
        "notice": "Gets the current time. Will return the last time set in `setCurrentTime` if running in test mode. Otherwise, it will return the block timestamp."
      },
      "setCurrentTime(uint256)": {
        "notice": "Sets the current time."
      }
    }
  }
}