{
  "contractName": "Umip15Upgrader",
  "abi": [
    {
      "inputs": [
        {
          "internalType": "address",
          "name": "_governor",
          "type": "address"
        },
        {
          "internalType": "address",
          "name": "_existingVoting",
          "type": "address"
        },
        {
          "internalType": "address",
          "name": "_newVoting",
          "type": "address"
        },
        {
          "internalType": "address",
          "name": "_finder",
          "type": "address"
        }
      ],
      "stateMutability": "nonpayable",
      "type": "constructor"
    },
    {
      "inputs": [],
      "name": "existingVoting",
      "outputs": [
        {
          "internalType": "contract Voting",
          "name": "",
          "type": "address"
        }
      ],
      "stateMutability": "view",
      "type": "function"
    },
    {
      "inputs": [],
      "name": "finder",
      "outputs": [
        {
          "internalType": "contract Finder",
          "name": "",
          "type": "address"
        }
      ],
      "stateMutability": "view",
      "type": "function"
    },
    {
      "inputs": [],
      "name": "governor",
      "outputs": [
        {
          "internalType": "address",
          "name": "",
          "type": "address"
        }
      ],
      "stateMutability": "view",
      "type": "function"
    },
    {
      "inputs": [],
      "name": "newVoting",
      "outputs": [
        {
          "internalType": "address",
          "name": "",
          "type": "address"
        }
      ],
      "stateMutability": "view",
      "type": "function"
    },
    {
      "inputs": [],
      "name": "upgrade",
      "outputs": [],
      "stateMutability": "nonpayable",
      "type": "function"
    }
  ],
  "bytecode": "0x608060405234801561001057600080fd5b5060405161050b38038061050b8339818101604052608081101561003357600080fd5b50805160208201516040830151606090930151600080546001600160a01b039485166001600160a01b0319918216179091556001805493851693821693909317909255600380549484169483169490941790935560028054929093169116179055610468806100a36000396000f3fe608060405234801561001057600080fd5b50600436106100675760003560e01c8063b9a3c84c11610050578063b9a3c84c146100a5578063d0fc1572146100ad578063d55ec697146100b557610067565b80630c340a241461006c578063679b721c1461009d575b600080fd5b6100746100bf565b6040805173ffffffffffffffffffffffffffffffffffffffff9092168252519081900360200190f35b6100746100db565b6100746100f7565b610074610113565b6100bd61012f565b005b60005473ffffffffffffffffffffffffffffffffffffffff1681565b60015473ffffffffffffffffffffffffffffffffffffffff1681565b60025473ffffffffffffffffffffffffffffffffffffffff1681565b60035473ffffffffffffffffffffffffffffffffffffffff1681565b60005473ffffffffffffffffffffffffffffffffffffffff16331461019f576040517f08c379a00000000000000000000000000000000000000000000000000000000081526004018080602001828103825260378152602001806103fc6037913960400191505060405180910390fd5b600254600354604080517f31f9665e0000000000000000000000000000000000000000000000000000000081527f4f7261636c650000000000000000000000000000000000000000000000000000600482015273ffffffffffffffffffffffffffffffffffffffff9283166024820152905191909216916331f9665e91604480830192600092919082900301818387803b15801561023c57600080fd5b505af1158015610250573d6000803e3d6000fd5b5050600154600354604080517f2960b5af00000000000000000000000000000000000000000000000000000000815273ffffffffffffffffffffffffffffffffffffffff92831660048201529051919092169350632960b5af9250602480830192600092919082900301818387803b1580156102cb57600080fd5b505af11580156102df573d6000803e3d6000fd5b505060015460008054604080517ff2fde38b00000000000000000000000000000000000000000000000000000000815273ffffffffffffffffffffffffffffffffffffffff9283166004820152905191909316945063f2fde38b935060248084019382900301818387803b15801561035657600080fd5b505af115801561036a573d6000803e3d6000fd5b505060025460008054604080517ff2fde38b00000000000000000000000000000000000000000000000000000000815273ffffffffffffffffffffffffffffffffffffffff9283166004820152905191909316945063f2fde38b935060248084019382900301818387803b1580156103e157600080fd5b505af11580156103f5573d6000803e3d6000fd5b5050505056fe557067726164652063616e206f6e6c7920626520696e6974696174656420627920746865206578697374696e6720676f7665726e6f722ea2646970667358221220e0fd1de1bdd6b7a8fea3d4c4247e89765762cc5d2d93e96f20c57ec04d89617764736f6c634300060a0033",
  "immutableReferences": {},
  "source": "pragma solidity ^0.6.0;\n\nimport \"../oracle/implementation/Finder.sol\";\nimport \"../oracle/implementation/Constants.sol\";\nimport \"../oracle/implementation/Voting.sol\";\n\n\n/**\n * @title A contract to track a whitelist of addresses.\n */\ncontract Umip15Upgrader {\n    // Existing governor is the only one who can initiate the upgrade.\n    address public governor;\n\n    // Existing Voting contract needs to be informed of the address of the new Voting contract.\n    Voting public existingVoting;\n\n    // New governor will be the new owner of the finder.\n\n    // Finder contract to push upgrades to.\n    Finder public finder;\n\n    // Addresses to upgrade.\n    address public newVoting;\n\n    constructor(\n        address _governor,\n        address _existingVoting,\n        address _newVoting,\n        address _finder\n    ) public {\n        governor = _governor;\n        existingVoting = Voting(_existingVoting);\n        newVoting = _newVoting;\n        finder = Finder(_finder);\n    }\n\n    function upgrade() external {\n        require(msg.sender == governor, \"Upgrade can only be initiated by the existing governor.\");\n\n        // Change the addresses in the Finder.\n        finder.changeImplementationAddress(OracleInterfaces.Oracle, newVoting);\n        // Set current Voting contract to migrated.\n        existingVoting.setMigrated(newVoting);\n\n        // Transfer back ownership of old voting contract and the finder to the governor.\n        existingVoting.transferOwnership(governor);\n        finder.transferOwnership(governor);\n    }\n}\n",
  "sourcePath": "/home/alessandrovm/JarvisLavoro/SynFiat/packages/contracts/contracts/uma-contracts/umips/Umip15Upgrader.sol",
  "compiler": {
    "name": "solc",
    "version": "0.6.10+commit.00c0fcaf.Emscripten.clang"
  },
  "schemaVersion": "3.2.5",
  "updatedAt": "2020-10-22T14:01:04.668Z",
  "devdoc": {
    "methods": {},
    "title": "A contract to track a whitelist of addresses."
  },
  "userdoc": {
    "methods": {}
  }
}