{
  "contractName": "UniswapMock",
  "abi": [
    {
      "anonymous": false,
      "inputs": [
        {
          "indexed": false,
          "internalType": "uint112",
          "name": "reserve0",
          "type": "uint112"
        },
        {
          "indexed": false,
          "internalType": "uint112",
          "name": "reserve1",
          "type": "uint112"
        }
      ],
      "name": "Sync",
      "type": "event"
    },
    {
      "inputs": [
        {
          "internalType": "uint112",
          "name": "reserve0",
          "type": "uint112"
        },
        {
          "internalType": "uint112",
          "name": "reserve1",
          "type": "uint112"
        }
      ],
      "name": "setPrice",
      "outputs": [],
      "stateMutability": "nonpayable",
      "type": "function"
    }
  ],
  "bytecode": "0x6080604052348015600f57600080fd5b5060e78061001e6000396000f3fe6080604052348015600f57600080fd5b506004361060285760003560e01c80638fa07a1114602d575b600080fd5b605f60048036036040811015604157600080fd5b506dffffffffffffffffffffffffffff813581169160200135166061565b005b604080516dffffffffffffffffffffffffffff80851682528316602082015281517f1c411e9a96e071241c2f21f7726b17ae89e3cab4c78be50e062b03a9fffbbad1929181900390910190a1505056fea26469706673582212207b7db8b2bbc7ba988d50ea3bd814c1071296469801060dc48b92756f109a970664736f6c63430006040033",
  "source": "pragma solidity ^0.6.0;\n\nimport \"../interfaces/Uniswap.sol\";\n\n\n/**\n * @title Uniswap v2 Mock that allows manual price injection.\n */\ncontract UniswapMock is Uniswap {\n    function setPrice(uint112 reserve0, uint112 reserve1) external {\n        emit Sync(reserve0, reserve1);\n    }\n}\n",
  "sourcePath": "/home/alessandrovm/JarvisLavoro/SynFiat/packages/contracts/contracts/uma-contracts/common/test/UniswapMock.sol",
  "compiler": {
    "name": "solc",
    "version": "0.6.4+commit.1dca32f3.Emscripten.clang"
  },
  "schemaVersion": "3.2.0",
  "updatedAt": "2020-09-17T18:56:01.890Z",
  "devdoc": {
    "methods": {},
    "title": "Uniswap v2 Mock that allows manual price injection."
  },
  "userdoc": {
    "methods": {}
  }
}