{
  "contractName": "VoteTimingTest",
  "abi": [
    {
      "inputs": [
        {
          "internalType": "uint256",
          "name": "phaseLength",
          "type": "uint256"
        }
      ],
      "stateMutability": "nonpayable",
      "type": "constructor"
    },
    {
      "inputs": [],
      "name": "voteTiming",
      "outputs": [
        {
          "internalType": "uint256",
          "name": "phaseLength",
          "type": "uint256"
        }
      ],
      "stateMutability": "view",
      "type": "function"
    },
    {
      "inputs": [
        {
          "internalType": "uint256",
          "name": "currentTime",
          "type": "uint256"
        }
      ],
      "name": "wrapComputeCurrentRoundId",
      "outputs": [
        {
          "internalType": "uint256",
          "name": "",
          "type": "uint256"
        }
      ],
      "stateMutability": "view",
      "type": "function"
    },
    {
      "inputs": [
        {
          "internalType": "uint256",
          "name": "currentTime",
          "type": "uint256"
        }
      ],
      "name": "wrapComputeCurrentPhase",
      "outputs": [
        {
          "internalType": "enum VotingInterface.Phase",
          "name": "",
          "type": "uint8"
        }
      ],
      "stateMutability": "view",
      "type": "function"
    },
    {
      "inputs": [
        {
          "internalType": "uint256",
          "name": "phaseLength",
          "type": "uint256"
        }
      ],
      "name": "wrapInit",
      "outputs": [],
      "stateMutability": "nonpayable",
      "type": "function"
    }
  ],
  "bytecode": "0x608060405234801561001057600080fd5b506040516104993803806104998339818101604052602081101561003357600080fd5b5051610047816001600160e01b0361004d16565b5061006c565b61006581600061006860201b61015c1790919060201c565b50565b9055565b61041e8061007b6000396000f3fe608060405234801561001057600080fd5b506004361061004c5760003560e01c806329e4b0131461005157806344d8ce9a1461008057806371b7db531461009f578063d9336ea4146100a7575b600080fd5b61006e6004803603602081101561006757600080fd5b50356100e8565b60408051918252519081900360200190f35b61009d6004803603602081101561009657600080fd5b5035610100565b005b61006e610114565b6100c4600480360360208110156100bd57600080fd5b503561011a565b604051808260028111156100d457fe5b60ff16815260200191505060405180910390f35b60006100fa818363ffffffff61012c16565b92915050565b61011160008263ffffffff61015c16565b50565b60005481565b60006100fa818363ffffffff61016016565b600080610142600285549063ffffffff61019816565b9050610154838263ffffffff61020b16565b949350505050565b9055565b60006101866002845461017a90859063ffffffff61020b16565b9063ffffffff61024d16565b600281111561019157fe5b9392505050565b6000826101a7575060006100fa565b828202828482816101b457fe5b0414610191576040517f08c379a00000000000000000000000000000000000000000000000000000000081526004018080602001828103825260218152602001806103c86021913960400191505060405180910390fd5b600061019183836040518060400160405280601a81526020017f536166654d6174683a206469766973696f6e206279207a65726f00000000000081525061028f565b600061019183836040518060400160405280601881526020017f536166654d6174683a206d6f64756c6f206279207a65726f000000000000000081525061034b565b60008183610335576040517f08c379a00000000000000000000000000000000000000000000000000000000081526004018080602001828103825283818151815260200191508051906020019080838360005b838110156102fa5781810151838201526020016102e2565b50505050905090810190601f1680156103275780820380516001836020036101000a031916815260200191505b509250505060405180910390fd5b50600083858161034157fe5b0495945050505050565b600081836103b4576040517f08c379a00000000000000000000000000000000000000000000000000000000081526020600482018181528351602484015283519092839260449091019190850190808383600083156102fa5781810151838201526020016102e2565b508284816103be57fe5b0694935050505056fe536166654d6174683a206d756c7469706c69636174696f6e206f766572666c6f77a26469706673582212201c0c828dde5eed4a1e4dd7778c017b0d25f26f80a6b8afbfa5b8c8bee299102964736f6c63430006040033",
  "source": "pragma solidity ^0.6.0;\n\nimport \"../../interfaces/VotingInterface.sol\";\nimport \"../VoteTiming.sol\";\n\n\n// Wraps the library VoteTiming for testing purposes.\ncontract VoteTimingTest {\n    using VoteTiming for VoteTiming.Data;\n\n    VoteTiming.Data public voteTiming;\n\n    constructor(uint phaseLength) public {\n        wrapInit(phaseLength);\n    }\n\n    function wrapComputeCurrentRoundId(uint currentTime) external view returns (uint) {\n        return voteTiming.computeCurrentRoundId(currentTime);\n    }\n\n    function wrapComputeCurrentPhase(uint currentTime) external view returns (VotingInterface.Phase) {\n        return voteTiming.computeCurrentPhase(currentTime);\n    }\n\n    function wrapInit(uint phaseLength) public {\n        voteTiming.init(phaseLength);\n    }\n}\n",
  "sourcePath": "/home/alessandrovm/JarvisLavoro/SynFiat/packages/contracts/contracts/uma-contracts/oracle/implementation/test/VoteTimingTest.sol",
  "compiler": {
    "name": "solc",
    "version": "0.6.4+commit.1dca32f3.Emscripten.clang"
  },
  "schemaVersion": "3.2.0",
  "updatedAt": "2020-06-19T21:38:31.687Z",
  "devdoc": {
    "methods": {}
  },
  "userdoc": {
    "methods": {}
  }
}