{
  "contractName": "VoteTimingTest",
  "abi": [
    {
      "inputs": [
        {
          "internalType": "uint256",
          "name": "phaseLength",
          "type": "uint256"
        }
      ],
      "stateMutability": "nonpayable",
      "type": "constructor"
    },
    {
      "inputs": [],
      "name": "voteTiming",
      "outputs": [
        {
          "internalType": "uint256",
          "name": "phaseLength",
          "type": "uint256"
        }
      ],
      "stateMutability": "view",
      "type": "function"
    },
    {
      "inputs": [
        {
          "internalType": "uint256",
          "name": "currentTime",
          "type": "uint256"
        }
      ],
      "name": "wrapComputeCurrentRoundId",
      "outputs": [
        {
          "internalType": "uint256",
          "name": "",
          "type": "uint256"
        }
      ],
      "stateMutability": "view",
      "type": "function"
    },
    {
      "inputs": [
        {
          "internalType": "uint256",
          "name": "currentTime",
          "type": "uint256"
        }
      ],
      "name": "wrapComputeCurrentPhase",
      "outputs": [
        {
          "internalType": "enum VotingInterface.Phase",
          "name": "",
          "type": "uint8"
        }
      ],
      "stateMutability": "view",
      "type": "function"
    },
    {
      "inputs": [
        {
          "internalType": "uint256",
          "name": "phaseLength",
          "type": "uint256"
        }
      ],
      "name": "wrapInit",
      "outputs": [],
      "stateMutability": "nonpayable",
      "type": "function"
    }
  ],
  "bytecode": "0x608060405234801561001057600080fd5b506040516104b33803806104b38339818101604052602081101561003357600080fd5b5051610047816001600160e01b0361004d16565b50610079565b61006581600061006860201b61012c1790919060201c565b50565b6000811161007557600080fd5b9055565b61042b806100886000396000f3fe608060405234801561001057600080fd5b506004361061004c5760003560e01c806329e4b0131461005157806344d8ce9a1461008057806371b7db531461009f578063d9336ea4146100a7575b600080fd5b61006e6004803603602081101561006757600080fd5b50356100e8565b60408051918252519081900360200190f35b61009d6004803603602081101561009657600080fd5b5035610100565b005b61006e610114565b6100c4600480360360208110156100bd57600080fd5b503561011a565b604051808260028111156100d457fe5b60ff16815260200191505060405180910390f35b60006100fa818363ffffffff61013d16565b92915050565b61011160008263ffffffff61012c16565b50565b60005481565b60006100fa818363ffffffff61016d16565b6000811161013957600080fd5b9055565b600080610153600285549063ffffffff6101a516565b9050610165838263ffffffff61021816565b949350505050565b60006101936002845461018790859063ffffffff61021816565b9063ffffffff61025a16565b600281111561019e57fe5b9392505050565b6000826101b4575060006100fa565b828202828482816101c157fe5b041461019e576040517f08c379a00000000000000000000000000000000000000000000000000000000081526004018080602001828103825260218152602001806103d56021913960400191505060405180910390fd5b600061019e83836040518060400160405280601a81526020017f536166654d6174683a206469766973696f6e206279207a65726f00000000000081525061029c565b600061019e83836040518060400160405280601881526020017f536166654d6174683a206d6f64756c6f206279207a65726f0000000000000000815250610358565b60008183610342576040517f08c379a00000000000000000000000000000000000000000000000000000000081526004018080602001828103825283818151815260200191508051906020019080838360005b838110156103075781810151838201526020016102ef565b50505050905090810190601f1680156103345780820380516001836020036101000a031916815260200191505b509250505060405180910390fd5b50600083858161034e57fe5b0495945050505050565b600081836103c1576040517f08c379a00000000000000000000000000000000000000000000000000000000081526020600482018181528351602484015283519092839260449091019190850190808383600083156103075781810151838201526020016102ef565b508284816103cb57fe5b0694935050505056fe536166654d6174683a206d756c7469706c69636174696f6e206f766572666c6f77a26469706673582212208383458fc5ea77c4ee7c6f85112a594f7a4068d321320a95fe484e2ea5ffce5764736f6c634300060a0033",
  "immutableReferences": {},
  "source": "pragma solidity ^0.6.0;\n\nimport \"../../interfaces/VotingInterface.sol\";\nimport \"../VoteTiming.sol\";\n\n\n// Wraps the library VoteTiming for testing purposes.\ncontract VoteTimingTest {\n    using VoteTiming for VoteTiming.Data;\n\n    VoteTiming.Data public voteTiming;\n\n    constructor(uint256 phaseLength) public {\n        wrapInit(phaseLength);\n    }\n\n    function wrapComputeCurrentRoundId(uint256 currentTime) external view returns (uint256) {\n        return voteTiming.computeCurrentRoundId(currentTime);\n    }\n\n    function wrapComputeCurrentPhase(uint256 currentTime) external view returns (VotingInterface.Phase) {\n        return voteTiming.computeCurrentPhase(currentTime);\n    }\n\n    function wrapInit(uint256 phaseLength) public {\n        voteTiming.init(phaseLength);\n    }\n}\n",
  "sourcePath": "/home/alessandrovm/JarvisLavoro/SynFiat/packages/contracts/contracts/uma-contracts/oracle/implementation/test/VoteTimingTest.sol",
  "compiler": {
    "name": "solc",
    "version": "0.6.10+commit.00c0fcaf.Emscripten.clang"
  },
  "schemaVersion": "3.2.5",
  "updatedAt": "2020-10-22T14:01:04.642Z",
  "devdoc": {
    "methods": {}
  },
  "userdoc": {
    "methods": {}
  }
}