{
  "contractName": "VotingTest",
  "abi": [
    {
      "inputs": [
        {
          "internalType": "uint256",
          "name": "_phaseLength",
          "type": "uint256"
        },
        {
          "components": [
            {
              "internalType": "uint256",
              "name": "rawValue",
              "type": "uint256"
            }
          ],
          "internalType": "struct FixedPoint.Unsigned",
          "name": "_gatPercentage",
          "type": "tuple"
        },
        {
          "components": [
            {
              "internalType": "uint256",
              "name": "rawValue",
              "type": "uint256"
            }
          ],
          "internalType": "struct FixedPoint.Unsigned",
          "name": "_inflationRate",
          "type": "tuple"
        },
        {
          "internalType": "uint256",
          "name": "_rewardsExpirationTimeout",
          "type": "uint256"
        },
        {
          "internalType": "address",
          "name": "_votingToken",
          "type": "address"
        },
        {
          "internalType": "address",
          "name": "_finder",
          "type": "address"
        },
        {
          "internalType": "address",
          "name": "_timerAddress",
          "type": "address"
        }
      ],
      "stateMutability": "nonpayable",
      "type": "constructor"
    },
    {
      "anonymous": false,
      "inputs": [
        {
          "indexed": true,
          "internalType": "address",
          "name": "voter",
          "type": "address"
        },
        {
          "indexed": true,
          "internalType": "uint256",
          "name": "roundId",
          "type": "uint256"
        },
        {
          "indexed": true,
          "internalType": "bytes32",
          "name": "identifier",
          "type": "bytes32"
        },
        {
          "indexed": false,
          "internalType": "uint256",
          "name": "time",
          "type": "uint256"
        },
        {
          "indexed": false,
          "internalType": "bytes",
          "name": "encryptedVote",
          "type": "bytes"
        }
      ],
      "name": "EncryptedVote",
      "type": "event"
    },
    {
      "anonymous": false,
      "inputs": [
        {
          "indexed": true,
          "internalType": "address",
          "name": "previousOwner",
          "type": "address"
        },
        {
          "indexed": true,
          "internalType": "address",
          "name": "newOwner",
          "type": "address"
        }
      ],
      "name": "OwnershipTransferred",
      "type": "event"
    },
    {
      "anonymous": false,
      "inputs": [
        {
          "indexed": true,
          "internalType": "uint256",
          "name": "roundId",
          "type": "uint256"
        },
        {
          "indexed": true,
          "internalType": "bytes32",
          "name": "identifier",
          "type": "bytes32"
        },
        {
          "indexed": false,
          "internalType": "uint256",
          "name": "time",
          "type": "uint256"
        }
      ],
      "name": "PriceRequestAdded",
      "type": "event"
    },
    {
      "anonymous": false,
      "inputs": [
        {
          "indexed": true,
          "internalType": "uint256",
          "name": "roundId",
          "type": "uint256"
        },
        {
          "indexed": true,
          "internalType": "bytes32",
          "name": "identifier",
          "type": "bytes32"
        },
        {
          "indexed": false,
          "internalType": "uint256",
          "name": "time",
          "type": "uint256"
        },
        {
          "indexed": false,
          "internalType": "int256",
          "name": "price",
          "type": "int256"
        }
      ],
      "name": "PriceResolved",
      "type": "event"
    },
    {
      "anonymous": false,
      "inputs": [
        {
          "indexed": true,
          "internalType": "address",
          "name": "voter",
          "type": "address"
        },
        {
          "indexed": true,
          "internalType": "uint256",
          "name": "roundId",
          "type": "uint256"
        },
        {
          "indexed": true,
          "internalType": "bytes32",
          "name": "identifier",
          "type": "bytes32"
        },
        {
          "indexed": false,
          "internalType": "uint256",
          "name": "time",
          "type": "uint256"
        },
        {
          "indexed": false,
          "internalType": "uint256",
          "name": "numTokens",
          "type": "uint256"
        }
      ],
      "name": "RewardsRetrieved",
      "type": "event"
    },
    {
      "anonymous": false,
      "inputs": [
        {
          "indexed": true,
          "internalType": "address",
          "name": "voter",
          "type": "address"
        },
        {
          "indexed": true,
          "internalType": "uint256",
          "name": "roundId",
          "type": "uint256"
        },
        {
          "indexed": true,
          "internalType": "bytes32",
          "name": "identifier",
          "type": "bytes32"
        },
        {
          "indexed": false,
          "internalType": "uint256",
          "name": "time",
          "type": "uint256"
        }
      ],
      "name": "VoteCommitted",
      "type": "event"
    },
    {
      "anonymous": false,
      "inputs": [
        {
          "indexed": true,
          "internalType": "address",
          "name": "voter",
          "type": "address"
        },
        {
          "indexed": true,
          "internalType": "uint256",
          "name": "roundId",
          "type": "uint256"
        },
        {
          "indexed": true,
          "internalType": "bytes32",
          "name": "identifier",
          "type": "bytes32"
        },
        {
          "indexed": false,
          "internalType": "uint256",
          "name": "time",
          "type": "uint256"
        },
        {
          "indexed": false,
          "internalType": "int256",
          "name": "price",
          "type": "int256"
        },
        {
          "indexed": false,
          "internalType": "uint256",
          "name": "numTokens",
          "type": "uint256"
        }
      ],
      "name": "VoteRevealed",
      "type": "event"
    },
    {
      "inputs": [
        {
          "components": [
            {
              "internalType": "bytes32",
              "name": "identifier",
              "type": "bytes32"
            },
            {
              "internalType": "uint256",
              "name": "time",
              "type": "uint256"
            },
            {
              "internalType": "bytes32",
              "name": "hash",
              "type": "bytes32"
            },
            {
              "internalType": "bytes",
              "name": "encryptedVote",
              "type": "bytes"
            }
          ],
          "internalType": "struct VotingInterface.Commitment[]",
          "name": "commits",
          "type": "tuple[]"
        }
      ],
      "name": "batchCommit",
      "outputs": [],
      "stateMutability": "nonpayable",
      "type": "function"
    },
    {
      "inputs": [
        {
          "components": [
            {
              "internalType": "bytes32",
              "name": "identifier",
              "type": "bytes32"
            },
            {
              "internalType": "uint256",
              "name": "time",
              "type": "uint256"
            },
            {
              "internalType": "int256",
              "name": "price",
              "type": "int256"
            },
            {
              "internalType": "int256",
              "name": "salt",
              "type": "int256"
            }
          ],
          "internalType": "struct VotingInterface.Reveal[]",
          "name": "reveals",
          "type": "tuple[]"
        }
      ],
      "name": "batchReveal",
      "outputs": [],
      "stateMutability": "nonpayable",
      "type": "function"
    },
    {
      "inputs": [
        {
          "internalType": "bytes32",
          "name": "identifier",
          "type": "bytes32"
        },
        {
          "internalType": "uint256",
          "name": "time",
          "type": "uint256"
        },
        {
          "internalType": "bytes32",
          "name": "hash",
          "type": "bytes32"
        },
        {
          "internalType": "bytes",
          "name": "encryptedVote",
          "type": "bytes"
        }
      ],
      "name": "commitAndEmitEncryptedVote",
      "outputs": [],
      "stateMutability": "nonpayable",
      "type": "function"
    },
    {
      "inputs": [
        {
          "internalType": "bytes32",
          "name": "identifier",
          "type": "bytes32"
        },
        {
          "internalType": "uint256",
          "name": "time",
          "type": "uint256"
        },
        {
          "internalType": "bytes32",
          "name": "hash",
          "type": "bytes32"
        }
      ],
      "name": "commitVote",
      "outputs": [],
      "stateMutability": "nonpayable",
      "type": "function"
    },
    {
      "inputs": [],
      "name": "gatPercentage",
      "outputs": [
        {
          "internalType": "uint256",
          "name": "rawValue",
          "type": "uint256"
        }
      ],
      "stateMutability": "view",
      "type": "function"
    },
    {
      "inputs": [],
      "name": "getCurrentRoundId",
      "outputs": [
        {
          "internalType": "uint256",
          "name": "",
          "type": "uint256"
        }
      ],
      "stateMutability": "view",
      "type": "function"
    },
    {
      "inputs": [],
      "name": "getCurrentTime",
      "outputs": [
        {
          "internalType": "uint256",
          "name": "",
          "type": "uint256"
        }
      ],
      "stateMutability": "view",
      "type": "function"
    },
    {
      "inputs": [],
      "name": "getPendingRequests",
      "outputs": [
        {
          "components": [
            {
              "internalType": "bytes32",
              "name": "identifier",
              "type": "bytes32"
            },
            {
              "internalType": "uint256",
              "name": "time",
              "type": "uint256"
            }
          ],
          "internalType": "struct VotingInterface.PendingRequest[]",
          "name": "",
          "type": "tuple[]"
        }
      ],
      "stateMutability": "view",
      "type": "function"
    },
    {
      "inputs": [
        {
          "internalType": "bytes32",
          "name": "identifier",
          "type": "bytes32"
        },
        {
          "internalType": "uint256",
          "name": "time",
          "type": "uint256"
        }
      ],
      "name": "getPrice",
      "outputs": [
        {
          "internalType": "int256",
          "name": "",
          "type": "int256"
        }
      ],
      "stateMutability": "view",
      "type": "function"
    },
    {
      "inputs": [
        {
          "components": [
            {
              "internalType": "bytes32",
              "name": "identifier",
              "type": "bytes32"
            },
            {
              "internalType": "uint256",
              "name": "time",
              "type": "uint256"
            }
          ],
          "internalType": "struct VotingInterface.PendingRequest[]",
          "name": "requests",
          "type": "tuple[]"
        }
      ],
      "name": "getPriceRequestStatuses",
      "outputs": [
        {
          "components": [
            {
              "internalType": "enum Voting.RequestStatus",
              "name": "status",
              "type": "uint8"
            },
            {
              "internalType": "uint256",
              "name": "lastVotingRound",
              "type": "uint256"
            }
          ],
          "internalType": "struct Voting.RequestState[]",
          "name": "",
          "type": "tuple[]"
        }
      ],
      "stateMutability": "view",
      "type": "function"
    },
    {
      "inputs": [],
      "name": "getVotePhase",
      "outputs": [
        {
          "internalType": "enum VotingInterface.Phase",
          "name": "",
          "type": "uint8"
        }
      ],
      "stateMutability": "view",
      "type": "function"
    },
    {
      "inputs": [
        {
          "internalType": "bytes32",
          "name": "identifier",
          "type": "bytes32"
        },
        {
          "internalType": "uint256",
          "name": "time",
          "type": "uint256"
        }
      ],
      "name": "hasPrice",
      "outputs": [
        {
          "internalType": "bool",
          "name": "",
          "type": "bool"
        }
      ],
      "stateMutability": "view",
      "type": "function"
    },
    {
      "inputs": [],
      "name": "inflationRate",
      "outputs": [
        {
          "internalType": "uint256",
          "name": "rawValue",
          "type": "uint256"
        }
      ],
      "stateMutability": "view",
      "type": "function"
    },
    {
      "inputs": [],
      "name": "migratedAddress",
      "outputs": [
        {
          "internalType": "address",
          "name": "",
          "type": "address"
        }
      ],
      "stateMutability": "view",
      "type": "function"
    },
    {
      "inputs": [],
      "name": "owner",
      "outputs": [
        {
          "internalType": "address",
          "name": "",
          "type": "address"
        }
      ],
      "stateMutability": "view",
      "type": "function"
    },
    {
      "inputs": [],
      "name": "renounceOwnership",
      "outputs": [],
      "stateMutability": "nonpayable",
      "type": "function"
    },
    {
      "inputs": [
        {
          "internalType": "bytes32",
          "name": "identifier",
          "type": "bytes32"
        },
        {
          "internalType": "uint256",
          "name": "time",
          "type": "uint256"
        }
      ],
      "name": "requestPrice",
      "outputs": [],
      "stateMutability": "nonpayable",
      "type": "function"
    },
    {
      "inputs": [
        {
          "internalType": "address",
          "name": "voterAddress",
          "type": "address"
        },
        {
          "internalType": "uint256",
          "name": "roundId",
          "type": "uint256"
        },
        {
          "components": [
            {
              "internalType": "bytes32",
              "name": "identifier",
              "type": "bytes32"
            },
            {
              "internalType": "uint256",
              "name": "time",
              "type": "uint256"
            }
          ],
          "internalType": "struct VotingInterface.PendingRequest[]",
          "name": "toRetrieve",
          "type": "tuple[]"
        }
      ],
      "name": "retrieveRewards",
      "outputs": [
        {
          "components": [
            {
              "internalType": "uint256",
              "name": "rawValue",
              "type": "uint256"
            }
          ],
          "internalType": "struct FixedPoint.Unsigned",
          "name": "totalRewardToIssue",
          "type": "tuple"
        }
      ],
      "stateMutability": "nonpayable",
      "type": "function"
    },
    {
      "inputs": [
        {
          "internalType": "bytes32",
          "name": "identifier",
          "type": "bytes32"
        },
        {
          "internalType": "uint256",
          "name": "time",
          "type": "uint256"
        },
        {
          "internalType": "int256",
          "name": "price",
          "type": "int256"
        },
        {
          "internalType": "int256",
          "name": "salt",
          "type": "int256"
        }
      ],
      "name": "revealVote",
      "outputs": [],
      "stateMutability": "nonpayable",
      "type": "function"
    },
    {
      "inputs": [],
      "name": "rewardsExpirationTimeout",
      "outputs": [
        {
          "internalType": "uint256",
          "name": "",
          "type": "uint256"
        }
      ],
      "stateMutability": "view",
      "type": "function"
    },
    {
      "inputs": [
        {
          "internalType": "uint256",
          "name": "",
          "type": "uint256"
        }
      ],
      "name": "rounds",
      "outputs": [
        {
          "internalType": "uint256",
          "name": "snapshotId",
          "type": "uint256"
        },
        {
          "components": [
            {
              "internalType": "uint256",
              "name": "rawValue",
              "type": "uint256"
            }
          ],
          "internalType": "struct FixedPoint.Unsigned",
          "name": "inflationRate",
          "type": "tuple"
        },
        {
          "components": [
            {
              "internalType": "uint256",
              "name": "rawValue",
              "type": "uint256"
            }
          ],
          "internalType": "struct FixedPoint.Unsigned",
          "name": "gatPercentage",
          "type": "tuple"
        },
        {
          "internalType": "uint256",
          "name": "rewardsExpirationTime",
          "type": "uint256"
        }
      ],
      "stateMutability": "view",
      "type": "function"
    },
    {
      "inputs": [
        {
          "internalType": "uint256",
          "name": "time",
          "type": "uint256"
        }
      ],
      "name": "setCurrentTime",
      "outputs": [],
      "stateMutability": "nonpayable",
      "type": "function"
    },
    {
      "inputs": [
        {
          "components": [
            {
              "internalType": "uint256",
              "name": "rawValue",
              "type": "uint256"
            }
          ],
          "internalType": "struct FixedPoint.Unsigned",
          "name": "newGatPercentage",
          "type": "tuple"
        }
      ],
      "name": "setGatPercentage",
      "outputs": [],
      "stateMutability": "nonpayable",
      "type": "function"
    },
    {
      "inputs": [
        {
          "components": [
            {
              "internalType": "uint256",
              "name": "rawValue",
              "type": "uint256"
            }
          ],
          "internalType": "struct FixedPoint.Unsigned",
          "name": "newInflationRate",
          "type": "tuple"
        }
      ],
      "name": "setInflationRate",
      "outputs": [],
      "stateMutability": "nonpayable",
      "type": "function"
    },
    {
      "inputs": [
        {
          "internalType": "address",
          "name": "newVotingAddress",
          "type": "address"
        }
      ],
      "name": "setMigrated",
      "outputs": [],
      "stateMutability": "nonpayable",
      "type": "function"
    },
    {
      "inputs": [
        {
          "internalType": "uint256",
          "name": "NewRewardsExpirationTimeout",
          "type": "uint256"
        }
      ],
      "name": "setRewardsExpirationTimeout",
      "outputs": [],
      "stateMutability": "nonpayable",
      "type": "function"
    },
    {
      "inputs": [
        {
          "internalType": "bytes",
          "name": "signature",
          "type": "bytes"
        }
      ],
      "name": "snapshotCurrentRound",
      "outputs": [],
      "stateMutability": "nonpayable",
      "type": "function"
    },
    {
      "inputs": [],
      "name": "snapshotMessageHash",
      "outputs": [
        {
          "internalType": "bytes32",
          "name": "",
          "type": "bytes32"
        }
      ],
      "stateMutability": "view",
      "type": "function"
    },
    {
      "inputs": [],
      "name": "timerAddress",
      "outputs": [
        {
          "internalType": "address",
          "name": "",
          "type": "address"
        }
      ],
      "stateMutability": "view",
      "type": "function"
    },
    {
      "inputs": [
        {
          "internalType": "address",
          "name": "newOwner",
          "type": "address"
        }
      ],
      "name": "transferOwnership",
      "outputs": [],
      "stateMutability": "nonpayable",
      "type": "function"
    },
    {
      "inputs": [],
      "name": "voteTiming",
      "outputs": [
        {
          "internalType": "uint256",
          "name": "phaseLength",
          "type": "uint256"
        }
      ],
      "stateMutability": "view",
      "type": "function"
    },
    {
      "inputs": [],
      "name": "votingToken",
      "outputs": [
        {
          "internalType": "contract VotingToken",
          "name": "",
          "type": "address"
        }
      ],
      "stateMutability": "view",
      "type": "function"
    },
    {
      "inputs": [],
      "name": "getPendingPriceRequestsArray",
      "outputs": [
        {
          "internalType": "bytes32[]",
          "name": "",
          "type": "bytes32[]"
        }
      ],
      "stateMutability": "view",
      "type": "function"
    }
  ],
  "bytecode": "0x60c060405260116080527014da59db88119bdc8814db985c1cda1bdd607a1b60a052620000587f05ae8dd7e03a2a2e45343dbd50fe048482c1d0e0e9e034857ff13dd19f476b7e620001b6602090811b6200273f17901c565b600c553480156200006857600080fd5b5060405162004995380380620049958339810160408190526200008b91620002f9565b600080546001600160a01b0319166001600160a01b0383161781558790879087908790879087908790620000be620001e8565b600180546001600160a01b0319166001600160a01b038316908117909155604051919250906000907f8be0079c531659141344cd1fd0a4f28419497f9722a3daafe3b4186f6b6457e0908290a35062000127876005620001ec60201b6200276f1790919060201c565b62000142600187620001fe60201b620027801790919060201c565b6200016a5760405162461bcd60e51b81526004016200016190620003b8565b60405180910390fd5b5093516006559151600755600980546001600160a01b039384166001600160a01b031991821617909155600a805494909316931692909217905560085550620004499650505050505050565b600081604051602001620001cb919062000387565b604051602081830303815290604052805190602001209050919050565b3390565b60008111620001fa57600080fd5b9055565b600062000214826001600160e01b036200022216565b518351111590505b92915050565b6200022c620002a8565b604051806020016040528062000259670de0b6b3a7640000856200026160201b620027981790919060201c565b905292915050565b60008262000272575060006200021c565b828202828482816200028057fe5b0414620002a15760405162461bcd60e51b81526004016200016190620003ef565b9392505050565b6040518060200160405280600081525090565b600060208284031215620002cd578081fd5b604051602081016001600160401b0381118282101715620002ec578283fd5b6040529151825250919050565b600080600080600080600060e0888a03121562000314578283fd5b87519650620003278960208a01620002bb565b9550620003388960408a01620002bb565b9450606088015193506080880151620003518162000430565b60a0890151909350620003648162000430565b60c0890151909250620003778162000430565b8091505092959891949750929550565b7f19457468657265756d205369676e6564204d6573736167653a0a3332000000008152601c810191909152603c0190565b6020808252601e908201527f4741542070657263656e74616765206d757374206265203c3d20313030250000604082015260600190565b60208082526021908201527f536166654d6174683a206d756c7469706c69636174696f6e206f766572666c6f6040820152607760f81b606082015260800190565b6001600160a01b03811681146200044657600080fd5b50565b61453c80620004596000396000f3fe608060405234801561001057600080fd5b506004361061020b5760003560e01c806370a0cf2c1161012a5780638c65c81f116100bd578063b90fd4801161008c578063d8651ad011610071578063d8651ad014610426578063f116961f14610439578063f2fde38b1461044e5761020b565b8063b90fd4801461040b578063c9280f06146104135761020b565b80638c65c81f146103b85780638da5cb5b146103db578063a03e881a146103e3578063b0340123146104035761020b565b806380a1f712116100f957806380a1f7121461035d57806383c6aaca146103725780638558d4f3146103855780638876e8a0146103a55761020b565b806370a0cf2c14610325578063715018a61461033857806371b7db531461034057806374dd278c146103485761020b565b806329cb924d116101a25780634c7a2603116101715780634c7a2603146102e45780635727e25d146102f75780636852eea0146102ff57806368ad8ae3146103125761020b565b806329cb924d146102b957806331f9e35b146102c15780634000851f146102c95780634666cb0c146102d15761020b565b806320b373a2116101de57806320b373a21461027657806322f8e5661461028b57806326af73bf1461029e5780632960b5af146102a65761020b565b80630d434e7e14610210578063110d559a1461023957806313e56d6a1461024e5780631c39c38d14610261575b600080fd5b61022361021e36600461373d565b610461565b60405161023091906143b1565b60405180910390f35b61024c6102473660046139f5565b610b37565b005b61024c61025c366004613a50565b610cb2565b610269610d5b565b6040516102309190613b8c565b61027e610d77565b6040516102309190613cbd565b61024c610299366004613a75565b610d7d565b61027e610e2a565b61024c6102b4366004613705565b610e30565b61027e610ed3565b61027e610f9e565b610269610fa4565b61024c6102df3660046138fd565b610fc0565b61024c6102f23660046139c4565b611041565b61027e6113b5565b61024c61030d366004613833565b6113c7565b61024c6103203660046138b1565b61143f565b61024c610333366004613794565b611892565b61024c611a15565b61027e611ae0565b610350611ae6565b6040516102309190613cf2565b610365611b01565b6040516102309190613c17565b61024c610380366004613a50565b611cc5565b610398610393366004613800565b611d27565b6040516102309190613c66565b61024c6103b3366004613a75565b611e74565b6103cb6103c6366004613a75565b611ed5565b60405161023094939291906143ea565b610269611f0f565b6103f66103f13660046138b1565b611f2b565b6040516102309190613cb2565b61026961215f565b61027e61217b565b61027e6104213660046138b1565b612181565b61024c6104343660046138d2565b6123eb565b6104416125b0565b6040516102309190613bd3565b61024c61045c366004613705565b612608565b610469613622565b600b5473ffffffffffffffffffffffffffffffffffffffff16156104e157600b5473ffffffffffffffffffffffffffffffffffffffff1633146104e1576040517f08c379a00000000000000000000000000000000000000000000000000000000081526004016104d890613ee6565b60405180910390fd5b60006104eb610ed3565b90506104fe60058263ffffffff6127f316565b8410610536576040517f08c379a00000000000000000000000000000000000000000000000000000000081526004016104d890613f1d565b600084815260026020526040902060038101548211610553613622565b60408051602081019182905260095485547f4ee2cd7e000000000000000000000000000000000000000000000000000000009093529091829173ffffffffffffffffffffffffffffffffffffffff1690634ee2cd7e906105b8908d9060248601613bad565b60206040518083038186803b1580156105d057600080fd5b505afa1580156105e4573d6000803e3d6000fd5b505050506040513d601f19601f820116820180604052508101906106089190613a8d565b90529050610614613622565b60408051602081019182905260095486547f981b24d0000000000000000000000000000000000000000000000000000000009093529091829173ffffffffffffffffffffffffffffffffffffffff169063981b24d0906106779060248501613cbd565b60206040518083038186803b15801561068f57600080fd5b505afa1580156106a3573d6000803e3d6000fd5b505050506040513d601f19601f820116820180604052508101906106c79190613a8d565b905290506106d3613622565b6040805160208101909152600186015481526106f5908363ffffffff61282416565b604080516020810190915260008082529098509091505b8851811015610a3257600061074f8a838151811061072657fe5b6020026020010151600001518b848151811061073e57fe5b602002602001015160200151612867565b6003810154600081815260028301602052604090209192508c1461079f576040517f08c379a00000000000000000000000000000000000000000000000000000000081526004016104d89061430c565b6107a9828261288d565b73ffffffffffffffffffffffffffffffffffffffff8d166000908152602082905260409020600101546107dd575050610a2a565b8615610869578a83815181106107ef57fe5b6020026020010151600001518c8e73ffffffffffffffffffffffffffffffffffffffff167ff8da7bdb1837995e872689b605d1a2b076db111cb4b15351f835ebd275be423f8e878151811061084057fe5b602002602001015160200151600060405161085c929190613cc6565b60405180910390a46109fe565b73ffffffffffffffffffffffffffffffffffffffff8d1660009081526020829052604090206001908101546108a69183019063ffffffff612a4916565b1561097c576108b3613622565b6108de6108c283600101612a80565b6108d2898863ffffffff61282416565b9063ffffffff612aac16565b90506108f08b8263ffffffff612af616565b9a508b84815181106108fe57fe5b6020026020010151600001518d8f73ffffffffffffffffffffffffffffffffffffffff167ff8da7bdb1837995e872689b605d1a2b076db111cb4b15351f835ebd275be423f8f888151811061094f57fe5b602002602001015160200151856000015160405161096e929190613cc6565b60405180910390a4506109fe565b8a838151811061098857fe5b6020026020010151600001518c8e73ffffffffffffffffffffffffffffffffffffffff167ff8da7bdb1837995e872689b605d1a2b076db111cb4b15351f835ebd275be423f8e87815181106109d957fe5b60200260200101516020015160006040516109f5929190613cc6565b60405180910390a45b73ffffffffffffffffffffffffffffffffffffffff8d1660009081526020919091526040812060010155505b60010161070c565b50610a4487600063ffffffff612b1f16565b15610b2a5760095487516040517f40c10f1900000000000000000000000000000000000000000000000000000000815273ffffffffffffffffffffffffffffffffffffffff909216916340c10f1991610aa2918e9190600401613bad565b602060405180830381600087803b158015610abc57600080fd5b505af1158015610ad0573d6000803e3d6000fd5b505050506040513d601f19601f82011682018060405250810190610af49190613891565b610b2a576040517f08c379a00000000000000000000000000000000000000000000000000000000081526004016104d8906140e8565b5050505050509392505050565b600b5473ffffffffffffffffffffffffffffffffffffffff1615610b87576040517f08c379a00000000000000000000000000000000000000000000000000000000081526004016104d89061429e565b6000610b91610ed3565b90506001610ba660058363ffffffff612b3616565b6002811115610bb157fe5b14610be8576040517f08c379a00000000000000000000000000000000000000000000000000000000081526004016104d890614343565b3373ffffffffffffffffffffffffffffffffffffffff16610c41600c5485858080601f016020809104026020016040519081016040528093929190818152602001838380828437600092019190915250612b6792505050565b73ffffffffffffffffffffffffffffffffffffffff1614610c8e576040517f08c379a00000000000000000000000000000000000000000000000000000000081526004016104d8906140b1565b6000610ca160058363ffffffff6127f316565b9050610cac81612d28565b50505050565b610cba612e39565b60015473ffffffffffffffffffffffffffffffffffffffff908116911614610d0e576040517f08c379a00000000000000000000000000000000000000000000000000000000081526004016104d890614045565b610d1f81600163ffffffff612e3d16565b610d55576040517f08c379a00000000000000000000000000000000000000000000000000000000081526004016104d8906141c4565b51600655565b60005473ffffffffffffffffffffffffffffffffffffffff1681565b600c5481565b60005473ffffffffffffffffffffffffffffffffffffffff16610d9f57600080fd5b6000546040517f22f8e56600000000000000000000000000000000000000000000000000000000815273ffffffffffffffffffffffffffffffffffffffff909116906322f8e56690610df5908490600401613cbd565b600060405180830381600087803b158015610e0f57600080fd5b505af1158015610e23573d6000803e3d6000fd5b5050505050565b60085481565b610e38612e39565b60015473ffffffffffffffffffffffffffffffffffffffff908116911614610e8c576040517f08c379a00000000000000000000000000000000000000000000000000000000081526004016104d890614045565b600b80547fffffffffffffffffffffffff00000000000000000000000000000000000000001673ffffffffffffffffffffffffffffffffffffffff92909216919091179055565b6000805473ffffffffffffffffffffffffffffffffffffffff1615610f98576000809054906101000a900473ffffffffffffffffffffffffffffffffffffffff1673ffffffffffffffffffffffffffffffffffffffff166329cb924d6040518163ffffffff1660e01b815260040160206040518083038186803b158015610f5957600080fd5b505afa158015610f6d573d6000803e3d6000fd5b505050506040513d601f19601f82011682018060405250810190610f919190613a8d565b9050610f9b565b50425b90565b60075481565b600b5473ffffffffffffffffffffffffffffffffffffffff1681565b610fcb8484846123eb565b6000610fe6610fd8610ed3565b60059063ffffffff6127f316565b905084813373ffffffffffffffffffffffffffffffffffffffff167f6992efdd7b69c1a8d79212d5ef5fe92118ed053fb7195808a858fa6889a117e987866040516110329291906143bb565b60405180910390a45050505050565b600b5473ffffffffffffffffffffffffffffffffffffffff1615611091576040517f08c379a00000000000000000000000000000000000000000000000000000000081526004016104d89061429e565b600061109b610ed3565b905060016110b060058363ffffffff612b3616565b60028111156110bb57fe5b146110f2576040517f08c379a00000000000000000000000000000000000000000000000000000000081526004016104d890613e52565b600061110560058363ffffffff6127f316565b905060006111138787612867565b60008381526002820160209081526040808320338452918290529091208054929350909161116d576040517f08c379a00000000000000000000000000000000000000000000000000000000081526004016104d890614156565b80600001548787338b888e60405160200161118d96959493929190613b0e565b60405160208183030381529060405280519060200120146111da576040517f08c379a00000000000000000000000000000000000000000000000000000000081526004016104d890613d87565b60008481526002602052604090205461121f576040517f08c379a00000000000000000000000000000000000000000000000000000000081526004016104d8906142d5565b600084815260026020526040812054908255611239613622565b6040805160208101918290526009547f4ee2cd7e0000000000000000000000000000000000000000000000000000000090925290819073ffffffffffffffffffffffffffffffffffffffff16634ee2cd7e611298338760248601613bad565b60206040518083038186803b1580156112b057600080fd5b505afa1580156112c4573d6000803e3d6000fd5b505050506040513d601f19601f820116820180604052508101906112e89190613a8d565b8152509050886040516020016112fe9190613cbd565b604080517fffffffffffffffffffffffffffffffffffffffffffffffffffffffffffffffe081840301815291905280516020909101206001808501919091556113509085018a8363ffffffff612e5416565b8a863373ffffffffffffffffffffffffffffffffffffffff167fd04931ad32b4f942a0f169443ebd7f85a7d42c8b4310b4792243a065348836078d8d86600001516040516113a0939291906143d4565b60405180910390a45050505050505050505050565b60006113c2610fd8610ed3565b905090565b60005b8181101561143a576114328383838181106113e157fe5b905060800201600001358484848181106113f757fe5b9050608002016020013585858581811061140d57fe5b9050608002016040013586868681811061142357fe5b90506080020160600135611041565b6001016113ca565b505050565b600b5473ffffffffffffffffffffffffffffffffffffffff16156114b357600b5473ffffffffffffffffffffffffffffffffffffffff1633146114ae576040517f08c379a00000000000000000000000000000000000000000000000000000000081526004016104d89061437a565b611657565b600a546040517faafd5e4000000000000000000000000000000000000000000000000000000000815260009173ffffffffffffffffffffffffffffffffffffffff169063aafd5e409061152a907f526567697374727900000000000000000000000000000000000000000000000090600401613cbd565b60206040518083038186803b15801561154257600080fd5b505afa158015611556573d6000803e3d6000fd5b505050506040513d601f19601f8201168201806040525081019061157a9190613721565b6040517ff9f6b49b00000000000000000000000000000000000000000000000000000000815290915073ffffffffffffffffffffffffffffffffffffffff82169063f9f6b49b906115cf903390600401613b8c565b60206040518083038186803b1580156115e757600080fd5b505afa1580156115fb573d6000803e3d6000fd5b505050506040513d601f19601f8201168201806040525081019061161f9190613891565b611655576040517f08c379a00000000000000000000000000000000000000000000000000000000081526004016104d890614230565b505b6000611661610ed3565b90508082111561169d576040517f08c379a00000000000000000000000000000000000000000000000000000000081526004016104d89061418d565b6116a5612f1b565b73ffffffffffffffffffffffffffffffffffffffff166390978d1b846040518263ffffffff1660e01b81526004016116dd9190613cbd565b60206040518083038186803b1580156116f557600080fd5b505afa158015611709573d6000803e3d6000fd5b505050506040513d601f19601f8201168201806040525081019061172d9190613891565b611763576040517f08c379a00000000000000000000000000000000000000000000000000000000081526004016104d890613fb1565b600061176f8484612fe2565b600081815260036020526040812091925061179160058563ffffffff6127f316565b9050600061179f8383613015565b905060008160038111156117af57fe5b14156118895760006117c883600163ffffffff6130a216565b604080516080810182528a815260208082018b8152828401858152600480546060860190815260008d815260039586905287812096518755935160018088019190915592519486019490945592519383019390935581549283018255527f8a35acfbc15ff81a39ae7d344fd709f28e8600b4aa8c65c6b64bfe7fe36bd19b0187905551909150889082907f5d80f93c41e95cacea0b9ce9bb825092d709fa503a70bb26ea3f536bf16946bd9061187f908b90613cbd565b60405180910390a3505b50505050505050565b60005b8181101561143a578282828181106118a957fe5b90506020028101906118bb9190614471565b6118c9906060810190614405565b151590506119415761193c8383838181106118e057fe5b90506020028101906118f29190614471565b358484848181106118ff57fe5b90506020028101906119119190614471565b6020013585858581811061192157fe5b90506020028101906119339190614471565b604001356123eb565b611a0d565b611a0d83838381811061195057fe5b90506020028101906119629190614471565b3584848481811061196f57fe5b90506020028101906119819190614471565b6020013585858581811061199157fe5b90506020028101906119a39190614471565b604001358686868181106119b357fe5b90506020028101906119c59190614471565b6119d3906060810190614405565b8080601f016020809104026020016040519081016040528093929190818152602001838380828437600092019190915250610fc092505050565b600101611895565b611a1d612e39565b60015473ffffffffffffffffffffffffffffffffffffffff908116911614611a71576040517f08c379a00000000000000000000000000000000000000000000000000000000081526004016104d890614045565b60015460405160009173ffffffffffffffffffffffffffffffffffffffff16907f8be0079c531659141344cd1fd0a4f28419497f9722a3daafe3b4186f6b6457e0908390a3600180547fffffffffffffffffffffffff0000000000000000000000000000000000000000169055565b60055481565b60006113c2611af3610ed3565b60059063ffffffff612b3616565b60606000611b0d610ed3565b90506000611b2260058363ffffffff6127f316565b60045490915060609067ffffffffffffffff81118015611b4157600080fd5b50604051908082528060200260200182016040528015611b7b57816020015b611b68613635565b815260200190600190039081611b605790505b5090506000805b600454811015611c265760006003600060048481548110611b9f57fe5b90600052602060002001548152602001908152602001600020905060016003811115611bc757fe5b611bd18287613015565b6003811115611bdc57fe5b1415611c1d576040518060400160405280826000015481526020018260010154815250848481518110611c0b57fe5b60209081029190910101526001909201915b50600101611b82565b5060608167ffffffffffffffff81118015611c4057600080fd5b50604051908082528060200260200182016040528015611c7a57816020015b611c67613635565b815260200190600190039081611c5f5790505b50905060005b82811015611cbb57838181518110611c9457fe5b6020026020010151828281518110611ca857fe5b6020908102919091010152600101611c80565b5094505050505090565b611ccd612e39565b60015473ffffffffffffffffffffffffffffffffffffffff908116911614611d21576040517f08c379a00000000000000000000000000000000000000000000000000000000081526004016104d890614045565b51600755565b606080825167ffffffffffffffff81118015611d4257600080fd5b50604051908082528060200260200182016040528015611d7c57816020015b611d69613635565b815260200190600190039081611d615790505b5090506000611d8c610fd8610ed3565b905060005b8451811015611e69576000611dc3868381518110611dab57fe5b60200260200101516000015187848151811061073e57fe5b90506000611dd18285613015565b90506001816003811115611de157fe5b1415611e095783858481518110611df457fe5b60200260200101516020018181525050611e2b565b8160030154858481518110611e1a57fe5b602002602001015160200181815250505b80858481518110611e3857fe5b6020026020010151600001906003811115611e4f57fe5b90816003811115611e5c57fe5b9052505050600101611d91565b50909150505b919050565b611e7c612e39565b60015473ffffffffffffffffffffffffffffffffffffffff908116911614611ed0576040517f08c379a00000000000000000000000000000000000000000000000000000000081526004016104d890614045565b600855565b6002602081815260009283526040928390208054845180840186526001830154815285519384019095529281015482526003015491929184565b60015473ffffffffffffffffffffffffffffffffffffffff1690565b600b5460009073ffffffffffffffffffffffffffffffffffffffff1615611fa257600b5473ffffffffffffffffffffffffffffffffffffffff163314611f9d576040517f08c379a00000000000000000000000000000000000000000000000000000000081526004016104d89061437a565b612146565b600a546040517faafd5e4000000000000000000000000000000000000000000000000000000000815260009173ffffffffffffffffffffffffffffffffffffffff169063aafd5e4090612019907f526567697374727900000000000000000000000000000000000000000000000090600401613cbd565b60206040518083038186803b15801561203157600080fd5b505afa158015612045573d6000803e3d6000fd5b505050506040513d601f19601f820116820180604052508101906120699190613721565b6040517ff9f6b49b00000000000000000000000000000000000000000000000000000000815290915073ffffffffffffffffffffffffffffffffffffffff82169063f9f6b49b906120be903390600401613b8c565b60206040518083038186803b1580156120d657600080fd5b505afa1580156120ea573d6000803e3d6000fd5b505050506040513d601f19601f8201168201806040525081019061210e9190613891565b612144576040517f08c379a00000000000000000000000000000000000000000000000000000000081526004016104d890614230565b505b600061215284846130e1565b5090925050505b92915050565b60095473ffffffffffffffffffffffffffffffffffffffff1681565b60065481565b600b5460009073ffffffffffffffffffffffffffffffffffffffff16156121f857600b5473ffffffffffffffffffffffffffffffffffffffff1633146121f3576040517f08c379a00000000000000000000000000000000000000000000000000000000081526004016104d89061437a565b61239c565b600a546040517faafd5e4000000000000000000000000000000000000000000000000000000000815260009173ffffffffffffffffffffffffffffffffffffffff169063aafd5e409061226f907f526567697374727900000000000000000000000000000000000000000000000090600401613cbd565b60206040518083038186803b15801561228757600080fd5b505afa15801561229b573d6000803e3d6000fd5b505050506040513d601f19601f820116820180604052508101906122bf9190613721565b6040517ff9f6b49b00000000000000000000000000000000000000000000000000000000815290915073ffffffffffffffffffffffffffffffffffffffff82169063f9f6b49b90612314903390600401613b8c565b60206040518083038186803b15801561232c57600080fd5b505afa158015612340573d6000803e3d6000fd5b505050506040513d601f19601f820116820180604052508101906123649190613891565b61239a576040517f08c379a00000000000000000000000000000000000000000000000000000000081526004016104d890614230565b505b60008060606123ab86866130e1565b925092509250828190612152576040517f08c379a00000000000000000000000000000000000000000000000000000000081526004016104d89190613d06565b600b5473ffffffffffffffffffffffffffffffffffffffff161561243b576040517f08c379a00000000000000000000000000000000000000000000000000000000081526004016104d89061429e565b80612472576040517f08c379a00000000000000000000000000000000000000000000000000000000081526004016104d89061411f565b600061247c610ed3565b9050600061249160058363ffffffff612b3616565b600281111561249c57fe5b146124d3576040517f08c379a00000000000000000000000000000000000000000000000000000000081526004016104d890614267565b60006124e660058363ffffffff6127f316565b905060006124f48686612867565b905060016125028284613015565b600381111561250d57fe5b14612544576040517f08c379a00000000000000000000000000000000000000000000000000000000081526004016104d89061407a565b600381018290556000828152600282016020908152604080832033808552928190529281902087905551889185917f879c67d036f174a10ea491cf7281d05af9b906660b4f26727d866aec0cf9147c9061259f908b90613cbd565b60405180910390a450505050505050565b606060048054806020026020016040519081016040528092919081815260200182805480156125fe57602002820191906000526020600020905b8154815260200190600101908083116125ea575b5050505050905090565b612610612e39565b60015473ffffffffffffffffffffffffffffffffffffffff908116911614612664576040517f08c379a00000000000000000000000000000000000000000000000000000000081526004016104d890614045565b73ffffffffffffffffffffffffffffffffffffffff81166126b1576040517f08c379a00000000000000000000000000000000000000000000000000000000081526004016104d890613dbe565b60015460405173ffffffffffffffffffffffffffffffffffffffff8084169216907f8be0079c531659141344cd1fd0a4f28419497f9722a3daafe3b4186f6b6457e090600090a3600180547fffffffffffffffffffffffff00000000000000000000000000000000000000001673ffffffffffffffffffffffffffffffffffffffff92909216919091179055565b6000816040516020016127529190613b5b565b604051602081830303815290604052805190602001209050919050565b6000811161277c57600080fd5b9055565b600061278b8261326d565b5183511115905092915050565b6000826127a757506000612159565b828202828482816127b457fe5b04146127ec576040517f08c379a00000000000000000000000000000000000000000000000000000000081526004016104d890613fe8565b9392505050565b60008061280a60025b85549063ffffffff61279816565b905061281c838263ffffffff6132a116565b949350505050565b61282c613622565b6040805160208101909152825184518291670de0b6b3a7640000916128569163ffffffff61279816565b8161285d57fe5b0490529392505050565b6000600360006128778585612fe2565b8152602001908152602001600020905092915050565b60048201547fffffffffffffffffffffffffffffffffffffffffffffffffffffffffffffffff14156128be57612a45565b6000806128e16128d185600301546132e3565b600185019063ffffffff61341f16565b915091508161291c576040517f08c379a00000000000000000000000000000000000000000000000000000000081526004016104d8906141fb565b600480547fffffffffffffffffffffffffffffffffffffffffffffffffffffffffffffffff81019160009160039183918590811061295657fe5b906000526020600020015481526020019081526020016000209050856004015481600401819055506004828154811061298b57fe5b906000526020600020015460048760040154815481106129a757fe5b60009182526020909120015560048054806129be57fe5b60008281526020812082017fffffffffffffffffffffffffffffffffffffffffffffffffffffffffffffffff9081019190915590810190915560048701558554600387015460018801546040517f67565e6a3e804c4e180134cb2885e32142229de3ca125701318af11658ee498891612a38918890613cc6565b60405180910390a3505050505b5050565b60008260020154604051602001612a609190613cbd565b604051602081830303815290604052805190602001208214905092915050565b612a88613622565b50600281015460009081526020918252604090819020815192830190915254815290565b612ab4613622565b6040805160208101909152825184518291612aed91612ae190670de0b6b3a764000063ffffffff61279816565b9063ffffffff6132a116565b90529392505050565b612afe613622565b6040805160208101909152825184518291612aed919063ffffffff6130a216565b6000612b2a8261326d565b51835111905092915050565b6000612b5c60028454612b5090859063ffffffff6132a116565b9063ffffffff6134e316565b60028111156127ec57fe5b60008151604114612ba4576040517f08c379a00000000000000000000000000000000000000000000000000000000081526004016104d890613d50565b60208201516040830151606084015160001a7f7fffffffffffffffffffffffffffffff5d576e7357a4501ddfe92f46681b20a0821115612c10576040517f08c379a00000000000000000000000000000000000000000000000000000000081526004016104d890613e89565b8060ff16601b14158015612c2857508060ff16601c14155b15612c5f576040517f08c379a00000000000000000000000000000000000000000000000000000000081526004016104d890613f54565b600060018783868660405160008152602001604052604051612c849493929190613cd4565b6020604051602081039080840390855afa158015612ca6573d6000803e3d6000fd5b50506040517fffffffffffffffffffffffffffffffffffffffffffffffffffffffffffffffe0015191505073ffffffffffffffffffffffffffffffffffffffff8116612d1e576040517f08c379a00000000000000000000000000000000000000000000000000000000081526004016104d890613d19565b9695505050505050565b60008181526002602052604090208054612a4557600960009054906101000a900473ffffffffffffffffffffffffffffffffffffffff1673ffffffffffffffffffffffffffffffffffffffff16639711715a6040518163ffffffff1660e01b8152600401602060405180830381600087803b158015612da657600080fd5b505af1158015612dba573d6000803e3d6000fd5b505050506040513d601f19601f82011682018060405250810190612dde9190613a8d565b815560008281526002602081905260409091206007546001820155600654910155600854612e2390612e1760058563ffffffff61352516565b9063ffffffff6130a216565b6000838152600260205260409020600301555050565b3390565b6000612e488261326d565b51835110905092915050565b604080516020810190915260018401548152612e76908263ffffffff612af616565b51600184015560008281526020848152604091829020825191820190925290548152612ea8908263ffffffff612af616565b60008381526020859052604090209051905560028301548214801590612f0c575060028301546000908152602084815260408083208151808401835290548152858452868352928190208151928301909152548152612f0c9163ffffffff61355516565b1561143a575060029190910155565b600a546040517faafd5e4000000000000000000000000000000000000000000000000000000000815260009173ffffffffffffffffffffffffffffffffffffffff169063aafd5e4090612f92907f4964656e74696669657257686974656c6973740000000000000000000000000090600401613cbd565b60206040518083038186803b158015612faa57600080fd5b505afa158015612fbe573d6000803e3d6000fd5b505050506040513d601f19601f820116820180604052508101906113c29190613721565b60008282604051602001612ff7929190613cc6565b60405160208183030381529060405280519060200120905092915050565b600082600301546000141561302c57506000612159565b8183600301541015613086576003830154600081815260028501602052604081209161306b9061305b906132e3565b600184019063ffffffff61341f16565b5090508061307a57600161307d565b60025b92505050612159565b818360030154141561309a57506001612159565b506003612159565b6000828201838110156127ec576040517f08c379a00000000000000000000000000000000000000000000000000000000081526004016104d890613e1b565b600080606060006130f28686612867565b90506000613101610fd8610ed3565b9050600061310f8383613015565b9050600181600381111561311f57fe5b141561316b57505060408051808201909152601e81527f43757272656e7420766f74696e6720726f756e64206e6f7420656e646564000060208201526000945084935091506132669050565b600281600381111561317957fe5b14156131c657600383015460008181526002850160205260408120916131a29061305b906132e3565b60408051602081019091526000815260019a50909850965061326695505050505050565b60038160038111156131d457fe5b141561322057505060408051808201909152601d81527f5072696365206973207374696c6c20746f20626520766f746564206f6e00000060208201526000945084935091506132669050565b505060408051808201909152601981527f507269636520776173206e65766572207265717565737465640000000000000060208201526000945084935091506132669050565b9250925092565b613275613622565b60408051602081019091528061329984670de0b6b3a764000063ffffffff61279816565b905292915050565b60006127ec83836040518060400160405280601a81526020017f536166654d6174683a206469766973696f6e206279207a65726f00000000000081525061355c565b6132eb613622565b6000828152600260205260409020548061333457505060408051602081019091527fffffffffffffffffffffffffffffffffffffffffffffffffffffffffffffffff8152611e6f565b61333c613622565b6040805160208101918290526009547f981b24d00000000000000000000000000000000000000000000000000000000090925290819073ffffffffffffffffffffffffffffffffffffffff1663981b24d061339a8660248501613cbd565b60206040518083038186803b1580156133b257600080fd5b505afa1580156133c6573d6000803e3d6000fd5b505050506040513d601f19601f820116820180604052508101906133ea9190613a8d565b90526000858152600260208181526040928390208351918201909352910154815290915061281c90829063ffffffff61282416565b60008061342a613622565b6134456064613439603261326d565b9063ffffffff6135ad16565b60408051602081019091526001870154815290915061346a908563ffffffff61355516565b80156134c15750604080516020808201835260018801548252600288015460009081528882528390208351918201909352915482526134c19183916134b5919063ffffffff612aac16565b9063ffffffff61355516565b156134d65760019250846002015491506134db565b600092505b509250929050565b60006127ec83836040518060400160405280601881526020017f536166654d6174683a206d6f64756c6f206279207a65726f00000000000000008152506135d4565b60008061353260026127fc565b905061281c61354884600163ffffffff6130a216565b829063ffffffff61279816565b5190511190565b60008183613597576040517f08c379a00000000000000000000000000000000000000000000000000000000081526004016104d89190613d06565b5060008385816135a357fe5b0495945050505050565b6135b5613622565b604080516020810190915283518190612aed908563ffffffff6132a116565b6000818361360f576040517f08c379a00000000000000000000000000000000000000000000000000000000081526004016104d89190613d06565b5082848161361957fe5b06949350505050565b6040518060200160405280600081525090565b604080518082019091526000808252602082015290565b600082601f83011261365c578081fd5b813567ffffffffffffffff811115613672578182fd5b602061368181828402016144ae565b82815292508083018482016040808502870184018810156136a157600080fd5b60005b858110156136c8576136b689846136d4565b845292840192918101916001016136a4565b50505050505092915050565b6000604082840312156136e5578081fd5b6136ef60406144ae565b9050813581526020820135602082015292915050565b600060208284031215613716578081fd5b81356127ec816144e1565b600060208284031215613732578081fd5b81516127ec816144e1565b600080600060608486031215613751578182fd5b833561375c816144e1565b925060208401359150604084013567ffffffffffffffff81111561377e578182fd5b61378a8682870161364c565b9150509250925092565b600080602083850312156137a6578182fd5b823567ffffffffffffffff808211156137bd578384fd5b81850186601f8201126137ce578485fd5b80359250818311156137de578485fd5b86602080850283010111156137f1578485fd5b60200196919550909350505050565b600060208284031215613811578081fd5b813567ffffffffffffffff811115613827578182fd5b61281c8482850161364c565b60008060208385031215613845578182fd5b823567ffffffffffffffff8082111561385c578384fd5b81850186601f82011261386d578485fd5b803592508183111561387d578485fd5b8660206080850283010111156137f1578485fd5b6000602082840312156138a2578081fd5b815180151581146127ec578182fd5b600080604083850312156138c3578182fd5b50508035926020909101359150565b6000806000606084860312156138e6578283fd5b505081359360208301359350604090920135919050565b60008060008060808587031215613912578081fd5b843593506020850135925060408501359150606085013567ffffffffffffffff8082111561393e578283fd5b81870188601f82011261394f578384fd5b803592508183111561395f578384fd5b61399060207fffffffffffffffffffffffffffffffffffffffffffffffffffffffffffffffe0601f860116016144ae565b91508282528860208483010111156139a6578384fd5b6139b78360208401602084016144d5565b5094979396509194505050565b600080600080608085870312156139d9578182fd5b5050823594602084013594506040840135936060013592509050565b60008060208385031215613a07578182fd5b823567ffffffffffffffff80821115613a1e578384fd5b81850186601f820112613a2f578485fd5b8035925081831115613a3f578485fd5b8660208483010111156137f1578485fd5b600060208284031215613a61578081fd5b613a6b60206144ae565b9135825250919050565b600060208284031215613a86578081fd5b5035919050565b600060208284031215613a9e578081fd5b5051919050565b60008151808452815b81811015613aca57602081850181015186830182015201613aae565b81811115613adb5782602083870101525b50601f017fffffffffffffffffffffffffffffffffffffffffffffffffffffffffffffffe0169290920160200192915050565b958652602086019490945260609290921b7fffffffffffffffffffffffffffffffffffffffff00000000000000000000000016604085015260548401526074830152609482015260b40190565b7f19457468657265756d205369676e6564204d6573736167653a0a3332000000008152601c810191909152603c0190565b73ffffffffffffffffffffffffffffffffffffffff91909116815260200190565b73ffffffffffffffffffffffffffffffffffffffff929092168252602082015260400190565b6020808252825182820181905260009190848201906040850190845b81811015613c0b57835183529284019291840191600101613bef565b50909695505050505050565b602080825282518282018190526000919060409081850190868401855b82811015613c5957815180518552860151868501529284019290850190600101613c34565b5091979650505050505050565b602080825282518282018190526000919060409081850190868401855b82811015613c59578151805160048110613c9957fe5b8552860151868501529284019290850190600101613c83565b901515815260200190565b90815260200190565b918252602082015260400190565b93845260ff9290921660208401526040830152606082015260800190565b6020810160038310613d0057fe5b91905290565b6000602082526127ec6020830184613aa5565b60208082526018908201527f45434453413a20696e76616c6964207369676e61747572650000000000000000604082015260600190565b6020808252601f908201527f45434453413a20696e76616c6964207369676e6174757265206c656e67746800604082015260600190565b6020808252601c908201527f52657665616c6564206461746120213d20636f6d6d6974206861736800000000604082015260600190565b60208082526026908201527f4f776e61626c653a206e6577206f776e657220697320746865207a65726f206160408201527f6464726573730000000000000000000000000000000000000000000000000000606082015260800190565b6020808252601b908201527f536166654d6174683a206164646974696f6e206f766572666c6f770000000000604082015260600190565b6020808252601d908201527f43616e6e6f742072657665616c20696e20636f6d6d6974207068617365000000604082015260600190565b60208082526022908201527f45434453413a20696e76616c6964207369676e6174757265202773272076616c60408201527f7565000000000000000000000000000000000000000000000000000000000000606082015260800190565b6020808252601b908201527f43616e206f6e6c792063616c6c2066726f6d206d696772617465640000000000604082015260600190565b6020808252600f908201527f496e76616c696420726f756e6449640000000000000000000000000000000000604082015260600190565b60208082526022908201527f45434453413a20696e76616c6964207369676e6174757265202776272076616c60408201527f7565000000000000000000000000000000000000000000000000000000000000606082015260800190565b6020808252601e908201527f556e737570706f72746564206964656e74696669657220726571756573740000604082015260600190565b60208082526021908201527f536166654d6174683a206d756c7469706c69636174696f6e206f766572666c6f60408201527f7700000000000000000000000000000000000000000000000000000000000000606082015260800190565b6020808252818101527f4f776e61626c653a2063616c6c6572206973206e6f7420746865206f776e6572604082015260600190565b6020808252601e908201527f43616e6e6f7420636f6d6d697420696e61637469766520726571756573740000604082015260600190565b6020808252601b908201527f5369676e6174757265206d757374206d617463682073656e6465720000000000604082015260600190565b6020808252601c908201527f566f74696e6720746f6b656e2069737375616e6365206661696c656400000000604082015260600190565b60208082526015908201527f496e76616c69642070726f766964656420686173680000000000000000000000604082015260600190565b60208082526013908201527f496e76616c696420686173682072657665616c00000000000000000000000000604082015260600190565b60208082526018908201527f43616e206f6e6c79207265717565737420696e20706173740000000000000000604082015260600190565b6020808252601d908201527f4741542070657263656e74616765206d757374206265203c2031303025000000604082015260600190565b6020808252818101527f43616e2774207265736f6c766520756e7265736f6c7665642072657175657374604082015260600190565b60208082526019908201527f43616c6c6564206d757374206265207265676973746572656400000000000000604082015260600190565b6020808252601d908201527f43616e6e6f7420636f6d6d697420696e2072657665616c207068617365000000604082015260600190565b6020808252601e908201527f4f6e6c792063616c6c2074686973206966206e6f74206d696772617465640000604082015260600190565b60208082526015908201527f526f756e6420686173206e6f20736e617073686f740000000000000000000000604082015260600190565b6020808252601d908201527f526574726965766520666f7220766f7465732073616d6520726f756e64000000604082015260600190565b6020808252601d908201527f4f6e6c7920736e617073686f7420696e2072657665616c207068617365000000604082015260600190565b6020808252601f908201527f43616c6c6572206d757374206265206d69677261746564206164647265737300604082015260600190565b9051815260200190565b60008382526040602083015261281c6040830184613aa5565b9283526020830191909152604082015260600190565b93845291516020840152516040830152606082015260800190565b60008083357fffffffffffffffffffffffffffffffffffffffffffffffffffffffffffffffe1843603018112614439578283fd5b8084018035925067ffffffffffffffff831115614454578384fd5b6020019250503681900382131561446a57600080fd5b9250929050565b600082357fffffffffffffffffffffffffffffffffffffffffffffffffffffffffffffff818336030181126144a4578182fd5b9190910192915050565b60405181810167ffffffffffffffff811182821017156144cd57600080fd5b604052919050565b82818337506000910152565b73ffffffffffffffffffffffffffffffffffffffff8116811461450357600080fd5b5056fea26469706673582212207ea4716a0cd8aa62d38d2362ed546b5e8c0642cfda3d9399a0d92131ce12dd9764736f6c634300060a0033",
  "immutableReferences": {},
  "source": "pragma solidity ^0.6.0;\n\npragma experimental ABIEncoderV2;\n\nimport \"../Voting.sol\";\nimport \"../../../common/implementation/FixedPoint.sol\";\n\n\n// Test contract used to access internal variables in the Voting contract.\ncontract VotingTest is Voting {\n    constructor(\n        uint256 _phaseLength,\n        FixedPoint.Unsigned memory _gatPercentage,\n        FixedPoint.Unsigned memory _inflationRate,\n        uint256 _rewardsExpirationTimeout,\n        address _votingToken,\n        address _finder,\n        address _timerAddress\n    )\n        public\n        Voting(\n            _phaseLength,\n            _gatPercentage,\n            _inflationRate,\n            _rewardsExpirationTimeout,\n            _votingToken,\n            _finder,\n            _timerAddress\n        )\n    {}\n\n    function getPendingPriceRequestsArray() external view returns (bytes32[] memory) {\n        return pendingPriceRequests;\n    }\n}\n",
  "sourcePath": "/home/alessandrovm/JarvisLavoro/SynFiat/packages/contracts/contracts/uma-contracts/oracle/implementation/test/VotingTest.sol",
  "compiler": {
    "name": "solc",
    "version": "0.6.10+commit.00c0fcaf.Emscripten.clang"
  },
  "schemaVersion": "3.2.5",
  "updatedAt": "2020-10-22T14:01:04.644Z",
  "devdoc": {
    "methods": {
      "batchCommit((bytes32,uint256,bytes32,bytes)[])": {
        "details": "Using `encryptedVote` is optional. If included then commitment is emitted in an event. Look at `project-root/common/Constants.js` for the tested maximum number of commitments that can fit in one transaction.",
        "params": {
          "commits": "struct to encapsulate an `identifier`, `time`, `hash` and optional `encryptedVote`."
        }
      },
      "batchReveal((bytes32,uint256,int256,int256)[])": {
        "details": "For more information on reveals, review the comment for `revealVote`.",
        "params": {
          "reveals": "array of the Reveal struct which contains an identifier, time, price and salt."
        }
      },
      "commitAndEmitEncryptedVote(bytes32,uint256,bytes32,bytes)": {
        "details": "An encrypted version of the vote is emitted in an event `EncryptedVote` to allow off-chain infrastructure to retrieve the commit. The contents of `encryptedVote` are never used on chain: it is purely for convenience.",
        "params": {
          "encryptedVote": "offchain encrypted blob containing the voters amount, time and salt.",
          "hash": "keccak256 hash of the price you want to vote for and a `int256 salt`.",
          "identifier": "unique price pair identifier. Eg: BTC/USD price pair.",
          "time": "unix timestamp of for the price request."
        }
      },
      "commitVote(bytes32,uint256,bytes32)": {
        "details": "`identifier`, `time` must correspond to a price request that's currently in the commit phase. Commits can be changed.Since transaction data is public, the salt will be revealed with the vote. While this is the systems expected behavior, voters should never reuse salts. If someone else is able to guess the voted price and knows that a salt will be reused, then they can determine the vote pre-reveal.",
        "params": {
          "hash": "keccak256 hash of the `price`, `salt`, voter `address`, `time`, current `roundId`, and `identifier`.",
          "identifier": "uniquely identifies the committed vote. EG BTC/USD price pair.",
          "time": "unix timestamp of the price being voted on."
        }
      },
      "getCurrentRoundId()": {
        "returns": {
          "_0": "uint256 representing the unique round ID."
        }
      },
      "getCurrentTime()": {
        "returns": {
          "_0": "uint for the current Testable timestamp."
        }
      },
      "getPendingRequests()": {
        "returns": {
          "_0": "pendingRequests array containing identifiers of type `PendingRequest`. and timestamps for all pending requests."
        }
      },
      "getPrice(bytes32,uint256)": {
        "details": "If the price is not available, the method reverts.",
        "params": {
          "identifier": "uniquely identifies the price requested. eg BTC/USD (encoded as bytes32) could be requested.",
          "time": "unix timestamp of for the price request."
        },
        "returns": {
          "_0": "int256 representing the resolved price for the given identifier and timestamp."
        }
      },
      "getPriceRequestStatuses((bytes32,uint256)[])": {
        "details": "If the status for a particular request is NotRequested, the lastVotingRound will always be 0.",
        "params": {
          "requests": "array of type PendingRequest which includes an identifier and timestamp for each request."
        },
        "returns": {
          "_0": "requestStates a list, in the same order as the input list, giving the status of each of the specified price requests."
        }
      },
      "getVotePhase()": {
        "returns": {
          "_0": "Phase to indicate the current phase. Either { Commit, Reveal, NUM_PHASES_PLACEHOLDER }."
        }
      },
      "hasPrice(bytes32,uint256)": {
        "details": "Time must be in the past and the identifier must be supported.",
        "params": {
          "identifier": "uniquely identifies the price requested. eg BTC/USD (encoded as bytes32) could be requested.",
          "time": "unix timestamp of for the price request."
        },
        "returns": {
          "_0": "_hasPrice bool if the DVM has resolved to a price for the given identifier and timestamp."
        }
      },
      "owner()": {
        "details": "Returns the address of the current owner."
      },
      "renounceOwnership()": {
        "details": "Leaves the contract without owner. It will not be possible to call `onlyOwner` functions anymore. Can only be called by the current owner. NOTE: Renouncing ownership will leave the contract without an owner, thereby removing any functionality that is only available to the owner."
      },
      "requestPrice(bytes32,uint256)": {
        "details": "Time must be in the past and the identifier must be supported.",
        "params": {
          "identifier": "uniquely identifies the price requested. eg BTC/USD (encoded as bytes32) could be requested.",
          "time": "unix timestamp for the price request."
        }
      },
      "retrieveRewards(address,uint256,(bytes32,uint256)[])": {
        "details": "Can only retrieve rewards if calling for a valid round and if the call is done within the timeout threshold (not expired).",
        "params": {
          "roundId": "the round from which voting rewards will be retrieved from.",
          "toRetrieve": "array of PendingRequests which rewards are retrieved from.",
          "voterAddress": "voter for which rewards will be retrieved. Does not have to be the caller."
        },
        "returns": {
          "totalRewardToIssue": "total amount of rewards returned to the voter."
        }
      },
      "revealVote(bytes32,uint256,int256,int256)": {
        "details": "The revealed `price`, `salt`, `address`, `time`, `roundId`, and `identifier`, must hash to the latest `hash` that `commitVote()` was called with. Only the committer can reveal their vote.",
        "params": {
          "identifier": "voted on in the commit phase. EG BTC/USD price pair.",
          "price": "voted on during the commit phase.",
          "salt": "value used to hide the commitment price during the commit phase.",
          "time": "specifies the unix timestamp of the price being voted on."
        }
      },
      "setCurrentTime(uint256)": {
        "details": "Will revert if not running in test mode.",
        "params": {
          "time": "timestamp to set current Testable time to."
        }
      },
      "setGatPercentage((uint256))": {
        "details": "This method is public because calldata structs are not currently supported by solidity.",
        "params": {
          "newGatPercentage": "sets the next round's Gat percentage."
        }
      },
      "setInflationRate((uint256))": {
        "details": "This method is public because calldata structs are not currently supported by solidity.",
        "params": {
          "newInflationRate": "sets the next round's inflation rate."
        }
      },
      "setMigrated(address)": {
        "details": "Can only be called by the contract owner.",
        "params": {
          "newVotingAddress": "the newly migrated contract address."
        }
      },
      "setRewardsExpirationTimeout(uint256)": {
        "details": "This change only applies to rounds that have not yet begun.",
        "params": {
          "NewRewardsExpirationTimeout": "how long a caller can wait before choosing to withdraw their rewards."
        }
      },
      "snapshotCurrentRound(bytes)": {
        "details": "This function can be called multiple times, but only the first call per round into this function or `revealVote` will create the round snapshot. Any later calls will be a no-op. Will revert unless called during reveal period.",
        "params": {
          "signature": "signature required to prove caller is an EOA to prevent flash loans from being included in the snapshot."
        }
      },
      "transferOwnership(address)": {
        "details": "Transfers ownership of the contract to a new account (`newOwner`). Can only be called by the current owner."
      }
    }
  },
  "userdoc": {
    "methods": {
      "batchCommit((bytes32,uint256,bytes32,bytes)[])": {
        "notice": "Submit a batch of commits in a single transaction."
      },
      "batchReveal((bytes32,uint256,int256,int256)[])": {
        "notice": "Reveal multiple votes in a single transaction. Look at `project-root/common/Constants.js` for the tested maximum number of reveals. that can fit in one transaction."
      },
      "commitAndEmitEncryptedVote(bytes32,uint256,bytes32,bytes)": {
        "notice": "commits a vote and logs an event with a data blob, typically an encrypted version of the vote"
      },
      "commitVote(bytes32,uint256,bytes32)": {
        "notice": "Commit a vote for a price request for `identifier` at `time`."
      },
      "getCurrentRoundId()": {
        "notice": "Returns the current round ID, as a function of the current time."
      },
      "getCurrentTime()": {
        "notice": "Gets the current time. Will return the last time set in `setCurrentTime` if running in test mode. Otherwise, it will return the block timestamp."
      },
      "getPendingRequests()": {
        "notice": "Gets the queries that are being voted on this round."
      },
      "getPrice(bytes32,uint256)": {
        "notice": "Gets the price for `identifier` and `time` if it has already been requested and resolved."
      },
      "getPriceRequestStatuses((bytes32,uint256)[])": {
        "notice": "Gets the status of a list of price requests, identified by their identifier and time."
      },
      "getVotePhase()": {
        "notice": "Returns the current voting phase, as a function of the current time."
      },
      "hasPrice(bytes32,uint256)": {
        "notice": "Whether the price for `identifier` and `time` is available."
      },
      "requestPrice(bytes32,uint256)": {
        "notice": "Enqueues a request (if a request isn't already present) for the given `identifier`, `time` pair."
      },
      "retrieveRewards(address,uint256,(bytes32,uint256)[])": {
        "notice": "Retrieves rewards owed for a set of resolved price requests."
      },
      "revealVote(bytes32,uint256,int256,int256)": {
        "notice": "Reveal a previously committed vote for `identifier` at `time`."
      },
      "rounds(uint256)": {
        "notice": "**************************************          INTERNAL TRACKING           ****************************************"
      },
      "setCurrentTime(uint256)": {
        "notice": "Sets the current time."
      },
      "setGatPercentage((uint256))": {
        "notice": "Resets the Gat percentage. Note: this change only applies to rounds that have not yet begun."
      },
      "setInflationRate((uint256))": {
        "notice": "Resets the inflation rate. Note: this change only applies to rounds that have not yet begun."
      },
      "setMigrated(address)": {
        "notice": "Disables this Voting contract in favor of the migrated one."
      },
      "setRewardsExpirationTimeout(uint256)": {
        "notice": "Resets the rewards expiration timeout."
      },
      "snapshotCurrentRound(bytes)": {
        "notice": "Snapshot the current round's token balances and lock in the inflation rate and GAT."
      }
    }
  }
}