{
  "contractName": "VotingToken",
  "abi": [
    {
      "anonymous": false,
      "inputs": [
        {
          "indexed": true,
          "internalType": "address",
          "name": "owner",
          "type": "address"
        },
        {
          "indexed": true,
          "internalType": "address",
          "name": "spender",
          "type": "address"
        },
        {
          "indexed": false,
          "internalType": "uint256",
          "name": "value",
          "type": "uint256"
        }
      ],
      "name": "Approval",
      "type": "event"
    },
    {
      "anonymous": false,
      "inputs": [
        {
          "indexed": false,
          "internalType": "uint256",
          "name": "id",
          "type": "uint256"
        }
      ],
      "name": "Snapshot",
      "type": "event"
    },
    {
      "anonymous": false,
      "inputs": [
        {
          "indexed": true,
          "internalType": "address",
          "name": "from",
          "type": "address"
        },
        {
          "indexed": true,
          "internalType": "address",
          "name": "to",
          "type": "address"
        },
        {
          "indexed": false,
          "internalType": "uint256",
          "name": "value",
          "type": "uint256"
        }
      ],
      "name": "Transfer",
      "type": "event"
    },
    {
      "inputs": [
        {
          "internalType": "uint256",
          "name": "roleId",
          "type": "uint256"
        },
        {
          "internalType": "address",
          "name": "newMember",
          "type": "address"
        }
      ],
      "name": "addMember",
      "outputs": [],
      "stateMutability": "nonpayable",
      "type": "function"
    },
    {
      "inputs": [
        {
          "internalType": "address",
          "name": "owner",
          "type": "address"
        },
        {
          "internalType": "address",
          "name": "spender",
          "type": "address"
        }
      ],
      "name": "allowance",
      "outputs": [
        {
          "internalType": "uint256",
          "name": "",
          "type": "uint256"
        }
      ],
      "stateMutability": "view",
      "type": "function"
    },
    {
      "inputs": [
        {
          "internalType": "address",
          "name": "spender",
          "type": "address"
        },
        {
          "internalType": "uint256",
          "name": "amount",
          "type": "uint256"
        }
      ],
      "name": "approve",
      "outputs": [
        {
          "internalType": "bool",
          "name": "",
          "type": "bool"
        }
      ],
      "stateMutability": "nonpayable",
      "type": "function"
    },
    {
      "inputs": [
        {
          "internalType": "address",
          "name": "account",
          "type": "address"
        }
      ],
      "name": "balanceOf",
      "outputs": [
        {
          "internalType": "uint256",
          "name": "",
          "type": "uint256"
        }
      ],
      "stateMutability": "view",
      "type": "function"
    },
    {
      "inputs": [
        {
          "internalType": "address",
          "name": "account",
          "type": "address"
        },
        {
          "internalType": "uint256",
          "name": "snapshotId",
          "type": "uint256"
        }
      ],
      "name": "balanceOfAt",
      "outputs": [
        {
          "internalType": "uint256",
          "name": "",
          "type": "uint256"
        }
      ],
      "stateMutability": "view",
      "type": "function"
    },
    {
      "inputs": [
        {
          "internalType": "uint256",
          "name": "value",
          "type": "uint256"
        }
      ],
      "name": "burn",
      "outputs": [],
      "stateMutability": "nonpayable",
      "type": "function"
    },
    {
      "inputs": [],
      "name": "decimals",
      "outputs": [
        {
          "internalType": "uint8",
          "name": "",
          "type": "uint8"
        }
      ],
      "stateMutability": "view",
      "type": "function"
    },
    {
      "inputs": [
        {
          "internalType": "address",
          "name": "spender",
          "type": "address"
        },
        {
          "internalType": "uint256",
          "name": "subtractedValue",
          "type": "uint256"
        }
      ],
      "name": "decreaseAllowance",
      "outputs": [
        {
          "internalType": "bool",
          "name": "",
          "type": "bool"
        }
      ],
      "stateMutability": "nonpayable",
      "type": "function"
    },
    {
      "inputs": [
        {
          "internalType": "uint256",
          "name": "roleId",
          "type": "uint256"
        }
      ],
      "name": "getMember",
      "outputs": [
        {
          "internalType": "address",
          "name": "",
          "type": "address"
        }
      ],
      "stateMutability": "view",
      "type": "function"
    },
    {
      "inputs": [
        {
          "internalType": "uint256",
          "name": "roleId",
          "type": "uint256"
        },
        {
          "internalType": "address",
          "name": "memberToCheck",
          "type": "address"
        }
      ],
      "name": "holdsRole",
      "outputs": [
        {
          "internalType": "bool",
          "name": "",
          "type": "bool"
        }
      ],
      "stateMutability": "view",
      "type": "function"
    },
    {
      "inputs": [
        {
          "internalType": "address",
          "name": "spender",
          "type": "address"
        },
        {
          "internalType": "uint256",
          "name": "addedValue",
          "type": "uint256"
        }
      ],
      "name": "increaseAllowance",
      "outputs": [
        {
          "internalType": "bool",
          "name": "",
          "type": "bool"
        }
      ],
      "stateMutability": "nonpayable",
      "type": "function"
    },
    {
      "inputs": [
        {
          "internalType": "address",
          "name": "recipient",
          "type": "address"
        },
        {
          "internalType": "uint256",
          "name": "value",
          "type": "uint256"
        }
      ],
      "name": "mint",
      "outputs": [
        {
          "internalType": "bool",
          "name": "",
          "type": "bool"
        }
      ],
      "stateMutability": "nonpayable",
      "type": "function"
    },
    {
      "inputs": [],
      "name": "name",
      "outputs": [
        {
          "internalType": "string",
          "name": "",
          "type": "string"
        }
      ],
      "stateMutability": "view",
      "type": "function"
    },
    {
      "inputs": [
        {
          "internalType": "uint256",
          "name": "roleId",
          "type": "uint256"
        },
        {
          "internalType": "address",
          "name": "memberToRemove",
          "type": "address"
        }
      ],
      "name": "removeMember",
      "outputs": [],
      "stateMutability": "nonpayable",
      "type": "function"
    },
    {
      "inputs": [
        {
          "internalType": "uint256",
          "name": "roleId",
          "type": "uint256"
        },
        {
          "internalType": "address",
          "name": "newMember",
          "type": "address"
        }
      ],
      "name": "resetMember",
      "outputs": [],
      "stateMutability": "nonpayable",
      "type": "function"
    },
    {
      "inputs": [],
      "name": "snapshot",
      "outputs": [
        {
          "internalType": "uint256",
          "name": "",
          "type": "uint256"
        }
      ],
      "stateMutability": "nonpayable",
      "type": "function"
    },
    {
      "inputs": [],
      "name": "symbol",
      "outputs": [
        {
          "internalType": "string",
          "name": "",
          "type": "string"
        }
      ],
      "stateMutability": "view",
      "type": "function"
    },
    {
      "inputs": [],
      "name": "totalSupply",
      "outputs": [
        {
          "internalType": "uint256",
          "name": "",
          "type": "uint256"
        }
      ],
      "stateMutability": "view",
      "type": "function"
    },
    {
      "inputs": [
        {
          "internalType": "uint256",
          "name": "snapshotId",
          "type": "uint256"
        }
      ],
      "name": "totalSupplyAt",
      "outputs": [
        {
          "internalType": "uint256",
          "name": "",
          "type": "uint256"
        }
      ],
      "stateMutability": "view",
      "type": "function"
    },
    {
      "inputs": [
        {
          "internalType": "address",
          "name": "recipient",
          "type": "address"
        },
        {
          "internalType": "uint256",
          "name": "amount",
          "type": "uint256"
        }
      ],
      "name": "transfer",
      "outputs": [
        {
          "internalType": "bool",
          "name": "",
          "type": "bool"
        }
      ],
      "stateMutability": "nonpayable",
      "type": "function"
    },
    {
      "inputs": [
        {
          "internalType": "address",
          "name": "sender",
          "type": "address"
        },
        {
          "internalType": "address",
          "name": "recipient",
          "type": "address"
        },
        {
          "internalType": "uint256",
          "name": "amount",
          "type": "uint256"
        }
      ],
      "name": "transferFrom",
      "outputs": [
        {
          "internalType": "bool",
          "name": "",
          "type": "bool"
        }
      ],
      "stateMutability": "nonpayable",
      "type": "function"
    }
  ],
  "bytecode": "0x60806040526200001b600080336001600160e01b036200004a16565b6200003860015b6040805160008082526020820190925262000165565b62000044600262000022565b6200035b565b826000808281526003602052604090206001015460ff1660028111156200006d57fe5b14620000c0576040805162461bcd60e51b815260206004820152601e60248201527f43616e6e6f74207573652061207072652d6578697374696e6720726f6c650000604482015290519081900360640190fd5b60008481526003602052604090206001808201805460ff191682800217905550838155620000fe600282018462000278602090811b62001b0817901c565b60008481526003602052604081206001015460ff1660028111156200011f57fe5b14156200015e5760405162461bcd60e51b815260040180806020018281038252603c815260200180620020ec603c913960400191505060405180910390fd5b5050505050565b826000808281526003602052604090206001015460ff1660028111156200018857fe5b14620001db576040805162461bcd60e51b815260206004820152601e60248201527f43616e6e6f74207573652061207072652d6578697374696e6720726f6c650000604482015290519081900360640190fd5b600084815260036020818152604090922060018101805460ff19166002179055858155916200021891830190859062001b1262000291821b17901c565b60008481526003602052604081206001015460ff1660028111156200023957fe5b14156200015e5760405162461bcd60e51b81526004018080602001828103825260388152602001806200214b6038913960400191505060405180910390fd5b6200028d82826001600160e01b03620002d216565b5050565b60005b8151811015620002cd57620002c483838381518110620002b057fe5b60200260200101516200033660201b60201c565b60010162000294565b505050565b6001600160a01b038116620003195760405162461bcd60e51b8152600401808060200182810382526023815260200180620021286023913960400191505060405180910390fd5b81546001600160a01b0319166001600160a01b0391909116179055565b6001600160a01b0316600090815260209190915260409020805460ff19166001179055565b611d81806200036b6000396000f3fe608060405234801561001057600080fd5b50600436106101775760003560e01c806370a08231116100d8578063981b24d01161008c578063ab3545e511610066578063ab3545e514610508578063d97c05be1461054e578063dd62ed3e1461058757610177565b8063981b24d014610479578063a457c2d714610496578063a9059cbb146104cf57610177565b80637cdc1cb9116100bd5780637cdc1cb91461043057806395d89b41146104695780639711715a1461047157610177565b806370a08231146103c457806374d0a676146103f757610177565b8063395093511161012f57806342966c681161011457806342966c68146103335780634ee2cd7e146103525780636be7658b1461038b57610177565b806339509351146102c157806340c10f19146102fa57610177565b806318160ddd1161016057806318160ddd1461024657806323b872dd14610260578063313ce567146102a357610177565b806306fdde031461017c578063095ea7b3146101f9575b600080fd5b6101846105c2565b6040805160208082528351818301528351919283929083019185019080838360005b838110156101be5781810151838201526020016101a6565b50505050905090810190601f1680156101eb5780820380516001836020036101000a031916815260200191505b509250505060405180910390f35b6102326004803603604081101561020f57600080fd5b5073ffffffffffffffffffffffffffffffffffffffff81351690602001356105fb565b604080519115158252519081900360200190f35b61024e610619565b60408051918252519081900360200190f35b6102326004803603606081101561027657600080fd5b5073ffffffffffffffffffffffffffffffffffffffff81358116916020810135909116906040013561061f565b6102ab6106c6565b6040805160ff9092168252519081900360200190f35b610232600480360360408110156102d757600080fd5b5073ffffffffffffffffffffffffffffffffffffffff81351690602001356106cb565b6102326004803603604081101561031057600080fd5b5073ffffffffffffffffffffffffffffffffffffffff813516906020013561072c565b6103506004803603602081101561034957600080fd5b5035610799565b005b61024e6004803603604081101561036857600080fd5b5073ffffffffffffffffffffffffffffffffffffffff8135169060200135610808565b610350600480360360408110156103a157600080fd5b508035906020013573ffffffffffffffffffffffffffffffffffffffff1661085e565b61024e600480360360208110156103da57600080fd5b503573ffffffffffffffffffffffffffffffffffffffff1661096f565b6103506004803603604081101561040d57600080fd5b508035906020013573ffffffffffffffffffffffffffffffffffffffff1661099b565b6102326004803603604081101561044657600080fd5b508035906020013573ffffffffffffffffffffffffffffffffffffffff16610aa6565b610184610b7e565b61024e610bb7565b61024e6004803603602081101561048f57600080fd5b5035610c0b565b610232600480360360408110156104ac57600080fd5b5073ffffffffffffffffffffffffffffffffffffffff8135169060200135610c3b565b610232600480360360408110156104e557600080fd5b5073ffffffffffffffffffffffffffffffffffffffff8135169060200135610cb6565b6105256004803603602081101561051e57600080fd5b5035610cca565b6040805173ffffffffffffffffffffffffffffffffffffffff9092168252519081900360200190f35b6103506004803603604081101561056457600080fd5b508035906020013573ffffffffffffffffffffffffffffffffffffffff16610d66565b61024e6004803603604081101561059d57600080fd5b5073ffffffffffffffffffffffffffffffffffffffff81358116916020013516610e70565b6040518060400160405280601381526020017f554d4120566f74696e6720546f6b656e2076310000000000000000000000000081525081565b600061060f610608610ea8565b8484610eac565b5060015b92915050565b60025490565b600061062c848484610ff3565b6106bc84610638610ea8565b6106b785604051806060016040528060288152602001611c4e6028913973ffffffffffffffffffffffffffffffffffffffff8a16600090815260016020526040812090610683610ea8565b73ffffffffffffffffffffffffffffffffffffffff168152602081019190915260400160002054919063ffffffff61100316565b610eac565b5060019392505050565b601281565b600061060f6106d8610ea8565b846106b785600160006106e9610ea8565b73ffffffffffffffffffffffffffffffffffffffff908116825260208083019390935260409182016000908120918c16815292529020549063ffffffff6110b416565b6000600161073a8133610aa6565b61078f576040517f08c379a0000000000000000000000000000000000000000000000000000000008152600401808060200182810382526022815260200180611c2c6022913960400191505060405180910390fd5b6106bc8484611128565b60026107a58133610aa6565b6107fa576040517f08c379a0000000000000000000000000000000000000000000000000000000008152600401808060200182810382526022815260200180611c2c6022913960400191505060405180910390fd5b6108043383611132565b5050565b73ffffffffffffffffffffffffffffffffffffffff821660009081526004602052604081208190819061083c90859061113c565b91509150816108535761084e8561096f565b610855565b805b95945050505050565b81600260008281526003602052604090206001015460ff16600281111561088157fe5b146108d7576040517f08c379a000000000000000000000000000000000000000000000000000000000815260040180806020018281038252602c815260200180611c00602c913960400191505060405180910390fd5b60008381526003602052604090205483906108f29033610aa6565b610947576040517f08c379a0000000000000000000000000000000000000000000000000000000008152600401808060200182810382526024815260200180611d036024913960400191505060405180910390fd5b600084815260036020819052604090912061096991018463ffffffff61127a16565b50505050565b73ffffffffffffffffffffffffffffffffffffffff81166000908152602081905260409020545b919050565b81600260008281526003602052604090206001015460ff1660028111156109be57fe5b14610a14576040517f08c379a000000000000000000000000000000000000000000000000000000000815260040180806020018281038252602c815260200180611c00602c913960400191505060405180910390fd5b6000838152600360205260409020548390610a2f9033610aa6565b610a84576040517f08c379a0000000000000000000000000000000000000000000000000000000008152600401808060200182810382526024815260200180611d036024913960400191505060405180910390fd5b600084815260036020819052604090912061096991018463ffffffff6112c716565b600082815260036020526040812060018082015460ff166002811115610ac857fe5b1415610ae957610ae1600282018463ffffffff61131716565b915050610613565b6002600182015460ff166002811115610afe57fe5b1415610b1757610ae1600382018463ffffffff61133716565b604080517f08c379a000000000000000000000000000000000000000000000000000000000815260206004820152600e60248201527f496e76616c696420726f6c654964000000000000000000000000000000000000604482015290519081900360640190fd5b6040518060400160405280600381526020017f554d41000000000000000000000000000000000000000000000000000000000081525081565b6000610bc36007611363565b6000610bcf600761136c565b6040805182815290519192507f8030e83b04d87bef53480e26263266d6ca66863aa8506aca6f2559d18aa1cb67919081900360200190a1905090565b6000806000610c1b84600561113c565b9150915081610c3157610c2c610619565b610c33565b805b949350505050565b600061060f610c48610ea8565b846106b785604051806060016040528060258152602001611d276025913960016000610c72610ea8565b73ffffffffffffffffffffffffffffffffffffffff908116825260208083019390935260409182016000908120918d1681529252902054919063ffffffff61100316565b600061060f610cc3610ea8565b8484610ff3565b600081600160008281526003602052604090206001015460ff166002811115610cef57fe5b14610d45576040517f08c379a000000000000000000000000000000000000000000000000000000000815260040180806020018281038252602f815260200180611bd1602f913960400191505060405180910390fd5b6000838152600360205260409020610d5f90600201611370565b9392505050565b81600160008281526003602052604090206001015460ff166002811115610d8957fe5b14610ddf576040517f08c379a000000000000000000000000000000000000000000000000000000000815260040180806020018281038252602f815260200180611bd1602f913960400191505060405180910390fd5b6000838152600360205260409020548390610dfa9033610aa6565b610e4f576040517f08c379a0000000000000000000000000000000000000000000000000000000008152600401808060200182810382526024815260200180611d036024913960400191505060405180910390fd5b6000848152600360205260409020610969906002018463ffffffff61138a16565b73ffffffffffffffffffffffffffffffffffffffff918216600090815260016020908152604080832093909416825291909152205490565b3390565b73ffffffffffffffffffffffffffffffffffffffff8316610f18576040517f08c379a0000000000000000000000000000000000000000000000000000000008152600401808060200182810382526024815260200180611cdf6024913960400191505060405180910390fd5b73ffffffffffffffffffffffffffffffffffffffff8216610f84576040517f08c379a0000000000000000000000000000000000000000000000000000000008152600401808060200182810382526022815260200180611b896022913960400191505060405180910390fd5b73ffffffffffffffffffffffffffffffffffffffff808416600081815260016020908152604080832094871680845294825291829020859055815185815291517f8c5be1e5ebec7d5bd14f71427d1e84f3dd0314c0f7b2291e5b200ac8c7c3b9259281900390910190a3505050565b610ffe838383611438565b505050565b600081848411156110ac576040517f08c379a00000000000000000000000000000000000000000000000000000000081526004018080602001828103825283818151815260200191508051906020019080838360005b83811015611071578181015183820152602001611059565b50505050905090810190601f16801561109e5780820380516001836020036101000a031916815260200191505b509250505060405180910390fd5b505050900390565b600082820183811015610d5f57604080517f08c379a000000000000000000000000000000000000000000000000000000000815260206004820152601b60248201527f536166654d6174683a206164646974696f6e206f766572666c6f770000000000604482015290519081900360640190fd5b6108048282611455565b6108048282611470565b600080600084116111ae57604080517f08c379a000000000000000000000000000000000000000000000000000000000815260206004820152601660248201527f4552433230536e617073686f743a206964206973203000000000000000000000604482015290519081900360640190fd5b6111b8600761136c565b84111561122657604080517f08c379a000000000000000000000000000000000000000000000000000000000815260206004820152601d60248201527f4552433230536e617073686f743a206e6f6e6578697374656e74206964000000604482015290519081900360640190fd5b6000611238848663ffffffff61148b16565b8454909150811415611251575060009150819050611273565b600184600101828154811061126257fe5b906000526020600020015492509250505b9250929050565b73ffffffffffffffffffffffffffffffffffffffff1660009081526020919091526040902080547fffffffffffffffffffffffffffffffffffffffffffffffffffffffffffffff00169055565b73ffffffffffffffffffffffffffffffffffffffff1660009081526020919091526040902080547fffffffffffffffffffffffffffffffffffffffffffffffffffffffffffffff00166001179055565b905473ffffffffffffffffffffffffffffffffffffffff91821691161490565b73ffffffffffffffffffffffffffffffffffffffff166000908152602091909152604090205460ff1690565b80546001019055565b5490565b5473ffffffffffffffffffffffffffffffffffffffff1690565b73ffffffffffffffffffffffffffffffffffffffff81166113f6576040517f08c379a0000000000000000000000000000000000000000000000000000000008152600401808060200182810382526023815260200180611c976023913960400191505060405180910390fd5b81547fffffffffffffffffffffffff00000000000000000000000000000000000000001673ffffffffffffffffffffffffffffffffffffffff91909116179055565b6114418361154a565b61144a8261154a565b610ffe838383611584565b61145e8261154a565b611466611760565b610804828261176f565b6114798261154a565b611481611760565b61080482826118ac565b815460009061149c57506000610613565b82546000905b808210156114eb5760006114b68383611a02565b9050848682815481106114c557fe5b906000526020600020015411156114de578091506114e5565b8060010192505b506114a2565b60008211801561151357508385600184038154811061150657fe5b9060005260206000200154145b1561154257507fffffffffffffffffffffffffffffffffffffffffffffffffffffffffffffffff019050610613565b509050610613565b73ffffffffffffffffffffffffffffffffffffffff811660009081526004602052604090206115819061157c8361096f565b611a27565b50565b73ffffffffffffffffffffffffffffffffffffffff83166115f0576040517f08c379a0000000000000000000000000000000000000000000000000000000008152600401808060200182810382526025815260200180611cba6025913960400191505060405180910390fd5b73ffffffffffffffffffffffffffffffffffffffff821661165c576040517f08c379a0000000000000000000000000000000000000000000000000000000008152600401808060200182810382526023815260200180611b446023913960400191505060405180910390fd5b611667838383610ffe565b6116b781604051806060016040528060268152602001611bab6026913973ffffffffffffffffffffffffffffffffffffffff8616600090815260208190526040902054919063ffffffff61100316565b73ffffffffffffffffffffffffffffffffffffffff80851660009081526020819052604080822093909355908416815220546116f9908263ffffffff6110b416565b73ffffffffffffffffffffffffffffffffffffffff8084166000818152602081815260409182902094909455805185815290519193928716927fddf252ad1be2c89b69c2b068fc378daa952ba7f163c4a11628f55a4df523b3ef92918290030190a3505050565b61176d600561157c610619565b565b73ffffffffffffffffffffffffffffffffffffffff82166117f157604080517f08c379a000000000000000000000000000000000000000000000000000000000815260206004820152601f60248201527f45524332303a206d696e7420746f20746865207a65726f206164647265737300604482015290519081900360640190fd5b6117fd60008383610ffe565b600254611810908263ffffffff6110b416565b60025573ffffffffffffffffffffffffffffffffffffffff8216600090815260208190526040902054611849908263ffffffff6110b416565b73ffffffffffffffffffffffffffffffffffffffff83166000818152602081815260408083209490945583518581529351929391927fddf252ad1be2c89b69c2b068fc378daa952ba7f163c4a11628f55a4df523b3ef9281900390910190a35050565b73ffffffffffffffffffffffffffffffffffffffff8216611918576040517f08c379a0000000000000000000000000000000000000000000000000000000008152600401808060200182810382526021815260200180611c766021913960400191505060405180910390fd5b61192482600083610ffe565b61197481604051806060016040528060228152602001611b676022913973ffffffffffffffffffffffffffffffffffffffff8516600090815260208190526040902054919063ffffffff61100316565b73ffffffffffffffffffffffffffffffffffffffff83166000908152602081905260409020556002546119ad908263ffffffff611a7316565b60025560408051828152905160009173ffffffffffffffffffffffffffffffffffffffff8516917fddf252ad1be2c89b69c2b068fc378daa952ba7f163c4a11628f55a4df523b3ef9181900360200190a35050565b60006002808306600285060181611a1557fe5b04600283046002850401019392505050565b6000611a33600761136c565b905080611a3f84611ab5565b1015610ffe578254600180820185556000858152602080822090930193909355938401805494850181558252902090910155565b6000610d5f83836040518060400160405280601e81526020017f536166654d6174683a207375627472616374696f6e206f766572666c6f770000815250611003565b8054600090611ac657506000610996565b815482907fffffffffffffffffffffffffffffffffffffffffffffffffffffffffffffffff8101908110611af657fe5b90600052602060002001549050610996565b610804828261138a565b60005b8151811015610ffe57611b3b83838381518110611b2e57fe5b60200260200101516112c7565b600101611b1556fe45524332303a207472616e7366657220746f20746865207a65726f206164647265737345524332303a206275726e20616d6f756e7420657863656564732062616c616e636545524332303a20617070726f766520746f20746865207a65726f206164647265737345524332303a207472616e7366657220616d6f756e7420657863656564732062616c616e63654d7573742062652063616c6c6564206f6e20616e20696e697469616c697a6564204578636c757369766520726f6c654d7573742062652063616c6c6564206f6e20616e20696e697469616c697a65642053686172656420726f6c6553656e64657220646f6573206e6f7420686f6c6420726571756972656420726f6c6545524332303a207472616e7366657220616d6f756e74206578636565647320616c6c6f77616e636545524332303a206275726e2066726f6d20746865207a65726f206164647265737343616e6e6f742073657420616e206578636c757369766520726f6c6520746f2030783045524332303a207472616e736665722066726f6d20746865207a65726f206164647265737345524332303a20617070726f76652066726f6d20746865207a65726f206164647265737343616e206f6e6c792062652063616c6c6564206279206120726f6c65206d616e6167657245524332303a2064656372656173656420616c6c6f77616e63652062656c6f77207a65726fa2646970667358221220b92e80fdc33df7cd1d6d72315740f06bd7598dcdc6ac0cde6a3d297e6811e37364736f6c63430006040033417474656d7074656420746f2075736520616e20696e76616c696420726f6c6520746f206d616e61676520616e206578636c757369766520726f6c6543616e6e6f742073657420616e206578636c757369766520726f6c6520746f20307830417474656d7074656420746f2075736520616e20696e76616c696420726f6c6520746f206d616e61676520612073686172656420726f6c65",
  "source": "pragma solidity ^0.6.0;\n\nimport \"../../common/implementation/ExpandedERC20.sol\";\nimport \"@openzeppelin/contracts/drafts/ERC20Snapshot.sol\";\n\n\n/**\n * @title Ownership of this token allows a voter to respond to price requests.\n * @dev Supports snapshotting and allows the Oracle to mint new tokens as rewards.\n */\ncontract VotingToken is ExpandedERC20, ERC20Snapshot {\n    // Standard ERC20 metadata.\n    string public constant name = \"UMA Voting Token v1\"; // solhint-disable-line const-name-snakecase\n    string public constant symbol = \"UMA\"; // solhint-disable-line const-name-snakecase\n    uint8 public constant decimals = 18; // solhint-disable-line const-name-snakecase\n\n    // _transfer, _mint and _burn are ERC20 internal methods that are overridden by ERC20Snapshot,\n    // therefore the compiler will complain that VotingToken must override these methods\n    // because the two base classes (ERC20 and ERC20Snapshot) both define the same functions\n\n    // TODO(#969) Remove once prettier-plugin-solidity can handle the \"override\" keyword\n    // prettier-ignore\n    function _transfer(address from, address to, uint256 value) internal override(ERC20, ERC20Snapshot) {\n        super._transfer(from, to, value);\n    }\n\n    // TODO(#969) Remove once prettier-plugin-solidity can handle the \"override\" keyword\n    // prettier-ignore\n    function _mint(address account, uint256 value) internal override(ERC20, ERC20Snapshot) {\n        super._mint(account, value);\n    }\n\n    // TODO(#969) Remove once prettier-plugin-solidity can handle the \"override\" keyword\n    // prettier-ignore\n    function _burn(address account, uint256 value) internal override(ERC20, ERC20Snapshot) {\n        super._burn(account, value);\n    }\n}\n",
  "sourcePath": "/home/opz/Projects/SynFiat-update/ui/contracts/uma-contracts/oracle/implementation/VotingToken.sol",
  "compiler": {
    "name": "solc",
    "version": "0.6.4+commit.1dca32f3.Emscripten.clang"
  },
  "schemaVersion": "3.2.0",
  "updatedAt": "2020-06-29T17:18:31.492Z",
  "devdoc": {
    "details": "Supports snapshotting and allows the Oracle to mint new tokens as rewards.",
    "methods": {
      "addMember(uint256,address)": {
        "details": "Reverts if `roleId` does not represent an initialized, shared role or if the caller is not a member of the managing role for `roleId`."
      },
      "allowance(address,address)": {
        "details": "See {IERC20-allowance}."
      },
      "approve(address,uint256)": {
        "details": "See {IERC20-approve}.     * Requirements:     * - `spender` cannot be the zero address."
      },
      "balanceOf(address)": {
        "details": "See {IERC20-balanceOf}."
      },
      "burn(uint256)": {
        "details": "Burns `value` tokens owned by `msg.sender`."
      },
      "decreaseAllowance(address,uint256)": {
        "details": "Atomically decreases the allowance granted to `spender` by the caller.     * This is an alternative to {approve} that can be used as a mitigation for problems described in {IERC20-approve}.     * Emits an {Approval} event indicating the updated allowance.     * Requirements:     * - `spender` cannot be the zero address. - `spender` must have allowance for the caller of at least `subtractedValue`."
      },
      "getMember(uint256)": {
        "details": "Reverts if `roleId` does not represent an initialized, exclusive role."
      },
      "holdsRole(uint256,address)": {
        "details": "Reverts if roleId does not correspond to an initialized role."
      },
      "increaseAllowance(address,uint256)": {
        "details": "Atomically increases the allowance granted to `spender` by the caller.     * This is an alternative to {approve} that can be used as a mitigation for problems described in {IERC20-approve}.     * Emits an {Approval} event indicating the updated allowance.     * Requirements:     * - `spender` cannot be the zero address."
      },
      "mint(address,uint256)": {
        "details": "Mints `value` tokens to `recipient`, returning true on success."
      },
      "removeMember(uint256,address)": {
        "details": "Reverts if `roleId` does not represent an initialized, shared role or if the caller is not a member of the managing role for `roleId`."
      },
      "resetMember(uint256,address)": {
        "details": "Reverts if the caller is not a member of the managing role for `roleId` or if `roleId` is not an initialized, exclusive role."
      },
      "totalSupply()": {
        "details": "See {IERC20-totalSupply}."
      },
      "transfer(address,uint256)": {
        "details": "See {IERC20-transfer}.     * Requirements:     * - `recipient` cannot be the zero address. - the caller must have a balance of at least `amount`."
      },
      "transferFrom(address,address,uint256)": {
        "details": "See {IERC20-transferFrom}.     * Emits an {Approval} event indicating the updated allowance. This is not required by the EIP. See the note at the beginning of {ERC20};     * Requirements: - `sender` and `recipient` cannot be the zero address. - `sender` must have a balance of at least `amount`. - the caller must have allowance for `sender`'s tokens of at least `amount`."
      }
    },
    "title": "Ownership of this token allows a voter to respond to price requests."
  },
  "userdoc": {
    "methods": {
      "addMember(uint256,address)": {
        "notice": "Adds `newMember` to the shared role, `roleId`."
      },
      "getMember(uint256)": {
        "notice": "Gets the current holder of the exclusive role, `roleId`."
      },
      "holdsRole(uint256,address)": {
        "notice": "Whether `memberToCheck` is a member of roleId."
      },
      "removeMember(uint256,address)": {
        "notice": "Removes `memberToRemove` from the shared role, `roleId`."
      },
      "resetMember(uint256,address)": {
        "notice": "Changes the exclusive role holder of `roleId` to `newMember`."
      }
    }
  }
}