{
  "contractName": "Voting",
  "abi": [
    {
      "inputs": [
        {
          "internalType": "uint256",
          "name": "_phaseLength",
          "type": "uint256"
        },
        {
          "components": [
            {
              "internalType": "uint256",
              "name": "rawValue",
              "type": "uint256"
            }
          ],
          "internalType": "struct FixedPoint.Unsigned",
          "name": "_gatPercentage",
          "type": "tuple"
        },
        {
          "components": [
            {
              "internalType": "uint256",
              "name": "rawValue",
              "type": "uint256"
            }
          ],
          "internalType": "struct FixedPoint.Unsigned",
          "name": "_inflationRate",
          "type": "tuple"
        },
        {
          "internalType": "uint256",
          "name": "_rewardsExpirationTimeout",
          "type": "uint256"
        },
        {
          "internalType": "address",
          "name": "_votingToken",
          "type": "address"
        },
        {
          "internalType": "address",
          "name": "_identifierWhitelist",
          "type": "address"
        },
        {
          "internalType": "address",
          "name": "_finder",
          "type": "address"
        },
        {
          "internalType": "bool",
          "name": "_isTest",
          "type": "bool"
        }
      ],
      "stateMutability": "nonpayable",
      "type": "constructor"
    },
    {
      "anonymous": false,
      "inputs": [
        {
          "indexed": true,
          "internalType": "address",
          "name": "previousOwner",
          "type": "address"
        },
        {
          "indexed": true,
          "internalType": "address",
          "name": "newOwner",
          "type": "address"
        }
      ],
      "name": "OwnershipTransferred",
      "type": "event"
    },
    {
      "anonymous": false,
      "inputs": [
        {
          "indexed": true,
          "internalType": "uint256",
          "name": "votingRoundId",
          "type": "uint256"
        },
        {
          "indexed": true,
          "internalType": "bytes32",
          "name": "identifier",
          "type": "bytes32"
        },
        {
          "indexed": false,
          "internalType": "uint256",
          "name": "time",
          "type": "uint256"
        }
      ],
      "name": "PriceRequestAdded",
      "type": "event"
    },
    {
      "anonymous": false,
      "inputs": [
        {
          "indexed": true,
          "internalType": "uint256",
          "name": "resolutionRoundId",
          "type": "uint256"
        },
        {
          "indexed": true,
          "internalType": "bytes32",
          "name": "identifier",
          "type": "bytes32"
        },
        {
          "indexed": false,
          "internalType": "uint256",
          "name": "time",
          "type": "uint256"
        },
        {
          "indexed": false,
          "internalType": "int256",
          "name": "price",
          "type": "int256"
        }
      ],
      "name": "PriceResolved",
      "type": "event"
    },
    {
      "anonymous": false,
      "inputs": [
        {
          "indexed": true,
          "internalType": "address",
          "name": "voter",
          "type": "address"
        },
        {
          "indexed": true,
          "internalType": "uint256",
          "name": "roundId",
          "type": "uint256"
        },
        {
          "indexed": true,
          "internalType": "bytes32",
          "name": "identifier",
          "type": "bytes32"
        },
        {
          "indexed": false,
          "internalType": "uint256",
          "name": "time",
          "type": "uint256"
        },
        {
          "indexed": false,
          "internalType": "uint256",
          "name": "numTokens",
          "type": "uint256"
        }
      ],
      "name": "RewardsRetrieved",
      "type": "event"
    },
    {
      "anonymous": false,
      "inputs": [
        {
          "indexed": true,
          "internalType": "address",
          "name": "voter",
          "type": "address"
        },
        {
          "indexed": true,
          "internalType": "uint256",
          "name": "roundId",
          "type": "uint256"
        },
        {
          "indexed": true,
          "internalType": "bytes32",
          "name": "identifier",
          "type": "bytes32"
        },
        {
          "indexed": false,
          "internalType": "uint256",
          "name": "time",
          "type": "uint256"
        }
      ],
      "name": "VoteCommitted",
      "type": "event"
    },
    {
      "anonymous": false,
      "inputs": [
        {
          "indexed": true,
          "internalType": "address",
          "name": "voter",
          "type": "address"
        },
        {
          "indexed": true,
          "internalType": "uint256",
          "name": "roundId",
          "type": "uint256"
        },
        {
          "indexed": true,
          "internalType": "bytes32",
          "name": "identifier",
          "type": "bytes32"
        },
        {
          "indexed": false,
          "internalType": "uint256",
          "name": "time",
          "type": "uint256"
        },
        {
          "indexed": false,
          "internalType": "int256",
          "name": "price",
          "type": "int256"
        },
        {
          "indexed": false,
          "internalType": "uint256",
          "name": "numTokens",
          "type": "uint256"
        }
      ],
      "name": "VoteRevealed",
      "type": "event"
    },
    {
      "inputs": [],
      "name": "gatPercentage",
      "outputs": [
        {
          "internalType": "uint256",
          "name": "rawValue",
          "type": "uint256"
        }
      ],
      "stateMutability": "view",
      "type": "function"
    },
    {
      "inputs": [],
      "name": "getCurrentTime",
      "outputs": [
        {
          "internalType": "uint256",
          "name": "",
          "type": "uint256"
        }
      ],
      "stateMutability": "view",
      "type": "function"
    },
    {
      "inputs": [
        {
          "internalType": "address",
          "name": "user",
          "type": "address"
        },
        {
          "internalType": "bytes32",
          "name": "topicHash",
          "type": "bytes32"
        }
      ],
      "name": "getMessage",
      "outputs": [
        {
          "internalType": "bytes",
          "name": "",
          "type": "bytes"
        }
      ],
      "stateMutability": "view",
      "type": "function"
    },
    {
      "inputs": [],
      "name": "identifierWhitelist",
      "outputs": [
        {
          "internalType": "contract IdentifierWhitelistInterface",
          "name": "",
          "type": "address"
        }
      ],
      "stateMutability": "view",
      "type": "function"
    },
    {
      "inputs": [],
      "name": "inflationRate",
      "outputs": [
        {
          "internalType": "uint256",
          "name": "rawValue",
          "type": "uint256"
        }
      ],
      "stateMutability": "view",
      "type": "function"
    },
    {
      "inputs": [],
      "name": "isOwner",
      "outputs": [
        {
          "internalType": "bool",
          "name": "",
          "type": "bool"
        }
      ],
      "stateMutability": "view",
      "type": "function"
    },
    {
      "inputs": [],
      "name": "isTest",
      "outputs": [
        {
          "internalType": "bool",
          "name": "",
          "type": "bool"
        }
      ],
      "stateMutability": "view",
      "type": "function"
    },
    {
      "inputs": [],
      "name": "migratedAddress",
      "outputs": [
        {
          "internalType": "address",
          "name": "",
          "type": "address"
        }
      ],
      "stateMutability": "view",
      "type": "function"
    },
    {
      "inputs": [],
      "name": "owner",
      "outputs": [
        {
          "internalType": "address",
          "name": "",
          "type": "address"
        }
      ],
      "stateMutability": "view",
      "type": "function"
    },
    {
      "inputs": [
        {
          "internalType": "bytes32",
          "name": "topicHash",
          "type": "bytes32"
        }
      ],
      "name": "removeMessage",
      "outputs": [],
      "stateMutability": "nonpayable",
      "type": "function"
    },
    {
      "inputs": [],
      "name": "renounceOwnership",
      "outputs": [],
      "stateMutability": "nonpayable",
      "type": "function"
    },
    {
      "inputs": [],
      "name": "rewardsExpirationTimeout",
      "outputs": [
        {
          "internalType": "uint256",
          "name": "",
          "type": "uint256"
        }
      ],
      "stateMutability": "view",
      "type": "function"
    },
    {
      "inputs": [
        {
          "internalType": "uint256",
          "name": "",
          "type": "uint256"
        }
      ],
      "name": "rounds",
      "outputs": [
        {
          "internalType": "uint256",
          "name": "snapshotId",
          "type": "uint256"
        },
        {
          "components": [
            {
              "internalType": "uint256",
              "name": "rawValue",
              "type": "uint256"
            }
          ],
          "internalType": "struct FixedPoint.Unsigned",
          "name": "inflationRate",
          "type": "tuple"
        },
        {
          "components": [
            {
              "internalType": "uint256",
              "name": "rawValue",
              "type": "uint256"
            }
          ],
          "internalType": "struct FixedPoint.Unsigned",
          "name": "gatPercentage",
          "type": "tuple"
        },
        {
          "internalType": "uint256",
          "name": "rewardsExpirationTime",
          "type": "uint256"
        }
      ],
      "stateMutability": "view",
      "type": "function"
    },
    {
      "inputs": [
        {
          "internalType": "uint256",
          "name": "_time",
          "type": "uint256"
        }
      ],
      "name": "setCurrentTime",
      "outputs": [],
      "stateMutability": "nonpayable",
      "type": "function"
    },
    {
      "inputs": [
        {
          "internalType": "bytes32",
          "name": "topicHash",
          "type": "bytes32"
        },
        {
          "internalType": "bytes",
          "name": "message",
          "type": "bytes"
        }
      ],
      "name": "storeMessage",
      "outputs": [],
      "stateMutability": "nonpayable",
      "type": "function"
    },
    {
      "inputs": [
        {
          "internalType": "address",
          "name": "newOwner",
          "type": "address"
        }
      ],
      "name": "transferOwnership",
      "outputs": [],
      "stateMutability": "nonpayable",
      "type": "function"
    },
    {
      "inputs": [],
      "name": "voteTiming",
      "outputs": [
        {
          "internalType": "uint256",
          "name": "phaseLength",
          "type": "uint256"
        }
      ],
      "stateMutability": "view",
      "type": "function"
    },
    {
      "inputs": [],
      "name": "votingToken",
      "outputs": [
        {
          "internalType": "contract VotingToken",
          "name": "",
          "type": "address"
        }
      ],
      "stateMutability": "view",
      "type": "function"
    },
    {
      "inputs": [
        {
          "internalType": "bytes32",
          "name": "identifier",
          "type": "bytes32"
        },
        {
          "internalType": "uint256",
          "name": "time",
          "type": "uint256"
        }
      ],
      "name": "requestPrice",
      "outputs": [],
      "stateMutability": "nonpayable",
      "type": "function"
    },
    {
      "inputs": [
        {
          "internalType": "bytes32",
          "name": "identifier",
          "type": "bytes32"
        },
        {
          "internalType": "uint256",
          "name": "time",
          "type": "uint256"
        }
      ],
      "name": "hasPrice",
      "outputs": [
        {
          "internalType": "bool",
          "name": "_hasPrice",
          "type": "bool"
        }
      ],
      "stateMutability": "view",
      "type": "function"
    },
    {
      "inputs": [
        {
          "internalType": "bytes32",
          "name": "identifier",
          "type": "bytes32"
        },
        {
          "internalType": "uint256",
          "name": "time",
          "type": "uint256"
        }
      ],
      "name": "getPrice",
      "outputs": [
        {
          "internalType": "int256",
          "name": "",
          "type": "int256"
        }
      ],
      "stateMutability": "view",
      "type": "function"
    },
    {
      "inputs": [
        {
          "components": [
            {
              "internalType": "bytes32",
              "name": "identifier",
              "type": "bytes32"
            },
            {
              "internalType": "uint256",
              "name": "time",
              "type": "uint256"
            }
          ],
          "internalType": "struct VotingInterface.PendingRequest[]",
          "name": "requests",
          "type": "tuple[]"
        }
      ],
      "name": "getPriceRequestStatuses",
      "outputs": [
        {
          "components": [
            {
              "internalType": "enum Voting.RequestStatus",
              "name": "status",
              "type": "uint8"
            },
            {
              "internalType": "uint256",
              "name": "lastVotingRound",
              "type": "uint256"
            }
          ],
          "internalType": "struct Voting.RequestState[]",
          "name": "requestStates",
          "type": "tuple[]"
        }
      ],
      "stateMutability": "view",
      "type": "function"
    },
    {
      "inputs": [
        {
          "internalType": "bytes32",
          "name": "identifier",
          "type": "bytes32"
        },
        {
          "internalType": "uint256",
          "name": "time",
          "type": "uint256"
        },
        {
          "internalType": "bytes32",
          "name": "hash",
          "type": "bytes32"
        }
      ],
      "name": "commitVote",
      "outputs": [],
      "stateMutability": "nonpayable",
      "type": "function"
    },
    {
      "inputs": [
        {
          "internalType": "bytes32",
          "name": "identifier",
          "type": "bytes32"
        },
        {
          "internalType": "uint256",
          "name": "time",
          "type": "uint256"
        },
        {
          "internalType": "int256",
          "name": "price",
          "type": "int256"
        },
        {
          "internalType": "int256",
          "name": "salt",
          "type": "int256"
        }
      ],
      "name": "revealVote",
      "outputs": [],
      "stateMutability": "nonpayable",
      "type": "function"
    },
    {
      "inputs": [
        {
          "internalType": "bytes32",
          "name": "identifier",
          "type": "bytes32"
        },
        {
          "internalType": "uint256",
          "name": "time",
          "type": "uint256"
        },
        {
          "internalType": "bytes32",
          "name": "hash",
          "type": "bytes32"
        },
        {
          "internalType": "bytes",
          "name": "encryptedVote",
          "type": "bytes"
        }
      ],
      "name": "commitAndPersistEncryptedVote",
      "outputs": [],
      "stateMutability": "nonpayable",
      "type": "function"
    },
    {
      "inputs": [
        {
          "components": [
            {
              "internalType": "bytes32",
              "name": "identifier",
              "type": "bytes32"
            },
            {
              "internalType": "uint256",
              "name": "time",
              "type": "uint256"
            },
            {
              "internalType": "bytes32",
              "name": "hash",
              "type": "bytes32"
            },
            {
              "internalType": "bytes",
              "name": "encryptedVote",
              "type": "bytes"
            }
          ],
          "internalType": "struct VotingInterface.Commitment[]",
          "name": "commits",
          "type": "tuple[]"
        }
      ],
      "name": "batchCommit",
      "outputs": [],
      "stateMutability": "nonpayable",
      "type": "function"
    },
    {
      "inputs": [
        {
          "components": [
            {
              "internalType": "bytes32",
              "name": "identifier",
              "type": "bytes32"
            },
            {
              "internalType": "uint256",
              "name": "time",
              "type": "uint256"
            },
            {
              "internalType": "int256",
              "name": "price",
              "type": "int256"
            },
            {
              "internalType": "int256",
              "name": "salt",
              "type": "int256"
            }
          ],
          "internalType": "struct VotingInterface.Reveal[]",
          "name": "reveals",
          "type": "tuple[]"
        }
      ],
      "name": "batchReveal",
      "outputs": [],
      "stateMutability": "nonpayable",
      "type": "function"
    },
    {
      "inputs": [
        {
          "internalType": "address",
          "name": "voterAddress",
          "type": "address"
        },
        {
          "internalType": "uint256",
          "name": "roundId",
          "type": "uint256"
        },
        {
          "components": [
            {
              "internalType": "bytes32",
              "name": "identifier",
              "type": "bytes32"
            },
            {
              "internalType": "uint256",
              "name": "time",
              "type": "uint256"
            }
          ],
          "internalType": "struct VotingInterface.PendingRequest[]",
          "name": "toRetrieve",
          "type": "tuple[]"
        }
      ],
      "name": "retrieveRewards",
      "outputs": [
        {
          "components": [
            {
              "internalType": "uint256",
              "name": "rawValue",
              "type": "uint256"
            }
          ],
          "internalType": "struct FixedPoint.Unsigned",
          "name": "totalRewardToIssue",
          "type": "tuple"
        }
      ],
      "stateMutability": "nonpayable",
      "type": "function"
    },
    {
      "inputs": [],
      "name": "getPendingRequests",
      "outputs": [
        {
          "components": [
            {
              "internalType": "bytes32",
              "name": "identifier",
              "type": "bytes32"
            },
            {
              "internalType": "uint256",
              "name": "time",
              "type": "uint256"
            }
          ],
          "internalType": "struct VotingInterface.PendingRequest[]",
          "name": "pendingRequests",
          "type": "tuple[]"
        }
      ],
      "stateMutability": "view",
      "type": "function"
    },
    {
      "inputs": [],
      "name": "getVotePhase",
      "outputs": [
        {
          "internalType": "enum VotingInterface.Phase",
          "name": "",
          "type": "uint8"
        }
      ],
      "stateMutability": "view",
      "type": "function"
    },
    {
      "inputs": [],
      "name": "getCurrentRoundId",
      "outputs": [
        {
          "internalType": "uint256",
          "name": "",
          "type": "uint256"
        }
      ],
      "stateMutability": "view",
      "type": "function"
    },
    {
      "inputs": [
        {
          "internalType": "address",
          "name": "newVotingAddress",
          "type": "address"
        }
      ],
      "name": "setMigrated",
      "outputs": [],
      "stateMutability": "nonpayable",
      "type": "function"
    },
    {
      "inputs": [
        {
          "components": [
            {
              "internalType": "uint256",
              "name": "rawValue",
              "type": "uint256"
            }
          ],
          "internalType": "struct FixedPoint.Unsigned",
          "name": "newInflationRate",
          "type": "tuple"
        }
      ],
      "name": "setInflationRate",
      "outputs": [],
      "stateMutability": "nonpayable",
      "type": "function"
    },
    {
      "inputs": [
        {
          "components": [
            {
              "internalType": "uint256",
              "name": "rawValue",
              "type": "uint256"
            }
          ],
          "internalType": "struct FixedPoint.Unsigned",
          "name": "newGatPercentage",
          "type": "tuple"
        }
      ],
      "name": "setGatPercentage",
      "outputs": [],
      "stateMutability": "nonpayable",
      "type": "function"
    },
    {
      "inputs": [
        {
          "internalType": "uint256",
          "name": "NewRewardsExpirationTimeout",
          "type": "uint256"
        }
      ],
      "name": "setRewardsExpirationTimeout",
      "outputs": [],
      "stateMutability": "nonpayable",
      "type": "function"
    }
  ],
  "bytecode": "0x60806040523480156200001157600080fd5b5060405162003f8d38038062003f8d83398101604081905262000034916200026b565b6000805460ff1916821580159190911790915581906200005357426001555b506000620000696001600160e01b036200016816565b600280546001600160a01b0319166001600160a01b038316908117909155604051919250906000907f8be0079c531659141344cd1fd0a4f28419497f9722a3daafe3b4186f6b6457e0908290a350620000d28860076200016c60201b62003b881790919060201c565b620000ed6001886200017060201b62003b8c1790919060201c565b620001155760405162461bcd60e51b81526004016200010c9062000312565b60405180910390fd5b5094516009559251600a55600c80546001600160a01b03199081166001600160a01b039384161790915560088054821694831694909417909355600d80549093169316929092179055600b5550620003a3565b3390565b9055565b600062000186826001600160e01b036200019416565b518351111590505b92915050565b6200019e6200021a565b6040518060200160405280620001cb670de0b6b3a764000085620001d360201b62002ae01790919060201c565b905292915050565b600082620001e4575060006200018e565b82820282848281620001f257fe5b0414620002135760405162461bcd60e51b81526004016200010c9062000349565b9392505050565b6040518060200160405280600081525090565b6000602082840312156200023f578081fd5b604051602081016001600160401b03811182821017156200025e578283fd5b6040529151825250919050565b600080600080600080600080610100898b03121562000288578384fd5b885197506200029b8a60208b016200022d565b9650620002ac8a60408b016200022d565b9550606089015194506080890151620002c5816200038a565b60a08a0151909450620002d8816200038a565b60c08a0151909350620002eb816200038a565b60e08a0151909250801515811462000301578182fd5b809150509295985092959890939650565b6020808252601e908201527f4741542070657263656e74616765206d757374206265203c3d20313030250000604082015260600190565b60208082526021908201527f536166654d6174683a206d756c7469706c69636174696f6e206f766572666c6f6040820152607760f81b606082015260800190565b6001600160a01b0381168114620003a057600080fd5b50565b613bda80620003b36000396000f3fe608060405234801561001057600080fd5b50600436106102415760003560e01c8063715018a6116101455780638f32d59b116100bd578063b90fd4801161008c578063d8651ad011610071578063d8651ad014610477578063ef74e0ac1461048a578063f2fde38b146104aa57610241565b8063b90fd4801461045c578063c9280f061461046457610241565b80638f32d59b146104245780639381a34514610439578063a03e881a14610441578063b03401231461045457610241565b806383c6aaca116101145780638876e8a0116100f95780638876e8a0146103e65780638c65c81f146103f95780638da5cb5b1461041c57610241565b806383c6aaca146103b35780638558d4f3146103c657610241565b8063715018a61461037957806371b7db531461038157806374dd278c1461038957806380a1f7121461039e57610241565b806331f9e35b116101d85780635727e25d116101a757806368ad8ae31161018c57806368ad8ae31461034b5780636a06d4691461035e57806370a0cf2c1461036657610241565b80635727e25d146103305780636852eea01461033857610241565b806331f9e35b146102ed5780634000851f146102f557806340dd4b221461030a5780634c7a26031461031d57610241565b806322f8e5661161021457806322f8e566146102aa57806326af73bf146102bd5780632960b5af146102d257806329cb924d146102e557610241565b8063054546161461024657806309aa37ba1461025b5780630d434e7e1461026e57806313e56d6a14610297575b600080fd5b6102596102543660046133b2565b6104bd565b005b610259610269366004613321565b610526565b61028161027c366004613195565b610553565b60405161028e9190613a71565b60405180910390f35b6102596102a536600461343b565b610bfb565b6102596102b8366004613309565b610c86565b6102c5610c9a565b60405161028e91906135ce565b6102596102e0366004613132565b610ca0565b6102c5610d25565b6102c5610d40565b6102fd610d46565b60405161028e91906134e1565b610259610318366004613309565b610d62565b61025961032b36600461340a565b610d88565b6102c56110c2565b61025961034636600461328b565b6110d4565b610259610359366004613366565b611147565b6102fd611534565b6102596103743660046131ec565b611550565b6102596116d3565b6102c5611780565b610391611786565b60405161028e919061360e565b6103a66117a1565b60405161028e9190613528565b6102596103c136600461343b565b611934565b6103d96103d4366004613258565b611978565b60405161028e9190613577565b6102596103f4366004613309565b611aa9565b61040c610407366004613309565b611aec565b60405161028e9493929190613a7b565b6102fd611b2a565b61042c611b46565b60405161028e91906135c3565b61042c611b86565b61042c61044f366004613366565b611b8f565b6102fd611d42565b6102c5611d5e565b6102c5610472366004613366565b611d64565b610259610485366004613387565b611f5f565b61049d61049836600461316a565b6120f7565b60405161028e91906135fb565b6102596104b8366004613132565b6121d6565b6104c8848484611f5f565b60006104e36104d5610d25565b60079063ffffffff61221d16565b905060008585836040516020016104fc939291906135e5565b60405160208183030381529060405280519060200120905061051e8184610526565b505050505050565b3360009081526003602090815260408083208584528252909120825161054e92840190612eec565b505050565b61055b612f6a565b600e5473ffffffffffffffffffffffffffffffffffffffff16156105d357600e5473ffffffffffffffffffffffffffffffffffffffff1633146105d3576040517f08c379a00000000000000000000000000000000000000000000000000000000081526004016105ca906136ed565b60405180910390fd5b60006105dd610d25565b90506105f060078263ffffffff61221d16565b8410610628576040517f08c379a00000000000000000000000000000000000000000000000000000000081526004016105ca90613724565b600084815260046020526040902060038101548211610645612f6a565b604080516020810191829052600c5485547f4ee2cd7e000000000000000000000000000000000000000000000000000000009093529091829173ffffffffffffffffffffffffffffffffffffffff1690634ee2cd7e906106aa908d9060248601613502565b60206040518083038186803b1580156106c257600080fd5b505afa1580156106d6573d6000803e3d6000fd5b505050506040513d601f19601f820116820180604052508101906106fa9190613460565b90529050610706612f6a565b604080516020810191829052600c5486547f981b24d0000000000000000000000000000000000000000000000000000000009093529091829173ffffffffffffffffffffffffffffffffffffffff169063981b24d09061076990602485016135ce565b60206040518083038186803b15801561078157600080fd5b505afa158015610795573d6000803e3d6000fd5b505050506040513d601f19601f820116820180604052508101906107b99190613460565b905290506107c5612f6a565b6040805160208101909152600186015481526107e7908363ffffffff61224e16565b604080516020810190915260008082529098509091505b8851811015610af65760006108418a838151811061081857fe5b6020026020010151600001518b848151811061083057fe5b602002602001015160200151612291565b6003810154600081815260028301602052604090209192508c14610891576040517f08c379a00000000000000000000000000000000000000000000000000000000081526004016105ca90613a3a565b61089b82826122b7565b8615610927578a83815181106108ad57fe5b6020026020010151600001518c8e73ffffffffffffffffffffffffffffffffffffffff167ff8da7bdb1837995e872689b605d1a2b076db111cb4b15351f835ebd275be423f8e87815181106108fe57fe5b602002602001015160200151600060405161091a9291906135d7565b60405180910390a4610abc565b73ffffffffffffffffffffffffffffffffffffffff8d1660009081526020829052604090206001908101546109649183019063ffffffff61246a16565b15610a3a57610971612f6a565b61099c610980836001016124a1565b610990898863ffffffff61224e16565b9063ffffffff6124d116565b90506109ae8b8263ffffffff61251b16565b9a508b84815181106109bc57fe5b6020026020010151600001518d8f73ffffffffffffffffffffffffffffffffffffffff167ff8da7bdb1837995e872689b605d1a2b076db111cb4b15351f835ebd275be423f8f8881518110610a0d57fe5b6020026020010151602001518560000151604051610a2c9291906135d7565b60405180910390a450610abc565b8a8381518110610a4657fe5b6020026020010151600001518c8e73ffffffffffffffffffffffffffffffffffffffff167ff8da7bdb1837995e872689b605d1a2b076db111cb4b15351f835ebd275be423f8e8781518110610a9757fe5b6020026020010151602001516000604051610ab39291906135d7565b60405180910390a45b73ffffffffffffffffffffffffffffffffffffffff8d166000908152602091909152604081206001908101919091559190910190506107fe565b50610b0887600063ffffffff61254416565b15610bee57600c5487516040517f40c10f1900000000000000000000000000000000000000000000000000000000815273ffffffffffffffffffffffffffffffffffffffff909216916340c10f1991610b66918e9190600401613502565b602060405180830381600087803b158015610b8057600080fd5b505af1158015610b94573d6000803e3d6000fd5b505050506040513d601f19601f82011682018060405250810190610bb891906132e9565b610bee576040517f08c379a00000000000000000000000000000000000000000000000000000000081526004016105ca90613884565b5050505050509392505050565b610c03611b46565b610c39576040517f08c379a00000000000000000000000000000000000000000000000000000000081526004016105ca90613818565b610c4a81600163ffffffff61255b16565b610c80576040517f08c379a00000000000000000000000000000000000000000000000000000000081526004016105ca90613960565b51600955565b60005460ff16610c9557600080fd5b600155565b600b5481565b610ca8611b46565b610cde576040517f08c379a00000000000000000000000000000000000000000000000000000000081526004016105ca90613818565b600e80547fffffffffffffffffffffffff00000000000000000000000000000000000000001673ffffffffffffffffffffffffffffffffffffffff92909216919091179055565b6000805460ff1615610d3a5750600154610d3d565b50425b90565b600a5481565b600e5473ffffffffffffffffffffffffffffffffffffffff1681565b3360009081526003602090815260408083208484529091528120610d8591612f7d565b50565b600e5473ffffffffffffffffffffffffffffffffffffffff1615610dab57600080fd5b6000610db5610d25565b90506001610dca60078363ffffffff61257216565b6002811115610dd557fe5b14610e0c576040517f08c379a00000000000000000000000000000000000000000000000000000000081526004016105ca906136b6565b6000610e1f60078363ffffffff61221d16565b90506000610e2d8787612291565b600083815260028201602090815260408083203384529182905290912080549293509091610e87576040517f08c379a00000000000000000000000000000000000000000000000000000000081526004016105ca906138f2565b8054604051610e9c90899089906020016135d7565b6040516020818303038152906040528051906020012014610ee9576040517f08c379a00000000000000000000000000000000000000000000000000000000081526004016105ca90613a03565b60008155610ef6846125aa565b600084815260046020526040902054610f0d612f6a565b604080516020810191829052600c547f4ee2cd7e0000000000000000000000000000000000000000000000000000000090925290819073ffffffffffffffffffffffffffffffffffffffff16634ee2cd7e610f6c338760248601613502565b60206040518083038186803b158015610f8457600080fd5b505afa158015610f98573d6000803e3d6000fd5b505050506040513d601f19601f82011682018060405250810190610fbc9190613460565b815250905088604051602001610fd291906135ce565b604080517fffffffffffffffffffffffffffffffffffffffffffffffffffffffffffffffe081840301815291905280516020909101206001808501919091556110249085018a8363ffffffff6126af16565b60008b8b8860405160200161103b939291906135e5565b60405160208183030381529060405280519060200120905061105c81610d62565b8b873373ffffffffffffffffffffffffffffffffffffffff167fd04931ad32b4f942a0f169443ebd7f85a7d42c8b4310b4792243a065348836078e8e87600001516040516110ac939291906135e5565b60405180910390a4505050505050505050505050565b60006110cf6104d5610d25565b905090565b60005b8181101561054e5761113f8383838181106110ee57fe5b9050608002016000013584848481811061110457fe5b9050608002016020013585858581811061111a57fe5b9050608002016040013586868681811061113057fe5b90506080020160600135610d88565b6001016110d7565b600e5473ffffffffffffffffffffffffffffffffffffffff161561118e57600e5473ffffffffffffffffffffffffffffffffffffffff16331461118957600080fd5b6112e3565b600d546040517faafd5e4000000000000000000000000000000000000000000000000000000000815260009173ffffffffffffffffffffffffffffffffffffffff169063aafd5e40906111e39060040161375b565b60206040518083038186803b1580156111fb57600080fd5b505afa15801561120f573d6000803e3d6000fd5b505050506040513d601f19601f82011682018060405250810190611233919061314e565b6040517ff9f6b49b00000000000000000000000000000000000000000000000000000000815290915073ffffffffffffffffffffffffffffffffffffffff82169063f9f6b49b906112889033906004016134e1565b60206040518083038186803b1580156112a057600080fd5b505afa1580156112b4573d6000803e3d6000fd5b505050506040513d601f19601f820116820180604052508101906112d891906132e9565b6112e157600080fd5b505b60006112ed610d25565b905080821115611329576040517f08c379a00000000000000000000000000000000000000000000000000000000081526004016105ca90613929565b6008546040517f90978d1b00000000000000000000000000000000000000000000000000000000815273ffffffffffffffffffffffffffffffffffffffff909116906390978d1b9061137f9086906004016135ce565b60206040518083038186803b15801561139757600080fd5b505afa1580156113ab573d6000803e3d6000fd5b505050506040513d601f19601f820116820180604052508101906113cf91906132e9565b611405576040517f08c379a00000000000000000000000000000000000000000000000000000000081526004016105ca90613784565b60006114118484612776565b600081815260056020526040812091925061143360078563ffffffff61221d16565b9050600061144183836127a9565b9050600081600381111561145157fe5b141561152b57600061146a83600163ffffffff61283616565b604080516080810182528a815260208082018b8152828401858152600680546060860190815260008d815260059095528685209551865592516001808701919091559151600386015591516004909401939093558054928301815590527ff652222313e28459528d920b65115c16c04f3efc82aaedc97be59f3f377c0d3f0187905551909150889082907f5d80f93c41e95cacea0b9ce9bb825092d709fa503a70bb26ea3f536bf16946bd90611521908b906135ce565b60405180910390a3505b50505050505050565b60085473ffffffffffffffffffffffffffffffffffffffff1681565b60005b8181101561054e5782828281811061156757fe5b90506020028101906115799190613b02565b611587906060810190613a96565b151590506115ff576115fa83838381811061159e57fe5b90506020028101906115b09190613b02565b358484848181106115bd57fe5b90506020028101906115cf9190613b02565b602001358585858181106115df57fe5b90506020028101906115f19190613b02565b60400135611f5f565b6116cb565b6116cb83838381811061160e57fe5b90506020028101906116209190613b02565b3584848481811061162d57fe5b905060200281019061163f9190613b02565b6020013585858581811061164f57fe5b90506020028101906116619190613b02565b6040013586868681811061167157fe5b90506020028101906116839190613b02565b611691906060810190613a96565b8080601f0160208091040260200160405190810160405280939291908181526020018383808284376000920191909152506104bd92505050565b600101611553565b6116db611b46565b611711576040517f08c379a00000000000000000000000000000000000000000000000000000000081526004016105ca90613818565b60025460405160009173ffffffffffffffffffffffffffffffffffffffff16907f8be0079c531659141344cd1fd0a4f28419497f9722a3daafe3b4186f6b6457e0908390a3600280547fffffffffffffffffffffffff0000000000000000000000000000000000000000169055565b60075481565b60006110cf611793610d25565b60079063ffffffff61257216565b606060006117ad610d25565b905060006117c260078363ffffffff61221d16565b9050606060068054905060405190808252806020026020018201604052801561180557816020015b6117f2612fc1565b8152602001906001900390816117ea5790505b5090506000805b6006548110156118b0576000600560006006848154811061182957fe5b9060005260206000200154815260200190815260200160002090506001600381111561185157fe5b61185b82876127a9565b600381111561186657fe5b14156118a757604051806040016040528082600001548152602001826001015481525084848151811061189557fe5b60209081029190910101526001909201915b5060010161180c565b50806040519080825280602002602001820160405280156118eb57816020015b6118d8612fc1565b8152602001906001900390816118d05790505b50945060005b8181101561192c5782818151811061190557fe5b602002602001015186828151811061191957fe5b60209081029190910101526001016118f1565b505050505090565b61193c611b46565b611972576040517f08c379a00000000000000000000000000000000000000000000000000000000081526004016105ca90613818565b51600a55565b606081516040519080825280602002602001820160405280156119b557816020015b6119a2612fc1565b81526020019060019003908161199a5790505b50905060006119c56104d5610d25565b905060005b8351811015611aa25760006119fc8583815181106119e457fe5b60200260200101516000015186848151811061083057fe5b90506000611a0a82856127a9565b90506001816003811115611a1a57fe5b1415611a425783858481518110611a2d57fe5b60200260200101516020018181525050611a64565b8160030154858481518110611a5357fe5b602002602001015160200181815250505b80858481518110611a7157fe5b6020026020010151600001906003811115611a8857fe5b90816003811115611a9557fe5b90525050506001016119ca565b5050919050565b611ab1611b46565b611ae7576040517f08c379a00000000000000000000000000000000000000000000000000000000081526004016105ca90613818565b600b55565b600460209081526000918252604091829020805483518084018552600183015481528451938401909452600282015483526003909101549092919084565b60025473ffffffffffffffffffffffffffffffffffffffff1690565b60025460009073ffffffffffffffffffffffffffffffffffffffff16611b6a612875565b73ffffffffffffffffffffffffffffffffffffffff1614905090565b60005460ff1681565b600e5460009073ffffffffffffffffffffffffffffffffffffffff1615611bd957600e5473ffffffffffffffffffffffffffffffffffffffff163314611bd457600080fd5b611d2e565b600d546040517faafd5e4000000000000000000000000000000000000000000000000000000000815260009173ffffffffffffffffffffffffffffffffffffffff169063aafd5e4090611c2e9060040161375b565b60206040518083038186803b158015611c4657600080fd5b505afa158015611c5a573d6000803e3d6000fd5b505050506040513d601f19601f82011682018060405250810190611c7e919061314e565b6040517ff9f6b49b00000000000000000000000000000000000000000000000000000000815290915073ffffffffffffffffffffffffffffffffffffffff82169063f9f6b49b90611cd39033906004016134e1565b60206040518083038186803b158015611ceb57600080fd5b505afa158015611cff573d6000803e3d6000fd5b505050506040513d601f19601f82011682018060405250810190611d2391906132e9565b611d2c57600080fd5b505b611d388383612879565b5090949350505050565b600c5473ffffffffffffffffffffffffffffffffffffffff1681565b60095481565b600e5460009073ffffffffffffffffffffffffffffffffffffffff1615611dae57600e5473ffffffffffffffffffffffffffffffffffffffff163314611da957600080fd5b611f03565b600d546040517faafd5e4000000000000000000000000000000000000000000000000000000000815260009173ffffffffffffffffffffffffffffffffffffffff169063aafd5e4090611e039060040161375b565b60206040518083038186803b158015611e1b57600080fd5b505afa158015611e2f573d6000803e3d6000fd5b505050506040513d601f19601f82011682018060405250810190611e53919061314e565b6040517ff9f6b49b00000000000000000000000000000000000000000000000000000000815290915073ffffffffffffffffffffffffffffffffffffffff82169063f9f6b49b90611ea89033906004016134e1565b60206040518083038186803b158015611ec057600080fd5b505afa158015611ed4573d6000803e3d6000fd5b505050506040513d601f19601f82011682018060405250810190611ef891906132e9565b611f0157600080fd5b505b6000806060611f128686612879565b925092509250828190611f52576040517f08c379a00000000000000000000000000000000000000000000000000000000081526004016105ca91906135fb565b5090925050505b92915050565b600e5473ffffffffffffffffffffffffffffffffffffffff1615611f8257600080fd5b80611fb9576040517f08c379a00000000000000000000000000000000000000000000000000000000081526004016105ca906138bb565b6000611fc3610d25565b90506000611fd860078363ffffffff61257216565b6002811115611fe357fe5b1461201a576040517f08c379a00000000000000000000000000000000000000000000000000000000081526004016105ca906139cc565b600061202d60078363ffffffff61221d16565b9050600061203b8686612291565b9050600161204982846127a9565b600381111561205457fe5b1461208b576040517f08c379a00000000000000000000000000000000000000000000000000000000081526004016105ca9061384d565b600381018290556000828152600282016020908152604080832033808552928190529281902087905551889185917f879c67d036f174a10ea491cf7281d05af9b906660b4f26727d866aec0cf9147c906120e6908b906135ce565b60405180910390a450505050505050565b73ffffffffffffffffffffffffffffffffffffffff8216600090815260036020908152604080832084845282529182902080548351601f60027fffffffffffffffffffffffffffffffffffffffffffffffffffffffffffffffff6101006001861615020190931692909204918201849004840281018401909452808452606093928301828280156121c95780601f1061219e576101008083540402835291602001916121c9565b820191906000526020600020905b8154815290600101906020018083116121ac57829003601f168201915b5050505050905092915050565b6121de611b46565b612214576040517f08c379a00000000000000000000000000000000000000000000000000000000081526004016105ca90613818565b610d8581612a05565b60008061223460025b85549063ffffffff612ae016565b9050612246838263ffffffff612b3416565b949350505050565b612256612f6a565b6040805160208101909152825184518291670de0b6b3a7640000916122809163ffffffff612ae016565b8161228757fe5b0490529392505050565b6000600560006122a18585612776565b8152602001908152602001600020905092915050565b60048201547fffffffffffffffffffffffffffffffffffffffffffffffffffffffffffffffff14156122e857612466565b60008061230b6122fb8560030154612b76565b600185019063ffffffff612cb516565b9150915081612346576040517f08c379a00000000000000000000000000000000000000000000000000000000081526004016105ca90613997565b600680547fffffffffffffffffffffffffffffffffffffffffffffffffffffffffffffffff81019160009160059183918590811061238057fe5b90600052602060002001548152602001908152602001600020905085600401548160040181905550600682815481106123b557fe5b906000526020600020015460068760040154815481106123d157fe5b9060005260206000200181905550600682815481106123ec57fe5b60009182526020822001557fffffffffffffffffffffffffffffffffffffffffffffffffffffffffffffffff60048701558554600387015460018801546040517f67565e6a3e804c4e180134cb2885e32142229de3ca125701318af11658ee4988916124599188906135d7565b60405180910390a3505050505b5050565b6000826002015460405160200161248191906135ce565b604051602081830303815290604052805190602001208214905092915050565b6124a9612f6a565b506002810154600090815260208281526040918290208251918201909252905481525b919050565b6124d9612f6a565b60408051602081019091528251845182916125129161250690670de0b6b3a764000063ffffffff612ae016565b9063ffffffff612b3416565b90529392505050565b612523612f6a565b6040805160208101909152825184518291612512919063ffffffff61283616565b600061254f82612d79565b51835111905092915050565b600061256682612d79565b51835110905092915050565b60006125986002845461258c90859063ffffffff612b3416565b9063ffffffff612dad16565b60028111156125a357fe5b9392505050565b6000818152600460205260409020805461246657600c60009054906101000a900473ffffffffffffffffffffffffffffffffffffffff1673ffffffffffffffffffffffffffffffffffffffff16639711715a6040518163ffffffff1660e01b8152600401602060405180830381600087803b15801561262857600080fd5b505af115801561263c573d6000803e3d6000fd5b505050506040513d601f19601f820116820180604052508101906126609190613460565b81556000828152600460205260409020600a546001820155600954600290910155600b5461269560078463ffffffff612def16565b600084815260046020526040902091016003909101555050565b6040805160208101909152600184015481526126d1908263ffffffff61251b16565b51600184015560008281526020848152604091829020825191820190925290548152612703908263ffffffff61251b16565b600083815260208590526040902090519055600283015482148015906127675750600283015460009081526020848152604080832081518084018352905481528584528683529281902081519283019091525481526127679163ffffffff612e1f16565b1561054e575060029190910155565b6000828260405160200161278b9291906135d7565b60405160208183030381529060405280519060200120905092915050565b60008260030154600014156127c057506000611f59565b818360030154101561281a57600383015460008181526002850160205260408120916127ff906127ef90612b76565b600184019063ffffffff612cb516565b5090508061280e576001612811565b60025b92505050611f59565b818360030154141561282e57506001611f59565b506003611f59565b6000828201838110156125a3576040517f08c379a00000000000000000000000000000000000000000000000000000000081526004016105ca9061367f565b3390565b6000806060600061288a8686612291565b905060006128996104d5610d25565b905060006128a783836127a9565b905060018160038111156128b757fe5b141561290357505060408051808201909152601e81527f43757272656e7420766f74696e6720726f756e64206e6f7420656e646564000060208201526000945084935091506129fe9050565b600281600381111561291157fe5b141561295e576003830154600081815260028501602052604081209161293a906127ef90612b76565b60408051602081019091526000815260019a5090985096506129fe95505050505050565b600381600381111561296c57fe5b14156129b857505060408051808201909152601d81527f5072696365206973207374696c6c20746f20626520766f746564206f6e00000060208201526000945084935091506129fe9050565b505060408051808201909152601981527f507269636520776173206e65766572207265717565737465640000000000000060208201526000945084935091506129fe9050565b9250925092565b73ffffffffffffffffffffffffffffffffffffffff8116612a52576040517f08c379a00000000000000000000000000000000000000000000000000000000081526004016105ca90613622565b60025460405173ffffffffffffffffffffffffffffffffffffffff8084169216907f8be0079c531659141344cd1fd0a4f28419497f9722a3daafe3b4186f6b6457e090600090a3600280547fffffffffffffffffffffffff00000000000000000000000000000000000000001673ffffffffffffffffffffffffffffffffffffffff92909216919091179055565b600082612aef57506000611f59565b82820282848281612afc57fe5b04146125a3576040517f08c379a00000000000000000000000000000000000000000000000000000000081526004016105ca906137bb565b60006125a383836040518060400160405280601a81526020017f536166654d6174683a206469766973696f6e206279207a65726f000000000000815250612e26565b612b7e612f6a565b60008281526004602052604090205480612bc757505060408051602081019091527fffffffffffffffffffffffffffffffffffffffffffffffffffffffffffffffff81526124cc565b612bcf612f6a565b604080516020810191829052600c547f981b24d00000000000000000000000000000000000000000000000000000000090925290819073ffffffffffffffffffffffffffffffffffffffff1663981b24d0612c2d86602485016135ce565b60206040518083038186803b158015612c4557600080fd5b505afa158015612c59573d6000803e3d6000fd5b505050506040513d601f19601f82011682018060405250810190612c7d9190613460565b90526000858152600460209081526040918290208251918201909252600290910154815290915061224690829063ffffffff61224e16565b600080612cc0612f6a565b612cdb6064612ccf6032612d79565b9063ffffffff612e7716565b604080516020810190915260018701548152909150612d00908563ffffffff612e1f16565b8015612d57575060408051602080820183526001880154825260028801546000908152888252839020835191820190935291548252612d57918391612d4b919063ffffffff6124d116565b9063ffffffff612e1f16565b15612d6c576001925084600201549150612d71565b600092505b509250929050565b612d81612f6a565b604080516020810190915280612da584670de0b6b3a764000063ffffffff612ae016565b905292915050565b60006125a383836040518060400160405280601881526020017f536166654d6174683a206d6f64756c6f206279207a65726f0000000000000000815250612e9e565b600080612dfc6002612226565b9050612246612e1284600163ffffffff61283616565b829063ffffffff612ae016565b5190511190565b60008183612e61576040517f08c379a00000000000000000000000000000000000000000000000000000000081526004016105ca91906135fb565b506000838581612e6d57fe5b0495945050505050565b612e7f612f6a565b604080516020810190915283518190612512908563ffffffff612b3416565b60008183612ed9576040517f08c379a00000000000000000000000000000000000000000000000000000000081526004016105ca91906135fb565b50828481612ee357fe5b06949350505050565b828054600181600116156101000203166002900490600052602060002090601f016020900481019282601f10612f2d57805160ff1916838001178555612f5a565b82800160010185558215612f5a579182015b82811115612f5a578251825591602001919060010190612f3f565b50612f66929150612fd8565b5090565b6040518060200160405280600081525090565b50805460018160011615610100020316600290046000825580601f10612fa35750610d85565b601f016020900490600052602060002090810190610d859190612fd8565b604080518082019091526000808252602082015290565b610d3d91905b80821115612f665760008155600101612fde565b600082601f830112613002578081fd5b813567ffffffffffffffff811115613018578182fd5b60206130278182840201613b3f565b828152925080830184820160408085028701840188101561304757600080fd5b60005b8581101561306e5761305c8984613101565b8452928401929181019160010161304a565b50505050505092915050565b600082601f83011261308a578081fd5b813567ffffffffffffffff8111156130a0578182fd5b6130d160207fffffffffffffffffffffffffffffffffffffffffffffffffffffffffffffffe0601f84011601613b3f565b91508082528360208285010111156130e857600080fd5b8060208401602084013760009082016020015292915050565b600060408284031215613112578081fd5b61311c6040613b3f565b9050813581526020820135602082015292915050565b600060208284031215613143578081fd5b81356125a381613b66565b60006020828403121561315f578081fd5b81516125a381613b66565b6000806040838503121561317c578081fd5b823561318781613b66565b946020939093013593505050565b6000806000606084860312156131a9578081fd5b83356131b481613b66565b925060208401359150604084013567ffffffffffffffff8111156131d6578182fd5b6131e286828701612ff2565b9150509250925092565b600080602083850312156131fe578182fd5b823567ffffffffffffffff80821115613215578384fd5b81850186601f820112613226578485fd5b8035925081831115613236578485fd5b8660208085028301011115613249578485fd5b60200196919550909350505050565b600060208284031215613269578081fd5b813567ffffffffffffffff81111561327f578182fd5b61224684828501612ff2565b6000806020838503121561329d578182fd5b823567ffffffffffffffff808211156132b4578384fd5b81850186601f8201126132c5578485fd5b80359250818311156132d5578485fd5b866020608085028301011115613249578485fd5b6000602082840312156132fa578081fd5b815180151581146125a3578182fd5b60006020828403121561331a578081fd5b5035919050565b60008060408385031215613333578182fd5b82359150602083013567ffffffffffffffff811115613350578182fd5b61335c8582860161307a565b9150509250929050565b60008060408385031215613378578182fd5b50508035926020909101359150565b60008060006060848603121561339b578283fd5b505081359360208301359350604090920135919050565b600080600080608085870312156133c7578182fd5b843593506020850135925060408501359150606085013567ffffffffffffffff8111156133f2578182fd5b6133fe8782880161307a565b91505092959194509250565b6000806000806080858703121561341f578182fd5b5050823594602084013594506040840135936060013592509050565b60006020828403121561344c578081fd5b6134566020613b3f565b9135825250919050565b600060208284031215613471578081fd5b5051919050565b60008151808452815b8181101561349d57602081850181015186830182015201613481565b818111156134ae5782602083870101525b50601f017fffffffffffffffffffffffffffffffffffffffffffffffffffffffffffffffe0169290920160200192915050565b73ffffffffffffffffffffffffffffffffffffffff91909116815260200190565b73ffffffffffffffffffffffffffffffffffffffff929092168252602082015260400190565b602080825282518282018190526000919060409081850190868401855b8281101561356a57815180518552860151868501529284019290850190600101613545565b5091979650505050505050565b602080825282518282018190526000919060409081850190868401855b8281101561356a5781518051600481106135aa57fe5b8552860151868501529284019290850190600101613594565b901515815260200190565b90815260200190565b918252602082015260400190565b9283526020830191909152604082015260600190565b6000602082526125a36020830184613478565b602081016003831061361c57fe5b91905290565b60208082526026908201527f4f776e61626c653a206e6577206f776e657220697320746865207a65726f206160408201527f6464726573730000000000000000000000000000000000000000000000000000606082015260800190565b6020808252601b908201527f536166654d6174683a206164646974696f6e206f766572666c6f770000000000604082015260600190565b6020808252601d908201527f43616e6e6f742072657665616c20696e20636f6d6d6974207068617365000000604082015260600190565b6020808252601b908201527f43616e206f6e6c792063616c6c2066726f6d206d696772617465640000000000604082015260600190565b6020808252600f908201527f496e76616c696420726f756e6449640000000000000000000000000000000000604082015260600190565b7f5265676973747279000000000000000000000000000000000000000000000000815260200190565b6020808252601e908201527f556e737570706f72746564206964656e74696669657220726571756573740000604082015260600190565b60208082526021908201527f536166654d6174683a206d756c7469706c69636174696f6e206f766572666c6f60408201527f7700000000000000000000000000000000000000000000000000000000000000606082015260800190565b6020808252818101527f4f776e61626c653a2063616c6c6572206973206e6f7420746865206f776e6572604082015260600190565b6020808252601e908201527f43616e6e6f7420636f6d6d697420696e61637469766520726571756573740000604082015260600190565b6020808252601c908201527f566f74696e6720746f6b656e2069737375616e6365206661696c656400000000604082015260600190565b60208082526015908201527f496e76616c69642070726f766964656420686173680000000000000000000000604082015260600190565b60208082526013908201527f496e76616c696420686173682072657665616c00000000000000000000000000604082015260600190565b60208082526018908201527f43616e206f6e6c79207265717565737420696e20706173740000000000000000604082015260600190565b6020808252601d908201527f4741542070657263656e74616765206d757374206265203c2031303025000000604082015260600190565b6020808252818101527f43616e2774207265736f6c766520756e7265736f6c7665642072657175657374604082015260600190565b6020808252601d908201527f43616e6e6f7420636f6d6d697420696e2072657665616c207068617365000000604082015260600190565b6020808252601a908201527f496e76616c696420636f6d6d6974206861736820262073616c74000000000000604082015260600190565b6020808252601d908201527f526574726965766520666f7220766f7465732073616d6520726f756e64000000604082015260600190565b9051815260200190565b93845291516020840152516040830152606082015260800190565b60008083357fffffffffffffffffffffffffffffffffffffffffffffffffffffffffffffffe1843603018112613aca578283fd5b8084018035925067ffffffffffffffff831115613ae5578384fd5b60200192505036819003821315613afb57600080fd5b9250929050565b600082357fffffffffffffffffffffffffffffffffffffffffffffffffffffffffffffff81833603018112613b35578182fd5b9190910192915050565b60405181810167ffffffffffffffff81118282101715613b5e57600080fd5b604052919050565b73ffffffffffffffffffffffffffffffffffffffff81168114610d8557600080fd5b9055565b6000613b9782612d79565b518351111590509291505056fea2646970667358221220b58e3ad476b8db56cadfa42f1da6b141ceae0f7af4042c1ad3c1d8111243b75864736f6c63430006040033",
  "source": "pragma solidity ^0.6.0;\n\npragma experimental ABIEncoderV2;\n\nimport \"../../common/implementation/FixedPoint.sol\";\nimport \"../../common/implementation/Testable.sol\";\nimport \"../interfaces/FinderInterface.sol\";\nimport \"../interfaces/OracleInterface.sol\";\nimport \"../interfaces/VotingInterface.sol\";\nimport \"../interfaces/IdentifierWhitelistInterface.sol\";\nimport \"./EncryptedStore.sol\";\nimport \"./Registry.sol\";\nimport \"./ResultComputation.sol\";\nimport \"./VoteTiming.sol\";\nimport \"./VotingToken.sol\";\n\nimport \"@openzeppelin/contracts/ownership/Ownable.sol\";\nimport \"@openzeppelin/contracts/math/SafeMath.sol\";\n\n\n/**\n * @title Voting system for Oracle.\n * @dev Handles receiving and resolving price requests via a commit-reveal voting scheme.\n */\ncontract Voting is Testable, Ownable, OracleInterface, VotingInterface, EncryptedStore {\n    using FixedPoint for FixedPoint.Unsigned;\n    using SafeMath for uint;\n    using VoteTiming for VoteTiming.Data;\n    using ResultComputation for ResultComputation.Data;\n\n    /****************************************\n     *        VOTING DATA STRUCTURES        *\n     ****************************************/\n\n    // Identifies a unique price request for which the Oracle will always return the same value.\n    // Tracks ongoing votes as well as the result of the vote.\n    struct PriceRequest {\n        bytes32 identifier;\n        uint time;\n        // A map containing all votes for this price in various rounds.\n        mapping(uint => VoteInstance) voteInstances;\n        // If in the past, this was the voting round where this price was resolved. If current or the upcoming round,\n        // this is the voting round where this price will be voted on, but not necessarily resolved.\n        uint lastVotingRound;\n        // The index in the `pendingPriceRequests` that references this PriceRequest. A value of UINT_MAX means that\n        // this PriceRequest is resolved and has been cleaned up from `pendingPriceRequests`.\n        uint index;\n    }\n\n    struct VoteInstance {\n        // Maps (voterAddress) to their submission.\n        mapping(address => VoteSubmission) voteSubmissions;\n        // The data structure containing the computed voting results.\n        ResultComputation.Data resultComputation;\n    }\n\n    struct VoteSubmission {\n        // A bytes32 of `0` indicates no commit or a commit that was already revealed.\n        bytes32 commit;\n        // The hash of the value that was revealed.\n        // Note: this is only used for computation of rewards.\n        bytes32 revealHash;\n    }\n\n    struct Round {\n        uint snapshotId; // Voting token snapshot ID for this round.  0 if no snapshot has been taken.\n        FixedPoint.Unsigned inflationRate; // Inflation rate set for this round.\n        FixedPoint.Unsigned gatPercentage; // Gat rate set for this round.\n        uint rewardsExpirationTime; // Time that rewards for this round can be claimed until.\n    }\n\n    // Represents the status a price request has.\n    enum RequestStatus {\n        NotRequested, // Was never requested.\n        Active, // Is being voted on in the current round.\n        Resolved, // Was resolved in a previous round.\n        Future // Is scheduled to be voted on in a future round.\n    }\n\n    // Only used as a return value in view methods -- never stored in the contract.\n    struct RequestState {\n        RequestStatus status;\n        uint lastVotingRound;\n    }\n\n    /****************************************\n     *          INTERNAL TRACKING           *\n     ****************************************/\n\n    // Maps round numbers to the rounds.\n    mapping(uint => Round) public rounds;\n\n    // Maps price request IDs to the PriceRequest struct.\n    mapping(bytes32 => PriceRequest) private priceRequests;\n\n    // Price request ids for price requests that haven't yet been marked as resolved.\n    // These requests may be for future rounds.\n    bytes32[] private pendingPriceRequests;\n\n    VoteTiming.Data public voteTiming;\n\n    IdentifierWhitelistInterface public identifierWhitelist;\n\n    // Percentage of the total token supply that must be used in a vote to\n    // create a valid price resolution. 1 == 100%.\n    FixedPoint.Unsigned public gatPercentage;\n\n    // Global setting for the rate of inflation per vote. This is the percentage of the snapshotted total supply that\n    // should be split among the correct voters. Note: this value is used to set per-round inflation at the beginning\n    // of each round. 1 = 100%\n    FixedPoint.Unsigned public inflationRate;\n\n    // Time in seconds from the end of the round in which a price request is\n    // resolved that voters can still claim their rewards.\n    uint public rewardsExpirationTimeout;\n\n    // Reference to the voting token.\n    VotingToken public votingToken;\n\n    // Reference to the Finder.\n    FinderInterface private finder;\n\n    // If non-zero, this contract has been migrated to this address. All voters and\n    // financial contracts should query the new address only.\n    address public migratedAddress;\n\n    // Max value of an unsigned integer.\n    uint private constant UINT_MAX = ~uint(0);\n\n    /***************************************\n     *                EVENTS                *\n     ****************************************/\n\n    event VoteCommitted(address indexed voter, uint indexed roundId, bytes32 indexed identifier, uint time);\n\n    event VoteRevealed(\n        address indexed voter,\n        uint indexed roundId,\n        bytes32 indexed identifier,\n        uint time,\n        int price,\n        uint numTokens\n    );\n\n    event RewardsRetrieved(\n        address indexed voter,\n        uint indexed roundId,\n        bytes32 indexed identifier,\n        uint time,\n        uint numTokens\n    );\n\n    event PriceRequestAdded(uint indexed votingRoundId, bytes32 indexed identifier, uint time);\n\n    event PriceResolved(uint indexed resolutionRoundId, bytes32 indexed identifier, uint time, int price);\n\n    /**\n     * @notice Construct the Voting contract.\n     * @param _phaseLength length of the commit and reveal phases in seconds.\n     * @param _gatPercentage of the total token supply that must be used in a vote to create a valid price resolution.\n     * @param _inflationRate percentage inflation per round used to increase token supply of correct voters.\n     * @param _rewardsExpirationTimeout timeout, in seconds, within which rewards must be claimed.\n     * @param _votingToken address of the UMA token contract used to commit votes.\n     * @param _identifierWhitelist defines the identifiers that can have have synthetics created against.\n     * @param _finder keeps track of all contracts within the system based on their interfaceName.\n     * @param _isTest whether this contract is being constructed for the purpose of running automated tests.\n     */\n    constructor(\n        uint _phaseLength,\n        FixedPoint.Unsigned memory _gatPercentage,\n        FixedPoint.Unsigned memory _inflationRate,\n        uint _rewardsExpirationTimeout,\n        address _votingToken,\n        address _identifierWhitelist,\n        address _finder,\n        bool _isTest\n    ) public Testable(_isTest) {\n        voteTiming.init(_phaseLength);\n        require(_gatPercentage.isLessThanOrEqual(1), \"GAT percentage must be <= 100%\");\n        gatPercentage = _gatPercentage;\n        inflationRate = _inflationRate;\n        votingToken = VotingToken(_votingToken);\n        identifierWhitelist = IdentifierWhitelistInterface(_identifierWhitelist);\n        finder = FinderInterface(_finder);\n        rewardsExpirationTimeout = _rewardsExpirationTimeout;\n    }\n\n    /***************************************\n                    MODIFIERS\n    ****************************************/\n\n    modifier onlyRegisteredContract() {\n        if (migratedAddress != address(0)) {\n            require(msg.sender == migratedAddress);\n        } else {\n            Registry registry = Registry(finder.getImplementationAddress(\"Registry\"));\n            require(registry.isContractRegistered(msg.sender));\n        }\n        _;\n    }\n\n    modifier onlyIfNotMigrated() {\n        require(migratedAddress == address(0));\n        _;\n    }\n\n    /****************************************\n     *  PRICE REQUEST AND ACCESS FUNCTIONS  *\n     ****************************************/\n\n    /**\n     * @notice Enqueues a request (if a request isn't already present) for the given `identifier`, `time` pair.\n     * @dev Time must be in the past and the identifier must be supported.\n     * @param identifier uniquely identifies the price requested. eg BTC/USD (encoded as bytes32) could be requested.\n     * @param time unix timestamp of for the price request.\n     */\n    // TODO(#969) Remove once prettier-plugin-solidity can handle the \"override\" keyword\n    // prettier-ignore\n    function requestPrice(bytes32 identifier, uint time) external override onlyRegisteredContract() {\n        uint blockTime = getCurrentTime();\n        require(time <= blockTime, \"Can only request in past\");\n        require(identifierWhitelist.isIdentifierSupported(identifier), \"Unsupported identifier request\");\n\n        bytes32 priceRequestId = _encodePriceRequest(identifier, time);\n        PriceRequest storage priceRequest = priceRequests[priceRequestId];\n        uint currentRoundId = voteTiming.computeCurrentRoundId(blockTime);\n\n        RequestStatus requestStatus = _getRequestStatus(priceRequest, currentRoundId);\n\n        if (requestStatus == RequestStatus.NotRequested) {\n            // Price has never been requested.\n            // Price requests always go in the next round, so add 1 to the computed current round.\n            uint nextRoundId = currentRoundId.add(1);\n\n            priceRequests[priceRequestId] = PriceRequest({\n                identifier: identifier,\n                time: time,\n                lastVotingRound: nextRoundId,\n                index: pendingPriceRequests.length\n            });\n            pendingPriceRequests.push(priceRequestId);\n            emit PriceRequestAdded(nextRoundId, identifier, time);\n        }\n    }\n\n    /**\n     * @notice Whether the price for `identifier` and `time` is available.\n     * @dev Time must be in the past and the identifier must be supported.\n     * @param identifier uniquely identifies the price requested. eg BTC/USD (encoded as bytes32) could be requested.\n     * @param time unix timestamp of for the price request.\n     * @return _hasPrice bool if the DVM has resolved to a price for the given identifier and timestamp.\n     */\n    // TODO(#969) Remove once prettier-plugin-solidity can handle the \"override\" keyword\n    // prettier-ignore\n    function hasPrice(bytes32 identifier, uint time) external override view onlyRegisteredContract() returns (bool _hasPrice) {\n        (_hasPrice, , ) = _getPriceOrError(identifier, time);\n    }\n\n    /**\n     * @notice Gets the price for `identifier` and `time` if it has already been requested and resolved.\n     * @dev If the price is not available, the method reverts.\n     * @param identifier uniquely identifies the price requested. eg BTC/USD (encoded as bytes32) could be requested.\n     * @param time unix timestamp of for the price request.\n     * @return int representing the resolved price for the given identifier and timestamp.\n     */\n    // TODO(#969) Remove once prettier-plugin-solidity can handle the \"override\" keyword\n    // prettier-ignore\n    function getPrice(bytes32 identifier, uint time) external override view onlyRegisteredContract() returns (int) {\n        (bool _hasPrice, int price, string memory message) = _getPriceOrError(identifier, time);\n\n        // If the price wasn't available, revert with the provided message.\n        require(_hasPrice, message);\n        return price;\n    }\n\n    /**\n     * @notice Gets the status of a list of price requests, identified by their identifier and time.\n     * @dev If the status for a particular request is NotRequested, the lastVotingRound will always be 0.\n     * @param requests array of time PendingRequest which includes a identifier and timestamp for each request.\n     * @return requestStates A lis, in the same order as the input list, giving the status of each of the specified price requests.\n     */\n    function getPriceRequestStatuses(PendingRequest[] memory requests)\n        public\n        view\n        returns (RequestState[] memory requestStates)\n    {\n        requestStates = new RequestState[](requests.length);\n        uint currentRoundId = voteTiming.computeCurrentRoundId(getCurrentTime());\n        for (uint i = 0; i < requests.length; i++) {\n            PriceRequest storage priceRequest = _getPriceRequest(requests[i].identifier, requests[i].time);\n\n            RequestStatus status = _getRequestStatus(priceRequest, currentRoundId);\n\n            // If it's an active request, its true lastVotingRound is the current one, even if it hasn't been updated.\n            if (status == RequestStatus.Active) {\n                requestStates[i].lastVotingRound = currentRoundId;\n            } else {\n                requestStates[i].lastVotingRound = priceRequest.lastVotingRound;\n            }\n\n            requestStates[i].status = status;\n        }\n    }\n\n    /****************************************\n     *            VOTING FUNCTIONS          *\n     ****************************************/\n\n    /**\n     * @notice Commit a vote for a price request for `identifier` at `time`.\n     * @dev `identifier`, `time` must correspond to a price request that's currently in the commit phase.\n     * Commits can be changed.\n     * @param identifier uniquely identifies the committed vote. EG BTC/USD price pair.\n     * @param time unix timestamp of the price is being voted on.\n     * @param hash keccak256 hash of the price you want to vote for and a `int salt`.\n     */\n    // TODO(#969) Remove once prettier-plugin-solidity can handle the \"override\" keyword\n    // prettier-ignore\n    function commitVote(bytes32 identifier, uint time, bytes32 hash) public override onlyIfNotMigrated() {\n        require(hash != bytes32(0), \"Invalid provided hash\");\n        // Current time is required for all vote timing queries.\n        uint blockTime = getCurrentTime();\n        require(voteTiming.computeCurrentPhase(blockTime) == Phase.Commit, \"Cannot commit in reveal phase\");\n\n        // At this point, the computed and last updated round ID should be equal.\n        uint currentRoundId = voteTiming.computeCurrentRoundId(blockTime);\n\n        PriceRequest storage priceRequest = _getPriceRequest(identifier, time);\n        require(\n            _getRequestStatus(priceRequest, currentRoundId) == RequestStatus.Active,\n            \"Cannot commit inactive request\"\n        );\n\n        priceRequest.lastVotingRound = currentRoundId;\n        VoteInstance storage voteInstance = priceRequest.voteInstances[currentRoundId];\n        voteInstance.voteSubmissions[msg.sender].commit = hash;\n\n        emit VoteCommitted(msg.sender, currentRoundId, identifier, time);\n    }\n\n    /**\n     * @notice Reveal a previously committed vote for `identifier` at `time`.\n     * @dev The revealed `price` and `salt` must match the latest `hash` that `commitVote()` was called with.\n     * Only the committer can reveal their vote.\n     * @param identifier voted on in the commit phase. EG BTC/USD price pair.\n     * @param time specifies the unix timestamp of the price is being voted on.\n     * @param price voted on during the commit phase.\n     * @param salt value used to hide the commitment price during the commit phase.\n     */\n    // TODO(#969) Remove once prettier-plugin-solidity can handle the \"override\" keyword\n    // prettier-ignore\n    function revealVote(bytes32 identifier, uint time, int price, int salt) public override onlyIfNotMigrated() {\n        uint blockTime = getCurrentTime();\n        require(voteTiming.computeCurrentPhase(blockTime) == Phase.Reveal, \"Cannot reveal in commit phase\");\n        // Note: computing the current round is required to disallow people from revealing an old commit after the\n        // round is over.\n        uint roundId = voteTiming.computeCurrentRoundId(blockTime);\n\n        PriceRequest storage priceRequest = _getPriceRequest(identifier, time);\n        VoteInstance storage voteInstance = priceRequest.voteInstances[roundId];\n        VoteSubmission storage voteSubmission = voteInstance.voteSubmissions[msg.sender];\n\n        // 0 hashes are disallowed in the commit phase, so they indicate a different error.\n        // Cannot reveal an uncommitted or previously revealed hash\n        require(voteSubmission.commit != bytes32(0), \"Invalid hash reveal\");\n        // Committed hash doesn't match revealed price and salt\n        require(keccak256(abi.encode(price, salt)) == voteSubmission.commit, \"Invalid commit hash & salt\");\n        delete voteSubmission.commit;\n\n        // Lock in round variables including snapshotId and inflation rate\n        _freezeRoundVariables(roundId);\n\n        // Get the frozen snapshotId\n        uint snapshotId = rounds[roundId].snapshotId;\n\n        // Get the voter's snapshotted balance. Since balances are returned pre-scaled by 10**18, we can directly\n        // initialize the Unsigned value with the returned uint.\n        FixedPoint.Unsigned memory balance = FixedPoint.Unsigned(votingToken.balanceOfAt(msg.sender, snapshotId));\n\n        // Set the voter's submission.\n        voteSubmission.revealHash = keccak256(abi.encode(price));\n\n        // Add vote to the results.\n        voteInstance.resultComputation.addVote(price, balance);\n\n        // Remove the stored message for this price request, if it exists.\n        bytes32 topicHash = keccak256(abi.encode(identifier, time, roundId));\n        removeMessage(topicHash);\n\n        emit VoteRevealed(msg.sender, roundId, identifier, time, price, balance.rawValue);\n    }\n\n    /**\n     * @notice commits a vote and stores an encrypted version which can be later decrypted\n     * to recover the voter's price & salt.\n     * @dev The encryption mechanism uses encrypt from a signature from a users price key. See `EncryptedSender.sol`\n     * @param identifier unique price pair identifier. Eg: BTC/USD price pair.\n     * @param time unix timestamp of for the price request.\n     * @param hash keccak256 hash of the price you want to vote for and a `int salt`.\n     * @param encryptedVote offchain encrypted blob containing the voters amount, time and salt.\n     */\n    function commitAndPersistEncryptedVote(bytes32 identifier, uint time, bytes32 hash, bytes memory encryptedVote)\n        public\n    {\n        commitVote(identifier, time, hash);\n\n        uint roundId = voteTiming.computeCurrentRoundId(getCurrentTime());\n        bytes32 topicHash = keccak256(abi.encode(identifier, time, roundId));\n        storeMessage(topicHash, encryptedVote);\n    }\n\n    /**\n     * @notice Submit a batch of commits in a single transaction.\n     * @dev Using `encryptedVote` is optional. If included then commitment is stored on chain.\n     * Look at `project-root/common/Constants.js` for the tested maximum number of\n     * commitments that can fit in one transaction.\n     * @param commits struct to encapsulate an `identifier`, `time`, `hash` and optional `encryptedVote`.\n     */\n    // TODO(#969) Remove once prettier-plugin-solidity can handle the \"override\" keyword\n    // prettier-ignore\n    function batchCommit(Commitment[] calldata commits) external override {\n        for (uint i = 0; i < commits.length; i++) {\n            if (commits[i].encryptedVote.length == 0) {\n                commitVote(commits[i].identifier, commits[i].time, commits[i].hash);\n            } else {\n                commitAndPersistEncryptedVote(\n                    commits[i].identifier,\n                    commits[i].time,\n                    commits[i].hash,\n                    commits[i].encryptedVote\n                );\n            }\n        }\n    }\n\n    /**\n     * @notice Reveal multiple votes in a single transaction.\n     * Look at `project-root/common/Constants.js` for the tested maximum number of reveals.\n     * that can fit in one transaction.\n     * @dev For more information on reveals, review the comment for `revealVote`.\n     * @param reveals array of the Reveal struct which contains an identifier, time, price and salt.\n     */\n    // TODO(#969) Remove once prettier-plugin-solidity can handle the \"override\" keyword\n    // prettier-ignore\n    function batchReveal(Reveal[] calldata reveals) external override {\n        for (uint i = 0; i < reveals.length; i++) {\n            revealVote(reveals[i].identifier, reveals[i].time, reveals[i].price, reveals[i].salt);\n        }\n    }\n\n    /**\n     * @notice Retrieves rewards owed for a set of resolved price requests.\n     * @dev Can only retrieve rewards if calling for a valid round and if the\n     * call is done within the timeout threshold (not expired).\n     * @param voterAddress voter for which rewards will be retrieved. Does not have to be the caller.\n     * @param roundId the round from which voting rewards will be retrieved from.\n     * @param toRetrieve array of PendingRequests which rewards are retrieved from.\n     * @return totalRewardToIssue total amount of rewards returned to the voter.\n     */\n    // TODO(#969) Remove once prettier-plugin-solidity can handle the \"override\" keyword\n    // prettier-ignore\n    function retrieveRewards(address voterAddress, uint roundId, PendingRequest[] memory toRetrieve)\n        public\n        override \n        returns (FixedPoint.Unsigned memory totalRewardToIssue)\n    {\n        if (migratedAddress != address(0)) {\n            require(msg.sender == migratedAddress, \"Can only call from migrated\");\n        }\n        uint blockTime = getCurrentTime();\n        require(roundId < voteTiming.computeCurrentRoundId(blockTime), \"Invalid roundId\");\n\n        Round storage round = rounds[roundId];\n        bool isExpired = blockTime > round.rewardsExpirationTime;\n        FixedPoint.Unsigned memory snapshotBalance = FixedPoint.Unsigned(\n            votingToken.balanceOfAt(voterAddress, round.snapshotId)\n        );\n\n        // Compute the total amount of reward that will be issued for each of the votes in the round.\n        FixedPoint.Unsigned memory snapshotTotalSupply = FixedPoint.Unsigned(\n            votingToken.totalSupplyAt(round.snapshotId)\n        );\n        FixedPoint.Unsigned memory totalRewardPerVote = round.inflationRate.mul(snapshotTotalSupply);\n\n        // Keep track of the voter's accumulated token reward.\n        totalRewardToIssue = FixedPoint.Unsigned(0);\n\n        for (uint i = 0; i < toRetrieve.length; i++) {\n            PriceRequest storage priceRequest = _getPriceRequest(toRetrieve[i].identifier, toRetrieve[i].time);\n            VoteInstance storage voteInstance = priceRequest.voteInstances[priceRequest.lastVotingRound];\n            // Only retrieve rewards for votes resolved in same round\n            require(priceRequest.lastVotingRound == roundId, \"Retrieve for votes same round\");\n\n            _resolvePriceRequest(priceRequest, voteInstance);\n\n            if (isExpired) {\n                // Emit a 0 token retrieval on expired rewards.\n                emit RewardsRetrieved(voterAddress, roundId, toRetrieve[i].identifier, toRetrieve[i].time, 0);\n            } else if (\n                voteInstance.resultComputation.wasVoteCorrect(voteInstance.voteSubmissions[voterAddress].revealHash)\n            ) {\n                // The price was successfully resolved during the voter's last voting round, the voter revealed\n                // and was correct, so they are eligible for a reward.\n                // Compute the reward and add to the cumulative reward.\n                FixedPoint.Unsigned memory reward = snapshotBalance.mul(totalRewardPerVote).div(\n                    voteInstance.resultComputation.getTotalCorrectlyVotedTokens()\n                );\n                totalRewardToIssue = totalRewardToIssue.add(reward);\n\n                // Emit reward retrieval for this vote.\n                emit RewardsRetrieved(\n                    voterAddress,\n                    roundId,\n                    toRetrieve[i].identifier,\n                    toRetrieve[i].time,\n                    reward.rawValue\n                );\n            } else {\n                // Emit a 0 token retrieval on incorrect votes.\n                emit RewardsRetrieved(voterAddress, roundId, toRetrieve[i].identifier, toRetrieve[i].time, 0);\n            }\n\n            // Delete the submission to capture any refund and clean up storage.\n            delete voteInstance.voteSubmissions[voterAddress].revealHash;\n        }\n\n        // Issue any accumulated rewards.\n        if (totalRewardToIssue.isGreaterThan(0)) {\n            require(votingToken.mint(voterAddress, totalRewardToIssue.rawValue), \"Voting token issuance failed\");\n        }\n    }\n\n    /****************************************\n     *        VOTING GETTER FUNCTIONS       *\n     ****************************************/\n\n    /**\n     * @notice Gets the queries that are being voted on this round.\n     * @return pendingRequests `PendingRequest` array containing identifiers\n     * and timestamps for all pending requests.\n     */\n    // TODO(#969) Remove once prettier-plugin-solidity can handle the \"override\" keyword\n    // prettier-ignore\n    function getPendingRequests() external override view returns (PendingRequest[] memory pendingRequests) {\n        uint blockTime = getCurrentTime();\n        uint currentRoundId = voteTiming.computeCurrentRoundId(blockTime);\n\n        // Solidity memory arrays aren't resizable (and reading storage is expensive). Hence this hackery to filter\n        // `pendingPriceRequests` only to those requests that `isActive()`.\n        PendingRequest[] memory unresolved = new PendingRequest[](pendingPriceRequests.length);\n        uint numUnresolved = 0;\n\n        for (uint i = 0; i < pendingPriceRequests.length; i++) {\n            PriceRequest storage priceRequest = priceRequests[pendingPriceRequests[i]];\n            if (_getRequestStatus(priceRequest, currentRoundId) == RequestStatus.Active) {\n                unresolved[numUnresolved] = PendingRequest({\n                    identifier: priceRequest.identifier,\n                    time: priceRequest.time\n                });\n                numUnresolved++;\n            }\n        }\n\n        pendingRequests = new PendingRequest[](numUnresolved);\n        for (uint i = 0; i < numUnresolved; i++) {\n            pendingRequests[i] = unresolved[i];\n        }\n    }\n\n    /**\n     * @notice Returns the current voting phase, as a function of the current time.\n     * @return Phase to indicate the current phase. Either { Commit, Reveal, NUM_PHASES_PLACEHOLDER }.\n     */\n    // TODO(#969) Remove once prettier-plugin-solidity can handle the \"override\" keyword\n    // prettier-ignore\n    function getVotePhase() external override view returns (Phase) {\n        return voteTiming.computeCurrentPhase(getCurrentTime());\n    }\n\n    /**\n     * @notice Returns the current round ID, as a function of the current time.\n     * @return uint representing the unique round ID.\n     */\n    // TODO(#969) Remove once prettier-plugin-solidity can handle the \"override\" keyword\n    // prettier-ignore\n    function getCurrentRoundId() external override view returns (uint) {\n        return voteTiming.computeCurrentRoundId(getCurrentTime());\n    }\n\n    /****************************************\n     *        OWNER ADMIN FUNCTIONS         *\n     ****************************************/\n\n    /**\n     * @notice Disables this Voting contract in favor of the migrated one.\n     * @dev Can only be called by the contract owner.\n     */\n    function setMigrated(address newVotingAddress) external onlyOwner {\n        migratedAddress = newVotingAddress;\n    }\n\n    /**\n     * @notice Resets the inflation rate. Note: this change only applies to rounds that have not yet begun.\n     * @dev This method is public because calldata structs are not currently supported by solidity.\n     * @param newInflationRate sets the next rounds inflation rate.\n     */\n    function setInflationRate(FixedPoint.Unsigned memory newInflationRate) public onlyOwner {\n        inflationRate = newInflationRate;\n    }\n\n    /**\n     * @notice Resets the Gat percentage. Note: this change only applies to rounds that have not yet begun.\n     * @dev This method is public because calldata structs are not currently supported by solidity.\n     * @param newGatPercentage sets the next rounds Gat percentage.\n     */\n    function setGatPercentage(FixedPoint.Unsigned memory newGatPercentage) public onlyOwner {\n        require(newGatPercentage.isLessThan(1), \"GAT percentage must be < 100%\");\n        gatPercentage = newGatPercentage;\n    }\n\n    /**\n     * @notice Resets the rewards expiration timeout.\n     * @dev This change only applies to rounds that have not yet begun.\n     * @param NewRewardsExpirationTimeout how long a caller can wait before choosing to withdraw their rewards.\n     */\n    function setRewardsExpirationTimeout(uint NewRewardsExpirationTimeout) public onlyOwner {\n        rewardsExpirationTimeout = NewRewardsExpirationTimeout;\n    }\n\n    /****************************************\n     *    PRIVATE AND INTERNAL FUNCTIONS    *\n     ****************************************/\n\n    function _getPriceOrError(bytes32 identifier, uint time)\n        private\n        view\n        returns (bool _hasPrice, int price, string memory err)\n    {\n        PriceRequest storage priceRequest = _getPriceRequest(identifier, time);\n        uint currentRoundId = voteTiming.computeCurrentRoundId(getCurrentTime());\n\n        RequestStatus requestStatus = _getRequestStatus(priceRequest, currentRoundId);\n        if (requestStatus == RequestStatus.Active) {\n            return (false, 0, \"Current voting round not ended\");\n        } else if (requestStatus == RequestStatus.Resolved) {\n            VoteInstance storage voteInstance = priceRequest.voteInstances[priceRequest.lastVotingRound];\n            (, int resolvedPrice) = voteInstance.resultComputation.getResolvedPrice(\n                _computeGat(priceRequest.lastVotingRound)\n            );\n            return (true, resolvedPrice, \"\");\n        } else if (requestStatus == RequestStatus.Future) {\n            return (false, 0, \"Price is still to be voted on\");\n        } else {\n            return (false, 0, \"Price was never requested\");\n        }\n    }\n\n    function _getPriceRequest(bytes32 identifier, uint time) private view returns (PriceRequest storage) {\n        return priceRequests[_encodePriceRequest(identifier, time)];\n    }\n\n    function _encodePriceRequest(bytes32 identifier, uint time) private pure returns (bytes32) {\n        return keccak256(abi.encode(identifier, time));\n    }\n\n    function _freezeRoundVariables(uint roundId) private {\n        Round storage round = rounds[roundId];\n        // Only on the first reveal should the snapshot be captured for that round.\n        if (round.snapshotId == 0) {\n            // There is no snapshot ID set, so create one.\n            round.snapshotId = votingToken.snapshot();\n\n            // Set the round inflation rate to the current global inflation rate.\n            rounds[roundId].inflationRate = inflationRate;\n\n            // Set the round gat percentage to the current global gat rate.\n            rounds[roundId].gatPercentage = gatPercentage;\n\n            // Set the rewards expiration time based on end of time of this round and the current global timeout.\n            rounds[roundId].rewardsExpirationTime = voteTiming.computeRoundEndTime(roundId) + rewardsExpirationTimeout;\n        }\n    }\n\n    function _resolvePriceRequest(PriceRequest storage priceRequest, VoteInstance storage voteInstance) private {\n        if (priceRequest.index == UINT_MAX) {\n            return;\n        }\n        (bool isResolved, int resolvedPrice) = voteInstance.resultComputation.getResolvedPrice(\n            _computeGat(priceRequest.lastVotingRound)\n        );\n        require(isResolved, \"Can't resolve unresolved request\");\n\n        // Delete the resolved price request from pendingPriceRequests.\n        uint lastIndex = pendingPriceRequests.length - 1;\n        PriceRequest storage lastPriceRequest = priceRequests[pendingPriceRequests[lastIndex]];\n        lastPriceRequest.index = priceRequest.index;\n        pendingPriceRequests[priceRequest.index] = pendingPriceRequests[lastIndex];\n        delete pendingPriceRequests[lastIndex];\n\n        priceRequest.index = UINT_MAX;\n        emit PriceResolved(priceRequest.lastVotingRound, priceRequest.identifier, priceRequest.time, resolvedPrice);\n    }\n\n    function _computeGat(uint roundId) private view returns (FixedPoint.Unsigned memory) {\n        uint snapshotId = rounds[roundId].snapshotId;\n        if (snapshotId == 0) {\n            // No snapshot - return max value to err on the side of caution.\n            return FixedPoint.Unsigned(UINT_MAX);\n        }\n\n        // Grab the snaphotted supply from the voting token. It's already scaled by 10**18, so we can directly\n        // initialize the Unsigned value with the returned uint.\n        FixedPoint.Unsigned memory snapshottedSupply = FixedPoint.Unsigned(votingToken.totalSupplyAt(snapshotId));\n\n        // Multiply the total supply at the snapshot by the gatPercentage to get the GAT in number of tokens.\n        return snapshottedSupply.mul(rounds[roundId].gatPercentage);\n    }\n\n    function _getRequestStatus(PriceRequest storage priceRequest, uint currentRoundId)\n        private\n        view\n        returns (RequestStatus)\n    {\n        if (priceRequest.lastVotingRound == 0) {\n            return RequestStatus.NotRequested;\n        } else if (priceRequest.lastVotingRound < currentRoundId) {\n            VoteInstance storage voteInstance = priceRequest.voteInstances[priceRequest.lastVotingRound];\n            (bool isResolved, ) = voteInstance.resultComputation.getResolvedPrice(\n                _computeGat(priceRequest.lastVotingRound)\n            );\n            return isResolved ? RequestStatus.Resolved : RequestStatus.Active;\n        } else if (priceRequest.lastVotingRound == currentRoundId) {\n            return RequestStatus.Active;\n        } else {\n            // Means than priceRequest.lastVotingRound > currentRoundId\n            return RequestStatus.Future;\n        }\n    }\n}\n",
  "sourcePath": "/home/alessandrovm/JarvisLavoro/SynFiat/packages/contracts/contracts/uma-contracts/oracle/implementation/Voting.sol",
  "compiler": {
    "name": "solc",
    "version": "0.6.4+commit.1dca32f3.Emscripten.clang"
  },
  "schemaVersion": "3.2.0",
  "updatedAt": "2020-06-19T21:38:31.643Z",
  "devdoc": {
    "details": "Handles receiving and resolving price requests via a commit-reveal voting scheme.",
    "methods": {
      "batchCommit((bytes32,uint256,bytes32,bytes)[])": {
        "details": "Using `encryptedVote` is optional. If included then commitment is stored on chain. Look at `project-root/common/Constants.js` for the tested maximum number of commitments that can fit in one transaction.",
        "params": {
          "commits": "struct to encapsulate an `identifier`, `time`, `hash` and optional `encryptedVote`."
        }
      },
      "batchReveal((bytes32,uint256,int256,int256)[])": {
        "details": "For more information on reveals, review the comment for `revealVote`.",
        "params": {
          "reveals": "array of the Reveal struct which contains an identifier, time, price and salt."
        }
      },
      "commitAndPersistEncryptedVote(bytes32,uint256,bytes32,bytes)": {
        "details": "The encryption mechanism uses encrypt from a signature from a users price key. See `EncryptedSender.sol`",
        "params": {
          "encryptedVote": "offchain encrypted blob containing the voters amount, time and salt.",
          "hash": "keccak256 hash of the price you want to vote for and a `int salt`.",
          "identifier": "unique price pair identifier. Eg: BTC/USD price pair.",
          "time": "unix timestamp of for the price request."
        }
      },
      "commitVote(bytes32,uint256,bytes32)": {
        "details": "`identifier`, `time` must correspond to a price request that's currently in the commit phase. Commits can be changed.",
        "params": {
          "hash": "keccak256 hash of the price you want to vote for and a `int salt`.",
          "identifier": "uniquely identifies the committed vote. EG BTC/USD price pair.",
          "time": "unix timestamp of the price is being voted on."
        }
      },
      "constructor": {
        "params": {
          "_finder": "keeps track of all contracts within the system based on their interfaceName.",
          "_gatPercentage": "of the total token supply that must be used in a vote to create a valid price resolution.",
          "_identifierWhitelist": "defines the identifiers that can have have synthetics created against.",
          "_inflationRate": "percentage inflation per round used to increase token supply of correct voters.",
          "_isTest": "whether this contract is being constructed for the purpose of running automated tests.",
          "_phaseLength": "length of the commit and reveal phases in seconds.",
          "_rewardsExpirationTimeout": "timeout, in seconds, within which rewards must be claimed.",
          "_votingToken": "address of the UMA token contract used to commit votes."
        }
      },
      "getMessage(address,bytes32)": {
        "details": "To decrypt messages (this requires access to the owner's private keys), use the decryptMessage() function in common/Crypto.js.",
        "params": {
          "topicHash": "hash of the \"subject\" of the message.",
          "user": "address that stored this message."
        },
        "returns": {
          "_0": "stored message."
        }
      },
      "getPrice(bytes32,uint256)": {
        "details": "If the price is not available, the method reverts.",
        "params": {
          "identifier": "uniquely identifies the price requested. eg BTC/USD (encoded as bytes32) could be requested.",
          "time": "unix timestamp of for the price request."
        },
        "returns": {
          "_0": "int representing the resolved price for the given identifier and timestamp."
        }
      },
      "getPriceRequestStatuses((bytes32,uint256)[])": {
        "details": "If the status for a particular request is NotRequested, the lastVotingRound will always be 0.",
        "params": {
          "requests": "array of time PendingRequest which includes a identifier and timestamp for each request."
        },
        "returns": {
          "requestStates": "A lis, in the same order as the input list, giving the status of each of the specified price requests."
        }
      },
      "hasPrice(bytes32,uint256)": {
        "details": "Time must be in the past and the identifier must be supported.",
        "params": {
          "identifier": "uniquely identifies the price requested. eg BTC/USD (encoded as bytes32) could be requested.",
          "time": "unix timestamp of for the price request."
        },
        "returns": {
          "_hasPrice": "bool if the DVM has resolved to a price for the given identifier and timestamp."
        }
      },
      "isOwner()": {
        "details": "Returns true if the caller is the current owner."
      },
      "owner()": {
        "details": "Returns the address of the current owner."
      },
      "removeMessage(bytes32)": {
        "params": {
          "topicHash": "hash of the \"subject\" or \"topic\" of the message."
        }
      },
      "renounceOwnership()": {
        "details": "Leaves the contract without owner. It will not be possible to call `onlyOwner` functions anymore. Can only be called by the current owner.     * NOTE: Renouncing ownership will leave the contract without an owner, thereby removing any functionality that is only available to the owner."
      },
      "requestPrice(bytes32,uint256)": {
        "details": "Time must be in the past and the identifier must be supported.",
        "params": {
          "identifier": "uniquely identifies the price requested. eg BTC/USD (encoded as bytes32) could be requested.",
          "time": "unix timestamp of for the price request."
        }
      },
      "retrieveRewards(address,uint256,(bytes32,uint256)[])": {
        "details": "Can only retrieve rewards if calling for a valid round and if the call is done within the timeout threshold (not expired).",
        "params": {
          "roundId": "the round from which voting rewards will be retrieved from.",
          "toRetrieve": "array of PendingRequests which rewards are retrieved from.",
          "voterAddress": "voter for which rewards will be retrieved. Does not have to be the caller."
        },
        "returns": {
          "totalRewardToIssue": "total amount of rewards returned to the voter."
        }
      },
      "revealVote(bytes32,uint256,int256,int256)": {
        "details": "The revealed `price` and `salt` must match the latest `hash` that `commitVote()` was called with. Only the committer can reveal their vote.",
        "params": {
          "identifier": "voted on in the commit phase. EG BTC/USD price pair.",
          "price": "voted on during the commit phase.",
          "salt": "value used to hide the commitment price during the commit phase.",
          "time": "specifies the unix timestamp of the price is being voted on."
        }
      },
      "setCurrentTime(uint256)": {
        "details": "Will revert if not running in test mode."
      },
      "setGatPercentage((uint256))": {
        "details": "This method is public because calldata structs are not currently supported by solidity.",
        "params": {
          "newGatPercentage": "sets the next rounds Gat percentage."
        }
      },
      "setInflationRate((uint256))": {
        "details": "This method is public because calldata structs are not currently supported by solidity.",
        "params": {
          "newInflationRate": "sets the next rounds inflation rate."
        }
      },
      "setMigrated(address)": {
        "details": "Can only be called by the contract owner."
      },
      "setRewardsExpirationTimeout(uint256)": {
        "details": "This change only applies to rounds that have not yet begun.",
        "params": {
          "NewRewardsExpirationTimeout": "how long a caller can wait before choosing to withdraw their rewards."
        }
      },
      "storeMessage(bytes32,bytes)": {
        "details": "To construct an encrypted message, use the encryptMessage() in common/Crypto.js.",
        "params": {
          "message": "the stored message.",
          "topicHash": "hash of the \"subject\" or \"topic\" of the message."
        }
      },
      "transferOwnership(address)": {
        "details": "Transfers ownership of the contract to a new account (`newOwner`). Can only be called by the current owner."
      }
    },
    "title": "Voting system for Oracle."
  },
  "userdoc": {
    "methods": {
      "batchCommit((bytes32,uint256,bytes32,bytes)[])": {
        "notice": "Submit a batch of commits in a single transaction."
      },
      "batchReveal((bytes32,uint256,int256,int256)[])": {
        "notice": "Reveal multiple votes in a single transaction. Look at `project-root/common/Constants.js` for the tested maximum number of reveals. that can fit in one transaction."
      },
      "commitAndPersistEncryptedVote(bytes32,uint256,bytes32,bytes)": {
        "notice": "commits a vote and stores an encrypted version which can be later decrypted to recover the voter's price & salt."
      },
      "commitVote(bytes32,uint256,bytes32)": {
        "notice": "Commit a vote for a price request for `identifier` at `time`."
      },
      "constructor": "Construct the Voting contract.",
      "getCurrentRoundId()": {
        "notice": "Returns the current round ID, as a function of the current time."
      },
      "getCurrentTime()": {
        "notice": "Gets the current time. Will return the last time set in `setCurrentTime` if running in test mode. Otherwise, it will return the block timestamp."
      },
      "getMessage(address,bytes32)": {
        "notice": "Gets the current stored message corresponding to `user` and `topicHash`."
      },
      "getPendingRequests()": {
        "notice": "Gets the queries that are being voted on this round."
      },
      "getPrice(bytes32,uint256)": {
        "notice": "Gets the price for `identifier` and `time` if it has already been requested and resolved."
      },
      "getPriceRequestStatuses((bytes32,uint256)[])": {
        "notice": "Gets the status of a list of price requests, identified by their identifier and time."
      },
      "getVotePhase()": {
        "notice": "Returns the current voting phase, as a function of the current time."
      },
      "hasPrice(bytes32,uint256)": {
        "notice": "Whether the price for `identifier` and `time` is available."
      },
      "removeMessage(bytes32)": {
        "notice": "Removes a stored message categorized by a particular `topicHash`."
      },
      "requestPrice(bytes32,uint256)": {
        "notice": "Enqueues a request (if a request isn't already present) for the given `identifier`, `time` pair."
      },
      "retrieveRewards(address,uint256,(bytes32,uint256)[])": {
        "notice": "Retrieves rewards owed for a set of resolved price requests."
      },
      "revealVote(bytes32,uint256,int256,int256)": {
        "notice": "Reveal a previously committed vote for `identifier` at `time`."
      },
      "setCurrentTime(uint256)": {
        "notice": "Sets the current time."
      },
      "setGatPercentage((uint256))": {
        "notice": "Resets the Gat percentage. Note: this change only applies to rounds that have not yet begun."
      },
      "setInflationRate((uint256))": {
        "notice": "Resets the inflation rate. Note: this change only applies to rounds that have not yet begun."
      },
      "setMigrated(address)": {
        "notice": "Disables this Voting contract in favor of the migrated one."
      },
      "setRewardsExpirationTimeout(uint256)": {
        "notice": "Resets the rewards expiration timeout."
      },
      "storeMessage(bytes32,bytes)": {
        "notice": "Stores a `message` categorized by a particular `topicHash`. This will overwrite the previous messages sent by this caller with this `topicHash`."
      }
    }
  }
}