{
  "contractName": "VotingTest",
  "abi": [
    {
      "inputs": [
        {
          "internalType": "uint256",
          "name": "_phaseLength",
          "type": "uint256"
        },
        {
          "components": [
            {
              "internalType": "uint256",
              "name": "rawValue",
              "type": "uint256"
            }
          ],
          "internalType": "struct FixedPoint.Unsigned",
          "name": "_gatPercentage",
          "type": "tuple"
        },
        {
          "components": [
            {
              "internalType": "uint256",
              "name": "rawValue",
              "type": "uint256"
            }
          ],
          "internalType": "struct FixedPoint.Unsigned",
          "name": "_inflationRate",
          "type": "tuple"
        },
        {
          "internalType": "uint256",
          "name": "_rewardsExpirationTimeout",
          "type": "uint256"
        },
        {
          "internalType": "address",
          "name": "_votingToken",
          "type": "address"
        },
        {
          "internalType": "address",
          "name": "_finder",
          "type": "address"
        },
        {
          "internalType": "address",
          "name": "_timerAddress",
          "type": "address"
        }
      ],
      "stateMutability": "nonpayable",
      "type": "constructor"
    },
    {
      "anonymous": false,
      "inputs": [
        {
          "indexed": true,
          "internalType": "address",
          "name": "voter",
          "type": "address"
        },
        {
          "indexed": true,
          "internalType": "uint256",
          "name": "roundId",
          "type": "uint256"
        },
        {
          "indexed": true,
          "internalType": "bytes32",
          "name": "identifier",
          "type": "bytes32"
        },
        {
          "indexed": false,
          "internalType": "uint256",
          "name": "time",
          "type": "uint256"
        },
        {
          "indexed": false,
          "internalType": "bytes",
          "name": "encryptedVote",
          "type": "bytes"
        }
      ],
      "name": "EncryptedVote",
      "type": "event"
    },
    {
      "anonymous": false,
      "inputs": [
        {
          "indexed": true,
          "internalType": "address",
          "name": "previousOwner",
          "type": "address"
        },
        {
          "indexed": true,
          "internalType": "address",
          "name": "newOwner",
          "type": "address"
        }
      ],
      "name": "OwnershipTransferred",
      "type": "event"
    },
    {
      "anonymous": false,
      "inputs": [
        {
          "indexed": true,
          "internalType": "uint256",
          "name": "roundId",
          "type": "uint256"
        },
        {
          "indexed": true,
          "internalType": "bytes32",
          "name": "identifier",
          "type": "bytes32"
        },
        {
          "indexed": false,
          "internalType": "uint256",
          "name": "time",
          "type": "uint256"
        }
      ],
      "name": "PriceRequestAdded",
      "type": "event"
    },
    {
      "anonymous": false,
      "inputs": [
        {
          "indexed": true,
          "internalType": "uint256",
          "name": "roundId",
          "type": "uint256"
        },
        {
          "indexed": true,
          "internalType": "bytes32",
          "name": "identifier",
          "type": "bytes32"
        },
        {
          "indexed": false,
          "internalType": "uint256",
          "name": "time",
          "type": "uint256"
        },
        {
          "indexed": false,
          "internalType": "int256",
          "name": "price",
          "type": "int256"
        }
      ],
      "name": "PriceResolved",
      "type": "event"
    },
    {
      "anonymous": false,
      "inputs": [
        {
          "indexed": true,
          "internalType": "address",
          "name": "voter",
          "type": "address"
        },
        {
          "indexed": true,
          "internalType": "uint256",
          "name": "roundId",
          "type": "uint256"
        },
        {
          "indexed": true,
          "internalType": "bytes32",
          "name": "identifier",
          "type": "bytes32"
        },
        {
          "indexed": false,
          "internalType": "uint256",
          "name": "time",
          "type": "uint256"
        },
        {
          "indexed": false,
          "internalType": "uint256",
          "name": "numTokens",
          "type": "uint256"
        }
      ],
      "name": "RewardsRetrieved",
      "type": "event"
    },
    {
      "anonymous": false,
      "inputs": [
        {
          "indexed": true,
          "internalType": "address",
          "name": "voter",
          "type": "address"
        },
        {
          "indexed": true,
          "internalType": "uint256",
          "name": "roundId",
          "type": "uint256"
        },
        {
          "indexed": true,
          "internalType": "bytes32",
          "name": "identifier",
          "type": "bytes32"
        },
        {
          "indexed": false,
          "internalType": "uint256",
          "name": "time",
          "type": "uint256"
        }
      ],
      "name": "VoteCommitted",
      "type": "event"
    },
    {
      "anonymous": false,
      "inputs": [
        {
          "indexed": true,
          "internalType": "address",
          "name": "voter",
          "type": "address"
        },
        {
          "indexed": true,
          "internalType": "uint256",
          "name": "roundId",
          "type": "uint256"
        },
        {
          "indexed": true,
          "internalType": "bytes32",
          "name": "identifier",
          "type": "bytes32"
        },
        {
          "indexed": false,
          "internalType": "uint256",
          "name": "time",
          "type": "uint256"
        },
        {
          "indexed": false,
          "internalType": "int256",
          "name": "price",
          "type": "int256"
        },
        {
          "indexed": false,
          "internalType": "uint256",
          "name": "numTokens",
          "type": "uint256"
        }
      ],
      "name": "VoteRevealed",
      "type": "event"
    },
    {
      "inputs": [
        {
          "components": [
            {
              "internalType": "bytes32",
              "name": "identifier",
              "type": "bytes32"
            },
            {
              "internalType": "uint256",
              "name": "time",
              "type": "uint256"
            },
            {
              "internalType": "bytes32",
              "name": "hash",
              "type": "bytes32"
            },
            {
              "internalType": "bytes",
              "name": "encryptedVote",
              "type": "bytes"
            }
          ],
          "internalType": "struct VotingInterface.Commitment[]",
          "name": "commits",
          "type": "tuple[]"
        }
      ],
      "name": "batchCommit",
      "outputs": [],
      "stateMutability": "nonpayable",
      "type": "function"
    },
    {
      "inputs": [
        {
          "components": [
            {
              "internalType": "bytes32",
              "name": "identifier",
              "type": "bytes32"
            },
            {
              "internalType": "uint256",
              "name": "time",
              "type": "uint256"
            },
            {
              "internalType": "int256",
              "name": "price",
              "type": "int256"
            },
            {
              "internalType": "int256",
              "name": "salt",
              "type": "int256"
            }
          ],
          "internalType": "struct VotingInterface.Reveal[]",
          "name": "reveals",
          "type": "tuple[]"
        }
      ],
      "name": "batchReveal",
      "outputs": [],
      "stateMutability": "nonpayable",
      "type": "function"
    },
    {
      "inputs": [
        {
          "internalType": "bytes32",
          "name": "identifier",
          "type": "bytes32"
        },
        {
          "internalType": "uint256",
          "name": "time",
          "type": "uint256"
        },
        {
          "internalType": "bytes32",
          "name": "hash",
          "type": "bytes32"
        },
        {
          "internalType": "bytes",
          "name": "encryptedVote",
          "type": "bytes"
        }
      ],
      "name": "commitAndEmitEncryptedVote",
      "outputs": [],
      "stateMutability": "nonpayable",
      "type": "function"
    },
    {
      "inputs": [
        {
          "internalType": "bytes32",
          "name": "identifier",
          "type": "bytes32"
        },
        {
          "internalType": "uint256",
          "name": "time",
          "type": "uint256"
        },
        {
          "internalType": "bytes32",
          "name": "hash",
          "type": "bytes32"
        }
      ],
      "name": "commitVote",
      "outputs": [],
      "stateMutability": "nonpayable",
      "type": "function"
    },
    {
      "inputs": [],
      "name": "gatPercentage",
      "outputs": [
        {
          "internalType": "uint256",
          "name": "rawValue",
          "type": "uint256"
        }
      ],
      "stateMutability": "view",
      "type": "function"
    },
    {
      "inputs": [],
      "name": "getCurrentRoundId",
      "outputs": [
        {
          "internalType": "uint256",
          "name": "",
          "type": "uint256"
        }
      ],
      "stateMutability": "view",
      "type": "function"
    },
    {
      "inputs": [],
      "name": "getCurrentTime",
      "outputs": [
        {
          "internalType": "uint256",
          "name": "",
          "type": "uint256"
        }
      ],
      "stateMutability": "view",
      "type": "function"
    },
    {
      "inputs": [],
      "name": "getPendingRequests",
      "outputs": [
        {
          "components": [
            {
              "internalType": "bytes32",
              "name": "identifier",
              "type": "bytes32"
            },
            {
              "internalType": "uint256",
              "name": "time",
              "type": "uint256"
            }
          ],
          "internalType": "struct VotingInterface.PendingRequest[]",
          "name": "",
          "type": "tuple[]"
        }
      ],
      "stateMutability": "view",
      "type": "function"
    },
    {
      "inputs": [
        {
          "internalType": "bytes32",
          "name": "identifier",
          "type": "bytes32"
        },
        {
          "internalType": "uint256",
          "name": "time",
          "type": "uint256"
        }
      ],
      "name": "getPrice",
      "outputs": [
        {
          "internalType": "int256",
          "name": "",
          "type": "int256"
        }
      ],
      "stateMutability": "view",
      "type": "function"
    },
    {
      "inputs": [
        {
          "components": [
            {
              "internalType": "bytes32",
              "name": "identifier",
              "type": "bytes32"
            },
            {
              "internalType": "uint256",
              "name": "time",
              "type": "uint256"
            }
          ],
          "internalType": "struct VotingInterface.PendingRequest[]",
          "name": "requests",
          "type": "tuple[]"
        }
      ],
      "name": "getPriceRequestStatuses",
      "outputs": [
        {
          "components": [
            {
              "internalType": "enum Voting.RequestStatus",
              "name": "status",
              "type": "uint8"
            },
            {
              "internalType": "uint256",
              "name": "lastVotingRound",
              "type": "uint256"
            }
          ],
          "internalType": "struct Voting.RequestState[]",
          "name": "",
          "type": "tuple[]"
        }
      ],
      "stateMutability": "view",
      "type": "function"
    },
    {
      "inputs": [],
      "name": "getVotePhase",
      "outputs": [
        {
          "internalType": "enum VotingInterface.Phase",
          "name": "",
          "type": "uint8"
        }
      ],
      "stateMutability": "view",
      "type": "function"
    },
    {
      "inputs": [
        {
          "internalType": "bytes32",
          "name": "identifier",
          "type": "bytes32"
        },
        {
          "internalType": "uint256",
          "name": "time",
          "type": "uint256"
        }
      ],
      "name": "hasPrice",
      "outputs": [
        {
          "internalType": "bool",
          "name": "",
          "type": "bool"
        }
      ],
      "stateMutability": "view",
      "type": "function"
    },
    {
      "inputs": [],
      "name": "inflationRate",
      "outputs": [
        {
          "internalType": "uint256",
          "name": "rawValue",
          "type": "uint256"
        }
      ],
      "stateMutability": "view",
      "type": "function"
    },
    {
      "inputs": [],
      "name": "migratedAddress",
      "outputs": [
        {
          "internalType": "address",
          "name": "",
          "type": "address"
        }
      ],
      "stateMutability": "view",
      "type": "function"
    },
    {
      "inputs": [],
      "name": "owner",
      "outputs": [
        {
          "internalType": "address",
          "name": "",
          "type": "address"
        }
      ],
      "stateMutability": "view",
      "type": "function"
    },
    {
      "inputs": [],
      "name": "renounceOwnership",
      "outputs": [],
      "stateMutability": "nonpayable",
      "type": "function"
    },
    {
      "inputs": [
        {
          "internalType": "bytes32",
          "name": "identifier",
          "type": "bytes32"
        },
        {
          "internalType": "uint256",
          "name": "time",
          "type": "uint256"
        }
      ],
      "name": "requestPrice",
      "outputs": [],
      "stateMutability": "nonpayable",
      "type": "function"
    },
    {
      "inputs": [
        {
          "internalType": "address",
          "name": "voterAddress",
          "type": "address"
        },
        {
          "internalType": "uint256",
          "name": "roundId",
          "type": "uint256"
        },
        {
          "components": [
            {
              "internalType": "bytes32",
              "name": "identifier",
              "type": "bytes32"
            },
            {
              "internalType": "uint256",
              "name": "time",
              "type": "uint256"
            }
          ],
          "internalType": "struct VotingInterface.PendingRequest[]",
          "name": "toRetrieve",
          "type": "tuple[]"
        }
      ],
      "name": "retrieveRewards",
      "outputs": [
        {
          "components": [
            {
              "internalType": "uint256",
              "name": "rawValue",
              "type": "uint256"
            }
          ],
          "internalType": "struct FixedPoint.Unsigned",
          "name": "totalRewardToIssue",
          "type": "tuple"
        }
      ],
      "stateMutability": "nonpayable",
      "type": "function"
    },
    {
      "inputs": [
        {
          "internalType": "bytes32",
          "name": "identifier",
          "type": "bytes32"
        },
        {
          "internalType": "uint256",
          "name": "time",
          "type": "uint256"
        },
        {
          "internalType": "int256",
          "name": "price",
          "type": "int256"
        },
        {
          "internalType": "int256",
          "name": "salt",
          "type": "int256"
        }
      ],
      "name": "revealVote",
      "outputs": [],
      "stateMutability": "nonpayable",
      "type": "function"
    },
    {
      "inputs": [],
      "name": "rewardsExpirationTimeout",
      "outputs": [
        {
          "internalType": "uint256",
          "name": "",
          "type": "uint256"
        }
      ],
      "stateMutability": "view",
      "type": "function"
    },
    {
      "inputs": [
        {
          "internalType": "uint256",
          "name": "",
          "type": "uint256"
        }
      ],
      "name": "rounds",
      "outputs": [
        {
          "internalType": "uint256",
          "name": "snapshotId",
          "type": "uint256"
        },
        {
          "components": [
            {
              "internalType": "uint256",
              "name": "rawValue",
              "type": "uint256"
            }
          ],
          "internalType": "struct FixedPoint.Unsigned",
          "name": "inflationRate",
          "type": "tuple"
        },
        {
          "components": [
            {
              "internalType": "uint256",
              "name": "rawValue",
              "type": "uint256"
            }
          ],
          "internalType": "struct FixedPoint.Unsigned",
          "name": "gatPercentage",
          "type": "tuple"
        },
        {
          "internalType": "uint256",
          "name": "rewardsExpirationTime",
          "type": "uint256"
        }
      ],
      "stateMutability": "view",
      "type": "function"
    },
    {
      "inputs": [
        {
          "internalType": "uint256",
          "name": "time",
          "type": "uint256"
        }
      ],
      "name": "setCurrentTime",
      "outputs": [],
      "stateMutability": "nonpayable",
      "type": "function"
    },
    {
      "inputs": [
        {
          "components": [
            {
              "internalType": "uint256",
              "name": "rawValue",
              "type": "uint256"
            }
          ],
          "internalType": "struct FixedPoint.Unsigned",
          "name": "newGatPercentage",
          "type": "tuple"
        }
      ],
      "name": "setGatPercentage",
      "outputs": [],
      "stateMutability": "nonpayable",
      "type": "function"
    },
    {
      "inputs": [
        {
          "components": [
            {
              "internalType": "uint256",
              "name": "rawValue",
              "type": "uint256"
            }
          ],
          "internalType": "struct FixedPoint.Unsigned",
          "name": "newInflationRate",
          "type": "tuple"
        }
      ],
      "name": "setInflationRate",
      "outputs": [],
      "stateMutability": "nonpayable",
      "type": "function"
    },
    {
      "inputs": [
        {
          "internalType": "address",
          "name": "newVotingAddress",
          "type": "address"
        }
      ],
      "name": "setMigrated",
      "outputs": [],
      "stateMutability": "nonpayable",
      "type": "function"
    },
    {
      "inputs": [
        {
          "internalType": "uint256",
          "name": "NewRewardsExpirationTimeout",
          "type": "uint256"
        }
      ],
      "name": "setRewardsExpirationTimeout",
      "outputs": [],
      "stateMutability": "nonpayable",
      "type": "function"
    },
    {
      "inputs": [
        {
          "internalType": "bytes",
          "name": "signature",
          "type": "bytes"
        }
      ],
      "name": "snapshotCurrentRound",
      "outputs": [],
      "stateMutability": "nonpayable",
      "type": "function"
    },
    {
      "inputs": [],
      "name": "snapshotMessage",
      "outputs": [
        {
          "internalType": "bytes32",
          "name": "",
          "type": "bytes32"
        }
      ],
      "stateMutability": "view",
      "type": "function"
    },
    {
      "inputs": [],
      "name": "timerAddress",
      "outputs": [
        {
          "internalType": "address",
          "name": "",
          "type": "address"
        }
      ],
      "stateMutability": "view",
      "type": "function"
    },
    {
      "inputs": [
        {
          "internalType": "address",
          "name": "newOwner",
          "type": "address"
        }
      ],
      "name": "transferOwnership",
      "outputs": [],
      "stateMutability": "nonpayable",
      "type": "function"
    },
    {
      "inputs": [],
      "name": "voteTiming",
      "outputs": [
        {
          "internalType": "uint256",
          "name": "phaseLength",
          "type": "uint256"
        }
      ],
      "stateMutability": "view",
      "type": "function"
    },
    {
      "inputs": [],
      "name": "votingToken",
      "outputs": [
        {
          "internalType": "contract VotingToken",
          "name": "",
          "type": "address"
        }
      ],
      "stateMutability": "view",
      "type": "function"
    },
    {
      "inputs": [],
      "name": "getPendingPriceRequestsArray",
      "outputs": [
        {
          "internalType": "bytes32[]",
          "name": "",
          "type": "bytes32[]"
        }
      ],
      "stateMutability": "view",
      "type": "function"
    }
  ],
  "bytecode": "0x60806040526200003b6200001460a06200037b565b604051602081830303815290604052805190602001206200019960201b620044381760201c565b600c553480156200004b57600080fd5b5060405162004949380380620049498339810160408190526200006e91620002f4565b600080546001600160a01b0319166001600160a01b0383161781558790879087908790879087908790620000a1620001cb565b600180546001600160a01b0319166001600160a01b038316908117909155604051919250906000907f8be0079c531659141344cd1fd0a4f28419497f9722a3daafe3b4186f6b6457e0908290a3506200010a876005620001cf60201b620044681790919060201c565b62000125600187620001e160201b620044791790919060201c565b6200014d5760405162461bcd60e51b81526004016200014490620003c9565b60405180910390fd5b5093516006559151600755600980546001600160a01b039384166001600160a01b031991821617909155600a805494909316931692909217905560085550620004419650505050505050565b600081604051602001620001ae919062000398565b604051602081830303815290604052805190602001209050919050565b3390565b60008111620001dd57600080fd5b9055565b6000620001f7826001600160e01b036200020516565b518351111590505b92915050565b6200020f6200028b565b60405180602001604052806200023c670de0b6b3a7640000856200024460201b6200317c1790919060201c565b905292915050565b6000826200025557506000620001ff565b828202828482816200026357fe5b0414620002845760405162461bcd60e51b8152600401620001449062000400565b9392505050565b6040518060200160405280600081525090565b80516001600160a01b0381168114620001ff57600080fd5b600060208284031215620002c8578081fd5b604051602081016001600160401b0381118282101715620002e7578283fd5b6040529151825250919050565b600080600080600080600060e0888a0312156200030f578283fd5b87519650620003228960208a01620002b6565b9550620003338960408a01620002b6565b9450606088015193506200034b8960808a016200029e565b92506200035c8960a08a016200029e565b91506200036d8960c08a016200029e565b905092959891949750929550565b7014da59db88119bdc8814db985c1cda1bdd607a1b815260110190565b7f19457468657265756d205369676e6564204d6573736167653a0a3332000000008152601c810191909152603c0190565b6020808252601e908201527f4741542070657263656e74616765206d757374206265203c3d20313030250000604082015260600190565b60208082526021908201527f536166654d6174683a206d756c7469706c69636174696f6e206f766572666c6f6040820152607760f81b606082015260800190565b6144f880620004516000396000f3fe608060405234801561001057600080fd5b506004361061020b5760003560e01c8063715018a61161012a5780638da5cb5b116100bd578063b90fd4801161008c578063d8651ad011610071578063d8651ad014610426578063f116961f14610439578063f2fde38b1461044e5761020b565b8063b90fd4801461040b578063c9280f06146104135761020b565b80638da5cb5b146103d3578063a03e881a146103db578063b0340123146103fb578063b5892f4a146104035761020b565b806383c6aaca116100f957806383c6aaca1461036a5780638558d4f31461037d5780638876e8a01461039d5780638c65c81f146103b05761020b565b8063715018a61461033057806371b7db531461033857806374dd278c1461034057806380a1f712146103555761020b565b806331f9e35b116101a25780635727e25d116101715780635727e25d146102ef5780636852eea0146102f757806368ad8ae31461030a57806370a0cf2c1461031d5761020b565b806331f9e35b146102b95780634000851f146102c15780634666cb0c146102c95780634c7a2603146102dc5761020b565b806322f8e566116101de57806322f8e5661461027657806326af73bf146102895780632960b5af1461029e57806329cb924d146102b15761020b565b80630d434e7e14610210578063110d559a1461023957806313e56d6a1461024e5780631c39c38d14610261575b600080fd5b61022361021e3660046136a0565b610461565b60405161023091906142e3565b60405180910390f35b61024c610247366004613958565b610b37565b005b61024c61025c3660046139b3565b610cb2565b610269610d5b565b6040516102309190613abe565b61024c6102843660046139d8565b610d77565b610291610e24565b6040516102309190613bef565b61024c6102ac366004613668565b610e2a565b610291610ecd565b610291610f98565b610269610f9e565b61024c6102d7366004613860565b610fba565b61024c6102ea366004613927565b61103b565b6102916113af565b61024c610305366004613796565b6113c1565b61024c610318366004613814565b611439565b61024c61032b3660046136f7565b61188c565b61024c611a0f565b610291611ada565b610348611ae0565b6040516102309190613c24565b61035d611afb565b6040516102309190613b49565b61024c6103783660046139b3565b611c92565b61039061038b366004613763565b611cf4565b6040516102309190613b98565b61024c6103ab3660046139d8565b611e2a565b6103c36103be3660046139d8565b611e8b565b604051610230949392919061431c565b610269611ec5565b6103ee6103e9366004613814565b611ee1565b6040516102309190613be4565b610269612115565b610291612131565b610291612137565b610291610421366004613814565b61213d565b61024c610434366004613835565b6123a7565b61044161256c565b6040516102309190613b05565b61024c61045c366004613668565b6125c4565b610469613585565b600b5473ffffffffffffffffffffffffffffffffffffffff16156104e157600b5473ffffffffffffffffffffffffffffffffffffffff1633146104e1576040517f08c379a00000000000000000000000000000000000000000000000000000000081526004016104d890613e18565b60405180910390fd5b60006104eb610ecd565b90506104fe60058263ffffffff6126fb16565b8410610536576040517f08c379a00000000000000000000000000000000000000000000000000000000081526004016104d890613e4f565b600084815260026020526040902060038101548211610553613585565b60408051602081019182905260095485547f4ee2cd7e000000000000000000000000000000000000000000000000000000009093529091829173ffffffffffffffffffffffffffffffffffffffff1690634ee2cd7e906105b8908d9060248601613adf565b60206040518083038186803b1580156105d057600080fd5b505afa1580156105e4573d6000803e3d6000fd5b505050506040513d601f19601f8201168201806040525081019061060891906139f0565b90529050610614613585565b60408051602081019182905260095486547f981b24d0000000000000000000000000000000000000000000000000000000009093529091829173ffffffffffffffffffffffffffffffffffffffff169063981b24d0906106779060248501613bef565b60206040518083038186803b15801561068f57600080fd5b505afa1580156106a3573d6000803e3d6000fd5b505050506040513d601f19601f820116820180604052508101906106c791906139f0565b905290506106d3613585565b6040805160208101909152600186015481526106f5908363ffffffff61272c16565b604080516020810190915260008082529098509091505b8851811015610a3257600061074f8a838151811061072657fe5b6020026020010151600001518b848151811061073e57fe5b60200260200101516020015161276f565b6003810154600081815260028301602052604090209192508c1461079f576040517f08c379a00000000000000000000000000000000000000000000000000000000081526004016104d89061423e565b6107a98282612795565b73ffffffffffffffffffffffffffffffffffffffff8d166000908152602082905260409020600101546107dd575050610a2a565b8615610869578a83815181106107ef57fe5b6020026020010151600001518c8e73ffffffffffffffffffffffffffffffffffffffff167ff8da7bdb1837995e872689b605d1a2b076db111cb4b15351f835ebd275be423f8e878151811061084057fe5b602002602001015160200151600060405161085c929190613bf8565b60405180910390a46109fe565b73ffffffffffffffffffffffffffffffffffffffff8d1660009081526020829052604090206001908101546108a69183019063ffffffff61295116565b1561097c576108b3613585565b6108de6108c283600101612988565b6108d2898863ffffffff61272c16565b9063ffffffff6129b416565b90506108f08b8263ffffffff6129fe16565b9a508b84815181106108fe57fe5b6020026020010151600001518d8f73ffffffffffffffffffffffffffffffffffffffff167ff8da7bdb1837995e872689b605d1a2b076db111cb4b15351f835ebd275be423f8f888151811061094f57fe5b602002602001015160200151856000015160405161096e929190613bf8565b60405180910390a4506109fe565b8a838151811061098857fe5b6020026020010151600001518c8e73ffffffffffffffffffffffffffffffffffffffff167ff8da7bdb1837995e872689b605d1a2b076db111cb4b15351f835ebd275be423f8e87815181106109d957fe5b60200260200101516020015160006040516109f5929190613bf8565b60405180910390a45b73ffffffffffffffffffffffffffffffffffffffff8d1660009081526020919091526040812060010155505b60010161070c565b50610a4487600063ffffffff612a2716565b15610b2a5760095487516040517f40c10f1900000000000000000000000000000000000000000000000000000000815273ffffffffffffffffffffffffffffffffffffffff909216916340c10f1991610aa2918e9190600401613adf565b602060405180830381600087803b158015610abc57600080fd5b505af1158015610ad0573d6000803e3d6000fd5b505050506040513d601f19601f82011682018060405250810190610af491906137f4565b610b2a576040517f08c379a00000000000000000000000000000000000000000000000000000000081526004016104d89061401a565b5050505050509392505050565b600b5473ffffffffffffffffffffffffffffffffffffffff1615610b87576040517f08c379a00000000000000000000000000000000000000000000000000000000081526004016104d8906141d0565b6000610b91610ecd565b90506001610ba660058363ffffffff612a3e16565b6002811115610bb157fe5b14610be8576040517f08c379a00000000000000000000000000000000000000000000000000000000081526004016104d890614275565b3373ffffffffffffffffffffffffffffffffffffffff16610c41600c5485858080601f016020809104026020016040519081016040528093929190818152602001838380828437600092019190915250612a7692505050565b73ffffffffffffffffffffffffffffffffffffffff1614610c8e576040517f08c379a00000000000000000000000000000000000000000000000000000000081526004016104d890613fe3565b6000610ca160058363ffffffff6126fb16565b9050610cac81612c37565b50505050565b610cba612d48565b60015473ffffffffffffffffffffffffffffffffffffffff908116911614610d0e576040517f08c379a00000000000000000000000000000000000000000000000000000000081526004016104d890613f77565b610d1f81600163ffffffff612d4c16565b610d55576040517f08c379a00000000000000000000000000000000000000000000000000000000081526004016104d8906140f6565b51600655565b60005473ffffffffffffffffffffffffffffffffffffffff1681565b60005473ffffffffffffffffffffffffffffffffffffffff16610d9957600080fd5b6000546040517f22f8e56600000000000000000000000000000000000000000000000000000000815273ffffffffffffffffffffffffffffffffffffffff909116906322f8e56690610def908490600401613bef565b600060405180830381600087803b158015610e0957600080fd5b505af1158015610e1d573d6000803e3d6000fd5b5050505050565b60085481565b610e32612d48565b60015473ffffffffffffffffffffffffffffffffffffffff908116911614610e86576040517f08c379a00000000000000000000000000000000000000000000000000000000081526004016104d890613f77565b600b80547fffffffffffffffffffffffff00000000000000000000000000000000000000001673ffffffffffffffffffffffffffffffffffffffff92909216919091179055565b6000805473ffffffffffffffffffffffffffffffffffffffff1615610f92576000809054906101000a900473ffffffffffffffffffffffffffffffffffffffff1673ffffffffffffffffffffffffffffffffffffffff166329cb924d6040518163ffffffff1660e01b815260040160206040518083038186803b158015610f5357600080fd5b505afa158015610f67573d6000803e3d6000fd5b505050506040513d601f19601f82011682018060405250810190610f8b91906139f0565b9050610f95565b50425b90565b60075481565b600b5473ffffffffffffffffffffffffffffffffffffffff1681565b610fc58484846123a7565b6000610fe0610fd2610ecd565b60059063ffffffff6126fb16565b905084813373ffffffffffffffffffffffffffffffffffffffff167f6992efdd7b69c1a8d79212d5ef5fe92118ed053fb7195808a858fa6889a117e9878660405161102c9291906142ed565b60405180910390a45050505050565b600b5473ffffffffffffffffffffffffffffffffffffffff161561108b576040517f08c379a00000000000000000000000000000000000000000000000000000000081526004016104d8906141d0565b6000611095610ecd565b905060016110aa60058363ffffffff612a3e16565b60028111156110b557fe5b146110ec576040517f08c379a00000000000000000000000000000000000000000000000000000000081526004016104d890613d84565b60006110ff60058363ffffffff6126fb16565b9050600061110d878761276f565b600083815260028201602090815260408083203384529182905290912080549293509091611167576040517f08c379a00000000000000000000000000000000000000000000000000000000081526004016104d890614088565b80600001548787338b888e60405160200161118796959493929190613a71565b60405160208183030381529060405280519060200120146111d4576040517f08c379a00000000000000000000000000000000000000000000000000000000081526004016104d890613cb9565b600084815260026020526040902054611219576040517f08c379a00000000000000000000000000000000000000000000000000000000081526004016104d890614207565b600084815260026020526040812054908255611233613585565b6040805160208101918290526009547f4ee2cd7e0000000000000000000000000000000000000000000000000000000090925290819073ffffffffffffffffffffffffffffffffffffffff16634ee2cd7e611292338760248601613adf565b60206040518083038186803b1580156112aa57600080fd5b505afa1580156112be573d6000803e3d6000fd5b505050506040513d601f19601f820116820180604052508101906112e291906139f0565b8152509050886040516020016112f89190613bef565b604080517fffffffffffffffffffffffffffffffffffffffffffffffffffffffffffffffe0818403018152919052805160209091012060018085019190915561134a9085018a8363ffffffff612d6316565b8a863373ffffffffffffffffffffffffffffffffffffffff167fd04931ad32b4f942a0f169443ebd7f85a7d42c8b4310b4792243a065348836078d8d866000015160405161139a93929190614306565b60405180910390a45050505050505050505050565b60006113bc610fd2610ecd565b905090565b60005b818110156114345761142c8383838181106113db57fe5b905060800201600001358484848181106113f157fe5b9050608002016020013585858581811061140757fe5b9050608002016040013586868681811061141d57fe5b9050608002016060013561103b565b6001016113c4565b505050565b600b5473ffffffffffffffffffffffffffffffffffffffff16156114ad57600b5473ffffffffffffffffffffffffffffffffffffffff1633146114a8576040517f08c379a00000000000000000000000000000000000000000000000000000000081526004016104d8906142ac565b611651565b600a546040517faafd5e4000000000000000000000000000000000000000000000000000000000815260009173ffffffffffffffffffffffffffffffffffffffff169063aafd5e4090611524907f526567697374727900000000000000000000000000000000000000000000000090600401613bef565b60206040518083038186803b15801561153c57600080fd5b505afa158015611550573d6000803e3d6000fd5b505050506040513d601f19601f820116820180604052508101906115749190613684565b6040517ff9f6b49b00000000000000000000000000000000000000000000000000000000815290915073ffffffffffffffffffffffffffffffffffffffff82169063f9f6b49b906115c9903390600401613abe565b60206040518083038186803b1580156115e157600080fd5b505afa1580156115f5573d6000803e3d6000fd5b505050506040513d601f19601f8201168201806040525081019061161991906137f4565b61164f576040517f08c379a00000000000000000000000000000000000000000000000000000000081526004016104d890614162565b505b600061165b610ecd565b905080821115611697576040517f08c379a00000000000000000000000000000000000000000000000000000000081526004016104d8906140bf565b61169f612e2a565b73ffffffffffffffffffffffffffffffffffffffff166390978d1b846040518263ffffffff1660e01b81526004016116d79190613bef565b60206040518083038186803b1580156116ef57600080fd5b505afa158015611703573d6000803e3d6000fd5b505050506040513d601f19601f8201168201806040525081019061172791906137f4565b61175d576040517f08c379a00000000000000000000000000000000000000000000000000000000081526004016104d890613ee3565b60006117698484612ef1565b600081815260036020526040812091925061178b60058563ffffffff6126fb16565b905060006117998383612f24565b905060008160038111156117a957fe5b14156118835760006117c283600163ffffffff612fb116565b604080516080810182528a815260208082018b8152828401858152600480546060860190815260008d815260039586905287812096518755935160018088019190915592519486019490945592519383019390935581549283018255527f8a35acfbc15ff81a39ae7d344fd709f28e8600b4aa8c65c6b64bfe7fe36bd19b0187905551909150889082907f5d80f93c41e95cacea0b9ce9bb825092d709fa503a70bb26ea3f536bf16946bd90611879908b90613bef565b60405180910390a3505b50505050505050565b60005b81811015611434578282828181106118a357fe5b90506020028101906118b591906143a3565b6118c3906060810190614337565b1515905061193b576119368383838181106118da57fe5b90506020028101906118ec91906143a3565b358484848181106118f957fe5b905060200281019061190b91906143a3565b6020013585858581811061191b57fe5b905060200281019061192d91906143a3565b604001356123a7565b611a07565b611a0783838381811061194a57fe5b905060200281019061195c91906143a3565b3584848481811061196957fe5b905060200281019061197b91906143a3565b6020013585858581811061198b57fe5b905060200281019061199d91906143a3565b604001358686868181106119ad57fe5b90506020028101906119bf91906143a3565b6119cd906060810190614337565b8080601f016020809104026020016040519081016040528093929190818152602001838380828437600092019190915250610fba92505050565b60010161188f565b611a17612d48565b60015473ffffffffffffffffffffffffffffffffffffffff908116911614611a6b576040517f08c379a00000000000000000000000000000000000000000000000000000000081526004016104d890613f77565b60015460405160009173ffffffffffffffffffffffffffffffffffffffff16907f8be0079c531659141344cd1fd0a4f28419497f9722a3daafe3b4186f6b6457e0908390a3600180547fffffffffffffffffffffffff0000000000000000000000000000000000000000169055565b60055481565b60006113bc611aed610ecd565b60059063ffffffff612a3e16565b60606000611b07610ecd565b90506000611b1c60058363ffffffff6126fb16565b90506060600480549050604051908082528060200260200182016040528015611b5f57816020015b611b4c613598565b815260200190600190039081611b445790505b5090506000805b600454811015611c0a5760006003600060048481548110611b8357fe5b90600052602060002001548152602001908152602001600020905060016003811115611bab57fe5b611bb58287612f24565b6003811115611bc057fe5b1415611c01576040518060400160405280826000015481526020018260010154815250848481518110611bef57fe5b60209081029190910101526001909201915b50600101611b66565b50606081604051908082528060200260200182016040528015611c4757816020015b611c34613598565b815260200190600190039081611c2c5790505b50905060005b82811015611c8857838181518110611c6157fe5b6020026020010151828281518110611c7557fe5b6020908102919091010152600101611c4d565b5094505050505090565b611c9a612d48565b60015473ffffffffffffffffffffffffffffffffffffffff908116911614611cee576040517f08c379a00000000000000000000000000000000000000000000000000000000081526004016104d890613f77565b51600755565b6060808251604051908082528060200260200182016040528015611d3257816020015b611d1f613598565b815260200190600190039081611d175790505b5090506000611d42610fd2610ecd565b905060005b8451811015611e1f576000611d79868381518110611d6157fe5b60200260200101516000015187848151811061073e57fe5b90506000611d878285612f24565b90506001816003811115611d9757fe5b1415611dbf5783858481518110611daa57fe5b60200260200101516020018181525050611de1565b8160030154858481518110611dd057fe5b602002602001015160200181815250505b80858481518110611dee57fe5b6020026020010151600001906003811115611e0557fe5b90816003811115611e1257fe5b9052505050600101611d47565b50909150505b919050565b611e32612d48565b60015473ffffffffffffffffffffffffffffffffffffffff908116911614611e86576040517f08c379a00000000000000000000000000000000000000000000000000000000081526004016104d890613f77565b600855565b6002602081815260009283526040928390208054845180840186526001830154815285519384019095529281015482526003015491929184565b60015473ffffffffffffffffffffffffffffffffffffffff1690565b600b5460009073ffffffffffffffffffffffffffffffffffffffff1615611f5857600b5473ffffffffffffffffffffffffffffffffffffffff163314611f53576040517f08c379a00000000000000000000000000000000000000000000000000000000081526004016104d8906142ac565b6120fc565b600a546040517faafd5e4000000000000000000000000000000000000000000000000000000000815260009173ffffffffffffffffffffffffffffffffffffffff169063aafd5e4090611fcf907f526567697374727900000000000000000000000000000000000000000000000090600401613bef565b60206040518083038186803b158015611fe757600080fd5b505afa158015611ffb573d6000803e3d6000fd5b505050506040513d601f19601f8201168201806040525081019061201f9190613684565b6040517ff9f6b49b00000000000000000000000000000000000000000000000000000000815290915073ffffffffffffffffffffffffffffffffffffffff82169063f9f6b49b90612074903390600401613abe565b60206040518083038186803b15801561208c57600080fd5b505afa1580156120a0573d6000803e3d6000fd5b505050506040513d601f19601f820116820180604052508101906120c491906137f4565b6120fa576040517f08c379a00000000000000000000000000000000000000000000000000000000081526004016104d890614162565b505b60006121088484612ff0565b5090925050505b92915050565b60095473ffffffffffffffffffffffffffffffffffffffff1681565b600c5481565b60065481565b600b5460009073ffffffffffffffffffffffffffffffffffffffff16156121b457600b5473ffffffffffffffffffffffffffffffffffffffff1633146121af576040517f08c379a00000000000000000000000000000000000000000000000000000000081526004016104d8906142ac565b612358565b600a546040517faafd5e4000000000000000000000000000000000000000000000000000000000815260009173ffffffffffffffffffffffffffffffffffffffff169063aafd5e409061222b907f526567697374727900000000000000000000000000000000000000000000000090600401613bef565b60206040518083038186803b15801561224357600080fd5b505afa158015612257573d6000803e3d6000fd5b505050506040513d601f19601f8201168201806040525081019061227b9190613684565b6040517ff9f6b49b00000000000000000000000000000000000000000000000000000000815290915073ffffffffffffffffffffffffffffffffffffffff82169063f9f6b49b906122d0903390600401613abe565b60206040518083038186803b1580156122e857600080fd5b505afa1580156122fc573d6000803e3d6000fd5b505050506040513d601f19601f8201168201806040525081019061232091906137f4565b612356576040517f08c379a00000000000000000000000000000000000000000000000000000000081526004016104d890614162565b505b60008060606123678686612ff0565b925092509250828190612108576040517f08c379a00000000000000000000000000000000000000000000000000000000081526004016104d89190613c38565b600b5473ffffffffffffffffffffffffffffffffffffffff16156123f7576040517f08c379a00000000000000000000000000000000000000000000000000000000081526004016104d8906141d0565b8061242e576040517f08c379a00000000000000000000000000000000000000000000000000000000081526004016104d890614051565b6000612438610ecd565b9050600061244d60058363ffffffff612a3e16565b600281111561245857fe5b1461248f576040517f08c379a00000000000000000000000000000000000000000000000000000000081526004016104d890614199565b60006124a260058363ffffffff6126fb16565b905060006124b0868661276f565b905060016124be8284612f24565b60038111156124c957fe5b14612500576040517f08c379a00000000000000000000000000000000000000000000000000000000081526004016104d890613fac565b600381018290556000828152600282016020908152604080832033808552928190529281902087905551889185917f879c67d036f174a10ea491cf7281d05af9b906660b4f26727d866aec0cf9147c9061255b908b90613bef565b60405180910390a450505050505050565b606060048054806020026020016040519081016040528092919081815260200182805480156125ba57602002820191906000526020600020905b8154815260200190600101908083116125a6575b5050505050905090565b6125cc612d48565b60015473ffffffffffffffffffffffffffffffffffffffff908116911614612620576040517f08c379a00000000000000000000000000000000000000000000000000000000081526004016104d890613f77565b73ffffffffffffffffffffffffffffffffffffffff811661266d576040517f08c379a00000000000000000000000000000000000000000000000000000000081526004016104d890613cf0565b60015460405173ffffffffffffffffffffffffffffffffffffffff8084169216907f8be0079c531659141344cd1fd0a4f28419497f9722a3daafe3b4186f6b6457e090600090a3600180547fffffffffffffffffffffffff00000000000000000000000000000000000000001673ffffffffffffffffffffffffffffffffffffffff92909216919091179055565b60008061271260025b85549063ffffffff61317c16565b9050612724838263ffffffff6131d016565b949350505050565b612734613585565b6040805160208101909152825184518291670de0b6b3a76400009161275e9163ffffffff61317c16565b8161276557fe5b0490529392505050565b60006003600061277f8585612ef1565b8152602001908152602001600020905092915050565b60048201547fffffffffffffffffffffffffffffffffffffffffffffffffffffffffffffffff14156127c65761294d565b6000806127e96127d98560030154613212565b600185019063ffffffff61334e16565b9150915081612824576040517f08c379a00000000000000000000000000000000000000000000000000000000081526004016104d89061412d565b600480547fffffffffffffffffffffffffffffffffffffffffffffffffffffffffffffffff81019160009160039183918590811061285e57fe5b906000526020600020015481526020019081526020016000209050856004015481600401819055506004828154811061289357fe5b906000526020600020015460048760040154815481106128af57fe5b60009182526020909120015560048054806128c657fe5b60008281526020812082017fffffffffffffffffffffffffffffffffffffffffffffffffffffffffffffffff9081019190915590810190915560048701558554600387015460018801546040517f67565e6a3e804c4e180134cb2885e32142229de3ca125701318af11658ee498891612940918890613bf8565b60405180910390a3505050505b5050565b600082600201546040516020016129689190613bef565b604051602081830303815290604052805190602001208214905092915050565b612990613585565b50600281015460009081526020918252604090819020815192830190915254815290565b6129bc613585565b60408051602081019091528251845182916129f5916129e990670de0b6b3a764000063ffffffff61317c16565b9063ffffffff6131d016565b90529392505050565b612a06613585565b60408051602081019091528251845182916129f5919063ffffffff612fb116565b6000612a3282613412565b51835111905092915050565b6000612a6460028454612a5890859063ffffffff6131d016565b9063ffffffff61344616565b6002811115612a6f57fe5b9392505050565b60008151604114612ab3576040517f08c379a00000000000000000000000000000000000000000000000000000000081526004016104d890613c82565b60208201516040830151606084015160001a7f7fffffffffffffffffffffffffffffff5d576e7357a4501ddfe92f46681b20a0821115612b1f576040517f08c379a00000000000000000000000000000000000000000000000000000000081526004016104d890613dbb565b8060ff16601b14158015612b3757508060ff16601c14155b15612b6e576040517f08c379a00000000000000000000000000000000000000000000000000000000081526004016104d890613e86565b600060018783868660405160008152602001604052604051612b939493929190613c06565b6020604051602081039080840390855afa158015612bb5573d6000803e3d6000fd5b50506040517fffffffffffffffffffffffffffffffffffffffffffffffffffffffffffffffe0015191505073ffffffffffffffffffffffffffffffffffffffff8116612c2d576040517f08c379a00000000000000000000000000000000000000000000000000000000081526004016104d890613c4b565b9695505050505050565b6000818152600260205260409020805461294d57600960009054906101000a900473ffffffffffffffffffffffffffffffffffffffff1673ffffffffffffffffffffffffffffffffffffffff16639711715a6040518163ffffffff1660e01b8152600401602060405180830381600087803b158015612cb557600080fd5b505af1158015612cc9573d6000803e3d6000fd5b505050506040513d601f19601f82011682018060405250810190612ced91906139f0565b815560008281526002602081905260409091206007546001820155600654910155600854612d3290612d2660058563ffffffff61348816565b9063ffffffff612fb116565b6000838152600260205260409020600301555050565b3390565b6000612d5782613412565b51835110905092915050565b604080516020810190915260018401548152612d85908263ffffffff6129fe16565b51600184015560008281526020848152604091829020825191820190925290548152612db7908263ffffffff6129fe16565b60008381526020859052604090209051905560028301548214801590612e1b575060028301546000908152602084815260408083208151808401835290548152858452868352928190208151928301909152548152612e1b9163ffffffff6134b816565b15611434575060029190910155565b600a546040517faafd5e4000000000000000000000000000000000000000000000000000000000815260009173ffffffffffffffffffffffffffffffffffffffff169063aafd5e4090612ea1907f4964656e74696669657257686974656c6973740000000000000000000000000090600401613bef565b60206040518083038186803b158015612eb957600080fd5b505afa158015612ecd573d6000803e3d6000fd5b505050506040513d601f19601f820116820180604052508101906113bc9190613684565b60008282604051602001612f06929190613bf8565b60405160208183030381529060405280519060200120905092915050565b6000826003015460001415612f3b5750600061210f565b8183600301541015612f955760038301546000818152600285016020526040812091612f7a90612f6a90613212565b600184019063ffffffff61334e16565b50905080612f89576001612f8c565b60025b9250505061210f565b8183600301541415612fa95750600161210f565b50600361210f565b600082820183811015612a6f576040517f08c379a00000000000000000000000000000000000000000000000000000000081526004016104d890613d4d565b60008060606000613001868661276f565b90506000613010610fd2610ecd565b9050600061301e8383612f24565b9050600181600381111561302e57fe5b141561307a57505060408051808201909152601e81527f43757272656e7420766f74696e6720726f756e64206e6f7420656e646564000060208201526000945084935091506131759050565b600281600381111561308857fe5b14156130d557600383015460008181526002850160205260408120916130b190612f6a90613212565b60408051602081019091526000815260019a50909850965061317595505050505050565b60038160038111156130e357fe5b141561312f57505060408051808201909152601d81527f5072696365206973207374696c6c20746f20626520766f746564206f6e00000060208201526000945084935091506131759050565b505060408051808201909152601981527f507269636520776173206e65766572207265717565737465640000000000000060208201526000945084935091506131759050565b9250925092565b60008261318b5750600061210f565b8282028284828161319857fe5b0414612a6f576040517f08c379a00000000000000000000000000000000000000000000000000000000081526004016104d890613f1a565b6000612a6f83836040518060400160405280601a81526020017f536166654d6174683a206469766973696f6e206279207a65726f0000000000008152506134bf565b61321a613585565b6000828152600260205260409020548061326357505060408051602081019091527fffffffffffffffffffffffffffffffffffffffffffffffffffffffffffffffff8152611e25565b61326b613585565b6040805160208101918290526009547f981b24d00000000000000000000000000000000000000000000000000000000090925290819073ffffffffffffffffffffffffffffffffffffffff1663981b24d06132c98660248501613bef565b60206040518083038186803b1580156132e157600080fd5b505afa1580156132f5573d6000803e3d6000fd5b505050506040513d601f19601f8201168201806040525081019061331991906139f0565b90526000858152600260208181526040928390208351918201909352910154815290915061272490829063ffffffff61272c16565b600080613359613585565b61337460646133686032613412565b9063ffffffff61351016565b604080516020810190915260018701548152909150613399908563ffffffff6134b816565b80156133f05750604080516020808201835260018801548252600288015460009081528882528390208351918201909352915482526133f09183916133e4919063ffffffff6129b416565b9063ffffffff6134b816565b1561340557600192508460020154915061340a565b600092505b509250929050565b61341a613585565b60408051602081019091528061343e84670de0b6b3a764000063ffffffff61317c16565b905292915050565b6000612a6f83836040518060400160405280601881526020017f536166654d6174683a206d6f64756c6f206279207a65726f0000000000000000815250613537565b6000806134956002612704565b90506127246134ab84600163ffffffff612fb116565b829063ffffffff61317c16565b5190511190565b600081836134fa576040517f08c379a00000000000000000000000000000000000000000000000000000000081526004016104d89190613c38565b50600083858161350657fe5b0495945050505050565b613518613585565b6040805160208101909152835181906129f5908563ffffffff6131d016565b60008183613572576040517f08c379a00000000000000000000000000000000000000000000000000000000081526004016104d89190613c38565b5082848161357c57fe5b06949350505050565b6040518060200160405280600081525090565b604080518082019091526000808252602082015290565b600082601f8301126135bf578081fd5b813567ffffffffffffffff8111156135d5578182fd5b60206135e481828402016143e0565b828152925080830184820160408085028701840188101561360457600080fd5b60005b8581101561362b576136198984613637565b84529284019291810191600101613607565b50505050505092915050565b600060408284031215613648578081fd5b61365260406143e0565b9050813581526020820135602082015292915050565b600060208284031215613679578081fd5b8135612a6f81614413565b600060208284031215613695578081fd5b8151612a6f81614413565b6000806000606084860312156136b4578182fd5b83356136bf81614413565b925060208401359150604084013567ffffffffffffffff8111156136e1578182fd5b6136ed868287016135af565b9150509250925092565b60008060208385031215613709578182fd5b823567ffffffffffffffff80821115613720578384fd5b81850186601f820112613731578485fd5b8035925081831115613741578485fd5b8660208085028301011115613754578485fd5b60200196919550909350505050565b600060208284031215613774578081fd5b813567ffffffffffffffff81111561378a578182fd5b612724848285016135af565b600080602083850312156137a8578182fd5b823567ffffffffffffffff808211156137bf578384fd5b81850186601f8201126137d0578485fd5b80359250818311156137e0578485fd5b866020608085028301011115613754578485fd5b600060208284031215613805578081fd5b81518015158114612a6f578182fd5b60008060408385031215613826578182fd5b50508035926020909101359150565b600080600060608486031215613849578283fd5b505081359360208301359350604090920135919050565b60008060008060808587031215613875578081fd5b843593506020850135925060408501359150606085013567ffffffffffffffff808211156138a1578283fd5b81870188601f8201126138b2578384fd5b80359250818311156138c2578384fd5b6138f360207fffffffffffffffffffffffffffffffffffffffffffffffffffffffffffffffe0601f860116016143e0565b9150828252886020848301011115613909578384fd5b61391a836020840160208401614407565b5094979396509194505050565b6000806000806080858703121561393c578182fd5b5050823594602084013594506040840135936060013592509050565b6000806020838503121561396a578182fd5b823567ffffffffffffffff80821115613981578384fd5b81850186601f820112613992578485fd5b80359250818311156139a2578485fd5b866020848301011115613754578485fd5b6000602082840312156139c4578081fd5b6139ce60206143e0565b9135825250919050565b6000602082840312156139e9578081fd5b5035919050565b600060208284031215613a01578081fd5b5051919050565b60008151808452815b81811015613a2d57602081850181015186830182015201613a11565b81811115613a3e5782602083870101525b50601f017fffffffffffffffffffffffffffffffffffffffffffffffffffffffffffffffe0169290920160200192915050565b958652602086019490945260609290921b7fffffffffffffffffffffffffffffffffffffffff00000000000000000000000016604085015260548401526074830152609482015260b40190565b73ffffffffffffffffffffffffffffffffffffffff91909116815260200190565b73ffffffffffffffffffffffffffffffffffffffff929092168252602082015260400190565b6020808252825182820181905260009190848201906040850190845b81811015613b3d57835183529284019291840191600101613b21565b50909695505050505050565b602080825282518282018190526000919060409081850190868401855b82811015613b8b57815180518552860151868501529284019290850190600101613b66565b5091979650505050505050565b602080825282518282018190526000919060409081850190868401855b82811015613b8b578151805160048110613bcb57fe5b8552860151868501529284019290850190600101613bb5565b901515815260200190565b90815260200190565b918252602082015260400190565b93845260ff9290921660208401526040830152606082015260800190565b6020810160038310613c3257fe5b91905290565b600060208252612a6f6020830184613a08565b60208082526018908201527f45434453413a20696e76616c6964207369676e61747572650000000000000000604082015260600190565b6020808252601f908201527f45434453413a20696e76616c6964207369676e6174757265206c656e67746800604082015260600190565b6020808252601c908201527f52657665616c6564206461746120213d20636f6d6d6974206861736800000000604082015260600190565b60208082526026908201527f4f776e61626c653a206e6577206f776e657220697320746865207a65726f206160408201527f6464726573730000000000000000000000000000000000000000000000000000606082015260800190565b6020808252601b908201527f536166654d6174683a206164646974696f6e206f766572666c6f770000000000604082015260600190565b6020808252601d908201527f43616e6e6f742072657665616c20696e20636f6d6d6974207068617365000000604082015260600190565b60208082526022908201527f45434453413a20696e76616c6964207369676e6174757265202773272076616c60408201527f7565000000000000000000000000000000000000000000000000000000000000606082015260800190565b6020808252601b908201527f43616e206f6e6c792063616c6c2066726f6d206d696772617465640000000000604082015260600190565b6020808252600f908201527f496e76616c696420726f756e6449640000000000000000000000000000000000604082015260600190565b60208082526022908201527f45434453413a20696e76616c6964207369676e6174757265202776272076616c60408201527f7565000000000000000000000000000000000000000000000000000000000000606082015260800190565b6020808252601e908201527f556e737570706f72746564206964656e74696669657220726571756573740000604082015260600190565b60208082526021908201527f536166654d6174683a206d756c7469706c69636174696f6e206f766572666c6f60408201527f7700000000000000000000000000000000000000000000000000000000000000606082015260800190565b6020808252818101527f4f776e61626c653a2063616c6c6572206973206e6f7420746865206f776e6572604082015260600190565b6020808252601e908201527f43616e6e6f7420636f6d6d697420696e61637469766520726571756573740000604082015260600190565b6020808252601b908201527f5369676e6174757265206d757374206d617463682073656e6465720000000000604082015260600190565b6020808252601c908201527f566f74696e6720746f6b656e2069737375616e6365206661696c656400000000604082015260600190565b60208082526015908201527f496e76616c69642070726f766964656420686173680000000000000000000000604082015260600190565b60208082526013908201527f496e76616c696420686173682072657665616c00000000000000000000000000604082015260600190565b60208082526018908201527f43616e206f6e6c79207265717565737420696e20706173740000000000000000604082015260600190565b6020808252601d908201527f4741542070657263656e74616765206d757374206265203c2031303025000000604082015260600190565b6020808252818101527f43616e2774207265736f6c766520756e7265736f6c7665642072657175657374604082015260600190565b60208082526019908201527f43616c6c6564206d757374206265207265676973746572656400000000000000604082015260600190565b6020808252601d908201527f43616e6e6f7420636f6d6d697420696e2072657665616c207068617365000000604082015260600190565b6020808252601e908201527f4f6e6c792063616c6c2074686973206966206e6f74206d696772617465640000604082015260600190565b60208082526015908201527f526f756e6420686173206e6f20736e617073686f740000000000000000000000604082015260600190565b6020808252601d908201527f526574726965766520666f7220766f7465732073616d6520726f756e64000000604082015260600190565b6020808252601d908201527f4f6e6c7920736e617073686f7420696e2072657665616c207068617365000000604082015260600190565b6020808252601f908201527f43616c6c6572206d757374206265206d69677261746564206164647265737300604082015260600190565b9051815260200190565b6000838252604060208301526127246040830184613a08565b9283526020830191909152604082015260600190565b93845291516020840152516040830152606082015260800190565b60008083357fffffffffffffffffffffffffffffffffffffffffffffffffffffffffffffffe184360301811261436b578283fd5b8084018035925067ffffffffffffffff831115614386578384fd5b6020019250503681900382131561439c57600080fd5b9250929050565b600082357fffffffffffffffffffffffffffffffffffffffffffffffffffffffffffffff818336030181126143d6578182fd5b9190910192915050565b60405181810167ffffffffffffffff811182821017156143ff57600080fd5b604052919050565b82818337506000910152565b73ffffffffffffffffffffffffffffffffffffffff8116811461443557600080fd5b50565b60008160405160200161444b9190614491565b604051602081830303815290604052805190602001209050919050565b6000811161447557600080fd5b9055565b600061448482613412565b5183511115905092915050565b7f19457468657265756d205369676e6564204d6573736167653a0a3332000000008152601c810191909152603c019056fea2646970667358221220ed3568378f592d080d78e1c1133c83d107b6b0af274f8ae941c5ecb035f2105464736f6c63430006040033",
  "source": "pragma solidity ^0.6.0;\n\npragma experimental ABIEncoderV2;\n\nimport \"../Voting.sol\";\nimport \"../../../common/implementation/FixedPoint.sol\";\n\n\n// Test contract used to access internal variables in the Voting contract.\ncontract VotingTest is Voting {\n    constructor(\n        uint256 _phaseLength,\n        FixedPoint.Unsigned memory _gatPercentage,\n        FixedPoint.Unsigned memory _inflationRate,\n        uint256 _rewardsExpirationTimeout,\n        address _votingToken,\n        address _finder,\n        address _timerAddress\n    )\n        public\n        Voting(\n            _phaseLength,\n            _gatPercentage,\n            _inflationRate,\n            _rewardsExpirationTimeout,\n            _votingToken,\n            _finder,\n            _timerAddress\n        )\n    {}\n\n    function getPendingPriceRequestsArray() external view returns (bytes32[] memory) {\n        return pendingPriceRequests;\n    }\n}\n",
  "sourcePath": "/home/alessandrovm/JarvisLavoro/SynFiat/packages/contracts/contracts/uma-contracts/oracle/implementation/test/VotingTest.sol",
  "compiler": {
    "name": "solc",
    "version": "0.6.4+commit.1dca32f3.Emscripten.clang"
  },
  "schemaVersion": "3.2.0",
  "updatedAt": "2020-09-17T18:56:02.271Z",
  "devdoc": {
    "methods": {
      "batchCommit((bytes32,uint256,bytes32,bytes)[])": {
        "details": "Using `encryptedVote` is optional. If included then commitment is emitted in an event. Look at `project-root/common/Constants.js` for the tested maximum number of commitments that can fit in one transaction.",
        "params": {
          "commits": "struct to encapsulate an `identifier`, `time`, `hash` and optional `encryptedVote`."
        }
      },
      "batchReveal((bytes32,uint256,int256,int256)[])": {
        "details": "For more information on reveals, review the comment for `revealVote`.",
        "params": {
          "reveals": "array of the Reveal struct which contains an identifier, time, price and salt."
        }
      },
      "commitAndEmitEncryptedVote(bytes32,uint256,bytes32,bytes)": {
        "details": "An encrypted version of the vote is emitted in an event `EncryptedVote` to allow off-chain infrastructure to retrieve the commit. The contents of `encryptedVote` are never used on chain: it is purely for convenience.",
        "params": {
          "encryptedVote": "offchain encrypted blob containing the voters amount, time and salt.",
          "hash": "keccak256 hash of the price you want to vote for and a `int256 salt`.",
          "identifier": "unique price pair identifier. Eg: BTC/USD price pair.",
          "time": "unix timestamp of for the price request."
        }
      },
      "commitVote(bytes32,uint256,bytes32)": {
        "details": "`identifier`, `time` must correspond to a price request that's currently in the commit phase. Commits can be changed.Since transaction data is public, the salt will be revealed with the vote. While this is the systems expected behavior, voters should never reuse salts. If someone else is able to guess the voted price and knows that a salt will be reused, then they can determine the vote pre-reveal.",
        "params": {
          "hash": "keccak256 hash of the `price`, `salt`, voter `address`, `time`, current `roundId`, and `identifier`.",
          "identifier": "uniquely identifies the committed vote. EG BTC/USD price pair.",
          "time": "unix timestamp of the price being voted on."
        }
      },
      "getPrice(bytes32,uint256)": {
        "details": "If the price is not available, the method reverts.",
        "params": {
          "identifier": "uniquely identifies the price requested. eg BTC/USD (encoded as bytes32) could be requested.",
          "time": "unix timestamp of for the price request."
        },
        "returns": {
          "_0": "int256 representing the resolved price for the given identifier and timestamp."
        }
      },
      "getPriceRequestStatuses((bytes32,uint256)[])": {
        "details": "If the status for a particular request is NotRequested, the lastVotingRound will always be 0.",
        "params": {
          "requests": "array of type PendingRequest which includes an identifier and timestamp for each request."
        },
        "returns": {
          "_0": "requestStates a list, in the same order as the input list, giving the status of each of the specified price requests."
        }
      },
      "hasPrice(bytes32,uint256)": {
        "details": "Time must be in the past and the identifier must be supported.",
        "params": {
          "identifier": "uniquely identifies the price requested. eg BTC/USD (encoded as bytes32) could be requested.",
          "time": "unix timestamp of for the price request."
        },
        "returns": {
          "_0": "_hasPrice bool if the DVM has resolved to a price for the given identifier and timestamp."
        }
      },
      "owner()": {
        "details": "Returns the address of the current owner."
      },
      "renounceOwnership()": {
        "details": "Leaves the contract without owner. It will not be possible to call `onlyOwner` functions anymore. Can only be called by the current owner.     * NOTE: Renouncing ownership will leave the contract without an owner, thereby removing any functionality that is only available to the owner."
      },
      "requestPrice(bytes32,uint256)": {
        "details": "Time must be in the past and the identifier must be supported.",
        "params": {
          "identifier": "uniquely identifies the price requested. eg BTC/USD (encoded as bytes32) could be requested.",
          "time": "unix timestamp for the price request."
        }
      },
      "retrieveRewards(address,uint256,(bytes32,uint256)[])": {
        "details": "Can only retrieve rewards if calling for a valid round and if the call is done within the timeout threshold (not expired).",
        "params": {
          "roundId": "the round from which voting rewards will be retrieved from.",
          "toRetrieve": "array of PendingRequests which rewards are retrieved from.",
          "voterAddress": "voter for which rewards will be retrieved. Does not have to be the caller."
        },
        "returns": {
          "totalRewardToIssue": "total amount of rewards returned to the voter."
        }
      },
      "revealVote(bytes32,uint256,int256,int256)": {
        "details": "The revealed `price`, `salt`, `address`, `time`, `roundId`, and `identifier`, must hash to the latest `hash` that `commitVote()` was called with. Only the committer can reveal their vote.",
        "params": {
          "identifier": "voted on in the commit phase. EG BTC/USD price pair.",
          "price": "voted on during the commit phase.",
          "salt": "value used to hide the commitment price during the commit phase.",
          "time": "specifies the unix timestamp of the price being voted on."
        }
      },
      "setCurrentTime(uint256)": {
        "details": "Will revert if not running in test mode.",
        "params": {
          "time": "timestamp to set current Testable time to."
        }
      },
      "setGatPercentage((uint256))": {
        "details": "This method is public because calldata structs are not currently supported by solidity.",
        "params": {
          "newGatPercentage": "sets the next round's Gat percentage."
        }
      },
      "setInflationRate((uint256))": {
        "details": "This method is public because calldata structs are not currently supported by solidity.",
        "params": {
          "newInflationRate": "sets the next round's inflation rate."
        }
      },
      "setMigrated(address)": {
        "details": "Can only be called by the contract owner.",
        "params": {
          "newVotingAddress": "the newly migrated contract address."
        }
      },
      "setRewardsExpirationTimeout(uint256)": {
        "details": "This change only applies to rounds that have not yet begun.",
        "params": {
          "NewRewardsExpirationTimeout": "how long a caller can wait before choosing to withdraw their rewards."
        }
      },
      "snapshotCurrentRound(bytes)": {
        "details": "This function can be called multiple times, but only the first call per round into this function or `revealVote` will create the round snapshot. Any later calls will be a no-op. Will revert unless called during reveal period.",
        "params": {
          "signature": "signature required to prove caller is an EOA to prevent flash loans from being included in the snapshot."
        }
      },
      "transferOwnership(address)": {
        "details": "Transfers ownership of the contract to a new account (`newOwner`). Can only be called by the current owner."
      }
    }
  },
  "userdoc": {
    "methods": {
      "batchCommit((bytes32,uint256,bytes32,bytes)[])": {
        "notice": "Submit a batch of commits in a single transaction."
      },
      "batchReveal((bytes32,uint256,int256,int256)[])": {
        "notice": "Reveal multiple votes in a single transaction. Look at `project-root/common/Constants.js` for the tested maximum number of reveals. that can fit in one transaction."
      },
      "commitAndEmitEncryptedVote(bytes32,uint256,bytes32,bytes)": {
        "notice": "commits a vote and logs an event with a data blob, typically an encrypted version of the vote"
      },
      "commitVote(bytes32,uint256,bytes32)": {
        "notice": "Commit a vote for a price request for `identifier` at `time`."
      },
      "getCurrentRoundId()": {
        "notice": "Returns the current round ID, as a function of the current time."
      },
      "getCurrentTime()": {
        "notice": "Gets the current time. Will return the last time set in `setCurrentTime` if running in test mode. Otherwise, it will return the block timestamp."
      },
      "getPendingRequests()": {
        "notice": "Gets the queries that are being voted on this round."
      },
      "getPrice(bytes32,uint256)": {
        "notice": "Gets the price for `identifier` and `time` if it has already been requested and resolved."
      },
      "getPriceRequestStatuses((bytes32,uint256)[])": {
        "notice": "Gets the status of a list of price requests, identified by their identifier and time."
      },
      "getVotePhase()": {
        "notice": "Returns the current voting phase, as a function of the current time."
      },
      "hasPrice(bytes32,uint256)": {
        "notice": "Whether the price for `identifier` and `time` is available."
      },
      "requestPrice(bytes32,uint256)": {
        "notice": "Enqueues a request (if a request isn't already present) for the given `identifier`, `time` pair."
      },
      "retrieveRewards(address,uint256,(bytes32,uint256)[])": {
        "notice": "Retrieves rewards owed for a set of resolved price requests."
      },
      "revealVote(bytes32,uint256,int256,int256)": {
        "notice": "Reveal a previously committed vote for `identifier` at `time`."
      },
      "setCurrentTime(uint256)": {
        "notice": "Sets the current time."
      },
      "setGatPercentage((uint256))": {
        "notice": "Resets the Gat percentage. Note: this change only applies to rounds that have not yet begun."
      },
      "setInflationRate((uint256))": {
        "notice": "Resets the inflation rate. Note: this change only applies to rounds that have not yet begun."
      },
      "setMigrated(address)": {
        "notice": "Disables this Voting contract in favor of the migrated one."
      },
      "setRewardsExpirationTimeout(uint256)": {
        "notice": "Resets the rewards expiration timeout."
      },
      "snapshotCurrentRound(bytes)": {
        "notice": "Snapshot the current round's token balances and lock in the inflation rate and GAT."
      }
    }
  }
}