{
  "contractName": "VotingToken",
  "abi": [
    {
      "anonymous": false,
      "inputs": [
        {
          "indexed": true,
          "internalType": "address",
          "name": "owner",
          "type": "address"
        },
        {
          "indexed": true,
          "internalType": "address",
          "name": "spender",
          "type": "address"
        },
        {
          "indexed": false,
          "internalType": "uint256",
          "name": "value",
          "type": "uint256"
        }
      ],
      "name": "Approval",
      "type": "event"
    },
    {
      "anonymous": false,
      "inputs": [
        {
          "indexed": false,
          "internalType": "uint256",
          "name": "id",
          "type": "uint256"
        }
      ],
      "name": "Snapshot",
      "type": "event"
    },
    {
      "anonymous": false,
      "inputs": [
        {
          "indexed": true,
          "internalType": "address",
          "name": "from",
          "type": "address"
        },
        {
          "indexed": true,
          "internalType": "address",
          "name": "to",
          "type": "address"
        },
        {
          "indexed": false,
          "internalType": "uint256",
          "name": "value",
          "type": "uint256"
        }
      ],
      "name": "Transfer",
      "type": "event"
    },
    {
      "inputs": [
        {
          "internalType": "uint256",
          "name": "roleId",
          "type": "uint256"
        },
        {
          "internalType": "address",
          "name": "newMember",
          "type": "address"
        }
      ],
      "name": "addMember",
      "outputs": [],
      "stateMutability": "nonpayable",
      "type": "function"
    },
    {
      "inputs": [
        {
          "internalType": "address",
          "name": "owner",
          "type": "address"
        },
        {
          "internalType": "address",
          "name": "spender",
          "type": "address"
        }
      ],
      "name": "allowance",
      "outputs": [
        {
          "internalType": "uint256",
          "name": "",
          "type": "uint256"
        }
      ],
      "stateMutability": "view",
      "type": "function"
    },
    {
      "inputs": [
        {
          "internalType": "address",
          "name": "spender",
          "type": "address"
        },
        {
          "internalType": "uint256",
          "name": "amount",
          "type": "uint256"
        }
      ],
      "name": "approve",
      "outputs": [
        {
          "internalType": "bool",
          "name": "",
          "type": "bool"
        }
      ],
      "stateMutability": "nonpayable",
      "type": "function"
    },
    {
      "inputs": [
        {
          "internalType": "address",
          "name": "account",
          "type": "address"
        }
      ],
      "name": "balanceOf",
      "outputs": [
        {
          "internalType": "uint256",
          "name": "",
          "type": "uint256"
        }
      ],
      "stateMutability": "view",
      "type": "function"
    },
    {
      "inputs": [
        {
          "internalType": "address",
          "name": "account",
          "type": "address"
        },
        {
          "internalType": "uint256",
          "name": "snapshotId",
          "type": "uint256"
        }
      ],
      "name": "balanceOfAt",
      "outputs": [
        {
          "internalType": "uint256",
          "name": "",
          "type": "uint256"
        }
      ],
      "stateMutability": "view",
      "type": "function"
    },
    {
      "inputs": [
        {
          "internalType": "uint256",
          "name": "value",
          "type": "uint256"
        }
      ],
      "name": "burn",
      "outputs": [],
      "stateMutability": "nonpayable",
      "type": "function"
    },
    {
      "inputs": [],
      "name": "decimals",
      "outputs": [
        {
          "internalType": "uint8",
          "name": "",
          "type": "uint8"
        }
      ],
      "stateMutability": "view",
      "type": "function"
    },
    {
      "inputs": [
        {
          "internalType": "address",
          "name": "spender",
          "type": "address"
        },
        {
          "internalType": "uint256",
          "name": "subtractedValue",
          "type": "uint256"
        }
      ],
      "name": "decreaseAllowance",
      "outputs": [
        {
          "internalType": "bool",
          "name": "",
          "type": "bool"
        }
      ],
      "stateMutability": "nonpayable",
      "type": "function"
    },
    {
      "inputs": [
        {
          "internalType": "uint256",
          "name": "roleId",
          "type": "uint256"
        }
      ],
      "name": "getMember",
      "outputs": [
        {
          "internalType": "address",
          "name": "",
          "type": "address"
        }
      ],
      "stateMutability": "view",
      "type": "function"
    },
    {
      "inputs": [
        {
          "internalType": "uint256",
          "name": "roleId",
          "type": "uint256"
        },
        {
          "internalType": "address",
          "name": "memberToCheck",
          "type": "address"
        }
      ],
      "name": "holdsRole",
      "outputs": [
        {
          "internalType": "bool",
          "name": "",
          "type": "bool"
        }
      ],
      "stateMutability": "view",
      "type": "function"
    },
    {
      "inputs": [
        {
          "internalType": "address",
          "name": "spender",
          "type": "address"
        },
        {
          "internalType": "uint256",
          "name": "addedValue",
          "type": "uint256"
        }
      ],
      "name": "increaseAllowance",
      "outputs": [
        {
          "internalType": "bool",
          "name": "",
          "type": "bool"
        }
      ],
      "stateMutability": "nonpayable",
      "type": "function"
    },
    {
      "inputs": [
        {
          "internalType": "address",
          "name": "recipient",
          "type": "address"
        },
        {
          "internalType": "uint256",
          "name": "value",
          "type": "uint256"
        }
      ],
      "name": "mint",
      "outputs": [
        {
          "internalType": "bool",
          "name": "",
          "type": "bool"
        }
      ],
      "stateMutability": "nonpayable",
      "type": "function"
    },
    {
      "inputs": [],
      "name": "name",
      "outputs": [
        {
          "internalType": "string",
          "name": "",
          "type": "string"
        }
      ],
      "stateMutability": "view",
      "type": "function"
    },
    {
      "inputs": [
        {
          "internalType": "uint256",
          "name": "roleId",
          "type": "uint256"
        },
        {
          "internalType": "address",
          "name": "memberToRemove",
          "type": "address"
        }
      ],
      "name": "removeMember",
      "outputs": [],
      "stateMutability": "nonpayable",
      "type": "function"
    },
    {
      "inputs": [
        {
          "internalType": "uint256",
          "name": "roleId",
          "type": "uint256"
        },
        {
          "internalType": "address",
          "name": "newMember",
          "type": "address"
        }
      ],
      "name": "resetMember",
      "outputs": [],
      "stateMutability": "nonpayable",
      "type": "function"
    },
    {
      "inputs": [],
      "name": "snapshot",
      "outputs": [
        {
          "internalType": "uint256",
          "name": "",
          "type": "uint256"
        }
      ],
      "stateMutability": "nonpayable",
      "type": "function"
    },
    {
      "inputs": [],
      "name": "symbol",
      "outputs": [
        {
          "internalType": "string",
          "name": "",
          "type": "string"
        }
      ],
      "stateMutability": "view",
      "type": "function"
    },
    {
      "inputs": [],
      "name": "totalSupply",
      "outputs": [
        {
          "internalType": "uint256",
          "name": "",
          "type": "uint256"
        }
      ],
      "stateMutability": "view",
      "type": "function"
    },
    {
      "inputs": [
        {
          "internalType": "uint256",
          "name": "snapshotId",
          "type": "uint256"
        }
      ],
      "name": "totalSupplyAt",
      "outputs": [
        {
          "internalType": "uint256",
          "name": "",
          "type": "uint256"
        }
      ],
      "stateMutability": "view",
      "type": "function"
    },
    {
      "inputs": [
        {
          "internalType": "address",
          "name": "recipient",
          "type": "address"
        },
        {
          "internalType": "uint256",
          "name": "amount",
          "type": "uint256"
        }
      ],
      "name": "transfer",
      "outputs": [
        {
          "internalType": "bool",
          "name": "",
          "type": "bool"
        }
      ],
      "stateMutability": "nonpayable",
      "type": "function"
    },
    {
      "inputs": [
        {
          "internalType": "address",
          "name": "sender",
          "type": "address"
        },
        {
          "internalType": "address",
          "name": "recipient",
          "type": "address"
        },
        {
          "internalType": "uint256",
          "name": "amount",
          "type": "uint256"
        }
      ],
      "name": "transferFrom",
      "outputs": [
        {
          "internalType": "bool",
          "name": "",
          "type": "bool"
        }
      ],
      "stateMutability": "nonpayable",
      "type": "function"
    }
  ],
  "bytecode": "0x60806040526200001b600080336001600160e01b036200004a16565b6200003860015b6040805160008082526020820190925262000165565b62000044600262000022565b6200035b565b826000808281526003602052604090206001015460ff1660028111156200006d57fe5b14620000c0576040805162461bcd60e51b815260206004820152601e60248201527f43616e6e6f74207573652061207072652d6578697374696e6720726f6c650000604482015290519081900360640190fd5b60008481526003602052604090206001808201805460ff191682800217905550838155620000fe600282018462000278602090811b620015dd17901c565b60008481526003602052604081206001015460ff1660028111156200011f57fe5b14156200015e5760405162461bcd60e51b815260040180806020018281038252603c81526020018062001bc1603c913960400191505060405180910390fd5b5050505050565b826000808281526003602052604090206001015460ff1660028111156200018857fe5b14620001db576040805162461bcd60e51b815260206004820152601e60248201527f43616e6e6f74207573652061207072652d6578697374696e6720726f6c650000604482015290519081900360640190fd5b600084815260036020818152604090922060018101805460ff191660021790558581559162000218918301908590620015e762000291821b17901c565b60008481526003602052604081206001015460ff1660028111156200023957fe5b14156200015e5760405162461bcd60e51b815260040180806020018281038252603881526020018062001c206038913960400191505060405180910390fd5b6200028d82826001600160e01b03620002d216565b5050565b60005b8151811015620002cd57620002c483838381518110620002b057fe5b60200260200101516200033660201b60201c565b60010162000294565b505050565b6001600160a01b038116620003195760405162461bcd60e51b815260040180806020018281038252602381526020018062001bfd6023913960400191505060405180910390fd5b81546001600160a01b0319166001600160a01b0391909116179055565b6001600160a01b0316600090815260209190915260409020805460ff19166001179055565b611856806200036b6000396000f3fe608060405234801561001057600080fd5b50600436106101475760003560e01c806370a08231116100c8578063981b24d01161008c578063ab3545e511610066578063ab3545e514610449578063d97c05be14610482578063dd62ed3e146104ae57610147565b8063981b24d0146103d4578063a457c2d7146103f1578063a9059cbb1461041d57610147565b806370a082311461034657806374d0a6761461036c5780637cdc1cb91461039857806395d89b41146103c45780639711715a146103cc57610147565b8063395093511161010f578063395093511461027757806340c10f19146102a357806342966c68146102cf5780634ee2cd7e146102ee5780636be7658b1461031a57610147565b806306fdde031461014c578063095ea7b3146101c957806318160ddd1461020957806323b872dd14610223578063313ce56714610259575b600080fd5b6101546104dc565b6040805160208082528351818301528351919283929083019185019080838360005b8381101561018e578181015183820152602001610176565b50505050905090810190601f1680156101bb5780820380516001836020036101000a031916815260200191505b509250505060405180910390f35b6101f5600480360360408110156101df57600080fd5b506001600160a01b038135169060200135610515565b604080519115158252519081900360200190f35b610211610533565b60408051918252519081900360200190f35b6101f56004803603606081101561023957600080fd5b506001600160a01b03813581169160208101359091169060400135610539565b6102616105c6565b6040805160ff9092168252519081900360200190f35b6101f56004803603604081101561028d57600080fd5b506001600160a01b0381351690602001356105cb565b6101f5600480360360408110156102b957600080fd5b506001600160a01b03813516906020013561061f565b6102ec600480360360208110156102e557600080fd5b5035610672565b005b6102116004803603604081101561030457600080fd5b506001600160a01b0381351690602001356106c7565b6102ec6004803603604081101561033057600080fd5b50803590602001356001600160a01b0316610710565b6102116004803603602081101561035c57600080fd5b50356001600160a01b03166107ed565b6102ec6004803603604081101561038257600080fd5b50803590602001356001600160a01b031661080c565b6101f5600480360360408110156103ae57600080fd5b50803590602001356001600160a01b03166108e3565b6101546109a1565b6102116109c0565b610211600480360360208110156103ea57600080fd5b5035610a14565b6101f56004803603604081101561040757600080fd5b506001600160a01b038135169060200135610a44565b6101f56004803603604081101561043357600080fd5b506001600160a01b038135169060200135610ab2565b6104666004803603602081101561045f57600080fd5b5035610ac6565b604080516001600160a01b039092168252519081900360200190f35b6102ec6004803603604081101561049857600080fd5b50803590602001356001600160a01b0316610b48565b610211600480360360408110156104c457600080fd5b506001600160a01b0381358116916020013516610c1e565b6040518060400160405280601381526020017f554d4120566f74696e6720546f6b656e2076310000000000000000000000000081525081565b6000610529610522610c49565b8484610c4d565b5060015b92915050565b60025490565b6000610546848484610d39565b6105bc84610552610c49565b6105b785604051806060016040528060288152602001611723602891396001600160a01b038a16600090815260016020526040812090610590610c49565b6001600160a01b03168152602081019190915260400160002054919063ffffffff610d4916565b610c4d565b5060019392505050565b601281565b60006105296105d8610c49565b846105b785600160006105e9610c49565b6001600160a01b03908116825260208083019390935260409182016000908120918c16815292529020549063ffffffff610de016565b6000600161062d81336108e3565b6106685760405162461bcd60e51b81526004018080602001828103825260228152602001806117016022913960400191505060405180910390fd5b6105bc8484610e3a565b600261067e81336108e3565b6106b95760405162461bcd60e51b81526004018080602001828103825260228152602001806117016022913960400191505060405180910390fd5b6106c33383610e44565b5050565b6001600160a01b0382166000908152600460205260408120819081906106ee908590610e4e565b915091508161070557610700856107ed565b610707565b805b95945050505050565b81600260008281526003602052604090206001015460ff16600281111561073357fe5b1461076f5760405162461bcd60e51b815260040180806020018281038252602c8152602001806116d5602c913960400191505060405180910390fd5b600083815260036020526040902054839061078a90336108e3565b6107c55760405162461bcd60e51b81526004018080602001828103825260248152602001806117d86024913960400191505060405180910390fd5b60008481526003602081905260409091206107e791018463ffffffff610f5816565b50505050565b6001600160a01b0381166000908152602081905260409020545b919050565b81600260008281526003602052604090206001015460ff16600281111561082f57fe5b1461086b5760405162461bcd60e51b815260040180806020018281038252602c8152602001806116d5602c913960400191505060405180910390fd5b600083815260036020526040902054839061088690336108e3565b6108c15760405162461bcd60e51b81526004018080602001828103825260248152602001806117d86024913960400191505060405180910390fd5b60008481526003602081905260409091206107e791018463ffffffff610f7a16565b600082815260036020526040812060018082015460ff16600281111561090557fe5b14156109265761091e600282018463ffffffff610f9f16565b91505061052d565b6002600182015460ff16600281111561093b57fe5b14156109545761091e600382018463ffffffff610fb216565b6040805162461bcd60e51b815260206004820152600e60248201527f496e76616c696420726f6c654964000000000000000000000000000000000000604482015290519081900360640190fd5b60405180604001604052806003815260200162554d4160e81b81525081565b60006109cc6007610fd1565b60006109d86007610fda565b6040805182815290519192507f8030e83b04d87bef53480e26263266d6ca66863aa8506aca6f2559d18aa1cb67919081900360200190a1905090565b6000806000610a24846005610e4e565b9150915081610a3a57610a35610533565b610a3c565b805b949350505050565b6000610529610a51610c49565b846105b7856040518060600160405280602581526020016117fc6025913960016000610a7b610c49565b6001600160a01b03908116825260208083019390935260409182016000908120918d1681529252902054919063ffffffff610d4916565b6000610529610abf610c49565b8484610d39565b600081600160008281526003602052604090206001015460ff166002811115610aeb57fe5b14610b275760405162461bcd60e51b815260040180806020018281038252602f8152602001806116a6602f913960400191505060405180910390fd5b6000838152600360205260409020610b4190600201610fde565b9392505050565b81600160008281526003602052604090206001015460ff166002811115610b6b57fe5b14610ba75760405162461bcd60e51b815260040180806020018281038252602f8152602001806116a6602f913960400191505060405180910390fd5b6000838152600360205260409020548390610bc290336108e3565b610bfd5760405162461bcd60e51b81526004018080602001828103825260248152602001806117d86024913960400191505060405180910390fd5b60008481526003602052604090206107e7906002018463ffffffff610feb16565b6001600160a01b03918216600090815260016020908152604080832093909416825291909152205490565b3390565b6001600160a01b038316610c925760405162461bcd60e51b81526004018080602001828103825260248152602001806117b46024913960400191505060405180910390fd5b6001600160a01b038216610cd75760405162461bcd60e51b815260040180806020018281038252602281526020018061165e6022913960400191505060405180910390fd5b6001600160a01b03808416600081815260016020908152604080832094871680845294825291829020859055815185815291517f8c5be1e5ebec7d5bd14f71427d1e84f3dd0314c0f7b2291e5b200ac8c7c3b9259281900390910190a3505050565b610d4483838361105a565b505050565b60008184841115610dd85760405162461bcd60e51b81526004018080602001828103825283818151815260200191508051906020019080838360005b83811015610d9d578181015183820152602001610d85565b50505050905090810190601f168015610dca5780820380516001836020036101000a031916815260200191505b509250505060405180910390fd5b505050900390565b600082820183811015610b41576040805162461bcd60e51b815260206004820152601b60248201527f536166654d6174683a206164646974696f6e206f766572666c6f770000000000604482015290519081900360640190fd5b6106c38282611077565b6106c38282611092565b60008060008411610ea6576040805162461bcd60e51b815260206004820152601660248201527f4552433230536e617073686f743a206964206973203000000000000000000000604482015290519081900360640190fd5b610eb06007610fda565b841115610f04576040805162461bcd60e51b815260206004820152601d60248201527f4552433230536e617073686f743a206e6f6e6578697374656e74206964000000604482015290519081900360640190fd5b6000610f16848663ffffffff6110ad16565b8454909150811415610f2f575060009150819050610f51565b6001846001018281548110610f4057fe5b906000526020600020015492509250505b9250929050565b6001600160a01b0316600090815260209190915260409020805460ff19169055565b6001600160a01b0316600090815260209190915260409020805460ff19166001179055565b90546001600160a01b0391821691161490565b6001600160a01b03166000908152602091909152604090205460ff1690565b80546001019055565b5490565b546001600160a01b031690565b6001600160a01b0381166110305760405162461bcd60e51b815260040180806020018281038252602381526020018061176c6023913960400191505060405180910390fd5b815473ffffffffffffffffffffffffffffffffffffffff19166001600160a01b0391909116179055565b6110638361114e565b61106c8261114e565b610d4483838361117b565b6110808261114e565b6110886112e2565b6106c382826112f1565b61109b8261114e565b6110a36112e2565b6106c382826113ed565b81546000906110be5750600061052d565b82546000905b8082101561110d5760006110d883836114f5565b9050848682815481106110e757fe5b9060005260206000200154111561110057809150611107565b8060010192505b506110c4565b60008211801561113557508385600184038154811061112857fe5b9060005260206000200154145b15611146575060001901905061052d565b50905061052d565b6001600160a01b038116600090815260046020526040902061117890611173836107ed565b61151a565b50565b6001600160a01b0383166111c05760405162461bcd60e51b815260040180806020018281038252602581526020018061178f6025913960400191505060405180910390fd5b6001600160a01b0382166112055760405162461bcd60e51b81526004018080602001828103825260238152602001806116196023913960400191505060405180910390fd5b611210838383610d44565b61125381604051806060016040528060268152602001611680602691396001600160a01b038616600090815260208190526040902054919063ffffffff610d4916565b6001600160a01b038085166000908152602081905260408082209390935590841681522054611288908263ffffffff610de016565b6001600160a01b038084166000818152602081815260409182902094909455805185815290519193928716927fddf252ad1be2c89b69c2b068fc378daa952ba7f163c4a11628f55a4df523b3ef92918290030190a3505050565b6112ef6005611173610533565b565b6001600160a01b03821661134c576040805162461bcd60e51b815260206004820152601f60248201527f45524332303a206d696e7420746f20746865207a65726f206164647265737300604482015290519081900360640190fd5b61135860008383610d44565b60025461136b908263ffffffff610de016565b6002556001600160a01b038216600090815260208190526040902054611397908263ffffffff610de016565b6001600160a01b0383166000818152602081815260408083209490945583518581529351929391927fddf252ad1be2c89b69c2b068fc378daa952ba7f163c4a11628f55a4df523b3ef9281900390910190a35050565b6001600160a01b0382166114325760405162461bcd60e51b815260040180806020018281038252602181526020018061174b6021913960400191505060405180910390fd5b61143e82600083610d44565b6114818160405180606001604052806022815260200161163c602291396001600160a01b038516600090815260208190526040902054919063ffffffff610d4916565b6001600160a01b0383166000908152602081905260409020556002546114ad908263ffffffff61156616565b6002556040805182815290516000916001600160a01b038516917fddf252ad1be2c89b69c2b068fc378daa952ba7f163c4a11628f55a4df523b3ef9181900360200190a35050565b6000600280830660028506018161150857fe5b04600283046002850401019392505050565b60006115266007610fda565b905080611532846115a8565b1015610d44578254600180820185556000858152602080822090930193909355938401805494850181558252902090910155565b6000610b4183836040518060400160405280601e81526020017f536166654d6174683a207375627472616374696f6e206f766572666c6f770000815250610d49565b80546000906115b957506000610807565b8154829060001981019081106115cb57fe5b90600052602060002001549050610807565b6106c38282610feb565b60005b8151811015610d44576116108383838151811061160357fe5b6020026020010151610f7a565b6001016115ea56fe45524332303a207472616e7366657220746f20746865207a65726f206164647265737345524332303a206275726e20616d6f756e7420657863656564732062616c616e636545524332303a20617070726f766520746f20746865207a65726f206164647265737345524332303a207472616e7366657220616d6f756e7420657863656564732062616c616e63654d7573742062652063616c6c6564206f6e20616e20696e697469616c697a6564204578636c757369766520726f6c654d7573742062652063616c6c6564206f6e20616e20696e697469616c697a65642053686172656420726f6c6553656e64657220646f6573206e6f7420686f6c6420726571756972656420726f6c6545524332303a207472616e7366657220616d6f756e74206578636565647320616c6c6f77616e636545524332303a206275726e2066726f6d20746865207a65726f206164647265737343616e6e6f742073657420616e206578636c757369766520726f6c6520746f2030783045524332303a207472616e736665722066726f6d20746865207a65726f206164647265737345524332303a20617070726f76652066726f6d20746865207a65726f206164647265737343616e206f6e6c792062652063616c6c6564206279206120726f6c65206d616e6167657245524332303a2064656372656173656420616c6c6f77616e63652062656c6f77207a65726fa264697066735822122056c4738af11a9a311fb062c510f46fb84c5b7bf97d8df2a135198b66637e904264736f6c63430006040033417474656d7074656420746f2075736520616e20696e76616c696420726f6c6520746f206d616e61676520616e206578636c757369766520726f6c6543616e6e6f742073657420616e206578636c757369766520726f6c6520746f20307830417474656d7074656420746f2075736520616e20696e76616c696420726f6c6520746f206d616e61676520612073686172656420726f6c65",
  "source": "pragma solidity ^0.6.0;\n\nimport \"../../common/implementation/ExpandedERC20.sol\";\nimport \"@openzeppelin/contracts/drafts/ERC20Snapshot.sol\";\n\n\n/**\n * @title Ownership of this token allows a voter to respond to price requests.\n * @dev Supports snapshotting and allows the Oracle to mint new tokens as rewards.\n */\ncontract VotingToken is ExpandedERC20, ERC20Snapshot {\n    // Standard ERC20 metadata.\n    string public constant name = \"UMA Voting Token v1\"; // solhint-disable-line const-name-snakecase\n    string public constant symbol = \"UMA\"; // solhint-disable-line const-name-snakecase\n    uint8 public constant decimals = 18; // solhint-disable-line const-name-snakecase\n\n    // _transfer, _mint and _burn are ERC20 internal methods that are overridden by ERC20Snapshot,\n    // therefore the compiler will complain that VotingToken must override these methods\n    // because the two base classes (ERC20 and ERC20Snapshot) both define the same functions\n\n    // TODO(#969) Remove once prettier-plugin-solidity can handle the \"override\" keyword\n    // prettier-ignore\n    function _transfer(address from, address to, uint256 value) internal override(ERC20, ERC20Snapshot) {\n        super._transfer(from, to, value);\n    }\n\n    // TODO(#969) Remove once prettier-plugin-solidity can handle the \"override\" keyword\n    // prettier-ignore\n    function _mint(address account, uint256 value) internal override(ERC20, ERC20Snapshot) {\n        super._mint(account, value);\n    }\n\n    // TODO(#969) Remove once prettier-plugin-solidity can handle the \"override\" keyword\n    // prettier-ignore\n    function _burn(address account, uint256 value) internal override(ERC20, ERC20Snapshot) {\n        super._burn(account, value);\n    }\n}\n",
  "sourcePath": "/home/opz/Projects/SynFiat/contracts/uma-contracts/oracle/implementation/VotingToken.sol",
  "compiler": {
    "name": "solc",
    "version": "0.6.4+commit.1dca32f3.Emscripten.clang"
  },
  "schemaVersion": "3.2.0",
  "updatedAt": "2020-06-01T04:24:41.879Z",
  "devdoc": {
    "details": "Supports snapshotting and allows the Oracle to mint new tokens as rewards.",
    "methods": {
      "addMember(uint256,address)": {
        "details": "Reverts if `roleId` does not represent an initialized, shared role or if the caller is not a member of the managing role for `roleId`."
      },
      "allowance(address,address)": {
        "details": "See {IERC20-allowance}."
      },
      "approve(address,uint256)": {
        "details": "See {IERC20-approve}.     * Requirements:     * - `spender` cannot be the zero address."
      },
      "balanceOf(address)": {
        "details": "See {IERC20-balanceOf}."
      },
      "burn(uint256)": {
        "details": "Burns `value` tokens owned by `msg.sender`."
      },
      "decreaseAllowance(address,uint256)": {
        "details": "Atomically decreases the allowance granted to `spender` by the caller.     * This is an alternative to {approve} that can be used as a mitigation for problems described in {IERC20-approve}.     * Emits an {Approval} event indicating the updated allowance.     * Requirements:     * - `spender` cannot be the zero address. - `spender` must have allowance for the caller of at least `subtractedValue`."
      },
      "getMember(uint256)": {
        "details": "Reverts if `roleId` does not represent an initialized, exclusive role."
      },
      "holdsRole(uint256,address)": {
        "details": "Reverts if roleId does not correspond to an initialized role."
      },
      "increaseAllowance(address,uint256)": {
        "details": "Atomically increases the allowance granted to `spender` by the caller.     * This is an alternative to {approve} that can be used as a mitigation for problems described in {IERC20-approve}.     * Emits an {Approval} event indicating the updated allowance.     * Requirements:     * - `spender` cannot be the zero address."
      },
      "mint(address,uint256)": {
        "details": "Mints `value` tokens to `recipient`, returning true on success."
      },
      "removeMember(uint256,address)": {
        "details": "Reverts if `roleId` does not represent an initialized, shared role or if the caller is not a member of the managing role for `roleId`."
      },
      "resetMember(uint256,address)": {
        "details": "Reverts if the caller is not a member of the managing role for `roleId` or if `roleId` is not an initialized, exclusive role."
      },
      "totalSupply()": {
        "details": "See {IERC20-totalSupply}."
      },
      "transfer(address,uint256)": {
        "details": "See {IERC20-transfer}.     * Requirements:     * - `recipient` cannot be the zero address. - the caller must have a balance of at least `amount`."
      },
      "transferFrom(address,address,uint256)": {
        "details": "See {IERC20-transferFrom}.     * Emits an {Approval} event indicating the updated allowance. This is not required by the EIP. See the note at the beginning of {ERC20};     * Requirements: - `sender` and `recipient` cannot be the zero address. - `sender` must have a balance of at least `amount`. - the caller must have allowance for `sender`'s tokens of at least `amount`."
      }
    },
    "title": "Ownership of this token allows a voter to respond to price requests."
  },
  "userdoc": {
    "methods": {
      "addMember(uint256,address)": {
        "notice": "Adds `newMember` to the shared role, `roleId`."
      },
      "getMember(uint256)": {
        "notice": "Gets the current holder of the exclusive role, `roleId`."
      },
      "holdsRole(uint256,address)": {
        "notice": "Whether `memberToCheck` is a member of roleId."
      },
      "removeMember(uint256,address)": {
        "notice": "Removes `memberToRemove` from the shared role, `roleId`."
      },
      "resetMember(uint256,address)": {
        "notice": "Changes the exclusive role holder of `roleId` to `newMember`."
      }
    }
  }
}