{
  "contractName": "Withdrawable",
  "abi": [
    {
      "inputs": [
        {
          "internalType": "uint256",
          "name": "roleId",
          "type": "uint256"
        },
        {
          "internalType": "address",
          "name": "newMember",
          "type": "address"
        }
      ],
      "name": "addMember",
      "outputs": [],
      "stateMutability": "nonpayable",
      "type": "function"
    },
    {
      "inputs": [
        {
          "internalType": "uint256",
          "name": "roleId",
          "type": "uint256"
        }
      ],
      "name": "getMember",
      "outputs": [
        {
          "internalType": "address",
          "name": "",
          "type": "address"
        }
      ],
      "stateMutability": "view",
      "type": "function"
    },
    {
      "inputs": [
        {
          "internalType": "uint256",
          "name": "roleId",
          "type": "uint256"
        },
        {
          "internalType": "address",
          "name": "memberToCheck",
          "type": "address"
        }
      ],
      "name": "holdsRole",
      "outputs": [
        {
          "internalType": "bool",
          "name": "",
          "type": "bool"
        }
      ],
      "stateMutability": "view",
      "type": "function"
    },
    {
      "inputs": [
        {
          "internalType": "uint256",
          "name": "roleId",
          "type": "uint256"
        },
        {
          "internalType": "address",
          "name": "memberToRemove",
          "type": "address"
        }
      ],
      "name": "removeMember",
      "outputs": [],
      "stateMutability": "nonpayable",
      "type": "function"
    },
    {
      "inputs": [
        {
          "internalType": "uint256",
          "name": "roleId",
          "type": "uint256"
        },
        {
          "internalType": "address",
          "name": "newMember",
          "type": "address"
        }
      ],
      "name": "resetMember",
      "outputs": [],
      "stateMutability": "nonpayable",
      "type": "function"
    },
    {
      "inputs": [
        {
          "internalType": "uint256",
          "name": "amount",
          "type": "uint256"
        }
      ],
      "name": "withdraw",
      "outputs": [],
      "stateMutability": "nonpayable",
      "type": "function"
    },
    {
      "inputs": [
        {
          "internalType": "address",
          "name": "erc20Address",
          "type": "address"
        },
        {
          "internalType": "uint256",
          "name": "amount",
          "type": "uint256"
        }
      ],
      "name": "withdrawErc20",
      "outputs": [],
      "stateMutability": "nonpayable",
      "type": "function"
    }
  ],
  "bytecode": "0x608060405234801561001057600080fd5b50610b04806100206000396000f3fe608060405234801561001057600080fd5b506004361061007d5760003560e01c80637cdc1cb91161005b5780637cdc1cb914610113578063ab3545e514610160578063bd1f4b52146101a6578063d97c05be146101df5761007d565b80632e1a7d4d146100825780636be7658b146100a157806374d0a676146100da575b600080fd5b61009f6004803603602081101561009857600080fd5b5035610218565b005b61009f600480360360408110156100b757600080fd5b508035906020013573ffffffffffffffffffffffffffffffffffffffff166102ac565b61009f600480360360408110156100f057600080fd5b508035906020013573ffffffffffffffffffffffffffffffffffffffff166103bc565b61014c6004803603604081101561012957600080fd5b508035906020013573ffffffffffffffffffffffffffffffffffffffff166104c6565b604080519115158252519081900360200190f35b61017d6004803603602081101561017657600080fd5b50356105a4565b6040805173ffffffffffffffffffffffffffffffffffffffff9092168252519081900360200190f35b61009f600480360360408110156101bc57600080fd5b5073ffffffffffffffffffffffffffffffffffffffff8135169060200135610640565b61009f600480360360408110156101f557600080fd5b508035906020013573ffffffffffffffffffffffffffffffffffffffff1661074f565b60015461022581336104c6565b61027a576040517f08c379a0000000000000000000000000000000000000000000000000000000008152600401808060200182810382526022815260200180610a666022913960400191505060405180910390fd5b604051339083156108fc029084906000818181858888f193505050501580156102a7573d6000803e3d6000fd5b505050565b81600260008281526020819052604090206001015460ff1660028111156102cf57fe5b14610325576040517f08c379a000000000000000000000000000000000000000000000000000000000815260040180806020018281038252602c815260200180610a3a602c913960400191505060405180910390fd5b600083815260208190526040902054839061034090336104c6565b610395576040517f08c379a0000000000000000000000000000000000000000000000000000000008152600401808060200182810382526024815260200180610aab6024913960400191505060405180910390fd5b60008481526020819052604090206103b6906003018463ffffffff61085916565b50505050565b81600260008281526020819052604090206001015460ff1660028111156103df57fe5b14610435576040517f08c379a000000000000000000000000000000000000000000000000000000000815260040180806020018281038252602c815260200180610a3a602c913960400191505060405180910390fd5b600083815260208190526040902054839061045090336104c6565b6104a5576040517f08c379a0000000000000000000000000000000000000000000000000000000008152600401808060200182810382526024815260200180610aab6024913960400191505060405180910390fd5b60008481526020819052604090206103b6906003018463ffffffff6108a616565b600082815260208190526040812060018082015460ff1660028111156104e857fe5b141561050957610501600282018463ffffffff6108f616565b91505061059e565b6002600182015460ff16600281111561051e57fe5b141561053757610501600382018463ffffffff61091616565b604080517f08c379a000000000000000000000000000000000000000000000000000000000815260206004820152600e60248201527f496e76616c696420726f6c654964000000000000000000000000000000000000604482015290519081900360640190fd5b92915050565b600081600160008281526020819052604090206001015460ff1660028111156105c957fe5b1461061f576040517f08c379a000000000000000000000000000000000000000000000000000000000815260040180806020018281038252602f815260200180610a0b602f913960400191505060405180910390fd5b600083815260208190526040902061063990600201610942565b9392505050565b60015461064d81336104c6565b6106a2576040517f08c379a0000000000000000000000000000000000000000000000000000000008152600401808060200182810382526022815260200180610a666022913960400191505060405180910390fd5b604080517fa9059cbb000000000000000000000000000000000000000000000000000000008152336004820152602481018490529051849173ffffffffffffffffffffffffffffffffffffffff83169163a9059cbb916044808201926020929091908290030181600087803b15801561071a57600080fd5b505af115801561072e573d6000803e3d6000fd5b505050506040513d602081101561074457600080fd5b50516103b657600080fd5b81600160008281526020819052604090206001015460ff16600281111561077257fe5b146107c8576040517f08c379a000000000000000000000000000000000000000000000000000000000815260040180806020018281038252602f815260200180610a0b602f913960400191505060405180910390fd5b60008381526020819052604090205483906107e390336104c6565b610838576040517f08c379a0000000000000000000000000000000000000000000000000000000008152600401808060200182810382526024815260200180610aab6024913960400191505060405180910390fd5b60008481526020819052604090206103b6906002018463ffffffff61095c16565b73ffffffffffffffffffffffffffffffffffffffff1660009081526020919091526040902080547fffffffffffffffffffffffffffffffffffffffffffffffffffffffffffffff00169055565b73ffffffffffffffffffffffffffffffffffffffff1660009081526020919091526040902080547fffffffffffffffffffffffffffffffffffffffffffffffffffffffffffffff00166001179055565b905473ffffffffffffffffffffffffffffffffffffffff91821691161490565b73ffffffffffffffffffffffffffffffffffffffff166000908152602091909152604090205460ff1690565b5473ffffffffffffffffffffffffffffffffffffffff1690565b73ffffffffffffffffffffffffffffffffffffffff81166109c8576040517f08c379a0000000000000000000000000000000000000000000000000000000008152600401808060200182810382526023815260200180610a886023913960400191505060405180910390fd5b81547fffffffffffffffffffffffff00000000000000000000000000000000000000001673ffffffffffffffffffffffffffffffffffffffff9190911617905556fe4d7573742062652063616c6c6564206f6e20616e20696e697469616c697a6564204578636c757369766520726f6c654d7573742062652063616c6c6564206f6e20616e20696e697469616c697a65642053686172656420726f6c6553656e64657220646f6573206e6f7420686f6c6420726571756972656420726f6c6543616e6e6f742073657420616e206578636c757369766520726f6c6520746f2030783043616e206f6e6c792062652063616c6c6564206279206120726f6c65206d616e61676572a2646970667358221220de260dc0e55785db5af4432cc025f061f558f6df47fea1beddc91b5c3515d0ce64736f6c63430006040033",
  "source": "/**\n * Withdrawable contract.\n */\n\npragma solidity ^0.6.0;\n\nimport \"@openzeppelin/contracts/token/ERC20/IERC20.sol\";\nimport \"./MultiRole.sol\";\n\n\n/**\n * @title Base contract that allows a specific role to withdraw any ETH and/or ERC20 tokens that the contract holds.\n */\ncontract Withdrawable is MultiRole {\n    uint private _roleId;\n\n    /**\n     * @notice Withdraws ETH from the contract.\n     */\n    function withdraw(uint amount) external onlyRoleHolder(_roleId) {\n        msg.sender.transfer(amount);\n    }\n\n    /**\n     * @notice Withdraws ERC20 tokens from the contract.\n     */\n    function withdrawErc20(address erc20Address, uint amount) external onlyRoleHolder(_roleId) {\n        IERC20 erc20 = IERC20(erc20Address);\n        require(erc20.transfer(msg.sender, amount));\n    }\n\n    /**\n     * @notice Internal method that allows derived contracts to create a role for withdrawal.\n     * @dev Either this method or `setWithdrawRole` must be called by the derived class for this contract to function\n     * properly.\n     */\n    function createWithdrawRole(uint roleId, uint managingRoleId, address owner) internal {\n        _roleId = roleId;\n        _createExclusiveRole(roleId, managingRoleId, owner);\n    }\n\n    /**\n     * @notice Internal method that allows derived contracts to choose the role for withdrawal.\n     * @dev The role `roleId` must exist. Either this method or `createWithdrawRole` must be called by the derived class\n     * for this contract to function properly.\n     */\n    function setWithdrawRole(uint roleId) internal {\n        _roleId = roleId;\n    }\n}\n",
  "sourcePath": "/home/opz/Projects/SynFiat-update/gitlab/contracts/uma-contracts/common/implementation/Withdrawable.sol",
  "compiler": {
    "name": "solc",
    "version": "0.6.4+commit.1dca32f3.Emscripten.clang"
  },
  "schemaVersion": "3.2.0",
  "updatedAt": "2020-07-20T06:15:50.057Z",
  "devdoc": {
    "methods": {
      "addMember(uint256,address)": {
        "details": "Reverts if `roleId` does not represent an initialized, shared role or if the caller is not a member of the managing role for `roleId`."
      },
      "getMember(uint256)": {
        "details": "Reverts if `roleId` does not represent an initialized, exclusive role."
      },
      "holdsRole(uint256,address)": {
        "details": "Reverts if roleId does not correspond to an initialized role."
      },
      "removeMember(uint256,address)": {
        "details": "Reverts if `roleId` does not represent an initialized, shared role or if the caller is not a member of the managing role for `roleId`."
      },
      "resetMember(uint256,address)": {
        "details": "Reverts if the caller is not a member of the managing role for `roleId` or if `roleId` is not an initialized, exclusive role."
      }
    },
    "title": "Base contract that allows a specific role to withdraw any ETH and/or ERC20 tokens that the contract holds."
  },
  "userdoc": {
    "methods": {
      "addMember(uint256,address)": {
        "notice": "Adds `newMember` to the shared role, `roleId`."
      },
      "getMember(uint256)": {
        "notice": "Gets the current holder of the exclusive role, `roleId`."
      },
      "holdsRole(uint256,address)": {
        "notice": "Whether `memberToCheck` is a member of roleId."
      },
      "removeMember(uint256,address)": {
        "notice": "Removes `memberToRemove` from the shared role, `roleId`."
      },
      "resetMember(uint256,address)": {
        "notice": "Changes the exclusive role holder of `roleId` to `newMember`."
      },
      "withdraw(uint256)": {
        "notice": "Withdraws ETH from the contract."
      },
      "withdrawErc20(address,uint256)": {
        "notice": "Withdraws ERC20 tokens from the contract."
      }
    }
  }
}