{
  "contractName": "Withdrawable",
  "abi": [
    {
      "inputs": [
        {
          "internalType": "uint256",
          "name": "roleId",
          "type": "uint256"
        },
        {
          "internalType": "address",
          "name": "newMember",
          "type": "address"
        }
      ],
      "name": "addMember",
      "outputs": [],
      "stateMutability": "nonpayable",
      "type": "function"
    },
    {
      "inputs": [
        {
          "internalType": "uint256",
          "name": "roleId",
          "type": "uint256"
        }
      ],
      "name": "getMember",
      "outputs": [
        {
          "internalType": "address",
          "name": "",
          "type": "address"
        }
      ],
      "stateMutability": "view",
      "type": "function"
    },
    {
      "inputs": [
        {
          "internalType": "uint256",
          "name": "roleId",
          "type": "uint256"
        },
        {
          "internalType": "address",
          "name": "memberToCheck",
          "type": "address"
        }
      ],
      "name": "holdsRole",
      "outputs": [
        {
          "internalType": "bool",
          "name": "",
          "type": "bool"
        }
      ],
      "stateMutability": "view",
      "type": "function"
    },
    {
      "inputs": [
        {
          "internalType": "uint256",
          "name": "roleId",
          "type": "uint256"
        },
        {
          "internalType": "address",
          "name": "memberToRemove",
          "type": "address"
        }
      ],
      "name": "removeMember",
      "outputs": [],
      "stateMutability": "nonpayable",
      "type": "function"
    },
    {
      "inputs": [
        {
          "internalType": "uint256",
          "name": "roleId",
          "type": "uint256"
        },
        {
          "internalType": "address",
          "name": "newMember",
          "type": "address"
        }
      ],
      "name": "resetMember",
      "outputs": [],
      "stateMutability": "nonpayable",
      "type": "function"
    },
    {
      "inputs": [
        {
          "internalType": "uint256",
          "name": "amount",
          "type": "uint256"
        }
      ],
      "name": "withdraw",
      "outputs": [],
      "stateMutability": "nonpayable",
      "type": "function"
    },
    {
      "inputs": [
        {
          "internalType": "address",
          "name": "erc20Address",
          "type": "address"
        },
        {
          "internalType": "uint256",
          "name": "amount",
          "type": "uint256"
        }
      ],
      "name": "withdrawErc20",
      "outputs": [],
      "stateMutability": "nonpayable",
      "type": "function"
    }
  ],
  "bytecode": "0x608060405234801561001057600080fd5b506108d0806100206000396000f3fe608060405234801561001057600080fd5b506004361061007d5760003560e01c80637cdc1cb91161005b5780637cdc1cb9146100f9578063ab3545e514610139578063bd1f4b5214610172578063d97c05be1461019e5761007d565b80632e1a7d4d146100825780636be7658b146100a157806374d0a676146100cd575b600080fd5b61009f6004803603602081101561009857600080fd5b50356101ca565b005b61009f600480360360408110156100b757600080fd5b50803590602001356001600160a01b0316610244565b61009f600480360360408110156100e357600080fd5b50803590602001356001600160a01b0316610320565b6101256004803603604081101561010f57600080fd5b50803590602001356001600160a01b03166103f6565b604080519115158252519081900360200190f35b6101566004803603602081101561014f57600080fd5b50356104ba565b604080516001600160a01b039092168252519081900360200190f35b61009f6004803603604081101561018857600080fd5b506001600160a01b03813516906020013561053c565b61009f600480360360408110156101b457600080fd5b50803590602001356001600160a01b031661060b565b6001546101d781336103f6565b6102125760405162461bcd60e51b81526004018080602001828103825260228152602001806108326022913960400191505060405180910390fd5b604051339083156108fc029084906000818181858888f1935050505015801561023f573d6000803e3d6000fd5b505050565b81600260008281526020819052604090206001015460ff16600281111561026757fe5b146102a35760405162461bcd60e51b815260040180806020018281038252602c815260200180610806602c913960400191505060405180910390fd5b60008381526020819052604090205483906102be90336103f6565b6102f95760405162461bcd60e51b81526004018080602001828103825260248152602001806108776024913960400191505060405180910390fd5b600084815260208190526040902061031a906003018463ffffffff6106e116565b50505050565b81600260008281526020819052604090206001015460ff16600281111561034357fe5b1461037f5760405162461bcd60e51b815260040180806020018281038252602c815260200180610806602c913960400191505060405180910390fd5b600083815260208190526040902054839061039a90336103f6565b6103d55760405162461bcd60e51b81526004018080602001828103825260248152602001806108776024913960400191505060405180910390fd5b600084815260208190526040902061031a906003018463ffffffff61070316565b600082815260208190526040812060018082015460ff16600281111561041857fe5b141561043957610431600282018463ffffffff61072816565b9150506104b4565b6002600182015460ff16600281111561044e57fe5b141561046757610431600382018463ffffffff61073b16565b6040805162461bcd60e51b815260206004820152600e60248201527f496e76616c696420726f6c654964000000000000000000000000000000000000604482015290519081900360640190fd5b92915050565b600081600160008281526020819052604090206001015460ff1660028111156104df57fe5b1461051b5760405162461bcd60e51b815260040180806020018281038252602f8152602001806107d7602f913960400191505060405180910390fd5b60008381526020819052604090206105359060020161075a565b9392505050565b60015461054981336103f6565b6105845760405162461bcd60e51b81526004018080602001828103825260228152602001806108326022913960400191505060405180910390fd5b6040805163a9059cbb60e01b815233600482015260248101849052905184916001600160a01b0383169163a9059cbb916044808201926020929091908290030181600087803b1580156105d657600080fd5b505af11580156105ea573d6000803e3d6000fd5b505050506040513d602081101561060057600080fd5b505161031a57600080fd5b81600160008281526020819052604090206001015460ff16600281111561062e57fe5b1461066a5760405162461bcd60e51b815260040180806020018281038252602f8152602001806107d7602f913960400191505060405180910390fd5b600083815260208190526040902054839061068590336103f6565b6106c05760405162461bcd60e51b81526004018080602001828103825260248152602001806108776024913960400191505060405180910390fd5b600084815260208190526040902061031a906002018463ffffffff61076716565b6001600160a01b0316600090815260209190915260409020805460ff19169055565b6001600160a01b0316600090815260209190915260409020805460ff19166001179055565b90546001600160a01b0391821691161490565b6001600160a01b03166000908152602091909152604090205460ff1690565b546001600160a01b031690565b6001600160a01b0381166107ac5760405162461bcd60e51b81526004018080602001828103825260238152602001806108546023913960400191505060405180910390fd5b815473ffffffffffffffffffffffffffffffffffffffff19166001600160a01b039190911617905556fe4d7573742062652063616c6c6564206f6e20616e20696e697469616c697a6564204578636c757369766520726f6c654d7573742062652063616c6c6564206f6e20616e20696e697469616c697a65642053686172656420726f6c6553656e64657220646f6573206e6f7420686f6c6420726571756972656420726f6c6543616e6e6f742073657420616e206578636c757369766520726f6c6520746f2030783043616e206f6e6c792062652063616c6c6564206279206120726f6c65206d616e61676572a26469706673582212209223b44135c8887cc8e6cae00e80c904d854b8183871db05cc9858dd3169dfca64736f6c63430006040033",
  "source": "/**\n * Withdrawable contract.\n */\n\npragma solidity ^0.6.0;\n\nimport \"@openzeppelin/contracts/token/ERC20/IERC20.sol\";\nimport \"./MultiRole.sol\";\n\n\n/**\n * @title Base contract that allows a specific role to withdraw any ETH and/or ERC20 tokens that the contract holds.\n */\ncontract Withdrawable is MultiRole {\n    uint private _roleId;\n\n    /**\n     * @notice Withdraws ETH from the contract.\n     */\n    function withdraw(uint amount) external onlyRoleHolder(_roleId) {\n        msg.sender.transfer(amount);\n    }\n\n    /**\n     * @notice Withdraws ERC20 tokens from the contract.\n     */\n    function withdrawErc20(address erc20Address, uint amount) external onlyRoleHolder(_roleId) {\n        IERC20 erc20 = IERC20(erc20Address);\n        require(erc20.transfer(msg.sender, amount));\n    }\n\n    /**\n     * @notice Internal method that allows derived contracts to create a role for withdrawal.\n     * @dev Either this method or `setWithdrawRole` must be called by the derived class for this contract to function\n     * properly.\n     */\n    function createWithdrawRole(uint roleId, uint managingRoleId, address owner) internal {\n        _roleId = roleId;\n        _createExclusiveRole(roleId, managingRoleId, owner);\n    }\n\n    /**\n     * @notice Internal method that allows derived contracts to choose the role for withdrawal.\n     * @dev The role `roleId` must exist. Either this method or `createWithdrawRole` must be called by the derived class\n     * for this contract to function properly.\n     */\n    function setWithdrawRole(uint roleId) internal {\n        _roleId = roleId;\n    }\n}\n",
  "sourcePath": "/home/opz/Projects/SynFiat/contracts/uma-contracts/common/implementation/Withdrawable.sol",
  "compiler": {
    "name": "solc",
    "version": "0.6.4+commit.1dca32f3.Emscripten.clang"
  },
  "schemaVersion": "3.2.0",
  "updatedAt": "2020-06-01T04:24:41.777Z",
  "devdoc": {
    "methods": {
      "addMember(uint256,address)": {
        "details": "Reverts if `roleId` does not represent an initialized, shared role or if the caller is not a member of the managing role for `roleId`."
      },
      "getMember(uint256)": {
        "details": "Reverts if `roleId` does not represent an initialized, exclusive role."
      },
      "holdsRole(uint256,address)": {
        "details": "Reverts if roleId does not correspond to an initialized role."
      },
      "removeMember(uint256,address)": {
        "details": "Reverts if `roleId` does not represent an initialized, shared role or if the caller is not a member of the managing role for `roleId`."
      },
      "resetMember(uint256,address)": {
        "details": "Reverts if the caller is not a member of the managing role for `roleId` or if `roleId` is not an initialized, exclusive role."
      }
    },
    "title": "Base contract that allows a specific role to withdraw any ETH and/or ERC20 tokens that the contract holds."
  },
  "userdoc": {
    "methods": {
      "addMember(uint256,address)": {
        "notice": "Adds `newMember` to the shared role, `roleId`."
      },
      "getMember(uint256)": {
        "notice": "Gets the current holder of the exclusive role, `roleId`."
      },
      "holdsRole(uint256,address)": {
        "notice": "Whether `memberToCheck` is a member of roleId."
      },
      "removeMember(uint256,address)": {
        "notice": "Removes `memberToRemove` from the shared role, `roleId`."
      },
      "resetMember(uint256,address)": {
        "notice": "Changes the exclusive role holder of `roleId` to `newMember`."
      },
      "withdraw(uint256)": {
        "notice": "Withdraws ETH from the contract."
      },
      "withdrawErc20(address,uint256)": {
        "notice": "Withdraws ERC20 tokens from the contract."
      }
    }
  }
}