{
  "contractName": "WithdrawableTest",
  "abi": [
    {
      "inputs": [],
      "stateMutability": "nonpayable",
      "type": "constructor"
    },
    {
      "anonymous": false,
      "inputs": [
        {
          "indexed": true,
          "internalType": "uint256",
          "name": "roleId",
          "type": "uint256"
        },
        {
          "indexed": true,
          "internalType": "address",
          "name": "newMember",
          "type": "address"
        },
        {
          "indexed": true,
          "internalType": "address",
          "name": "manager",
          "type": "address"
        }
      ],
      "name": "AddedSharedMember",
      "type": "event"
    },
    {
      "anonymous": false,
      "inputs": [
        {
          "indexed": true,
          "internalType": "uint256",
          "name": "roleId",
          "type": "uint256"
        },
        {
          "indexed": true,
          "internalType": "address",
          "name": "oldMember",
          "type": "address"
        },
        {
          "indexed": true,
          "internalType": "address",
          "name": "manager",
          "type": "address"
        }
      ],
      "name": "RemovedSharedMember",
      "type": "event"
    },
    {
      "anonymous": false,
      "inputs": [
        {
          "indexed": true,
          "internalType": "uint256",
          "name": "roleId",
          "type": "uint256"
        },
        {
          "indexed": true,
          "internalType": "address",
          "name": "newMember",
          "type": "address"
        },
        {
          "indexed": true,
          "internalType": "address",
          "name": "manager",
          "type": "address"
        }
      ],
      "name": "ResetExclusiveMember",
      "type": "event"
    },
    {
      "inputs": [
        {
          "internalType": "uint256",
          "name": "roleId",
          "type": "uint256"
        },
        {
          "internalType": "address",
          "name": "newMember",
          "type": "address"
        }
      ],
      "name": "addMember",
      "outputs": [],
      "stateMutability": "nonpayable",
      "type": "function"
    },
    {
      "inputs": [
        {
          "internalType": "uint256",
          "name": "roleId",
          "type": "uint256"
        }
      ],
      "name": "getMember",
      "outputs": [
        {
          "internalType": "address",
          "name": "",
          "type": "address"
        }
      ],
      "stateMutability": "view",
      "type": "function"
    },
    {
      "inputs": [
        {
          "internalType": "uint256",
          "name": "roleId",
          "type": "uint256"
        },
        {
          "internalType": "address",
          "name": "memberToCheck",
          "type": "address"
        }
      ],
      "name": "holdsRole",
      "outputs": [
        {
          "internalType": "bool",
          "name": "",
          "type": "bool"
        }
      ],
      "stateMutability": "view",
      "type": "function"
    },
    {
      "inputs": [
        {
          "internalType": "uint256",
          "name": "roleId",
          "type": "uint256"
        },
        {
          "internalType": "address",
          "name": "memberToRemove",
          "type": "address"
        }
      ],
      "name": "removeMember",
      "outputs": [],
      "stateMutability": "nonpayable",
      "type": "function"
    },
    {
      "inputs": [
        {
          "internalType": "uint256",
          "name": "roleId",
          "type": "uint256"
        }
      ],
      "name": "renounceMembership",
      "outputs": [],
      "stateMutability": "nonpayable",
      "type": "function"
    },
    {
      "inputs": [
        {
          "internalType": "uint256",
          "name": "roleId",
          "type": "uint256"
        },
        {
          "internalType": "address",
          "name": "newMember",
          "type": "address"
        }
      ],
      "name": "resetMember",
      "outputs": [],
      "stateMutability": "nonpayable",
      "type": "function"
    },
    {
      "inputs": [
        {
          "internalType": "uint256",
          "name": "amount",
          "type": "uint256"
        }
      ],
      "name": "withdraw",
      "outputs": [],
      "stateMutability": "nonpayable",
      "type": "function"
    },
    {
      "inputs": [
        {
          "internalType": "address",
          "name": "erc20Address",
          "type": "address"
        },
        {
          "internalType": "uint256",
          "name": "amount",
          "type": "uint256"
        }
      ],
      "name": "withdrawErc20",
      "outputs": [],
      "stateMutability": "nonpayable",
      "type": "function"
    },
    {
      "inputs": [],
      "name": "pay",
      "outputs": [],
      "stateMutability": "payable",
      "type": "function"
    },
    {
      "inputs": [
        {
          "internalType": "uint256",
          "name": "setRoleId",
          "type": "uint256"
        }
      ],
      "name": "setInternalWithdrawRole",
      "outputs": [],
      "stateMutability": "nonpayable",
      "type": "function"
    }
  ],
  "bytecode": "0x60806040523480156200001157600080fd5b5062000029600080336001600160e01b036200004716565b6200004160016000336001600160e01b036200016216565b620001ff565b826000808281526020819052604090206001015460ff1660028111156200006a57fe5b14620000bd576040805162461bcd60e51b815260206004820152601e60248201527f43616e6e6f74207573652061207072652d6578697374696e6720726f6c650000604482015290519081900360640190fd5b60008481526020819052604090206001808201805460ff191682800217905550838155620000fb600282018462000182602090811b62000ac517901c565b60008481526020819052604081206001015460ff1660028111156200011c57fe5b14156200015b5760405162461bcd60e51b815260040180806020018281038252603c81526020018062001542603c913960400191505060405180910390fd5b5050505050565b60018390556200017d8383836001600160e01b036200004716565b505050565b6200019782826001600160e01b036200019b16565b5050565b6001600160a01b038116620001e25760405162461bcd60e51b81526004018080602001828103825260238152602001806200157e6023913960400191505060405180910390fd5b81546001600160a01b0319166001600160a01b0391909116179055565b611333806200020f6000396000f3fe6080604052600436106100b15760003560e01c80637cdc1cb911610069578063ab3545e51161004e578063ab3545e514610224578063bd1f4b5214610277578063d97c05be146102bd576100b1565b80637cdc1cb9146101a0578063aaa14ca3146101fa576100b1565b80636b85f1b01161009a5780636b85f1b0146100ea5780636be7658b1461011457806374d0a6761461015a576100b1565b80631b9265b8146100b65780632e1a7d4d146100c0575b600080fd5b6100be610303565b005b3480156100cc57600080fd5b506100be600480360360208110156100e357600080fd5b5035610312565b3480156100f657600080fd5b506100be6004803603602081101561010d57600080fd5b5035610382565b34801561012057600080fd5b506100be6004803603604081101561013757600080fd5b508035906020013573ffffffffffffffffffffffffffffffffffffffff1661038e565b34801561016657600080fd5b506100be6004803603604081101561017d57600080fd5b508035906020013573ffffffffffffffffffffffffffffffffffffffff166104e3565b3480156101ac57600080fd5b506101e6600480360360408110156101c357600080fd5b508035906020013573ffffffffffffffffffffffffffffffffffffffff16610638565b604080519115158252519081900360200190f35b34801561020657600080fd5b506100be6004803603602081101561021d57600080fd5b5035610716565b34801561023057600080fd5b5061024e6004803603602081101561024757600080fd5b5035610844565b6040805173ffffffffffffffffffffffffffffffffffffffff9092168252519081900360200190f35b34801561028357600080fd5b506100be6004803603604081101561029a57600080fd5b5073ffffffffffffffffffffffffffffffffffffffff81351690602001356108e0565b3480156102c957600080fd5b506100be600480360360408110156102e057600080fd5b508035906020013573ffffffffffffffffffffffffffffffffffffffff16610970565b6000341161031057600080fd5b565b60015461031f8133610638565b610374576040517f08c379a000000000000000000000000000000000000000000000000000000000815260040180806020018281038252602281526020018061126b6022913960400191505060405180910390fd5b61037e3383610acf565b5050565b61038b81610bfa565b50565b81600260008281526020819052604090206001015460ff1660028111156103b157fe5b14610407576040517f08c379a000000000000000000000000000000000000000000000000000000000815260040180806020018281038252602c81526020018061123f602c913960400191505060405180910390fd5b60008381526020819052604090205483906104229033610638565b610477576040517f08c379a00000000000000000000000000000000000000000000000000000000081526004018080602001828103825260248152602001806112b06024913960400191505060405180910390fd5b6000848152602081905260409020610498906003018463ffffffff610c7916565b604051339073ffffffffffffffffffffffffffffffffffffffff85169086907feb3e33034c392e69263b04ec0fa376dc12784a41b6676c7f31b936cbc0fbb5af90600090a450505050565b81600260008281526020819052604090206001015460ff16600281111561050657fe5b1461055c576040517f08c379a000000000000000000000000000000000000000000000000000000000815260040180806020018281038252602c81526020018061123f602c913960400191505060405180910390fd5b60008381526020819052604090205483906105779033610638565b6105cc576040517f08c379a00000000000000000000000000000000000000000000000000000000081526004018080602001828103825260248152602001806112b06024913960400191505060405180910390fd5b60008481526020819052604090206105ed906003018463ffffffff610cc616565b604051339073ffffffffffffffffffffffffffffffffffffffff85169086907f63502af7324ff6db91ab38f8236a648727d9385ea6c782073dd4882d8a61a48f90600090a450505050565b600082815260208190526040812060018082015460ff16600281111561065a57fe5b141561067b57610673600282018463ffffffff610d9816565b915050610710565b6002600182015460ff16600281111561069057fe5b14156106a957610673600382018463ffffffff610db816565b604080517f08c379a000000000000000000000000000000000000000000000000000000000815260206004820152600e60248201527f496e76616c696420726f6c654964000000000000000000000000000000000000604482015290519081900360640190fd5b92915050565b80600260008281526020819052604090206001015460ff16600281111561073957fe5b1461078f576040517f08c379a000000000000000000000000000000000000000000000000000000000815260040180806020018281038252602c81526020018061123f602c913960400191505060405180910390fd5b8161079a8133610638565b6107ef576040517f08c379a000000000000000000000000000000000000000000000000000000000815260040180806020018281038252602281526020018061126b6022913960400191505060405180910390fd5b6000838152602081905260409020610810906003013363ffffffff610c7916565b6040513390819085907feb3e33034c392e69263b04ec0fa376dc12784a41b6676c7f31b936cbc0fbb5af90600090a4505050565b600081600160008281526020819052604090206001015460ff16600281111561086957fe5b146108bf576040517f08c379a000000000000000000000000000000000000000000000000000000000815260040180806020018281038252602f8152602001806111d6602f913960400191505060405180910390fd5b60008381526020819052604090206108d990600201610de4565b9392505050565b6001546108ed8133610638565b610942576040517f08c379a000000000000000000000000000000000000000000000000000000000815260040180806020018281038252602281526020018061126b6022913960400191505060405180910390fd5b8261096a73ffffffffffffffffffffffffffffffffffffffff8216338563ffffffff610dfe16565b50505050565b81600160008281526020819052604090206001015460ff16600281111561099357fe5b146109e9576040517f08c379a000000000000000000000000000000000000000000000000000000000815260040180806020018281038252602f8152602001806111d6602f913960400191505060405180910390fd5b6000838152602081905260409020548390610a049033610638565b610a59576040517f08c379a00000000000000000000000000000000000000000000000000000000081526004018080602001828103825260248152602001806112b06024913960400191505060405180910390fd5b6000848152602081905260409020610a7a906002018463ffffffff610e8b16565b604051339073ffffffffffffffffffffffffffffffffffffffff85169086907f3b855c56b409b671c7112789d022675eb639d0bcb8896f1b6197c132f799e74690600090a450505050565b61037e8282610e8b565b80471015610b3e57604080517f08c379a000000000000000000000000000000000000000000000000000000000815260206004820152601d60248201527f416464726573733a20696e73756666696369656e742062616c616e6365000000604482015290519081900360640190fd5b60405160009073ffffffffffffffffffffffffffffffffffffffff84169083908381818185875af1925050503d8060008114610b96576040519150601f19603f3d011682016040523d82523d6000602084013e610b9b565b606091505b5050905080610bf5576040517f08c379a000000000000000000000000000000000000000000000000000000000815260040180806020018281038252603a815260200180611205603a913960400191505060405180910390fd5b505050565b806000808281526020819052604090206001015460ff166002811115610c1c57fe5b1415610c73576040517f08c379a00000000000000000000000000000000000000000000000000000000081526004018080602001828103825260228152602001806111b46022913960400191505060405180910390fd5b50600155565b73ffffffffffffffffffffffffffffffffffffffff1660009081526020919091526040902080547fffffffffffffffffffffffffffffffffffffffffffffffffffffffffffffff00169055565b73ffffffffffffffffffffffffffffffffffffffff8116610d4857604080517f08c379a000000000000000000000000000000000000000000000000000000000815260206004820152601f60248201527f43616e6e6f74206164642030783020746f20612073686172656420726f6c6500604482015290519081900360640190fd5b73ffffffffffffffffffffffffffffffffffffffff1660009081526020919091526040902080547fffffffffffffffffffffffffffffffffffffffffffffffffffffffffffffff00166001179055565b905473ffffffffffffffffffffffffffffffffffffffff91821691161490565b73ffffffffffffffffffffffffffffffffffffffff166000908152602091909152604090205460ff1690565b5473ffffffffffffffffffffffffffffffffffffffff1690565b6040805173ffffffffffffffffffffffffffffffffffffffff8416602482015260448082018490528251808303909101815260649091019091526020810180517bffffffffffffffffffffffffffffffffffffffffffffffffffffffff167fa9059cbb00000000000000000000000000000000000000000000000000000000179052610bf5908490610f39565b73ffffffffffffffffffffffffffffffffffffffff8116610ef7576040517f08c379a000000000000000000000000000000000000000000000000000000000815260040180806020018281038252602381526020018061128d6023913960400191505060405180910390fd5b81547fffffffffffffffffffffffff00000000000000000000000000000000000000001673ffffffffffffffffffffffffffffffffffffffff91909116179055565b610f588273ffffffffffffffffffffffffffffffffffffffff16611177565b610fc357604080517f08c379a000000000000000000000000000000000000000000000000000000000815260206004820152601f60248201527f5361666545524332303a2063616c6c20746f206e6f6e2d636f6e747261637400604482015290519081900360640190fd5b600060608373ffffffffffffffffffffffffffffffffffffffff16836040518082805190602001908083835b6020831061102c57805182527fffffffffffffffffffffffffffffffffffffffffffffffffffffffffffffffe09092019160209182019101610fef565b6001836020036101000a0380198251168184511680821785525050505050509050019150506000604051808303816000865af19150503d806000811461108e576040519150601f19603f3d011682016040523d82523d6000602084013e611093565b606091505b50915091508161110457604080517f08c379a000000000000000000000000000000000000000000000000000000000815260206004820181905260248201527f5361666545524332303a206c6f772d6c6576656c2063616c6c206661696c6564604482015290519081900360640190fd5b80511561096a5780806020019051602081101561112057600080fd5b505161096a576040517f08c379a000000000000000000000000000000000000000000000000000000000815260040180806020018281038252602a8152602001806112d4602a913960400191505060405180910390fd5b6000813f7fc5d2460186f7233c927e7db2dcc703c0e500b653ca82273b7bfad8045d85a4708181148015906111ab57508115155b94935050505056fe417474656d7074656420746f2075736520616e20696e76616c696420726f6c6549644d7573742062652063616c6c6564206f6e20616e20696e697469616c697a6564204578636c757369766520726f6c65416464726573733a20756e61626c6520746f2073656e642076616c75652c20726563697069656e74206d617920686176652072657665727465644d7573742062652063616c6c6564206f6e20616e20696e697469616c697a65642053686172656420726f6c6553656e64657220646f6573206e6f7420686f6c6420726571756972656420726f6c6543616e6e6f742073657420616e206578636c757369766520726f6c6520746f2030783043616e206f6e6c792062652063616c6c6564206279206120726f6c65206d616e616765725361666545524332303a204552433230206f7065726174696f6e20646964206e6f742073756363656564a26469706673582212200b7211420be78bbb6f36b4e619a4e3a14eebaa6442c6748dc6496822b11d637a64736f6c634300060a0033417474656d7074656420746f2075736520616e20696e76616c696420726f6c6520746f206d616e61676520616e206578636c757369766520726f6c6543616e6e6f742073657420616e206578636c757369766520726f6c6520746f20307830",
  "immutableReferences": {},
  "source": "pragma solidity ^0.6.0;\n\nimport \"../implementation/Withdrawable.sol\";\n\n\n// WithdrawableTest is derived from the abstract contract Withdrawable for testing purposes.\ncontract WithdrawableTest is Withdrawable {\n    enum Roles { Governance, Withdraw }\n\n    // solhint-disable-next-line no-empty-blocks\n    constructor() public {\n        _createExclusiveRole(uint256(Roles.Governance), uint256(Roles.Governance), msg.sender);\n        _createWithdrawRole(uint256(Roles.Withdraw), uint256(Roles.Governance), msg.sender);\n    }\n\n    function pay() external payable {\n        require(msg.value > 0);\n    }\n\n    function setInternalWithdrawRole(uint256 setRoleId) public {\n        _setWithdrawRole(setRoleId);\n    }\n}\n",
  "sourcePath": "/home/alessandrovm/JarvisLavoro/SynFiat/packages/contracts/contracts/uma-contracts/common/test/WithdrawableTest.sol",
  "compiler": {
    "name": "solc",
    "version": "0.6.10+commit.00c0fcaf.Emscripten.clang"
  },
  "schemaVersion": "3.2.0",
  "updatedAt": "2020-09-30T12:21:56.812Z",
  "devdoc": {
    "methods": {
      "addMember(uint256,address)": {
        "details": "Reverts if `roleId` does not represent an initialized, SharedRole or if the caller is not a member of the managing role for `roleId`.",
        "params": {
          "newMember": "the new SharedRole member.",
          "roleId": "the SharedRole membership to modify."
        }
      },
      "getMember(uint256)": {
        "details": "Reverts if `roleId` does not represent an initialized, exclusive role.",
        "params": {
          "roleId": "the ExclusiveRole membership to check."
        },
        "returns": {
          "_0": "the address of the current ExclusiveRole member."
        }
      },
      "holdsRole(uint256,address)": {
        "details": "Reverts if roleId does not correspond to an initialized role.",
        "params": {
          "memberToCheck": "the address to check.",
          "roleId": "the Role to check."
        },
        "returns": {
          "_0": "True if `memberToCheck` is a member of `roleId`."
        }
      },
      "removeMember(uint256,address)": {
        "details": "Reverts if `roleId` does not represent an initialized, SharedRole or if the caller is not a member of the managing role for `roleId`.",
        "params": {
          "memberToRemove": "the current SharedRole member to remove.",
          "roleId": "the SharedRole membership to modify."
        }
      },
      "renounceMembership(uint256)": {
        "details": "Reverts if the caller is not a member of the role for `roleId` or if `roleId` is not an initialized, SharedRole.",
        "params": {
          "roleId": "the SharedRole membership to modify."
        }
      },
      "resetMember(uint256,address)": {
        "details": "Reverts if the caller is not a member of the managing role for `roleId` or if `roleId` is not an initialized, ExclusiveRole.",
        "params": {
          "newMember": "the new ExclusiveRole member.",
          "roleId": "the ExclusiveRole membership to modify."
        }
      },
      "withdrawErc20(address,uint256)": {
        "params": {
          "amount": "amount of tokens to withdraw.",
          "erc20Address": "ERC20 token to withdraw."
        }
      }
    }
  },
  "userdoc": {
    "methods": {
      "addMember(uint256,address)": {
        "notice": "Adds `newMember` to the shared role, `roleId`."
      },
      "getMember(uint256)": {
        "notice": "Gets the current holder of the exclusive role, `roleId`."
      },
      "holdsRole(uint256,address)": {
        "notice": "Whether `memberToCheck` is a member of roleId."
      },
      "removeMember(uint256,address)": {
        "notice": "Removes `memberToRemove` from the shared role, `roleId`."
      },
      "renounceMembership(uint256)": {
        "notice": "Removes caller from the role, `roleId`."
      },
      "resetMember(uint256,address)": {
        "notice": "Changes the exclusive role holder of `roleId` to `newMember`."
      },
      "withdraw(uint256)": {
        "notice": "Withdraws ETH from the contract."
      },
      "withdrawErc20(address,uint256)": {
        "notice": "Withdraws ERC20 tokens from the contract."
      }
    }
  }
}