{
  "contractName": "WithdrawableTest",
  "abi": [
    {
      "inputs": [],
      "stateMutability": "nonpayable",
      "type": "constructor"
    },
    {
      "inputs": [
        {
          "internalType": "uint256",
          "name": "roleId",
          "type": "uint256"
        },
        {
          "internalType": "address",
          "name": "newMember",
          "type": "address"
        }
      ],
      "name": "addMember",
      "outputs": [],
      "stateMutability": "nonpayable",
      "type": "function"
    },
    {
      "inputs": [
        {
          "internalType": "uint256",
          "name": "roleId",
          "type": "uint256"
        }
      ],
      "name": "getMember",
      "outputs": [
        {
          "internalType": "address",
          "name": "",
          "type": "address"
        }
      ],
      "stateMutability": "view",
      "type": "function"
    },
    {
      "inputs": [
        {
          "internalType": "uint256",
          "name": "roleId",
          "type": "uint256"
        },
        {
          "internalType": "address",
          "name": "memberToCheck",
          "type": "address"
        }
      ],
      "name": "holdsRole",
      "outputs": [
        {
          "internalType": "bool",
          "name": "",
          "type": "bool"
        }
      ],
      "stateMutability": "view",
      "type": "function"
    },
    {
      "inputs": [
        {
          "internalType": "uint256",
          "name": "roleId",
          "type": "uint256"
        },
        {
          "internalType": "address",
          "name": "memberToRemove",
          "type": "address"
        }
      ],
      "name": "removeMember",
      "outputs": [],
      "stateMutability": "nonpayable",
      "type": "function"
    },
    {
      "inputs": [
        {
          "internalType": "uint256",
          "name": "roleId",
          "type": "uint256"
        },
        {
          "internalType": "address",
          "name": "newMember",
          "type": "address"
        }
      ],
      "name": "resetMember",
      "outputs": [],
      "stateMutability": "nonpayable",
      "type": "function"
    },
    {
      "inputs": [
        {
          "internalType": "uint256",
          "name": "amount",
          "type": "uint256"
        }
      ],
      "name": "withdraw",
      "outputs": [],
      "stateMutability": "nonpayable",
      "type": "function"
    },
    {
      "inputs": [
        {
          "internalType": "address",
          "name": "erc20Address",
          "type": "address"
        },
        {
          "internalType": "uint256",
          "name": "amount",
          "type": "uint256"
        }
      ],
      "name": "withdrawErc20",
      "outputs": [],
      "stateMutability": "nonpayable",
      "type": "function"
    },
    {
      "inputs": [],
      "name": "pay",
      "outputs": [],
      "stateMutability": "payable",
      "type": "function"
    }
  ],
  "bytecode": "0x608060405234801561001057600080fd5b50610026600080336001600160e01b0361004116565b61003c60016000336001600160e01b0361015416565b6101eb565b826000808281526020819052604090206001015460ff16600281111561006357fe5b146100b5576040805162461bcd60e51b815260206004820152601e60248201527f43616e6e6f74207573652061207072652d6578697374696e6720726f6c650000604482015290519081900360640190fd5b60008481526020819052604090206001808201805460ff1916828002179055508381556100f06002820184610172602090811b61084617901c565b60008481526020819052604081206001015460ff16600281111561011057fe5b141561014d5760405162461bcd60e51b815260040180806020018281038252603c815260200180610b48603c913960400191505060405180910390fd5b5050505050565b600183905561016d8383836001600160e01b0361004116565b505050565b61018582826001600160e01b0361018916565b5050565b6001600160a01b0381166101ce5760405162461bcd60e51b8152600401808060200182810382526023815260200180610b846023913960400191505060405180910390fd5b81546001600160a01b0319166001600160a01b0391909116179055565b61094e806101fa6000396000f3fe60806040526004361061007b5760003560e01c80637cdc1cb91161004e5780637cdc1cb914610126578063ab3545e514610173578063bd1f4b52146101b9578063d97c05be146101f25761007b565b80631b9265b8146100805780632e1a7d4d1461008a5780636be7658b146100b457806374d0a676146100ed575b600080fd5b61008861022b565b005b34801561009657600080fd5b50610088600480360360208110156100ad57600080fd5b503561023a565b3480156100c057600080fd5b50610088600480360360408110156100d757600080fd5b50803590602001356001600160a01b03166102b4565b3480156100f957600080fd5b506100886004803603604081101561011057600080fd5b50803590602001356001600160a01b0316610390565b34801561013257600080fd5b5061015f6004803603604081101561014957600080fd5b50803590602001356001600160a01b0316610466565b604080519115158252519081900360200190f35b34801561017f57600080fd5b5061019d6004803603602081101561019657600080fd5b503561052a565b604080516001600160a01b039092168252519081900360200190f35b3480156101c557600080fd5b50610088600480360360408110156101dc57600080fd5b506001600160a01b0381351690602001356105ac565b3480156101fe57600080fd5b506100886004803603604081101561021557600080fd5b50803590602001356001600160a01b031661067b565b6000341161023857600080fd5b565b6001546102478133610466565b6102825760405162461bcd60e51b81526004018080602001828103825260228152602001806108b06022913960400191505060405180910390fd5b604051339083156108fc029084906000818181858888f193505050501580156102af573d6000803e3d6000fd5b505050565b81600260008281526020819052604090206001015460ff1660028111156102d757fe5b146103135760405162461bcd60e51b815260040180806020018281038252602c815260200180610884602c913960400191505060405180910390fd5b600083815260208190526040902054839061032e9033610466565b6103695760405162461bcd60e51b81526004018080602001828103825260248152602001806108f56024913960400191505060405180910390fd5b600084815260208190526040902061038a906003018463ffffffff61075116565b50505050565b81600260008281526020819052604090206001015460ff1660028111156103b357fe5b146103ef5760405162461bcd60e51b815260040180806020018281038252602c815260200180610884602c913960400191505060405180910390fd5b600083815260208190526040902054839061040a9033610466565b6104455760405162461bcd60e51b81526004018080602001828103825260248152602001806108f56024913960400191505060405180910390fd5b600084815260208190526040902061038a906003018463ffffffff61077316565b600082815260208190526040812060018082015460ff16600281111561048857fe5b14156104a9576104a1600282018463ffffffff61079816565b915050610524565b6002600182015460ff1660028111156104be57fe5b14156104d7576104a1600382018463ffffffff6107ab16565b6040805162461bcd60e51b815260206004820152600e60248201527f496e76616c696420726f6c654964000000000000000000000000000000000000604482015290519081900360640190fd5b92915050565b600081600160008281526020819052604090206001015460ff16600281111561054f57fe5b1461058b5760405162461bcd60e51b815260040180806020018281038252602f815260200180610855602f913960400191505060405180910390fd5b60008381526020819052604090206105a5906002016107ca565b9392505050565b6001546105b98133610466565b6105f45760405162461bcd60e51b81526004018080602001828103825260228152602001806108b06022913960400191505060405180910390fd5b6040805163a9059cbb60e01b815233600482015260248101849052905184916001600160a01b0383169163a9059cbb916044808201926020929091908290030181600087803b15801561064657600080fd5b505af115801561065a573d6000803e3d6000fd5b505050506040513d602081101561067057600080fd5b505161038a57600080fd5b81600160008281526020819052604090206001015460ff16600281111561069e57fe5b146106da5760405162461bcd60e51b815260040180806020018281038252602f815260200180610855602f913960400191505060405180910390fd5b60008381526020819052604090205483906106f59033610466565b6107305760405162461bcd60e51b81526004018080602001828103825260248152602001806108f56024913960400191505060405180910390fd5b600084815260208190526040902061038a906002018463ffffffff6107d716565b6001600160a01b0316600090815260209190915260409020805460ff19169055565b6001600160a01b0316600090815260209190915260409020805460ff19166001179055565b90546001600160a01b0391821691161490565b6001600160a01b03166000908152602091909152604090205460ff1690565b546001600160a01b031690565b6001600160a01b03811661081c5760405162461bcd60e51b81526004018080602001828103825260238152602001806108d26023913960400191505060405180910390fd5b815473ffffffffffffffffffffffffffffffffffffffff19166001600160a01b0391909116179055565b61085082826107d7565b505056fe4d7573742062652063616c6c6564206f6e20616e20696e697469616c697a6564204578636c757369766520726f6c654d7573742062652063616c6c6564206f6e20616e20696e697469616c697a65642053686172656420726f6c6553656e64657220646f6573206e6f7420686f6c6420726571756972656420726f6c6543616e6e6f742073657420616e206578636c757369766520726f6c6520746f2030783043616e206f6e6c792062652063616c6c6564206279206120726f6c65206d616e61676572a264697066735822122062e075732706d9c1363255ffd66b8b17ac0de2ecec59c510bd196590f45b03ae64736f6c63430006040033417474656d7074656420746f2075736520616e20696e76616c696420726f6c6520746f206d616e61676520616e206578636c757369766520726f6c6543616e6e6f742073657420616e206578636c757369766520726f6c6520746f20307830",
  "source": "pragma solidity ^0.6.0;\n\nimport \"../implementation/Withdrawable.sol\";\n\n\n// WithdrawableTest is derived from the abstract contract Withdrawable for testing purposes.\ncontract WithdrawableTest is Withdrawable {\n    enum Roles { Governance, Withdraw }\n\n    // solhint-disable-next-line no-empty-blocks\n    constructor() public {\n        _createExclusiveRole(uint(Roles.Governance), uint(Roles.Governance), msg.sender);\n        createWithdrawRole(uint(Roles.Withdraw), uint(Roles.Governance), msg.sender);\n    }\n\n    function pay() external payable {\n        require(msg.value > 0);\n    }\n}\n",
  "sourcePath": "/home/opz/Projects/SynFiat/contracts/uma-contracts/common/test/WithdrawableTest.sol",
  "compiler": {
    "name": "solc",
    "version": "0.6.4+commit.1dca32f3.Emscripten.clang"
  },
  "schemaVersion": "3.2.0",
  "updatedAt": "2020-06-01T04:24:41.788Z",
  "devdoc": {
    "methods": {
      "addMember(uint256,address)": {
        "details": "Reverts if `roleId` does not represent an initialized, shared role or if the caller is not a member of the managing role for `roleId`."
      },
      "getMember(uint256)": {
        "details": "Reverts if `roleId` does not represent an initialized, exclusive role."
      },
      "holdsRole(uint256,address)": {
        "details": "Reverts if roleId does not correspond to an initialized role."
      },
      "removeMember(uint256,address)": {
        "details": "Reverts if `roleId` does not represent an initialized, shared role or if the caller is not a member of the managing role for `roleId`."
      },
      "resetMember(uint256,address)": {
        "details": "Reverts if the caller is not a member of the managing role for `roleId` or if `roleId` is not an initialized, exclusive role."
      }
    }
  },
  "userdoc": {
    "methods": {
      "addMember(uint256,address)": {
        "notice": "Adds `newMember` to the shared role, `roleId`."
      },
      "getMember(uint256)": {
        "notice": "Gets the current holder of the exclusive role, `roleId`."
      },
      "holdsRole(uint256,address)": {
        "notice": "Whether `memberToCheck` is a member of roleId."
      },
      "removeMember(uint256,address)": {
        "notice": "Removes `memberToRemove` from the shared role, `roleId`."
      },
      "resetMember(uint256,address)": {
        "notice": "Changes the exclusive role holder of `roleId` to `newMember`."
      },
      "withdraw(uint256)": {
        "notice": "Withdraws ETH from the contract."
      },
      "withdrawErc20(address,uint256)": {
        "notice": "Withdraws ERC20 tokens from the contract."
      }
    }
  }
}