{
  "contractName": "WithdrawableTest",
  "abi": [
    {
      "inputs": [],
      "stateMutability": "nonpayable",
      "type": "constructor"
    },
    {
      "inputs": [
        {
          "internalType": "uint256",
          "name": "roleId",
          "type": "uint256"
        },
        {
          "internalType": "address",
          "name": "newMember",
          "type": "address"
        }
      ],
      "name": "addMember",
      "outputs": [],
      "stateMutability": "nonpayable",
      "type": "function"
    },
    {
      "inputs": [
        {
          "internalType": "uint256",
          "name": "roleId",
          "type": "uint256"
        }
      ],
      "name": "getMember",
      "outputs": [
        {
          "internalType": "address",
          "name": "",
          "type": "address"
        }
      ],
      "stateMutability": "view",
      "type": "function"
    },
    {
      "inputs": [
        {
          "internalType": "uint256",
          "name": "roleId",
          "type": "uint256"
        },
        {
          "internalType": "address",
          "name": "memberToCheck",
          "type": "address"
        }
      ],
      "name": "holdsRole",
      "outputs": [
        {
          "internalType": "bool",
          "name": "",
          "type": "bool"
        }
      ],
      "stateMutability": "view",
      "type": "function"
    },
    {
      "inputs": [
        {
          "internalType": "uint256",
          "name": "roleId",
          "type": "uint256"
        },
        {
          "internalType": "address",
          "name": "memberToRemove",
          "type": "address"
        }
      ],
      "name": "removeMember",
      "outputs": [],
      "stateMutability": "nonpayable",
      "type": "function"
    },
    {
      "inputs": [
        {
          "internalType": "uint256",
          "name": "roleId",
          "type": "uint256"
        },
        {
          "internalType": "address",
          "name": "newMember",
          "type": "address"
        }
      ],
      "name": "resetMember",
      "outputs": [],
      "stateMutability": "nonpayable",
      "type": "function"
    },
    {
      "inputs": [
        {
          "internalType": "uint256",
          "name": "amount",
          "type": "uint256"
        }
      ],
      "name": "withdraw",
      "outputs": [],
      "stateMutability": "nonpayable",
      "type": "function"
    },
    {
      "inputs": [
        {
          "internalType": "address",
          "name": "erc20Address",
          "type": "address"
        },
        {
          "internalType": "uint256",
          "name": "amount",
          "type": "uint256"
        }
      ],
      "name": "withdrawErc20",
      "outputs": [],
      "stateMutability": "nonpayable",
      "type": "function"
    },
    {
      "inputs": [],
      "name": "pay",
      "outputs": [],
      "stateMutability": "payable",
      "type": "function"
    }
  ],
  "bytecode": "0x608060405234801561001057600080fd5b50610026600080336001600160e01b0361004116565b61003c60016000336001600160e01b0361015416565b6101eb565b826000808281526020819052604090206001015460ff16600281111561006357fe5b146100b5576040805162461bcd60e51b815260206004820152601e60248201527f43616e6e6f74207573652061207072652d6578697374696e6720726f6c650000604482015290519081900360640190fd5b60008481526020819052604090206001808201805460ff1916828002179055508381556100f06002820184610172602090811b610a7a17901c565b60008481526020819052604081206001015460ff16600281111561011057fe5b141561014d5760405162461bcd60e51b815260040180806020018281038252603c815260200180610d7c603c913960400191505060405180910390fd5b5050505050565b600183905561016d8383836001600160e01b0361004116565b505050565b61018582826001600160e01b0361018916565b5050565b6001600160a01b0381166101ce5760405162461bcd60e51b8152600401808060200182810382526023815260200180610db86023913960400191505060405180910390fd5b81546001600160a01b0319166001600160a01b0391909116179055565b610b82806101fa6000396000f3fe60806040526004361061007b5760003560e01c80637cdc1cb91161004e5780637cdc1cb914610140578063ab3545e51461019a578063bd1f4b52146101ed578063d97c05be146102335761007b565b80631b9265b8146100805780632e1a7d4d1461008a5780636be7658b146100b457806374d0a676146100fa575b600080fd5b610088610279565b005b34801561009657600080fd5b50610088600480360360208110156100ad57600080fd5b5035610288565b3480156100c057600080fd5b50610088600480360360408110156100d757600080fd5b508035906020013573ffffffffffffffffffffffffffffffffffffffff1661031c565b34801561010657600080fd5b506100886004803603604081101561011d57600080fd5b508035906020013573ffffffffffffffffffffffffffffffffffffffff1661042c565b34801561014c57600080fd5b506101866004803603604081101561016357600080fd5b508035906020013573ffffffffffffffffffffffffffffffffffffffff16610536565b604080519115158252519081900360200190f35b3480156101a657600080fd5b506101c4600480360360208110156101bd57600080fd5b5035610614565b6040805173ffffffffffffffffffffffffffffffffffffffff9092168252519081900360200190f35b3480156101f957600080fd5b506100886004803603604081101561021057600080fd5b5073ffffffffffffffffffffffffffffffffffffffff81351690602001356106b0565b34801561023f57600080fd5b506100886004803603604081101561025657600080fd5b508035906020013573ffffffffffffffffffffffffffffffffffffffff166107bf565b6000341161028657600080fd5b565b6001546102958133610536565b6102ea576040517f08c379a0000000000000000000000000000000000000000000000000000000008152600401808060200182810382526022815260200180610ae46022913960400191505060405180910390fd5b604051339083156108fc029084906000818181858888f19350505050158015610317573d6000803e3d6000fd5b505050565b81600260008281526020819052604090206001015460ff16600281111561033f57fe5b14610395576040517f08c379a000000000000000000000000000000000000000000000000000000000815260040180806020018281038252602c815260200180610ab8602c913960400191505060405180910390fd5b60008381526020819052604090205483906103b09033610536565b610405576040517f08c379a0000000000000000000000000000000000000000000000000000000008152600401808060200182810382526024815260200180610b296024913960400191505060405180910390fd5b6000848152602081905260409020610426906003018463ffffffff6108c916565b50505050565b81600260008281526020819052604090206001015460ff16600281111561044f57fe5b146104a5576040517f08c379a000000000000000000000000000000000000000000000000000000000815260040180806020018281038252602c815260200180610ab8602c913960400191505060405180910390fd5b60008381526020819052604090205483906104c09033610536565b610515576040517f08c379a0000000000000000000000000000000000000000000000000000000008152600401808060200182810382526024815260200180610b296024913960400191505060405180910390fd5b6000848152602081905260409020610426906003018463ffffffff61091616565b600082815260208190526040812060018082015460ff16600281111561055857fe5b141561057957610571600282018463ffffffff61096616565b91505061060e565b6002600182015460ff16600281111561058e57fe5b14156105a757610571600382018463ffffffff61098616565b604080517f08c379a000000000000000000000000000000000000000000000000000000000815260206004820152600e60248201527f496e76616c696420726f6c654964000000000000000000000000000000000000604482015290519081900360640190fd5b92915050565b600081600160008281526020819052604090206001015460ff16600281111561063957fe5b1461068f576040517f08c379a000000000000000000000000000000000000000000000000000000000815260040180806020018281038252602f815260200180610a89602f913960400191505060405180910390fd5b60008381526020819052604090206106a9906002016109b2565b9392505050565b6001546106bd8133610536565b610712576040517f08c379a0000000000000000000000000000000000000000000000000000000008152600401808060200182810382526022815260200180610ae46022913960400191505060405180910390fd5b604080517fa9059cbb000000000000000000000000000000000000000000000000000000008152336004820152602481018490529051849173ffffffffffffffffffffffffffffffffffffffff83169163a9059cbb916044808201926020929091908290030181600087803b15801561078a57600080fd5b505af115801561079e573d6000803e3d6000fd5b505050506040513d60208110156107b457600080fd5b505161042657600080fd5b81600160008281526020819052604090206001015460ff1660028111156107e257fe5b14610838576040517f08c379a000000000000000000000000000000000000000000000000000000000815260040180806020018281038252602f815260200180610a89602f913960400191505060405180910390fd5b60008381526020819052604090205483906108539033610536565b6108a8576040517f08c379a0000000000000000000000000000000000000000000000000000000008152600401808060200182810382526024815260200180610b296024913960400191505060405180910390fd5b6000848152602081905260409020610426906002018463ffffffff6109cc16565b73ffffffffffffffffffffffffffffffffffffffff1660009081526020919091526040902080547fffffffffffffffffffffffffffffffffffffffffffffffffffffffffffffff00169055565b73ffffffffffffffffffffffffffffffffffffffff1660009081526020919091526040902080547fffffffffffffffffffffffffffffffffffffffffffffffffffffffffffffff00166001179055565b905473ffffffffffffffffffffffffffffffffffffffff91821691161490565b73ffffffffffffffffffffffffffffffffffffffff166000908152602091909152604090205460ff1690565b5473ffffffffffffffffffffffffffffffffffffffff1690565b73ffffffffffffffffffffffffffffffffffffffff8116610a38576040517f08c379a0000000000000000000000000000000000000000000000000000000008152600401808060200182810382526023815260200180610b066023913960400191505060405180910390fd5b81547fffffffffffffffffffffffff00000000000000000000000000000000000000001673ffffffffffffffffffffffffffffffffffffffff91909116179055565b610a8482826109cc565b505056fe4d7573742062652063616c6c6564206f6e20616e20696e697469616c697a6564204578636c757369766520726f6c654d7573742062652063616c6c6564206f6e20616e20696e697469616c697a65642053686172656420726f6c6553656e64657220646f6573206e6f7420686f6c6420726571756972656420726f6c6543616e6e6f742073657420616e206578636c757369766520726f6c6520746f2030783043616e206f6e6c792062652063616c6c6564206279206120726f6c65206d616e61676572a26469706673582212203df4fd6020ecc15510e457cb8cf92c2eee4c3e89d10f051e7da66cd2a9872a0e64736f6c63430006040033417474656d7074656420746f2075736520616e20696e76616c696420726f6c6520746f206d616e61676520616e206578636c757369766520726f6c6543616e6e6f742073657420616e206578636c757369766520726f6c6520746f20307830",
  "source": "pragma solidity ^0.6.0;\n\nimport \"../implementation/Withdrawable.sol\";\n\n\n// WithdrawableTest is derived from the abstract contract Withdrawable for testing purposes.\ncontract WithdrawableTest is Withdrawable {\n    enum Roles { Governance, Withdraw }\n\n    // solhint-disable-next-line no-empty-blocks\n    constructor() public {\n        _createExclusiveRole(uint(Roles.Governance), uint(Roles.Governance), msg.sender);\n        createWithdrawRole(uint(Roles.Withdraw), uint(Roles.Governance), msg.sender);\n    }\n\n    function pay() external payable {\n        require(msg.value > 0);\n    }\n}\n",
  "sourcePath": "/home/opz/Projects/SynFiat-update/ui/contracts/uma-contracts/common/test/WithdrawableTest.sol",
  "compiler": {
    "name": "solc",
    "version": "0.6.4+commit.1dca32f3.Emscripten.clang"
  },
  "schemaVersion": "3.2.0",
  "updatedAt": "2020-06-29T17:18:31.330Z",
  "devdoc": {
    "methods": {
      "addMember(uint256,address)": {
        "details": "Reverts if `roleId` does not represent an initialized, shared role or if the caller is not a member of the managing role for `roleId`."
      },
      "getMember(uint256)": {
        "details": "Reverts if `roleId` does not represent an initialized, exclusive role."
      },
      "holdsRole(uint256,address)": {
        "details": "Reverts if roleId does not correspond to an initialized role."
      },
      "removeMember(uint256,address)": {
        "details": "Reverts if `roleId` does not represent an initialized, shared role or if the caller is not a member of the managing role for `roleId`."
      },
      "resetMember(uint256,address)": {
        "details": "Reverts if the caller is not a member of the managing role for `roleId` or if `roleId` is not an initialized, exclusive role."
      }
    }
  },
  "userdoc": {
    "methods": {
      "addMember(uint256,address)": {
        "notice": "Adds `newMember` to the shared role, `roleId`."
      },
      "getMember(uint256)": {
        "notice": "Gets the current holder of the exclusive role, `roleId`."
      },
      "holdsRole(uint256,address)": {
        "notice": "Whether `memberToCheck` is a member of roleId."
      },
      "removeMember(uint256,address)": {
        "notice": "Removes `memberToRemove` from the shared role, `roleId`."
      },
      "resetMember(uint256,address)": {
        "notice": "Changes the exclusive role holder of `roleId` to `newMember`."
      },
      "withdraw(uint256)": {
        "notice": "Withdraws ETH from the contract."
      },
      "withdrawErc20(address,uint256)": {
        "notice": "Withdraws ERC20 tokens from the contract."
      }
    }
  }
}